:040000006F20000568
:1000040000000000000000009000002076020020A4
:10001400A9BDF9F5940000200000000000000000D4
:10002400960000209800002000000000000000005E
:100034009A000020000000009C0000200000000046
:100044009E000020A0000020A2000020A4000020A8
:10005400A6000020A8000020AA000020AC00002078
:10006400AE000020B0000020B2000020B400002048
:10007400F2020020B8000020BA000020BC000020DA
:10008400BE000020C0000020C2000020C4000020E8
:1000940001A001A001A001A001A001A001A001A054
:1000A40001A001A001A001A001A001A001A001A044
:1000B40001A001A001A001A001A001A001A001A034
:1000C40001A001A001A0B71700409306700523808A
:1000D400D704130780FA2380E7040100010003C654
:1000E400B7041376F60DA385C7042380070413769B
:1000F40005024DC203C6A700118A1DE22380D7045E
:100104002380E7040100010003C7A7001367470029
:100114002385E7009307004B01000100FD17EDFF65
:10012400B7170040930670052380D704130780FA9D
:100134002380E704010001007D892394A7000100C6
:10014400010001000100238007042380D7042380D9
:10015400E704010001000100010037270040930675
:100164001005A303D78023800704B71700401307A3
:1001740070052380E704130780FA2380E704010055
:10018400010003C7B70413670708A385E7042380A6
:10019400070482801376050441C603C6A700418A7A
:1001A4001DE22380D7042380E7040100010003C774
:1001B400A700136707012385E7009307007D01006B
:1001C4000100FD17EDFFB71700409306700523806B
:1001D400D704130780FA2380E70401000100137693
:1001E400F501136606042394C70001000100010011
:1001F4000100238007042380D704130660042380AE
:10020400E7046318C5000100010037270040894650
:1002140089BF01000100372700409306200591B7EC
:100224002380D7042380E7040100010003D787005B
:100234001367070C2394E7000DBF41118146014663
:100244008145114506C65922B717004013077005AA
:100254002380E704130780FA2380E70401000100E8
:1002640003C76704136717002383E7042380070485
:10027400B240410182808146014681451145B9223F
:10028400B7170040930670052380D704130780FA3C
:100294002380E704010001007D562396C7022380D2
:1002A400D7042380E7040100010003C76704136730
:1002B40017002383E7042380070401A0BD47330507
:1002C400F50201007D1575FD8280411122C426C20C
:1002D40006C6AA84014463179400B240224492449F
:1002E4004101828005041305803E4204C13F4180E0
:1002F400DDB7B7170040130700032388E7028547DB
:1003040023AAF18473002030411106C6852DFDBF58
:100314002303048015472303E48001002302A480FF
:10032400828083076480E3CE07FE230304808280F7
:1003340083076480E3CE07FE0345448082808307FD
:100344006480E3CE07FE2302A4808280411126C488
:100354004AC24EC006C61377F50BAD47AA892E894B
:1003640095446306F70019456537653F8D444E850E
:100374004537FD59FD1463983401B240A244124933
:10038400824941018280135509011375F50F453FD8
:100394002209CDB7011126CC06CEB7040800513787
:1003A4001545BD37713769372AC6A53F324593775E
:1003B400150089EB136515001375F50FF240E2443F
:1003C40005618280FD14E9FC0145CDBF397126DC4D
:1003D4004ADA4ED852D656D45AD25ED006DE62CE0F
:1003E40066CCB7E700E07D5783AA070022C603AABC
:1003F400470023A0E71823A2E718B7170040130704
:1004040070052380E704130780FA2380E70483C779
:100414004704930B75FFB684E20793FBFB0F8546F5
:10042400AA892E8B328937240040E187015763FA69
:1004340076016308D5008946130700026313D500CB
:100444000157D98F93F7F70FB71C00402382FC04A0
:1004540011472303E4801305F00F5D3D094CD135AA
:10046400636D7C11B7050700DA9537870700795566
:1004740063F2E504B3879500636EF702370B080057
:10048400A94733EB65016399F90689E48144513D39
:1004940026850DA0DA850945553D05090345F9FF73
:1004A400FD14050B693D81C49377FB0FFDF7DD3522
:1004B40069FD7D55B7170040130770052380E704D5
:1004C400130780FA2380E70403C74704418B238280
:1004D400E704F250B7E700E023A0571123A2471125
:1004E400E25432445259C259325AA25A125B825BC4
:1004F400724CE24C21618280A5476395F9068569B7
:100504001309F00FB3069900B3742B01B694134981
:10051400F9FFB3749900856B33796901416B938753
:10052400F9FFB3F7270199E363FC340193D9490038
:10053400C147E3E637FF99BF0569C1697D19D9B79A
:100544001305800D63886901130500026384790132
:1005540013051008CA85DD3B353D21DD4E99B38472
:100564003441D9B7DA852D45D533CA94E30099F2DD
:1005740005097D3BA30FA9FED5BF9387F9FF93F728
:10058400F70F6361FC0C83C71C0413073008631F57
:10059400F70437070800636BEB04B3079B00B70647
:1005A400100063F5D704334BEB0089476393F906D6
:1005B4008980D549E38C04ECDA850945413B11096E
:1005C4000327C9FF91472320E48003076480E34E97
:1005D40007FE23033481FD17EDFBFD14110B81C4C9
:1005E4009377FB0FE9FF7D3371F5E1B5B717004051
:1005F40003C75704B70708001377070219E3B7873F
:1006040007007955E378FBEA33079B00E3FFE7F83B
:1006140055B58547E382F9F2DA852D45053B938983
:10062400F4FFE38504E6293393F7390091EB83263D
:1006340004800327090093074900E39AE6E43E890E
:10064400CE84F1BFB5476396F9001305900BC93109
:1006540035BDB1471305B00AE38BF9FE99476391A1
:10066400F904B7050800B365BB002D45C5318144C5
:100674008D4BA14975396396740183270480232027
:10068400F9008504E39834FF8327048013172B01B2
:10069400635507002312F900D5BB2322F900FDB3EB
:1006A4009D476399F90281451305B0044531BD4462
:1006B4002320090023220900FD599D3993F7740072
:1006C400CA9703C70700FD14398D2380A700E3965A
:1006D40034FF6DBBA1476392F9046D398144630D06
:1006E4000B008D479304C0036308FB0093040005CB
:1006F40063048B01930440041375C507E30895D87C
:100704001945393139390545213126850D390945D0
:100714003D314931E31C05D669BB91476399F90022
:1007240013056006F536F53E130590090DB7E38F02
:1007340009D4F154A9BB19CD91CD09CE8147338792
:10074400F500834607003307F50085072300D7002B
:10075400E317F6FE828019C991C909CA910583A7D6
:10076400C5FF11057D16232EF5FEC5BF828001C984
:1007740019C62A960505A30FB5FEE31DA6FE8280C1
:1007840081473307F5000307070019E33E8582809C
:100794008507C5BF01112E8626CAAA841315060132
:1007A4009305F004418122CC06CE32C6EF10C0601E
:1007B4002A8401C53246A685BD3F2285F2406244A3
:1007C400D24405618280854715C18DC105C2814728
:1007D400B306F5003387F50083C606000347070018
:1007E4006398E6008507E315F6FE85473E8582801B
:1007F4008147EDBF9307F6FFBE952A966313C500A4
:100804008280FD1583C715000505A30FF5FEFDB70E
:10081400AA87014581CF09CE3E96850703C7F7FF16
:100824006317B700E39BC7FE0545828082800145BC
:1008340082807971973700009387076322D48043BD
:1008440006D626D24AD04ECE52CC56CA5AC85EC616
:1008540062C45DCC37C9C901814B173A0000130A41
:100864002A6597340000938464601309F937973A32
:100874000000938A2A5AB709C0A8370B40578357F8
:10088400240095E35C44639D0B0017370000232D7F
:10089400F75C032CC4002285EF10205F628499A8C2
:1008A40023A6FB00FDB783270A0082978386640191
:1008B4001C4463DB06063307F5406367E908973792
:1008C400000023A1075683552400034504009730F4
:1008D40000E0E78080E15C405844A9CF1444B69717
:1008E4008386640163C5060063E33701DA971CC499
:1008F400A28B3A8449F4973700009387A7519C4B05
:1009040009476378F706F91717370000232CF750C7
:10091400B250225492540259F249624AD24A424B8A
:10092400B24B224C45618280E377F5F83387F94076
:100934002A9761B763970B009737000023A6E75205
:1009440089BF23A6EB00B1B7D85009CF63DF0600F7
:100954003385A74083A70A016376F5009737000023
:1009640023A2A74CA28B404471B7E3F3A7FECE9712
:10097400C5B79737000023A7074A59BF411122C4BE
:10098400173400001304044C1C4006C626C24AC097
:1009940091C782979737000023A6074A5C4091C30A
:1009A40082971C406391071C9737000083C7D76563
:1009B400858B9DC797370000A3880764173700000D
:1009C4000347B764914763FDE700EF00F03F9737B3
:1009D400000083C79763F9178A07A2979C438297FD
:1009E40017390000130909668347C900918B99C31D
:1009F400EF10E02F1C4491C3829797340000938436
:100A040064469840173600000346D64097370000E6
:100A140083C7474093961700BA9683D60600D5CA73
:100A24009737000083C7073F63EFC70A9737000073
:100A34002382073E1C40639807129737000083C740
:100A4400F75C91CF9737000083C7375C89EB973702
:100A54000000A38D075A97B001E0E78040EA97377A
:100A640000009387E7449C43638F070EB707C0A831
:100A7400173700002328F73A6D3B97370000938718
:100A8400E73EDC53EDC3173700001307A738184BB4
:100A94009737000083C7D73E6367F70C173700000A
:100AA4000347B756914763E0E70C8347C900918B2E
:100AB400DDEB90409736000083C6D63563CBD70A6A
:100AC4002244B240924402494101173300E06700D6
:100AD400E39E850793F7F70F97360000238CF632D1
:100AE400E3E6C7F235BF86073E9783550700231018
:100AF4000700973700002395073697370000938740
:100B040027349C43173500000345C53013172500CF
:100B1400BA979C4382979737000083D76734173777
:100B240000000347272F93C7F7FF7D8D9317170006
:100B340098403E97835707005D8D2310A700973791
:100B4400000083C7272D91C78507173700002303AB
:100B5400F72C173700000347E72B9737000083C7AC
:100B6400772BE375F7ECB2402244924402494101E9
:100B74008280139717003297035707006DF7850794
:100B840035BFAD6737C70040BD072326F7200F10D8
:100B94000000973700009387E727C84F83278726ED
:100BA400BD66BD0693C7F7FF99836A052326D72040
:100BB4005D8D82804111B7170040985F3AC6945FFB
:100BC4003247E39CE6FE324541018280828003275E
:100BD400851163000712411122C406C68347C5006C
:100BE4008345C5042A8493F7C70F2306F50083467B
:100BF40097000356C70013958601618563F1C50804
:100C0400635A05060345870093F6F607A304D70045
:100C1400054693E627006314C50093E617002306F0
:100C2400D4005C4389075CC3A30AB4000325041100
:100C34002E864C430905013683278411034654014B
:100C4400D44303D7C700B296118FD4C32396E700C9
:100C54008947A30DF400034744039737000083C773
:100C640007226378F7048347C40093E70701230648
:100C7400F40081A093E717002306F40075B7937678
:100C8400F60F635D050203458700854513E62700DB
:100C94006314B50013E617002306C400A30AD400A6
:100CA400A30407008547A30DF400832784119C4304
:100CB400DDF3B240224401454101828093E71700ED
:100CC4002306F400A30AD400A30407000325041197
:100CD4004C4309058D348327841103465401D443BE
:100CE40003D7C700B296118FD4C32396E7008D476C
:100CF4005DBF05458280973700009387672F9C432B
:100D0400411122C406C6858B2A84C5EF41651305AB
:100D140025F5972001E0E780C06545C58347A50018
:100D24002315F50083270412BDE72320A4122322F0
:100D3400A41285472310F40423200500834764018B
:100D440054412316F5000347D4002304E500054766
:100D5400A304E500173700001307C72A184F1385AB
:100D6400170215811C437D151375F50F9CC25C4356
:100D7400DCC21C479CC65C47DCC61C4B9CCA5C4B53
:100D8400DCCA1C4F9CCE5C4FDCCE19CD9386060288
:100D940013070702C1BF8327441288C3835704047F
:100DA4002322A412850779B79737000083D78732A7
:100DB400850717370000231FF730B2402244410152
:100DC40082808347C40023090400054593C7470074
:100DD4002306F400DDB78347850193F7E70FCDEBD6
:100DE40083479501D5E7034625018346C50009CA13
:100DF40083454503173700000347770863E7E50099
:100E040013F7060159C7014709C6C18A0357851B51
:100E140081C68356C51B36972DCFB7470F0097362B
:100E2400000083D6A60193870724B3C7D70213070C
:100E3400C712411126C222C406C67D543357F70295
:100E44009737000083C71704B384E700973700007F
:100E54009387C72783A6C70883A7060963F3870078
:100E64003E849442F5FA97370000938767049C43C5
:100E7400829781476364A400B307A440B24022442C
:100E8400B3B7970093C7170092443E85410182800F
:100E940081473E858280797126D206D622D44AD0F3
:100EA4004ECE52CC56CA5AC85EC683473503034455
:100EB4007513AA843E941374F40F9307400263F6E7
:100EC40087001304B4FD1374F40F03AA841383AAD4
:100ED400C413A38B841222865285D685973002E0F0
:100EE400E780E0FB058915E503CBD412014981496C
:100EF400337B6403930B50024A865285D685973020
:100F040002E0E780C0F9058915C56391690313748C
:100F1400F90F238B8412B250225492540259F2498D
:100F2400624AD24A424BB24B456182808509E2094A
:100F340093D989410509E31179FDE1BF8327850927
:100F44000356E503797193D60701BD8EC206C182AB
:100F5400358E1357764093575640898B058B5D8F9A
:100F640093573640918B5D8F93571640A18B5D8FBD
:100F740093171600C18B5D8F9317360093F7070202
:100F84005D8F931756009355860093F707041E064A
:100F94005D8F1376F60F518F93D7554013D6354096
:100FA400118A898BD18F13D67540D18F13D61540F2
:100FB400218AD18F13961500418AD18F139635005B
:100FC40013760602D18F13965500137606049E05F8
:100FD400D18F93F5F50FCD8FA20745465D8F33076B
:100FE400C70222D42A8426D252CC56CA032A841396
:100FF400832AC4135AC806D63697420741839357A7
:101004007740135557400989858BC98F135537404D
:101014001189C98F135517402189C98F13151700DA
:101024004189C98F1315370013750502C98F13152C
:10103400570093558700137505041E07C98F13774E
:10104400F70FD98F13D5354013D755401189098B24
:10105400498F13D57540498F13D515402189498F80
:10106400139515004189498F1395350013750502B1
:10107400498F13955500137505049E05498F93F503
:10108400F50F4D8F2207D98FB387C7024AD04ECEB2
:101094005EC662C4B697C207C18313D7774013D51F
:1010A40057400989058B498F13D537401189498FDA
:1010B40013D517402189498F139517004189498F0A
:1010C4001395370013750502498F1395570093D56F
:1010D4008700137505049E07498F93F7F70FD98F7F
:1010E40013D5354013D755401189098B498F13D532
:1010F4007540498F13D515402189498F13951500E3
:101104004189498F1395350013750502498F13954D
:101114005500137505049E05498F93F5F50F4D8F02
:101124002207D98FB387C702130650025285D6858A
:10113400B697BD8E93940601C18033F6C402137B27
:10114400F60F973002E0E78080D505890DED8347DF
:10115400D41201498149B3849702130C5002C1800F
:101164004A865285D685973002E0E78040D30589C8
:10117400937BF90F11C563863403850993F9F90F3D
:101184000509E31F89FD230B6413B25022549254C2
:101194000259F249624AD24A424BB24B224C45614F
:1011A40082805E8BCDB7011122CC604126CA4AC829
:1011B4004EC652C406CEAA841D4A13096505854944
:1011C400BC446364F400054581A803C7D400834785
:1011D4004400631B470503C784026304F70000400F
:1011E400C5B70347540083C75405E31AF7FE1946ED
:1011F400CA8513056400EFF00FDDE31235FF0347E2
:10120400C40083C79402E31CF7FC0357E40083D7AC
:10121400A402E316F7FC0145F2406244D244424979
:10122400B249224A05618280E31BF7FA034754005E
:1012340083C75405E315F7FA1946CA8513056400F4
:10124400EFF06FD8E31D35F9F9B7011197370000B6
:101254009387C7E722CC03A4070B26CA06CE2AC469
:101264002EC6854419E40145F2406244D244056126
:1012740082808347910003471400858B6304F70041
:101284000044CDB719469305A10013052400EFF0DF
:101294008FD3E31795FE0545C1BF011122CC173446
:1012A40000001304E4D718402AC62EC432C206CE66
:1012B4003C4B93F7F7F73CCB97A001E0E780E06065
:1012C400184097360000938626D33C4B93E70708D3
:1012D4003CCB9C423245A24523A00700034715009E
:1012E4000348250022074208429703480500429715
:1012F400034835006208429798D7034755000348CE
:101304006500220742084297034845004297034874
:10131400750062084297D8D7034795000348A50093
:101324002207420842970348850042970348B500C4
:101334006208429798DB0347D5000348E50022077B
:10134400420842970348C5000345F50042976205E9
:101354002A97D8DB03C7150003C5250022074205D9
:101364002A9703C505002A9703C5350062052A9705
:1013740098CF03C7550003C56500220742052A9785
:1013840003C545002A9703C5750062052A97D8CF7F
:1013940003C7950003C5A500220742052A9703C584
:1013A40085002A9703C5B50062052A9798D303C719
:1013B400D50003C5E500220742052A9703C5C500E9
:1013C40083C5F5002A97E2052E97D8D3D843759B99
:1013D400D8C3D84313671700D8C3984313671700BB
:1013E40098C3124698425C43858BD1E71C4F014554
:1013F4002300F6009C429C4FA183A300F6009C426C
:101404009C4FC1832301F6009C429C4FE183A301BE
:10141400F6009C42D84F2302E600D84F2183A30252
:10142400E600D84F41832303E600D84F6183A3032A
:10143400E60098532304E60098532183A304E600AE
:10144400985341832305E60098536183A305E6007E
:10145400D8532306E600D8532183A306E600D853C5
:1014640041832307E600DC53E183A307F600F2403F
:101474006244056182800100B5B75D713AD21737C5
:1014840000001307A7B736D414433ED022DE9C5E77
:101494004ACA86C6998396C49AC29EC026DC2ADAB2
:1014A4002ED832D642CE46CC72C876C67AC47EC214
:1014B400858B3A8417390000130909B4D1CB9C5E9B
:1014C40097340000938404B493F7F7F99CDE17373C
:1014D4000000034787B393070008631BF7008327C3
:1014E40009009C4393F7070417370000230FF7B054
:1014F40083C7040093F707049DC3973700009387BD
:10150400279B9C4382979737000023A5A7B083C7E6
:10151400040093F7F70B173700002305F7AE83C7D2
:10152400440093F707048DE7854717370000A30DA0
:10153400F7AC973700009387A7AE9C43096798C719
:10154400130700FC973600002380E6ACD844F8D398
:101554001C40985F1183058B09CB985F3D9B98DFF6
:101564000547973600002381E6AA985F1D83058B03
:1015740011CB985F1377F7F798DF8547173700008B
:101584002304F7A883270900D8430583058B19C7CB
:10159400D843759BD8C3D843799BD8C37254B640FB
:1015A400A64216438643E2545255C2553256A256B9
:1015B400125782577248E2485249424EB24E224F65
:1015C400924F61617300203097370000938747A5DD
:1015D4009443973700009387E7A203C70700058B5E
:1015E40011CB97370000238107A297370000A38D02
:1015F40007A0828003C71700058B65F7F85271FFB7
:1016040083C75700DDB7173800001308289F032746
:1016140008001C5F9583858BD1E709C61C5BBD83DD
:101624002300F60085CA83270800985B4607935772
:1016340067016356070093E707C0C207C183039796
:101644000600C207C18709C7BA970947B3C7E702AB
:101654002390F60085CD834715008DCB9736000087
:1016640083C6A69A93F606041387970089478DCA02
:101674003A9503470500854699471376F7066311A3
:10168400D60262076187B947634C070083270800C5
:101694009C5FED838D8B17370000A30AF796814773
:1016A4003E8582808547EDBF411122C406C61734AA
:1016B40000001304E496184049E9AE877453FDFE14
:1016C4003E85B28597370000238F079297A001E0EB
:1016D400E78080FC97370000938747929C43B706C6
:1016E40080009843558F98C3D857719BD8D79737A4
:1016F4000000A38B079097370000A38507901C4038
:10170400094798C3B7F700E003A707D16D9B23A847
:10171400E7D003A707D15D9B23A8E7D0730050103F
:101724001440173700001307E78D83472700858B84
:1017340089EB83473700858BD9C79737000023850A
:10174400078CB2402244410182808D476310F50228
:10175400973700009387878A9C43B7068000984395
:10176400558F98C3D857719BD8D75DBF8547E31968
:10177400F5FAB567BD075CC70F1000001C40096788
:10178400094698C7130700F897360000238EE686AB
:1017940017370000130787861443984231830D8B53
:1017A4006319C7001307E043F8D33D673D07D8C763
:1017B40085BF984231830D8B01E713076019EDB79C
:1017C4001307E01BD5B7FC52ADF3A5BF5D7152DC26
:1017D400173A0000130A8A8203270A0086C6A2C4A5
:1017E400A6C2CAC04EDE1C439739000093890988FB
:1017F400173900001309C98293F7F7E793E707083D
:101804001CC383A609003707CEFF7D179C46130629
:1018140080022A84F98F9CC68327090013070008D5
:101824002800B8CBAE8493051008EFE05FF497A0CE
:1018340001E0E780800997A001E0E7808016832714
:101844000A009376F41F370FFCFF23A40700984B7C
:101854004E88CA881367F70398CBF84F130510F81E
:10186400D285137707E0558FF8CF9843F576FD16A8
:10187400758F98C39843B7063300B70204001377F3
:10188400F7E798C398439303401F7D1F1377F7E747
:101894001367071098C303A70900930F80028549B3
:1018A4001C47D58F1CC7832709001307900D3400EC
:1018B400B8CB1149014713533700269383470300DC
:1018C40013767700B3D7C740858BDDCF9C41832E39
:1018D4000800239C07042390070603AECE02137E60
:1018E400DEFF23A6CE0383AE0700137EF70793FE25
:1018F4000EF833EECE0123A0C70103AE4702336EC8
:101904005E0023A2C70383AE0800014E23A27E0615
:1019140003DA070663074E0303AE0703038A0600D0
:10192400135EFE00620E135E8E416358CA0103AE5D
:101934000703135EFE002380C60103DE0706137E41
:10194400FE0F03AA4E0663060A0003DA8705E37F47
:1019540049FB03AE4702337EEE0123A2C70383870C
:101964000600635CF400034E03003396C90013467B
:10197400F6FF3376C6012300C3003E8663D3A70077
:101984002A8613158601618505071377F70F8506E7
:10199400E313F7F3B640264496440649F259625AD3
:1019A40061618280011136C89726000093864667DC
:1019B4003EC49C423AC632CAD8472ACE2ECC13160D
:1019C4001701635506029847131617016350060260
:1019D4007D57B8D7172700001307C743584F05078B
:1019E400172600002326E644116798C798470D83FD
:1019F400058B1DC3172700000347E7601367170013
:101A0400172600002301E660130700F817260000DC
:101A1400230CE65E214798C79847058B09CF172703
:101A240000000347375E1367170017260000A30B57
:101A3400E65C054798C798470983058B09E79847EB
:101A44000583058B39CF9847172600001306865B5C
:101A5400172500001305855A0983058B630C0710AD
:101A64001841184331830D8B63130710AC4B184E88
:101A740093F5050203471700E9C57DE713077006D0
:101A8400D8CF034706001367170017260000230B5F
:101A9400E656114798C718415C57F19B93E7170026
:101AA4005CD79C4298479316370163D60602972663
:101AB400000083C6A668C18A1727000013070761C0
:101AC400E1C6034707071367070297260000238729
:101AD400E666056798C798479316270163D10602FF
:101AE40017270000034747526207618763570700BF
:101AF4000547972600002389E650096798C7984749
:101B04009316070163D606029726000083C6166360
:101B1400858A172700001307675BC9C603471707A1
:101B24001367270097260000A38AE660216798C7F9
:101B34007245E2455246C2463247A24705617300E8
:101B440020300DDF85456315B7001307B0060DBFC0
:101B540089456315B7001307F0061DB78D45631556
:101B6400B7001307300729BF1307500711BF130726
:101B7400600739B7034736001367170017260000BC
:101B8400A303E648094739B7834607070946BD8AD0
:101B94006388C600034707078D463D8BE31BD7F2D6
:101BA400114725B783461707918AC9D203471707F8
:101BB4001367870085BF172700001307A7468346CE
:101BC400B7019727000083C7B748B69793F7F70F75
:101BD400FD4663EAF6044C4B97260000A384F644C2
:101BE4009727000083C7174405473317F700972644
:101BF4000000A38FF6446D8F1DEF9726000083C667
:101C04007645B3F6D70213050002814733D6F500B3
:101C1400058A13F8F70F09CE6399E60097270000A9
:101C2400A3820741828081177DB705071377F70FD9
:101C34008507E39DA7FC82809727000093874727A9
:101C44009C43011122CC4EC606CE26CA4AC852C4B1
:101C540056C28297972700009387C73E80478149E1
:101C64006305A406BE849727000093872720038773
:101C740067013E8963550706018D13545500972764
:101C8400000083C7C73B9379F501636DF402370AFB
:101C9400C0A8B70A405705379C449726000083C65E
:101CA400063A139756003E9783076901158C63C55E
:101CB40007006363470156979727000023A8E73876
:101CC400E37BD4FC1604B3693401F24062444E85CC
:101CD400D2444249B249224A924A05618280E37D54
:101CE40085F8B707C0A833848740229579B797272A
:101CF40000009387E71B9C43411122C406C626C2F9
:101D04008297972700009387E73380476309A406E7
:101D1400BE8497270000938767158387670163D87C
:101D24000704018D135455009727000083C72731FA
:101D34006367F404493598449727000083C7273024
:101D44009396570036971D8C9726000023A0E63003
:101D5400E372F4FE2244B240924417250000034586
:101D6400752C8145410117A301E067004308E37A1C
:101D740085FAB707C0A833848740229565B7B24077
:101D84002244924441018280972700009387072EC2
:101D94009843B75702009387079F83260709139632
:101DA40056006358060083260709139666006344A9
:101DB4000600FD17FDF3828071C5AA870145E9C5B8
:101DC4008D07C207C183F19BC207C1831307400378
:101DD400636FF702172700001307072F084317271D
:101DE40000001307E72D14436398A6021727000089
:101DF4001307C707185B014541CB4111C20706C64B
:101E04000545DD8D0297B2400145410182801727C7
:101E140000001307272BD9B70357650035E3035791
:101E24004500636FF704B306F7402146637CD6028E
:101E340003280500938687001D8FAA96611717262D
:101E44000000035686FD2392E60023A00601239397
:101E5400060014C12312F500130786FF972600001D
:101E6400239DE6FA2313B5009725000083D5E5FAF0
:101E7400B387F540172700002311F7FA2105828064
:101E840008419DB70145828082800DC197270000DB
:101E94009387872303A3070097270000938747228C
:101EA40083A8070081469A8763E31701828003A809
:101EB4000700636DF50A636BA80A13878700E3675D
:101EC400E5FE03D66700216705076317E60003C72D
:101ED400418F0507238AE18E97250000938585F3BA
:101EE40003D6470003D765002393070032974207C0
:101EF4004183172500002312E5F2638A6702172540
:101F040000001305251C08416303F50203D5660090
:101F140019ED83D7460023A0060121073E9621062A
:101F24002392C600972700002399E7EEB6879843CB
:101F3400E30E17F7972600009386C6189442E3072A
:101F4400D7F683566700BDF283D647000356470091
:101F54001843A106B2962392D70098C383D765008D
:101F6400A10717270000231AF7EA8280BE86C287DA
:101F740025BF0111972700009387471522CC03A49E
:101F8400870B26CA4AC84EC606CEAA841309250062
:101F9400854915C083C7140003473400858B630447
:101FA400F700405CFDB71946930544004A85EFE00D
:101FB4009F81E31835FF2285F2406244D2444249AE
:101FC400B249056182804111972700009387071069
:101FD40022C403A4870B26C24AC006C69304250064
:101FE400054901E82285B240224492440249410154
:101FF4008280A6851305A402972002E0E78020A42E
:10200400E30225FF405CF1BF41119727000093874D
:10201400E70B22C403A4870B26C24AC006C6930456
:102024002500054901E82285B24022449244024930
:1020340041018280A6851305A401972002E0E78070
:0C20440000A0E30225FF405CF1BF00009B
:10205000971100209381819617610020130181FA66
:102060001305400097E5FF1F9385C5F9170600206B
:10207000130606FE63FAC5008322050023A055005F
:1020800011059105E3EAC5FE174502001305850019
:10209000970500209385C5FB1386018563FAC5006B
:1020A0008322050023A0550011059105E3EAC5FE32
:1020B0001385018597250020938545136377B50027
:1020C000232005001105E36DB5FEFD42739002BCAF
:1020D0008D42739042809302800873A0023097E291
:1020E000FF1F938222F293E23200739052309712D4
:1020F00000009382220973901234730020303D4314
:102100002A876373C3029377F700BDEFADE593763B
:1021100006FF3D8ABA960CC34CC30CC74CC7410797
:10212000E36BD7FE11E28280B306C3408A069702B2
:10213000000096966780A6002307B700A306B700A5
:102140002306B700A305B7002305B700A304B70013
:102150002304B700A303B7002303B700A302B7000B
:102160002302B700A301B7002301B700A300B70003
:102170002300B700828093F5F50F93968500D58DE7
:1021800093960501D58D61B79396270097020000BD
:1021900096968682E78086FA9680C1171D8F3E96B6
:1021A000E374C3F8A5B7B717004003C777051377E3
:1021B000E70FA38BE704130700F8A38DE7043D475F
:1021C000238CE70413075003A38CE704828041119A
:1021D0002A83014E930E407E130F0019930F400681
:1021E00063E46E0E9308001913034006B3781503D9
:1021F000854E0D4FA14F337365020D8913351500C0
:1022000063EEBE0E1308F6FF794672984208135823
:1022100008013307C70213D61700BE07329761467D
:10222000B3F6C60213068070B386C6023697A1665F
:10223000F58F42075D8FB716004083C7F60293F70C
:102240000708A307F1000346F10083C7F60293F7DE
:102250000708E394C7FE8347F100B716004093F7E1
:10226000F70FFDC7B7170040930670052380D7040A
:10227000930680FA2380D7040100010023AA0703F4
:1022800083C6170311667D1693E60608A388D70256
:10229000D45BC85F93854703A98EF18EF5FA930648
:1022A00070052380D704930680FA2380D7040100A9
:1022B000010098C103C7170313670704A388E70247
:1022C00023800704410182807D133368E303930870
:1022D000E016630E08003368F3039308D016630812
:1022E00008009378330093B818009388D816330801
:1022F0001E01131E0801135E0E01DDB56393E50395
:102300000548638608000148630303002A887108B2
:102310007298FD15131E0801C205135E0E01C181DE
:10232000C5B513F8150063F4BF007908D5B71338A5
:102330001800E5BF83C7F60293F70708A307F1006B
:102340000346F10083C7F60293F70708E394C7FE3C
:102350008347F10093F7F70FF1DF29B7914763EE59
:10236000B70217370200130767348A05BA959C41F4
:10237000BA978287B717004003A7470B1345F5FFAD
:10238000698F23AAE70A03A7070B698F23A8E70A27
:1023900003A7070A798D23A0A70A8280B7170040F8
:1023A00083A6470B1347F5FFF98E23AAD70A83A606
:1023B000070B558D23A8A70A83A6070A758F23A0AC
:1023C000E70A8280B717004003A7470B498F23AA6B
:1023D000E70A03A7070B1345F5FF45BFB7170040F2
:1023E00083A6470B1347F5FF758F23AAE70A03A7B8
:1023F000070A598D4DB7B717004003A7470B498F00
:10240000EDB7914763EEB702173702001307472B6A
:102410008A05BA959C41BA978287B717004003A7EF
:10242000470D1345F5FF698F23AAE70C03A7070D96
:10243000698F23A8E70C03A7070C798D23A0A70CAD
:102440008280B717004083A6470D1347F5FFF98E2A
:1024500023AAD70C83A6070D558D23A8A70C83A606
:10246000070C758F23A0E70C8280B717004003A7E5
:10247000470D498F23AAE70C03A7070D1345F5FF66
:1024800045BFB717004083A6470D1347F5FF758F6B
:1024900023AAE70C03A7070C598D4DB7B7170040C7
:1024A00003A7470D498FEDB7B717004003D5870045
:1024B000420541819377050491EB9377F5013755F8
:1024C000E801130505803345F50282809377050CFA
:1024D000130700046397E7009377F50137459C1CC9
:1024E000CDB72165130505D08280B7F700E0884796
:1024F000CC478280814737370040A14663C4C7007C
:10250000328582800345B740E38EA6FE3385F50011
:102510000345050085072304A740CDB7411122C418
:1025200006C62A8451372947B307E502B2408D8396
:10253000B3D7870222449507B3D7E7023737004065
:10254000C207C1832316F7404101828071654111A2
:102550001305052006C6D937B7370040130770F8B2
:102560002381E7400D47A381E74013070004A380C0
:10257000E74005472387E740B2404101828041118F
:1025800093962500AA852D4506C697E0FF1FE78094
:1025900020E4B240014541018280411126C293945A
:1025A000250022C44AC02A843289A686AA8501460B
:1025B000254506C697E0FF1FE78080E1A6864A868C
:1025C000A285294597E0FF1FE78080E0B2402244C2
:1025D00092440249014541018280011122CC06CE7C
:1025E0003714004026CA4AC84EC652C483447405F4
:1025F000034AB40583498405034994056D3683472E
:10260000A40593F4F40F137AFA0F93E71700230D40
:10261000F40493F9F90F1379F90FB717004003C7C2
:10262000A705058B6DFF03D5C705A38D4705238C33
:102630003705A38C2705A38B9704F2406244D2444C
:102640004249B249224A05618280411193970501AE
:1026500022C406C6C1872E8463DD0700EF00504008
:1026600019C1EF00D0382165218DB24022444101CB
:10267000828093F7150013C51500E5FB939725019C
:1026800063DF0700EF90015D37F60200130606E0F6
:10269000896503C50185EF1000170965F1B79397A8
:1026A00015010145E3D307FC173502001305450862
:1026B000EF10525D13060064916503C50185EF10AC
:1026C0008014116555B71D714946973502009385F1
:1026D0006506173502001305A55D86CE97E0FF1F3E
:1026E000E780A00E01E9173502001305E505EF109C
:1026F000725901A0B7F600E0795798CAFD57DCCAB5
:102700000567B7E700E023A0E7101306F00290C2C8
:1027100023A0E718010001001306C0038145480803
:1027200097E0FF1FE780E00497070020938707E802
:102730003ECA896793870780231CF100ED47231267
:10274000F1029547A301F10285472303F102B54742
:102750002304F102A167938707E03ECE97070000AC
:10276000938727E2BEC497070000938747E3BEC65E
:10277000B947A305F102B7F5070097070000938753
:1027800007D73EDA814697070000938747E5700038
:10279000E10519453EDE97E0FF1FE78060C358085A
:1027A0008147994670003E96034606008507050757
:1027B000A30CC700E398D7FED24791C70357810106
:1027C00085676373F70001A04808EF10C04FAA8522
:1027D00001C917350200130565F8EF10723601A024
:1027E000F64025618280411117050000130525E69A
:1027F00006C622C4EF106049138401852300A4009B
:102800002928034504002244B24037F6020013068B
:1028100006E0896541016F00107F411106C6B717B8
:102820000040130770052380E704130780FA238014
:10283000E7040100010003C7F7021305407E81464B
:1028400013677700A387E7022380070401478147C6
:1028500005468545AD3AB240014541016F10C0794A
:10286000B305B04017350200130545F16F10522D26
:10287000011122CC2316C10032846C0003C651869C
:1028800006CEEF50B071A28517350200130505F092
:10289000EF10122BF24062448547238CF1840561CE
:1028A0008280011122CC36C606CE2E84EF00B03BCA
:1028B000B24637460F00130606243376C50291CA86
:1028C000B285173502001305A5ED32C6EF10522769
:1028D000324622856244F240814505616FE0A11DC8
:1028E00081E9B28517350200130585EC6F1052257A
:1028F0008547639DF500173502001305A5EC09C651
:1029000017350200130505ED6F10D237894763981C
:10291000F500173502001305E5EC7DD682808D4762
:10292000E39EF5FE173502001305C5EC71DEB28596
:1029300017350200130545ED55BF03C741869307C0
:10294000F00463F0E7068280931534008905194688
:10295000A6954A8597E0FF1FE78020E705ED05046F
:102960001374F40F83C74186E360F4FE8E07890772
:102970003385F4001946CA8597E0FF1FE780E0DB46
:1029800083C7418613973700BA948507A380340123
:102990002382F186F2406244D2444249B249056141
:1029A0008280011122CC26CA4AC84EC606CEAE8904
:1029B0002A8901449384019775B7834725004947C5
:1029C0006365F71E173702001307C7D08A07BA9747
:1029D0009C43411122C406C626C24AC0BA972A8423
:1029E000828705041374F40F83C74186637DF40066
:1029F0009315340089051946A6954A8597E0FF1F6F
:102A0000E780A0DC79DD83C74186639087041735B2
:102A100002001305E5E1EF10F226014685450D455C
:102A200023820186EFC0F12617350200130545DF2A
:102A30002244B2409244024941016F10B224014441
:102A4000938401971389C18045B717350200130598
:102A500065DFEF103223938701970E04930624005D
:102A60003E9403461400BE9681450145EFC0111FF8
:102A70000566130606C89305002003C55186EF00BE
:102A80009058173502001305E5DC5DB7930500206B
:102A900003C55186EF00F07783451400A1E989470B
:102AA000A381F1868357A40013060064A1452395F2
:102AB000F18003C551868547238CF184EF00B05423
:102AC0000566130606C8C14503C55186EF00B0531D
:102AD0001166130606E89305001003C55186EF0042
:102AE0009052173502001305E5D799B71735020044
:102AF000130545D8EF10D20417350200130545D24F
:102B0000EF105218238201862244B24092440249B7
:102B1000014685450D4541016FC0B117A38101866E
:102B2000F9579305001003C551862395F180238141
:102B30000186239E018423820186238C0184EF0079
:102B4000506D8345640017350200130565D4EF10FE
:102B5000227F173502001305A5CCEF10B2126DB716
:102B600017350200130585D4E1B5173502001305AA
:102B7000E5D47DBD17350200130545D5EF10921041
:102B800083454400130554002244B2409244024954
:102B9000410165B317350200130545D4C5B7B240EE
:102BA0002244924402494101828082803971939784
:102BB000050126DA06DE22DC4AD84ED652D4C18779
:102BC000AE8463DD073003C55186EF0060692A8457
:102BD0000DC5034705009307000B631EF70083C76D
:102BE0003186094783454500930985006381E702E3
:102BF0004E85EF6020142285DD2B2165258DF25056
:102C00006254D2544259B259225A216182800D47EE
:102C10006381E50205476390E50203478500631A77
:102C2000F7028345C50017350200130565CCEF1088
:102C30002271238C0184034744009307F007631A31
:102C4000F70083558400173502001305E5CBEF101C
:102C5000226F834744002D476387E7020547639C43
:102C6000E70203478400A9466311D7048345C400E3
:102C700017350200130505CAEF10826C238C0184FE
:102C800083454400B5B75C4417350200130585C978
:102C900083C50700D5B74D476393E7021735020098
:102CA000130585CAEF10027ED1BFC9466318D70A43
:102CB0008345C400173502001305C5C775BF6D47AE
:102CC0006392E70483558400173502001305C5C8D5
:102CD0000149EF10E266173A0200130A6ACA8357E5
:102CE000A4006366F9002945EF10826951BF5C4476
:102CF0005285CA9783C5070005091379F90FEF10AC
:102D00002264F1BF7547639BE70417350200130582
:102D1000A5C7EF10E2620149173A0200130A0AC878
:102D20008357A4006361F9022945EF1062650355DA
:102D30002400EF10304CAA8517350200130585C614
:102D4000EF10026035BF5C445285CA9783C5070007
:102D500005091379F90FEF10A25ED9B703C72186D1
:102D6000E30007F285466317D7081D47639CE70217
:102D70008357840085CB5C44173502001305C5C317
:102D800083C5170003C6370003C7070083C72700A2
:102D9000A2052206D98D5D8E2390B186239FC18422
:102DA000EF10025A834744001D476393E70403472B
:102DB0001400E947E396E7EC83D50186E38205EC4E
:102DC00089472381F186F9779387271003D6E18518
:102DD0002316F10083C65186FD5703D5A180231425
:102DE000B1002315C1002307F100EF50901849BD31
:102DF0000547C9B78946631CD7082547639EE70284
:102E00008357840095CB584493050004130600644F
:102E1000834717000347070003C55186A207D98FD0
:102E2000239EF184EF00301E83D5C1851735020043
:102E3000130545BBEF10C2508347440025476396F6
:102E4000E70403471400E947E39CE7E28D47238149
:102E5000F1869387018683D7070003C651862C002D
:102E60002314F1009387E18583D7070003D5A18060
:102E70002315F100930720202316F10093079002F9
:102E80002307F100EF50F01BE5BB054775BF8D46EA
:102E9000E318D7DE25476390E7048357840085CF86
:102EA000584493050008130600648347170003473E
:102EB000070003C55186A207D98F239DF184238C77
:102EC0000184EF00501483D5A18517350200130546
:102ED000E5B3EF10E246238101865DB393F7150059
:102EE00085C317F6FF1F1306A61697F5FF1F9385D8
:102EF000E52C03C55186EFC0015113C5140001B381
:102F000093F7052081CB41657D15EFE0013813C5AE
:102F10000420F5B193F7850085CB81572314F10088
:102F2000239E0184239F018423900186854783C6C5
:102F3000518609462C0003D5A1802381F186EF50EC
:102F4000902E13C5840065B993F7050191CF13073F
:102F50008025814613064006D14503D5A180EFE0C8
:102F6000413213C5040161B993F705029DC30147BE
:102F700089460946814503D5A180EFE04133AA8502
:102F800017350200130505ACEF10823B13C5040290
:102F9000BDB193F70504CDC383C78185A5E703C7FA
:102FA000818083D7C18503D5A1802DC72314F1006B
:102FB0000147854781460546C94523180100231569
:102FC000F100EF5010102AC615CD9307A00523007D
:102FD000F50003C651862C0003D5A180EF50F00602
:102FE0000DE58547238CF18483C7818093B7170053
:102FF000130600649305000403C551862384F18001
:10300000EF00700013C50404DDBEC9452800EF5071
:103010007052CDBF03C651862C002314F100EF502F
:1030200010026DF18547238CF18483C7818093B7AB
:1030300017002384F180F9B793F70508B5C383C758
:103040008185B9E79387A18583D70700014781462A
:103050002314F10009468947C94503D5A1802318E7
:1030600001002315F100EF50D0052AC615C189478C
:103070002300F500B24703C651862C00A380070049
:1030800003D5A180EF50607C19E58547238CF1843E
:1030900013C50408ADB6C9452800EF50B049CDBFEF
:1030A00093F705100145E38C07B403D5A180EFE049
:1030B000011D1166130606E89305001003C551862D
:1030C000EF00607413C504101DBE01111705000048
:1030D000130505AE06CE22CCEF00303B138451869B
:1030E00085652300A400938505960945EF304004CB
:1030F000D1451D45EF30C003930540062145EF3013
:103100002003930540063545EF30800285470D4783
:10311000700091451305F0402304F100A304F10071
:103120002305E100A305F10002C6EFD0A132300073
:10313000854513058040EFD0E131130691008545A8
:1031400013059040EFD001311306A100854513050A
:10315000A040EFD021301306B10085451305D040C3
:10316000EFD0412FEF60406D03450400EF60C019C0
:10317000034504008545852BF24062440561828049
:1031800041111305800406C697D0FF1FE780E0F3C6
:10319000371700408327870A8D451305002093E7E2
:1031A00007202324F70AEFF06F9BEFF02FBA1735B3
:1031B00002001305E5AFEF10E22CEFF0CFD0EFF0F7
:1031C0008FE2EFE0010F113797D0FF1FE780001467
:1031D00023AC05FE1C4191E7010001000CC1828077
:1031E000BA8703A787FF6DFF23ACB7FE82801DC19E
:1031F0008346E5FF1307F00F9147639EE6004111F8
:1032000006C697F0FF1FE78080C8B24081473E8521
:103210004101828095473E85828001E90145828097
:103220000145B24022444101828095654111938558
:1032300005D022C4C98D2A842105C2054205C18159
:10324000418106C697F0FF1FE78040B771D9FD574F
:1032500023200500231285002303F5002105D1B7A3
:10326000171700201307C7BA1C43411122C426C2F6
:103270004AC006C601440149BA8491E7A165EF003E
:1032800040791DC401A803C7E7FF631AA7020DCC4C
:10329000A16591299840832784FF6319E4021717D9
:1032A00000202327F7B6FD57232C04FE230FF4FE3E
:1032B0002285B2402244924402494101828011E0B9
:1032C0003E8983A787FF55BF3E84E5BF232CF9FEC7
:1032D000D9BFB1CD411122C406C62A849717002058
:1032E00083C757B32E856375F400894763E8870069
:1032F000FD3D0D45B24022444101828083A785FFF8
:1033000099E703C7E5FF9307F00F6305F700C5359D
:103310001545CDB7238F85FE17150020130545AF42
:10332000453D22852244B240A16541016DAE15455F
:1033300082809717002023AD07AC8280971700206A
:10334000938787B29C4399E33E85828003D7270009
:103350006316B70003C70700E308A7FEDC47E5B71D
:10336000C9C1797122D406D626D24AD04ECE0144A4
:103370004147B3D78540858BA5C3120531472295B8
:103380003305E50297170020938707B203A90700CA
:103390008544B3948400C204C180BE892A9903275E
:1033A000090011C7032549002EC60297B2453147CF
:1033B0003304E40283A709003E941C4489E72320D8
:1033C000090023220900B2502254A58D02599254BB
:1033D000F2492E85456182800504E31CE4F88144AE
:1033E000DDB72E85828041111397050122C406C6E0
:1033F00026C24AC041872E84635E0700953511C1FD
:10340000FD33A1673D8C2285B2402244924402499B
:1034100041018280EDD9AA8701474146B356E44075
:10342000858A8DCE9207BA97B146B387D702971691
:103430000020938666A703A906008544B394E400A0
:10344000C204C1803E998327090003254900829761
:103450002320090023220900258C75B70507E31FE7
:10346000C7FA8144D5BF97170020938727A09C53A4
:10347000411122C406C61384418199C782971C401A
:103480003E9523AAA18039A097170020938747A2D1
:103490009C43EDF70840B74703009387D73F3305B8
:1034A000F502B7A72600938737ECB24022443E9539
:1034B00023AAA180410182800111680006CE22CC9E
:1034C00026CAEFE0701EFD576300F50E32479716CF
:1034D00000209386A6999717002083C7779AB68411
:1034E00063F9E70A171400201304C492184837063A
:1034F000C0A8630EC702971700209387679B9C4361
:10350000829732471C486373F700BA871717002069
:1035100003471797998F3E958387640163CE070011
:10352000B707C0A8636AF500B7074057A5A8838608
:10353000660163D506061D8D17140020130484ACA4
:103540001C4C81CF97170020938747B294433707CD
:10355000CDFF7D179C46F98F9CC619E13705C0A8A1
:103560009717002093878790DC53829719E51C4CAE
:103570008DC3EF801102EF70316C1C4C99CB971703
:1035800000209387A7AE9843B70633001C47D58F1A
:103590001CC7F2406244D24405618280E37DF5F8A5
:1035A000B307F7403E9549BF971400209384848663
:1035B0009C483704C0A8E38E87FC971700209387A8
:1035C000278F9C4382979C48171700200347578BEF
:1035D000998F3E95971700209387478983876701C6
:1035E000E3CC07F4E36A85F481B77DC93748F6A6D2
:1035F000130808C889476366C80E797197170020B9
:103600009387878A22D45AC803A807003E8B06D620
:1036100026D24AD04ECE52CC56CA5EC662C40144AF
:10362000B148C147B30B1403137CF40F3303780183
:10363000032303006311030AAE8AC165AA8493853C
:1036400005F041453A8AB689328997E0FF1FE78045
:10365000E0760DE997170020938747819C5B99EFEF
:103660008147B250225492540259F249624AD24AD6
:10367000424BB24B224C3E854561828081451145CB
:103680008297F9BF970700209387077E984321E32D
:103690009707002023AAA77C2300050083270B009F
:1036A0000547331487002326050023242501231111
:1036B000850023224501DE9784C323A2570123A45A
:1036C0004701E38F09F82380890159BF36875447A2
:1036D000F5FE48C7D1B70504E316F4F4A14751B786
:1036E00089473E8582809707002083C7B772637140
:1036F000F502170700201307E77693171500084314
:103700003E9583570500DD8D2310B500014582806D
:103710000D4582809707002083C7D76F6373F5023A
:10372000170700201307077493171500084393C564
:10373000F5FF3E9583570500FD8D2310B50001452B
:1037400082800D4582809307F00263EBA70AB146A1
:10375000B306D502970700209387077598438947DA
:103760003697184359CF011122CC4EC605449359C0
:1037700045003D893315A40013140501418026CA74
:103780004E85AE84A2854AC806CE4D3E2A89814721
:1037900025C1A2854E85BD3F9707002093874771BD
:1037A0009C4382979707002083D747693387970206
:1037B0002A84130600648146B3B7970213050732C3
:1037C000B335E500BE95EF00C272970700209387DE
:1037D000E76983876701229563C90700B707C0A817
:1037E0006365F500B70740573E952324A90081473C
:1037F000F2406244D2444249B2493E85056182802A
:1038000089473E8582809707002083C7B76063643D
:10381000F5000145828001119707002093874769D1
:1038200026CA844306CE22CC4AC84EC6C5C8AE8935
:103830009705002083D58560B387C5022A84328925
:103840008146B3B5C50213850732B337F5001306B9
:103850000064BE95EF00E269B747F6A6938707C8F4
:1038600063EEA70682949705002083D5255DB38774
:103870002503AA84130600648146B3B52503138586
:103880000732B337F500BE95EF00A2669707002018
:103890009387C75D03876701AA943E896349070040
:1038A000B707C0A863E5F400B7074057BE94CE85BC
:1038B0002285693401C504C5054515A0936504F04A
:1038C000C205C181414597E0FF1FE780204F19EDF8
:1038D0008327090381C7A285114582970145F240DC
:1038E0006244D2444249B249056182809707002070
:1038F000938787579C439DE39707002023A6A756ED
:1039000085472326050004C52311350123008500C2
:10391000A300F5002322050045B7BA87D84775FFF5
:10392000C8C7F9BF51C9797122D426D24AD04ECE28
:1039300052CC56CA5AC85EC662C406D6B689B28A86
:103940002E8A2A899304000C4144170B0020130B84
:10395000AB55054C930B000383270B00A6979C43A4
:10396000A1E79375F400B315BC00C2055686C1816A
:1039700013554400493D0DC983270B000145BE94F2
:1039800023A0240123A24401638409002380890029
:10399000B250225492540259F249624AD24A424BDE
:1039A000B24B224C4561828005041374F40FB104BC
:1039B000E31474FB2145E9BF09458280411122C40B
:1039C00026C24AC006C62A842E89B2842D3DCA85E5
:1039D0002285EFF0BF9605CD9705002083D50546DB
:1039E000B38795022A84130600648146B3B5950215
:1039F00013850732B337F500BE95EF00824F48C0FC
:103A00000145B2402244924402494101828021454D
:103A1000CDBF411122C426C24AC006C62A892E84BF
:103A2000EFF0DF91AA8419C123110500A2854A8510
:103A3000D5319707002083C7E73D639B2701970790
:103A4000002083D7E7415D8C97070020239A8740A9
:103A5000014591E01945B240224492440249410196
:103A600082809307F00263E8A7044111B14722C4A2
:103A70003304F50226C2970400209384E4429C405C
:103A800006C6A297984389470DC39377F5008545ED
:103A9000B395F500C205C1811181A53F9C40A29755
:103AA00023A0070023A207008147B240224492448A
:103AB0003E854101828089473E858280411106C64C
:103AC00022C4EFF0BF8711E50145B2402244410115
:103AD0008280970700209387A73D9C4300458297EB
:103AE00097070020938787388387670163D8070289
:103AF000B747F6A63305A4409387F7C7E3E6A7FCCC
:103B000093070064B335F502170600200356063309
:103B100081463305F502EF00C23D45BFE37AA4FCC0
:103B2000B707C0A83E94E9B7411106C69707002021
:103B300023AEA7360295B2409707002023A8A72EF0
:103B4000014541018280994763E9B7008A059707DB
:103B500000209387272FBE9588C18280411171462E
:103B60008145170500201305E52D06C6970700209F
:103B700023AC072E9707002023AA073297070020BF
:103B800023A8073297D0FF1FE780A0BE1306C0020C
:103B90008145170500201305E52797D0FF1FE78013
:103BA00040BDEFD0E17B9707002083C7972D13D549
:103BB00027008D8B3E958D473305F50285453905E8
:103BC0001375F50F970700202387A724994733051E
:103BD000F5021305052497E0FF1FE780201E170755
:103BE00000202323A72C59CD994717060020034610
:103BF00086223306F60281451306062497D0FF1F5E
:103C0000E78020B7970700209387072A9C43938774
:103C10000724170700202325F72217070020034752
:103C2000871F0A07BA9717070020232DF722EFF006
:103C30004FF07921970700209387872094439707B7
:103C4000002083C7371D13972700369717F6FFFF0D
:103C50001306467110C3138717001377F70F0A076F
:103C6000369717F6FFFF1306467810C31387370001
:103C7000890793F7F70F8A0797050020A38CE518AB
:103C8000B69790C3B240410182809707002083C756
:103C90007718170700200347071863F3E702170791
:103CA00000201307E7191843938617001706002012
:103CB000A302D61693962700369708C33E858280C6
:103CC0009307F00FE5BF1C416385071641777D8F91
:103CD000B70600208947631FD71403574500630BBD
:103CE0000714411122C419462A849305F00F69056F
:103CF00006C697D0FF1FE780E0B105478D476305F3
:103D0000E5121C4481CB58589947630F0710185C83
:103D1000630C07101306C003814517050020130527
:103D2000E51497D0FF1FE780C0A41306C003A28547
:103D3000170500201305851397D0FF1FE780E09F2C
:103D40001707002003574713970700209387071290
:103D500019E71307001097060020239FE6101707A6
:103D600000200347871111E70547970600202386A7
:103D7000E610170700200357671011E76D479706F5
:103D80000020239DE60E170700200347170F11E7B9
:103D9000154797060020A382E60E17070020034769
:103DA000070E11E7054797060020238AE60C170740
:103DB00000200347D70C19E703C7F7009706002038
:103DC000A38FE60A170700200347870B11E7354743
:103DD000970600202386E60A170700200347970A64
:103DE00019E71307800297060020A38DE60817073E
:103DF00000200347F70819E71307D00297060020B1
:103E0000A380E6080347840119E71307C003970658
:103E100000202389E6069C5791C7829797070020C8
:103E2000239EA7FE253B8147B24022443E854101A7
:103E3000828089473E8582809707002093874707C5
:103E40009C43411106C622C426C24AC082979307EA
:103E50000064B335F502170400201304A4FB0359D2
:103E6000840281464A863305F502EF008208004C41
:103E7000AA8401456304940233858440636C9400F2
:103E80004A868146370500B09305E041EF0062069F
:103E9000018D26959707002023AA97F8B240224467
:103EA0009244024941018280011122CC0A852E846C
:103EB0004146972502009385A58606CEEF00E23C99
:103EC000180806043A94035504FF9707002083D787
:103ED00007F7F2406244AA9737450F0013050524FF
:103EE0003355F502056182809707002083D727F5B7
:103EF00051471D45637CF702794719456378F702FE
:103F00001307200315456373F7021307B004114527
:103F1000637EF700130740060D456379F70013072A
:103F2000600909456374F70013B5B70F828001116A
:103F300022CC06CE2A842EC6EFF0EFD2B245F24054
:103F4000818D33A5A502229562441375F50F056195
:103F50008280011122CC06CE2A842EC6EFF0AFD08B
:103F6000B245F240818D33A5A502229562444205F7
:103F7000418105618280011122CC06CE2A842EC6A1
:103F8000EFF06FCEB245F240818D33B5A502229598
:103F900062440561828097070020938727ED985738
:103FA00039CB411122C426C206C6BE840297170728
:103FB00000200357A7E62A8415CBBA876373A700AE
:103FC000AA87C207C183BA866373E400A286C206C9
:103FD000C182958F5147635BF700DC5491C3829790
:103FE000EF70514797070020239A87E2B24022449E
:103FF000924441018280828097070020938707E7DF
:10400000DC57011106CE81C72AC68297324515C5F5
:10401000B7873200938727A1170700202320F7E2F4
:104020009707002023A6A7E817050000130505E160
:10403000E53CF2400145056182809707002083C777
:1040400047E4139787016187635C070297070020A5
:1040500023A007DEB7873200938727A11707002028
:10406000232EF7DC7D57B7C7004023A4E72697D758
:10407000FF1F938747B117070020232BF7E26DB787
:1040800013F7170011CFB7872003938707D01707BF
:1040900000202325F7DA97D7FF1F9387E7B1E1BF09
:1040A000617797060020239BE6D881CB93070032E7
:1040B000170700202315F7D8F9BF93072003CDBFBA
:1040C000011122CC17040020130444DA084406CE60
:1040D00026CA4AC801E90545F2406244D244424931
:1040E000056182805C58E5DB185C75D770008545FA
:1040F00082971844B247E300F7FE9305E0041705E2
:104100000020035565D797E0FF1FE78020CB1707F6
:1041100000202321A7D261D1170600200356C6D55F
:104120009305F00F97C0FF1FE780A0648144170933
:104130000020130929CE9707002083C707D4032640
:10414000090263C1F402328597E0FF1FE78020D4A3
:1041500001459707002023AF07CC9707002023AD28
:1041600007CC9DBF9705002083D505D1B387950265
:104170000844185C898185043E9508C2029765BF92
:10418000411122C417040020130444CE1C4426C24B
:1041900006C64AC0970400209384C4C791EB885098
:1041A00025EDB240224492440249014541018280FA
:1041B0001C5CF5D79C5099EF9305E004170500208F
:1041C000035585CB97E0FF1FE78040BF970700208E
:1041D00023A2A7C6885061D5170600200356C6C97A
:1041E0009305F00F97C0FF1FE780A058014997077C
:1041F000002083C787C89050E353F9FA9705002041
:1042000083D585C7338525031C44898105093E95DF
:104210001C5C08C28297E1BF97E0FF1FE78020C7C0
:104220009707002023A807C09707002023A607C0F0
:104230008DBF011156C2970A0020938A2AC383A713
:104240008A0022CC4AC84EC606CE26CA52C45AC0DC
:10425000AA892E8432896385072203A74A0363074C
:1042600007147D476366A71497040020938484BADB
:1042700003AA040263170A0A9565938515E01705DA
:104280000020035565BF97E0FF1FE78020B3970725
:10429000002023A1A7BA2A86630A051083A74A0330
:1042A00003A58A009705002083D505BD89818297E3
:1042B00083A78A0003AA040217070020232EF7B65B
:1042C0008947639CF908C1476312F40E97050020E3
:1042D00083D585BA938505FC9147B3C5F5028A0558
:1042E000D29503C705009307A005631DF70A83C78E
:1042F00015006399370B4A852286910597C0FF1FE9
:10430000E780A0439C505285639347150145F240D6
:104310006244D2444249B249224A924A024B056160
:104320008280D850E38EE7F89565938525E01705E0
:104330000020035565B497E0FF1FE78020A82A8A74
:1043400035C52A8683A74A0303A58A00970500205E
:1043500083D585B289818297A5B78D47639DF90082
:10436000C1476315F4049705002083D5E5B0938514
:1043700045FDF199B5B79147639AF9006318340385
:104380009705002083D545AFA115E5B7C147639FC9
:10439000F900A14763EC87009705002083D5C5ADE0
:1043A000C115C1BF9C5052856397470D294585B7FC
:1043B0001307F006568B6361A70A130A05FE194717
:1043C000334AEA0217070020035707AB970A002079
:1043D000938A4AA4330AEA023E9A83A74A02639563
:1043E000470183A40A029DE49305E0041705002019
:1043F000035585A897E0FF1FE780409CAA845DD500
:1044000083274B039705002083D505A72A8689813A
:104410005285829791451307A005898193972500BE
:10442000A69783C607006393E60483C61700639CC0
:10443000360385058A052286A6954A8597C0FF1F03
:10444000E780A02F83A70A02E38297EC268597E0F6
:10445000FF1FE780C0A35DBD1307E007E368A7F473
:10446000130A05F985B783D5270045BF83A70A023C
:10447000E38E97F2268597E0FF1FE78040A13DB7C6
:1044800097070020938707998C538DD19147930606
:10449000A0058983139727002E9703460700E3178B
:1044A000D6F003461700631C360185078A0722866B
:1044B000BE954A8597C0FF1FE780202881BD83579E
:1044C0002700C1BF970700209387479A984739C7AD
:1044D0009C5FA9C705476313E504411122C4170473
:1044E000002013042493105006C60DC648509705AB
:1044F000002083D5659889818297085097E0FF1F37
:10450000E780E0989707002023A6079297070020EE
:1045100023A40792B240224441018280828001118B
:1045200017070020130787944EC68329870022CCE3
:1045300026CA4AC806CE52C456C2AA842E843289DC
:10454000638A09201C5FBA8A99EB2945F2406244CC
:10455000D2444249B249224A924A056182805C5B58
:10456000EDD7FD4763E9A70E970900209389898A53
:1045700083A70902B1CB03A58A0083A749026395EB
:10458000A70689476393F408C147E310F4FC1705B5
:1045900000200355658E9147130505FC3345F50250
:1045A0009317250003A509022286CA853E95930725
:1045B000A0052300F500A3009500110597C0FF1F7B
:1045C000E780A017014559B79305E00417050020BF
:1045D0000355858A97D0FF1FE780407E970700200C
:1045E00023AAA78449F995B783A74A0303A609021A
:1045F0009705002083D545888981829783A78A0003
:1046000017070020232AF782ADBF8D47639EF40071
:10461000C147E31CF4F2170500200355E585130597
:1046200045FD9377C5FFBDBF9147639AF400E31E34
:1046300094F017050020035525842115DDB7C147E7
:10464000E395F4F0A147E3E287F017050020035556
:10465000A5824115F9B79307F00663EAA706930709
:1046600005FE1947B3C7E702170700200357C780A5
:1046700017FAFF1F130A0A7AB387E702BE99832746
:104680000A02A9CF83274A02639A370703250A0241
:1046900091461308A005FD5593D72600C207C18394
:1046A000139727002A9703460700631D06078348D0
:1046B00017000356270063959806B306D64063CFCC
:1046C000860485078A072286CA853E95C5BD93075D
:1046D000E007E3ECA7E6930705F979B79305E00453
:1046E00017F5FF1F0355457997D0FF1FE780006D31
:1046F00097F7FF1F23A0A77451F581BD83A74A0335
:1047000003260A0297F5FF1F83D5057789814E8519
:10471000829797F7FF1F23A137738DBFA300B700C0
:10472000B2869DBFB385860017F6FF1F0356C67479
:104730009105130606FCE3FAC5E013063400137670
:10474000C60F1106B29623000701A300970023119C
:10475000D70085BF97F7FF1F9387C76B9453BE8918
:10476000A1C203A5090291461308A005FD5593D7E0
:104770002600C207C183139727002A970346070024
:1047800063160605834817000356270063989800B0
:10479000B306D640E3D786F2A300B700B286C1BF06
:1047A0008357C70017F5FF1F0345256D9305E004E8
:1047B0003305F5024205418197D0FF1FE780006075
:1047C00097F7FF1F23A8A76649FD41B317F6FF1F00
:1047D0000356866A97F5FF1F83C5256AB385C50210
:1047E000338686001106E3E2C5D681BF014582808B
:1047F00083C705002300F50083D72500A300F5003B
:1048000083D72500A1832301F50083C74500A301B9
:10481000F5001145828023A6018623A401868280AB
:1048200029C1411126C206C622C4AA8401458DC5EC
:104830002E8422854146971502009385E52197C075
:10484000FF1FE78080EF83C7040005452306F400BF
:1048500083C71400A306F400B240224492444101ED
:10486000828001458280011122CC26CA06CE0947EA
:10487000AA8432846381E50441468147639BC50075
:10488000638FE6006397B6000DA841478147638EAA
:10489000E600F2406244D2443E85056182808A850A
:1048A0002285BD3F41468A8519A88A85953F4146A4
:1048B0008A85228531A0E39AB6FC2E86A2852685BC
:1048C00097C0FF1FE78060F0AA87E1B723A4A18605
:1048D000828023A6A1868280011122CC0354650028
:1048E00006CE26CA4AC84EC641C083298500AE847A
:1048F0002A8803C909008147131789016187635515
:104900000702B147054563FA870451144204035571
:104910002800418033878900A2864E868545EFB006
:104920009005B337A00085077D1413556900420434
:1049300005891379F90341802380F400A380A40042
:104940002381240123928400014719C01387190091
:1049500098C409476383E7000145F2406244D244AA
:104960004249B249056182800545C5BFC167F91753
:10497000630AF502D94763F7B702011122CC2EC6AC
:1049800006CE2A84EF706059B2456368B50022856F
:104990006244F24005616F801071F2406244054547
:1049A0000561828005458280C167F9176314F500AF
:1049B0006F70A056411106C6EF80B05D11E15D45F4
:1049C000B2404101828091476394F502834705001C
:1049D0002300F6008347250003471500A207D98F5F
:1049E0002311F6008347350001452302F60082803B
:1049F000114582804111814522C426C206C6AA847F
:104A0000C5292A8401E9938781869C4381C7F9459A
:104A1000268582972285B2402244924441018280B9
:104A200039714ED656D25AD006DE22DC26DA4AD862
:104A300052D4AA8A2E8BB28941EF36C6B53791453A
:104A4000EF70205EAA844D492DC9B246054A2380E5
:104A500034010544630A0B00B68513851400029BDC
:104A60000505131405014180E20993D9894163D3F7
:104A70000902C1455685EF801060654905E9338616
:104A80008400A2852685EFB080302A8905E13104B3
:104A90004204418091472C085685231CF10026CE04
:104AA000231D8100EF80C0672A8901C963070A00BE
:104AB000268597D0FF1FE780803DF25062544A85DB
:104AC000D2544259B259225A925A025B21618280D1
:104AD000BA84014AADBF011122CC26CA4AC84EC6CB
:104AE00006CE2A893284B689253FAA8405E19387B8
:104AF000C1869C4381CF05476317E40003C40900C6
:104B000005041374F40FA2854A858297F24062442B
:104B100026854249D244B24905618280AE8601476A
:104B20000546970500009385E5CC75B783D705004A
:104B30002300F50083D70500A183A300F5000945F4
:104B4000828083D705002300F50083D70500A18369
:104B5000A300F50083D725002301F50083D72500A6
:104B6000A183A301F5001145828083D705002300AE
:104B7000F50083D70500A183A300F50083D72500A6
:104B80002301F50083D72500A183A301F50083C786
:104B900055002302F50083C76500A302F50003D585
:104BA0008500190542054181828083D705002300D5
:104BB000F50083D70500A183A300F5000945828095
:104BC00083D705002300F50083D70500A183A30048
:104BD000F50083D725002301F50083D72500A183A5
:104BE000A301F5001145828083D705002300F5005D
:104BF00083D70500A183A300F50003D5250009058F
:104C000042054181828083D705002300F50083D7C8
:104C10000500A183A300F50083D725002301F5003B
:104C200083D72500A183A301F50003D54500110515
:104C300042054181828083C705002300F5000545B8
:104C4000828083D70500411122C406C62300F500E7
:104C500083D705002E841105A183A30EF5FE83D70B
:104C600025009505230FF5FE83D7D5FFA183A30F5C
:104C7000F5FE03C6F5FF97C0FF1FE78000AC0345B4
:104C80004400B24022441105410182808947639C5F
:104C9000F50083471500034705000145A207D98F9A
:104CA0002310F60082801145828003D70500D94782
:104CB00063FEE702011122CC06CE2EC62A84EF70D5
:104CC000C025B24683D70600636DF5002285624495
:104CD000F2400147094697050000938565E50561A7
:104CE00081B3F240624409450561828009458280B2
:104CF000AE8601471146970500009385C5E40DB3C4
:104D000093F7350091EB8981914789C52310B6004F
:104D100048C281473E8582809147EDBF03C7450069
:104D20008947631AF702011122CC2A84C84506CEAE
:104D3000AE86014719C52EC69D45EFC0016DB2462E
:104D40002A8722856244F240194697050000938520
:104D500005E20561F1B10945828099E11145828042
:104D60008347050005472311F600E379F7FEFD159B
:104D700093F5F50F33D7F502B387E702E390F5FE1D
:104D8000050548C22310E6000145828083C745001F
:104D90000947AE866385E70041476399E70001470D
:104DA000214697050000938505EA9DB90945828053
:104DB0002310B60091E1014548C201458280AE86CC
:104DC0000147294697050000938565DE91B9AE86B7
:104DD00001473146970500009385C5DE91B183C731
:104DE00045000947AE866385E70041476399E700C0
:104DF00001474146970500009385E5E415B1094553
:104E00008280B335B000139525008280011122CC39
:104E100026CA06CE03C785008547AA842E84494644
:104E20006310F702513683572400491513062009F1
:104E300063C8A700F2406244D244094505618280FC
:104E40000347940085476314F7001366060448403F
:104E500011C58D4532C6EFC0415B3246A286624421
:104E6000F2402A872685D24497050000938505D80D
:104E700005617DB6011122CC2A84884506CEAE8616
:104E800011C52EC69545EFC04158B2462A872285E6
:104E90006244F240594697050000938505D70561A5
:104EA00041B6B335B000139525008280AE86014728
:104EB000614697050000938545D89DB68547114505
:104EC00063F4D7028347160083450600A207CD8FFF
:104ED0002310F7009387E6FF2311F70089476386C5
:104EE000F600090650C30145828023220700E5BF72
:104EF000014781467946814525B6011106CE2EC669
:104F0000EF80300501C9B245F24003552500056127
:104F10006FC04015F240494505618280A38C01882D
:104F2000238C018823A0018823A2018823A401885F
:104F300023A6018823AE018623AC018697F7FF1FC5
:104F4000938747F9130640382391C70271761307F8
:104F5000400B130606B82391E7002392C70211679E
:104F60001D46930600059305000A1305007D239254
:104F7000E7002393C70241470546130810F823951D
:104F8000E7002396E7002399E700239AE700239B95
:104F9000E700239CE7002394E7022396070323906E
:104FA00007002393B7002394B7002397D7002398D3
:104FB000D700239DA700239E0700239F070023906F
:104FC00007022395C702239707021308F0072398C7
:104FD00007022392E7042393E704239FE704239027
:104FE000E7062391E7062392E706239907031307B1
:104FF000C01C239AC702239BC702239C0702239D40
:105000000702239E0702239F070223900704239190
:10501000C70423940704239507042396C704239702
:10502000D7042398D7042399A704239A0704239B22
:105030000704239C0704239DD704239ED7042393AE
:10504000A7062394070623950706239607062397AA
:10505000B7062398B70623990706239AE7067D57D4
:10506000239B0706239CE7068280011126CAAA8497
:10507000214522CC06CE2E8432C636C43AC2EFE099
:10508000CF991DC9A24612473246930700FD23005F
:10509000F5009947A30095002301F5002303D500EF
:1050A000A303E5002312C500AA8522856244F240CD
:1050B000D24405616FE0EFA1F2406244D244056141
:1050C000828023A0A188828023A2A188828023A439
:1050D000A188828023A6A1888280011122CC4AC89F
:1050E00006CE26CA2A890144B30489006368B40045
:1050F000F2406244D2444249056182802EC6EFE00C
:105100008FB693170501C183A183B2452380F400B4
:105110009307140093F7F70F850463F9B700CA9754
:1051200009042380A7001374F40F7DBF3E847DBF64
:10513000C16717F5FF1F035545D8FD176304F50236
:10514000411117F6FF1F034666E99385018906C6DC
:10515000EF80203EB240FD5717F7FF1F231FF7D403
:1051600041018280828009C925151375F50F133519
:10517000850E13451500828001458280239005002D
:10518000C9C6797122D426D24ECE52CC5AC806D680
:105190004AD056CA5EC63684328AAE892A8B81448A
:1051A00063F34407B307940083C70700138914000F
:1051B0004209939A070193DA0A011359090163849A
:1051C0000A04CA976341FA04B307240183CB07009A
:1051D0005E85513F0DC99387FAFF2390F9006390D4
:1051E0006B03130519002295B250225492540259B0
:1051F000F249624AD24A424BB24B45618280D69410
:10520000C204C18071BF0145C5B70145828041110B
:1052100026C2AE8422C497F7FF1F23A7C7CA97F7F9
:10522000FF1F23A1B7CA97F7FF1F23ABA7C82A8484
:1052300041469305F00F26854AC006C6054997B03A
:10524000FF1FE780205D6310250597F7FF1F9387F9
:1052500067C6884BC145513541469305F00F2285FD
:1052600097B0FF1FE780005B8544631895022244D6
:1052700097F7FF1F938707C4B24092440249C8477B
:10528000C145410199BD41468145268597B0FF1F23
:10529000E7804058E31225FD4DBF414681452285F8
:1052A00097B0FF1FE7800057E30395FCB24022440C
:1052B0009244024941018280411122C426C22E84B7
:1052C000AA8413060002814517F5FF1F130585BE4A
:1052D00006C697B0FF1FE780C04997F7FF1FA38C52
:1052E00097BC97F7FF1F238D87CEEFB0F059854706
:1052F00019C181474945B240224417F7FF1F230BCC
:10530000F7BA924441018280814781CD19C985470E
:10531000631BF50083C7550093E707FCA382F500E4
:1053200085473E85828089476317F50083C755000E
:1053300093F7F703E5B70D478547E314E5FE03C789
:1053400055001377F70313670704A382E500D1BF65
:1053500081478DC105C103C755009306000C8547E1
:105360001377070C6308D700930600048D47630387
:10537000D70089473E858280411122C4005D06C660
:1053800026C21DC8AA84085009C597D0FF1FE78010
:1053900000B0485009C597D0FF1FE78040AF0854C0
:1053A00009C597D0FF1FE78080AE228597D0FF1FE9
:1053B000E780E0AD23AC0402B240224492444101B4
:1053C000828009ED97F7FF1F83C7E7AE17F5FF1F30
:1053D0001305C5AF81CB13850187828017F5FF1FA9
:1053E0001305C5AE828017F5FF1F0345C5AC82804B
:1053F00097F7FF1F938707ACC847828097F7FF1F77
:10540000938747AB884B828097F7FF1F938787AAC4
:10541000DC4B8843828097F7FF1F9387A7A9D84B5F
:105420001C4385071CC317F5FF1F0345D5A8930729
:10543000F00F6305F50091656FE0EFAA828001111E
:1054400022CC06CE2E8432C6EF8060419147B24511
:10545000631FF5009387C1889C438DC303A3070096
:10546000630E030022856244F24005610283938744
:1054700041889C4381C703A34700DDB7F2406244E3
:10548000054505618280011122CC2A84035545001F
:1054900006CE26CA4AC84EC6EF80801A35C52A896C
:1054A000834405008349C500C13D4A85EF904016FD
:1054B00003554400EF80E03583C78189B1CB639900
:1054C000970483C591892685EFF03FA319E1238CCA
:1054D000018803554400EF8080389147631FF50031
:1054E0000357440097F7FF1F83D7279D6317F700E3
:1054F000FD5717F7FF1F2312F79CF2406244D24476
:105500004249B2490561828081499304F00F6DB729
:105510009307F00FE38FF4FA8346640003564400C8
:10552000034524004E87A685EFF03FB45DB779713F
:105530005EC6AA8B2E8552CC56CA5AC806D622D42D
:1055400026D24AD04ECEAE8A328B368AEF80400FBA
:105550007DC1045D2A89E5C09C50614599C313054E
:1055600040039C5481C751054205418163050A00EF
:10557000710542054181DC5081C7590542054181D1
:10558000EFD0BFC92A8445C96146814597B0FF1F46
:10559000E780201E97F9FF1F83C9C996639409000D
:1055A00083490900930700FD2300F400A947A300E5
:1055B00074012301F400230364018C50231254016D
:1055C0001305840191C908C47146930A440397B036
:1055D000FF1FE780801656858C5491C948C45146F8
:1055E000930A450197B0FF1FE78020155685630C8D
:1055F0000A0008C87146D285930AC50197B0FF1FFB
:10560000E780A0135685CC5099C548C8594697B035
:10561000FF1FE7808012A2854E85EFD09FCB2254DA
:10562000B2509254F249624AD24A424BB24B4A8536
:105630000259456191B3B250225492540259F24931
:10564000624AD24A424BB24B4561828001114EC63A
:10565000AA892E854AC806CE22CC26CA2E89EF708A
:10566000307E21C997F4FF1F83C4C48999E0834425
:1056700005001945EFD07FBA2A8405CD814519462A
:1056800097B0FF1FE780E00E930700FD2300F400B2
:10569000B947A30034012301F40023122401A28599
:1056A0006244F2404249B2492685D24405616FD036
:1056B0005FC2F2406244D2444249B24905618280ED
:1056C00039715ECEAA8B2E8526DA4ED652D456D2AA
:1056D0005AD006DE22DC4AD8AE84328BB68A3A8AA9
:1056E000BE8942C6EF70D07521CD2A894145EFD0E1
:1056F000DFB22A8431C54146814597B0FF1FE7805C
:10570000400717E5FF1F0345E57F19E10345090041
:10571000930700FD2300F400BD472301F400B247C6
:10572000A30074012312940023046401A304540110
:1057300023054401A30534015CC4A285EFD07FB9E1
:10574000F2506254D2544259B259225A925A025BD0
:10575000F24B21618280797126D2AA8439454AD0E0
:105760004ECE06D622D42EC6B2893689EFD0FFAAF5
:1057700021C1B2459307000D2310F500B1472A84DB
:105780002312B5002301F500CE851905194697B0FF
:10579000FF1FE78080FA23062401A2852254B2501D
:1057A0000259F24913F5F40F925445616FD07FB25C
:1057B000B250225492540259F2494561828017E74F
:1057C000FF1F0347576F9307F00F630DF706411153
:1057D00026C2AA84394522C406C64AC0EFD0FFA318
:1057E0002A8439C9930700FD2300F500A300950022
:1057F0002301050097E5FF1F9385456D0D051946AB
:1058000097B0FF1FE78060F317E9FF1F1309896A4C
:1058100083578900A28517E5FF1F0345D569231526
:10582000F400834719002306F4002244B240924456
:10583000024941016FD0FFA9B2402244924402497B
:1058400041018280828001115AC02A8B314526CACB
:105850004EC652C456C206CE22CC4AC8AE84B28AC4
:10586000368ABA89EFD07F9B35CD2A842685EF70A2
:10587000305D11C50347C500A1476314F70417E95C
:10588000FF1F03495963930700FD2300F4009D4760
:10589000A30064012301F400231294002313540194
:1058A0002314440123153401A2856244F240D244FA
:1058B000B249224A924A024B4A85424905616FD059
:1058C0005FA117E9FF1F0349B971E31E0BFA938724
:1058D00081949C439C47C5DBCE865286D68526851F
:1058E000829755B7F2406244D2444249B249224AB3
:1058F000924A024B05618280011122CC2A84214503
:1059000006CE2EC6EFD07F9121C1B245930700FD90
:105910002300F500C5472301F50083C73500A30127
:10592000F50083D745002312F50083C765002303E4
:10593000F50083C77500AA85A303F500228562449C
:10594000F24005616FD0FF98F240624405618280A9
:10595000397162CC2A8C594526DA4AD84ED652D4AF
:1059600056D25AD05ECE06DE22DCAE8432C636C4B3
:10597000BA8B3E8BC28A468A83590104034941048B
:10598000EFD0BF8925C93246930700FDA246230008
:10599000F5009547A301C500A30085012301F5008B
:1059A0002A8419461105A9C2B68597B0FF1FE78062
:1059B000C0D823066401230A240123157401231788
:1059C00054012318440123193401A2856254F25072
:1059D0004259B259225A925A025BF24B624C2685C6
:1059E000D25421616FD0FF8E814597B0FF1FE780B1
:1059F00040D8C1B7F2506254D2544259B259225AD7
:105A0000925A025BF24B624C2161828097E7FF1F42
:105A100083C7674A8DCB4111AA8519461385018733
:105A200006C697B0FF1FE78040D19385018717E531
:105A3000FF1F03454548EFF03F8DB24013850187B6
:105A400041016FB020650145828017E7FF1F0347C2
:105A500097469307F00F6305F708411126C2AA8401
:105A6000294522C406C6EFD04FFB2A8429C19307DB
:105A700000FD2300F500A1472301F500A3009500D8
:105A800097E7FF1F9387074383C727009385018705
:105A90001105A30FF5FE194697B0FF1FE780E0C977
:105AA000A28517E5FF1F03451541EFD09F8217E739
:105AB000FF1F034747408D47631FF7009387818887
:105AC0009C4391CB03A38700630703002244B240A9
:105AD000924441010283B2402244924441018280B7
:105AE00017E7FF1F0347273D8D47631AF70093878A
:105AF00081889C4389C703A38700E31D03FC828040
:105B0000797122D406D626D24AD04ECE52CC094440
:105B100055CD2A89035505002E8A5144EF70503225
:105B2000AA844DC597E7FF1F83C7874BFD1793F7DF
:105B3000F70F05474944637BF7080347C500A147B2
:105B40006314F70063140A089C5C4544C1E3916543
:105B5000938545711305C00297C0FF1FE78000269B
:105B600088DCAA894D443DC11306C002814597B027
:105B7000FF1FE78000C083570900938649003685E0
:105B80002391F90071469305490036C697B0FF1F6F
:105B9000E780A0BA89472380F90003C5C400B24654
:105BA00003560900611597E5FF1F83C5254313358B
:105BB0001500EFA0404F2A8463060A00D28526858F
:105BC000EF80705001C42685EFF00FFB2285B250A4
:105BD000225492540259F249624A4561828097E701
:105BE000FF1F83C7E73FFD1793F7F70F0547637A5A
:105BF000F708894741CA011122CC26CA4AC84EC6B5
:105C000052C406CEAA89368AB2842E89EF705023F8
:105C10002A84D14739C9485509C597C0FF1FE78075
:105C20000027F145268597B0FF1FE780E0B648D4EE
:105C3000CD4705CD8346C40021478147639FE600D9
:105C4000630D0A000347A5010356050193062501CC
:105C5000AA854E85EF80803CAA8703474400630FE6
:105C60000900136767002302E400F2406244D24453
:105C70004249B249224A3E85056182801367470046
:105C8000DDB7C9473E8582809307B00363EBA70069
:105C900097E7FF1F9387072406053E9503550500E8
:105CA000828041657D158280011122CC2A842E8557
:105CB00026CA06CEAE84EF70B0181DCDB7470F00D0
:105CC0009387F723094563E4870281450A854146A6
:105CD00097B0FF1FE780E0A9A685231081000A8501
:105CE000418023018100A3010100EFA0201DF240AB
:105CF0006244D244056182804945D5BF97E7FF1FC2
:105D0000238FA72C82806FA04032797152CC2A8ACF
:105D1000328522D426D24AD04ECE56CA5AC85EC642
:105D200006D662C4AE8BB28A368BBA843E89C289EB
:105D30004684EF70F01015C92A8C63140A02137799
:105D40004B008347450015CF93E727012302FC0052
:105D50008DEC631C0902639A090205E8ED9B23029E
:105D6000FC00832B8C0363910B08B2502254925495
:105D70000259F249624AD24A424BB24B224C456127
:105D80008280F59B93E70701D1B793E74700230291
:105D9000FC0001CC1C484146A2852324FC021305CB
:105DA0008C0197B0FF1FE780409963930B02D5D811
:105DB0000325CC0209C597C0FF1FE780400DF145C0
:105DC000268597B0FF1FE780209D2326AC0251BF98
:105DD000E30909F80325CC0209C597C0FF1FE78036
:105DE000000BF1454A85F1BF9DC483A70B0299EBD7
:105DF000916593853571714597C0FF1FE78000FC61
:105E000023A0AB0203A50B0219C57146A68597B066
:105E1000FF1FE78080926388090283A74B0299EBFA
:105E2000916593852571594597C0FF1FE78000F95B
:105E300023A2AB0203A54B0219C55946CE8597B0E4
:105E4000FF1FE780808F1DC483A78B0299EB9165AC
:105E500093851571514597C0FF1FE78020F623A455
:105E6000AB0203A58B0219C55146A28597B0FF1F4F
:105E7000E780A08C2254B2509254F249B24B224C8B
:105E8000CA865A860259424BD6855285D24A624A00
:105E900045616FF0CFE9011126CA52C406CE22CC6B
:105EA0004AC84EC62A8AAE84EF70807925C5AA8971
:105EB0003945EFD08FB62A8431CD17E9FF1F03494A
:105EC00069046314090003C909009307000D231036
:105ED000F400AD472301F4009385690013053400F5
:105EE000194697B0FF1FE780408593F7140085801F
:105EF00085882306F400A306940023154401A28597
:105F00006244F240D244B249224A4A85424905617C
:105F10006FD02FBCF2406244D2444249B249224A77
:105F20000561828093878187884301CD411106C630
:105F300097C0FF1FE780A0F5B24023AC0186410166
:105F400082808280011106CE22CC26CA4AC82EC683
:105F5000EF70006F39CDB24517E9FF1F034989FA89
:105F6000AA840CD563140900034905004145EFD00C
:105F7000CFAA2A841DCD9307000D2310F500A54755
:105F80002301F50083C75400938564001105A30F16
:105F9000F5FE194697A0FF1FE780207A9C54A28542
:105FA000F2405CC46244D2444A85424905616FD0E4
:105FB0004FB2F2406244D244424905618280797115
:105FC00022D406D62A842EC6EF7080670DCD834674
:105FD000C5001147AA8749456393E6029C5FB24515
:105FE00099C383C567010808EF80F01697960000F3
:105FF0009386E626100889452285EF802007B25057
:106000002254456182805145DDBF97E7FF1F83C75A
:1060100027FDFD1793F7F70F0547637AF7048947C4
:1060200021CA411122C426C24AC006C6B2842E89A2
:10603000EF7000612A84D14705C5630809008347D2
:10604000450093E727002302F5004146A685130586
:10605000840197A0FF1FE780406E9C481CD48147B5
:10606000B2402244924402493E8541018280C947A0
:106070003E858280797122D406D62A842EC6EF709E
:10608000205C01CDB2452285230EB1006C08EF8063
:106090001000B2502254456182805145DDBF6F70BF
:1060A000C070C1671387E7FF6394E5029387418857
:1060B0009C4391EB494582804945B2402244924439
:1060C00002494101828003A30700E30503FE028326
:1060D000411122C426C24AC006C6FD172A892E8451
:1060E000B2846395F502938741889C4391CB9C438E
:1060F00081CB829711E5238C2189A38C918875BF70
:10610000A6854A85EFE07FDF4DF9F5B72E85EF7064
:1061100020535DD1834705000D45E39027FB228581
:106120002244B2400249A685924441016FA0907377
:106130001307B0036360A7064111C16722C406C6F6
:1061400026C2FD172A8409456382F502C547AE843D
:106150006313F4022E85EFA0707817E5FF1F130577
:1061600065D706042A94231094000145B2402244C6
:106170009244410182809307A0036316F4002E85A8
:10618000EFA0106FD9BFE31AE4FC13F5F50FEFA0F1
:10619000706EE1B709458280011106CE2AC6EFE094
:1061A000FFD7EF107073EF10D014EFA011733245CA
:1061B00097E7FF1F938707D0130700F02391E700AD
:1061C000238207007D5797E7FF1F938727E12381ED
:1061D000E7002380A700F240954505616F50905F6E
:1061E0001D7193970501CAC886CEA2CCA6CACEC699
:1061F000D2C4D6C2DAC05EDE62DC66DA6AD86ED697
:10620000C1872E8963DE075817E5FF1F034505DDAB
:10621000EFD00F858964416A856A797B2A84938BE4
:10622000D4007D1AA50A130CABFF1DE02165334590
:10623000A900F6406644D6444649B649264A964ADD
:10624000064BF25B625CD25C425DB25D256182808E
:10625000834704001307200A639DE70003552400C9
:1062600097E9FF1F83C939C52286D285EFF02F9D9C
:1062700059A21307100997E9FF1F83C949D66398EC
:10628000E7188347140015476390E7022285EFF073
:106290008F9F2285EFC0BFF517E5FF1F034505D48B
:1062A000EFC01FFC2A8451B73947639BE718035599
:1062B0004400631B55050C4483CC0500639D0C0012
:1062C000850591C9194617E5FF1F130525C097A03D
:1062D000FF1FE780804617E7FF1F0347A7BD8547DD
:1062E0006317F712638A0C0097E7FF1F238407BC2C
:1062F0006685EFF0CFCC71BF894717E7FF1F230BEF
:10630000F7BAEFA0F05871B793872400631AF50627
:10631000832C8400638D0C0E83C70C008DE383C730
:106320002C0003C71C00A207D98F17E7FF1F2317F4
:10633000F7B883C73C0017E7FF1FA30DF7B617E7B1
:10634000FF1F034727B789476313F70C83C70C0068
:1063500081CB97E7FF1F238F07B403C50C0051BF04
:106360008D4797E5FF1F83C5F5B417E5FF1F03555C
:10637000E5B417E7FF1F230FF7B2EF50B048F1BFA6
:10638000938754006318F5001C4403C50700EFF021
:10639000CFEB01B7B3078501C207C1831147637211
:1063A000F7049307ABFCAA97139707014183F147C2
:1063B00063F1E7029387B4006312F50493870188C1
:1063C0009C43E38807EC9C43A285E38407EC829717
:1063D0001DA0B70700189387F770B3D7E700858B28
:1063E000B9CB938781889C43E38507EA9C43E3828A
:1063F00007EA22858297E31E05E811A89387C40067
:106400006310F5021C4483C70700E38407E8930781
:10641000F00FE380F9E8A2854E85EFC09FEBADBD9C
:106420009387E4006319F500938741889C43E382D6
:1064300007E6DC4351BF93871404E301F5F8C1BFBD
:106440003D476397E70403554400E30F75FD9387C9
:106450009401E30BF5FC93873401E31AF5FA97E70F
:10646000FF1F83D787A5639E4701938741889C437D
:10647000E38107E2DC43E38E07E0A2851385340164
:10648000B9B79387C1889C43E38507E09C43E5B790
:106490001307E003E39DE7F683472400054763976E
:1064A000E70E83476400938D8187F1E383A70D0096
:1064B000D5CB83CC0700A14903457400130D84009C
:1064C000EA85EFE0FFE883474401A303A400835873
:1064D00004010358E400035744002A8603453400AE
:1064E0003EC283572401EA86E6853EC0CE87EFF0A0
:1064F0002FC68347340095E7DD47835804010358CE
:10650000E40083467400835544003EC2835724014F
:106510006A8705463EC06685CE87EF70E046A301D8
:10652000A40083A70D0081C71145EFF0BF9F03C5ED
:106530008189E30005D683C59189EFE01F9CE30ABA
:1065400005D48346340093071003638AF60003568C
:1065500044004E8783C581893685EFE01FB1238CC7
:10656000018805BB97ECFF1F83CCFC94A9B79387E8
:1065700081889C4397ECFF1F83CCFC9391498DDF6E
:10658000DC439DDB8145014582973DB72947639EEA
:10659000E70A83476400138D8187C9EB83270D00C9
:1065A000C9C383CC0700A14903457400930D84003F
:1065B000937725001376150089E7EE85EFE05FD924
:1065C0002A8683470402A303C4008358C4010358E6
:1065D000A40103574400034534003EC28357E4013D
:1065E000EE86E6853EC0CE87EFF08FB68347340057
:1065F00095E7DD478358C4010358A401834674001E
:10660000835544003EC28357E4016E8705463EC071
:106610006685CE87EF704037A301A40083270D0065
:1066200019B797ECFF1F83CC1C89B5BF938781886E
:106630009C4397ECFF1F83CC1C889149B5D7DC4362
:10664000A5D781450145829785B70947639DE70036
:10665000938701889C43E38E07C2DC43E38B07C228
:10666000228582973DB12D476399E7009387018882
:106670009C43E38007C29C47D5B70D476397E7006B
:1066800022868D4503554400D5B619476395E70624
:106690009305610113051031EFA0D12B2C081305D0
:1066A0002031EFA0312B035664008357810103553D
:1066B000440063E8C700835684000357610163F711
:1066C000E60093050002EFA07020E1B66374E600D7
:1066D0002313E40063F4D7002314F4000357C40029
:1066E0008356A40003568400835564000148814703
:1066F000EFA0901D79BE1D47E38BE7D0314763952E
:10670000E7002286B145BDBF35476399E70093870F
:1067100001889C43E38F07B6DC4789B73947639606
:10672000E7002285EF001003ADB63D476399E7000F
:10673000938701889C43E38E07B49C4B05B7414780
:106740006396E7002285EF00D00BA1B6454763961C
:10675000E7000145EF00B01A2DBE4947639EE700F0
:10676000938781889C43E38407CADC43E38107CA9B
:1067700081450545829761B94D47639DE700938741
:1067800081889C43E38507C8DC43E38207C8A28570
:106790000945CDB76147E39CE7C62286E145DDB5F3
:1067A00093F7150081CF938701889C4389C7DC4309
:1067B00099C30145829713451900A5BC93F725009D
:1067C00089CF938781889C4391C7DC4381C78145EA
:1067D0000545829713452900A9BC93F7450001455B
:1067E000E38907A49387C1879C4399CF854717D72F
:1067F000FF1F2303F76C938781889C4391C7DC4379
:1068000081C781450545829797D7FF1F9387876A80
:10681000C8472C08EF9060522808EFF02F9F97D7B9
:10682000FF1F83D7476D81CF130600643386C702ED
:10683000914517D5FF1F0345657AEFC0DFFC13456F
:106840004900C5BA011122CC2A84554506CE26CA74
:10685000EFF08FC3AA8413054002EFF0EFC22AC6FF
:1068600013055002EFF04FC2AA86228562443246D9
:10687000F240B3359000D24405616FA0900A79715F
:1068800022D406D68D472E84631FF50003D7A500BA
:1068900083D6850003D665000345340083D54500C3
:1068A000EFE07FFA09A889671387D7006310E50432
:1068B00003C5250019E58547B25022543E85456140
:1068C0008280938781879443FDD603C6360083C5B3
:1068D0000600814802C202C0014881470147910673
:1068E000EFF00F870545EFF0EFE3F1B71387E7000F
:1068F000E303E5FC13873701631AE50003C52500B0
:106900005DD9014781460146814559BFE507E3044A
:10691000F5FAB1476319F50017D5FF1F0345B559BF
:10692000EFE09FFD49BF41677D178147E316E5F81A
:1069300003C75500C947E310F7F883D6E50003D62F
:10694000C5000355840083D5A500EFA0407E51C14A
:106950005D45EFF06FB33335A000231CA1008345E4
:106960004400035524003008EF60103E8357810136
:10697000B9F36C0813051031EFA0C17D9305E10157
:1069800013052031EFA0017D8357C1010357840017
:106990006374F7002314F4008357E1010357A40044
:1069A00063F4E7002315F400835584008357A400A3
:1069B00063F4B7002315B4000357E4008356C40002
:1069C0000356A4000355240001488147EFA0C06D81
:1069D000DDB58547231CF10059B717D7FF1F0347C3
:1069E00057609307F00F6309F70859C5411122C496
:1069F00026C206C6AA840345A5004105EFC0FF8153
:106A00002A8435C59307000D2310F500D9472301CB
:106A1000F50083D744002312F50083C764002303E5
:106A2000F50083C77400A303F50083C78400230423
:106A3000F50083C79400A304F50003C6A400230552
:106A4000C5001DC2CC44410548C497A0FF1FE78084
:106A5000C0CEA2852244B240924417D5FF1F034501
:106A6000555841016FC0FF8623260500DDB7B240AF
:106A700022449244410182808280C1671387E7FFEC
:106A8000639DE500938781879C4395C383C7070077
:106A90000D47639CA7006FA06060FD174947639690
:106AA000F500938781879C43FDF73A8582804947AB
:106AB000EDBF797122D406D626D24AD04ECE52CC22
:106AC00056CA5AC80347050085472A84630AF70453
:106AD00003468500930695009305E1000545EFE028
:106AE000EFE9814719C18347050083460400114738
:106AF0006380E6041387C18918438D460347170056
:106B00006308D70295C70DC719ED0145B25022544D
:106B100092540259F249624AD24A424B45618280FC
:106B200081470145D9B785466318D7028D8BF1DFC0
:106B300003451400130A2400D285EFE07F81A300EF
:106B4000A4001389018A83270900AA8A8149930432
:106B5000F00F99EB05455DBF8946E318D7FA858BA1
:106B6000F9B7850993F9F90F83C7A18963FDF90284
:106B700003250900139B49005A9583470500E382CA
:106B800097FE83471500E39E57FD1946D2850905F8
:106B900097A0FF1FE78060C369D5832409000347DE
:106BA0000400DA9485EC834604009147E38FF6F401
:106BB00083270900B9DB03C6A18901479305F00FBC
:106BC000E305E6F4BE84C10703C507FF630EB50AFB
:106BD00005071377F70FEDB788C4F5A09147631A3F
:106BE000F706C84405C583478400034605006304CF
:106BF000F606034704009147631DF706C84419C50C
:106C000097B0FF1FE780A02823A604000345840057
:106C100091659385E571050597B0FF1FE780001A20
:106C200005C5034704009147631EF704C8C48347A2
:106C30008400930594000505A30FF5FE0346840028
:106C400097A0FF1FE78060AF034584003335A000A5
:106C500075BD884441BF93059400050597A0FF1FAB
:106C6000E780A0B68547E316F5F85545EFF0CF81EC
:106C7000BDA8884441DD97B0FF1FE780402123A4D1
:106C8000040069B788C465B72380D4008347140023
:106C9000D28513852400A380F400194697A0FF1F16
:106CA000E780A0A90345840091659385F5710505EA
:106CB00097B0FF1FE780801005C503470400914788
:106CC000E31CF7F0C8C483478400930594000505CE
:106CD000A30FF5FE0346840097A0FF1FE780E0A501
:106CE00083478400E39807E6034504007D151335C8
:106CF000150029BD797122D426D24ECE52CC06D6AB
:106D00004AD056CA5AC82A8493092500034515005B
:106D1000CE859384C189EFE0AFE3A300A4009C403B
:106D20000D472A8A83C71700639BE7001389018AEE
:106D300083270900814A63910718054535A0FDD7CF
:106D4000144C034674019305E1000545EFE00FC3C1
:106D50001DC9984085468347050003471700631FF8
:106D6000D7008D8BE1F70145B2502254925402595D
:106D7000F249624AD24A424B456182808946858BFC
:106D8000E316D7FAC5B78347040011476385E700C8
:106D90002D47E39AE7FC9384018A9C40E9D7814A16
:106DA00001491DA88840139B4A00834704005A9557
:106DB000034705006311F70283471500639D4701F0
:106DC0001946CE85090597A0FF1FE78000A001C5E1
:106DD00003A904005A99850A93970A0103C7A18958
:106DE000C183E3E1E7FCE31309F4B5BF93944A00E0
:106DF00026950347050083470400631EF70A83476F
:106E00001500639A470B1946CE85090597A0FF1F09
:106E1000E780A09B4DC1832709001147BE9483479B
:106E200004006385E7002D47639DE70203AAC400C1
:106E30008347740103460A006308F602528597B03F
:106E4000FF1FE780C0040345740191659385E571D8
:106E5000050597B0FF1FE78060F615E5E39F04EC9A
:106E6000ADA003AA8400E9B70C4C13051A0097A043
:106E7000FF1FE78080958547E312F5FC5545EFE05D
:106E8000BFE069DDCDB58347040011476385E700A6
:106E90002D476390E702C8C4834774010505A30F1B
:106EA000F5FE034674010C4C97A0FF1FE780E088B5
:106EB00075B788C4D5B7850A93970A0103C7A18916
:106EC000C18303250900E3E3E7F283C6A189032711
:106ED000090081471306F00F11A8BA8441078345C2
:106EE00007FF638AC5008507C207C183E3E7D7FEB2
:106EF000A9B588C499A083470400CE8513852400D2
:106F00002380F400834714001946A380F40097A05F
:106F1000FF1FE78080820345740191659385F571B9
:106F2000050597B0FF1FE78060E9E30805E0034728
:106F300004009147E31FF7FAC8C4834774010505AD
:106F4000A30FF5FE034674010C4C9790FF1FE780DA
:106F5000C07EE5B317D7FF1F0347B7089307F00FAD
:106F60006300F70A51CD411126C2AA84514522C4BB
:106F700006C64AC0EFC06FAA2A842DCD9307000D24
:106F80002310F500D5472301F50083C7340013898A
:106F90008400CA85A301F50083D744002312F500BD
:106FA00083C764002303F50003C57400EFE04FBA04
:106FB000A303A400CA851305840019469790FF1FF8
:106FC000E780A07783C7E400A28517D5FF1F03459C
:106FD00055012307F40083D704012318F40083C765
:106FE00024012309F4002244B240924402494101A1
:106FF0006FC02FAEB24022449244024941018280C8
:10700000828017D7FF1F0347D7FD9307F00F630454
:10701000F70431C1411122C42A84194506C6EFC0C4
:10702000CF9FAA850DC59307000D2310F500DD47FE
:107030002301F500835744002244B2402312F50097
:1070400017D5FF1F0345F5F941016FC08FA8B24066
:107050002244410182808280011122CC1384018A62
:107060001C4006CE26CA4AC84EC652C499CF2E8AA4
:10707000AA840149084063129902630C0A0497B07C
:10708000FF1FE780C0E023A0018AF2406244D2449F
:107090004249B249224A0561828093194900B307E7
:1070A0003501884709C997B0FF1FE78040DE1C40C3
:1070B000CE9723A407001C40CE97C84709C997B0B4
:1070C000FF1FE780C0DC1C40BE9923A6090005090C
:1070D00055B745DD1396440081459790FF1FE78023
:1070E0004069144081477D5613F7F70FE37F97F807
:1070F0001397470036972300C7008507F5B701119E
:1071000052C4138AC18983270A0006CE22CC26CA1C
:107110004AC84EC656C25AC0C9CF2A89014419ED81
:107120009387018A944399CA03C6A1892A84814717
:107130009305F00F13F7F70F6367C70813153400B3
:107140002105EFC08F8DAA8401E92145EFC0EF8CA6
:10715000AA8421C501444D49930700FD2380F40012
:107160008547A38024012381F400A38184005DC4AA
:107170001389840023A224018149938A018A130B75
:10718000F00F83C7A18963F3F90031E883270A0070
:10719000A68503C50700EFC0CF93814503C5A1892C
:1071A000653D03250A0097B0FF1FE78040CE23AE60
:1071B0000188F2406244D2444249B249224A924A8A
:1071C000024B0561828013974700369703470700FB
:1071D0006305B70005041374F40F8507A1BF83A7E7
:1071E0000A0093954900BE9583C705006384670331
:1071F0002300F90083C71500130529007D14A3009F
:10720000F900194689051374F40F9790FF1FE78062
:10721000C0522109850993F9F90FA5B723A20400EB
:10722000B5B79387C1899C43B1C7411122C406C633
:107230002A841DE10945EFE03FA52A8601C985455D
:1072400017D5FF1F034585D9EFC0EFDB0545EFF0EC
:107250006FDF2A84054519C8854517D5FF1F0345EB
:10726000E5D7EFC00FFB2285593D0545B2402244CA
:10727000410182800145828089679386B700631649
:10728000D5009C4503C5070069BF9386C7006318F6
:10729000D5009C45854603C5070019C9F5B79386F7
:1072A0001704E300D5FE938727048146E303F5FE28
:1072B00036858280797106D622D426D24AD04ECE27
:1072C00052CC56CA5AC85EC679C983473500AA89C6
:1072D00085C7404115C05945EFE01F9B931A8501B2
:1072E00093DA8A410149138AC189130B000DB54B0A
:1072F00083C73900636DF900B25022549254025989
:10730000F249624AD24A424BB24B456182808307BE
:10731000840263CD570783270A00ADCB2285EFF0A7
:107320004FF92DC5034584005105EFB01FEFAA8426
:1073300031CD2310650123017501834704001946EF
:1073400093052400A301F500830784021505230398
:10735000F50083471400A30FF5FE9790FF1FE78009
:10736000C03D034684002386C4001DC61385440126
:1073700088C8930594009790FF1FE780003C8327FF
:107380000A00A68503C50700EFB0BFF40509130482
:1073900094021379F90FA9BF23A80400CDB79387EE
:1073A000C1899C43B1DBEFF09FD52254B250925477
:1073B0000259F249624AD24A424BB24B01454561F9
:1073C0006FF04FC8797106D622D426D24AD04ECE5D
:1073D00052CC56CA5AC85EC671C183473500AA89C5
:1073E00085C7444195C05945EFE01F8A931A85012E
:1073F00093DA8A410149138AC189130B00FDC14BFD
:1074000083C73900636DF900B25022549254025977
:10741000F249624AD24A424BB24B4561828083872D
:10742000F40063C8570783270A00A5C75145EFB08A
:10743000DFDE2A8439CD23006501A3000500230186
:10744000750183C70400194693852400A301F50044
:107450008387F4001505A306F50083C71400A30F66
:10746000F5FE9790FF1FE780402D83C7840093852A
:1074700094001305C400A305F40019469790FF1F5C
:10748000E780A02B83270A00A28503C50700EFB081
:107490005FE40509C1041379F90F9DB79387C1898A
:1074A0009C43BDD3EFF0BFC52254B2509254025951
:1074B000F249624AD24A424BB24B014545616FF0F4
:1074C0006FB85D7186C6A2C4A6C2CAC04EDE52DCC9
:1074D00056DA5AD85ED662D466D26AD06ECE630FC0
:1074E0000520834735002A8985CB404115C459457D
:1074F000EFE08FF993178501E1873EC681449389B8
:10750000C189130A000DC94B354C9D4C294D994D2D
:107510008347390063E1F402B640264496440649A5
:10752000F259625AD25A425BB25B225C925C025DB3
:10753000F24D616182808307C400324763CCE7105B
:1075400083A7090063880710034B040093770B019E
:10755000D5CBCD47631BFB06230004002285EFF04B
:107560006FF96DC9834704001147034574016368CF
:10757000F70E5105EFB07FCAAA8A69CD23104501E5
:107580002301850103470400194693052400A30144
:10759000E5000307C40015052303E50003471400B5
:1075A000A30FE5FE9790FF1FE780201903467401A3
:1075B0002386CA0059C613854A0123A8AA000C4C89
:1075C0009790FF1FE7806017BDA8D5476318FB00A1
:1075D00085472300F400A30B040049B7F547E309EE
:1075E000FBFEC9476316FB0089472300F400BDB7C3
:1075F000C1476314FB008D47CDBFED47E310FBF699
:107600009147E5B793778B0099C3AD47F9BF937660
:107610001B0093774B0091C699C395475DBFA14767
:10762000E9B793762B0099C699C3A5475DB72300A8
:10763000B4012DB781C72300A4010DB72300940125
:1076400031BF23A80A0003A70900D6850345070018
:10765000EFB03FC88504710493F4F40F55BD1305D2
:107660000502EFB09FBBAA8A75D5231045012301FF
:1076700075018346040013770B061946558FA30145
:10768000E50003471400930524001505A30FE5FE4C
:107690009790FF1FE780600A03478400194693050F
:1076A0001401A385EA000347940013853A01238659
:1076B000EA000347A400A386EA000347B400238737
:1076C000EA000307C400A387EA000357E4002398F5
:1076D000EA00034704012389EA009790FF1FE7802F
:1076E000C00503467401A38CCA0011C613850A02A3
:1076F00023AEAA00E9B523AE0A00B1B79387C189CA
:107700009C43E38B07E0EFF09F9F2644B6409644EE
:107710000649F259625AD25A425BB25B225C925CD1
:10772000025DF24D014561616FF0CF919387C18990
:107730009C43639A071017D7FF1F0347678A298B5B
:10774000C947630307107971916522D49385D57178
:107750002A84114506D626D24AD04ECE97A0FF1FC6
:10776000E780C06523AEA188CD4755C1834704009B
:107770001146A28517D7FF1FA305F7869790FF1F15
:10778000E780A0FB930531001305F041EF80512500
:107790000347310097C7FF1F83C7E771B334F00079
:1077A00011C3890413051002EFE00FCE1379F50F12
:1077B0009377190093794900BDC31545EFE0CFCC0D
:1077C000834724002314A10019452302F100EFE0B0
:1077D000AFCB2316A100638209028347240013055F
:1077E0002002A302F100EFE02FCA2315A100130528
:1077F0003002EFE06FC92317A100834534007C00FD
:10780000380054004A862685EF907011AA87B2503E
:10781000225492540259F2493E8545618280E147E3
:10782000E38709FE83472400130520022302F100A9
:10783000EFE08FC52314A10013053002EFE0CFC4A1
:107840002316A1005DBFC5473E858280757197C72D
:10785000FF1F83C7E77822C506C726C34AC1CEDE0D
:10786000D2DCA18B4944638007249387C1899C4360
:107870004144639A07222A89EFE07F8297C7FF1F5E
:1078800083C7477655446370F522938481879C4073
:107890004544639A072091659385C571294597A052
:1078A000FF1FE780A05123ACA1864D44630D051E48
:1078B0002946CA859790FF1FE78020E813056002DC
:1078C000EFE08FBC9379F50F93F759006144638C17
:1078D000071C13060003814588009790FF1FE7806F
:1078E00040E993F7190013EA29000144B9CF414553
:1078F000EFE08FB92316A1043D45EFE0EFB823195F
:10790000A1043545EFE04FB8231CA1043945EFE051
:10791000AFB7231FA1042145EFE00FB72312A10643
:107920001D45EFE06FB69C402315A10683C71700E5
:10793000638407182D45EFE02FB52310A1043145CE
:10794000EFE08FB42313A10405441305C002EFE058
:10795000AFB3981893171400BA97239EA7FC13058A
:10796000B002EFE06FB2130984009C1806093E993B
:107970002319A9FC13059002EFE00FB1231CA9FC09
:107980001305A002EFE04FB0231FA9FC13058002EE
:10799000EFE08FAF130904019C1806093E99231AE2
:1079A000A9FC13057002EFE02FAE231DA9FC93F98B
:1079B00049006384090813056003EFE0EFAC050498
:1079C0009C18131914003E99231EA9FC130550039B
:1079D000EFE08FAB930984009C188609BE99239928
:1079E000A9FC13053003EFE02FAA239CA9FC130583
:1079F0004003EFE06FA9239FA9FC1305E002EFE02D
:107A0000AFA841049C1806043E94231AA4FC130555
:107A1000D002EFE06FA79C40231DA4FC83C7170092
:107A2000DDC313051003EFE02FA62318A9FC1305EF
:107A30002003EFE06FA5231BA9FC9C4003C5370082
:107A400093854700EFD05F8C2AD69305F103130589
:107A5000F041EF80E1780347F10397C7FF1F83C729
:107A60008745B335F000325611C389059440FC00B8
:107A70009308A10603C526003EC8930721053EC60C
:107A8000BC083EC49307E1053EC2DC103EC01308AB
:107A900061049C0052879106EF90E0682A8401C53A
:107AA0000D45EFE02FC82285BA402A449A440A497E
:107AB000F659665A496182802545EFE0EF9C231014
:107AC000A1042945B5BD1305F002EFE0EF9B231893
:107AD000A9FC13050003B1BF97C7FF1F83C7475019
:107AE000A18B17C5FF1F1305E54791E301456FD033
:107AF000AFDD238D0188FD5717C7FF1FA303F74E86
:107B000023A0018A23AE018897C7FF1F93874744AC
:107B100017F7FFFF1307877698C317F7FFFF1307C1
:107B2000A779D8C3170700001307078A98C7170754
:107B3000000013074799D8C717F7FFFF130727EA75
:107B400098CB97C7FF1F9387E74117F7FFFF1307EE
:107B500007F398C317F7FFFF1307A7D2D8C3828094
:107B6000411122C485452A8403C5A18906C6EFF0C8
:107B7000AFCE97C7FF1F83C7A746A98BB5CB17C545
:107B8000FF1F1305E53C238D8188EFD08FD313842D
:107B9000018A1C4091C74D45B24022444101828078
:107BA00003C5A18919E10145C5BF91659385B571EB
:107BB000120597A0FF1FE780602023A0A18A61DD46
:107BC00003C6A189120681459790FF1FE78060BA1E
:107BD000104083C6A1898147FD5513F7F70FE37461
:107BE000D7FC1397470032972300B7008507F5B7F6
:107BF0000145238D0188EFD0CFCC75B79387C1871E
:107C0000884301CD411106C697A0FF1FE7802028B9
:107C1000B24023AE018641018280828001111305AA
:107C2000700306CEEFE04F862AC613058003EFE00F
:107C3000AF852AC413059003EFE00F852246B245B5
:107C4000F240AA86054505616F90E04C5971A2D4B7
:107C50001384C1871C4086D6A6D2CAD0CECED2CC41
:107C6000D6CADAC80545F9C79305F1041305F041F2
:107C7000EF8001579305F1041305F041EF80415661
:107C80008346F10417C7FF1F0347E722B337E0001D
:107C900091C2890718403EDE03453700930547002F
:107CA000EFD08FE618402ADC0D45834527002EDAF9
:107CB000EFD09FFD2AD81145EFD01FFD00402AD6F6
:107CC00065450347A400034BB4003AD4EFD0DFFB73
:107CD000AA846945EFD05FFB2A897145EFD0DFFAAE
:107CE000AA896D45EFD05FFA2A8A7545EFD0DFF992
:107CF000AA8A7945EFD05FF9E2046258F257225719
:107D0000B2564256D2551375F50F93FAFA0F137AFD
:107D1000FA0F93F9F90F1379F90FE1842ACC56CAB7
:107D200052C84EC64AC426C25AC0930844000545EC
:107D3000EF90403BB650265496540659F649664A91
:107D4000D64A464B65618280011122CC06CE8D4712
:107D50002E846316F50603C73500E94703D54500B1
:107D60006318F70097C7FF1F83D727156385A706FA
:107D7000EF50100D09C5835764002317F500035712
:107D8000A4008356840003566400835544000345D1
:107D90003400EFD05FAB0357440097C7FF1F83D772
:107DA000C7116308F7008547F24062443E850561CC
:107DB0008280FD5717C7FF1F2311F710EDB78967A2
:107DC000CD07631DF50083C7250031476385E700B4
:107DD0004547E39AE7FCEFD0AFB5F1B7B147631978
:107DE000F50017C5FF1F0345B51FEFD0FFB065BFF6
:107DF00041677D178147E319E5FA83C65500494776
:107E0000E394E6FA83C545000355240030002314AB
:107E10000100EF50406E41BF411122C426C206C688
:107E200083C7418A1307E00F2A84AE846382E70484
:107E30001307F00F6386E7021145EFB00FBE0DC1C7
:107E4000930700FD2300F5008947A3009500230157
:107E5000F500A3018500AA8503C5418AEFB06FC76D
:107E6000F9572382F18AB240224492444101828030
:107E70001145EFB08FBA65D9930700FD2300F500D7
:107E80008947A30095002301F500A3018500224442
:107E9000B2409244AA8503C5518A41016FB06FC3B5
:107EA000011126CA9384C1879C4022CC06CE494446
:107EB000A9C783C707000D446391A704894517C567
:107EC000FF1F0345A511EFB0DFB4914517C5FF1F94
:107ED0000345C5102393018AEFB0BFB39C4001470F
:107EE0008146A38087001306F1008547854501453B
:107EF000A307F100EF90E0212A842285F24062443A
:107F0000D24405618280011106CE22CC26CA854763
:107F10006319F50683D7618AB1CB17C7FF1F0347E3
:107F2000A7F929E71307B003636DF702894517C561
:107F3000FF1F0345A50AEFB0DFAD9307006403D62A
:107F4000618A3306F602894517C5FF1F03450509F7
:107F5000EFB07F8B2393018AF2406244D2440561E3
:107F60008280938747FC2393F18AFDB79387C1876B
:107F70009C43FDD36244F240D24403C5070005612F
:107F800005B79384C1879C40E1DB97C7FF1F83C778
:107F90002705918BF1D389476313F5062D452EC62E
:107FA000EFB0AFA72A844DD9B245930700FD230057
:107FB000F500E547A30005002301F50083C7350060
:107FC00015051946230FF5FE83C745009505A30F38
:107FD000F5FE9780FF1FE780407617C5FF1F03451A
:107FE00035009307F00F6315F5009C4003C50700AB
:107FF000A2856244F240D24405616FB08FAD8945DD
:1080000017C5FF1F034585FDEFB0BFA06244F240D6
:10801000D2442393018A05616FF05FBE9387018B81
:108020009C4391CF03D647008C43411106C69780ED
:10803000FF1FE7808070B240014541018280094501
:1080400082809387018B9C4385C79387818B98435C
:10805000894705C3035647000C43411106C6978064
:10806000FF1FE780806DB24081473E8541018280DD
:1080700089473E8582809387018B9C4385C7938780
:10808000418B9843894705C3035647000C43411170
:1080900006C69780FF1FE780406AB24081473E8551
:1080A0004101828089473E85828097C7FF1F83C731
:1080B00027F3918B99CF41111385C18A06C6EFD062
:1080C0006F81B240FD5717C7FF1F2318F7DE41012C
:1080D000828001456FD00F80FD57A382F18AF95746
:1080E0002382F18A2384018A2393018A23A8018AA7
:1080F00023AC018A23AA018A97C7FF1F938707CB66
:10810000170700001307071D98C317070000130780
:10811000C7DFD8C317070000130787B398C717072F
:1081200000001307E7AFD8C797070000938707C27F
:1081300023A6F18A8280411126C29384C1879C4084
:1081400006C622C485CF2A840D45EFB00F8DAA85BF
:1081500019CD930700FD2300F5008D47A30085008E
:108160002301F5009C4003C50700EFB08F9619C4AA
:108170002244B240924441016FF05FA8B2402244D1
:1081800092444101828079714ECE9389C18783A741
:10819000090026D206D622D44AD052CC8144A1C7A7
:1081A00083C4170085472A896388F40497C7FF1F93
:1081B00083C787D0854485EB0D45EFB00F86AA8530
:1081C00005C1930700FD2300F5009147A300250199
:1081D0002301F50083A7090003C50700EFB06F8FE7
:1081E000EFF0DFA18544B250225426850259925403
:1081F000F249624A456182809387018B9C434E8A93
:1082000085E30145EFD05FA82A8601CA894517C5D5
:10821000FF1F0345A5DCEFB00FDF83270A00B1A0E5
:10822000944303D647009305E1000545EFC01FF5D1
:1082300069D983470500858BE9D70545EFD0DFA4D1
:108240009307B0032A8463F3A7045D6613060670E0
:10825000894517C5FF1F034565D8130444FCEFB0DB
:10826000EFF52393818A83A709000947A380E700DC
:1082700097C7FF1F83C747C491C797C7FF1F238DA9
:1082800007C295B74A85EFF01FEBB1BF1306006434
:108290003306C5029DBF411122C42A840D4506C67E
:1082A000EFA0BFF715C1930700FD2300F500CD47F0
:1082B000A30085002301F5002244B240AA8503C52E
:1082C000518A41016FB0EF80B24022444101828067
:1082D000035745000111896706CE22CC26CA938632
:1082E00067006319D7001C45014583C50700EFF0FF
:1082F000BFB22DA8938687006317D7001C4505459C
:1083000083C50700EDB7938697006313D702938761
:10831000C1879C4301449DC718450345070049E9AF
:108320000547A380E7000545EF801057054419A8CD
:108330009386A700631ED7001C4503C50700EFF016
:108340009FE42A842285F2406244D24405618280FF
:1083500093866703E309D7F893867703E300D7FA98
:10836000938687036319D7049384C1879C40014493
:10837000F1DB1C4503C5070005ED05447D452305DC
:108380008100EFD07F902316A10013050002EFD0EB
:10839000BF8F9C40A305A1001307B100A3808700F5
:1083A00074001306A10085450545EF809056BDBFBA
:1083B000EFF07FD8A5BF93869703E30FD7F6938698
:1083C000E7036317D7001C45094583C5070005B7B8
:1083D0009387F703631DF7021C4503C507002DEDC6
:1083E0006C001305D030EF80F156B247414793F748
:1083F000070FE38DE7F29305B10013056031EF80BD
:1084000071550345B1008545EF80305105B7896747
:10841000938707040144E317F7F21C4583C4070060
:1084200083C7818A26858DEB0D45EFA01FDFAA85C6
:108430000544E30905F0930700FD2300F500D1474B
:10844000A30095002301F5009387C1879C4303C5D2
:108450000700EFA01FE8FDB5EFF0FFE3C1BD41113C
:1084600097C7FF1F83C7C7B706C6958B99CB17C59C
:10847000FF1F1305A593EFC09FC54D45B2404101B5
:1084800082800145EFC0BFC40145CDBF79714ECE9A
:10849000AE896C0022D426D24AD006D62A89B2846C
:1084A000EF0050442A840DE1CE854A85EFC03F910C
:1084B0002A8419E93245268797D6FFFF9386868F4F
:1084C0002D468145EF00305D2285B25022549254F2
:1084D0000259F2494561828079714ECEAE896C00B5
:1084E00022D426D24AD006D62A89B284EF00903F01
:1084F0002A840DE1CE854A85EFC05F912A8419E96F
:108500003245268797D6FFFF9386E68F4D468145F5
:10851000EF0070582285B250225492540259F24909
:1085200045618280397126DAAE844C0022DC4AD85B
:108530004ED652D406DEAA893289368AEF00903AA6
:108540002A8431EDA6856303090283D704002C0039
:108550002314F10083D724002315F1009307203062
:108560002316F100930780022307F1004E85EFC028
:10857000FF812A840DE55946A6851305A100230431
:1085800021019780FF1FE780401B1245528797C645
:10859000FFFF9386C67C25462C00EF00D04F228536
:1085A000F2506254D2544259B259225A2161828007
:1085B000BD47638CF50663E9B702A5476387F506F7
:1085C00063EDB7009947638CF5049D47638FF5040D
:1085D0009547638CF50401458280B5476387F504B0
:1085E00063E1B704AD47F5B7DD47638EF50263EA93
:1085F000B700C947638BF502D9476386F502C547C3
:10860000C9BFF5476383F50263E4B700ED47D1B70F
:1086100093072005638BF5009307200D5DBF484548
:108620008280084182800845828048418280930789
:10863000F00F630EF506011126CAAA841305000285
:1086400022CC4AC84EC652C456C206CE3A89B68912
:10865000B28A2E8AEFA07FBC2A844D4515C89307A5
:1086600000FB2300F400A300540123114401230262
:10867000340113058400614663050902CA859780A9
:10868000FF1FE780800BA2852685EFA09FC40145D0
:10869000F2406244D2444249B249224A924A0561B8
:1086A000828081459780FF1FE780A00CE9BF0945C4
:1086B0008280011122CC06CE2A842306B100A306B3
:1086C000C100EF40F0770DC10347C500A14763111A
:1086D000F70278009306E0070146A28517C5FF1F41
:1086E00003452590EFF0BFF4F240624405618280BB
:1086F00078009306E0070146A28517C5FF1F0345D2
:10870000358ECDB7930700643306F6026FB08FA1A4
:1087100005C90347050085469307270093F7F70F20
:1087200063F0F602411122C42A843A8506C6EFB0EE
:108730004FB3FD572300F400B24022444101828030
:108740008280035705009307000B6313F7028347EA
:1087500045004947639CE700034715018547639936
:10876000E7000355250085456F30807B6D47C5BF09
:1087700082807971930720302314B1002315C10042
:108780002316F1002C0093078002014606D623072A
:10879000F100EFF03FD9B25045618280797126D265
:1087A000AE846C0022D44AD04ECE06D6AA89328935
:1087B000EF0050132A840DE1A6854E85EFC0EFCE61
:1087C0002A8419E932454A8797C6FFFF9386464CAB
:1087D0000D46A685EF00302C2285B25022549254CB
:1087E0000259F24945618280011122CC06CE2A84C9
:1087F0002EC632C436C2EF40B0640DCD8346C500EC
:10880000A14712472246B245639EF600B28617B5CD
:10881000FF1F0345057D2E86A2856244F240056157
:108820006FF0FFE0B28617B5FF1F0345757B2E86FC
:10883000A285E5B7F24062440545056182806FF08C
:10884000FFC4B28601466FF0FFCD2394050083D7A5
:10885000850099E36FF05FC80945828023AEA18A45
:10886000828023A0A18C8280011122CC26CA06CE50
:108870002A84AE84EF40D05CA6852285EFC00F8F9E
:108880001DE5228523169100EF40905B0DC1034743
:10889000C500A1476312F70217B5FF1F03456574B2
:1088A00078009306F0070146A285EFF05FD8F2400A
:1088B0006244D2440561828017B5FF1F034555729B
:1088C000C5B7011126CA06CEB68422CCDD4663E2C6
:1088D000B608D94663FED50AA5466381D50A63EE7C
:1088E000B6049546638CD50899466387D50A054436
:1088F00041687D18631606093AC6EFC0EF8A330651
:108900008540324742064182420441803305C4001B
:108910004205BA85418132C6EF30A070AA8749C1AD
:1089200081C432462390C400B30580406244F240C3
:10893000D2443E8505616F80512DC5466380D504C4
:10894000C9460D44E395D5FAC167FD17E31EF6FA53
:1089500065B7F5466380D50463E4B600ED46D5B748
:10896000930620056388D5029306200DE391D5F880
:10897000C167FD170D446319F600BDBF09448DBFE3
:108980009306200DE392D5F8310642064182ADBF31
:1089900015445DBF0D444DBFC167FD171D447DB734
:1089A000F2406244D24405618280011122CC26CA81
:1089B00006CE03C645002E84130700028146994562
:1089C000AA84EFF01FF02AC629CD8357040003467E
:1089D0004400930554002310F10083572400231111
:1089E000F10089472312F100930780022303F1006D
:1089F0009780FF1FE78060D4834744008A852685DF
:108A00002314F100EFC08FB12A8411C5324597902D
:108A1000FF1FE780C0472285F2406244D2440561CF
:108A200082804D44CDBF5D7186C6A2C4A6C2CAC0B5
:108A30004EDE89476306F600C14709446319F60410
:108A40000144B1C52E894C0832C6B689AA84592D75
:108A50002A8432460DEDC1778507CA851305D101F9
:108A60003ECC230EC1009780FF1FE78000CD2C086D
:108A70002685EFF09FF32A8419E952454E8797C661
:108A8000FFFF938626281D462C08EF00D000228584
:108A9000B640264496440649F25961618280797154
:108AA00022D436844AD04ECE52CCB2892E8A3A890C
:108AB0008146130710022286D94526D206D6AA84FB
:108AC000EFF03FE02AC629C12286CA85231481001F
:108AD00023124101231331019780FF1FE780E0C576
:108AE0004C002685EFC00FB92A8411C532459790F6
:108AF000FF1FE780C0392285B25022549254025998
:108B0000F249624A456182804D44F5B7011122CC99
:108B100026CA06CE4AC8DD472A84AE84638DF50294
:108B20008147035504006C002306F100EFC00FB825
:108B30000545638EA40803458400B165938505B897
:108B4000EFA07FC0E5472301F40097C7FFFF93879D
:108B500087355CC0A5A8034755013149B286330665
:108B6000270318499C4232971043E31BF6FA83D738
:108B7000460003564700E315F6FA8C4608479780EF
:108B8000FF1FE78080C449DD834754010347440148
:108B9000850793F7F70FA30AF40063F0E704B387A0
:108BA0002703184803550400BA97984783D647000F
:108BB00003D6270083D50700EFF07FEE35F103459C
:108BC0008400B165938505B8EFA0FFB75945F24021
:108BD0006244D2444249056182808347640191B76F
:108BE000011122CC26CA06CEDD472A84AE84639CBE
:108BF000F50603550500EFB03FDB0356C40183566D
:108C00002401035744016D162A9642064182B30798
:108C1000D640C207231EC400C18363F1E708930551
:108C2000C5FF3308F740635CB802BA96918EC2065E
:108C3000184C8355040103550400C1823E97EFF0A0
:108C40001FE615E103458400B165938505B8EFA0E3
:108C50009FAF5945F2406244D244056182806D1550
:108C600093160501F1B78147035504006C002306F4
:108C7000F100EFC0AFA30545E38EA4FC03458400DB
:108C8000B165938505B8EFA01FACE5472301F4005B
:108C900097C7FFFF938727215CC065BF8547E9B76A
:108CA00079714ECEAE89C16526D20147AA84894624
:108CB00017D601001306063DFD15054522D406D63C
:108CC0004AD0EF105006054431CD2A8913073002EF
:108CD00081461146F5452685EFF0BFBE2AC65544AC
:108CE00031C18357A900CE8601462314F100914774
:108CF0002315F10085472300F500B2472C00268597
:108D0000A38007003247FD572301F7003247A30134
:108D1000F700EF1000772A8411C532459790FF1FA6
:108D2000E780E0162285B250225492540259F2494B
:108D300045618280411106C6EFF09F8719C5B24098
:108D400041011793FF1F67008314B24041018280E5
:108D5000011106CE2AC6EFB01FAC3245914523AEB5
:108D6000018A23A0018C97B7FF1FA389A726EF30A4
:108D70006026F24005616F20F00493970501C187DA
:108D800063D80712797117B5FF1F0345352522D423
:108D90004AD006D626D22E89EFA08FCC2A8449CD80
:108DA000034705009307000A6315F70885474C0839
:108DB000A305F100EFB05FB2AA8405ED834761011E
:108DC00071476374F708138717FE1377F70F93063D
:108DD000000263F3E608858BC5C79387C18B9C436C
:108DE000994481CB035524001306B1004C088297A7
:108DF000AA848347B10099C7084409C59790FF1F0B
:108E0000E780E00895E05247B7070001938707F035
:108E10007D8FB707120093870710630CF700034795
:108E20006101ED476317F700035524008545EF30D6
:108E3000200F2285EFA0AFBBB250225421653345ED
:108E4000A900925402594561828037073014050702
:108E50003357F700058B41D31387018C184351DB3F
:108E60000347510159F72306F10099472308F10000
:108E7000035524006C0023170100EFB03FCA95BFD3
:108E80009387018C9C439DC3035524001306B100B6
:108E90004C08829739DDAA8483475101B9FB834787
:108EA0006101230891002306F100D9B79944EDB779
:108EB00001458280397122DC26DA06DE4AD84ED698
:108EC00052D456D25AD0A5472A84B2846399F51059
:108ED0008347450203570600835A2600850723026D
:108EE000F5029307F7FFB387FA025442C207C18322
:108EF000B69703C9170083C707008346C500220938
:108F00003369F90085476390F6023307570323104E
:108F100006008149014A130B3501931A070193DAC0
:108F20000A0163E15907C167FD176302F90C835712
:108F30000401637EF90A050942098346C4001359F6
:108F40000901231724010547035504009305E40094
:108F5000639FE6002315F100930720302316F100EC
:108F600093078002231421012307F1002C00EFB0A6
:108F7000FFE103458400B165938505B8EFA0AFFC20
:108F80005945BDA083D62400DC4083452401ED165D
:108F900013865900C206C1823E965A85EFB0BF8C37
:108FA00005C9630C3A01C84003D62400B305350156
:108FB00052959770FF1FE780407883D724003E9A30
:108FC00083D70400420A135A0A0185072390F4004C
:108FD00083D72400BE99C20993D9090199B70347E1
:108FE0004600A9476310F7028347450281CF014538
:108FF000F2506254D2544259B259225A925A025BE8
:109000002161828083462401130934014A868945FF
:1090100017D5010013058506EFB0FF8419C105457A
:10902000C1BF834624014A86894517D5010013052F
:109030002505EFB05F8365F5834624014A8689459F
:1090400017D5010013050503EFB0FF8169F98346C9
:1090500024014A86894517D5010013056500EFB044
:109060009F8055FD03C74400BD47E3EAE7FAA567C3
:1090700093874712B3D7E700858BD5D38347440244
:1090800085072302F40203D9240071BD9387418C24
:10909000984317B6FF1F0346E6F481476315F600B1
:1090A000814636858280BA8613078702835587FDFD
:1090B000E389A5FE850793F7F70FCDB7011106CE1B
:1090C0002EC6EFF0BFFC01CD8347A500B245138744
:1090D00017006396E50093F707F82305F500F240C3
:1090E00005618280011106CE2EC6EFF03FFA05C55C
:1090F000B24591C188C1834785001307E00F5D45E4
:109100006388E7001307F00F01456383E7005945C3
:10911000F240056182800945E5BF411122C42A84DD
:10912000210506C626C24AC0EFF08FDE8347240021
:10913000A51793F7D70F91EB0347C400854763103A
:10914000F7061C4881443149A9E3FD572301040077
:10915000A304F400230204021305C4002244B24015
:10916000924402496146814541011773FF1F670020
:109170004360B38724033E95084509C59790FF1FB8
:10918000E780E0D0850493F4F40F83474401084856
:10919000E3E1F4FE9790FF1FE78060CF7DB7084CB6
:1091A00075F965B7411122C4416406C626C293070A
:1091B000E4FF630EF500AA8485E1EFF03FED01E9DD
:1091C0001305F4FFEFF09FEC19C123109500B24096
:1091D000224492444101828085476395F504EFF073
:1091E000FFEA2A846DD5FD572310F50083478400DC
:1091F0001307F00F6385E7021307E00F638BE700A7
:10920000834624000345940001475146A685EFF0AC
:109210000FC22285EFF07FF0FD572304F4002305F1
:10922000040075B78947E394F5FA8545EF40A064DB
:1092300059FD2685EFF09FE52A844DF949BF39C9CC
:10924000034785009307F00F6306F704011122CC52
:1092500006CE2A84834625008355050003459500E4
:1092600001475D46EFF0AFBC03472400E1476319B7
:10927000F700035504006C0023060100EFB01FC384
:10928000F9572304F4002285EFF03FE9F2406244ED
:109290000561828082809307F00F6306F706011153
:1092A00022CC26CA2A844AC84EC652C43A89B689F4
:1092B000328A93068500AE847946AA851705000098
:1092C000130525F806CEEFF0EFC3A3042401230114
:1092D00044012322340185C01305C4006244F240D6
:1092E0004249B249224AA685D244614605611773B4
:1092F000FF1F67008344F2406244D2444249B249AE
:10930000224A0561828082802384A18C82809547D5
:10931000639CF50683474502854685072302F502CF
:1093200083570600584203462600FD17C207C18333
:109330006318D6048A07BA9703C7170083C70700C4
:109340002207D98F0357E50063F9E704411106C6E8
:1093500022C485072316F5002A849305C50003550A
:109360000500EFB0FF9803458400B165938505B80B
:10937000EFA06FBDB2402244D9473E8541018280B3
:10938000C946B387D70245BF83464600294785476C
:109390006396E6000347450211C381473E858280FC
:1093A0009D476392F506834745028356E50085078E
:1093B0002302F502835706005842FD178A073E979D
:1093C0008347170003470700A207D98F014763F6B9
:1093D000D704411106C622C485072A842316F50046
:1093E0009305C50003550500EFF02FDC034584000D
:1093F000B165938505B8EFA00FB5B2402244594737
:109400003A854101828083464600A9470547639615
:10941000F60003474502133717003A858280411151
:1094200022C406C626C2B5472A84639BF504834737
:109430004502B28485072302F50203550500EFB00B
:10944000AFD683D704001307F5FF014563C5E702D4
:109450000357E400035504009305C400BA9723178B
:10946000F400EFB0DF9603458400B165938505B83D
:10947000EFA06FAD5945B240224492444101828031
:10948000034746009D470545E317F7FE03454402A1
:1094900013351500CDB7C547639EF5068357060003
:1094A00003572600FD17B387E70203474502050768
:1094B0002302E5025842C207C1833E978347370023
:1094C00003472700A207D98F41677D176395E700FF
:1094D00081473E858280138717002316E5000357D6
:1094E000E500E3F7E7FE411122C49305C5002A8495
:1094F0000355050006C6EFB09F8E03458400B16595
:10950000938505B8EFA02FA4B2402244D9473E85E9
:10951000410182808346460029478547E39BE6FA5E
:109520000347450255F775B7011122CC26CA4AC830
:1095300052C406CE4EC683C7250015472A8AAE847C
:1095400032843689639DE7043686A2852685EFF04E
:109550001FDCAA8955E985476318F40A03474900C7
:10956000A9476301F70203C594004A87854601466F
:10957000D285EFF0CF8B19E585454A85EFF04F8313
:109580001334150083C6240003C5940001476946BF
:10959000D285EFF0CF892685EFF03FB851A01D4767
:1095A0006398E7003686A2852685EFF07FDF55B702
:1095B00025476398E7003686A2852685EFF09F8FC2
:1095C00049BF35476398E7003686A2852685EFF0C8
:1095D0001FE541B745476398E7003686A285268593
:1095E000EFF07FEBBDB75D47639FE70003C7C500A2
:1095F00085473686A2852685631DF702EFF00FD1D9
:109600008547631BF5048549A5476317F402835713
:1096100009009DE30544E38709F6D947E39DF9F680
:109620002285F2406244D2444249B249224A05614D
:109630008280EFF0EFDAE9B703C594004A87A2868B
:109640000146D285EFE0BFFE71F5A2854A85EFE0C5
:109650003FF613341500C1B70544D9B7397122DC80
:1096600006DE26DA4AD84ED652D456D283D7050023
:109670001944B1E383C925002A89328A938759FEA8
:1096800093F7D70FAE84DDE303C7818C9307F00F08
:1096900019446302F702F5476394F904EFF01F9F42
:1096A000AA8921C10346A5000DCE93178601E18743
:1096B00063DD070001442285F2506254D2544259BE
:1096C000B259225A925A21618280F5454A85EFE0CB
:1096D0005FFE83C7A90093E707F82385F900D9BF88
:1096E000814983D64400904483C5140003C5040017
:1096F0003800EFB0AFFC2A845DFD83C6240038003B
:109700000146CA8503C5818CEFE07FF22A8445F5C6
:10971000B24799C323000A0083C724007547E39B1F
:10972000E7F8E38909F82385F90071B7EFF01F9690
:10973000AA8A49D18547639CF90883D544008844A7
:109740003000EFB04FA82A843DF503C72A00C54773
:1097500063FDE708DD47630CF70A03C59A0097B776
:10976000FF1F83C7B7876397A70A014403C72A006F
:109770008D47631AF7048357810003D7CA0063F447
:10978000E7002396FA0083D5CA004A85EFF0CF8D13
:1097900097A7FF1F83D7876E6D476376F70283D63F
:1097A000CA005D476371D7021307B00FBE856374AB
:1097B000F7009305B00F1166C20513060629C18193
:1097C0004A85EF70B00A5685EFF03F95EDB58347B7
:1097D00025001144E39137EF5C41E38E07EC83D51C
:1097E0004400884430008297B9BFB72702009387AE
:1097F000072AB3D7E700858BADD303C62400340016
:10980000D6854A85EFF05FD22300AA006DB583A705
:109810000A01DDB783C6240038000146CA85EFE09F
:109820001FE12A8421F583C524002800EFE05FD8DA
:109830000DDD23000A001DBF9307800217A5FF1F3F
:109840000345457A3305F5029165011193856570ED
:1098500006CE26CA22CC4AC84EC69384418C978035
:10986000FF1FE780A05523A2A18C9307800217A6B3
:10987000FF1F034626773306F60281459770FF1FC8
:10988000E78020EF9C404D4595CF0144930980022D
:109890007D5997A7FF1F83C7E774636CF402170510
:1098A00000001305E5DBEFE07FFB17050000130563
:1098B0002581EFB0AF81170500001305E58EEF306D
:1098C000D0720145F2406244D2444249B249056136
:1098D0008280B307340388406146814505041374D0
:1098E000F40F3E95231025012301050023142501C3
:1098F000230505002302050231059770FF1FE7804D
:1099000040E741BF0145828097A6FF1F83C6966D41
:10991000814763E5D70001473A8582802E8791050C
:1099200003D6C5FFE30AA6FE8507E5B70DCD83473D
:1099300025000547890793F7F70F6376F702411172
:1099400022C406C62A848355050003453500014715
:10995000F9465D46EFE0BFCDF9572311F400B24060
:10996000224441018280828017A7FF1F0347976727
:109970008147FD5663E3E70082802310D500230171
:10998000050085071105FDB7014582809385718229
:109990009307000285462380F500FD572383F1825B
:1099A000A38CF180238CF1802392D1822395018CAA
:1099B00023AA018C23A2018E23AC018C1386C181C2
:1099C00097C701009387C76A5CC22386018C97877B
:1099D000FF1F9387A76809472300E6002380E7005D
:1099E0002388E7002380E7022388E70217C70100E6
:1099F00013074767D8DB0D472384D700D0C7238CD4
:109A0000D700238CE70217C50100130525671387CC
:109A1000018D17C601001306A66497C60100938640
:109A20006666D8DFC8C323950700D0CB239D070007
:109A3000CCCFD4D3238407022395070223A60702A1
:109A4000239D0702170700001307070D9787FF1FC5
:109A50009387C76423A00700D8C323A4070082808C
:109A6000411106C6EFF05FEA11C503452500B2407B
:109A7000410182800145E5BF411122C426C24AC08E
:109A800006C6AA842E893284EFF01FE811E94165E9
:109A9000CA857D15EFF05FE7C54711C52310950016
:109AA000230185008147B2402244924402493E8509
:109AB0004101828029E789483547639316050111E2
:109AC00006CE22CC26CA034716000346060093C7DB
:109AD000F7FF2207598EF18F32C68DE7C4452A84DD
:109AE000A685EFF0FFF732460147630FA6002285F7
:109AF0006244F240A685D24405616FF0FFF72D471E
:109B00003A85828013070008F2406244D2443A85C5
:109B10000561828083C8050009486395080303A88E
:109B200045008347180003480800A207B3E7070170
:109B3000C2070D68C18713082890639507018947FC
:109B40006FF05FF70545828003C791819307F00F9F
:109B5000630AF70441114AC02A89294522C426C252
:109B600006C63284AE84EF904FEB1DC59307100BF1
:109B70002310F5002302050023148500224423113D
:109B8000250123139500B24092440249AA8503C5DA
:109B9000918141016F90EFF3B24022449244024917
:109BA00041018280828041119387018D26C2AE845B
:109BB0008C4322C406C62A84EFF09FEA098909C9AA
:109BC00022852244B240A685924441016FF04F8D18
:109BD000B24022449244054541018280411122C491
:109BE00026C24AC006C6AA84130445001309850B81
:109BF000835704009DC3084409C59780FF1FE78071
:109C000000292285314681459770FF1FE78060B6A5
:109C10003104231A04FEE31D24FDB2402244FD5703
:109C20002390F40002499244410182809387C18DC0
:109C3000984317A6FF1F0346F63A81476315F600BF
:109C4000814636858280BA861307870B835587F451
:109C5000E389A5FE850793F7F70FCDB79387418E6C
:109C60009C4399C703D74700E31CA7FE884782801F
:109C700001458280411106C6EFF05FFE09C5084527
:109C8000B240410182800145E5BF011126CA93849B
:109C9000450022CC4EC606CE4AC852C456C25AC04F
:109CA000268781490144814681473D450356070087
:109CB00055CED9E20354470083572700B286A297B6
:109CC000C207C18385093107E392A9FE25C82E8901
:109CD00091659385457022859780FF1FE780000E70
:109CE0002A8B29CD814A014A8C4485C503D644007C
:109CF00033054B019770FF1FE78020A483D74400F2
:109D000088443E9A420A135A0A019780FF1FE7804F
:109D1000001863890A003146814526859770FF1F28
:109D2000E78020A5850AB104E3E03AFD2326690116
:109D300023148900054521A0630DD6000145F2409A
:109D40006244D2444249B249224A924A024B0561D6
:109D5000828003562700E313F6FE03564700329431
:109D6000B2974204C2074180C183A9BF0545E37889
:109D700035FDA9BF9387818D9C4399E3014582807E
:109D800098470357A700E319A7FE13854700828071
:109D9000411106C6EFF01FFE11C503550500B24084
:109DA000410182800145E5BF411106C6EFF09FFCED
:109DB00011C503452500B240410182804145E5BF00
:109DC000411122C42A842E8506C6EFF0FFFDAA8524
:109DD00005462285EF30100A95476305F500BD471B
:109DE0006313F5002145B2402244410182804111B4
:109DF00022C42A84090506C6EFE09F91FD57A301FE
:109E0000F400B2402244410182809387018E9C433A
:109E100017A6FF1F0346161D01476365C70081464D
:109E200036858280BE86990783D5A7FFE38AA5FE83
:109E30000507E5B7411122C4416406C626C293074F
:109E4000E4FF630EF500AA8485E1EFF01FFC01E951
:109E50001305F4FFEFF07FFB19C123109500B2400A
:109E6000224492444101828085476394F504EFF0D7
:109E7000DFF92A846DD5FD572310F50083472400B0
:109E80001307F00F6384E7021307E00F638AE7000C
:109E9000034534000147F9465146A685EFE02FF906
:109EA0002285EFF0DFF4FD572301F40023020400C4
:109EB0007DB78947E395F5FA8545EF30D01B45F12D
:109EC0002685EFF09FF42A8455F951BF5D71A6C233
:109ED0004EDE86C6A2C4CAC052DC56DA5AD8AE8458
:109EE00083C52500F947AA896396F504EFF0FFF1D1
:109EF0002A8409ED01442285B64026449644064949
:109F0000F259625AD25A425B6161828083472500CE
:109F10000547890793F7F70FE37EF7FC0345350004
:109F20000147F9460146CE85EFE06FF02285EFF05C
:109F30001FECC9B783AA0400B7070001938707F095
:109F400037071200B3F7FA0013070710328A0149E6
:109F5000638AE7022EC6EFF05FEB2A89B2451DC186
:109F60000346450005C293178601E187E3C407F85D
:109F70004E85EFE00FF48347490093E707F823028B
:109F8000F9008DBF03C761829307F00F1944E30402
:109F9000F7F6E147E3E1B7F693D71500FD178E0713
:109FA00017C70100130747ACBA9703A80700E304DB
:109FB00008F403AB4700E3000BF4C20A93DA0A018A
:109FC00063850A00C947E398F5F283D644009044BC
:109FD00083C5140003C50400380802982A8401FDD3
:109FE0002C084E85029B2A8421C983C71400E39460
:109FF00007F083C72400230AA10039472308F10092
:10A000006399E70262478347170003470700A207E7
:10A01000D98F0C084E852319F100EFA03FB0E30B58
:10A0200005EC14080546D9454E85EFE0EFFB2A8480
:10A03000D9B583578101F1BF83C624009147E38BD3
:10A04000F6EA38080146CE8503C56182EFE02FDECF
:10A050002A84E31205EA83C524002808EFE04FD5DF
:10A0600019C123000A009840B7070001938707F041
:10A070007D8FB707120093870710E30DF7E6E30B18
:10A0800009E683C724002302F900B5B5011106CE05
:10A090002EC6EFF09FD701CD83474500B245138709
:10A0A00017006396E50093F707F82302F500F240E6
:10A0B000056182809387818D984319E3014615A835
:10A0C0001C4703D8A700636B050183584700B3867C
:10A0D00008016355D5008146639416011843F1BF0A
:10A0E0003E86C10703D3A7FF6317A30099C123903E
:10A0F0000501328582808506C206C182F1BF3971B1
:10A1000052D42E8A4ED69305E101AA89528522DCCB
:10A110004AD856D206DE26DA328936C63AC4BE8A14
:10A12000EFF05FF9054435C5AA840355E1013944D0
:10A13000EFF0DFB239CD03284500630C0804224755
:10A14000B246D6874A86A6854E8502982A8431E192
:10A150009307E00F638FFA0203C704008947631A6D
:10A16000F702D8408347170003470700A207D98F9B
:10A17000C2070D67C18713072790639CE7008347D9
:10A18000190003460900D285A2075D8E4E85EFF0C7
:10A19000BF9B2285F2506254D2544259B259225A7E
:10A1A000925A21618280797122D4035425004ECEC7
:10A1B000AA89228556CA06D626D24AD052CC5AC877
:10A1C0005EC662C4AE8AEFF07FA601E92285EF7019
:10A1D0000177594429E90144B9A003C7890085479B
:10A1E000AA840144631AF702AA8513858900EFF057
:10A1F000DFA929CD03D7640083D68400D04483D55A
:10A20000440003D52900E147EFF07FEFD9472A84C6
:10A210006318F50223A604002685EFF03F9C49C091
:10A22000D947E30AF4FA2285B250225492540259D3
:10A23000F249624AD24A424BB24B224C456182807B
:10A2400061DD83D744002390FA00F9B713894400F5
:10A25000014AB94B594C3D4B83550900D5DDE147C7
:10A2600063067A010357C90011C3D9470357290070
:10A27000835649000326890003D52900EFF03FE803
:10A280002A846319850123240900050A3109E3158D
:10A290006AFD59B77DD9835709002390FA00F5B7B5
:10A2A00003D529002DB701112317C1009307E00F33
:10A2B0001306E1000147894606CEEFF05FE4F24065
:10A2C00005618280797122D42A840355850026D2C3
:10A2D000AE849305210106D64AD0EFF0BFDD6308B6
:10A2E000050E834785002AC693F707028DCF0355D5
:10A2F0002101EFF03F98AA87B24501ED8357840012
:10A3000039452390F400B2502254925402594561C9
:10A310008280035524004946829711C583578400E3
:10A320002390F400CDB7035924004A85EFF01F9025
:10A3300011ED41657D15EFF07F8F19E5835784009E
:10A3400025452390F400C1B72310250113074500CC
:10A350008147BD46035607002DE63147B387E70224
:10A36000130984003146CA8591073E959760FF1F07
:10A37000E780A03C3146CA8548089760FF1FE78008
:10A38000C03B0356C4000355240041478146DD45C8
:10A39000EFE02FD32ACE19E583578400454523905B
:10A3A000F40095B70C480356C4009760FF1FE78080
:10A3B000C038035524004C08EF70215429D5594565
:10A3C00099B785073107E397D7F8254581BF05453C
:10A3D000B1B7797122D42A840355850026D2AE8480
:10A3E0009305E1014AD006D63289EFF0BFCC51C5C2
:10A3F0008347850093F70702A9E7034714019307F2
:10A40000200519E3834744008356A4005044835534
:10A410008400035524000147EFF07FCEAA8721E98D
:10A420008347140199E703552400EF702148D94769
:10A4300011E18147B2502254925402593E85456140
:10A4400082802AC60355E101EFF0DF82AA8705C9A1
:10A45000B2450355240049468297AA8759DD035720
:10A4600084002390E4000347140161F7E1B75947E2
:10A47000E317E5FE230009006DBF8547CDB7B94757
:10A48000F9BF397122DC4AD84ED652D406DE26DA1C
:10A49000AA892E8A32C63689EFF03F97094415C53E
:10A4A000834725001307E00FAA845D44638FE7000C
:10A4B0001307F00F5944639AE700324605E2D2854C
:10A4C0004E85EF7081482A8415CD2285F250625462
:10A4D000D2544259B259225A2161828003550A004E
:10A4E0009305E101231F0100EFF0DFBC0355E101FB
:10A4F000EFF09F8BAA8505464E85EF30A0172A8482
:10A500005DDDE1B79307F00FE301F9FC93862400CA
:10A510007946A68517F5FFFF13058541EFE08F9E6D
:10A52000A38124015DB739719387818D26DA844335
:10A5300052D45AD05ECE62CC06DE22DC4AD84ED649
:10A5400056D266CA2A8BAE8B328C368A99E0814904
:10A55000B9A0804483DC44000149835AA4006314F9
:10A5600099018440E5B78357A400A28963F8670185
:10A5700005094209135909014104D5B7E3EAFBFE75
:10A58000630C0A00834504004840D28662863AC6BE
:10A59000EFA06FAD324769DD19C323105701F250A8
:10A5A00062544E85D2544259B259225A925A025B91
:10A5B000F24B624CD24C2161828003D7050083D6D6
:10A5C0002500854763E9E60439C7411183C6450084
:10A5D00026C29384550022C426862E8417C5010006
:10A5E0001305C5A9894506C6EFA0EFA7C14711CD40
:10A5F0008346440083552400035504000147268602
:10A60000EFF07FF2814711E1A947B2402244924422
:10A610003E85410182803E8582802E86035506005C
:10A6200083D52500854763E2A50205C18346460020
:10A6300041110147150606C6EFF0FFEE814711E113
:10A64000A947B2403E85410182803E8582802E86A8
:10A650000355060083D52500854763E2A50205C1A1
:10A660008346460041110147150606C6EFF0BFEBD1
:10A67000814711E1A947B2403E85410182803E8574
:10A68000828039714ED683D7250083D9050006DE36
:10A6900022DC26DA4AD852D456D25AD05ECE62CCC8
:10A6A00066CA6AC863E037198547638E0914416B2F
:10A6B000AE8A2A8A2314010002C6014401497D1B87
:10A6C000894B054CC94C054D83D52A00014781466D
:10A6D00001464E8523130100EFF0FFE4AA846300D6
:10A6E000051209EC13072002930661005A8695456E
:10A6F0005285EFE00F9D2A846308051203578100FD
:10A7000083C7040045C70347A100630CA70741475F
:10A710006385E7022C005285EF60316709CD340074
:10A720001546D9455285EFE02F8C11C532459770FB
:10A73000FF1FE780C0758147F9A083D7A400414679
:10A74000130524002300F40083D7A400A183A300F1
:10A75000F400CC409760FF1FE78020FE4904835738
:10A7600081008507C207C1832314F10063F927091B
:10A7700083D7A400638567098509C20993D90901B4
:10A78000A1B7E39977F983D7A400094613052400FC
:10A790002300F40083D7A400A183A300F400CC40DD
:10A7A0009760FF1FE78060F9110455BF22C6035967
:10A7B000610003C7A40013052400638277033359A3
:10A7C0009903230571012300E40083D7A4004146C7
:10A7D000A183A300F400CC401379F90FA5BF230592
:10A7E00081012300E40083D7A400135929001379C1
:10A7F000F90FA183A300F4000946CC4055B7835755
:10A80000810089FBA947F2506254D2544259B2598F
:10A81000225A925A025BF24B624CD24C424D3E8518
:10A82000216182808547C5B7C547F1BF13F705028F
:10A8300001C7B2856FF0CFD8411126C24AC006C603
:10A8400022C413F98500AA846317090013978501B0
:10A850006187635D070232853684EFF0EFD4AA8505
:10A8600005466313090001462685EF20B06001E923
:10A870000145B2402244924402494101828083470B
:10A880009400E5DB83478400E5F7E5B793F72500FF
:10A89000E5F30D45F9BF7971AE8622D42A8403D53C
:10A8A00006009305E10106D636C6EFF0BF8009CD5C
:10A8B00083458500B2460356E1012285EFF01FF77C
:10A8C000B2502254456182800545DDBF13F7050271
:10A8D00001C7B2856FF0CFCE411122C426C206C691
:10A8E00093F485002A8491E413978501618763506E
:10A8F00007023285EFF04FCBAA85054691E001466D
:10A9000022852244B240924441016F20B05693F711
:10A910002500014591E30D45B24022449244410196
:10A9200082807971AE8622D42A8403D506009305ED
:10A93000E10136C606D6EFF0EFF7B24601CD83450A
:10A9400085000356E1012285EFF05FF8B2502254F2
:10A95000456182800545DDBF797126D2AA84035501
:10A96000A500C16722D44AD04ECE06D623170100D7
:10A97000FD173284B6890149630DF500050583C6CC
:10A980000400D04042051307E1004181EFF0BFB958
:10A990002A8983C60400D040894517B501001305F4
:10A9A000E56DEF905FEC1DC503D4A4002285EFF0A8
:10A9B0002FBE09C57D142A94420441806384090096
:10A9C00023908900B25022544A8592540259F24988
:10A9D0004561828083C60400D040894517B50100D7
:10A9E0001305056AEF903FE861F183C60400D0408B
:10A9F000894517B501001305A566EF90DFE619C973
:10AA0000E30609FA8357E100E39287FA0354A900A9
:10AA10007D145DB703D4A40055B7397122DC26DA62
:10AA20004AD84ED652D456D25AD062CC06DE5ECE2A
:10AA3000BE8983C785002A8AAE84C18B328C368456
:10AA40003A89C28A468B9DE783CB04008947638B92
:10AA5000FB046285EFF08FA01DC183280500638091
:10AA600008025A88D6874E87CA862286A6855285CE
:10AA7000829839A03285EFF0EF9FAA8711ED394512
:10AA8000F2506254D2544259B259225A925A025B3D
:10AA9000F24B624C216182802946A68552858297BD
:10AAA00045D5F9BFD8408347170003470700A207E1
:10AAB000D98FC2070D67C187930607906384D72299
:10AAC00063CEF60693062780638ED70C63C1F60229
:10AAD00013070780E3CFE7F62D45E39309FADC443B
:10AAE00003C60700CC432310C900228569A21307BF
:10AAF0003780E390E7F62D45E39409F88547231066
:10AB0000F900DC44814583C707002300F40003D526
:10AB1000A400050542054181EFF0CFD98357090014
:10AB20006317051291072310F9001146814513059B
:10AB300014009760FF1FE780C0C329A293062790E7
:10AB40006383D71863CED71293063790638CD718D8
:10AB500013074790E39FE7EE2D45E39309F2DC44AA
:10AB60001D472310E90003C707002300E40003C7C3
:10AB70001700A300E40003D727002301E40003D754
:10AB800027002183A301E40003C747002302E40058
:10AB900003D76700A302E40083D76700A1832303E0
:10ABA000F4004DA02D45E39D09ECDC446C0083C905
:10ABB000170003C70700A209B3E9E90011472310F2
:10ABC000E90083C707004E852300F400DC4483C7F7
:10ABD0001700A300F400EFF0EFCDAA8435C50356AB
:10ABE000C100C1659306E100FD158329C500EFF0A2
:10ABF000BFD619ED83C60400D040894517B50100C2
:10AC000013050548EF903FC601E5FD572317F100F6
:10AC100003C7090089476310F70283A54900094665
:10AC2000130544009760FF1FE78020B18357090098
:10AC300089072310F9008357E1002301F400A18361
:10AC4000A301F40001452DBD23173101EDB70347E2
:10AC500005008907BA972310F9008357A500A300C0
:10AC6000F4008357A500A1832301F40003460500E7
:10AC70004C41130534009760FF1FE78000ACD9B743
:10AC8000C8449760FF1FE780E0AF93170501C183B9
:10AC90002A871D45E3E637DF6399F9002310090091
:10ACA000CC4403560900CE9589B54207B3863A01D4
:10ACB000418363C7E600B38737412310F900CDB75E
:10ACC00023105901F1BF2D45E39C09DACC4452858C
:10ACD000EFE01FD9231079012300A4002181A300F4
:10ACE000A4008DB72D45E39D09D8DC4423107901DC
:10ACF00083C707002300F400DC4483C71700A300C8
:10AD0000F40089B75D71CAC02A89035525004EDE5B
:10AD100052DC56DA5AD85ED662D466D26AD06ECE8B
:10AD200086C6A2C4A6C22E8BEF901FC8130CF5FFD7
:10AD3000931D0C01C16BAA8A8149179AFF1F130A40
:10AD40002A0893DD0D01938C418D138DA18CFD1B81
:10AD50008357C90063F8F9009797FF1F83D7470609
:10AD600063CE8701035529009795FF1F93854505FD
:10AD7000EF605128AA841DCDD9442DA883278900CE
:10AD8000139719009305E100BA9703C4170083C70E
:10AD9000070022045D8C2285EFF0CFB1AA851DE962
:10ADA00023108B0003254A00854409C59770FF1FB7
:10ADB000E780E00DB6402644268506499644F259C0
:10ADC000625AD25A425BB25B225C925C025DF24DE7
:10ADD000616182808348490083A60C000356E1002C
:10ADE000035529006E8881476A87EFF01FC3AA8444
:10ADF00011C523108B0003254A0045BF83274A0055
:10AE000095E303552900514781465E86BD45EFD045
:10AE10005FAB9797FF1F23A7A7FA09E523108B00C5
:10AE2000C54449BF9797FF1F83D787F903D7A18CE4
:10AE30003E976347570113C7F7FF56972395E18C59
:10AE400003254A0083A50C0003D6A18C3E9597608C
:10AE5000FF1FE780808E83570A0003570D00850986
:10AE6000C209BA971797FF1F231CF7F493D909015A
:10AE7000C5B5397122DC2A840355250006DE26DAA1
:10AE80004AD84ED652D45AD05ECE62CC66CAAE8B69
:10AE900056D2EF907FB12A8A8346C4008355A4001E
:10AEA0000355840078001306D400930CBAFF651A8A
:10AEB000EFF06FE7420A416B2A898144135A0A0175
:10AEC000138C418D9799FF1F938989EF7D1B630236
:10AED000090463D094058348440083260C0003567C
:10AEE000C10003552400528881471387A18CCA856D
:10AEF000EFF0BFB215C5814A0356C1008355A400C7
:10AF00004A859306E100EFF03FA52A89639D0A0672
:10AF10005DFDE5E08357840029452390FB0081A077
:10AF20000356040183D7A18CE317F6FC83250C009C
:10AF300048489760FF1FE780408955DD83A7490097
:10AF4000A1E303552400454781465A869D45EFD02D
:10AF50005F971DE18357840045452390FB00F25025
:10AF60006254D2544259B259225A925A025BF24B5D
:10AF7000624CD24C216182809797FF1F23A4A7E4E3
:10AF8000835AA90095BF83A74900A697238057013C
:10AF9000938714001397070183A74900418393DA2D
:10AFA0008A00BA97238057011387240083A649009B
:10AFB00093873400420791044183C207C204C183CE
:10AFC000C180369711CD8356E1002300D70003A737
:10AFD0004900BA970357E10021832380E700C5BDEC
:10AFE000FD562300D70003A74900BA972380D70056
:10AFF0000DB70355240089809795FF1F938545DC85
:10B000009797FF1F239E97DAEF60C16429D95945AE
:10B01000B9B7411122C406C693F705012A843285C7
:10B0200085C3EFE07FD8AA8505462285EF2080649E
:10B0300095476305F500BD47631DF502214515A839
:10B0400093F7450099CBEFE03FD60546AA852285C8
:10B050002244B24041016F20E06193F7050489C7A3
:10B06000EFE09FD40146DDB713F515001335150049
:10B070000605B24022444101828079714AD04ECE09
:10B0800052CC06D622D426D22A8AAE89014983D749
:10B0900049006364F9000145A1A083A709001314C6
:10B0A0001900930414003387970003470700A29701
:10B0B00003C5070022079305E100598DEFE09FFFCC
:10B0C00005E983A7090005453E9403470400238052
:10B0D000E70083A70900BE9403C70400A380E7002C
:10B0E000B250225492540259F249624A4561828018
:10B0F000834585000356E1005285EFF09FF105C1BD
:10B1000083A709003E94034704002380E70083A738
:10B110000900BE9403C70400A380E700D1B7050966
:10B12000420913590901A5B7011122CC2A8403D57C
:10B1300005009305E10006CEEFE0DFF701CD834582
:10B1400085000356E1002285EFF0BFECF240624437
:10B15000056182800545DDBF397126DAAA84035571
:10B16000250006DE22DC4ED652D456D25AD05ECE10
:10B1700062CC66CA6AC82E8A4AD8EF90FF82AA8A31
:10B1800083C6C40083D5A40003D58400138CAAFF12
:10B1900078001386D400EFF00FB9420CC16CAA8975
:10B1A0000144135C0C01138BA18C938B418DFD1C0E
:10B1B000ED1A179DFF1F130DADC0638B091A0356BF
:10B1C000C10083C5890003D52400EFF09FE42A89DC
:10B1D000631B051883C8440083A60B000356C100F7
:10B1E00003D52400628881471387A18CCE85EFF0B8
:10B1F000DF822A896319051639C003D7A18C11078C
:10B200009797FF1F83D7E7BB6395E700A29763C0BB
:10B2100057099797FF1F83D7C7BA3354F40203D552
:10B2200024009795FF1F9385A5B99797FF1F239932
:10B2300087B8EF60A15F2A890DC559491DA003D5C4
:10B240002400494781466686C545EFD08FE797972A
:10B25000FF1F23A9A7B60DE583D7A90045492310F1
:10B26000FA00F25062544A85D2544259B259225AD5
:10B27000925A025BF24B624CD24C424D2161828069
:10B2800083570B0091071797FF1F231CF7B28327E3
:10B290004D0003D7A9009306E100A2972380E700A1
:10B2A000930714001397070183274D0041834E85B0
:10B2B000BA9703D7A90021832380E7000356C10072
:10B2C00083D5A400EFF04FE91307240083264D0037
:10B2D00093073400420711044183C2074204AA893C
:10B2E000C1834180369739E1FD562300D7000327FB
:10B2F0004D0083A50B00BA972380D70003254D008E
:10B3000003D6A18C22959750FF1FE78000438357F7
:10B310000B003E9442044180E31D04EE83D7840079
:10B320002310FA00E31F09F2294925BF8356E100E3
:10B3300083A50B002300D70003274D00BA970357BE
:10B34000E10021832380E70003254D0003D6A18C73
:10B3500022959750FF1FE780403E83570B003E9495
:10B360004204418099BD83D7A9002310FA006DB72C
:10B3700001495DB75D71A6C2CAC0AA8403598500A0
:10B3800003552500A2C44EDE56DA5AD85ED662D4E2
:10B3900066D26AD086C652DC6ECE2E8BEF90CFE09E
:10B3A000930BD5FF7115931905010144138DD4003A
:10B3B00093D90901138CA18C938C418D979AFF1F0F
:10B3C000938A0AA06358741583C6C40083D5A40069
:10B3D0001307E1006A864A85EFF0EF94AA8D630BAC
:10B3E00005120359A500834585000356E10003D5E6
:10B3F0002400EFF01FC26314051283C8440083A623
:10B400000C000356E10003D524004E8881471387C2
:10B41000A18CEE85EFF06FE0631305101DCC83D790
:10B42000A18C1797FF1F0357C7998907630EF7066B
:10B430009797FF1F83D7E7983354F40203D524006E
:10B440009795FF1F9385C5979797FF1F239A879618
:10B45000EF60012A05C5594515A003D524004166B2
:10B460004D4781467D16A545EFD0AFC59797FF1F85
:10B4700023AAA7941DE123102B014545B64026447D
:10B4800096440649F259625AD25A425BB25B225C38
:10B49000925C025DF24D6161828083570C008907E6
:10B4A0001797FF1F231FF79083D7A18CA29763D311
:10B4B000770783A74A0003D7AD00130A2400A29799
:10B4C0002380E70005049317040103A44A00C18305
:10B4D000420A3E9483D7AD0083A50C00135A0A019B
:10B4E000A1832300F40003A54A0003D6A18C529542
:10B4F0009750FF1FE780602403540C00C167FD17BD
:10B50000529442044180E30FF9EA050942091359B4
:10B5100009014DBD294509FC23102B0185B76DDCC0
:10B5200001BFA38CA1808280C167FD176315F50060
:10B530002E856FE06FC3411106C6EFE0EFBC11C569
:10B54000FD572310F50023010500B2404101828020
:10B5500001114AC806CE22CC26CA85472A896393A0
:10B56000F5044A85EFE08FEC39E9C1649385F4FF77
:10B570001307E100894617B601001306A6AE05457C
:10B58000EFE07FFA2A84FD140DC44C444A85EFF0A5
:10B59000BFF90356E10022858146A685EFF0CFBBB7
:10B5A0002A84DDB789476396F5008545EF20A02CF6
:10B5B0004DD9F2406244D244424905618280EFE0B5
:10B5C000EFE165B7411123AE018C23A0018E23A8C2
:10B5D000018C06C69797FF1F83C7D7A0ADCF130571
:10B5E000200C3385A7029165938515709760FF1F26
:10B5F000E780C07C23AEA18C9307200C1796FF1F19
:10B600000346569E3306F60281459750FF1FE7809A
:10B6100040169387C18D9C431797FF1F0347979C44
:10B6200081459386870B7D5563EDE5049306800B7A
:10B63000B306D7020146FD55B69723A0F18EBE860C
:10B640006360E606F9562390D70099463307D70280
:10B65000BA9723A8F18C17F5FFFF13056587EFD084
:10B660004FA017F5FFFF1305A5A2EF908FA617E5D2
:10B67000FFFF1305657CEF204017B24001454101F3
:10B6800082802394A6F41386C6F423100600232494
:10B6900006003106E31BD6FE85059386860B69B747
:10B6A0002390B600A381B6002381B6002382060052
:10B6B0000506990671B7411122C42A8406C6EF60B7
:10B6C000815DEFE0AFAC238C81809387018D88434F
:10B6D000EFE08FA9238381822244B2401705000046
:10B6E000130545E741016F20401093970501C1877D
:10B6F00063D00736797103C5818122D452CC06D636
:10B7000026D24AD04ECE2E8AEF709FB52A8421C908
:10B71000034705009307000B6310F7048547A30454
:10B72000F1009387418D9C4323150100A1E7EF00B1
:10B73000C07E9165938535709760FF1FE780006834
:10B7400023AAA18C05E98347910099C7834544004A
:10B7500013058400EFD00FDE2285EF705FA9B25091
:10B76000225421653345AA0092540259F249624A93
:10B7700045618280614681451785FF1F1305456439
:10B780009750FF1FE780E0FE0349440089479789EF
:10B79000FF1F9389E962631DF906EF000078978720
:10B7A000FF1F239FA76003552400CE85EF505159FA
:10B7B000035724009787FF1F83D787608356840031
:10B7C00011ED63E4F6002314F400835584003A85F8
:10B7D000EFD08F892285EFC0DFF6B5B763E4F600BE
:10B7E0002314F40083578400D9450D469786FF1F24
:10B7F0002398F65C9786FF1F9386865C3A85EFC098
:10B80000BFFE8D4561D91785FF1F1305655BE1A05C
:10B810009947631CF9029305A1002285EFF06FE5BB
:10B82000AA844DD9D947639BF40E0509035524001A
:10B830001379F90FD9459786FF1F938666584A8674
:10B84000EFC09FFACA8559D57DBFA1476318F9009B
:10B850009305A1002285EFF0FFB1D9B7A947631F77
:10B86000F906035584006C00EFE0DF84AA846307C7
:10B8700005160355240041669306E10055477D16E1
:10B88000AD45EFD00F849787FF1F23ADA752AA863F
:10B8900049C1834844000358E1000356C1000355E1
:10B8A0002400A68581474E87EFF02F97AA84631660
:10B8B000051003552400CE85EF507169E30C05F0A7
:10B8C00003552400CE862D46D945EFC0FFF1E30392
:10B8D00005F0AD454E85EFD0EFC5EDBDB147631521
:10B8E000F910035584006C00EFE0CFFCAA846307D5
:10B8F000050E0355240041669306E10059477D1665
:10B90000B545EFC01FFC9787FF1F23ADA74AAA8646
:10B910003DE183578400C5442315F100034714001B
:10B92000D147E309F7EA834744000355240097858C
:10B93000FF1F9385E5481787FF1F2303F7488357A9
:10B94000A1001787FF1F231EF7469787FF1F238B32
:10B950009746EF90AF9CE30F05E6035524009786CA
:10B96000FF1F9386E6450546D945EFC0FFE7E30391
:10B9700005E6854549BD834844000358E1008357E7
:10B98000A4000356C10003552400A6854E87EFF09E
:10B99000CF88AA841DE103552400CE85EF50F160C5
:10B9A000E30A05E203552400D945CE863546EFC0AB
:10B9B000BFE3B545E30005E2B9B5D9476393F400A9
:10B9C000814403A549009760FF1FE780404CE38353
:10B9D00004E0835784002315F10089B7835784005E
:10B9E00085442315F1001DBFB9476318F90093057D
:10B9F000A1002285EFF00FB125B5C1476318F9000A
:10BA00009305A1002285EFF02FF519BDC947631AF0
:10BA1000F900130691009305A1002285EFE07F9BBA
:10BA200001B5D947631DF9009305A1002285EFE018
:10BA30007F89AA84E31805DEA304010061BBE14706
:10BA4000E31AF9D89305A1002285EFE0CFF5C9BB31
:10BA500001458280E9CE011152C42E8A854522CC4F
:10BA60004EC656C206CE26CA4AC8AA8AB6893284AB
:10BA7000EF107060D14715C183C7018F83C6118F46
:10BA8000814419E0B684BE861387818E184393974C
:10BA90004400BA9763EDD400D547F2406244D244E3
:10BAA0004249B249224A924A3E85056182803E89D6
:10BAB000C10703D727FF09C7850493F4F40FD9BF43
:10BAC0002DC09565938525C0130500029760FF1F63
:10BAD000E780C02E2326A90061D11306000281450C
:10BAE000938404049750FF1FE780A0C82311990096
:10BAF000230009002313590105C81787FF1F1307E7
:10BB0000E7468347940010432304F900118C8327F0
:10BB1000C90011841180238E870023A02901814749
:10BB2000ADBF23260900E9B723044901FDB78547C6
:10BB30003E8582809387818E984383C5018F81479C
:10BB40006395F50081463685828003562700BA86C4
:10BB500019C2E30AA6FE850793F7F70F4107CDB791
:10BB60009387818E984303C6018F81476315F60042
:10BB700081463685828083552700BA8689C58345EC
:10BB80004700E388A5FE850793F7F70F4107F9BF44
:10BB90009787FF1F9387873D984383C5318F8147E0
:10BBA0006395F50081463685828003560700BA8684
:10BBB00019C2E30AA6FE850793F7F70F4107CDB731
:10BBC0009387818E9C4303C8118F01476315E8005A
:10BBD00081463685828003D62700BE8619CA03D6E1
:10BBE00067006318A600D04709C603562600E30283
:10BBF000B6FE05071377F70FC107C9BF411122C46D
:10BC0000404526C206C6AA8415C0484409C59760A7
:10BC1000FF1FE780C027484809C59760FF1FE780DE
:10BC2000002722859760FF1FE78060262685414612
:10BC300081459750FF1FE780C0B3B2402244FD57B3
:10BC4000A384F400924441018280011122CC2A8411
:10BC50000355250006CE2EC6EF10100B3246228566
:10BC60008145EF00D06722856244F24005616FF0A4
:10BC7000FFF80DC503572500411122C406C62A84CA
:10BC800011CBDD45EF00906922852244B24041018D
:10BC90006FF0DFF6B2402244410182808280411180
:10BCA00026C231479304C5FF3387E4029787FF1FFD
:10BCB0009387472C06C622C43E978356A7006397F6
:10BCC000B602484305C53E849307F00F6306F600AD
:10BCD00083470500639CC7009760FF1FE780201B18
:10BCE000B147B387F402A29723A20700B2402244CF
:10BCF000924441018280411122C42E8426C24946C9
:10BD0000AA848145228506C69750FF1FE78060A65A
:10BD1000ADC083C7C401139747009787FF1F938760
:10BD2000E7249C43BA9703D707002310E40003D706
:10BD3000270083D767002311E4001387E18E0357A0
:10BD400007002312E40003D704002313E40003D701
:10BD500024002314E40003D744002315E40003D790
:10BD600064002316E40003D784002318F40023178B
:10BD7000E400B24022449244410182809787FF1F31
:10BD80009387C71E03A807009387818E904383C5BE
:10BD9000018F014781476394E5003E858280834699
:10BDA000060081CE544691CA83C6C6019206C29649
:10BDB0006315D500850793F7F70F05071377F70F7E
:10BDC0004106D1BF130600643386C5029306950071
:10BDD000AA8517050000130505EA6F70BFB441116D
:10BDE00022C406C62A8403459500EF709FC7FD57FD
:10BDF000A304F400B240224441018280011122CC0C
:10BE00004AC84EC652C456C206CE26CA2A89AE8930
:10BE10000144138A818E9D4A83C7118F6362F404A3
:10BE2000639709029389818E130AF00F83C7018FEC
:10BE30006366F4061144A1442285050442041306F6
:10BE4000F00FCA854180EFF09FE5E31794FEF240C2
:10BE50006244D2444249B249224A924A05618280F0
:10BE600083270A0093144400BE9483C704009DC333
:10BE700083D76400639027036396590103D5240098
:10BE8000EF10806826854E868145EF005045268557
:10BE9000EFF0DFD605041374F40FBDBF83A70900CC
:10BEA00093144400BE9483C704009DC383C79400C9
:10BEB0006380470383D76400639C27012685EFF0E6
:10BEC0001FF22685D145EF0070452685EFF01FD380
:10BED00005041374F40F99BF41677917630BE502EA
:10BEE000411122C406C685472A846399F50022853C
:10BEF0002244B240814541016FF05FF0894763966B
:10BF0000F5008545EF1030177DD1B2402244410144
:10BF1000828082809D456FF07FEE03D5E18E828026
:10BF2000011106CE2317A1002316B10003C7C18E4D
:10BF300085476318F70070009305E1000545EF5051
:10BF4000A013F24005618280A947631CF60483C7F1
:10BF5000150003C70500A207D98F2310F50083C77A
:10BF6000350003C72500A207D98F2311F50083C729
:10BF7000550003C74500A207D98F2312F50083C7D8
:10BF8000750003C76500A207D98F2313F50083C787
:10BF9000950003C78500A207D98F2314F50001453A
:10BFA00082800545828091476314F60283C715009D
:10BFB00003C70500A207D98F2310F50083C73500FA
:10BFC00003C72500A207D98F2311F5000145828000
:10BFD000054582809387C5FF93960701C1820D476F
:10BFE0006360D70231473387E7029787FF1F938744
:10BFF00067F8BA972381A7002390B7000145828094
:10C000000945828013074020AA876374A70093071D
:10C010004020F1172397F18E2389B18E238AB18EA8
:10C0200082801905956542054111938535C041818E
:10C0300006C69760FF1FE78060D811C5B240E9557A
:10C0400041016F50813CB24041018280411197878C
:10C05000FF1F238FA7F0130600031785FF1F13058B
:10C0600065F1814506C62388018E2389018EA38947
:10C07000018EA388018E2386018EA386018EA38A5A
:10C08000018E2397018E23A4018E9740FF1FE78026
:10C09000406EEF1060501785FF1F0345A5F031C1BA
:10C0A0009565938545C012059760FF1FE78000D115
:10C0B0001787FF1F232CA7EA0DC59787FF1F9387BC
:10C0C00067EE83C717001786FF1F0346A6ED81455D
:10C0D000A388F18EA389C18E12069740FF1FE780C7
:10C0E00040699387118F83C707001785FF1F03459A
:10C0F00065EF95653E951375F50F2388A18E9385A1
:10C1000055C012059760FF1FE78040CB23A4A18E86
:10C1100031C103C6018F120681459740FF1FE7809A
:10C1200040659387818E984383C6018F8147250799
:10C130007D56639AF600B24017050000130505DA34
:10C1400041016F10806A85072300C70093F7F70F3E
:10C150004107C5B72388018EA388018EE9BF41112D
:10C160009397050126C206C622C4C187AE8463DE4A
:10C1700007081785FF1F0345A5DFEF706F8E2A8420
:10C1800039C903470500930700096313F704034700
:10C190001500CD476319F706034525009785FF1F56
:10C1A00083C5B5CD83C7218F93066400014601473F
:10C1B0002E886319E50219C22389F18E83C7218F66
:10C1C00081CB85451785FF1F034585DAEF70AFD119
:10C1D0002285EF70CF812165258DB24022449244A3
:10C1E0004101828003C60600B29713F6F70F9377DA
:10C1F000F80F6374B6009377F60F05071377F70F00
:10C20000890605467DB72125E1B793F7150001455D
:10C21000E9D7EF00506D19C983C7218F81CB8545C0
:10C220001785FF1F0345C5D4EF70EFCB13C514006E
:10C230006DB785462A8763FBC60483C7150003C60E
:10C240000500A207D18F2310F500639CD70083C798
:10C25000350083C62500A207D58F2311F5000145BF
:10C260008280894601456394D70283C7350083C61F
:10C270002500A207D58F2311F70083C7550083C679
:10C280004500A207D58F2312F700828005458280E2
:10C2900091476314F60283C7150003C70500A20780
:10C2A000D98F2310F50083C7350003C72500A207E7
:10C2B000D98F2311F5000145828005458280914781
:10C2C0006314F60283C7150003C70500A207D98FC0
:10C2D0002310F50083C7350003C72500A207D98FB7
:10C2E0002311F5000145828005458280A147631432
:10C2F000F60483C7150003C70500A207D98F2310D2
:10C30000F50083C7350003C72500A207D98F231185
:10C31000F50083C7550003C74500A207D98F231234
:10C32000F50083C7750003C76500A207D98F2313E3
:10C33000F50001458280054582808947631CF6002F
:10C3400083C7150003C70500A207D98F2310F50086
:10C3500001458280054582808357260079714ECE43
:10C3600006D622D426D24AD01307F007AE896372CC
:10C37000F70209473AC42316F100300093F5F50F90
:10C38000EF106017B250225492540259F24945619D
:10C39000828003574600D9462A89328463F8E60032
:10C3A0008357660063F4F6006379F70023140100F5
:10C3B000300093F5F90F4A85E1B70355060002C432
:10C3C000EFF00FFDAA8459C1EFF05F9B83C7840093
:10C3D0006369F5001146A246CE854A85EF10000735
:10C3E00055B7340026869305F00F4A85EFF08FE6A7
:10C3F00075F1A24703578400DC472390E7000357F9
:10C4000024002391E700035744002392E7000357D9
:10C4100064002393E70003D744002394E700DC443F
:10C4200085CB93F4F90F2286A6854A858297C1674A
:10C43000FD172A86E311F5FA22459947F9452300AD
:10C44000F50023029500EFF0FF972DBF094661B775
:10C45000014651B7A947631CF60483C7150003C7FB
:10C460000500A207D98F2310F50083C7350003C745
:10C470002500A207D98F2311F50083C7550003C7F4
:10C480004500A207D98F2312F50083C7750003C7A3
:10C490006500A207D98F2313F50083C7950003C752
:10C4A0008500A207D98F2314F50001458280054538
:10C4B000828083C705002300F50083C71500A30011
:10C4C000F50083C7350003C72500A207D98F2311C4
:10C4D000F50082802322050003C7450089476304D5
:10C4E000F7000545828083D665000D47E37BD7FEC4
:10C4F0009C45011106CE22CC26CA4AC84EC683C42A
:10C50000170003C60700A204D18C138644006311F0
:10C51000D60403C4370083C72700AE8922045D8C8C
:10C520009307C4FFC207C1832A89636FF70003A57D
:10C5300089002311990023108900F155EF40F16C17
:10C540002322A900014531A02285EFF0AFDE65F17D
:10C550000545F2406244D2444249B24905618280B5
:10C56000397122DC2E84834704004AD806DE26DA9D
:10C570004ED619472A89B285639AE70603462400F6
:10C580002800EFF0FFD0AA8415E903558100EFF0F1
:10C590006FDAAA898345140015C92E861717000083
:10C5A000130787E834009D454A85EF00903F4E858C
:10C5B000094681452D234E85EFF04FE4F250625439
:10C5C00026854259D254B25921618280894723106D
:10C5D000F100835781000A862311F1008357A100DF
:10C5E0002312F1004A85EF001071C9BF4947639DCE
:10C5F000E702035624002800EFF05FCFAA845DFD18
:10C600009787FF1F83D7C79799E3814445BF0347A7
:10C610001400834604003C000146CA851785FF1FAD
:10C6200003452596812659BF51476390E70203567B
:10C6300024002800EFF05F91AA8449F1834514009B
:10C6400030004A85EFF05FD195BF59476391E70607
:10C65000035624002800EFF01F95AA8425F1835586
:10C6600081004A85EFF0CFD50DC958458356A1000A
:10C6700083570700B697C207C1832310F700D1D7AD
:10C680005C47C1D783C7218FC9D385451785FF1F55
:10C690000345058EEF702F8515B789473EC0835738
:10C6A00081000A86834514002312F10025BF8345CB
:10C6B00014000A8623100100EF00F063B9B75D7122
:10C6C000A6C256DA86C6A2C4CAC04EDE52DCAA8A08
:10C6D00003C51500AE8432C6EFF08FC8B24501ED38
:10C6E0008144B6402644268506499644F259625A4A
:10C6F000D25A61618280230205002311050083C99B
:10C70000040085472A84639AF90003C62400280898
:10C71000EFF03FB2AA8405492DA09D476394F90428
:10C72000034705008D47E31DF7FA03C624002808D8
:10C730000549EFF0DFB8AA8409E505468145228561
:10C74000792E2285EFF0AFE9034584003C080147CC
:10C75000CE862686D6853924E30509F82285EFF0B2
:10C76000EFC941B7CD47639DF900034705009147E5
:10C77000E318F7F603C624002808EFF01FBC59BFE2
:10C78000D547E39FF9F4034A05008947E31AFAF411
:10C7900003C6240028080549EFF0DFCBAA8455F131
:10C7A00083570102BDE3035781011306F0035C4484
:10C7B000930607FCC206C182636CD6000356A10132
:10C7C000D94663F7C6008356C101D94563EFD5004A
:10C7D000035524002391E7000549EF00F05203566A
:10C7E0000102D2852285712CA9BF8355E1012391D5
:10C7F000E7002392C7002390B7002393D700854713
:10C800002300F400014A0149D9BF014AC9BF797127
:10C81000AA8522D426D203542500AA84280806D645
:10C82000EFF05FCBF24599E535E985452285EFF0DC
:10C830002FEFC1A0835781011547639BE70603577C
:10C84000A1018D4763FCE7046800EFF09FC6035722
:10C85000E100DD4763FCE7008345D100B70717001F
:10C860008507100822853EC8EF00F0488357E10095
:10C870000357A10191076305F7002285EFF08FE9C7
:10C880008347C10072466C00858B1106228591CFCB
:10C89000EFF0FFE201C52285EFF0CFE7884451D5E4
:10C8A0009750FF1FE780A05E49B7EFF07FCBDDB761
:10C8B00011476389E7001387A7FF42074183854635
:10C8C00063EEE6023147F117B387E7021777FF1FE0
:10C8D0001307476ABA9703D7070069D303C5270030
:10C8E0003008A2850D205DF9035781019147E31EB1
:10C8F000F7F2B25022549254456182802C0822856E
:10C90000892E49FDFDB701114AC82A89314526CA39
:10C9100006CE22CC2EC6B284EF603F9031C1B24524
:10C920009307000A2310F5002311B5002A8421463D
:10C9300011058DC0A6859740FF1FE78000E0A28506
:10C940004A85EF601F990145F2406244D244424952
:10C950000561828081459740FF1FE78080E1C5B770
:10C960000545DDB7797126D2AA841305000206D6E3
:10C9700022D42ECE32CC36CA3AC83EC6EF60FF89EA
:10C9800031C96246F2454247D246B2472A8413056E
:10C9900020FA2300A400A300C4002311B400230242
:10C9A000E400A302D40013058400614691CFBE8544
:10C9B0009740FF1FE78060D8A2852254B250268599
:10C9C000925445616F60FF9081459740FF1FE7805B
:10C9D00040DADDB7B2502254925445618280584506
:10C9E000797122D406D62A84AE8651C38357270094
:10C9F000231DF10093072006639FF5049387E18EC2
:10CA000003D60700835767006373F600B28713F6F7
:10CA1000F70F83552701834707018D8F93F7F70F92
:10CA200081E5890793F7F70FB297FD17B3C7C702E0
:10CA3000231EF100835724008355640003458400BE
:10CA4000231CF10001473C080146EFF0BFF1B25052
:10CA50002254456182800347C7019777FF1F938760
:10CA6000E7509C431207BA9783D76700D1B72EC609
:10CA70001946814528089740FF1FE78080CFB246BE
:10CA800055BF797122D406D626D22A848DC181471A
:10CA90000147930600062E868355640003458400F3
:10CAA000EFF05FECB2502254925445618280B28420
:10CAB000280059469740FF1FE780A0CB2314910020
:10CAC00089E88357240048446C002315F100EFF0F7
:10CAD0008FA23C00014793060006014675BF79719D
:10CAE00006D6814799ED8357250058452316C10086
:10CAF0002314F1003C0011C7835727002315F100D0
:10CB00003C002E868355650003458500014793064A
:10CB10000006EFF03FE5B25045618280411122C42A
:10CB200006C68347050011472A846395E7022E86CF
:10CB3000835565000345850081470147CD46EFF0E9
:10CB40007FE24946835564002244B24015454101C5
:10CB50006FF0EF9413F7B70F89466317D7000146BC
:10CB6000EFF03FF25146F9BF0D476398E7002244CA
:10CB7000B240014641016FF09FF6B24022444101AC
:10CB8000828083D705003147F1173387E702977713
:10CB9000FF1F9387273EBA97D84319EBD8412395B7
:10CBA000A7000145D8C303D725002394E70082805E
:10CBB00059458280797122D4404526D24AD006D682
:10CBC000AA842E8925C0484419C59750FF1FE780C5
:10CBD000002C232604008357040083D5640003C57A
:10CBE00084002315F1008357240001479306400673
:10CBF0002316F100835784004A862317F1001C484E
:10CC00003EC883D724002314F1003C00EFF09FD5E9
:10CC1000A30E240123280400B25022549254025936
:10CC2000456182802800314681459740FF1FE7809B
:10CC300040B483D7240083D5640003C58400231443
:10CC4000F10001473C00930640064A86EFF09FD171
:10CC5000E1B7797152CC2A8A03D5050026D206D6CF
:10CC600022D44AD04ECE56CAAE84EFE0BFEC19E1D2
:10CC7000854749A04045AA8965DC83576500E3994B
:10CC800047FF83578400638907128346C401977A5C
:10CC9000FF1F938AAA2D03A70A009206FD17369755
:10CCA000C20703576700C1832314F4006316F7001B
:10CCB00093053006EFF0BFD25C48A5EFC8400349AA
:10CCC00015008347050022093369F90083D7240042
:10CCD00013072900631AF702F955EF400173C8C022
:10CCE0002391240103C589002686D285EFF0BFC1B8
:10CCF000814721E1B250225492540259F249624ACA
:10CD0000D24A3E85456182809565938515C04A85E6
:10CD10009750FF1FE780800A48C8C840231C2401A1
:10CD2000F955EF40816E83D72400C8C0F9172391CD
:10CD3000F400484859C503D624008356A4018357FC
:10CD400084013308D60063C007090347C40183A7E1
:10CD50000A0095451207BA9783D7270063CF0705C6
:10CD6000CC4036959740FF1FE780209D0357A401D4
:10CD700083D72400BA97C20703578401C183231DB8
:10CD8000F400E397E7EE03D7290003C589003000DC
:10CD90002314E1005848D2852315F1003AC6EFF07C
:10CDA0009FB611C548489750FF1FE780400E232AC1
:10CDB0000400232C04006DBD99454E85EFE0FFE88B
:10CDC00045BDA545DDBF9145CDBF03D7250069CF42
:10CDD00083D6E18EED4763EAE60C011122CC2E8466
:10CDE00026CAAA844840914506CEEF400162835787
:10CDF0002400AA862300F50083572400A183A30002
:10CE0000F500835704002301F50083570400A18334
:10CE1000A301F50003562400C167F9171106420665
:10CE200041826396F4042AC4314532C6EF60EFBEF6
:10CE3000AA85CD471DC5930700F93246A2462300B7
:10CE4000F500F9572311F50089472302F500231354
:10CE5000C50014C51775FF1F03458511EF606FC727
:10CE60008147F2406244D2443E850561828081451B
:10CE70002685EF40802BAA8701E903C7218F75D350
:10CE80007D172389E18EF1BF09476302E5021D4743
:10CE90006301E50249476300E5027D47E313E5FCD2
:10CEA00003C7218F8147E1BFED473E858280D1478F
:10CEB0004DBF91477DB789476DB7011122CC4AC854
:10CEC00031441309C5FF330489029777FF1F938705
:10CED000670A06CE26CA3E94584031C783C6218FC2
:10CEE000BE84854795CA2314A10083578400035547
:10CEF000A4002C003AC62315F100EFF01FED11C578
:10CF000048409750FF1FE78080F8B147B307F90208
:10CF1000A69723A207008547F2406244D2444249C3
:10CF20003E85056182808147C5BF797126D244451F
:10CF30001387E18E4AD083D764000359070052CC8F
:10CF400006D622D44ECE56CA2A8A63F327013E89DA
:10CF500003D7240142091359090183D7040141CBA6
:10CF6000998F4A8463D5270113940701418089452D
:10CF70002285EFF00F8BAA89CD4A25C183D72400E3
:10CF80002AC6231581002314F10083D7240185E3E9
:10CF900083D70401930925002300F50083D70401FA
:10CFA000A183A300F5006376240503D4040183D78D
:10CFB0002401CC4422864E85BE959730FF1FE78022
:10CFC000C07703556A002C00EFF03FE0AA8A15C530
:10CFD0004E859750FF1FE78080EBB2502254568554
:10CFE00092540259F249624AD24A456182808907C5
:10CFF0008DBF7914420441805DBF03D7240183D7DC
:10D0000004003A94FD17C207420403D70401C18308
:10D0100041802390F400239984006377E400D5FFD6
:10D02000FD57A38EF40055BF81455285EFF09FB8A0
:10D030006DB701114EC683C9518F22CC52C456C25E
:10D040005AC006CE26CA4AC84E84138A818E854AA3
:10D05000130BF00F83270A0093144400BE9403C9F6
:10D06000040063175907DC44A5C7D84735C303D765
:10D07000070039C383C7218F89CF2685EFF0FFEAE8
:10D08000AA8515E5050483C7118F635FF400A38AA1
:10D09000818EF24062444A85D2444249B249224AD2
:10D0A000924A024B05618280A38A018EDDB72685F4
:10D0B000EFF05FB00149F1BF83C7D701639A670101
:10D0C000930520062685EFF09F91DC44A38E070090
:10D0D00005041374F40F83C7118F6363F4000144D4
:10D0E000E31A34F7C1BF4111154506C6EFF0FFDC66
:10D0F00009C50545B240410182801945EFF0FFDBCB
:10D100006DF91145EFF07FDB6DF51D45EFF0FFDAAE
:10D110006DF103C5118F79DDB24041016FF07FF1F0
:10D1200083D705000D47F117C207C1836361F70676
:10D13000DC41B1CF411122C42E84854526C206C6EA
:10D14000AA84152F39C52685A925C167F917638FCC
:10D15000F40009ED8357240091CB8356040019474E
:10D16000639FE60203D7E18E63FBE70283C7218F4B
:10D17000A285268599C72244B240924441016FF0AE
:10D18000DFC42244B240924441016FF09F9F0945A1
:10D1900082805145B24022449244410182806D45D3
:10D1A000D5BF397126DA4ED6AA84AE895D45894548
:10D1B0004AD806DE22DC328936C63AC4EFE07FE682
:10D1C00025C522472A84014511C7B24613054400EC
:10D1D000B68502979357850023003401A3002401EC
:10D1E0002301A400A301F40011059547231DA1000C
:10D1F000231CF10022CE83C7218F2C08268595C3DE
:10D20000EFF0BFBCAA8411C522859750FF1FE780AD
:10D2100000C8F250625426854259D254B259216155
:10D220008280EFF01F96F9BFCD44E5B7797126D221
:10D230004AD052CC56CA06D6BA8A22D44ECE194704
:10D240002E89B284368A6394E50603552600094484
:10D25000EFE05F8E2AC625C55C458359650083D7FC
:10D2600027002390F400B24715472380570103C6D7
:10D27000D18E93061600A386D18E2391E7002382D8
:10D28000C700D1466319D9002391E400DC4703D7D6
:10D2900084002394E7005287A686CA854E85EFF066
:10D2A0005FF02A84324515C4EFE05F9509A84286F5
:10D2B0007400BE85AA89EFE0EFF92A844DD5228556
:10D2C000B250225492540259F249624AD24A4561FC
:10D2D0008280F945EFE01FAFDDB783D7050023005B
:10D2E000F50083D70500A183A300F50083D72500AF
:10D2F0002301F50083D72500A183A301F500114583
:10D30000828083D705002300F50083D70500A18321
:10D31000A300F50083D725002301F50083D725005E
:10D32000A183A301F50083D745002302F50083D72D
:10D330004500A183A302F50083D765002303F50010
:10D3400083D76500A183A303F5002145828083D79D
:10D3500005002300F50083D70500A183A300F50095
:10D360000945828083D705002300F50083D7050097
:10D37000A183A300F50083D725002301F50083D7FF
:10D380002500A183A301F50083D745002302F50002
:10D3900083D74500A183A302F50083D7650023034B
:10D3A000F50083D76500A183A303F50083D785002B
:10D3B0002304F50083D78500A183A304F500294544
:10D3C000828003D705008546AA872300E50003D79E
:10D3D00005002183A300E50003D70500631DD700E6
:10D3E00003D725002301E50003D725002183A301EE
:10D3F000E5001145828009456315A70203D7250082
:10D4000019452381E70003D725002183A381E70085
:10D4100003D745002382E70003D745002183A38279
:10D42000E700828083D705002300F50083D705003D
:10D43000A183A300F50083D725002301F50083D73E
:10D440002500A183A301F50011458280797126D2C0
:10D450004AD04ECEB2842A89AE89294681454800F9
:10D4600022D406D636849730FF1FE78080302316FB
:10D47000910095EC835724002312F1009387E18EED
:10D4800083D707002314F1005C4495C383C6C7010A
:10D490001777FF1F130787AD1843920683D78700BE
:10D4A0003697035727002315F1002313E1004A851F
:10D4B00017070000130747EB540013F6F90FD54583
:10D4C000EFF03FCE2A8911C19DE085472300F4008B
:10D4D00023020400014681452285EFF08FDAB25025
:10D4E00022544A8592540259F2494561828022852C
:10D4F000EFE0CFF0EDB7B286170700001307A7ECF7
:10D500002E8685456FF0FFC901112317A1004165E3
:10D51000700001489307F00F0D47970600009386AF
:10D5200006DC99457D1506CEEFF05FD0F24005612F
:10D530008280B28701482E861147970600009386A5
:10D5400086DCC9456FF09FCEB2861707000013072F
:10D5500047E02E86CD456FF0DFC4011122CC26CAEC
:10D560004AC84EC606CE2A89AE891774FF1F130417
:10D57000E4A39774FF1F938464A61C4081C7CE85E3
:10D580004A8582971104E31A94FEF2406244D24421
:10D590004249B249056182801775FF1F0345758EA8
:10D5A0009377350009811777FF1FA30DF7A2AA977C
:10D5B0001777FF1F2308F7A2D9C31305C0033385CC
:10D5C000A702A5654111850506C69740FF1FE780A4
:10D5D000E07E9777FF1F23A9A79C9307C0031776C8
:10D5E000FF1F034626A03306F60281459730FF1F32
:10D5F000E78020189777FF1F9387079B9C439776B8
:10D60000FF1F83C6269E014789077D56634FD700BB
:10D61000B2401306000381451775FF1F13050599D6
:10D6200041011733FF1F6700C3142390C7002381F4
:10D63000070023A5070205079387C703C1BF8280A0
:10D640009777FF1F9387479698431776FF1F0346E8
:10D65000669981476315F600814636858280BA86D1
:10D660001307C703835567FCE389A5FE850793F776
:10D67000F70FCDB7011122CC2EC632C406CE2A84B4
:10D68000EFF01FFC2246B24511E9C167F9176303A9
:10D69000F4005145F240624405618280545583474D
:10D6A000450095C213F7270141456314A7001545AE
:10D6B00075F2C18B3D45F9DF83C7A6010145E3FB48
:10D6C000B7FC3145C1BFC18B0145E9F71545D9B755
:10D6D000797126D2C16422D44AD04ECE52CC56CAD9
:10D6E00006D62A8901449779FF1F9389E98B130A8B
:10D6F000C003FD14854A9777FF1F83C7A78E636415
:10D70000F400014535A8B307440303A70900BA97FD
:10D7100003D727006316970005041374F40FE1BFC5
:10D7200003C55700300093856700EF207144194608
:10D73000CA8528009730FF1FE7802009E31E55FDAA
:10D74000B250225492540259F249624AD24A456177
:10D7500082809777FF1F93872785C16698439775C7
:10D76000FF1F83C525888147FD166395F500014697
:10D7700032858280035827003A866306D800034822
:10D780000700E307A8FE850793F7F70F1307C70302
:10D79000E9BF411106C6EFF0BFEA11C503554501C7
:10D7A000B240410182800145E5BF9767FF1F938723
:10D7B000A77F98439776FF1F83C6C68281471107CC
:10D7C00001456393F60082800346070001C6050504
:10D7D0001375F50F850793F7F70F1307C703D5B731
:10D7E0001775FF1F0345058082801767FF1F13070A
:10D7F000E77B8147BA8631460C4391E58A07B697A5
:10D8000088C30145828085071107E397C7FE4D4510
:10D810008280411106C622C4EFF09FE21DCD2A840A
:10D82000035525008545EFF05FD3485409C597405F
:10D83000FF1FE780C06522851306C003814597302E
:10D84000FF1FE78000F3FD572311F40023020400BB
:10D850000145B2402244410182800945DDBF4111AA
:10D8600006C6EFF0FFDD11C50345C500B24041011A
:10D8700082800145E5BFC167F9176304F5024111D4
:10D8800022C406C62E84EFF0BFDBAA87014591C7EC
:10D8900003C54700698C33358000B2402244410102
:10D8A000828005458280011106CE2EC6EFF05FD939
:10D8B000854711C903574501B24585476305B70040
:10D8C000231AB5008147F2403E850561828021CD53
:10D8D00001114AC8416922CC26CA4EC652C406CE9E
:10D8E0000144AA849769FF1F9389096C130AC00336
:10D8F0007D199767FF1F83C7E76E634AF400F24004
:10D900006244D2444249B249224A056182803305C9
:10D91000440383A709003E958357250063832701AD
:10D9200082940504F9B782809767FF1F9387C767C2
:10D9300094431766FF1F0346E66A01479106814735
:10D940006310E602858393C7F7FFC207C1830545CD
:10D950006364E50285473395A700420541818280D3
:10D9600083C5060081C583D5C602CD8F0507137711
:10D97000F70F9386C603E9B793F61700E1FE050596
:10D9800085831375F50FE9B7797156CAAA8A2E8572
:10D9900026D24AD04ECE52CC5AC85EC662C406D6F3
:10D9A00022D4AE84328B368CBA8B3E8AC2894689A9
:10D9B000EFF01FC949E141657D15EFF07FC82A846A
:10D9C000554531CC1946DE8513056400A302840158
:10D9D0009730FF1FE78060D683570103231194001F
:10D9E000230264012319F4008357410323005401E7
:10D9F00023260402231AF4002306440123173401CA
:10DA000023182401EFF05FF22318A402232A040252
:10DA10002685232C04028145EFF03FB40145B25026
:10DA2000225492540259F249624AD24A424BB24BB2
:10DA3000224C456182804545DDB79767FF1F93877C
:10DA4000A75698439766FF1F83C6C65981476395BB
:10DA5000F60041657D1582803A861307C70383551A
:10DA600047FF6395A500035526008280850793F73D
:10DA7000F70FF1BF9767FF1F9387075341669843DE
:10DA80001768FF1F0348085681477D1685482D43B8
:10DA9000314E6314F80001458280835627003A8591
:10DAA0006382C602545B99CE83C506006397150155
:10DAB00083C616006378DE00828089E583C616007F
:10DAC000E37CD3FC850793F7F70F1307C703D1B7A0
:10DAD0009767FF1F9387474D416698439765FF1FE0
:10DAE00083C5455081477D1625486394F50001455F
:10DAF0008280835627003A85638BC600545B81CAB7
:10DB000083C61600E51693F6F60FE373D8FE850775
:10DB100093F7F70F1307C703C9BF894791C909C90D
:10DB200095472380F50083470500A380F5008147D2
:10DB30003E85828039714ED652D4AE892A8A9305A9
:10DB40003005414526DA4AD856D206DE22DC32C6F6
:10DB50003689BA8A9740FF1FE7804026CD4431C9F5
:10DB60002A8489446382090432468145231AC1000C
:10DB700041469730FF1FE780C0BF5686CE8522857D
:10DB80009730FF1FE78060BB2146630E0902CA85FC
:10DB900028089730FF1FE78040BAA28650082C085B
:10DBA0005285EF30E050AA8422859740FF1FE7801E
:10DBB000002EF250625426854259D254B259225A4C
:10DBC000925A21618280814528089730FF1FE780A3
:10DBD00040BAE1B789478DC505C5411106C6AE8774
:10DBE0001947AA852380E70013851700414697301F
:10DBF000FF1FE78080B4B24081473E8541018280AB
:10DC00003E858280894795C90DC9411106C62547C1
:10DC10002380E50003470500AE871946A380E50091
:10DC200093051500138527009730FF1FE780E0B0AC
:10DC3000B24081473E85410182803E85828089478E
:10DC40008DC505C5411106C6AE872147AA8523802B
:10DC5000E7001385170041469730FF1FE780E0ADCE
:10DC6000B24081473E85410182803E85828089475E
:10DC70009DCD15CD411106C61D472380E5000357F4
:10DC80000500AE872146A380E500035705002183E8
:10DC90002381E50093052500138537009730FF1F8A
:10DCA000E780A0A9B24081473E85410182803E8540
:10DCB000828089478DC505C5411106C6AE870D47CF
:10DCC000AA852380E7001385170041469730FF1F80
:10DCD000E780A0A6B24081473E85410182803E8513
:10DCE000828089478DC505C5411106C6AE8711479B
:10DCF000AA852380E7001385170041469730FF1F50
:10DD0000E780A0A3B24081473E85410182803E85E5
:10DD1000828089478DC505C5411106C6AE87294752
:10DD2000AA852380E7001385170041469730FF1F1F
:10DD3000E780A0A0B24081473E85410182803E85B8
:10DD4000828023AC018E23AE018E23A001909747E1
:10DD5000FF1F93876735171700001307C76398C322
:10DD60001707000013070747D8C31707000013075A
:10DD7000A7DC98C79747FF1F9387C7331727000073
:10DD80001307E7D698C31707000013078761D8C3A6
:10DD9000171700001307A7E598C78280C14709CD70
:10DDA000144DC14791CA784D01CB83C73600BD469B
:10DDB00063F4F600834787013E858280411122C4C7
:10DDC0001384818F4AC02A89084006C626C241C5ED
:10DDD000A284631E0900834705002146B1CB2905B3
:10DDE0009730FF1FE78060959C400545B9CF4945B6
:10DDF000EF50AFC22A840DC5930710FC2300F50035
:10DE0000A30025018C400905414689059730FF1F75
:10DE1000E780A0929C40A28503C51700EF506FCB0E
:10DE200088409740FF1FE780800623AC018E29A819
:10DE300009059730FF1FE7804090EF302027054904
:10DE400045F51C40238027010545B24022449244F9
:10DE50000249410182800145CDBF1C4D639F0716D9
:10DE6000411122C426C22A84AE844145930530055F
:10DE700006C69740FF1FE78060F408CCCD476304D7
:10DE80000510A68541469730FF1FE780008B83452C
:10DE90000400F9ED7C4C184CD04B5443058A858A1C
:10DEA0006307D60083D64701F99A239AD700D04B4F
:10DEB000544305828582058A858A6307D60083D606
:10DEC0004701F59A239AD700D04B5443098289829F
:10DED000058A858A6307D60083D64701ED9A239A7F
:10DEE000D700D04B54430D828D82058A858A630703
:10DEF000D60083D64701DD9A239AD700D04B5443EE
:10DF00002182A182058A858A6308D60083D64701CB
:10DF100093F6F6EF239AD700D04B54432582A5827F
:10DF2000058A858A6308D60083D6470193F6F6DF13
:10DF3000239AD700D04B54432982A982058A858A27
:10DF40006308D60083D6470193F6F6BF239AD7001D
:10DF5000D44B5843AD822D83858A058B638AE600B6
:10DF600003D74701FD769386F67F758F239AE700E6
:10DF700003C714007C4C11CF03C7170019CB95477A
:10DF8000A301F4008147B240224492443E854101FE
:10DF9000828003C72400118B19E703C72701118B67
:10DFA00019E38547F1BF03C7070083C6040081C595
:10DFB000B687BA863E871146E147E366E6FCE3642E
:10DFC000D6FC95473307F70297870100938787B7F9
:10DFD0003E9736978347070065B7C5473E858280E1
:10DFE000AE8715C5784D05C7834607002380D50049
:10DFF00083461700A380D500834627012381D500DF
:10E0000083468701584BA381D500D8C18280414601
:10E0100081453E851723FF1F6700A3759387C18F36
:10E020009C4391C703A38700630303000283094550
:10E030008280011122CC2A84494506CEEF70DFC4CC
:10E0400015C12AC62285EFF0AFDF09CD6244324602
:10E0500083550503F2401765FF1F034555F8056119
:10E060006F506FFAF240624405618280797126D266
:10E070009947231DB100AA842E858D4522D406D64A
:10E0800032C636C4231CF100EFD0BFF92ACE4D446E
:10E090001DC13246A246AA85328582962A8419E598
:10E0A0002C082685EFF0CF872A8411C5724597404A
:10E0B000FF1FE780C0DD2685EFF0BFF72285B25055
:10E0C0002254925445618280011122CC9305C501EE
:10E0D0002A8441460A8506CE9720FF1FE780E06527
:10E0E000035544000A86970600009386C6BCC545C2
:10E0F000EFF0DFF7F240624405618280011122CC2B
:10E100009305C5022A8441460A8506CE9720FF1F43
:10E11000E780A062035544000A86970600009386B4
:10E1200086BCC545EFF09FF4F240624405618280F1
:10E130002E8697060000938626AAC5456FF01FF32A
:10E140000111B28722CC2300B1002A84BE851305B9
:10E150001100194606CE9720FF1FE780005E0A8651
:10E16000228597060000938626AAA145EFF01FF0AE
:10E17000F2406244056182802E86970600009386F5
:10E1800046ACC5456FF09FEE0111B28722CC23103B
:10E19000B1002A84BE8513052100214606CE9720B2
:10E1A000FF1FE78080590A86228597060000938624
:10E1B00046ACAD45EFF09FEBF240624405618280D2
:10E1C0002E8697060000938606B5C5456FF01FEAB8
:10E1D000011106CE22CC26CA834405008547639BE5
:10E1E000F4048347150019472A84639AE7041C4DF9
:10E1F00083D7470013F7071019C7784D0357470116
:10E200001377071021E313F7072001CB784C03574E
:10E21000470113770720631B071093F7074081CB53
:10E220007C4C83D7470193F7074063920716C94791
:10E23000A300F400F2406244D24405618280314779
:10E240006398E70A3C5085E3930530057145974094
:10E25000FF1FE780A0B628D019C5714681459720D9
:10E26000FF1FE78000512450B9C883C7A40191E77C
:10E270002285EFF0BFB2238DA4008145268541465B
:10E280009720FF1FE780E04E28503D478345A501BA
:10E290009387F5FF93F7F70F6364F700EF60FFE3F1
:10E2A000EF506F9C3C50A1452398A7001385270190
:10E2B000EF60BFE22C5003554400EFF07FE7B54715
:10E2C00003554400A300F400EFF08FB7414611C599
:10E2D0008357E50013D617003E966244F240D244BD
:10E2E0001765FF1F0345B5CF854505616F50AFD159
:10E2F0003547639AE7023C5189CB83D50701035523
:10E30000450013862701EFF03FE81C4C83D74700F8
:10E3100013F7072039CB784C0357470113770720B1
:10E3200029C7B94771BF3947639BE700EF704F8C2E
:10E33000AA8503554400EFF03FE4BD4751B73D4780
:10E340006394E704EF702F8AAA85630D95028145D7
:10E3500026852EC6EF70EF862A86B2450355440007
:10E36000EFF01FDE1C4C83D7470093F70740E38094
:10E3700007EC7C4C83D7470193F70740E38907EA12
:10E38000C1473DBF8144E9B74147E392E7EAEF70F7
:10E39000EF86AA8503554400EFF09FE249BD7971ED
:10E3A00006D622D426D283440500A5E4834715006F
:10E3B00019472A846394E7067C4D83D7470113F7F6
:10E3C000170011C7184D03574700058B39EB13F79A
:10E3D000270019C7184C03574700098B631507140A
:10E3E000918B99C71C4C83D74700918B639C07186E
:10E3F0007C4C83D7470113F70710630D0718184C9F
:10E40000035747001377071063060718B147A300A7
:10E41000F400B25022549254456182801D476397A4
:10E42000E70C3C5089EB9305300571459740FF1F81
:10E43000E780C09828D02450C9C02285EFF01F96ED
:10E44000238DA4008145268541469720FF1FE78044
:10E45000403228503D478345A5019387F5FF93F748
:10E46000F70F636DF7029767FF1F83C717C1A5CF2B
:10E470004146814508089720FF1FE780802F1946F5
:10E480009765FF1F938585A408089720FF1FE780E5
:10E49000C02A30500C082E85EFC05067EF40BFFCFB
:10E4A0003C50A1452398A70013852701EF60FFC2C8
:10E4B0002C5003554400EFF0BFC7A147035544005B
:10E4C000A300F400EFF0CF97414611C58357E50054
:10E4D00013D617003E9685451765FF1F034535B0D7
:10E4E000EF506FB23DB7EF605FBF4DBF21476399FB
:10E4F000E7023C5189CB83D50701035545001386BC
:10E500002701EFF07FC87C4C83D7470113F7270022
:10E5100021CF184C03574700098B39C7A54779BF4E
:10E520002547639BE700EF60BFECAA8503554400D5
:10E53000EFF09FC4A94759B729476392E704EF60FA
:10E540009FEA8547AA856304F500814585442685B1
:10E550002EC6EF601FE72A86B24503554400EFF050
:10E560003FBE7C4C83D74701918BE38307E81C4C6B
:10E5700083D74700918BE38D07E6AD4781B72D47E1
:10E58000E398E7E6EF609FE7AA8503554400EFF0C4
:10E590003FC3B9BD13F7072009CB184C03574700F9
:10E5A0001377072019C3B9479DB593F7074089CB67
:10E5B0001C4C83D7470093F7074099C3C14781BDDF
:10E5C000C947B1B50DCD01118A8522CC06CE2A846A
:10E5D000EFF01FA183470400035544009716000085
:10E5E000938666BB89E797160000938666BB0A860A
:10E5F0009D45EFF0BFA7F24062440561828005456A
:10E600008280AA851765FF1F0345759D6F506FC0F7
:10E61000411122C4405926C206C6AA8431C4084CFE
:10E6200009C59740FF1FE7808086285009C597409D
:10E63000FF1FE780C085685009C59740FF1FE7802E
:10E640000085285409C59740FF1FE780408468541F
:10E6500009C59740FF1FE780808322859740FF1FF1
:10E66000E780E08223AA0402224403D50403B240D7
:10E67000924441016FF0FFF8411126C206C622C440
:10E68000AE84EFE0FFFB21C54C592A84A9C183A8C1
:10E69000C50603A88506FC51B85183C6650003D69C
:10E6A000450083C505002685EF702FE62285EFF033
:10E6B0003FF6EFF0EFC101CD2244B240924417651E
:10E6C000FF1F0345D591854541016F50CF81B24071
:10E6D0002244924441018280411122C4405926C201
:10E6E00006C67C4CAA8483D7470113F7071019C7C5
:10E6F000184C03574700137707101DE313F7072043
:10E7000019C7184C035747001377072011EB93F7ED
:10E7100007409DCB1C4C83D7470093F707408DC71C
:10E720009947A300F4002285EFF09FAA0347140045
:10E73000C947631FF700224403D52400B240924426
:10E74000814541016FF05FF3C947A300F400E5B7CD
:10E75000B2402244924441018280411106C622C443
:10E7600026C2EFF02FB121C14059AA840DCC8347B6
:10E7700004009DC79387C18F9C4389C7DC4399C31D
:10E780002285829703471400C947631EF70022447D
:10E7900003D52400B2409244814541016FF0DFED82
:10E7A00093870190D1BFB2402244924441018280BC
:10E7B000411126C24AC006C622C4AA842E89EFE0AF
:10E7C0003FE80DCD40595DC0835744006390970AE0
:10E7D0008347140019476392E70883470400BDCBC1
:10E7E0007C4C83D7470113F7170005C3184C035718
:10E7F0004700058B19CB9D47A300F400B24022448B
:10E800009244024905454101828013F7270001CB5C
:10E81000184C03574700098B19C3A547F1BF918BCB
:10E8200081CB1C4C83D74700918B99C3AD47E9B787
:10E830009387C18F9C43F9D3DC43E9D32285829728
:10E8400003471400C9478145E31AF7FA2685EFF01C
:10E85000BFE26DB793870190F1BF45476398E7002A
:10E860006304090013092003CA85CDB7631C09009E
:10E870002685EFE0FFDC19C58347450093E70701D4
:10E880002302F500A6854A85EF605FDC85BF411154
:10E8900022C42E862E8497F6FFFF9386462889454C
:10E8A00006C626C24AC02A89EFF04FFC8345040001
:10E8B000AA844A85EFF05FDCB240224426850249F3
:10E8C000924441018280938701909C4395CB9C4365
:10E8D00085CB797122D406D6984110082A843AC88B
:10E8E000D84185453ACA829701C92306A10003553C
:10E8F00024006C00EFF0BFF9B250225445618280D1
:10E900008280011122CC06CE2A842EC6EFE05FD38E
:10E910005C5991CF83D74700B245639A87008547FA
:10E920006397F5006244F24005616FF07FCEF240DC
:10E93000624405618280411106C6EFF00F90C16705
:10E94000FD176307F500B240DD4541016FF0DFD2EE
:10E95000B240410182802300B5008280011126CAA5
:10E960004EC6AE84AA8993053005130500034AC834
:10E9700006CE22CC32899730FF1FE78020442DC578
:10E980001306000381452A849720FF1FE78060DE7D
:10E990004146CE8522859720FF1FE780E0E5A685CA
:10E9A0000D461305D4019720FF1FE780E0E413060E
:10E9B0000402930504012285EFC05015AA840D4678
:10E9C0009305D4024A859720FF1FE780E0E2228565
:10E9D0009730FF1FE780A04BF240624426854249F2
:10E9E000D244B24905618280CD44FDB7814741469A
:10E9F000B306F5003387F5000347070003C8060098
:10EA00008507334707012380E600E393C7FE828032
:10EA10005D714EDE62D4AE892A8C930530051305F4
:10EA20000003A6C2CAC052DC56DA5AD85ED686C6E1
:10EA3000A2C4B28B368BBA84BE8A4289468A97308A
:10EA4000FF1FE780A037630505101306000381450B
:10EA50002A849720FF1FE780C0D14146E2852285A6
:10EA60009720FF1FE78040D9414681450A859720BE
:10EA7000FF1FE78000D01D46DE850A859720FF1F17
:10EA8000E78080D71D46DA85130571009720FF1FA8
:10EA9000E78080D633392001B33490004146814568
:10EAA000080823072101A30791009720FF1FE78093
:10EAB00040CC1946D68548089720FF1FE780C0D371
:10EAC0001946D2851305A1019720FF1FE780C0D208
:10EAD000930404014146CE8526859720FF1FE780D9
:10EAE000A0D18A852685EFF07FF0930904024E8637
:10EAF000A6852285EFC090012A890DE94146CE8581
:10EB000026859720FF1FE78040C30C082685EFF07D
:10EB1000FFED4E86A6852285EFC0407F2A894645B7
:10EB20004146CE859720FF1FE78000CD2285973094
:10EB3000FF1FE780C035B64026444A859644064903
:10EB4000F259625AD25A425BB25B225C61618280A6
:10EB50004D49D5B7011126CA52C4AA842E8A13057D
:10EB60000003930530054AC84EC606CE22CC328932
:10EB7000B6899730FF1FE780602435C52A84A685B3
:10EB800041469720FF1FE78020C7930404012146D8
:10EB9000D28526859720FF1FE78000C6CA852146BB
:10EBA000130584019720FF1FE78000C513090402A5
:10EBB000A6854A862285EFC06075AA844146CA852B
:10EBC0004E859720FF1FE78020C322859730FF1FC7
:10EBD000E780E02BF240624426854249D244B249A4
:10EBE000224A05618280CD44F5B75D71A2C4A6C2F8
:10EBF0004EDE52DC86C6CAC0AE89328AAA84EFE0F5
:10EC00003FA44059414681450A859720FF1FE78070
:10EC100040B641CC03594400631999088347040066
:10EC2000C9E70347140099476313F7041408130650
:10EC3000C4049305C40213057400EFF0BFF135E579
:10EC40002285EFF0AF952A860C080A859720FF1FD2
:10EC5000E780A0AE8A854A85EF2080460545B6400C
:10EC6000264496440649F259625A616182802C50CA
:10EC70008DCDC54683D70501631FD7086312FA02FD
:10EC80002146C9054E859720FF1FE78000B48547C0
:10EC90006318F5002285EFF06F902A862C5075B727
:10ECA000930520032685EFF03F9D2685EFE05F99D1
:10ECB0002A8451C14C55C1C183D70501639D4707C3
:10ECC0002146C9054E859720FF1FE78000B0854784
:10ECD0002A896312F5064C540A8503C6A5019720BC
:10ECE000FF1FE78080A583C7918391C75C5483C7CA
:10ECF000B701639D270FBD452685EF20E036975766
:10ED0000FF1F9387A7169C5B0145B1DB1D45894515
:10ED100082970145A9B7E31AFAF82146C9054E853D
:10ED20009720FF1FE78060AA8547E310F5F82C5075
:10ED300003C6A50119BF9757FF1F9387273403C741
:10ED400007009759FF1F938969123E89058B31C3CC
:10ED5000034754009757FF1F83C7C731631BF70250
:10ED600019469755FF1F9385F530130564009720CA
:10ED7000FF1FE78080A58547631DF50083A7090372
:10ED800081C791451D458297BD452685EF20C02D41
:10ED9000F1B51757FF1F0347572E83A7090331CB40
:10EDA00003470900098B09CB81C795451D4582970B
:10EDB0002685EF2020315DB581C78D451D458297A1
:10EDC0004146814508109720FF1FE780809A194629
:10EDD0009755FF1F9385850F08109720FF1FE78029
:10EDE000C0950C100A862E85EFC040528A85268574
:10EDF000A5B58545C5FF6DBF8147C1463307F50001
:10EE0000B388F5000347070083C808003308F600FD
:10EE10008507334717012300E800E391D7FE82807E
:10EE20000147BD471308F00F3306F500834606007F
:10EE3000B388F500FD178606558F2380E800034749
:10EE4000060093F7F70F1D83E39007FF8280814749
:10EE5000930800F8414893F6F70F3387F50063FCF9
:10EE6000C600B306F50083C606002300D700850759
:10EE7000E39307FF82806395C60023001701C5BF97
:10EE800023000700EDB701114AC856C22E89AA8A8D
:10EE900093053005414506CE22CC26CA4EC652C443
:10EEA000328A9730FF1FE78060F1AA84930530050E
:10EEB00041459730FF1FE78060F02A84CD49A5C403
:10EEC00031CD414681459720FF1FE780808A268605
:10EED000A2855685EFC08043AA8929E18387040073
:10EEE00063D30706A2852685EFF09FF34A869775C0
:10EEF00001009385E5C62285EFF01FF08307090026
:10EF000063D80704A2854A85EFF09FF15286977572
:10EF100001009385E5C42285EFF01FEE268597302A
:10EF2000FF1FE780C0F611C422859730FF1FE780DE
:10EF300000F6F24062444E85D2444249B249224A28
:10EF4000924A05618280CA852685EFF07FED7DB704
:10EF5000D2854A85EFF0DFECD1B739715AD05ECE59
:10EF60002A8BAE8B41459305300506DE26DA52D456
:10EF700056D262CC66CA6AC8368C328DBA8C22DC14
:10EF80004AD84ED69730FF1FE78040E3AA8A930500
:10EF9000300541459730FF1FE78040E22A8ACD4483
:10EFA000638E0A0859C52A86D6855A85EFF0BFEDCB
:10EFB000AA8441E19305300541459730FF1FE78062
:10EFC000E0DF2A899305300541459730FF1FE78030
:10EFD000E0DEAA89630A090E6306050E1304FD002C
:10EFE00011841376FD0049C07D144204418035EE42
:10EFF000131544004E86D6855E95EFF0FFDF41463F
:10F0000081454A859710FF1FE780A076014D931731
:10F010000D01C18363F48708BDC04A859730FF1F87
:10F02000E780E0E6638709004E859730FF1FE780A1
:10F0300000E656859730FF1FE78060E563070A000A
:10F0400052859730FF1FE78080E4F2506254268596
:10F050004259D254B259225A925A025BF24B624C34
:10F06000D24C424D216182800144131544008A85AF
:10F070005E95EFF0DFDD4E86D2850A85BDBF931524
:10F080004D000A86DE954A85EFF01FD74A868A85AD
:10F090005A85EFC0A027AA84050D95BFBDFC0A863E
:10F0A000CE854A85EFF05FD54A868A855A85EFC0BE
:10F0B000E025AA846686CA8562859710FF1FE780CF
:10F0C000C067A1BFCD4491BFCD44A9BF894761C2EC
:10F0D000DDCD2300A60083C70500A300F60083C78B
:10F0E00015002301F60083C72500A301F60083C79E
:10F0F0003500A30206002302F60083D74500A18352
:10F10000858BA302F60003D745001377072009C7B4
:10F1100093E72700A302F60083D7450093F7074043
:10F1200099C78347560093E74700A302F60083D7A9
:10F13000450013974701635807008347560093E73C
:10F140008700A302F6002303060083C74500858BD2
:10F150002303F60003D74500098B09C793E727006F
:10F160002303F60083D74500918B99C78347660038
:10F1700093E747002303F60003D745008147218B1F
:10F1800019C703476600136787002303E6003E851F
:10F1900082802E86AA8505456FF05FF32E86AA85AC
:10F1A00009456FF0BFF24DC95971A2D42A840355A5
:10F1B0004500A6D2CAD0CECED6CA86D6D2CCDAC820
:10F1C000DEC6B68AB2892E89EFE08FC7AA8439C518
:10F1D0000C182285EFE0DFE083470400138A640007
:10F1E000A9CBEF604FA02A8B014583CB5400EF6081
:10F1F0004F9DAA840C100818EFF0BFF9084C2C1092
:10F20000EFF0DFF9D288268A56C05E88D2875A8707
:10F2100014103010CE854A85EFF08FFFB65026547B
:10F2200096540659F649664AD64A464BB64B65612E
:10F230008280EF604F9BAA8B014503CB5400EF60A7
:10F240004F982ACE084C0C10EFF0BFF42C10081881
:10F25000EFF0DFF4F2484DBF8280894791C909C9B8
:10F26000AD472380F50083470500A380F500814763
:10F270003E858280011122CC4AC806CE26CA2A8445
:10F28000EFE0BFBD2A8901CDE1476302F5102149B6
:10F29000F24062444A85D2444249056182807C4CF6
:10F2A00083C72701858B91CF1C4C054783C7270057
:10F2B0008D8B6398E7008347640093E7170023036F
:10F2C000F4008344340089476391F40203554400F9
:10F2D0008545EF605FBC8347640093E747002303E5
:10F2E000F4008D47A300F40065B70D476390E40276
:10F2F000035544008945EF601FBA83476400A300AB
:10F30000940093E747002303F40059B71147E38FB4
:10F31000E4FA05476390E40493047400A300F40046
:10F320004146814526859710FF1FE78080441306DC
:10F33000C4023285C14532C6EF503FDA32462285DB
:10F340009306C401A685EFF01FE62285EFE0DFD724
:10F3500021D135BF1547E39DE4F293047400A30067
:10F36000F4004146814526859710FF1FE7806040E5
:10F370006C4C4146268589059710FF1FE780E03BCE
:10F380008347640093E747002303F4004DB70D491A
:10F3900001B7397122DC405926DA4AD84ED606DE4A
:10F3A000AA89AE8432896309042003552500835756
:10F3B0004400638BA700A144F25062542685425951
:10F3C000D254B259216182808347040099E39D445D
:10F3D000E5B7AD47E3EDB7FE9387E5FF93F7F70F8A
:10F3E0002547E366F7FE176701001307E76D8A07F5
:10F3F000BA979C43BA978287B2852285EFF09FE740
:10F40000AA845DBF4146CA851305C4039710FF1F38
:10F41000E780A0322285EFE07FCEAA8411C1A1440B
:10F420009547A300F40049BF9309C404CA85414627
:10F430004E859710FF1FE7804030130974001408B1
:10F440004E86CA852285EFF01FD641469305C40338
:10F4500008089710FF1FE78040378547E31EF5F443
:10F460008A861306C402CE854A85EFF0AFEE11ED11
:10F470002285EFE0BF922A8703554400814601466A
:10F480008A85EFE02FEBAA8411C1A144994751BFAF
:10F49000034714009D47E31CF7F27C5089EB93056A
:10F4A000300571459730FF1FE780409168D0685064
:10F4B00019DD4146CA859710FF1FE7800028228585
:10F4C000EFE0DF8D7C50238DA700A147A300F4005F
:10F4D0008144DDB56850E30C05EE03471400A147F5
:10F4E000E317F7EE835706009305290021462318FA
:10F4F000F50049059710FF1FE78020247C4C83D737
:10F50000470113F727002DC3184C03574700098BF9
:10F5100021CFA54765BF03471400A547E319F7EAC4
:10F520003C5481EB854559459730FF1FE7800089A2
:10F5300028D4285419C54146CA859710FF1FE78073
:10F54000C01FA94761B703471400A947E311F7E8B3
:10F55000285419469305190041059710FF1FE780AD
:10F56000C01D7C4C83D74701918B95CF1C4C83D712
:10F570004700918B8DCBAD4791BF7C5489EB9305B0
:10F58000300551459730FF1FE780408368D46854A9
:10F59000E30305E24146CA859710FF1FE780E019A3
:10F5A0007C547D5798CB4E85EFF00F9315B783456C
:10F5B0000600EFF06F8C29BFAD47E39BF5F0834663
:10F5C0000600835525001306650003450500EF601E
:10F5D0008F98FDBD15C1AA8709458DC141112E85A2
:10F5E00041469385170006C69710FF1FE780E01479
:10F5F000B24001454101828009458280828089476D
:10F600001DC595C5411106C603471500AE871946AD
:10F610002380E50093052500138517009710FF1F31
:10F62000E780A011B24081473E85410182803E853E
:10F63000828015C1AA8709458DC141112E85414699
:10F640009385170006C69710FF1FE780000FB24092
:10F6500001454101828009458280828089471DC918
:10F6600095C9411106C60347250083461500AE879C
:10F670002207558F2390E500214693053500138519
:10F6800027009710FF1FE780400BB24081473E855F
:10F69000410182803E85828015C1AA8709458DC1BE
:10F6A00041112E8541469385170006C69710FF1F0E
:10F6B000E780A008B240014541018280094582806F
:10F6C0008280094711CD89CD83471500A1460147A6
:10F6D0002380F500FD1793F7F70F63F3F6006147FA
:10F6E0003A85828015C1AA8709458DC141112E85B1
:10F6F00041469385170006C69710FF1FE780E00379
:10F70000B24001454101828009458280828089475B
:10F710006309051063870510411106C622C426C27D
:10F72000834715002E842380F50083472500A3809E
:10F73000F500834735002381F50083474500A38109
:10F74000F50083475500858B9396870083D7450046
:10F7500093F7F7EFD58F2392F5008346550093F783
:10F76000F7DFA20693F60620DD8E2392D50003472D
:10F77000550093F6F6BF220713770740558F239263
:10F78000E50083475500FD769386F67F8D83858B54
:10F79000758FAE07D98F2392F50083466500F99BDC
:10F7A000858ADD8E2392D500034765009377270075
:10F7B00013F7D6FF5D8F2392E5008347650093F62C
:10F7C00047009377B7FFD58F2392F5000347650075
:10F7D000DD9B4D45218BD98F2392F500EF60CFCA79
:10F7E000AA845145EF604FCA0347340093F4F40FE5
:10F7F0001375F50FC94763609702636EE500834692
:10F8000004001147E1476368D700834614000547A9
:10F810006363D7008147B240224492443E85410150
:10F8200082803E85828015C1AA8709458DC141111C
:10F830002E8541469385170006C69710FF1FE78067
:10F84000C0EFB2400145410182800945828082803B
:10F85000797122D42A84084506D626D223060100CF
:10F860008344050029479387F4FF93F7F70F6362FA
:10F87000F70C176701001307A7278A07BA979C435D
:10F88000BA9782870C08EFF09FE8C9476312F50228
:10F8900099472306F100035524006C00EFE03FFF79
:10F8A000B25022549254456182800C08EFF0DFDEA2
:10F8B00029C98347C100E5F303552400EFE06FF742
:10F8C000C5B70C08EFF01FE2E5B70C08EFF07FDFDB
:10F8D000C5B70C08EFF01FD0E1BF0C08EFF01FD840
:10F8E000C1BF0C08EFF0FFD4E1B70C08EFF03FD137
:10F8F000C1B70C08EFF03FF365BF8347150023083D
:10F90000F10003552400EFD0BFD3A14705C1034741
:10F91000C5006312F7029387C18F98439D4719C7AB
:10F92000184309C71008A6850297AA872306F10085
:10F9300049B79D47B9BF93870190C5B7411122C40C
:10F9400006C603470500930720092A846312F70AB5
:10F950008347150039476393E702835645000967DB
:10F96000610781476391E6081C452244B24003C504
:10F9700007009385170041016FE04FC41307E003B0
:10F980006396E708034725009547631DF702035573
:10F990004500EFD0DFEC91476304F5008547A1A057
:10F9A000938701909C43FDDB03A38700E30803FEDC
:10F9B0000356E40003554400930564002244B2401A
:10F9C00041010283A147631BF7008345640003558F
:10F9D00044002244B24041016FE09FDD93060003E2
:10F9E0008147E304D7FEB24022443E854101828034
:10F9F0009306000A8147E318D7FEEFF07FE508443D
:10FA000051DD9720FF1FE780804849BF8147E1BF54
:10FA1000411122C426C206C62A84EFE00FC4AA847C
:10FA200019C9E1476301F50CA144B240224426857F
:10FA30009244410182802285EFE0DFB86C4C83C79D
:10FA40002501858B91CF1C4C054783C727008D8BE3
:10FA50006398E7008347640093E717002303F400EB
:10FA60008347340009476391E70289450355440001
:10FA7000EF606FC28347640093E747002303F400FD
:10FA80009147A300F40055B79386D7FF93F6F60F7E
:10FA900005466364D6008545D1BF6392C702A300C3
:10FAA000E40041468145130574009710FF1FE7806D
:10FAB00040CCC1451305C402EF502FE2BDB79546B7
:10FAC000E395D7F6A300E4004146890513057400C9
:10FAD0009710FF1FE78060C68347640093E74700E5
:10FAE0002303F400F9B78D4489B7797122D44059C2
:10FAF00026D24AD04ECE06D6AA89AE843289630B6E
:10FB000004200355250083574400638BA700A144BC
:10FB1000B2502254268502599254F249456182809E
:10FB20000347040085476314F7009D44D5B79387C6
:10FB3000F5FF93F7F70F2547E369F7FE1767010015
:10FB40001307C7FD8A07BA979C43BA978287B28585
:10FB50002285EFF0FFEBAA8465BF4146CA851305F5
:10FB6000C4039710FF1FE78040BD0347140091476F
:10FB70006305F7029306C4011306C40293057400DB
:10FB80002285EFF04FE22285EFE00FD4AA8411C165
:10FB9000A1449547A300F400A5BF8D47A300F4003E
:10FBA0008144BDB79307C4043E85CA8541463E895A
:10FBB0009710FF1FE78060B88A864A869305740015
:10FBC0002285EFF04FDE41469305C4030A85971066
:10FBD000FF1FE78080BF8547E31CF5F22285EFE039
:10FBE000EFD1AA840DF5994775B703471400B147C3
:10FBF000E31DF7F27C5089EB9305300571459720A2
:10FC0000FF1FE780A01B68D0685005D14146CA8518
:10FC10009710FF1FE78060B22285EFE02F987C509D
:10FC2000238DA700B5479DBF6850E30005F003474B
:10FC30001400B547E31BF7EE835706009305290030
:10FC400021462318F50049059710FF1FE780E0AE15
:10FC50007C4C83D7470113F707203DC3184C03574B
:10FC600047001377072029CFB9470DBF034714007A
:10FC7000B947E31CF7EA3C5489EB93053005594535
:10FC80009720FF1FE780801328D4285419C54146C8
:10FC9000CA859710FF1FE78040AABD4701B70347F9
:10FCA0001400BD47E313F7E82854194693051900DB
:10FCB00041059710FF1FE78040A87C4C83D7470180
:10FCC00093F707409DCF1C4C83D7470093F707401D
:10FCD0008DCBC147E1B57C5489EB93053005514587
:10FCE0009720FF1FE780800D68D46854E30105E288
:10FCF0004146CA859710FF1FE78020A47C547D579A
:10FD000098CB03D529008145EFE01F9751BD83456E
:10FD10000600DDBF8547E395F5E8032846008347E5
:10FD20003600034726008346160083552500034608
:10FD300006000145EF50DF98A5B5011126CA06CE91
:10FD400022CC89441DCD95CDAA842E8468008D4592
:10FD5000EF50AFB88347E1002685228693F7F7037B
:10FD600093E707046C002307F100EFE03FBFAA848C
:10FD700009E90D466C00130534009710FF1FE7805A
:10FD8000C09BF24062442685D244056182805D7149
:10FD90004EDE86C6A2C4A6C2CAC052DC56DA5AD803
:10FDA0005ED6894945CD5DCA138B4500420B135B76
:10FDB0000B01AE8A2A8A930530055A85B2849720B2
:10FDC000FF1FE780A0FF2A84CD4949C9EF50CFE348
:10FDD0002A895686D285935A8900135A0901937B42
:10FDE000F90F1305440093FAFA0F137AFA0F135917
:10FDF00089019710FF1FE78020A0A3017401230150
:10FE00005401A300440123002401EF502FDFAA85F1
:10FE1000414608089710FF1FE780009E21473400E5
:10FE20005A86A2850808EFF04F93AA891DE1214662
:10FE30002C0023807401A380540123814401A381F9
:10FE40002401138544009710FF1FE780E09AEF50CC
:10FE50008FDC22859720FF1FE7806003B640264491
:10FE60004E8596440649F259625AD25A425BB25BB9
:10FE700061618280011106CE2AC6EFD09FEC324527
:10FE800099459747FF1FA38CA714EFC0AF94F2408A
:10FE900017F5FFFF130525A705616FD01F9597473D
:10FEA000FF1F83C7E713A18B1727FF1F1307C71F68
:10FEB00091E3014723AEE18E01458280797152CCF6
:10FEC0002A8A2E8506D622D426D24AD04ECE2EC6D7
:10FED000EFD00FF745C5405945C4834734008949E1
:10FEE000F91793F7F70F63EDF90883574400B2450C
:10FEF00089446394B706130974004146D2854A8544
:10FF00009710FF1FE78060831306C4023285C14546
:10FF100032C6EF508F9C32469306C401CA852285B3
:10FF2000EFF06FA803470400834714000DC30D478B
:10FF300081446394E702A300340122852254B25025
:10FF400092540259F249624A45616FE0EF971147B6
:10FF5000639EE700A30094008144B250225426859A
:10FF600002599254F249624A456182800D478144A8
:10FF7000E395E7FE9547A300F400C1B78944F1BFBC
:10FF8000C944E1BF79719397050122D406D626D2E0
:10FF90004AD04ECEC1872E8463D507041745FF1F74
:10FFA0000345F503EF30CFAB2AC605C1EFF01F992B
:10FFB000B24509E91745FF1F034565029307F00F96
:10FFC000631EF5002E85EF308FA22165218DB25082
:10FFD000225492540259F24945618280EF306FAF4A
:10FFE000EDB793F7150091C7EFE02FF71345140015
:10FFF000F9BF8DE90145E1BF850493F4F40FEFD01B
:020000021000EC
:100000002FFEE3F9A4FE3395990013190501135946
:100010000901B3772401EDD34A85EFE0DF91334541
:10002000240175B785448549D9BF29CD011126CA58
:1000300006CE22CCAA840945A9C10D4628002E84EB
:100040008D059700FF1FE780406F8347A100700078
:100050002C0093F7F70393E7070426852305F100A7
:10006000EFE0DF8F19E90D46A28568009700FF1FBA
:10007000E780A0757D153335A000F2406244D2447C
:1000800005618280094582809747FF1F83C747F536
:10009000918B1727FF1F1307E70191E3014723A067
:1000A000E19001458280011152C42A8A32854EC6F0
:1000B00056C25AC006CE22CC26CA4AC82E8BB28A55
:1000C000B689EFD0EFD709ED8944F2406244268526
:1000D0004249D244B249224A924A024B0561828087
:1000E0005C592A89C544F5F34D45EF50FFB91374A7
:1000F000F50F5145EF505FB9E38809FC83C78901CB
:10010000E3E487FC1375F50FE360F5FC9305300518
:10011000130500079720FF1FE78040CA232AA90282
:100120002A84CD445DD11306000781459700FF1F47
:10013000E7802064A300040023004401230164013C
:1001400023125401232E3405232C0400A3010400A0
:1001500063170A008547A300F4008144BDB72285D8
:10016000EFE04FC68547A300F400AA8439DD4A8535
:10017000EFE00FCA99BF397122DC06DE26DA4AD8D1
:100180004ED652D456D25AD05ECE62CC66CA0944FC
:10019000630B061063090710AA8B3A89368BB28A63
:1001A0002E8CEFD0EFC92A8A5144630E050E9305B9
:1001B000300541459720FF1FE78040C0AA894D4484
:1001C0007DC18344190083472900A204C207BE945D
:1001D00083470900BE9483473900E207BE94832712
:1001E0008A0263E697007D5709446399E70A63072B
:1001F0000C0083474A000544898BCDC3930C4B0008
:10020000214681450A85C20C9700FF1FE780605692
:1002100093DC0C019305300566859720FF1FE7806E
:10022000E0B92A8C4D443DC95A86D6851105970000
:10023000FF1FE780605C1146CA8562859700FF1F3B
:10024000E780805B414693058A014E859700FF1F3A
:10025000E780805A21478A866686E2854E85EFE0F0
:10026000DFCF2A841DE521468A8528009700FF1FDD
:10027000E780805821469305490028009700FF1F1A
:10028000E780A0548547631EF502A6855E85EF5082
:100290007FCB62859720FF1FE78060BF4E85972048
:1002A000FF1FE780C0BE2285F2506254D2544259EB
:1002B000B259225A925A025BF24B624CD24C2161E3
:1002C00082800544F9B7397162CC2A8C594526DA07
:1002D0004AD84ED652D456D25AD05ECE06DE22DC52
:1002E000AE8B328BB68A3AC63E8AC289468983442F
:1002F0000104EF209FF249C19167938717E923100A
:10030000F50085472301F5002A8432472105630C57
:100310000C0493071003A301F400194681459700CC
:10032000FF1FE780004523036401A3035401230A50
:100330009400231274012317440123183401231954
:100340002401A2856254F250D2544259B259225A21
:10035000925A025BF24B624C1745FF1F034505C8DA
:1003600021616F201FF7A30104001946BA85970089
:10037000FF1FE780803C45BFF2506254D25442597F
:10038000B259225A925A025BF24B624C216182802E
:10039000797156CAAA8A1305100326D24AD04ECEC6
:1003A00052CC06D622D42EC6328AB684BA893E8969
:1003B000EF20BFE62DC1B245374602019307850005
:1003C000130616E92A8410C15CC123045501A30455
:1003D000B5001946D28529059700FF1FE780E03553
:1003E000CE85230894001305140126869700FF1F6D
:1003F000E780A03423082403A2852254B2509254EB
:100400000259F249624AD24A1745FF1F034505BD0A
:1004100045616F201FECB250225492540259F249A8
:10042000624AD24A45618280011122CC2A84314538
:1004300006CE2EC632C436C23AC0EF201FDE29C116
:100440009167938717E92310F5008D472301F50085
:10045000A3018500B2452246924602476244F2401B
:100460002312B5002313C5002314D5002315E5007E
:10047000AA851745FF1F034565B605616F207FE517
:10048000F24062440561828001114AC82A893945D7
:1004900026CA06CE22CC2EC6B284EF201FD831C188
:1004A000B2459167938727E92310F5009147A3018F
:1004B00025012312B5002A842301F500A68519051C
:1004C00021469700FF1FE7804027A2856244F24043
:1004D000D24442491745FF1F034545B005616F20CF
:1004E0005FDFF2406244D2444249056182800111DB
:1004F0004AC82A89414526CA06CE22CC2EC6B284D5
:10050000EF20BFD129C19167B245938727E9231016
:10051000F50095472A84231225012301F500214681
:1005200019059700FF1FE7804021A285231794003B
:100530006244F240D24442491745FF1F034535AAA1
:1005400005616F201FD9F2406244D24442490561DF
:100550008280011122CC2A84394506CE2EC632C4AF
:1005600036C23AC0EF207FCB29C19167938717E944
:100570002310F50099472301F500B2452246924623
:100580000247231285006244F2402313B50023146E
:10059000C5002315D5002316E500AA851745FF1FC2
:1005A0000345C5A305616F20DFD2F24062440561B7
:1005B0008280797122D406D62A842EC632C436C2ED
:1005C0003AC0EFD0EF871DC1B2452246924602479E
:1005D000231CB100231DC1002C081306F00F228537
:1005E000231ED100231FE100EFC0BFF4B2502254FC
:1005F00045618280011122CC2A84394506CE2EC65F
:1006000032C436C23AC0EF205FC129C191679387D7
:1006100017E92310F5009D472301F500B245224656
:1006200092460247231285006244F2402313B5002C
:100630002314C5002315D5002316E500AA85174508
:10064000FF1F0345A59905616F20BFC8F2406244B2
:10065000056182805D712AC613052002CAC04EDE84
:1006600052DC56DA5AD85ED662D466D26AD086C6D2
:10067000A2C4A6C26ECE2E8CB28B368B3AC43E8DEF
:10068000C28CC68A035A0105835941050349810575
:10069000EF20BFB869C591663243938616E9A94732
:1006A0002A842310D5002301F500930DE4002105D1
:1006B000930444012247630D030693071003A3012B
:1006C000F400194681459700FF1FE780800A19460C
:1006D00081456E859700FF1FE780A0091946814577
:1006E00026859700FF1FE780C00823037401A3033A
:1006F00064012300240323128401231D5401231EBB
:100700004401231F3401A2852644B640964406497D
:10071000F259625AD25A425BB25B225C925C025D31
:10072000F24D1745FF1F0345658B61616F207FBA4E
:10073000BA85A301040019469700FF1FE780E0FF78
:10074000EA856E8519469700FF1FE78000FF19466E
:10075000E68526859700FF1FE78020FE79B7B64023
:10076000264496440649F259625AD25A425BB25B19
:10077000225C925C025DF24D6161828079715EC69D
:10078000AA8B61454ECE52CC56CA5AC862C406D610
:1007900022D426D24AD02E8BB28A368ABA893E8C8F
:1007A000EF20BFA72DCD37470B01130717E913041F
:1007B0008500AA8418C140C1014913052400230003
:1007C0007401A30064011946D6859700FF1FE780D6
:1007D000C0F613059400230444011946CE85970002
:1007E000FF1FE78080F5A307840103C734000509D4
:1007F0001379F90F4104E362E9FC2254B250025923
:10080000F249624AD24A424BB24B224CA6859254DC
:100810001735FF1F0345857C45616F209FABB250A4
:10082000225492540259F249624AD24A424BB24B84
:10083000224C45618280011122CC2A84214506CEBA
:100840002EC632C436C2EF205F9D15CD2246924699
:100850009167938717E92310F500B1472301F5004D
:10086000A3018500B2452303C500A303D50062445C
:10087000F2402312B500AA851735FF1F0345057600
:1008800005616F201FA5F2406244056182805D71A1
:10089000A6C28344C1052AC6CAC0138544024EDEDF
:1008A00052DC56DA5AD85ED662D466D26AD06ECEA0
:1008B00086C6A2C42EC4B28D368DBA8C3E8CC28B35
:1008C000468B835A0105034A4105E6490659EF2044
:1008D000DF9449CD3243A24537460D019307850089
:1008E000130616E92A845CC12304650010C1A30421
:1008F000B5001946EE8529059700FF1FE780E0E364
:10090000CE852308A401A308940123098401A30927
:100910007401230A6401231B5401230C44011305B1
:10092000940119469700FF1FE78020E11305440258
:10093000A30F940008D0CA8526869700FF1FE78082
:10094000C0DFA2852644B64096440649F259625A51
:10095000D25A425BB25B225C925C025DF24D17356B
:10096000FF1F0345A56761616F20BF96B64026440F
:1009700096440649F259625AD25A425BB25B225CF3
:10098000925C025DF24D61618280411126C2AA84AF
:10099000514506C622C4EF205F8849C191679387FD
:1009A00017E92310F500B9472301F50083C71400A8
:1009B0002A8493856400A301F50083C7340003C72C
:1009C00024002105A207D98F231EF5FE83C744000A
:1009D0001946230FF5FE83C75400A30FF5FE9700B9
:1009E000FF1FE78080D583C7C400A2851735FF1F8E
:1009F0000345C55E2307F40083C7E40003C7D400A2
:100A0000A207D98F2318F40083C7F4002309F40048
:100A10002244B240924441016F20BF8BB240224435
:100A20009244410182801733FF1F0343935B930875
:100A3000F00F6304130B79715EC6AA8B138507014F
:100A400022D426D24AD04ECE52CC56CA5AC806D646
:100A50004289BE84BA89368AB28A2E8BEF20EFFB98
:100A60002A842DC19307000D2310F500D9472301D7
:100A7000F5002312750123036501A3035501230427
:100A80004501A30435012305950095C8410548C4D7
:100A90002686CA859700FF1FE78020CAA2852254B8
:100AA000B25092540259F249624AD24A424BB24B76
:100AB0001735FF1F0345F55245616F209F8123269F
:100AC0000500E9BFB250225492540259F249624AD9
:100AD000D24A424BB24B456182808280411122C48E
:100AE0002A84194506C6EF204FF30DC591679387F9
:100AF00017E92310F500C1472301F50023128500F3
:100B00002244B240AA851735FF1F0345254D4101F8
:100B10006F202FFCB24022444101828041110D45DB
:100B200006C6EF208FEF0DC5930710F92300F500DF
:100B30009307E003A300F500C5472301F500B24089
:100B4000AA851735FF1F0345654941016F206FF8DE
:100B5000B24041018280011122CC2A84294506CE6F
:100B60002EC632C436C2EF204FEB15CDB2459246A9
:100B70009167938717E92310F500C9472302B50051
:100B80002301F500A30185002304D5002246624419
:100B9000F2402313C500AA851735FF1F03450544FE
:100BA00005616F200FF3F2406244056182800111FC
:100BB00022CC2A84214506CE2EC6EF200FE605C999
:100BC000B2459167938717E92310F500D1472303B6
:100BD000B5002301F500231285006244F240AA8586
:100BE0001735FF1F0345853F05616F208FEEF240EB
:100BF000624405618280011122CC2A84214506CEFF
:100C00002EC632C4EF206FE11DC52246930710594E
:100C10002310F50023018500B2452303C50062447B
:100C2000F2402312B500AA851735FF1F0345053B87
:100C300005616F200FEAF240624405618280011174
:100C400022CC2A84214506CE2EC632C4EF20EFDC0A
:100C50001DC922469167938727E92310F500A14714
:100C60002301F500B24523038500A303C5006244B8
:100C7000F2402312B500AA851735FF1F034535360C
:100C800005616F200FE5F240624405618280011129
:100C900022CC2A84314506CE2EC632C436C23AC092
:100CA000EF20AFD715CD22468567938717C923104C
:100CB000F50023018500B2452303C5009246024793
:100CC0006244F2402312B5002314D5002315E50039
:100CD000AA851735FF1F0345653005616F206FDF5B
:100CE000F240624405618280011126CAAE844AC87E
:100CF0002A891385C40006CE22CC32C6EF20EFD15C
:100D00001DCD8567B245938717E92301950023120E
:100D100025012A842310F500310508C42686970092
:100D2000FF1FE78080A1A2856244F240D24442497D
:100D30001735FF1F0345852A05616F208FD9F240C3
:100D40006244D244424905618280011122CC2A8446
:100D5000194506CE2EC6EF204FCC05C9856793876F
:100D600017F92310F500854723018500A301F5003D
:100D7000B2456244F2402312B500AA851735FF1F21
:100D80000345C52505616F20CFD4F240624405615B
:100D90008280411122C42A840D4506C6EF20EFC788
:100DA00005C5930710F92300F500E947A300F500F6
:100DB000230185002244B240AA851735FF1F034551
:100DC000E52141016F20EFD0B240224441018280F1
:100DD000011122CC2A84214506CE2EC6EF20EFC376
:100DE0000DC99167938727E92310F5009307000346
:100DF0002301F500B245230385006244F24023122B
:100E0000B500AA851735FF1F0345751D05616F20C5
:100E10004FCCF2406244056182800111214506CE2B
:100E20002EC632C4EF206FBF05C985679387073987
:100E30002310F500B245224685472301F500F24014
:100E40002312B5002313C500AA851735FF1F0345DC
:100E5000251205616F20EFC7F2400561828079712C
:100E600022D44AD04ECE56CA06D626D252CC5AC822
:100E7000894AAA893284368963985513938A418FA7
:100E800083C7418F568A8944C1C783C7160003C7E9
:100E90000600A207D98F1737FF1F2319F71413076E
:100EA000C6FF639DE70831452EC6EF200FB7AA8421
:100EB00041C1B245420441802302B500231385009D
:100EC000930700F91504A1652310F50023113501DE
:100ED000850522859710FF1FE78040EE88C421C555
:100EE00083C70A009305E9FF13562400FD17238AE0
:100EF000F18E9700FF1FE78040869C44A68517353A
:100F0000FF1F0345E50689079CC4EF208FBC814481
:100F1000B2502254268502599254F249624AD24A6A
:100F2000424B4561828026859710FF1FE78020F69F
:100F30009737FF1F239D070A8544D9BF1307D6FFA4
:100F4000E3C8E7FE83C7419099CB9737FF1F93878C
:100F5000A709884309C59710FF1FE78040F317359D
:100F6000FF1F0355A5081105A165420585054181AF
:100F70009710FF1FE78080E41737FF1F2326A7067F
:100F800045DD83470A002286CA85FD17238AF18E34
:100F900097F0FE1FE780607A9737FF1F2399870439
:100FA00085472382F190A5B79737FF1F83D7270482
:100FB000173BFF1F130BAB03C1D31737FF1F03579B
:100FC000E702173AFF1F130A2A02B386C700110768
:100FD00003250A00634CD7063E95CA8597F0FE1F8D
:100FE000E780A07503560B0081443294420441808F
:100FF0009737FF1F239D87FE9737FF1F83D707FF74
:101000009107E317F4F03145EF202FA1AA850DCD0C
:10101000930700F92310F50083570B0023113501C6
:10102000230255012313F50083270A001CC5173539
:10103000FF1F0345E5F3EF20CFA99737FF1F239844
:1010400007FA23820190E9B503250A0009C5971024
:10105000FF1FE780C0E39737FF1F239A07F823821B
:101060000190D9BD6FC060066FC080076FC00032AD
:101070006FC060546FC0400A411106C6EFC08006C1
:10108000B2400145410182806FC0A00B6FC0A00D2E
:101090006FC0C0106FC0C0126FC0A0146FC0A01688
:1010A0006FC080186FC0801A6FC0801C6FC0201E78
:1010B0008347160003460600A2075D8E6FC0601FBF
:1010C0006FC0A0206FC060236FC020266FC0E028D3
:1010D0006FC0E02E6FC000316FC020336FC040354D
:1010E0006FC0603703430100030E4100834E81004F
:1010F000034FC100834F01018342410183438101BA
:101100007EC816CA1ECC7AC676C472C21AC06FC018
:1011100080366FC0803B6FC0A03D6FC0C03F6FC0C6
:10112000E0416FC000446FC020466FE0000013072D
:10113000A5FF420785672A8841831385A7C7636C8B
:10114000E502138707C801456368B70263E6050334
:101150001307301F6362C702138766FF420741838C
:10116000938767C763EAE70005063306B6028E0673
:101170003325D60082800145828011C98327050A64
:1011800093E707082320F50AFD572303F502828021
:101190009737FF1F23A0A7E682809737FF1F93870B
:1011A000E7F2FC479C5799E33E85828003D787018D
:1011B000E30CA7FE93878705FDB7011122CC06CE6D
:1011C0002A84034565029307F00F2E866309F50014
:1011D0002EC6EF201F893246FD572303F4028347B2
:1011E0009402035764049306640293E70706A3047A
:1011F000F4028357E403A285F240BA972312F40461
:10120000624417050000130585F705616F208FF113
:10121000011122CC06CE2A84034575029307F00FF4
:101220002E866309F5002EC6EF20BF833246FD5798
:10123000A303F40293067402A2856244F2401715D8
:1012400000001305053105616F20CFED011122CC9F
:1012500006CE2A84034585029307F00F2E86630984
:10126000F5002EC6EF20EFFF3246FD572304F402AF
:1012700093068402A2856244F2401715000013050C
:10128000E52F05616F200FEA03467514ED4797358A
:10129000FF1F83D5C5E59736FF1F83D606E61737B0
:1012A000FF1F0357A7E52319F51A2317F51A23156E
:1012B000B51A2313D51A2314E51A8947630BF606CA
:1012C0009307801483486514231AF51A09481736C2
:1012D000FF1F1306A6DF6392080703568602231634
:1012E000C51A0566130606A92318C51A6D482E8669
:1012F0006373B8006D4693150601231DC51A6D482A
:10130000C18136866373D8006D46231BC51A835688
:10131000051B0356C51A6373D600B286231ED51A61
:10132000BA8663F3E700BE86231CD51A2306B504EC
:1013300082808567938707A971B7035666022316D3
:10134000C51A130680144DB70347651489468357A1
:10135000C51B631ED70283568514938787E899C6F9
:10136000B3C7E702938757FD214731A02147B3C791
:10137000E702938757FDB3C7E7020357A51BC207D0
:10138000C18363F3E7003E872306E5048280854638
:101390006316D7009387C7FB1147F1BF938707FBFD
:1013A000E1B78357651A0357251B411106C663F33E
:1013B000E7003E87931807018357451B0357851A9B
:1013C00093D808016373F700BA871398070183560F
:1013D000E51A8357A51A1358080163F3D700BE8690
:1013E0000357C51A8357051B1393060113530301B3
:1013F0006373F700BA8783467514C2070947C18330
:10140000639AE6000566130606A942876370C80260
:10141000328729A8032705109316470163CC0600DD
:101420000566130686844287E36406FF13180701E6
:1014300013580801834665140947639EE60603575F
:1014400085039306204E3307D70293F6F80F9A06CA
:101450001386F63C9386C64F634406019306C81272
:10146000158F63D3E7003E87420705664183130665
:1014700006A9BA876373C700B287C207C183035640
:10148000651B13F7F80F9376F30F6316E604035604
:10149000851B631206050356A51B631ED602035661
:1014A000C51B631AF602230D0506EFF0FFE9094597
:1014B000B240410182800327051093164701E3C023
:1014C00006FC056613068684BE856373F600B28546
:1014D0009397050165B70546230DC506231BE51A3D
:1014E000231C051B231DD51A231EF51AEFF0DFE57B
:1014F00001457DBF0357C51A8357051B411106C619
:101500006373F700BA87034665141397070189468A
:101510004183631BD6068566938606A96373D7004D
:10152000B6871397070141838357C51B6387E7007D
:101530008547231EE51A230DF5060357851A8357A1
:10154000451B6373F700BA870346751413970701A9
:10155000894641836317D6048566938606A963731B
:10156000D700B6871397070141838357851B63878D
:10157000E7008547231CE51A230DF506EFF0DFDCB5
:10158000B240014541018280856713868784E37DEF
:10159000E6F88326051093870780F58FD1F7328709
:1015A00061B7856713868784E371E6FC832605109F
:1015B00093870780F58FD5FB328745BF0357850496
:1015C00095470356C503B307F7028356850393D5A2
:1015D00037406355B600118F93173700B3C7D70252
:1015E000C207C1832313F5048280832745110D466A
:1015F0009306F00F03C707000D8BA306E5006314E5
:10160000C70083C62700A30BD50003C70700418B83
:101610002309E50083C71700230BF5008280834769
:10162000C500CD9B2306F500828083274511034723
:10163000C50083C70700935637408987B58F858BD0
:1016400099C7134787002306E500014582800545B9
:101650008280832745110347C50083C7070093563F
:1016600027408D87B58F858B99E713474700230661
:10167000E50001458280054582808327450E850768
:101680002322F50E91E78327850E85072324F50E87
:101690008327850E93F7070891C785472322F50E08
:1016A0002324050E8347950293F7070491CF8357B0
:1016B000E50303576504BA972312F5048327450A07
:1016C00093F7F7BF2322F50A82808327C50E85078B
:1016D0002326F50E91E78327050F85072328F50EAE
:1016E0008327050F93F7070891C785472326F50E33
:1016F0002328050E8347950213F7070409C793E7CC
:101700000702A304F50282809737FF1F9387079C87
:1017100083A7C708014591E3828003C7B70011E39F
:1017200005059C43CDBF9737FF1F9387279A83A753
:10173000C7080145054791E3828083C6B7006393DC
:10174000E60005059C43C5BF411122C491452A848A
:10175000014506C6EF20AFFD231AA4041737FF1F6B
:101760000357C7A0854763FEE7048357C41B03578D
:10177000841B9726FF1F83D6666C035564053E972E
:10178000B7470F0093870724B3C7D702130717275C
:101790008356C40585451303F5FF130E80023357A6
:1017A000F7028357E4039D8E83270409B386A602BC
:1017B000BE969737FF1F9387679183A8C70863E694
:1017C0006500B2402244410182803388C503C68748
:1017D0007D56369881E7231AB404E5B76314F40004
:1017E0001C40F5DB83AEC7086398AE0003A607096B
:1017F0003306C8403376A6026364E6009C43D9BF33
:10180000890575BF1737FF1F03574796854763F74D
:10181000E7088357C51B0357851B9726FF1F83D6F1
:10182000E661834535053E97B7470F009387072448
:10183000B3C7D70213071727FD150546130E8002FD
:101840003357F7029737FF1F9387478803A3C708CB
:101850006363B6008280B306C603832705097D58FB
:10186000BE969A8781E7231AC50482806314F50027
:101870001C41F5DB83AEC7088328C508639A1E01A7
:1018800083A807093388D84063E4160133881641DA
:101890006364E8009C43F9B705065DBF82800111CF
:1018A00022CC035465034EC69726FF1F9386065C21
:1018B00006CE26CA4AC852C456C25AC0838A660196
:1018C0001736FF1F0356868A854603278508930728
:1018D00014009729FF1F83D9695663FAC60EB38790
:1018E00037031304003293870719B3D78702338471
:1018F000E70063C90A00B707C0A86365F400B7072B
:1019000040573E948357C51B035A851BAA8423283E
:1019100085083E9AB7470F0093870724B3C737035C
:10192000130A1A270149335AFA029727FF1F938790
:10193000E77903ABC708130600648146B387290320
:10194000B3B5290313850732B337F500BE95EF20F1
:10195000415A2295DA877D57A9E7B38529031306F3
:101960000064814633B9290313850532B335B500C8
:10197000CA95EF200158229563C90A00B707C0A88D
:101980006365F500B70740573E9523A8A408F240C9
:101990006244D2444249B249224A924A024B05610A
:1019A0008280639497009C43CDDB03A6C70883A67F
:1019B000C408631AD60083A607093387A640636468
:1019C000D5003307D540636047059C4371B7034496
:1019D000550313342400134414003E943304340399
:1019E00093070032130404193354F4023A9463C980
:1019F0000A00B707C0A86365F400B70740573E94D4
:101A00002328850869B783C7540305098607FD178E
:101A1000E363F9F299B71727FF1F03572775854727
:101A200063F5E70E41119727FF1F9387276A22C4AA
:101A300003A4C70806C626C2A28789EB09EC230EB9
:101A40000500B240224492444101828003C7D7017D
:101A50006DFB9C43DDB76314A40000406DD0834749
:101A6000B400D5E30327C4088327C508630DF7082E
:101A70000347C50193070008AA84631DF704835731
:101A800084031946930500082319F506231AF50661
:101A90008357A403231CF5048357C403231DF504B3
:101AA00003558500EF50F0258547A38EF40083C7CA
:101AB000C40193F7F707238EF4001305640622444C
:101AC000B240924431469305F00F410117F3FE1FD7
:101AD000670023CA83578503194693050008231915
:101AE000F406231AF4068357A503231CF404835732
:101AF000C50303558400231DF404EF50902089474B
:101B0000A30EF4005DBF004015BF230E05008280C8
:101B1000411126C206C622C41727FF1F03570765B7
:101B20008547AA8463F8E71A83278510898B638326
:101B3000071A9727FF1F9387675983A7C708BE8592
:101B4000ADED03D6A41B01447D581306260205867D
:101B50002D067D55A5EB630E04108347B400035793
:101B60008403D5EB8947231BE404A309F40403573A
:101B7000E4058357E4032285BA97C1071D8B998F2B
:101B8000231EF4048357A403231CF4048357C403C3
:101B9000231DF404EFF05FBB8327440A93E717008B
:101BA0002322F40A8547230AF4008D47A30EF4008C
:101BB000B240224492444101828003C7D5016DFBAB
:101BC0008C41BDBF98436394970051D7BA8783A6D1
:101BD000070903A7040963E2E6023387E64083A608
:101BE000C40863F4E6003377D7026376A7003A852A
:101BF0006373C700BE859C43B1BF158F83A6C7081A
