
Central_Indication.elf:     file format elf32-littleriscv
Central_Indication.elf
architecture: riscv:rv32, flags 0x00000112:
EXEC_P, HAS_SYMS, D_PAGED
start address 0x00000000

Program Header:
    LOAD off    0x00001000 vaddr 0x00000000 paddr 0x00000000 align 2**12
         filesz 0x00000004 memsz 0x00000004 flags r-x
    LOAD off    0x00002000 vaddr 0x20000000 paddr 0x00000004 align 2**12
         filesz 0x0000204c memsz 0x0000204c flags r-x
    LOAD off    0x00004050 vaddr 0x00002050 paddr 0x00002050 align 2**12
         filesz 0x00024040 memsz 0x00024040 flags r-x
    LOAD off    0x0002904c vaddr 0x2000204c paddr 0x00026090 align 2**12
         filesz 0x000001bc memsz 0x0000219c flags rw-

Sections:
Idx Name            Size      VMA       LMA       File off  Algn  Flags
  0 .init           00000004  00000000  00000000  00001000  2**1  CONTENTS, ALLOC, LOAD, READONLY, CODE
  1 .highcodelalign 00000000  00000004  00000004  00029208  2**0  CONTENTS
  2 .highcode       0000204c  20000000  00000004  00002000  2**1  CONTENTS, ALLOC, LOAD, READONLY, CODE
  3 .text           00024040  00002050  00002050  00004050  2**2  CONTENTS, ALLOC, LOAD, READONLY, CODE
  4 .fini           00000000  00026090  00026090  00029208  2**0  CONTENTS, ALLOC, LOAD, CODE
  5 .dalign         00000000  2000204c  2000204c  00029208  2**0  CONTENTS
  6 .dlalign        00000000  00026090  00026090  00029208  2**0  CONTENTS
  7 .data           000001bc  2000204c  00026090  0002904c  2**2  CONTENTS, ALLOC, LOAD, DATA
  8 .bss            00001fe0  20002208  0002624c  00029208  2**3  ALLOC
  9 .stack          00000000  20008000  20008000  00029208  2**0  CONTENTS
 10 .debug_info     0000be32  00000000  00000000  00029208  2**0  CONTENTS, READONLY, DEBUGGING
 11 .debug_abbrev   00001ca1  00000000  00000000  0003503a  2**0  CONTENTS, READONLY, DEBUGGING
 12 .debug_loc      00001acb  00000000  00000000  00036cdb  2**0  CONTENTS, READONLY, DEBUGGING
 13 .debug_aranges  00000350  00000000  00000000  000387a8  2**3  CONTENTS, READONLY, DEBUGGING
 14 .debug_ranges   000004e0  00000000  00000000  00038af8  2**3  CONTENTS, READONLY, DEBUGGING
 15 .debug_line     000067e3  00000000  00000000  00038fd8  2**0  CONTENTS, READONLY, DEBUGGING
 16 .debug_str      00002b2f  00000000  00000000  0003f7bb  2**0  CONTENTS, READONLY, DEBUGGING
 17 .comment        00000033  00000000  00000000  000422ea  2**0  CONTENTS, READONLY
 18 .debug_frame    0000114c  00000000  00000000  00042320  2**2  CONTENTS, READONLY, DEBUGGING
 19 .stab           00000084  00000000  00000000  0004346c  2**2  CONTENTS, READONLY, DEBUGGING
 20 .stabstr        00000117  00000000  00000000  000434f0  2**0  CONTENTS, READONLY, DEBUGGING
SYMBOL TABLE:
00000000 l    d  .init	00000000 .init
00000004 l    d  .highcodelalign	00000000 .highcodelalign
20000000 l    d  .highcode	00000000 .highcode
00002050 l    d  .text	00000000 .text
00026090 l    d  .fini	00000000 .fini
2000204c l    d  .dalign	00000000 .dalign
00026090 l    d  .dlalign	00000000 .dlalign
2000204c l    d  .data	00000000 .data
20002208 l    d  .bss	00000000 .bss
20008000 l    d  .stack	00000000 .stack
00000000 l    d  .debug_info	00000000 .debug_info
00000000 l    d  .debug_abbrev	00000000 .debug_abbrev
00000000 l    d  .debug_loc	00000000 .debug_loc
00000000 l    d  .debug_aranges	00000000 .debug_aranges
00000000 l    d  .debug_ranges	00000000 .debug_ranges
00000000 l    d  .debug_line	00000000 .debug_line
00000000 l    d  .debug_str	00000000 .debug_str
00000000 l    d  .comment	00000000 .comment
00000000 l    d  .debug_frame	00000000 .debug_frame
00000000 l    d  .stab	00000000 .stab
00000000 l    d  .stabstr	00000000 .stabstr
00000000 l    df *ABS*	00000000 ./Startup/startup_CH583.o
20000000 l       .highcode	00000000 _vector_base
00000000 l    df *ABS*	00000000 CH58x_sys.c
00000000 l    df *ABS*	00000000 RTC.c
00000000 l    df *ABS*	00000000 central_main.c
00000000 l    df *ABS*	00000000 ISP583.c
20000322 l       .highcode	00000000 .loop18
20000330 l       .highcode	00000000 .loop29
2000033e l       .highcode	00000000 .loop40
200005ca l       .highcode	00000000 .loop402
00000000 l    df *ABS*	00000000 tmos.c
0000333c l     F .text	00000024 tmosFindTask
200021cc l     O .data	00000004 holdrand.6645
00000000 l    df *ABS*	00000000 tmos_hw.c
20000b82 l     F .highcode	00000032 clockGetHSEValue
20000bb4 l     F .highcode	00000018 clockGetLSEValue
00003e38 l     F .text	00000070 clockGetTickValve
00000000 l    df *ABS*	00000000 ll_connect.c
00000000 l    df *ABS*	00000000 ll_hop.c
00000000 l    df *ABS*	00000000 ll_scan.c
0001778a l     F .text	00000084 llScanCreateCore
00019e16 l     F .text	00000260 llScanProcess
00018022 l     F .text	0000018a llScanProcessChain
00000000 l    df *ABS*	00000000 ll_whitelist.c
00000000 l    df *ABS*	00000000 aes.c
00000000 l    df *ABS*	00000000 bb.c
00000000 l    df *ABS*	00000000 ip.c
00000000 l    df *ABS*	00000000 lle.c
00000000 l    df *ABS*	00000000 rf_fh.c
00000000 l    df *ABS*	00000000 rfend.c
00000000 l    df *ABS*	00000000 memory.c
00000000 l    df *ABS*	00000000 ll_resolvinglist.c
00000000 l    df *ABS*	00000000 CH58x_adc.c
00000000 l    df *ABS*	00000000 CH58x_clk.c
00000000 l    df *ABS*	00000000 CH58x_gpio.c
00000000 l    df *ABS*	00000000 CH58x_uart1.c
00000000 l    df *ABS*	00000000 MCU.c
00000000 l    df *ABS*	00000000 central.c
00002860 l     F .text	00000010 centralRssiCB
00002870 l     F .text	00000032 centralHciMTUChangeCB
2000221d l     O .bss	00000001 centralTaskId
20002210 l     O .bss	00000001 centralProcedureInProgress
000028a2 l     F .text	0000003e centralPasscodeCB
000028e0 l     F .text	0000005a centralPairStateCB
0000293a l     F .text	00000080 centralAddDeviceInfo
2000221c l     O .bss	00000001 centralScanRes
000029ba l     F .text	000001f2 centralEventCB
200021c4 l     O .data	00000006 PeerAddrDef
2000221b l     O .bss	00000001 centralState
200021c2 l     O .data	00000002 centralConnHandle
2000221a l     O .bss	00000001 centralDiscState
20002214 l     O .bss	00000002 centralCharHdl
20002218 l     O .bss	00000002 centralSvcStartHdl
20002216 l     O .bss	00000002 centralSvcEndHdl
20002212 l     O .bss	00000002 centralCCCDHdl
200021b8 l     O .data	00000008 centralBondCB
200021c0 l     O .data	00000001 centralDoWrite
2000204c l     O .data	0000000c centralRoleCB
20002328 l     O .bss	00000280 centralDevList
00000000 l    df *ABS*	00000000 message.c
00000000 l    df *ABS*	00000000 tmos_snv.c
00000000 l    df *ABS*	00000000 att.c
00000000 l    df *ABS*	00000000 att_client.c
00000000 l    df *ABS*	00000000 gap.c
00004efa l     F .text	00000022 disconnectNext
20002228 l     O .bss	00000006 gapCurrentRandomAddr
20002238 l     O .bss	00000004 pfnCentralCBs
2000223c l     O .bss	00000004 pfnCentralConnCBs
20002240 l     O .bss	00000004 pfnPeripheralCBs
20002244 l     O .bss	00000004 pfnPeripheralConnCBs
20002248 l     O .bss	00000008 slaveUpdateReq
20002250 l     O .bss	00000001 terminateAllTaskID
20002251 l     O .bss	00000001 terminateReason
00000000 l    df *ABS*	00000000 gap_central.c
00006844 l     F .text	0000003a gapSendScanEnable
00007222 l     F .text	00000056 gapSetScanParamStatus
20002252 l     O .bss	00000001 gapMaxScanResponses
00000000 l    df *ABS*	00000000 gap_peripheral.c
00007bfc l     F .text	00000020 gapFreeAdvertState
00007c1c l     F .text	00000030 gapSetPeriodicAdvParams
00007c4c l     F .text	000000fc gapSetAdvParams
00007d48 l     F .text	000000d0 gapPeriProcessConnEvt
00007e18 l     F .text	00000088 gapWriteAdvDataStatus
00007f06 l     F .text	00000116 gapProcessAdvertisingEvt
000082d0 l     F .text	0000018e gapPeriProcessHCICmdCompleteEvt
00008186 l     F .text	00000110 gapWriteAdvEnableStatus
20003da8 l     O .bss	00000014 gapPeripheralCBs
2000225c l     O .bss	00000001 gapAdvAppTaskID
2000225d l     O .bss	00000001 gapAdvTaskID
2000225e l     O .bss	00000002 gapLimitedAdvertisingTimeout
20002260 l     O .bss	00000001 gapPeriodicMode
20002264 l     O .bss	00000004 gapPeripheralConnCBs
20002268 l     O .bss	00000004 pGapAdData
2000226c l     O .bss	00000004 pGapPeriodicData
20002270 l     O .bss	00000004 pGapScanRspData
00000000 l    df *ABS*	00000000 gatt.c
0000848c l     F .text	0000004c gattRead
000084d8 l     F .text	0000004c gattWrite.part.0
00000000 l    df *ABS*	00000000 gattclientapp.c
20002280 l     O .bss	00000001 indTaskId
00000000 l    df *ABS*	00000000 gattservapp.c
00009904 l     F .text	00000004 gattProcessExchangeMTUReq
00009908 l     F .text	00000024 gattServApp_FindCharCfgItem
0000992c l     F .text	0000003c gattServerHandleTimerCB
00009968 l     F .text	00000020 GATTServApp_InitCharCfg.part.12
00009988 l     F .text	00000004 gattProcessExecuteWriteReq
00009dc0 l     F .text	0000002e GATT_VerifyWritePermissions.part.7
00009dc0 l     F .text	0000002e GATT_VerifyPrepareWritePermissions.part.8
0000a08c l     F .text	00000028 gattServerNotifyTxCB
0000a5ba l     F .text	00000060 gattProcessReadByGrpTypeReq
0000a61a l     F .text	00000034 gattProcessReadByTypeReq
0000a64e l     F .text	00000034 gattProcessFindByTypeValueReq
0000a682 l     F .text	000001aa gattProcessFindInfoReq
0000a896 l     F .text	00000036 gattProcessWriteReq
0000a922 l     F .text	00000036 gattProcessPrepareWriteReq
0000b07a l     F .text	000000ae gattProcessReadMultiReq
0000b128 l     F .text	00000030 gattProcessReadReq
20003dbc l     O .bss	00000018 rsp
20002058 l     O .data	00000040 gattAttrTbl
200021d4 l     O .data	00000008 gattService
200021df l     O .data	00000001 serviceChangedCharProps
20002288 l     O .bss	00000004 indCharCfg
20002098 l     O .data	0000000c gattServiceCBs
20002282 l     O .bss	00000002 attrLen
20002284 l     O .bss	00000001 gattAddService
2000228c l     O .bss	00000004 pAttrValue
20002290 l     O .bss	00000004 pServiceList
20002294 l     O .bss	00000004 prepareWritesTbl
20002298 l     O .bss	00000004 serverInfoTbl
2000229c l     O .bss	00000004 serviceCBsList
200021d0 l     O .data	00000001 GATTServApp_TaskID
200021d1 l     O .data	00000001 appTaskID
200021dc l     O .data	00000002 nextHandle
200021de l     O .data	00000001 reqTaskId
00000000 l    df *ABS*	00000000 l2cap.c
00000000 l    df *ABS*	00000000 l2cap_input.c
00000000 l    df *ABS*	00000000 l2cap_output.c
0000ceba l     F .text	00000070 l2capSendFCPkt.part.3
00000000 l    df *ABS*	00000000 l2cap_sdu.c
0000d2da l     F .text	00000028 l2capBuildDisconnectReq
0000d302 l     F .text	0000004c l2capBuildParamUpdateReq
0000d34e l     F .text	00000016 l2capBuildParamUpdateRsp
0000d364 l     F .text	0000005e l2capBuildConnectRsp
00000000 l    df *ABS*	00000000 linkdb.c
0000d55a l     F .text	0000003e reportStatusChange
00000000 l    df *ABS*	00000000 sm.c
00000000 l    df *ABS*	00000000 host_input.c
200022bc l     O .bss	00000001 fragment.4734
00000000 l    df *ABS*	00000000 host_output.c
00000000 l    df *ABS*	00000000 ll_core.c
00000000 l    df *ABS*	00000000 ll_master.c
000138fe l     F .text	00000130 ll_master_map_check
00000000 l    df *ABS*	00000000 ll_pdu.c
000149a8 l     F .text	0000011e llRejectIndExt
000154e2 l     F .text	000000f8 LL_RxConnParamReq
000156fa l     F .text	0000008e LL_RxLenUpdate
00015788 l     F .text	000000d6 llConnectionUpdateInd
0001585e l     F .text	00000024 llTerminateInd
00015882 l     F .text	000000a0 llEncRsp
00015922 l     F .text	0000002e llStartEncReq
00015950 l     F .text	00000044 llStartEncRsp
00015994 l     F .text	0000012c llUnknowRsp
00015ac0 l     F .text	0000002c llPauseEncReq
00015aec l     F .text	00000072 llPauseEncRsp
00015b5e l     F .text	000000a6 llVersionInd
00015c04 l     F .text	000000b2 llRejectInd
00015cb6 l     F .text	00000054 llPingReq
00015d0a l     F .text	00000032 llPingRsp
00015d3c l     F .text	000001a4 llPHYReq
00015ee0 l     F .text	00000154 llPHYRsp
00016034 l     F .text	0000008a llPHYUpdateIND
000160be l     F .text	0000002c llMinUsedChannel
000160ea l     F .text	0000003e llClockAccuracyReq
00016128 l     F .text	0000004a llClockAccuracyRsp
00016172 l     F .text	000000de llPowerControlRsp
00016250 l     F .text	000000ac llPowerChangeIND
000162fc l     F .text	000000ae llChannelReportingIND
00016546 l     F .text	0000003a llChannelStatusIND
00016580 l     F .text	000000f2 llConnectionParamRsp
00016672 l     F .text	000000ec llConnectionParamReq
0001675e l     F .text	00000090 llSlaveFeatureReq
000167ee l     F .text	00000090 llFeatureRsp
0001687e l     F .text	00000088 llFeatureReq
00016906 l     F .text	00000062 llChannelMapReq
00016968 l     F .text	00000166 llEncReq
00016ace l     F .text	00000144 llPowerControlReq
00016c12 l     F .text	00000068 llLengthRsp
00016c7a l     F .text	00000056 llLengthReq
00016cd0 l     F .text	00000004 llCTEReq
00016cd4 l     F .text	00000004 llCTERsp
00016cd8 l     F .text	00000004 llPeriodicSyncIND
00016cdc l     F .text	00000004 llCISReq
00016ce0 l     F .text	00000004 llCISRsp
00016ce4 l     F .text	00000004 llCISInd
00016ce8 l     F .text	00000004 llCISTerminateInd
00016cec l     F .text	00000004 llSubrateReq
00016cf0 l     F .text	00000004 llSubrateInd
00000000 l    df *ABS*	00000000 ll_report.c
00016d14 l     F .text	00000004 llAdvertisingReportReport
00016d18 l     F .text	00000014 llCISEstablishedReport
00016d2c l     F .text	00000004 llCISRequestReport
00016d30 l     F .text	0000002e llRemoteConnectionParamRequestReport
00016d5e l     F .text	00000094 llConnectCompleteReport
00016df2 l     F .text	0000008a llTransmitPowerReportingReport
00016e7c l     F .text	0000006a llPathLossThresholdReport
00016ee6 l     F .text	00000022 llChannelSelectionAlgorithmReport
00016f08 l     F .text	00000038 llAdvertisingSetTerminatedReport
00016f40 l     F .text	00000010 llScanTimeoutReport
00016f50 l     F .text	0000002e llPeriodicAdvertisingSyncLostEventReport
00016f7e l     F .text	00000024 llPeriodicAdvertisingSyncEstablishedEventReport
00016fa2 l     F .text	00000040 llPHYUpdateCompleteReport
00016fe2 l     F .text	00000180 llEnhancedConnectCompleteReport
00017162 l     F .text	0000002e llDataLengthChangeReport
00017190 l     F .text	00000040 llRemoteConnectParamRequestReport
000171d0 l     F .text	00000026 llLTKRequestedReport
000171f6 l     F .text	00000030 llReadRemoteFeatureCompleteReport
00017226 l     F .text	00000038 llConnectUpdateCompleteReport
0001725e l     F .text	00000066 llDirectedAdvertisingConnectionCompleteReport
000172c4 l     F .text	00000062 llCancelConnectionCompleteReport
00017326 l     F .text	00000004 llRequestPeerSCACompletetReport
0001732a l     F .text	00000004 llBIGInfoAdvertisingReportReport
0001732e l     F .text	00000004 llReadLocalP256PublicKeyCompleteReport
00017332 l     F .text	00000004 llGenerateDHKEYCompleteReport
00017336 l     F .text	00000004 llDirectAdvertisingReportReport
0001733a l     F .text	00000004 llExtendedAdvertisingReportReport
0001733e l     F .text	00000004 llPeriodicAdvertisingReportEventReport
00017342 l     F .text	00000004 llScanRequestReceivedReport
00017346 l     F .text	00000004 llConnectionlessIQReport
0001734a l     F .text	00000004 llConnectionIQReport
0001734e l     F .text	00000004 llCTERequestFailedReport
00017352 l     F .text	00000004 llPeriodicAdvertisingSyncTransferReceivedReport
00017356 l     F .text	00000004 llCreateBIGCompleteReport
0001735a l     F .text	00000004 llTerminateBIGCompleteReport
0001735e l     F .text	00000004 llBIGSyncEstablishedReport
00017362 l     F .text	00000004 llBIGSyncLostReport
00017544 l     F .text	0000008e llDataPackageReport
00000000 l    df *ABS*	00000000 ll_slave.c
00000000 l    df *ABS*	00000000 api_c.c
00000000 l    df *ABS*	00000000 ctl_input.c
200022bf l     O .bss	00000001 fragment.7872
00000000 l    df *ABS*	00000000 ctl_output.c
00000000 l    df *ABS*	00000000 central.c
200022c0 l     O .bss	00000001 gapCentralRoleTaskId
200022c4 l     O .bss	00000004 pGapCentralRoleCB
00000000 l    df *ABS*	00000000 gapbondmgr.c
0001f56a l     F .text	00000024 gapBondMgrInvertCharCfgItem
0001f58e l     F .text	0000002a gapBondMgrGetStateFlags
0001f5b8 l     F .text	00000050 gapBondMgrBondTotal
0001f608 l     F .text	00000034 gapBondFreeAuthEvt
0001f63c l     F .text	00000136 gapBondMgrEraseBonding
0001f772 l     F .text	0000002a gapBondMgrEraseAllBondings
0001f79c l     F .text	00000050 gapBondMgr_SyncWhiteList
0001f7ec l     F .text	00000098 gapBondMgr_SyncResolveList
0001f884 l     F .text	00000028 gapBondSetupPrivFlag
0001f8ac l     F .text	000000bc gapBondMgrReadBonds
0001f968 l     F .text	0000000c gapBondMgrSendServiceChange
0001f974 l     F .text	00000074 gapBondMgrBondReq
0001f9e8 l     F .text	0000019c gapBondMgrAuthenticate
0001fb84 l     F .text	0000004a gapBondMgrFindAddr
0001fbce l     F .text	000001a4 gapBondMgrAddBond
0001fd72 l     F .text	00000048 gapBondPairStateCB
0001fdba l     F .text	00000082 gapBondPasscodeCB
0001fe3c l     F .text	0000004a gapBondMgrGetPublicAddr
0001fe86 l     F .text	00000078 gapBondMgrChangeState.constprop.8
0001fefe l     F .text	000000ea gapBondMgrUpdateCharCfg
20003dd4 l     O .bss	00000010 gapBond_Cent_OOBData
20003de4 l     O .bss	00000010 gapBond_Peri_OOBData
200022c8 l     O .bss	00000001 autoSyncResolveList
200022c9 l     O .bss	00000001 autoSyncWhiteList
200022ca l     O .bss	00000001 bondIdx
200022cc l     O .bss	00000004 bonds
200022d0 l     O .bss	00000001 eraseAllBonds
200022d1 l     O .bss	00000001 gapBondMax
200022d2 l     O .bss	00000001 gapBondMgr_TaskID
200022d3 l     O .bss	00000001 gapBond_AutoFail
200022d4 l     O .bss	00000001 gapBond_Cent_Bonding
200022d5 l     O .bss	00000001 gapBond_Cent_IOCap
200022d6 l     O .bss	00000001 gapBond_Cent_MITM
200022d7 l     O .bss	00000001 gapBond_Cent_OOBDataFlag
200022d8 l     O .bss	00000004 gapBond_Cent_Passcode
200022dc l     O .bss	00000001 gapBond_Peri_Bonding
200022dd l     O .bss	00000001 gapBond_Peri_IOCap
200022de l     O .bss	00000001 gapBond_Peri_MITM
200022df l     O .bss	00000001 gapBond_Peri_OOBDataFlag
200022e0 l     O .bss	00000004 gapBond_Peri_Passcode
200022e4 l     O .bss	00000001 gattCCFlag
200022e8 l     O .bss	00000004 pAttr.4776
200022ec l     O .bss	00000004 pAuthEvt
200022f0 l     O .bss	00000004 pGapBondCB
200022f4 l     O .bss	00000004 pGapCentBondCB
200022f8 l     O .bss	00000004 pGapPeriBondCB
200022fc l     O .bss	00000002 service.4777
200021e0 l     O .data	00000008 gapBondCB
200021e9 l     O .data	00000001 gapBond_AutoFailReason
200021ea l     O .data	00000001 gapBond_BondFailOption
200021eb l     O .data	00000001 gapBond_Cent_KeyDistList
200021ec l     O .data	00000001 gapBond_Cent_PairingMode
200021ee l     O .data	00000001 gapBond_KeySize
200021ef l     O .data	00000001 gapBond_Peri_KeyDistList
200021f0 l     O .data	00000001 gapBond_Peri_PairingMode
00000000 l    df *ABS*	00000000 role.c
00000000 l    df *ABS*	00000000 att_server.c
00000000 l    df *ABS*	00000000 gapgattserver.c
0002197c l     F .text	00000068 ggs_SetAttrWPermit
000219e4 l     F .text	00000156 ggs_ReadAttrCB
00021b3a l     F .text	0000015c ggs_WriteAttrCB
20003df4 l     O .bss	00000016 deviceName
200020bc l     O .data	00000090 gapAttrTbl
00026084 l     O .text	00000008 gapService
200021f6 l     O .data	00000001 deviceNameCharProps
200021f3 l     O .data	00000001 appearanceCharProps
20002314 l     O .bss	00000002 appearance
200021f7 l     O .data	00000001 periConnParamCharProps
200021f8 l     O .data	00000008 periConnParameters
200021f5 l     O .data	00000001 centAddrResCharProps
200021f4 l     O .data	00000001 centAddrRes
20002316 l     O .bss	00000001 ggsAddService
20002318 l     O .bss	00000004 ggs_AppCBs
00000000 l    df *ABS*	00000000 ll.c
00000000 l    df *ABS*	00000000 ll_advertise.c
00000000 l    df *ABS*	00000000 ll_initiate.c
000224f8 l     F .text	00000092 llInitiateCreateCore
0002258a l     F .text	0000014c llInitiateSet
00022a0a l     F .text	00000074 llInitiateStart
0002289c l     F .text	0000016e llInitiateTraverseaChannel
00023772 l     F .text	0000022a llInitiateProcess
00022b86 l     F .text	0000005e llInitiateRxAuxInd
00000000 l    df *ABS*	00000000 ll_address.c
00000000 l    df *ABS*	00000000 libgcc2.c
00000000 l    df *ABS*	00000000 libgcc2.c
00000000 l    df *ABS*	00000000 libgcc2.c
00000000 l    df *ABS*	00000000 memcpy.c
00000000 l    df *ABS*	00000000 printf.c
00000000 l    df *ABS*	00000000 putchar.c
00000000 l    df *ABS*	00000000 puts.c
00000000 l    df *ABS*	00000000 wbuf.c
00000000 l    df *ABS*	00000000 wsetup.c
00000000 l    df *ABS*	00000000 fflush.c
00000000 l    df *ABS*	00000000 findfp.c
000247fe l     F .text	0000006a std
00000000 l    df *ABS*	00000000 fwalk.c
00000000 l    df *ABS*	00000000 makebuf.c
00000000 l    df *ABS*	00000000 nano-mallocr.c
00000000 l    df *ABS*	00000000 nano-mallocr.c
00000000 l    df *ABS*	00000000 nano-vfprintf.c
00024cb2 l     F .text	0000002a __sfputc_r
00000000 l    df *ABS*	00000000 nano-vfprintf_i.c
00000000 l    df *ABS*	00000000 putc.c
00000000 l    df *ABS*	00000000 sbrkr.c
00000000 l    df *ABS*	00000000 stdio.c
00000000 l    df *ABS*	00000000 writer.c
00000000 l    df *ABS*	00000000 closer.c
00000000 l    df *ABS*	00000000 fstatr.c
00000000 l    df *ABS*	00000000 isattyr.c
00000000 l    df *ABS*	00000000 lseekr.c
00000000 l    df *ABS*	00000000 memchr.c
00000000 l    df *ABS*	00000000 mlock.c
00000000 l    df *ABS*	00000000 readr.c
00000000 l    df *ABS*	00000000 close.c
00000000 l    df *ABS*	00000000 fstat.c
00000000 l    df *ABS*	00000000 isatty.c
00000000 l    df *ABS*	00000000 lseek.c
00000000 l    df *ABS*	00000000 read.c
00000000 l    df *ABS*	00000000 sbrk.c
20002324 l     O .bss	00000004 heap_end.1518
00000000 l    df *ABS*	00000000 libgcc2.c
00000000 l    df *ABS*	00000000 gatt_uuid.c
00000000 l    df *ABS*	00000000 impure.c
20002158 l     O .data	00000060 impure_data
00000000 l    df *ABS*	00000000 reent.c
2000405c g     O .bss	00000001 nGA2440
000069da g     F .text	000000a0 gapProcessScanningPeriodicAdvEvt
00005bde g     F .text	000000aa GAP_Bond
00024380 g     F .text	0000002a putchar
0001dc6e g     F .text	0000008c LL_AddWhiteListDevice
00011122 g     F .text	00000004 HCI_LE_SetExtendedScanEnableCmd
000039bc g     F .text	00000056 tmos_start_reload_task
2000214c g     O .data	0000000c gapServiceCBs
00009c8a g     F .text	000000ea gattServApp_IsWriteLong
200015c8 g     F .highcode	0000003e ll_rx_wait_finish
0002557c g     F .text	00000030 _isatty_r
000214a8 g     F .text	00000006 ATT_BuildReadRsp
000053c2 g     F .text	00000024 gapGetDevAddress
0000fe9e g     F .text	0000001e SM_InitiatorInit
0000a3d2 g     F .text	000000b0 gattServApp_ProcessWriteReq
00023ec6 g     F .text	0000002c .hidden __ashldi3
0001536a g     F .text	000000aa LL_ConnectionParamReq
0000a1a6 g     F .text	00000100 gattServApp_ProcessExecuteWriteReq
000243aa g     F .text	000000da _puts_r
00020f02 g     F .text	00000018 GAPBondMgr_Init
20002258 g     O .bss	00000004 pGapScanRecs
20002008 g     F .highcode	00000042 LL_ResolvinglistLocalRpaAddressGetIrk
00005d06 g     F .text	00000004 GAP_ResolvePrivateAddr
000255ac g     F .text	00000034 _lseek_r
2000033e g     F .highcode	0000000e FLASH_ROM_OUT
2000097c g     F .highcode	00000206 TMOS_SystemProcess
0000bbfc g     F .text	0000004e l2capFreeChannel
0000d44c g     F .text	000000aa l2capSendConnectRsp
0000e602 g     F .text	0000000e smStopRspTimer
0001c126 g     F .text	00000034 RFEND_Reset
000114f4 g     F .text	000000c8 ll_connect_phy_update_dataLen
00011708 g     F .text	0000001e ll_connect_get_master_number
0000e06c g     F .text	0000005c smSendSMMsg
00021732 g     F .text	0000001c ATT_ParseReadReq
0000e8c6 g     F .text	0000003c smProcessPairingReq
00007ad8 g     F .text	0000001a GAP_CentConnRegister
0000c022 g     F .text	0000002a L2CAP_bm_alloc
0000f5fe g     F .text	00000034 smpParseIdentityAddrInfo
00004ad6 g     F .text	00000046 attSendRspMsg
0000f19c g     F .text	0000000a smpBuildPairingRsp
0001b1f2 g     F .text	000000bc LL_WhitelistAdd
00011088 g     F .text	00000004 HCI_ReadBDADDRCmd
0000930e g     F .text	00000092 gattProcessFindInfo
00004be8 g     F .text	0000001e ATT_BuildWriteReq
0000f698 g     F .text	0000002a smpParsePairingConfirm
0001111e g     F .text	00000004 HCI_LE_SetExtendedScanParametersCmd
0002194a g     F .text	00000032 ATT_HandleValueInd
20003f68 g     O .bss	00000004 l2capPsm
20004060 g     O .bss	00000004 ftuneFlag
0000b528 g     F .text	00000028 GATTServApp_InitCharCfg
0001ea66 g     F .text	00000154 LL_SetExtendedScanParameters
00024340 g     F .text	00000040 printf
200029b8 g       .data	00000000 __global_pointer$
0000d876 g     F .text	00000030 linkDB_State
000110a8 g     F .text	00000004 HCI_LE_ConnUpdateCmd
000021a6 g     F .text	00000028 ADC_InterTSSampInit
0000d7aa g     F .text	00000036 linkDB_NumActive
200022b8 g     O .bss	00000004 pfnResponderCBs
0000e678 g     F .text	00000060 smEndPairing
20002234 g     O .bss	00000004 pGapAdvertState
2000407c g     O .bss	00000001 gapRole_AdvEnabled
2000407d g     O .bss	00000001 gapRole_AdvChanMap
0000dd9c g     F .text	00000020 smDetermineKeySize
000254a8 g     F .text	00000036 __sseek
0002607c g     O .text	00000002 secondaryServiceUUID
000248b8 g     F .text	00000070 __sinit
00024490 g     F .text	000000c0 __swbuf_r
200002bc g     F .highcode	0000000e mDelayuS
20000276  w    F .highcode	00000046 HardFault_Handler
00005308 g     F .text	00000048 gapAddAddrAdj
00021654 g     F .text	00000042 ATT_FindByTypeValueRsp
00009dee g     F .text	0000001c gattResetServerInfo
0000d752 g     F .text	00000040 linkDB_FindFirst
0001f206 g     F .text	00000004 HCI_LE_ConnectionUpdateCompleteCback
0000d928 g     F .text	00000060 linkDB_GetSMEvtID
00024872 g     F .text	00000046 __sfmoreglue
000218b8 g     F .text	00000042 ATT_ParsePrepareWriteReq
200000a2  w      .highcode	00000000 GPIOB_IRQHandler
000255fc g     F .text	00000002 __malloc_unlock
00004c06 g     F .text	00000030 ATT_BuildPrepareWriteReq
00003f52 g     F .text	00000024 ble_ll_common_rand16
00020af4 g     F .text	00000024 GAPBondMgr_PeriSecurityReq
000220c6 g     F .text	00000120 LL_ProcessEvent
00008524 g     F .text	0000008c gattReadByType
00006130 g     F .text	00000068 GAP_SetParamValue
00008be0 g     F .text	000000c0 gattProcessWriteLong
0000264a g     F .text	0000007c HAL_ProcessEvent
2000407e g     O .bss	00000001 gapRole_AdvEventType
0001f45c g     F .text	00000036 GAPRole_CentralEstablishLink
0000f6c2 g     F .text	00000022 smpParsePairingFailed
200000a0  w      .highcode	00000000 GPIOA_IRQHandler
00004eac g     F .text	00000010 ATT_ExecuteWriteReq
20003ff8 g     O .bss	00000004 gptrBBReg
00015180 g     F .text	0000003c LL_ChannelReportingIND
00003c8a g     F .text	0000003c TMOS_ProcessEventRegister
2000009a  w      .highcode	00000000 SysTick_Handler
0000e7b0 g     F .text	000000de smProcessEncryptChange
0001108c g     F .text	00000004 HCI_ReadRssiCmd
000212ae g     F .text	00000004 GAPRole_UpdatePHY
0000c560 g     F .text	0000015e l2capProcessReq
00011094 g     F .text	00000004 HCI_LE_SetRandomAddressCmd
00003abc g     F .text	0000006c tmos_get_task_timer
000049c6 g     F .text	0000002e ATT_ParseErrorRsp
000110a0 g     F .text	00000004 HCI_LE_ClearWhiteListCmd
00005378 g     F .text	0000004a gapFreeAuthLink
0001e954 g     F .text	00000112 LL_SetPeriodicAdvertisingEnable
00008ca0 g     F .text	00000094 GATT_ServiceChangedInd
0001d430 g     F .text	00000026 API_LE_SetResolvableAddressTimeoutCmd
0001f266 g     F .text	00000004 HCI_LE_ScanTimeoutEvent
2000407f g     O .bss	00000001 gapRole_MasterAndSlave
0000c33a g     F .text	0000001e l2capParseParamUpdateRsp
0000dfe0 g     F .text	0000003c smSetPairingReqRsp
0001bb7c g     F .text	000000d8 BLE_AccessAddressGenerate
00009ecc g     F .text	000001c0 gattServerProcessMsgCB
0001dbd8 g     F .text	00000096 LL_SetDataLength
000053f0 g     F .text	0000000c gapGetIRK
20003fd8 g     O .bss	0000000a gBleHostPara
0001d476 g     F .text	00000054 API_LE_SetExtendedAdvertisingParametersCmd
20000090  w      .highcode	00000000 NMI_Handler
00008d34 g     F .text	0000001c GATT_bm_free
0001189e g     F .text	00000178 ll_connect_get_start_point
0001112a g     F .text	00000004 HCI_SendDataPkt
0001f26e g     F .text	00000004 HCI_LE_ChannelSelectionAlgorithmEvent
00026068 g     O .text	00000002 gapServiceUUID
0001d3be g     F .text	00000026 API_LE_AddDeviceToResolvingList
00007278 g     F .text	0000003c gapCentProcessHCICmdEvt
20003f6c g     O .bss	00000001 l2capTaskID
20002220 g     O .bss	00000004 attClientNotifyTxCB
00023c6a g     F .text	00000054 LL_ResolvinglistClearall
2000076e g     F .highcode	00000012 tmos_memset
20000832 g     F .highcode	0000014a tmos_proces_system_time
000091a4 g     F .text	0000009a gattClientHandleConnStatusCB
0000c906 g     F .text	0000005e l2capNotifyData
00023278 g     F .text	00000140 ll_initiate_rx_aux_ind
200000b4  w      .highcode	00000000 UART1_IRQHandler
000110d0 g     F .text	00000004 HCI_LE_AddDeviceToResolvingList
00004d8c g     F .text	00000024 ATT_ReadByTypeReq
0000bb34 g     F .text	0000002c l2capFindLocalCID
0000ca82 g     F .text	0000005c l2capNotifyChannelEstEvt
00009528 g     F .text	00000134 gattProcessMultiReqs
000104ee g     F .text	00000064 HOST_LE_LongTermKeyRequestEvent
00009c2c g     F .text	00000030 gattServApp_FindPrepareWriteQ
0000c4b2 g     F .text	00000022 l2capParseSignalHdr
0001119a g     F .text	00000020 LL_GetCISCoreByConnHandle
00005f24 g     F .text	00000020 gapFreeEstLink
00004d00 g     F .text	0000001c ATT_ParseFindByTypeValueRsp
00021ed0 g     F .text	000000e2 GGS_SetParameter
200016a8 g     F .highcode	00000124 ll_tx_wait_finish
0000911a g     F .text	0000008a gattResetClientInfo
0001b438 g     F .text	000000b4 BB_DevInit
0002554a g     F .text	00000032 _fstat_r
20000780 g     F .highcode	00000014 tmos_strlen
20001606 g     F .highcode	000000a2 ble_ll_chkcrc
0001161e g     F .text	0000000c ll_connect_flowcontrol_init
0001d83e g     F .text	00000022 LL_ReadRssi
0001f212 g     F .text	00000004 HCI_LE_RemoteConnectionParameterRequestCback
0000d508 g     F .text	0000002a L2CAP_DisconnectReq
20000810 g     F .highcode	00000022 tmos_isbufset
0000d8a6 g     F .text	00000028 linkDB_UpdateMTU
0000e95c g     F .text	00000090 sm_ah
200041e4 g     O .bss	00000004 errno
0000d4f6 g     F .text	00000012 L2CAP_CmdReject
200041e0 g     O .bss	00000004 pfnAdvertiseEventCBs
00003746 g     F .text	000000c0 tmos_update_callback_timer
000049a8 g     F .text	0000001e ATT_GetMTU
0001a778 g     F .text	00000a7a ll_slave_process
20002208 g       .bss	00000000 _sbss
0001b558 g     F .text	00000066 SetTxPower
00025b40 g     O .text	00000019 IOCapMatrix
0001b4ec g     F .text	0000006c GetTxPower
00005e96 g     F .text	0000008e gapPasskeyNeededCB
000110c8 g     F .text	00000004 HCI_LE_RemoteConnParamReqReplyCmd
0000965c g     F .text	000001dc gattClientProcessMsgCB
0001e318 g     F .text	0000004e LL_SetResolvableAddressTimeout
0000d988 g     F .text	000000b2 linkDB_Add
2000220c g     O .bss	00000004 RTCTigFlag
00026070 g     O .text	00000002 includeUUID
00004f1c g     F .text	0000014e GAP_ParamInit
20000330 g     F .highcode	0000000e FLASH_ROM_IN
00014ec4 g     F .text	000000aa LL_PHYUpdateIND
0001f12a g     F .text	000000a8 LL_SendDataPkt
0001d588 g     F .text	0000002e API_LE_ExtendedCreateConnectionCmd
000115ea g     F .text	00000034 ll_connect_parse_datapdu_head
20003f4c g     O .bss	00000014 gapCentralCBs
00025cac g     O .text	00000014 VER_LIB
0001f276 g     F .text	00000190 GAPRole_CentralProcessEvent
00010c8e g     F .text	0000005a HOST_ReadRemoteVersionInfoEvent
000080d8 g     F .text	0000005e GAP_PeripheralParamInit
000040c0 g     F .text	000000c0 tmos_snv_init
0001e26c g     F .text	0000004c LL_ClearResolvingList
0001354a g     F .text	00000090 LL_CoreClose
00014998 g     F .text	00000010 LL_MasterEnalbe
0001d886 g     F .text	000000b0 LL_SetRandomAddress
0000f1a6 g     F .text	000000b4 sm_c1
00004db0 g     F .text	0000000e ATT_ParseReadRsp
0001109c g     F .text	00000004 HCI_LE_CreateConnCancelCmd
00007002 g     F .text	00000056 gapProcessPeriodicAdvertisingSyncLostEvt
20003f60 g     O .bss	00000008 gapCentralConnCBs
00015094 g     F .text	00000082 LL_PowerControlReq
00019590 g     F .text	00000490 ll_scan_rx_legacy_adv
200022b4 g     O .bss	00000004 pfnInitiatorCBs
200000b2  w      .highcode	00000000 UART0_IRQHandler
20003e10 g     O .bss	0000002c gTmosPara
0001f274 g     F .text	00000002 HCI_LE_TransmitPowerReportingEvent
00021154 g     F .text	0000012a GAPRole_GetParameter
0000600a g     F .text	0000006a GAP_Signable
0001254e g     F .text	0000002a ll_connect_procedure_timeout
0001def6 g     F .text	0000014a LL_StartEncrypt
000113a2 g     F .text	00000152 ll_connect_update_dataLen
000090bc g     F .text	00000028 gattClientNotifyTxCB
0002428a g     F .text	000000b6 memcpy
00012120 g     F .text	00000088 LL_ConnectToStandby
00010088 g     F .text	0000001e SM_ResponderInit
20004080 g     O .bss	00000001 gapRole_PeriodicAdvEnabled
00011090 g     F .text	00000004 HCI_LE_ReadBufSizeCmd
00009308 g     F .text	00000006 GATT_RegisterForInd
00006198 g     F .text	00000048 GAP_Init
0001d32a g     F .text	00000030 API_LE_RemoteConnParamReqReplyCmd
0000ff84 g     F .text	000000a6 SM_ProcessEvent
0000bf48 g     F .text	0000005e L2CAP_ParseConnectReq
0000bc72 g     F .text	0000002c l2capHandleTimerCB
00024868 g     F .text	0000000a _cleanup_r
000191e0 g     F .text	00000250 ll_scan_rx_aux_rsp
0000b6b6 g     F .text	00000034 GATTServApp_Init
0000d7ea g     F .text	00000028 linkDB_Register
20004081 g     O .bss	00000001 gapRole_PHYTx
00016480 g     F .text	000000c6 LL_LengthRsp
00007af2 g     F .text	0000006e GAP_CentralParamInit
0000e01c g     F .text	00000016 smStartEncryption
0001f23c g     F .text	0000001e HCI_LE_ExtendedAdvertisingReportEvent
000110c4 g     F .text	00000004 HCI_LE_LtkReqNegReplyCmd
200022a0 g     O .bss	00000004 l2capChannels
0001d38c g     F .text	00000032 API_LE_SetDataLengthCmd
00024484 g     F .text	0000000c puts
0001da58 g     F .text	00000140 LL_RemoteConnParamReqReply
0000c454 g     F .text	0000005e l2capParseConnectRsp
00005f44 g     F .text	0000007a gapUpdateConnSignCounter
0001f234 g     F .text	00000004 HCI_LE_DirectAdvertisingReportCback
0000de5a g     F .text	00000186 smSavePairInfo
0000cb1c g     F .text	00000066 l2capNotifyEvent
00004caa g     F .text	00000046 ATT_ExchangeMTUReq
0000bf20 g     F .text	00000028 L2CAP_HostNumCompletedPkts
20002304 g     O .bss	00000001 gapMaxScanRes
00014d10 g     F .text	00000026 LL_RejectInd
0000b012 g     F .text	00000068 GATT_VerifyReadPermissions
000048d8 g     F .text	00000094 ATT_ParsePacket
20000dd6 g     F .highcode	000000c0 ll_connect_event_continue
0001124c g     F .text	0000003c ll_connect_set_connect_timeout
200022a4 g     O .bss	00000001 l2capFlowCtrlMode
200040bc g     O .bss	00000004 MemCtlEnd
0000ddbc g     F .text	0000009e smProcessRandComplete
00010d4a g     F .text	00000048 HOST_CommandStatusEvent
0000bfa6 g     F .text	0000002e L2CAP_ParseFlowCtrlCredit
0001d614 g     F .text	0000005a CreatePRBS15
20000e96 g     F .highcode	000000a6 LL_HopGetChannel
00025642 g     F .text	00000010 _fstat
0000dd42 g     F .text	0000005a SM_ParamInit
00016cf4 g     F .text	00000004 LL_CTERsp
00000004 g       .init	00000000 _einit
000032d2 g     F .text	00000060 tmos_msg_send
0000e936 g     F .text	00000020 smTimedOut
20003e3c g     O .bss	00000004 tasksArr
200040c0 g     O .bss	00000004 MemCtlPartition
00009c74 g     F .text	00000016 gattServApp_FindAuthorizeAttrCB
00010adc g     F .text	00000040 HOST_LE_PeriodicAdvertisingSyncLostEvent
00025a54 g     O .text	00000010 btBaseUUID
0000d548 g     F .text	00000012 L2CAP_ConnParamUpdateRsp
20002308 g     O .bss	00000006 gapRole_AdvDirectAddr
2000147a g     F .highcode	0000014e BB_IRQLibHandler
200019a4 g     F .highcode	00000212 LLE_IRQLibHandler
200020b0 g     O .data	0000000c smResponderCBs
20003e40 g     O .bss	0000001c pfnProcessCBs
00010390 g     F .text	00000098 HOST_LE_AdvPktReportEvent
0000bdc4 g     F .text	0000001a l2capStartTimer
0000bb90 g     F .text	00000030 l2capFindPsm
0001b30c g     F .text	00000014 LL_Encrypt
200000a6  w      .highcode	00000000 BB_IRQHandler
200003cc g     F .highcode	0000036a FLASH_EEPROM_CMD
0001f25e g     F .text	00000004 HCI_LE_PeriodicAdvertisingReportEvent
0000f192 g     F .text	0000000a smpBuildPairingReq
0001d0b6 g     F .text	00000014 RFEND_TXFtune
0000dbd4 g     F .text	00000030 smpBuildEncInfo
20000098  w      .highcode	00000000 Break_Point_Handler
00002402 g     F .text	000000a6 GPIOB_ModeCfg
000201e0 g     F .text	000000f6 GAPBondMgr_GetParameter
00014da8 g     F .text	0000008a LL_PHYReq
00005350 g     F .text	00000028 gapDetermineAddrType
0000dc3e g     F .text	00000030 smpBuildIdentityInfo
00011068 g     F .text	00000004 HCI_MB_DisconnectCmd
20002274 g     O .bss	00000004 pfnClientProcessMsgCB
0001c2d0 g     F .text	00000080 RFEND_RXFilter
0001111a g     F .text	00000004 HCI_LE_SetPeriodicAdvertisingEnableCmd
000053e6 g     F .text	0000000a gapGetDevAddressMode
0000259a g     F .text	00000040 Lib_Write_Flash
00013efe g     F .text	000007ee ll_master_process
00023492 g     F .text	000002e0 ll_initiate_rx_legacy_adv
0000aa1a g     F .text	000002ea GATTServApp_ReadAttr
0000f274 g     F .text	0000011e smpInitiatorProcessPairingRsp
000253fa g     F .text	00000030 _sbrk_r
0000febc g     F .text	000000c8 SM_PasskeyUpdate
20004082 g     O .bss	00000001 gapRole_PHYRx
00004820 g     F .text	00000046 ATT_ConvertUUIDto128
000053fc g     F .text	0000000c gapGetSRK
0000451e g     F .text	000002ce tmos_snv_write
20002300 g     O .bss	00000004 pGapRolesPeri_AppCGs
0000f850 g     F .text	000000ec smProcessDataMsg
2000009e  w      .highcode	00000000 TMR0_IRQHandler
000218ac g     F .text	0000000c ATT_WriteRsp
0001da30 g     F .text	00000028 LL_CreateConnCancel
00011288 g     F .text	000000c0 ll_connect_init_dataLen
0000e1c0 g     F .text	00000010 smPairingSendSingingInfo
20001db8 g     F .highcode	000000d2 tmos_memory_allocate
0001d81a g     F .text	00000024 LL_ReadBDAddr
20003e5c g     O .bss	00000002 eventsClear
000255fe g     F .text	00000034 _read_r
00018bee g     F .text	000005f2 ll_scan_rx_aux_ind
20003fe4 g     O .bss	00000004 pL2capDataBuf
00010488 g     F .text	00000066 HOST_LE_ReadRemoteUsedFeaturesCompleteEvent
00019526 g     F .text	0000006a llScanAuxAdvertising
0001527a g     F .text	00000050 LL_FeatureReq
0001887c g     F .text	00000372 llScanPeriodicAdvertising
20000310 g     F .highcode	00000012 FLASH_ROM_BEG
000086b2 g     F .text	00000052 gattSendFlowCtrlEvt
00022a7e g     F .text	00000108 ll_initiate_aux_set
00004b1c g     F .text	00000010 ATT_ErrorRsp
000044c4 g     F .text	0000005a tmos_snv_notify
20003fa4 g     O .bss	00000004 linkDB
0000da74 g     F .text	0000005c linkDB_GetPairingParam
000216f0 g     F .text	00000042 ATT_ReadByTypeRsp
00021446 g     F .text	00000016 ATT_BuildExchangeMTURsp
0002128a g     F .text	00000024 GAPRole_TerminateLink
000100a6 g     F .text	000000d0 SM_StartPairing
0000ae72 g     F .text	000001a0 gattServApp_ProcessFindByTypeValueReq
00026054 g     O .text	00000002 appearanceUUID
000047ec g     F .text	00000004 tmos_snv_compact
00019430 g     F .text	000000f6 llScanAuxSet
0000dc04 g     F .text	0000003a smpBuildIdentityAddrInfo
000080aa g     F .text	0000002e GAP_PeriConnRegister
200007f4 g     F .highcode	0000001c tmos_revmemcpy
00003360 g     F .text	00000086 TMOS_CB_PeriodicProcessEvent
00020ab6 g     F .text	0000003e GAPBondMgr_PasscodeRsp
200002ca g     F .highcode	00000028 mDelaymS
20000094  w      .highcode	00000000 Ecall_M_Mode_Handler
000210da g     F .text	0000007a GAPRole_ParamInit
00005416 g     F .text	00000028 gapIncSignCounter
0001b8fa g     F .text	000000a4 ll_multi_states_process
00016cf8 g     F .text	0000001c LL_SendAck
00005846 g     F .text	000000b2 gapSendLinkUpdateEvent
00004816 g     F .text	0000000a ATT_ParamInit
20003fe8 g     O .bss	00000002 l2cap_head_length
0000e9ec g     F .text	00000024 sm_xor
00025652 g     F .text	00000010 _isatty
00010e5e g     F .text	00000206 HOST_RecvDataPackets
0002608c g     O .text	00000004 _global_impure_ptr
00019af0 g     F .text	00000160 LL_ScanSetRF
00008d7a g     F .text	0000013a GATT_ProcessEvent
2000034c g     F .highcode	00000048 FLASH_ROM_ADDR
0000845e g     F .text	0000002e GAP_PeriDevMgrInit
0001f1da g     F .text	00000004 HCI_ReadRemoteVersionInfoCback
0001dcfa g     F .text	00000172 LL_ConnUpdate
00004dbe g     F .text	00000010 ATT_ReadReq
00006cf4 g     F .text	00000260 gapProcessExtAdvertDevInfo
0001f1e6 g     F .text	00000004 HCI_NumberOfCompletedPacketsCback
0001ebba g     F .text	000000aa LL_SetExtendedScanEnable
0000506a g     F .text	00000058 sendTerminateEvent
00008eb4 g     F .text	000001d8 gattProcessReadByType
20002230 g     O .bss	00000004 pEstLink
00023ef2 g     F .text	00000398 .hidden __udivdi3
000212b2 g     F .text	00000082 GAPRole_CentralInit
00020a88 g     F .text	0000002e GAPBondMgr_CentralRegister
00015010 g     F .text	00000084 LL_CISRsp
0001f20e g     F .text	00000004 HCI_LE_LongTermKeyRequestCback
000060a2 g     F .text	0000008e GAP_TerminateLinkReq
00011ea8 g     F .text	00000190 LL_GetNextConnectEventTime
0001f1ee g     F .text	00000004 HCI_EncryptionKeyRefreshCompleteCback
20003fec g     O .bss	00000004 llRecvDataDisable
20001bb6 g     F .highcode	00000082 RF_HopGetChannel
00010b56 g     F .text	00000058 HOST_LE_AdvertisingSetTerminatedEvent
0001d206 g     F .text	00000022 API_LE_CreateConnCancelCmd
0001e040 g     F .text	0000012c LL_LtkReqReply
00010b1c g     F .text	0000003a HOST_LE_ScanTimeoutEvent
00025682 g     F .text	00000024 _sbrk
20004084 g     O .bss	00000002 gapRole_MinConnInterval
0000bc9e g     F .text	00000058 l2capFreePendingPkt
20002208 g     O .bss	00000001 halTaskID
0000e6d8 g     F .text	00000082 setupInitiatorKeys
0000fd3a g     F .text	00000054 SM_CalcRandomAddr
00005ca8 g     F .text	00000054 GAP_PasscodeUpdate
0001d562 g     F .text	00000026 API_LE_SetExtendedScanEnableCmd
00005486 g     F .text	000000a8 gapProcessDisconnectCompleteEvt
0000ee20 g     F .text	0000002e leftshift_onebit
20000308 g     F .highcode	00000008 Main_Circulation
00022f0c g     F .text	00000042 ll_initiate_to_standby
20003ff0 g     O .bss	00000004 pfnConnectEventCBs
0000f5d4 g     F .text	0000002a smpParseEncInfo
20003eac g     O .bss	00000004 fnGetClockCBs
20003fea g     O .bss	00000002 l2cap_fragment_length
00003cc6 g     F .text	00000172 BLE_LibInit
0001bd92 g     F .text	00000058 LLE_DevInit
00004b6a g     F .text	00000040 ATT_BuildFindByTypeValueReq
0001d142 g     F .text	00000024 API_ReadBDADDRCmd
000135da g     F .text	00000014 LL_CoreInit
0001b694 g     F .text	00000132 BLE_SetPHYTxMode
200040c4 g     O .bss	00000004 MemCtlStart
20001d88 g     F .highcode	00000030 RFEND_WaitTune
00021696 g     F .text	0000005a ATT_ParseReadByTypeReq
0001e16c g     F .text	0000004c LL_LtkReqNegReply
0000e956 g     F .text	00000006 smUint8ToAuthReq
00003ee8 g     F .text	00000046 ll_get_sca_own
000036e6 g     F .text	0000002e tmos_set_event
0000e75a g     F .text	00000056 smNextPairingState
00003ea8 g     F .text	00000040 ll_get_sca_divisor
00018792 g     F .text	000000ea llScanPeriodicSetRF
0000bf1a g     F .text	00000006 L2CAP_GetMTU
00023aa6 g     F .text	00000012 ll_resolvinglist_renew_set
000102c6 g     F .text	000000ca HOST_LE_ConnectionCompleteEvent
00017960 g     F .text	00000032 ll_scan_whitelist
200002f2 g     F .highcode	00000016 RTC_IRQHandler
00009496 g     F .text	00000092 gattProcessReadByGrpType
0002145c g     F .text	00000024 ATT_BuildFindInfoRsp
200041e8 g       .bss	00000000 _ebss
00022734 g     F .text	00000168 LL_InitiateSetRF
0000cf2a g     F .text	00000108 l2capSendSegment
0001531a g     F .text	00000050 LL_SlaveFeatureReq
00026078 g     O .text	00000002 primaryServiceUUID
0001d19c g     F .text	00000024 API_LE_ReadBufSizeCmd
0000b5c4 g     F .text	000000f2 GATT_InitServer
0000879c g     F .text	0000004c GATT_ExchangeMTU
0001f21e g     F .text	00000016 HCI_LE_EnhancedConnectionCompleteCback
200022b0 g     O .bss	00000004 pSmGenKey
0001d0ca g     F .text	00000016 API_DisconnectCmd
00007058 g     F .text	000000a6 gapFreeScanRecs
00013518 g     F .text	00000032 LL_CoreDataListFree
0000e140 g     F .text	00000038 smPairingSendIdentityAddrInfo
00017366 g     F .text	0000019c LL_ProcessTMOSReportMsg
00005a0c g     F .text	0000003e gapProcessNewAddr
00011726 g     F .text	00000022 ll_connect_get_slave_number
000202d6 g     F .text	0000009a GAPBondMgr_LinkTerm
000233b8 g     F .text	000000da ll_initiate_rx_aux_rsp
0000d532 g     F .text	00000016 L2CAP_ConnParamUpdateReq
0000254c g     F .text	00000032 UART1_DefInit
0000d3c2 g     F .text	00000062 l2capBuildCmdReject
00008136 g     F .text	00000050 gapSendMakeDiscEvent
0000e130 g     F .text	00000010 smPairingSendEncInfo
00003f96 g     F .text	00000062 TMOS_TempSample
00010c3e g     F .text	00000050 HOST_EncryptionChangeEvent
00006a7a g     F .text	00000038 gapCancelLinkReq
0002148c g     F .text	0000001c ATT_BuildReadByTypeRsp
000155da g     F .text	00000120 LL_EncReq
0001e3de g     F .text	000002da LL_SetExtendedAdvertisingParameters
00021c96 g     F .text	0000023a GGS_ParamInit
0001b8c6 g     F .text	00000034 ll_multi_states_check
000027e6 g     F .text	00000034 HAL_Init
20000394 g     F .highcode	00000038 FLASH_ROM_WAIT
0001d118 g     F .text	0000002a API_WriteAFHChannelModeCmd
000050ce g     F .text	00000006 gapRegisterPeripheral
0001b99e g     F .text	0000008c ble_ll_hw_api_shut
00025374 g     F .text	00000086 _putc_r
0001a15c g     F .text	00000046 LL_ScanEnable
00020370 g     F .text	000000e4 GAPBondMgr_ResolveAddr
000093a0 g     F .text	0000007e gattProcessFindByTypeValue
200017cc g     F .highcode	000001d8 BLE_CheckHoppingMap
00010ce8 g     F .text	00000062 HOST_CommandCompleteEvent
00008b0c g     F .text	000000d4 gattProcessReliableWrites
000030ca g     F .text	000000b6 Central_Init
00023e9a g     F .text	0000002c .hidden __lshrdi3
20004064 g     O .bss	00000001 nGA2480
20003ff4 g     O .bss	00000004 gptrAESReg
0001ec64 g     F .text	000004c6 LL_ExtendedCreateConnection
00014f6e g     F .text	00000048 LL_MinUsedChannel
00005130 g     F .text	00000036 gapL2capConnParamUpdateReq
0001088e g     F .text	000000fc HOST_LE_ExtendedAdvertisingReportEvent
0001a076 g     F .text	000000c8 LL_ScanToStandby
000052b8 g     F .text	00000050 GAP_ParamsInit
00011064 g     F .text	00000004 HCI_DisconnectCmd
00009bdc g     F .text	00000050 gattServApp_ClearPrepareWriteQ
0001c15a g     F .text	00000176 RFEND_DevInit
20004088 g     O .bss	00000004 gapRole_state
000050d4 g     F .text	00000006 gapRegisterPeripheralConn
000026c6 g     F .text	00000120 CH58X_BLEInit
00010bf6 g     F .text	00000048 HOST_DisconnectionCompleteEvent
000147f2 g     F .text	000001a6 LL_MasterCreateCore
00023cbe g     F .text	00000012 LL_ResolvinglistInit
00025fb8 g     O .text	00000020 __sf_fake_stderr
00011126 g     F .text	00000004 HCI_LE_ExtendedCreateConnectionCmd
0001d0e0 g     F .text	00000004 API_MD_DisconnectCmd
00009d74 g     F .text	0000001c gattFindService
000214ba g     F .text	0000001c ATT_BuildReadByGrpTypeRsp
0001d53c g     F .text	00000026 API_LE_SetExtendedScanParametersCmd
00004c36 g     F .text	0000000c ATT_BuildExecuteWriteReq
200041e8 g       .bss	00000000 end
00005cfc g     F .text	0000000a GAP_RegisterForMsgs
0002182c g     F .text	00000042 ATT_ReadByGrpTypeRsp
0000ee4e g     F .text	00000038 padding
0000dad0 g     F .text	0000004a linkDB_NeedSendKey
200000c0  w      .highcode	00000000 UART2_IRQHandler
0000520e g     F .text	000000aa GAP_SecParamsInit
0000d0e6 g     F .text	0000003a l2capSendPkt
200000bc  w      .highcode	00000000 PWMX_IRQHandler
20003e0c g     O .bss	00000004 msg_qHead
000226d6 g     F .text	0000005e ll_initiate_event_closed
0000cbb4 g     F .text	0000009e l2capFreeTxSDU
000048d2 g     F .text	00000006 ATT_RegisterServer
0001b7c6 g     F .text	00000100 BLE_SetPHYRxMode
000135ee g     F .text	00000262 LL_PeriodicScanHopGetChannel2
0001162a g     F .text	00000028 LL_ConnectFlowcontrolTx
0000923e g     F .text	00000058 gattClientHandleTimerCB
00017d0a g     F .text	000000ce ll_scan_tx
00025b5c g     O .text	00000010 const_Rb
00014fb6 g     F .text	0000002c LL_ClockAccuracyReq
00005b00 g     F .text	000000de GAP_Authenticate
00009296 g     F .text	00000072 gattStoreClientInfo
0001e366 g     F .text	00000078 LL_SetPHY
000048cc g     F .text	00000006 ATT_RegisterClient
0000ebea g     F .text	0000020e smResponderProcessLTKReq
00009a60 g     F .text	00000018 GATTServApp_ReadCharCfg
0000a958 g     F .text	000000c2 GATT_FindNextAttr
0001d2fa g     F .text	00000030 API_LE_LtkReqNegReplyCmd
00024cdc g     F .text	00000044 __sfputs_r
200022bd g     O .bss	00000001 nCO2401
000125ac g     F .text	000007ca ll_process_after_connect_event
20003ffc g     O .bss	00000004 gPaControl
000154b2 g     F .text	00000030 LL_ChannelStatusIND
0002208a g     F .text	0000003c ll_get_prime_number
0000d120 g     F .text	00000082 L2CAP_SendData
0000cdca g     F .text	000000f0 l2capEncapSendData
000255e0 g     F .text	0000001a memchr
0000d812 g     F .text	0000004c linkDB_Remove
00008710 g     F .text	00000032 gattStopTimer
000163aa g     F .text	000000d6 LL_LengthReq
200022ad g     O .bss	00000001 nextIdx
00024b32 g     F .text	000000a8 _free_r
00011112 g     F .text	00000004 HCI_LE_SetExtendedAdvertisingEnableCmd
200021e8 g     O .data	00000001 gapBond_Auto
0001112e g     F .text	0000004c HCI_ValidConnTimeParams
00004a20 g     F .text	000000b6 attSendMsg
200022a5 g     O .bss	00000001 l2capId
0000862e g     F .text	00000084 gattNotifyEvent
0001d35a g     F .text	00000032 API_LE_RemoteConnParamReqNegReplyCmd
200022a9 g     O .bss	00000001 l2capNumCoChannels
000175d2 g     F .text	0000003e llScanPeriodicAdvertiseTimeout
00009ba6 g     F .text	00000036 GATTServApp_SendServiceChangedInd
00009b14 g     F .text	00000034 gattServApp_WriteAttrCB
00000000 g       .init	00000000 _start
000214b4 g     F .text	00000006 ATT_BuildReadMultiRsp
000110b0 g     F .text	00000010 HCI_LE_StartEncyptCmd
0001bf22 g     F .text	00000204 RF_Rx
0000a526 g     F .text	00000094 GATT_FindHandleUUID
0001f492 g     F .text	00000028 GAPRole_CentralStartDiscovery
00021780 g     F .text	0000002a ATT_ParseReadBlobReq
200020a4 g     O .data	0000000c smInitiatorCBs
0000bbc0 g     F .text	0000003c l2capFindRemoteCID
0001f238 g     F .text	00000004 HCI_LE_PHYUpdateCompleteReportCback
00025662 g     F .text	00000010 _lseek
20001fc6 g     F .highcode	00000042 LL_ResolvinglistPeerRpaAddressGetIrk
20002224 g     O .bss	00000004 attServerNotifyTxCB
000110d8 g     F .text	00000004 HCI_LE_SetAddressResolvableEnableCmd
0001b2fa g     F .text	00000012 LL_WhitelistInit
00010654 g     F .text	00000128 HOST_LE_EnhancedConnectionCompleteEvent
20003fa8 g     O .bss	00000030 linkCBs
000050c2 g     F .text	00000006 gapRegisterCentral
0001bd14 g     F .text	0000007e BLE_IPCoreInit
0000941e g     F .text	00000078 gattProcessReadLong
0001d24c g     F .text	00000024 API_LE_AddWhiteListCmd
00014e32 g     F .text	00000092 LL_PHYRsp
00006074 g     F .text	0000002a GAP_TerminateAuth
0001e2b8 g     F .text	00000060 LL_SetAddressResolvableEnable
0000fa10 g     F .text	000000da smpResponderProcessPairingReq
0000f25a g     F .text	0000001a smpBuildSecurityReq
2000227c g     O .bss	00000004 clientInfoTbl
0001f4ba g     F .text	0000002a GAPRole_RegisterCentralTaskID
2000129a g     F .highcode	000001e0 AES_DevAESEnc
200000b8  w      .highcode	00000000 ADC_IRQHandler
000057be g     F .text	00000088 gapSendDeviceInitDoneEvent
0000fd8e g     F .text	000000e6 SM_GenerateAuthenSig
0000321a g     F .text	00000046 tmos_msg_allocate
00026080 g     O .text	00000002 serviceChangedUUID
0000bfd4 g     F .text	00000030 L2CAP_RegisterApp
0000e178 g     F .text	00000010 smPairingSendIdentityInfo
0000d85e g     F .text	00000018 linkDB_Role
20000000 g       .highcode	00000000 _highcode_vma_start
20000794 g     F .highcode	00000032 tmos_memdup
00010d92 g     F .text	0000003e HOST_DataBufferOverflowEvent
00014bd0 g     F .text	00000022 LL_StartEncReq
0001b3a6 g     F .text	00000092 AES_DevPktDec
00004d1c g     F .text	0000003e ATT_FindByTypeValueReq
0000c4d4 g     F .text	0000008c l2capParsePacket
00008d50 g     F .text	0000002a GATT_Init
20003eb0 g     O .bss	00000020 gapParams
0000801c g     F .text	00000026 GAP_GetAdvertisingAdvData
20003e60 g     O .bss	00000004 EventsArr
00004dde g     F .text	00000024 ATT_ReadByGrpTypeReq
0000883e g     F .text	00000004 GATT_ReadCharValue
200000b0  w      .highcode	00000000 TMR2_IRQHandler
00017610 g     F .text	0000017a llScanSet
0000db1a g     F .text	0000001a smpBuildPairingFailed
00020f1a g     F .text	000001c0 GAPBondMgr_ProcessEvent
00015414 g     F .text	0000009e LL_ConnectionParamRsp
0000c9de g     F .text	000000a4 l2capNotifyCreditEvt
00010e1a g     F .text	00000044 HOST_NumberOfCompletedPacketsEvent
000056c0 g     F .text	00000096 gapSendPairingReqEvent
2000408c g     O .bss	00000001 gapRole_AdvDirectType
0000cb82 g     F .text	00000032 l2capStoreFCPkt
0001d456 g     F .text	00000020 API_LE_SetPHYCmd
00003f2e g     F .text	00000024 ble_ll_common_rand8
0000eb54 g     F .text	00000096 sm_s1
0000b550 g     F .text	00000074 gattServApp_HandleConnStatusCB
200022a8 g     O .bss	00000001 l2capNumChannels
00004ebc g     F .text	00000034 ATT_ParseHandleValueInd
0001d936 g     F .text	000000fa LL_SetAdvControl
0002551a g     F .text	00000030 _close_r
2000204c g       .data	00000000 _data_vma
0000f826 g     F .text	0000002a smpParseSigningInfo
0000d22c g     F .text	000000ae l2capSendReq
0000564c g     F .text	00000074 gapSendBondCompleteEvent
0000e5c4 g     F .text	0000003e smGeneratePairingReqRsp
20004068 g     O .bss	00000004 gptrRFENDReg
000217aa g     F .text	00000030 ATT_ReadBlobRsp
000213da g     F .text	00000030 tmos_memory_get_max_block_len
20002310 g     O .bss	00000004 gapRole_signCounter
0000e032 g     F .text	0000003a smStartRspTimer
200000c6 g     F .highcode	00000174 SetSysClock
200022ac g     O .bss	00000001 l2capNumRecvDataPkts
00004c8c g     F .text	0000001e ATT_ParseExchangeMTURsp
0001f20a g     F .text	00000004 HCI_LE_ReadRemoteUsedFeaturesCompleteCback
200000aa  w      .highcode	00000000 USB_IRQHandler
2000124a g     F .highcode	00000050 LL_WhitelistLookup
00010bae g     F .text	00000048 HOST_LE_ChannelSelectionAlgorithmEvent
00023a28 g     F .text	00000012 LL_InitiateEnable
00004d5a g     F .text	00000032 ATT_ParseReadByTypeRsp
00023cd0 g     F .text	0000009c LL_AddrGenerateResolvableAddress
200040c8 g     O .bss	00000118 gBleLlPara
00024550 g     F .text	0000010c __swsetup_r
000138aa g     F .text	00000054 LL_HopInit
000073c4 g     F .text	000000fe gapProcessScanningDirectEvt
0000b158 g     F .text	0000021c gattServApp_ProcessReadByGrpTypeReq
000049f4 g     F .text	0000002c ATT_HandleValueCfm
00024928 g     F .text	000000a4 __sfp
0000884a g     F .text	00000012 GATT_WriteCharValue
000217da g     F .text	0000001a ATT_ParseReadMultiReq
20000bcc g     F .highcode	00000002 TMOS_TimerIRQHandler
00014c14 g     F .text	00000026 LL_UnknowRsp
00022430 g     F .text	0000004a ll_advertise_event_closed
2000408e g     O .bss	00000002 gapRole_MaxConnInterval
20004090 g     O .bss	00000010 gapRole_IRK
00010552 g     F .text	00000060 HOST_LE_RemoteConnectionParameterRequestEvent
00005d0a g     F .text	0000018c gapPairingCompleteCB
0002542a g     F .text	00000030 __sread
00011070 g     F .text	00000004 HCI_SetExtendedScanMaxLengthCmd
00005166 g     F .text	00000016 gapValidADType
20004070 g     O .bss	00000007 gapBondSignAddr
00017502 g     F .text	00000042 LL_ReportGenerateEvent
000255fa g     F .text	00000002 __malloc_lock
20001c38 g     F .highcode	000000b6 RF_FrequencyHoppingGet
00015116 g     F .text	0000006a LL_PowerControlRsp
00014d60 g     F .text	0000002e LL_PingReq
000105b2 g     F .text	00000042 HOST_RemoteConnectionParameterRequestEvent
200025a8 g     O .bss	00001800 MEM_BUF
0000e188 g     F .text	00000038 smPairingSendMasterID
00017dd8 g     F .text	0000024a ll_scan_rx_chain_ind
000050c8 g     F .text	00000006 gapRegisterCentralConn
20004020 g     O .bss	00000020 rfConfig
00024798 g     F .text	00000066 _fflush_r
00021334 g     F .text	0000002c tmos_memory_getlen
0001f262 g     F .text	00000004 HCI_LE_PeriodicAdvertisingSyncLostEvent
00004e74 g     F .text	0000002e ATT_PrepareWriteReq
00011190 g     F .text	0000000a LL_ConnectEventRegister
00008742 g     F .text	00000030 GATT_AppCompletedMsg
00008a26 g     F .text	00000078 GATT_DiscPrimaryServiceByUUID
000089aa g     F .text	0000007c gattFindByTypeValue
00004e0c g     F .text	00000068 ATT_WriteReq
00025fd8 g     O .text	00000020 __sf_fake_stdin
0000543e g     F .text	00000048 gapProcessConnEvt
200007c6 g     F .highcode	0000002e tmos_memcmp
00017992 g     F .text	000001f0 ll_scan_add_advertising_to_report
00017bde g     F .text	0000012c ll_scan_generated_req
200000ba  w      .highcode	00000000 I2C_IRQHandler
000020fe g     F .text	000000a8 memset
20001f72 g     F .highcode	00000054 LL_ResolvinglistPeerIdentifyAddressGetIrk
2000401c g     O .bss	00000004 gptrLLEReg
200011a6 g     F .highcode	000000a4 ll_scan_duplicate_filter
00003180 g     F .text	00000050 main
00025c14 g     O .text	00000098 funcArr
00014b9e g     F .text	00000032 LL_TerminateInd
00021fb2 g     F .text	000000d8 GAP_DeviceInit
00012d76 g     F .text	000004f8 ll_connect_process_event
000074c2 g     F .text	0000026a gapProcessScanningExtAdvEvt
000033e6 g     F .text	00000080 TMOS_CB_ProcessEvent
0001d5b6 g     F .text	0000000c API_SetExtendedScanMaxLengthCmd
0002098a g     F .text	00000088 GAPBondMgr_ServiceChangeInd
00014d36 g     F .text	0000002a LL_RejectIndExt
0000a2c4 g     F .text	0000010e gattServApp_ProcessPrepareWriteReq
0001d7f2 g     F .text	00000028 LL_MD_Disconnect
000047f0 g     F .text	00000026 ATT_BuildErrorRsp
20000f3c g     F .highcode	0000026a LL_HopGetChannel2
0000c15e g     F .text	000000d4 L2CAP_ProcessEvent
20004077 g     O .bss	00000001 gapBond_Invalid
000181ac g     F .text	000001e2 ll_scan_rx_sync_chain_ind
0001f1f4 g     F .text	00000004 HCI_RxDataCompleteCback
00004180 g     F .text	000000b2 tmos_snv_clear
00009a78 g     F .text	0000003c GATTServApp_WriteCharCfg
0001d516 g     F .text	00000026 API_LE_SetPeriodicAdvertisingEnableCmd
00008296 g     F .text	0000003a gapSendMakePeriodicEvent
0001f1de g     F .text	00000004 HCI_CommandCompleteCback
20001cee g     F .highcode	0000009a RF_FrequencyHoppingChange
0001f216 g     F .text	00000004 HCI_RemoteConnectionParameterRequestCback
000254de g     F .text	00000006 __sclose
000061e0 g     F .text	00000664 GAP_ProcessEvent
0001b2ae g     F .text	0000004c LL_WhitelistClearAll
0001f272 g     F .text	00000002 HCI_LE_PathLossThresholdEvent
00014c68 g     F .text	00000022 LL_PauseEncRsp
000217f4 g     F .text	00000038 ATT_ReadMultiRsp
00024bda g     F .text	000000d8 _malloc_r
200040a0 g     O .bss	00000010 gapRole_SRK
0001d4f0 g     F .text	00000026 API_LE_SetPeriodicAdvertisingParametersCmd
00009b48 g     F .text	0000005e GATTServApp_SendCCCUpdatedEvent
20001e8a g     F .highcode	000000e8 tmos_memory_free
0001d2ca g     F .text	00000030 API_LE_LtkReqReplyCmd
20002254 g     O .bss	00000004 pGapDiscReq
00014c8a g     F .text	00000086 LL_VersionInd
0000bc4a g     F .text	00000028 l2capDisconnectChannel
200000ac  w      .highcode	00000000 USB2_IRQHandler
0001db98 g     F .text	00000040 LL_RemoteConnParamReqNegReply
0001bc54 g     F .text	000000c0 BLE_RegInit
00003b5c g     F .text	0000012e TMOS_Init
0001780e g     F .text	00000152 ll_scan_filter
00019dba g     F .text	0000005c llScanStart
00020b18 g     F .text	00000150 GAPBondMgr_LinkEst
0000b374 g     F .text	000001ae gattServApp_ProcessReadByTypeReq
0001d40a g     F .text	00000026 API_LE_SetAddressResolvableEnableCmd
0001d796 g     F .text	0000005c LL_Disconnect
00020454 g     F .text	000004bc GAPBondMgr_SetParameter
0001ffe8 g     F .text	00000186 GAPBondMgr_ParamInit
0001336e g     F .text	00000038 LL_CoreGetDataList
0001098a g     F .text	0000009c HOST_LE_PeriodicAdvertisingSyncEstablishedEvent
00003806 g     F .text	0000011e tmos_start_task
00004cf0 g     F .text	00000010 ATT_FindInfoReq
000151bc g     F .text	00000066 LL_ChannelMapInd
0001d228 g     F .text	00000024 API_LE_ClearWhiteListCmd
000087e8 g     F .text	00000056 GATT_NotifyEvent
00004bc0 g     F .text	00000028 ATT_BuildReadBlobReq
0001117a g     F .text	00000016 ll_connect_auth_timeout
20003ed0 g     O .bss	0000007a gapParameters
00004866 g     F .text	00000066 ATT_CompareUUID
00026064 g     O .text	00000002 deviceNameUUID
0001f21a g     F .text	00000004 HCI_LE_DataLengthChangeCback
000121a8 g     F .text	000003a6 ll_connect_action_in_connintervaltimeout
0000281a g     F .text	00000046 HAL_TimeInit
00011116 g     F .text	00000004 HCI_LE_SetPeriodicAdvertisingParametersCmd
0002605c g     O .text	00000002 characterUUID
00011804 g     F .text	0000009a ll_connect_get_update_point
200021ed g     O .data	00000001 gapBond_Erase
00015222 g     F .text	00000058 LL_EncRsp
000214d6 g     F .text	00000030 ATT_BuildPrepareWriteRsp
00004e02 g     F .text	0000000a ATT_ParseWriteRsp
00000004 g       .highcodelalign	00000000 _highcode_lma
0000e0fc g     F .text	00000034 smGenerateRandMsg
0000c6be g     F .text	00000150 l2capProcessRsp
0000edf8 g     F .text	00000028 xor_128
0001d66e g     F .text	00000128 LL_TransmitterTest
00021282 g     F .text	00000008 GAPRole_UpdateLink
0000d7e0 g     F .text	0000000a linkDB_NumConns
0001d2b2 g     F .text	00000018 API_LE_StartEncryptCmd
00004b42 g     F .text	00000028 ATT_BuildFindInfoReq
0001f1d2 g     F .text	00000004 HCI_DisconnectionCompleteCback
00008842 g     F .text	00000008 GATT_ReadUsingCharUUID
0000bb60 g     F .text	00000030 l2capFindLocalId
00024340 g     F .text	00000040 iprintf
00011074 g     F .text	00000004 HCI_WriteAFHChannelModeCmd
20004078 g     O .bss	00000001 gapBondSign_Valid
0002127e g     F .text	00000004 GAPRole_ReadRssiCmd
00003a12 g     F .text	00000050 tmos_stop_task
0000c04c g     F .text	00000112 L2CAP_Init
0000d640 g     F .text	00000034 linkDB_Find
0001d860 g     F .text	00000026 LL_LE_ReadBufSize
00004ea2 g     F .text	0000000a ATT_ParseExecuteWriteRsp
0000d424 g     F .text	00000028 l2capBuildDisconnectRsp
00025eb8 g     O .text	00000100 .hidden __clz_tab
200000a8  w      .highcode	00000000 LLE_IRQHandler
0000d8ce g     F .text	0000005a linkDB_PerformFunc
00000000 g       .init	00000000 _sinit
00010836 g     F .text	00000058 HOST_LE_PHYUpdateCompleteReportEvent
0000b522 g     F .text	00000006 GATTServApp_RegisterForMsg
0001d5c2 g     F .text	00000052 CreatePRBS9
0001e6b8 g     F .text	000001a8 LL_SetExtendedAdvertisingEnable
00017b82 g     F .text	0000005c ll_scan_event_closed
000254e4 g     F .text	00000036 _write_r
00011078 g     F .text	00000010 HCI_HostNumCompletedPktCmd
00021480 g     F .text	0000000c ATT_BuildFindByTypeValueRsp
0000c358 g     F .text	000000fc l2capProcessConnectReq
0000f632 g     F .text	0000002a smpParseIdentityInfo
00009da8 g     F .text	00000018 GATT_ServiceEncKeySize
0002399c g     F .text	0000008c LL_InitiateToStandby
0000dd12 g     F .text	00000030 smpBuildSigningInfo
0001a1a2 g     F .text	0000001c ll_hw_timer_slave_recv_timeout
0000f65c g     F .text	0000003c smpParseMasterID
00005408 g     F .text	0000000e gapGetSignCounter
20003e64 g     O .bss	00000004 taskHead
00024fbe g     F .text	0000010c _printf_common
000110cc g     F .text	00000004 HCI_LE_RemoteConnParamReqNegReplyCmd
00008862 g     F .text	00000006 gattRegisterServer
20002200 g     O .data	00000004 _impure_ptr
0000d1a2 g     F .text	0000008a l2capSendCmd
0000d792 g     F .text	00000018 linkDB_MTU
0001b5be g     F .text	000000d6 BLE_CheckChannel
0002465c g     F .text	0000013c __sflush_r
00021360 g     F .text	0000007a tmos_memory_init
000215dc g     F .text	00000078 ATT_ParseFindByTypeValueReq
00009ab4 g     F .text	00000060 GATTServApp_ProcessCCCWriteReq
200040b0 g     O .bss	00000001 gapRole_profileRole
00021524 g     F .text	0000001c ATT_ParseExchangeMTUReq
000110d4 g     F .text	00000004 HCI_LE_ClearResolvingList
0000e88e g     F .text	00000038 smSendFailAndEnd
0000517c g     F .text	00000092 gapFindADType
0001d28e g     F .text	00000024 API_LE_RandCmd
0002192a g     F .text	00000014 ATT_ParseExecuteWriteReq
00026060 g     O .text	00000002 clientCharCfgUUID
0001c350 g     F .text	0000003a RFEND_RXAdc
00010dd0 g     F .text	0000004a HOST_EncryptionKeyRefreshCompleteEvent
0000bdde g     F .text	0000001e l2capStopTimer
00008868 g     F .text	0000005a GATT_UpdateMTU
000224ee g     F .text	0000000a LL_AdvertiseEventRegister
0000c80e g     F .text	000000f8 l2capProcessRxData
0001dec0 g     F .text	00000036 LL_Rand
200000c4  w      .highcode	00000000 WDOG_BAT_IRQHandler
20000096  w      .highcode	00000000 Ecall_U_Mode_Handler
0000d032 g     F .text	000000b4 l2capSendNextSegment
0001e860 g     F .text	000000f4 LL_SetPeriodicAdvertisingParameters
0000faea g     F .text	00000250 smpResponderProcessIncoming
000110dc g     F .text	00000004 HCI_LE_SetResolvableAddressTimeoutCmd
0000687e g     F .text	0000015c gapCentProcessConnEvt
0000c2ec g     F .text	0000004e L2CAP_ParseParamUpdateReq
00010176 g     F .text	00000150 SM_VerifyAuthenSig
200000be  w      .highcode	00000000 TMR3_IRQHandler
200021f2 g     O .data	00000001 gapRole_TaskID
000115bc g     F .text	0000002e ll_connect_init_pingOffset
00008076 g     F .text	00000034 GAP_GetPeriodicAdvertisingData
0000b6ea g     F .text	0000036a GATTServApp_ProcessEvent
0000f70e g     F .text	00000118 smpParsePairingReq
20008000 g       .stack	00000000 _eusrstack
000035ea g     F .text	000000fc tmos_start_periodic_callback_task
0000e610 g     F .text	00000068 smFreePairingParams
00022f4e g     F .text	0000014e ll_initiate_to_connection
0000c2be g     F .text	0000002e l2capParseDisconnectRsp
00011cda g     F .text	000001ce ll_connect_change_connect_point
0000f0cc g     F .text	000000c6 smpBuildPairingReqRsp
00006ab2 g     F .text	00000242 gapProcessAdvertDevInfo
2000009c  w      .highcode	00000000 SW_Handler
00004baa g     F .text	00000016 ATT_BuildReadReq
0001d166 g     F .text	00000036 API_ReadRssiCmd
0000e39e g     F .text	00000226 smResponderSendNextKeyInfo
00011210 g     F .text	0000003c ll_connect_set_procedure_timeout
0001f406 g     F .text	00000056 GAPRole_CentralStartDevice
000218fa g     F .text	00000030 ATT_PrepareWriteRsp
00023b12 g     F .text	00000158 LL_ResolvinglistAdd
0000235c g     F .text	000000a6 GPIOA_ModeCfg
20000756 g     F .highcode	00000018 tmos_memcpy_word
000031d0 g     F .text	0000001e tmos_msg_enqueue
200022a6 g     O .bss	00000002 l2capMtuSize
00023230 g     F .text	00000048 ll_initiate_tx
00004ef0 g     F .text	0000000a ATT_HandleValueConfirmation
20003e68 g     O .bss	0000003c ble
0000a8cc g     F .text	00000056 GATT_VerifyPrepareWritePermissions
00014fe2 g     F .text	0000002e LL_ClockAccuracyRsp
200040b1 g     O .bss	00000001 gapRole_AdvFilterPolicy
00024a38 g     F .text	0000005a __swhatbuf_r
0000ba54 g     F .text	000000e0 l2capAllocConnChannel
00025ea0 g     O .text	00000017 PrimeNumber
00022496 g     F .text	00000058 LL_AdvertiseToStandby
00004dce g     F .text	00000010 ATT_ReadBlobReq
00019c50 g     F .text	0000016a llScanTraverseaChannel
2000406c g     O .bss	00000001 nCO2440
00006f54 g     F .text	000000ae gapProcessPeriodicAdvertisingSyncEstablishedEvt
000024a8 g     F .text	00000042 GetSysClock
00008772 g     F .text	0000002a GATT_DiscAllChars
0000d598 g     F .text	000000a8 linkDB_Init
00009e34 g     F .text	00000098 gattServerHandleConnStatusCB
00025b6c g     O .text	000000a8 funcRxPDUArr
0000bdfc g     F .text	000000dc l2capDisconnectAllChannels
00011a16 g     F .text	000000fa ll_master_check_connect_point
000110c0 g     F .text	00000004 HCI_LE_LtkReqReplyCmd
00008042 g     F .text	00000034 GAP_GetAdvertisingRspData
0001326e g     F .text	000000e2 LL_ConnectShut
0002606c g     O .text	00000002 gattServiceUUID
0002158a g     F .text	00000052 ATT_FindInfoRsp
200022be g     O .bss	00000001 nGA2401
0000c290 g     F .text	0000002e l2capParseDisconnectReq
00010a26 g     F .text	000000b6 HOST_LE_PeriodicAdvertisingReportEvent
0001a1be g     F .text	000005ba ll_slave_action_tx_ready
000024f4 g     F .text	00000028 _write
20002208 g       .data	00000000 _edata
200000a4  w      .highcode	00000000 SPI0_IRQHandler
0001d270 g     F .text	0000001e API_LE_ConnUpdateCmd
20003f70 g     O .bss	00000030 l2capFixedChannels
00023a3a g     F .text	0000006c ll_resolvinglist_checkRPA
0001d0e4 g     F .text	00000034 API_HostNumCompletedPktCmd
200040b4 g     O .bss	00000006 gapRole_bdAddr
000111ba g     F .text	00000056 ll_connect_set_auth_timeout
0000bed8 g     F .text	0000003c l2capHandleConnStatusCB
0000cc52 g     F .text	00000178 l2capReassembleSegment
000031ee g     F .text	0000002c tmos_msg_deallocate
2000204c g       .highcode	00000000 _highcode_vma_end
00003466 g     F .text	00000052 tmos_rand
0001d4ca g     F .text	00000026 API_LE_SetExtendedAdvertisingEnableCmd
0001ba2a g     F .text	00000152 ll_hw_api_tx_direct_test
20002278 g     O .bss	00000004 pfnServerProcessMsgCB
0000f392 g     F .text	00000242 smpInitiatorProcessIncoming
0001f4e4 g     F .text	00000086 GAPRole_CentralEnable
00025a64 g     O .text	00000060 serverReqTbl
20003ea4 g     O .bss	00000004 cbTimersHead
0001838e g     F .text	00000404 ll_scan_rx_periodic_ind
00026074 g     O .text	00000002 periConnParamUUID
00009838 g     F .text	000000cc GATT_InitClient
00026090 g       .dlalign	00000000 _data_lma
00003714 g     F .text	00000032 tmos_clear_event
000025da g     F .text	00000070 HAL_GetInterTempValue
00012578 g     F .text	00000034 ll_connect_supervision_timeout
200021f1 g     O .data	00000001 gapBond_Valid
0000885c g     F .text	00000006 gattRegisterClient
0000c004 g     F .text	0000001e L2CAP_SetBufSize
0001f25a g     F .text	00000004 HCI_LE_PeriodicAdvertisingSyncEstablishedEvent
00011348 g     F .text	0000005a ll_connect_update_effective_Len
00005a4a g     F .text	000000b6 gapProcessRandomAddrComplete
0000dce2 g     F .text	00000030 smpBuildPairingRandom
0002545a g     F .text	0000004e __swrite
0001f26a g     F .text	00000004 HCI_LE_AdvertisingSetTerminatedEvent
000146ec g     F .text	00000106 LL_MasterSetFirstTimer
200040ba g     O .bss	00000001 gapCentralTaskID
0001f1f2 g     F .text	00000002 HCI_AuthenticatedPayloadTimeoutExpiredCback
0000609e g     F .text	00000004 GAP_NumActiveConnections
00011748 g     F .text	000000bc ll_connect_update_get_offset
00024d20 g     F .text	0000029e _vfiprintf_r
00011b10 g     F .text	000001ca ll_slave_check_connect_point
0000a482 g     F .text	000000a4 GATT_Indication
0002140a g     F .text	0000003c tmos_bm_adjust_header
00003a62 g     F .text	0000005a tmos_stop_callback_task
000249cc g     F .text	0000006c _fwalk_reent
00014bf2 g     F .text	00000022 LL_StartEncRsp
0002016e g     F .text	00000072 GAPBondMgr_Erase
000110a4 g     F .text	00000004 HCI_LE_AddWhiteListCmd
0000257e g     F .text	0000001c Lib_Read_Flash
00014d8e g     F .text	0000001a LL_PingRsp
0000bf14 g     F .text	00000006 l2capHandleRxError
20000736 g     F .highcode	00000020 tmos_memcpy
0001f1ea g     F .text	00000004 HCI_DataBufferOverflowCback
0000a0fe g     F .text	000000a8 GATTServApp_WriteAttr
00009c5c g     F .text	00000018 gattServApp_FindServiceCBs
0000c964 g     F .text	0000007a l2capNotifySignal
20004000 g     O .bss	0000001c gBleIPPara
00009e0a g     F .text	0000002a gattFindServerInfo
000090e4 g     F .text	00000036 gattGetClientStatus
200022ab g     O .bss	00000001 l2capNumPSM
0000e0c8 g     F .text	00000034 smGenerateConfirm
00025ff8 g     O .text	00000020 __sf_fake_stdout
00007ea0 g     F .text	00000066 GAP_EndDiscoverable
000024ea g     F .text	0000000a SYS_GetSysTickCnt
0001106c g     F .text	00000004 HCI_SetDataLengthCmd
00023d6c g     F .text	0000012e LL_AddrInit
0002193e g     F .text	0000000c ATT_ExecuteWriteRsp
00025672 g     F .text	00000010 _read
00002050  w      .text	00000000 handle_reset
00020c68 g     F .text	0000029a GAPBondMgr_ProcessGAPMsg
000152ca g     F .text	00000050 LL_FeatureRsp
0000496c g     F .text	0000003c ATT_UpdateMTU
000050da g     F .text	00000056 smGenerateRandBuf
00013850 g     F .text	0000005a LL_HopGetChannels
0000ea10 g     F .text	00000144 sm_c1new
0002309c g     F .text	00000194 ll_initiate_filter
00021560 g     F .text	0000002a ATT_ParseFindInfoReq
0001002a g     F .text	0000005e SM_ResolveRandomAddrs
00004232 g     F .text	00000292 tmos_snv_read
0002174e g     F .text	00000032 ATT_ReadRsp
000085b0 g     F .text	0000007e gattGetPayload
00005756 g     F .text	00000068 gapSendSlaveSecurityReqEvent
00013350 g     F .text	0000001e LL_CoreGetCore
000034b8 g     F .text	00000132 tmos_proces_sleep
00014ac6 g     F .text	000000d8 LL_ConnectionUpdateInd
0001a13e g     F .text	0000001e llScanTimeout
0001c38a g     F .text	00000d2c RFEND_TXCtune
0000c232 g     F .text	0000005e l2capParseCmdReject
0000f93c g     F .text	000000d4 smProcessTMOSMsg
000088c2 g     F .text	000000e8 GATT_bm_alloc
00024a92 g     F .text	000000a0 __smakebuf_r
0002186e g     F .text	0000003e ATT_ParseWriteReq
00020a12 g     F .text	00000076 GAPBondMgr_UpdateCharCfg
000250ca g     F .text	000002aa _printf_i
00007b60 g     F .text	0000009c GAP_CentDevMgrInit
0000bcf6 g     F .text	00000086 l2capGetCoChannelInfo
0001d1c0 g     F .text	00000022 API_LE_SetRandomAddressCmd
20000bce g     F .highcode	00000128 ll_connect_send_data
20000cf6 g     F .highcode	000000e0 ll_connect_recv_data
200000c2  w      .highcode	00000000 UART3_IRQHandler
0000da3a g     F .text	0000003a linkDB_GetHandleFromSMEvtID
000021ce g     F .text	0000018e RTC_InitTime
20002320 g     O .bss	00000004 __malloc_sbrk_start
0001f1e2 g     F .text	00000004 HCI_CommandStatusCback
00022be4 g     F .text	00000328 ll_initiate_generated_req_pdu
000110e4 g     F .text	0000002e HCI_LE_SetExtendedAdvertisingParametersCmd
000116ca g     F .text	0000003e LL_ConnectRxPktnumIncrease
0000dc6e g     F .text	00000044 smpBuildMasterID
0000a82c g     F .text	0000006a GATT_VerifyWritePermissions
00021506 g     F .text	0000001e ATT_BuildHandleValueInd
0000a0b4 g     F .text	0000004a GATT_FindHandle
00012038 g     F .text	000000e8 LL_ConnectFreeTmosPrioritID
00003b46 g     F .text	00000016 TMOS_ProcessRegister
000110ac g     F .text	00000004 HCI_LE_RandCmd
00005fbe g     F .text	0000004c GAP_SendSlaveSecurityRequest
0001e1b8 g     F .text	000000b4 LL_AddDeviceToResolvingList
00014c3a g     F .text	0000002e LL_PauseEncReq
0000ee86 g     F .text	000000d4 generate_subkey
20000322 g     F .highcode	0000000e FLASH_ROM_END
00003260 g     F .text	00000072 tmos_msg_receive
000110e0 g     F .text	00000004 HCI_LE_SetPHYCmd
000058f8 g     F .text	00000058 gapSendPhyUpdateEvent
0000f6e4 g     F .text	0000002a smpParsePairingRandom
0000d674 g     F .text	0000005c linkDB_Authen
20004040 g     O .bss	0000001c rfInfo
00013448 g     F .text	000000d0 LL_CoreOpen
0001de6c g     F .text	00000054 LL_ClearWhiteList
00003b28 g     F .text	0000001e TMOS_TimerRegister
0001f202 g     F .text	00000004 HCI_LE_AdvertisingReportCback
0000772c g     F .text	00000120 GAP_DeviceDiscoveryRequest
0000552e g     F .text	0000011e sendAuthEvent
2000231c g     O .bss	00000004 __malloc_free_list
00004b2c g     F .text	00000016 ATT_BuildExchangeMTUReq
00003924 g     F .text	00000098 tmos_start_callback_task
00019a20 g     F .text	000000d0 ll_scan_rx_legacy_rsp
0002247a g     F .text	0000001c LL_AdvGetCore
0000784c g     F .text	0000028c GAP_EstablishLinkReq
0000908c g     F .text	00000030 gattFindClientInfo
0000dcb2 g     F .text	00000030 smpBuildPairingConfirm
00024d20 g     F .text	0000029e _vfprintf_r
2000406d g     O .bss	00000001 nCO2480
0000db34 g     F .text	000000a0 SM_StartEncryption
0001b320 g     F .text	00000086 AES_DevPktEnc
0001077c g     F .text	000000ba HOST_LE_DirectAdvertisingReportEvent
200000ae  w      .highcode	00000000 TMR1_IRQHandler
00011652 g     F .text	00000028 LL_ConnectFlowcontrolRx
00009d90 g     F .text	00000018 GATT_ServiceNumAttrs
00003ff8 g     F .text	000000c8 TMOS_TimerInit
0001167a g     F .text	00000050 LL_ConnectTxPktnumIncrease
0000ef5a g     F .text	00000172 sm_CMAC
00021540 g     F .text	00000020 ATT_ExchangeMTURsp
00005c88 g     F .text	00000020 GAP_GetParamValue
0001d3e4 g     F .text	00000026 API_LE_ClearResolvingList
0000fe74 g     F .text	0000002a SM_Init
00020910 g     F .text	0000007a GAPBondMgr_SlaveReqSecurity
00013a2e g     F .text	000004d0 ll_master_action_tx_ready
000072b4 g     F .text	00000110 gapProcessScanningEvt
0000e902 g     F .text	00000034 smLinkCheck
20003fa0 g     O .bss	00000002 l2capUserConfig
000214ae g     F .text	00000006 ATT_BuildReadBlobRsp
000133a6 g     F .text	000000a2 LL_CoreDataListInit
000221e6 g     F .text	0000024a LL_Init
00010428 g     F .text	00000060 HOST_LE_ConnectionUpdateCompleteEvent
000105f4 g     F .text	00000060 HOST_LE_DataLengthChangeEvent
00026058 g     O .text	00000002 centAddrResUUID
20003ea8 g     O .bss	00000004 pfnTimerCBs
0000cade g     F .text	0000003e l2capNotifyChannelTermEvt
00003332 g     F .text	0000000a tmos_msg_init
00002bac g     F .text	0000051e Central_ProcessEvent
200022aa g     O .bss	00000001 l2capNumDataPkts
00008704 g     F .text	0000000c gattStartTimer
0001bdea g     F .text	00000138 RF_DevSetChannel
0000998c g     F .text	000000d4 GATTServApp_ParamInit
2000023a g     F .highcode	0000003c SYS_ResetExecute
00005950 g     F .text	000000bc gapSendEstLinkEvent
00023ab8 g     F .text	0000005a ll_resolvinglist_timeout_renew_rpa
00011098 g     F .text	00000004 HCI_LE_SetAdvEnableCmd
0000a2a6 g     F .text	0000001e GATTServApp_UpdateCharCfg
0000bd7c g     F .text	00000048 l2capNumActiveChannnels
00004c42 g     F .text	0000004a ATT_BuildReadByTypeReq
200040bb g     O .bss	00000001 gapRole_ConnextionlessCTEEnabled
00025632 g     F .text	00000010 _close
0001f1d6 g     F .text	00000004 HCI_EncryptionChangeCback
0000ad04 g     F .text	0000016e gattServApp_ProcessReadMultiReq
0000d6d0 g     F .text	00000082 linkDB_FindByAddr
000070fe g     F .text	00000124 gapSendDevDiscEvent
00003f76 g     F .text	00000020 ble_ll_common_rand32
0001d1e2 g     F .text	00000024 API_LE_SetAdvEnableCmd
0001f1f8 g     F .text	0000000a HCI_LE_ConnectionCompleteCback
0000e1d0 g     F .text	000001ce smInitiatorSendNextKeyInfo
0000251c g     F .text	00000030 UART1_BaudRateCfg
00008a9e g     F .text	0000006e gattPrepareWriteReq



Disassembly of section .init:

00000000 <_sinit>:
_start():
C:/Users/OWNER/Desktop/BLE_Indication/SRC/Startup/startup_CH583.S:15

	.section	.init,"ax",@progbits
	.global	_start
	.align	1
_start:
	j	handle_reset
   0:	0500206f          	j	2050 <handle_reset>

Disassembly of section .highcode:

20000000 <_highcode_vma_start>:
	...
_vector_base():
20000008:	0090                	addi	a2,sp,64
2000000a:	2000                	fld	fs0,0(s0)
2000000c:	0276                	slli	tp,tp,0x1d
2000000e:	2000                	fld	fs0,0(s0)
20000010:	bda9                	j	1ffffe6a <_data_lma+0x1ffd9dda>
20000012:	f5f9                	bnez	a1,1fffffe0 <_data_lma+0x1ffd9f50>
20000014:	0094                	addi	a3,sp,64
20000016:	2000                	fld	fs0,0(s0)
	...
20000020:	0096                	slli	ra,ra,0x5
20000022:	2000                	fld	fs0,0(s0)
20000024:	0098                	addi	a4,sp,64
20000026:	2000                	fld	fs0,0(s0)
	...
20000030:	009a                	slli	ra,ra,0x6
20000032:	2000                	fld	fs0,0(s0)
20000034:	0000                	unimp
20000036:	0000                	unimp
20000038:	009c                	addi	a5,sp,64
2000003a:	2000                	fld	fs0,0(s0)
2000003c:	0000                	unimp
2000003e:	0000                	unimp
20000040:	009e                	slli	ra,ra,0x7
20000042:	2000                	fld	fs0,0(s0)
20000044:	00a0                	addi	s0,sp,72
20000046:	2000                	fld	fs0,0(s0)
20000048:	00a2                	slli	ra,ra,0x8
2000004a:	2000                	fld	fs0,0(s0)
2000004c:	00a4                	addi	s1,sp,72
2000004e:	2000                	fld	fs0,0(s0)
20000050:	00a6                	slli	ra,ra,0x9
20000052:	2000                	fld	fs0,0(s0)
20000054:	00a8                	addi	a0,sp,72
20000056:	2000                	fld	fs0,0(s0)
20000058:	00aa                	slli	ra,ra,0xa
2000005a:	2000                	fld	fs0,0(s0)
2000005c:	00ac                	addi	a1,sp,72
2000005e:	2000                	fld	fs0,0(s0)
20000060:	00ae                	slli	ra,ra,0xb
20000062:	2000                	fld	fs0,0(s0)
20000064:	00b0                	addi	a2,sp,72
20000066:	2000                	fld	fs0,0(s0)
20000068:	00b2                	slli	ra,ra,0xc
2000006a:	2000                	fld	fs0,0(s0)
2000006c:	00b4                	addi	a3,sp,72
2000006e:	2000                	fld	fs0,0(s0)
20000070:	02f2                	slli	t0,t0,0x1c
20000072:	2000                	fld	fs0,0(s0)
20000074:	00b8                	addi	a4,sp,72
20000076:	2000                	fld	fs0,0(s0)
20000078:	00ba                	slli	ra,ra,0xe
2000007a:	2000                	fld	fs0,0(s0)
2000007c:	00bc                	addi	a5,sp,72
2000007e:	2000                	fld	fs0,0(s0)
20000080:	00be                	slli	ra,ra,0xf
20000082:	2000                	fld	fs0,0(s0)
20000084:	00c0                	addi	s0,sp,68
20000086:	2000                	fld	fs0,0(s0)
20000088:	00c2                	slli	ra,ra,0x10
2000008a:	2000                	fld	fs0,0(s0)
2000008c:	00c4                	addi	s1,sp,68
2000008e:	2000                	fld	fs0,0(s0)

20000090 <NMI_Handler>:
NMI_Handler():
C:/Users/OWNER/Desktop/BLE_Indication/SRC/Startup/startup_CH583.S:91
    .weak   TMR3_IRQHandler
    .weak   UART2_IRQHandler
    .weak   UART3_IRQHandler
    .weak   WDOG_BAT_IRQHandler

NMI_Handler:         1:  j 1b
20000090:	a001                	j	20000090 <NMI_Handler>
C:/Users/OWNER/Desktop/BLE_Indication/SRC/Startup/startup_CH583.S:92
HardFault_Handler:   1:  j 1b
20000092:	a001                	j	20000092 <NMI_Handler+0x2>

20000094 <Ecall_M_Mode_Handler>:
Ecall_M_Mode_Handler():
C:/Users/OWNER/Desktop/BLE_Indication/SRC/Startup/startup_CH583.S:93
Ecall_M_Mode_Handler:   1:  j 1b
20000094:	a001                	j	20000094 <Ecall_M_Mode_Handler>

20000096 <Ecall_U_Mode_Handler>:
Ecall_U_Mode_Handler():
C:/Users/OWNER/Desktop/BLE_Indication/SRC/Startup/startup_CH583.S:94
Ecall_U_Mode_Handler:   1:  j 1b
20000096:	a001                	j	20000096 <Ecall_U_Mode_Handler>

20000098 <Break_Point_Handler>:
Break_Point_Handler():
C:/Users/OWNER/Desktop/BLE_Indication/SRC/Startup/startup_CH583.S:95
Break_Point_Handler:   1:  j 1b
20000098:	a001                	j	20000098 <Break_Point_Handler>

2000009a <SysTick_Handler>:
SysTick_Handler():
C:/Users/OWNER/Desktop/BLE_Indication/SRC/Startup/startup_CH583.S:96
SysTick_Handler:     1:  j 1b
2000009a:	a001                	j	2000009a <SysTick_Handler>

2000009c <SW_Handler>:
SW_Handler():
C:/Users/OWNER/Desktop/BLE_Indication/SRC/Startup/startup_CH583.S:97
SW_Handler:          1:  j 1b
2000009c:	a001                	j	2000009c <SW_Handler>

2000009e <TMR0_IRQHandler>:
TMR0_IRQHandler():
C:/Users/OWNER/Desktop/BLE_Indication/SRC/Startup/startup_CH583.S:98
TMR0_IRQHandler:     1:  j 1b
2000009e:	a001                	j	2000009e <TMR0_IRQHandler>

200000a0 <GPIOA_IRQHandler>:
GPIOA_IRQHandler():
C:/Users/OWNER/Desktop/BLE_Indication/SRC/Startup/startup_CH583.S:99
GPIOA_IRQHandler:    1:  j 1b
200000a0:	a001                	j	200000a0 <GPIOA_IRQHandler>

200000a2 <GPIOB_IRQHandler>:
GPIOB_IRQHandler():
C:/Users/OWNER/Desktop/BLE_Indication/SRC/Startup/startup_CH583.S:100
GPIOB_IRQHandler:    1:  j 1b
200000a2:	a001                	j	200000a2 <GPIOB_IRQHandler>

200000a4 <SPI0_IRQHandler>:
SPI0_IRQHandler():
C:/Users/OWNER/Desktop/BLE_Indication/SRC/Startup/startup_CH583.S:101
SPI0_IRQHandler:     1:  j 1b
200000a4:	a001                	j	200000a4 <SPI0_IRQHandler>

200000a6 <BB_IRQHandler>:
BB_IRQHandler():
C:/Users/OWNER/Desktop/BLE_Indication/SRC/Startup/startup_CH583.S:102
BB_IRQHandler:       1:  j 1b
200000a6:	a001                	j	200000a6 <BB_IRQHandler>

200000a8 <LLE_IRQHandler>:
LLE_IRQHandler():
C:/Users/OWNER/Desktop/BLE_Indication/SRC/Startup/startup_CH583.S:103
LLE_IRQHandler:      1:  j 1b
200000a8:	a001                	j	200000a8 <LLE_IRQHandler>

200000aa <USB_IRQHandler>:
USB_IRQHandler():
C:/Users/OWNER/Desktop/BLE_Indication/SRC/Startup/startup_CH583.S:104
USB_IRQHandler:      1:  j 1b
200000aa:	a001                	j	200000aa <USB_IRQHandler>

200000ac <USB2_IRQHandler>:
USB2_IRQHandler():
C:/Users/OWNER/Desktop/BLE_Indication/SRC/Startup/startup_CH583.S:105
USB2_IRQHandler:      1:  j 1b
200000ac:	a001                	j	200000ac <USB2_IRQHandler>

200000ae <TMR1_IRQHandler>:
TMR1_IRQHandler():
C:/Users/OWNER/Desktop/BLE_Indication/SRC/Startup/startup_CH583.S:106
TMR1_IRQHandler:     1:  j 1b
200000ae:	a001                	j	200000ae <TMR1_IRQHandler>

200000b0 <TMR2_IRQHandler>:
TMR2_IRQHandler():
C:/Users/OWNER/Desktop/BLE_Indication/SRC/Startup/startup_CH583.S:107
TMR2_IRQHandler:     1:  j 1b
200000b0:	a001                	j	200000b0 <TMR2_IRQHandler>

200000b2 <UART0_IRQHandler>:
UART0_IRQHandler():
C:/Users/OWNER/Desktop/BLE_Indication/SRC/Startup/startup_CH583.S:108
UART0_IRQHandler:    1:  j 1b
200000b2:	a001                	j	200000b2 <UART0_IRQHandler>

200000b4 <UART1_IRQHandler>:
UART1_IRQHandler():
C:/Users/OWNER/Desktop/BLE_Indication/SRC/Startup/startup_CH583.S:109
UART1_IRQHandler:    1:  j 1b
200000b4:	a001                	j	200000b4 <UART1_IRQHandler>
C:/Users/OWNER/Desktop/BLE_Indication/SRC/Startup/startup_CH583.S:110
RTC_IRQHandler:      1:  j 1b
200000b6:	a001                	j	200000b6 <UART1_IRQHandler+0x2>

200000b8 <ADC_IRQHandler>:
ADC_IRQHandler():
C:/Users/OWNER/Desktop/BLE_Indication/SRC/Startup/startup_CH583.S:111
ADC_IRQHandler:      1:  j 1b
200000b8:	a001                	j	200000b8 <ADC_IRQHandler>

200000ba <I2C_IRQHandler>:
I2C_IRQHandler():
C:/Users/OWNER/Desktop/BLE_Indication/SRC/Startup/startup_CH583.S:112
I2C_IRQHandler:		 1:  j 1b
200000ba:	a001                	j	200000ba <I2C_IRQHandler>

200000bc <PWMX_IRQHandler>:
PWMX_IRQHandler():
C:/Users/OWNER/Desktop/BLE_Indication/SRC/Startup/startup_CH583.S:113
PWMX_IRQHandler:     1:  j 1b
200000bc:	a001                	j	200000bc <PWMX_IRQHandler>

200000be <TMR3_IRQHandler>:
TMR3_IRQHandler():
C:/Users/OWNER/Desktop/BLE_Indication/SRC/Startup/startup_CH583.S:114
TMR3_IRQHandler:     1:  j 1b
200000be:	a001                	j	200000be <TMR3_IRQHandler>

200000c0 <UART2_IRQHandler>:
UART2_IRQHandler():
C:/Users/OWNER/Desktop/BLE_Indication/SRC/Startup/startup_CH583.S:115
UART2_IRQHandler:    1:  j 1b
200000c0:	a001                	j	200000c0 <UART2_IRQHandler>

200000c2 <UART3_IRQHandler>:
UART3_IRQHandler():
C:/Users/OWNER/Desktop/BLE_Indication/SRC/Startup/startup_CH583.S:116
UART3_IRQHandler:    1:  j 1b
200000c2:	a001                	j	200000c2 <UART3_IRQHandler>

200000c4 <WDOG_BAT_IRQHandler>:
WDOG_BAT_IRQHandler():
C:/Users/OWNER/Desktop/BLE_Indication/SRC/Startup/startup_CH583.S:117
WDOG_BAT_IRQHandler: 1:  j 1b
200000c4:	a001                	j	200000c4 <WDOG_BAT_IRQHandler>

200000c6 <SetSysClock>:
sys_safe_access_enable():
C:\Users\OWNER\Desktop\BLE_Indication\SRC\StdPeriphDriver\inc/CH58x_sys.h:171
void mDelaymS(uint16_t t);

/* Safe access */
 __attribute__((always_inline)) static inline void sys_safe_access_enable(void)
{
    R8_SAFE_ACCESS_SIG = SAFE_ACCESS_SIG1;
200000c6:	400017b7          	lui	a5,0x40001
200000ca:	05700693          	li	a3,87
200000ce:	04d78023          	sb	a3,64(a5) # 40001040 <_eusrstack+0x1fff9040>
C:\Users\OWNER\Desktop\BLE_Indication\SRC\StdPeriphDriver\inc/CH58x_sys.h:172
    R8_SAFE_ACCESS_SIG = SAFE_ACCESS_SIG2;
200000d2:	fa800713          	li	a4,-88
200000d6:	04e78023          	sb	a4,64(a5)
C:\Users\OWNER\Desktop\BLE_Indication\SRC\StdPeriphDriver\inc/CH58x_sys.h:173
    SAFEOPERATE;
200000da:	0001                	nop
200000dc:	0001                	nop
SetSysClock():
C:/Users/OWNER/Desktop/BLE_Indication/SRC/StdPeriphDriver/CH58x_sys.c:27
__HIGH_CODE
void SetSysClock(SYS_CLKTypeDef sc)
{
    uint32_t i;
    sys_safe_access_enable();
    R8_PLL_CONFIG &= ~(1 << 5); //
200000de:	04b7c603          	lbu	a2,75(a5)
200000e2:	0df67613          	andi	a2,a2,223
200000e6:	04c785a3          	sb	a2,75(a5)
sys_safe_access_disable():
C:\Users\OWNER\Desktop\BLE_Indication\SRC\StdPeriphDriver\inc/CH58x_sys.h:178
}

__attribute__((always_inline)) static inline void sys_safe_access_disable(void)
{
    R8_SAFE_ACCESS_SIG = 0;
200000ea:	04078023          	sb	zero,64(a5)
SetSysClock():
C:/Users/OWNER/Desktop/BLE_Indication/SRC/StdPeriphDriver/CH58x_sys.c:29
    sys_safe_access_disable();
    if(sc & 0x20)
200000ee:	02057613          	andi	a2,a0,32
200000f2:	c24d                	beqz	a2,20000194 <SetSysClock+0xce>
C:/Users/OWNER/Desktop/BLE_Indication/SRC/StdPeriphDriver/CH58x_sys.c:31
    { // HSE div
        if(!(R8_HFCK_PWR_CTRL & RB_CLK_XT32M_PON))
200000f4:	00a7c603          	lbu	a2,10(a5)
200000f8:	8a11                	andi	a2,a2,4
200000fa:	e21d                	bnez	a2,20000120 <SetSysClock+0x5a>
sys_safe_access_enable():
C:\Users\OWNER\Desktop\BLE_Indication\SRC\StdPeriphDriver\inc/CH58x_sys.h:171
    R8_SAFE_ACCESS_SIG = SAFE_ACCESS_SIG1;
200000fc:	04d78023          	sb	a3,64(a5)
C:\Users\OWNER\Desktop\BLE_Indication\SRC\StdPeriphDriver\inc/CH58x_sys.h:172
    R8_SAFE_ACCESS_SIG = SAFE_ACCESS_SIG2;
20000100:	04e78023          	sb	a4,64(a5)
C:\Users\OWNER\Desktop\BLE_Indication\SRC\StdPeriphDriver\inc/CH58x_sys.h:173
    SAFEOPERATE;
20000104:	0001                	nop
20000106:	0001                	nop
SetSysClock():
C:/Users/OWNER/Desktop/BLE_Indication/SRC/StdPeriphDriver/CH58x_sys.c:34
        {
            sys_safe_access_enable();
            R8_HFCK_PWR_CTRL |= RB_CLK_XT32M_PON; // HSE power on
20000108:	00a7c703          	lbu	a4,10(a5)
2000010c:	00476713          	ori	a4,a4,4
20000110:	00e78523          	sb	a4,10(a5)
20000114:	4b000793          	li	a5,1200
C:/Users/OWNER/Desktop/BLE_Indication/SRC/StdPeriphDriver/CH58x_sys.c:37 (discriminator 3)
            for(i = 0; i < 1200; i++)
            {
                __nop();
20000118:	0001                	nop
C:/Users/OWNER/Desktop/BLE_Indication/SRC/StdPeriphDriver/CH58x_sys.c:38 (discriminator 3)
                __nop();
2000011a:	0001                	nop
2000011c:	17fd                	addi	a5,a5,-1
C:/Users/OWNER/Desktop/BLE_Indication/SRC/StdPeriphDriver/CH58x_sys.c:35 (discriminator 3)
            for(i = 0; i < 1200; i++)
2000011e:	ffed                	bnez	a5,20000118 <SetSysClock+0x52>
sys_safe_access_enable():
C:\Users\OWNER\Desktop\BLE_Indication\SRC\StdPeriphDriver\inc/CH58x_sys.h:171
    R8_SAFE_ACCESS_SIG = SAFE_ACCESS_SIG1;
20000120:	400017b7          	lui	a5,0x40001
20000124:	05700693          	li	a3,87
20000128:	04d78023          	sb	a3,64(a5) # 40001040 <_eusrstack+0x1fff9040>
C:\Users\OWNER\Desktop\BLE_Indication\SRC\StdPeriphDriver\inc/CH58x_sys.h:172
    R8_SAFE_ACCESS_SIG = SAFE_ACCESS_SIG2;
2000012c:	fa800713          	li	a4,-88
20000130:	04e78023          	sb	a4,64(a5)
C:\Users\OWNER\Desktop\BLE_Indication\SRC\StdPeriphDriver\inc/CH58x_sys.h:173
    SAFEOPERATE;
20000134:	0001                	nop
20000136:	0001                	nop
SetSysClock():
C:/Users/OWNER/Desktop/BLE_Indication/SRC/StdPeriphDriver/CH58x_sys.c:43
            }
        }

        sys_safe_access_enable();
        R16_CLK_SYS_CFG = (0 << 6) | (sc & 0x1f);
20000138:	897d                	andi	a0,a0,31
2000013a:	00a79423          	sh	a0,8(a5)
C:/Users/OWNER/Desktop/BLE_Indication/SRC/StdPeriphDriver/CH58x_sys.c:44
        __nop();
2000013e:	0001                	nop
C:/Users/OWNER/Desktop/BLE_Indication/SRC/StdPeriphDriver/CH58x_sys.c:45
        __nop();
20000140:	0001                	nop
C:/Users/OWNER/Desktop/BLE_Indication/SRC/StdPeriphDriver/CH58x_sys.c:46
        __nop();
20000142:	0001                	nop
C:/Users/OWNER/Desktop/BLE_Indication/SRC/StdPeriphDriver/CH58x_sys.c:47
        __nop();
20000144:	0001                	nop
sys_safe_access_disable():
C:\Users\OWNER\Desktop\BLE_Indication\SRC\StdPeriphDriver\inc/CH58x_sys.h:178
    R8_SAFE_ACCESS_SIG = 0;
20000146:	04078023          	sb	zero,64(a5)
sys_safe_access_enable():
C:\Users\OWNER\Desktop\BLE_Indication\SRC\StdPeriphDriver\inc/CH58x_sys.h:171
    R8_SAFE_ACCESS_SIG = SAFE_ACCESS_SIG1;
2000014a:	04d78023          	sb	a3,64(a5)
C:\Users\OWNER\Desktop\BLE_Indication\SRC\StdPeriphDriver\inc/CH58x_sys.h:172
    R8_SAFE_ACCESS_SIG = SAFE_ACCESS_SIG2;
2000014e:	04e78023          	sb	a4,64(a5)
C:\Users\OWNER\Desktop\BLE_Indication\SRC\StdPeriphDriver\inc/CH58x_sys.h:173
    SAFEOPERATE;
20000152:	0001                	nop
20000154:	0001                	nop
SetSysClock():
C:/Users/OWNER/Desktop/BLE_Indication/SRC/StdPeriphDriver/CH58x_sys.c:50
        sys_safe_access_disable();
        sys_safe_access_enable();
        SAFEOPERATE;
20000156:	0001                	nop
20000158:	0001                	nop
C:/Users/OWNER/Desktop/BLE_Indication/SRC/StdPeriphDriver/CH58x_sys.c:51
        R8_FLASH_CFG = 0X51;
2000015a:	40002737          	lui	a4,0x40002
2000015e:	05100693          	li	a3,81
C:/Users/OWNER/Desktop/BLE_Indication/SRC/StdPeriphDriver/CH58x_sys.c:77
        __nop();
        sys_safe_access_disable();
        if(sc == CLK_SOURCE_PLL_80MHz)
        {
            sys_safe_access_enable();
            R8_FLASH_CFG = 0X02;
20000162:	80d703a3          	sb	a3,-2041(a4) # 40001807 <_eusrstack+0x1fff9807>
sys_safe_access_disable():
C:\Users\OWNER\Desktop\BLE_Indication\SRC\StdPeriphDriver\inc/CH58x_sys.h:178
    R8_SAFE_ACCESS_SIG = 0;
20000166:	04078023          	sb	zero,64(a5)
sys_safe_access_enable():
C:\Users\OWNER\Desktop\BLE_Indication\SRC\StdPeriphDriver\inc/CH58x_sys.h:171
    R8_SAFE_ACCESS_SIG = SAFE_ACCESS_SIG1;
2000016a:	400017b7          	lui	a5,0x40001
2000016e:	05700713          	li	a4,87
20000172:	04e78023          	sb	a4,64(a5) # 40001040 <_eusrstack+0x1fff9040>
C:\Users\OWNER\Desktop\BLE_Indication\SRC\StdPeriphDriver\inc/CH58x_sys.h:172
    R8_SAFE_ACCESS_SIG = SAFE_ACCESS_SIG2;
20000176:	fa800713          	li	a4,-88
2000017a:	04e78023          	sb	a4,64(a5)
C:\Users\OWNER\Desktop\BLE_Indication\SRC\StdPeriphDriver\inc/CH58x_sys.h:173
    SAFEOPERATE;
2000017e:	0001                	nop
20000180:	0001                	nop
SetSysClock():
C:/Users/OWNER/Desktop/BLE_Indication/SRC/StdPeriphDriver/CH58x_sys.c:94
        sys_safe_access_enable();
        R16_CLK_SYS_CFG |= RB_CLK_SYS_MOD;
    }
    //更改FLASH clk的驱动能力
    sys_safe_access_enable();
    R8_PLL_CONFIG |= 1 << 7;
20000182:	04b7c703          	lbu	a4,75(a5)
20000186:	08076713          	ori	a4,a4,128
2000018a:	04e785a3          	sb	a4,75(a5)
sys_safe_access_disable():
C:\Users\OWNER\Desktop\BLE_Indication\SRC\StdPeriphDriver\inc/CH58x_sys.h:178
    R8_SAFE_ACCESS_SIG = 0;
2000018e:	04078023          	sb	zero,64(a5)
SetSysClock():
C:/Users/OWNER/Desktop/BLE_Indication/SRC/StdPeriphDriver/CH58x_sys.c:96
    sys_safe_access_disable();
}
20000192:	8082                	ret
C:/Users/OWNER/Desktop/BLE_Indication/SRC/StdPeriphDriver/CH58x_sys.c:55
    else if(sc & 0x40)
20000194:	04057613          	andi	a2,a0,64
20000198:	c641                	beqz	a2,20000220 <SetSysClock+0x15a>
C:/Users/OWNER/Desktop/BLE_Indication/SRC/StdPeriphDriver/CH58x_sys.c:57
        if(!(R8_HFCK_PWR_CTRL & RB_CLK_PLL_PON))
2000019a:	00a7c603          	lbu	a2,10(a5)
2000019e:	8a41                	andi	a2,a2,16
200001a0:	e21d                	bnez	a2,200001c6 <SetSysClock+0x100>
sys_safe_access_enable():
C:\Users\OWNER\Desktop\BLE_Indication\SRC\StdPeriphDriver\inc/CH58x_sys.h:171
    R8_SAFE_ACCESS_SIG = SAFE_ACCESS_SIG1;
200001a2:	04d78023          	sb	a3,64(a5)
C:\Users\OWNER\Desktop\BLE_Indication\SRC\StdPeriphDriver\inc/CH58x_sys.h:172
    R8_SAFE_ACCESS_SIG = SAFE_ACCESS_SIG2;
200001a6:	04e78023          	sb	a4,64(a5)
C:\Users\OWNER\Desktop\BLE_Indication\SRC\StdPeriphDriver\inc/CH58x_sys.h:173
    SAFEOPERATE;
200001aa:	0001                	nop
200001ac:	0001                	nop
SetSysClock():
C:/Users/OWNER/Desktop/BLE_Indication/SRC/StdPeriphDriver/CH58x_sys.c:60
            R8_HFCK_PWR_CTRL |= RB_CLK_PLL_PON; // PLL power on
200001ae:	00a7c703          	lbu	a4,10(a5)
200001b2:	01076713          	ori	a4,a4,16
200001b6:	00e78523          	sb	a4,10(a5)
200001ba:	7d000793          	li	a5,2000
C:/Users/OWNER/Desktop/BLE_Indication/SRC/StdPeriphDriver/CH58x_sys.c:63 (discriminator 3)
                __nop();
200001be:	0001                	nop
C:/Users/OWNER/Desktop/BLE_Indication/SRC/StdPeriphDriver/CH58x_sys.c:64 (discriminator 3)
                __nop();
200001c0:	0001                	nop
200001c2:	17fd                	addi	a5,a5,-1
C:/Users/OWNER/Desktop/BLE_Indication/SRC/StdPeriphDriver/CH58x_sys.c:61 (discriminator 3)
            for(i = 0; i < 2000; i++)
200001c4:	ffed                	bnez	a5,200001be <SetSysClock+0xf8>
sys_safe_access_enable():
C:\Users\OWNER\Desktop\BLE_Indication\SRC\StdPeriphDriver\inc/CH58x_sys.h:171
    R8_SAFE_ACCESS_SIG = SAFE_ACCESS_SIG1;
200001c6:	400017b7          	lui	a5,0x40001
200001ca:	05700693          	li	a3,87
200001ce:	04d78023          	sb	a3,64(a5) # 40001040 <_eusrstack+0x1fff9040>
C:\Users\OWNER\Desktop\BLE_Indication\SRC\StdPeriphDriver\inc/CH58x_sys.h:172
    R8_SAFE_ACCESS_SIG = SAFE_ACCESS_SIG2;
200001d2:	fa800713          	li	a4,-88
200001d6:	04e78023          	sb	a4,64(a5)
C:\Users\OWNER\Desktop\BLE_Indication\SRC\StdPeriphDriver\inc/CH58x_sys.h:173
    SAFEOPERATE;
200001da:	0001                	nop
200001dc:	0001                	nop
SetSysClock():
C:/Users/OWNER/Desktop/BLE_Indication/SRC/StdPeriphDriver/CH58x_sys.c:68
        R16_CLK_SYS_CFG = (1 << 6) | (sc & 0x1f);
200001de:	01f57613          	andi	a2,a0,31
200001e2:	04066613          	ori	a2,a2,64
200001e6:	00c79423          	sh	a2,8(a5)
C:/Users/OWNER/Desktop/BLE_Indication/SRC/StdPeriphDriver/CH58x_sys.c:69
        __nop();
200001ea:	0001                	nop
C:/Users/OWNER/Desktop/BLE_Indication/SRC/StdPeriphDriver/CH58x_sys.c:70
        __nop();
200001ec:	0001                	nop
C:/Users/OWNER/Desktop/BLE_Indication/SRC/StdPeriphDriver/CH58x_sys.c:71
        __nop();
200001ee:	0001                	nop
C:/Users/OWNER/Desktop/BLE_Indication/SRC/StdPeriphDriver/CH58x_sys.c:72
        __nop();
200001f0:	0001                	nop
sys_safe_access_disable():
C:\Users\OWNER\Desktop\BLE_Indication\SRC\StdPeriphDriver\inc/CH58x_sys.h:178
    R8_SAFE_ACCESS_SIG = 0;
200001f2:	04078023          	sb	zero,64(a5)
sys_safe_access_enable():
C:\Users\OWNER\Desktop\BLE_Indication\SRC\StdPeriphDriver\inc/CH58x_sys.h:171
    R8_SAFE_ACCESS_SIG = SAFE_ACCESS_SIG1;
200001f6:	04d78023          	sb	a3,64(a5)
SetSysClock():
C:/Users/OWNER/Desktop/BLE_Indication/SRC/StdPeriphDriver/CH58x_sys.c:74
        if(sc == CLK_SOURCE_PLL_80MHz)
200001fa:	04600613          	li	a2,70
sys_safe_access_enable():
C:\Users\OWNER\Desktop\BLE_Indication\SRC\StdPeriphDriver\inc/CH58x_sys.h:172
    R8_SAFE_ACCESS_SIG = SAFE_ACCESS_SIG2;
200001fe:	04e78023          	sb	a4,64(a5)
SetSysClock():
C:/Users/OWNER/Desktop/BLE_Indication/SRC/StdPeriphDriver/CH58x_sys.c:74
20000202:	00c51863          	bne	a0,a2,20000212 <SetSysClock+0x14c>
sys_safe_access_enable():
C:\Users\OWNER\Desktop\BLE_Indication\SRC\StdPeriphDriver\inc/CH58x_sys.h:173
    SAFEOPERATE;
20000206:	0001                	nop
20000208:	0001                	nop
SetSysClock():
C:/Users/OWNER/Desktop/BLE_Indication/SRC/StdPeriphDriver/CH58x_sys.c:77
            R8_FLASH_CFG = 0X02;
2000020a:	40002737          	lui	a4,0x40002
2000020e:	4689                	li	a3,2
20000210:	bf89                	j	20000162 <SetSysClock+0x9c>
sys_safe_access_enable():
C:\Users\OWNER\Desktop\BLE_Indication\SRC\StdPeriphDriver\inc/CH58x_sys.h:173
20000212:	0001                	nop
20000214:	0001                	nop
SetSysClock():
C:/Users/OWNER/Desktop/BLE_Indication/SRC/StdPeriphDriver/CH58x_sys.c:83
            R8_FLASH_CFG = 0X52;
20000216:	40002737          	lui	a4,0x40002
2000021a:	05200693          	li	a3,82
2000021e:	b791                	j	20000162 <SetSysClock+0x9c>
sys_safe_access_enable():
C:\Users\OWNER\Desktop\BLE_Indication\SRC\StdPeriphDriver\inc/CH58x_sys.h:171
    R8_SAFE_ACCESS_SIG = SAFE_ACCESS_SIG1;
20000220:	04d78023          	sb	a3,64(a5)
C:\Users\OWNER\Desktop\BLE_Indication\SRC\StdPeriphDriver\inc/CH58x_sys.h:172
    R8_SAFE_ACCESS_SIG = SAFE_ACCESS_SIG2;
20000224:	04e78023          	sb	a4,64(a5)
C:\Users\OWNER\Desktop\BLE_Indication\SRC\StdPeriphDriver\inc/CH58x_sys.h:173
    SAFEOPERATE;
20000228:	0001                	nop
2000022a:	0001                	nop
SetSysClock():
C:/Users/OWNER/Desktop/BLE_Indication/SRC/StdPeriphDriver/CH58x_sys.c:90
        R16_CLK_SYS_CFG |= RB_CLK_SYS_MOD;
2000022c:	0087d703          	lhu	a4,8(a5)
20000230:	0c076713          	ori	a4,a4,192
20000234:	00e79423          	sh	a4,8(a5)
20000238:	bf0d                	j	2000016a <SetSysClock+0xa4>

2000023a <SYS_ResetExecute>:
SYS_ResetExecute():
C:/Users/OWNER/Desktop/BLE_Indication/SRC/StdPeriphDriver/CH58x_sys.c:158
 *
 * @return  none
 */
__HIGH_CODE
void SYS_ResetExecute(void)
{
2000023a:	1141                	addi	sp,sp,-16
C:/Users/OWNER/Desktop/BLE_Indication/SRC/StdPeriphDriver/CH58x_sys.c:159
    FLASH_ROM_SW_RESET();
2000023c:	4681                	li	a3,0
2000023e:	4601                	li	a2,0
20000240:	4581                	li	a1,0
20000242:	4511                	li	a0,4
C:/Users/OWNER/Desktop/BLE_Indication/SRC/StdPeriphDriver/CH58x_sys.c:158
{
20000244:	c606                	sw	ra,12(sp)
C:/Users/OWNER/Desktop/BLE_Indication/SRC/StdPeriphDriver/CH58x_sys.c:159
    FLASH_ROM_SW_RESET();
20000246:	2259                	jal	200003cc <FLASH_EEPROM_CMD>
sys_safe_access_enable():
C:\Users\OWNER\Desktop\BLE_Indication\SRC\StdPeriphDriver\inc/CH58x_sys.h:171
    R8_SAFE_ACCESS_SIG = SAFE_ACCESS_SIG1;
20000248:	400017b7          	lui	a5,0x40001
2000024c:	05700713          	li	a4,87
20000250:	04e78023          	sb	a4,64(a5) # 40001040 <_eusrstack+0x1fff9040>
C:\Users\OWNER\Desktop\BLE_Indication\SRC\StdPeriphDriver\inc/CH58x_sys.h:172
    R8_SAFE_ACCESS_SIG = SAFE_ACCESS_SIG2;
20000254:	fa800713          	li	a4,-88
20000258:	04e78023          	sb	a4,64(a5)
C:\Users\OWNER\Desktop\BLE_Indication\SRC\StdPeriphDriver\inc/CH58x_sys.h:173
    SAFEOPERATE;
2000025c:	0001                	nop
2000025e:	0001                	nop
SYS_ResetExecute():
C:/Users/OWNER/Desktop/BLE_Indication/SRC/StdPeriphDriver/CH58x_sys.c:161
    sys_safe_access_enable();
    R8_RST_WDOG_CTRL |= RB_SOFTWARE_RESET;
20000260:	0467c703          	lbu	a4,70(a5)
20000264:	00176713          	ori	a4,a4,1
20000268:	04e78323          	sb	a4,70(a5)
sys_safe_access_disable():
C:\Users\OWNER\Desktop\BLE_Indication\SRC\StdPeriphDriver\inc/CH58x_sys.h:178
    R8_SAFE_ACCESS_SIG = 0;
2000026c:	04078023          	sb	zero,64(a5)
SYS_ResetExecute():
C:/Users/OWNER/Desktop/BLE_Indication/SRC/StdPeriphDriver/CH58x_sys.c:163
    sys_safe_access_disable();
}
20000270:	40b2                	lw	ra,12(sp)
20000272:	0141                	addi	sp,sp,16
20000274:	8082                	ret

20000276 <HardFault_Handler>:
HardFault_Handler():
C:/Users/OWNER/Desktop/BLE_Indication/SRC/StdPeriphDriver/CH58x_sys.c:297
__INTERRUPT
__HIGH_CODE
__attribute__((weak))
void HardFault_Handler(void)
{
    FLASH_ROM_SW_RESET();
20000276:	4681                	li	a3,0
20000278:	4601                	li	a2,0
2000027a:	4581                	li	a1,0
2000027c:	4511                	li	a0,4
2000027e:	22b9                	jal	200003cc <FLASH_EEPROM_CMD>
sys_safe_access_enable():
C:\Users\OWNER\Desktop\BLE_Indication\SRC\StdPeriphDriver\inc/CH58x_sys.h:171
    R8_SAFE_ACCESS_SIG = SAFE_ACCESS_SIG1;
20000280:	400017b7          	lui	a5,0x40001
20000284:	05700693          	li	a3,87
20000288:	04d78023          	sb	a3,64(a5) # 40001040 <_eusrstack+0x1fff9040>
C:\Users\OWNER\Desktop\BLE_Indication\SRC\StdPeriphDriver\inc/CH58x_sys.h:172
    R8_SAFE_ACCESS_SIG = SAFE_ACCESS_SIG2;
2000028c:	fa800713          	li	a4,-88
20000290:	04e78023          	sb	a4,64(a5)
C:\Users\OWNER\Desktop\BLE_Indication\SRC\StdPeriphDriver\inc/CH58x_sys.h:173
    SAFEOPERATE;
20000294:	0001                	nop
20000296:	0001                	nop
HardFault_Handler():
C:/Users/OWNER/Desktop/BLE_Indication/SRC/StdPeriphDriver/CH58x_sys.c:299
    sys_safe_access_enable();
    R16_INT32K_TUNE = 0xFFFF;
20000298:	567d                	li	a2,-1
2000029a:	02c79623          	sh	a2,44(a5)
sys_safe_access_enable():
C:\Users\OWNER\Desktop\BLE_Indication\SRC\StdPeriphDriver\inc/CH58x_sys.h:171
    R8_SAFE_ACCESS_SIG = SAFE_ACCESS_SIG1;
2000029e:	04d78023          	sb	a3,64(a5)
C:\Users\OWNER\Desktop\BLE_Indication\SRC\StdPeriphDriver\inc/CH58x_sys.h:172
    R8_SAFE_ACCESS_SIG = SAFE_ACCESS_SIG2;
200002a2:	04e78023          	sb	a4,64(a5)
C:\Users\OWNER\Desktop\BLE_Indication\SRC\StdPeriphDriver\inc/CH58x_sys.h:173
    SAFEOPERATE;
200002a6:	0001                	nop
200002a8:	0001                	nop
HardFault_Handler():
C:/Users/OWNER/Desktop/BLE_Indication/SRC/StdPeriphDriver/CH58x_sys.c:301
    sys_safe_access_enable();
    R8_RST_WDOG_CTRL |= RB_SOFTWARE_RESET;
200002aa:	0467c703          	lbu	a4,70(a5)
200002ae:	00176713          	ori	a4,a4,1
200002b2:	04e78323          	sb	a4,70(a5)
sys_safe_access_disable():
C:\Users\OWNER\Desktop\BLE_Indication\SRC\StdPeriphDriver\inc/CH58x_sys.h:178
    R8_SAFE_ACCESS_SIG = 0;
200002b6:	04078023          	sb	zero,64(a5)
HardFault_Handler():
C:/Users/OWNER/Desktop/BLE_Indication/SRC/StdPeriphDriver/CH58x_sys.c:303 (discriminator 1)
    sys_safe_access_disable();
    while(1);
200002ba:	a001                	j	200002ba <HardFault_Handler+0x44>

200002bc <mDelayuS>:
mDelayuS():
C:/Users/OWNER/Desktop/BLE_Indication/SRC/StdPeriphDriver/CH58x_sys.c:322
{
    uint32_t i;
#if(FREQ_SYS == 80000000)
    i = t * 20;
#elif(FREQ_SYS == 60000000)
    i = t * 15;
200002bc:	47bd                	li	a5,15
200002be:	02f50533          	mul	a0,a0,a5
C:/Users/OWNER/Desktop/BLE_Indication/SRC/StdPeriphDriver/CH58x_sys.c:346 (discriminator 1)
#else
    i = t << 1;
#endif
    do
    {
        __nop();
200002c2:	0001                	nop
C:/Users/OWNER/Desktop/BLE_Indication/SRC/StdPeriphDriver/CH58x_sys.c:347 (discriminator 1)
    } while(--i);
200002c4:	157d                	addi	a0,a0,-1
200002c6:	fd75                	bnez	a0,200002c2 <mDelayuS+0x6>
C:/Users/OWNER/Desktop/BLE_Indication/SRC/StdPeriphDriver/CH58x_sys.c:348
}
200002c8:	8082                	ret

200002ca <mDelaymS>:
mDelaymS():
C:/Users/OWNER/Desktop/BLE_Indication/SRC/StdPeriphDriver/CH58x_sys.c:361
 *
 * @return  none
 */
__HIGH_CODE
void mDelaymS(uint16_t t)
{
200002ca:	1141                	addi	sp,sp,-16
200002cc:	c422                	sw	s0,8(sp)
200002ce:	c226                	sw	s1,4(sp)
200002d0:	c606                	sw	ra,12(sp)
200002d2:	84aa                	mv	s1,a0
C:/Users/OWNER/Desktop/BLE_Indication/SRC/StdPeriphDriver/CH58x_sys.c:364
    uint16_t i;

    for(i = 0; i < t; i++)
200002d4:	4401                	li	s0,0
C:/Users/OWNER/Desktop/BLE_Indication/SRC/StdPeriphDriver/CH58x_sys.c:364 (discriminator 1)
200002d6:	00941763          	bne	s0,s1,200002e4 <mDelaymS+0x1a>
C:/Users/OWNER/Desktop/BLE_Indication/SRC/StdPeriphDriver/CH58x_sys.c:368
    {
        mDelayuS(1000);
    }
}
200002da:	40b2                	lw	ra,12(sp)
200002dc:	4422                	lw	s0,8(sp)
200002de:	4492                	lw	s1,4(sp)
200002e0:	0141                	addi	sp,sp,16
200002e2:	8082                	ret
C:/Users/OWNER/Desktop/BLE_Indication/SRC/StdPeriphDriver/CH58x_sys.c:364 (discriminator 3)
    for(i = 0; i < t; i++)
200002e4:	0405                	addi	s0,s0,1
C:/Users/OWNER/Desktop/BLE_Indication/SRC/StdPeriphDriver/CH58x_sys.c:366 (discriminator 3)
        mDelayuS(1000);
200002e6:	3e800513          	li	a0,1000
C:/Users/OWNER/Desktop/BLE_Indication/SRC/StdPeriphDriver/CH58x_sys.c:364 (discriminator 3)
    for(i = 0; i < t; i++)
200002ea:	0442                	slli	s0,s0,0x10
C:/Users/OWNER/Desktop/BLE_Indication/SRC/StdPeriphDriver/CH58x_sys.c:366 (discriminator 3)
        mDelayuS(1000);
200002ec:	3fc1                	jal	200002bc <mDelayuS>
C:/Users/OWNER/Desktop/BLE_Indication/SRC/StdPeriphDriver/CH58x_sys.c:364 (discriminator 3)
    for(i = 0; i < t; i++)
200002ee:	8041                	srli	s0,s0,0x10
200002f0:	b7dd                	j	200002d6 <mDelaymS+0xc>

200002f2 <RTC_IRQHandler>:
RTC_IRQHandler():
C:/Users/OWNER/Desktop/BLE_Indication/BLE/HAL/RTC.c:57
 */
__INTERRUPT
__HIGH_CODE
void RTC_IRQHandler(void)
{
    R8_RTC_FLAG_CTRL = (RB_RTC_TMR_CLR | RB_RTC_TRIG_CLR);
200002f2:	400017b7          	lui	a5,0x40001
200002f6:	03000713          	li	a4,48
200002fa:	02e78823          	sb	a4,48(a5) # 40001030 <_eusrstack+0x1fff9030>
C:/Users/OWNER/Desktop/BLE_Indication/BLE/HAL/RTC.c:58
    RTCTigFlag = 1;
200002fe:	4785                	li	a5,1
20000300:	84f1aa23          	sw	a5,-1964(gp) # 2000220c <RTCTigFlag>
C:/Users/OWNER/Desktop/BLE_Indication/BLE/HAL/RTC.c:59
}
20000304:	30200073          	mret

20000308 <Main_Circulation>:
Main_Circulation():
C:\Users\OWNER\Desktop\BLE_Indication\BLE\Central_Indication\obj/../APP/central_main.c:36
 * @return  none
 */
__HIGH_CODE
__attribute__((noinline))
void Main_Circulation()
{
20000308:	1141                	addi	sp,sp,-16
2000030a:	c606                	sw	ra,12(sp)
C:\Users\OWNER\Desktop\BLE_Indication\BLE\Central_Indication\obj/../APP/central_main.c:39 (discriminator 1)
    while(1)
    {
        TMOS_SystemProcess();
2000030c:	2d85                	jal	2000097c <TMOS_SystemProcess>
2000030e:	bffd                	j	2000030c <Main_Circulation+0x4>

20000310 <FLASH_ROM_BEG>:
FLASH_ROM_BEG():
20000310:	80040323          	sb	zero,-2042(s0)
20000314:	4715                	li	a4,5
20000316:	80e40323          	sb	a4,-2042(s0)
2000031a:	0001                	nop
2000031c:	80a40223          	sb	a0,-2044(s0)
20000320:	8082                	ret

20000322 <FLASH_ROM_END>:
FLASH_ROM_END():
20000322:	80640783          	lb	a5,-2042(s0)
20000326:	fe07cee3          	bltz	a5,20000322 <FLASH_ROM_END>
2000032a:	80040323          	sb	zero,-2042(s0)
2000032e:	8082                	ret

20000330 <FLASH_ROM_IN>:
FLASH_ROM_IN():
20000330:	80640783          	lb	a5,-2042(s0)
20000334:	fe07cee3          	bltz	a5,20000330 <FLASH_ROM_IN>
20000338:	80444503          	lbu	a0,-2044(s0)
2000033c:	8082                	ret

2000033e <FLASH_ROM_OUT>:
FLASH_ROM_OUT():
2000033e:	80640783          	lb	a5,-2042(s0)
20000342:	fe07cee3          	bltz	a5,2000033e <FLASH_ROM_OUT>
20000346:	80a40223          	sb	a0,-2044(s0)
2000034a:	8082                	ret

2000034c <FLASH_ROM_ADDR>:
FLASH_ROM_ADDR():
2000034c:	1141                	addi	sp,sp,-16
2000034e:	c426                	sw	s1,8(sp)
20000350:	c24a                	sw	s2,4(sp)
20000352:	c04e                	sw	s3,0(sp)
20000354:	c606                	sw	ra,12(sp)
20000356:	0bf57713          	andi	a4,a0,191
2000035a:	47ad                	li	a5,11
2000035c:	89aa                	mv	s3,a0
2000035e:	892e                	mv	s2,a1
20000360:	4495                	li	s1,5
20000362:	00f70663          	beq	a4,a5,2000036e <FLASH_ROM_ADDR+0x22>
20000366:	4519                	li	a0,6
20000368:	3765                	jal	20000310 <FLASH_ROM_BEG>
2000036a:	3f65                	jal	20000322 <FLASH_ROM_END>
2000036c:	448d                	li	s1,3
2000036e:	854e                	mv	a0,s3
20000370:	3745                	jal	20000310 <FLASH_ROM_BEG>
20000372:	59fd                	li	s3,-1
20000374:	14fd                	addi	s1,s1,-1
20000376:	01349863          	bne	s1,s3,20000386 <FLASH_ROM_ADDR+0x3a>
2000037a:	40b2                	lw	ra,12(sp)
2000037c:	44a2                	lw	s1,8(sp)
2000037e:	4912                	lw	s2,4(sp)
20000380:	4982                	lw	s3,0(sp)
20000382:	0141                	addi	sp,sp,16
20000384:	8082                	ret
20000386:	01095513          	srli	a0,s2,0x10
2000038a:	0ff57513          	andi	a0,a0,255
2000038e:	3f45                	jal	2000033e <FLASH_ROM_OUT>
20000390:	0922                	slli	s2,s2,0x8
20000392:	b7cd                	j	20000374 <FLASH_ROM_ADDR+0x28>

20000394 <FLASH_ROM_WAIT>:
FLASH_ROM_WAIT():
20000394:	1101                	addi	sp,sp,-32
20000396:	cc26                	sw	s1,24(sp)
20000398:	ce06                	sw	ra,28(sp)
2000039a:	000804b7          	lui	s1,0x80
2000039e:	3751                	jal	20000322 <FLASH_ROM_END>
200003a0:	4515                	li	a0,5
200003a2:	37bd                	jal	20000310 <FLASH_ROM_BEG>
200003a4:	3771                	jal	20000330 <FLASH_ROM_IN>
200003a6:	3769                	jal	20000330 <FLASH_ROM_IN>
200003a8:	c62a                	sw	a0,12(sp)
200003aa:	3fa5                	jal	20000322 <FLASH_ROM_END>
200003ac:	4532                	lw	a0,12(sp)
200003ae:	00157793          	andi	a5,a0,1
200003b2:	eb89                	bnez	a5,200003c4 <FLASH_ROM_WAIT+0x30>
200003b4:	00156513          	ori	a0,a0,1
200003b8:	0ff57513          	andi	a0,a0,255
200003bc:	40f2                	lw	ra,28(sp)
200003be:	44e2                	lw	s1,24(sp)
200003c0:	6105                	addi	sp,sp,32
200003c2:	8082                	ret
200003c4:	14fd                	addi	s1,s1,-1
200003c6:	fce9                	bnez	s1,200003a0 <FLASH_ROM_WAIT+0xc>
200003c8:	4501                	li	a0,0
200003ca:	bfcd                	j	200003bc <FLASH_ROM_WAIT+0x28>

200003cc <FLASH_EEPROM_CMD>:
FLASH_EEPROM_CMD():
200003cc:	7139                	addi	sp,sp,-64
200003ce:	dc26                	sw	s1,56(sp)
200003d0:	da4a                	sw	s2,52(sp)
200003d2:	d84e                	sw	s3,48(sp)
200003d4:	d652                	sw	s4,44(sp)
200003d6:	d456                	sw	s5,40(sp)
200003d8:	d25a                	sw	s6,36(sp)
200003da:	d05e                	sw	s7,32(sp)
200003dc:	de06                	sw	ra,60(sp)
200003de:	ce62                	sw	s8,28(sp)
200003e0:	cc66                	sw	s9,24(sp)
200003e2:	e000e7b7          	lui	a5,0xe000e
200003e6:	577d                	li	a4,-1
200003e8:	0007aa83          	lw	s5,0(a5) # e000e000 <_eusrstack+0xc0006000>
200003ec:	c622                	sw	s0,12(sp)
200003ee:	0047aa03          	lw	s4,4(a5)
200003f2:	18e7a023          	sw	a4,384(a5)
200003f6:	18e7a223          	sw	a4,388(a5)
200003fa:	400017b7          	lui	a5,0x40001
200003fe:	05700713          	li	a4,87
20000402:	04e78023          	sb	a4,64(a5) # 40001040 <_eusrstack+0x1fff9040>
20000406:	fa800713          	li	a4,-88
2000040a:	04e78023          	sb	a4,64(a5)
2000040e:	0447c783          	lbu	a5,68(a5)
20000412:	ff750b93          	addi	s7,a0,-9
20000416:	84b6                	mv	s1,a3
20000418:	07e2                	slli	a5,a5,0x18
2000041a:	0ffbfb93          	andi	s7,s7,255
2000041e:	4685                	li	a3,1
20000420:	89aa                	mv	s3,a0
20000422:	8b2e                	mv	s6,a1
20000424:	8932                	mv	s2,a2
20000426:	40002437          	lui	s0,0x40002
2000042a:	87e1                	srai	a5,a5,0x18
2000042c:	5701                	li	a4,-32
2000042e:	0176fa63          	bgeu	a3,s7,20000442 <FLASH_EEPROM_CMD+0x76>
20000432:	00d50863          	beq	a0,a3,20000442 <FLASH_EEPROM_CMD+0x76>
20000436:	4689                	li	a3,2
20000438:	02000713          	li	a4,32
2000043c:	00d51363          	bne	a0,a3,20000442 <FLASH_EEPROM_CMD+0x76>
20000440:	5701                	li	a4,-32
20000442:	8fd9                	or	a5,a5,a4
20000444:	0ff7f793          	andi	a5,a5,255
20000448:	40001cb7          	lui	s9,0x40001
2000044c:	04fc8223          	sb	a5,68(s9) # 40001044 <_eusrstack+0x1fff9044>
20000450:	4711                	li	a4,4
20000452:	80e40323          	sb	a4,-2042(s0) # 40001806 <_eusrstack+0x1fff9806>
20000456:	0ff00513          	li	a0,255
2000045a:	3d5d                	jal	20000310 <FLASH_ROM_BEG>
2000045c:	4c09                	li	s8,2
2000045e:	35d1                	jal	20000322 <FLASH_ROM_END>
20000460:	117c6d63          	bltu	s8,s7,2000057a <FLASH_EEPROM_CMD+0x1ae>
20000464:	000705b7          	lui	a1,0x70
20000468:	95da                	add	a1,a1,s6
2000046a:	00078737          	lui	a4,0x78
2000046e:	5579                	li	a0,-2
20000470:	04e5f263          	bgeu	a1,a4,200004b4 <FLASH_EEPROM_CMD+0xe8>
20000474:	009587b3          	add	a5,a1,s1
20000478:	02f76e63          	bltu	a4,a5,200004b4 <FLASH_EEPROM_CMD+0xe8>
2000047c:	00080b37          	lui	s6,0x80
20000480:	47a9                	li	a5,10
20000482:	0165eb33          	or	s6,a1,s6
20000486:	06f99963          	bne	s3,a5,200004f8 <FLASH_EEPROM_CMD+0x12c>
2000048a:	e489                	bnez	s1,20000494 <FLASH_EEPROM_CMD+0xc8>
2000048c:	4481                	li	s1,0
2000048e:	3d51                	jal	20000322 <FLASH_ROM_END>
20000490:	8526                	mv	a0,s1
20000492:	a00d                	j	200004b4 <FLASH_EEPROM_CMD+0xe8>
20000494:	85da                	mv	a1,s6
20000496:	4509                	li	a0,2
20000498:	3d55                	jal	2000034c <FLASH_ROM_ADDR>
2000049a:	0905                	addi	s2,s2,1
2000049c:	fff94503          	lbu	a0,-1(s2)
200004a0:	14fd                	addi	s1,s1,-1
200004a2:	0b05                	addi	s6,s6,1
200004a4:	3d69                	jal	2000033e <FLASH_ROM_OUT>
200004a6:	c481                	beqz	s1,200004ae <FLASH_EEPROM_CMD+0xe2>
200004a8:	0ffb7793          	andi	a5,s6,255
200004ac:	f7fd                	bnez	a5,2000049a <FLASH_EEPROM_CMD+0xce>
200004ae:	35dd                	jal	20000394 <FLASH_ROM_WAIT>
200004b0:	fd69                	bnez	a0,2000048a <FLASH_EEPROM_CMD+0xbe>
200004b2:	557d                	li	a0,-1
200004b4:	400017b7          	lui	a5,0x40001
200004b8:	05700713          	li	a4,87
200004bc:	04e78023          	sb	a4,64(a5) # 40001040 <_eusrstack+0x1fff9040>
200004c0:	fa800713          	li	a4,-88
200004c4:	04e78023          	sb	a4,64(a5)
200004c8:	0447c703          	lbu	a4,68(a5)
200004cc:	8b41                	andi	a4,a4,16
200004ce:	04e78223          	sb	a4,68(a5)
200004d2:	50f2                	lw	ra,60(sp)
200004d4:	e000e7b7          	lui	a5,0xe000e
200004d8:	1157a023          	sw	s5,256(a5) # e000e100 <_eusrstack+0xc0006100>
200004dc:	1147a223          	sw	s4,260(a5)
200004e0:	54e2                	lw	s1,56(sp)
200004e2:	4432                	lw	s0,12(sp)
200004e4:	5952                	lw	s2,52(sp)
200004e6:	59c2                	lw	s3,48(sp)
200004e8:	5a32                	lw	s4,44(sp)
200004ea:	5aa2                	lw	s5,40(sp)
200004ec:	5b12                	lw	s6,36(sp)
200004ee:	5b82                	lw	s7,32(sp)
200004f0:	4c72                	lw	s8,28(sp)
200004f2:	4ce2                	lw	s9,24(sp)
200004f4:	6121                	addi	sp,sp,64
200004f6:	8082                	ret
200004f8:	47a5                	li	a5,9
200004fa:	06f99563          	bne	s3,a5,20000564 <FLASH_EEPROM_CMD+0x198>
200004fe:	6985                	lui	s3,0x1
20000500:	0ff00913          	li	s2,255
20000504:	009906b3          	add	a3,s2,s1
20000508:	012b74b3          	and	s1,s6,s2
2000050c:	94b6                	add	s1,s1,a3
2000050e:	fff94913          	not	s2,s2
20000512:	009974b3          	and	s1,s2,s1
20000516:	6b85                	lui	s7,0x1
20000518:	01697933          	and	s2,s2,s6
2000051c:	6b41                	lui	s6,0x10
2000051e:	fff98793          	addi	a5,s3,-1 # fff <_einit+0xffb>
20000522:	0127f7b3          	and	a5,a5,s2
20000526:	e399                	bnez	a5,2000052c <FLASH_EEPROM_CMD+0x160>
20000528:	0134fc63          	bgeu	s1,s3,20000540 <FLASH_EEPROM_CMD+0x174>
2000052c:	0049d993          	srli	s3,s3,0x4
20000530:	47c1                	li	a5,16
20000532:	ff37e6e3          	bltu	a5,s3,2000051e <FLASH_EEPROM_CMD+0x152>
20000536:	bf99                	j	2000048c <FLASH_EEPROM_CMD+0xc0>
20000538:	6905                	lui	s2,0x1
2000053a:	69c1                	lui	s3,0x10
2000053c:	197d                	addi	s2,s2,-1
2000053e:	b7d9                	j	20000504 <FLASH_EEPROM_CMD+0x138>
20000540:	0d800513          	li	a0,216
20000544:	01698863          	beq	s3,s6,20000554 <FLASH_EEPROM_CMD+0x188>
20000548:	02000513          	li	a0,32
2000054c:	01798463          	beq	s3,s7,20000554 <FLASH_EEPROM_CMD+0x188>
20000550:	08100513          	li	a0,129
20000554:	85ca                	mv	a1,s2
20000556:	3bdd                	jal	2000034c <FLASH_ROM_ADDR>
20000558:	3d35                	jal	20000394 <FLASH_ROM_WAIT>
2000055a:	dd21                	beqz	a0,200004b2 <FLASH_EEPROM_CMD+0xe6>
2000055c:	994e                	add	s2,s2,s3
2000055e:	413484b3          	sub	s1,s1,s3
20000562:	b7d9                	j	20000528 <FLASH_EEPROM_CMD+0x15c>
20000564:	85da                	mv	a1,s6
20000566:	452d                	li	a0,11
20000568:	33d5                	jal	2000034c <FLASH_ROM_ADDR>
2000056a:	94ca                	add	s1,s1,s2
2000056c:	f29900e3          	beq	s2,s1,2000048c <FLASH_EEPROM_CMD+0xc0>
20000570:	0905                	addi	s2,s2,1
20000572:	3b7d                	jal	20000330 <FLASH_ROM_IN>
20000574:	fea90fa3          	sb	a0,-1(s2) # fff <_einit+0xffb>
20000578:	bfd5                	j	2000056c <FLASH_EEPROM_CMD+0x1a0>
2000057a:	fff98793          	addi	a5,s3,-1 # ffff <SM_ProcessEvent+0x7b>
2000057e:	0ff7f793          	andi	a5,a5,255
20000582:	0cfc6163          	bltu	s8,a5,20000644 <.loop402+0x7a>
20000586:	041cc783          	lbu	a5,65(s9)
2000058a:	08300713          	li	a4,131
2000058e:	04f71f63          	bne	a4,a5,200005ec <.loop402+0x22>
20000592:	00080737          	lui	a4,0x80
20000596:	04eb6b63          	bltu	s6,a4,200005ec <.loop402+0x22>
2000059a:	009b07b3          	add	a5,s6,s1
2000059e:	001006b7          	lui	a3,0x100
200005a2:	04d7f563          	bgeu	a5,a3,200005ec <.loop402+0x22>
200005a6:	00eb4b33          	xor	s6,s6,a4
200005aa:	4789                	li	a5,2
200005ac:	06f99363          	bne	s3,a5,20000612 <.loop402+0x48>
200005b0:	8089                	srli	s1,s1,0x2
200005b2:	49d5                	li	s3,21
200005b4:	ec048ce3          	beqz	s1,2000048c <FLASH_EEPROM_CMD+0xc0>
200005b8:	85da                	mv	a1,s6
200005ba:	4509                	li	a0,2
200005bc:	3b41                	jal	2000034c <FLASH_ROM_ADDR>
200005be:	0911                	addi	s2,s2,4
200005c0:	ffc92703          	lw	a4,-4(s2)
200005c4:	4791                	li	a5,4
200005c6:	80e42023          	sw	a4,-2048(s0)

200005ca <.loop402>:
200005ca:	80640703          	lb	a4,-2042(s0)
200005ce:	fe074ee3          	bltz	a4,200005ca <.loop402>
200005d2:	81340323          	sb	s3,-2042(s0)
200005d6:	17fd                	addi	a5,a5,-1
200005d8:	fbed                	bnez	a5,200005ca <.loop402>
200005da:	14fd                	addi	s1,s1,-1
200005dc:	0b11                	addi	s6,s6,4
200005de:	c481                	beqz	s1,200005e6 <.loop402+0x1c>
200005e0:	0ffb7793          	andi	a5,s6,255
200005e4:	ffe9                	bnez	a5,200005be <FLASH_EEPROM_CMD+0x1f2>
200005e6:	337d                	jal	20000394 <FLASH_ROM_WAIT>
200005e8:	f571                	bnez	a0,200005b4 <FLASH_EEPROM_CMD+0x1e8>
200005ea:	b5e1                	j	200004b2 <FLASH_EEPROM_CMD+0xe6>
200005ec:	400017b7          	lui	a5,0x40001
200005f0:	0457c703          	lbu	a4,69(a5) # 40001045 <_eusrstack+0x1fff9045>
200005f4:	000807b7          	lui	a5,0x80
200005f8:	02077713          	andi	a4,a4,32
200005fc:	e319                	bnez	a4,20000602 <.loop402+0x38>
200005fe:	000787b7          	lui	a5,0x78
20000602:	5579                	li	a0,-2
20000604:	eafb78e3          	bgeu	s6,a5,200004b4 <FLASH_EEPROM_CMD+0xe8>
20000608:	009b0733          	add	a4,s6,s1
2000060c:	f8e7ffe3          	bgeu	a5,a4,200005aa <FLASH_EEPROM_CMD+0x1de>
20000610:	b555                	j	200004b4 <FLASH_EEPROM_CMD+0xe8>
20000612:	4785                	li	a5,1
20000614:	f2f982e3          	beq	s3,a5,20000538 <FLASH_EEPROM_CMD+0x16c>
20000618:	85da                	mv	a1,s6
2000061a:	452d                	li	a0,11
2000061c:	3b05                	jal	2000034c <FLASH_ROM_ADDR>
2000061e:	fff48993          	addi	s3,s1,-1 # 7ffff <_data_lma+0x59f6f>
20000622:	e60485e3          	beqz	s1,2000048c <FLASH_EEPROM_CMD+0xc0>
20000626:	3329                	jal	20000330 <FLASH_ROM_IN>
20000628:	0039f793          	andi	a5,s3,3
2000062c:	eb91                	bnez	a5,20000640 <.loop402+0x76>
2000062e:	80042683          	lw	a3,-2048(s0)
20000632:	00092703          	lw	a4,0(s2)
20000636:	00490793          	addi	a5,s2,4
2000063a:	e4e69ae3          	bne	a3,a4,2000048e <FLASH_EEPROM_CMD+0xc2>
2000063e:	893e                	mv	s2,a5
20000640:	84ce                	mv	s1,s3
20000642:	bff1                	j	2000061e <.loop402+0x54>
20000644:	47b5                	li	a5,13
20000646:	00f99663          	bne	s3,a5,20000652 <.loop402+0x88>
2000064a:	0b900513          	li	a0,185
2000064e:	31c9                	jal	20000310 <FLASH_ROM_BEG>
20000650:	bd35                	j	2000048c <FLASH_EEPROM_CMD+0xc0>
20000652:	47b1                	li	a5,12
20000654:	0ab00513          	li	a0,171
20000658:	fef98be3          	beq	s3,a5,2000064e <.loop402+0x84>
2000065c:	4799                	li	a5,6
2000065e:	04f99163          	bne	s3,a5,200006a0 <.loop402+0xd6>
20000662:	000805b7          	lui	a1,0x80
20000666:	00bb65b3          	or	a1,s6,a1
2000066a:	452d                	li	a0,11
2000066c:	31c5                	jal	2000034c <FLASH_ROM_ADDR>
2000066e:	4481                	li	s1,0
20000670:	4b8d                	li	s7,3
20000672:	49a1                	li	s3,8
20000674:	3975                	jal	20000330 <FLASH_ROM_IN>
20000676:	01749663          	bne	s1,s7,20000682 <.loop402+0xb8>
2000067a:	80042783          	lw	a5,-2048(s0)
2000067e:	00f92023          	sw	a5,0(s2)
20000682:	0485                	addi	s1,s1,1
20000684:	ff3498e3          	bne	s1,s3,20000674 <.loop402+0xaa>
20000688:	80042783          	lw	a5,-2048(s0)
2000068c:	012b1713          	slli	a4,s6,0x12
20000690:	00075563          	bgez	a4,2000069a <.loop402+0xd0>
20000694:	00f91223          	sh	a5,4(s2)
20000698:	bbd5                	j	2000048c <FLASH_EEPROM_CMD+0xc0>
2000069a:	00f92223          	sw	a5,4(s2)
2000069e:	b3fd                	j	2000048c <FLASH_EEPROM_CMD+0xc0>
200006a0:	479d                	li	a5,7
200006a2:	02f99963          	bne	s3,a5,200006d4 <.loop402+0x10a>
200006a6:	4581                	li	a1,0
200006a8:	04b00513          	li	a0,75
200006ac:	3145                	jal	2000034c <FLASH_ROM_ADDR>
200006ae:	44bd                	li	s1,15
200006b0:	00092023          	sw	zero,0(s2)
200006b4:	00092223          	sw	zero,4(s2)
200006b8:	59fd                	li	s3,-1
200006ba:	399d                	jal	20000330 <FLASH_ROM_IN>
200006bc:	0074f793          	andi	a5,s1,7
200006c0:	97ca                	add	a5,a5,s2
200006c2:	0007c703          	lbu	a4,0(a5) # 78000 <_data_lma+0x51f70>
200006c6:	14fd                	addi	s1,s1,-1
200006c8:	8d39                	xor	a0,a0,a4
200006ca:	00a78023          	sb	a0,0(a5)
200006ce:	ff3496e3          	bne	s1,s3,200006ba <.loop402+0xf0>
200006d2:	bb6d                	j	2000048c <FLASH_EEPROM_CMD+0xc0>
200006d4:	47a1                	li	a5,8
200006d6:	04f99263          	bne	s3,a5,2000071a <.loop402+0x150>
200006da:	396d                	jal	20000394 <FLASH_ROM_WAIT>
200006dc:	4481                	li	s1,0
200006de:	000b0d63          	beqz	s6,200006f8 <.loop402+0x12e>
200006e2:	478d                	li	a5,3
200006e4:	03c00493          	li	s1,60
200006e8:	00fb0863          	beq	s6,a5,200006f8 <.loop402+0x12e>
200006ec:	05000493          	li	s1,80
200006f0:	018b0463          	beq	s6,s8,200006f8 <.loop402+0x12e>
200006f4:	04400493          	li	s1,68
200006f8:	07c57513          	andi	a0,a0,124
200006fc:	d89508e3          	beq	a0,s1,2000048c <FLASH_EEPROM_CMD+0xc0>
20000700:	4519                	li	a0,6
20000702:	3139                	jal	20000310 <FLASH_ROM_BEG>
20000704:	3939                	jal	20000322 <FLASH_ROM_END>
20000706:	4505                	li	a0,1
20000708:	3121                	jal	20000310 <FLASH_ROM_BEG>
2000070a:	8526                	mv	a0,s1
2000070c:	390d                	jal	2000033e <FLASH_ROM_OUT>
2000070e:	4509                	li	a0,2
20000710:	313d                	jal	2000033e <FLASH_ROM_OUT>
20000712:	3149                	jal	20000394 <FLASH_ROM_WAIT>
20000714:	d6051ce3          	bnez	a0,2000048c <FLASH_EEPROM_CMD+0xc0>
20000718:	bb69                	j	200004b2 <FLASH_EEPROM_CMD+0xe6>
2000071a:	4791                	li	a5,4
2000071c:	00f99963          	bne	s3,a5,2000072e <.loop402+0x164>
20000720:	06600513          	li	a0,102
20000724:	36f5                	jal	20000310 <FLASH_ROM_BEG>
20000726:	3ef5                	jal	20000322 <FLASH_ROM_END>
20000728:	09900513          	li	a0,153
2000072c:	b70d                	j	2000064e <.loop402+0x84>
2000072e:	d4098fe3          	beqz	s3,2000048c <FLASH_EEPROM_CMD+0xc0>
20000732:	54f1                	li	s1,-4
20000734:	bba9                	j	2000048e <FLASH_EEPROM_CMD+0xc2>

20000736 <tmos_memcpy>:
tmos_memcpy():
20000736:	cd19                	beqz	a0,20000754 <tmos_memcpy+0x1e>
20000738:	cd91                	beqz	a1,20000754 <tmos_memcpy+0x1e>
2000073a:	ce09                	beqz	a2,20000754 <tmos_memcpy+0x1e>
2000073c:	4781                	li	a5,0
2000073e:	00f58733          	add	a4,a1,a5
20000742:	00074683          	lbu	a3,0(a4) # 80000 <_data_lma+0x59f70>
20000746:	00f50733          	add	a4,a0,a5
2000074a:	0785                	addi	a5,a5,1
2000074c:	00d70023          	sb	a3,0(a4)
20000750:	fef617e3          	bne	a2,a5,2000073e <tmos_memcpy+0x8>
20000754:	8082                	ret

20000756 <tmos_memcpy_word>:
tmos_memcpy_word():
20000756:	c919                	beqz	a0,2000076c <tmos_memcpy_word+0x16>
20000758:	c991                	beqz	a1,2000076c <tmos_memcpy_word+0x16>
2000075a:	ca09                	beqz	a2,2000076c <tmos_memcpy_word+0x16>
2000075c:	0591                	addi	a1,a1,4
2000075e:	ffc5a783          	lw	a5,-4(a1) # 7fffc <_data_lma+0x59f6c>
20000762:	0511                	addi	a0,a0,4
20000764:	167d                	addi	a2,a2,-1
20000766:	fef52e23          	sw	a5,-4(a0)
2000076a:	bfc5                	j	2000075a <tmos_memcpy_word+0x4>
2000076c:	8082                	ret

2000076e <tmos_memset>:
tmos_memset():
2000076e:	c901                	beqz	a0,2000077e <tmos_memset+0x10>
20000770:	c619                	beqz	a2,2000077e <tmos_memset+0x10>
20000772:	962a                	add	a2,a2,a0
20000774:	0505                	addi	a0,a0,1
20000776:	feb50fa3          	sb	a1,-1(a0)
2000077a:	fea61de3          	bne	a2,a0,20000774 <tmos_memset+0x6>
2000077e:	8082                	ret

20000780 <tmos_strlen>:
tmos_strlen():
20000780:	4781                	li	a5,0
20000782:	00f50733          	add	a4,a0,a5
20000786:	00070703          	lb	a4,0(a4)
2000078a:	e319                	bnez	a4,20000790 <tmos_strlen+0x10>
2000078c:	853e                	mv	a0,a5
2000078e:	8082                	ret
20000790:	0785                	addi	a5,a5,1
20000792:	bfc5                	j	20000782 <tmos_strlen+0x2>

20000794 <tmos_memdup>:
tmos_memdup():
20000794:	1101                	addi	sp,sp,-32
20000796:	862e                	mv	a2,a1
20000798:	ca26                	sw	s1,20(sp)
2000079a:	84aa                	mv	s1,a0
2000079c:	01061513          	slli	a0,a2,0x10
200007a0:	04f00593          	li	a1,79
200007a4:	8141                	srli	a0,a0,0x10
200007a6:	cc22                	sw	s0,24(sp)
200007a8:	ce06                	sw	ra,28(sp)
200007aa:	c632                	sw	a2,12(sp)
200007ac:	60c010ef          	jal	ra,20001db8 <tmos_memory_allocate>
200007b0:	842a                	mv	s0,a0
200007b2:	c501                	beqz	a0,200007ba <tmos_memdup+0x26>
200007b4:	4632                	lw	a2,12(sp)
200007b6:	85a6                	mv	a1,s1
200007b8:	3fbd                	jal	20000736 <tmos_memcpy>
200007ba:	8522                	mv	a0,s0
200007bc:	40f2                	lw	ra,28(sp)
200007be:	4462                	lw	s0,24(sp)
200007c0:	44d2                	lw	s1,20(sp)
200007c2:	6105                	addi	sp,sp,32
200007c4:	8082                	ret

200007c6 <tmos_memcmp>:
tmos_memcmp():
200007c6:	4785                	li	a5,1
200007c8:	c115                	beqz	a0,200007ec <tmos_memcmp+0x26>
200007ca:	c18d                	beqz	a1,200007ec <tmos_memcmp+0x26>
200007cc:	c205                	beqz	a2,200007ec <tmos_memcmp+0x26>
200007ce:	4781                	li	a5,0
200007d0:	00f506b3          	add	a3,a0,a5
200007d4:	00f58733          	add	a4,a1,a5
200007d8:	0006c683          	lbu	a3,0(a3) # 100000 <_data_lma+0xd9f70>
200007dc:	00074703          	lbu	a4,0(a4)
200007e0:	00e69863          	bne	a3,a4,200007f0 <tmos_memcmp+0x2a>
200007e4:	0785                	addi	a5,a5,1
200007e6:	fef615e3          	bne	a2,a5,200007d0 <tmos_memcmp+0xa>
200007ea:	4785                	li	a5,1
200007ec:	853e                	mv	a0,a5
200007ee:	8082                	ret
200007f0:	4781                	li	a5,0
200007f2:	bfed                	j	200007ec <tmos_memcmp+0x26>

200007f4 <tmos_revmemcpy>:
tmos_revmemcpy():
200007f4:	fff60793          	addi	a5,a2,-1
200007f8:	95be                	add	a1,a1,a5
200007fa:	962a                	add	a2,a2,a0
200007fc:	00c51363          	bne	a0,a2,20000802 <tmos_revmemcpy+0xe>
20000800:	8082                	ret
20000802:	15fd                	addi	a1,a1,-1
20000804:	0015c783          	lbu	a5,1(a1)
20000808:	0505                	addi	a0,a0,1
2000080a:	fef50fa3          	sb	a5,-1(a0)
2000080e:	b7fd                	j	200007fc <tmos_revmemcpy+0x8>

20000810 <tmos_isbufset>:
tmos_isbufset():
20000810:	87aa                	mv	a5,a0
20000812:	4501                	li	a0,0
20000814:	cf81                	beqz	a5,2000082c <tmos_isbufset+0x1c>
20000816:	ce09                	beqz	a2,20000830 <tmos_isbufset+0x20>
20000818:	963e                	add	a2,a2,a5
2000081a:	0785                	addi	a5,a5,1
2000081c:	fff7c703          	lbu	a4,-1(a5)
20000820:	00b71763          	bne	a4,a1,2000082e <tmos_isbufset+0x1e>
20000824:	fec79be3          	bne	a5,a2,2000081a <tmos_isbufset+0xa>
20000828:	4505                	li	a0,1
2000082a:	8082                	ret
2000082c:	8082                	ret
2000082e:	4501                	li	a0,0
20000830:	8082                	ret

20000832 <tmos_proces_system_time>:
tmos_proces_system_time():
20000832:	7179                	addi	sp,sp,-48
20000834:	00003797          	auipc	a5,0x3
20000838:	63078793          	addi	a5,a5,1584 # 20003e64 <taskHead>
2000083c:	d422                	sw	s0,40(sp)
2000083e:	4380                	lw	s0,0(a5)
20000840:	d606                	sw	ra,44(sp)
20000842:	d226                	sw	s1,36(sp)
20000844:	d04a                	sw	s2,32(sp)
20000846:	ce4e                	sw	s3,28(sp)
20000848:	cc52                	sw	s4,24(sp)
2000084a:	ca56                	sw	s5,20(sp)
2000084c:	c85a                	sw	s6,16(sp)
2000084e:	c65e                	sw	s7,12(sp)
20000850:	c462                	sw	s8,8(sp)
20000852:	cc5d                	beqz	s0,20000910 <tmos_proces_system_time+0xde>
20000854:	01c9c937          	lui	s2,0x1c9c
20000858:	4b81                	li	s7,0
2000085a:	00003a17          	auipc	s4,0x3
2000085e:	652a0a13          	addi	s4,s4,1618 # 20003eac <fnGetClockCBs>
20000862:	00003497          	auipc	s1,0x3
20000866:	60648493          	addi	s1,s1,1542 # 20003e68 <ble>
2000086a:	37f90913          	addi	s2,s2,895 # 1c9c37f <_data_lma+0x1c762ef>
2000086e:	00003a97          	auipc	s5,0x3
20000872:	5a2a8a93          	addi	s5,s5,1442 # 20003e10 <gTmosPara>
20000876:	a8c009b7          	lui	s3,0xa8c00
2000087a:	57400b37          	lui	s6,0x57400
2000087e:	00245783          	lhu	a5,2(s0)
20000882:	e395                	bnez	a5,200008a6 <tmos_proces_system_time+0x74>
20000884:	445c                	lw	a5,12(s0)
20000886:	000b9d63          	bnez	s7,200008a0 <tmos_proces_system_time+0x6e>
2000088a:	00003717          	auipc	a4,0x3
2000088e:	5cf72d23          	sw	a5,1498(a4) # 20003e64 <taskHead>
20000892:	00c42c03          	lw	s8,12(s0)
20000896:	8522                	mv	a0,s0
20000898:	5f2010ef          	jal	ra,20001e8a <tmos_memory_free>
2000089c:	8462                	mv	s0,s8
2000089e:	a899                	j	200008f4 <tmos_proces_system_time+0xc2>
200008a0:	00fba623          	sw	a5,12(s7) # 100c <_einit+0x1008>
200008a4:	b7fd                	j	20000892 <tmos_proces_system_time+0x60>
200008a6:	000a2783          	lw	a5,0(s4)
200008aa:	9782                	jalr	a5
200008ac:	01648683          	lb	a3,22(s1)
200008b0:	441c                	lw	a5,8(s0)
200008b2:	0606db63          	bgez	a3,20000928 <tmos_proces_system_time+0xf6>
200008b6:	40f50733          	sub	a4,a0,a5
200008ba:	08e96763          	bltu	s2,a4,20000948 <tmos_proces_system_time+0x116>
200008be:	00003797          	auipc	a5,0x3
200008c2:	5607a123          	sw	zero,1378(a5) # 20003e20 <gTmosPara+0x10>
200008c6:	00245583          	lhu	a1,2(s0)
200008ca:	00044503          	lbu	a0,0(s0)
200008ce:	e0003097          	auipc	ra,0xe0003
200008d2:	e18080e7          	jalr	-488(ra) # 36e6 <tmos_set_event>
200008d6:	405c                	lw	a5,4(s0)
200008d8:	4458                	lw	a4,12(s0)
200008da:	cfa9                	beqz	a5,20000934 <tmos_proces_system_time+0x102>
200008dc:	4414                	lw	a3,8(s0)
200008de:	97b6                	add	a5,a5,a3
200008e0:	01648683          	lb	a3,22(s1)
200008e4:	0006c563          	bltz	a3,200008ee <tmos_proces_system_time+0xbc>
200008e8:	0137e363          	bltu	a5,s3,200008ee <tmos_proces_system_time+0xbc>
200008ec:	97da                	add	a5,a5,s6
200008ee:	c41c                	sw	a5,8(s0)
200008f0:	8ba2                	mv	s7,s0
200008f2:	843a                	mv	s0,a4
200008f4:	f449                	bnez	s0,2000087e <tmos_proces_system_time+0x4c>
200008f6:	00003797          	auipc	a5,0x3
200008fa:	51a78793          	addi	a5,a5,1306 # 20003e10 <gTmosPara>
200008fe:	4b9c                	lw	a5,16(a5)
20000900:	4709                	li	a4,2
20000902:	06f77863          	bgeu	a4,a5,20000972 <tmos_proces_system_time+0x140>
20000906:	17f9                	addi	a5,a5,-2
20000908:	00003717          	auipc	a4,0x3
2000090c:	50f72c23          	sw	a5,1304(a4) # 20003e20 <gTmosPara+0x10>
20000910:	50b2                	lw	ra,44(sp)
20000912:	5422                	lw	s0,40(sp)
20000914:	5492                	lw	s1,36(sp)
20000916:	5902                	lw	s2,32(sp)
20000918:	49f2                	lw	s3,28(sp)
2000091a:	4a62                	lw	s4,24(sp)
2000091c:	4ad2                	lw	s5,20(sp)
2000091e:	4b42                	lw	s6,16(sp)
20000920:	4bb2                	lw	s7,12(sp)
20000922:	4c22                	lw	s8,8(sp)
20000924:	6145                	addi	sp,sp,48
20000926:	8082                	ret
20000928:	f8f577e3          	bgeu	a0,a5,200008b6 <tmos_proces_system_time+0x84>
2000092c:	40f98733          	sub	a4,s3,a5
20000930:	972a                	add	a4,a4,a0
20000932:	b761                	j	200008ba <tmos_proces_system_time+0x88>
20000934:	000b9763          	bnez	s7,20000942 <tmos_proces_system_time+0x110>
20000938:	00003797          	auipc	a5,0x3
2000093c:	52e7a623          	sw	a4,1324(a5) # 20003e64 <taskHead>
20000940:	bf89                	j	20000892 <tmos_proces_system_time+0x60>
20000942:	00eba623          	sw	a4,12(s7)
20000946:	b7b1                	j	20000892 <tmos_proces_system_time+0x60>
20000948:	50d8                	lw	a4,36(s1)
2000094a:	cf09                	beqz	a4,20000964 <tmos_proces_system_time+0x132>
2000094c:	0006df63          	bgez	a3,2000096a <tmos_proces_system_time+0x138>
20000950:	40a78533          	sub	a0,a5,a0
20000954:	010aa783          	lw	a5,16(s5)
20000958:	00f57663          	bgeu	a0,a5,20000964 <tmos_proces_system_time+0x132>
2000095c:	00003797          	auipc	a5,0x3
20000960:	4ca7a223          	sw	a0,1220(a5) # 20003e20 <gTmosPara+0x10>
20000964:	8ba2                	mv	s7,s0
20000966:	4440                	lw	s0,12(s0)
20000968:	b771                	j	200008f4 <tmos_proces_system_time+0xc2>
2000096a:	fea7f3e3          	bgeu	a5,a0,20000950 <tmos_proces_system_time+0x11e>
2000096e:	97ce                	add	a5,a5,s3
20000970:	b7c5                	j	20000950 <tmos_proces_system_time+0x11e>
20000972:	00003797          	auipc	a5,0x3
20000976:	4a07a723          	sw	zero,1198(a5) # 20003e20 <gTmosPara+0x10>
2000097a:	bf59                	j	20000910 <tmos_proces_system_time+0xde>

2000097c <TMOS_SystemProcess>:
TMOS_SystemProcess():
2000097c:	1141                	addi	sp,sp,-16
2000097e:	c422                	sw	s0,8(sp)
20000980:	00003417          	auipc	s0,0x3
20000984:	4c040413          	addi	s0,s0,1216 # 20003e40 <pfnProcessCBs>
20000988:	401c                	lw	a5,0(s0)
2000098a:	c606                	sw	ra,12(sp)
2000098c:	c226                	sw	s1,4(sp)
2000098e:	c04a                	sw	s2,0(sp)
20000990:	c791                	beqz	a5,2000099c <TMOS_SystemProcess+0x20>
20000992:	9782                	jalr	a5
20000994:	00003797          	auipc	a5,0x3
20000998:	4a07a623          	sw	zero,1196(a5) # 20003e40 <pfnProcessCBs>
2000099c:	405c                	lw	a5,4(s0)
2000099e:	c391                	beqz	a5,200009a2 <TMOS_SystemProcess+0x26>
200009a0:	9782                	jalr	a5
200009a2:	401c                	lw	a5,0(s0)
200009a4:	1c079163          	bnez	a5,20000b66 <TMOS_SystemProcess+0x1ea>
200009a8:	00003797          	auipc	a5,0x3
200009ac:	65d7c783          	lbu	a5,1629(a5) # 20004005 <gBleIPPara+0x5>
200009b0:	8b85                	andi	a5,a5,1
200009b2:	c79d                	beqz	a5,200009e0 <TMOS_SystemProcess+0x64>
200009b4:	00003797          	auipc	a5,0x3
200009b8:	640788a3          	sb	zero,1617(a5) # 20004005 <gBleIPPara+0x5>
200009bc:	00003717          	auipc	a4,0x3
200009c0:	64b74703          	lbu	a4,1611(a4) # 20004007 <gBleIPPara+0x7>
200009c4:	4791                	li	a5,4
200009c6:	00e7fd63          	bgeu	a5,a4,200009e0 <TMOS_SystemProcess+0x64>
200009ca:	3ff000ef          	jal	ra,200015c8 <ll_rx_wait_finish>
200009ce:	00003797          	auipc	a5,0x3
200009d2:	6397c783          	lbu	a5,1593(a5) # 20004007 <gBleIPPara+0x7>
200009d6:	17f9                	addi	a5,a5,-2
200009d8:	078a                	slli	a5,a5,0x2
200009da:	97a2                	add	a5,a5,s0
200009dc:	439c                	lw	a5,0(a5)
200009de:	9782                	jalr	a5
200009e0:	00003917          	auipc	s2,0x3
200009e4:	66090913          	addi	s2,s2,1632 # 20004040 <rfInfo>
200009e8:	00c94783          	lbu	a5,12(s2)
200009ec:	8b91                	andi	a5,a5,4
200009ee:	c399                	beqz	a5,200009f4 <TMOS_SystemProcess+0x78>
200009f0:	2fe010ef          	jal	ra,20001cee <RF_FrequencyHoppingChange>
200009f4:	441c                	lw	a5,8(s0)
200009f6:	c391                	beqz	a5,200009fa <TMOS_SystemProcess+0x7e>
200009f8:	9782                	jalr	a5
200009fa:	00003497          	auipc	s1,0x3
200009fe:	46648493          	addi	s1,s1,1126 # 20003e60 <EventsArr>
20000a02:	4098                	lw	a4,0(s1)
20000a04:	00003617          	auipc	a2,0x3
20000a08:	40d64603          	lbu	a2,1037(a2) # 20003e11 <gTmosPara+0x1>
20000a0c:	00003797          	auipc	a5,0x3
20000a10:	4047c783          	lbu	a5,1028(a5) # 20003e10 <gTmosPara>
20000a14:	00179693          	slli	a3,a5,0x1
20000a18:	96ba                	add	a3,a3,a4
20000a1a:	0006d683          	lhu	a3,0(a3)
20000a1e:	cad5                	beqz	a3,20000ad2 <TMOS_SystemProcess+0x156>
20000a20:	00003797          	auipc	a5,0x3
20000a24:	3f07c783          	lbu	a5,1008(a5) # 20003e10 <gTmosPara>
20000a28:	0ac7ef63          	bltu	a5,a2,20000ae6 <TMOS_SystemProcess+0x16a>
20000a2c:	00003797          	auipc	a5,0x3
20000a30:	3e078223          	sb	zero,996(a5) # 20003e10 <gTmosPara>
20000a34:	401c                	lw	a5,0(s0)
20000a36:	12079863          	bnez	a5,20000b66 <TMOS_SystemProcess+0x1ea>
20000a3a:	00003797          	auipc	a5,0x3
20000a3e:	5cf7c783          	lbu	a5,1487(a5) # 20004009 <gBleIPPara+0x9>
20000a42:	cf91                	beqz	a5,20000a5e <TMOS_SystemProcess+0xe2>
20000a44:	00003797          	auipc	a5,0x3
20000a48:	5c37c783          	lbu	a5,1475(a5) # 20004007 <gBleIPPara+0x7>
20000a4c:	eb89                	bnez	a5,20000a5e <TMOS_SystemProcess+0xe2>
20000a4e:	00003797          	auipc	a5,0x3
20000a52:	5a078da3          	sb	zero,1467(a5) # 20004009 <gBleIPPara+0x9>
20000a56:	e001b097          	auipc	ra,0xe001b
20000a5a:	ea4080e7          	jalr	-348(ra) # 1b8fa <ll_multi_states_process>
20000a5e:	00003797          	auipc	a5,0x3
20000a62:	44e78793          	addi	a5,a5,1102 # 20003eac <fnGetClockCBs>
20000a66:	439c                	lw	a5,0(a5)
20000a68:	0e078f63          	beqz	a5,20000b66 <TMOS_SystemProcess+0x1ea>
20000a6c:	a8c007b7          	lui	a5,0xa8c00
20000a70:	00003717          	auipc	a4,0x3
20000a74:	3af72823          	sw	a5,944(a4) # 20003e20 <gTmosPara+0x10>
20000a78:	3b6d                	jal	20000832 <tmos_proces_system_time>
20000a7a:	00003797          	auipc	a5,0x3
20000a7e:	3ee78793          	addi	a5,a5,1006 # 20003e68 <ble>
20000a82:	53dc                	lw	a5,36(a5)
20000a84:	c3ed                	beqz	a5,20000b66 <TMOS_SystemProcess+0x1ea>
20000a86:	00003717          	auipc	a4,0x3
20000a8a:	38a70713          	addi	a4,a4,906 # 20003e10 <gTmosPara>
20000a8e:	4b18                	lw	a4,16(a4)
20000a90:	00003797          	auipc	a5,0x3
20000a94:	3ed7c783          	lbu	a5,1005(a5) # 20003e7d <ble+0x15>
20000a98:	0cf76763          	bltu	a4,a5,20000b66 <TMOS_SystemProcess+0x1ea>
20000a9c:	00003717          	auipc	a4,0x3
20000aa0:	56b74703          	lbu	a4,1387(a4) # 20004007 <gBleIPPara+0x7>
20000aa4:	4791                	li	a5,4
20000aa6:	0ce7e063          	bltu	a5,a4,20000b66 <TMOS_SystemProcess+0x1ea>
20000aaa:	00c94783          	lbu	a5,12(s2)
20000aae:	8b91                	andi	a5,a5,4
20000ab0:	ebdd                	bnez	a5,20000b66 <TMOS_SystemProcess+0x1ea>
20000ab2:	4090                	lw	a2,0(s1)
20000ab4:	00003697          	auipc	a3,0x3
20000ab8:	35d6c683          	lbu	a3,861(a3) # 20003e11 <gTmosPara+0x1>
20000abc:	0ad7cb63          	blt	a5,a3,20000b72 <TMOS_SystemProcess+0x1f6>
20000ac0:	4422                	lw	s0,8(sp)
20000ac2:	40b2                	lw	ra,12(sp)
20000ac4:	4492                	lw	s1,4(sp)
20000ac6:	4902                	lw	s2,0(sp)
20000ac8:	0141                	addi	sp,sp,16
20000aca:	e0003317          	auipc	t1,0xe0003
20000ace:	9ee30067          	jr	-1554(t1) # 34b8 <tmos_proces_sleep>
20000ad2:	0785                	addi	a5,a5,1
20000ad4:	0ff7f793          	andi	a5,a5,255
20000ad8:	00003697          	auipc	a3,0x3
20000adc:	32f68c23          	sb	a5,824(a3) # 20003e10 <gTmosPara>
20000ae0:	f2c7e6e3          	bltu	a5,a2,20000a0c <TMOS_SystemProcess+0x90>
20000ae4:	bf35                	j	20000a20 <TMOS_SystemProcess+0xa4>
20000ae6:	0786                	slli	a5,a5,0x1
20000ae8:	973e                	add	a4,a4,a5
20000aea:	00075583          	lhu	a1,0(a4)
20000aee:	00071023          	sh	zero,0(a4)
20000af2:	00003797          	auipc	a5,0x3
20000af6:	36079523          	sh	zero,874(a5) # 20003e5c <eventsClear>
20000afa:	00003797          	auipc	a5,0x3
20000afe:	34278793          	addi	a5,a5,834 # 20003e3c <tasksArr>
20000b02:	439c                	lw	a5,0(a5)
20000b04:	00003517          	auipc	a0,0x3
20000b08:	30c54503          	lbu	a0,780(a0) # 20003e10 <gTmosPara>
20000b0c:	00251713          	slli	a4,a0,0x2
20000b10:	97ba                	add	a5,a5,a4
20000b12:	439c                	lw	a5,0(a5)
20000b14:	9782                	jalr	a5
20000b16:	00003797          	auipc	a5,0x3
20000b1a:	3467d783          	lhu	a5,838(a5) # 20003e5c <eventsClear>
20000b1e:	00003717          	auipc	a4,0x3
20000b22:	2f274703          	lbu	a4,754(a4) # 20003e10 <gTmosPara>
20000b26:	fff7c793          	not	a5,a5
20000b2a:	8d7d                	and	a0,a0,a5
20000b2c:	00171793          	slli	a5,a4,0x1
20000b30:	4098                	lw	a4,0(s1)
20000b32:	973e                	add	a4,a4,a5
20000b34:	00075783          	lhu	a5,0(a4)
20000b38:	8d5d                	or	a0,a0,a5
20000b3a:	00a71023          	sh	a0,0(a4)
20000b3e:	00003797          	auipc	a5,0x3
20000b42:	2d27c783          	lbu	a5,722(a5) # 20003e10 <gTmosPara>
20000b46:	c791                	beqz	a5,20000b52 <TMOS_SystemProcess+0x1d6>
20000b48:	0785                	addi	a5,a5,1
20000b4a:	00003717          	auipc	a4,0x3
20000b4e:	2cf70323          	sb	a5,710(a4) # 20003e10 <gTmosPara>
20000b52:	00003717          	auipc	a4,0x3
20000b56:	2be74703          	lbu	a4,702(a4) # 20003e10 <gTmosPara>
20000b5a:	00003797          	auipc	a5,0x3
20000b5e:	2b77c783          	lbu	a5,695(a5) # 20003e11 <gTmosPara+0x1>
20000b62:	ecf775e3          	bgeu	a4,a5,20000a2c <TMOS_SystemProcess+0xb0>
20000b66:	40b2                	lw	ra,12(sp)
20000b68:	4422                	lw	s0,8(sp)
20000b6a:	4492                	lw	s1,4(sp)
20000b6c:	4902                	lw	s2,0(sp)
20000b6e:	0141                	addi	sp,sp,16
20000b70:	8082                	ret
20000b72:	00179713          	slli	a4,a5,0x1
20000b76:	9732                	add	a4,a4,a2
20000b78:	00075703          	lhu	a4,0(a4)
20000b7c:	f76d                	bnez	a4,20000b66 <TMOS_SystemProcess+0x1ea>
20000b7e:	0785                	addi	a5,a5,1
20000b80:	bf35                	j	20000abc <TMOS_SystemProcess+0x140>

20000b82 <clockGetHSEValue>:
clockGetHSEValue():
20000b82:	67ad                	lui	a5,0xb
20000b84:	4000c737          	lui	a4,0x4000c
20000b88:	07bd                	addi	a5,a5,15
20000b8a:	20f72623          	sw	a5,524(a4) # 4000c20c <_eusrstack+0x2000420c>
20000b8e:	0000100f          	fence.i
20000b92:	00003797          	auipc	a5,0x3
20000b96:	27e78793          	addi	a5,a5,638 # 20003e10 <gTmosPara>
20000b9a:	4fc8                	lw	a0,28(a5)
20000b9c:	26872783          	lw	a5,616(a4)
20000ba0:	66bd                	lui	a3,0xf
20000ba2:	06bd                	addi	a3,a3,15
20000ba4:	fff7c793          	not	a5,a5
20000ba8:	8399                	srli	a5,a5,0x6
20000baa:	056a                	slli	a0,a0,0x1a
20000bac:	20d72623          	sw	a3,524(a4)
20000bb0:	8d5d                	or	a0,a0,a5
20000bb2:	8082                	ret

20000bb4 <clockGetLSEValue>:
clockGetLSEValue():
20000bb4:	1141                	addi	sp,sp,-16
20000bb6:	400017b7          	lui	a5,0x40001
20000bba:	5f98                	lw	a4,56(a5)
20000bbc:	c63a                	sw	a4,12(sp)
20000bbe:	5f94                	lw	a3,56(a5)
20000bc0:	4732                	lw	a4,12(sp)
20000bc2:	fee69ce3          	bne	a3,a4,20000bba <clockGetLSEValue+0x6>
20000bc6:	4532                	lw	a0,12(sp)
20000bc8:	0141                	addi	sp,sp,16
20000bca:	8082                	ret

20000bcc <TMOS_TimerIRQHandler>:
TMOS_TimerIRQHandler():
20000bcc:	8082                	ret

20000bce <ll_connect_send_data>:
ll_connect_send_data():
20000bce:	11852703          	lw	a4,280(a0)
20000bd2:	12070063          	beqz	a4,20000cf2 <ll_connect_send_data+0x124>
20000bd6:	1141                	addi	sp,sp,-16
20000bd8:	c422                	sw	s0,8(sp)
20000bda:	c606                	sw	ra,12(sp)
20000bdc:	00c54783          	lbu	a5,12(a0)
20000be0:	04c54583          	lbu	a1,76(a0)
20000be4:	842a                	mv	s0,a0
20000be6:	0fc7f793          	andi	a5,a5,252
20000bea:	00f50623          	sb	a5,12(a0)
20000bee:	00974683          	lbu	a3,9(a4)
20000bf2:	00c75603          	lhu	a2,12(a4)
20000bf6:	01869513          	slli	a0,a3,0x18
20000bfa:	8561                	srai	a0,a0,0x18
20000bfc:	08c5f163          	bgeu	a1,a2,20000c7e <ll_connect_send_data+0xb0>
20000c00:	06055a63          	bgez	a0,20000c74 <ll_connect_send_data+0xa6>
20000c04:	00874503          	lbu	a0,8(a4)
20000c08:	07f6f693          	andi	a3,a3,127
20000c0c:	00d704a3          	sb	a3,9(a4)
20000c10:	4605                	li	a2,1
20000c12:	0027e693          	ori	a3,a5,2
20000c16:	00c51463          	bne	a0,a2,20000c1e <ll_connect_send_data+0x50>
20000c1a:	0017e693          	ori	a3,a5,1
20000c1e:	00d40623          	sb	a3,12(s0)
20000c22:	435c                	lw	a5,4(a4)
20000c24:	0789                	addi	a5,a5,2
20000c26:	c35c                	sw	a5,4(a4)
20000c28:	00b40aa3          	sb	a1,21(s0)
20000c2c:	11042503          	lw	a0,272(s0)
20000c30:	862e                	mv	a2,a1
20000c32:	434c                	lw	a1,4(a4)
20000c34:	0509                	addi	a0,a0,2
20000c36:	3601                	jal	20000736 <tmos_memcpy>
20000c38:	11842783          	lw	a5,280(s0)
20000c3c:	01544603          	lbu	a2,21(s0)
20000c40:	43d4                	lw	a3,4(a5)
20000c42:	00c7d703          	lhu	a4,12(a5) # 4000100c <_eusrstack+0x1fff900c>
20000c46:	96b2                	add	a3,a3,a2
20000c48:	8f11                	sub	a4,a4,a2
20000c4a:	c3d4                	sw	a3,4(a5)
20000c4c:	00e79623          	sh	a4,12(a5)
20000c50:	4789                	li	a5,2
20000c52:	00f40da3          	sb	a5,27(s0)
20000c56:	03444703          	lbu	a4,52(s0)
20000c5a:	00003797          	auipc	a5,0x3
20000c5e:	2207c783          	lbu	a5,544(a5) # 20003e7a <ble+0x12>
20000c62:	04f77863          	bgeu	a4,a5,20000cb2 <ll_connect_send_data+0xe4>
20000c66:	00c44783          	lbu	a5,12(s0)
20000c6a:	0107e793          	ori	a5,a5,16
20000c6e:	00f40623          	sb	a5,12(s0)
20000c72:	a081                	j	20000cb2 <ll_connect_send_data+0xe4>
20000c74:	0017e793          	ori	a5,a5,1
20000c78:	00f40623          	sb	a5,12(s0)
20000c7c:	b775                	j	20000c28 <ll_connect_send_data+0x5a>
20000c7e:	0ff67693          	andi	a3,a2,255
20000c82:	02055d63          	bgez	a0,20000cbc <ll_connect_send_data+0xee>
20000c86:	00874503          	lbu	a0,8(a4)
20000c8a:	4585                	li	a1,1
20000c8c:	0027e613          	ori	a2,a5,2
20000c90:	00b51463          	bne	a0,a1,20000c98 <ll_connect_send_data+0xca>
20000c94:	0017e613          	ori	a2,a5,1
20000c98:	00c40623          	sb	a2,12(s0)
20000c9c:	00d40aa3          	sb	a3,21(s0)
20000ca0:	000704a3          	sb	zero,9(a4)
20000ca4:	4785                	li	a5,1
20000ca6:	00f40da3          	sb	a5,27(s0)
20000caa:	11842783          	lw	a5,280(s0)
20000cae:	439c                	lw	a5,0(a5)
20000cb0:	f3dd                	bnez	a5,20000c56 <ll_connect_send_data+0x88>
20000cb2:	40b2                	lw	ra,12(sp)
20000cb4:	4422                	lw	s0,8(sp)
20000cb6:	4501                	li	a0,0
20000cb8:	0141                	addi	sp,sp,16
20000cba:	8082                	ret
20000cbc:	0017e793          	ori	a5,a5,1
20000cc0:	00f40623          	sb	a5,12(s0)
20000cc4:	00d40aa3          	sb	a3,21(s0)
20000cc8:	000704a3          	sb	zero,9(a4)
20000ccc:	11042503          	lw	a0,272(s0)
20000cd0:	434c                	lw	a1,4(a4)
20000cd2:	0509                	addi	a0,a0,2
20000cd4:	348d                	jal	20000736 <tmos_memcpy>
20000cd6:	11842783          	lw	a5,280(s0)
20000cda:	01544603          	lbu	a2,21(s0)
20000cde:	43d4                	lw	a3,4(a5)
20000ce0:	00c7d703          	lhu	a4,12(a5)
20000ce4:	96b2                	add	a3,a3,a2
20000ce6:	8f11                	sub	a4,a4,a2
20000ce8:	c3d4                	sw	a3,4(a5)
20000cea:	00e79623          	sh	a4,12(a5)
20000cee:	478d                	li	a5,3
20000cf0:	bf5d                	j	20000ca6 <ll_connect_send_data+0xd8>
20000cf2:	4505                	li	a0,1
20000cf4:	8082                	ret

20000cf6 <ll_connect_recv_data>:
ll_connect_recv_data():
20000cf6:	00003797          	auipc	a5,0x3
20000cfa:	2f678793          	addi	a5,a5,758 # 20003fec <llRecvDataDisable>
20000cfe:	439c                	lw	a5,0(a5)
20000d00:	1141                	addi	sp,sp,-16
20000d02:	c422                	sw	s0,8(sp)
20000d04:	c606                	sw	ra,12(sp)
20000d06:	8b85                	andi	a5,a5,1
20000d08:	842a                	mv	s0,a0
20000d0a:	efc5                	bnez	a5,20000dc2 <ll_connect_recv_data+0xcc>
20000d0c:	6541                	lui	a0,0x10
20000d0e:	f5250513          	addi	a0,a0,-174 # ff52 <SM_PasskeyUpdate+0x96>
20000d12:	e0012097          	auipc	ra,0xe0012
20000d16:	65c080e7          	jalr	1628(ra) # 1336e <LL_CoreGetDataList>
20000d1a:	c545                	beqz	a0,20000dc2 <ll_connect_recv_data+0xcc>
20000d1c:	00a54783          	lbu	a5,10(a0)
20000d20:	00f51523          	sh	a5,10(a0)
20000d24:	12042783          	lw	a5,288(s0)
20000d28:	e7bd                	bnez	a5,20000d96 <ll_connect_recv_data+0xa0>
20000d2a:	12a42023          	sw	a0,288(s0)
20000d2e:	12a42223          	sw	a0,292(s0)
20000d32:	4785                	li	a5,1
20000d34:	04f41023          	sh	a5,64(s0)
20000d38:	00052023          	sw	zero,0(a0)
20000d3c:	01644783          	lbu	a5,22(s0)
20000d40:	4154                	lw	a3,4(a0)
20000d42:	00f51623          	sh	a5,12(a0)
20000d46:	00d44703          	lbu	a4,13(s0)
20000d4a:	00e50423          	sb	a4,8(a0)
20000d4e:	4705                	li	a4,1
20000d50:	00e504a3          	sb	a4,9(a0)
20000d54:	00003717          	auipc	a4,0x3
20000d58:	2ac70713          	addi	a4,a4,684 # 20004000 <gBleIPPara>
20000d5c:	4f18                	lw	a4,24(a4)
20000d5e:	02178513          	addi	a0,a5,33
20000d62:	8115                	srli	a0,a0,0x5
20000d64:	431c                	lw	a5,0(a4)
20000d66:	157d                	addi	a0,a0,-1
20000d68:	0ff57513          	andi	a0,a0,255
20000d6c:	c29c                	sw	a5,0(a3)
20000d6e:	435c                	lw	a5,4(a4)
20000d70:	c2dc                	sw	a5,4(a3)
20000d72:	471c                	lw	a5,8(a4)
20000d74:	c69c                	sw	a5,8(a3)
20000d76:	475c                	lw	a5,12(a4)
20000d78:	c6dc                	sw	a5,12(a3)
20000d7a:	4b1c                	lw	a5,16(a4)
20000d7c:	ca9c                	sw	a5,16(a3)
20000d7e:	4b5c                	lw	a5,20(a4)
20000d80:	cadc                	sw	a5,20(a3)
20000d82:	4f1c                	lw	a5,24(a4)
20000d84:	ce9c                	sw	a5,24(a3)
20000d86:	4f5c                	lw	a5,28(a4)
20000d88:	cedc                	sw	a5,28(a3)
20000d8a:	cd19                	beqz	a0,20000da8 <ll_connect_recv_data+0xb2>
20000d8c:	02068693          	addi	a3,a3,32 # f020 <sm_CMAC+0xc6>
20000d90:	02070713          	addi	a4,a4,32
20000d94:	bfc1                	j	20000d64 <ll_connect_recv_data+0x6e>
20000d96:	12442783          	lw	a5,292(s0)
20000d9a:	c388                	sw	a0,0(a5)
20000d9c:	04045783          	lhu	a5,64(s0)
20000da0:	12a42223          	sw	a0,292(s0)
20000da4:	0785                	addi	a5,a5,1
20000da6:	b779                	j	20000d34 <ll_connect_recv_data+0x3e>
20000da8:	00003797          	auipc	a5,0x3
20000dac:	3287d783          	lhu	a5,808(a5) # 200040d0 <gBleLlPara+0x8>
20000db0:	0785                	addi	a5,a5,1
20000db2:	00003717          	auipc	a4,0x3
20000db6:	30f71f23          	sh	a5,798(a4) # 200040d0 <gBleLlPara+0x8>
20000dba:	40b2                	lw	ra,12(sp)
20000dbc:	4422                	lw	s0,8(sp)
20000dbe:	0141                	addi	sp,sp,16
20000dc0:	8082                	ret
20000dc2:	00c44783          	lbu	a5,12(s0)
20000dc6:	00040923          	sb	zero,18(s0)
20000dca:	4505                	li	a0,1
20000dcc:	0047c793          	xori	a5,a5,4
20000dd0:	00f40623          	sb	a5,12(s0)
20000dd4:	b7dd                	j	20000dba <ll_connect_recv_data+0xc4>

20000dd6 <ll_connect_event_continue>:
ll_connect_event_continue():
20000dd6:	01854783          	lbu	a5,24(a0)
20000dda:	0fe7f793          	andi	a5,a5,254
20000dde:	ebcd                	bnez	a5,20000e90 <ll_connect_event_continue+0xba>
20000de0:	01954783          	lbu	a5,25(a0)
20000de4:	e7d5                	bnez	a5,20000e90 <ll_connect_event_continue+0xba>
20000de6:	01254603          	lbu	a2,18(a0)
20000dea:	00c54683          	lbu	a3,12(a0)
20000dee:	ca09                	beqz	a2,20000e00 <ll_connect_event_continue+0x2a>
20000df0:	03454583          	lbu	a1,52(a0)
20000df4:	00003717          	auipc	a4,0x3
20000df8:	08774703          	lbu	a4,135(a4) # 20003e7b <ble+0x13>
20000dfc:	00e5e763          	bltu	a1,a4,20000e0a <ll_connect_event_continue+0x34>
20000e00:	0106f713          	andi	a4,a3,16
20000e04:	c759                	beqz	a4,20000e92 <ll_connect_event_continue+0xbc>
20000e06:	4701                	li	a4,0
20000e08:	c609                	beqz	a2,20000e12 <ll_connect_event_continue+0x3c>
20000e0a:	8ac1                	andi	a3,a3,16
20000e0c:	1b855703          	lhu	a4,440(a0)
20000e10:	c681                	beqz	a3,20000e18 <ll_connect_event_continue+0x42>
20000e12:	1bc55683          	lhu	a3,444(a0)
20000e16:	9736                	add	a4,a4,a3
20000e18:	cf2d                	beqz	a4,20000e92 <ll_connect_event_continue+0xbc>
20000e1a:	000f47b7          	lui	a5,0xf4
20000e1e:	00003697          	auipc	a3,0x3
20000e22:	01a6d683          	lhu	a3,26(a3) # 20003e38 <gTmosPara+0x28>
20000e26:	24078793          	addi	a5,a5,576 # f4240 <_data_lma+0xce1b0>
20000e2a:	02d7c7b3          	div	a5,a5,a3
20000e2e:	12c70713          	addi	a4,a4,300
20000e32:	1141                	addi	sp,sp,-16
20000e34:	c226                	sw	s1,4(sp)
20000e36:	c422                	sw	s0,8(sp)
20000e38:	c606                	sw	ra,12(sp)
20000e3a:	547d                	li	s0,-1
20000e3c:	02f75733          	divu	a4,a4,a5
20000e40:	00003797          	auipc	a5,0x3
20000e44:	0417c783          	lbu	a5,65(a5) # 20003e81 <ble+0x19>
20000e48:	00e784b3          	add	s1,a5,a4
20000e4c:	00003797          	auipc	a5,0x3
20000e50:	27c78793          	addi	a5,a5,636 # 200040c8 <gBleLlPara>
20000e54:	08c7a683          	lw	a3,140(a5)
20000e58:	0906a783          	lw	a5,144(a3)
20000e5c:	0087f363          	bgeu	a5,s0,20000e62 <ll_connect_event_continue+0x8c>
20000e60:	843e                	mv	s0,a5
20000e62:	4294                	lw	a3,0(a3)
20000e64:	faf5                	bnez	a3,20000e58 <ll_connect_event_continue+0x82>
20000e66:	00003797          	auipc	a5,0x3
20000e6a:	04678793          	addi	a5,a5,70 # 20003eac <fnGetClockCBs>
20000e6e:	439c                	lw	a5,0(a5)
20000e70:	9782                	jalr	a5
20000e72:	4781                	li	a5,0
20000e74:	00a46463          	bltu	s0,a0,20000e7c <ll_connect_event_continue+0xa6>
20000e78:	40a407b3          	sub	a5,s0,a0
20000e7c:	40b2                	lw	ra,12(sp)
20000e7e:	4422                	lw	s0,8(sp)
20000e80:	0097b7b3          	sltu	a5,a5,s1
20000e84:	0017c793          	xori	a5,a5,1
20000e88:	4492                	lw	s1,4(sp)
20000e8a:	853e                	mv	a0,a5
20000e8c:	0141                	addi	sp,sp,16
20000e8e:	8082                	ret
20000e90:	4781                	li	a5,0
20000e92:	853e                	mv	a0,a5
20000e94:	8082                	ret

20000e96 <LL_HopGetChannel>:
LL_HopGetChannel():
20000e96:	7179                	addi	sp,sp,-48
20000e98:	d226                	sw	s1,36(sp)
20000e9a:	d606                	sw	ra,44(sp)
20000e9c:	d422                	sw	s0,40(sp)
20000e9e:	d04a                	sw	s2,32(sp)
20000ea0:	ce4e                	sw	s3,28(sp)
20000ea2:	cc52                	sw	s4,24(sp)
20000ea4:	ca56                	sw	s5,20(sp)
20000ea6:	c85a                	sw	s6,16(sp)
20000ea8:	c65e                	sw	s7,12(sp)
20000eaa:	03354783          	lbu	a5,51(a0)
20000eae:	13754403          	lbu	s0,311(a0)
20000eb2:	84aa                	mv	s1,a0
20000eb4:	943e                	add	s0,s0,a5
20000eb6:	0ff47413          	andi	s0,s0,255
20000eba:	02400793          	li	a5,36
20000ebe:	0087f663          	bgeu	a5,s0,20000eca <LL_HopGetChannel+0x34>
20000ec2:	fdb40413          	addi	s0,s0,-37
20000ec6:	0ff47413          	andi	s0,s0,255
20000eca:	1384aa03          	lw	s4,312(s1)
20000ece:	13c4aa83          	lw	s5,316(s1)
20000ed2:	12848ba3          	sb	s0,311(s1)
20000ed6:	8622                	mv	a2,s0
20000ed8:	8552                	mv	a0,s4
20000eda:	85d6                	mv	a1,s5
20000edc:	e0023097          	auipc	ra,0xe0023
20000ee0:	fbe080e7          	jalr	-66(ra) # 23e9a <__lshrdi3>
20000ee4:	8905                	andi	a0,a0,1
20000ee6:	e515                	bnez	a0,20000f12 <LL_HopGetChannel+0x7c>
20000ee8:	12d4cb03          	lbu	s6,301(s1)
20000eec:	4901                	li	s2,0
20000eee:	4981                	li	s3,0
20000ef0:	03647b33          	remu	s6,s0,s6
20000ef4:	02500b93          	li	s7,37
20000ef8:	864a                	mv	a2,s2
20000efa:	8552                	mv	a0,s4
20000efc:	85d6                	mv	a1,s5
20000efe:	e0023097          	auipc	ra,0xe0023
20000f02:	f9c080e7          	jalr	-100(ra) # 23e9a <__lshrdi3>
20000f06:	8905                	andi	a0,a0,1
20000f08:	c515                	beqz	a0,20000f34 <LL_HopGetChannel+0x9e>
20000f0a:	03699163          	bne	s3,s6,20000f2c <LL_HopGetChannel+0x96>
20000f0e:	0ff97413          	andi	s0,s2,255
20000f12:	12848b23          	sb	s0,310(s1)
20000f16:	50b2                	lw	ra,44(sp)
20000f18:	5422                	lw	s0,40(sp)
20000f1a:	5492                	lw	s1,36(sp)
20000f1c:	5902                	lw	s2,32(sp)
20000f1e:	49f2                	lw	s3,28(sp)
20000f20:	4a62                	lw	s4,24(sp)
20000f22:	4ad2                	lw	s5,20(sp)
20000f24:	4b42                	lw	s6,16(sp)
20000f26:	4bb2                	lw	s7,12(sp)
20000f28:	6145                	addi	sp,sp,48
20000f2a:	8082                	ret
20000f2c:	0985                	addi	s3,s3,1
20000f2e:	09e2                	slli	s3,s3,0x18
20000f30:	4189d993          	srai	s3,s3,0x18
20000f34:	0905                	addi	s2,s2,1
20000f36:	fd7911e3          	bne	s2,s7,20000ef8 <LL_HopGetChannel+0x62>
20000f3a:	bfe1                	j	20000f12 <LL_HopGetChannel+0x7c>

20000f3c <LL_HopGetChannel2>:
LL_HopGetChannel2():
20000f3c:	09852783          	lw	a5,152(a0)
20000f40:	03e55603          	lhu	a2,62(a0)
20000f44:	7179                	addi	sp,sp,-48
20000f46:	0107d693          	srli	a3,a5,0x10
20000f4a:	8ebd                	xor	a3,a3,a5
20000f4c:	06c2                	slli	a3,a3,0x10
20000f4e:	82c1                	srli	a3,a3,0x10
20000f50:	8e35                	xor	a2,a2,a3
20000f52:	40765713          	srai	a4,a2,0x7
20000f56:	40565793          	srai	a5,a2,0x5
20000f5a:	8b89                	andi	a5,a5,2
20000f5c:	8b05                	andi	a4,a4,1
20000f5e:	8f5d                	or	a4,a4,a5
20000f60:	40365793          	srai	a5,a2,0x3
20000f64:	8b91                	andi	a5,a5,4
20000f66:	8f5d                	or	a4,a4,a5
20000f68:	40165793          	srai	a5,a2,0x1
20000f6c:	8ba1                	andi	a5,a5,8
20000f6e:	8f5d                	or	a4,a4,a5
20000f70:	00161793          	slli	a5,a2,0x1
20000f74:	8bc1                	andi	a5,a5,16
20000f76:	8f5d                	or	a4,a4,a5
20000f78:	00361793          	slli	a5,a2,0x3
20000f7c:	0207f793          	andi	a5,a5,32
20000f80:	8f5d                	or	a4,a4,a5
20000f82:	00561793          	slli	a5,a2,0x5
20000f86:	00865593          	srli	a1,a2,0x8
20000f8a:	0407f793          	andi	a5,a5,64
20000f8e:	061e                	slli	a2,a2,0x7
20000f90:	8f5d                	or	a4,a4,a5
20000f92:	0ff67613          	andi	a2,a2,255
20000f96:	8f51                	or	a4,a4,a2
20000f98:	4055d793          	srai	a5,a1,0x5
20000f9c:	4035d613          	srai	a2,a1,0x3
20000fa0:	8a11                	andi	a2,a2,4
20000fa2:	8b89                	andi	a5,a5,2
20000fa4:	8fd1                	or	a5,a5,a2
20000fa6:	4075d613          	srai	a2,a1,0x7
20000faa:	8fd1                	or	a5,a5,a2
20000fac:	4015d613          	srai	a2,a1,0x1
20000fb0:	8a21                	andi	a2,a2,8
20000fb2:	8fd1                	or	a5,a5,a2
20000fb4:	00159613          	slli	a2,a1,0x1
20000fb8:	8a41                	andi	a2,a2,16
20000fba:	8fd1                	or	a5,a5,a2
20000fbc:	00359613          	slli	a2,a1,0x3
20000fc0:	02067613          	andi	a2,a2,32
20000fc4:	8fd1                	or	a5,a5,a2
20000fc6:	00559613          	slli	a2,a1,0x5
20000fca:	04067613          	andi	a2,a2,64
20000fce:	059e                	slli	a1,a1,0x7
20000fd0:	8fd1                	or	a5,a5,a2
20000fd2:	0ff5f593          	andi	a1,a1,255
20000fd6:	8fcd                	or	a5,a5,a1
20000fd8:	07a2                	slli	a5,a5,0x8
20000fda:	4645                	li	a2,17
20000fdc:	8f5d                	or	a4,a4,a5
20000fde:	02c70733          	mul	a4,a4,a2
20000fe2:	d422                	sw	s0,40(sp)
20000fe4:	842a                	mv	s0,a0
20000fe6:	d226                	sw	s1,36(sp)
20000fe8:	cc52                	sw	s4,24(sp)
20000fea:	ca56                	sw	s5,20(sp)
20000fec:	13842a03          	lw	s4,312(s0)
20000ff0:	13c42a83          	lw	s5,316(s0)
20000ff4:	c85a                	sw	s6,16(sp)
20000ff6:	d606                	sw	ra,44(sp)
20000ff8:	9736                	add	a4,a4,a3
20000ffa:	0742                	slli	a4,a4,0x10
20000ffc:	8341                	srli	a4,a4,0x10
20000ffe:	40775793          	srai	a5,a4,0x7
20001002:	40575513          	srai	a0,a4,0x5
20001006:	8909                	andi	a0,a0,2
20001008:	8b85                	andi	a5,a5,1
2000100a:	8fc9                	or	a5,a5,a0
2000100c:	40375513          	srai	a0,a4,0x3
20001010:	8911                	andi	a0,a0,4
20001012:	8fc9                	or	a5,a5,a0
20001014:	40175513          	srai	a0,a4,0x1
20001018:	8921                	andi	a0,a0,8
2000101a:	8fc9                	or	a5,a5,a0
2000101c:	00171513          	slli	a0,a4,0x1
20001020:	8941                	andi	a0,a0,16
20001022:	8fc9                	or	a5,a5,a0
20001024:	00371513          	slli	a0,a4,0x3
20001028:	02057513          	andi	a0,a0,32
2000102c:	8fc9                	or	a5,a5,a0
2000102e:	00571513          	slli	a0,a4,0x5
20001032:	00875593          	srli	a1,a4,0x8
20001036:	04057513          	andi	a0,a0,64
2000103a:	071e                	slli	a4,a4,0x7
2000103c:	8fc9                	or	a5,a5,a0
2000103e:	0ff77713          	andi	a4,a4,255
20001042:	8fd9                	or	a5,a5,a4
20001044:	4035d513          	srai	a0,a1,0x3
20001048:	4055d713          	srai	a4,a1,0x5
2000104c:	8911                	andi	a0,a0,4
2000104e:	8b09                	andi	a4,a4,2
20001050:	8f49                	or	a4,a4,a0
20001052:	4075d513          	srai	a0,a1,0x7
20001056:	8f49                	or	a4,a4,a0
20001058:	4015d513          	srai	a0,a1,0x1
2000105c:	8921                	andi	a0,a0,8
2000105e:	8f49                	or	a4,a4,a0
20001060:	00159513          	slli	a0,a1,0x1
20001064:	8941                	andi	a0,a0,16
20001066:	8f49                	or	a4,a4,a0
20001068:	00359513          	slli	a0,a1,0x3
2000106c:	02057513          	andi	a0,a0,32
20001070:	8f49                	or	a4,a4,a0
20001072:	00559513          	slli	a0,a1,0x5
20001076:	04057513          	andi	a0,a0,64
2000107a:	059e                	slli	a1,a1,0x7
2000107c:	8f49                	or	a4,a4,a0
2000107e:	0ff5f593          	andi	a1,a1,255
20001082:	8f4d                	or	a4,a4,a1
20001084:	0722                	slli	a4,a4,0x8
20001086:	8fd9                	or	a5,a5,a4
20001088:	02c787b3          	mul	a5,a5,a2
2000108c:	d04a                	sw	s2,32(sp)
2000108e:	ce4e                	sw	s3,28(sp)
20001090:	c65e                	sw	s7,12(sp)
20001092:	c462                	sw	s8,8(sp)
20001094:	97b6                	add	a5,a5,a3
20001096:	07c2                	slli	a5,a5,0x10
20001098:	83c1                	srli	a5,a5,0x10
2000109a:	4077d713          	srai	a4,a5,0x7
2000109e:	4057d513          	srai	a0,a5,0x5
200010a2:	8909                	andi	a0,a0,2
200010a4:	8b05                	andi	a4,a4,1
200010a6:	8f49                	or	a4,a4,a0
200010a8:	4037d513          	srai	a0,a5,0x3
200010ac:	8911                	andi	a0,a0,4
200010ae:	8f49                	or	a4,a4,a0
200010b0:	4017d513          	srai	a0,a5,0x1
200010b4:	8921                	andi	a0,a0,8
200010b6:	8f49                	or	a4,a4,a0
200010b8:	00179513          	slli	a0,a5,0x1
200010bc:	8941                	andi	a0,a0,16
200010be:	8f49                	or	a4,a4,a0
200010c0:	00379513          	slli	a0,a5,0x3
200010c4:	02057513          	andi	a0,a0,32
200010c8:	8f49                	or	a4,a4,a0
200010ca:	00579513          	slli	a0,a5,0x5
200010ce:	0087d593          	srli	a1,a5,0x8
200010d2:	04057513          	andi	a0,a0,64
200010d6:	079e                	slli	a5,a5,0x7
200010d8:	8f49                	or	a4,a4,a0
200010da:	0ff7f793          	andi	a5,a5,255
200010de:	8fd9                	or	a5,a5,a4
200010e0:	4035d513          	srai	a0,a1,0x3
200010e4:	4055d713          	srai	a4,a1,0x5
200010e8:	8911                	andi	a0,a0,4
200010ea:	8b09                	andi	a4,a4,2
200010ec:	8f49                	or	a4,a4,a0
200010ee:	4075d513          	srai	a0,a1,0x7
200010f2:	8f49                	or	a4,a4,a0
200010f4:	4015d513          	srai	a0,a1,0x1
200010f8:	8921                	andi	a0,a0,8
200010fa:	8f49                	or	a4,a4,a0
200010fc:	00159513          	slli	a0,a1,0x1
20001100:	8941                	andi	a0,a0,16
20001102:	8f49                	or	a4,a4,a0
20001104:	00359513          	slli	a0,a1,0x3
20001108:	02057513          	andi	a0,a0,32
2000110c:	8f49                	or	a4,a4,a0
2000110e:	00559513          	slli	a0,a1,0x5
20001112:	04057513          	andi	a0,a0,64
20001116:	059e                	slli	a1,a1,0x7
20001118:	8f49                	or	a4,a4,a0
2000111a:	0ff5f593          	andi	a1,a1,255
2000111e:	8f4d                	or	a4,a4,a1
20001120:	0722                	slli	a4,a4,0x8
20001122:	8fd9                	or	a5,a5,a4
20001124:	02c787b3          	mul	a5,a5,a2
20001128:	02500613          	li	a2,37
2000112c:	8552                	mv	a0,s4
2000112e:	85d6                	mv	a1,s5
20001130:	97b6                	add	a5,a5,a3
20001132:	8ebd                	xor	a3,a3,a5
20001134:	01069493          	slli	s1,a3,0x10
20001138:	80c1                	srli	s1,s1,0x10
2000113a:	02c4f633          	remu	a2,s1,a2
2000113e:	0ff67b13          	andi	s6,a2,255
20001142:	e0023097          	auipc	ra,0xe0023
20001146:	d58080e7          	jalr	-680(ra) # 23e9a <__lshrdi3>
2000114a:	8905                	andi	a0,a0,1
2000114c:	ed0d                	bnez	a0,20001186 <LL_HopGetChannel2+0x24a>
2000114e:	12d44783          	lbu	a5,301(s0)
20001152:	4901                	li	s2,0
20001154:	4981                	li	s3,0
20001156:	029784b3          	mul	s1,a5,s1
2000115a:	02500c13          	li	s8,37
2000115e:	80c1                	srli	s1,s1,0x10
20001160:	864a                	mv	a2,s2
20001162:	8552                	mv	a0,s4
20001164:	85d6                	mv	a1,s5
20001166:	e0023097          	auipc	ra,0xe0023
2000116a:	d34080e7          	jalr	-716(ra) # 23e9a <__lshrdi3>
2000116e:	8905                	andi	a0,a0,1
20001170:	0ff97b93          	andi	s7,s2,255
20001174:	c511                	beqz	a0,20001180 <LL_HopGetChannel2+0x244>
20001176:	03348663          	beq	s1,s3,200011a2 <LL_HopGetChannel2+0x266>
2000117a:	0985                	addi	s3,s3,1
2000117c:	0ff9f993          	andi	s3,s3,255
20001180:	0905                	addi	s2,s2,1
20001182:	fd891fe3          	bne	s2,s8,20001160 <LL_HopGetChannel2+0x224>
20001186:	13640b23          	sb	s6,310(s0)
2000118a:	50b2                	lw	ra,44(sp)
2000118c:	5422                	lw	s0,40(sp)
2000118e:	5492                	lw	s1,36(sp)
20001190:	5902                	lw	s2,32(sp)
20001192:	49f2                	lw	s3,28(sp)
20001194:	4a62                	lw	s4,24(sp)
20001196:	4ad2                	lw	s5,20(sp)
20001198:	4b42                	lw	s6,16(sp)
2000119a:	4bb2                	lw	s7,12(sp)
2000119c:	4c22                	lw	s8,8(sp)
2000119e:	6145                	addi	sp,sp,48
200011a0:	8082                	ret
200011a2:	8b5e                	mv	s6,s7
200011a4:	b7cd                	j	20001186 <LL_HopGetChannel2+0x24a>

200011a6 <ll_scan_duplicate_filter>:
ll_scan_duplicate_filter():
200011a6:	1101                	addi	sp,sp,-32
200011a8:	cc22                	sw	s0,24(sp)
200011aa:	4160                	lw	s0,68(a0)
200011ac:	ca26                	sw	s1,20(sp)
200011ae:	c84a                	sw	s2,16(sp)
200011b0:	c64e                	sw	s3,12(sp)
200011b2:	c452                	sw	s4,8(sp)
200011b4:	ce06                	sw	ra,28(sp)
200011b6:	84aa                	mv	s1,a0
200011b8:	4a1d                	li	s4,7
200011ba:	05650913          	addi	s2,a0,86
200011be:	4985                	li	s3,1
200011c0:	44bc                	lw	a5,72(s1)
200011c2:	00f46463          	bltu	s0,a5,200011ca <ll_scan_duplicate_filter+0x24>
200011c6:	4505                	li	a0,1
200011c8:	a881                	j	20001218 <ll_scan_duplicate_filter+0x72>
200011ca:	00d4c703          	lbu	a4,13(s1)
200011ce:	00444783          	lbu	a5,4(s0)
200011d2:	05471b63          	bne	a4,s4,20001228 <ll_scan_duplicate_filter+0x82>
200011d6:	0284c703          	lbu	a4,40(s1)
200011da:	00f70463          	beq	a4,a5,200011e2 <ll_scan_duplicate_filter+0x3c>
200011de:	4000                	lw	s0,0(s0)
200011e0:	b7c5                	j	200011c0 <ll_scan_duplicate_filter+0x1a>
200011e2:	00544703          	lbu	a4,5(s0)
200011e6:	0554c783          	lbu	a5,85(s1)
200011ea:	fef71ae3          	bne	a4,a5,200011de <ll_scan_duplicate_filter+0x38>
200011ee:	4619                	li	a2,6
200011f0:	85ca                	mv	a1,s2
200011f2:	00640513          	addi	a0,s0,6
200011f6:	dd0ff0ef          	jal	ra,200007c6 <tmos_memcmp>
200011fa:	ff3512e3          	bne	a0,s3,200011de <ll_scan_duplicate_filter+0x38>
200011fe:	00c44703          	lbu	a4,12(s0)
20001202:	0294c783          	lbu	a5,41(s1)
20001206:	fcf71ce3          	bne	a4,a5,200011de <ll_scan_duplicate_filter+0x38>
2000120a:	00e45703          	lhu	a4,14(s0)
2000120e:	02a4d783          	lhu	a5,42(s1)
20001212:	fcf716e3          	bne	a4,a5,200011de <ll_scan_duplicate_filter+0x38>
20001216:	4501                	li	a0,0
20001218:	40f2                	lw	ra,28(sp)
2000121a:	4462                	lw	s0,24(sp)
2000121c:	44d2                	lw	s1,20(sp)
2000121e:	4942                	lw	s2,16(sp)
20001220:	49b2                	lw	s3,12(sp)
20001222:	4a22                	lw	s4,8(sp)
20001224:	6105                	addi	sp,sp,32
20001226:	8082                	ret
20001228:	faf71be3          	bne	a4,a5,200011de <ll_scan_duplicate_filter+0x38>
2000122c:	00544703          	lbu	a4,5(s0)
20001230:	0554c783          	lbu	a5,85(s1)
20001234:	faf715e3          	bne	a4,a5,200011de <ll_scan_duplicate_filter+0x38>
20001238:	4619                	li	a2,6
2000123a:	85ca                	mv	a1,s2
2000123c:	00640513          	addi	a0,s0,6
20001240:	d86ff0ef          	jal	ra,200007c6 <tmos_memcmp>
20001244:	f9351de3          	bne	a0,s3,200011de <ll_scan_duplicate_filter+0x38>
20001248:	b7f9                	j	20001216 <ll_scan_duplicate_filter+0x70>

2000124a <LL_WhitelistLookup>:
LL_WhitelistLookup():
2000124a:	1101                	addi	sp,sp,-32
2000124c:	00003797          	auipc	a5,0x3
20001250:	e7c78793          	addi	a5,a5,-388 # 200040c8 <gBleLlPara>
20001254:	cc22                	sw	s0,24(sp)
20001256:	0b07a403          	lw	s0,176(a5)
2000125a:	ca26                	sw	s1,20(sp)
2000125c:	ce06                	sw	ra,28(sp)
2000125e:	c42a                	sw	a0,8(sp)
20001260:	c62e                	sw	a1,12(sp)
20001262:	4485                	li	s1,1
20001264:	e419                	bnez	s0,20001272 <LL_WhitelistLookup+0x28>
20001266:	4501                	li	a0,0
20001268:	40f2                	lw	ra,28(sp)
2000126a:	4462                	lw	s0,24(sp)
2000126c:	44d2                	lw	s1,20(sp)
2000126e:	6105                	addi	sp,sp,32
20001270:	8082                	ret
20001272:	00914783          	lbu	a5,9(sp)
20001276:	00144703          	lbu	a4,1(s0)
2000127a:	8b85                	andi	a5,a5,1
2000127c:	00f70463          	beq	a4,a5,20001284 <LL_WhitelistLookup+0x3a>
20001280:	4400                	lw	s0,8(s0)
20001282:	b7cd                	j	20001264 <LL_WhitelistLookup+0x1a>
20001284:	4619                	li	a2,6
20001286:	00a10593          	addi	a1,sp,10
2000128a:	00240513          	addi	a0,s0,2
2000128e:	d38ff0ef          	jal	ra,200007c6 <tmos_memcmp>
20001292:	fe9517e3          	bne	a0,s1,20001280 <LL_WhitelistLookup+0x36>
20001296:	4505                	li	a0,1
20001298:	bfc1                	j	20001268 <LL_WhitelistLookup+0x1e>

2000129a <AES_DevAESEnc>:
AES_DevAESEnc():
2000129a:	1101                	addi	sp,sp,-32
2000129c:	cc22                	sw	s0,24(sp)
2000129e:	00003417          	auipc	s0,0x3
200012a2:	d7e40413          	addi	s0,s0,-642 # 2000401c <gptrLLEReg>
200012a6:	4018                	lw	a4,0(s0)
200012a8:	c62a                	sw	a0,12(sp)
200012aa:	c42e                	sw	a1,8(sp)
200012ac:	c232                	sw	a2,4(sp)
200012ae:	ce06                	sw	ra,28(sp)
200012b0:	4b3c                	lw	a5,80(a4)
200012b2:	f7f7f793          	andi	a5,a5,-129
200012b6:	cb3c                	sw	a5,80(a4)
200012b8:	e001a097          	auipc	ra,0xe001a
200012bc:	60e080e7          	jalr	1550(ra) # 1b8c6 <ll_multi_states_check>
200012c0:	4018                	lw	a4,0(s0)
200012c2:	00003697          	auipc	a3,0x3
200012c6:	d3268693          	addi	a3,a3,-718 # 20003ff4 <gptrAESReg>
200012ca:	4b3c                	lw	a5,80(a4)
200012cc:	0807e793          	ori	a5,a5,128
200012d0:	cb3c                	sw	a5,80(a4)
200012d2:	429c                	lw	a5,0(a3)
200012d4:	4532                	lw	a0,12(sp)
200012d6:	45a2                	lw	a1,8(sp)
200012d8:	0007a023          	sw	zero,0(a5)
200012dc:	00154703          	lbu	a4,1(a0)
200012e0:	00254803          	lbu	a6,2(a0)
200012e4:	0722                	slli	a4,a4,0x8
200012e6:	0842                	slli	a6,a6,0x10
200012e8:	9742                	add	a4,a4,a6
200012ea:	00054803          	lbu	a6,0(a0)
200012ee:	9742                	add	a4,a4,a6
200012f0:	00354803          	lbu	a6,3(a0)
200012f4:	0862                	slli	a6,a6,0x18
200012f6:	9742                	add	a4,a4,a6
200012f8:	d798                	sw	a4,40(a5)
200012fa:	00554703          	lbu	a4,5(a0)
200012fe:	00654803          	lbu	a6,6(a0)
20001302:	0722                	slli	a4,a4,0x8
20001304:	0842                	slli	a6,a6,0x10
20001306:	9742                	add	a4,a4,a6
20001308:	00454803          	lbu	a6,4(a0)
2000130c:	9742                	add	a4,a4,a6
2000130e:	00754803          	lbu	a6,7(a0)
20001312:	0862                	slli	a6,a6,0x18
20001314:	9742                	add	a4,a4,a6
20001316:	d7d8                	sw	a4,44(a5)
20001318:	00954703          	lbu	a4,9(a0)
2000131c:	00a54803          	lbu	a6,10(a0)
20001320:	0722                	slli	a4,a4,0x8
20001322:	0842                	slli	a6,a6,0x10
20001324:	9742                	add	a4,a4,a6
20001326:	00854803          	lbu	a6,8(a0)
2000132a:	9742                	add	a4,a4,a6
2000132c:	00b54803          	lbu	a6,11(a0)
20001330:	0862                	slli	a6,a6,0x18
20001332:	9742                	add	a4,a4,a6
20001334:	db98                	sw	a4,48(a5)
20001336:	00d54703          	lbu	a4,13(a0)
2000133a:	00e54803          	lbu	a6,14(a0)
2000133e:	0722                	slli	a4,a4,0x8
20001340:	0842                	slli	a6,a6,0x10
20001342:	9742                	add	a4,a4,a6
20001344:	00c54803          	lbu	a6,12(a0)
20001348:	00f54503          	lbu	a0,15(a0)
2000134c:	9742                	add	a4,a4,a6
2000134e:	0562                	slli	a0,a0,0x18
20001350:	972a                	add	a4,a4,a0
20001352:	dbd8                	sw	a4,52(a5)
20001354:	0015c703          	lbu	a4,1(a1)
20001358:	0025c503          	lbu	a0,2(a1)
2000135c:	0722                	slli	a4,a4,0x8
2000135e:	0542                	slli	a0,a0,0x10
20001360:	972a                	add	a4,a4,a0
20001362:	0005c503          	lbu	a0,0(a1)
20001366:	972a                	add	a4,a4,a0
20001368:	0035c503          	lbu	a0,3(a1)
2000136c:	0562                	slli	a0,a0,0x18
2000136e:	972a                	add	a4,a4,a0
20001370:	cf98                	sw	a4,24(a5)
20001372:	0055c703          	lbu	a4,5(a1)
20001376:	0065c503          	lbu	a0,6(a1)
2000137a:	0722                	slli	a4,a4,0x8
2000137c:	0542                	slli	a0,a0,0x10
2000137e:	972a                	add	a4,a4,a0
20001380:	0045c503          	lbu	a0,4(a1)
20001384:	972a                	add	a4,a4,a0
20001386:	0075c503          	lbu	a0,7(a1)
2000138a:	0562                	slli	a0,a0,0x18
2000138c:	972a                	add	a4,a4,a0
2000138e:	cfd8                	sw	a4,28(a5)
20001390:	0095c703          	lbu	a4,9(a1)
20001394:	00a5c503          	lbu	a0,10(a1)
20001398:	0722                	slli	a4,a4,0x8
2000139a:	0542                	slli	a0,a0,0x10
2000139c:	972a                	add	a4,a4,a0
2000139e:	0085c503          	lbu	a0,8(a1)
200013a2:	972a                	add	a4,a4,a0
200013a4:	00b5c503          	lbu	a0,11(a1)
200013a8:	0562                	slli	a0,a0,0x18
200013aa:	972a                	add	a4,a4,a0
200013ac:	d398                	sw	a4,32(a5)
200013ae:	00d5c703          	lbu	a4,13(a1)
200013b2:	00e5c503          	lbu	a0,14(a1)
200013b6:	0722                	slli	a4,a4,0x8
200013b8:	0542                	slli	a0,a0,0x10
200013ba:	972a                	add	a4,a4,a0
200013bc:	00c5c503          	lbu	a0,12(a1)
200013c0:	00f5c583          	lbu	a1,15(a1)
200013c4:	972a                	add	a4,a4,a0
200013c6:	05e2                	slli	a1,a1,0x18
200013c8:	972e                	add	a4,a4,a1
200013ca:	d3d8                	sw	a4,36(a5)
200013cc:	43d8                	lw	a4,4(a5)
200013ce:	9b75                	andi	a4,a4,-3
200013d0:	c3d8                	sw	a4,4(a5)
200013d2:	43d8                	lw	a4,4(a5)
200013d4:	00176713          	ori	a4,a4,1
200013d8:	c3d8                	sw	a4,4(a5)
200013da:	4398                	lw	a4,0(a5)
200013dc:	00176713          	ori	a4,a4,1
200013e0:	c398                	sw	a4,0(a5)
200013e2:	4612                	lw	a2,4(sp)
200013e4:	4298                	lw	a4,0(a3)
200013e6:	435c                	lw	a5,4(a4)
200013e8:	8b85                	andi	a5,a5,1
200013ea:	e7d1                	bnez	a5,20001476 <AES_DevAESEnc+0x1dc>
200013ec:	4f1c                	lw	a5,24(a4)
200013ee:	4501                	li	a0,0
200013f0:	00f60023          	sb	a5,0(a2)
200013f4:	429c                	lw	a5,0(a3)
200013f6:	4f9c                	lw	a5,24(a5)
200013f8:	83a1                	srli	a5,a5,0x8
200013fa:	00f600a3          	sb	a5,1(a2)
200013fe:	429c                	lw	a5,0(a3)
20001400:	4f9c                	lw	a5,24(a5)
20001402:	83c1                	srli	a5,a5,0x10
20001404:	00f60123          	sb	a5,2(a2)
20001408:	429c                	lw	a5,0(a3)
2000140a:	4f9c                	lw	a5,24(a5)
2000140c:	83e1                	srli	a5,a5,0x18
2000140e:	00f601a3          	sb	a5,3(a2)
20001412:	429c                	lw	a5,0(a3)
20001414:	4fd8                	lw	a4,28(a5)
20001416:	00e60223          	sb	a4,4(a2)
2000141a:	4fd8                	lw	a4,28(a5)
2000141c:	8321                	srli	a4,a4,0x8
2000141e:	00e602a3          	sb	a4,5(a2)
20001422:	4fd8                	lw	a4,28(a5)
20001424:	8341                	srli	a4,a4,0x10
20001426:	00e60323          	sb	a4,6(a2)
2000142a:	4fd8                	lw	a4,28(a5)
2000142c:	8361                	srli	a4,a4,0x18
2000142e:	00e603a3          	sb	a4,7(a2)
20001432:	5398                	lw	a4,32(a5)
20001434:	00e60423          	sb	a4,8(a2)
20001438:	5398                	lw	a4,32(a5)
2000143a:	8321                	srli	a4,a4,0x8
2000143c:	00e604a3          	sb	a4,9(a2)
20001440:	5398                	lw	a4,32(a5)
20001442:	8341                	srli	a4,a4,0x10
20001444:	00e60523          	sb	a4,10(a2)
20001448:	5398                	lw	a4,32(a5)
2000144a:	8361                	srli	a4,a4,0x18
2000144c:	00e605a3          	sb	a4,11(a2)
20001450:	53d8                	lw	a4,36(a5)
20001452:	00e60623          	sb	a4,12(a2)
20001456:	53d8                	lw	a4,36(a5)
20001458:	8321                	srli	a4,a4,0x8
2000145a:	00e606a3          	sb	a4,13(a2)
2000145e:	53d8                	lw	a4,36(a5)
20001460:	8341                	srli	a4,a4,0x10
20001462:	00e60723          	sb	a4,14(a2)
20001466:	53dc                	lw	a5,36(a5)
20001468:	83e1                	srli	a5,a5,0x18
2000146a:	00f607a3          	sb	a5,15(a2)
2000146e:	40f2                	lw	ra,28(sp)
20001470:	4462                	lw	s0,24(sp)
20001472:	6105                	addi	sp,sp,32
20001474:	8082                	ret
20001476:	0001                	nop
20001478:	b7b5                	j	200013e4 <AES_DevAESEnc+0x14a>

2000147a <BB_IRQLibHandler>:
BB_IRQLibHandler():
2000147a:	715d                	addi	sp,sp,-80
2000147c:	d23a                	sw	a4,36(sp)
2000147e:	00003717          	auipc	a4,0x3
20001482:	b7a70713          	addi	a4,a4,-1158 # 20003ff8 <gptrBBReg>
20001486:	d436                	sw	a3,40(sp)
20001488:	4314                	lw	a3,0(a4)
2000148a:	d03e                	sw	a5,32(sp)
2000148c:	de22                	sw	s0,60(sp)
2000148e:	5e9c                	lw	a5,56(a3)
20001490:	ca4a                	sw	s2,20(sp)
20001492:	c686                	sw	ra,76(sp)
20001494:	8399                	srli	a5,a5,0x6
20001496:	c496                	sw	t0,72(sp)
20001498:	c29a                	sw	t1,68(sp)
2000149a:	c09e                	sw	t2,64(sp)
2000149c:	dc26                	sw	s1,56(sp)
2000149e:	da2a                	sw	a0,52(sp)
200014a0:	d82e                	sw	a1,48(sp)
200014a2:	d632                	sw	a2,44(sp)
200014a4:	ce42                	sw	a6,28(sp)
200014a6:	cc46                	sw	a7,24(sp)
200014a8:	c872                	sw	t3,16(sp)
200014aa:	c676                	sw	t4,12(sp)
200014ac:	c47a                	sw	t5,8(sp)
200014ae:	c27e                	sw	t6,4(sp)
200014b0:	8b85                	andi	a5,a5,1
200014b2:	843a                	mv	s0,a4
200014b4:	00003917          	auipc	s2,0x3
200014b8:	b4090913          	addi	s2,s2,-1216 # 20003ff4 <gptrAESReg>
200014bc:	cbd1                	beqz	a5,20001550 <BB_IRQLibHandler+0xd6>
200014be:	5e9c                	lw	a5,56(a3)
200014c0:	00003497          	auipc	s1,0x3
200014c4:	b4048493          	addi	s1,s1,-1216 # 20004000 <gBleIPPara>
200014c8:	f9f7f793          	andi	a5,a5,-97
200014cc:	de9c                	sw	a5,56(a3)
200014ce:	00003717          	auipc	a4,0x3
200014d2:	b3874703          	lbu	a4,-1224(a4) # 20004006 <gBleIPPara+0x6>
200014d6:	08000793          	li	a5,128
200014da:	00f71b63          	bne	a4,a5,200014f0 <BB_IRQLibHandler+0x76>
200014de:	00092783          	lw	a5,0(s2)
200014e2:	439c                	lw	a5,0(a5)
200014e4:	0407f793          	andi	a5,a5,64
200014e8:	00003717          	auipc	a4,0x3
200014ec:	b0f70f23          	sb	a5,-1250(a4) # 20004006 <gBleIPPara+0x6>
200014f0:	0004c783          	lbu	a5,0(s1)
200014f4:	0407f793          	andi	a5,a5,64
200014f8:	c39d                	beqz	a5,2000151e <BB_IRQLibHandler+0xa4>
200014fa:	00003797          	auipc	a5,0x3
200014fe:	9b278793          	addi	a5,a5,-1614 # 20003eac <fnGetClockCBs>
20001502:	439c                	lw	a5,0(a5)
20001504:	9782                	jalr	a5
20001506:	00003797          	auipc	a5,0x3
2000150a:	b0a7a523          	sw	a0,-1270(a5) # 20004010 <gBleIPPara+0x10>
2000150e:	0004c783          	lbu	a5,0(s1)
20001512:	0bf7f793          	andi	a5,a5,191
20001516:	00003717          	auipc	a4,0x3
2000151a:	aef70523          	sb	a5,-1302(a4) # 20004000 <gBleIPPara>
2000151e:	0044c783          	lbu	a5,4(s1)
20001522:	0407f793          	andi	a5,a5,64
20001526:	e78d                	bnez	a5,20001550 <BB_IRQLibHandler+0xd6>
20001528:	4785                	li	a5,1
2000152a:	00003717          	auipc	a4,0x3
2000152e:	acf70da3          	sb	a5,-1317(a4) # 20004005 <gBleIPPara+0x5>
20001532:	00003797          	auipc	a5,0x3
20001536:	aea78793          	addi	a5,a5,-1302 # 2000401c <gptrLLEReg>
2000153a:	439c                	lw	a5,0(a5)
2000153c:	6709                	lui	a4,0x2
2000153e:	c798                	sw	a4,8(a5)
20001540:	fc000713          	li	a4,-64
20001544:	00003697          	auipc	a3,0x3
20001548:	ace68023          	sb	a4,-1344(a3) # 20004004 <gBleIPPara+0x4>
2000154c:	44d8                	lw	a4,12(s1)
2000154e:	d3f8                	sw	a4,100(a5)
20001550:	401c                	lw	a5,0(s0)
20001552:	5f98                	lw	a4,56(a5)
20001554:	8311                	srli	a4,a4,0x4
20001556:	8b05                	andi	a4,a4,1
20001558:	cb09                	beqz	a4,2000156a <BB_IRQLibHandler+0xf0>
2000155a:	5f98                	lw	a4,56(a5)
2000155c:	9b3d                	andi	a4,a4,-17
2000155e:	df98                	sw	a4,56(a5)
20001560:	4705                	li	a4,1
20001562:	00003697          	auipc	a3,0x3
20001566:	aae68123          	sb	a4,-1374(a3) # 20004004 <gBleIPPara+0x4>
2000156a:	5f98                	lw	a4,56(a5)
2000156c:	831d                	srli	a4,a4,0x7
2000156e:	8b05                	andi	a4,a4,1
20001570:	cb11                	beqz	a4,20001584 <BB_IRQLibHandler+0x10a>
20001572:	5f98                	lw	a4,56(a5)
20001574:	f7f77713          	andi	a4,a4,-129
20001578:	df98                	sw	a4,56(a5)
2000157a:	4785                	li	a5,1
2000157c:	00003717          	auipc	a4,0x3
20001580:	a8f70423          	sb	a5,-1400(a4) # 20004004 <gBleIPPara+0x4>
20001584:	00092783          	lw	a5,0(s2)
20001588:	43d8                	lw	a4,4(a5)
2000158a:	8305                	srli	a4,a4,0x1
2000158c:	8b05                	andi	a4,a4,1
2000158e:	c719                	beqz	a4,2000159c <BB_IRQLibHandler+0x122>
20001590:	43d8                	lw	a4,4(a5)
20001592:	9b75                	andi	a4,a4,-3
20001594:	c3d8                	sw	a4,4(a5)
20001596:	43d8                	lw	a4,4(a5)
20001598:	9b79                	andi	a4,a4,-2
2000159a:	c3d8                	sw	a4,4(a5)
2000159c:	5472                	lw	s0,60(sp)
2000159e:	40b6                	lw	ra,76(sp)
200015a0:	42a6                	lw	t0,72(sp)
200015a2:	4316                	lw	t1,68(sp)
200015a4:	4386                	lw	t2,64(sp)
200015a6:	54e2                	lw	s1,56(sp)
200015a8:	5552                	lw	a0,52(sp)
200015aa:	55c2                	lw	a1,48(sp)
200015ac:	5632                	lw	a2,44(sp)
200015ae:	56a2                	lw	a3,40(sp)
200015b0:	5712                	lw	a4,36(sp)
200015b2:	5782                	lw	a5,32(sp)
200015b4:	4872                	lw	a6,28(sp)
200015b6:	48e2                	lw	a7,24(sp)
200015b8:	4952                	lw	s2,20(sp)
200015ba:	4e42                	lw	t3,16(sp)
200015bc:	4eb2                	lw	t4,12(sp)
200015be:	4f22                	lw	t5,8(sp)
200015c0:	4f92                	lw	t6,4(sp)
200015c2:	6161                	addi	sp,sp,80
200015c4:	30200073          	mret

200015c8 <ll_rx_wait_finish>:
ll_rx_wait_finish():
200015c8:	00003797          	auipc	a5,0x3
200015cc:	a5478793          	addi	a5,a5,-1452 # 2000401c <gptrLLEReg>
200015d0:	4394                	lw	a3,0(a5)
200015d2:	00003797          	auipc	a5,0x3
200015d6:	a2e78793          	addi	a5,a5,-1490 # 20004000 <gBleIPPara>
200015da:	0007c703          	lbu	a4,0(a5)
200015de:	8b05                	andi	a4,a4,1
200015e0:	cb11                	beqz	a4,200015f4 <ll_rx_wait_finish+0x2c>
200015e2:	00003797          	auipc	a5,0x3
200015e6:	a2078123          	sb	zero,-1502(a5) # 20004004 <gBleIPPara+0x4>
200015ea:	00003797          	auipc	a5,0x3
200015ee:	a0078da3          	sb	zero,-1509(a5) # 20004005 <gBleIPPara+0x5>
200015f2:	8082                	ret
200015f4:	0017c703          	lbu	a4,1(a5)
200015f8:	8b05                	andi	a4,a4,1
200015fa:	f765                	bnez	a4,200015e2 <ll_rx_wait_finish+0x1a>
200015fc:	52f8                	lw	a4,100(a3)
200015fe:	ff71                	bnez	a4,200015da <ll_rx_wait_finish+0x12>
20001600:	0057c783          	lbu	a5,5(a5)
20001604:	b7dd                	j	200015ea <ll_rx_wait_finish+0x22>

20001606 <ble_ll_chkcrc>:
ble_ll_chkcrc():
20001606:	00003817          	auipc	a6,0x3
2000160a:	9f280813          	addi	a6,a6,-1550 # 20003ff8 <gptrBBReg>
2000160e:	00082703          	lw	a4,0(a6)
20001612:	5f1c                	lw	a5,56(a4)
20001614:	8395                	srli	a5,a5,0x5
20001616:	8b85                	andi	a5,a5,1
20001618:	e7d1                	bnez	a5,200016a4 <ble_ll_chkcrc+0x9e>
2000161a:	c609                	beqz	a2,20001624 <ble_ll_chkcrc+0x1e>
2000161c:	5b1c                	lw	a5,48(a4)
2000161e:	83bd                	srli	a5,a5,0xf
20001620:	00f60023          	sb	a5,0(a2)
20001624:	ca85                	beqz	a3,20001654 <ble_ll_chkcrc+0x4e>
20001626:	00082783          	lw	a5,0(a6)
2000162a:	5b98                	lw	a4,48(a5)
2000162c:	0746                	slli	a4,a4,0x11
2000162e:	01675793          	srli	a5,a4,0x16
20001632:	00075663          	bgez	a4,2000163e <ble_ll_chkcrc+0x38>
20001636:	c007e793          	ori	a5,a5,-1024
2000163a:	07c2                	slli	a5,a5,0x10
2000163c:	83c1                	srli	a5,a5,0x10
2000163e:	00069703          	lh	a4,0(a3)
20001642:	07c2                	slli	a5,a5,0x10
20001644:	87c1                	srai	a5,a5,0x10
20001646:	c709                	beqz	a4,20001650 <ble_ll_chkcrc+0x4a>
20001648:	97ba                	add	a5,a5,a4
2000164a:	4709                	li	a4,2
2000164c:	02e7c7b3          	div	a5,a5,a4
20001650:	00f69023          	sh	a5,0(a3)
20001654:	cd85                	beqz	a1,2000168c <ble_ll_chkcrc+0x86>
20001656:	00154783          	lbu	a5,1(a0)
2000165a:	cb8d                	beqz	a5,2000168c <ble_ll_chkcrc+0x86>
2000165c:	00003697          	auipc	a3,0x3
20001660:	9aa6c683          	lbu	a3,-1622(a3) # 20004006 <gBleIPPara+0x6>
20001664:	0406f693          	andi	a3,a3,64
20001668:	00978713          	addi	a4,a5,9
2000166c:	4789                	li	a5,2
2000166e:	ca8d                	beqz	a3,200016a0 <ble_ll_chkcrc+0x9a>
20001670:	953a                	add	a0,a0,a4
20001672:	00054703          	lbu	a4,0(a0)
20001676:	4685                	li	a3,1
20001678:	4799                	li	a5,6
2000167a:	06f77613          	andi	a2,a4,111
2000167e:	02d61163          	bne	a2,a3,200016a0 <ble_ll_chkcrc+0x9a>
20001682:	0762                	slli	a4,a4,0x18
20001684:	8761                	srai	a4,a4,0x18
20001686:	47b9                	li	a5,14
20001688:	00074c63          	bltz	a4,200016a0 <ble_ll_chkcrc+0x9a>
2000168c:	00082783          	lw	a5,0(a6)
20001690:	5f9c                	lw	a5,56(a5)
20001692:	83ed                	srli	a5,a5,0x1b
20001694:	8b8d                	andi	a5,a5,3
20001696:	00003717          	auipc	a4,0x3
2000169a:	96f70aa3          	sb	a5,-1675(a4) # 2000400b <gBleIPPara+0xb>
2000169e:	4781                	li	a5,0
200016a0:	853e                	mv	a0,a5
200016a2:	8082                	ret
200016a4:	4785                	li	a5,1
200016a6:	bfed                	j	200016a0 <ble_ll_chkcrc+0x9a>

200016a8 <ll_tx_wait_finish>:
ll_tx_wait_finish():
200016a8:	1141                	addi	sp,sp,-16
200016aa:	c422                	sw	s0,8(sp)
200016ac:	c606                	sw	ra,12(sp)
200016ae:	00003417          	auipc	s0,0x3
200016b2:	96e40413          	addi	s0,s0,-1682 # 2000401c <gptrLLEReg>
200016b6:	4018                	lw	a4,0(s0)
200016b8:	e949                	bnez	a0,2000174a <ll_tx_wait_finish+0xa2>
200016ba:	87ae                	mv	a5,a1
200016bc:	5374                	lw	a3,100(a4)
200016be:	fefd                	bnez	a3,200016bc <ll_tx_wait_finish+0x14>
200016c0:	853e                	mv	a0,a5
200016c2:	85b2                	mv	a1,a2
200016c4:	00003797          	auipc	a5,0x3
200016c8:	92078f23          	sb	zero,-1730(a5) # 20004002 <gBleIPPara+0x2>
200016cc:	e001a097          	auipc	ra,0xe001a
200016d0:	fc8080e7          	jalr	-56(ra) # 1b694 <BLE_SetPHYTxMode>
200016d4:	00003797          	auipc	a5,0x3
200016d8:	92478793          	addi	a5,a5,-1756 # 20003ff8 <gptrBBReg>
200016dc:	439c                	lw	a5,0(a5)
200016de:	008006b7          	lui	a3,0x800
200016e2:	4398                	lw	a4,0(a5)
200016e4:	8f55                	or	a4,a4,a3
200016e6:	c398                	sw	a4,0(a5)
200016e8:	57d8                	lw	a4,44(a5)
200016ea:	9b71                	andi	a4,a4,-4
200016ec:	d7d8                	sw	a4,44(a5)
200016ee:	00003797          	auipc	a5,0x3
200016f2:	90078ba3          	sb	zero,-1769(a5) # 20004005 <gBleIPPara+0x5>
200016f6:	00003797          	auipc	a5,0x3
200016fa:	900785a3          	sb	zero,-1781(a5) # 20004001 <gBleIPPara+0x1>
200016fe:	401c                	lw	a5,0(s0)
20001700:	4709                	li	a4,2
20001702:	c398                	sw	a4,0(a5)
20001704:	e000f7b7          	lui	a5,0xe000f
20001708:	d107a703          	lw	a4,-752(a5) # e000ed10 <_eusrstack+0xc0006d10>
2000170c:	9b6d                	andi	a4,a4,-5
2000170e:	d0e7a823          	sw	a4,-752(a5)
20001712:	d107a703          	lw	a4,-752(a5)
20001716:	9b5d                	andi	a4,a4,-9
20001718:	d0e7a823          	sw	a4,-752(a5)
2000171c:	10500073          	wfi
20001720:	4014                	lw	a3,0(s0)
20001722:	00003717          	auipc	a4,0x3
20001726:	8de70713          	addi	a4,a4,-1826 # 20004000 <gBleIPPara>
2000172a:	00274783          	lbu	a5,2(a4)
2000172e:	8b85                	andi	a5,a5,1
20001730:	eb89                	bnez	a5,20001742 <ll_tx_wait_finish+0x9a>
20001732:	00374783          	lbu	a5,3(a4)
20001736:	8b85                	andi	a5,a5,1
20001738:	c7d9                	beqz	a5,200017c6 <ll_tx_wait_finish+0x11e>
2000173a:	00003797          	auipc	a5,0x3
2000173e:	8c078523          	sb	zero,-1846(a5) # 20004004 <gBleIPPara+0x4>
20001742:	40b2                	lw	ra,12(sp)
20001744:	4422                	lw	s0,8(sp)
20001746:	0141                	addi	sp,sp,16
20001748:	8082                	ret
2000174a:	478d                	li	a5,3
2000174c:	02f51063          	bne	a0,a5,2000176c <ll_tx_wait_finish+0xc4>
