:040000006F10D07A33
:1000040000000000000000009000002076020020A4
:10001400A9BDF9F5940000200000000000000000D4
:10002400960000209800002000000000000000005E
:100034009A000020000000009C0000200000000046
:100044009E000020A0000020A2000020A4000020A8
:10005400A6000020A8000020AA000020AC00002078
:10006400AE000020B0000020B2000020B400002048
:10007400F2020020B8000020BA000020BC000020DA
:10008400BE000020C0000020C2000020C4000020E8
:1000940001A001A001A001A001A001A001A001A054
:1000A40001A001A001A001A001A001A001A001A044
:1000B40001A001A001A001A001A001A001A001A034
:1000C40001A001A001A0B71700409306700523808A
:1000D400D704130780FA2380E7040100010003C654
:1000E400B7041376F60DA385C7042380070413769B
:1000F40005024DC203C6A700118A1DE22380D7045E
:100104002380E7040100010003C7A7001367470029
:100114002385E7009307004B01000100FD17EDFF65
:10012400B7170040930670052380D704130780FA9D
:100134002380E704010001007D892394A7000100C6
:10014400010001000100238007042380D7042380D9
:10015400E704010001000100010037270040930675
:100164001005A303D78023800704B71700401307A3
:1001740070052380E704130780FA2380E704010055
:10018400010003C7B70413670708A385E7042380A6
:10019400070482801376050441C603C6A700418A7A
:1001A4001DE22380D7042380E7040100010003C774
:1001B400A700136707012385E7009307007D01006B
:1001C4000100FD17EDFFB71700409306700523806B
:1001D400D704130780FA2380E70401000100137693
:1001E400F501136606042394C70001000100010011
:1001F4000100238007042380D704130660042380AE
:10020400E7046318C5000100010037270040894650
:1002140089BF01000100372700409306200591B7EC
:100224002380D7042380E7040100010003D787005B
:100234001367070C2394E7000DBF41118146014663
:100244008145114506C65922B717004013077005AA
:100254002380E704130780FA2380E70401000100E8
:1002640003C76704136717002383E7042380070485
:10027400B240410182808146014681451145B9223F
:10028400B7170040930670052380D704130780FA3C
:100294002380E704010001007D562396C7022380D2
:1002A400D7042380E7040100010003C76704136730
:1002B40017002383E7042380070401A0BD47330507
:1002C400F50201007D1575FD8280411122C426C20C
:1002D40006C6AA84014463179400B240224492449F
:1002E4004101828005041305803E4204C13F4180E0
:1002F400DDB7B7170040130700032388E7028547DB
:1003040023ACF18E73002030411106C6852DFDBF4C
:100314002303048015472303E48001002302A480FF
:10032400828083076480E3CE07FE230304808280F7
:1003340083076480E3CE07FE0345448082808307FD
:100344006480E3CE07FE2302A4808280411126C488
:100354004AC24EC006C61377F50BAD47AA892E894B
:1003640095446306F70019456537653F8D444E850E
:100374004537FD59FD1463983401B240A244124933
:10038400824941018280135509011375F50F453FD8
:100394002209CDB7011126CC06CEB7040800513787
:1003A4001545BD37713769372AC6A53F324593775E
:1003B400150089EB136515001375F50FF240E2443F
:1003C40005618280FD14E9FC0145CDBF397126DC4D
:1003D4004ADA4ED852D656D45AD25ED006DE62CE0F
:1003E40066CCB7E700E07D5783AA070022C603AABC
:1003F400470023A0E71823A2E718B7170040130704
:1004040070052380E704130780FA2380E70483C779
:100414004704930B75FFB684E20793FBFB0F8546F5
:10042400AA892E8B328937240040E187015763FA69
:1004340076016308D5008946130700026313D500CB
:100444000157D98F93F7F70FB71C00402382FC04A0
:1004540011472303E4801305F00F5D3D094CD135AA
:10046400636D7C11B7050700DA9537870700795566
:1004740063F2E504B3879500636EF702370B080057
:10048400A94733EB65016399F90689E48144513D39
:1004940026850DA0DA850945553D05090345F9FF73
:1004A400FD14050B693D81C49377FB0FFDF7DD3522
:1004B40069FD7D55B7170040130770052380E704D5
:1004C400130780FA2380E70403C74704418B238280
:1004D400E704F250B7E700E023A0571123A2471125
:1004E400E25432445259C259325AA25A125B825BC4
:1004F400724CE24C21618280A5476395F9068569B7
:100504001309F00FB3069900B3742B01B694134981
:10051400F9FFB3749900856B33796901416B938753
:10052400F9FFB3F7270199E363FC340193D9490038
:10053400C147E3E637FF99BF0569C1697D19D9B79A
:100544001305800D63886901130500026384790132
:1005540013051008CA85DD3B353D21DD4E99B38472
:100564003441D9B7DA852D45D533CA94E30099F2DD
:1005740005097D3BA30FA9FED5BF9387F9FF93F728
:10058400F70F6361FC0C83C71C0413073008631F57
:10059400F70437070800636BEB04B3079B00B70647
:1005A400100063F5D704334BEB0089476393F906D6
:1005B4008980D549E38C04ECDA850945413B11096E
:1005C4000327C9FF91472320E48003076480E34E97
:1005D40007FE23033481FD17EDFBFD14110B81C4C9
:1005E4009377FB0FE9FF7D3371F5E1B5B717004051
:1005F40003C75704B70708001377070219E3B7873F
:1006040007007955E378FBEA33079B00E3FFE7F83B
:1006140055B58547E382F9F2DA852D45053B938983
:10062400F4FFE38504E6293393F7390091EB83263D
:1006340004800327090093074900E39AE6E43E890E
:10064400CE84F1BFB5476396F9001305900BC93109
:1006540035BDB1471305B00AE38BF9FE99476391A1
:10066400F904B7050800B365BB002D45C5318144C5
:100674008D4BA14975396396740183270480232027
:10068400F9008504E39834FF8327048013172B01B2
:10069400635507002312F900D5BB2322F900FDB3EB
:1006A4009D476399F90281451305B0044531BD4462
:1006B4002320090023220900FD599D3993F7740072
:1006C400CA9703C70700FD14398D2380A700E3965A
:1006D40034FF6DBBA1476392F9046D398144630D06
:1006E4000B008D479304C0036308FB0093040005CB
:1006F40063048B01930440041375C507E30895D87C
:100704001945393139390545213126850D390945D0
:100714003D314931E31C05D669BB91476399F90022
:1007240013056006F536F53E130590090DB7E38F02
:1007340009D4F154A9BB19CD91CD09CE8147338792
:10074400F500834607003307F50085072300D7002B
:10075400E317F6FE828019C991C909CA910583A7D6
:10076400C5FF11057D16232EF5FEC5BF828001C984
:1007740019C62A960505A30FB5FEE31DA6FE8280C1
:1007840081473307F5000307070019E33E8582809C
:100794008507C5BF01112E8626CAAA841315060132
:1007A4009305F004418122CC06CE32C6EF10805668
:1007B4002A8401C53246A685BD3F2285F2406244A3
:1007C400D24405618280854715C18DC105C2814728
:1007D400B306F5003387F50083C606000347070018
:1007E4006398E6008507E315F6FE85473E8582801B
:1007F4008147EDBF9307F6FFBE952A966313C500A4
:100804008280FD1583C715000505A30FF5FEFDB70E
:10081400AA87014581CF09CE3E96850703C7F7FF16
:100824006317B700E39BC7FE0545828082800145BC
:1008340082807971973700009387476C22D4804374
:1008440006D626D24AD04ECE52CC56CA5AC85EC616
:1008540062C45DCC37C9C901814B173A0000130A41
:100864006A6E973400009384A4691309F937973AA0
:100874000000938A6A63B709C0A8370B40578357AF
:10088400240095E35C44639D0B0017370000232785
:10089400F766032CC4002285EF10E054628499A803
:1008A40023A6FB00FDB783270A0082978386640191
:1008B4001C4463DB06063307F5406367E908973792
:1008C400000023AB075E83552400034504009730E2
:1008D40000E0E780801F5C405844A9CF1444B697D9
:1008E4008386640163C5060063E33701DA971CC499
:1008F400A28B3A8449F4973700009387E75A9C4BBC
:1009040009476378F706F917173700002326F75AC3
:10091400B250225492540259F249624AD24A424B8A
:10092400B24B224C45618280E377F5F83387F94076
:100934002A9761B763970B009737000023A0E75C01
:1009440089BF23A6EB00B1B7D85009CF63DF0600F7
:100954003385A74083A70A016376F5009737000023
:1009640023ACA754A28B404471B7E3F3A7FECE9700
:10097400C5B79737000023A1075459BF411122C4BA
:1009840017340000130444551C4006C626C24AC04E
:1009940091C782979737000023A007545C4091C306
:1009A40082971C406391071C9737000083C7176F19
:1009B400858B9DC797370000A382076E1737000009
:1009C4000347F76D914763FDE700EF00B0359737B4
:1009D400000083C7D76CF9178A07A2979C438297B4
:1009E400173900001309496F8347C900918B99C3D4
:1009F400EF10A0251C4491C3829797340000938480
:100A0400A44F9840173600000346164A9737000053
:100A140083C7874993961700BA9683D60600D5CA2A
:100A24009737000083C7474863EFC70A973700002A
:100A3400238C07461C40639807129737000083C72E
:100A4400376691CF9737000083C7776589EB97376F
:100A54000000A3870764978001E0E78060859737EB
:100A640000009387274E9C43638F070EB707C0A8E7
:100A7400173700002322F7446D3B97370000938714
:100A84002748DC53EDC3173700001307E741184B21
:100A94009737000083C717486367F70C17370000C0
:100AA4000347F75F914763E0E70C8347C900918BE5
:100AB400DDEB90409736000083C6163F63CBD70A20
:100AC4002244B240924402494101173300E06700D6
:100AD400E3DC850793F7F70F973600002386F63C8F
:100AE400E3E6C7F235BF86073E9783550700231018
:100AF400070097370000239F073E9737000093872E
:100B0400673D9C43173500000345053A131725003C
:100B1400BA979C4382979737000083D7A73D17372E
:100B240000000347673893C7F7FF7D8D93171700BD
:100B340098403E97835707005D8D2310A700973791
:100B4400000083C7673691C7850717370000230D58
:100B5400F73417370000034727359737000083C75A
:100B6400B734E375F7ECB2402244924402494101A0
:100B74008280139717003297035707006DF7850794
:100B840035BFAD6737C70040BD072326F7200F10D8
:100B940000009737000093872731C84F83278726A3
:100BA400BD66BD0693C7F7FF99836A052326D72040
:100BB4005D8D82804111B7170040985F3AC6945FFB
:100BC4003247E39CE6FE324541018280828003275E
:100BD400851163000712411122C406C68347C5006C
:100BE4008345C5042A8493F7C70F2306F50083467B
:100BF40097000356C70013958601618563F1C50804
:100C0400635A05060345870093F6F607A304D70045
:100C1400054693E627006314C50093E617002306F0
:100C2400D4005C4389075CC3A30AB4000325041100
:100C34002E864C430905013683278411034654014B
:100C4400D44303D7C700B296118FD4C32396E700C9
:100C54008947A30DF400034744039737000083C773
:100C6400472B6378F7048347C40093E707012306FF
:100C7400F40081A093E717002306F40075B7937678
:100C8400F60F635D050203458700854513E62700DB
:100C94006314B50013E617002306C400A30AD400A6
:100CA400A30407008547A30DF400832784119C4304
:100CB400DDF3B240224401454101828093E71700ED
:100CC4002306F400A30AD400A30407000325041197
:100CD4004C4309058D348327841103465401D443BE
:100CE40003D7C700B296118FD4C32396E7008D476C
:100CF4005DBF05458280973700009387A7389C43E2
:100D0400411122C406C6858B2A84C5EF41651305AB
:100D140025F5972001E0E780E09B45C58347A500C2
:100D24002315F50083270412BDE72320A4122322F0
:100D3400A41285472310F40423200500834764018B
:100D440054412316F5000347D4002304E500054766
:100D5400A304E5001737000013070734184F138561
:100D6400170215811C437D151375F50F9CC25C4356
:100D7400DCC21C479CC65C47DCC61C4B9CCA5C4B53
:100D8400DCCA1C4F9CCE5C4FDCCE19CD9386060288
:100D940013070702C1BF8327441288C3835704047F
:100DA4002322A412850779B79737000083D7073C1D
:100DB400850717370000231BF73AB240224441014C
:100DC40082808347C40023090400054593C7470074
:100DD4002306F400DDB78347850193F7E70FCDEBD6
:100DE40083479501D5E7034625018346C50009CA13
:100DF40083454503173700000347B71163E7E50050
:100E040013F7060159C7014709C6C18A0357851B51
:100E140081C68356C51B36972DCFB7470F0097362B
:100E2400000083D6E60A93870724B3C7D7021307C3
:100E3400C712411126C222C406C67D543357F70295
:100E44009737000083C7570DB384E7009737000036
:100E54009387473183A6C70883A7060963F38700EE
:100E64003E849442F5FA973700009387A70D9C437C
:100E7400829781476364A400B307A440B24022442C
:100E8400B3B7970093C7170092443E85410182800F
:100E940081473E858280797126D206D622D44AD0F3
:100EA4004ECE52CC56CA5AC85EC683473503034455
:100EB4007513AA843E941374F40F9307400263F6E7
:100EC40087001304B4FD1374F40F03AA841383AAD4
:100ED400C413A38B841222865285D685971002E010
:100EE400E7808043058915E503CBD4120149814984
:100EF400337B6403930B50024A865285D685971040
:100F040002E0E7806041058915C5639169031374A4
:100F1400F90F238B8412B250225492540259F2498D
:100F2400624AD24A424BB24B456182808509E2094A
:100F340093D989410509E31179FDE1BF8327850927
:100F44000356E503797193D60701BD8EC206C182AB
:100F5400358E1357764093575640898B058B5D8F9A
:100F640093573640918B5D8F93571640A18B5D8FBD
:100F740093171600C18B5D8F9317360093F7070202
:100F84005D8F931756009355860093F707041E064A
:100F94005D8F1376F60F518F93D7554013D6354096
:100FA400118A898BD18F13D67540D18F13D61540F2
:100FB400218AD18F13961500418AD18F139635005B
:100FC40013760602D18F13965500137606049E05F8
:100FD400D18F93F5F50FCD8FA20745465D8F33076B
:100FE400C70222D42A8426D252CC56CA032A841396
:100FF400832AC4135AC806D63697420741839357A7
:101004007740135557400989858BC98F135537404D
:101014001189C98F135517402189C98F13151700DA
:101024004189C98F1315370013750502C98F13152C
:10103400570093558700137505041E07C98F13774E
:10104400F70FD98F13D5354013D755401189098B24
:10105400498F13D57540498F13D515402189498F80
:10106400139515004189498F1395350013750502B1
:10107400498F13955500137505049E05498F93F503
:10108400F50F4D8F2207D98FB387C7024AD04ECEB2
:101094005EC662C4B697C207C18313D7774013D51F
:1010A40057400989058B498F13D537401189498FDA
:1010B40013D517402189498F139517004189498F0A
:1010C4001395370013750502498F1395570093D56F
:1010D4008700137505049E07498F93F7F70FD98F7F
:1010E40013D5354013D755401189098B498F13D532
:1010F4007540498F13D515402189498F13951500E3
:101104004189498F1395350013750502498F13954D
:101114005500137505049E05498F93F5F50F4D8F02
:101124002207D98FB387C702130650025285D6858A
:10113400B697BD8E93940601C18033F6C402137B27
:10114400F60F971002E0E780201D05890DED834717
:10115400D41201498149B3849702130C5002C1800F
:101164004A865285D685971002E0E780E01A058901
:10117400937BF90F11C563863403850993F9F90F3D
:101184000509E31F89FD230B6413B25022549254C2
:101194000259F249624AD24A424BB24B224C45614F
:1011A40082805E8BCDB7011197370000938787FB50
:1011B40022CC03A4070B26CA06CE2AC42EC6854415
:1011C40019E40145F2406244D244056182808347B8
:1011D400910003471400858B6304F7000044CDB7E6
:1011E40019469305A10013052400EFF0CFDDE317A2
:1011F40095FE0545C1BF011122CC1734000013042C
:1012040064EB18402AC62EC432C206CE3C4B93F778
:10121400F7F73CCB977001E0E7804006184097361B
:1012240000009386A6E63C4B93E707083CCB9C4220
:101234003245A24523A007000347150003482500B3
:1012440022074208429703480500429703483500A5
:101254006208429798D70347550003486500220760
:1012640042084297034845004297034875006208C4
:101274004297D8D7034795000348A50022074208A0
:1012840042970348850042970348B5006208429795
:1012940098DB0347D5000348E5002207420842973C
:1012A4000348C5000345F500429762052A97D8DB39
:1012B40003C7150003C52500220742052A9703C565
:1012C40005002A9703C5350062052A9798CF03C7FE
:1012D400550003C56500220742052A9703C545004A
:1012E4002A9703C5750062052A97D8CF03C79500CE
:1012F40003C5A500220742052A9703C585002A973E
:1013040003C5B50062052A9798D303C7D50003C562
:10131400E500220742052A9703C5C50083C5F500E9
:101324002A97E2052E97D8D3D843759BD8C3D843C0
:1013340013671700D8C398431367170098C312465E
:1013440098425C43858BD1E71C4F01452300F6008E
:101354009C429C4FA183A300F6009C429C4FC183F6
:101364002301F6009C429C4FE183A301F6009C42BA
:10137400D84F2302E600D84F2183A302E600D84FBA
:1013840041832303E600D84F6183A303E600985307
:101394002304E60098532183A304E6009853418371
:1013A4002305E60098536183A305E600D85323067A
:1013B400E600D8532183A306E600D85341832307CC
:1013C400E600DC53E183A307F600F24062440561C2
:1013D40082800100B5B75D713AD217370000130758
:1013E40027CB36D414433ED022DE9C5E4ACA86C63E
:1013F400998396C49AC29EC026DC2ADA2ED832D6A5
:1014040042CE46CC72C876C67AC47EC2858B3A84F4
:1014140017390000130989C7D1CB9C5E97340000AB
:10142400938484C793F7F7F99CDE173700000347CA
:1014340007C793070008631BF700832709009C4331
:1014440093F7070417370000230BF7C483C704007E
:1014540093F707049DC3973700009387A7AE9C4377
:1014640082979737000023A1A7C483C7040093F78A
:10147400F70B173700002301F7C283C7440093F723
:1014840007048DE7854717370000A309F7C097378E
:101494000000938727C29C43096798C7130700FC81
:1014A40097360000238CE6BED844F8D31C40985FDE
:1014B4001183058B09CB985F3D9B98DF05479736D1
:1014C4000000238DE6BC985F1D83058B11CB985FCC
:1014D4001377F7F798DF8547173700002300F7BC29
:1014E40083270900D8430583058B19C7D843759B07
:1014F400D8C3D843799BD8C37254B640A642164386
:101504008643E2545255C2553256A2561257825758
:101514007248E2485249424EB24E224F924F6161A4
:1015240073002030973700009387C7B894439737E8
:101534000000938767B603C70700058B11CB973765
:101544000000238D07B497370000A38907B4828075
:1015540003C71700058B65F7F85271FF83C757005F
:10156400DDB7173800001308A8B2032708001C5F72
:101574009583858BD1E709C61C5BBD832300F600E8
:1015840085CA83270800985B46079357670163560B
:10159400070093E707C0C207C18303970600C20789
:1015A400C18709C7BA970947B3C7E7022390F60072
:1015B40085CD834715008DCB9736000083C626AEB4
:1015C40093F606041387970089478DCA3A95034713
:1015D4000500854699471376F7066311D60262071C
:1015E4006187B947634C0700832708009C5FED833C
:1015F4008D8B17370000A306F7AA81473E858280AA
:101604008547EDBF411122C406C6173400001304F8
:1016140064AA184049E9AE877453FDFE3E85B2853D
:1016240097370000238B07A6977001E0E780E0A1BD
:10163400973700009387C7A59C43B706800098435B
:10164400558F98C3D857719BD8D797370000A38775
:1016540007A497370000A38107A41C40094798C337
:10166400B7F700E003A707D16D9B23A8E7D003A732
:1016740007D15D9B23A8E7D073005010144017379F
:101684000000130767A183472700858B89EB8347F5
:101694003700858BD9C797370000238107A0B24054
:1016A4002244410182808D476310F5029737000080
:1016B4009387079E9C43B70680009843558F98C331
:1016C400D857719BD8D75DBF8547E319F5FAB5673D
:1016D400BD075CC70F1000001C400967094698C786
:1016E400130700F897360000238AE69A173700009C
:1016F4001307079A1443984231830D8B6319C7006B
:101704001307E043F8D33D673D07D8C785BF984228
:1017140031830D8B01E713076019EDB71307E01B45
:10172400D5B7FC52ADF3A5BF5D7152DC173A00008A
:10173400130A0A9603270A0086C6A2C4A6C2CAC010
:101744004EDE1C43973900009389899B17390000AA
:101754001309499693F7F7E793E707081CC383A691
:1017640009003707CEFF7D179C46130680022A84A2
:10177400F98F9CC683270900130700082800B8CBFB
:10178400AE8493051008EFE09FFE977001E0E780B8
:10179400E0AE977001E0E780E0BB83270A00937610
:1017A400F41F370FFCFF23A40700984B4E88CA8808
:1017B4001367F70398CBF84F130510F8D285137706
:1017C40007E0558FF8CF9843F576FD16758F98C3CB
:1017D4009843B7063300B70204001377F7E798C3BA
:1017E40098439303401F7D1F1377F7E71367071090
:1017F40098C303A70900930F800285491C47D58F1E
:101804001CC7832709001307900D3400B8CB114976
:101814000147135337002693834703001376770059
:10182400B3D7C740858BDDCF9C41832E0800239C12
:1018340007042390070603AECE02137EDEFF23A621
:10184400CE0383AE0700137EF70793FE0EF833EE44
:10185400CE0123A0C70103AE4702336E5E0023A26C
:10186400C70383AE0800014E23A27E0603DA0706EF
:1018740063074E0303AE0703038A0600135EFE00EC
:10188400620E135E8E416358CA0103AE0703135EF2
:10189400FE002380C60103DE0706137EFE0F03AAA3
:1018A4004E0663060A0003DA8705E37F49FB03AEAD
:1018B4004702337EEE0123A2C70383870600635CDD
:1018C400F400034E03003396C9001346F6FF337643
:1018D400C6012300C3003E8663D3A7002A861315DE
:1018E4008601618505071377F70F8506E313F7F380
:1018F400B640264496440649F259625A6161828090
:10190400011136C8972600009386C67A3EC49C42CD
:101914003AC632CAD8472ACE2ECC131617016355BD
:101924000602984713161701635006027D57B8D76D
:101934001727000013074757584F050717260000BD
:101944002322E658116798C798470D83058B1DC35A
:101954001727000003476774136717001726000052
:10196400230DE672130700F8172600002308E67219
:10197400214798C79847058B09CF172700000347CD
:10198400B7711367170017260000A307E670054711
:1019940098C798470983058B09E798470583058B02
:1019A40039CF9847172600001306066F1725000045
:1019B4001305056E0983058B630C07101841184342
:1019C40031830D8B63130710AC4B184E93F505024E
:1019D40003471700E9C57DE713077006D8CF03470F
:1019E400060013671700172600002307E66A11474D
:1019F40098C718415C57F19B93E717005CD79C424A
:101A040098479316370163D606029726000083C6CB
:101A1400667CC18A172700001307C774E1C6034711
:101A2400070713670702972600002385E67A0567F0
:101A340098C798479316270163D106021727000019
:101A44000347C76562076187635707000547972601
:101A540000002385E664096798C798479316070131
:101A640063D606029726000083C6D676858A172792
:101A740000001307276FC9C603471707136727001A
:101A840097260000A388E674216798C77245E2454B
:101A94005246C2463247A2470561730020300DDF2B
:101AA40085456315B7001307B0060DBF8945631557
:101AB400B7001307F0061DB78D456315B70013076C
:101AC400300729BF1307500711BF1307600739B741
:101AD400034736001367170017260000A30FE65AC2
:101AE400094739B7834607070946BD8A6388C60094
:101AF400034707078D463D8BE31BD7F2114725B7F4
:101B040083461707918AC9D20347170713678700CB
:101B140085BF172700001307275A8346B701972765
:101B2400000083C7375CB69793F7F70FFD4663EA67
:101B3400F6044C4B97260000A380F6589727000024
:101B440083C7975705473317F70097260000A38BE1
:101B5400F6586D8F1DEF9726000083C6F658B3F62E
:101B6400D70213050002814733D6F500058A13F81E
:101B7400F70F09CE6399E60097270000A38E075359
:101B8400828081177DB705071377F70F8507E39DDB
:101B9400A7FC8280972700009387C73A9C430111D2
:101BA40022CC4EC606CE26CA4AC852C456C2829712
:101BB4009727000093874752804781496305A4060D
:101BC400BE84972700009387A733038767013E8964
:101BD40063550706018D135455009727000083C7EA
:101BE400474F9379F501636DF402370AC0A8B70A29
:101BF400405705379C449726000083C6864D1397AB
:101C040056003E9783076901158C63C5070063631B
:101C1400470156979727000023A4E74CE37BD4FCA5
:101C24001604B3693401F24062444E85D2444249F9
:101C3400B249224A924A05618280E37D85F8B7075A
:101C4400C0A833848740229579B7972700009387EB
:101C5400672F9C43411122C406C626C28297972748
:101C640000009387674780476309A406BE849727CB
:101C740000009387E7288387670163D80704018DF1
:101C8400135455009727000083C7A7446367F404DF
:101C9400493598449727000083C7A7439396570074
:101CA40036971D8C9726000023ACE642E372F4FEBF
:101CB4002244B2409244172500000345F53F814574
:101CC4004101177301E06700A3ADE37A85FAB70712
:101CD400C0A833848740229565B7B2402244924419
:101CE4004101828097270000938787419843B75723
:101CF40002009387079F83260709139656006358AB
:101D04000600832607091396660063440600FD1740
:101D1400FDF3828071C5AA870145E9C58D07C20715
:101D2400C183F19BC207C18313074003636FF702AA
:101D340017270000130787420843172700001307DB
:101D4400674114436398A602172700001307471B33
:101D5400185B014541CB4111C20706C60545DD8D1F
:101D64000297B24001454101828017270000130702
:101D7400A73ED9B70357650035E303574500636FA2
:101D8400F704B306F7402146637CD6020328050016
:101D9400938687001D8FAA966117172600000356A5
:101DA40006112392E60023A006012393060014C122
:101DB4002312F500130786FF972600002399E60EE9
:101DC4002313B5009725000083D5650EB387F5402E
:101DD40017270000231DF70C2105828008419DB7B9
:101DE4000145828082800DC19727000093870737C1
:101DF40003A30700972700009387C73583A807002C
:101E040081469A8763E31701828003A80700636D04
:101E1400F50A636BA80A13878700E367E5FE03D618
:101E24006700216705076317E60003C7C199050723
:101E3400238EE198972500009385050703D6470074
:101E440003D7650023930700329742074183172580
:101E54000000231EE504638A6702172500001305AA
:101E6400A52F08416303F50203D5660019ED83D756
:101E7400460023A0060121073E9621062392C600B0
:101E8400972700002395E702B6879843E30E17F7D8
:101E9400972600009386462C9442E307D7F6835690
:101EA4006700BDF283D64700035647001843A106D6
:101EB400B2962392D70098C383D76500A10717274A
:101EC40000002316F7FE8280BE86C28725BF01115B
:101ED400972700009387072922CC03A4870B26CADF
:101EE4004AC84EC606CEAA8413092500854915C0E2
:101EF40083C7140003473400858B6304F700405CF8
:101F0400FDB71946930544004A85EFE0DF8BE318DB
:101F140035FF2285F2406244D2444249B249056108
:101F240082804111972700009387C72322C403A40A
:101F3400870B26C24AC006C693042500054901E85A
:101F44002285B24022449244024941018280A685FE
:101F54001305A402970002E0E78040F1E30225FFA5
:101F6400405CF1BF4111972700009387A71F22C44B
:101F740003A4870B26C24AC006C69304250005495C
:101F840001E82285B2402244924402494101828000
:101F9400A6851305A401970002E0E78020EDE30283
:081FA40025FF405CF1BF0000C5
:101FAC00971100209381C1C5176100201301C10452
:101FBC001305400097E5FF1F9385050417060020C5
:101FCC00130606FE63FAC5008322050023A0550004
:101FDC0011059105E3EAC5FE172502001305C54856
:101FEC00970500209385C5FB1386418C63FAC500C9
:101FFC008322050023A0550011059105E3EAC5FED7
:10200C001385818C97250020938505276377B50070
:10201C00232005001105E36DB5FEFD42739002BC53
:10202C008D42739042809302800873A0023097E235
:10203C00FF1F938262FC93E232007390523097122E
:10204C0000009382625173901234730020303D4330
:10205C002A876373C3029377F700BDEFADE59376E0
:10206C0006FF3D8ABA960CC34CC30CC74CC741073C
:10207C00E36BD7FE11E28280B306C3408A06970257
:10208C00000096966780A6002307B700A306B7004A
:10209C002306B700A305B7002305B700A304B700B8
:1020AC002304B700A303B7002303B700A302B700B0
:1020BC002302B700A301B7002301B700A300B700A8
:1020CC002300B700828093F5F50F93968500D58D8C
:1020DC0093960501D58D61B7939627009702000062
:1020EC0096968682E78086FA9680C1171D8F3E965B
:1020FC00E374C3F8A5B7B717004003C77705137788
:10210C00E70FA38BE704130700F8A38DE7043D4703
:10211C00238CE70413075003A38CE704828041113E
:10212C0022C406C62A845123371700409306700533
:10213C002300D704930780FA2300F7040100010061
:10214C000346F70213668600A307C7020346F7028D
:10215C001376760FA307C7022300D7042300F704D6
:10216C00010001000346E7021376C60F2307C702DE
:10217C000346E702136616002307C7022300D704A1
:10218C002300F70401000100034637051376860F80
:10219C00A309C7040346370513661600A309C70431
:1021AC002300D7042300F7040100010083473705FF
:1021BC009166130680FA93E70702A309F704835785
:1021CC000705D58F2318F70493067005B717004041
:1021DC0003C737051377070261C7130880C193053E
:1021EC00803E334805039307500291682167138E94
:1021FC0008E8130707D01143B71600409162FD1889
:10220C00894E930F7005130F80FAB345B50233084E
:10221C00F802B387F502334EC5033348E802B3C75F
:10222C00E70203C73605218B6DDF03D7060503C70D
:10223C003605218B6DFF03D70605336757002398AE
:10224C00E60403C73605218B6DDF03D6060503C7ED
:10225C00260533F6C8003387E8023A963306C641A2
:10226C006354C800634DF6047D131373F30F6308B6
:10227C000304131716003347F7026350C004050715
:10228C002380F6052380E6053347D70301000100C0
:10229C0003D6C6023297420741832396E60251B712
:1022AC002380D7042380C7040100010003C737052E
:1022BC0013670702A389E70421BF7D17D1B7B717AE
:1022CC00004083C6370513873705A18AFDDA83D60C
:1022DC00070583D607051166D18E2398D70493067C
:1022EC0070052380D704930680FA2380D70401005D
:1022FC0001008347070093F7870F2300F7008347FC
:10230C000700C18F93F7F70F2300F7003717004032
:10231C0083473705A18BEDFFB717004003C737057F
:10232C00218B6DDF37460F00130606243345C5029B
:10233C0083D6070583C7270511677D17F98E21669C
:10234C00130606D03307F7028567BA96138707FA88
:10235C00331787003307A7021305803E938707C8FE
:10236C00B3D787403347C7023307A7023387E6400A
:10237C0093066055B385D502B3C5C502B387E70292
:10238C00B3C7B7026354E004850709479306700589
:10239C00B3C7E702371700402300D704930680FA2F
:1023AC002300D7049607010001008356C702B69795
:1023BC00C207C1832316F7028347370593F7F70D3E
:1023CC00A309F704B240224441018280FD1775BF76
:1023DC0041112A83014E930E407E130F0019930F67
:1023EC00400663E46E0E9308001913034006B3789D
:1023FC001503854E0D4FA14F337365020D891335AF
:10240C00150063EEBE0E1308F6FF7946729842086B
:10241C00135808013307C70213D61700BE073297AB
:10242C006146B3F6C60213068070B386C6023697B1
:10243C00A166F58F42075D8FB716004083C7F60281
:10244C0093F70708A307F1000346F10083C7F602D0
:10245C0093F70708E394C7FE8347F100B7160040D3
:10246C0093F7F70FFDC7B71700409306700523804D
:10247C00D704930680FA2380D7040100010023AA15
:10248C00070383C6170311667D1693E60608A38817
:10249C00D702D45BC85F93854703A98EF18EF5FAFA
:1024AC00930670052380D704930680FA2380D70403
:1024BC000100010098C103C7170313670704A38821
:1024CC00E70223800704410182807D133368E30314
:1024DC009308E016630E08003368F3039308D016D4
:1024EC00630808009378330093B818009388D816C3
:1024FC0033081E01131E0801135E0E01DDB5639334
:10250C00E5030548638608000148630303002A8835
:10251C0071087298FD15131E0801C205135E0E0199
:10252C00C181C5B513F8150063F4BF007908D5B7A0
:10253C0013381800E5BF83C7F60293F70708A30703
:10254C00F1000346F10083C7F60293F70708E39402
:10255C00C7FE8347F10093F7F70FF1DF29B79147D7
:10256C0063EEB702171702001307C74F8A05BA9517
:10257C009C41BA978287B717004003A7470B1345B6
:10258C00F5FF698F23AAE70A03A7070B698F23A816
:10259C00E70A03A7070A798D23A0A70A8280B71739
:1025AC00004083A6470B1347F5FFF98E23AAD70AE1
:1025BC0083A6070B558D23A8A70A83A6070A758F38
:1025CC0023A0E70A8280B717004003A7470B498F67
:1025DC0023AAE70A03A7070B1345F5FF45BFB71757
:1025EC00004083A6470B1347F5FF758F23AAE70A14
:1025FC0003A7070A598D4DB7B717004003A7470B20
:10260C00498FEDB7914763EEB70217170200130716
:10261C00A7468A05BA959C41BA978287B71700409E
:10262C0003A7470D1345F5FF698F23AAE70C03A7F2
:10263C00070D698F23A8E70C03A7070C798D23A03E
:10264C00A70C8280B717004083A6470D1347F5FFF0
:10265C00F98E23AAD70C83A6070D558D23A8A70C9A
:10266C0083A6070C758F23A0E70C8280B717004058
:10267C0003A7470D498F23AAE70C03A7070D1345A2
:10268C00F5FF45BFB717004083A6470D1347F5FF6D
:10269C00758F23AAE70C03A7070C598D4DB7B717F5
:1026AC00004003A7470D498FEDB7B717004003D57E
:1026BC008700420541819377050491EB9377F501EF
:1026CC003755E801130505803345F5028280937771
:1026DC00050C130700046397E7009377F501374562
:1026EC009C1CCDB72165130505D08280B7F700E09F
:1026FC008847CC478280814737370040A14663C466
:10270C00C700328582800345B740E38EA6FE338531
:10271C00F5000345050085072304A740CDB74111FB
:10272C0022C406C62A8451372947B307E502B240B2
:10273C008D83B3D7870222449507B3D7E702373787
:10274C000040C207C1832316F740410182807165A6
:10275C0041111305052006C6D937B73700401307BA
:10276C0070F82381E7400D47A381E740130700046D
:10277C00A380E74005472387E740B24041018280B0
:10278C00CC41411106C6328503C6150083C5050030
:10279C0022064D8E42068D654186138875A2630E06
:1027AC00060F6348C804138845A26308060B634AE6
:1027BC00C800938535A2630BB60623900600294604
:1027CC0049A8138855A2630A060B938565A2E316E4
:1027DC00B6FEC1451D4663EEE5064546198E63F30C
:1027EC00C7003E862390C600971502009385452EA0
:1027FC0099A8138895A26302060F6340060D1388EF
:10280C00A5A2630C060F938505A5E318B6FA9945A6
:10281C001D4663E0E504198E63F3C7003E862390E2
:10282C00C600970500209385A5BD31A89D451D4682
:10283C0063E1E5022146198E63F3C7003E862390BF
:10284C00C6009385818CBA9597E0FF1FE78020EE38
:10285C000146B240328541018280AD451D46E3EA16
:10286C00E5FE3146198E63F3C7003E862390C60001
:10287C00971502009385C523F9B7B1451D46E3EAC8
:10288C00E5FC3546198E63F3C7003E862390C600DF
:10289C00971502009385C5227DB7C1451D46E3EA15
:1028AC00E5FA4546198E63F3C7003E862390C600B1
:1028BC00971502009385052379B7C1451D46E3EAB8
:1028CC00E5F84546198E63F3C7003E862390C60093
:1028DC009715020093854522BDB7C1451D46E3EA15
:1028EC00E5F64546198E63F3C7003E862390C60075
:1028FC009715020093858521B9B7B5451D46E3EAC6
:10290C00E5F43946198E63F3C7003E862390C60062
:10291C00971502009385C5203DB797F6FF1F938648
:10292C0026684146CD4517F5FF1F130525686F80B6
:10293C0060282147636AA708AA87171702001307A4
:10294C00E7148A07BA979C43411106C6BA972E859D
:10295C00828721469385818C97E0FF1FE78020DDDD
:10296C00B24001454101828035469715020093859E
:10297C002514DDB739469715020093856514E9BF18
:10298C004946971502009385A514F9B74946971542
:10299C00020093852515C9B7494697150200938502
:1029AC00A5155DBF494697150200938525166DB791
:1029BC003946971502009385A51679BF1D469705D4
:1029CC0000209385E5A349BF0945828003C8850093
:1029DC00214513780801631808082D4549E703C5FC
:1029EC0005000947631DE5063285D041411106C635
:1029FC00034716000346060041682207518F130651
:102A0C0028FE6308C7026369E60005186303070321
:102A1C002390060029451DA8130648FE630BC70228
:102A2C001518E31707FF15473E866377F700154621
:102A3C0021A03E8691C30546CC452390C600420694
:102A4C00418297E0FF1FE78080CE0145B2404101F3
:102A5C0082800D473E86E371F7FE0D46F1BF239051
:102A6C00060005458280828083C7850093F70702A4
:102A7C00E1E3411106C622C426C24AC003C90500BF
:102A8C0009432E888547631B690203A345003284E2
:102A9C00B6848347130003430300A207B3E7670020
:102AAC004163130E13FE6382C7030D13638B67041C
:102ABC000D681308289063850707A947B240224484
:102ACC00924402493E8541018280AD4765FB054732
:102ADC00B547E365D7FE0325C8000546A28597E0F8
:102AEC00FF1FE780C0C401499387018F984381473A
:102AFC0071D7184361D72686A2854A8502978147EC
:102B0C0075BFAD4745FF0547B547E369D7FA0325C0
:102B1C00C8000546A28597E0FF1FE78040C1E9B7D2
:102B2C002244B24092440249894741016F600054EB
:102B3C00A1473E85828041677917630CE5024111FC
:102B4C0022C406C685472A84639AF500228522444E
:102B5C00B2409385818D41016F80A01089476396A7
:102B6C00F5008545EFA0C04475D1B2402244410127
:102B7C0082808280411122C42A8441659385818D93
:102B8C007D1506C6EF80E00D170500001305E5FA6C
:102B9C000588EFA0203905C02244B24097F6FF1FEC
:102BAC009386C6534146C54517F5FF1F1305C553FC
:102BBC0041016F802000B2402244014541018280D6
:102BCC0009C523A8A18E0145828045458280114705
:102BDC00636EA70697160200938686F50A0536954E
:102BEC001841411106C63697AE87B2850287054754
:102BFC006145639AE70005461385C18E97E0FF1F78
:102C0C00E780E0B20145B240410182800547614551
:102C1C00E39BE7FE05461385818ECDB705476145DD
:102C2C00E393E7FE05461385418EC9BF0D47614509
:102C3C00E39BE7FC0D461385018EC9B7154761452B
:102C4C00E393E7FC15461385018D4DBF0945828042
:102C5C001147636AA704AA8717170200130787EEA8
:102C6C008A07BA979C43411106C6BA972E8582876C
:102C7C0005469385C18E97E0FF1FE78040ABB240BD
:102C8C0001454101828005469385818EEDB705464D
:102C9C009385418ECDB70D469385018EE9BF1546C0
:102CAC009385018DC9BF09458280011122CC2E84E8
:102CBC009385818D26CA06CEAA8432C6EF60C035B4
:102CCC000989B24615C197F7FF1F9387274183D710
:102CDC00670CA285F2402310F40062442685D2448E
:102CEC00014605616F603054F2406244D24449455C
:102CFC000561828011456FF08FC2411193962500BA
:102D0C00AA852D4506C697D0FF1FE780A06BB24061
:102D1C00014541018280411126C29394250022C4B1
:102D2C004AC02A843289A686AA850146254506C64C
:102D3C0097D0FF1FE7800069A6864A86A2852945A1
:102D4C0097D0FF1FE7800068B240224492440249AA
:102D5C00014541018280011122CC06CE371400407E
:102D6C0026CA4AC84EC652C483447405034AB405E5
:102D7C008349840503499405EFF0EFB78347A40515
:102D8C0093F4F40F137AFA0F93E71700230DF4045E
:102D9C0093F9F90F1379F90FB717004003C7A7057B
:102DAC00058B6DFF03D5C705A38D4705238C370510
:102DBC00A38C2705A38B9704F2406244D24442496A
:102DCC00B249224A0561828041119397050122C4C0
:102DDC0006C6C1872E8463DD0700EF00B00519C15C
:102DEC00EF00207E2165218DB2402244410182807A
:102DFC0093F7150013C51500E5FB9397250163D0D8
:102E0C000702EF50817FFD3537F60200130606E00E
:102E1C00896503C5418FEF00505C0965E9B793974D
:102E2C0015010145E3D207FC17150200130545D522
:102E3C00EFF0912913060064916503C5418FEF00F3
:102E4C00D05911654DB75D714946971502009385B0
:102E5C0065D3171502001305651986C697E0FF1F89
:102E6C00E780E09501E9171502001305E5D2EFF0B4
:102E7C00B12501A0B7F600E0795798CAFD57DCCA16
:102E8C000567B7E700E023A0E7101306F00290C235
:102E9C0023A0E718010001001306C0038145480078
:102EAC0097E0FF1FE780208C97F7FF1F93878776AB
:102EBC003EC28967938707802314F100ED47231ADC
:102ECC00F1009547A309F1008547230BF100B547A5
:102EDC00230CF100A167938707E03EC6970700001B
:102EEC009387E7E13EDC97070000938707E33EDE1C
:102EFC008567938717E0231DF10097F7FFFF9387F2
:102F0C00277F3ED297070000938727E53ED6970789
:102F1C000000938767DE3ED858009387C18B938659
:102F2C00618B03C65700FD170507A30CC700E39A76
:102F3C00D7FE4800EF106016AA8501C917150200CC
:102F4C001305C5C6EFF0B10601A0B64061618280E1
:102F5C00411117050000130565E706C622C4EF10E2
:102F6C0000101384418F2300A4002928034504007A
:102F7C002244B24037F60200130606E0896541018F
:102F8C006F00B045411106C6B71700401306700517
:102F9C002380C704930680FA2380D7040100010024
:102FAC0003C7F7021377A70FA387E7022380C70491
:102FBC002380D7040100010003C7F7021367270021
:102FCC00A387E7022380070435331305407E81472E
:102FDC000147814605468545EFF08FBFB24001455C
:102FEC0041016F10A03E2A86B305B04017150200B0
:102FFC001305C5BD6FF0A17B011106CE19C589471C
:10300C006301F502F24005618280680097D0FF1FD2
:10301C00E780E071171502001305C5BCEFF0D10A6B
:10302C00D5B7680097D0FF1FE780607017150200B6
:10303C00130505BDE5B783D7C1906390A70223970D
:10304C00B1902398C1902399D1902E861715020028
:10305C001305C5BCBE856FF08175171502001305ED
:10306C0065BD6FF0710603574500011106CE83D77D
:10307C00C190631FF702C167F917894503C53182F7
:10308C0023A6F19023A80190EF00F055914503C5BC
:10309C003182EF00505585471306F1008545130525
:1030AC005030A307F100EFA0714FF2400561828010
:1030BC0017150200130505B8EFF01101FDB73D8996
:1030CC007D15954763E1A716171702001307C7A8CC
:1030DC000A053A951C41411122C406C6BA972E84A2
:1030EC00828717150200130565B52244B2404101D1
:1030FC006FF0817D83C7250019476391E7022E8508
:10310C009D378345640017150200130525B4EFF0B5
:10311C00016A17150200130525B5C1BF0D47E38AD7
:10312C00E7FEB24022444101828003C72500954747
:10313C00E319F7FEC16703D7C190F91703D5A500B2
:10314C00630FF700EFA05171171502001305C5B2FC
:10315C00EFF0817717150200130585B479B7239624
:10316C00A19083D7E5001306006403C53182239731
:10317C00F19083D705012398F19083D725018945D8
:10318C002399F190EF007025096613060690A1456E
:10319C0003C53182EF0070241166130606E89145D1
:1031AC0003C53182EF0070230356E4008355A4005D
:1031BC0017150200130585ADEFF0615F61BF03C702
:1031CC0025008D4717150200130545AEE31BF7F4D8
:1031DC0029BF83C5250091476397F5001715020099
:1031EC00130545AE19B79947639FF5002285A53D98
:1031FC008345640017150200130545A52244B2400F
:10320C0041016FF0C15A9547639AF500834714004A
:10321C00F1F7171502001305A5ACC1BD1715020077
:10322C00130585ACE1BF828001119397050122CC77
:10323C0006CE26CAC1872E8463D3070803C5318204
:10324C00D52EAA8405CD834705001307000B638E8A
:10325C00E7021307000D6391E70203472500C547FA
:10326C00631CF700034665008345750017150200C3
:10327C00130545A8EFF0A1532685A1262165218DC4
:10328C00F2406244D24405618280034745009307B3
:10329C00F007631AF7008355850017150200130514
:1032AC0025A7EFF0C15003C74400F947E316F7FC1C
:1032BC0017150200130505A7EFF0016175BF93F711
:1032CC00150091CF17F6FF1F130646F99385C18F92
:1032DC0003C53182EFA0A17B1345140055B793F7BA
:1032EC002500A5C713060064894503C53182EF008C
:1032FC00D00E9387018B03D7070083C72700814625
:10330C002312E1002303F10001478D470D46F545DB
:10331C0003D5C1902315F100EF50900A2AC61DC1A8
:10332C000356A1004C0097D0FF1FE780404003C616
:10333C0031822C0003D5C1908D3A09C5F545280082
:10334C00EF50D01F1345240025BF93F7850085C38C
:10335C0083C7318213074006814613064006994500
:10336C0003D5C190EFA0016C1345840011BF93F7F6
:10337C0005019DC3014789460946814503D5C19086
:10338C00EFA0D14FAA85171502001305E59AEFF0AF
:10339C00014213450401EDB593F745000145E38166
:1033AC0007EE03D5C190EFA0F14A1166130606E8AB
:1033BC00914503C53182EF00500213454400C9B555
:1033CC00797117050000130565E606D622D426D2BE
:1033DC00EF00F04893843182994705442380A40080
:1033EC00231AF10010089307400685451305503049
:1033FC00231CF10023088100EFA0511A17F6FF1FC0
:10340C00130686E6F14513057030EFA031191386CB
:10341C00C1819D4513056030EFA0511850088945B6
:10342C0013051031EFA09117300889451305203191
:10343C00EFA0D11617F6FF1F1306C6E4D5450145BC
:10344C00EF504032930500050D45EF20F01A93051F
:10345C0000051145EF20501A85457945EF20D0190C
:10346C003008914513057040230481002306810028
:10347C002308810002CC230A0100EF90C1453000E3
:10348C00854513050040EF900145700085451305F7
:10349C001040EF9041445008854513052040EF90B3
:1034AC0081431008854513055040EF90C1427D556E
:1034BC00EF5060397D55EF70A077EFF00FC67D555A
:1034CC00EFF04FEB89472306F1008D472308F100FD
:1034DC00231A01009147230AF1009387418B9843EB
:1034EC0083C747003000854501453ACC230EF100D7
:1034FC0023048100230B0100EFF06FED7000854574
:10350C000545EFF0CFEC100885450945EFF02FECA1
:10351C0050088D450D45EFF08FEB30089545114562
:10352C00EFF0EFEAC1671387C190F9171CC3232290
:10353C00070013858181EFF0AFE813854190EF8090
:10354C00814A03C5040085458D2BB25022549254F8
:10355C004561828041111305800406C697D0FF1F78
:10356C00E780E0B5371700408327870A8D451305A0
:10357C00002093E707202324F70AEFE05FFEEFF02B
:10358C000F9D17150200130565A6EFF0E133EFF060
:10359C009F8BEFF0FF9BEFA0B12E1D3597D0FF1F37
:1035AC00E78000D623AC05FE1C4191E70100010029
:1035BC000CC18280BA8703A787FF6DFF23ACB7FECF
:1035CC0082801DC18346E5FF1307F00F9147639E70
:1035DC00E600411106C697F0FF1FE7804080B2401D
:1035EC0081473E854101828095473E85828001E975
:1035FC00014582800145B24022444101828095659B
:10360C004111938505D022C4C98D2A842105C20598
:10361C004205C181418106C697E0FF1FE780006F1C
:10362C0071D9FD5723200500231285002303F500D3
:10363C002105D1B717170020130707861C4341112A
:10364C0022C426C24AC006C601440149BA8491E785
:10365C00A165EF0040791DC401A803C7E7FF631AF9
:10366C00A7020DCCA16591299840832784FF63198B
:10367C00E402171700202321F782FD57232C04FEA8
:10368C00230FF4FE2285B2402244924402494101A8
:10369C00828011E03E8983A787FF55BF3E84E5BF3A
:1036AC00232CF9FED9BFB1CD411122C406C62A8400
:1036BC009707002083C7977E2E856375F400894792
:1036CC0063E88700FD3D0D45B240224441018280F4
:1036DC0083A785FF99E703C7E5FF9307F00F630501
:1036EC00F700C5351545CDB7238F85FE170500208E
:1036FC001305857A453D22852244B240A1654101DE
:10370C006DAE154582809707002023A7077882802D
:10371C00970700209387C77D9C4399E33E85828061
:10372C0003D727006316B70003C70700E308A7FEFB
:10373C00DC47E5B7C9C1797122D406D626D24AD066
:10374C004ECE01444147B3D78540858BA5C31205A6
:10375C00314722953305E502970700209387477D73
:10376C0003A907008544B3948400C204C180BE89B8
:10377C002A990327090011C7032549002EC6029771
:10378C00B24531473304E40283A709003E941C443C
:10379C0089E72320090023220900B2502254A58D69
:1037AC0002599254F2492E85456182800504E31C2E
:1037BC00E4F88144DDB72E85828041111397050111
:1037CC0022C406C626C24AC041872E84635E070007
:1037DC00953511C1FD33A1673D8C2285B240224441
:1037EC009244024941018280EDD9AA8701474146A2
:1037FC00B356E440858A8DCE9207BA97B146B3870B
:10380C00D702970600209386A67203A9060085446A
:10381C00B394E400C204C1803E99832709000325B8
:10382C00490082972320090023220900258C75B7B3
:10383C000507E31FC7FA8144D5BF9707002093877C
:10384C00676B9C53411122C406C61384418299C7ED
:10385C0082971C403E9523A2A18239A09707002095
:10386C009387876D9C43EDF70840B7470300938718
:10387C00D73F3305F502B7A72600938737ECB24044
:10388C0022443E9523A2A18241018280011168004D
:10389C0006CE22CC26CAEFD09016FD576300F50E4B
:1038AC003247970600209386E6649707002083C76B
:1038BC00B765B68463F9E70A170400201304045EA5
:1038CC0018483706C0A8630EC702970700209387D5
:1038DC00A7669C43829732471C486373F700BA87EC
:1038EC001707002003475762998F3E958387640121
:1038FC0063CE0700B707C0A8636AF500B707405747
:10390C00A5A88386660163D506061D8D17040020C5
:10391C001304C4771C4C81CF970700209387877DB5
:10392C0094433707CDFF7D179C46F98F9CC619E150
:10393C003705C0A8970700209387C75BDC53829795
:10394C0019E51C4C8DC3EF40315FEF4041491C4CD5
:10395C0099CB970700209387E7799843B7063300F4
:10396C001C47D58F1CC7F2406244D244056182804B
:10397C00E37DF5F8B307F7403E9549BF9704002067
:10398C009384C4519C483704C0A8E38E87FC9707E6
:10399C0000209387675A9C4382979C481707002006
:1039AC0003479756998F3E95970700209387875426
:1039BC0083876701E3CC07F4E36A85F481B77DC99B
:1039CC003748F6A6130808C889476366C80E79718C
:1039DC00970700209387C75522D45AC803A807001D
:1039EC003E8B06D626D24AD04ECE52CC56CA5EC696
:1039FC0062C40144B148C147B30B1403137CF40FE8
:103A0C0033037801032303006311030AAE8AC165F3
:103A1C00AA84938505F041453A8AB689328997E0A4
:103A2C00FF1FE780A02E0DE9970700209387874C96
:103A3C009C5B99EF8147B250225492540259F2493F
:103A4C00624AD24A424BB24B224C3E85456182803F
:103A5C00814511458297F9BF970700209387474905
:103A6C00984321E39707002023A4A74823000500CF
:103A7C0083270B00054733148700232605002324D6
:103A8C0025012311850023224501DE9784C323A23F
:103A9C00570123A44701E38F09F82380890159BFFB
:103AAC0036875447F5FE48C7D1B70504E316F4F43E
:103ABC00A14751B789473E8582809707002083C76D
:103ACC00F73D6371F5021707002013072742931780
:103ADC00150008433E9583570500DD8D2310B50076
:103AEC00014582800D4582809707002083C7173BD4
:103AFC006373F502170700201307473F9317150050
:103B0C00084393C5F5FF3E9583570500FD8D2310A3
:103B1C00B500014582800D4582809307F00263EB6E
:103B2C00A70AB146B306D5029707002093874740F2
:103B3C00984389473697184359CF011122CC4EC66A
:103B4C000544935945003D893315A4001314050110
:103B5C00418026CA4E85AE84A2854AC806CE4D3E0B
:103B6C002A89814725C1A2854E85BD3F9707002034
:103B7C009387873C9C4382979707002083D7873491
:103B8C00338797022A84130600648146B3B79702E1
:103B9C0013050732B335E500BE95EFE0617C97075E
:103BAC0000209387273583876701229563C9070017
:103BBC00B707C0A86365F500B70740573E952324A7
:103BCC00A9008147F2406244D2444249B2493E8541
:103BDC000561828089473E8582809707002083C7D4
:103BEC00F72B6364F50001458280011197070020D3
:103BFC009387873426CA844306CE22CC4AC84EC645
:103C0C00C5C8AE899705002083D5C52BB387C502DF
:103C1C002A8432898146B3B5C50213850732B3377E
:103C2C00F50013060064BE95EFE08173B747F6A666
:103C3C00938707C863EEA70682949705002083D567
:103C4C006528B3872503AA84130600648146B3B59F
:103C5C00250313850732B337F500BE95EFE04170AD
:103C6C00970700209387072903876701AA943E8949
:103C7C0063490700B707C0A863E5F400B7074057CE
:103C8C00BE94CE852285693401C504C5054515A0B1
:103C9C00936504F0C205C181414597E0FF1FE780A1
:103CAC00E00619ED8327090381C7A2851145829788
:103CBC000145F2406244D2444249B24905618280D6
:103CCC00970700209387C7229C439DE3970700200A
:103CDC0023A0A72285472326050004C523113501FF
:103CEC0023008500A300F5002322050045B7BA8701
:103CFC00D84775FFC8C7F9BF51C9797122D426D2EC
:103D0C004AD04ECE52CC56CA5AC85EC662C406D6EB
:103D1C00B689B28A2E8A2A899304000C4144170B67
:103D2C000020130BEB20054C930B000383270B0097
:103D3C00A6979C43A1E79375F400B315BC00C2058C
:103D4C005686C18113554400493D0DC983270B008C
:103D5C000145BE9423A0240123A2440163840900DD
:103D6C0023808900B250225492540259F249624A7B
:103D7C00D24A424BB24B224C4561828005041374EB
:103D8C00F40FB104E31474FB2145E9BF09458280AB
:103D9C00411122C426C24AC006C62A842E89B28486
:103DAC002D3DCA852285EFF0BF9605CD97050020E5
:103DBC0083D54511B38795022A8413060064814686
:103DCC00B3B5950213850732B337F500BE95EFE016
:103DDC00215948C00145B240224492440249410154
:103DEC0082802145CDBF411122C426C24AC006C6DD
:103DFC002A892E84EFF0DF91AA8419C123110500C2
:103E0C00A2854A85D5319707002083C72709639B74
:103E1C0027019707002083D7270D5D8C970700207B
:103E2C002394870C014591E01945B24022449244F9
:103E3C000249410182809307F00263E8A704411113
:103E4C00B14722C43304F50226C2970400209384A0
:103E5C00240E9C4006C6A297984389470DC39377BE
:103E6C00F5008545B395F500C205C1811181A53FCB
:103E7C009C40A29723A0070023A207008147B240D1
:103E8C00224492443E854101828089473E8582804E
:103E9C00411106C622C4EFF0BF8711E50145B240BF
:103EAC00224441018280970700209387E7089C43B6
:103EBC0000458297970700209387C7038387670184
:103ECC0063D80702B747F6A63305A4409387F7C714
:103EDC00E3E6A7FC93070064B335F5021706002050
:103EEC00035646FE81463305F502EFE0614745BFB8
:103EFC00E37AA4FCB707C0A83E94E9B7411106C603
:103F0C009707002023A8A7020295B240970700202C
:103F1C0023A2A7FA014541018280994763E9B700C2
:103F2C008A0597070020938767FABE9588C182801F
:103F3C0041117146814517050020130525F906C668
:103F4C009707002023A607FA9707002023A407FE53
:103F5C009707002023A207FE97D0FF1FE780A080C1
:103F6C001306C002814517050020130525F397C0E1
:103F7C00FF1FE780407FEFA0611A9707002083C7DF
:103F8C00D7F813D527008D8B3E958D473305F50259
:103F9C00854539051375F50F970700202381A7F088
:103FAC0099473305F5021305052497E0FF1FE780B9
:103FBC00E0D517070020232DA7F659CD99471706F2
:103FCC0000200346C6ED3306F6028145130606248F
:103FDC0097C0FF1FE780207997070020938747F54C
:103FEC009C439387072417070020232FF7EC170710
:103FFC0000200347C7EA0A07BA97170700202327B0
:10400C00F7EEEFF04FF07921970700209387C7EB7D
:10401C0094439707002083C777E8139727003697B8
:10402C0017F6FFFF1306467110C31387170013779B
:10403C00F70F0A07369717F6FFFF1306467810C3DB
:10404C0013873700890793F7F70F8A079705002026
:10405C00A386E5E4B69790C3B240410182809707EE
:10406C00002083C7B7E317070020034747E363F338
:10407C00E70217070020130727E51843938617005C
:10408C0017060020A30CD6E093962700369708C39A
:10409C003E8582809307F00FE5BF1C4163850716B0
:1040AC0041777D8FB70600208947631FD7140357CC
:1040BC004500630B0714411122C419462A84930549
:1040CC00F00F690506C697C0FF1FE780E073054730
:1040DC008D476305E5121C4481CB58589947630FF3
:1040EC000710185C630C07101306C00381451705F5
:1040FC000020130525E097C0FF1FE780C06613065C
:10410C00C003A285170500201305C5DE97C0FF1F4D
:10411C00E780E06117070020035787DE9707002030
:10412C00938747DD19E713070010970600202399A2
:10413C00E6DC170700200347C7DC11E705479706A5
:10414C0000202380E6DC170700200357A7DB11E7CC
:10415C006D47970600202397E6DA170700200347E0
:10416C0057DA11E7154797060020A38CE6D81707F6
:10417C000020034747D911E7054797060020238401
:10418C00E6D817070020034717D819E703C7F7002D
:10419C0097060020A389E6D6170700200347C7D649
:1041AC0011E73547970600202380E6D61707002035
:1041BC000347D7D519E71307800297060020A3877A
:1041CC00E6D417070020034737D419E71307D002AA
:1041DC0097060020A38AE6D20347840119E7130748
:1041EC00C003970600202383E6D29C5791C7829781
:1041FC00970700202398A7CA253B8147B240224449
:10420C003E854101828089473E8582809707002048
:10421C00938787D29C43411106C622C426C24AC04A
:10422C00829793070064B335F5021704002013043A
:10423C00E4C60359840281464A863305F502EFE051
:10424C002112004CAA8401456304940233858440F6
:10425C00636C94004A868146370500B09305E041B3
:10426C00EFE00110018D26959707002023A497C439
:10427C00B24022449244024941018280011122CC75
:10428C000A852E844146970502009385658E06CEDD
:10429C00EFE08146180806043A94035504FF97078B
:1042AC00002083D747C2F2406244AA9737450F00DB
:1042BC00130505243355F50205618280970700200C
:1042CC0083D767C051471D45637CF7027947194571
:1042DC006378F7021307200315456373F70213077E
:1042EC00B0041145637EF700130740060D45637952
:1042FC00F7001307600909456374F70013B5B70F8E
:10430C008280011122CC06CE2A842EC6EFF0EFD289
:10431C00B245F240818D33A5A502229562441375F6
:10432C00F50F05618280011122CC06CE2A842EC69F
:10433C00EFF0AFD0B245F240818D33A5A5022295A6
:10434C0062444205418105618280011122CC06CE76
:10435C002A842EC6EFF06FCEB245F240818D33B574
:10436C00A5022295624405618280970700209387FD
:10437C0067B8985739CB411122C426C206C6BE84F1
:10438C000297170700200357E7B12A8415CBBA8789
:10439C006373A700AA87C207C183BA866373E4005C
:1043AC00A286C206C182958F5147635BF700DC542D
:1043BC0091C38297EF40612497070020239487AE26
:1043CC00B2402244924441018280828097070020AF
:1043DC00938747B2DC57011106CE81C72AC6829754
:1043EC00324515C5B7873200938727A117070020E0
:1043FC00232AF7AC9707002023A0A7B417050000C9
:10440C00130505E1E53CF240014505618280970703
:10441C00002083C787AF139787016187635C07020E
:10442C009707002023AA07A8B7873200938727A1F4
:10443C00170700202328F7A87D57B7C7004023A4EF
:10444C00E72697C7FF1F938747731707002023257D
:10445C00F7AE6DB713F7170011CFB787200393870B
:10446C0007D017070020232FF7A497C7FF1F9387A8
:10447C00E773E1BF6177970600202395E6A481CB13
:10448C009307003217070020231FF7A2F9BF9307E9
:10449C002003CDBF011122CC17040020130484A5E6
:1044AC00084406CE26CA4AC801E90545F2406244D2
:1044BC00D2444249056182805C58E5DB185C75D7B3
:1044CC007000854582971844B247E300F7FE9305C8
:1044DC00E004170500200355A5A297E0FF1FE78015
:1044EC00E08217070020232BA79C61D11706002020
:1044FC00035606A19305F00F97C0FF1FE780A02677
:10450C00814417090020130969999707002083C774
:10451C00479F0326090263C1F402328597E0FF1F0F
:10452C00E780E08B01459707002023A907989707A0
:10453C00002023A707989DBF9705002083D5459C95
:10454C00B38795020844185C898185043E9508C29E
:10455C00029765BF411122C41704002013048499EB
:10456C001C4426C206C64AC09704002093840493B8
:10457C0091EB885025EDB24022449244024901450A
:10458C00410182801C5CF5D79C5099EF9305E004A7
:10459C00170500200355C59697D0FF1FE7800077BD
:1045AC009707002023ACA790885061D517060020F0
:1045BC00035606959305F00F97C0FF1FE780A01ACE
:1045CC0001499707002083C7C7939050E353F9FA2A
:1045DC009705002083D5C592338525031C4489811A
:1045EC0005093E951C5C08C28297E1BF97D0FF1F5E
:1045FC00E780E07E9707002023A2078C9707002016
:10460C0023A0078C8DBF011156C2970A0020938AF4
:10461C006A8E83A78A0022CC4AC84EC606CE26CA0A
:10462C0052C45AC0AA892E8432896385072203A7F3
:10463C004A03630707147D476366A7149704002099
:10464C009384C48503AA040263170A0A95659385AB
:10465C0015E0170500200355A58A97D0FF1FE780AA
:10466C00E06A9707002023ABA7842A86630A05100B
:10467C0083A74A0303A58A009705002083D54588A4
:10468C008981829783A78A0003AA04021707002056
:10469C002328F7828947639CF908C1476312F40EFB
:1046AC009705002083D5C585938505FC9147B3C537
:1046BC00F5028A05D29503C705009307A005631D73
:1046CC00F70A83C715006399370B4A852286910533
:1046DC0097C0FF1FE780A0059C5052856393471538
:1046EC000145F2406244D2444249B249224A924ABC
:1046FC00024B05618280D850E38EE7F8956593856F
:10470C0025E017F5FF1F0355A57F97D0FF1FE78006
:10471C00E05F2A8A35C52A8683A74A0303A58A0047
:10472C0097F5FF1F83D5C57D89818297A5B78D47E6
:10473C00639DF900C1476315F40497F5FF1F83D5FA
:10474C00257C938545FDF199B5B79147639AF9009E
:10475C006318340397F5FF1F83D5857AA115E5B748
:10476C00C147639FF900A14763EC870097F5FF1FD2
:10477C0083D50579C115C1BF9C5052856397470DF0
:10478C00294585B71307F006568B6361A70A130AF0
:10479C0005FE1947334AEA0217F7FF1F03574776FE
:1047AC0097FAFF1F938A8A6F330AEA023E9A83A70D
:1047BC004A026395470183A40A029DE49305E00431
:1047CC0017F5FF1F0355C57397D0FF1FE7800054E3
:1047DC00AA845DD583274B0397F5FF1F83D54572BC
:1047EC002A8689815285829791451307A005898174
:1047FC0093972500A69783C607006393E60483C6A8
:10480C001700639C360385058A052286A6954A8582
:10481C0097C0FF1FE780A0F183A70A02E38297EC01
:10482C00268597D0FF1FE780805B5DBD1307E007EF
:10483C00E368A7F4130A05F985B783D5270045BFAC
:10484C0083A70A02E38E97F2268597D0FF1FE78095
:10485C0000593DB797F7FF1F938747648C538DD151
:10486C0091479306A0058983139727002E9703463B
:10487C000700E317D6F003461700631C36018507C3
:10488C008A072286BE954A8597C0FF1FE78020EADB
:10489C0081BD83572700C1BF97F7FF1F938787659B
:1048AC00984739C79C5FA9C705476313E5044111B5
:1048BC0022C417F4FF1F1304645E105006C60DC605
:1048CC00485097F5FF1F83D5A563898182970850BF
:1048DC0097D0FF1FE780A05097F7FF1F23A0075E1C
:1048EC0097F7FF1F23AE075CB24022444101828040
:1048FC008280011117F7FF1F1307C75F4EC683296C
:10490C00870022CC26CA4AC806CE52C456C2AA84F4
:10491C002E843289638A09201C5FBA8A99EB294557
:10492C00F2406244D2444249B249224A924A056159
:10493C0082805C5BEDD7FD4763E9A70E97F9FF1FFB
:10494C009389C95583A70902B1CB03A58A0083A714
:10495C0049026395A70689476393F408C147E3109E
:10496C00F4FC17F5FF1F0355A5599147130505FCDA
:10497C003345F5029317250003A509022286CA8543
:10498C003E959307A0052300F500A30095001105A3
:10499C0097C0FF1FE780A0D9014559B79305E004E4
:1049AC0017F5FF1F0355C55597D0FF1FE78000363D
:1049BC0097F7FF1F23A4A75049F995B783A74A037C
:1049CC0003A6090297F5FF1F83D58553898182972A
:1049DC0083A78A0017F7FF1F2324F74EADBF8D471F
:1049EC00639EF400C147E31CF4F217F5FF1F035557
:1049FC002551130545FD9377C5FFBDBF9147639ABC
:104A0C00F400E31E94F017F5FF1F0355654F2115B5
:104A1C00DDB7C147E395F4F0A147E3E287F017F562
:104A2C00FF1F0355E54D4115F9B79307F00663EAEF
:104A3C00A706930705FE1947B3C7E70217F7FF1F31
:104A4C000357074C17FAFF1F130A4A45B387E702AF
:104A5C00BE9983270A02A9CF83274A02639A370794
:104A6C0003250A0291461308A005FD5593D726008D
:104A7C00C207C183139727002A9703460700631DBB
:104A8C000607834817000356270063959806B3065C
:104A9C00D64063CF860485078A072286CA853E9551
:104AAC00C5BD9307E007E3ECA7E6930705F979B7D3
:104ABC009305E00417F5FF1F0355854497D0FF1F9E
:104ACC00E780C02497F7FF1F23AAA73E51F581BDAD
:104ADC0083A74A0303260A0297F5FF1F83D5454295
:104AEC0089814E85829797F7FF1F23AB373D8DBF8A
:104AFC00A300B700B2869DBFB385860017F6FF1FD3
:104B0C00035606409105130606FCE3FAC5E01306AE
:104B1C0034001376C60F1106B29623000701A300CA
:104B2C0097002311D70085BF97F7FF1F938707378F
:104B3C009453BE89A1C203A5090291461308A0058E
:104B4C00FD5593D72600C207C183139727002A97D8
:104B5C000346070063160605834817000356270013
:104B6C0063989800B306D640E3D786F2A300B7004B
:104B7C00B286C1BF8357C70017F5FF1F03456538C1
:104B8C009305E0043305F5024205418197D0FF1FE0
:104B9C00E780C01797F7FF1F23A2A73249FD41B347
:104BAC0017F6FF1F0356C63597F5FF1F83C56535EE
:104BBC00B385C502338686001106E3E2C5D681BFF4
:104BCC0001458280011106CE2EC6EF80202C01C932
:104BDC00B245F2400355250005616FB03017F24025
:104BEC00494505618280A38001942380019423A40C
:104BFC00019223A6019223A8019223AA019223A237
:104C0C00019223A0019297F7FF1F93872735130674
:104C1C0040382391C70271761307400B130606B870
:104C2C002391E7002392C70211671D4693060005E6
:104C3C009305000A1305007D2392E7002393C70216
:104C4C0041470546130810F82395E7002396E70023
:104C5C002399E700239AE700239BE700239CE700B6
:104C6C002394E70223960703239007002393B700AE
:104C7C002394B7002397D7002398D700239DA70030
:104C8C00239E0700239F0700239007022395C7024A
:104C9C00239707021308F007239807022392E704CF
:104CAC002393E704239FE7042390E7062391E70669
:104CBC002392E706239907031307C01C239AC70204
:104CCC00239BC702239C0702239D0702239E0702F6
:104CDC00239F0702239007042391C70423940704FE
:104CEC00239507042396C7042397D7042398D70446
:104CFC002399A704239A0704239B0704239C0704E6
:104D0C00239DD704239ED7042393A7062394070639
:104D1C0023950706239607062397B7062398B7060D
:104D2C0023990706239AE7067D57239B0706239CA6
:104D3C00E7068280011126CAAA84214522CC06CE20
:104D4C002E8432C636C43AC2EFE07F8A1DC9A24611
:104D5C0012473246930700FD2300F5009947A30044
:104D6C0095002301F5002303D500A303E5002312CE
:104D7C00C500AA8522856244F240D24405616FE0E9
:104D8C009F92F2406244D2440561828023A4A19296
:104D9C00828023A6A192828023A8A192828023AA3A
:104DAC00A1928280011122CC4AC806CE26CA2A8939
:104DBC000144B30489006368B400F2406244D244F5
:104DCC004249056182802EC6EFE03FA7931705018B
:104DDC00C183A183B2452380F4009307140093F799
:104DEC00F70F850463F9B700CA9709042380A7005D
:104DFC001374F40F7DBF3E847DBFC16717F5FF1F91
:104E0C0003552514FD176304F502411117F6FF1F16
:104E1C00034646259385819306C6EF703065B240F4
:104E2C00FD5717F7FF1F231EF71041018280828068
:104E3C0009C925151375F50F1335850E1345150086
:104E4C0082800145828023900500C9C6797122D4E5
:104E5C0026D24ECE52CC5AC806D64AD056CA5EC6B8
:104E6C003684328AAE892A8B814463F34407B307B4
:104E7C00940083C70700138914004209939A070111
:104E8C0093DA0A011359090163840A04CA9763412E
:104E9C00FA04B307240183CB07005E85513F0DC98B
:104EAC009387FAFF2390F90063906B0313051900A5
:104EBC002295B250225492540259F249624AD24A73
:104ECC00424BB24B45618280D694C204C18071BF03
:104EDC000145C5B701458280411126C2AE8422C46A
:104EEC0097F7FF1F23A6C70697F7FF1F23A0B70648
:104EFC0097F7FF1F23AAA7042A8441469305F00FB6
:104F0C0026854AC006C6054997C0FF1FE780C08F9B
:104F1C006310250597F7FF1F93874702884BC14500
:104F2C00513541469305F00F228597C0FF1FE7804E
:104F3C00A08D854463189502224497F7FF1F938731
:104F4C00E7FFB24092440249C847C145410199BDAF
:104F5C0041468145268597C0FF1FE780E08AE31212
:104F6C0025FD4DBF41468145228597C0FF1FE78037
:104F7C00A089E30395FCB2402244924402494101CA
:104F8C008280411122C426C22E84AA8413060002F8
:104F9C00814517F5FF1F130565FA06C697B0FF1F6D
:104FAC00E780607C97F7FF1FA38B97F897F7FF1F9D
:104FBC00238C870AEFB0805B854719C1814749452F
:104FCC00B240224417F7FF1F230AF7F6924441011F
:104FDC008280814781CD19C98547631BF50083C742
:104FEC00550093E707FCA382F50085473E85828038
:104FFC0089476317F50083C7550093F7F703E5B7A7
:10500C000D478547E314E5FE03C755001377F703F7
:10501C0013670704A382E500D1BF81478DC105C189
:10502C0003C755009306000C85471377070C6308DC
:10503C00D700930600048D476303D70089473E854C
:10504C008280411122C4005D06C626C21DC8AA84F6
:10505C00085009C597D0FF1FE78060D8485009C594
:10506C0097D0FF1FE780A0D7085409C597D0FF1F22
:10507C00E780E0D6228597D0FF1FE78040D623AC8F
:10508C000402B240224492444101828009ED97F718
:10509C00FF1F83C7C7EA17F5FF1F1305A5EB81CBCD
:1050AC0013858191828017F5FF1F1305A5EA828075
:1050BC0017F5FF1F0345A5E8828097F7FF1F93871D
:1050CC00E7E7C847828097F7FF1F938727E7884B4E
:1050DC00828097F7FF1F938767E6DC4B88438280BB
:1050EC0097F7FF1F938787E5D84B1C4385071CC395
:1050FC0017F5FF1F0345B5E49307F00F6305F500A3
:10510C0091656FE09F9B8280011122CC06CE2E848C
:10511C0032C6EF7070689147B245631FF5009387F4
:10512C0041939C438DC303A30700630E03002285A8
:10513C006244F240056102839387C1929C4381C70C
:10514C0003A34700DDB7F240624405450561828048
:10515C00011122CC2A840355450006CE26CA4AC822
:10516C004EC6EF70904135C52A89834405008349AA
:10517C00C500C13D4A85EF80B04103554400EF7036
:10518C00F05C83C70194B1CB6399970483C51194E8
:10519C002685EFF03FA319E12380019403554400C9
:1051AC00EF70905F9147631FF5000357440097F72A
:1051BC00FF1F83D707D96317F700FD5717F7FF1F9A
:1051CC002311F7D8F2406244D2444249B2490561F6
:1051DC00828081499304F00F6DB79307F00FE38F32
:1051EC00F4FA8346640003564400034524004E87BA
:1051FC00A685893665B779715EC6AA8B2E8552CC89
:10520C0056CA5AC806D622D426D24AD04ECEAE8A18
:10521C00328B368AEF7070367DC1045D2A89E5C009
:10522C009C50614599C3130540039C5481C751059B
:10523C004205418163050A00710542054181DC503C
:10524C0081C7590542054181EFE06FBA2A8445C9EF
:10525C006146814597B0FF1FE780E05097F9FF1F2B
:10526C0083C9C9D26394090083490900930700FDDF
:10527C002300F400A947A30074012301F4002303C5
:10528C0064018C50231254011305840191C908C484
:10529C007146930A440397B0FF1FE7804049568537
:1052AC008C5491C948C45146930A450197B0FF1FCD
:1052BC00E780E0475685630C0A0008C87146D28522
:1052CC00930AC50197B0FF1FE78060465685CC5006
:1052DC0099C548C8594697B0FF1FE7804045A2853D
:1052EC004E85EFE04FBC2254B2509254F249624AC0
:1052FC00D24A424BB24B4A850259456199B3B250DE
:10530C00225492540259F249624AD24A424BB24B4D
:10531C004561828001114EC6AA892E854AC806CEE7
:10532C0022CC26CA2E89EF70502521C997F4FF1F75
:10533C0083C4C4C599E0834405001945EFE02FAB45
:10534C002A8405CD8145194697B0FF1FE780A041FF
:10535C00930700FD2300F400B947A3003401230197
:10536C00F40023122401A2856244F2404249B2495E
:10537C002685D24405616FE00FB3F2406244D244FB
:10538C004249B2490561828039715ECEAA8B2E8565
:10539C0026DA4ED652D456D25AD006DE22DC4AD861
:1053AC00AE84328BB68A3A8ABE8942C6EF70F01C44
:1053BC0021CD2A894145EFE08FA32A8431C541468E
:1053CC00814597B0FF1FE780003A17F5FF1F034593
:1053DC00E5BB19E103450900930700FD2300F40028
:1053EC00BD472301F400B247A300740123129400BB
:1053FC0023046401A304540123054401A3053401CF
:10540C005CC4A285EFE02FAAF2506254D2544259E8
:10541C00B259225A925A025BF24B21618280797105
:10542C0026D2AA8439454AD04ECE06D622D42EC6D0
:10543C00B2893689EFE0AF9B21C1B2459307000DCD
:10544C002310F500B1472A842312B5002301F5007F
:10545C00CE851905194697B0FF1FE780402D23060E
:10546C002401A2852254B2500259F24913F5F40FCB
:10547C00925445616FE02FA3B250225492540259BA
:10548C00F2494561828017F7FF1F034757AB93071B
:10549C00F00F630DF706411126C2AA84394522C4C8
:1054AC0006C64AC0EFE0AF942A8439C9930700FDC1
:1054BC002300F500A30095002301050097F5FF1FBD
:1054CC00938545A90D05194697B0FF1FE780202647
:1054DC0017F9FF1F130989A683578900A28517F5B1
:1054EC00FF1F0345D5A52315F40083471900230698
:1054FC00F4002244B2409244024941016FE0AF9A59
:10550C00B2402244924402494101828082800111BE
:10551C005AC02A8B314526CA4EC652C456C206CE34
:10552C0022CC4AC8AE84B28A368ABA89EFE02F8C74
:10553C0035CD2A842685EF70500411C50347C5006C
:10554C00A1476314F70417F9FF1F0349599F9307E9
:10555C0000FD2300F4009D47A30064012301F40027
:10556C0023129400231354012314440123153401F2
:10557C00A2856244F240D244B249224A924A024B7A
:10558C004A85424905616FE00F9217F9FF1F0349E5
:10559C00B9ADE31E0BFA9387C19E9C439C47C5DBB8
:1055AC00CE865286D6852685829755B7F2406244C0
:1055BC00D2444249B249224A924A024B0561828046
:1055CC00011122CC2A84214506CE2EC6EFE02F8273
:1055DC0021C1B245930700FD2300F500C547230107
:1055EC00F50083C73500A301F50083D745002312CE
:1055FC00F50083C765002303F50083C77500AA85F2
:10560C00A303F50022856244F24005616FE0AF8987
:10561C00F240624405618280397162CC2A8C594512
:10562C0026DA4AD84ED652D456D25AD05ECE06DEA0
:10563C0022DCAE8432C636C4BA8B3E8BC28A468A12
:10564C008359010403494104EFD07FFA25C932463E
:10565C00930700FDA2462300F5009547A301C50062
:10566C00A30085012301F5002A8419461105A9C25E
:10567C00B68597B0FF1FE780800B23066401230AD1
:10568C0024012315740123175401231844012319F1
:10569C003401A2856254F2504259B259225A925A9C
:1056AC00025BF24B624C2685D25421616FD0BFFF56
:1056BC00814597B0FF1FE780000BC1B7F2506254D1
:1056CC00D2544259B259225A925A025BF24B624C52
:1056DC002161828097F7FF1F83C767868DCB4111AD
:1056EC00AA8519461385819106C697B0FF1FE780DE
:1056FC0000049385819117F5FF1F03454584EFF056
:10570C005F8DB2401385819141016FA0F066014518
:10571C00828017F7FF1F034797829307F00F6305EB
:10572C00F708411126C2AA84294522C406C6EFD027
:10573C001FEC2A8429C1930700FD2300F500A14723
:10574C002301F500A300950097E7FF1F9387077FC0
:10575C0083C72700938581911105A30FF5FE194688
:10576C0097B0FF1FE780A0FCA28517E5FF1F03453C
:10577C00157DEFD05FF317E7FF1F0347477C8D477D
:10578C00631FF700938701939C4391CB03A387007E
:10579C00630703002244B240924441010283B240A9
:1057AC00224492444101828017E7FF1F0347277967
:1057BC008D47631AF700938701939C4389C703A312
:1057CC008700E31D03FC8280797122D406D626D291
:1057DC004AD04ECE52CC094455CD2A8903550500EA
:1057EC002E8A5144EF706059AA844DC597F7FF1F5C
:1057FC0083C78787FD1793F7F70F05474944637BEA
:10580C00F7080347C500A1476314F70063140A089F
:10581C009C5C4544C1E39165938545711305C002B9
:10582C0097C0FF1FE780804E88DCAA894D443DC19C
:10583C001306C002814597B0FF1FE780C0F2835763
:10584C0009009386490036852391F900714693052A
:10585C00490036C697B0FF1FE78060ED894723806B
:10586C00F90003C5C400B24603560900611597E55B
:10587C00FF1F83C5257F13351500EF90D07A2A843E
:10588C0063060A00D2852685EF80E07B01C426855D
:10589C00EFF02FFB2285B250225492540259F24958
:1058AC00624A4561828097E7FF1F83C7E77BFD173C
:1058BC0093F7F70F0547637AF708894741CA011137
:1058CC0022CC26CA4AC84EC652C406CEAA89368AEB
:1058DC00B2842E89EF70604A2A84D14739C9485561
:1058EC0009C597C0FF1FE780804FF145268597B00B
:1058FC00FF1FE780A0E948D4CD4705CD8346C400FF
:10590C0021478147639FE600630D0A000347A50109
:10591C000356050193062501AA854E85EF70106884
:10592C00AA8703474400630F09001367670023022B
:10593C00E400F2406244D2444249B249224A3E85D4
:10594C000561828013674700DDB7C9473E858280B9
:10595C009307B00363EBA70097E7FF1F93870760DC
:10596C0006053E9503550500828041657D158280B4
:10597C00011122CC2A842E8526CA06CEAE84EF7065
:10598C00C03F1DCDB7470F009387F723094563E44C
:10599C00870281450A85414697B0FF1FE780A0DC4E
:1059AC00A685231081000A85418023018100A30173
:1059BC000100EF90B048F2406244D244056182800D
:1059CC004945D5BF97E7FF1F238FA76882806F904B
:1059DC00D05D797152CC2A8A328522D426D24AD013
:1059EC004ECE56CA5AC85EC606D662C4AE8BB28AB2
:1059FC00368BBA843E89C2894684EF70003815C94B
:105A0C002A8C63140A0213774B008347450015CF89
:105A1C0093E727012302FC008DEC631C0902639AB7
:105A2C00090205E8ED9B2302FC00832B8C03639198
:105A3C000B08B250225492540259F249624AD24A8B
:105A4C00424BB24B224C45618280F59B93E7070198
:105A5C00D1B793E747002302FC0001CC1C48414618
:105A6C00A2852324FC0213058C0197B0FF1FE7804D
:105A7C0000CC63930B02D5D80325CC0209C597C083
:105A8C00FF1FE780C035F145268597B0FF1FE780E3
:105A9C00E0CF2326AC0251BFE30909F80325CC0261
:105AAC0009C597C0FF1FE7808033F1454A85F1BFD8
:105ABC009DC483A70B0299EB916593853571714554
:105ACC0097C0FF1FE780802423A0AB0203A50B0225
:105ADC0019C57146A68597B0FF1FE78040C563883E
:105AEC00090283A74B0299EB916593852571594562
:105AFC0097C0FF1FE780802123A2AB0203A54B02B6
:105B0C0019C55946CE8597B0FF1FE78040C21DC40A
:105B1C0083A78B0299EB916593851571514597C0BD
:105B2C00FF1FE780A01E23A4AB0203A58B0219C59F
:105B3C005146A28597B0FF1FE78060BF2254B25038
:105B4C009254F249B24B224CCA865A860259424BA5
:105B5C00D6855285D24A624A45616FF0CFE9011170
:105B6C0026CA52C406CE22CC4AC84EC62A8AAE8455
:105B7C00EF70A02025C5AA893945EFD05FA72A84EC
:105B8C0031CD17E9FF1F034969406314090003C9AC
:105B9C0009009307000D2310F400AD472301F40016
:105BAC009385690013053400194697B0FF1FE780F1
:105BBC0000B893F71400858085882306F400A306AB
:105BCC00940023154401A2856244F240D244B249A8
:105BDC00224A4A85424905616FD0FFACF2406244CB
:105BEC00D2444249B249224A05618280938701928C
:105BFC00884301CD411106C697C0FF1FE780201EC8
:105C0C00B24023A00192410182808280011106CE14
:105C1C0022CC26CA4AC82EC6EF70201639CDB24502
:105C2C0017E9FF1F03498936AA840CD563140900B0
:105C3C00034905004145EFD09F9B2A841DCD930756
:105C4C00000D2310F500A5472301F50083C7540070
:105C5C00938564001105A30FF5FE194697B0FF1F3D
:105C6C00E780E0AC9C54A285F2405CC46244D24410
:105C7C004A85424905616FD01FA3F2406244D24469
:105C8C00424905618280797122D406D62A842EC6B7
:105C9C00EF70A00E0DCD8346C5001147AA8749456C
:105CAC006393E6029C5FB24599C383C567010808FC
:105CBC00EF80604297960000938666D21008894563
:105CCC002285EF70B032B25022544561828051452A
:105CDC00DDBF97E7FF1F83C72739FD1793F7F70F32
:105CEC000547637AF704894721CA411122C426C2A9
:105CFC004AC006C6B2842E89EF7020082A84D14788
:105D0C0005C5630809008347450093E72700230274
:105D1C00F5004146A6851305840197B0FF1FE78067
:105D2C0000A19C481CD48147B240224492440249B1
:105D3C003E8541018280C9473E858280797122D49B
:105D4C0006D62A842EC6EF70400301CDB2452285BB
:105D5C00230EB1006C08EF80802BB25022544561A9
:105D6C0082805145DDBF6F70E017C1671387E7FF75
:105D7C006394E5029387C1929C4391EB49458280E1
:105D8C004945B2402244924402494101828003A316
:105D9C000700E30503FE0283411122C426C24AC058
:105DAC0006C6FD172A892E84B2846395F502938763
:105DBC00C1929C4391CB9C4381CB829711E523806C
:105DCC002195A380919475BFA6854A85EFE09FDF4E
:105DDC004DF9F5B72E85EF60507A5DD183470500FC
:105DEC000D45E39027FB22852244B2400249A6854B
:105DFC00924441016FA080751307B0036360A7063E
:105E0C004111C16722C406C626C2FD172A84094562
:105E1C006382F502C547AE846313F4022E85EFA0AE
:105E2C00207A17E5FF1F1305651306042A94231027
:105E3C0094000145B2402244924441018280930770
:105E4C00A0036316F4002E85EFA0C070D9BFE31A2F
:105E5C00E4FC13F5F50FEFA02070E1B70945828043
:105E6C00011106CE2AC6EFE01FD8EF10907FEF107D
:105E7C00E059EF707158324597E7FF1F9387070C75
:105E8C00130700F02391E700238207007D5797E763
:105E9C00FF1F9387271D2381E7002380A700F24073
:105EAC00954505616F50B0061D7193970501CAC8E1
:105EBC0086CEA2CCA6CACEC6D2C4D6C2DAC05EDE0C
:105ECC0062DC66DA6AD86ED6C1872E8963DE075823
:105EDC0017E5FF1F03450519EFD0CFF58964416A1B
:105EEC00856A797B2A84938BD4007D1AA50A130CBE
:105EFC00ABFF1DE021653345A900F6406644D6444E
:105F0C004649B649264A964A064BF25B625CD25C1D
:105F1C00425DB25D25618280834704001307200A2D
:105F2C00639DE7000355240097E9FF1F83C93901DE
:105F3C002286D285EFF04F9D59A21307100997E9DD
:105F4C00FF1F83C949126398E7188347140015474C
:105F5C006390E7022285EFF0AF9F2285EFD06FE6CA
:105F6C0017E5FF1F03450510EFD0CFEC2A8451B77E
:105F7C003947639BE71803554400631B55050C44D4
:105F8C0083CC0500639D0C00850591C9194617E566
:105F9C00FF1F130525FC97A0FF1FE780407917E72B
:105FAC00FF1F0347A7F985476317F712638A0C0095
:105FBC0097E7FF1F238407F86685EFF0CFCC71BFFE
:105FCC00894717E7FF1F230BF7F6EFA0A05A71B70D
:105FDC0093872400631AF506832C8400638D0C0EC2
:105FEC0083C70C008DE383C72C0003C71C00A207DA
:105FFC00D98F17E7FF1F2317F7F483C73C0017E768
:10600C00FF1FA30DF7F217E7FF1F034727F389477D
:10601C006313F70C83C70C0081CB97E7FF1F238F0B
:10602C0007F003C50C0051BF8D4797E5FF1F83C5D3
:10603C00F5F017E5FF1F0355E5F017E7FF1F230FDA
:10604C00F7EEEF50C06FF1BF938754006318F50063
:10605C001C4403C50700EFF0CFEB01B7B307850174
:10606C00C207C18311476372F7049307ABFCAA976D
:10607C00139707014183F14763F1E7029387B4005B
:10608C006312F504938781929C43E38807EC9C434D
:10609C00A285E38407EC82971DA0B70700189387AD
:1060AC00F770B3D7E700858BB9CB938701939C43EB
:1060BC00E38507EA9C43E38207EA22858297E31E85
:1060CC0005E811A89387C4006310F5021C4483C72C
:1060DC000700E38407E89307F00FE380F9E8A28553
:1060EC004E85EFD04FDCADBD9387E4006319F5000E
:1060FC009387C1929C43E38207E6DC4351BF9387AD
:10610C001404E301F5F8C1BF3D476397E704035559
:10611C004400E30F75FD93879401E30BF5FC938723
:10612C003401E31AF5FA97E7FF1F83D787E1639EE3
:10613C0047019387C1929C43E38107E2DC43E38EE2
:10614C0007E0A28513853401B9B7938741939C432B
:10615C00E38507E09C43E5B71307E003E39DE7F60F
:10616C008347240005476397E70E83476400938DAC
:10617C000192F1E383A70D00D5CB83CC0700A14995
:10618C0003457400130D8400EA85EFE01FE9834793
:10619C004401A303A400835804010358E4000357EB
:1061AC0044002A86034534003EC283572401EA8604
:1061BC00E6853EC0CE87EFF02FC68347340095E7C7
:1061CC00DD47835804010358E4008346740083556B
:1061DC0044003EC2835724016A8705463EC066854B
:1061EC00CE87EF607072A301A40083A70D0081C756
:1061FC001145EFF0BF9F03C50194E30005D683C59D
:10620C001194EFE03F9CE30A05D4834634009307D6
:10621C001003638AF600035644004E8783C501942D
:10622C003685EFE03FB12380019405BB97ECFF1F4F
:10623C0083CCFCD0A9B7938701939C4397ECFF1FA9
:10624C0083CCFCCF91498DDFDC439DDB814501453F
:10625C0082973DB72947639EE70A83476400138DF5
:10626C000192C9EB83270D00C9C383CC0700A14958
:10627C0003457400930D8400937725001376150065
:10628C0089E7EE85EFE07FD92A8683470402A303D2
:10629C00C4008358C4010358A401035744000345A8
:1062AC0034003EC28357E401EE86E6853EC0CE87BD
:1062BC00EFF08FB68347340095E7DD478358C40170
:1062CC000358A40183467400835544003EC283578F
:1062DC00E4016E8705463EC06685CE87EF60D062CE
:1062EC00A301A40083270D0019B797ECFF1F83CCE3
:1062FC001CC5B5BF938701939C4397ECFF1F83CCC0
:10630C001CC49149B5D7DC43A5D78145014582977B
:10631C0085B70947639DE700938781929C43E38E81
:10632C0007C2DC43E38B07C2228582973DB12D4720
:10633C006399E700938781929C43E38007C29C4753
:10634C00D5B70D476397E70022868D45035544006A
:10635C00D5B619476395E70693056101130510310E
:10636C00EF7031112C0813052031EF70911003568A
:10637C006400835781010355440063E8C7008356CA
:10638C0084000357610163F7E60093050002EFA058
:10639C002022E1B66374E6002313E40063F4D70013
:1063AC002314F4000357C4008356A400035684003E
:1063BC008355640001488147EFA0401F79BE1D47FB
:1063CC00E38BE7D031476395E7002286B145BDBF2B
:1063DC0035476399E700938781929C43E38F07B617
:1063EC00DC4789B739476396E7002285EF00100335
:1063FC00ADB63D476399E700938781929C43E38E4A
:10640C0007B49C4B05B741476396E7002285EF0024
:10641C00D00BA1B645476396E7000145EF00B01AD3
:10642C002DBE4947639EE700938701939C43E38409
:10643C0007CADC43E38107CA81450545829761B9E8
:10644C004D47639DE700938701939C43E38507C801
:10645C00DC43E38207C8A2850945CDB76147E39CBD
:10646C00E7C62286E145DDB593F7150081CF93870A
:10647C0081929C4389C7DC4399C30145829713459C
:10648C001900A5BC93F7250089CF938701939C43F2
:10649C0091C7DC4381C78145054582971345290087
:1064AC00A9BC93F745000145E38907A49387419262
:1064BC009C4399CF854717E7FF1F2303F7A89387C2
:1064CC0001939C4391C7DC4381C781450545829765
:1064DC0097E7FF1F938787A6C8472C08EF80F07DAE
:1064EC002808EFF02F9F97E7FF1F83D747A981CF8D
:1064FC00130600643386C702914517E5FF1F034559
:10650C0065B6EFD08FED13454900C5BA011122CC09
:10651C002A84554506CE26CAEFF08FC3AA841305EC
:10652C004002EFF0EFC22AC613055002EFF04FC243
:10653C00AA86228562443246F240B3359000D2449A
:10654C0005616FA0000D797122D406D68D472E847B
:10655C00631FF50003D7A50083D6850003D665001D
:10656C000345340083D54500EFE07FFA09A889671D
:10657C001387D7006310E50403C5250019E585478B
:10658C00B25022543E854561828093870192944398
:10659C00FDD603C6360083C50600814802C202C080
:1065AC000148814701479106EFF00F870545EFF051
:1065BC00EFE3F1B71387E700E303E5FC138737013B
:1065CC00631AE50003C525005DD9014781460146E4
:1065DC00814559BFE507E304F5FAB1476319F500A6
:1065EC0017E5FF1F0345B595EFE09FFD49BF4167D8
:1065FC007D178147E316E5F803C75500C947E3103B
:10660C00F7F883D6E50003D6C5000355840083D57F
:10661C00A500EFA0800051C15D45EFF06FB333359D
:10662C00A000231CA100834544000355240030081E
:10663C00EF60206583578101B9F36C0813051031A5
:10664C00EF7021639305E10113052031EF70616256
:10665C008357C101035784006374F7002314F400BB
:10666C008357E1010357A40063F4E7002315F400FA
:10667C00835584008357A40063F4B7002315B4003A
:10668C000357E4008356C4000356A40003552400AA
:10669C0001488147EF90906FDDB58547231CF100D1
:1066AC0059B717E7FF1F0347579C9307F00F630970
:1066BC00F70859C5411122C426C206C6AA8403454F
:1066CC00A5004105EFC0BFF22A8435C59307000D24
:1066DC002310F500D9472301F50083D7440023127A
:1066EC00F50083C764002303F50083C77400A3037C
:1066FC00F50083C784002304F50083C79400A3042A
:10670C00F50003C6A4002305C5001DC2CC444105F9
:10671C0048C497A0FF1FE7808001A2852244B240A5
:10672C00924417E5FF1F0345559441016FC0BFF715
:10673C0023260500DDB7B2402244924441018280F9
:10674C008280C1671387E7FF639DE5009387019201
:10675C009C4395C383C707000D47639CA7006F90AC
:10676C003062FD1749476396F500938701929C436D
:10677C00FDF73A8582804947EDBF797122D406D660
:10678C0026D24AD04ECE52CC56CA5AC80347050020
:10679C0085472A84630AF70403468500930695000F
:1067AC009305E1000545EFE00FEA814719C18347E6
:1067BC0005008346040011476380E6041387419467
:1067CC0018438D46034717006308D70295C70DC7BA
:1067DC0019ED0145B250225492540259F249624AC1
:1067EC00D24A424B4561828081470145D9B78546E3
:1067FC006318D7028D8BF1DF03451400130A2400B4
:10680C00D285EFE09F81A300A40013898194832794
:10681C000900AA8A81499304F00F99EB05455DBFE5
:10682C008946E318D7FA858BF9B7850993F9F90FDF
:10683C0083C7219463FDF90203250900139B4900CA
:10684C005A9583470500E38297FE83471500E39E24
:10685C0057FD1946D285090597A0FF1FE78020F642
:10686C0069D58324090003470400DA9485EC834638
:10687C0004009147E38FF6F483270900B9DB03C6C4
:10688C00219401479305F00FE305E6F4BE84C1079C
:10689C0003C507FF630EB50A05071377F70FEDB7AE
:1068AC0088C4F5A09147631AF706C84405C5834709
:1068BC008400034605006304F60603470400914771
:1068CC00631DF706C84419C597B0FF1FE780205118
:1068DC0023A604000345840091659385E5710505A5
:1068EC0097B0FF1FE780804205C50347040091471E
:1068FC00631EF704C8C48347840093059400050500
:10690C00A30FF5FE0346840097A0FF1FE78020E24B
:10691C00034584003335A00075BD884441BF930501
:10692C009400050597A0FF1FE78060E98547E316F3
:10693C00F5F85545EFF0CF81BDA8884441DD97B0FF
:10694C00FF1FE780C04923A4040069B788C465B75A
:10695C002380D40083471400D28513852400A380A0
:10696C00F400194697A0FF1FE78060DC0345840004
:10697C0091659385F571050597B0FF1FE780003988
:10698C0005C5034704009147E31CF7F0C8C48347CF
:10699C008400930594000505A30FF5FE03468400BF
:1069AC0097A0FF1FE780A0D883478400E39807E6F1
:1069BC00034504007D151335150029BD797122D4CA
:1069CC0026D24ECE52CC06D64AD056CA5AC82A84A3
:1069DC009309250003451500CE8593844194EFE07F
:1069EC00CFE3A300A4009C400D472A8A83C717005D
:1069FC00639BE7001389819483270900814A639183
:106A0C000718054535A0FDD7144C034674019305B2
:106A1C00E1000545EFE02FC31DC99840854683472B
:106A2C00050003471700631FD7008D8BE1F7014565
:106A3C00B250225492540259F249624AD24A424B01
:106A4C00456182808946858BE316D7FAC5B78347A3
:106A5C00040011476385E7002D47E39AE7FC938414
:106A6C0081949C40E9D7814A01491DA88840139B19
:106A7C004A00834704005A95034705006311F70247
:106A8C0083471500639D47011946CE85090597A0DC
:106A9C00FF1FE780C0D201C503A904005A99850ADB
:106AAC0093970A0103C72194C183E3E1E7FCE31345
:106ABC0009F4B5BF93944A00269503470500834714
:106ACC000400631EF70A83471500639A470B1946A7
:106ADC00CE85090597A0FF1FE78060CE4DC18327A7
:106AEC0009001147BE94834704006385E7002D47D6
:106AFC00639DE70203AAC4008347740103460A009E
:106B0C006308F602528597B0FF1FE780402D0345BE
:106B1C00740191659385E571050597B0FF1FE780BA
:106B2C00E01E15E5E39F04ECADA003AA8400E9B7D1
:106B3C000C4C13051A0097A0FF1FE78040C885472F
:106B4C00E312F5FC5545EFE0BFE069DDCDB58347B9
:106B5C00040011476385E7002D476390E702C8C422
:106B6C00834774010505A30FF5FE034674010C4C15
:106B7C0097A0FF1FE780A0BB75B788C4D5B7850A5F
:106B8C0093970A0103C72194C18303250900E3E30A
:106B9C00E7F283C621940327090081471306F00FFF
:106BAC0011A8BA844107834507FF638AC50085078E
:106BBC00C207C183E3E7D7FEA9B588C499A0834770
:106BCC000400CE85138524002380F4008347140031
:106BDC001946A380F40097A0FF1FE78040B503453A
:106BEC00740191659385F571050597B0FF1FE780DA
:106BFC00E011E30805E0034704009147E31FF7FAAF
:106C0C00C8C4834774010505A30FF5FE0346740140
:106C1C000C4C97A0FF1FE78080B1E5B317D7FF1F7F
:106C2C000347B7449307F00F6300F70A51CD4111A6
:106C3C0026C2AA84514522C406C64AC0EFC03F9B57
:106C4C002A842DCD9307000D2310F500D547230181
:106C5C00F50083C7340013898400CA85A301F500AD
:106C6C0083D744002312F50083C764002303F50087
:106C7C0003C57400EFE06FBAA303A400CA85130523
:106C8C008400194697A0FF1FE78060AA83C7E40021
:106C9C00A28517D5FF1F0345553D2307F40083D765
:106CAC0004012318F40083C724012309F4002244AF
:106CBC00B2409244024941016FC0FF9EB24022444F
:106CCC009244024941018280828017D7FF1F0347FB
:106CDC00D7399307F00F6304F70431C1411122C473
:106CEC002A84194506C6EFC09F90AA850DC5930747
:106CFC00000D2310F500DD472301F50083574400F8
:106D0C002244B2402312F50017D5FF1F0345F53579
:106D1C0041016FC05F99B240224441018280828060
:106D2C00011122CC138481941C4006CE26CA4AC879
:106D3C004EC652C499CF2E8AAA84014908406312C8
:106D4C009902630C0A0497B0FF1FE780400923A443
:106D5C000194F2406244D2444249B249224A05614C
:106D6C00828093194900B3073501884709C997B048
:106D7C00FF1FE780C0061C40CE9723A407001C40D1
:106D8C00CE97C84709C997B0FF1FE78040051C4044
:106D9C00BE9923A60900050955B745DD1396440095
:106DAC00814597A0FF1FE780009C144081477D56CA
:106DBC0013F7F70FE37F97F81397470036972300E5
:106DCC00C7008507F5B7011152C4138A4194832774
:106DDC000A0006CE22CC26CA4AC84EC656C25AC093
:106DEC00C9CF2A89014419ED93878194944399CA98
:106DFC0003C621942A8481479305F00F13F7F70FEC
:106E0C006367C708131534002105EFC04FFEAA8431
:106E1C0001E92145EFC0AFFDAA8421C501444D49CC
:106E2C00930700FD2380F4008547A3802401238170
:106E3C00F400A38184005DC41389840023A224017F
:106E4C008149938A8194130BF00F83C7219463F3C8
:106E5C00F90031E883270A00A68503C50700EFC0B7
:106E6C009F84814503C52194653D03250A0097B095
:106E7C00FF1FE780C0F623A20194F2406244D24483
:106E8C004249B249224A924A024B056182801397C9
:106E9C0047003697034707006305B70005041374D2
:106EAC00F40F8507A1BF83A70A0093954900BE95EF
:106EBC0083C70500638467032300F90083C71500AB
:106ECC00130529007D14A300F900194689051374D4
:106EDC00F40F97A0FF1FE78080852109850993F99E
:106EEC00F90FA5B723A20400B5B7938741949C432F
:106EFC00B1C7411122C406C62A841DE10945EFE041
:106F0C003FA52A8601C9854517D5FF1F0345851561
:106F1C00EFC0BFCC0545EFF06FDF2A84054519C8DB
:106F2C00854517D5FF1F0345E513EFC0DFEB228521
:106F3C00593D0545B2402244410182800145828081
:106F4C0089679386B7006316D5009C4503C5070077
:106F5C0069BF9386C7006318D5009C45854603C559
:106F6C00070019C9F5B793861704E300D5FE93877C
:106F7C0027048146E303F5FE36858280797106D6B7
:106F8C0022D426D24AD04ECE52CC56CA5AC85EC64D
:106F9C0079C983473500AA8985C7404115C0594531
:106FAC00EFE01F9B931A850193DA8A410149138AFA
:106FBC004194130B000DB54B83C73900636DF90079
:106FCC00B250225492540259F249624AD24A424B6C
:106FDC00B24B456182808307840263CD57078327B8
:106FEC000A00ADCB2285EFF04FF92DC50345840087
:106FFC005105EFC0CFDFAA8431CD231065012301E9
:10700C00750183470400194693052400A301F5007C
:10701C008307840215052303F50083471400A30F8F
:10702C00F5FE9790FF1FE78080700346840023864F
:10703C00C4001DC61385440188C89305940097901D
:10704C00FF1FE780C06E83270A00A68503C50700D3
:10705C00EFC06FE50509130494021379F90FA9BF6A
:10706C0023A80400CDB7938741949C43B1DBA13B8B
:10707C002254B25092540259F249624AD24A424BBB
:10708C00B24B014545616FF06FC8797106D622D4B9
:10709C0026D24AD04ECE52CC56CA5AC85EC671C100
:1070AC0083473500AA8985C7444195C05945EFE00F
:1070BC003F8A931A850193DA8A410149138A4194D4
:1070CC00130B00FDC14B83C73900636DF900B2503F
:1070DC00225492540259F249624AD24A424BB24B60
:1070EC00456182808387F40063C8570783270A00B1
:1070FC00A5C75145EFC0AFCF2A8439CD2300650118
:10710C00A30005002301750183C70400194693856C
:10711C002400A301F5008387F4001505A306F500F0
:10712C0083C71400A30FF5FE9790FF1FE780206024
:10713C0083C78400938594001305C400A305F40051
:10714C0019469790FF1FE780805E83270A00A2856F
:10715C0003C50700EFC02FD50509C1041379F90F3A
:10716C009DB7938741949C43BDD3EFF0DFC5225468
:10717C00B25092540259F249624AD24A424BB24B33
:10718C00014545616FF08FB85D7186C6A2C4A6C279
:10719C00CAC04EDE52DC56DA5AD85ED662D466D2FB
:1071AC006AD06ECE630F0520834735002A8985CBC4
:1071BC00404115C45945EFE0AFF993178501E187BC
:1071CC003EC6814493894194130A000DC94B354C3A
:1071DC009D4C294D994D8347390063E1F402B6402B
:1071EC00264496440649F259625AD25A425BB25B23
:1071FC00225C925C025DF24D616182808307C40067
:10720C00324763CCE71083A7090063880710034B50
:10721C00040093770B01D5CBCD47631BFB062300F2
:10722C0004002285EFF08FF96DC9834704001147E4
:10723C00034574016368F70E5105EFC04FBBAA8A72
:10724C0069CD23104501230185010347040019462C
:10725C0093052400A301E5000307C40015052303CF
:10726C00E50003471400A30FE5FE9790FF1FE7808E
:10727C00004C034674012386CA0059C613854A0183
:10728C0023A8AA000C4C9790FF1FE780404ABDA88A
:10729C00D5476318FB0085472300F400A30B0400BB
:1072AC0049B7F547E309FBFEC9476316FB0089475D
:1072BC002300F400BDB7C1476314FB008D47CDBF5D
:1072CC00ED47E310FBF69147E5B793778B0099C335
:1072DC00AD47F9BF93761B0093774B0091C699C3CA
:1072EC0095475DBFA147E9B793762B0099C699C323
:1072FC00A5475DB72300B4012DB781C72300A401B6
:10730C000DB72300940131BF23A80A0003A709007D
:10731C00D68503450700EFC00FB98504710493F4BB
:10732C00F40F55BD13050502EFC06FACAA8A75D5D5
:10733C0023104501230175018346040013770B06C6
:10734C001946558FA301E50003471400930524004B
:10735C001505A30FE5FE9790FF1FE780403D0347FF
:10736C008400194693051401A385EA000347940091
:10737C0013853A012386EA000347A400A386EA009A
:10738C000347B4002387EA000307C400A387EA007D
:10739C000357E4002398EA00034704012389EA0019
:1073AC009790FF1FE780A03803467401A38CCA0096
:1073BC0011C613850A0223AEAA00E9B523AE0A0052
:1073CC00B1B7938741949C43E38B07E0EFF0BF9FE9
:1073DC002644B64096440649F259625AD25A425B48
:1073EC00B25B225C925C025DF24D014561616FF013
:1073FC00EF9197D7FF1F83C727C7A18B17D5FF1F07
:10740C001305C5BE91E301456FD0BF98238101944C
:10741C00FD5717D7FF1FA30AF7C423A4019423A277
:10742C00019497D7FF1F938727BB170700001307FB
:10743C0067B198C317070000130787B4D8C31707A1
:10744C0000001307C7C498C717070000130707D419
:10745C00D8C717F7FFFF1307072598CB97D7FF1F40
:10746C009387C7B817F7FFFF1307E72D98C317F7D4
:10747C00FFFF1307870DD8C38280411122C48545B5
:10748C002A8403C5219406C6EFF09F8997D7FF1F66
:10749C0083C787BDA98BB5CB17D5FF1F1305C5B304
:1074AC0023818194EFD09F8E138481941C4091C7CB
:1074BC004D45B24022444101828003C5219419E11B
:1074CC000145C5BF91659385B571120597B0FF1F36
:1074DC00E780C08323A4A19461DD03C62194120626
:1074EC0081459790FF1FE7800028104083C62194A8
:1074FC008147FD5513F7F70FE374D7FC139747003B
:10750C0032972300B7008507F5B701452381019415
:10751C00EFD0DF8775B793874192884301CD411136
:10752C0006C697B0FF1FE780808BB24023A2019262
:10753C0041018280828001111305700306CEEFE0B9
:10754C002FC12AC613058003EFE08FC02AC4130590
:10755C009003EFE0EFBF2246B245F240AA86054504
:10756C0005616F90400A5971A2D4138441921C405A
:10757C0086D6A6D2CAD0CECED2CCD6CADAC80545CB
:10758C00F9C79305F1041305F041EF50810D9305F4
:10759C00F1041305F041EF50C10C8346F10417D7E9
:1075AC00FF1F0347C799B337E00091C28907184002
:1075BC003EDE0345370093054700EFD09FA11840EE
:1075CC002ADC0D45834527002EDAEFE06FB82AD868
:1075DC001145EFE0EFB700402AD665450347A400FC
:1075EC00034BB4003AD4EFE0AFB6AA846945EFE0A0
:1075FC002FB62A897145EFE0AFB5AA896D45EFE04A
:10760C002FB52A8A7545EFE0AFB4AA8A7945EFE029
:10761C002FB4E2046258F2572257B2564256D25552
:10762C001375F50F93FAFA0F137AFA0F93F9F90F02
:10763C001379F90FE1842ACC56CA52C84EC64AC4F3
:10764C0026C25AC0930844000545EF803078B650E6
:10765C00265496540659F649664AD64A464B6561F5
:10766C008280011122CC06CE8D472E846316F5063E
:10767C0003C73500E94703D545006318F70097D7D2
:10768C00FF1F83D7078C6385A706EF50006F09C5D2
:10769C00835764002317F5000357A4008356840016
:1076AC00035664008355440003453400EFD03FE695
:1076BC000357440097D7FF1F83D7A7886308F700A9
:1076CC008547F24062443E8505618280FD5717D79D
:1076DC00FF1F2318F786EDB78967CD07631DF500EB
:1076EC0083C7250031476385E7004547E39AE7FCEC
:1076FC00EFD0AFF0F1B7B1476319F50017D5FF1F05
:10770C0003459596EFD0DFEB65BF41677D17814749
:10771C00E319E5FA83C655004947E394E6FA83C5B5
:10772C00450003552400300023140100EF50405055
:10773C0041BF411122C426C206C683C7C194130798
:10774C00E00F2A84AE846382E7041307F00F63868C
:10775C00E7021145EFB0BFE90DC1930700FD23000F
:10776C00F5008947A30095002301F500A3018500CE
:10777C00AA8503C5C194EFB01FF3F9572386F19482
:10778C00B24022449244410182801145EFB03FE661
:10779C0065D9930700FD2300F5008947A3009500E8
:1077AC002301F500A30185002244B2409244AA852E
:1077BC0003C5D19441016FB01FEF79714AD0138981
:1077CC0041928327090022D406D626D24ECE52CC23
:1077DC004544C5EF97D7FF1F83C70789958B49444D
:1077EC00CDC7AE899165A386A194AA849385757142
:1077FC00314597A0FF1FE780605123A2A1924D4411
:10780C0049C523009500A30005002946CE8509052E
:10781C009790FF1FE780A0F183270900914603C7CB
:10782C00270063EEE6083DEB4D472381E70003C7D5
:10783C002700136707012381E700930571001305E7
:10784C00F041EF40116283477100F9EB17C7FF1F3E
:10785C000347E76E8D476315F70CEFD01F862C009E
:10786C00EF70B0452800EFD0FFE64545EFE04F8EB6
:10787C00014401CD130600643306C502914517C5BA
:10788C00FF1F0345257EEFC04FB52285B250225411
:10789C0092540259F249624A4561828085466314CA
:1078AC00D700754759B789466314D7004947B5BF08
:1078BC008D466314D70041478DBF5547BDB79546DC
:1078CC004A8A630ED70099466316D700094723816D
:1078DC00E70031A01D466314C702238107006545EC
:1078EC00EFE00F879307F007E309F5F403270A008D
:1078FC008347270093E707042301F7003DBF214688
:10790C006314C7000547E1B725466315C7002381FB
:10791C00D700F1B7A9460544E319D7F6114745BF7F
:10792C00EFF07FC42A8435D1EFF0FFBEB9BF01114F
:10793C0026CA938441929C4022CC06CE4944A9C7C6
:10794C0083C707000D446391A704894517C5FF1F22
:10795C0003454571EFC02FC9914517C5FF1F03455E
:10796C00657023970194EFC00FC89C400147814676
:10797C00A38087001306F100854785450145A307C1
:10798C00F100EF8010482A842285F2406244D244F0
:10799C0005618280011106CE22CC26CA8547631967
:1079AC00F50683D7E194B1CB17C7FF1F034747599F
:1079BC0029E71307B003636DF702894517C5FF1F4D
:1079CC000345456AEFC02FC29307006403D6E194C8
:1079DC003306F602894517C5FF1F0345A568EFC09E
:1079EC00CF9F23970194F2406244D2440561828078
:1079FC00938747FC2397F194FDB7938741929C435F
:107A0C00FDD36244F240D24403C50700056105B7BB
:107A1C00938441929C40E1DB97C7FF1F83C7C764E7
:107A2C00918BF1D389476313F5062D452EC6EFB024
:107A3C001FBC2A844DD9B245930700FD2300F500E5
:107A4C00E547A30005002301F50083C735001505A4
:107A5C001946230FF5FE83C745009505A30FF5FEC8
:107A6C009790FF1FE780A0CC17C5FF1F0345D55F7C
:107A7C009307F00F6315F5009C4003C50700A28522
:107A8C006244F240D24405616FB0FFC1894517C50D
:107A9C00FF1F0345255DEFC00FB56244F240D24491
:107AAC002397019405616FF01FA797C7FF1F83C72A
:107ABC00A75B958B91CB9387C1959C4381CB8547D5
:107ACC002388F1946FF03FA749458280414582801D
:107ADC0023880194854501456F8070339307C01C42
:107AEC0063FCA700094582800945F2406244D244F8
:107AFC004249B249056182805DC5011122CC2A84BC
:107B0C0021054EC64205AE8991659385657141810B
:107B1C004AC806CE26CA97A0FF1FE780201F2A89D5
:107B2C0061D593848195884009C597A0FF1FE78094
:107B3C00002B130589002320A9002286814523AC44
:107B4C0021959790FF1FE78000C29C402286CE852E
:107B5C0088439790FF1FE78080BD9C40239287004D
:107B6C00938741929C4385CF97C7FF1F83C7C74F0D
:107B7C00958B85CB938781959C4399CF984383D6DE
:107B8C0047006244F240D2444249B24905468D4511
:107B9C00054505616F80702601478146DDB70145BB
:107BAC00A9B7494599B7938741929C438DC797C70D
:107BBC00FF1F83C7674B958B8DC3938781959C4320
:107BCC0081CB984383D6470005468D450545D9B7EB
:107BDC0001478146D5BF0145828049458280930784
:107BEC00C01C63FCA700094582800945F240624431
:107BFC00D2444249B249056182805DC5011122CC53
:107C0C002A8421054EC64205AE899165938555712E
:107C1C0041814AC806CE26CA97A0FF1FE780000FF5
:107C2C002A8961D593840196884009C597A0FF1FC6
:107C3C00E780E01A130589002320A90022868145DC
:107C4C0023A021979790FF1FE780E0B19C402286EC
:107C5C00CE8588439790FF1FE78060AD9C402392B0
:107C6C008700938741929C4385CF97C7FF1F83C79B
:107C7C00A73F958B85CB938701969C4399CF9843CF
:107C8C0083D647006244F240D2444249B249054689
:107C9C008D45054505616F80901601478146DDB71E
:107CAC000145A9B7494599B7938741929C438DC724
:107CBC0097C7FF1F83C7473B958B8DC3938701964F
:107CCC009C4381CB984383D6470005468D4505459B
:107CDC00D9B701478146D5BF01458280494582808D
:107CEC009307C01C63F4A70009458280797122D4E4
:107CFC004ECE06D626D24AD0AE892A8431CD210565
:107D0C009165420593857571418197A0FF1FE780AE
:107D1C00E0FF2A890945630109089384C1958840CD
:107D2C0009C597A0FF1FE780800B1305890023204E
:107D3C00A9002286814523AE21959790FF1FE780ED
:107D4C0080A29C402286CE8588439790FF1FE780B7
:107D5C00009E9C4023928700938741929C4301454F
:107D6C0085CF97C7FF1F83C72730958B49458DC794
:107D7C006C001305D030EF50D16FB247014593F72B
:107D8C00070F99CB9387C1959C438D45054594432B
:107D9C0003D64700EF807007B25022549254025918
:107DAC00F24945618280938781959C4391CF03D69C
:107DBC0047008C43411106C69790FF1FE780209720
:107DCC00B2400145410182800945828093878195AB
:107DDC009C4385C7938701969843894705C30356EF
:107DEC0047000C43411106C69790FF1FE780209473
:107DFC00B24081473E854101828089473E85828021
:107E0C00938781959C4385C79387C19598438947F0
:107E1C0005C3035647000C43411106C69790FF1F3C
:107E2C00E780E090B24081473E85410182808947DE
:107E3C003E85828097C7FF1F83C70723918B99CFFD
:107E4C0041111385419506C6EFC07FF5B240FD5731
:107E5C0017C7FF1F2317F70E4101828001456FC022
:107E6C001FF4FD57A386F194F9572386F1942388C8
:107E7C0001942397019423AC019423A0019623AE83
:107E8C00019497C7FF1F9387E7F8170700001307A4
:107E9C00E71C98C317070000130707B0D8C317F7E0
:107EAC00FFFF1307876C98C717F7FFFF1307E768E7
:107EBC00D8C797F7FFFF9387077B23AAF19482809B
:107ECC00411126C2938441929C4006C622C485CFA0
:107EDC002A840D45EFB0AFF1AA8519CD930700FDAB
:107EEC002300F5008D47A30085002301F5009C407D
:107EFC0003C50700EFB02FFB19C42244B2409244D3
:107F0C0041016FF04FE1B240224492444101828022
:107F1C0079714ECE9389419283A7090026D206D659
:107F2C0022D44AD052CC8144A1C783C417008547C0
:107F3C002A896388F40497C7FF1F83C767008544A9
:107F4C0085EB0D45EFB0AFEAAA8505C1930700FD9F
:107F5C002300F5009147A30025012301F50083A719
:107F6C00090003C50700EFB00FF4EFF0CFDA85443A
:107F7C00B2502254268502599254F249624A456104
:107F8C008280938781959C434E8A85E30145EFD08F
:107F9C003F9C2A8601CA894517C5FF1F0345850CDE
:107FAC00EFB0BFC383270A00B1A0944303D64700A8
:107FBC009305E1000545EFC01FE969D9834705002A
:107FCC00858BE9D70545EFD0BF989307B0032A847A
:107FDC0063F2A7045D6613060670894517C5FF1F7B
:107FEC0003454508130444FCEFB09FDA23978194B2
:107FFC0083A709000947A380E70097C7FF1F83C722
:10800C0027F491C797C7FF1F238C07F295B74A85B2
:10801C00453DB9BF130600643306C502A5BF411127
:10802C0022C42A840D4506C6EFB06FDC15C1930738
:10803C0000FD2300F500CD47A30085002301F500CA
:10804C002244B240AA8503C5D19441016FB0AFE57B
:10805C00B2402244410182800357450001118967D7
:10806C0006CE22CC26CA938667006319D7001C451E
:10807C00014583C50700EFF0CFEB2DA89386870051
:10808C006317D7001C45054583C50700EDB79386DC
:10809C0097006313D702938741929C43014495C781
:1080AC0018450345070041E90547A380E70005454E
:1080BC00EF80C04C054411A89386A700631DD70020
:1080CC001C4503C50700A9352A842285F240624469
:1080DC00D2440561828093866703E30AD7F89386BE
:1080EC007703E301D7FA938687036319D704938444
:1080FC0041929C400144F1DB1C4503C5070005ED92
:10810C0005447D4523058100EFD09F842316A100F3
:10811C0013050002EFD0DF839C40A305A1001307D9
:10812C00B100A380870074001306A10085450545A6
:10813C00EF80204D41B7EFF0BFD8ADBF93869703CA
:10814C00E300D7F89386E7036317D7001C4509456E
:10815C0083C507000DB79387F703631DF7021C4512
:10816C0003C507002DED6C001305D030EF507130B6
:10817C00B247414793F7070FE38EE7F29305B1003F
:10818C0013056031EF50F12E0345B1008545EF80AA
:10819C0000480DB78967938707040144E317F7F28A
:1081AC001C4583C4070083C7019526858DEB0D45BF
:1081BC00EFB0EFC3AA850544E30905F0930700FD72
:1081CC002300F500D147A30095002301F500938708
:1081DC0041929C4303C50700EFB0EFCCFDB5813550
:1081EC00D1BD411197C7FF1F83C707E806C6958B02
:1081FC0099CB17C5FF1F1305E5C1EFC0FFB94D455E
:10820C00B240410182800145EFC01FB90145CDBF8D
:10821C0003C70500937625009377D70F99C2936710
:10822C002700131885011358884113F7F707635477
:10823C00080013E70708937685009377770F99C2A8
:10824C00936787001377050293F6F70D19C393E62E
:10825C0007022380D500634508009377A50281CBE4
:10826C008347060093E7C7002300F60082807DFD5C
:10827C0083470600CD9BCDBF2D456319071403C85A
:10828C00050009476310E814C8410347150003456E
:10829C0005002207498F42070D654187930825A0E9
:1082AC00630B170B011122CC26CA4AC84EC606CE48
:1082BC00BE89B68432842E8963CEE800930705A06C
:1082CC00630DF702130515A06300A70623900400A5
:1082DC000545B5A0930745A06309F7086348F70661
:1082EC00130565AAE314A7FE85472390F600DC4529
:1082FC0083C707002300F60091A0C8459780FF1F95
:10830C00E7808047420541814E86637335012A869A
:10831C002390C400420641828325C90022859780A0
:10832C00FF1FE780C04019A8DC4583D707002390C6
:10833C0006012300F600A183A300F6000145F240DC
:10834C006244D2444249B2490561828099472390E4
:10835C00F6001946D1B785472390F600DC45014558
:10836C0083C707002300F6008280DC45A9CB214798
:10837C002390E60003D707002300E60003D707008D
:10838C002183A300E60003D727002301E60003D7CF
:10839C0027002183A301E60003D747002302E60050
:1083AC0003D747002183A302E60003D7670023030A
:1083BC00E60083D76700A183A303F60041B723909F
:1083CC000600ADBF2390060005458280828083C8DD
:1083DC00050089476398F814DC41797122D406D6DC
:1083EC0026D24AD04ECE52CC03C8170083C7070002
:1083FC002E8422083368F80042088D671358084110
:10840C00138327A0630168102A8A3A89B684B2853F
:10841C00634C0301138707A0630AE802938717A034
:10842C006308F808854711A8138737A06309E80A81
:10843C00138767AA8D47E317E8FEB2502254925473
:10844C000259F249624A3E8545618280484432C6EF
:10845C009780FF1FE7804032420541819D47E36EC4
:10846C0025FDB3099900D547B24563D43701B5470B
:10847C00E9B748442686C2094A959780FF1FE780D2
:10848C00002B484493D9090159463306364181459E
:10849C004E959780FF1FE780002D938781969C4314
:1084AC0099E3814759BF9C438145E5DF528535A04F
:1084BC00AD47E31409F8E39C16FB8347160083468B
:1084CC0006005844A207D58F2310F7009387819696
:1084DC009C43E1DB9C438545E9D78297D9B7AD47EF
:1084EC00E31D09F49947E394F6F84844194697803C
:1084FC00FF1FE780C023938781969C43DDD39C4369
:10850C00CDD38D4565B7AD470DFB8547E391F6F6A9
:10851C000347060093070008E3E1E6F2DC452380FD
:10852C00E70041B785473E85828023A401968947A1
:10853C00A385F18217C6FF1F1306068F8147594783
:10854C00B306F600238006008507E39BE7FE894708
:10855C002384F1822386F182239201963707A000AF
:10856C001307070523A8E1823707E80323AAE18252
:10857C002385F1820547A384E18297A6FF1F238FF1
:10858C00F6D02383019697C601009386E6EC97A557
:10859C00FF1F23A7D5D097A6FF1F2385E6D097A64C
:1085AC00FF1F239206D097C60100938626E897A555
:1085BC00FF1F23ABD5CE97A6FF1F2389F6CE97C6F8
:1085CC0001009386E6E797A5FF1F23A3D5CE97A5B9
:1085DC00FF1F2381E5CE97A5FF1F239E05CC938516
:1085EC00B18217A5FF1F2329B5CC97A5FF1F2387A1
:1085FC00F5CC97C50100938525E517A5FF1F232111
:10860C00B5CC97A5FF1F23A1C5CC17A6FF1F23210F
:10861C00D6CC17A6FF1F230FE6CA17A6FF1F2307EA
:10862C00F6CA17A6FF1F231806CA1386818297A5C0
:10863C00FF1F23A3C5CA17A6FF1F2301F6CA17C61F
:10864C000100130626DF97A5FF1F23ABC5C817A68D
:10865C00FF1F2309E6C817A6FF1F231606C813869B
:10866C00419697A5FF1F238FE5C497A5FF1F239C59
:10867C0005C497A5FF1F23A9C5C617A6FF1F23294D
:10868C00D6C617A6FF1F2307E6C617A6FF1F230F84
:10869C00F6C417A6FF1F231006C61386C18297A522
:1086AC00FF1F23ABC5C417A6FF1F2309F6C417C6AB
:1086BC000100130626DA97A5FF1F23A3C5C417A62E
:1086CC00FF1F2301E6C417A6FF1F231E06C2138635
:1086DC00018397A5FF1F23A9C5C217A6FF1F232936
:1086EC00D6C297A6FF1F2387E6C297A6FF1F239427
:1086FC0006C29386A18217A6FF1F232FD6C017A6EA
:10870C00FF1F2305F6C097A6FF1F2389F6C097C746
:10871C000100938767D297A6FF1F23A3F6C097A7E4
:10872C00FF1F2381E7C097A7FF1F239E07BE9387D8
:10873C00918217A7FF1F2329F7BE97070000938785
:10874C00E7B317A7FF1F2323F7BE970700009387F4
:10875C0047C817A7FF1F232DF7BC97A7FF1F23ABF5
:10876C0007BC8280A54763EEA70C17B7010013075F
:10877C00E75D0A053A951C41411122C426C206C682
:10878C00BA97B2842E848287D547614563E7B702D6
:10879C005946814517B5FF1F130505699780FF1FC3
:1087AC00E78060FC2286A68517B5FF1F1305C567F9
:1087BC009780FF1FE780A0F70145B2402244924406
:1087CC004101828089476145E399F5FE8357060094
:1087DC002392F196D5B7A1476145E390F5FE21466A
:1087EC00A68513850183EF903171F9B785476145F3
:1087FC00E395F5FC97A7FF1F938747AAD04F97A542
:10880C00FF1F938525AC03C50400EFF07FA06DB767
:10881C0085476145E393F5FA97A7FF1F938707A850
:10882C00D05F97A5FF1F9385E5ABF1BF85476145E9
:10883C00E395F5F883470600A384F182B5BF09459B
:10884C00ADBF0945828083C7619695E38547238335
:10885C00F196058909CD97A6FF1F938626AD414653
:10886C00A54517A5FF1F130565A36F20A03401456F
:10887C00828001111388F5FF06CE22CC26CA4AC885
:10888C004EC652C41378F80FAD4563EE050BBA898A
:10889C000A0817B701001307E74D3A983E8A832759
:1088AC0008003689B284BA9782878545EFC06FED90
:1088BC002A8419E1EFF0FF922285F2406244D244FF
:1088CC004249B249224A056182808945EFC06FEB6B
:1088DC002A847DF12685EFE05FBAF9BF9145EFC0A0
:1088EC004FEA2A8471F95286CE854A85EFC0CFDED5
:1088FC00EFF03F8FEFF00FD4EF60107175BFA14513
:10890C00EFC02FE82A844DF95286CE854A85EFC0F8
:10891C00AFDC2685EFE07FB6EFE0BFADEF60305007
:10892C0061BFB145EFC0EFE52A8459F55286CE857B
:10893C004A85EFC06FDA2685EFE03FB4EFE07FABFE
:10894C00EF60F04D75B7094485BFBD47638CF506E4
:10895C0063E9B702A5476387F50663EDB70099474E
:10896C00638CF5049D47638FF5049547638CF50480
:10897C0001458280B5476387F50463E1B704AD47D1
:10898C00F5B7DD47638EF50263EAB700C947638B21
:10899C00F502D9476386F502C547C9BFF54763831E
:1089AC00F50263E4B700ED47D1B793072005638B5D
:1089BC00F5009307200D5DBF4845828008418280F9
:1089CC0008458280484182809307F00F630EF506BC
:1089DC00011126CAAA841305000222CC4AC84EC62D
:1089EC0052C456C206CE3A89B689B28A2E8AEFA0F4
:1089FC001FC02A844D4515C8930700FB2300F400C3
:108A0C00A3005401231144012302340113058400F3
:108A1C00614663050902CA859780FF1FE78020D154
:108A2C00A2852685EFA03FC80145F2406244D2449E
:108A3C004249B249224A924A056182808145978017
:108A4C00FF1FE78040D2E9BF09458280011122CC8B
:108A5C0006CE2A842306B100A306C100EF40E03104
:108A6C0005C10347C500A1476310F70278009306C0
:108A7C00E0070146A28517B5FF1F0345055FA9371F
:108A8C00F24062440561828078009306E00701465B
:108A9C00A28517B5FF1F0345355DD5B79307006455
:108AAC003306F6026FB04FA505C90347050085468E
:108ABC009307270093F7F70F63F0F602411122C4D6
:108ACC002A843A8506C6EFB00FB7FD572300F40091
:108ADC00B2402244410182808280035705009307F3
:108AEC00000B6313F702834745004947639CE7007B
:108AFC000347150185476399E70003552500854514
:108B0C006F20B0356D47C5BF8280011122CC06CED7
:108B1C002A842EC632C436C2EF4020260DCD8346A1
:108B2C00C500A14712472246B245639EF600B286A5
:108B3C0017B5FF1F034565532E86A2856244F2408C
:108B4C0005616FF07FE8B28617B5FF1F0345D5515D
:108B5C002E86A285E5B7F240624405450561828008
:108B6C0023A8A1968280011122CC26CA06CE2A8483
:108B7C00AE84EF408020A6852285EF5031001DE5A4
:108B8C00228523169100EF40401F0DC10347C500FD
:108B9C00A1476312F70217B5FF1F0345054D780077
:108BAC009306F0070146A285EFF01FE2F240624403
:108BBC00D2440561828017B5FF1F0345F54AC5B73E
:108BCC00011126CA06CEB68422CCDD4663E2B60875
:108BDC00D94663FED50AA5466381D50A63EEB60471
:108BEC009546638CD50899466387D50A0544416838
:108BFC007D18631606093AC6EF50017C3306854092
:108C0C00324742064182420441803305C40042058A
:108C1C00BA85418132C6EF207034AA8749C181C41C
:108C2C0032462390C400B30580406244F240D244E3
:108C3C003E8505616F502159C5466380D504C946F0
:108C4C000D44E395D5FAC167FD17E31EF6FA65B737
:108C5C00F5466380D50463E4B600ED46D5B79306BC
:108C6C0020056388D5029306200DE391D5F8C167E2
:108C7C00FD170D446319F600BDBF09448DBF930663
:108C8C00200DE392D5F8310642064182ADBF154462
:108C9C005DBF0D444DBFC167FD171D447DB7F2404C
:108CAC006244D2440561828079714ECEAE89C16531
:108CBC0026D20147AA84894617B601001306467AC4
:108CCC00FD15054522D406D64AD0EF0010600544A8
:108CDC0031CD2A891307300281461146F545268588
:108CEC00EFF01FEE2AC6554431C18357A900CE863A
:108CFC0001462314F10091472315F1008547230009
:108D0C00F500B2472C002685A38007003247FD579B
:108D1C002301F7003247A301F700EF00D0502A845B
:108D2C0011C532459790FF1FE780600B2285B2502A
:108D3C00225492540259F24945618280411106C66F
:108D4C00EFF0BFC019C5B24041011793FF1F670078
:108D5C000309B24041018280011106CE2AC6EF50B0
:108D6C00A14C3245914523A6019623A8019697B7AD
:108D7C00FF1FA389A72EEF209019F24005616F10F9
:108D8C00107893970501C18763D80712797117B5CD
:108D9C00FF1F0345352D22D44AD006D626D22E8964
:108DAC00EFA05F892A8449CD034705009307000A89
:108DBC006315F70885474C08A305F100EF50C15225
:108DCC00AA8405ED8347610171476374F708138723
:108DDC0017FE1377F70F9306000263F3E608858BF3
:108DEC00C5C79387C1969C43994481CB03552400F6
:108DFC001306B1004C088297AA848347B10099C727
:108E0C00084409C59790FF1FE78060FD95E0524725
:108E1C00B7070001938707F07D8FB7071200938780
:108E2C000710630CF70003476101ED476317F70068
:108E3C00035524008545EF2050022285EFA06FF8E2
:108E4C00B250225421653345A90092540259456110
:108E5C0082803707301405073357F700058B41D351
:108E6C0013870197184351DB0347510159F7230628
:108E7C00F10099472308F100035524006C002317D7
:108E8C000100EF50416595BF938701979C439DC3AB
:108E9C00035524001306B1004C08829739DDAA84CF
:108EAC0083475101B9FB83476101230891002306D5
:108EBC00F100D9B79944EDB7014582800145828014
:108ECC0097B6FF1F83C6961A814763E5D700014703
:108EDC003A8582802E87910503D6C5FFE30AA6FE4C
:108EEC008507E5B70DCD834725000547890793F71F
:108EFC00F70F6376F702411122C406C62A84835504
:108F0C000500034535000147F9465D46EFF0DFAB40
:108F1C00F9572311F400B24022444101828082802F
:108F2C0017B7FF1F034797148147FD5663E3E7000C
:108F3C0082802310D5002301050085071105FDB79C
:108F4C0001458280938571849307000285462380B6
:108F5C00F500FD572383F184A38CF182238CF182DD
:108F6C002392D184239A019623AE019623A60198CD
:108F7C0023A001981386C18397B701009387474DAF
:108F8C005CC2238B01969797FF1F9387E73A09479B
:108F9C002300E6002380E7002388E7002380E70214
:108FAC002388E70217B701001307C749D8DB0D4721
:108FBC002384D700D0C7238CD700238CE70217B5A6
:108FCC000100130565491387819717B60100130635
:108FDC00264797B601009386A648D8DFC8C32395C9
:108FEC000700D0CB239D0700CCCFD4D3238407021A
:108FFC002395070223A60702239D070217070000EB
:10900C001307C70C9797FF1F9387073723A00700F9
:10901C00D8C323A407008280411106C6EFF05FEA93
:10902C0011C503452500B240410182800145E5BFD1
:10903C00411122C426C24AC006C6AA842E89328493
:10904C00EFF01FE811E94165CA857D15EFF05FE788
:10905C00C54711C523109500230185008147B240F7
:10906C002244924402493E854101828039E3894879
:10907C00354763911605011106CE22CC26CA03474B
:10908C0016000346060093C7F7FF2207598EF18F8F
:10909C0032C69DE3C4452A84A685BD3F32460147AE
:1090AC00630EA60022856244F240A685D244056177
:1090BC0041B72D473A85828013070008F24062447D
:1090CC00D2443A850561828083C8050009486394BF
:1090DC00080303A845008347180003480800A207AB
:1090EC00B3E70701C2070D68C18713082890639482
:1090FC0007018947A5BF0545828003C79183930764
:10910C00F00F630AF70441114AC02A89294522C489
:10911C0026C206C63284AE84EFA06FCD1DC5930760
:10912C00100B2310F50023020500231485002244A4
:10913C002311250123139500B24092440249AA85BC
:10914C0003C5918341016FA00FD6B24022449244D3
:10915C00024941018280828041119387819726C206
:10916C00AE848C4322C406C62A84EFF0FFEA098938
:10917C0009C922852244B240A685924441016FF070
:10918C00BFB2B24022449244054541018280411154
:10919C0022C426C24AC006C6AA8413044500130979
:1091AC00850B835704009DC3084409C59790FF1F86
:1091BC00E780E0C22285314681459770FF1FE7802A
:1091CC00805A3104231A04FEE31D24FDB2402244CC
:1091DC00FD572390F4000249924441018280938709
:1091EC004198984317B6FF1F034656E8814763150D
:1091FC00F600814636858280BA861307870B835525
:10920C0087F4E389A5FE850793F7F70FCDB793870E
:10921C00C1989C4399C703D74700E31CA7FE884716
:10922C00828001458280411106C6D53709C50845A3
:10923C00B240410182800145E5BF011126CA9384E9
:10924C00450022CC4EC606CE4AC852C456C25AC09D
:10925C00268781490144814681473D4503560700D5
:10926C0055CED9E20354470083572700B286A29704
:10927C00C207C18385093107E392A9FE25C82E894F
:10928C0091659385457022859790FF1FE78000A814
:10929C002A8B29CD814A014A8C4485C503D64400CA
:1092AC0033054B019770FF1FE780604883D744005C
:1092BC0088443E9A420A135A0A019790FF1FE7808E
:1092CC0000B263890A003146814526859770FF1FDD
:1092DC00E7806049850AB104E3E03AFD2326690181
:1092EC0023148900054521A0630DD6000145F240E9
:1092FC006244D2444249B249224A924A024B056125
:10930C00828003562700E313F6FE0356470032947F
:10931C00B2974204C2074180C183A9BF0545E378D7
:10932C0035FDA9BF938701989C4399E30145828041
:10933C0098470357A700E319A7FE138547008280BF
:10934C00411106C6C53711C503550500B240410190
:10935C0082800145E5BF411106C6E93711C50345B9
:10936C002500B240410182804145E5BF411122C434
:10937C002A842E8506C6C537AA8505462285EF3078
:10938C00102395476305F500BD476313F500214590
:10939C00B240224441018280411122C42A84090531
:1093AC0006C6EFF06FF0FD57A301F400B240224463
:1093BC0041018280938781989C4317B6FF1F034617
:1093CC00F6CA01476365C700814636858280BE8632
:1093DC00990783D5A7FFE38AA5FE0507E5B74111D9
:1093EC0022C4416406C626C29307E4FF630CF50051
:1093FC00AA8491EDC13719E51305F4FF653F19C136
:10940C0023109500B240224492444101828085474A
:10941C006393F50445372A8475D5FD572310F50061
:10942C00834724001307F00F6384E7021307E00F50
:10943C00638AE700034534000147F9465146A68587
:10944C00EFF08FD82285EFF03FF5FD572301F400A4
:10945C002302040045BF8947E396F5FA8545EF30B2
:10946C0030354DF12685EFF0FFF42A8455F959BFBC
:10947C005D71A6C24EDE86C6A2C4CAC052DC56DAE4
:10948C005AD8AE8483C52500F947AA896396F5049A
:10949C00EFF05FF22A8409ED01442285B6402644A0
:1094AC0096440649F259625AD25A425B61618280F3
:1094BC00834725000547890793F7F70FE37EF7FCF1
:1094CC00034535000147F9460146CE85EFF0CFCF75
:1094DC002285EFF07FECC9B783AA0400B70700011F
:1094EC00938707F037071200B3F7FA00130707103A
:1094FC00328A0149638AE7022EC6EFF0BFEB2A8954
:10950C00B2451DC10346450005C293178601E1878C
:10951C00E3C407F84E85EFF06FD38347490093E718
:10952C0007F82302F9008DBF03C761849307F00F7E
:10953C001944E304F7F6E147E3E1B7F693D71500D6
:10954C00FD178E0717B701001307C785BA9703A835
:10955C000700E30408F403AB4700E3000BF4C20A72
:10956C0093DA0A0163850A00C947E398F5F283D6BA
:10957C004400904483C5140003C5040038080298C5
:10958C002A8401FD2C084E85029B2A8421C983C79D
:10959C001400E39407F083C72400230AA100394781
:1095AC002308F1006399E7026247834717000347DA
:1095BC000700A207D98F0C084E852319F100EF4044
:1095CC009171E30B05EC14080546D9454E85EFF077
:1095DC00CFD32A84D9B583578101F1BF83C6240028
:1095EC009147E38BF6EA38080146CE8503C56184C2
:1095FC00EFF08FBD2A84E31205EA83C52400280806
:10960C00EFF0AFB419C123000A009840B70700016E
:10961C00938707F07D8FB707120093870710E30D30
:10962C00F7E6E30B09E683C724002302F900B5B57E
:10963C00011106CE2EC6EFF0FFD701CD83474500B2
:10964C00B245138717006396E50093F707F82302DA
:10965C00F500F2400561828093870198984319E3E5
:10966C00014615A81C4703D8A700636B0501835856
:10967C004700B38608016355D500814663941601F3
:10968C001843F1BF3E86C10703D3A7FF6317A3009E
:10969C0099C123900501328582808506C206C1825C
:1096AC00F1BF397152D42E8A4ED69305E101AA89A5
:1096BC00528522DC4AD856D206DE26DA328936C6E4
:1096CC003AC4BE8AEFF05FF9054435C5AA84035548
:1096DC00E1013944EFF0BFB339CD03284500630CE9
:1096EC0008042247B246D6874A86A6854E8502983C
:1096FC002A8431E19307E00F638FFA0203C7040059
:10970C008947631AF702D8408347170003470700BD
:10971C00A207D98FC2070D67C18713072790639CD7
:10972C00E7008347190003460900D285A2075D8E26
:10973C004E85EFF09F9C2285F2506254D2544259D0
:10974C00B259225A925A21618280797122D40354DF
:10975C0025004ECEAA89228556CA06D626D24AD0D4
:10976C0052CC5AC85EC662C4AE8AEFF05FA701E95C
:10977C002285EF50E126594429E90144B9A003C7D9
:10978C0089008547AA840144631AF702AA851385C8
:10979C008900EFF09FAA29CD03D7640083D68400FB
:1097AC00D04483D5440003D52900E147EFF07FEF87
:1097BC00D9472A846318F50223A604002685EFF006
:1097CC001F9D49C0D947E30AF4FA2285B2502254AE
:1097DC0092540259F249624AD24A424BB24B224C41
:1097EC004561828061DD83D744002390FA00F9B78C
:1097FC0013894400014AB94B594C3D4B8355090020
:10980C00D5DDE14763067A010357C90011C3D94777
:10981C0003572900835649000326890003D52900E4
:10982C00EFF03FE82A846319850123240900050A17
:10983C003109E3156AFD59B77DD983570900239087
:10984C00FA00F5B703D529002DB701112317C10074
:10985C009307E00F1306E1000147894606CEEFF0AF
:10986C005FE4F24005618280797122D42A84035529
:10987C00850026D2AE849305210106D64AD0EFF09E
:10988C00BFDD6308050E834785002AC693F70702E0
:10989C008DCF03552101EFF01F99AA87B24501ED39
:1098AC008357840039452390F400B25022549254CB
:1098BC00025945618280035524004946829711C59F
:1098CC00835784002390F400CDB7035924004A85B4
:1098DC00EFF0FF9011ED41657D15EFF05F9019E50C
:1098EC008357840025452390F400C1B7231025012C
:1098FC00130745008147BD46035607002DE6314747
:10990C00B387E702130984003146CA8591073E9557
:10991C009770FF1FE780A0E13146CA854808977011
:10992C00FF1FE780C0E00356C400035524004147E5
:10993C008146DD45EFF0CFA82ACE19E58357840088
:10994C0045452390F40095B70C480356C400977016
:10995C00FF1FE780C0DD035524004C08EF500104C5
:10996C0029D5594599B785073107E397D7F8254588
:10997C0081BF0545B1B7797122D42A84035585007E
:10998C0026D2AE849305E1014AD006D63289EFF097
:10999C00BFCC51C58347850093F70702A9E703475E
:1099AC0014019307200519E3834744008356A40050
:1099BC00504483558400035524000147EFF07FCEBB
:1099CC00AA8721E98347140199E703552400EF4046
:1099DC001178D94711E18147B2502254925402595F
:1099EC003E85456182802AC60355E101EFF0BF83B5
:1099FC00AA8705C9B2450355240049468297AA8710
:109A0C0059DD035784002390E4000347140161F7E8
:109A1C00E1B75947E317E5FE230009006DBF854701
:109A2C00CDB7B947F9BF397122DC4AD84ED652D4DA
:109A3C0006DE26DAAA892E8A32C63689EFF09F977F
:109A4C00094415C5834725001307E00FAA845D441C
:109A5C00638FE7001307F00F5944639AE70032460F
:109A6C0005E2D2854E85EF4071782A8415CD22858A
:109A7C00F2506254D2544259B259225A2161828016
:109A8C0003550A009305E101231F0100EFF0DFBC31
:109A9C000355E101EFF03F8CAA8505464E85EF306A
:109AAC0000312A845DDDE1B79307F00FE301F9FC87
:109ABC00938624007946A68517F5FFFF1305C5424A
:109ACC00EFE0DFFDA38124015DB739719387019825
:109ADC0026DA844352D45AD05ECE62CC06DE22DC27
:109AEC004AD84ED656D266CA2A8BAE8B328C368A60
:109AFC0099E08149B9A0804483DC44000149835A30
:109B0C00A400631499018440E5B78357A400A2898B
:109B1C0063F8670105094209135909014104D5B7D6
:109B2C00E3EAFBFE630C0A00834504004840D2863E
:109B3C0062863AC6EF404174324769DD19C323107F
:109B4C005701F25062544E85D2544259B259225A9E
:109B5C00925A025BF24B624CD24C2161828003D749
:109B6C00050083D62500854763E9E60439C7411112
:109B7C0083C6450026C29384550022C426862E84B3
:109B8C0017B501001305458D894506C6EF40C16E1A
:109B9C00C14711CD8346440083552400035504006E
:109BAC0001472686EFF07FF2814711E1A947B240C9
:109BBC00224492443E85410182803E8582802E86DD
:109BCC000355060083D52500854763E2A50205C130
:109BDC008346460041110147150606C6EFF0FFEE1D
:109BEC00814711E1A947B2403E85410182803E8503
:109BFC0082802E860355060083D52500854763E2B7
:109C0C00A50205C18346460041110147150606C64B
:109C1C00EFF0BFEB814711E1A947B2403E8541010E
:109C2C0082803E85828039714ED683D7250083D9B8
:109C3C00050006DE22DC26DA4AD852D456D25AD097
:109C4C005ECE62CC66CA6AC863E037198547638EFC
:109C5C000914416BAE8A2A8A2314010002C60144FE
:109C6C0001497D1B894B054CC94C054D83D52A00F8
:109C7C000147814601464E8523130100EFF0FFE4B6
:109C8C00AA846300051209EC1307200293066100F5
:109C9C005A8695455285EFE0BFF22A846308051277
:109CAC000357810083C7040045C70347A100630C19
:109CBC00A70741476385E7022C005285EF40111737
:109CCC0009CD34001546D9455285EFE01FE411C586
:109CDC0032459780FF1FE78080108147F9A083D71A
:109CEC00A4004146130524002300F40083D7A400EC
:109CFC00A183A300F400CC409770FF1FE78020A342
:109D0C004904835781008507C207C1832314F100DE
:109D1C0063F9270983D7A400638567098509C209FC
:109D2C0093D90901A1B7E39977F983D7A400094620
:109D3C00130524002300F40083D7A400A183A300FF
:109D4C00F400CC409770FF1FE780609E110455BF54
:109D5C0022C60359610003C7A400130524006382C3
:109D6C00770333599903230571012300E40083D74A
:109D7C00A4004146A183A300F400CC401379F90F51
:109D8C00A5BF230581012300E40083D7A400135948
:109D9C0029001379F90FA183A300F4000946CC40E4
:109DAC0055B78357810089FBA947F2506254D254AE
:109DBC004259B259225A925A025BF24B624CD24C23
:109DCC00424D3E85216182808547C5B7C547F1BFAD
:109DDC0013F7050201C7B2856FF04FD9411126C2A6
:109DEC004AC006C622C413F98500AA846317090069
:109DFC00139785016187635D070232853684EFF026
:109E0C008FD5AA8505466313090001462685EF20E8
:109E1C00107A01E90145B2402244924402494101C1
:109E2C00828083479400E5DB83478400E5F7E5B740
:109E3C0093F72500E5F30D45F9BF7971AE8622D471
:109E4C002A8403D506009305E10106D636C6EFF049
:109E5C00BF8009CD83458500B2460356E1012285BA
:109E6C00EFF01FF7B2502254456182800545DDBFEB
:109E7C0013F7050201C7B2856FF04FCF411122C411
:109E8C0026C206C693F485002A8491E413978501B3
:109E9C006187635007023285EFF0EFCBAA85054648
:109EAC0091E0014622852244B240924441016F2048
:109EBC00107093F72500014591E30D45B240224403
:109ECC009244410182807971AE8622D42A8403D5D2
:109EDC0006009305E10136C606D6EFF0EFF7B24661
:109EEC0001CD834585000356E1012285EFF05FF833
:109EFC00B2502254456182800545DDBF797126D26E
:109F0C00AA840355A500C16722D44AD04ECE06D6EA
:109F1C0023170100FD173284B6890149630DF50042
:109F2C00050583C60400D04042051307E1004181BA
:109F3C00EFF0BFB92A8983C60400D040894517A524
:109F4C00010013056551EF4021331DC503D4A40056
:109F5C002285EFF0EFBE09C57D142A94420441809E
:109F6C006384090023908900B25022544A8592548C
:109F7C000259F2494561828083C60400D04089456C
:109F8C0017A501001305854DEF40012F61F183C624
:109F9C000400D040894517A501001305654AEF4020
:109FAC00A12D19C9E30609FA8357E100E39287FA58
:109FBC000354A9007D145DB703D4A40055B73971BF
:109FCC0022DC26DA4AD84ED652D456D25AD062CC9B
:109FDC0006DE5ECEBE8983C785002A8AAE84C18B1D
:109FEC00328C36843A89C28A468B9DE783CB040037
:109FFC008947638BFB046285EFF06FA11DC1832839
:10A00C000500638008025A88D6874E87CA86228646
:10A01C00A6855285829839A03285EFF0CFA0AA8709
:10A02C0011ED3945F2506254D2544259B259225A68
:10A03C00925A025BF24B624C216182802946A685C2
:10A04C005285829745D5F9BFD840834717000347FF
:10A05C000700A207D98FC2070D67C1879306079027
:10A06C006384D72263CEF60693062780638ED70CC3
:10A07C0063C1F60213070780E3CFE7F62D45E393A0
:10A08C0009FADC4403C60700CC432310C90022851F
:10A09C0069A213073780E390E7F62D45E39409F89E
:10A0AC0085472310F900DC44814583C70700230052
:10A0BC00F40003D5A400050542054181EFF0CFD98A
:10A0CC00835709006317051291072310F9001146F5
:10A0DC008145130514009760FF1FE780C06829A213
:10A0EC00930627906383D71863CED71293063790C5
:10A0FC00638CD71813074790E39FE7EE2D45E39346
:10A10C0009F2DC441D472310E90003C707002300B4
:10A11C00E40003C71700A300E40003D727002301C2
:10A12C00E40003D727002183A301E40003C7470001
:10A13C002302E40003D76700A302E40083D767007F
:10A14C00A1832303F4004DA02D45E39D09ECDC44D1
:10A15C006C0083C9170003C70700A209B3E9E90023
:10A16C0011472310E90083C707004E852300F40034
:10A17C00DC4483C71700A300F400EFF0EFCDAA84F2
:10A18C0035C50356C100C1659306E100FD15832951
:10A19C00C500EFF0BFD619ED83C60400D040894549
:10A1AC0017A501001305852BEF40010D01E5FD57A7
:10A1BC002317F10003C7090089476310F70283A531
:10A1CC0049000946130544009760FF1FE78020569D
:10A1DC008357090089072310F9008357E1002301F5
:10A1EC00F400A183A301F40001452DBD2317310117
:10A1FC00EDB7034705008907BA972310F900835779
:10A20C00A500A300F4008357A500A1832301F4004B
:10A21C00034605004C41130534009760FF1FE7808F
:10A22C000051D9B7C8449760FF1FE780E0549317DB
:10A23C000501C1832A871D45E3E637DF6399F900E1
:10A24C0023100900CC4403560900CE9589B542076A
:10A25C00B3863A01418363C7E600B38737412310C5
:10A26C00F900CDB723105901F1BF2D45E39C09DA54
:10A27C00CC445285EFE05FDA231079012300A4006F
:10A28C002181A300A4008DB72D45E39D09D8DC44A2
:10A29C002310790183C707002300F400DC4483C733
:10A2AC001700A300F40089B75D71CAC02A89035551
:10A2BC0025004EDE52DC56DA5AD85ED662D466D20F
:10A2CC006AD06ECE86C6A2C4A6C22E8BEF40C10E3B
:10A2DC00130CF5FF931D0C01C16BAA8A814917AAB7
:10A2EC00FF1F130AEAB593DD0D01938CC197138DF3
:10A2FC004197FD1B8357C90063F8F90097A7FF1F0F
:10A30C0083D707B463CE87010355290097A5FF1F98
:10A31C00938505B3EF402158AA841DCDD9442DA8AF
:10A32C0083278900139719009305E100BA9703C49A
:10A33C00170083C7070022045D8C2285EFF0CFB194
:10A34C00AA851DE923108B0003254A00854409C505
:10A35C009780FF1FE780A0A8B640264426850649B3
:10A36C009644F259625AD25A425BB25B225C925CBE
:10A37C00025DF24D616182808348490083A60C0026
:10A38C000356E100035529006E8881476A87EFF078
:10A39C001FC3AA8411C523108B0003254A0045BF97
:10A3AC0083274A0095E303552900514781465E8671
:10A3BC00BD45EFE0FF8097A7FF1F23A5A7A809E5E0
:10A3CC0023108B00C54449BF97A7FF1F83D747A70E
:10A3DC0003D741973E976347570113C7F7FF56972B
:10A3EC00239AE19603254A0083A50C0003D64197D6
:10A3FC003E959760FF1FE780803383570A00035711
:10A40C000D008509C209BA9717A7FF1F231AF7A2D7
:10A41C0093D90901C5B5397122DC2A84035525006D
:10A42C0006DE26DA4AD84ED652D45AD05ECE62CC4C
:10A43C0066CAAE8B56D2EF3031782A8A8346C40076
:10A44C008355A4000355840078001306D400930CA4
:10A45C00BAFF651AEFF06FE7420A416B2A89814413
:10A46C00135A0A01138CC19797A9FF1F9389499D11
:10A47C007D1B6302090463D0940583484400832642
:10A48C000C000356C10003552400528881471387E2
:10A49C004197CA85EFF0BFB215C5814A0356C1007A
:10A4AC008355A4004A859306E100EFF03FA52A8965
:10A4BC00639D0A065DFDE5E08357840029452390E2
:10A4CC00FB0081A00356040183D74197E317F6FCE8
:10A4DC0083250C0048489760FF1FE780402E55DD10
:10A4EC0083A74900A1E303552400454781465A86BA
:10A4FC009D45EFE0EFEC1DE183578400454523902B
:10A50C00FB00F2506254D2544259B259225A925A18
:10A51C00025BF24B624CD24C2161828097A7FF1FE9
:10A52C0023A2A792835AA90095BF83A74900A69797
:10A53C0023805701938714001397070183A74900C1
:10A54C00418393DA8A00BA9723805701138724003A
:10A55C0083A6490093873400420791044183C207C4
:10A56C00C204C183C180369711CD8356E10023000C
:10A57C00D70003A74900BA970357E1002183238032
:10A58C00E700C5BDFD562300D70003A74900BA97C5
:10A59C002380D7000DB703552400898097A5FF1F92
:10A5AC009385058A97A7FF1F239C9788EF40A114DA
:10A5BC0029D95945B9B7411122C406C693F70501EB
:10A5CC002A84328585C3EFE01FD9AA8505462285EA
:10A5DC00EF20E07D95476305F500BD47631DF5024F
:10A5EC00214515A893F7450099CBEFE0DFD605463A
:10A5FC00AA8522852244B24041016F20407B93F70B
:10A60C00050489C7EFE03FD50146DDB713F515000A
:10A61C00133515000605B240224441018280797140
:10A62C004AD04ECE52CC06D622D426D22A8AAE8915
:10A63C00014983D749006364F9000145A1A083A7B0
:10A64C00090013141900930414003387970003476F
:10A65C000700A29703C5070022079305E100598D57
:10A66C00EFE09FFF05E983A7090005453E940347EA
:10A67C0004002380E70083A70900BE9403C70400ED
:10A68C00A380E700B250225492540259F249624A14
:10A69C0045618280834585000356E1005285EFF0C9
:10A6AC009FF105C183A709003E9403470400238052
:10A6BC00E70083A70900BE9403C70400A380E7004A
:10A6CC00D1B70509420913590901A5B7011122CCCB
:10A6DC002A8403D505009305E10006CEEFE0DFF7F1
:10A6EC0001CD834585000356E1002285EFF0BFECD8
:10A6FC00F2406244056182800545DDBF397126DA7E
:10A70C00AA840355250006DE22DC4ED652D456D23E
:10A71C005AD05ECE62CC66CA6AC82E8A4AD8EF304E
:10A72C00B149AA8A83C6C40083D5A40003D584008A
:10A73C00138CAAFF78001386D400EFF00FB9420CEB
:10A74C00C16CAA890144135C0C01138B4197938B48
:10A75C00C197FD1CED1A179DFF1F130D6D6E638BBA
:10A76C00091A0356C10083C5890003D52400EFF0F4
:10A77C009FE42A89631B051883C8440083A60B0039
:10A78C000356C10003D52400628881471387419783
:10A79C00CE85EFF0DF822A896319051639C003D7FD
:10A7AC00419711079797FF1F83D7A7696395E70018
:10A7BC00A29763C057099797FF1F83D787683354B5
:10A7CC00F40203D524009795FF1F9385656797972F
:10A7DC00FF1F23978766EF40810F2A890DC55949C2
:10A7EC001DA003D52400494781466686C545EFE088
:10A7FC002FBD9797FF1F23A7A7640DE583D7A9004B
:10A80C0045492310FA00F25062544A85D2544259F9
:10A81C00B259225A925A025BF24B624CD24C424DC4
:10A82C002161828083570B0091071797FF1F231A12
:10A83C00F76083274D0003D7A9009306E100A29788
:10A84C002380E700930714001397070183274D001B
:10A85C0041834E85BA9703D7A90021832380E70053
:10A86C000356C10083D5A400EFF04FE91307240071
:10A87C0083264D0093073400420711044183C2071D
:10A88C004204AA89C1834180369739E1FD562300E1
:10A89C00D70003274D0083A50B00BA972380D70060
:10A8AC0003254D0003D6419722959760FF1FE78043
:10A8BC0000E883570B003E9442044180E31D04EEF4
:10A8CC0083D784002310FA00E31F09F2294925BF1E
:10A8DC008356E10083A50B002300D70003274D000E
:10A8EC00BA970357E10021832380E70003254D002D
:10A8FC0003D6419722959760FF1FE78040E383576B
:10A90C000B003E944204418099BD83D7A9002310CB
:10A91C00FA006DB701495DB75D71A6C2CAC0AA84C1
:10A92C000359850003552500A2C44EDE56DA5AD8C9
:10A93C005ED662D466D26AD086C652DC6ECE2E8BC0
:10A94C00EF309127930BD5FF711593190501014435
:10A95C00138DD40093D90901138C4197938CC19713
:10A96C00979AFF1F938ACA4D6358741583C6C40007
:10A97C0083D5A4001307E1006A864A85EFF0EF94B3
:10A98C00AA8D630B05120359A50083458500035658
:10A99C00E10003D52400EFF01FC26314051283C835
:10A9AC00440083A60C000356E10003D524004E8816
:10A9BC00814713874197EE85EFF06FE06313051025
:10A9CC001DCC83D741971797FF1F035787478907DC
:10A9DC00630EF7069797FF1F83D7A7463354F402ED
:10A9EC0003D524009795FF1F938585459797FF1FE7
:10A9FC0023988744EF30F15905C5594515A003D567
:10AA0C00240041664D4781467D16A545EFE04F9BDE
:10AA1C009797FF1F23A8A7421DE123102B01454543
:10AA2C00B640264496440649F259625AD25A425BC1
:10AA3C00B25B225C925C025DF24D61618280835755
:10AA4C000C0089071797FF1F231DF73E83D74197EB
:10AA5C00A29763D3770783A74A0003D7AD00130AE5
:10AA6C002400A2972380E70005049317040103A494
:10AA7C004A00C183420A3E9483D7AD0083A50C00E3
:10AA8C00135A0A01A1832300F40003A54A0003D63C
:10AA9C00419752959760FF1FE78060C903540C00E3
:10AAAC00C167FD17529442044180E30FF9EA05098E
:10AABC004209135909014DBD294509FC23102B01ED
:10AACC0085B76DDC01BF8357050099E3094582808A
:10AADC00411126C2444122C406C683C60400D0409C
:10AAEC002A84894517A5010013050597EF30C17815
:10AAFC0051C18347240025476145E51793F7F70FAC
:10AB0C006366F70803D74184054549C3835704009E
:10AB1C00BA974167634CF70691659385257031456B
:10AB2C009770FF1FE780801EAA844D45A5C08357F0
:10AB3C00040083D5418401460147B386E500C20673
:10AB4C00C182636AF704AE97C207C18319C223920C
:10AB5C00F18423A004002146A2851385440097604C
:10AB6C00FF1FE780C0BC938701989C439DEF23A0F7
:10AB7C0091983DA883C60400D040894517A50100D3
:10AB8C001305C58DEF30416F2DF50945B2402244B8
:10AB9C0092444101828050401315470005072A96C4
:10ABAC002315D600054651BFBA87984375FF84C359
:10ABBC000145E9BF011106CE22CC26CA4AC809E9D3
:10ABCC008944F240624426854249D2440561828020
:10ABDC002AC62A84280036892314B1002305C10013
:10ABEC00EFF07FEEAA8471FDE30D09FC8357A400FE
:10ABFC00E1DB91659385557031459770FF1FE780B8
:10AC0C00E0100DC58357A400232005002324250143
:10AC1C002312F5009387C1989C4389E723A6A1983A
:10AC2C004DB7BA87984375FF88C361BFCD4451BFF8
:10AC3C0083C7619795E38547238BF196058909CDE9
:10AC4C009776FF1F93864673414691451775FF1FF4
:10AC5C001305856E6FF01FF601458280A38CA182CF
:10AC6C008280C167FD176315F5002E856FE04FAB31
:10AC7C00411106C6EFE0CFA411C5FD572310F50016
:10AC8C0023010500B2404101828001114AC806CE61
:10AC9C0022CC26CA85472A896393F5044A85EFE0BE
:10ACAC000FD439E9C1649385F4FF1307E100894699
:10ACBC0017960100130606790545EFE01FE12A847B
:10ACCC00FD140DC44C444A85EFF0BFF90356E10066
:10ACDC0022858146A685EFF06FA22A84DDB78947CD
:10ACEC006396F5008545EF20A02C4DD9F2406244C7
:10ACFC00D244424905618280EFE06FC965B74111CA
:10AD0C0023A2019823A4019823AC019606C6979719
:10AD1C00FF1F83C7B735ADCF1305200C3385A702B2
:10AD2C009165938515709770FF1FE78020FE23A215
:10AD3C00A1989307200C1796FF1F03463633330652
:10AD4C00F60281459760FF1FE780E0A19387419849
:10AD5C009C431797FF1F0347773181459386870BD9
:10AD6C007D5563EDE5049306800BB306D7020146CF
:10AD7C00FD55B69723A4F198BE866360E606F95696
:10AD8C002390D70099463307D702BA9723ACF19694
:10AD9C0017E5FFFF1305056EEFD09FDC17F5FFFFDE
:10ADAC0013054589EF30E15317E5FFFF1305656384
:10ADBC00EF204017B2400145410182802394A6F454
:10ADCC001386C6F423100600232406003106E31B69
:10ADDC00D6FE85059386860B69B72390B600A381B2
:10ADEC00B6002381B600238206000506990671B7CA
:10ADFC00411122C42A8406C6EFD02FF3EFE08F94C2
:10AE0C00238C8182938781978843EFE06F91238312
:10AE1C0081842244B24017050000130545E7410127
:10AE2C006F20401093970501C18763D00736797165
:10AE3C0003C5818322D452CC06D626D24AD04ECE1C
:10AE4C002E8AEF802FFF2A8421C903470500930720
:10AE5C00000B6310F7048547A304F1009387C19797
:10AE6C009C4323150100A1E7EF00C07E91659385FB
:10AE7C0035709770FF1FE78060E923AEA19605E956
:10AE8C008347910099C78345440013058400EFD094
:10AE9C00FFEA2285EF80EFF2B25022542165334550
:10AEAC00AA0092540259F249624A45618280614675
:10AEBC0081451795FF1F1305A5F89760FF1FE780C5
:10AECC00808A0349440089479799FF1F938949F762
:10AEDC00631DF906EF0000789797FF1F2392A7F6E2
:10AEEC0003552400CE85EF30C16F0357240097978C
:10AEFC00FF1F83D7E7F48356840011ED63E4F6005B
:10AF0C002314F400835584003A85EFD0DFC52285E5
:10AF1C00EFD0BFBCB5B763E4F6002314F40083573D
:10AF2C008400D9450D469796FF1F239BF6F0979604
:10AF3C00FF1F9386E6F03A85EFD03FBD8D4561D972
:10AF4C001795FF1F1305C5EFE1A09947631CF90284
:10AF5C009305A1002285EFF00FCCAA844DD9D947D7
:10AF6C00639BF40E0509035524001379F90FD94599
:10AF7C009796FF1F9386C6EC4A86EFD01FB9CA85F9
:10AF8C0059D57DBFA1476318F9009305A10022850F
:10AF9C00EFF09F98D9B7A947631FF90603558400B2
:10AFAC006C00EFE06FEBAA846307051603552400D1
:10AFBC0041669306E10055477D16AD45EFD05FC065
:10AFCC009797FF1F23A0A7E8AA8649C1834844008E
:10AFDC000358E1000356C10003552400A6858147A0
:10AFEC004E87EFE0DFFDAA8463160510035524009D
:10AFFC00CE85EF30E17FE30C05F003552400CE86BF
:10B00C002D46D945EFD07FB0E30305F0AD454E8515
:10B01C00EFD0DFD2EDBDB1476315F91003558400B5
:10B02C006C00EFE06FE3AA846307050E0355240060
:10B03C0041669306E10059477D16B545EFD05FB8E0
:10B04C009797FF1F23A0A7E0AA863DE183578400B2
:10B05C00C5442315F10003471400D147E309F7EA6F
:10B06C0083474400035524009795FF1F938545DDC6
:10B07C001797FF1F2306F7DC8357A1001797FF1FB5
:10B08C002311F7DC9797FF1F238E97DAEF30A1443B
:10B09C00E30F05E6035524009796FF1F938646DAC7
:10B0AC000546D945EFD07FA6E30305E6854549BDA6
:10B0BC00834844000358E1008357A4000356C100A1
:10B0CC0003552400A6854E87EFE07FEFAA841DE18F
:10B0DC0003552400CE85EF306177E30A05E2035572
:10B0EC002400D945CE863546EFD03FA2B545E300C6
:10B0FC0005E2B9B5D9476393F400814403A549002F
:10B10C009770FF1FE780A0CDE38304E08357840092
:10B11C002315F10089B78357840085442315F1006A
:10B12C001DBFB9476318F9009305A1002285EFF004
:10B13C00AF9725B5C1476318F9009305A100228587
:10B14C00EFF0CFDB19BDC947631AF9001306910064
:10B15C009305A1002285EFE01F8201B5D947631D3D
:10B16C00F9009305A1002285EFE00FF0AA84E31803
:10B17C0005DEA304010061BBE147E31AF9D893058E
:10B18C00A1002285EFE06FDCC9BB01458280E9CECE
:10B19C00011152C42E8A854522CC4EC656C206CE0B
:10B1AC0026CA4AC8AA8AB6893284EF107060D14781
:10B1BC0015C183C7819983C69199814419E0B684DE
:10B1CC00BE8613870199184393974400BA9763ED91
:10B1DC00D400D547F2406244D2444249B249224A93
:10B1EC00924A3E85056182803E89C10703D727FFBD
:10B1FC0009C7850493F4F40FD9BF2DC095659385C9
:10B20C0025C0130500029770FF1FE78020B023268E
:10B21C00A90061D113060002814593840404975060
:10B22C00FF1FE780405423119900230009002313CA
:10B23C00590105C81797FF1F1307C7DB83479400F5
:10B24C0010432304F900118C8327C9001184118049
:10B25C00238E870023A029018147ADBF2326090037
:10B26C00E9B723044901FDB785473E858280938762
:10B27C000199984383C5819981476395F50081466F
:10B28C003685828003562700BA8619C2E30AA6FEC9
:10B29C00850793F7F70F4107CDB79387019998432B
:10B2AC0003C6819981476315F600814636858280F5
:10B2BC0083552700BA8689C583454700E388A5FED8
:10B2CC00850793F7F70F4107F9BF9797FF1F9387F0
:10B2DC0067D2984383C5B19981476395F500814640
:10B2EC003685828003560700BA8619C2E30AA6FE89
:10B2FC00850793F7F70F4107CDB7938701999C43C7
:10B30C0003C8919901476315E80081463685828010
:10B31C0003D62700BE8619CA03D667006318A60099
:10B32C00D04709C603562600E302B6FE050713777D
:10B33C00F70FC107C9BF411122C4404526C206C63A
:10B34C00AA8415C0484409C59770FF1FE78020A93F
:10B35C00484809C59770FF1FE78060A82285977041
:10B36C00FF1FE780C0A72685414681459750FF1FE8
:10B37C00E780603FB2402244FD57A384F40092441E
:10B38C0041018280011122CC2A840355250006CE6E
:10B39C002EC6EF10100B324622858145EF00D06788
:10B3AC0022856244F24005616FF0FFF80DC503572A
:10B3BC002500411122C406C62A8411CBDD45EF00BD
:10B3CC00906922852244B24041016FF0DFF6B24011
:10B3DC002244410182808280411126C2314793046C
:10B3EC00C5FF3387E4029797FF1F938727C106C6D3
:10B3FC0022C43E978356A7006397B602484305C5FF
:10B40C003E849307F00F6306F60083470500639CA8
:10B41C00C7009770FF1FE780809CB147B387F40289
:10B42C00A29723A20700B240224492444101828099
:10B43C00411122C42E8426C24946AA848145228504
:10B44C0006C69750FF1FE7800032ADC083C7C4010A
:10B45C00139747009797FF1F9387C7B99C43BA97D9
:10B46C0003D707002310E40003D7270083D7670016
:10B47C002311E40013876199035707002312E4009A
:10B48C0003D704002313E40003D724002314E4009F
:10B49C0003D744002315E40003D764002316E4000B
:10B4AC0003D784002318F4002317E400B24022448D
:10B4BC009244410182809797FF1F9387A7B303A8FB
:10B4CC00070093870199904383C581990147814770
:10B4DC006394E5003E8582808346060081CE544607
:10B4EC0091CA83C6C6019206C2966315D50085071C
:10B4FC0093F7F70F05071377F70F4106D1BF130624
:10B50C0000643386C50293069500AA8517050000D2
:10B51C00130505EA6F804FFE411122C406C62A842A
:10B52C0003459500EF803F91FD57A304F400B24012
:10B53C00224441018280011122CC4AC84EC652C419
:10B54C0056C206CE26CA2A89AE890144138A0199AD
:10B55C009D4A83C791996362F404639709029389A6
:10B56C000199130AF00F83C781996366F40611449D
:10B57C00A1442285050442041306F00FCA854180BC
:10B58C00EFF09FE5E31794FEF2406244D244424947
:10B59C00B249224A924A0561828083270A00931499
:10B5AC004400BE9483C704009DC383D7640063909A
:10B5BC0027036396590103D52400EF108068268574
:10B5CC004E868145EF0050452685EFF0DFD6050409
:10B5DC001374F40FBDBF83A7090093144400BE94E9
:10B5EC0083C704009DC383C794006380470383D73C
:10B5FC006400639C27012685EFF01FF22685D14558
:10B60C00EF0070452685EFF01FD305041374F40F7B
:10B61C0099BF41677917630BE502411122C406C635
:10B62C0085472A846399F50022852244B2408145DE
:10B63C0041016FF05FF089476396F5008545EF1087
:10B64C0030177DD1B24022444101828082809D45D9
:10B65C006FF07FEE03D561998280011106CE23171E
:10B66C00A1002316B10003C7419985476318F70061
:10B67C0070009305E1000545EF40506EF240056106
:10B68C008280A947631CF60483C7150003C7050015
:10B69C00A207D98F2310F50083C7350003C72500F7
:10B6AC00A207D98F2311F50083C7550003C74500A6
:10B6BC00A207D98F2312F50083C7750003C7650055
:10B6CC00A207D98F2313F50083C7950003C7850004
:10B6DC00A207D98F2314F50001458280054582808D
:10B6EC0091476314F60283C7150003C70500A20730
:10B6FC00D98F2310F50083C7350003C72500A20797
:10B70C00D98F2311F50001458280054582809387EE
:10B71C00C5FF93960701C1820D476360D70231477D
:10B72C003387E7029797FF1F9387478DBA9723813B
:10B73C00A7002390B700014582800945828013073A
:10B74C004020AA876374A70093074020F117239B1E
:10B75C00F198238DB198238EB19882801905956547
:10B76C0042054111938535C0418106C69760FF1F84
:10B77C00E780C05911C5B240E95541016F20B12491
:10B78C00B2404101828041119797FF1F2386A78603
:10B79C00130600031795FF1F13054586814506C642
:10B7AC00238C0198238D0198A38D0198A38C01986B
:10B7BC00238A0198A38A0198A38E0198239B019850
:10B7CC0023A801989750FF1FE780E0F9EF10605015
:10B7DC001795FF1F0345858531C19565938545C038
:10B7EC0012059760FF1FE78060521797FF1F2323F6
:10B7FC00A7800DC59797FF1F9387478383C71700B3
:10B80C001796FF1F034686828145A38CF198A38D62
:10B81C00C19812069750FF1FE780E0F49387919927
:10B82C0083C707001795FF1F0345458495653E9513
:10B83C001375F50F238CA198938555C0120597604D
:10B84C00FF1FE780A04C23A8A19831C103C68199A2
:10B85C00120681459750FF1FE780E0F0938701990E
:10B86C00984383C68199814725077D56639AF600D4
:10B87C00B24017050000130505DA41016F10806A0C
:10B88C0085072300C70093F7F70F4107C5B7238C33
:10B89C000198A38C0198E9BF41119397050126C229
:10B8AC0006C622C4C187AE8463DE07081785FF1F56
:10B8BC0003458574EF701FD82A8439C903470500E6
:10B8CC00930700096313F70403471500CD47631969
:10B8DC00F706034525009785FF1F83C5956283C72F
:10B8EC00A19993066400014601472E886319E5026D
:10B8FC0019C2238DF19883C7A19981CB85451785F2
:10B90C00FF1F0345656FEF804F9B2285EF707FCB48
:10B91C002165258DB240224492444101828003C6A8
:10B92C000600B29713F6F70F9377F80F6374B6000F
:10B93C009377F60F05071377F70F890605467DB742
:10B94C002125E1B793F715000145E9D7EF00506DBC
:10B95C0019C983C7A19981CB85451785FF1F03455D
:10B96C00A569EF808F9513C514006DB785462A879E
:10B97C0063FBC60483C7150003C60500A207D18F5D
:10B98C002310F500639CD70083C7350083C62500C0
:10B99C00A207D58F2311F500014582808946014508
:10B9AC006394D70283C7350083C62500A207D58FC1
:10B9BC002311F70083C7550083C64500A207D58F16
:10B9CC002312F70082800545828091476314F602AA
:10B9DC0083C7150003C70500A207D98F2310F500F4
:10B9EC0083C7350003C72500A207D98F2311F500A3
:10B9FC00014582800545828091476314F60283C716
:10BA0C00150003C70500A207D98F2310F50083C7C3
:10BA1C00350003C72500A207D98F2311F500014576
:10BA2C00828005458280A1476314F60483C7150004
:10BA3C0003C70500A207D98F2310F50083C7350073
:10BA4C0003C72500A207D98F2311F50083C7550022
:10BA5C0003C74500A207D98F2312F50083C77500D1
:10BA6C0003C76500A207D98F2313F5000145828017
:10BA7C00054582808947631CF60083C7150003C700
:10BA8C000500A207D98F2310F500014582800545DA
:10BA9C0082808357260079714ECE06D622D426D2C8
:10BAAC004AD01307F007AE896372F70209473AC40C
:10BABC002316F100300093F5F50FEF106017B2501C
:10BACC00225492540259F249456182800357460030
:10BADC00D9462A89328463F8E6008357660063F4FA
:10BAEC00F6006379F70023140100300093F5F90F89
:10BAFC004A85E1B70355060002C4EFF00FFDAA8496
:10BB0C0059C1EFF05F9B83C784006369F500114650
:10BB1C00A246CE854A85EF10000755B7340026861D
:10BB2C009305F00F4A85EFF08FE675F1A2470357A6
:10BB3C008400DC472390E700035724002391E7009F
:10BB4C00035744002392E700035764002393E70054
:10BB5C0003D744002394E700DC4485CB93F4F90F1E
:10BB6C002286A6854A858297C167FD172A86E3112E
:10BB7C00F5FA22459947F9452300F5002302950073
:10BB8C00EFF0FF972DBF094661B7014651B7A947A2
:10BB9C00631CF60483C7150003C70500A207D98FE1
:10BBAC002310F50083C7350003C72500A207D98FE2
:10BBBC002311F50083C7550003C74500A207D98F91
:10BBCC002312F50083C7750003C76500A207D98F40
:10BBDC002313F50083C7950003C78500A207D98FEF
:10BBEC002314F500014582800545828083C705003A
:10BBFC002300F50083C71500A300F50083C73500AB
:10BC0C0003C72500A207D98F2311F50082802322B8
:10BC1C00050003C7450089476304F700054582808A
:10BC2C0083D665000D47E37BD7FE9C45011106CEFC
:10BC3C0022CC26CA4AC84EC683C4170003C60700C6
:10BC4C00A204D18C138644006311D60403C43700BC
:10BC5C0083C72700AE8922045D8C9307C4FFC207FB
:10BC6C00C1832A89636FF70003A58900231199000A
:10BC7C0023108900F155EF2001552322A90001451D
:10BC8C0031A02285EFF0AFDE65F10545F24062444C
:10BC9C00D2444249B24905618280397122DC2E843A
:10BCAC00834704004AD806DE26DA4ED619472A897D
:10BCBC00B285639AE706034624002800EFF0FFD014
:10BCCC00AA8415E903558100EFF06FDAAA89834540
:10BCDC00140015C92E8617170000130787E83400C7
:10BCEC009D454A85EF00903F4E85094681452D23A1
:10BCFC004E85EFF04FE4F250625426854259D254EF
:10BD0C00B2592161828089472310F1008357810049
:10BD1C000A862311F1008357A1002312F1004A85F2
:10BD2C00EF001071C9BF4947639DE7020356240019
:10BD3C002800EFF05FCFAA845DFD9787FF1F83D7A4
:10BD4C00A72C99E3814445BF0347140083460400A4
:10BD5C003C000146CA851785FF1F0345052B81262C
:10BD6C0059BF51476390E702035624002800EFF0B7
:10BD7C005F91AA8449F18345140030004A85EFF0A5
:10BD8C005FD195BF59476391E706035624002800FD
:10BD9C00EFF01F95AA8425F1835581004A85EFF0B9
:10BDAC00CFD50DC958458356A10083570700B697C8
:10BDBC00C207C1832310F700D1D75C47C1D783C713
:10BDCC00A199C9D385451785FF1F0345E522EF705F
:10BDDC00DFCE15B789473EC0835781000A8683455D
:10BDEC0014002312F10025BF834514000A8623108A
:10BDFC000100EF00F063B9B75D71A6C256DA86C6D2
:10BE0C00A2C4CAC04EDE52DCAA8A03C51500AE8499
:10BE1C0032C6EFF08FC8B24501ED8144B6402644DE
:10BE2C00268506499644F259625AD25A616182803B
:10BE3C00230205002311050083C9040085472A84C9
:10BE4C00639AF90003C624002808EFF03FB2AA84D5
:10BE5C0005492DA09D476394F904034705008D47C0
:10BE6C00E31DF7FA03C6240028080549EFF0DFB8F4
:10BE7C00AA8409E5054681452285792E2285EFF0B5
:10BE8C00AFE9034584003C080147CE862686D6855B
:10BE9C003924E30509F82285EFF0EFC941B7CD4706
:10BEAC00639DF900034705009147E318F7F603C6B5
:10BEBC0024002808EFF01FBC59BFD547E39FF9F4C5
:10BECC00034A05008947E31AFAF403C6240028083C
:10BEDC000549EFF0DFCBAA8455F183570102BDE38E
:10BEEC00035781011306F0035C44930607FCC2065A
:10BEFC00C182636CD6000356A101D94663F7C60014
:10BF0C008356C101D94563EFD50003552400239115
:10BF1C00E7000549EF00F05203560102D285228555
:10BF2C00712CA9BF8355E1012391E7002392C7002F
:10BF3C002390B7002393D70085472300F400014AD0
:10BF4C000149D9BF014AC9BF7971AA8522D426D229
:10BF5C0003542500AA84280806D6EFF05FCBF245DF
:10BF6C0099E535E985452285EFF02FEFC1A0835780
:10BF7C0081011547639BE7060357A1018D4763FCBD
:10BF8C00E7046800EFF09FC60357E100DD4763FC50
:10BF9C00E7008345D100B7071700850710082285F5
:10BFAC003EC8EF00F0488357E1000357A101910709
:10BFBC006305F7002285EFF08FE98347C1007246D5
:10BFCC006C00858B1106228591CFEFF0FFE201C545
:10BFDC002285EFF0CFE7884451D59760FF1FE780AB
:10BFEC0000E049B7EFF07FCBDDB711476389E7007D
:10BFFC001387A7FF42074183854663EEE60231476C
:10C00C00F117B387E7021787FF1F130727FFBA97AC
:10C01C0003D7070069D303C527003008A2850D207C
:10C02C005DF9035781019147E31EF7F2B250225498
:10C03C009254456182802C082285892E49FDFDB7DA
:10C04C0001114AC82A89314526CA06CE22CC2EC6F1
:10C05C00B284EF70CFD931C1B2459307000A2310D7
:10C06C00F5002311B5002A84214611058DC0A68543
:10C07C009740FF1FE780A06BA2854A85EF70AFE267
:10C08C000145F2406244D2444249056182808145B7
:10C09C009740FF1FE780206DC5B70545DDB7797167
:10C0AC0026D2AA841305000206D622D42ECE32CC78
:10C0BC0036CA3AC83EC6EF708FD331C96246F245D4
:10C0CC004247D246B2472A84130520FA2300A40023
:10C0DC00A300C4002311B4002302E400A302D40083
:10C0EC0013058400614691CFBE859740FF1FE78002
:10C0FC000064A2852254B2502685925445616F701B
:10C10C008FDA81459740FF1FE780E065DDB7B250BD
:10C11C0022549254456182805845797122D406D6B6
:10C12C002A84AE8651C383572700231DF100930741
:10C13C002006639FF5049387619903D60700835704
:10C14C0067006373F600B28713F6F70F8355270168
:10C15C00834707018D8F93F7F70F81E5890793F7D5
:10C16C00F70FB297FD17B3C7C702231EF100835711
:10C17C0024008355640003458400231CF10001470F
:10C18C003C080146EFF0BFF1B25022544561828069
:10C19C000347C7019787FF1F9387C7E59C43120787
:10C1AC00BA9783D76700D1B72EC6194681452808A0
:10C1BC009740FF1FE780205BB24655BF797122D4B0
:10C1CC0006D626D22A848DC18147014793060006E4
:10C1DC002E868355640003458400EFF05FECB2506B
:10C1EC002254925445618280B2842800594697406B
:10C1FC00FF1FE78040572314910089E883572400E0
:10C20C0048446C002315F100EFF08FA23C0001476D
:10C21C0093060006014675BF797106D6814799EDE4
:10C22C008357250058452316C1002314F1003C0008
:10C23C0011C7835727002315F1003C002E86835528
:10C24C00650003458500014793060006EFF03FE5C6
:10C25C00B25045618280411122C406C68347050055
:10C26C0011472A846395E7022E86835565000345A2
:10C27C00850081470147CD46EFF07FE24946835563
:10C28C0064002244B240154541016FF0EF9413F75E
:10C29C00B70F89466317D7000146EFF03FF25146BE
:10C2AC00F9BF0D476398E7002244B24001464101B3
:10C2BC006FF09FF6B24022444101828083D7050083
:10C2CC003147F1173387E7029787FF1F938707D30F
:10C2DC00BA97D84319EBD8412395A7000145D8C389
:10C2EC0003D725002394E700828059458280797119
:10C2FC0022D4404526D24AD006D6AA842E8925C0FF
:10C30C00484419C59760FF1FE78060AD23260400E1
:10C31C008357040083D5640003C584002315F10002
:10C32C00835724000147930640062316F1008357D8
:10C33C0084004A862317F1001C483EC883D724008A
:10C34C002314F1003C00EFF09FD5A30E2401232809
:10C35C000400B25022549254025945618280280044
:10C36C00314681459740FF1FE780E03F83D724008B
:10C37C0083D5640003C584002314F10001473C00FD
:10C38C00930640064A86EFF09FD1E1B7797152CC03
:10C39C002A8A03D5050026D206D622D44AD04ECE00
:10C3AC0056CAAE84EFE0BFEC19E1854749A0404581
:10C3BC00AA8965DC83576500E39947FF835784009E
:10C3CC00638907128346C401978AFF1F938A8AC226
:10C3DC0003A70A009206FD173697C207035767009A
:10C3EC00C1832314F4006316F70093053006EFF0B5
:10C3FC00BFD25C48A5EFC840034915008347050030
:10C40C0022093369F90083D7240013072900631A22
:10C41C00F702F955EF10315BC8C02391240103C515
:10C42C0089002686D285EFF0BFC1814721E1B25049
:10C43C00225492540259F249624AD24A3E854561CD
:10C44C0082809565938515C04A859760FF1FE780AC
:10C45C00E08B48C8C840231C2401F955EF10B15695
:10C46C0083D72400C8C0F9172391F400484859C554
:10C47C0003D624008356A401835784013308D600C5
:10C48C0063C007090347C40183A70A009545120737
:10C49C00BA9783D7270063CF0705CC4036959740D2
:10C4AC00FF1FE780C0280357A40183D72400BA9745
:10C4BC00C20703578401C183231DF400E397E7EE01
:10C4CC0003D7290003C5890030002314E100584824
:10C4DC00D2852315F1003AC6EFF09FB611C5484836
:10C4EC009760FF1FE780A08F232A0400232C0400F1
:10C4FC006DBD99454E85EFE0FFE845BDA545DDBF17
:10C50C009145CDBF03D7250069CF83D66199ED47FF
:10C51C0063EAE60C011122CC2E8426CAAA84484078
:10C52C00914506CEEF10314A83572400AA8623008A
:10C53C00F50083572400A183A300F5008357040062
:10C54C002301F50083570400A183A301F5000356D2
:10C55C002400C167F9171106420641826396F40460
:10C56C002AC4314532C6EF708F88AA85CD471DC5C8
:10C57C00930700F93246A2462300F500F957231120
:10C58C00F50089472302F5002313C50014C5178550
:10C59C00FF1F034565A6EF700F918147F24062447F
:10C5AC00D2443E850561828081452685EF40A006F8
:10C5BC00AA8701E903C7A19975D37D17238DE1984B
:10C5CC00F1BF09476302E5021D476301E5024947D4
:10C5DC006300E5027D47E313E5FC03C7A19981479E
:10C5EC00E1BFED473E858280D1474DBF91477DB776
:10C5FC0089476DB7011122CC4AC831441309C5FFD4
:10C60C00330489029787FF1F9387479F06CE26CA5C
:10C61C003E94584031C783C6A199BE84854795CABC
:10C62C002314A100835784000355A4002C003AC6A0
:10C63C002315F100EFF01FED11C548409750FF1F77
:10C64C00E780E079B147B307F902A69723A2070068
:10C65C008547F2406244D24442493E85056182805E
:10C66C008147C5BF797126D24445138761994AD059
:10C67C0083D764000359070052CC06D622D44ECE81
:10C68C0056CA2A8A63F327013E8903D7240142093B
:10C69C001359090183D7040141CB998F4A8463D57F
:10C6AC00270113940701418089452285EFF00F8BF8
:10C6BC00AA89CD4A25C183D724002AC62315810017
:10C6CC002314F10083D7240185E383D70401930954
:10C6DC0025002300F50083D70401A183A300F500F6
:10C6EC006376240503D4040183D72401CC44228629
:10C6FC004E85BE959740FF1FE780600303556A0087
:10C70C002C00EFF03FE0AA8A15C54E859750FF1F0D
:10C71C00E780E06CB2502254568592540259F2498B
:10C72C00624AD24A4561828089078DBF79144204DE
:10C73C0041805DBF03D7240183D704003A94FD17D1
:10C74C00C207420403D70401C18341802390F40043
:10C75C00239984006377E400D5FFFD57A38EF40082
:10C76C0055BF81455285EFF09FB86DB701114EC68C
:10C77C0083C9D19922CC52C456C25AC006CE26CAFD
:10C78C004AC84E84138A0199854A130BF00F8327EC
:10C79C000A0093144400BE9403C90400631759079C
:10C7AC00DC44A5C7D84735C303D7070039C383C7B3
:10C7BC00A19989CF2685EFF0FFEAAA8515E5050436
:10C7CC0083C79199635FF400A38E8198F240624411
:10C7DC004A85D2444249B249224A924A024B0561E7
:10C7EC008280A38E0198DDB72685EFF05FB00149FA
:10C7FC00F1BF83C7D701639A67019305200626858D
:10C80C00EFF09F91DC44A38E070005041374F40F22
:10C81C0083C791996363F4000144E31A34F7C1BFF1
:10C82C004111154506C6EFF0FFDC09C50545B240C0
:10C83C00410182801945EFF0FFDB6DF91145EFF0F6
:10C84C007FDB6DF51D45EFF0FFDA6DF103C59199B6
:10C85C0079DDB24041016FF07FF183D705000D47C0
:10C86C00F117C207C1836361F706DC41B1CF4111F7
:10C87C0022C42E84854526C206C6AA84152F39C526
:10C88C002685A925C167F917638FF40009ED835735
:10C89C00240091CB835604001947639FE60203D70B
:10C8AC00619963FBE70283C7A199A285268599C785
:10C8BC002244B240924441016FF0DFC42244B240A2
:10C8CC00924441016FF09F9F094582805145B240CF
:10C8DC0022449244410182806D45D5BF397126DADC
:10C8EC004ED6AA84AE895D4589454AD806DE22DC3F
:10C8FC00328936C63AC4EFE07FE625C522472A8442
:10C90C00014511C7B24613054400B68502979357EB
:10C91C00850023003401A30024012301A400A301FA
:10C92C00F40011059547231DA100231CF10022CE14
:10C93C0083C7A1992C08268595C3EFF0BFBCAA84A8
:10C94C0011C522859750FF1FE7806049F250625451
:10C95C0026854259D254B25921618280EFF01F963C
:10C96C00F9BFCD44E5B7797126D24AD052CC56CA1C
:10C97C0006D6BA8A22D44ECE19472E89B284368A6C
:10C98C006394E506035526000944EFE05F8E2AC642
:10C99C0025C55C458359650083D727002390F40097
:10C9AC00B24715472380570103C6519993061600C9
:10C9BC00A38AD1982391E7002382C700D14663193B
:10C9CC00D9002391E400DC4703D784002394E700CB
:10C9DC005287A686CA854E85EFF05FF02A843245D1
:10C9EC0015C4EFE05F9509A842867400BE85AA893C
:10C9FC00EFE0EFF92A844DD52285B250225492549F
:10CA0C000259F249624AD24A45618280F945EFE007
:10CA1C001FAFDDB783D705002300F50083D70500D2
:10CA2C00A183A300F50083D725002301F50083D74C
:10CA3C002500A183A301F5001145828083D7050051
:10CA4C002300F50083D70500A183A300F50083D74D
:10CA5C0025002301F50083D72500A183A301F50050
:10CA6C0083D745002302F50083D74500A183A30299
:10CA7C00F50083D765002303F50083D76500A183F8
:10CA8C00A303F5002145828083D705002300F50020
:10CA9C0083D70500A183A300F5000945828083D7C5
:10CAAC0005002300F50083D70500A183A300F50042
:10CABC0083D725002301F50083D72500A183A3018B
:10CACC00F50083D745002302F50083D74500A183E9
:10CADC00A302F50083D765002303F50083D7650017
:10CAEC00A183A303F50083D785002304F50083D726
:10CAFC008500A183A304F5002945828003D7050096
:10CB0C008546AA872300E50003D705002183A300EF
:10CB1C00E50003D70500631DD70003D725002301CB
:10CB2C00E50003D725002183A301E5001145828090
:10CB3C0009456315A70203D7250019452381E70092
:10CB4C0003D725002183A381E70003D74500238267
:10CB5C00E70003D745002183A382E700828083D7B7
:10CB6C0005002300F50083D70500A183A300F50081
:10CB7C0083D725002301F50083D72500A183A301CA
:10CB8C00F50011458280797126D24AD04ECEB284FE
:10CB9C002A89AE8929468145480022D406D6368496
:10CBAC009740FF1FE78020BC2316910095EC83571C
:10CBBC0024002312F1009387619983D70700231473
:10CBCC00F1005C4495C383C6C7011777FF1F130799
:10CBDC0067421843920683D787003697035727007E
:10CBEC002315F1002313E1004A85170700001307F2
:10CBFC0047EB540013F6F90FD545EFF03FCE2A89D9
:10CC0C0011C19DE085472300F40023020400014676
:10CC1C0081452285EFF08FDAB25022544A85925426
:10CC2C000259F249456182802285EFE0CFF0EDB7E1
:10CC3C00B286170700001307A7EC2E8685456FF008
:10CC4C00FFC901112317A10041657000014893072A
:10CC5C00F00F0D4797060000938606DC99457D156D
:10CC6C0006CEEFF05FD0F24005618280B2870148BA
:10CC7C002E86114797060000938686DCC9456FF017
:10CC8C009FCEB28617070000130747E02E86CD45CE
:10CC9C006FF0DFC4011122CC26CA4AC84EC606CE9C
:10CCAC002A89AE891774FF1F1304C4389774FF1FA9
:10CCBC009384443B1C4081C7CE854A8582971104DE
:10CCCC00E31A94FEF2406244D2444249B2490561EF
:10CCDC0082801775FF1F0345552393773500098113
:10CCEC001777FF1FA304F738AA971777FF1F230F97
:10CCFC00F736D9C31305C0033385A702A5654111C7
:10CD0C00850506C69750FF1FE78040009777FF1FE9
:10CD1C0023A0A7329307C0031776FF1F03460635DF
:10CD2C003306F60281459740FF1FE780C0A3977733
:10CD3C00FF1F9387E72F9C439776FF1F83C606330D
:10CD4C00014789077D56634FD700B2401306000395
:10CD5C0081451775FF1F1305E52D41011743FF1F73
:10CD6C00670063A02390C7002381070023A5070257
:10CD7C0005079387C703C1BF82809777FF1F9387EF
:10CD8C00272B98431776FF1F0346462E81476315C2
:10CD9C00F600814636858280BA861307C703835511
:10CDAC0067FCE389A5FE850793F7F70FCDB7011153
:10CDBC0022CC2EC632C406CE2A84EFF01FFC2246AB
:10CDCC00B24511E9C167F9176303F4005145F2400C
:10CDDC0062440561828054558347450095C213F720
:10CDEC00270141456314A700154575F2C18B3D45DC
:10CDFC00F9DF83C7A6010145E3FBB7FC3145C1BF91
:10CE0C00C18B0145E9F71545D9B7797126D2C164B3
:10CE1C0022D44AD04ECE52CC56CA06D62A890144C8
:10CE2C009779FF1F9389C920130AC003FD14854A03
:10CE3C009777FF1F83C787236364F400014535A8E8
:10CE4C00B307440303A70900BA9703D72700631657
:10CE5C00970005041374F40FE1BF03C557003000AD
:10CE6C0093856700EFF0F0181946CA8528009740A3
:10CE7C00FF1FE780C094E31E55FDB250225492541C
:10CE8C000259F249624AD24A456182809777FF1F64
:10CE9C009387071AC16698439775FF1F83C5051DB5
:10CEAC008147FD166395F500014632858280035853
:10CEBC0027003A866306D80003480700E307A8FE5C
:10CECC00850793F7F70F1307C703E9BF411106C690
:10CEDC00EFF0BFEA11C503554501B2404101828014
:10CEEC000145E5BF9777FF1F938787149843977683
:10CEFC00FF1F83C6A6178147110701456393F600F0
:10CF0C0082800346070001C605051375F50F8507DA
:10CF1C0093F7F70F1307C703D5B71775FF1F034513
:10CF2C00E51482801777FF1F1307C7108147BA8655
:10CF3C0031460C4391E58A07B69788C30145828038
:10CF4C0085071107E397C7FE4D458280411106C640
:10CF5C0022C4EFF09FE21DCD2A84035525008545A0
:10CF6C00EFF05FD3485409C59750FF1FE78020E7C7
:10CF7C0022851306C00381459730FF1FE780A07EF2
:10CF8C00FD572311F400230204000145B240224452
:10CF9C00410182800945DDBF411106C6EFF0FFDD7E
:10CFAC0011C50345C500B240410182800145E5BF72
:10CFBC00C167F9176304F502411122C406C62E8419
:10CFCC00EFF0BFDBAA87014591C703C54700698C09
:10CFDC0033358000B2402244410182800545828075
:10CFEC00011106CE2EC6EFF05FD9854711C9035744
:10CFFC004501B24585476305B700231AB500814743
:10D00C00F2403E850561828021CD01114AC84169FB
:10D01C0022CC26CA4EC652C406CE0144AA849779A5
:10D02C00FF1F9389E900130AC0037D199777FF1F2F
:10D03C0083C7C703634AF400F2406244D2444249B6
:10D04C00B249224A056182803305440383A7090053
:10D05C003E95835725006383270182940504F9B715
:10D06C0082809777FF1F9387A7FC9C43C166177636
:10D07C00FF1F0346A6FF890701450147FD16914591
:10D08C006313E600828003D807006309D80003C845
:10D09C00A7006315B80005051375F50F0507137781
:10D0AC00F70F9387C703E9BF9777FF1F938747F85D
:10D0BC0094431776FF1F034666FB01479106814791
:10D0CC006310E602858393C7F7FFC207C18305454A
:10D0DC006364E50285473395A70042054181828050
:10D0EC0083C5060081C583D5C602CD8F050713778E
:10D0FC00F70F9386C603E9B793F61700E1FE050513
:10D10C0085831375F50FE9B7797156CAAA8A2E85EE
:10D11C0026D24AD04ECE52CC5AC85EC662C406D66F
:10D12C0022D4AE84328B368CBA8B3E8AC289468925
:10D13C00EFF0BFC449E141657D15EFF01FC42A84AF
:10D14C00554531CC1946DE8513056400A3028401D4
:10D15C009730FF1FE780A05D8357010323119400D4
:10D16C00230264012319F400835741032300540163
:10D17C0023260402231AF400230644012317340146
:10D18C0023182401EFF05FF22318A402232A0402CF
:10D19C002685232C04028145EFF0DFAF0145B25008
:10D1AC00225492540259F249624AD24A424BB24B2F
:10D1BC00224C456182804545DDB79777FF1F9387E9
:10D1CC0027E798439776FF1F83C646EA8147639506
:10D1DC00F60041657D1582803A861307C703835597
:10D1EC0047FF6395A500035526008280850793F7BA
:10D1FC00F70FF1BF9777FF1F938787E3416698433B
:10D20C001778FF1F034888E681477D1685482D4314
:10D21C00314E6314F80001458280835627003A850D
:10D22C006382C602545B99CE83C5060063971501D1
:10D23C0083C616006378DE00828089E583C61600FB
:10D24C00E37CD3FC850793F7F70F1307C703D1B71C
:10D25C009777FF1F9387C7DD416698439775FF1F2C
:10D26C0083C5C5E081477D1625486394F5000145CB
:10D27C008280835627003A85638BC600545B81CA33
:10D28C0083C61600E51693F6F60FE373D8FE8507F2
:10D29C0093F7F70F1307C703C9BF894791C909C98A
:10D2AC0095472380F50083470500A380F50081474F
:10D2BC003E85828039714ED652D4AE892A8A930526
:10D2CC003005414526DA4AD856D206DE22DC32C673
:10D2DC003689BA8A9750FF1FE78040A3CD4431C9E5
:10D2EC002A8489446382090432468145231AC10089
:10D2FC0041469730FF1FE78000475686CE85228532
:10D30C009730FF1FE780A0422146630E0902CA85B1
:10D31C0028089730FF1FE7808041A28650082C0810
:10D32C005285EF302027AA8422859750FF1FE78073
:10D33C0000ABF250625426854259D254B259225A4B
:10D34C00925A21618280814528089730FF1FE7801F
:10D35C008041E1B789478DC505C5411106C6AE8729
:10D36C001947AA852380E70013851700414697309B
:10D37C00FF1FE780C03BB24081473E854101828060
:10D38C003E858280894795C90DC9411106C625473E
:10D39C002380E50003470500AE871946A380E5000E
:10D3AC0093051500138527009730FF1FE780203861
:10D3BC00B24081473E85410182803E85828089470B
:10D3CC008DC505C5411106C6AE872147AA852380A8
:10D3DC00E7001385170041469730FF1FE780203583
:10D3EC00B24081473E85410182803E8582808947DB
:10D3FC009DCD15CD411106C61D472380E500035771
:10D40C000500AE872146A380E50003570500218364
:10D41C002381E50093052500138537009730FF1F06
:10D42C00E780E030B24081473E85410182803E85F5
:10D43C00828089478DC505C5411106C6AE870D474B
:10D44C00AA852380E7001385170041469730FF1FFC
:10D45C00E780E02DB24081473E85410182803E85C8
:10D46C00828089478DC505C5411106C6AE87114717
:10D47C00AA852380E7001385170041469730FF1FCC
:10D48C00E780E02AB24081473E85410182803E859B
:10D49C00828089478DC505C5411106C6AE872947CF
:10D4AC00AA852380E7001385170041469730FF1F9C
:10D4BC00E780E027B24081473E85410182803E856E
:10D4CC00828023A0019A23A2019A23A4019A975740
:10D4DC00FF1F938727EB171700001307C76398C329
:10D4EC001707000013070747D8C3170700001307D7
:10D4FC00A7DC98C79757FF1F938787E9172700006A
:10D50C001307E7D698C31707000013078761D8C322
:10D51C00171700001307A7E598C78280C14709CDEC
:10D52C00144DC14791CA784D01CB83C73600BD4617
:10D53C0063F4F600834787013E858280411122C443
:10D54C001384019A4AC02A89084006C626C241C5DE
:10D55C00A284631E0900834705002146B1CB29052F
:10D56C009730FF1FE780A01C9C400545B9CF49456B
:10D57C00EF60EF872A840DC5930710FC2300F5009C
:10D58C00A30025018C400905414689059730FF1FF2
:10D59C00E780E0199C40A28503C51700EF60AF90AF
:10D5AC0088409750FF1FE780808323A0019A29A809
:10D5BC0009059730FF1FE7808017EF20707D054924
:10D5CC0045F51C40238027010545B2402244924476
:10D5DC000249410182800145CDBF1C4D639F071656
:10D5EC00411122C426C22A84AE84414593053005DC
:10D5FC0006C69740FF1FE780607108CCCD476304D7
:10D60C000510A68541469730FF1FE78040128345E1
:10D61C000400F9ED7C4C184CD04B5443058A858A98
:10D62C006307D60083D64701F99A239AD700D04BCB
:10D63C00544305828582058A858A6307D60083D682
:10D64C004701F59A239AD700D04B5443098289821B
:10D65C00058A858A6307D60083D64701ED9A239AFB
:10D66C00D700D04B54430D828D82058A858A63077F
:10D67C00D60083D64701DD9A239AD700D04B54436A
:10D68C002182A182058A858A6308D60083D6470148
:10D69C0093F6F6EF239AD700D04B54432582A582FC
:10D6AC00058A858A6308D60083D6470193F6F6DF90
:10D6BC00239AD700D04B54432982A982058A858AA4
:10D6CC006308D60083D6470193F6F6BF239AD7009A
:10D6DC00D44B5843AD822D83858A058B638AE60033
:10D6EC0003D74701FD769386F67F758F239AE70063
:10D6FC0003C714007C4C11CF03C7170019CB9547F7
:10D70C00A301F4008147B240224492443E8541017A
:10D71C00828003C72400118B19E703C72701118BE3
:10D72C0019E38547F1BF03C7070083C6040081C511
:10D73C00B687BA863E871146E147E366E6FCE364AA
:10D74C00D6FC95473307F702976701009387477319
:10D75C003E9736978347070065B7C5473E8582805D
:10D76C00AE8715C5784D05C7834607002380D500C5
:10D77C0083461700A380D500834627012381D5005B
:10D78C0083468701584BA381D500D8C1828041467E
:10D79C0081453E851733FF1F6700E3FC9387419A51
:10D7AC009C4391C703A387006303030002830945CD
:10D7BC008280011122CC2A84494506CEEF804F99F4
:10D7CC0015C12AC62285EFF04FDB09CD62443246E3
:10D7DC0083550503F2401775FF1F0345D588056176
:10D7EC006F60AFBFF240624405618280797126D2CE
:10D7FC009947231DB100AA842E858D4522D406D6C7
:10D80C0032C636C4231CF100EFD05FF52ACE4D444E
:10D81C001DC13246A246AA85328582962A8419E514
:10D82C002C082685EFF06F832A8411C5724597402A
:10D83C00FF1FE780C05A2685EFF0BFF72285B25054
:10D84C002254925445618280011122CC9305C5016A
:10D85C002A8441460A8506CE9730FF1FE78020EDCB
:10D86C00035544000A86970600009386C6BCC5453E
:10D87C00EFF0DFF7F240624405618280011122CCA7
:10D88C009305C5022A8441460A8506CE9730FF1FB0
:10D89C00E780E0E9035544000A869706000093866A
:10D8AC0086BCC545EFF09FF4F2406244056182806E
:10D8BC002E8697060000938626AAC5456FF01FF3A7
:10D8CC000111B28722CC2300B1002A84BE85130536
:10D8DC001100194606CE9730FF1FE78040E50A86F7
:10D8EC00228597060000938626AAA145EFF01FF02B
:10D8FC00F2406244056182802E8697060000938672
:10D90C0046ACC5456FF09FEE0111B28722CC2310B7
:10D91C00B1002A84BE8513052100214606CE97301E
:10D92C00FF1FE780C0E00A862285970600009386D9
:10D93C0046ACAD45EFF09FEBF2406244056182804E
:10D94C002E8697060000938606B5C5456FF01FEA34
:10D95C00011106CE22CC26CA834405008547639B61
:10D96C00F4048347150019472A84639AE7041C4D75
:10D97C0083D7470013F7071019C7784D0357470192
:10D98C001377071021E313F7072001CB784C0357CB
:10D99C00470113770720631B071093F7074081CBD0
:10D9AC007C4C83D7470193F7074063920716C9470E
:10D9BC00A300F400F2406244D244056182803147F6
:10D9CC006398E70A3C5085E3930530057145974011
:10D9DC00FF1FE780A03328D019C5714681459730C9
:10D9EC00FF1FE78040D82450B9C883C7A40191E732
:10D9FC002285EFF0BFB2238DA400814526854146D8
:10DA0C009730FF1FE78020D628503D478345A5015E
:10DA1C009387F5FF93F7F70F6364F700EF708FB8F8
:10DA2C00EF50BFE13C50A1452398A7001385270177
:10DA3C00EF704FB72C5003554400EFF07FE7B5471C
:10DA4C0003554400A300F400EFF02FB3414611C579
:10DA5C008357E50013D617003E966244F240D24439
:10DA6C001765FF1F03453560854505616F60EF96AF
:10DA7C003547639AE7023C5189CB83D5070103559F
:10DA8C00450013862701EFF03FE81C4C83D7470075
:10DA9C0013F7072039CB784C03574701137707202E
:10DAAC0029C7B94771BF3947639BE700EF70EFE0B7
:10DABC00AA8503554400EFF03FE4BD4751B73D47FD
:10DACC006394E704EF70CFDEAA85630D9502814560
:10DADC0026852EC6EF708FDB2A86B245035544008F
:10DAEC00EFF01FDE1C4C83D7470093F70740E38011
:10DAFC0007EC7C4C83D7470193F70740E38907EA8F
:10DB0C00C1473DBF8144E9B74147E392E7EAEF7073
:10DB1C008FDBAA8503554400EFF09FE249BD797174
:10DB2C0006D622D426D283440500A5E483471500EB
:10DB3C0019472A846394E7067C4D83D7470113F772
:10DB4C00170011C7184D03574700058B39EB13F716
:10DB5C00270019C7184C03574700098B6315071486
:10DB6C00918B99C71C4C83D74700918B639C0718EA
:10DB7C007C4C83D7470113F70710630D0718184C1B
:10DB8C00035747001377071063060718B147A30024
:10DB9C00F400B25022549254456182801D47639721
:10DBAC00E70C3C5089EB9305300571459740FF1FFE
:10DBBC00E780C01528D02450C9C02285EFF01F96ED
:10DBCC00238DA4008145268541469730FF1FE780B1
:10DBDC0080B928503D478345A5019387F5FF93F7FE
:10DBEC00F70F636DF7029767FF1F83C79751A5CF98
:10DBFC004146814508089730FF1FE780C0B619469B
:10DC0C009765FF1F9385053508089730FF1FE78040
:10DC1C0000B230500C082E85EFA0A009EF50FFC1C8
:10DC2C003C50A1452398A70013852701EF708F97CF
:10DC3C002C5003554400EFF0BFC7A14703554400D7
:10DC4C00A300F400EFF06F93414611C58357E50034
:10DC5C0013D617003E9685451765FF1F0345B54043
:10DC6C00EF50BFF73DB7EF70EF934DBF214763996E
:10DC7C00E7023C5189CB83D5070103554500138638
:10DC8C002701EFF07FC87C4C83D7470113F727009F
:10DC9C0021CF184C03574700098B39C7A54779BFCB
:10DCAC002547639BE700EF704FC1AA8503554400DD
:10DCBC00EFF09FC4A94759B729476392E704EF7067
:10DCCC002FBF8547AA856304F500814585442685C9
:10DCDC002EC6EF70AFBB2A86B24503554400EFF059
:10DCEC003FBE7C4C83D74701918BE38307E81C4CE8
:10DCFC0083D74700918BE38D07E6AD4781B72D475E
:10DD0C00E398E7E6EF702FBCAA8503554400EFF0CB
:10DD1C003FC3B9BD13F7072009CB184C0357470075
:10DD2C001377072019C3B9479DB593F7074089CBE3
:10DD3C001C4C83D7470093F7074099C3C14781BD5B
:10DD4C00C947B1B50DCD01118A8522CC06CE2A84E6
:10DD5C00EFF01FA183470400035544009716000001
:10DD6C00938666BB89E797160000938666BB0A8686
:10DD7C009D45EFF0BFA7F2406244056182800545E6
:10DD8C008280AA851765FF1F0345F52D6F60AF854F
:10DD9C00411122C4405926C206C6AA8431C4084C7B
:10DDAC0009C59740FF1FE7808003285009C597409D
:10DDBC00FF1FE780C002685009C59740FF1FE7802E
:10DDCC000002285409C59740FF1FE78040016854A2
:10DDDC0009C59740FF1FE780800022859740FF1FF1
:10DDEC00E780E0FF23AA0402224403D50403B240D7
:10DDFC00924441016FF0FFF8411126C206C622C4BD
:10DE0C00AE84EFE09FF721C54C592A84A9C183A8A1
:10DE1C00C50603A88506FC51B85183C6650003D618
:10DE2C00450083C505002685EF70BFBA2285EFF04B
:10DE3C003FF6EFF0EFC101CD2244B240924417659A
:10DE4C00FF1F03455522854541016F501FC7B24046
:10DE5C002244924441018280411122C4405926C27D
:10DE6C0006C67C4CAA8483D7470113F7071019C741
:10DE7C00184C03574700137707101DE313F70720BF
:10DE8C0019C7184C035747001377072011EB93F76A
:10DE9C0007409DCB1C4C83D7470093F707408DC799
:10DEAC009947A300F4002285EFF09FAA03471400C2
:10DEBC00C947631FF700224403D52400B2409244A3
:10DECC00814541016FF05FF3C947A300F400E5B74A
:10DEDC00B2402244924441018280411106C622C4C0
:10DEEC0026C2EFF02FB121C14059AA840DCC834733
:10DEFC0004009DC79387419A9C4389C7DC4399C30F
:10DF0C002285829703471400C947631EF7002244F9
:10DF1C0003D52400B2409244814541016FF0DFEDFE
:10DF2C009387819AD1BFB2402244924441018280AE
:10DF3C00411126C24AC006C622C4AA842E89EFE02B
:10DF4C00DFE30DCD40595DC0835744006390970AC1
:10DF5C008347140019476392E70883470400BDCB3D
:10DF6C007C4C83D7470113F7170005C3184C035794
:10DF7C004700058B19CB9D47A300F400B240224407
:10DF8C009244024905454101828013F7270001CBD9
:10DF9C00184C03574700098B19C3A547F1BF918B48
:10DFAC0081CB1C4C83D74700918B99C3AD47E9B704
:10DFBC009387419A9C43F9D3DC43E9D3228582971A
:10DFCC0003471400C9478145E31AF7FA2685EFF099
:10DFDC00BFE26DB79387819AF1BF45476398E7001D
:10DFEC006304090013092003CA85CDB7631C09001B
:10DFFC002685EFE09FD819C58347450093E70701B5
:10E00C002302F500A6854A85EF70CFB085BF41117C
:10E01C0022C42E862E8497F6FFFF938646288945C8
:10E02C0006C626C24AC02A89EFF04FFC834504007D
:10E03C00AA844A85EFF05FDCB2402244268502496F
:10E04C009244410182809387819A9C4395CB9C4357
:10E05C0085CB797122D406D6984110082A843AC807
:10E06C00D84185453ACA829701C92306A1000355B8
:10E07C0024006C00EFF0BFF9B2502254456182804D
:10E08C008280011122CC06CE2A842EC6EFE0FFCE70
:10E09C005C5991CF83D74700B245639A8700854777
:10E0AC006397F5006244F24005616FF07FCEF24059
:10E0BC00624405618280411106C6EFF00F90C16782
:10E0CC00FD176307F500B240DD4541016FF0DFD26B
:10E0DC00B240410182802300B5008280011126CA22
:10E0EC004EC6AE84AA8993053005130500034AC8B1
:10E0FC0006CE22CC32899740FF1FE78020C12DC568
:10E10C001306000381452A849720FF1FE780A06532
:10E11C004146CE8522859720FF1FE780206DA6857E
:10E12C000D461305D4019720FF1FE780206C1306C2
:10E13C000402930504012285EF90B037AA840D46A2
:10E14C009305D4024A859720FF1FE780206A228519
:10E15C009740FF1FE780A0C8F240624426854249E1
:10E16C00D244B24905618280CD44FDB78147414616
:10E17C00B306F5003387F5000347070003C8060014
:10E18C008507334707012380E600E393C7FE8280AF
:10E19C005D714EDE62D4AE892A8C93053005130571
:10E1AC000003A6C2CAC052DC56DA5AD85ED686C65E
:10E1BC00A2C4B28B368BBA84BE8A4289468A9740F7
:10E1CC00FF1FE780A0B4630505101306000381450B
:10E1DC002A849720FF1FE78000594146E28522855B
:10E1EC009720FF1FE7808060414681450A85972074
:10E1FC00FF1FE78040571D46DE850A859720FF1FCD
:10E20C00E780C05E1D46DA85130571009720FF1F5D
:10E21C00E780C05D33392001B3349000414681451D
:10E22C00080823072101A30791009720FF1FE7800F
:10E23C0080531946D68548089720FF1FE780005B5E
:10E24C001946D2851305A1019720FF1FE780005ABC
:10E25C00930404014146CE8526859720FF1FE78055
:10E26C00E0588A852685EFF07FF0930904024E86EC
:10E27C00A6852285EF90F0232A890DE94146CE85AB
:10E28C0026859720FF1FE780804A0C082685EFF033
:10E29C00FFED4E86A6852285EF90B0212A89464552
:10E2AC004146CE859720FF1FE7804054228597403A
:10E2BC00FF1FE780C0B2B64026444A859644064903
:10E2CC00F259625AD25A425BB25B225C6161828023
:10E2DC004D49D5B7011126CA52C4AA842E8A1305FA
:10E2EC000003930530054AC84EC606CE22CC3289AF
:10E2FC00B6899740FF1FE78060A135C52A84A685A3
:10E30C0041469720FF1FE780604E9304040121468D
:10E31C00D28526859720FF1FE780404DCA85214670
:10E32C00130584019720FF1FE780404C130904025A
:10E33C00A6854A862285EF90D017AA844146CA85C5
:10E34C004E859720FF1FE780604A22859740FF1F6C
:10E35C00E780E0A8F240624426854249D244B249A3
:10E36C00224A05618280CD44F5B75D71A2C4A6C274
:10E37C004EDE52DC86C6CAC0AE89328AAA84EFE071
:10E38C00DF9F4059414681450A859720FF1FE78052
:10E39C00803D41CC0359440063199908834704001C
:10E3AC00C9E70347140099476313F70414081306CD
:10E3BC00C4049305C40213057400EFF0BFF135E5F6
:10E3CC002285EFF0AF952A860C080A859720FF1F4F
:10E3DC00E780E0358A854A85EF20C01C0545B640AC
:10E3EC00264496440649F259625A616182802C5047
:10E3FC008DCDC54683D70501631FD7086312FA027A
:10E40C002146C9054E859720FF1FE780403B854775
:10E41C006318F5002285EFF06F902A862C5075B7A3
:10E42C00930520032685EFF03F9D2685EFE0FF94B2
:10E43C002A8451C14C55C1C183D70501639D47073F
:10E44C002146C9054E859720FF1FE7804037854739
:10E45C002A896312F5064C540A8503C6A501972038
:10E46C00FF1FE780C02C83C7918591C75C5483C77D
:10E47C00B701639D270FBD452685EF20600D97677B
:10E48C00FF1F938727A79C5B0145B1DB1D45894581
:10E49C0082970145A9B7E31AFAF82146C9054E85BA
:10E4AC009720FF1FE780A0318547E310F5F82C502B
:10E4BC0003C6A50119BF9767FF1F9387A7C403C79E
:10E4CC0007009769FF1F9389E9A23E89058B31C329
:10E4DC00034754009767FF1F83C747C2631BF702AC
:10E4EC0019469765FF1F938575C113056400972026
:10E4FC00FF1FE780C02C8547631DF50083A7090328
:10E50C0081C791451D458297BD452685EF20400466
:10E51C00F1B51767FF1F0347D7BE83A7090331CB9C
:10E52C0003470900098B09CB81C795451D45829787
:10E53C002685EF2060075DB581C78D451D45829707
:10E54C004146814508109720FF1FE780C0211946DE
:10E55C009765FF1F938505A008109720FF1FE78084
:10E56C00001D0C100A862E85EF90A0748A852685D6
:10E57C00A5B58545C5FF6DBF8147C1463307F5007D
:10E58C00B388F5000347070083C808003308F6007A
:10E59C008507334717012300E800E391D7FE8280FB
:10E5AC000147BD471308F00F3306F50083460600FC
:10E5BC00B388F500FD178606558F2380E8000347C6
:10E5CC00060093F7F70F1D83E39007FF82808147C6
:10E5DC00930800F8414893F6F70F3387F50063FC76
:10E5EC00C600B306F50083C606002300D7008507D6
:10E5FC00E39307FF82806395C60023001701C5BF14
:10E60C0023000700EDB701114AC856C22E89AA8A09
:10E61C0093053005414506CE22CC26CA4EC652C4BF
:10E62C00328A9730FF1FE780606EAA84930530050D
:10E63C0041459730FF1FE780606D2A84CD49A5C402
:10E64C0031CD414681459720FF1FE780C0112686BA
:10E65C00A2855685EF90E065AA8929E1838704009D
:10E66C0063D30706A2852685EFF09FF34A8697654C
:10E67C0001009385A5822285EFF01FF08307090026
:10E68C0063D80704A2854A85EFF09FF152869765FF
:10E69C0001009385A5802285EFF01FEE268597302B
:10E6AC00FF1FE780C07311C422859730FF1FE780DE
:10E6BC000073F24062444E85D2444249B249224A28
:10E6CC00924A05618280CA852685EFF07FED7DB781
:10E6DC00D2854A85EFF0DFECD1B739715AD05ECED6
:10E6EC002A8BAE8B41459305300506DE26DA52D4D3
:10E6FC0056D262CC66CA6AC8368C328DBA8C22DC91
:10E70C004AD84ED69730FF1FE7804060AA8A9305FF
:10E71C00300541459730FF1FE780405F2A8ACD4482
:10E72C00638E0A0859C52A86D6855A85EFF0BFED47
:10E73C00AA8441E19305300541459730FF1FE780DE
:10E74C00E05C2A899305300541459730FF1FE7802F
:10E75C00E05BAA89630A090E6306050E1304FD002B
:10E76C0011841376FD0049C07D144204418035EEBE
:10E77C00131544004E86D6855E95EFF0FFDF4146BB
:10E78C0081454A859720FF1FE780E0FD014D9317D7
:10E79C000D01C18363F48708BDC04A859730FF1F04
:10E7AC00E780E063638709004E859730FF1FE780A1
:10E7BC00006356859730FF1FE780606263070A008D
:10E7CC0052859730FF1FE7808061F2506254268596
:10E7DC004259D254B259225A925A025BF24B624CB1
:10E7EC00D24C424D216182800144131544008A852C
:10E7FC005E95EFF0DFDD4E86D2850A85BDBF9315A1
:10E80C004D000A86DE954A85EFF01FD74A868A8529
:10E81C005A85EF90004AAA84050D95BFBDFC0A8667
:10E82C00CE854A85EFF05FD54A868A855A85EF906A
:10E83C004048AA846686CA8562859720FF1FE780B8
:10E84C0000EFA1BFCD4491BFCD44A9BF894761C2A0
:10E85C00DDCD2300A60083C70500A300F60083C707
:10E86C0015002301F60083C72500A301F60083C71A
:10E87C003500A30206002302F60083D74500A183CE
:10E88C00858BA302F60003D745001377072009C731
:10E89C0093E72700A302F60083D7450093F70740C0
:10E8AC0099C78347560093E74700A302F60083D726
:10E8BC00450013974701635807008347560093E7B9
:10E8CC008700A302F6002303060083C74500858B4F
:10E8DC002303F60003D74500098B09C793E72700EC
:10E8EC002303F60083D74500918B99C783476600B5
:10E8FC0093E747002303F60003D745008147218B9C
:10E90C0019C703476600136787002303E6003E859B
:10E91C0082802E86AA8505456FF05FF32E86AA8528
:10E92C0009456FF0BFF24DC95971A2D42A84035521
:10E93C004500A6D2CAD0CECED6CA86D6D2CCDAC89C
:10E94C00DEC6B68AB2892E89EFE02FC3AA8439C5F8
:10E95C000C182285EFE0DFE083470400138A640083
:10E96C00A9CBEF60EFF42A8B014583CB5400EF6009
:10E97C00EFF1AA840C100818EFF0BFF9084C2C101A
:10E98C00EFF0DFF9D288268A56C05E88D2875A8784
:10E99C0014103010CE854A85EFF08FFFB6502654F8
:10E9AC0096540659F649664AD64A464BB64B6561AB
:10E9BC008280EF60EFEFAA8B014503CB5400EF6030
:10E9CC00EFEC2ACE084C0C10EFF0BFF42C1008180A
:10E9DC00EFF0DFF4F2484DBF8280894791C909C935
:10E9EC00AD472380F50083470500A380F5008147E0
:10E9FC003E858280011122CC4AC806CE26CA2A84C2
:10EA0C00EFE0BFBD2A8901CDE1476302F510214932
:10EA1C00F24062444A85D2444249056182807C4C72
:10EA2C0083C72701858B91CF1C4C054783C72700D3
:10EA3C008D8B6398E7008347640093E717002303EB
:10EA4C00F4008344340089476391F4020355440075
:10EA5C008545EF70CF908347640093E7470023030D
:10EA6C00F4008D47A300F40065B70D476390E402F2
:10EA7C00035544008945EF708F8E83476400A300D3
:10EA8C00940093E747002303F40059B71147E38F31
:10EA9C00E4FA05476390E40493047400A300F400C3
:10EAAC004146814526859720FF1FE780C0CB130682
:10EABC00C4023285C14532C6EF60CFAE32462285E4
:10EACC009306C401A685EFF01FE62285EFE0DFD7A1
:10EADC0021D135BF1547E39DE4F293047400A300E4
:10EAEC00F4004146814526859720FF1FE780A0C78B
:10EAFC006C4C4146268589059720FF1FE78020C373
:10EB0C008347640093E747002303F4004DB70D4996
:10EB1C0001B7397122DC405926DA4AD84ED606DEC6
:10EB2C00AA89AE84328963090420035525008357D2
:10EB3C004400638BA700A144F250625426854259CD
:10EB4C00D254B259216182808347040099E39D44D9
:10EB5C00E5B7AD47E3EDB7FE9387E5FF93F7F70F06
:10EB6C002547E366F7FE175701001307A7298A0705
:10EB7C00BA979C43BA978287B2852285EFF09FE7BC
:10EB8C00AA845DBF4146CA851305C4039720FF1FA5
:10EB9C00E780E0B92285EFE07FCEAA8411C1A144C1
:10EBAC009547A300F40049BF9309C404CA854146A4
:10EBBC004E859720FF1FE78080B713097400140857
:10EBCC004E86CA852285EFF01FD641469305C403B5
:10EBDC0008089720FF1FE78080BE8547E31EF5F4E9
:10EBEC008A861306C402CE854A85EFF0AFEE11ED8E
:10EBFC002285EFE0BF922A870355440081460146E7
:10EC0C008A85EFE02FEBAA8411C1A144994751BF2B
:10EC1C00034714009D47E31CF7F27C5089EB9305E6
:10EC2C00300571459730FF1FE780400E68D0685063
:10EC3C0019DD4146CA859720FF1FE78040AF22852A
:10EC4C00EFE0DF8D7C50238DA700A147A300F400DB
:10EC5C008144DDB56850E30C05EE03471400A14771
:10EC6C00E317F7EE83570600930529002146231876
:10EC7C00F50049059720FF1FE78060AB7C4C83D7DC
:10EC8C00470113F727002DC3184C03574700098B76
:10EC9C0021CFA54765BF03471400A547E319F7EA41
:10ECAC003C5481EB854559459730FF1FE7800006A2
:10ECBC0028D4285419C54146CA859720FF1FE780E0
:10ECCC0000A7A94761B703471400A947E311F7E868
:10ECDC00285419469305190041059720FF1FE7801A
:10ECEC0000A57C4C83D74701918B95CF1C4C83D7C7
:10ECFC004700918B8DCBAD4791BF7C5489EB93052D
:10ED0C00300551459730FF1FE780400068D46854A8
:10ED1C00E30305E24146CA859720FF1FE78020A147
:10ED2C007C547D5798CB4E85EFF00F9315B78345E8
:10ED3C000600EFF06F8C29BFAD47E39BF5F08346DF
:10ED4C000600835525001306650003450500EF609A
:10ED5C000FEDFDBD15C1AA8709458DC141112E8549
:10ED6C0041469385170006C69720FF1FE780209C1D
:10ED7C00B2400145410182800945828082808947E9
:10ED8C001DC595C5411106C603471500AE8719462A
:10ED9C002380E50093052500138517009720FF1F9E
:10EDAC00E780E098B24081473E85410182803E85F4
:10EDBC00828015C1AA8709458DC141112E85414616
:10EDCC009385170006C69720FF1FE7804096B24038
:10EDDC0001454101828009458280828089471DC995
:10EDEC0095C9411106C60347250083461500AE8719
:10EDFC002207558F2390E500214693053500138596
:10EE0C0027009720FF1FE7808092B24081473E8504
:10EE1C00410182803E85828015C1AA8709458DC13A
:10EE2C0041112E8541469385170006C69720FF1F7A
:10EE3C00E780E08FB2400145410182800945828024
:10EE4C008280094711CD89CD83471500A146014722
:10EE5C002380F500FD1793F7F70F63F3F600614776
:10EE6C003A85828015C1AA8709458DC141112E852D
:10EE7C0041469385170006C69720FF1FE780208B1D
:10EE8C00B2400145410182800945828082808947D8
:10EE9C006309051063870510411106C622C426C2FA
:10EEAC00834715002E842380F50083472500A3801B
:10EEBC00F500834735002381F50083474500A38186
:10EECC00F50083475500858B9396870083D74500C3
:10EEDC0093F7F7EFD58F2392F5008346550093F700
:10EEEC00F7DFA20693F60620DD8E2392D5000347AA
:10EEFC00550093F6F6BF220713770740558F2392E0
:10EF0C00E50083475500FD769386F67F8D83858BD0
:10EF1C00758FAE07D98F2392F50083466500F99B58
:10EF2C00858ADD8E2392D5000347650093772700F1
:10EF3C0013F7D6FF5D8F2392E5008347650093F6A8
:10EF4C0047009377B7FFD58F2392F50003476500F1
:10EF5C00DD9B4D45218BD98F2392F500EF605F9F90
:10EF6C00AA845145EF60DF9E0347340093F4F40FFD
:10EF7C001375F50FC94763609702636EE50083460E
:10EF8C0004001147E1476368D70083461400054726
:10EF9C006363D7008147B240224492443E854101CD
:10EFAC0082803E85828015C1AA8709458DC1411199
:10EFBC002E8541469385170006C69710FF1FE780E4
:10EFCC000077B240014541018280094582808280F0
:10EFDC00797122D42A84084506D626D2230601004C
:10EFEC008344050029479387F4FF93F7F70F636277
:10EFFC00F70C17570100130767E38A07BA979C436E
:10F00C00BA9782870C08EFF09FE8C9476312F502A4
:10F01C0099472306F100035524006C00EFE03FFFF5
:10F02C00B25022549254456182800C08EFF0DFDE1E
:10F03C0029C98347C100E5F303552400EFE06FF7BE
:10F04C00C5B70C08EFF01FE2E5B70C08EFF07FDF57
:10F05C00C5B70C08EFF01FD0E1BF0C08EFF01FD8BC
:10F06C00C1BF0C08EFF0FFD4E1B70C08EFF03FD1B3
:10F07C00C1B70C08EFF03FF365BF834715002308B9
:10F08C00F10003552400EFD05FCFA14705C1034722
:10F09C00C5006312F7029387419A98439D4719C79D
:10F0AC00184309C71008A6850297AA872306F10002
:10F0BC0049B79D47B9BF9387819AC5B7411122C4FF
:10F0CC0006C603470500930720092A846312F70A32
:10F0DC008347150039476393E70283564500096758
:10F0EC00610781476391E6081C452244B24003C581
:10F0FC0007009385170041016FE04FC41307E0032D
:10F10C006396E708034725009547631DF7020355EF
:10F11C004500EFD07FE891476304F5008547A1A037
:10F12C009387819A9C43FDDB03A38700E30803FECE
:10F13C000356E40003554400930564002244B24096
:10F14C0041010283A147631BF7008345640003550B
:10F15C0044002244B24041016FE09FDD930600035E
:10F16C008147E304D7FEB24022443E8541018280B0
:10F17C009306000A8147E318D7FEEFF07FE50844B9
:10F18C0051DD9730FF1FE78080C549BF8147E1BF44
:10F19C00411122C426C206C62A84EFE00FC4AA84F9
:10F1AC0019C9E1476301F50CA144B24022442685FC
:10F1BC009244410182802285EFE0DFB86C4C83C71A
:10F1CC002501858B91CF1C4C054783C727008D8B60
:10F1DC006398E7008347640093E717002303F40068
:10F1EC008347340009476391E7028945035544007E
:10F1FC00EF60FF968347640093E747002303F40016
:10F20C009147A300F40055B79386D7FF93F6F60FFA
:10F21C0005466364D6008545D1BF6392C702A3003F
:10F22C00E40041468145130574009710FF1FE780E9
:10F23C008053C1451305C402EF50DFB6BDB79546E8
:10F24C00E395D7F6A300E400414689051305740045
:10F25C009710FF1FE780A04D8347640093E747009A
:10F26C002303F400F9B78D4489B7797122D440593E
:10F27C0026D24AD04ECE06D6AA89AE843289630BEA
:10F28C0004200355250083574400638BA700A14439
:10F29C00B2502254268502599254F249456182801B
:10F2AC000347040085476314F7009D44D5B7938743
:10F2BC00F5FF93F7F70F2547E369F7FE17570100A2
:10F2CC00130787B98A07BA979C43BA978287B28586
:10F2DC002285EFF0FFEBAA8465BF4146CA85130572
:10F2EC00C4039710FF1FE780804403471400914725
:10F2FC006305F7029306C4011306C4029305740058
:10F30C002285EFF04FE22285EFE00FD4AA8411C1E1
:10F31C00A1449547A300F400A5BF8D47A300F400BA
:10F32C008144BDB79307C4043E85CA8541463E89D6
:10F33C009710FF1FE780A03F8A864A8693057400CA
:10F34C002285EFF04FDE41469305C4030A859710E2
:10F35C00FF1FE780C0468547E31CF5F22285EFE0EE
:10F36C00EFD1AA840DF5994775B703471400B1473F
:10F37C00E31DF7F27C5089EB93053005714597300E
:10F38C00FF1FE780A09868D0685005D14146CA8518
:10F39C009710FF1FE780A0392285EFE02F987C5053
:10F3AC00238DA700B5479DBF6850E30005F00347C8
:10F3BC001400B547E31BF7EE8357060093052900AD
:10F3CC0021462318F50049059710FF1FE7802036CA
:10F3DC007C4C83D7470113F707203DC3184C0357C8
:10F3EC0047001377072029CFB9470DBF03471400F7
:10F3FC00B947E31CF7EA3C5489EB930530055945B2
:10F40C009730FF1FE780809028D4285419C54146B7
:10F41C00CA859710FF1FE7808031BD4701B70347AE
:10F42C001400BD47E313F7E8285419469305190057
:10F43C0041059710FF1FE780802F7C4C83D7470135
:10F44C0093F707409DCF1C4C83D7470093F7074099
:10F45C008DCBC147E1B57C5489EB93053005514503
:10F46C009730FF1FE780808A68D46854E30105E277
:10F47C004146CA859710FF1FE780602B7C547D574F
:10F48C0098CB03D529008145EFE01F9751BD8345EB
:10F49C000600DDBF8547E395F5E803284600834762
:10F4AC003600034726008346160083552500034685
:10F4BC0006000145EF505FEDA5B5011126CA06CE39
:10F4CC0022CC89441DCD95CDAA842E8468008D450F
:10F4DC00EF505F8D8347E1002685228693F7F70373
:10F4EC0093E707046C002307F100EFE03FBFAA8409
:10F4FC0009E90D466C00130534009710FF1FE780D7
:10F50C000023F24062442685D244056182805D71FD
:10F51C004EDE86C6A2C4A6C2CAC052DC56DA5AD87F
:10F52C005ED6894945CD5DCA138B4500420B135BF2
:10F53C000B01AE8A2A8A930530055A85B28497202E
:10F54C00FF1FE780A07C2A84CD4949C9EF507FB8C2
:10F55C002A895686D285935A8900135A0901937BBE
:10F56C00F90F1305440093FAFA0F137AFA0F135993
:10F57C0089019710FF1FE7806027A3017401230105
:10F58C005401A300440123002401EF50DFB3AA85EA
:10F59C00414608089710FF1FE7804025214734009B
:10F5AC005A86A2850808EFF04F93AA891DE12146DF
:10F5BC002C0023807401A380540123814401A38176
:10F5CC002401138544009710FF1FE7802022EF5081
:10F5DC003FB122859730FF1FE7806080B6402644FC
:10F5EC004E8596440649F259625AD25A425BB25B36
:10F5FC0061618280011106CE2AC6EFD09FEC3245A4
:10F60C0099459757FF1FA380A7A6EFC04F90F240D4
:10F61C0017F5FFFF130525A705616FD0BF9097570E
:10F62C00FF1F83C767A4A18B1737FF1F130787D54D
:10F63C0091E3014723A2E19A01458280797152CC72
:10F64C002A8A2E8506D622D426D24AD04ECE2EC653
:10F65C00EFD0AFF245C5405945C4834734008949C2
:10F66C00F91793F7F70F63EDF90883574400B24588
:10F67C0089446394B706130974004146D2854A85C0
:10F68C009710FF1FE780A00A1306C4023285C145FC
:10F69C0032C6EF502FF132469306C401CA8522853B
:10F6AC00EFF06FA803470400834714000DC30D4708
:10F6BC0081446394E702A300340122852254B250A2
:10F6CC0092540259F249624A45616FE0EF97114733
:10F6DC00639EE700A30094008144B2502254268517
:10F6EC0002599254F249624A456182800D47814425
:10F6FC00E395E7FE9547A300F400C1B78944F1BF39
:10F70C00C944E1BF79719397050122D406D626D25C
:10F71C004AD04ECEC1872E8463D507041755FF1FE0
:10F72C0003457594EF301FF12AC605C1EFF01F9900
:10F73C00B24509E91755FF1F0345E5929307F00FF2
:10F74C00631EF5002E85EF30DFE72165218DB25069
:10F75C00225492540259F24945618280EF30BFF431
:10F76C00EDB793F7150091C7EFE02FF71345140091
:10F77C00F9BF8DE90145E1BF850493F4F40FEFD097
:10F78C00CFF9E3F9A4FE3395990013190501135928
:10F79C000901B3772401EDD34A85EFE0DF913345BE
:10F7AC00240175B785448549D9BF29CD011126CAD5
:10F7BC0006CE22CCAA840945A9C10D4628002E8468
:10F7CC008D059710FF1FE78080F68347A10070001E
:10F7DC002C0093F7F70393E7070426852305F10024
:10F7EC00EFE0DF8F19E90D46A28568009710FF1F27
:10F7FC00E780E0FC7D153335A000F2406244D24432
:10F80C0005618280094582809757FF1F83C7C78592
:10F81C00918B1737FF1F1307A7B791E3014723A459
:10F82C00E19A01458280011152C42A8A32854EC662
:10F83C0056C25AC006CE22CC26CA4AC82E8BB28AD1
:10F84C00B689EFD08FD309ED8944F2406244268506
:10F85C004249D244B249224A924A024B0561828003
:10F86C005C592A89C544F5F34D45EF606F8E1374CE
:10F87C00F50F5145EF60CF8DE38809FC83C78901F3
:10F88C00E3E487FC1375F50FE360F5FC9305300595
:10F89C00130500079720FF1FE7804047232AA90282
:10F8AC002A84CD445DD11306000781459710FF1FB4
:10F8BC00E78060EBA30004002300440123016401F2
:10F8CC0023125401232E3405232C0400A30104001D
:10F8DC0063170A008547A300F4008144BDB7228555
:10F8EC00EFE04FC68547A300F400AA8439DD4A85B2
:10F8FC00EFE00FCA99BF397122DC06DE26DA4AD84E
:10F90C004ED652D456D25AD05ECE62CC66CA094478
:10F91C00630B061063090710AA8B3A89368BB28ADF
:10F92C002E8CEFD08FC52A8A5144630E050E930599
:10F93C00300541459720FF1FE780403DAA894D4483
:10F94C007DC18344190083472900A204C207BE94D9
:10F95C0083470900BE9483473900E207BE9483278E
:10F96C008A0263E697007D5709446399E70A6307A7
:10F97C000C0083474A000544898BCDC3930C4B0084
:10F98C00214681450A85C20C9710FF1FE780A0DD38
:10F99C0093DC0C019305300566859720FF1FE780EB
:10F9AC00E0362A8C4D443DC95A86D68511059710F0
:10F9BC00FF1FE780A0E31146CA8562859710FF1FE1
:10F9CC00E780C0E2414693058A014E859710FF1FE0
:10F9DC00E780C0E121478A866686E2854E85EFE0A6
:10F9EC00DFCF2A841DE521468A8528009710FF1F4A
:10F9FC00E780C0DF21469305490028009710FF1FC0
:10FA0C00E780E0DB8547631EF502A6855E85EF6027
:10FA1C00EF9F62859720FF1FE780603C4E85972003
:10FA2C00FF1FE780C03B2285F2506254D2544259EA
:10FA3C00B259225A925A025BF24B624CD24C21615F
:10FA4C0082800544F9B7397162CC2A8C594526DA83
:10FA5C004AD84ED652D456D25AD05ECE06DE22DCCE
:10FA6C00AE8B328BB68A3AC63E8AC28946898344AB
:10FA7C000104EF30DFB749C19167938717E9231071
:10FA8C00F50085472301F5002A8432472105630CD4
:10FA9C000C0493071003A301F40019468145971039
:10FAAC00FF1FE78040CC23036401A3035401230A06
:10FABC0094002312740123174401231834012319D1
:10FACC002401A2856254F250D2544259B259225A9E
:10FADC00925A025BF24B624C1745FF1F0345855847
:10FAEC0021616F305FBCA30104001946BA859710E1
:10FAFC00FF1FE780C0C345BFF2506254D254425935
:10FB0C00B259225A925A025BF24B624C21618280AA
:10FB1C00011122CC2A84314506CE2EC632C436C2FF
:10FB2C003AC0EF30DFAC29C19167938717E92310F6
:10FB3C00F5008D472301F500A3018500B24522464F
:10FB4C00924602476244F2402312B5002313C500CB
:10FB5C002314D5002315E500AA851745FF1F03457F
:10FB6C00655005616F303FB4F2406244056182809C
:10FB7C0001114AC82A89394526CA06CE22CC2EC67E
:10FB8C00B284EF30DFA631C1B2459167938727E984
:10FB9C002310F5009147A30125012312B5002A84F7
:10FBAC002301F500A685190521469710FF1FE78054
:10FBBC0000B8A2856244F240D24442491745FF1F67
:10FBCC000345454A05616F301FAEF2406244D24492
:10FBDC0042490561828001114AC82A89414526CAD9
:10FBEC0006CE22CC2EC6B284EF307FA029C19167FD
:10FBFC00B245938727E92310F50095472A842312F1
:10FC0C0025012301F500214619059710FF1FE780F8
:10FC1C0000B2A285231794006244F240D2444249B8
:10FC2C001745FF1F0345354405616F30DFA7F240D0
:10FC3C006244D244424905618280011122CC2A845B
:10FC4C00394506CE2EC632C436C23AC0EF303F9A82
:10FC5C0029C19167938717E92310F5009947230170
:10FC6C00F500B245224692460247231285006244B3
:10FC7C00F2402313B5002314C5002315D500231619
:10FC8C00E500AA851745FF1F0345C53D05616F308B
:10FC9C009FA1F240624405618280797122D406D61C
:10FCAC002A842EC632C436C23AC0EFD00F8D1DC185
:10FCBC00B245224692460247231CB100231DC100C7
:10FCCC002C081306F00F2285231ED100231FE10000
:10FCDC00EFC0DFF9B250225445618280011122CC71
:10FCEC002A84394506CE2EC632C436C23AC0EF300D
:10FCFC001F9029C19167938717E92310F5009D4741
:10FD0C002301F500B2452246924602472312850094
:10FD1C006244F2402313B5002314C5002315D5000B
:10FD2C002316E500AA851745FF1F0345A53305617A
:10FD3C006F307F97F2406244056182805D712AC604
:10FD4C0013052002CAC04EDE52DC56DA5AD85ED6F3
:10FD5C0062D466D26AD086C6A2C4A6C26ECE2E8CDF
:10FD6C00B28B368B3AC43E8DC28CC68A035A0105BF
:10FD7C008359410503498105EF307F8769C5916639
:10FD8C003243938616E9A9472A842310D500230110
:10FD9C00F500930DE4002105930444012247630D03
:10FDAC00030693071003A301F4001946814597102D
:10FDBC00FF1FE780409B194681456E859710FF1FFA
:10FDCC00E780609A1946814526859710FF1FE780CA
:10FDDC00809923037401A3036401230024032312D9
:10FDEC008401231D5401231E4401231F3401A285C9
:10FDFC002644B64096440649F259625AD25A425B9E
:10FE0C00B25B225C925C025DF24D1745FF1F03450D
:10FE1C00652561616F303F89BA85A30104001946DD
:10FE2C009710FF1FE780A090EA856E851946971002
:10FE3C00FF1FE780C08F1946E68526859710FF1FA8
:10FE4C00E780E08E79B7B640264496440649F259CD
:10FE5C00625AD25A425BB25B225C925C025DF24DFA
:10FE6C0061618280011122CC2A84214506CE2EC6E6
:10FE7C0032C436C2EF30AFF715CD224692469167A9
:10FE8C00938717E92310F500B1472301F500A3016F
:10FE9C008500B2452303C500A303D5006244F2409C
:10FEAC002312B500AA851745FF1F0345A51B056145
:10FEBC006F306FFFF240624405618280411126C2AF
:10FECC00AA84514506C622C4EF306FF249C191672E
:10FEDC00938717E92310F500B9472301F50083C771
:10FEEC0014002A8493856400A301F50083C73400B1
:10FEFC0003C724002105A207D98F231EF5FE83C753
:10FF0C0044001946230FF5FE83C75400A30FF5FEDA
:10FF1C009710FF1FE780A08183C7C400A2851745F7
:10FF2C00FF1F034525142307F40083C7E40003C710
:10FF3C00D400A207D98F2318F40083C7F400230937
:10FF4C00F4002244B240924441016F30CFF5B240EC
:10FF5C002244924441018280411122C42A841945D1
:10FF6C0006C6EF30CFE80DC59167938717E92310CC
:10FF7C00F500C1472301F500231285002244B2404D
:10FF8C00AA851745FF1F0345E50D41016F30AFF101
:10FF9C00B24022444101828041110D4506C6EF302A
:10FFAC000FE50DC5930710F92300F5009307E00347
:10FFBC00A300F500C5472301F500B240AA851745FB
:10FFCC00FF1F0345250A41016F30EFEDB24041019F
:10FFDC008280011122CC2A84294506CE2EC632C439
:10FFEC0036C2EF30CFE015CDB2459246916793877C
:04FFFC0017E92310CE
:020000021000EC
:10000000F500C9472302B5002301F500A3018500CF
:100010002304D50022466244F2402313C500AA857A
:100020001745FF1F0345C50405616F308FE8F24097
:1000300062440561828001114AC82A892D4526CA79
:1000400006CE22CC2EC6B284EF302FDB29C5B245B6
:10005000930710F92300F5009307E003A300F500D0
:10006000CD47A30125012302B5002A842301F50011
:10007000A685150519469700FF1FE780006CA2852D
:100080006244F240D24442491745FF1F034545FEF2
:1000900005616F300FE2F2406244D244424905618B
:1000A0008280011122CC2A84214506CE2EC6EF3053
:1000B000CFD405C9B2459167938717E92310F5009E
:1000C000D1472303B5002301F500231285006244C4
:1000D000F240AA851745FF1F034585F905616F307A
:1000E0004FDDF240624405618280011122CC2A84F6
:1000F000214506CE2EC632C4EF302FD01DC5224674
:10010000930710592310F50023018500B2452303FE
:10011000C5006244F2402312B500AA851745FF1FAF
:10012000034505F505616F30CFD8F24062440561A3
:100130008280011122CC2A84214506CE2EC632C4EB
:10014000EF30AFCB1DC922469167938727E9231073
:10015000F500A1472301F500B24523038500A30361
:10016000C5006244F2402312B500AA851745FF1F5F
:10017000034535F005616F30CFD3F240624405612D
:100180008280011122CC2A84314506CE2EC632C48B
:1001900036C23AC0EF306FC615CD224685679387C9
:1001A00017C92310F50023018500B2452303C500BC
:1001B000924602476244F2402312B5002314D50050
:1001C0002315E500AA851745FF1F034565EA05616C
:1001D0006F302FCEF240624405618280011126CA41
:1001E000AE844AC82A891385C40006CE22CC32C602
:1001F000EF30AFC01DCD8567B245938717E9230166
:100200009500231225012A842310F500310508C426
:1002100026869700FF1FE7804052A2856244F24085
:10022000D24442491745FF1F034585E405616F30FD
:100230004FC8F2406244D2444249056182800111B4
:1002400022CC2A84194506CE2EC6EF300FBB05C935
:100250008567938717F92310F500854723018500EB
:10026000A301F500B2456244F2402312B500AA850D
:100270001745FF1F0345C5DF05616F308FC3F2408F
:10028000624405618280411122C42A840D4506C65C
:10029000EF30AFB605C5930710F92300F500E94725
:1002A000A300F500230185002244B240AA8517452A
:1002B000FF1F0345E5DB41016F30AFBFB240224471
:1002C00041018280011122CC2A84214506CE2EC60E
:1002D000EF30AFB20DC99167938727E92310F5007E
:1002E000930700032301F500B24523038500624410
:1002F000F2402312B500AA851745FF1F034575D7A5
:1003000005616F300FBBF2406244056182800111CC
:10031000214506CE2EC632C4EF302FAE05C9856703
:10032000938707392310F500B245224685472301FC
:10033000F500F2402312B5002313C500AA85174526
:10034000FF1F034525CC05616F30AFB6F240056154
:100350008280797122D44AD04ECE56CA06D626D291
:1003600052CC5AC8894AAA8932843689639855136F
:10037000938AC19983C7C199568A8944C1C783C7E3
:10038000160003C70600A207D98F1747FF1F2319BE
:10039000F7CE1307C6FF639DE70831452EC6EF3041
:1003A000CFA5AA8441C1B245420441802302B500D1
:1003B00023138500930700F91504A1652310F500A8
:1003C00023113501850522859720FF1FE780C09402
:1003D00088C421C583C70A009305E9FF135624008A
:1003E000FD17238EF1989700FF1FE78000379C448C
:1003F000A6851745FF1F0345E5C089079CC4EF305C
:100400004FAB8144B2502254268502599254F2498E
:10041000624AD24A424B4561828026859720FF1F5F
:10042000E780A09C9747FF1F239D07C48544D9BF41
:100430001307D6FFE3C8E7FE83C7C19A99CB974756
:10044000FF1F9387A7C3884309C59720FF1FE78035
:10045000C0991745FF1F0355A5C21105A1654205A7
:10046000850541819720FF1FE780008B1747FF1FFD
:100470002326A7C045DD83470A002286CA85FD17CB
:10048000238EF1989700FF1FE780202B9747FF1FCF
:10049000239987BE85472386F19AA5B79747FF1F03
:1004A00083D727BE174BFF1F130BABBDC1D3174715
:1004B000FF1F0357E7BC174AFF1F130A2ABCB38666
:1004C000C700110703250A00634CD7063E95CA856D
:1004D0009700FF1FE780602603560B00814432948B
:1004E000420441809747FF1F239D87B89747FF1F0E
:1004F00083D707B99107E317F4F03145EF30EF8F59
:10050000AA850DCD930700F92310F50083570B0042
:1005100023113501230255012313F50083270A0017
:100520001CC51745FF1F0345E5ADEF308F98974772
:10053000FF1F239807B42386019AE9B503250A0013
:1005400009C59720FF1FE780408A9747FF1F239A1E
:1005500007B22386019AD9BD6F9040526F906053C5
:100560006F90B0216F906056411106C6EF90A05277
:10057000B2400145410182806F90C0576F90C059D1
:100580006F90E05C6F90E05E6F90C0606F90C062B3
:100590006F90A0646F90A0666F90A0686F90406AA3
:1005A0008347160003460600A2075D8E6F90806B9E
:1005B0006F90C06C6F90806F6F9040726F900075FD
:1005C0006F90E0776F90007A6F90207C6F90407E04
:1005D0006F9070006F90900203430100030E410082
:1005E000834E8100034FC100834F010183424101CB
:1005F000834381017EC816CA1ECC7AC676C472C2F5
:100600001AC06F90B0016F90B0066F90D0086F90D5
:10061000F00A6F90100D6F90300F6F9050116F9027
:1006200070136FB0A02A1307A5FF420785672A88B9
:1006300041831385A7C7636CE502138707C801458B
:100640006368B70263E605031307301F6362C702DE
:10065000138766FF42074183938767C763EAE70012
:1006600005063306B6028E063325D6008280014584
:10067000828011C98327050A93E707082320F50A1A
:10068000FD572303F50282809747FF1F23AEA79EE5
:1006900082809747FF1F9387E7ACFC479C5799E3FD
:1006A0003E85828003D78701E30CA7FE93878705E9
:1006B000FDB7011122CC06CE2A84034565029307BB
:1006C000F00F2E866309F5002EC6EF308FF7324605
:1006D000FD572303F40283479402035764049306EF
:1006E000640293E70706A304F4028357E403A28598
:1006F000F240BA972312F404624417050000130570
:1007000085F705616F300FE0011122CC06CE2A84F7
:10071000034575029307F00F2E866309F5002EC678
:10072000EF302FF23246FD57A303F4029306740212
:10073000A2856244F240171500001305A517056154
:100740006F304FDC011122CC06CE2A84034585028E
:100750009307F00F2E866309F5002EC6EF306FEE7B
:100760003246FD572304F40293068402A2856244B4
:10077000F240171500001305851605616F308FD8FC
:1007800003467514ED479745FF1F83D5C59F9746D0
:10079000FF1F83D606A01747FF1F0357A79F2319E4
:1007A000F51A2317F51A2315B51A2313D51A23148E
:1007B000E51A8947630BF60693078014834865148E
:1007C000231AF51A09481746FF1F1306A6996392C4
:1007D0000807035686022316C51A0566130606A9DE
:1007E0002318C51A6D482E866373B8006D4693159D
:1007F0000601231DC51A6D48C18136866373D80072
:100800006D46231BC51A8356051B0356C51A637311
:10081000D600B286231ED51ABA8663F3E700BE86D9
:10082000231CD51A2306B50482808567938707A900
:1008300071B7035666022316C51A130680144DB706
:100840000347651489468357C51B631ED702835629
:100850008514938787E899C6B3C7E702938757FD46
:10086000214731A02147B3C7E702938757FDB3C79C
:10087000E7020357A51BC207C18363F3E7003E8766
:100880002306E504828085466316D7009387C7FB5D
:100890001147F1BF938707FBE1B78357651A0357E9
:1008A000251B411106C663F3E7003E879318070135
:1008B0008357451B0357851A93D808016373F700C4
:1008C000BA87139807018356E51A8357A51A135858
:1008D000080163F3D700BE860357C51A8357051B6B
:1008E00013930601135303016373F700BA8783461A
:1008F0007514C2070947C183639AE60005661306AB
:1009000006A942876370C802328729A80327051009
:100910009316470163CC060005661306868442875A
:10092000E36406FF13180701135808018346651492
:100930000947639EE606035785039306204E330757
:10094000D70293F6F80F9A061386F63C9386C64FA5
:10095000634406019306C812158F63D3E7003E87F0
:10096000420705664183130606A9BA876373C70069
:10097000B287C207C1830356651B13F7F80F93763E
:10098000F30F6316E6040356851B63120605035630
:10099000A51B631ED6020356C51B631AF602230D60
:1009A0000506EFF0FFE90945B240410182800327C7
:1009B000051093164701E3C006FC056613068684FE
:1009C000BE856373F600B2859397050165B705464A
:1009D000230DC506231BE51A231C051B231DD51A51
:1009E000231EF51AEFF0DFE501457DBF0357C51A59
:1009F0008357051B411106C66373F700BA87034688
:100A000065141397070189464183631BD6068566E3
:100A1000938606A96373D700B687139707014183AE
:100A20008357C51B6387E7008547231EE51A230DFF
:100A3000F5060357851A8357451B6373F700BA877A
:100A40000346751413970701894641836317D6043B
:100A50008566938606A96373D700B6871397070147
:100A600041838357851B6387E7008547231CE51A6D
:100A7000230DF506EFF0DFDCB24001454101828035
:100A8000856713868784E37DE6F8832605109387C0
:100A90000780F58FD1F7328761B785671386878422
:100AA000E371E6FC8326051093870780F58FD5FB5D
:100AB000328745BF0357850495470356C503B307DF
:100AC000F7028356850393D537406355B600118FDF
:100AD00093173700B3C7D702C207C1832313F504A6
:100AE0008280832745110D469306F00F03C7070048
:100AF0000D8BA306E5006314C70083C62700A30B74
:100B0000D50003C70700418B2309E50083C7170001
:100B1000230BF50082808347C500CD9B2306F5009B
:100B20008280832745110347C50083C7070093567A
:100B300037408987B58F858B99C713478700230670
:100B4000E5000145828005458280832745110347E2
:100B5000C50083C70700935627408D87B58F858BC7
:100B600099E7134747002306E500014582800545C4
:100B700082808327450E85072322F50E91E7832780
:100B8000850E85072324F50E8327850E93F7070826
:100B900091C785472322F50E2324050E834795022E
:100BA00093F7070491CF8357E50303576504BA977A
:100BB0002312F5048327450A93F7F7BF2322F50A8A
:100BC00082808327C50E85072326F50E91E78327AC
:100BD000050F85072328F50E8327050F93F70708D0
:100BE00091C785472326F50E2328050E83479502D6
:100BF00013F7070409C793E70702A304F5028280ED
:100C00009737FF1F9387075683A7C70801450547F6
:100C100091E3828083C6B7006393E60005059C4399
:100C2000C5BF411122C491452A84014506C6EF3053
:100C30000FEE231AA4041737FF1F0357A75C85473D
:100C400063FEE7048357C41B0357841B9736FF1FBB
:100C500083D60628035564053E97B7470F00938750
:100C60000724B3C7D702130717278356C405854542
:100C70001303F5FF130E80023357F7028357E40383
:100C80009D8E83270409B386A602BE969737FF1F61
:100C90009387474D83A8C70863E66500B2402244A6
:100CA000410182803388C503C6877D56369881E727
:100CB000231AB404E5B76314F4001C40F5DB83AEDB
:100CC000C7086398AE0003A607093306C840337609
:100CD000A6026364E6009C43D9BF890575BF173738
:100CE000FF1F03572752854763F7E7088357C51B44
:100CF0000357851B9736FF1F83D6861D8345350511
:100D00003E97B7470F0093870724B3C7D70213074F
:100D10001727FD150546130E80023357F702973744
:100D2000FF1F9387274403A3C7086363B60082802D
:100D3000B306C603832705097D58BE969A8781E7C7
:100D4000231AC50482806314F5001C41F5DB83AED1
:100D5000C7088328C508639A1E0183A8070933883A
:100D6000D84063E41601338816416364E8009C436D
:100D7000F9B705065DBF82801737FF1F0357874805
:100D8000854763F5E70E41119737FF1F9387873D2E
:100D900022C403A4C70806C626C2A28789EB09ECB1
:100DA000230E0500B240224492444101828003C7D1
:100DB000D7016DFB9C43DDB76314A40000406DD0E8
:100DC0008347B400D5E30327C4088327C508630D10
:100DD000F7080347C50193070008AA84631DF704B9
:100DE000835784031946930500082319F506231A2F
:100DF000F5068357A403231CF5048357C403231D5E
:100E0000F50403558500EF50207A8547A38EF40042
:100E100083C7C40193F7F707238EF4001305640614
:100E20002244B240924431469305F00F410117032A
:100E3000FF1F670003948357850319469305000835
:100E40002319F406231AF4068357A503231CF4047C
:100E50008357C50303558400231DF404EF50C07469
:100E60008947A30EF4005DBF004015BF230E0500A7
:100E70008280411126C206C622C41737FF1F0357BE
:100E800067388547AA8463F8E71A83278510898B1A
:100E90006383071A9737FF1F9387C72C83A7C70859
:100EA000BE85ADED03D6A41B01447D581306260272
:100EB00005862D067D55A5EB630E04108347B4000F
:100EC00003578403D5EB8947231BE404A309F404E7
:100ED0000357E4058357E4032285BA97C1071D8BA6
:100EE000998F231EF4048357A403231CF40483570F
:100EF000C403231DF404EFF0DFD28327440A93E7F1
:100F000017002322F40A8547230AF4008D47A30E15
:100F1000F400B240224492444101828003C7D501CB
:100F20006DFB8C41BDBF98436394970051D7BA873E
:100F300083A6070903A7040963E2E6023387E640B4
:100F400083A6C40863F4E6003377D7026376A7006C
:100F50003A856373C700BE859C43B1BF158F83A6D6
:100F6000C70863F4E6003377D702E37707FF3A88D0
:100F7000E374C7FE3E84CDB783D78403B3F7E7029B
:100F8000C9FB9D46994763F5E600935717008D0707
:100F900005672319F406130707C88A076353F70088
:100FA000BA87231AF4068357A40303558400130653
:100FB0005002231CF4048357C40393050008231D27
:100FC000F404C947A30EF4002244B2409244410104
:100FD0006F50805DADC103D7840383D78503B3F71A
:100FE000E702B1EB8387C40163D707049D469947A5
:100FF00063F5E600935717008D0705672399F406FC
:10100000130707C88A076353F700BA87239AF406C1
:1010100083D7A40303D5840013065002239CF40451
:1010200083D7C40393050008239DF404CD47A38E02
:10103000F400EF506057238E0400E1BD1737FF1F07
:101040000357471C854763F1E71C5D719737FF1F06
:1010500093874711A2C4A6C203A4C7088354851B63
:101060008357C51B1737FF1F035787E64EDEBE9415
:10107000B7470F0093870724B3C7E7029384142769
:10108000930900645AD8CAC0056952DC56DA5ED6A4
:1010900062D466D286C66AD06ECEAA8C130909C8FD
:1010A000930B0032130A0064854A1D4CB3D4F4023A
:1010B000338B3403B3B9340305E0B6402644964479
:1010C0000649F259625AD25A425BB25B225C925C88
:1010D000025DF24D6161828063958C0003A40C0077
:1010E00069DC8347D401DDE78327C40803A7CC0864
:1010F0006362F70A03A50C0903270409636CE5087A
:101100001738FF1F0358C8DC198D3307280313074E
:10111000071933577703637FE50663F4A700337538
:10112000F50263799506858363F3F400A6873E95FF
:101130004286814642C6B335450333054503EF1069
:10114000E1220505630855058347B400035D840368
:101150003248B9E38357A4030581231BA405231C4C
:10116000F4048357C403231AA404231DF4048947F9
:10117000A309F40483D7EC03230A5401A907231E0F
:10118000F4048327440A93E717002322F40A9147C3
:10119000A30EF40000400DB783DD8C0363F2AD03B2
:1011A000B3FDAD03428681465A85CE85EF10011C02
:1011B0000505058163E6AD003305AD40E37CB5FD73
:1011C00099476376AC01135D1D0093073D00231919
:1011D000F406139D27006353A9014A8D8357A40386
:1011E00003558400231AA407231CF4048357C40363
:1011F0001306500293050008231DF404D147A30EE3
:10120000F400EF50603A79B782809737FF1F83C7A9
:10121000D7C96382071841114AC006C62A8922C469
:1012200026C27D55630C090E9737FF1F938787F3FE
:1012300083A6C708E5C69734FF1F938464CC8388D0
:10124000640137450F00130FF5231733FF1F0353B6
:1012500023C8973FFF1F83CF2FCC7D54854E1305A6
:101260000524370EC0A89D429303204EB700405777
:1012700003C7B60083A70609631AD70703D7E60793
:1012800003D6A6036378C70A83C506016394D50B0A
:1012900083A58611C5E183A5460AC9ED83C5F6007D
:1012A000639A550883D58603198E03A74609B3852B
:1012B000C50233466502B385750233D7E502B3D55F
:1012C000C5027E97420741832392E6083386F500E4
:1012D00063C508006363C6010696B3076702FA9701
:1012E000B3D7A70263D20804B307F64063F38700BD
:1012F0003E849442B5FE9737FF1F9387A7C49C4353
:1013000082976368A404B307A4402320F9008327CD
:1013100009002947636FF70423200900B2402244E3
:101320009244024941018280E370F6FCB307FE401B
:10133000B2976DBF03D74608330767027A973357D2
:10134000A70263D40800998F55B7E3FEE7FEF29732
:10135000DDBFB307854063DB070083876401E3C417
:1013600007FAB707C0A8A297898F45B723200900BD
:1013700079BFD9172320F9008387640163D507005B
:10138000130564FF61BFA547E3EC87FE3705C0A8DE
:101390005915229561B77D5582809737FF1F938736
:1013A000A7CE9843011126CA06CE22CC4AC84EC603
:1013B000AA8451CBBE891737FF1F0357A7E485477F
:1013C0006313F70803D444089737FF1F83D747B048
:1013D000032505093304F402B7470F001387F723E9
:1013E000938707243A943354F4029737FF1F938767
:1013F00027B1038767013E89635207069737FF1FAE
:10140000938747B49C43330485408297636EA4045A
:10141000B307A4401734FF1F034414B0058003A78B
:10142000090001456370F40237450F009736FF1F2E
:1014300083D606AA13050524338487403345D50295
:10144000330585020297F2406244930700FB23872D
:10145000F4004249D244B24905618280E37085FAC2
:10146000B707C0A83E9559BF330785408147E3536E
:1014700007FA83076901E3CD07F8B707C0A83E94D0
:1014800041BF9737FF1F9387E7CD83A78709411196
:1014900022C426C206C62A84AE846396A700973764
:1014A000FF1F23AD07D48327041281CB035584008B
:1014B000014693050008EF50200F8357240481CB89
:1014C000035584004D4693051008EF50E00D035579
:1014D0008400154693051008EF50000D2305040005
:1014E00023080400230994041737FF1F035787D1EB
:1014F000854763E6E70085450145EF20DFA2B2405E
:10150000224492440145410182808347A500638FB4
:1015100007388357E507411122C406C626C285074E
:10152000231FF5068347F500230C05002A8413F7D3
:10153000270005E70357E503954763E4E700014506
:1015400001A89305E003EFF0DFF32305A4020945AA
:10155000B240224492444101828013F7070239CFFE
:1015600093F7F7FDA307F5008327050A0347B500A6
:101570002305050293E747002320F50A8547631FEB
:10158000F702835785031306204E03274509B387C7
:10159000C7029736FF1F83C6269893860605B3D7E2
:1015A000E702034755033307C702B697C207C18353
:1015B0002311F5088607BA972310F508834714010D
:1015C000858B638E070E8357C4050357E40363922C
:1015D000E72A8357A4038355A40503458402231FE8
:1015E000F40483473405231EB4029205A30AF402CF
:1015F00083574405F915231BF40283578405231DE3
:10160000F402EF204FD28346B400231F0406835711
:1016100064031737FF1F0357A78B6398061EB38712
:10162000E7021307003293870719B3D7E7020327AE
:1016300004095107BA971737FF1F1307678C030771
:101640006701634907003707C0A863E5E70037076C
:101650004057BA972328F40883576405231CF402E3
:101660008347D40181C72285EFF06FE78357840356
:101670001737FF1F0357C78593060032B387E7026A
:101680002311040233D6D702B3F7D7029306204EB4
:101690002326C408B387D702B3C7E7022310F40296
:1016A0008357E4032312F4028347F40093E707020D
:1016B000A307F40083471401F99BA308F4008347B0
:1016C0001401898BB9C70357E4128357E403B306A7
:1016D000F740139606016343061A631CF70281471D
:1016E000014893048413232CF412232E041315466B
:1016F00093058412268597F0FE1FE7800004268557
:10170000EF10204B83471401A306A412F59BA308F6
:10171000F4008347140113F7070125CB8356C41443
:101720000357E4033386E6409315060163C80514A6
:10173000639DE604BD9BA308F4008347A41481CBFA
:1017400013F727006306071485472303F414834720
:10175000B41481CB13F72700630307148547A30351
:10176000F4142285EFF08FA88347A40799C7832735
:10177000040A93E707102320F40A8327040A2305A9
:10178000040293E707202320F40A8347140113F788
:10179000070221C31737FF1F1307C79C784713069B
:1017A0008005834647001857B386C602369783568E
:1017B000C7010357E4033387E64013160701634A62
:1017C00006000357C4146316D70093F7F7FDA30868
:1017D000F4008347940293F70704E38207D6035784
:1017E00044048357E403E31CF7D40347040193073D
:1017F000A0046315F70085472308F4008327440AF3
:1018000093E707402322F40A1DBB8346A4168355A1
:101810006405A18A99CE0356E4038356C416035582
:101820008403918EB386A602B3C6B602B29623167F
:10183000D4168DCFB307F702130700329387071929
:10184000B3D7E70203270409BA971727FF1F130727
:10185000276B03076701634907003707C0A863E5E3
:10186000E70037074057BA972328F408231CB4022F
:10187000F5BB998F13970701E35307E493058002A3
:101880002285EFF01FC02305A40213058002C9B111
:10189000918B99C3894755BD230304144DBD918B8A
:1018A00099C389476DBDA303041465BD05458280B6
:1018B00005C541119305200222C406C62A84EFF013
:1018C0005FBCFD572305A40223080400A303F40210
:1018D000B24022444101828082800DC9411122C45C
:1018E00006C68347F5002A849305E003898B91C3DC
:1018F000A145EFF01FB9FD572305A40223080400FA
:101900002304F402B2402244410182808280832772
:10191000050A797122D406D626D24AD04ECE52CCB0
:1019200056CA2A84638F073413F7270019CBF59B17
:101930002320F50A03558500194693050008EF405A
:10194000B0468327040A13F747004DC3ED9B2320BD
:10195000F40A8347940293F7070491CB8327440A40
:10196000228593E707402322F40AEFF0AF94034760
:10197000B40085470346440183560406631DF76A95
:10198000835784031307204EB387E70203274409D4
:10199000B3D7E7021727FF1F0347075813070705A9
:1019A000BA97C207C1830347A4022311F40886072C
:1019B0002310F4089307000819C393070004230EAB
:1019C000F40019E68347940293E71700A304F40296
:1019D00081EA035584000D4693050008EF40D03C92
:1019E00023100406230A0400A30E04008327040A1C
:1019F00013F787000DC303558400DD9B2320F40AF1
:101A0000154693050008EF40303A8347940293E768
:101A10004700A304F4028327040A13F7070139C718
:101A2000BD9B2320F40A8347B40403558400214658
:101A300089C7A30504041306000393051008EF40AB
:101A4000B0368347A40489CF83278410C18B89CB08
:101A50008355840422859205C205C181EFE07FC5CC
:101A60008347940293E71700A304F4028327040A30
:101A700013F7070415CB0347D40493F7F7FB232090
:101A8000F40AA14763FBE7008347B40099E7832783
:101A9000440A93E707012322F40A035584003146E0
:101AA00093051008EF4050308327040A13F707020C
:101AB00045C38346B40093F7F7FD2320F40A0327B8
:101AC000C4108327841099EA1377070801CB0327F2
:101AD000440A37064000518F2322E40A93F7070295
:101AE00063860758A9EA8346741489470357841A02
:101AF0006398F6568567938707A963FAE7008327FB
:101B0000440A056713070780D98F2322F40A834606
:101B1000641489470357C41A6397F65485679387FB
:101B200007A963FAE7008327440A056713070780BC
:101B3000D98F2322F40A0355840011469305000827
:101B4000EF4090268347940293E71700A304F40222
:101B50008327040A13F7071005C70355840093F77A
:101B6000F7EF2320F40A230D04061D469305000811
:101B7000EF4090238347940293E71700A304F402F5
:101B80008327040A13F7070809CF0355840093F746
:101B9000F7F72320F40A1306700593051008EF40A9
:101BA000B0208327040A13F7072031C393F7F7DF28
:101BB0002320F40A83476414230F0400A2970385AB
:101BC000C715A301A414EF6040342301A414228597
:101BD000EFE01FC703558400314693050008EF402E
:101BE000B01C8347940293E71700A304F4028327F1
:101BF000040A139727016357070079777D17F98F38
