
Peripheral_Indication.elf:     file format elf32-littleriscv
Peripheral_Indication.elf
architecture: riscv:rv32, flags 0x00000112:
EXEC_P, HAS_SYMS, D_PAGED
start address 0x00000000

Program Header:
    LOAD off    0x00001000 vaddr 0x00000000 paddr 0x00000000 align 2**12
         filesz 0x00000004 memsz 0x00000004 flags r-x
    LOAD off    0x00002000 vaddr 0x20000000 paddr 0x00000004 align 2**12
         filesz 0x00001fa8 memsz 0x00001fa8 flags r-x
    LOAD off    0x00003fac vaddr 0x00001fac paddr 0x00001fac align 2**12
         filesz 0x000224c4 memsz 0x000224c4 flags r-x
    LOAD off    0x00026fa8 vaddr 0x20001fa8 paddr 0x00024470 align 2**12
         filesz 0x00000524 memsz 0x00000524 flags rw-
    LOAD off    0x000274d0 vaddr 0x200024d0 paddr 0x00024994 align 2**12
         filesz 0x00000000 memsz 0x00001db0 flags rw-

Sections:
Idx Name            Size      VMA       LMA       File off  Algn  Flags
  0 .init           00000004  00000000  00000000  00001000  2**1  CONTENTS, ALLOC, LOAD, READONLY, CODE
  1 .highcodelalign 00000000  00000004  00000004  000274cc  2**0  CONTENTS
  2 .highcode       00001fa8  20000000  00000004  00002000  2**1  CONTENTS, ALLOC, LOAD, READONLY, CODE
  3 .text           000224c4  00001fac  00001fac  00003fac  2**2  CONTENTS, ALLOC, LOAD, READONLY, CODE
  4 .fini           00000000  00024470  00024470  000274cc  2**0  CONTENTS, ALLOC, LOAD, CODE
  5 .dalign         00000000  20001fa8  20001fa8  000274cc  2**0  CONTENTS
  6 .dlalign        00000000  00024470  00024470  000274cc  2**0  CONTENTS
  7 .data           00000524  20001fa8  00024470  00026fa8  2**2  CONTENTS, ALLOC, LOAD, DATA
  8 .bss            00001db0  200024d0  00024994  000274d0  2**3  ALLOC
  9 .stack          00000000  20008000  20008000  000274cc  2**0  CONTENTS
 10 .debug_info     0000eb4a  00000000  00000000  000274cc  2**0  CONTENTS, READONLY, DEBUGGING
 11 .debug_abbrev   000022e3  00000000  00000000  00036016  2**0  CONTENTS, READONLY, DEBUGGING
 12 .debug_loc      000028cf  00000000  00000000  000382f9  2**0  CONTENTS, READONLY, DEBUGGING
 13 .debug_aranges  000003d8  00000000  00000000  0003abc8  2**3  CONTENTS, READONLY, DEBUGGING
 14 .debug_ranges   000005b8  00000000  00000000  0003afa0  2**3  CONTENTS, READONLY, DEBUGGING
 15 .debug_line     000071de  00000000  00000000  0003b558  2**0  CONTENTS, READONLY, DEBUGGING
 16 .debug_str      000032d1  00000000  00000000  00042736  2**0  CONTENTS, READONLY, DEBUGGING
 17 .comment        00000033  00000000  00000000  00045a07  2**0  CONTENTS, READONLY
 18 .debug_frame    00001224  00000000  00000000  00045a3c  2**2  CONTENTS, READONLY, DEBUGGING
 19 .stab           00000084  00000000  00000000  00046c60  2**2  CONTENTS, READONLY, DEBUGGING
 20 .stabstr        00000117  00000000  00000000  00046ce4  2**0  CONTENTS, READONLY, DEBUGGING
SYMBOL TABLE:
00000000 l    d  .init	00000000 .init
00000004 l    d  .highcodelalign	00000000 .highcodelalign
20000000 l    d  .highcode	00000000 .highcode
00001fac l    d  .text	00000000 .text
00024470 l    d  .fini	00000000 .fini
20001fa8 l    d  .dalign	00000000 .dalign
00024470 l    d  .dlalign	00000000 .dlalign
20001fa8 l    d  .data	00000000 .data
200024d0 l    d  .bss	00000000 .bss
20008000 l    d  .stack	00000000 .stack
00000000 l    d  .debug_info	00000000 .debug_info
00000000 l    d  .debug_abbrev	00000000 .debug_abbrev
00000000 l    d  .debug_loc	00000000 .debug_loc
00000000 l    d  .debug_aranges	00000000 .debug_aranges
00000000 l    d  .debug_ranges	00000000 .debug_ranges
00000000 l    d  .debug_line	00000000 .debug_line
00000000 l    d  .debug_str	00000000 .debug_str
00000000 l    d  .comment	00000000 .comment
00000000 l    d  .debug_frame	00000000 .debug_frame
00000000 l    d  .stab	00000000 .stab
00000000 l    d  .stabstr	00000000 .stabstr
00000000 l    df *ABS*	00000000 ./Startup/startup_CH583.o
20000000 l       .highcode	00000000 _vector_base
00000000 l    df *ABS*	00000000 CH58x_sys.c
00000000 l    df *ABS*	00000000 RTC.c
00000000 l    df *ABS*	00000000 peripheral_main.c
00000000 l    df *ABS*	00000000 ISP583.c
20000322 l       .highcode	00000000 .loop18
20000330 l       .highcode	00000000 .loop29
2000033e l       .highcode	00000000 .loop40
200005ca l       .highcode	00000000 .loop402
00000000 l    df *ABS*	00000000 tmos.c
0000371c l     F .text	00000024 tmosFindTask
2000242c l     O .data	00000004 holdrand.6645
00000000 l    df *ABS*	00000000 tmos_hw.c
20000b82 l     F .highcode	00000032 clockGetHSEValue
20000bb4 l     F .highcode	00000018 clockGetLSEValue
00004218 l     F .text	00000070 clockGetTickValve
00000000 l    df *ABS*	00000000 ll_connect.c
00000000 l    df *ABS*	00000000 ll_hop.c
00000000 l    df *ABS*	00000000 ll_whitelist.c
00000000 l    df *ABS*	00000000 aes.c
00000000 l    df *ABS*	00000000 bb.c
00000000 l    df *ABS*	00000000 ip.c
00000000 l    df *ABS*	00000000 lle.c
00000000 l    df *ABS*	00000000 rf_fh.c
00000000 l    df *ABS*	00000000 rfend.c
00000000 l    df *ABS*	00000000 memory.c
00000000 l    df *ABS*	00000000 ll_resolvinglist.c
00000000 l    df *ABS*	00000000 CH58x_adc.c
00000000 l    df *ABS*	00000000 CH58x_clk.c
00000000 l    df *ABS*	00000000 CH58x_gpio.c
00000000 l    df *ABS*	00000000 CH58x_uart1.c
00000000 l    df *ABS*	00000000 devinfoservice.c
0000278c l     F .text	0000019a devInfo_ReadAttrCB
20002408 l     O .data	00000007 devInfoPnpId
200024d0 l     O .bss	00000008 devInfoSystemId
20001fb4 l     O .data	00000130 devInfoAttrTbl
20002468 l     O .data	00000008 devInfoService
20002417 l     O .data	00000001 devInfoSystemIdProps
20002416 l     O .data	00000001 devInfoModelNumberProps
00023ab8 l     O .text	0000000d devInfoModelNumber
20002415 l     O .data	00000001 devInfoSerialNumberProps
00023ac8 l     O .text	0000000e devInfoSerialNumber
20002414 l     O .data	00000001 devInfoFirmwareRevProps
00023ad8 l     O .text	00000012 devInfoFirmwareRev
20002413 l     O .data	00000001 devInfoHardwareRevProps
00023aec l     O .text	00000012 devInfoHardwareRev
20002412 l     O .data	00000001 devInfoSoftwareRevProps
00023b00 l     O .text	00000012 devInfoSoftwareRev
20002411 l     O .data	00000001 devInfoMfrNameProps
00023b14 l     O .text	00000012 devInfoMfrName
20002410 l     O .data	00000001 devInfo11073CertProps
00023b28 l     O .text	0000000e devInfo11073Cert
2000240f l     O .data	00000001 devInfoPnpIdProps
00000000 l    df *ABS*	00000000 gattprofile.c
000029d8 l     F .text	0000009c simpleProfile_ReadAttrCB
00002a74 l     F .text	000000ce simpleProfile_WriteAttrCB
200024f8 l     O .bss	00000004 simpleProfile_AppCBs
00002b42 l     F .text	0000003e simpleProfile_HandleConnStatusCB
200024e0 l     O .bss	00000008 simpleProfileChar4Config
200024f4 l     O .bss	00000001 simpleProfileChar1
200024f0 l     O .bss	00000001 simpleProfileChar2
200024ec l     O .bss	00000001 simpleProfileChar3
200024e8 l     O .bss	00000003 simpleProfileChar4
200024d8 l     O .bss	00000005 simpleProfileChar5
200020f0 l     O .data	00000110 simpleProfileAttrTbl
20002498 l     O .data	00000008 simpleProfileService
2000241c l     O .data	00000001 simpleProfileChar1Props
20002250 l     O .data	00000012 simpleProfileChar1UserDesp
2000241b l     O .data	00000001 simpleProfileChar2Props
2000223c l     O .data	00000012 simpleProfileChar2UserDesp
2000241a l     O .data	00000001 simpleProfileChar3Props
20002228 l     O .data	00000012 simpleProfileChar3UserDesp
20002419 l     O .data	00000001 simpleProfileChar4Props
20002214 l     O .data	00000012 simpleProfileChar4UserDesp
20002418 l     O .data	00000001 simpleProfileChar5Props
20002200 l     O .data	00000012 simpleProfileChar5UserDesp
00000000 l    df *ABS*	00000000 MCU.c
00000000 l    df *ABS*	00000000 peripheral.c
00002ff2 l     F .text	00000012 peripheralRssiCB
00003004 l     F .text	0000003e simpleProfileChangeCB
00003042 l     F .text	00000030 peripheralParamUpdateCB
20002514 l     O .bss	00000008 peripheralConnList
00003072 l     F .text	00000058 Peripheral_LinkTerminated
2000242b l     O .data	00000001 Peripheral_TaskID
000030ca l     F .text	0000016a peripheralStateNotificationCB
20002504 l     O .bss	00000008 Peripheral_BondMgrCBs
20002424 l     O .data	00000007 advertData
20002420 l     O .data	00000004 Peripheral_SimpleProfileCBs
2000250c l     O .bss	00000008 Broadcaster_BroadcasterCBs
20002264 l     O .data	0000000c Peripheral_PeripheralCBs
20002270 l     O .data	0000001c scanRspData
2000228c l     O .data	00000015 attDeviceName
00000000 l    df *ABS*	00000000 message.c
00000000 l    df *ABS*	00000000 tmos_snv.c
00000000 l    df *ABS*	00000000 gap.c
00004bd0 l     F .text	00000022 disconnectNext
20002520 l     O .bss	00000006 gapCurrentRandomAddr
20002530 l     O .bss	00000004 pfnCentralCBs
20002534 l     O .bss	00000004 pfnCentralConnCBs
20002538 l     O .bss	00000004 pfnPeripheralCBs
2000253c l     O .bss	00000004 pfnPeripheralConnCBs
20002540 l     O .bss	00000008 slaveUpdateReq
20002548 l     O .bss	00000001 terminateAllTaskID
20002549 l     O .bss	00000001 terminateReason
00000000 l    df *ABS*	00000000 gap_central.c
00006518 l     F .text	0000003a gapSendScanEnable
00006ef6 l     F .text	00000056 gapSetScanParamStatus
2000254a l     O .bss	00000001 gapMaxScanResponses
00000000 l    df *ABS*	00000000 gap_peripheral.c
00007522 l     F .text	00000020 gapFreeAdvertState
00007542 l     F .text	00000030 gapSetPeriodicAdvParams
00007572 l     F .text	000000fc gapSetAdvParams
0000766e l     F .text	000000d0 gapPeriProcessConnEvt
0000773e l     F .text	00000088 gapWriteAdvDataStatus
000079a0 l     F .text	00000116 gapProcessAdvertisingEvt
00008064 l     F .text	0000018a gapPeriProcessHCICmdCompleteEvt
00007f1c l     F .text	0000010e gapWriteAdvEnableStatus
20003e1c l     O .bss	00000014 gapPeripheralCBs
20002554 l     O .bss	00000001 gapAdvAppTaskID
20002555 l     O .bss	00000001 gapAdvTaskID
20002556 l     O .bss	00000002 gapLimitedAdvertisingTimeout
20002558 l     O .bss	00000001 gapPeriodicMode
2000255c l     O .bss	00000004 gapPeripheralConnCBs
20002560 l     O .bss	00000004 pGapAdData
20002564 l     O .bss	00000004 pGapPeriodicData
20002568 l     O .bss	00000004 pGapScanRspData
00000000 l    df *ABS*	00000000 gapgattserver.c
0000821c l     F .text	00000068 ggs_SetAttrWPermit
00008284 l     F .text	00000156 ggs_ReadAttrCB
000083da l     F .text	0000015c ggs_WriteAttrCB
20003e30 l     O .bss	00000016 deviceName
200022a4 l     O .data	00000090 gapAttrTbl
00024434 l     O .text	00000008 gapService
20002433 l     O .data	00000001 deviceNameCharProps
20002430 l     O .data	00000001 appearanceCharProps
2000256c l     O .bss	00000002 appearance
20002434 l     O .data	00000001 periConnParamCharProps
20002438 l     O .data	00000008 periConnParameters
20002432 l     O .data	00000001 centAddrResCharProps
20002431 l     O .data	00000001 centAddrRes
2000256e l     O .bss	00000001 ggsAddService
20002570 l     O .bss	00000004 ggs_AppCBs
00000000 l    df *ABS*	00000000 gatt.c
00000000 l    df *ABS*	00000000 gattservapp.c
00008ec8 l     F .text	00000004 gattProcessExchangeMTUReq
00008ecc l     F .text	00000024 gattServApp_FindCharCfgItem
00008ef0 l     F .text	0000003c gattServerHandleTimerCB
00008f2c l     F .text	00000020 GATTServApp_InitCharCfg.part.12
00008f4c l     F .text	00000004 gattProcessExecuteWriteReq
00009378 l     F .text	0000002c GATT_VerifyWritePermissions.part.7
00009378 l     F .text	0000002c GATT_VerifyPrepareWritePermissions.part.8
0000963c l     F .text	00000028 gattServerNotifyTxCB
00009b6a l     F .text	00000060 gattProcessReadByGrpTypeReq
00009bca l     F .text	00000034 gattProcessReadByTypeReq
00009bfe l     F .text	00000034 gattProcessFindByTypeValueReq
00009c32 l     F .text	000001aa gattProcessFindInfoReq
00009e46 l     F .text	00000036 gattProcessWriteReq
00009ed2 l     F .text	00000036 gattProcessPrepareWriteReq
0000a62a l     F .text	000000ae gattProcessReadMultiReq
0000a6d8 l     F .text	00000030 gattProcessReadReq
20003e48 l     O .bss	00000018 rsp
20002340 l     O .data	00000040 gattAttrTbl
20002444 l     O .data	00000008 gattService
2000244f l     O .data	00000001 serviceChangedCharProps
20002580 l     O .bss	00000004 indCharCfg
20002380 l     O .data	0000000c gattServiceCBs
2000257c l     O .bss	00000002 attrLen
2000257e l     O .bss	00000001 gattAddService
20002584 l     O .bss	00000004 pAttrValue
20002588 l     O .bss	00000004 pServiceList
2000258c l     O .bss	00000004 prepareWritesTbl
20002590 l     O .bss	00000004 serverInfoTbl
20002594 l     O .bss	00000004 serviceCBsList
20002440 l     O .data	00000001 GATTServApp_TaskID
20002441 l     O .data	00000001 appTaskID
2000244c l     O .data	00000002 nextHandle
2000244e l     O .data	00000001 reqTaskId
00000000 l    df *ABS*	00000000 l2cap.c
00000000 l    df *ABS*	00000000 l2cap_input.c
00000000 l    df *ABS*	00000000 l2cap_output.c
0000c600 l     F .text	00000070 l2capSendFCPkt.part.3
00000000 l    df *ABS*	00000000 l2cap_sdu.c
0000ca20 l     F .text	00000028 l2capBuildDisconnectReq
0000ca48 l     F .text	0000004c l2capBuildParamUpdateReq
0000ca94 l     F .text	00000016 l2capBuildParamUpdateRsp
0000caaa l     F .text	0000005e l2capBuildConnectRsp
00000000 l    df *ABS*	00000000 linkdb.c
0000cca0 l     F .text	0000003e reportStatusChange
00000000 l    df *ABS*	00000000 sm.c
00000000 l    df *ABS*	00000000 host_input.c
200025b4 l     O .bss	00000001 fragment.4734
00000000 l    df *ABS*	00000000 host_output.c
00000000 l    df *ABS*	00000000 ll_core.c
00000000 l    df *ABS*	00000000 ll_master.c
00012c60 l     F .text	00000130 ll_master_map_check
00000000 l    df *ABS*	00000000 ll_pdu.c
00013a4e l     F .text	0000011e llRejectIndExt
00014588 l     F .text	000000f8 LL_RxConnParamReq
000147a0 l     F .text	0000008e LL_RxLenUpdate
0001482e l     F .text	000000d6 llConnectionUpdateInd
00014904 l     F .text	00000024 llTerminateInd
00014928 l     F .text	000000a0 llEncRsp
000149c8 l     F .text	0000002e llStartEncReq
000149f6 l     F .text	00000044 llStartEncRsp
00014a3a l     F .text	0000012c llUnknowRsp
00014b66 l     F .text	0000002c llPauseEncReq
00014b92 l     F .text	00000072 llPauseEncRsp
00014c04 l     F .text	000000a6 llVersionInd
00014caa l     F .text	000000b2 llRejectInd
00014d5c l     F .text	00000054 llPingReq
00014db0 l     F .text	00000032 llPingRsp
00014de2 l     F .text	000001a4 llPHYReq
00014f86 l     F .text	00000154 llPHYRsp
000150da l     F .text	0000008a llPHYUpdateIND
00015164 l     F .text	0000002c llMinUsedChannel
00015190 l     F .text	0000003e llClockAccuracyReq
000151ce l     F .text	0000004a llClockAccuracyRsp
00015218 l     F .text	000000de llPowerControlRsp
000152f6 l     F .text	000000ac llPowerChangeIND
000153a2 l     F .text	000000ae llChannelReportingIND
000155ec l     F .text	0000003a llChannelStatusIND
00015626 l     F .text	000000f2 llConnectionParamRsp
00015718 l     F .text	000000ec llConnectionParamReq
00015804 l     F .text	00000090 llSlaveFeatureReq
00015894 l     F .text	00000090 llFeatureRsp
00015924 l     F .text	00000088 llFeatureReq
000159ac l     F .text	00000062 llChannelMapReq
00015a0e l     F .text	00000166 llEncReq
00015b74 l     F .text	00000144 llPowerControlReq
00015cb8 l     F .text	00000068 llLengthRsp
00015d20 l     F .text	00000056 llLengthReq
00015d76 l     F .text	00000004 llCTEReq
00015d7a l     F .text	00000004 llCTERsp
00015d7e l     F .text	00000004 llPeriodicSyncIND
00015d82 l     F .text	00000004 llCISReq
00015d86 l     F .text	00000004 llCISRsp
00015d8a l     F .text	00000004 llCISInd
00015d8e l     F .text	00000004 llCISTerminateInd
00015d92 l     F .text	00000004 llSubrateReq
00015d96 l     F .text	00000004 llSubrateInd
00000000 l    df *ABS*	00000000 ll_report.c
00015dba l     F .text	00000004 llAdvertisingReportReport
00015dbe l     F .text	00000014 llCISEstablishedReport
00015dd2 l     F .text	00000004 llCISRequestReport
00015dd6 l     F .text	0000002e llRemoteConnectionParamRequestReport
00015e04 l     F .text	00000094 llConnectCompleteReport
00015e98 l     F .text	0000008a llTransmitPowerReportingReport
00015f22 l     F .text	0000006a llPathLossThresholdReport
00015f8c l     F .text	00000022 llChannelSelectionAlgorithmReport
00015fae l     F .text	00000038 llAdvertisingSetTerminatedReport
00015fe6 l     F .text	00000010 llScanTimeoutReport
00015ff6 l     F .text	0000002e llPeriodicAdvertisingSyncLostEventReport
00016024 l     F .text	00000024 llPeriodicAdvertisingSyncEstablishedEventReport
00016048 l     F .text	00000040 llPHYUpdateCompleteReport
00016088 l     F .text	00000180 llEnhancedConnectCompleteReport
00016208 l     F .text	0000002e llDataLengthChangeReport
00016236 l     F .text	00000040 llRemoteConnectParamRequestReport
00016276 l     F .text	00000026 llLTKRequestedReport
0001629c l     F .text	00000030 llReadRemoteFeatureCompleteReport
000162cc l     F .text	00000038 llConnectUpdateCompleteReport
00016304 l     F .text	00000066 llDirectedAdvertisingConnectionCompleteReport
0001636a l     F .text	00000062 llCancelConnectionCompleteReport
000163cc l     F .text	00000004 llRequestPeerSCACompletetReport
000163d0 l     F .text	00000004 llBIGInfoAdvertisingReportReport
000163d4 l     F .text	00000004 llReadLocalP256PublicKeyCompleteReport
000163d8 l     F .text	00000004 llGenerateDHKEYCompleteReport
000163dc l     F .text	00000004 llDirectAdvertisingReportReport
000163e0 l     F .text	00000004 llExtendedAdvertisingReportReport
000163e4 l     F .text	00000004 llPeriodicAdvertisingReportEventReport
000163e8 l     F .text	00000004 llScanRequestReceivedReport
000163ec l     F .text	00000004 llConnectionlessIQReport
000163f0 l     F .text	00000004 llConnectionIQReport
000163f4 l     F .text	00000004 llCTERequestFailedReport
000163f8 l     F .text	00000004 llPeriodicAdvertisingSyncTransferReceivedReport
000163fc l     F .text	00000004 llCreateBIGCompleteReport
00016400 l     F .text	00000004 llTerminateBIGCompleteReport
00016404 l     F .text	00000004 llBIGSyncEstablishedReport
00016408 l     F .text	00000004 llBIGSyncLostReport
000165ea l     F .text	0000008e llDataPackageReport
00000000 l    df *ABS*	00000000 ll_scan.c
00000000 l    df *ABS*	00000000 ll_slave.c
000169e6 l     F .text	00000140 llSlaveSetFirstTimer
00000000 l    df *ABS*	00000000 api_c.c
00000000 l    df *ABS*	00000000 ctl_input.c
200025b7 l     O .bss	00000001 fragment.7872
00000000 l    df *ABS*	00000000 ctl_output.c
00000000 l    df *ABS*	00000000 broadcaster.c
00000000 l    df *ABS*	00000000 gapbondmgr.c
0001b9f8 l     F .text	00000024 gapBondMgrInvertCharCfgItem
0001ba1c l     F .text	0000002a gapBondMgrGetStateFlags
0001ba46 l     F .text	00000050 gapBondMgrBondTotal
0001ba96 l     F .text	00000034 gapBondFreeAuthEvt
0001baca l     F .text	00000136 gapBondMgrEraseBonding
0001bc00 l     F .text	0000002a gapBondMgrEraseAllBondings
0001bc2a l     F .text	00000050 gapBondMgr_SyncWhiteList
0001bc7a l     F .text	00000098 gapBondMgr_SyncResolveList
0001bd12 l     F .text	00000028 gapBondSetupPrivFlag
0001bd3a l     F .text	000000bc gapBondMgrReadBonds
0001bdf6 l     F .text	0000000c gapBondMgrSendServiceChange
0001be02 l     F .text	00000074 gapBondMgrBondReq
0001be76 l     F .text	0000019c gapBondMgrAuthenticate
0001c012 l     F .text	0000004a gapBondMgrFindAddr
0001c05c l     F .text	000001a4 gapBondMgrAddBond
0001c200 l     F .text	00000048 gapBondPairStateCB
0001c248 l     F .text	00000082 gapBondPasscodeCB
0001c2ca l     F .text	0000004a gapBondMgrGetPublicAddr
0001c314 l     F .text	00000078 gapBondMgrChangeState.constprop.8
0001c38c l     F .text	000000ea gapBondMgrUpdateCharCfg
20003e60 l     O .bss	00000010 gapBond_Cent_OOBData
20003e70 l     O .bss	00000010 gapBond_Peri_OOBData
200025bc l     O .bss	00000001 autoSyncResolveList
200025bd l     O .bss	00000001 autoSyncWhiteList
200025be l     O .bss	00000001 bondIdx
200025c0 l     O .bss	00000004 bonds
200025c4 l     O .bss	00000001 eraseAllBonds
200025c5 l     O .bss	00000001 gapBondMax
200025c6 l     O .bss	00000001 gapBondMgr_TaskID
200025c7 l     O .bss	00000001 gapBond_AutoFail
200025c8 l     O .bss	00000001 gapBond_Cent_Bonding
200025c9 l     O .bss	00000001 gapBond_Cent_IOCap
200025ca l     O .bss	00000001 gapBond_Cent_MITM
200025cb l     O .bss	00000001 gapBond_Cent_OOBDataFlag
200025cc l     O .bss	00000004 gapBond_Cent_Passcode
200025d0 l     O .bss	00000001 gapBond_Peri_Bonding
200025d1 l     O .bss	00000001 gapBond_Peri_IOCap
200025d2 l     O .bss	00000001 gapBond_Peri_MITM
200025d3 l     O .bss	00000001 gapBond_Peri_OOBDataFlag
200025d4 l     O .bss	00000004 gapBond_Peri_Passcode
200025d8 l     O .bss	00000001 gattCCFlag
200025dc l     O .bss	00000004 pAttr.4776
200025e0 l     O .bss	00000004 pAuthEvt
200025e4 l     O .bss	00000004 pGapBondCB
200025e8 l     O .bss	00000004 pGapCentBondCB
200025ec l     O .bss	00000004 pGapPeriBondCB
200025f0 l     O .bss	00000002 service.4777
20002450 l     O .data	00000008 gapBondCB
20002459 l     O .data	00000001 gapBond_AutoFailReason
2000245a l     O .data	00000001 gapBond_BondFailOption
2000245b l     O .data	00000001 gapBond_Cent_KeyDistList
2000245c l     O .data	00000001 gapBond_Cent_PairingMode
2000245e l     O .data	00000001 gapBond_KeySize
2000245f l     O .data	00000001 gapBond_Peri_KeyDistList
20002460 l     O .data	00000001 gapBond_Peri_PairingMode
00000000 l    df *ABS*	00000000 peripheral.c
20003e80 l     O .bss	00000010 gapRole_OldIRK
20003e90 l     O .bss	00000010 gapRole_OldSRK
00000000 l    df *ABS*	00000000 role.c
00000000 l    df *ABS*	00000000 att.c
00000000 l    df *ABS*	00000000 att_server.c
00000000 l    df *ABS*	00000000 ll.c
00000000 l    df *ABS*	00000000 ll_advertise.c
0001f482 l     F .text	0000022a llAdvPeriodicAdvertising.part.0
00000000 l    df *ABS*	00000000 ll_initiate.c
00000000 l    df *ABS*	00000000 ll_address.c
00000000 l    df *ABS*	00000000 libgcc2.c
00000000 l    df *ABS*	00000000 libgcc2.c
00000000 l    df *ABS*	00000000 libgcc2.c
00000000 l    df *ABS*	00000000 memcpy.c
00000000 l    df *ABS*	00000000 printf.c
00000000 l    df *ABS*	00000000 puts.c
00000000 l    df *ABS*	00000000 wbuf.c
00000000 l    df *ABS*	00000000 wsetup.c
00000000 l    df *ABS*	00000000 fflush.c
00000000 l    df *ABS*	00000000 findfp.c
00022c4e l     F .text	0000006a std
00000000 l    df *ABS*	00000000 fwalk.c
00000000 l    df *ABS*	00000000 makebuf.c
00000000 l    df *ABS*	00000000 nano-mallocr.c
00000000 l    df *ABS*	00000000 nano-mallocr.c
00000000 l    df *ABS*	00000000 nano-vfprintf.c
000230fe l     F .text	0000002a __sfputc_r
00000000 l    df *ABS*	00000000 nano-vfprintf_i.c
00000000 l    df *ABS*	00000000 sbrkr.c
00000000 l    df *ABS*	00000000 stdio.c
00000000 l    df *ABS*	00000000 writer.c
00000000 l    df *ABS*	00000000 closer.c
00000000 l    df *ABS*	00000000 fstatr.c
00000000 l    df *ABS*	00000000 isattyr.c
00000000 l    df *ABS*	00000000 lseekr.c
00000000 l    df *ABS*	00000000 memchr.c
00000000 l    df *ABS*	00000000 mlock.c
00000000 l    df *ABS*	00000000 readr.c
00000000 l    df *ABS*	00000000 close.c
00000000 l    df *ABS*	00000000 fstat.c
00000000 l    df *ABS*	00000000 isatty.c
00000000 l    df *ABS*	00000000 lseek.c
00000000 l    df *ABS*	00000000 read.c
00000000 l    df *ABS*	00000000 sbrk.c
20002618 l     O .bss	00000004 heap_end.1518
00000000 l    df *ABS*	00000000 libgcc2.c
00000000 l    df *ABS*	00000000 gatt_uuid.c
00000000 l    df *ABS*	00000000 impure.c
200023a4 l     O .data	00000060 impure_data
00000000 l    df *ABS*	00000000 reent.c
200040f0 g     O .bss	00000001 nGA2440
000066ae g     F .text	000000a0 gapProcessScanningPeriodicAdvEvt
000058b2 g     F .text	000000aa GAP_Bond
0001a59c g     F .text	0000008c LL_AddWhiteListDevice
0001061e g     F .text	00000004 HCI_LE_SetExtendedScanEnableCmd
00003d9c g     F .text	00000056 tmos_start_reload_task
20002334 g     O .data	0000000c gapServiceCBs
00009246 g     F .text	000000ea gattServApp_IsWriteLong
20001524 g     F .highcode	0000003e ll_rx_wait_finish
00023940 g     F .text	00000030 _isatty_r
0001e556 g     F .text	00000006 ATT_BuildReadRsp
00005098 g     F .text	00000024 gapGetDevAddress
0000f62a g     F .text	0000001e SM_InitiatorInit
00009982 g     F .text	000000b0 gattServApp_ProcessWriteReq
00022340 g     F .text	0000002c .hidden __ashldi3
00014410 g     F .text	000000aa LL_ConnectionParamReq
00009756 g     F .text	00000100 gattServApp_ProcessExecuteWriteReq
000227fa g     F .text	000000da _puts_r
0001d352 g     F .text	00000018 GAPBondMgr_Init
20002550 g     O .bss	00000004 pGapScanRecs
20001f64 g     F .highcode	00000042 LL_ResolvinglistLocalRpaAddressGetIrk
000059da g     F .text	00000004 GAP_ResolvePrivateAddr
00023970 g     F .text	00000034 _lseek_r
2000033e g     F .highcode	0000000e FLASH_ROM_OUT
20002490 g     O .data	00000002 devInfoSystemIdUUID
2000097c g     F .highcode	00000206 TMOS_SystemProcess
0000b342 g     F .text	0000004e l2capFreeChannel
0000cb92 g     F .text	000000aa l2capSendConnectRsp
0000dd8e g     F .text	0000000e smStopRspTimer
0000ac3c g     F .text	0000002c GATTServApp_AddService
00018ad8 g     F .text	00000034 RFEND_Reset
000109ec g     F .text	000000c8 ll_connect_phy_update_dataLen
0000d7f8 g     F .text	0000005c smSendSMMsg
0001e7e0 g     F .text	0000001c ATT_ParseReadReq
0000e052 g     F .text	0000003c smProcessPairingReq
00024444 g     O .text	00000002 charUserDescUUID
0000b768 g     F .text	0000002a L2CAP_bm_alloc
000073fe g     F .text	0000001a GAP_CentConnRegister
0001e49a g     F .text	00000048 attSendRspMsg
0000ed8a g     F .text	00000034 smpParseIdentityAddrInfo
0000e928 g     F .text	0000000a smpBuildPairingRsp
00017ba4 g     F .text	000000bc LL_WhitelistAdd
0001ff52 g     F .text	0000020c ll_advertise_aux_chain_tx
00010578 g     F .text	00000004 HCI_ReadBDADDRCmd
0000ee24 g     F .text	0000002a smpParsePairingConfirm
0001e9f8 g     F .text	00000032 ATT_HandleValueInd
20003ffc g     O .bss	00000004 l2capPsm
200040f4 g     O .bss	00000004 ftuneFlag
0000ac6e g     F .text	00000028 GATTServApp_InitCharCfg
000227ba g     F .text	00000040 printf
20002c08 g       .data	00000000 __global_pointer$
0000cfbc g     F .text	00000030 linkDB_State
00010598 g     F .text	00000004 HCI_LE_ConnUpdateCmd
00002102 g     F .text	00000028 ADC_InterTSSampInit
0000cef0 g     F .text	00000036 linkDB_NumActive
200025b0 g     O .bss	00000004 pfnResponderCBs
0000de04 g     F .text	00000060 smEndPairing
2000252c g     O .bss	00000004 pGapAdvertState
20004110 g     O .bss	00000001 gapRole_AdvEnabled
20004111 g     O .bss	00000001 gapRole_AdvChanMap
0000d528 g     F .text	00000020 smDetermineKeySize
0002386c g     F .text	00000036 __sseek
00024464 g     O .text	00000002 secondaryServiceUUID
00022d08 g     F .text	00000070 __sinit
000228e0 g     F .text	000000c0 __swbuf_r
200002bc g     F .highcode	0000000e mDelayuS
20000276  w    F .highcode	00000046 HardFault_Handler
0000aad2 g     F .text	000000ee GATT_RegisterService
00004fde g     F .text	00000048 gapAddAddrAdj
0001e702 g     F .text	00000042 ATT_FindByTypeValueRsp
000093a4 g     F .text	0000001c gattResetServerInfo
0000ce98 g     F .text	00000040 linkDB_FindFirst
0001b9a4 g     F .text	00000004 HCI_LE_ConnectionUpdateCompleteCback
0000d0b4 g     F .text	00000060 linkDB_GetSMEvtID
00010616 g     F .text	00000004 HCI_LE_SetPeriodicAdvertisingDataCmd
00022cc2 g     F .text	00000046 __sfmoreglue
0001e966 g     F .text	00000042 ATT_ParsePrepareWriteReq
200000a2  w      .highcode	00000000 GPIOB_IRQHandler
000239c0 g     F .text	00000002 __malloc_unlock
00004332 g     F .text	00000024 ble_ll_common_rand16
0001cf44 g     F .text	00000024 GAPBondMgr_PeriSecurityReq
0001ea66 g     F .text	00000120 LL_ProcessEvent
00005e04 g     F .text	00000068 GAP_SetParamValue
00002dd4 g     F .text	0000007e HAL_ProcessEvent
20004112 g     O .bss	00000001 gapRole_AdvEventType
0000ee4e g     F .text	00000022 smpParsePairingFailed
200000a0  w      .highcode	00000000 GPIOA_IRQHandler
0001f958 g     F .text	00000176 ll_advertise_filter
2000408c g     O .bss	00000004 gptrBBReg
00014226 g     F .text	0000003c LL_ChannelReportingIND
0001e08c g     F .text	00000070 GAPRole_PeripheralInit
0000406a g     F .text	0000003c TMOS_ProcessEventRegister
2000009a  w      .highcode	00000000 SysTick_Handler
0001d52a g     F .text	000002a4 gapRole_PeripheralProcessGAPMsg
0000df3c g     F .text	000000de smProcessEncryptChange
0001057c g     F .text	00000004 HCI_ReadRssiCmd
0001e088 g     F .text	00000004 GAPRole_UpdatePHY
0000bca6 g     F .text	0000015e l2capProcessReq
00010584 g     F .text	00000004 HCI_LE_SetRandomAddressCmd
00003e9c g     F .text	0000006c tmos_get_task_timer
00010590 g     F .text	00000004 HCI_LE_ClearWhiteListCmd
0000504e g     F .text	0000004a gapFreeAuthLink
0001b710 g     F .text	00000112 LL_SetPeriodicAdvertisingEnable
00008cb4 g     F .text	00000094 GATT_ServiceChangedInd
00019db0 g     F .text	00000026 API_LE_SetResolvableAddressTimeoutCmd
0001b9de g     F .text	00000004 HCI_LE_ScanTimeoutEvent
20004113 g     O .bss	00000001 gapRole_MasterAndSlave
0000ba80 g     F .text	0000001e l2capParseParamUpdateRsp
0000d76c g     F .text	0000003c smSetPairingReqRsp
0001852e g     F .text	000000d8 BLE_AccessAddressGenerate
0000947c g     F .text	000001c0 gattServerProcessMsgCB
2000247c g     O .data	00000002 devInfoSoftwareRevUUID
000050c6 g     F .text	0000000c gapGetIRK
0001fb18 g     F .text	00000044 ll_advertise_status_closed
2000406c g     O .bss	0000000a gBleHostPara
00019e1c g     F .text	00000054 API_LE_SetExtendedAdvertisingParametersCmd
20000090  w      .highcode	00000000 NMI_Handler
00008d48 g     F .text	0000001c GATT_bm_free
00010622 g     F .text	00000004 HCI_SendDataPkt
0001b9ea g     F .text	00000004 HCI_LE_ChannelSelectionAlgorithmEvent
00024454 g     O .text	00000002 gapServiceUUID
00019d3e g     F .text	00000026 API_LE_AddDeviceToResolvingList
0002105e g     F .text	0000003e llAdvTraverseallChannel
00006f4c g     F .text	0000003c gapCentProcessHCICmdEvt
20004000 g     O .bss	00000001 l2capTaskID
0001cf16 g     F .text	0000002e GAPBondMgr_PeripheralRegister
20002608 g     O .bss	00000004 attClientNotifyTxCB
000220e4 g     F .text	00000054 LL_ResolvinglistClearall
2000076e g     F .highcode	00000012 tmos_memset
00021322 g     F .text	0000010e ll_advertise_legacy_rx
20000832 g     F .highcode	0000014a tmos_proces_system_time
0000c04c g     F .text	0000005e l2capNotifyData
200000b4  w      .highcode	00000000 UART1_IRQHandler
000105d0 g     F .text	00000004 HCI_LE_SetDefaultPHYCmd
000105c0 g     F .text	00000004 HCI_LE_AddDeviceToResolvingList
200024a8 g     O .data	00000002 simpleProfilechar3UUID
0000b27a g     F .text	0000002c l2capFindLocalCID
0000c1c8 g     F .text	0000005c l2capNotifyChannelEstEvt
0000fbe2 g     F .text	00000064 HOST_LE_LongTermKeyRequestEvent
000091ea g     F .text	00000030 gattServApp_FindPrepareWriteQ
0000bbf8 g     F .text	00000022 l2capParseSignalHdr
00010692 g     F .text	00000020 LL_GetCISCoreByConnHandle
00005bf8 g     F .text	00000020 gapFreeEstLink
00008770 g     F .text	000000e2 GGS_SetParameter
20001604 g     F .highcode	00000124 ll_tx_wait_finish
00017dea g     F .text	000000b4 BB_DevInit
0002390e g     F .text	00000032 _fstat_r
20000780 g     F .highcode	00000014 tmos_strlen
20001562 g     F .highcode	000000a2 ble_ll_chkcrc
00010b16 g     F .text	0000000c ll_connect_flowcontrol_init
0001a202 g     F .text	00000022 LL_ReadRssi
0001b9b0 g     F .text	00000004 HCI_LE_RemoteConnectionParameterRequestCback
0000cc4e g     F .text	0000002a L2CAP_DisconnectReq
20000810 g     F .highcode	00000022 tmos_isbufset
0000cfec g     F .text	00000028 linkDB_UpdateMTU
0000e0e8 g     F .text	00000090 sm_ah
2000427c g     O .bss	00000004 errno
0000cc3c g     F .text	00000012 L2CAP_CmdReject
20004278 g     O .bss	00000004 pfnAdvertiseEventCBs
00003b26 g     F .text	000000c0 tmos_update_callback_timer
0001e3c4 g     F .text	0000001e ATT_GetMTU
000170fc g     F .text	00000a7a ll_slave_process
200024d0 g       .bss	00000000 _sbss
00017f0a g     F .text	00000066 SetTxPower
00023e88 g     O .text	00000019 IOCapMatrix
00017e9e g     F .text	0000006c GetTxPower
00005b6a g     F .text	0000008e gapPasskeyNeededCB
000105b8 g     F .text	00000004 HCI_LE_RemoteConnParamReqReplyCmd
0001ac46 g     F .text	0000004e LL_SetResolvableAddressTimeout
0000d114 g     F .text	000000b2 linkDB_Add
20002500 g     O .bss	00000004 RTCTigFlag
00008852 g     F .text	0000002c GGS_AddService
00004bf2 g     F .text	0000014e GAP_ParamInit
20000330 g     F .highcode	0000000e FLASH_ROM_IN
00013f6a g     F .text	000000aa LL_PHYUpdateIND
0001da30 g     F .text	0000006a GAPRole_PeripheralConnParamUpdateReq
0001b8cc g     F .text	000000a8 LL_SendDataPkt
00010ae2 g     F .text	00000034 ll_connect_parse_datapdu_head
20003fe0 g     O .bss	00000014 gapCentralCBs
00023ff4 g     O .text	00000014 VER_LIB
00010182 g     F .text	0000005a HOST_ReadRemoteVersionInfoEvent
00007e6e g     F .text	0000005e GAP_PeripheralParamInit
0001b182 g     F .text	0000018e LL_SetExtendedScanResponseData
000044a0 g     F .text	000000c0 tmos_snv_init
0001ab9a g     F .text	0000004c LL_ClearResolvingList
000128ac g     F .text	00000090 LL_CoreClose
0001a24a g     F .text	000000b0 LL_SetRandomAddress
0000e932 g     F .text	000000b4 sm_c1
0001058c g     F .text	00000004 HCI_LE_CreateConnCancelCmd
00006cd6 g     F .text	00000056 gapProcessPeriodicAdvertisingSyncLostEvt
20003ff4 g     O .bss	00000008 gapCentralConnCBs
00019e96 g     F .text	00000026 API_LE_SetExtendedScanResponseDataCmd
0001413a g     F .text	00000082 LL_PowerControlReq
200025ac g     O .bss	00000004 pfnInitiatorCBs
00002bcc g     F .text	0000000e SimpleProfile_RegisterAppCBs
200000b2  w      .highcode	00000000 UART0_IRQHandler
20003ea4 g     O .bss	0000002c gTmosPara
0001b9f0 g     F .text	00000002 HCI_LE_TransmitPowerReportingEvent
0001dc7e g     F .text	0000012a GAPRole_GetParameter
00005cde g     F .text	0000006a GAP_Signable
200024a0 g     O .data	00000002 simpleProfilechar5UUID
000118b0 g     F .text	0000002a ll_connect_procedure_timeout
0001a824 g     F .text	0000014a LL_StartEncrypt
0001089a g     F .text	00000152 ll_connect_update_dataLen
00022704 g     F .text	000000b6 memcpy
00011482 g     F .text	00000088 LL_ConnectToStandby
0000f814 g     F .text	0000001e SM_ResponderInit
20004114 g     O .bss	00000001 gapRole_PeriodicAdvEnabled
00017b76 g     F .text	0000002e LL_SlaveEnalbe
00010580 g     F .text	00000004 HCI_LE_ReadBufSizeCmd
00005e6c g     F .text	00000048 GAP_Init
00019cdc g     F .text	00000030 API_LE_RemoteConnParamReqReplyCmd
0000f710 g     F .text	000000a6 SM_ProcessEvent
0000b68e g     F .text	0000005e L2CAP_ParseConnectReq
0000b3b8 g     F .text	0000002c l2capHandleTimerCB
00022cb8 g     F .text	0000000a _cleanup_r
00007ab6 g     F .text	00000026 GAP_MakePeriodic
0000adfc g     F .text	00000034 GATTServApp_Init
20002484 g     O .data	00000002 devInfoFirmwareRevUUID
0000cf30 g     F .text	00000028 linkDB_Register
20004115 g     O .bss	00000001 gapRole_PHYTx
00015526 g     F .text	000000c6 LL_LengthRsp
00007418 g     F .text	0000006e GAP_CentralParamInit
0000d7a8 g     F .text	00000016 smStartEncryption
000105b4 g     F .text	00000004 HCI_LE_LtkReqNegReplyCmd
20002598 g     O .bss	00000004 l2capChannels
000228d4 g     F .text	0000000c puts
0001a41c g     F .text	00000140 LL_RemoteConnParamReqReply
0000bb9a g     F .text	0000005e l2capParseConnectRsp
00005c18 g     F .text	0000007a gapUpdateConnSignCounter
200024a4 g     O .data	00000002 simpleProfilechar4UUID
0000d5e6 g     F .text	00000186 smSavePairInfo
0000c262 g     F .text	00000066 l2capNotifyEvent
0000b666 g     F .text	00000028 L2CAP_HostNumCompletedPkts
200025f8 g     O .bss	00000001 gapMaxScanRes
00013db6 g     F .text	00000026 LL_RejectInd
0000a5c2 g     F .text	00000068 GATT_VerifyReadPermissions
0001e2f4 g     F .text	00000094 ATT_ParsePacket
000033cc g     F .text	00000194 Peripheral_Init
20000dd6 g     F .highcode	000000c0 ll_connect_event_continue
00010744 g     F .text	0000003c ll_connect_set_connect_timeout
2000259c g     O .bss	00000001 l2capFlowCtrlMode
20004150 g     O .bss	00000004 MemCtlEnd
0000d548 g     F .text	0000009e smProcessRandComplete
0001023e g     F .text	00000048 HOST_CommandStatusEvent
0000b6ec g     F .text	0000002e L2CAP_ParseFlowCtrlCredit
00019fd8 g     F .text	0000005a CreatePRBS15
20000e96 g     F .highcode	000000a6 LL_HopGetChannel
00023a06 g     F .text	00000010 _fstat
0000d4ce g     F .text	0000005a SM_ParamInit
00015d9a g     F .text	00000004 LL_CTERsp
00000004 g       .init	00000000 _einit
000036b2 g     F .text	00000060 tmos_msg_send
20002478 g     O .data	00000002 devInfoMfrNameUUID
0000e0c2 g     F .text	00000020 smTimedOut
20003ed0 g     O .bss	00000004 tasksArr
20004154 g     O .bss	00000004 MemCtlPartition
00009232 g     F .text	00000014 gattServApp_FindAuthorizeAttrCB
0002423c g     O .text	00000010 btBaseUUID
0000ff64 g     F .text	00000040 HOST_LE_PeriodicAdvertisingSyncLostEvent
200024b0 g     O .data	00000002 simpleProfilechar1UUID
0000cc8e g     F .text	00000012 L2CAP_ConnParamUpdateRsp
200025fc g     O .bss	00000006 gapRole_AdvDirectAddr
200013d6 g     F .highcode	0000014e BB_IRQLibHandler
20001900 g     F .highcode	00000212 LLE_IRQLibHandler
20002398 g     O .data	0000000c smResponderCBs
20003ed4 g     O .bss	0000001c pfnProcessCBs
0000b50a g     F .text	0000001a l2capStartTimer
0000b2d6 g     F .text	00000030 l2capFindPsm
00017cbe g     F .text	00000014 LL_Encrypt
200000a6  w      .highcode	00000000 BB_IRQHandler
200003cc g     F .highcode	0000036a FLASH_EEPROM_CMD
0000e91e g     F .text	0000000a smpBuildPairingReq
00019a68 g     F .text	00000014 RFEND_TXFtune
0000d360 g     F .text	00000030 smpBuildEncInfo
20000098  w      .highcode	00000000 Break_Point_Handler
00002610 g     F .text	000000a6 GPIOB_ModeCfg
0001c66e g     F .text	000000f6 GAPBondMgr_GetParameter
00013e4e g     F .text	0000008a LL_PHYReq
00005026 g     F .text	00000028 gapDetermineAddrType
0000d3ca g     F .text	00000030 smpBuildIdentityInfo
0001055c g     F .text	00000004 HCI_MB_DisconnectCmd
20002574 g     O .bss	00000004 pfnClientProcessMsgCB
00018c82 g     F .text	00000080 RFEND_RXFilter
0001061a g     F .text	00000004 HCI_LE_SetPeriodicAdvertisingEnableCmd
000050bc g     F .text	0000000a gapGetDevAddressMode
00002d22 g     F .text	00000040 Lib_Write_Flash
00013260 g     F .text	000007ee ll_master_process
00009fca g     F .text	000002ea GATTServApp_ReadAttr
0000ea00 g     F .text	0000011e smpInitiatorProcessPairingRsp
000237be g     F .text	00000030 _sbrk_r
0000f648 g     F .text	000000c8 SM_PasskeyUpdate
20004116 g     O .bss	00000001 gapRole_PHYRx
0001e23e g     F .text	00000046 ATT_ConvertUUIDto128
0001daf8 g     F .text	0000010c GAPRole_PeripheralEnable
000050d2 g     F .text	0000000c gapGetSRK
000048fe g     F .text	000002ce tmos_snv_write
200025f4 g     O .bss	00000004 pGapRolesPeri_AppCGs
0000efdc g     F .text	000000ec smProcessDataMsg
200024ac g     O .data	00000002 simpleProfilechar2UUID
2000009e  w      .highcode	00000000 TMR0_IRQHandler
0001e95a g     F .text	0000000c ATT_WriteRsp
0001a3f4 g     F .text	00000028 LL_CreateConnCancel
00021bce g     F .text	00000064 LL_AdvertiseEnalbe
00010780 g     F .text	000000c0 ll_connect_init_dataLen
0000d94c g     F .text	00000010 smPairingSendSingingInfo
20001d14 g     F .highcode	000000d2 tmos_memory_allocate
0001a1de g     F .text	00000024 LL_ReadBDAddr
20003ef0 g     O .bss	00000002 eventsClear
000239c2 g     F .text	00000034 _read_r
00021b2c g     F .text	00000098 llAdvertiseTimeout
20004078 g     O .bss	00000004 pL2capDataBuf
0000fb7c g     F .text	00000066 HOST_LE_ReadRemoteUsedFeaturesCompleteEvent
00014320 g     F .text	00000050 LL_FeatureReq
20000310 g     F .highcode	00000012 FLASH_ROM_BEG
00008a58 g     F .text	00000050 gattSendFlowCtrlEvt
0001e4e2 g     F .text	00000012 ATT_ErrorRsp
000048a4 g     F .text	0000005a tmos_snv_notify
20004038 g     O .bss	00000004 linkDB
0000d200 g     F .text	0000005c linkDB_GetPairingParam
0001e79e g     F .text	00000042 ATT_ReadByTypeRsp
0001e4f4 g     F .text	00000016 ATT_BuildExchangeMTURsp
00003234 g     F .text	00000198 Peripheral_ProcessEvent
0001e064 g     F .text	00000024 GAPRole_TerminateLink
0000f832 g     F .text	000000d0 SM_StartPairing
0000a422 g     F .text	000001a0 gattServApp_ProcessFindByTypeValueReq
0002443c g     O .text	00000002 appearanceUUID
00004bcc g     F .text	00000004 tmos_snv_compact
0000d390 g     F .text	0000003a smpBuildIdentityAddrInfo
00007e40 g     F .text	0000002e GAP_PeriConnRegister
200007f4 g     F .highcode	0000001c tmos_revmemcpy
00003740 g     F .text	00000086 TMOS_CB_PeriodicProcessEvent
200002ca g     F .highcode	00000028 mDelaymS
20000094  w      .highcode	00000000 Ecall_M_Mode_Handler
0001dc04 g     F .text	0000007a GAPRole_ParamInit
000050ec g     F .text	00000028 gapIncSignCounter
000182ac g     F .text	000000a4 ll_multi_states_process
00015d9e g     F .text	0000001c LL_SendAck
0000551a g     F .text	000000b2 gapSendLinkUpdateEvent
0001e234 g     F .text	0000000a ATT_ParamInit
2000407c g     O .bss	00000002 l2cap_head_length
0000e178 g     F .text	00000024 sm_xor
00023a16 g     F .text	00000010 _isatty
00010352 g     F .text	00000206 HOST_RecvDataPackets
0002446c g     O .text	00000004 _global_impure_ptr
00016678 g     F .text	00000160 LL_ScanSetRF
00008d8e g     F .text	0000013a GATT_ProcessEvent
2000034c g     F .highcode	00000048 FLASH_ROM_ADDR
000081ee g     F .text	0000002e GAP_PeriDevMgrInit
0001b97c g     F .text	00000004 HCI_ReadRemoteVersionInfoCback
0001a628 g     F .text	00000172 LL_ConnUpdate
000069c8 g     F .text	00000260 gapProcessExtAdvertDevInfo
0001b988 g     F .text	00000004 HCI_NumberOfCompletedPacketsCback
0001b822 g     F .text	000000aa LL_SetExtendedScanEnable
0001b5ac g     F .text	00000164 LL_SetPeriodicAdvertisingData
00004d40 g     F .text	00000058 sendTerminateEvent
20002528 g     O .bss	00000004 pEstLink
0002236c g     F .text	00000398 .hidden __udivdi3
000140b6 g     F .text	00000084 LL_CISRsp
0001b9ac g     F .text	00000004 HCI_LE_LongTermKeyRequestCback
00005d76 g     F .text	0000008e GAP_TerminateLinkReq
0001120a g     F .text	00000190 LL_GetNextConnectEventTime
0001b990 g     F .text	00000004 HCI_EncryptionKeyRefreshCompleteCback
20004080 g     O .bss	00000004 llRecvDataDisable
20001b12 g     F .highcode	00000082 RF_HopGetChannel
0000ffde g     F .text	00000058 HOST_LE_AdvertisingSetTerminatedEvent
00019bb8 g     F .text	00000022 API_LE_CreateConnCancelCmd
0001a96e g     F .text	0000012c LL_LtkReqReply
0000ffa4 g     F .text	0000003a HOST_LE_ScanTimeoutEvent
00023a46 g     F .text	00000024 _sbrk
20004118 g     O .bss	00000002 gapRole_MinConnInterval
0000b3e4 g     F .text	00000058 l2capFreePendingPkt
200024fc g     O .bss	00000001 halTaskID
0000de64 g     F .text	00000082 setupInitiatorKeys
0000f4c6 g     F .text	00000054 SM_CalcRandomAddr
0000597c g     F .text	00000054 GAP_PasscodeUpdate
00019f54 g     F .text	00000026 API_LE_SetExtendedScanEnableCmd
0000515c g     F .text	000000a6 gapProcessDisconnectCompleteEvt
0000e5ac g     F .text	0000002e leftshift_onebit
20000308 g     F .highcode	00000008 Main_Circulation
00021d9a g     F .text	00000042 ll_initiate_to_standby
20004084 g     O .bss	00000004 pfnConnectEventCBs
0000ed60 g     F .text	0000002a smpParseEncInfo
20003f40 g     O .bss	00000004 fnGetClockCBs
00012950 g     F .text	00000262 LL_PeriodicHopGetChannel2
2000407e g     O .bss	00000002 l2cap_fragment_length
000040a6 g     F .text	00000172 BLE_LibInit
00018744 g     F .text	00000058 LLE_DevInit
00019af4 g     F .text	00000024 API_ReadBDADDRCmd
0001293c g     F .text	00000014 LL_CoreInit
00018046 g     F .text	00000132 BLE_SetPHYTxMode
20004158 g     O .bss	00000004 MemCtlStart
20001ce4 g     F .highcode	00000030 RFEND_WaitTune
0001e744 g     F .text	0000005a ATT_ParseReadByTypeReq
0001fb5c g     F .text	00000298 ll_advertise_aux_scan_rx
0001aa9a g     F .text	0000004c LL_LtkReqNegReply
0000e0e2 g     F .text	00000006 smUint8ToAuthReq
000042c8 g     F .text	00000046 ll_get_sca_own
0001f26a g     F .text	00000218 ll_advertise_sync_chain_tx
00003ac6 g     F .text	0000002e tmos_set_event
0000dee6 g     F .text	00000056 smNextPairingState
00004288 g     F .text	00000040 ll_get_sca_divisor
20002474 g     O .data	00000002 devInfo11073CertUUID
0000b660 g     F .text	00000006 L2CAP_GetMTU
0001b9e6 g     F .text	00000004 HCI_LE_ScanRequestReceivedEvent
00021f20 g     F .text	00000012 ll_resolvinglist_renew_set
0000fa52 g     F .text	000000ca HOST_LE_ConnectionCompleteEvent
200002f2 g     F .highcode	00000016 RTC_IRQHandler
0001e50a g     F .text	00000024 ATT_BuildFindInfoRsp
200024c4 g     O .data	00000006 MacAddr
20004280 g       .bss	00000000 _ebss
00021c32 g     F .text	00000168 LL_InitiateSetRF
0000c670 g     F .text	00000108 l2capSendSegment
000143c0 g     F .text	00000050 LL_SlaveFeatureReq
00024460 g     O .text	00000002 primaryServiceUUID
00019b4e g     F .text	00000024 API_LE_ReadBufSizeCmd
0000ad0a g     F .text	000000f2 GATT_InitServer
0001b9bc g     F .text	00000016 HCI_LE_EnhancedConnectionCompleteCback
00019f08 g     F .text	00000026 API_LE_SetPeriodicAdvertisingDataCmd
0001f782 g     F .text	000001d6 ll_advertise_to_connection_state
200025a8 g     O .bss	00000004 pSmGenKey
00021430 g     F .text	000004b6 ll_advertise_process
00019a7c g     F .text	00000016 API_DisconnectCmd
00006d2c g     F .text	000000a6 gapFreeScanRecs
0001287a g     F .text	00000032 LL_CoreDataListFree
0000d8cc g     F .text	00000038 smPairingSendIdentityAddrInfo
0001640c g     F .text	0000019c LL_ProcessTMOSReportMsg
000056e0 g     F .text	0000003e gapProcessNewAddr
00010c00 g     F .text	00000022 ll_connect_get_slave_number
0001c764 g     F .text	0000009a GAPBondMgr_LinkTerm
0000cc78 g     F .text	00000016 L2CAP_ConnParamUpdateReq
0000275a g     F .text	00000032 UART1_DefInit
0000cb08 g     F .text	00000062 l2capBuildCmdReject
00007ecc g     F .text	00000050 gapSendMakeDiscEvent
0000d8bc g     F .text	00000010 smPairingSendEncInfo
00004376 g     F .text	00000062 TMOS_TempSample
00010132 g     F .text	00000050 HOST_EncryptionChangeEvent
0000674e g     F .text	00000038 gapCancelLinkReq
0001e53a g     F .text	0000001c ATT_BuildReadByTypeRsp
00014680 g     F .text	00000120 LL_EncReq
0000abc0 g     F .text	0000007c GATTServApp_RegisterService
0001ad54 g     F .text	000002da LL_SetExtendedAdvertisingParameters
00008536 g     F .text	0000023a GGS_ParamInit
00018278 g     F .text	00000034 ll_multi_states_check
00002f5c g     F .text	00000034 HAL_Init
20000394 g     F .highcode	00000038 FLASH_ROM_WAIT
00019aca g     F .text	0000002a API_WriteAFHChannelModeCmd
00004da4 g     F .text	00000006 gapRegisterPeripheral
00018350 g     F .text	0000008c ble_ll_hw_api_shut
0001c7fe g     F .text	000000e4 GAPBondMgr_ResolveAddr
20001728 g     F .highcode	000001d8 BLE_CheckHoppingMap
000101dc g     F .text	00000062 HOST_CommandCompleteEvent
00022314 g     F .text	0000002c .hidden __lshrdi3
200040f8 g     O .bss	00000001 nGA2480
20004088 g     O .bss	00000004 gptrAESReg
00014014 g     F .text	00000048 LL_MinUsedChannel
00002c5c g     F .text	0000005a SimpleProfile_GetParameter
00004e06 g     F .text	00000036 gapL2capConnParamUpdateReq
000167d8 g     F .text	000000c8 LL_ScanToStandby
00004f8e g     F .text	00000050 GAP_ParamsInit
00010558 g     F .text	00000004 HCI_DisconnectCmd
00020aac g     F .text	000005b2 ll_advertise_tx
0000919a g     F .text	00000050 gattServApp_ClearPrepareWriteQ
00018b0c g     F .text	00000176 RFEND_DevInit
2000411c g     O .bss	00000004 gapRole_state
00007adc g     F .text	0000000c GAP_EndPeriodic
00004daa g     F .text	00000006 gapRegisterPeripheralConn
00002e52 g     F .text	0000010a CH58X_BLEInit
000100ea g     F .text	00000048 HOST_DisconnectionCompleteEvent
00022138 g     F .text	00000012 LL_ResolvinglistInit
00024398 g     O .text	00000020 __sf_fake_stderr
00019a92 g     F .text	00000004 API_MD_DisconnectCmd
00009330 g     F .text	0000001c gattFindService
0001e568 g     F .text	0000001c ATT_BuildReadByGrpTypeRsp
20004280 g       .bss	00000000 end
000059d0 g     F .text	0000000a GAP_RegisterForMsgs
0001e8da g     F .text	00000042 ATT_ReadByGrpTypeRsp
0000e5da g     F .text	00000038 padding
0000d25c g     F .text	0000004a linkDB_NeedSendKey
200000c0  w      .highcode	00000000 UART2_IRQHandler
00004ee4 g     F .text	000000aa GAP_SecParamsInit
0000c82c g     F .text	0000003a l2capSendPkt
200000bc  w      .highcode	00000000 PWMX_IRQHandler
20003ea0 g     O .bss	00000004 msg_qHead
0000c2fa g     F .text	0000009e l2capFreeTxSDU
20002480 g     O .data	00000002 devInfoHardwareRevUUID
0001e2ee g     F .text	00000006 ATT_RegisterServer
00018178 g     F .text	00000100 BLE_SetPHYRxMode
00010b22 g     F .text	00000028 LL_ConnectFlowcontrolTx
00023ea4 g     O .text	00000010 const_Rb
0001405c g     F .text	0000002c LL_ClockAccuracyReq
00019e70 g     F .text	00000026 API_LE_SetExtendedAdvertisingDataCmd
000057d4 g     F .text	000000de GAP_Authenticate
0001acdc g     F .text	00000078 LL_SetPHY
0000e376 g     F .text	0000020e smResponderProcessLTKReq
00009024 g     F .text	00000018 GATTServApp_ReadCharCfg
00009f08 g     F .text	000000c2 GATT_FindNextAttr
00019cac g     F .text	00000030 API_LE_LtkReqNegReplyCmd
00023128 g     F .text	00000044 __sfputs_r
200025b5 g     O .bss	00000001 nCO2401
0001190e g     F .text	000007ca ll_process_after_connect_event
20004090 g     O .bss	00000004 gPaControl
00014558 g     F .text	00000030 LL_ChannelStatusIND
0001ea2a g     F .text	0000003c ll_get_prime_number
0000c866 g     F .text	00000082 L2CAP_SendData
0000c510 g     F .text	000000f0 l2capEncapSendData
000239a4 g     F .text	0000001a memchr
0000cf58 g     F .text	0000004c linkDB_Remove
00008ab4 g     F .text	00000032 gattStopTimer
00015450 g     F .text	000000d6 LL_LengthReq
200025a5 g     O .bss	00000001 nextIdx
00022f82 g     F .text	000000a8 _free_r
200024b4 g     O .data	00000002 simpleProfileServUUID
0001060e g     F .text	00000004 HCI_LE_SetExtendedAdvertisingEnableCmd
20002458 g     O .data	00000001 gapBond_Auto
00010626 g     F .text	0000004c HCI_ValidConnTimeParams
0001e3e2 g     F .text	000000b8 attSendMsg
2000259d g     O .bss	00000001 l2capId
000089d4 g     F .text	00000084 gattNotifyEvent
00019d0c g     F .text	00000032 API_LE_RemoteConnParamReqNegReplyCmd
200025a1 g     O .bss	00000001 l2capNumCoChannels
0001dda8 g     F .text	000002b8 GAPRole_SetParameter
00009164 g     F .text	00000036 GATTServApp_SendServiceChangedInd
000090d4 g     F .text	00000032 gattServApp_WriteAttrCB
00000000 g       .init	00000000 _start
0001e562 g     F .text	00000006 ATT_BuildReadMultiRsp
00019dd6 g     F .text	00000026 API_LE_SetDefaultPHYCmd
000105a0 g     F .text	00000010 HCI_LE_StartEncyptCmd
000188d4 g     F .text	00000204 RF_Rx
00009ad6 g     F .text	00000094 GATT_FindHandleUUID
00010036 g     F .text	0000006c HOST_LE_ScanRequestReceivedEvent
0001e82e g     F .text	0000002a ATT_ParseReadBlobReq
2000238c g     O .data	0000000c smInitiatorCBs
000210b8 g     F .text	00000212 llAdvertiseSet
0001d82e g     F .text	00000202 GAPRole_PeripheralProcessEvent
0000b306 g     F .text	0000003c l2capFindRemoteCID
0001b9d2 g     F .text	00000004 HCI_LE_PHYUpdateCompleteReportCback
00023a26 g     F .text	00000010 _lseek
20001f22 g     F .highcode	00000042 LL_ResolvinglistPeerRpaAddressGetIrk
2000260c g     O .bss	00000004 attServerNotifyTxCB
000105c8 g     F .text	00000004 HCI_LE_SetAddressResolvableEnableCmd
00017cac g     F .text	00000012 LL_WhitelistInit
0000d06e g     F .text	00000046 linkDB_PeripheralLinkNum
0000fd48 g     F .text	00000128 HOST_LE_EnhancedConnectionCompleteEvent
2000403c g     O .bss	00000030 linkCBs
00004d98 g     F .text	00000006 gapRegisterCentral
000186c6 g     F .text	0000007e BLE_IPCoreInit
00019bfe g     F .text	00000024 API_LE_AddWhiteListCmd
00013ed8 g     F .text	00000092 LL_PHYRsp
00005d48 g     F .text	0000002a GAP_TerminateAuth
0001abe6 g     F .text	00000060 LL_SetAddressResolvableEnable
0000f19c g     F .text	000000da smpResponderProcessPairingReq
0000e9e6 g     F .text	0000001a smpBuildSecurityReq
200011f6 g     F .highcode	000001e0 AES_DevAESEnc
200000b8  w      .highcode	00000000 ADC_IRQHandler
0000f51a g     F .text	000000e6 SM_GenerateAuthenSig
00005492 g     F .text	00000088 gapSendDeviceInitDoneEvent
000035fa g     F .text	00000046 tmos_msg_allocate
00024468 g     O .text	00000002 serviceChangedUUID
0000b71a g     F .text	00000030 L2CAP_RegisterApp
0000d904 g     F .text	00000010 smPairingSendIdentityInfo
0000cfa4 g     F .text	00000018 linkDB_Role
20000000 g       .highcode	00000000 _highcode_vma_start
20000794 g     F .highcode	00000032 tmos_memdup
00010286 g     F .text	0000003e HOST_DataBufferOverflowEvent
00013c76 g     F .text	00000022 LL_StartEncReq
00017d58 g     F .text	00000092 AES_DevPktDec
0000bc1a g     F .text	0000008c l2capParsePacket
00008d64 g     F .text	0000002a GATT_Init
20003f44 g     O .bss	00000020 gapParams
00007db2 g     F .text	00000026 GAP_GetAdvertisingAdvData
20003ef4 g     O .bss	00000004 EventsArr
200000b0  w      .highcode	00000000 TMR2_IRQHandler
0000d2a6 g     F .text	0000001a smpBuildPairingFailed
0001d36a g     F .text	000001c0 GAPBondMgr_ProcessEvent
000144ba g     F .text	0000009e LL_ConnectionParamRsp
0000c124 g     F .text	000000a4 l2capNotifyCreditEvt
0001030e g     F .text	00000044 HOST_NumberOfCompletedPacketsEvent
00005394 g     F .text	00000096 gapSendPairingReqEvent
20004120 g     O .bss	00000001 gapRole_AdvDirectType
0000c2c8 g     F .text	00000032 l2capStoreFCPkt
00019dfc g     F .text	00000020 API_LE_SetPHYCmd
0000430e g     F .text	00000024 ble_ll_common_rand8
0000e2e0 g     F .text	00000096 sm_s1
0000ac96 g     F .text	00000074 gattServApp_HandleConnStatusCB
200025a0 g     O .bss	00000001 l2capNumChannels
0001a2fa g     F .text	000000fa LL_SetAdvControl
000238de g     F .text	00000030 _close_r
20001fa8 g       .data	00000000 _data_vma
00010606 g     F .text	00000004 HCI_LE_SetExtendedAdvertisingDataCmd
0000efb2 g     F .text	0000002a smpParseSigningInfo
0000c972 g     F .text	000000ae l2capSendReq
00005320 g     F .text	00000074 gapSendBondCompleteEvent
0001060a g     F .text	00000004 HCI_LE_SetExtendedScanResponseDataCmd
0000dd50 g     F .text	0000003e smGeneratePairingReqRsp
200040fc g     O .bss	00000004 gptrRFENDReg
0001e858 g     F .text	00000030 ATT_ReadBlobRsp
0001e1a2 g     F .text	00000030 tmos_memory_get_max_block_len
20002604 g     O .bss	00000004 gapRole_signCounter
0000d7be g     F .text	0000003a smStartRspTimer
0001edd2 g     F .text	000000de llAdvertiseCreateCore
200000c6 g     F .highcode	00000174 SetSysClock
200025a4 g     O .bss	00000001 l2capNumRecvDataPkts
0001b9a8 g     F .text	00000004 HCI_LE_ReadRemoteUsedFeaturesCompleteCback
200000aa  w      .highcode	00000000 USB_IRQHandler
200011a6 g     F .highcode	00000050 LL_WhitelistLookup
000100a2 g     F .text	00000048 HOST_LE_ChannelSelectionAlgorithmEvent
0002214a g     F .text	0000009c LL_AddrGenerateResolvableAddress
20004160 g     O .bss	00000118 gBleLlPara
000229a0 g     F .text	0000010c __swsetup_r
00012c0c g     F .text	00000054 LL_HopInit
00007096 g     F .text	000000fe gapProcessScanningDirectEvt
0000a708 g     F .text	0000021c gattServApp_ProcessReadByGrpTypeReq
00002bda g     F .text	00000082 SimpleProfile_SetParameter
00022d78 g     F .text	000000a4 __sfp
0001e888 g     F .text	0000001a ATT_ParseReadMultiReq
20000bcc g     F .highcode	00000002 TMOS_TimerIRQHandler
00013cba g     F .text	00000026 LL_UnknowRsp
0001face g     F .text	0000004a ll_advertise_event_closed
20004122 g     O .bss	00000002 gapRole_MaxConnInterval
20004124 g     O .bss	00000010 gapRole_IRK
0000fc46 g     F .text	00000060 HOST_LE_RemoteConnectionParameterRequestEvent
000059de g     F .text	0000018c gapPairingCompleteCB
000237ee g     F .text	00000030 __sread
00010560 g     F .text	00000004 HCI_SetExtendedScanMaxLengthCmd
00004e3c g     F .text	00000016 gapValidADType
20004104 g     O .bss	00000007 gapBondSignAddr
000165a8 g     F .text	00000042 LL_ReportGenerateEvent
000239be g     F .text	00000002 __malloc_lock
20001b94 g     F .highcode	000000b6 RF_FrequencyHoppingGet
000141bc g     F .text	0000006a LL_PowerControlRsp
00013e06 g     F .text	0000002e LL_PingReq
0000fca6 g     F .text	00000042 HOST_RemoteConnectionParameterRequestEvent
2000261c g     O .bss	00001800 MEM_BUF
0000d914 g     F .text	00000038 smPairingSendMasterID
00004d9e g     F .text	00000006 gapRegisterCentralConn
200040b4 g     O .bss	00000020 rfConfig
00022be8 g     F .text	00000066 _fflush_r
0001e0fc g     F .text	0000002c tmos_memory_getlen
0001b9da g     F .text	00000004 HCI_LE_PeriodicAdvertisingSyncLostEvent
0001b9f2 g     F .text	00000006 GAPRole_BroadcasterSetCB
00010688 g     F .text	0000000a LL_ConnectEventRegister
00008ae6 g     F .text	00000030 GATT_AppCompletedMsg
000243b8 g     O .text	00000020 __sf_fake_stdin
00005114 g     F .text	00000048 gapProcessConnEvt
200007c6 g     F .highcode	0000002e tmos_memcmp
200000ba  w      .highcode	00000000 I2C_IRQHandler
0000205a g     F .text	000000a8 memset
20001ece g     F .highcode	00000054 LL_ResolvinglistPeerIdentifyAddressGetIrk
200040b0 g     O .bss	00000004 gptrLLEReg
00003560 g     F .text	00000050 main
00023f5c g     O .text	00000098 funcArr
00013c44 g     F .text	00000032 LL_TerminateInd
000120d8 g     F .text	000004f8 ll_connect_process_event
0000887e g     F .text	000000d8 GAP_DeviceInit
00007194 g     F .text	0000026a gapProcessScanningExtAdvEvt
000037c6 g     F .text	00000080 TMOS_CB_ProcessEvent
20001fa8 g     O .data	0000000c devInfoCBs
00019f7a g     F .text	0000000c API_SetExtendedScanMaxLengthCmd
0001ce18 g     F .text	00000088 GAPBondMgr_ServiceChangeInd
00013ddc g     F .text	0000002a LL_RejectIndExt
00009874 g     F .text	0000010e gattServApp_ProcessPrepareWriteReq
0001a1b6 g     F .text	00000028 LL_MD_Disconnect
000168a0 g     F .text	00000146 llSlaveCreateCore
0001e20e g     F .text	00000026 ATT_BuildErrorRsp
00002b80 g     F .text	0000004c SimpleProfile_AddService
20000f3c g     F .highcode	0000026a LL_HopGetChannel2
0000b8a4 g     F .text	000000d4 L2CAP_ProcessEvent
2000410b g     O .bss	00000001 gapBond_Invalid
0001b996 g     F .text	00000004 HCI_RxDataCompleteCback
00004560 g     F .text	000000b2 tmos_snv_clear
0000903c g     F .text	0000003c GATTServApp_WriteCharCfg
00019f2e g     F .text	00000026 API_LE_SetPeriodicAdvertisingEnableCmd
0000802a g     F .text	0000003a gapSendMakePeriodicEvent
200025b8 g     O .bss	00000004 pGapRoles_AppCGs
0001b980 g     F .text	00000004 HCI_CommandCompleteCback
20001c4a g     F .highcode	0000009a RF_FrequencyHoppingChange
0001b9b4 g     F .text	00000004 HCI_RemoteConnectionParameterRequestCback
000238a2 g     F .text	00000006 __sclose
00005eb4 g     F .text	00000664 GAP_ProcessEvent
00017c60 g     F .text	0000004c LL_WhitelistClearAll
0001b9ee g     F .text	00000002 HCI_LE_PathLossThresholdEvent
00013d0e g     F .text	00000022 LL_PauseEncRsp
0001e8a2 g     F .text	00000038 ATT_ReadMultiRsp
0002302a g     F .text	000000d4 _malloc_r
20004134 g     O .bss	00000010 gapRole_SRK
00019ee2 g     F .text	00000026 API_LE_SetPeriodicAdvertisingParametersCmd
00009106 g     F .text	0000005e GATTServApp_SendCCCUpdatedEvent
20001de6 g     F .highcode	000000e8 tmos_memory_free
00019c7c g     F .text	00000030 API_LE_LtkReqReplyCmd
2000254c g     O .bss	00000004 pGapDiscReq
00013d30 g     F .text	00000086 LL_VersionInd
0000b390 g     F .text	00000028 l2capDisconnectChannel
200000ac  w      .highcode	00000000 USB2_IRQHandler
0001a55c g     F .text	00000040 LL_RemoteConnParamReqNegReply
00018606 g     F .text	000000c0 BLE_RegInit
00003f3c g     F .text	0000012e TMOS_Init
0001cf68 g     F .text	00000150 GAPBondMgr_LinkEst
0000a924 g     F .text	000001ae gattServApp_ProcessReadByTypeReq
00019d8a g     F .text	00000026 API_LE_SetAddressResolvableEnableCmd
0001a15a g     F .text	0000005c LL_Disconnect
0001c8e2 g     F .text	000004bc GAPBondMgr_SetParameter
0001c476 g     F .text	00000186 GAPBondMgr_ParamInit
000126d0 g     F .text	00000038 LL_CoreGetDataList
0000fec8 g     F .text	0000009c HOST_LE_PeriodicAdvertisingSyncEstablishedEvent
00003be6 g     F .text	0000011e tmos_start_task
00014262 g     F .text	00000066 LL_ChannelMapInd
00019bda g     F .text	00000024 API_LE_ClearWhiteListCmd
00008b16 g     F .text	00000056 GATT_NotifyEvent
00010672 g     F .text	00000016 ll_connect_auth_timeout
20003f64 g     O .bss	0000007a gapParameters
0001e284 g     F .text	0000006a ATT_CompareUUID
200020e4 g     O .data	0000000c simpleProfileCBs
00024450 g     O .text	00000002 deviceNameUUID
0001b9b8 g     F .text	00000004 HCI_LE_DataLengthChangeCback
0001150a g     F .text	000003a6 ll_connect_action_in_connintervaltimeout
00002f90 g     F .text	00000062 HAL_TimeInit
00010612 g     F .text	00000004 HCI_LE_SetPeriodicAdvertisingParametersCmd
20002488 g     O .data	00000002 devInfoSerialNumberUUID
00024448 g     O .text	00000002 characterUUID
00010cde g     F .text	0000009a ll_connect_get_update_point
2000245d g     O .data	00000001 gapBond_Erase
000142c8 g     F .text	00000058 LL_EncRsp
0001e584 g     F .text	00000030 ATT_BuildPrepareWriteRsp
00000004 g       .highcodelalign	00000000 _highcode_lma
0000d888 g     F .text	00000034 smGenerateRandMsg
0000be04 g     F .text	00000150 l2capProcessRsp
0001d7ce g     F .text	00000060 gapRole_PeripheralProcessTMOSMsg
0000e584 g     F .text	00000028 xor_128
0001a032 g     F .text	00000128 LL_TransmitterTest
0000cf26 g     F .text	0000000a linkDB_NumConns
00019c64 g     F .text	00000018 API_LE_StartEncryptCmd
0001b974 g     F .text	00000004 HCI_DisconnectionCompleteCback
0000b2a6 g     F .text	00000030 l2capFindLocalId
000227ba g     F .text	00000040 iprintf
0001b02e g     F .text	00000154 LL_SetExtendedAdvertisingData
00010564 g     F .text	00000004 HCI_WriteAFHChannelModeCmd
2000410c g     O .bss	00000001 gapBondSign_Valid
0001e060 g     F .text	00000004 GAPRole_ReadRssiCmd
20002470 g     O .data	00000002 devInfoPnpIdUUID
00003df2 g     F .text	00000050 tmos_stop_task
0000b792 g     F .text	00000112 L2CAP_Init
0000cd86 g     F .text	00000034 linkDB_Find
0001a224 g     F .text	00000026 LL_LE_ReadBufSize
0000cb6a g     F .text	00000028 l2capBuildDisconnectRsp
00024298 g     O .text	00000100 .hidden __clz_tab
0001fdf4 g     F .text	0000015e ll_advertise_aux_conn_rx
200000a8  w      .highcode	00000000 LLE_IRQHandler
0000d014 g     F .text	0000005a linkDB_PerformFunc
00000000 g       .init	00000000 _sinit
0000fe70 g     F .text	00000058 HOST_LE_PHYUpdateCompleteReportEvent
0000ac68 g     F .text	00000006 GATTServApp_RegisterForMsg
00019f86 g     F .text	00000052 CreatePRBS9
0001b310 g     F .text	000001a8 LL_SetExtendedAdvertisingEnable
000238a8 g     F .text	00000036 _write_r
00010568 g     F .text	00000010 HCI_HostNumCompletedPktCmd
0001e52e g     F .text	0000000c ATT_BuildFindByTypeValueRsp
0000ba9e g     F .text	000000fc l2capProcessConnectReq
0000293e g     F .text	0000009a DevInfo_GetParameter
0000edbe g     F .text	0000002a smpParseIdentityInfo
00009362 g     F .text	00000016 GATT_ServiceEncKeySize
20002494 g     O .data	00000002 devInfoServUUID
00021ddc g     F .text	0000008c LL_InitiateToStandby
0000d49e g     F .text	00000030 smpBuildSigningInfo
00016b26 g     F .text	0000001c ll_hw_timer_slave_recv_timeout
0000ede8 g     F .text	0000003c smpParseMasterID
000050de g     F .text	0000000e gapGetSignCounter
20003ef8 g     O .bss	00000004 taskHead
00023408 g     F .text	0000010c _printf_common
000105bc g     F .text	00000004 HCI_LE_RemoteConnParamReqNegReplyCmd
00008b6c g     F .text	00000006 gattRegisterServer
20002464 g     O .data	00000004 _impure_ptr
0000c8e8 g     F .text	0000008a l2capSendCmd
0000ced8 g     F .text	00000018 linkDB_MTU
00017f70 g     F .text	000000d6 BLE_CheckChannel
00021ed4 g     F .text	0000004c ll_resolvinglist_renew_rpa
0002015e g     F .text	0000094e ll_advertise_aux_tx
00022aac g     F .text	0000013c __sflush_r
0001e128 g     F .text	0000007a tmos_memory_init
0001e68a g     F .text	00000078 ATT_ParseFindByTypeValueReq
00009078 g     F .text	0000005c GATTServApp_ProcessCCCWriteReq
20004144 g     O .bss	00000001 gapRole_profileRole
0001e5d2 g     F .text	0000001c ATT_ParseExchangeMTUReq
000105c4 g     F .text	00000004 HCI_LE_ClearResolvingList
0000e01a g     F .text	00000038 smSendFailAndEnd
00004e52 g     F .text	00000092 gapFindADType
00019c40 g     F .text	00000024 API_LE_RandCmd
0001e9d8 g     F .text	00000014 ATT_ParseExecuteWriteReq
0002444c g     O .text	00000002 clientCharCfgUUID
00018d02 g     F .text	0000003a RFEND_RXAdc
000102c4 g     F .text	0000004a HOST_EncryptionKeyRefreshCompleteEvent
0000b524 g     F .text	0000001e l2capStopTimer
2000248c g     O .data	00000002 devInfoModelNumberUUID
00008b72 g     F .text	0000005a GATT_UpdateMTU
00021bc4 g     F .text	0000000a LL_AdvertiseEventRegister
0000bf54 g     F .text	000000f8 l2capProcessRxData
0001a7ee g     F .text	00000036 LL_Rand
200000c4  w      .highcode	00000000 WDOG_BAT_IRQHandler
00002926 g     F .text	00000018 DevInfo_AddService
20000096  w      .highcode	00000000 Ecall_U_Mode_Handler
0000c778 g     F .text	000000b4 l2capSendNextSegment
0001b4b8 g     F .text	000000f4 LL_SetPeriodicAdvertisingParameters
0000f276 g     F .text	00000250 smpResponderProcessIncoming
000105cc g     F .text	00000004 HCI_LE_SetResolvableAddressTimeoutCmd
00006552 g     F .text	0000015c gapCentProcessConnEvt
0000ba32 g     F .text	0000004e L2CAP_ParseParamUpdateReq
0000f902 g     F .text	00000150 SM_VerifyAuthenSig
200000be  w      .highcode	00000000 TMR3_IRQHandler
20002462 g     O .data	00000001 gapRole_TaskID
00010ab4 g     F .text	0000002e ll_connect_init_pingOffset
00002d00 g     F .text	00000006 Lib_Calibration_LSI
00007e0c g     F .text	00000034 GAP_GetPeriodicAdvertisingData
0000ae30 g     F .text	0000036a GATTServApp_ProcessEvent
0000ee9a g     F .text	00000118 smpParsePairingReq
20008000 g       .stack	00000000 _eusrstack
000039ca g     F .text	000000fc tmos_start_periodic_callback_task
0000dd9c g     F .text	00000068 smFreePairingParams
0000ba04 g     F .text	0000002e l2capParseDisconnectRsp
0001103c g     F .text	000001ce ll_connect_change_connect_point
0000e858 g     F .text	000000c6 smpBuildPairingReqRsp
00006786 g     F .text	00000242 gapProcessAdvertDevInfo
2000009c  w      .highcode	00000000 SW_Handler
00019b18 g     F .text	00000036 API_ReadRssiCmd
0000db2a g     F .text	00000226 smResponderSendNextKeyInfo
00010708 g     F .text	0000003c ll_connect_set_procedure_timeout
0001e9a8 g     F .text	00000030 ATT_PrepareWriteRsp
00021f8c g     F .text	00000158 LL_ResolvinglistAdd
0000256a g     F .text	000000a6 GPIOA_ModeCfg
20000756 g     F .highcode	00000018 tmos_memcpy_word
000035b0 g     F .text	0000001e tmos_msg_enqueue
2000259e g     O .bss	00000002 l2capMtuSize
20003efc g     O .bss	0000003c ble
00009e7c g     F .text	00000056 GATT_VerifyPrepareWritePermissions
00014088 g     F .text	0000002e LL_ClockAccuracyRsp
0001eeb0 g     F .text	000003ba ll_advertise_sync_tx
20004145 g     O .bss	00000001 gapRole_AdvFilterPolicy
00022e88 g     F .text	0000005a __swhatbuf_r
0000b19a g     F .text	000000e0 l2capAllocConnChannel
0002424c g     O .text	00000017 PrimeNumber
000212ca g     F .text	00000058 LL_AdvertiseToStandby
20004100 g     O .bss	00000001 nCO2440
00006c28 g     F .text	000000ae gapProcessPeriodicAdvertisingSyncEstablishedEvt
000026b6 g     F .text	00000042 GetSysClock
0000ccde g     F .text	000000a8 linkDB_Init
000093ea g     F .text	00000092 gattServerHandleConnStatusCB
00023eb4 g     O .text	000000a8 funcRxPDUArr
0000b542 g     F .text	000000dc l2capDisconnectAllChannels
00010d78 g     F .text	000000fa ll_master_check_connect_point
000105b0 g     F .text	00000004 HCI_LE_LtkReqReplyCmd
00007dd8 g     F .text	00000034 GAP_GetAdvertisingRspData
000125d0 g     F .text	000000e2 LL_ConnectShut
00024458 g     O .text	00000002 gattServiceUUID
0001e638 g     F .text	00000052 ATT_FindInfoRsp
200025b6 g     O .bss	00000001 nGA2401
0000b9d6 g     F .text	0000002e l2capParseDisconnectReq
00016b42 g     F .text	000005ba ll_slave_action_tx_ready
00002702 g     F .text	00000028 _write
200024cc g       .data	00000000 _edata
200000a4  w      .highcode	00000000 SPI0_IRQHandler
00019c22 g     F .text	0000001e API_LE_ConnUpdateCmd
20004004 g     O .bss	00000030 l2capFixedChannels
00021e68 g     F .text	0000006c ll_resolvinglist_checkRPA
00019a96 g     F .text	00000034 API_HostNumCompletedPktCmd
20004148 g     O .bss	00000006 gapRole_bdAddr
0001da9a g     F .text	0000005e GAPRole_PeripheralStartDevice
000106b2 g     F .text	00000056 ll_connect_set_auth_timeout
0000b61e g     F .text	0000003c l2capHandleConnStatusCB
0000c398 g     F .text	00000178 l2capReassembleSegment
00007cec g     F .text	000000c6 GAP_SetPeriodicAdvertisingData
000035ce g     F .text	0000002c tmos_msg_deallocate
20001fa8 g       .highcode	00000000 _highcode_vma_end
00003846 g     F .text	00000052 tmos_rand
00019ebc g     F .text	00000026 API_LE_SetExtendedAdvertisingEnableCmd
000183dc g     F .text	00000152 ll_hw_api_tx_direct_test
20002578 g     O .bss	00000004 pfnServerProcessMsgCB
000077c6 g     F .text	00000174 GAP_MakeDiscoverable
0000eb1e g     F .text	00000242 smpInitiatorProcessIncoming
00023dac g     O .text	00000060 serverReqTbl
20003f38 g     O .bss	00000004 cbTimersHead
0002445c g     O .text	00000002 periConnParamUUID
00024470 g       .dlalign	00000000 _data_lma
00003af4 g     F .text	00000032 tmos_clear_event
00002d62 g     F .text	00000072 HAL_GetInterTempValue
000118da g     F .text	00000034 ll_connect_supervision_timeout
20002461 g     O .data	00000001 gapBond_Valid
0000b74a g     F .text	0000001e L2CAP_SetBufSize
0001b9d6 g     F .text	00000004 HCI_LE_PeriodicAdvertisingSyncEstablishedEvent
00010840 g     F .text	0000005a ll_connect_update_effective_Len
0000571e g     F .text	000000b6 gapProcessRandomAddrComplete
0000d46e g     F .text	00000030 smpBuildPairingRandom
0002381e g     F .text	0000004e __swrite
0001b9e2 g     F .text	00000004 HCI_LE_AdvertisingSetTerminatedEvent
2000414e g     O .bss	00000001 gapCentralTaskID
0001b994 g     F .text	00000002 HCI_AuthenticatedPayloadTimeoutExpiredCback
00005d72 g     F .text	00000004 GAP_NumActiveConnections
00010c22 g     F .text	000000bc ll_connect_update_get_offset
0002316c g     F .text	0000029c _vfiprintf_r
00010e72 g     F .text	000001ca ll_slave_check_connect_point
00009a32 g     F .text	000000a4 GATT_Indication
0001e1d2 g     F .text	0000003c tmos_bm_adjust_header
00003e42 g     F .text	0000005a tmos_stop_callback_task
00022e1c g     F .text	0000006c _fwalk_reent
00013c98 g     F .text	00000022 LL_StartEncRsp
0001c5fc g     F .text	00000072 GAPBondMgr_Erase
00010594 g     F .text	00000004 HCI_LE_AddWhiteListCmd
00002d06 g     F .text	0000001c Lib_Read_Flash
00013e34 g     F .text	0000001a LL_PingRsp
0000b65a g     F .text	00000006 l2capHandleRxError
20000736 g     F .highcode	00000020 tmos_memcpy
0001b98c g     F .text	00000004 HCI_DataBufferOverflowCback
000096ae g     F .text	000000a8 GATTServApp_WriteAttr
0000921a g     F .text	00000018 gattServApp_FindServiceCBs
0000c0aa g     F .text	0000007a l2capNotifySignal
20004094 g     O .bss	0000001c gBleIPPara
000093c0 g     F .text	0000002a gattFindServerInfo
200025a3 g     O .bss	00000001 l2capNumPSM
0000d854 g     F .text	00000034 smGenerateConfirm
000243d8 g     O .text	00000020 __sf_fake_stdout
0000793a g     F .text	00000066 GAP_EndDiscoverable
000026f8 g     F .text	0000000a SYS_GetSysTickCnt
000221e6 g     F .text	0000012e LL_AddrInit
0001e9ec g     F .text	0000000c ATT_ExecuteWriteRsp
00023a36 g     F .text	00000010 _read
00001fac  w      .text	00000000 handle_reset
0001d0b8 g     F .text	0000029a GAPBondMgr_ProcessGAPMsg
00014370 g     F .text	00000050 LL_FeatureRsp
0001e388 g     F .text	0000003c ATT_UpdateMTU
00004db0 g     F .text	00000056 smGenerateRandBuf
00012bb2 g     F .text	0000005a LL_HopGetChannels
0000e19c g     F .text	00000144 sm_c1new
0001e60e g     F .text	0000002a ATT_ParseFindInfoReq
0000f7b6 g     F .text	0000005e SM_ResolveRandomAddrs
00004612 g     F .text	00000292 tmos_snv_read
0001e7fc g     F .text	00000032 ATT_ReadRsp
00008956 g     F .text	0000007e gattGetPayload
0000542a g     F .text	00000068 gapSendSlaveSecurityReqEvent
000126b2 g     F .text	0000001e LL_CoreGetCore
00003898 g     F .text	00000132 tmos_proces_sleep
00013b6c g     F .text	000000d8 LL_ConnectionUpdateInd
00018d3c g     F .text	00000d2c RFEND_TXCtune
0000b978 g     F .text	0000005e l2capParseCmdReject
0000f0c8 g     F .text	000000d4 smProcessTMOSMsg
00008bcc g     F .text	000000e8 GATT_bm_alloc
00022ee2 g     F .text	000000a0 __smakebuf_r
0001e91c g     F .text	0000003e ATT_ParseWriteReq
0001cea0 g     F .text	00000076 GAPBondMgr_UpdateCharCfg
00023514 g     F .text	000002aa _printf_i
00007486 g     F .text	0000009c GAP_CentDevMgrInit
0000b43c g     F .text	00000086 l2capGetCoChannelInfo
00019b72 g     F .text	00000022 API_LE_SetRandomAddressCmd
20000bce g     F .highcode	00000128 ll_connect_send_data
20000cf6 g     F .highcode	000000e0 ll_connect_recv_data
200000c2  w      .highcode	00000000 UART3_IRQHandler
0000d1c6 g     F .text	0000003a linkDB_GetHandleFromSMEvtID
000023dc g     F .text	0000018e RTC_InitTime
20002614 g     O .bss	00000004 __malloc_sbrk_start
0001b984 g     F .text	00000004 HCI_CommandStatusCback
000105d8 g     F .text	0000002e HCI_LE_SetExtendedAdvertisingParametersCmd
00010bc2 g     F .text	0000003e LL_ConnectRxPktnumIncrease
0000d3fa g     F .text	00000044 smpBuildMasterID
00009ddc g     F .text	0000006a GATT_VerifyWritePermissions
0001e5b4 g     F .text	0000001e ATT_BuildHandleValueInd
00009664 g     F .text	0000004a GATT_FindHandle
0001139a g     F .text	000000e8 LL_ConnectFreeTmosPrioritID
00003f26 g     F .text	00000016 TMOS_ProcessRegister
0001059c g     F .text	00000004 HCI_LE_RandCmd
00007bea g     F .text	00000102 GAP_SetAdvertisingRspData
00005c92 g     F .text	0000004c GAP_SendSlaveSecurityRequest
0001aae6 g     F .text	000000b4 LL_AddDeviceToResolvingList
00013ce0 g     F .text	0000002e LL_PauseEncReq
0000e612 g     F .text	000000d4 generate_subkey
20000322 g     F .highcode	0000000e FLASH_ROM_END
00003640 g     F .text	00000072 tmos_msg_receive
000105d4 g     F .text	00000004 HCI_LE_SetPHYCmd
000055cc g     F .text	00000058 gapSendPhyUpdateEvent
0000ee70 g     F .text	0000002a smpParsePairingRandom
0000cdba g     F .text	0000005c linkDB_Authen
200040d4 g     O .bss	0000001c rfInfo
000127aa g     F .text	000000d0 LL_CoreOpen
0001a79a g     F .text	00000054 LL_ClearWhiteList
00003f08 g     F .text	0000001e TMOS_TimerRegister
00005202 g     F .text	0000011e sendAuthEvent
20002610 g     O .bss	00000004 __malloc_free_list
00003d04 g     F .text	00000098 tmos_start_callback_task
0002109c g     F .text	0000001c LL_AdvGetCore
0000d43e g     F .text	00000030 smpBuildPairingConfirm
0002316c g     F .text	0000029c _vfprintf_r
20004101 g     O .bss	00000001 nCO2480
0000d2c0 g     F .text	000000a0 SM_StartEncryption
00017cd2 g     F .text	00000086 AES_DevPktEnc
200000ae  w      .highcode	00000000 TMR1_IRQHandler
00010b4a g     F .text	00000028 LL_ConnectFlowcontrolRx
0000934c g     F .text	00000016 GATT_ServiceNumAttrs
000043d8 g     F .text	000000c8 TMOS_TimerInit
00010b72 g     F .text	00000050 LL_ConnectTxPktnumIncrease
0000e6e6 g     F .text	00000172 sm_CMAC
0000212a g     F .text	000002b2 Calibration_LSI
0001e5ee g     F .text	00000020 ATT_ExchangeMTURsp
0000595c g     F .text	00000020 GAP_GetParamValue
00019d64 g     F .text	00000026 API_LE_ClearResolvingList
0000f600 g     F .text	0000002a SM_Init
0001cd9e g     F .text	0000007a GAPBondMgr_SlaveReqSecurity
00012d90 g     F .text	000004d0 ll_master_action_tx_ready
00006f88 g     F .text	0000010e gapProcessScanningEvt
0000e08e g     F .text	00000034 smLinkCheck
20004034 g     O .bss	00000002 l2capUserConfig
0001e55c g     F .text	00000006 ATT_BuildReadBlobRsp
00012708 g     F .text	000000a2 LL_CoreDataListInit
0001eb86 g     F .text	0000024c LL_Init
0000fb1c g     F .text	00000060 HOST_LE_ConnectionUpdateCompleteEvent
0001f706 g     F .text	0000007c ll_advertise_generated_scan_rsp
0000fce8 g     F .text	00000060 HOST_LE_DataLengthChangeEvent
00024440 g     O .text	00000002 centAddrResUUID
00002cb6 g     F .text	0000004a simpleProfile_Indi
20003f3c g     O .bss	00000004 pfnTimerCBs
0000c224 g     F .text	0000003e l2capNotifyChannelTermEvt
00003712 g     F .text	0000000a tmos_msg_init
200025a2 g     O .bss	00000001 l2capNumDataPkts
00008aa8 g     F .text	0000000c gattStartTimer
0001879c g     F .text	00000138 RF_DevSetChannel
2000251c g     O .bss	00000002 value1
00007ae8 g     F .text	00000102 GAP_SetAdvertisingAdvData
00008f50 g     F .text	000000d4 GATTServApp_ParamInit
2000023a g     F .highcode	0000003c SYS_ResetExecute
00005624 g     F .text	000000bc gapSendEstLinkEvent
000218e6 g     F .text	00000246 llAdvertiseStart
0001f6ac g     F .text	0000005a llAdvPeriodicAdvertising
00021f32 g     F .text	0000005a ll_resolvinglist_timeout_renew_rpa
00010588 g     F .text	00000004 HCI_LE_SetAdvEnableCmd
00009856 g     F .text	0000001e GATTServApp_UpdateCharCfg
0000b4c2 g     F .text	00000048 l2capNumActiveChannnels
2000414f g     O .bss	00000001 gapRole_ConnextionlessCTEEnabled
000239f6 g     F .text	00000010 _close
0001b978 g     F .text	00000004 HCI_EncryptionChangeCback
0000a2b4 g     F .text	0000016e gattServApp_ProcessReadMultiReq
0000ce16 g     F .text	00000082 linkDB_FindByAddr
00006dd2 g     F .text	00000124 gapSendDevDiscEvent
00004356 g     F .text	00000020 ble_ll_common_rand32
0001ac94 g     F .text	00000048 LL_SetDefaultPHY
00019b94 g     F .text	00000024 API_LE_SetAdvEnableCmd
0001b99a g     F .text	0000000a HCI_LE_ConnectionCompleteCback
0000d95c g     F .text	000001ce smInitiatorSendNextKeyInfo
0000272a g     F .text	00000030 UART1_BaudRateCfg



Disassembly of section .init:

00000000 <_sinit>:
_start():
C:/Users/OWNER/Desktop/BLE_Indication/SRC/Startup/startup_CH583.S:15

	.section	.init,"ax",@progbits
	.global	_start
	.align	1
_start:
	j	handle_reset
   0:	7ad0106f          	j	1fac <handle_reset>

Disassembly of section .highcode:

20000000 <_highcode_vma_start>:
	...
_vector_base():
20000008:	0090                	addi	a2,sp,64
2000000a:	2000                	fld	fs0,0(s0)
2000000c:	0276                	slli	tp,tp,0x1d
2000000e:	2000                	fld	fs0,0(s0)
20000010:	bda9                	j	1ffffe6a <_data_lma+0x1ffdb9fa>
20000012:	f5f9                	bnez	a1,1fffffe0 <_data_lma+0x1ffdbb70>
20000014:	0094                	addi	a3,sp,64
20000016:	2000                	fld	fs0,0(s0)
	...
20000020:	0096                	slli	ra,ra,0x5
20000022:	2000                	fld	fs0,0(s0)
20000024:	0098                	addi	a4,sp,64
20000026:	2000                	fld	fs0,0(s0)
	...
20000030:	009a                	slli	ra,ra,0x6
20000032:	2000                	fld	fs0,0(s0)
20000034:	0000                	unimp
20000036:	0000                	unimp
20000038:	009c                	addi	a5,sp,64
2000003a:	2000                	fld	fs0,0(s0)
2000003c:	0000                	unimp
2000003e:	0000                	unimp
20000040:	009e                	slli	ra,ra,0x7
20000042:	2000                	fld	fs0,0(s0)
20000044:	00a0                	addi	s0,sp,72
20000046:	2000                	fld	fs0,0(s0)
20000048:	00a2                	slli	ra,ra,0x8
2000004a:	2000                	fld	fs0,0(s0)
2000004c:	00a4                	addi	s1,sp,72
2000004e:	2000                	fld	fs0,0(s0)
20000050:	00a6                	slli	ra,ra,0x9
20000052:	2000                	fld	fs0,0(s0)
20000054:	00a8                	addi	a0,sp,72
20000056:	2000                	fld	fs0,0(s0)
20000058:	00aa                	slli	ra,ra,0xa
2000005a:	2000                	fld	fs0,0(s0)
2000005c:	00ac                	addi	a1,sp,72
2000005e:	2000                	fld	fs0,0(s0)
20000060:	00ae                	slli	ra,ra,0xb
20000062:	2000                	fld	fs0,0(s0)
20000064:	00b0                	addi	a2,sp,72
20000066:	2000                	fld	fs0,0(s0)
20000068:	00b2                	slli	ra,ra,0xc
2000006a:	2000                	fld	fs0,0(s0)
2000006c:	00b4                	addi	a3,sp,72
2000006e:	2000                	fld	fs0,0(s0)
20000070:	02f2                	slli	t0,t0,0x1c
20000072:	2000                	fld	fs0,0(s0)
20000074:	00b8                	addi	a4,sp,72
20000076:	2000                	fld	fs0,0(s0)
20000078:	00ba                	slli	ra,ra,0xe
2000007a:	2000                	fld	fs0,0(s0)
2000007c:	00bc                	addi	a5,sp,72
2000007e:	2000                	fld	fs0,0(s0)
20000080:	00be                	slli	ra,ra,0xf
20000082:	2000                	fld	fs0,0(s0)
20000084:	00c0                	addi	s0,sp,68
20000086:	2000                	fld	fs0,0(s0)
20000088:	00c2                	slli	ra,ra,0x10
2000008a:	2000                	fld	fs0,0(s0)
2000008c:	00c4                	addi	s1,sp,68
2000008e:	2000                	fld	fs0,0(s0)

20000090 <NMI_Handler>:
NMI_Handler():
C:/Users/OWNER/Desktop/BLE_Indication/SRC/Startup/startup_CH583.S:91
    .weak   TMR3_IRQHandler
    .weak   UART2_IRQHandler
    .weak   UART3_IRQHandler
    .weak   WDOG_BAT_IRQHandler

NMI_Handler:         1:  j 1b
20000090:	a001                	j	20000090 <NMI_Handler>
C:/Users/OWNER/Desktop/BLE_Indication/SRC/Startup/startup_CH583.S:92
HardFault_Handler:   1:  j 1b
20000092:	a001                	j	20000092 <NMI_Handler+0x2>

20000094 <Ecall_M_Mode_Handler>:
Ecall_M_Mode_Handler():
C:/Users/OWNER/Desktop/BLE_Indication/SRC/Startup/startup_CH583.S:93
Ecall_M_Mode_Handler:   1:  j 1b
20000094:	a001                	j	20000094 <Ecall_M_Mode_Handler>

20000096 <Ecall_U_Mode_Handler>:
Ecall_U_Mode_Handler():
C:/Users/OWNER/Desktop/BLE_Indication/SRC/Startup/startup_CH583.S:94
Ecall_U_Mode_Handler:   1:  j 1b
20000096:	a001                	j	20000096 <Ecall_U_Mode_Handler>

20000098 <Break_Point_Handler>:
Break_Point_Handler():
C:/Users/OWNER/Desktop/BLE_Indication/SRC/Startup/startup_CH583.S:95
Break_Point_Handler:   1:  j 1b
20000098:	a001                	j	20000098 <Break_Point_Handler>

2000009a <SysTick_Handler>:
SysTick_Handler():
C:/Users/OWNER/Desktop/BLE_Indication/SRC/Startup/startup_CH583.S:96
SysTick_Handler:     1:  j 1b
2000009a:	a001                	j	2000009a <SysTick_Handler>

2000009c <SW_Handler>:
SW_Handler():
C:/Users/OWNER/Desktop/BLE_Indication/SRC/Startup/startup_CH583.S:97
SW_Handler:          1:  j 1b
2000009c:	a001                	j	2000009c <SW_Handler>

2000009e <TMR0_IRQHandler>:
TMR0_IRQHandler():
C:/Users/OWNER/Desktop/BLE_Indication/SRC/Startup/startup_CH583.S:98
TMR0_IRQHandler:     1:  j 1b
2000009e:	a001                	j	2000009e <TMR0_IRQHandler>

200000a0 <GPIOA_IRQHandler>:
GPIOA_IRQHandler():
C:/Users/OWNER/Desktop/BLE_Indication/SRC/Startup/startup_CH583.S:99
GPIOA_IRQHandler:    1:  j 1b
200000a0:	a001                	j	200000a0 <GPIOA_IRQHandler>

200000a2 <GPIOB_IRQHandler>:
GPIOB_IRQHandler():
C:/Users/OWNER/Desktop/BLE_Indication/SRC/Startup/startup_CH583.S:100
GPIOB_IRQHandler:    1:  j 1b
200000a2:	a001                	j	200000a2 <GPIOB_IRQHandler>

200000a4 <SPI0_IRQHandler>:
SPI0_IRQHandler():
C:/Users/OWNER/Desktop/BLE_Indication/SRC/Startup/startup_CH583.S:101
SPI0_IRQHandler:     1:  j 1b
200000a4:	a001                	j	200000a4 <SPI0_IRQHandler>

200000a6 <BB_IRQHandler>:
BB_IRQHandler():
C:/Users/OWNER/Desktop/BLE_Indication/SRC/Startup/startup_CH583.S:102
BB_IRQHandler:       1:  j 1b
200000a6:	a001                	j	200000a6 <BB_IRQHandler>

200000a8 <LLE_IRQHandler>:
LLE_IRQHandler():
C:/Users/OWNER/Desktop/BLE_Indication/SRC/Startup/startup_CH583.S:103
LLE_IRQHandler:      1:  j 1b
200000a8:	a001                	j	200000a8 <LLE_IRQHandler>

200000aa <USB_IRQHandler>:
USB_IRQHandler():
C:/Users/OWNER/Desktop/BLE_Indication/SRC/Startup/startup_CH583.S:104
USB_IRQHandler:      1:  j 1b
200000aa:	a001                	j	200000aa <USB_IRQHandler>

200000ac <USB2_IRQHandler>:
USB2_IRQHandler():
C:/Users/OWNER/Desktop/BLE_Indication/SRC/Startup/startup_CH583.S:105
USB2_IRQHandler:      1:  j 1b
200000ac:	a001                	j	200000ac <USB2_IRQHandler>

200000ae <TMR1_IRQHandler>:
TMR1_IRQHandler():
C:/Users/OWNER/Desktop/BLE_Indication/SRC/Startup/startup_CH583.S:106
TMR1_IRQHandler:     1:  j 1b
200000ae:	a001                	j	200000ae <TMR1_IRQHandler>

200000b0 <TMR2_IRQHandler>:
TMR2_IRQHandler():
C:/Users/OWNER/Desktop/BLE_Indication/SRC/Startup/startup_CH583.S:107
TMR2_IRQHandler:     1:  j 1b
200000b0:	a001                	j	200000b0 <TMR2_IRQHandler>

200000b2 <UART0_IRQHandler>:
UART0_IRQHandler():
C:/Users/OWNER/Desktop/BLE_Indication/SRC/Startup/startup_CH583.S:108
UART0_IRQHandler:    1:  j 1b
200000b2:	a001                	j	200000b2 <UART0_IRQHandler>

200000b4 <UART1_IRQHandler>:
UART1_IRQHandler():
C:/Users/OWNER/Desktop/BLE_Indication/SRC/Startup/startup_CH583.S:109
UART1_IRQHandler:    1:  j 1b
200000b4:	a001                	j	200000b4 <UART1_IRQHandler>
C:/Users/OWNER/Desktop/BLE_Indication/SRC/Startup/startup_CH583.S:110
RTC_IRQHandler:      1:  j 1b
200000b6:	a001                	j	200000b6 <UART1_IRQHandler+0x2>

200000b8 <ADC_IRQHandler>:
ADC_IRQHandler():
C:/Users/OWNER/Desktop/BLE_Indication/SRC/Startup/startup_CH583.S:111
ADC_IRQHandler:      1:  j 1b
200000b8:	a001                	j	200000b8 <ADC_IRQHandler>

200000ba <I2C_IRQHandler>:
I2C_IRQHandler():
C:/Users/OWNER/Desktop/BLE_Indication/SRC/Startup/startup_CH583.S:112
I2C_IRQHandler:		 1:  j 1b
200000ba:	a001                	j	200000ba <I2C_IRQHandler>

200000bc <PWMX_IRQHandler>:
PWMX_IRQHandler():
C:/Users/OWNER/Desktop/BLE_Indication/SRC/Startup/startup_CH583.S:113
PWMX_IRQHandler:     1:  j 1b
200000bc:	a001                	j	200000bc <PWMX_IRQHandler>

200000be <TMR3_IRQHandler>:
TMR3_IRQHandler():
C:/Users/OWNER/Desktop/BLE_Indication/SRC/Startup/startup_CH583.S:114
TMR3_IRQHandler:     1:  j 1b
200000be:	a001                	j	200000be <TMR3_IRQHandler>

200000c0 <UART2_IRQHandler>:
UART2_IRQHandler():
C:/Users/OWNER/Desktop/BLE_Indication/SRC/Startup/startup_CH583.S:115
UART2_IRQHandler:    1:  j 1b
200000c0:	a001                	j	200000c0 <UART2_IRQHandler>

200000c2 <UART3_IRQHandler>:
UART3_IRQHandler():
C:/Users/OWNER/Desktop/BLE_Indication/SRC/Startup/startup_CH583.S:116
UART3_IRQHandler:    1:  j 1b
200000c2:	a001                	j	200000c2 <UART3_IRQHandler>

200000c4 <WDOG_BAT_IRQHandler>:
WDOG_BAT_IRQHandler():
C:/Users/OWNER/Desktop/BLE_Indication/SRC/Startup/startup_CH583.S:117
WDOG_BAT_IRQHandler: 1:  j 1b
200000c4:	a001                	j	200000c4 <WDOG_BAT_IRQHandler>

200000c6 <SetSysClock>:
sys_safe_access_enable():
C:\Users\OWNER\Desktop\BLE_Indication\SRC\StdPeriphDriver\inc/CH58x_sys.h:171
void mDelaymS(uint16_t t);

/* Safe access */
 __attribute__((always_inline)) static inline void sys_safe_access_enable(void)
{
    R8_SAFE_ACCESS_SIG = SAFE_ACCESS_SIG1;
200000c6:	400017b7          	lui	a5,0x40001
200000ca:	05700693          	li	a3,87
200000ce:	04d78023          	sb	a3,64(a5) # 40001040 <_eusrstack+0x1fff9040>
C:\Users\OWNER\Desktop\BLE_Indication\SRC\StdPeriphDriver\inc/CH58x_sys.h:172
    R8_SAFE_ACCESS_SIG = SAFE_ACCESS_SIG2;
200000d2:	fa800713          	li	a4,-88
200000d6:	04e78023          	sb	a4,64(a5)
C:\Users\OWNER\Desktop\BLE_Indication\SRC\StdPeriphDriver\inc/CH58x_sys.h:173
    SAFEOPERATE;
200000da:	0001                	nop
200000dc:	0001                	nop
SetSysClock():
C:/Users/OWNER/Desktop/BLE_Indication/SRC/StdPeriphDriver/CH58x_sys.c:27
__HIGH_CODE
void SetSysClock(SYS_CLKTypeDef sc)
{
    uint32_t i;
    sys_safe_access_enable();
    R8_PLL_CONFIG &= ~(1 << 5); //
200000de:	04b7c603          	lbu	a2,75(a5)
200000e2:	0df67613          	andi	a2,a2,223
200000e6:	04c785a3          	sb	a2,75(a5)
sys_safe_access_disable():
C:\Users\OWNER\Desktop\BLE_Indication\SRC\StdPeriphDriver\inc/CH58x_sys.h:178
}

__attribute__((always_inline)) static inline void sys_safe_access_disable(void)
{
    R8_SAFE_ACCESS_SIG = 0;
200000ea:	04078023          	sb	zero,64(a5)
SetSysClock():
C:/Users/OWNER/Desktop/BLE_Indication/SRC/StdPeriphDriver/CH58x_sys.c:29
    sys_safe_access_disable();
    if(sc & 0x20)
200000ee:	02057613          	andi	a2,a0,32
200000f2:	c24d                	beqz	a2,20000194 <SetSysClock+0xce>
C:/Users/OWNER/Desktop/BLE_Indication/SRC/StdPeriphDriver/CH58x_sys.c:31
    { // HSE div
        if(!(R8_HFCK_PWR_CTRL & RB_CLK_XT32M_PON))
200000f4:	00a7c603          	lbu	a2,10(a5)
200000f8:	8a11                	andi	a2,a2,4
200000fa:	e21d                	bnez	a2,20000120 <SetSysClock+0x5a>
sys_safe_access_enable():
C:\Users\OWNER\Desktop\BLE_Indication\SRC\StdPeriphDriver\inc/CH58x_sys.h:171
    R8_SAFE_ACCESS_SIG = SAFE_ACCESS_SIG1;
200000fc:	04d78023          	sb	a3,64(a5)
C:\Users\OWNER\Desktop\BLE_Indication\SRC\StdPeriphDriver\inc/CH58x_sys.h:172
    R8_SAFE_ACCESS_SIG = SAFE_ACCESS_SIG2;
20000100:	04e78023          	sb	a4,64(a5)
C:\Users\OWNER\Desktop\BLE_Indication\SRC\StdPeriphDriver\inc/CH58x_sys.h:173
    SAFEOPERATE;
20000104:	0001                	nop
20000106:	0001                	nop
SetSysClock():
C:/Users/OWNER/Desktop/BLE_Indication/SRC/StdPeriphDriver/CH58x_sys.c:34
        {
            sys_safe_access_enable();
            R8_HFCK_PWR_CTRL |= RB_CLK_XT32M_PON; // HSE power on
20000108:	00a7c703          	lbu	a4,10(a5)
2000010c:	00476713          	ori	a4,a4,4
20000110:	00e78523          	sb	a4,10(a5)
20000114:	4b000793          	li	a5,1200
C:/Users/OWNER/Desktop/BLE_Indication/SRC/StdPeriphDriver/CH58x_sys.c:37 (discriminator 3)
            for(i = 0; i < 1200; i++)
            {
                __nop();
20000118:	0001                	nop
C:/Users/OWNER/Desktop/BLE_Indication/SRC/StdPeriphDriver/CH58x_sys.c:38 (discriminator 3)
                __nop();
2000011a:	0001                	nop
2000011c:	17fd                	addi	a5,a5,-1
C:/Users/OWNER/Desktop/BLE_Indication/SRC/StdPeriphDriver/CH58x_sys.c:35 (discriminator 3)
            for(i = 0; i < 1200; i++)
2000011e:	ffed                	bnez	a5,20000118 <SetSysClock+0x52>
sys_safe_access_enable():
C:\Users\OWNER\Desktop\BLE_Indication\SRC\StdPeriphDriver\inc/CH58x_sys.h:171
    R8_SAFE_ACCESS_SIG = SAFE_ACCESS_SIG1;
20000120:	400017b7          	lui	a5,0x40001
20000124:	05700693          	li	a3,87
20000128:	04d78023          	sb	a3,64(a5) # 40001040 <_eusrstack+0x1fff9040>
C:\Users\OWNER\Desktop\BLE_Indication\SRC\StdPeriphDriver\inc/CH58x_sys.h:172
    R8_SAFE_ACCESS_SIG = SAFE_ACCESS_SIG2;
2000012c:	fa800713          	li	a4,-88
20000130:	04e78023          	sb	a4,64(a5)
C:\Users\OWNER\Desktop\BLE_Indication\SRC\StdPeriphDriver\inc/CH58x_sys.h:173
    SAFEOPERATE;
20000134:	0001                	nop
20000136:	0001                	nop
SetSysClock():
C:/Users/OWNER/Desktop/BLE_Indication/SRC/StdPeriphDriver/CH58x_sys.c:43
            }
        }

        sys_safe_access_enable();
        R16_CLK_SYS_CFG = (0 << 6) | (sc & 0x1f);
20000138:	897d                	andi	a0,a0,31
2000013a:	00a79423          	sh	a0,8(a5)
C:/Users/OWNER/Desktop/BLE_Indication/SRC/StdPeriphDriver/CH58x_sys.c:44
        __nop();
2000013e:	0001                	nop
C:/Users/OWNER/Desktop/BLE_Indication/SRC/StdPeriphDriver/CH58x_sys.c:45
        __nop();
20000140:	0001                	nop
C:/Users/OWNER/Desktop/BLE_Indication/SRC/StdPeriphDriver/CH58x_sys.c:46
        __nop();
20000142:	0001                	nop
C:/Users/OWNER/Desktop/BLE_Indication/SRC/StdPeriphDriver/CH58x_sys.c:47
        __nop();
20000144:	0001                	nop
sys_safe_access_disable():
C:\Users\OWNER\Desktop\BLE_Indication\SRC\StdPeriphDriver\inc/CH58x_sys.h:178
    R8_SAFE_ACCESS_SIG = 0;
20000146:	04078023          	sb	zero,64(a5)
sys_safe_access_enable():
C:\Users\OWNER\Desktop\BLE_Indication\SRC\StdPeriphDriver\inc/CH58x_sys.h:171
    R8_SAFE_ACCESS_SIG = SAFE_ACCESS_SIG1;
2000014a:	04d78023          	sb	a3,64(a5)
C:\Users\OWNER\Desktop\BLE_Indication\SRC\StdPeriphDriver\inc/CH58x_sys.h:172
    R8_SAFE_ACCESS_SIG = SAFE_ACCESS_SIG2;
2000014e:	04e78023          	sb	a4,64(a5)
C:\Users\OWNER\Desktop\BLE_Indication\SRC\StdPeriphDriver\inc/CH58x_sys.h:173
    SAFEOPERATE;
20000152:	0001                	nop
20000154:	0001                	nop
SetSysClock():
C:/Users/OWNER/Desktop/BLE_Indication/SRC/StdPeriphDriver/CH58x_sys.c:50
        sys_safe_access_disable();
        sys_safe_access_enable();
        SAFEOPERATE;
20000156:	0001                	nop
20000158:	0001                	nop
C:/Users/OWNER/Desktop/BLE_Indication/SRC/StdPeriphDriver/CH58x_sys.c:51
        R8_FLASH_CFG = 0X51;
2000015a:	40002737          	lui	a4,0x40002
2000015e:	05100693          	li	a3,81
C:/Users/OWNER/Desktop/BLE_Indication/SRC/StdPeriphDriver/CH58x_sys.c:77
        __nop();
        sys_safe_access_disable();
        if(sc == CLK_SOURCE_PLL_80MHz)
        {
            sys_safe_access_enable();
            R8_FLASH_CFG = 0X02;
20000162:	80d703a3          	sb	a3,-2041(a4) # 40001807 <_eusrstack+0x1fff9807>
sys_safe_access_disable():
C:\Users\OWNER\Desktop\BLE_Indication\SRC\StdPeriphDriver\inc/CH58x_sys.h:178
    R8_SAFE_ACCESS_SIG = 0;
20000166:	04078023          	sb	zero,64(a5)
sys_safe_access_enable():
C:\Users\OWNER\Desktop\BLE_Indication\SRC\StdPeriphDriver\inc/CH58x_sys.h:171
    R8_SAFE_ACCESS_SIG = SAFE_ACCESS_SIG1;
2000016a:	400017b7          	lui	a5,0x40001
2000016e:	05700713          	li	a4,87
20000172:	04e78023          	sb	a4,64(a5) # 40001040 <_eusrstack+0x1fff9040>
C:\Users\OWNER\Desktop\BLE_Indication\SRC\StdPeriphDriver\inc/CH58x_sys.h:172
    R8_SAFE_ACCESS_SIG = SAFE_ACCESS_SIG2;
20000176:	fa800713          	li	a4,-88
2000017a:	04e78023          	sb	a4,64(a5)
C:\Users\OWNER\Desktop\BLE_Indication\SRC\StdPeriphDriver\inc/CH58x_sys.h:173
    SAFEOPERATE;
2000017e:	0001                	nop
20000180:	0001                	nop
SetSysClock():
C:/Users/OWNER/Desktop/BLE_Indication/SRC/StdPeriphDriver/CH58x_sys.c:94
        sys_safe_access_enable();
        R16_CLK_SYS_CFG |= RB_CLK_SYS_MOD;
    }
    //更改FLASH clk的驱动能力
    sys_safe_access_enable();
    R8_PLL_CONFIG |= 1 << 7;
20000182:	04b7c703          	lbu	a4,75(a5)
20000186:	08076713          	ori	a4,a4,128
2000018a:	04e785a3          	sb	a4,75(a5)
sys_safe_access_disable():
C:\Users\OWNER\Desktop\BLE_Indication\SRC\StdPeriphDriver\inc/CH58x_sys.h:178
    R8_SAFE_ACCESS_SIG = 0;
2000018e:	04078023          	sb	zero,64(a5)
SetSysClock():
C:/Users/OWNER/Desktop/BLE_Indication/SRC/StdPeriphDriver/CH58x_sys.c:96
    sys_safe_access_disable();
}
20000192:	8082                	ret
C:/Users/OWNER/Desktop/BLE_Indication/SRC/StdPeriphDriver/CH58x_sys.c:55
    else if(sc & 0x40)
20000194:	04057613          	andi	a2,a0,64
20000198:	c641                	beqz	a2,20000220 <SetSysClock+0x15a>
C:/Users/OWNER/Desktop/BLE_Indication/SRC/StdPeriphDriver/CH58x_sys.c:57
        if(!(R8_HFCK_PWR_CTRL & RB_CLK_PLL_PON))
2000019a:	00a7c603          	lbu	a2,10(a5)
2000019e:	8a41                	andi	a2,a2,16
200001a0:	e21d                	bnez	a2,200001c6 <SetSysClock+0x100>
sys_safe_access_enable():
C:\Users\OWNER\Desktop\BLE_Indication\SRC\StdPeriphDriver\inc/CH58x_sys.h:171
    R8_SAFE_ACCESS_SIG = SAFE_ACCESS_SIG1;
200001a2:	04d78023          	sb	a3,64(a5)
C:\Users\OWNER\Desktop\BLE_Indication\SRC\StdPeriphDriver\inc/CH58x_sys.h:172
    R8_SAFE_ACCESS_SIG = SAFE_ACCESS_SIG2;
200001a6:	04e78023          	sb	a4,64(a5)
C:\Users\OWNER\Desktop\BLE_Indication\SRC\StdPeriphDriver\inc/CH58x_sys.h:173
    SAFEOPERATE;
200001aa:	0001                	nop
200001ac:	0001                	nop
SetSysClock():
C:/Users/OWNER/Desktop/BLE_Indication/SRC/StdPeriphDriver/CH58x_sys.c:60
            R8_HFCK_PWR_CTRL |= RB_CLK_PLL_PON; // PLL power on
200001ae:	00a7c703          	lbu	a4,10(a5)
200001b2:	01076713          	ori	a4,a4,16
200001b6:	00e78523          	sb	a4,10(a5)
200001ba:	7d000793          	li	a5,2000
C:/Users/OWNER/Desktop/BLE_Indication/SRC/StdPeriphDriver/CH58x_sys.c:63 (discriminator 3)
                __nop();
200001be:	0001                	nop
C:/Users/OWNER/Desktop/BLE_Indication/SRC/StdPeriphDriver/CH58x_sys.c:64 (discriminator 3)
                __nop();
200001c0:	0001                	nop
200001c2:	17fd                	addi	a5,a5,-1
C:/Users/OWNER/Desktop/BLE_Indication/SRC/StdPeriphDriver/CH58x_sys.c:61 (discriminator 3)
            for(i = 0; i < 2000; i++)
200001c4:	ffed                	bnez	a5,200001be <SetSysClock+0xf8>
sys_safe_access_enable():
C:\Users\OWNER\Desktop\BLE_Indication\SRC\StdPeriphDriver\inc/CH58x_sys.h:171
    R8_SAFE_ACCESS_SIG = SAFE_ACCESS_SIG1;
200001c6:	400017b7          	lui	a5,0x40001
200001ca:	05700693          	li	a3,87
200001ce:	04d78023          	sb	a3,64(a5) # 40001040 <_eusrstack+0x1fff9040>
C:\Users\OWNER\Desktop\BLE_Indication\SRC\StdPeriphDriver\inc/CH58x_sys.h:172
    R8_SAFE_ACCESS_SIG = SAFE_ACCESS_SIG2;
200001d2:	fa800713          	li	a4,-88
200001d6:	04e78023          	sb	a4,64(a5)
C:\Users\OWNER\Desktop\BLE_Indication\SRC\StdPeriphDriver\inc/CH58x_sys.h:173
    SAFEOPERATE;
200001da:	0001                	nop
200001dc:	0001                	nop
SetSysClock():
C:/Users/OWNER/Desktop/BLE_Indication/SRC/StdPeriphDriver/CH58x_sys.c:68
        R16_CLK_SYS_CFG = (1 << 6) | (sc & 0x1f);
200001de:	01f57613          	andi	a2,a0,31
200001e2:	04066613          	ori	a2,a2,64
200001e6:	00c79423          	sh	a2,8(a5)
C:/Users/OWNER/Desktop/BLE_Indication/SRC/StdPeriphDriver/CH58x_sys.c:69
        __nop();
200001ea:	0001                	nop
C:/Users/OWNER/Desktop/BLE_Indication/SRC/StdPeriphDriver/CH58x_sys.c:70
        __nop();
200001ec:	0001                	nop
C:/Users/OWNER/Desktop/BLE_Indication/SRC/StdPeriphDriver/CH58x_sys.c:71
        __nop();
200001ee:	0001                	nop
C:/Users/OWNER/Desktop/BLE_Indication/SRC/StdPeriphDriver/CH58x_sys.c:72
        __nop();
200001f0:	0001                	nop
sys_safe_access_disable():
C:\Users\OWNER\Desktop\BLE_Indication\SRC\StdPeriphDriver\inc/CH58x_sys.h:178
    R8_SAFE_ACCESS_SIG = 0;
200001f2:	04078023          	sb	zero,64(a5)
sys_safe_access_enable():
C:\Users\OWNER\Desktop\BLE_Indication\SRC\StdPeriphDriver\inc/CH58x_sys.h:171
    R8_SAFE_ACCESS_SIG = SAFE_ACCESS_SIG1;
200001f6:	04d78023          	sb	a3,64(a5)
SetSysClock():
C:/Users/OWNER/Desktop/BLE_Indication/SRC/StdPeriphDriver/CH58x_sys.c:74
        if(sc == CLK_SOURCE_PLL_80MHz)
200001fa:	04600613          	li	a2,70
sys_safe_access_enable():
C:\Users\OWNER\Desktop\BLE_Indication\SRC\StdPeriphDriver\inc/CH58x_sys.h:172
    R8_SAFE_ACCESS_SIG = SAFE_ACCESS_SIG2;
200001fe:	04e78023          	sb	a4,64(a5)
SetSysClock():
C:/Users/OWNER/Desktop/BLE_Indication/SRC/StdPeriphDriver/CH58x_sys.c:74
20000202:	00c51863          	bne	a0,a2,20000212 <SetSysClock+0x14c>
sys_safe_access_enable():
C:\Users\OWNER\Desktop\BLE_Indication\SRC\StdPeriphDriver\inc/CH58x_sys.h:173
    SAFEOPERATE;
20000206:	0001                	nop
20000208:	0001                	nop
SetSysClock():
C:/Users/OWNER/Desktop/BLE_Indication/SRC/StdPeriphDriver/CH58x_sys.c:77
            R8_FLASH_CFG = 0X02;
2000020a:	40002737          	lui	a4,0x40002
2000020e:	4689                	li	a3,2
20000210:	bf89                	j	20000162 <SetSysClock+0x9c>
sys_safe_access_enable():
C:\Users\OWNER\Desktop\BLE_Indication\SRC\StdPeriphDriver\inc/CH58x_sys.h:173
20000212:	0001                	nop
20000214:	0001                	nop
SetSysClock():
C:/Users/OWNER/Desktop/BLE_Indication/SRC/StdPeriphDriver/CH58x_sys.c:83
            R8_FLASH_CFG = 0X52;
20000216:	40002737          	lui	a4,0x40002
2000021a:	05200693          	li	a3,82
2000021e:	b791                	j	20000162 <SetSysClock+0x9c>
sys_safe_access_enable():
C:\Users\OWNER\Desktop\BLE_Indication\SRC\StdPeriphDriver\inc/CH58x_sys.h:171
    R8_SAFE_ACCESS_SIG = SAFE_ACCESS_SIG1;
20000220:	04d78023          	sb	a3,64(a5)
C:\Users\OWNER\Desktop\BLE_Indication\SRC\StdPeriphDriver\inc/CH58x_sys.h:172
    R8_SAFE_ACCESS_SIG = SAFE_ACCESS_SIG2;
20000224:	04e78023          	sb	a4,64(a5)
C:\Users\OWNER\Desktop\BLE_Indication\SRC\StdPeriphDriver\inc/CH58x_sys.h:173
    SAFEOPERATE;
20000228:	0001                	nop
2000022a:	0001                	nop
SetSysClock():
C:/Users/OWNER/Desktop/BLE_Indication/SRC/StdPeriphDriver/CH58x_sys.c:90
        R16_CLK_SYS_CFG |= RB_CLK_SYS_MOD;
2000022c:	0087d703          	lhu	a4,8(a5)
20000230:	0c076713          	ori	a4,a4,192
20000234:	00e79423          	sh	a4,8(a5)
20000238:	bf0d                	j	2000016a <SetSysClock+0xa4>

2000023a <SYS_ResetExecute>:
SYS_ResetExecute():
C:/Users/OWNER/Desktop/BLE_Indication/SRC/StdPeriphDriver/CH58x_sys.c:158
 *
 * @return  none
 */
__HIGH_CODE
void SYS_ResetExecute(void)
{
2000023a:	1141                	addi	sp,sp,-16
C:/Users/OWNER/Desktop/BLE_Indication/SRC/StdPeriphDriver/CH58x_sys.c:159
    FLASH_ROM_SW_RESET();
2000023c:	4681                	li	a3,0
2000023e:	4601                	li	a2,0
20000240:	4581                	li	a1,0
20000242:	4511                	li	a0,4
C:/Users/OWNER/Desktop/BLE_Indication/SRC/StdPeriphDriver/CH58x_sys.c:158
{
20000244:	c606                	sw	ra,12(sp)
C:/Users/OWNER/Desktop/BLE_Indication/SRC/StdPeriphDriver/CH58x_sys.c:159
    FLASH_ROM_SW_RESET();
20000246:	2259                	jal	200003cc <FLASH_EEPROM_CMD>
sys_safe_access_enable():
C:\Users\OWNER\Desktop\BLE_Indication\SRC\StdPeriphDriver\inc/CH58x_sys.h:171
    R8_SAFE_ACCESS_SIG = SAFE_ACCESS_SIG1;
20000248:	400017b7          	lui	a5,0x40001
2000024c:	05700713          	li	a4,87
20000250:	04e78023          	sb	a4,64(a5) # 40001040 <_eusrstack+0x1fff9040>
C:\Users\OWNER\Desktop\BLE_Indication\SRC\StdPeriphDriver\inc/CH58x_sys.h:172
    R8_SAFE_ACCESS_SIG = SAFE_ACCESS_SIG2;
20000254:	fa800713          	li	a4,-88
20000258:	04e78023          	sb	a4,64(a5)
C:\Users\OWNER\Desktop\BLE_Indication\SRC\StdPeriphDriver\inc/CH58x_sys.h:173
    SAFEOPERATE;
2000025c:	0001                	nop
2000025e:	0001                	nop
SYS_ResetExecute():
C:/Users/OWNER/Desktop/BLE_Indication/SRC/StdPeriphDriver/CH58x_sys.c:161
    sys_safe_access_enable();
    R8_RST_WDOG_CTRL |= RB_SOFTWARE_RESET;
20000260:	0467c703          	lbu	a4,70(a5)
20000264:	00176713          	ori	a4,a4,1
20000268:	04e78323          	sb	a4,70(a5)
sys_safe_access_disable():
C:\Users\OWNER\Desktop\BLE_Indication\SRC\StdPeriphDriver\inc/CH58x_sys.h:178
    R8_SAFE_ACCESS_SIG = 0;
2000026c:	04078023          	sb	zero,64(a5)
SYS_ResetExecute():
C:/Users/OWNER/Desktop/BLE_Indication/SRC/StdPeriphDriver/CH58x_sys.c:163
    sys_safe_access_disable();
}
20000270:	40b2                	lw	ra,12(sp)
20000272:	0141                	addi	sp,sp,16
20000274:	8082                	ret

20000276 <HardFault_Handler>:
HardFault_Handler():
C:/Users/OWNER/Desktop/BLE_Indication/SRC/StdPeriphDriver/CH58x_sys.c:297
__INTERRUPT
__HIGH_CODE
__attribute__((weak))
void HardFault_Handler(void)
{
    FLASH_ROM_SW_RESET();
20000276:	4681                	li	a3,0
20000278:	4601                	li	a2,0
2000027a:	4581                	li	a1,0
2000027c:	4511                	li	a0,4
2000027e:	22b9                	jal	200003cc <FLASH_EEPROM_CMD>
sys_safe_access_enable():
C:\Users\OWNER\Desktop\BLE_Indication\SRC\StdPeriphDriver\inc/CH58x_sys.h:171
    R8_SAFE_ACCESS_SIG = SAFE_ACCESS_SIG1;
20000280:	400017b7          	lui	a5,0x40001
20000284:	05700693          	li	a3,87
20000288:	04d78023          	sb	a3,64(a5) # 40001040 <_eusrstack+0x1fff9040>
C:\Users\OWNER\Desktop\BLE_Indication\SRC\StdPeriphDriver\inc/CH58x_sys.h:172
    R8_SAFE_ACCESS_SIG = SAFE_ACCESS_SIG2;
2000028c:	fa800713          	li	a4,-88
20000290:	04e78023          	sb	a4,64(a5)
C:\Users\OWNER\Desktop\BLE_Indication\SRC\StdPeriphDriver\inc/CH58x_sys.h:173
    SAFEOPERATE;
20000294:	0001                	nop
20000296:	0001                	nop
HardFault_Handler():
C:/Users/OWNER/Desktop/BLE_Indication/SRC/StdPeriphDriver/CH58x_sys.c:299
    sys_safe_access_enable();
    R16_INT32K_TUNE = 0xFFFF;
20000298:	567d                	li	a2,-1
2000029a:	02c79623          	sh	a2,44(a5)
sys_safe_access_enable():
C:\Users\OWNER\Desktop\BLE_Indication\SRC\StdPeriphDriver\inc/CH58x_sys.h:171
    R8_SAFE_ACCESS_SIG = SAFE_ACCESS_SIG1;
2000029e:	04d78023          	sb	a3,64(a5)
C:\Users\OWNER\Desktop\BLE_Indication\SRC\StdPeriphDriver\inc/CH58x_sys.h:172
    R8_SAFE_ACCESS_SIG = SAFE_ACCESS_SIG2;
200002a2:	04e78023          	sb	a4,64(a5)
C:\Users\OWNER\Desktop\BLE_Indication\SRC\StdPeriphDriver\inc/CH58x_sys.h:173
    SAFEOPERATE;
200002a6:	0001                	nop
200002a8:	0001                	nop
HardFault_Handler():
C:/Users/OWNER/Desktop/BLE_Indication/SRC/StdPeriphDriver/CH58x_sys.c:301
    sys_safe_access_enable();
    R8_RST_WDOG_CTRL |= RB_SOFTWARE_RESET;
200002aa:	0467c703          	lbu	a4,70(a5)
200002ae:	00176713          	ori	a4,a4,1
200002b2:	04e78323          	sb	a4,70(a5)
sys_safe_access_disable():
C:\Users\OWNER\Desktop\BLE_Indication\SRC\StdPeriphDriver\inc/CH58x_sys.h:178
    R8_SAFE_ACCESS_SIG = 0;
200002b6:	04078023          	sb	zero,64(a5)
HardFault_Handler():
C:/Users/OWNER/Desktop/BLE_Indication/SRC/StdPeriphDriver/CH58x_sys.c:303 (discriminator 1)
    sys_safe_access_disable();
    while(1);
200002ba:	a001                	j	200002ba <HardFault_Handler+0x44>

200002bc <mDelayuS>:
mDelayuS():
C:/Users/OWNER/Desktop/BLE_Indication/SRC/StdPeriphDriver/CH58x_sys.c:322
{
    uint32_t i;
#if(FREQ_SYS == 80000000)
    i = t * 20;
#elif(FREQ_SYS == 60000000)
    i = t * 15;
200002bc:	47bd                	li	a5,15
200002be:	02f50533          	mul	a0,a0,a5
C:/Users/OWNER/Desktop/BLE_Indication/SRC/StdPeriphDriver/CH58x_sys.c:346 (discriminator 1)
#else
    i = t << 1;
#endif
    do
    {
        __nop();
200002c2:	0001                	nop
C:/Users/OWNER/Desktop/BLE_Indication/SRC/StdPeriphDriver/CH58x_sys.c:347 (discriminator 1)
    } while(--i);
200002c4:	157d                	addi	a0,a0,-1
200002c6:	fd75                	bnez	a0,200002c2 <mDelayuS+0x6>
C:/Users/OWNER/Desktop/BLE_Indication/SRC/StdPeriphDriver/CH58x_sys.c:348
}
200002c8:	8082                	ret

200002ca <mDelaymS>:
mDelaymS():
C:/Users/OWNER/Desktop/BLE_Indication/SRC/StdPeriphDriver/CH58x_sys.c:361
 *
 * @return  none
 */
__HIGH_CODE
void mDelaymS(uint16_t t)
{
200002ca:	1141                	addi	sp,sp,-16
200002cc:	c422                	sw	s0,8(sp)
200002ce:	c226                	sw	s1,4(sp)
200002d0:	c606                	sw	ra,12(sp)
200002d2:	84aa                	mv	s1,a0
C:/Users/OWNER/Desktop/BLE_Indication/SRC/StdPeriphDriver/CH58x_sys.c:364
    uint16_t i;

    for(i = 0; i < t; i++)
200002d4:	4401                	li	s0,0
C:/Users/OWNER/Desktop/BLE_Indication/SRC/StdPeriphDriver/CH58x_sys.c:364 (discriminator 1)
200002d6:	00941763          	bne	s0,s1,200002e4 <mDelaymS+0x1a>
C:/Users/OWNER/Desktop/BLE_Indication/SRC/StdPeriphDriver/CH58x_sys.c:368
    {
        mDelayuS(1000);
    }
}
200002da:	40b2                	lw	ra,12(sp)
200002dc:	4422                	lw	s0,8(sp)
200002de:	4492                	lw	s1,4(sp)
200002e0:	0141                	addi	sp,sp,16
200002e2:	8082                	ret
C:/Users/OWNER/Desktop/BLE_Indication/SRC/StdPeriphDriver/CH58x_sys.c:364 (discriminator 3)
    for(i = 0; i < t; i++)
200002e4:	0405                	addi	s0,s0,1
C:/Users/OWNER/Desktop/BLE_Indication/SRC/StdPeriphDriver/CH58x_sys.c:366 (discriminator 3)
        mDelayuS(1000);
200002e6:	3e800513          	li	a0,1000
C:/Users/OWNER/Desktop/BLE_Indication/SRC/StdPeriphDriver/CH58x_sys.c:364 (discriminator 3)
    for(i = 0; i < t; i++)
200002ea:	0442                	slli	s0,s0,0x10
C:/Users/OWNER/Desktop/BLE_Indication/SRC/StdPeriphDriver/CH58x_sys.c:366 (discriminator 3)
        mDelayuS(1000);
200002ec:	3fc1                	jal	200002bc <mDelayuS>
C:/Users/OWNER/Desktop/BLE_Indication/SRC/StdPeriphDriver/CH58x_sys.c:364 (discriminator 3)
    for(i = 0; i < t; i++)
200002ee:	8041                	srli	s0,s0,0x10
200002f0:	b7dd                	j	200002d6 <mDelaymS+0xc>

200002f2 <RTC_IRQHandler>:
RTC_IRQHandler():
C:/Users/OWNER/Desktop/BLE_Indication/BLE/HAL/RTC.c:57
 */
__INTERRUPT
__HIGH_CODE
void RTC_IRQHandler(void)
{
    R8_RTC_FLAG_CTRL = (RB_RTC_TMR_CLR | RB_RTC_TRIG_CLR);
200002f2:	400017b7          	lui	a5,0x40001
200002f6:	03000713          	li	a4,48
200002fa:	02e78823          	sb	a4,48(a5) # 40001030 <_eusrstack+0x1fff9030>
C:/Users/OWNER/Desktop/BLE_Indication/BLE/HAL/RTC.c:58
    RTCTigFlag = 1;
200002fe:	4785                	li	a5,1
20000300:	8ef1ac23          	sw	a5,-1800(gp) # 20002500 <RTCTigFlag>
C:/Users/OWNER/Desktop/BLE_Indication/BLE/HAL/RTC.c:59
}
20000304:	30200073          	mret

20000308 <Main_Circulation>:
Main_Circulation():
C:\Users\OWNER\Desktop\BLE_Indication\BLE\Peripheral_Indication\obj/../APP/peripheral_main.c:37
 * @return  none
 */
__HIGH_CODE
__attribute__((noinline))
void Main_Circulation()
{
20000308:	1141                	addi	sp,sp,-16
2000030a:	c606                	sw	ra,12(sp)
C:\Users\OWNER\Desktop\BLE_Indication\BLE\Peripheral_Indication\obj/../APP/peripheral_main.c:40 (discriminator 1)
    while(1)
    {
        TMOS_SystemProcess();
2000030c:	2d85                	jal	2000097c <TMOS_SystemProcess>
2000030e:	bffd                	j	2000030c <Main_Circulation+0x4>

20000310 <FLASH_ROM_BEG>:
FLASH_ROM_BEG():
20000310:	80040323          	sb	zero,-2042(s0)
20000314:	4715                	li	a4,5
20000316:	80e40323          	sb	a4,-2042(s0)
2000031a:	0001                	nop
2000031c:	80a40223          	sb	a0,-2044(s0)
20000320:	8082                	ret

20000322 <FLASH_ROM_END>:
FLASH_ROM_END():
20000322:	80640783          	lb	a5,-2042(s0)
20000326:	fe07cee3          	bltz	a5,20000322 <FLASH_ROM_END>
2000032a:	80040323          	sb	zero,-2042(s0)
2000032e:	8082                	ret

20000330 <FLASH_ROM_IN>:
FLASH_ROM_IN():
20000330:	80640783          	lb	a5,-2042(s0)
20000334:	fe07cee3          	bltz	a5,20000330 <FLASH_ROM_IN>
20000338:	80444503          	lbu	a0,-2044(s0)
2000033c:	8082                	ret

2000033e <FLASH_ROM_OUT>:
FLASH_ROM_OUT():
2000033e:	80640783          	lb	a5,-2042(s0)
20000342:	fe07cee3          	bltz	a5,2000033e <FLASH_ROM_OUT>
20000346:	80a40223          	sb	a0,-2044(s0)
2000034a:	8082                	ret

2000034c <FLASH_ROM_ADDR>:
FLASH_ROM_ADDR():
2000034c:	1141                	addi	sp,sp,-16
2000034e:	c426                	sw	s1,8(sp)
20000350:	c24a                	sw	s2,4(sp)
20000352:	c04e                	sw	s3,0(sp)
20000354:	c606                	sw	ra,12(sp)
20000356:	0bf57713          	andi	a4,a0,191
2000035a:	47ad                	li	a5,11
2000035c:	89aa                	mv	s3,a0
2000035e:	892e                	mv	s2,a1
20000360:	4495                	li	s1,5
20000362:	00f70663          	beq	a4,a5,2000036e <FLASH_ROM_ADDR+0x22>
20000366:	4519                	li	a0,6
20000368:	3765                	jal	20000310 <FLASH_ROM_BEG>
2000036a:	3f65                	jal	20000322 <FLASH_ROM_END>
2000036c:	448d                	li	s1,3
2000036e:	854e                	mv	a0,s3
20000370:	3745                	jal	20000310 <FLASH_ROM_BEG>
20000372:	59fd                	li	s3,-1
20000374:	14fd                	addi	s1,s1,-1
20000376:	01349863          	bne	s1,s3,20000386 <FLASH_ROM_ADDR+0x3a>
2000037a:	40b2                	lw	ra,12(sp)
2000037c:	44a2                	lw	s1,8(sp)
2000037e:	4912                	lw	s2,4(sp)
20000380:	4982                	lw	s3,0(sp)
20000382:	0141                	addi	sp,sp,16
20000384:	8082                	ret
20000386:	01095513          	srli	a0,s2,0x10
2000038a:	0ff57513          	andi	a0,a0,255
2000038e:	3f45                	jal	2000033e <FLASH_ROM_OUT>
20000390:	0922                	slli	s2,s2,0x8
20000392:	b7cd                	j	20000374 <FLASH_ROM_ADDR+0x28>

20000394 <FLASH_ROM_WAIT>:
FLASH_ROM_WAIT():
20000394:	1101                	addi	sp,sp,-32
20000396:	cc26                	sw	s1,24(sp)
20000398:	ce06                	sw	ra,28(sp)
2000039a:	000804b7          	lui	s1,0x80
2000039e:	3751                	jal	20000322 <FLASH_ROM_END>
200003a0:	4515                	li	a0,5
200003a2:	37bd                	jal	20000310 <FLASH_ROM_BEG>
200003a4:	3771                	jal	20000330 <FLASH_ROM_IN>
200003a6:	3769                	jal	20000330 <FLASH_ROM_IN>
200003a8:	c62a                	sw	a0,12(sp)
200003aa:	3fa5                	jal	20000322 <FLASH_ROM_END>
200003ac:	4532                	lw	a0,12(sp)
200003ae:	00157793          	andi	a5,a0,1
200003b2:	eb89                	bnez	a5,200003c4 <FLASH_ROM_WAIT+0x30>
200003b4:	00156513          	ori	a0,a0,1
200003b8:	0ff57513          	andi	a0,a0,255
200003bc:	40f2                	lw	ra,28(sp)
200003be:	44e2                	lw	s1,24(sp)
200003c0:	6105                	addi	sp,sp,32
200003c2:	8082                	ret
200003c4:	14fd                	addi	s1,s1,-1
200003c6:	fce9                	bnez	s1,200003a0 <FLASH_ROM_WAIT+0xc>
200003c8:	4501                	li	a0,0
200003ca:	bfcd                	j	200003bc <FLASH_ROM_WAIT+0x28>

200003cc <FLASH_EEPROM_CMD>:
FLASH_EEPROM_CMD():
200003cc:	7139                	addi	sp,sp,-64
200003ce:	dc26                	sw	s1,56(sp)
200003d0:	da4a                	sw	s2,52(sp)
200003d2:	d84e                	sw	s3,48(sp)
200003d4:	d652                	sw	s4,44(sp)
200003d6:	d456                	sw	s5,40(sp)
200003d8:	d25a                	sw	s6,36(sp)
200003da:	d05e                	sw	s7,32(sp)
200003dc:	de06                	sw	ra,60(sp)
200003de:	ce62                	sw	s8,28(sp)
200003e0:	cc66                	sw	s9,24(sp)
200003e2:	e000e7b7          	lui	a5,0xe000e
200003e6:	577d                	li	a4,-1
200003e8:	0007aa83          	lw	s5,0(a5) # e000e000 <_eusrstack+0xc0006000>
200003ec:	c622                	sw	s0,12(sp)
200003ee:	0047aa03          	lw	s4,4(a5)
200003f2:	18e7a023          	sw	a4,384(a5)
200003f6:	18e7a223          	sw	a4,388(a5)
200003fa:	400017b7          	lui	a5,0x40001
200003fe:	05700713          	li	a4,87
20000402:	04e78023          	sb	a4,64(a5) # 40001040 <_eusrstack+0x1fff9040>
20000406:	fa800713          	li	a4,-88
2000040a:	04e78023          	sb	a4,64(a5)
2000040e:	0447c783          	lbu	a5,68(a5)
20000412:	ff750b93          	addi	s7,a0,-9
20000416:	84b6                	mv	s1,a3
20000418:	07e2                	slli	a5,a5,0x18
2000041a:	0ffbfb93          	andi	s7,s7,255
2000041e:	4685                	li	a3,1
20000420:	89aa                	mv	s3,a0
20000422:	8b2e                	mv	s6,a1
20000424:	8932                	mv	s2,a2
20000426:	40002437          	lui	s0,0x40002
2000042a:	87e1                	srai	a5,a5,0x18
2000042c:	5701                	li	a4,-32
2000042e:	0176fa63          	bgeu	a3,s7,20000442 <FLASH_EEPROM_CMD+0x76>
20000432:	00d50863          	beq	a0,a3,20000442 <FLASH_EEPROM_CMD+0x76>
20000436:	4689                	li	a3,2
20000438:	02000713          	li	a4,32
2000043c:	00d51363          	bne	a0,a3,20000442 <FLASH_EEPROM_CMD+0x76>
20000440:	5701                	li	a4,-32
20000442:	8fd9                	or	a5,a5,a4
20000444:	0ff7f793          	andi	a5,a5,255
20000448:	40001cb7          	lui	s9,0x40001
2000044c:	04fc8223          	sb	a5,68(s9) # 40001044 <_eusrstack+0x1fff9044>
20000450:	4711                	li	a4,4
20000452:	80e40323          	sb	a4,-2042(s0) # 40001806 <_eusrstack+0x1fff9806>
20000456:	0ff00513          	li	a0,255
2000045a:	3d5d                	jal	20000310 <FLASH_ROM_BEG>
2000045c:	4c09                	li	s8,2
2000045e:	35d1                	jal	20000322 <FLASH_ROM_END>
20000460:	117c6d63          	bltu	s8,s7,2000057a <FLASH_EEPROM_CMD+0x1ae>
20000464:	000705b7          	lui	a1,0x70
20000468:	95da                	add	a1,a1,s6
2000046a:	00078737          	lui	a4,0x78
2000046e:	5579                	li	a0,-2
20000470:	04e5f263          	bgeu	a1,a4,200004b4 <FLASH_EEPROM_CMD+0xe8>
20000474:	009587b3          	add	a5,a1,s1
20000478:	02f76e63          	bltu	a4,a5,200004b4 <FLASH_EEPROM_CMD+0xe8>
2000047c:	00080b37          	lui	s6,0x80
20000480:	47a9                	li	a5,10
20000482:	0165eb33          	or	s6,a1,s6
20000486:	06f99963          	bne	s3,a5,200004f8 <FLASH_EEPROM_CMD+0x12c>
2000048a:	e489                	bnez	s1,20000494 <FLASH_EEPROM_CMD+0xc8>
2000048c:	4481                	li	s1,0
2000048e:	3d51                	jal	20000322 <FLASH_ROM_END>
20000490:	8526                	mv	a0,s1
20000492:	a00d                	j	200004b4 <FLASH_EEPROM_CMD+0xe8>
20000494:	85da                	mv	a1,s6
20000496:	4509                	li	a0,2
20000498:	3d55                	jal	2000034c <FLASH_ROM_ADDR>
2000049a:	0905                	addi	s2,s2,1
2000049c:	fff94503          	lbu	a0,-1(s2)
200004a0:	14fd                	addi	s1,s1,-1
200004a2:	0b05                	addi	s6,s6,1
200004a4:	3d69                	jal	2000033e <FLASH_ROM_OUT>
200004a6:	c481                	beqz	s1,200004ae <FLASH_EEPROM_CMD+0xe2>
200004a8:	0ffb7793          	andi	a5,s6,255
200004ac:	f7fd                	bnez	a5,2000049a <FLASH_EEPROM_CMD+0xce>
200004ae:	35dd                	jal	20000394 <FLASH_ROM_WAIT>
200004b0:	fd69                	bnez	a0,2000048a <FLASH_EEPROM_CMD+0xbe>
200004b2:	557d                	li	a0,-1
200004b4:	400017b7          	lui	a5,0x40001
200004b8:	05700713          	li	a4,87
200004bc:	04e78023          	sb	a4,64(a5) # 40001040 <_eusrstack+0x1fff9040>
200004c0:	fa800713          	li	a4,-88
200004c4:	04e78023          	sb	a4,64(a5)
200004c8:	0447c703          	lbu	a4,68(a5)
200004cc:	8b41                	andi	a4,a4,16
200004ce:	04e78223          	sb	a4,68(a5)
200004d2:	50f2                	lw	ra,60(sp)
200004d4:	e000e7b7          	lui	a5,0xe000e
200004d8:	1157a023          	sw	s5,256(a5) # e000e100 <_eusrstack+0xc0006100>
200004dc:	1147a223          	sw	s4,260(a5)
200004e0:	54e2                	lw	s1,56(sp)
200004e2:	4432                	lw	s0,12(sp)
200004e4:	5952                	lw	s2,52(sp)
200004e6:	59c2                	lw	s3,48(sp)
200004e8:	5a32                	lw	s4,44(sp)
200004ea:	5aa2                	lw	s5,40(sp)
200004ec:	5b12                	lw	s6,36(sp)
200004ee:	5b82                	lw	s7,32(sp)
200004f0:	4c72                	lw	s8,28(sp)
200004f2:	4ce2                	lw	s9,24(sp)
200004f4:	6121                	addi	sp,sp,64
200004f6:	8082                	ret
200004f8:	47a5                	li	a5,9
200004fa:	06f99563          	bne	s3,a5,20000564 <FLASH_EEPROM_CMD+0x198>
200004fe:	6985                	lui	s3,0x1
20000500:	0ff00913          	li	s2,255
20000504:	009906b3          	add	a3,s2,s1
20000508:	012b74b3          	and	s1,s6,s2
2000050c:	94b6                	add	s1,s1,a3
2000050e:	fff94913          	not	s2,s2
20000512:	009974b3          	and	s1,s2,s1
20000516:	6b85                	lui	s7,0x1
20000518:	01697933          	and	s2,s2,s6
2000051c:	6b41                	lui	s6,0x10
2000051e:	fff98793          	addi	a5,s3,-1 # fff <_einit+0xffb>
20000522:	0127f7b3          	and	a5,a5,s2
20000526:	e399                	bnez	a5,2000052c <FLASH_EEPROM_CMD+0x160>
20000528:	0134fc63          	bgeu	s1,s3,20000540 <FLASH_EEPROM_CMD+0x174>
2000052c:	0049d993          	srli	s3,s3,0x4
20000530:	47c1                	li	a5,16
20000532:	ff37e6e3          	bltu	a5,s3,2000051e <FLASH_EEPROM_CMD+0x152>
20000536:	bf99                	j	2000048c <FLASH_EEPROM_CMD+0xc0>
20000538:	6905                	lui	s2,0x1
2000053a:	69c1                	lui	s3,0x10
2000053c:	197d                	addi	s2,s2,-1
2000053e:	b7d9                	j	20000504 <FLASH_EEPROM_CMD+0x138>
20000540:	0d800513          	li	a0,216
20000544:	01698863          	beq	s3,s6,20000554 <FLASH_EEPROM_CMD+0x188>
20000548:	02000513          	li	a0,32
2000054c:	01798463          	beq	s3,s7,20000554 <FLASH_EEPROM_CMD+0x188>
20000550:	08100513          	li	a0,129
20000554:	85ca                	mv	a1,s2
20000556:	3bdd                	jal	2000034c <FLASH_ROM_ADDR>
20000558:	3d35                	jal	20000394 <FLASH_ROM_WAIT>
2000055a:	dd21                	beqz	a0,200004b2 <FLASH_EEPROM_CMD+0xe6>
2000055c:	994e                	add	s2,s2,s3
2000055e:	413484b3          	sub	s1,s1,s3
20000562:	b7d9                	j	20000528 <FLASH_EEPROM_CMD+0x15c>
20000564:	85da                	mv	a1,s6
20000566:	452d                	li	a0,11
20000568:	33d5                	jal	2000034c <FLASH_ROM_ADDR>
2000056a:	94ca                	add	s1,s1,s2
2000056c:	f29900e3          	beq	s2,s1,2000048c <FLASH_EEPROM_CMD+0xc0>
20000570:	0905                	addi	s2,s2,1
20000572:	3b7d                	jal	20000330 <FLASH_ROM_IN>
20000574:	fea90fa3          	sb	a0,-1(s2) # fff <_einit+0xffb>
20000578:	bfd5                	j	2000056c <FLASH_EEPROM_CMD+0x1a0>
2000057a:	fff98793          	addi	a5,s3,-1 # ffff <HOST_LE_AdvertisingSetTerminatedEvent+0x21>
2000057e:	0ff7f793          	andi	a5,a5,255
20000582:	0cfc6163          	bltu	s8,a5,20000644 <.loop402+0x7a>
20000586:	041cc783          	lbu	a5,65(s9)
2000058a:	08300713          	li	a4,131
2000058e:	04f71f63          	bne	a4,a5,200005ec <.loop402+0x22>
20000592:	00080737          	lui	a4,0x80
20000596:	04eb6b63          	bltu	s6,a4,200005ec <.loop402+0x22>
2000059a:	009b07b3          	add	a5,s6,s1
2000059e:	001006b7          	lui	a3,0x100
200005a2:	04d7f563          	bgeu	a5,a3,200005ec <.loop402+0x22>
200005a6:	00eb4b33          	xor	s6,s6,a4
200005aa:	4789                	li	a5,2
200005ac:	06f99363          	bne	s3,a5,20000612 <.loop402+0x48>
200005b0:	8089                	srli	s1,s1,0x2
200005b2:	49d5                	li	s3,21
200005b4:	ec048ce3          	beqz	s1,2000048c <FLASH_EEPROM_CMD+0xc0>
200005b8:	85da                	mv	a1,s6
200005ba:	4509                	li	a0,2
200005bc:	3b41                	jal	2000034c <FLASH_ROM_ADDR>
200005be:	0911                	addi	s2,s2,4
200005c0:	ffc92703          	lw	a4,-4(s2)
200005c4:	4791                	li	a5,4
200005c6:	80e42023          	sw	a4,-2048(s0)

200005ca <.loop402>:
200005ca:	80640703          	lb	a4,-2042(s0)
200005ce:	fe074ee3          	bltz	a4,200005ca <.loop402>
200005d2:	81340323          	sb	s3,-2042(s0)
200005d6:	17fd                	addi	a5,a5,-1
200005d8:	fbed                	bnez	a5,200005ca <.loop402>
200005da:	14fd                	addi	s1,s1,-1
200005dc:	0b11                	addi	s6,s6,4
200005de:	c481                	beqz	s1,200005e6 <.loop402+0x1c>
200005e0:	0ffb7793          	andi	a5,s6,255
200005e4:	ffe9                	bnez	a5,200005be <FLASH_EEPROM_CMD+0x1f2>
200005e6:	337d                	jal	20000394 <FLASH_ROM_WAIT>
200005e8:	f571                	bnez	a0,200005b4 <FLASH_EEPROM_CMD+0x1e8>
200005ea:	b5e1                	j	200004b2 <FLASH_EEPROM_CMD+0xe6>
200005ec:	400017b7          	lui	a5,0x40001
200005f0:	0457c703          	lbu	a4,69(a5) # 40001045 <_eusrstack+0x1fff9045>
200005f4:	000807b7          	lui	a5,0x80
200005f8:	02077713          	andi	a4,a4,32
200005fc:	e319                	bnez	a4,20000602 <.loop402+0x38>
200005fe:	000787b7          	lui	a5,0x78
20000602:	5579                	li	a0,-2
20000604:	eafb78e3          	bgeu	s6,a5,200004b4 <FLASH_EEPROM_CMD+0xe8>
20000608:	009b0733          	add	a4,s6,s1
2000060c:	f8e7ffe3          	bgeu	a5,a4,200005aa <FLASH_EEPROM_CMD+0x1de>
20000610:	b555                	j	200004b4 <FLASH_EEPROM_CMD+0xe8>
20000612:	4785                	li	a5,1
20000614:	f2f982e3          	beq	s3,a5,20000538 <FLASH_EEPROM_CMD+0x16c>
20000618:	85da                	mv	a1,s6
2000061a:	452d                	li	a0,11
2000061c:	3b05                	jal	2000034c <FLASH_ROM_ADDR>
2000061e:	fff48993          	addi	s3,s1,-1 # 7ffff <_data_lma+0x5bb8f>
20000622:	e60485e3          	beqz	s1,2000048c <FLASH_EEPROM_CMD+0xc0>
20000626:	3329                	jal	20000330 <FLASH_ROM_IN>
20000628:	0039f793          	andi	a5,s3,3
2000062c:	eb91                	bnez	a5,20000640 <.loop402+0x76>
2000062e:	80042683          	lw	a3,-2048(s0)
20000632:	00092703          	lw	a4,0(s2)
20000636:	00490793          	addi	a5,s2,4
2000063a:	e4e69ae3          	bne	a3,a4,2000048e <FLASH_EEPROM_CMD+0xc2>
2000063e:	893e                	mv	s2,a5
20000640:	84ce                	mv	s1,s3
20000642:	bff1                	j	2000061e <.loop402+0x54>
20000644:	47b5                	li	a5,13
20000646:	00f99663          	bne	s3,a5,20000652 <.loop402+0x88>
2000064a:	0b900513          	li	a0,185
2000064e:	31c9                	jal	20000310 <FLASH_ROM_BEG>
20000650:	bd35                	j	2000048c <FLASH_EEPROM_CMD+0xc0>
20000652:	47b1                	li	a5,12
20000654:	0ab00513          	li	a0,171
20000658:	fef98be3          	beq	s3,a5,2000064e <.loop402+0x84>
2000065c:	4799                	li	a5,6
2000065e:	04f99163          	bne	s3,a5,200006a0 <.loop402+0xd6>
20000662:	000805b7          	lui	a1,0x80
20000666:	00bb65b3          	or	a1,s6,a1
2000066a:	452d                	li	a0,11
2000066c:	31c5                	jal	2000034c <FLASH_ROM_ADDR>
2000066e:	4481                	li	s1,0
20000670:	4b8d                	li	s7,3
20000672:	49a1                	li	s3,8
20000674:	3975                	jal	20000330 <FLASH_ROM_IN>
20000676:	01749663          	bne	s1,s7,20000682 <.loop402+0xb8>
2000067a:	80042783          	lw	a5,-2048(s0)
2000067e:	00f92023          	sw	a5,0(s2)
20000682:	0485                	addi	s1,s1,1
20000684:	ff3498e3          	bne	s1,s3,20000674 <.loop402+0xaa>
20000688:	80042783          	lw	a5,-2048(s0)
2000068c:	012b1713          	slli	a4,s6,0x12
20000690:	00075563          	bgez	a4,2000069a <.loop402+0xd0>
20000694:	00f91223          	sh	a5,4(s2)
20000698:	bbd5                	j	2000048c <FLASH_EEPROM_CMD+0xc0>
2000069a:	00f92223          	sw	a5,4(s2)
2000069e:	b3fd                	j	2000048c <FLASH_EEPROM_CMD+0xc0>
200006a0:	479d                	li	a5,7
200006a2:	02f99963          	bne	s3,a5,200006d4 <.loop402+0x10a>
200006a6:	4581                	li	a1,0
200006a8:	04b00513          	li	a0,75
200006ac:	3145                	jal	2000034c <FLASH_ROM_ADDR>
200006ae:	44bd                	li	s1,15
200006b0:	00092023          	sw	zero,0(s2)
200006b4:	00092223          	sw	zero,4(s2)
200006b8:	59fd                	li	s3,-1
200006ba:	399d                	jal	20000330 <FLASH_ROM_IN>
200006bc:	0074f793          	andi	a5,s1,7
200006c0:	97ca                	add	a5,a5,s2
200006c2:	0007c703          	lbu	a4,0(a5) # 78000 <_data_lma+0x53b90>
200006c6:	14fd                	addi	s1,s1,-1
200006c8:	8d39                	xor	a0,a0,a4
200006ca:	00a78023          	sb	a0,0(a5)
200006ce:	ff3496e3          	bne	s1,s3,200006ba <.loop402+0xf0>
200006d2:	bb6d                	j	2000048c <FLASH_EEPROM_CMD+0xc0>
200006d4:	47a1                	li	a5,8
200006d6:	04f99263          	bne	s3,a5,2000071a <.loop402+0x150>
200006da:	396d                	jal	20000394 <FLASH_ROM_WAIT>
200006dc:	4481                	li	s1,0
200006de:	000b0d63          	beqz	s6,200006f8 <.loop402+0x12e>
200006e2:	478d                	li	a5,3
200006e4:	03c00493          	li	s1,60
200006e8:	00fb0863          	beq	s6,a5,200006f8 <.loop402+0x12e>
200006ec:	05000493          	li	s1,80
200006f0:	018b0463          	beq	s6,s8,200006f8 <.loop402+0x12e>
200006f4:	04400493          	li	s1,68
200006f8:	07c57513          	andi	a0,a0,124
200006fc:	d89508e3          	beq	a0,s1,2000048c <FLASH_EEPROM_CMD+0xc0>
20000700:	4519                	li	a0,6
20000702:	3139                	jal	20000310 <FLASH_ROM_BEG>
20000704:	3939                	jal	20000322 <FLASH_ROM_END>
20000706:	4505                	li	a0,1
20000708:	3121                	jal	20000310 <FLASH_ROM_BEG>
2000070a:	8526                	mv	a0,s1
2000070c:	390d                	jal	2000033e <FLASH_ROM_OUT>
2000070e:	4509                	li	a0,2
20000710:	313d                	jal	2000033e <FLASH_ROM_OUT>
20000712:	3149                	jal	20000394 <FLASH_ROM_WAIT>
20000714:	d6051ce3          	bnez	a0,2000048c <FLASH_EEPROM_CMD+0xc0>
20000718:	bb69                	j	200004b2 <FLASH_EEPROM_CMD+0xe6>
2000071a:	4791                	li	a5,4
2000071c:	00f99963          	bne	s3,a5,2000072e <.loop402+0x164>
20000720:	06600513          	li	a0,102
20000724:	36f5                	jal	20000310 <FLASH_ROM_BEG>
20000726:	3ef5                	jal	20000322 <FLASH_ROM_END>
20000728:	09900513          	li	a0,153
2000072c:	b70d                	j	2000064e <.loop402+0x84>
2000072e:	d4098fe3          	beqz	s3,2000048c <FLASH_EEPROM_CMD+0xc0>
20000732:	54f1                	li	s1,-4
20000734:	bba9                	j	2000048e <FLASH_EEPROM_CMD+0xc2>

20000736 <tmos_memcpy>:
tmos_memcpy():
20000736:	cd19                	beqz	a0,20000754 <tmos_memcpy+0x1e>
20000738:	cd91                	beqz	a1,20000754 <tmos_memcpy+0x1e>
2000073a:	ce09                	beqz	a2,20000754 <tmos_memcpy+0x1e>
2000073c:	4781                	li	a5,0
2000073e:	00f58733          	add	a4,a1,a5
20000742:	00074683          	lbu	a3,0(a4) # 80000 <_data_lma+0x5bb90>
20000746:	00f50733          	add	a4,a0,a5
2000074a:	0785                	addi	a5,a5,1
2000074c:	00d70023          	sb	a3,0(a4)
20000750:	fef617e3          	bne	a2,a5,2000073e <tmos_memcpy+0x8>
20000754:	8082                	ret

20000756 <tmos_memcpy_word>:
tmos_memcpy_word():
20000756:	c919                	beqz	a0,2000076c <tmos_memcpy_word+0x16>
20000758:	c991                	beqz	a1,2000076c <tmos_memcpy_word+0x16>
2000075a:	ca09                	beqz	a2,2000076c <tmos_memcpy_word+0x16>
2000075c:	0591                	addi	a1,a1,4
2000075e:	ffc5a783          	lw	a5,-4(a1) # 7fffc <_data_lma+0x5bb8c>
20000762:	0511                	addi	a0,a0,4
20000764:	167d                	addi	a2,a2,-1
20000766:	fef52e23          	sw	a5,-4(a0)
2000076a:	bfc5                	j	2000075a <tmos_memcpy_word+0x4>
2000076c:	8082                	ret

2000076e <tmos_memset>:
tmos_memset():
2000076e:	c901                	beqz	a0,2000077e <tmos_memset+0x10>
20000770:	c619                	beqz	a2,2000077e <tmos_memset+0x10>
20000772:	962a                	add	a2,a2,a0
20000774:	0505                	addi	a0,a0,1
20000776:	feb50fa3          	sb	a1,-1(a0)
2000077a:	fea61de3          	bne	a2,a0,20000774 <tmos_memset+0x6>
2000077e:	8082                	ret

20000780 <tmos_strlen>:
tmos_strlen():
20000780:	4781                	li	a5,0
20000782:	00f50733          	add	a4,a0,a5
20000786:	00070703          	lb	a4,0(a4)
2000078a:	e319                	bnez	a4,20000790 <tmos_strlen+0x10>
2000078c:	853e                	mv	a0,a5
2000078e:	8082                	ret
20000790:	0785                	addi	a5,a5,1
20000792:	bfc5                	j	20000782 <tmos_strlen+0x2>

20000794 <tmos_memdup>:
tmos_memdup():
20000794:	1101                	addi	sp,sp,-32
20000796:	862e                	mv	a2,a1
20000798:	ca26                	sw	s1,20(sp)
2000079a:	84aa                	mv	s1,a0
2000079c:	01061513          	slli	a0,a2,0x10
200007a0:	04f00593          	li	a1,79
200007a4:	8141                	srli	a0,a0,0x10
200007a6:	cc22                	sw	s0,24(sp)
200007a8:	ce06                	sw	ra,28(sp)
200007aa:	c632                	sw	a2,12(sp)
200007ac:	568010ef          	jal	ra,20001d14 <tmos_memory_allocate>
200007b0:	842a                	mv	s0,a0
200007b2:	c501                	beqz	a0,200007ba <tmos_memdup+0x26>
200007b4:	4632                	lw	a2,12(sp)
200007b6:	85a6                	mv	a1,s1
200007b8:	3fbd                	jal	20000736 <tmos_memcpy>
200007ba:	8522                	mv	a0,s0
200007bc:	40f2                	lw	ra,28(sp)
200007be:	4462                	lw	s0,24(sp)
200007c0:	44d2                	lw	s1,20(sp)
200007c2:	6105                	addi	sp,sp,32
200007c4:	8082                	ret

200007c6 <tmos_memcmp>:
tmos_memcmp():
200007c6:	4785                	li	a5,1
200007c8:	c115                	beqz	a0,200007ec <tmos_memcmp+0x26>
200007ca:	c18d                	beqz	a1,200007ec <tmos_memcmp+0x26>
200007cc:	c205                	beqz	a2,200007ec <tmos_memcmp+0x26>
200007ce:	4781                	li	a5,0
200007d0:	00f506b3          	add	a3,a0,a5
200007d4:	00f58733          	add	a4,a1,a5
200007d8:	0006c683          	lbu	a3,0(a3) # 100000 <_data_lma+0xdbb90>
200007dc:	00074703          	lbu	a4,0(a4)
200007e0:	00e69863          	bne	a3,a4,200007f0 <tmos_memcmp+0x2a>
200007e4:	0785                	addi	a5,a5,1
200007e6:	fef615e3          	bne	a2,a5,200007d0 <tmos_memcmp+0xa>
200007ea:	4785                	li	a5,1
200007ec:	853e                	mv	a0,a5
200007ee:	8082                	ret
200007f0:	4781                	li	a5,0
200007f2:	bfed                	j	200007ec <tmos_memcmp+0x26>

200007f4 <tmos_revmemcpy>:
tmos_revmemcpy():
200007f4:	fff60793          	addi	a5,a2,-1
200007f8:	95be                	add	a1,a1,a5
200007fa:	962a                	add	a2,a2,a0
200007fc:	00c51363          	bne	a0,a2,20000802 <tmos_revmemcpy+0xe>
20000800:	8082                	ret
20000802:	15fd                	addi	a1,a1,-1
20000804:	0015c783          	lbu	a5,1(a1)
20000808:	0505                	addi	a0,a0,1
2000080a:	fef50fa3          	sb	a5,-1(a0)
2000080e:	b7fd                	j	200007fc <tmos_revmemcpy+0x8>

20000810 <tmos_isbufset>:
tmos_isbufset():
20000810:	87aa                	mv	a5,a0
20000812:	4501                	li	a0,0
20000814:	cf81                	beqz	a5,2000082c <tmos_isbufset+0x1c>
20000816:	ce09                	beqz	a2,20000830 <tmos_isbufset+0x20>
20000818:	963e                	add	a2,a2,a5
2000081a:	0785                	addi	a5,a5,1
2000081c:	fff7c703          	lbu	a4,-1(a5)
20000820:	00b71763          	bne	a4,a1,2000082e <tmos_isbufset+0x1e>
20000824:	fec79be3          	bne	a5,a2,2000081a <tmos_isbufset+0xa>
20000828:	4505                	li	a0,1
2000082a:	8082                	ret
2000082c:	8082                	ret
2000082e:	4501                	li	a0,0
20000830:	8082                	ret

20000832 <tmos_proces_system_time>:
tmos_proces_system_time():
20000832:	7179                	addi	sp,sp,-48
20000834:	00003797          	auipc	a5,0x3
20000838:	6c478793          	addi	a5,a5,1732 # 20003ef8 <taskHead>
2000083c:	d422                	sw	s0,40(sp)
2000083e:	4380                	lw	s0,0(a5)
20000840:	d606                	sw	ra,44(sp)
20000842:	d226                	sw	s1,36(sp)
20000844:	d04a                	sw	s2,32(sp)
20000846:	ce4e                	sw	s3,28(sp)
20000848:	cc52                	sw	s4,24(sp)
2000084a:	ca56                	sw	s5,20(sp)
2000084c:	c85a                	sw	s6,16(sp)
2000084e:	c65e                	sw	s7,12(sp)
20000850:	c462                	sw	s8,8(sp)
20000852:	cc5d                	beqz	s0,20000910 <tmos_proces_system_time+0xde>
20000854:	01c9c937          	lui	s2,0x1c9c
20000858:	4b81                	li	s7,0
2000085a:	00003a17          	auipc	s4,0x3
2000085e:	6e6a0a13          	addi	s4,s4,1766 # 20003f40 <fnGetClockCBs>
20000862:	00003497          	auipc	s1,0x3
20000866:	69a48493          	addi	s1,s1,1690 # 20003efc <ble>
2000086a:	37f90913          	addi	s2,s2,895 # 1c9c37f <_data_lma+0x1c77f0f>
2000086e:	00003a97          	auipc	s5,0x3
20000872:	636a8a93          	addi	s5,s5,1590 # 20003ea4 <gTmosPara>
20000876:	a8c009b7          	lui	s3,0xa8c00
2000087a:	57400b37          	lui	s6,0x57400
2000087e:	00245783          	lhu	a5,2(s0)
20000882:	e395                	bnez	a5,200008a6 <tmos_proces_system_time+0x74>
20000884:	445c                	lw	a5,12(s0)
20000886:	000b9d63          	bnez	s7,200008a0 <tmos_proces_system_time+0x6e>
2000088a:	00003717          	auipc	a4,0x3
2000088e:	66f72723          	sw	a5,1646(a4) # 20003ef8 <taskHead>
20000892:	00c42c03          	lw	s8,12(s0)
20000896:	8522                	mv	a0,s0
20000898:	54e010ef          	jal	ra,20001de6 <tmos_memory_free>
2000089c:	8462                	mv	s0,s8
2000089e:	a899                	j	200008f4 <tmos_proces_system_time+0xc2>
200008a0:	00fba623          	sw	a5,12(s7) # 100c <_einit+0x1008>
200008a4:	b7fd                	j	20000892 <tmos_proces_system_time+0x60>
200008a6:	000a2783          	lw	a5,0(s4)
200008aa:	9782                	jalr	a5
200008ac:	01648683          	lb	a3,22(s1)
200008b0:	441c                	lw	a5,8(s0)
200008b2:	0606db63          	bgez	a3,20000928 <tmos_proces_system_time+0xf6>
200008b6:	40f50733          	sub	a4,a0,a5
200008ba:	08e96763          	bltu	s2,a4,20000948 <tmos_proces_system_time+0x116>
200008be:	00003797          	auipc	a5,0x3
200008c2:	5e07ab23          	sw	zero,1526(a5) # 20003eb4 <gTmosPara+0x10>
200008c6:	00245583          	lhu	a1,2(s0)
200008ca:	00044503          	lbu	a0,0(s0)
200008ce:	e0003097          	auipc	ra,0xe0003
200008d2:	1f8080e7          	jalr	504(ra) # 3ac6 <tmos_set_event>
200008d6:	405c                	lw	a5,4(s0)
200008d8:	4458                	lw	a4,12(s0)
200008da:	cfa9                	beqz	a5,20000934 <tmos_proces_system_time+0x102>
200008dc:	4414                	lw	a3,8(s0)
200008de:	97b6                	add	a5,a5,a3
200008e0:	01648683          	lb	a3,22(s1)
200008e4:	0006c563          	bltz	a3,200008ee <tmos_proces_system_time+0xbc>
200008e8:	0137e363          	bltu	a5,s3,200008ee <tmos_proces_system_time+0xbc>
200008ec:	97da                	add	a5,a5,s6
200008ee:	c41c                	sw	a5,8(s0)
200008f0:	8ba2                	mv	s7,s0
200008f2:	843a                	mv	s0,a4
200008f4:	f449                	bnez	s0,2000087e <tmos_proces_system_time+0x4c>
200008f6:	00003797          	auipc	a5,0x3
200008fa:	5ae78793          	addi	a5,a5,1454 # 20003ea4 <gTmosPara>
200008fe:	4b9c                	lw	a5,16(a5)
20000900:	4709                	li	a4,2
20000902:	06f77863          	bgeu	a4,a5,20000972 <tmos_proces_system_time+0x140>
20000906:	17f9                	addi	a5,a5,-2
20000908:	00003717          	auipc	a4,0x3
2000090c:	5af72623          	sw	a5,1452(a4) # 20003eb4 <gTmosPara+0x10>
20000910:	50b2                	lw	ra,44(sp)
20000912:	5422                	lw	s0,40(sp)
20000914:	5492                	lw	s1,36(sp)
20000916:	5902                	lw	s2,32(sp)
20000918:	49f2                	lw	s3,28(sp)
2000091a:	4a62                	lw	s4,24(sp)
2000091c:	4ad2                	lw	s5,20(sp)
2000091e:	4b42                	lw	s6,16(sp)
20000920:	4bb2                	lw	s7,12(sp)
20000922:	4c22                	lw	s8,8(sp)
20000924:	6145                	addi	sp,sp,48
20000926:	8082                	ret
20000928:	f8f577e3          	bgeu	a0,a5,200008b6 <tmos_proces_system_time+0x84>
2000092c:	40f98733          	sub	a4,s3,a5
20000930:	972a                	add	a4,a4,a0
20000932:	b761                	j	200008ba <tmos_proces_system_time+0x88>
20000934:	000b9763          	bnez	s7,20000942 <tmos_proces_system_time+0x110>
20000938:	00003797          	auipc	a5,0x3
2000093c:	5ce7a023          	sw	a4,1472(a5) # 20003ef8 <taskHead>
20000940:	bf89                	j	20000892 <tmos_proces_system_time+0x60>
20000942:	00eba623          	sw	a4,12(s7)
20000946:	b7b1                	j	20000892 <tmos_proces_system_time+0x60>
20000948:	50d8                	lw	a4,36(s1)
2000094a:	cf09                	beqz	a4,20000964 <tmos_proces_system_time+0x132>
2000094c:	0006df63          	bgez	a3,2000096a <tmos_proces_system_time+0x138>
20000950:	40a78533          	sub	a0,a5,a0
20000954:	010aa783          	lw	a5,16(s5)
20000958:	00f57663          	bgeu	a0,a5,20000964 <tmos_proces_system_time+0x132>
2000095c:	00003797          	auipc	a5,0x3
20000960:	54a7ac23          	sw	a0,1368(a5) # 20003eb4 <gTmosPara+0x10>
20000964:	8ba2                	mv	s7,s0
20000966:	4440                	lw	s0,12(s0)
20000968:	b771                	j	200008f4 <tmos_proces_system_time+0xc2>
2000096a:	fea7f3e3          	bgeu	a5,a0,20000950 <tmos_proces_system_time+0x11e>
2000096e:	97ce                	add	a5,a5,s3
20000970:	b7c5                	j	20000950 <tmos_proces_system_time+0x11e>
20000972:	00003797          	auipc	a5,0x3
20000976:	5407a123          	sw	zero,1346(a5) # 20003eb4 <gTmosPara+0x10>
2000097a:	bf59                	j	20000910 <tmos_proces_system_time+0xde>

2000097c <TMOS_SystemProcess>:
TMOS_SystemProcess():
2000097c:	1141                	addi	sp,sp,-16
2000097e:	c422                	sw	s0,8(sp)
20000980:	00003417          	auipc	s0,0x3
20000984:	55440413          	addi	s0,s0,1364 # 20003ed4 <pfnProcessCBs>
20000988:	401c                	lw	a5,0(s0)
2000098a:	c606                	sw	ra,12(sp)
2000098c:	c226                	sw	s1,4(sp)
2000098e:	c04a                	sw	s2,0(sp)
20000990:	c791                	beqz	a5,2000099c <TMOS_SystemProcess+0x20>
20000992:	9782                	jalr	a5
20000994:	00003797          	auipc	a5,0x3
20000998:	5407a023          	sw	zero,1344(a5) # 20003ed4 <pfnProcessCBs>
2000099c:	405c                	lw	a5,4(s0)
2000099e:	c391                	beqz	a5,200009a2 <TMOS_SystemProcess+0x26>
200009a0:	9782                	jalr	a5
200009a2:	401c                	lw	a5,0(s0)
200009a4:	1c079163          	bnez	a5,20000b66 <TMOS_SystemProcess+0x1ea>
200009a8:	00003797          	auipc	a5,0x3
200009ac:	6f17c783          	lbu	a5,1777(a5) # 20004099 <gBleIPPara+0x5>
200009b0:	8b85                	andi	a5,a5,1
200009b2:	c79d                	beqz	a5,200009e0 <TMOS_SystemProcess+0x64>
200009b4:	00003797          	auipc	a5,0x3
200009b8:	6e0782a3          	sb	zero,1765(a5) # 20004099 <gBleIPPara+0x5>
200009bc:	00003717          	auipc	a4,0x3
200009c0:	6df74703          	lbu	a4,1759(a4) # 2000409b <gBleIPPara+0x7>
200009c4:	4791                	li	a5,4
200009c6:	00e7fd63          	bgeu	a5,a4,200009e0 <TMOS_SystemProcess+0x64>
200009ca:	35b000ef          	jal	ra,20001524 <ll_rx_wait_finish>
200009ce:	00003797          	auipc	a5,0x3
200009d2:	6cd7c783          	lbu	a5,1741(a5) # 2000409b <gBleIPPara+0x7>
200009d6:	17f9                	addi	a5,a5,-2
200009d8:	078a                	slli	a5,a5,0x2
200009da:	97a2                	add	a5,a5,s0
200009dc:	439c                	lw	a5,0(a5)
200009de:	9782                	jalr	a5
200009e0:	00003917          	auipc	s2,0x3
200009e4:	6f490913          	addi	s2,s2,1780 # 200040d4 <rfInfo>
200009e8:	00c94783          	lbu	a5,12(s2)
200009ec:	8b91                	andi	a5,a5,4
200009ee:	c399                	beqz	a5,200009f4 <TMOS_SystemProcess+0x78>
200009f0:	25a010ef          	jal	ra,20001c4a <RF_FrequencyHoppingChange>
200009f4:	441c                	lw	a5,8(s0)
200009f6:	c391                	beqz	a5,200009fa <TMOS_SystemProcess+0x7e>
200009f8:	9782                	jalr	a5
200009fa:	00003497          	auipc	s1,0x3
200009fe:	4fa48493          	addi	s1,s1,1274 # 20003ef4 <EventsArr>
20000a02:	4098                	lw	a4,0(s1)
20000a04:	00003617          	auipc	a2,0x3
20000a08:	4a164603          	lbu	a2,1185(a2) # 20003ea5 <gTmosPara+0x1>
20000a0c:	00003797          	auipc	a5,0x3
20000a10:	4987c783          	lbu	a5,1176(a5) # 20003ea4 <gTmosPara>
20000a14:	00179693          	slli	a3,a5,0x1
20000a18:	96ba                	add	a3,a3,a4
20000a1a:	0006d683          	lhu	a3,0(a3)
20000a1e:	cad5                	beqz	a3,20000ad2 <TMOS_SystemProcess+0x156>
20000a20:	00003797          	auipc	a5,0x3
20000a24:	4847c783          	lbu	a5,1156(a5) # 20003ea4 <gTmosPara>
20000a28:	0ac7ef63          	bltu	a5,a2,20000ae6 <TMOS_SystemProcess+0x16a>
20000a2c:	00003797          	auipc	a5,0x3
20000a30:	46078c23          	sb	zero,1144(a5) # 20003ea4 <gTmosPara>
20000a34:	401c                	lw	a5,0(s0)
20000a36:	12079863          	bnez	a5,20000b66 <TMOS_SystemProcess+0x1ea>
20000a3a:	00003797          	auipc	a5,0x3
20000a3e:	6637c783          	lbu	a5,1635(a5) # 2000409d <gBleIPPara+0x9>
20000a42:	cf91                	beqz	a5,20000a5e <TMOS_SystemProcess+0xe2>
20000a44:	00003797          	auipc	a5,0x3
20000a48:	6577c783          	lbu	a5,1623(a5) # 2000409b <gBleIPPara+0x7>
20000a4c:	eb89                	bnez	a5,20000a5e <TMOS_SystemProcess+0xe2>
20000a4e:	00003797          	auipc	a5,0x3
20000a52:	640787a3          	sb	zero,1615(a5) # 2000409d <gBleIPPara+0x9>
20000a56:	e0018097          	auipc	ra,0xe0018
20000a5a:	856080e7          	jalr	-1962(ra) # 182ac <ll_multi_states_process>
20000a5e:	00003797          	auipc	a5,0x3
20000a62:	4e278793          	addi	a5,a5,1250 # 20003f40 <fnGetClockCBs>
20000a66:	439c                	lw	a5,0(a5)
20000a68:	0e078f63          	beqz	a5,20000b66 <TMOS_SystemProcess+0x1ea>
20000a6c:	a8c007b7          	lui	a5,0xa8c00
20000a70:	00003717          	auipc	a4,0x3
20000a74:	44f72223          	sw	a5,1092(a4) # 20003eb4 <gTmosPara+0x10>
20000a78:	3b6d                	jal	20000832 <tmos_proces_system_time>
20000a7a:	00003797          	auipc	a5,0x3
20000a7e:	48278793          	addi	a5,a5,1154 # 20003efc <ble>
20000a82:	53dc                	lw	a5,36(a5)
20000a84:	c3ed                	beqz	a5,20000b66 <TMOS_SystemProcess+0x1ea>
20000a86:	00003717          	auipc	a4,0x3
20000a8a:	41e70713          	addi	a4,a4,1054 # 20003ea4 <gTmosPara>
20000a8e:	4b18                	lw	a4,16(a4)
20000a90:	00003797          	auipc	a5,0x3
20000a94:	4817c783          	lbu	a5,1153(a5) # 20003f11 <ble+0x15>
20000a98:	0cf76763          	bltu	a4,a5,20000b66 <TMOS_SystemProcess+0x1ea>
20000a9c:	00003717          	auipc	a4,0x3
20000aa0:	5ff74703          	lbu	a4,1535(a4) # 2000409b <gBleIPPara+0x7>
20000aa4:	4791                	li	a5,4
20000aa6:	0ce7e063          	bltu	a5,a4,20000b66 <TMOS_SystemProcess+0x1ea>
20000aaa:	00c94783          	lbu	a5,12(s2)
20000aae:	8b91                	andi	a5,a5,4
20000ab0:	ebdd                	bnez	a5,20000b66 <TMOS_SystemProcess+0x1ea>
20000ab2:	4090                	lw	a2,0(s1)
20000ab4:	00003697          	auipc	a3,0x3
20000ab8:	3f16c683          	lbu	a3,1009(a3) # 20003ea5 <gTmosPara+0x1>
20000abc:	0ad7cb63          	blt	a5,a3,20000b72 <TMOS_SystemProcess+0x1f6>
20000ac0:	4422                	lw	s0,8(sp)
20000ac2:	40b2                	lw	ra,12(sp)
20000ac4:	4492                	lw	s1,4(sp)
20000ac6:	4902                	lw	s2,0(sp)
20000ac8:	0141                	addi	sp,sp,16
20000aca:	e0003317          	auipc	t1,0xe0003
20000ace:	dce30067          	jr	-562(t1) # 3898 <tmos_proces_sleep>
20000ad2:	0785                	addi	a5,a5,1
20000ad4:	0ff7f793          	andi	a5,a5,255
20000ad8:	00003697          	auipc	a3,0x3
20000adc:	3cf68623          	sb	a5,972(a3) # 20003ea4 <gTmosPara>
20000ae0:	f2c7e6e3          	bltu	a5,a2,20000a0c <TMOS_SystemProcess+0x90>
20000ae4:	bf35                	j	20000a20 <TMOS_SystemProcess+0xa4>
20000ae6:	0786                	slli	a5,a5,0x1
20000ae8:	973e                	add	a4,a4,a5
20000aea:	00075583          	lhu	a1,0(a4)
20000aee:	00071023          	sh	zero,0(a4)
20000af2:	00003797          	auipc	a5,0x3
20000af6:	3e079f23          	sh	zero,1022(a5) # 20003ef0 <eventsClear>
20000afa:	00003797          	auipc	a5,0x3
20000afe:	3d678793          	addi	a5,a5,982 # 20003ed0 <tasksArr>
20000b02:	439c                	lw	a5,0(a5)
20000b04:	00003517          	auipc	a0,0x3
20000b08:	3a054503          	lbu	a0,928(a0) # 20003ea4 <gTmosPara>
20000b0c:	00251713          	slli	a4,a0,0x2
20000b10:	97ba                	add	a5,a5,a4
20000b12:	439c                	lw	a5,0(a5)
20000b14:	9782                	jalr	a5
20000b16:	00003797          	auipc	a5,0x3
20000b1a:	3da7d783          	lhu	a5,986(a5) # 20003ef0 <eventsClear>
20000b1e:	00003717          	auipc	a4,0x3
20000b22:	38674703          	lbu	a4,902(a4) # 20003ea4 <gTmosPara>
20000b26:	fff7c793          	not	a5,a5
20000b2a:	8d7d                	and	a0,a0,a5
20000b2c:	00171793          	slli	a5,a4,0x1
20000b30:	4098                	lw	a4,0(s1)
20000b32:	973e                	add	a4,a4,a5
20000b34:	00075783          	lhu	a5,0(a4)
20000b38:	8d5d                	or	a0,a0,a5
20000b3a:	00a71023          	sh	a0,0(a4)
20000b3e:	00003797          	auipc	a5,0x3
20000b42:	3667c783          	lbu	a5,870(a5) # 20003ea4 <gTmosPara>
20000b46:	c791                	beqz	a5,20000b52 <TMOS_SystemProcess+0x1d6>
20000b48:	0785                	addi	a5,a5,1
20000b4a:	00003717          	auipc	a4,0x3
20000b4e:	34f70d23          	sb	a5,858(a4) # 20003ea4 <gTmosPara>
20000b52:	00003717          	auipc	a4,0x3
20000b56:	35274703          	lbu	a4,850(a4) # 20003ea4 <gTmosPara>
20000b5a:	00003797          	auipc	a5,0x3
20000b5e:	34b7c783          	lbu	a5,843(a5) # 20003ea5 <gTmosPara+0x1>
20000b62:	ecf775e3          	bgeu	a4,a5,20000a2c <TMOS_SystemProcess+0xb0>
20000b66:	40b2                	lw	ra,12(sp)
20000b68:	4422                	lw	s0,8(sp)
20000b6a:	4492                	lw	s1,4(sp)
20000b6c:	4902                	lw	s2,0(sp)
20000b6e:	0141                	addi	sp,sp,16
20000b70:	8082                	ret
20000b72:	00179713          	slli	a4,a5,0x1
20000b76:	9732                	add	a4,a4,a2
20000b78:	00075703          	lhu	a4,0(a4)
20000b7c:	f76d                	bnez	a4,20000b66 <TMOS_SystemProcess+0x1ea>
20000b7e:	0785                	addi	a5,a5,1
20000b80:	bf35                	j	20000abc <TMOS_SystemProcess+0x140>

20000b82 <clockGetHSEValue>:
clockGetHSEValue():
20000b82:	67ad                	lui	a5,0xb
20000b84:	4000c737          	lui	a4,0x4000c
20000b88:	07bd                	addi	a5,a5,15
20000b8a:	20f72623          	sw	a5,524(a4) # 4000c20c <_eusrstack+0x2000420c>
20000b8e:	0000100f          	fence.i
20000b92:	00003797          	auipc	a5,0x3
20000b96:	31278793          	addi	a5,a5,786 # 20003ea4 <gTmosPara>
20000b9a:	4fc8                	lw	a0,28(a5)
20000b9c:	26872783          	lw	a5,616(a4)
20000ba0:	66bd                	lui	a3,0xf
20000ba2:	06bd                	addi	a3,a3,15
20000ba4:	fff7c793          	not	a5,a5
20000ba8:	8399                	srli	a5,a5,0x6
20000baa:	056a                	slli	a0,a0,0x1a
20000bac:	20d72623          	sw	a3,524(a4)
20000bb0:	8d5d                	or	a0,a0,a5
20000bb2:	8082                	ret

20000bb4 <clockGetLSEValue>:
clockGetLSEValue():
20000bb4:	1141                	addi	sp,sp,-16
20000bb6:	400017b7          	lui	a5,0x40001
20000bba:	5f98                	lw	a4,56(a5)
20000bbc:	c63a                	sw	a4,12(sp)
20000bbe:	5f94                	lw	a3,56(a5)
20000bc0:	4732                	lw	a4,12(sp)
20000bc2:	fee69ce3          	bne	a3,a4,20000bba <clockGetLSEValue+0x6>
20000bc6:	4532                	lw	a0,12(sp)
20000bc8:	0141                	addi	sp,sp,16
20000bca:	8082                	ret

20000bcc <TMOS_TimerIRQHandler>:
TMOS_TimerIRQHandler():
20000bcc:	8082                	ret

20000bce <ll_connect_send_data>:
ll_connect_send_data():
20000bce:	11852703          	lw	a4,280(a0)
20000bd2:	12070063          	beqz	a4,20000cf2 <ll_connect_send_data+0x124>
20000bd6:	1141                	addi	sp,sp,-16
20000bd8:	c422                	sw	s0,8(sp)
20000bda:	c606                	sw	ra,12(sp)
20000bdc:	00c54783          	lbu	a5,12(a0)
20000be0:	04c54583          	lbu	a1,76(a0)
20000be4:	842a                	mv	s0,a0
20000be6:	0fc7f793          	andi	a5,a5,252
20000bea:	00f50623          	sb	a5,12(a0)
20000bee:	00974683          	lbu	a3,9(a4)
20000bf2:	00c75603          	lhu	a2,12(a4)
20000bf6:	01869513          	slli	a0,a3,0x18
20000bfa:	8561                	srai	a0,a0,0x18
20000bfc:	08c5f163          	bgeu	a1,a2,20000c7e <ll_connect_send_data+0xb0>
20000c00:	06055a63          	bgez	a0,20000c74 <ll_connect_send_data+0xa6>
20000c04:	00874503          	lbu	a0,8(a4)
20000c08:	07f6f693          	andi	a3,a3,127
20000c0c:	00d704a3          	sb	a3,9(a4)
20000c10:	4605                	li	a2,1
20000c12:	0027e693          	ori	a3,a5,2
20000c16:	00c51463          	bne	a0,a2,20000c1e <ll_connect_send_data+0x50>
20000c1a:	0017e693          	ori	a3,a5,1
20000c1e:	00d40623          	sb	a3,12(s0)
20000c22:	435c                	lw	a5,4(a4)
20000c24:	0789                	addi	a5,a5,2
20000c26:	c35c                	sw	a5,4(a4)
20000c28:	00b40aa3          	sb	a1,21(s0)
20000c2c:	11042503          	lw	a0,272(s0)
20000c30:	862e                	mv	a2,a1
20000c32:	434c                	lw	a1,4(a4)
20000c34:	0509                	addi	a0,a0,2
20000c36:	3601                	jal	20000736 <tmos_memcpy>
20000c38:	11842783          	lw	a5,280(s0)
20000c3c:	01544603          	lbu	a2,21(s0)
20000c40:	43d4                	lw	a3,4(a5)
20000c42:	00c7d703          	lhu	a4,12(a5) # 4000100c <_eusrstack+0x1fff900c>
20000c46:	96b2                	add	a3,a3,a2
20000c48:	8f11                	sub	a4,a4,a2
20000c4a:	c3d4                	sw	a3,4(a5)
20000c4c:	00e79623          	sh	a4,12(a5)
20000c50:	4789                	li	a5,2
20000c52:	00f40da3          	sb	a5,27(s0)
20000c56:	03444703          	lbu	a4,52(s0)
20000c5a:	00003797          	auipc	a5,0x3
20000c5e:	2b47c783          	lbu	a5,692(a5) # 20003f0e <ble+0x12>
20000c62:	04f77863          	bgeu	a4,a5,20000cb2 <ll_connect_send_data+0xe4>
20000c66:	00c44783          	lbu	a5,12(s0)
20000c6a:	0107e793          	ori	a5,a5,16
20000c6e:	00f40623          	sb	a5,12(s0)
20000c72:	a081                	j	20000cb2 <ll_connect_send_data+0xe4>
20000c74:	0017e793          	ori	a5,a5,1
20000c78:	00f40623          	sb	a5,12(s0)
20000c7c:	b775                	j	20000c28 <ll_connect_send_data+0x5a>
20000c7e:	0ff67693          	andi	a3,a2,255
20000c82:	02055d63          	bgez	a0,20000cbc <ll_connect_send_data+0xee>
20000c86:	00874503          	lbu	a0,8(a4)
20000c8a:	4585                	li	a1,1
20000c8c:	0027e613          	ori	a2,a5,2
20000c90:	00b51463          	bne	a0,a1,20000c98 <ll_connect_send_data+0xca>
20000c94:	0017e613          	ori	a2,a5,1
20000c98:	00c40623          	sb	a2,12(s0)
20000c9c:	00d40aa3          	sb	a3,21(s0)
20000ca0:	000704a3          	sb	zero,9(a4)
20000ca4:	4785                	li	a5,1
20000ca6:	00f40da3          	sb	a5,27(s0)
20000caa:	11842783          	lw	a5,280(s0)
20000cae:	439c                	lw	a5,0(a5)
20000cb0:	f3dd                	bnez	a5,20000c56 <ll_connect_send_data+0x88>
20000cb2:	40b2                	lw	ra,12(sp)
20000cb4:	4422                	lw	s0,8(sp)
20000cb6:	4501                	li	a0,0
20000cb8:	0141                	addi	sp,sp,16
20000cba:	8082                	ret
20000cbc:	0017e793          	ori	a5,a5,1
20000cc0:	00f40623          	sb	a5,12(s0)
20000cc4:	00d40aa3          	sb	a3,21(s0)
20000cc8:	000704a3          	sb	zero,9(a4)
20000ccc:	11042503          	lw	a0,272(s0)
20000cd0:	434c                	lw	a1,4(a4)
20000cd2:	0509                	addi	a0,a0,2
20000cd4:	348d                	jal	20000736 <tmos_memcpy>
20000cd6:	11842783          	lw	a5,280(s0)
20000cda:	01544603          	lbu	a2,21(s0)
20000cde:	43d4                	lw	a3,4(a5)
20000ce0:	00c7d703          	lhu	a4,12(a5)
20000ce4:	96b2                	add	a3,a3,a2
20000ce6:	8f11                	sub	a4,a4,a2
20000ce8:	c3d4                	sw	a3,4(a5)
20000cea:	00e79623          	sh	a4,12(a5)
20000cee:	478d                	li	a5,3
20000cf0:	bf5d                	j	20000ca6 <ll_connect_send_data+0xd8>
20000cf2:	4505                	li	a0,1
20000cf4:	8082                	ret

20000cf6 <ll_connect_recv_data>:
ll_connect_recv_data():
20000cf6:	00003797          	auipc	a5,0x3
20000cfa:	38a78793          	addi	a5,a5,906 # 20004080 <llRecvDataDisable>
20000cfe:	439c                	lw	a5,0(a5)
20000d00:	1141                	addi	sp,sp,-16
20000d02:	c422                	sw	s0,8(sp)
20000d04:	c606                	sw	ra,12(sp)
20000d06:	8b85                	andi	a5,a5,1
20000d08:	842a                	mv	s0,a0
20000d0a:	efc5                	bnez	a5,20000dc2 <ll_connect_recv_data+0xcc>
20000d0c:	6541                	lui	a0,0x10
20000d0e:	f5250513          	addi	a0,a0,-174 # ff52 <HOST_LE_PeriodicAdvertisingSyncEstablishedEvent+0x8a>
20000d12:	e0012097          	auipc	ra,0xe0012
20000d16:	9be080e7          	jalr	-1602(ra) # 126d0 <LL_CoreGetDataList>
20000d1a:	c545                	beqz	a0,20000dc2 <ll_connect_recv_data+0xcc>
20000d1c:	00a54783          	lbu	a5,10(a0)
20000d20:	00f51523          	sh	a5,10(a0)
20000d24:	12042783          	lw	a5,288(s0)
20000d28:	e7bd                	bnez	a5,20000d96 <ll_connect_recv_data+0xa0>
20000d2a:	12a42023          	sw	a0,288(s0)
20000d2e:	12a42223          	sw	a0,292(s0)
20000d32:	4785                	li	a5,1
20000d34:	04f41023          	sh	a5,64(s0)
20000d38:	00052023          	sw	zero,0(a0)
20000d3c:	01644783          	lbu	a5,22(s0)
20000d40:	4154                	lw	a3,4(a0)
20000d42:	00f51623          	sh	a5,12(a0)
20000d46:	00d44703          	lbu	a4,13(s0)
20000d4a:	00e50423          	sb	a4,8(a0)
20000d4e:	4705                	li	a4,1
20000d50:	00e504a3          	sb	a4,9(a0)
20000d54:	00003717          	auipc	a4,0x3
20000d58:	34070713          	addi	a4,a4,832 # 20004094 <gBleIPPara>
20000d5c:	4f18                	lw	a4,24(a4)
20000d5e:	02178513          	addi	a0,a5,33
20000d62:	8115                	srli	a0,a0,0x5
20000d64:	431c                	lw	a5,0(a4)
20000d66:	157d                	addi	a0,a0,-1
20000d68:	0ff57513          	andi	a0,a0,255
20000d6c:	c29c                	sw	a5,0(a3)
20000d6e:	435c                	lw	a5,4(a4)
20000d70:	c2dc                	sw	a5,4(a3)
20000d72:	471c                	lw	a5,8(a4)
20000d74:	c69c                	sw	a5,8(a3)
20000d76:	475c                	lw	a5,12(a4)
20000d78:	c6dc                	sw	a5,12(a3)
20000d7a:	4b1c                	lw	a5,16(a4)
20000d7c:	ca9c                	sw	a5,16(a3)
20000d7e:	4b5c                	lw	a5,20(a4)
20000d80:	cadc                	sw	a5,20(a3)
20000d82:	4f1c                	lw	a5,24(a4)
20000d84:	ce9c                	sw	a5,24(a3)
20000d86:	4f5c                	lw	a5,28(a4)
20000d88:	cedc                	sw	a5,28(a3)
20000d8a:	cd19                	beqz	a0,20000da8 <ll_connect_recv_data+0xb2>
20000d8c:	02068693          	addi	a3,a3,32 # f020 <smProcessDataMsg+0x44>
20000d90:	02070713          	addi	a4,a4,32
20000d94:	bfc1                	j	20000d64 <ll_connect_recv_data+0x6e>
20000d96:	12442783          	lw	a5,292(s0)
20000d9a:	c388                	sw	a0,0(a5)
20000d9c:	04045783          	lhu	a5,64(s0)
20000da0:	12a42223          	sw	a0,292(s0)
20000da4:	0785                	addi	a5,a5,1
20000da6:	b779                	j	20000d34 <ll_connect_recv_data+0x3e>
20000da8:	00003797          	auipc	a5,0x3
20000dac:	3c07d783          	lhu	a5,960(a5) # 20004168 <gBleLlPara+0x8>
20000db0:	0785                	addi	a5,a5,1
20000db2:	00003717          	auipc	a4,0x3
20000db6:	3af71b23          	sh	a5,950(a4) # 20004168 <gBleLlPara+0x8>
20000dba:	40b2                	lw	ra,12(sp)
20000dbc:	4422                	lw	s0,8(sp)
20000dbe:	0141                	addi	sp,sp,16
20000dc0:	8082                	ret
20000dc2:	00c44783          	lbu	a5,12(s0)
20000dc6:	00040923          	sb	zero,18(s0)
20000dca:	4505                	li	a0,1
20000dcc:	0047c793          	xori	a5,a5,4
20000dd0:	00f40623          	sb	a5,12(s0)
20000dd4:	b7dd                	j	20000dba <ll_connect_recv_data+0xc4>

20000dd6 <ll_connect_event_continue>:
ll_connect_event_continue():
20000dd6:	01854783          	lbu	a5,24(a0)
20000dda:	0fe7f793          	andi	a5,a5,254
20000dde:	ebcd                	bnez	a5,20000e90 <ll_connect_event_continue+0xba>
20000de0:	01954783          	lbu	a5,25(a0)
20000de4:	e7d5                	bnez	a5,20000e90 <ll_connect_event_continue+0xba>
20000de6:	01254603          	lbu	a2,18(a0)
20000dea:	00c54683          	lbu	a3,12(a0)
20000dee:	ca09                	beqz	a2,20000e00 <ll_connect_event_continue+0x2a>
20000df0:	03454583          	lbu	a1,52(a0)
20000df4:	00003717          	auipc	a4,0x3
20000df8:	11b74703          	lbu	a4,283(a4) # 20003f0f <ble+0x13>
20000dfc:	00e5e763          	bltu	a1,a4,20000e0a <ll_connect_event_continue+0x34>
20000e00:	0106f713          	andi	a4,a3,16
20000e04:	c759                	beqz	a4,20000e92 <ll_connect_event_continue+0xbc>
20000e06:	4701                	li	a4,0
20000e08:	c609                	beqz	a2,20000e12 <ll_connect_event_continue+0x3c>
20000e0a:	8ac1                	andi	a3,a3,16
20000e0c:	1b855703          	lhu	a4,440(a0)
20000e10:	c681                	beqz	a3,20000e18 <ll_connect_event_continue+0x42>
20000e12:	1bc55683          	lhu	a3,444(a0)
20000e16:	9736                	add	a4,a4,a3
20000e18:	cf2d                	beqz	a4,20000e92 <ll_connect_event_continue+0xbc>
20000e1a:	000f47b7          	lui	a5,0xf4
20000e1e:	00003697          	auipc	a3,0x3
20000e22:	0ae6d683          	lhu	a3,174(a3) # 20003ecc <gTmosPara+0x28>
20000e26:	24078793          	addi	a5,a5,576 # f4240 <_data_lma+0xcfdd0>
20000e2a:	02d7c7b3          	div	a5,a5,a3
20000e2e:	12c70713          	addi	a4,a4,300
20000e32:	1141                	addi	sp,sp,-16
20000e34:	c226                	sw	s1,4(sp)
20000e36:	c422                	sw	s0,8(sp)
20000e38:	c606                	sw	ra,12(sp)
20000e3a:	547d                	li	s0,-1
20000e3c:	02f75733          	divu	a4,a4,a5
20000e40:	00003797          	auipc	a5,0x3
20000e44:	0d57c783          	lbu	a5,213(a5) # 20003f15 <ble+0x19>
20000e48:	00e784b3          	add	s1,a5,a4
20000e4c:	00003797          	auipc	a5,0x3
20000e50:	31478793          	addi	a5,a5,788 # 20004160 <gBleLlPara>
20000e54:	08c7a683          	lw	a3,140(a5)
20000e58:	0906a783          	lw	a5,144(a3)
20000e5c:	0087f363          	bgeu	a5,s0,20000e62 <ll_connect_event_continue+0x8c>
20000e60:	843e                	mv	s0,a5
20000e62:	4294                	lw	a3,0(a3)
20000e64:	faf5                	bnez	a3,20000e58 <ll_connect_event_continue+0x82>
20000e66:	00003797          	auipc	a5,0x3
20000e6a:	0da78793          	addi	a5,a5,218 # 20003f40 <fnGetClockCBs>
20000e6e:	439c                	lw	a5,0(a5)
20000e70:	9782                	jalr	a5
20000e72:	4781                	li	a5,0
20000e74:	00a46463          	bltu	s0,a0,20000e7c <ll_connect_event_continue+0xa6>
20000e78:	40a407b3          	sub	a5,s0,a0
20000e7c:	40b2                	lw	ra,12(sp)
20000e7e:	4422                	lw	s0,8(sp)
20000e80:	0097b7b3          	sltu	a5,a5,s1
20000e84:	0017c793          	xori	a5,a5,1
20000e88:	4492                	lw	s1,4(sp)
20000e8a:	853e                	mv	a0,a5
20000e8c:	0141                	addi	sp,sp,16
20000e8e:	8082                	ret
20000e90:	4781                	li	a5,0
20000e92:	853e                	mv	a0,a5
20000e94:	8082                	ret

20000e96 <LL_HopGetChannel>:
LL_HopGetChannel():
20000e96:	7179                	addi	sp,sp,-48
20000e98:	d226                	sw	s1,36(sp)
20000e9a:	d606                	sw	ra,44(sp)
20000e9c:	d422                	sw	s0,40(sp)
20000e9e:	d04a                	sw	s2,32(sp)
20000ea0:	ce4e                	sw	s3,28(sp)
20000ea2:	cc52                	sw	s4,24(sp)
20000ea4:	ca56                	sw	s5,20(sp)
20000ea6:	c85a                	sw	s6,16(sp)
20000ea8:	c65e                	sw	s7,12(sp)
20000eaa:	03354783          	lbu	a5,51(a0)
20000eae:	13754403          	lbu	s0,311(a0)
20000eb2:	84aa                	mv	s1,a0
20000eb4:	943e                	add	s0,s0,a5
20000eb6:	0ff47413          	andi	s0,s0,255
20000eba:	02400793          	li	a5,36
20000ebe:	0087f663          	bgeu	a5,s0,20000eca <LL_HopGetChannel+0x34>
20000ec2:	fdb40413          	addi	s0,s0,-37
20000ec6:	0ff47413          	andi	s0,s0,255
20000eca:	1384aa03          	lw	s4,312(s1)
20000ece:	13c4aa83          	lw	s5,316(s1)
20000ed2:	12848ba3          	sb	s0,311(s1)
20000ed6:	8622                	mv	a2,s0
20000ed8:	8552                	mv	a0,s4
20000eda:	85d6                	mv	a1,s5
20000edc:	e0021097          	auipc	ra,0xe0021
20000ee0:	438080e7          	jalr	1080(ra) # 22314 <__lshrdi3>
20000ee4:	8905                	andi	a0,a0,1
20000ee6:	e515                	bnez	a0,20000f12 <LL_HopGetChannel+0x7c>
20000ee8:	12d4cb03          	lbu	s6,301(s1)
20000eec:	4901                	li	s2,0
20000eee:	4981                	li	s3,0
20000ef0:	03647b33          	remu	s6,s0,s6
20000ef4:	02500b93          	li	s7,37
20000ef8:	864a                	mv	a2,s2
20000efa:	8552                	mv	a0,s4
20000efc:	85d6                	mv	a1,s5
20000efe:	e0021097          	auipc	ra,0xe0021
20000f02:	416080e7          	jalr	1046(ra) # 22314 <__lshrdi3>
20000f06:	8905                	andi	a0,a0,1
20000f08:	c515                	beqz	a0,20000f34 <LL_HopGetChannel+0x9e>
20000f0a:	03699163          	bne	s3,s6,20000f2c <LL_HopGetChannel+0x96>
20000f0e:	0ff97413          	andi	s0,s2,255
20000f12:	12848b23          	sb	s0,310(s1)
20000f16:	50b2                	lw	ra,44(sp)
20000f18:	5422                	lw	s0,40(sp)
20000f1a:	5492                	lw	s1,36(sp)
20000f1c:	5902                	lw	s2,32(sp)
20000f1e:	49f2                	lw	s3,28(sp)
20000f20:	4a62                	lw	s4,24(sp)
20000f22:	4ad2                	lw	s5,20(sp)
20000f24:	4b42                	lw	s6,16(sp)
20000f26:	4bb2                	lw	s7,12(sp)
20000f28:	6145                	addi	sp,sp,48
20000f2a:	8082                	ret
20000f2c:	0985                	addi	s3,s3,1
20000f2e:	09e2                	slli	s3,s3,0x18
20000f30:	4189d993          	srai	s3,s3,0x18
20000f34:	0905                	addi	s2,s2,1
20000f36:	fd7911e3          	bne	s2,s7,20000ef8 <LL_HopGetChannel+0x62>
20000f3a:	bfe1                	j	20000f12 <LL_HopGetChannel+0x7c>

20000f3c <LL_HopGetChannel2>:
LL_HopGetChannel2():
20000f3c:	09852783          	lw	a5,152(a0)
20000f40:	03e55603          	lhu	a2,62(a0)
20000f44:	7179                	addi	sp,sp,-48
20000f46:	0107d693          	srli	a3,a5,0x10
20000f4a:	8ebd                	xor	a3,a3,a5
20000f4c:	06c2                	slli	a3,a3,0x10
20000f4e:	82c1                	srli	a3,a3,0x10
20000f50:	8e35                	xor	a2,a2,a3
20000f52:	40765713          	srai	a4,a2,0x7
20000f56:	40565793          	srai	a5,a2,0x5
20000f5a:	8b89                	andi	a5,a5,2
20000f5c:	8b05                	andi	a4,a4,1
20000f5e:	8f5d                	or	a4,a4,a5
20000f60:	40365793          	srai	a5,a2,0x3
20000f64:	8b91                	andi	a5,a5,4
20000f66:	8f5d                	or	a4,a4,a5
20000f68:	40165793          	srai	a5,a2,0x1
20000f6c:	8ba1                	andi	a5,a5,8
20000f6e:	8f5d                	or	a4,a4,a5
20000f70:	00161793          	slli	a5,a2,0x1
20000f74:	8bc1                	andi	a5,a5,16
20000f76:	8f5d                	or	a4,a4,a5
20000f78:	00361793          	slli	a5,a2,0x3
20000f7c:	0207f793          	andi	a5,a5,32
20000f80:	8f5d                	or	a4,a4,a5
20000f82:	00561793          	slli	a5,a2,0x5
20000f86:	00865593          	srli	a1,a2,0x8
20000f8a:	0407f793          	andi	a5,a5,64
20000f8e:	061e                	slli	a2,a2,0x7
20000f90:	8f5d                	or	a4,a4,a5
20000f92:	0ff67613          	andi	a2,a2,255
20000f96:	8f51                	or	a4,a4,a2
20000f98:	4055d793          	srai	a5,a1,0x5
20000f9c:	4035d613          	srai	a2,a1,0x3
20000fa0:	8a11                	andi	a2,a2,4
20000fa2:	8b89                	andi	a5,a5,2
20000fa4:	8fd1                	or	a5,a5,a2
20000fa6:	4075d613          	srai	a2,a1,0x7
20000faa:	8fd1                	or	a5,a5,a2
20000fac:	4015d613          	srai	a2,a1,0x1
20000fb0:	8a21                	andi	a2,a2,8
20000fb2:	8fd1                	or	a5,a5,a2
20000fb4:	00159613          	slli	a2,a1,0x1
20000fb8:	8a41                	andi	a2,a2,16
20000fba:	8fd1                	or	a5,a5,a2
20000fbc:	00359613          	slli	a2,a1,0x3
20000fc0:	02067613          	andi	a2,a2,32
20000fc4:	8fd1                	or	a5,a5,a2
20000fc6:	00559613          	slli	a2,a1,0x5
20000fca:	04067613          	andi	a2,a2,64
20000fce:	059e                	slli	a1,a1,0x7
20000fd0:	8fd1                	or	a5,a5,a2
20000fd2:	0ff5f593          	andi	a1,a1,255
20000fd6:	8fcd                	or	a5,a5,a1
20000fd8:	07a2                	slli	a5,a5,0x8
20000fda:	4645                	li	a2,17
20000fdc:	8f5d                	or	a4,a4,a5
20000fde:	02c70733          	mul	a4,a4,a2
20000fe2:	d422                	sw	s0,40(sp)
20000fe4:	842a                	mv	s0,a0
20000fe6:	d226                	sw	s1,36(sp)
20000fe8:	cc52                	sw	s4,24(sp)
20000fea:	ca56                	sw	s5,20(sp)
20000fec:	13842a03          	lw	s4,312(s0)
20000ff0:	13c42a83          	lw	s5,316(s0)
20000ff4:	c85a                	sw	s6,16(sp)
20000ff6:	d606                	sw	ra,44(sp)
20000ff8:	9736                	add	a4,a4,a3
20000ffa:	0742                	slli	a4,a4,0x10
20000ffc:	8341                	srli	a4,a4,0x10
20000ffe:	40775793          	srai	a5,a4,0x7
20001002:	40575513          	srai	a0,a4,0x5
20001006:	8909                	andi	a0,a0,2
20001008:	8b85                	andi	a5,a5,1
2000100a:	8fc9                	or	a5,a5,a0
2000100c:	40375513          	srai	a0,a4,0x3
20001010:	8911                	andi	a0,a0,4
20001012:	8fc9                	or	a5,a5,a0
20001014:	40175513          	srai	a0,a4,0x1
20001018:	8921                	andi	a0,a0,8
2000101a:	8fc9                	or	a5,a5,a0
2000101c:	00171513          	slli	a0,a4,0x1
20001020:	8941                	andi	a0,a0,16
20001022:	8fc9                	or	a5,a5,a0
20001024:	00371513          	slli	a0,a4,0x3
20001028:	02057513          	andi	a0,a0,32
2000102c:	8fc9                	or	a5,a5,a0
2000102e:	00571513          	slli	a0,a4,0x5
20001032:	00875593          	srli	a1,a4,0x8
20001036:	04057513          	andi	a0,a0,64
2000103a:	071e                	slli	a4,a4,0x7
2000103c:	8fc9                	or	a5,a5,a0
2000103e:	0ff77713          	andi	a4,a4,255
20001042:	8fd9                	or	a5,a5,a4
20001044:	4035d513          	srai	a0,a1,0x3
20001048:	4055d713          	srai	a4,a1,0x5
2000104c:	8911                	andi	a0,a0,4
2000104e:	8b09                	andi	a4,a4,2
20001050:	8f49                	or	a4,a4,a0
20001052:	4075d513          	srai	a0,a1,0x7
20001056:	8f49                	or	a4,a4,a0
20001058:	4015d513          	srai	a0,a1,0x1
2000105c:	8921                	andi	a0,a0,8
2000105e:	8f49                	or	a4,a4,a0
20001060:	00159513          	slli	a0,a1,0x1
20001064:	8941                	andi	a0,a0,16
20001066:	8f49                	or	a4,a4,a0
20001068:	00359513          	slli	a0,a1,0x3
2000106c:	02057513          	andi	a0,a0,32
20001070:	8f49                	or	a4,a4,a0
20001072:	00559513          	slli	a0,a1,0x5
20001076:	04057513          	andi	a0,a0,64
2000107a:	059e                	slli	a1,a1,0x7
2000107c:	8f49                	or	a4,a4,a0
2000107e:	0ff5f593          	andi	a1,a1,255
20001082:	8f4d                	or	a4,a4,a1
20001084:	0722                	slli	a4,a4,0x8
20001086:	8fd9                	or	a5,a5,a4
20001088:	02c787b3          	mul	a5,a5,a2
2000108c:	d04a                	sw	s2,32(sp)
2000108e:	ce4e                	sw	s3,28(sp)
20001090:	c65e                	sw	s7,12(sp)
20001092:	c462                	sw	s8,8(sp)
20001094:	97b6                	add	a5,a5,a3
20001096:	07c2                	slli	a5,a5,0x10
20001098:	83c1                	srli	a5,a5,0x10
2000109a:	4077d713          	srai	a4,a5,0x7
2000109e:	4057d513          	srai	a0,a5,0x5
200010a2:	8909                	andi	a0,a0,2
200010a4:	8b05                	andi	a4,a4,1
200010a6:	8f49                	or	a4,a4,a0
200010a8:	4037d513          	srai	a0,a5,0x3
200010ac:	8911                	andi	a0,a0,4
200010ae:	8f49                	or	a4,a4,a0
200010b0:	4017d513          	srai	a0,a5,0x1
200010b4:	8921                	andi	a0,a0,8
200010b6:	8f49                	or	a4,a4,a0
200010b8:	00179513          	slli	a0,a5,0x1
200010bc:	8941                	andi	a0,a0,16
200010be:	8f49                	or	a4,a4,a0
200010c0:	00379513          	slli	a0,a5,0x3
200010c4:	02057513          	andi	a0,a0,32
200010c8:	8f49                	or	a4,a4,a0
200010ca:	00579513          	slli	a0,a5,0x5
200010ce:	0087d593          	srli	a1,a5,0x8
200010d2:	04057513          	andi	a0,a0,64
200010d6:	079e                	slli	a5,a5,0x7
200010d8:	8f49                	or	a4,a4,a0
200010da:	0ff7f793          	andi	a5,a5,255
200010de:	8fd9                	or	a5,a5,a4
200010e0:	4035d513          	srai	a0,a1,0x3
200010e4:	4055d713          	srai	a4,a1,0x5
200010e8:	8911                	andi	a0,a0,4
200010ea:	8b09                	andi	a4,a4,2
200010ec:	8f49                	or	a4,a4,a0
200010ee:	4075d513          	srai	a0,a1,0x7
200010f2:	8f49                	or	a4,a4,a0
200010f4:	4015d513          	srai	a0,a1,0x1
200010f8:	8921                	andi	a0,a0,8
200010fa:	8f49                	or	a4,a4,a0
200010fc:	00159513          	slli	a0,a1,0x1
20001100:	8941                	andi	a0,a0,16
20001102:	8f49                	or	a4,a4,a0
20001104:	00359513          	slli	a0,a1,0x3
20001108:	02057513          	andi	a0,a0,32
2000110c:	8f49                	or	a4,a4,a0
2000110e:	00559513          	slli	a0,a1,0x5
20001112:	04057513          	andi	a0,a0,64
20001116:	059e                	slli	a1,a1,0x7
20001118:	8f49                	or	a4,a4,a0
2000111a:	0ff5f593          	andi	a1,a1,255
2000111e:	8f4d                	or	a4,a4,a1
20001120:	0722                	slli	a4,a4,0x8
20001122:	8fd9                	or	a5,a5,a4
20001124:	02c787b3          	mul	a5,a5,a2
20001128:	02500613          	li	a2,37
2000112c:	8552                	mv	a0,s4
2000112e:	85d6                	mv	a1,s5
20001130:	97b6                	add	a5,a5,a3
20001132:	8ebd                	xor	a3,a3,a5
20001134:	01069493          	slli	s1,a3,0x10
20001138:	80c1                	srli	s1,s1,0x10
2000113a:	02c4f633          	remu	a2,s1,a2
2000113e:	0ff67b13          	andi	s6,a2,255
20001142:	e0021097          	auipc	ra,0xe0021
20001146:	1d2080e7          	jalr	466(ra) # 22314 <__lshrdi3>
2000114a:	8905                	andi	a0,a0,1
2000114c:	ed0d                	bnez	a0,20001186 <LL_HopGetChannel2+0x24a>
2000114e:	12d44783          	lbu	a5,301(s0)
20001152:	4901                	li	s2,0
20001154:	4981                	li	s3,0
20001156:	029784b3          	mul	s1,a5,s1
2000115a:	02500c13          	li	s8,37
2000115e:	80c1                	srli	s1,s1,0x10
20001160:	864a                	mv	a2,s2
20001162:	8552                	mv	a0,s4
20001164:	85d6                	mv	a1,s5
20001166:	e0021097          	auipc	ra,0xe0021
2000116a:	1ae080e7          	jalr	430(ra) # 22314 <__lshrdi3>
2000116e:	8905                	andi	a0,a0,1
20001170:	0ff97b93          	andi	s7,s2,255
20001174:	c511                	beqz	a0,20001180 <LL_HopGetChannel2+0x244>
20001176:	03348663          	beq	s1,s3,200011a2 <LL_HopGetChannel2+0x266>
2000117a:	0985                	addi	s3,s3,1
2000117c:	0ff9f993          	andi	s3,s3,255
20001180:	0905                	addi	s2,s2,1
20001182:	fd891fe3          	bne	s2,s8,20001160 <LL_HopGetChannel2+0x224>
20001186:	13640b23          	sb	s6,310(s0)
2000118a:	50b2                	lw	ra,44(sp)
2000118c:	5422                	lw	s0,40(sp)
2000118e:	5492                	lw	s1,36(sp)
20001190:	5902                	lw	s2,32(sp)
20001192:	49f2                	lw	s3,28(sp)
20001194:	4a62                	lw	s4,24(sp)
20001196:	4ad2                	lw	s5,20(sp)
20001198:	4b42                	lw	s6,16(sp)
2000119a:	4bb2                	lw	s7,12(sp)
2000119c:	4c22                	lw	s8,8(sp)
2000119e:	6145                	addi	sp,sp,48
200011a0:	8082                	ret
200011a2:	8b5e                	mv	s6,s7
200011a4:	b7cd                	j	20001186 <LL_HopGetChannel2+0x24a>

200011a6 <LL_WhitelistLookup>:
LL_WhitelistLookup():
200011a6:	1101                	addi	sp,sp,-32
200011a8:	00003797          	auipc	a5,0x3
200011ac:	fb878793          	addi	a5,a5,-72 # 20004160 <gBleLlPara>
200011b0:	cc22                	sw	s0,24(sp)
200011b2:	0b07a403          	lw	s0,176(a5)
200011b6:	ca26                	sw	s1,20(sp)
200011b8:	ce06                	sw	ra,28(sp)
200011ba:	c42a                	sw	a0,8(sp)
200011bc:	c62e                	sw	a1,12(sp)
200011be:	4485                	li	s1,1
200011c0:	e419                	bnez	s0,200011ce <LL_WhitelistLookup+0x28>
200011c2:	4501                	li	a0,0
200011c4:	40f2                	lw	ra,28(sp)
200011c6:	4462                	lw	s0,24(sp)
200011c8:	44d2                	lw	s1,20(sp)
200011ca:	6105                	addi	sp,sp,32
200011cc:	8082                	ret
200011ce:	00914783          	lbu	a5,9(sp)
200011d2:	00144703          	lbu	a4,1(s0)
200011d6:	8b85                	andi	a5,a5,1
200011d8:	00f70463          	beq	a4,a5,200011e0 <LL_WhitelistLookup+0x3a>
200011dc:	4400                	lw	s0,8(s0)
200011de:	b7cd                	j	200011c0 <LL_WhitelistLookup+0x1a>
200011e0:	4619                	li	a2,6
200011e2:	00a10593          	addi	a1,sp,10
200011e6:	00240513          	addi	a0,s0,2
200011ea:	ddcff0ef          	jal	ra,200007c6 <tmos_memcmp>
200011ee:	fe9517e3          	bne	a0,s1,200011dc <LL_WhitelistLookup+0x36>
200011f2:	4505                	li	a0,1
200011f4:	bfc1                	j	200011c4 <LL_WhitelistLookup+0x1e>

200011f6 <AES_DevAESEnc>:
AES_DevAESEnc():
200011f6:	1101                	addi	sp,sp,-32
200011f8:	cc22                	sw	s0,24(sp)
200011fa:	00003417          	auipc	s0,0x3
200011fe:	eb640413          	addi	s0,s0,-330 # 200040b0 <gptrLLEReg>
20001202:	4018                	lw	a4,0(s0)
20001204:	c62a                	sw	a0,12(sp)
20001206:	c42e                	sw	a1,8(sp)
20001208:	c232                	sw	a2,4(sp)
2000120a:	ce06                	sw	ra,28(sp)
2000120c:	4b3c                	lw	a5,80(a4)
2000120e:	f7f7f793          	andi	a5,a5,-129
20001212:	cb3c                	sw	a5,80(a4)
20001214:	e0017097          	auipc	ra,0xe0017
20001218:	064080e7          	jalr	100(ra) # 18278 <ll_multi_states_check>
2000121c:	4018                	lw	a4,0(s0)
2000121e:	00003697          	auipc	a3,0x3
20001222:	e6a68693          	addi	a3,a3,-406 # 20004088 <gptrAESReg>
20001226:	4b3c                	lw	a5,80(a4)
20001228:	0807e793          	ori	a5,a5,128
2000122c:	cb3c                	sw	a5,80(a4)
2000122e:	429c                	lw	a5,0(a3)
20001230:	4532                	lw	a0,12(sp)
20001232:	45a2                	lw	a1,8(sp)
20001234:	0007a023          	sw	zero,0(a5)
20001238:	00154703          	lbu	a4,1(a0)
2000123c:	00254803          	lbu	a6,2(a0)
20001240:	0722                	slli	a4,a4,0x8
20001242:	0842                	slli	a6,a6,0x10
20001244:	9742                	add	a4,a4,a6
20001246:	00054803          	lbu	a6,0(a0)
2000124a:	9742                	add	a4,a4,a6
2000124c:	00354803          	lbu	a6,3(a0)
20001250:	0862                	slli	a6,a6,0x18
20001252:	9742                	add	a4,a4,a6
20001254:	d798                	sw	a4,40(a5)
20001256:	00554703          	lbu	a4,5(a0)
2000125a:	00654803          	lbu	a6,6(a0)
2000125e:	0722                	slli	a4,a4,0x8
20001260:	0842                	slli	a6,a6,0x10
20001262:	9742                	add	a4,a4,a6
20001264:	00454803          	lbu	a6,4(a0)
20001268:	9742                	add	a4,a4,a6
2000126a:	00754803          	lbu	a6,7(a0)
2000126e:	0862                	slli	a6,a6,0x18
20001270:	9742                	add	a4,a4,a6
20001272:	d7d8                	sw	a4,44(a5)
20001274:	00954703          	lbu	a4,9(a0)
20001278:	00a54803          	lbu	a6,10(a0)
2000127c:	0722                	slli	a4,a4,0x8
2000127e:	0842                	slli	a6,a6,0x10
20001280:	9742                	add	a4,a4,a6
20001282:	00854803          	lbu	a6,8(a0)
20001286:	9742                	add	a4,a4,a6
20001288:	00b54803          	lbu	a6,11(a0)
2000128c:	0862                	slli	a6,a6,0x18
2000128e:	9742                	add	a4,a4,a6
20001290:	db98                	sw	a4,48(a5)
20001292:	00d54703          	lbu	a4,13(a0)
20001296:	00e54803          	lbu	a6,14(a0)
2000129a:	0722                	slli	a4,a4,0x8
2000129c:	0842                	slli	a6,a6,0x10
2000129e:	9742                	add	a4,a4,a6
200012a0:	00c54803          	lbu	a6,12(a0)
200012a4:	00f54503          	lbu	a0,15(a0)
200012a8:	9742                	add	a4,a4,a6
200012aa:	0562                	slli	a0,a0,0x18
200012ac:	972a                	add	a4,a4,a0
200012ae:	dbd8                	sw	a4,52(a5)
200012b0:	0015c703          	lbu	a4,1(a1)
200012b4:	0025c503          	lbu	a0,2(a1)
200012b8:	0722                	slli	a4,a4,0x8
200012ba:	0542                	slli	a0,a0,0x10
200012bc:	972a                	add	a4,a4,a0
200012be:	0005c503          	lbu	a0,0(a1)
200012c2:	972a                	add	a4,a4,a0
200012c4:	0035c503          	lbu	a0,3(a1)
200012c8:	0562                	slli	a0,a0,0x18
200012ca:	972a                	add	a4,a4,a0
200012cc:	cf98                	sw	a4,24(a5)
200012ce:	0055c703          	lbu	a4,5(a1)
200012d2:	0065c503          	lbu	a0,6(a1)
200012d6:	0722                	slli	a4,a4,0x8
200012d8:	0542                	slli	a0,a0,0x10
200012da:	972a                	add	a4,a4,a0
200012dc:	0045c503          	lbu	a0,4(a1)
200012e0:	972a                	add	a4,a4,a0
200012e2:	0075c503          	lbu	a0,7(a1)
200012e6:	0562                	slli	a0,a0,0x18
200012e8:	972a                	add	a4,a4,a0
200012ea:	cfd8                	sw	a4,28(a5)
200012ec:	0095c703          	lbu	a4,9(a1)
200012f0:	00a5c503          	lbu	a0,10(a1)
200012f4:	0722                	slli	a4,a4,0x8
200012f6:	0542                	slli	a0,a0,0x10
200012f8:	972a                	add	a4,a4,a0
200012fa:	0085c503          	lbu	a0,8(a1)
200012fe:	972a                	add	a4,a4,a0
20001300:	00b5c503          	lbu	a0,11(a1)
20001304:	0562                	slli	a0,a0,0x18
20001306:	972a                	add	a4,a4,a0
20001308:	d398                	sw	a4,32(a5)
2000130a:	00d5c703          	lbu	a4,13(a1)
2000130e:	00e5c503          	lbu	a0,14(a1)
20001312:	0722                	slli	a4,a4,0x8
20001314:	0542                	slli	a0,a0,0x10
20001316:	972a                	add	a4,a4,a0
20001318:	00c5c503          	lbu	a0,12(a1)
2000131c:	00f5c583          	lbu	a1,15(a1)
20001320:	972a                	add	a4,a4,a0
20001322:	05e2                	slli	a1,a1,0x18
20001324:	972e                	add	a4,a4,a1
20001326:	d3d8                	sw	a4,36(a5)
20001328:	43d8                	lw	a4,4(a5)
2000132a:	9b75                	andi	a4,a4,-3
2000132c:	c3d8                	sw	a4,4(a5)
2000132e:	43d8                	lw	a4,4(a5)
20001330:	00176713          	ori	a4,a4,1
20001334:	c3d8                	sw	a4,4(a5)
20001336:	4398                	lw	a4,0(a5)
20001338:	00176713          	ori	a4,a4,1
2000133c:	c398                	sw	a4,0(a5)
2000133e:	4612                	lw	a2,4(sp)
20001340:	4298                	lw	a4,0(a3)
20001342:	435c                	lw	a5,4(a4)
20001344:	8b85                	andi	a5,a5,1
20001346:	e7d1                	bnez	a5,200013d2 <AES_DevAESEnc+0x1dc>
20001348:	4f1c                	lw	a5,24(a4)
2000134a:	4501                	li	a0,0
2000134c:	00f60023          	sb	a5,0(a2)
20001350:	429c                	lw	a5,0(a3)
20001352:	4f9c                	lw	a5,24(a5)
20001354:	83a1                	srli	a5,a5,0x8
20001356:	00f600a3          	sb	a5,1(a2)
2000135a:	429c                	lw	a5,0(a3)
2000135c:	4f9c                	lw	a5,24(a5)
2000135e:	83c1                	srli	a5,a5,0x10
20001360:	00f60123          	sb	a5,2(a2)
20001364:	429c                	lw	a5,0(a3)
20001366:	4f9c                	lw	a5,24(a5)
20001368:	83e1                	srli	a5,a5,0x18
2000136a:	00f601a3          	sb	a5,3(a2)
2000136e:	429c                	lw	a5,0(a3)
20001370:	4fd8                	lw	a4,28(a5)
20001372:	00e60223          	sb	a4,4(a2)
20001376:	4fd8                	lw	a4,28(a5)
20001378:	8321                	srli	a4,a4,0x8
2000137a:	00e602a3          	sb	a4,5(a2)
2000137e:	4fd8                	lw	a4,28(a5)
20001380:	8341                	srli	a4,a4,0x10
20001382:	00e60323          	sb	a4,6(a2)
20001386:	4fd8                	lw	a4,28(a5)
20001388:	8361                	srli	a4,a4,0x18
2000138a:	00e603a3          	sb	a4,7(a2)
2000138e:	5398                	lw	a4,32(a5)
20001390:	00e60423          	sb	a4,8(a2)
20001394:	5398                	lw	a4,32(a5)
20001396:	8321                	srli	a4,a4,0x8
20001398:	00e604a3          	sb	a4,9(a2)
2000139c:	5398                	lw	a4,32(a5)
2000139e:	8341                	srli	a4,a4,0x10
200013a0:	00e60523          	sb	a4,10(a2)
200013a4:	5398                	lw	a4,32(a5)
200013a6:	8361                	srli	a4,a4,0x18
200013a8:	00e605a3          	sb	a4,11(a2)
200013ac:	53d8                	lw	a4,36(a5)
200013ae:	00e60623          	sb	a4,12(a2)
200013b2:	53d8                	lw	a4,36(a5)
200013b4:	8321                	srli	a4,a4,0x8
200013b6:	00e606a3          	sb	a4,13(a2)
200013ba:	53d8                	lw	a4,36(a5)
200013bc:	8341                	srli	a4,a4,0x10
200013be:	00e60723          	sb	a4,14(a2)
200013c2:	53dc                	lw	a5,36(a5)
200013c4:	83e1                	srli	a5,a5,0x18
200013c6:	00f607a3          	sb	a5,15(a2)
200013ca:	40f2                	lw	ra,28(sp)
200013cc:	4462                	lw	s0,24(sp)
200013ce:	6105                	addi	sp,sp,32
200013d0:	8082                	ret
200013d2:	0001                	nop
200013d4:	b7b5                	j	20001340 <AES_DevAESEnc+0x14a>

200013d6 <BB_IRQLibHandler>:
BB_IRQLibHandler():
200013d6:	715d                	addi	sp,sp,-80
200013d8:	d23a                	sw	a4,36(sp)
200013da:	00003717          	auipc	a4,0x3
200013de:	cb270713          	addi	a4,a4,-846 # 2000408c <gptrBBReg>
200013e2:	d436                	sw	a3,40(sp)
200013e4:	4314                	lw	a3,0(a4)
200013e6:	d03e                	sw	a5,32(sp)
200013e8:	de22                	sw	s0,60(sp)
200013ea:	5e9c                	lw	a5,56(a3)
200013ec:	ca4a                	sw	s2,20(sp)
200013ee:	c686                	sw	ra,76(sp)
200013f0:	8399                	srli	a5,a5,0x6
200013f2:	c496                	sw	t0,72(sp)
200013f4:	c29a                	sw	t1,68(sp)
200013f6:	c09e                	sw	t2,64(sp)
200013f8:	dc26                	sw	s1,56(sp)
200013fa:	da2a                	sw	a0,52(sp)
200013fc:	d82e                	sw	a1,48(sp)
200013fe:	d632                	sw	a2,44(sp)
20001400:	ce42                	sw	a6,28(sp)
20001402:	cc46                	sw	a7,24(sp)
20001404:	c872                	sw	t3,16(sp)
20001406:	c676                	sw	t4,12(sp)
20001408:	c47a                	sw	t5,8(sp)
2000140a:	c27e                	sw	t6,4(sp)
2000140c:	8b85                	andi	a5,a5,1
2000140e:	843a                	mv	s0,a4
20001410:	00003917          	auipc	s2,0x3
20001414:	c7890913          	addi	s2,s2,-904 # 20004088 <gptrAESReg>
20001418:	cbd1                	beqz	a5,200014ac <BB_IRQLibHandler+0xd6>
2000141a:	5e9c                	lw	a5,56(a3)
2000141c:	00003497          	auipc	s1,0x3
20001420:	c7848493          	addi	s1,s1,-904 # 20004094 <gBleIPPara>
20001424:	f9f7f793          	andi	a5,a5,-97
20001428:	de9c                	sw	a5,56(a3)
2000142a:	00003717          	auipc	a4,0x3
2000142e:	c7074703          	lbu	a4,-912(a4) # 2000409a <gBleIPPara+0x6>
20001432:	08000793          	li	a5,128
20001436:	00f71b63          	bne	a4,a5,2000144c <BB_IRQLibHandler+0x76>
2000143a:	00092783          	lw	a5,0(s2)
2000143e:	439c                	lw	a5,0(a5)
20001440:	0407f793          	andi	a5,a5,64
20001444:	00003717          	auipc	a4,0x3
20001448:	c4f70b23          	sb	a5,-938(a4) # 2000409a <gBleIPPara+0x6>
2000144c:	0004c783          	lbu	a5,0(s1)
20001450:	0407f793          	andi	a5,a5,64
20001454:	c39d                	beqz	a5,2000147a <BB_IRQLibHandler+0xa4>
20001456:	00003797          	auipc	a5,0x3
2000145a:	aea78793          	addi	a5,a5,-1302 # 20003f40 <fnGetClockCBs>
2000145e:	439c                	lw	a5,0(a5)
20001460:	9782                	jalr	a5
20001462:	00003797          	auipc	a5,0x3
20001466:	c4a7a123          	sw	a0,-958(a5) # 200040a4 <gBleIPPara+0x10>
2000146a:	0004c783          	lbu	a5,0(s1)
2000146e:	0bf7f793          	andi	a5,a5,191
20001472:	00003717          	auipc	a4,0x3
20001476:	c2f70123          	sb	a5,-990(a4) # 20004094 <gBleIPPara>
2000147a:	0044c783          	lbu	a5,4(s1)
2000147e:	0407f793          	andi	a5,a5,64
20001482:	e78d                	bnez	a5,200014ac <BB_IRQLibHandler+0xd6>
20001484:	4785                	li	a5,1
20001486:	00003717          	auipc	a4,0x3
2000148a:	c0f709a3          	sb	a5,-1005(a4) # 20004099 <gBleIPPara+0x5>
2000148e:	00003797          	auipc	a5,0x3
20001492:	c2278793          	addi	a5,a5,-990 # 200040b0 <gptrLLEReg>
20001496:	439c                	lw	a5,0(a5)
20001498:	6709                	lui	a4,0x2
2000149a:	c798                	sw	a4,8(a5)
2000149c:	fc000713          	li	a4,-64
200014a0:	00003697          	auipc	a3,0x3
200014a4:	bee68c23          	sb	a4,-1032(a3) # 20004098 <gBleIPPara+0x4>
200014a8:	44d8                	lw	a4,12(s1)
200014aa:	d3f8                	sw	a4,100(a5)
200014ac:	401c                	lw	a5,0(s0)
200014ae:	5f98                	lw	a4,56(a5)
200014b0:	8311                	srli	a4,a4,0x4
200014b2:	8b05                	andi	a4,a4,1
200014b4:	cb09                	beqz	a4,200014c6 <BB_IRQLibHandler+0xf0>
200014b6:	5f98                	lw	a4,56(a5)
200014b8:	9b3d                	andi	a4,a4,-17
200014ba:	df98                	sw	a4,56(a5)
200014bc:	4705                	li	a4,1
200014be:	00003697          	auipc	a3,0x3
200014c2:	bce68d23          	sb	a4,-1062(a3) # 20004098 <gBleIPPara+0x4>
200014c6:	5f98                	lw	a4,56(a5)
200014c8:	831d                	srli	a4,a4,0x7
200014ca:	8b05                	andi	a4,a4,1
200014cc:	cb11                	beqz	a4,200014e0 <BB_IRQLibHandler+0x10a>
200014ce:	5f98                	lw	a4,56(a5)
200014d0:	f7f77713          	andi	a4,a4,-129
200014d4:	df98                	sw	a4,56(a5)
200014d6:	4785                	li	a5,1
200014d8:	00003717          	auipc	a4,0x3
200014dc:	bcf70023          	sb	a5,-1088(a4) # 20004098 <gBleIPPara+0x4>
200014e0:	00092783          	lw	a5,0(s2)
200014e4:	43d8                	lw	a4,4(a5)
200014e6:	8305                	srli	a4,a4,0x1
200014e8:	8b05                	andi	a4,a4,1
200014ea:	c719                	beqz	a4,200014f8 <BB_IRQLibHandler+0x122>
200014ec:	43d8                	lw	a4,4(a5)
200014ee:	9b75                	andi	a4,a4,-3
200014f0:	c3d8                	sw	a4,4(a5)
200014f2:	43d8                	lw	a4,4(a5)
200014f4:	9b79                	andi	a4,a4,-2
200014f6:	c3d8                	sw	a4,4(a5)
200014f8:	5472                	lw	s0,60(sp)
200014fa:	40b6                	lw	ra,76(sp)
200014fc:	42a6                	lw	t0,72(sp)
200014fe:	4316                	lw	t1,68(sp)
20001500:	4386                	lw	t2,64(sp)
20001502:	54e2                	lw	s1,56(sp)
20001504:	5552                	lw	a0,52(sp)
20001506:	55c2                	lw	a1,48(sp)
20001508:	5632                	lw	a2,44(sp)
2000150a:	56a2                	lw	a3,40(sp)
2000150c:	5712                	lw	a4,36(sp)
2000150e:	5782                	lw	a5,32(sp)
20001510:	4872                	lw	a6,28(sp)
20001512:	48e2                	lw	a7,24(sp)
20001514:	4952                	lw	s2,20(sp)
20001516:	4e42                	lw	t3,16(sp)
20001518:	4eb2                	lw	t4,12(sp)
2000151a:	4f22                	lw	t5,8(sp)
2000151c:	4f92                	lw	t6,4(sp)
2000151e:	6161                	addi	sp,sp,80
20001520:	30200073          	mret

20001524 <ll_rx_wait_finish>:
ll_rx_wait_finish():
20001524:	00003797          	auipc	a5,0x3
20001528:	b8c78793          	addi	a5,a5,-1140 # 200040b0 <gptrLLEReg>
2000152c:	4394                	lw	a3,0(a5)
2000152e:	00003797          	auipc	a5,0x3
20001532:	b6678793          	addi	a5,a5,-1178 # 20004094 <gBleIPPara>
20001536:	0007c703          	lbu	a4,0(a5)
2000153a:	8b05                	andi	a4,a4,1
2000153c:	cb11                	beqz	a4,20001550 <ll_rx_wait_finish+0x2c>
2000153e:	00003797          	auipc	a5,0x3
20001542:	b4078d23          	sb	zero,-1190(a5) # 20004098 <gBleIPPara+0x4>
20001546:	00003797          	auipc	a5,0x3
2000154a:	b40789a3          	sb	zero,-1197(a5) # 20004099 <gBleIPPara+0x5>
2000154e:	8082                	ret
20001550:	0017c703          	lbu	a4,1(a5)
20001554:	8b05                	andi	a4,a4,1
20001556:	f765                	bnez	a4,2000153e <ll_rx_wait_finish+0x1a>
20001558:	52f8                	lw	a4,100(a3)
2000155a:	ff71                	bnez	a4,20001536 <ll_rx_wait_finish+0x12>
2000155c:	0057c783          	lbu	a5,5(a5)
20001560:	b7dd                	j	20001546 <ll_rx_wait_finish+0x22>

20001562 <ble_ll_chkcrc>:
ble_ll_chkcrc():
20001562:	00003817          	auipc	a6,0x3
20001566:	b2a80813          	addi	a6,a6,-1238 # 2000408c <gptrBBReg>
2000156a:	00082703          	lw	a4,0(a6)
2000156e:	5f1c                	lw	a5,56(a4)
20001570:	8395                	srli	a5,a5,0x5
20001572:	8b85                	andi	a5,a5,1
20001574:	e7d1                	bnez	a5,20001600 <ble_ll_chkcrc+0x9e>
20001576:	c609                	beqz	a2,20001580 <ble_ll_chkcrc+0x1e>
20001578:	5b1c                	lw	a5,48(a4)
2000157a:	83bd                	srli	a5,a5,0xf
2000157c:	00f60023          	sb	a5,0(a2)
20001580:	ca85                	beqz	a3,200015b0 <ble_ll_chkcrc+0x4e>
20001582:	00082783          	lw	a5,0(a6)
20001586:	5b98                	lw	a4,48(a5)
20001588:	0746                	slli	a4,a4,0x11
2000158a:	01675793          	srli	a5,a4,0x16
2000158e:	00075663          	bgez	a4,2000159a <ble_ll_chkcrc+0x38>
20001592:	c007e793          	ori	a5,a5,-1024
20001596:	07c2                	slli	a5,a5,0x10
20001598:	83c1                	srli	a5,a5,0x10
2000159a:	00069703          	lh	a4,0(a3)
2000159e:	07c2                	slli	a5,a5,0x10
200015a0:	87c1                	srai	a5,a5,0x10
200015a2:	c709                	beqz	a4,200015ac <ble_ll_chkcrc+0x4a>
200015a4:	97ba                	add	a5,a5,a4
200015a6:	4709                	li	a4,2
200015a8:	02e7c7b3          	div	a5,a5,a4
200015ac:	00f69023          	sh	a5,0(a3)
200015b0:	cd85                	beqz	a1,200015e8 <ble_ll_chkcrc+0x86>
200015b2:	00154783          	lbu	a5,1(a0)
200015b6:	cb8d                	beqz	a5,200015e8 <ble_ll_chkcrc+0x86>
200015b8:	00003697          	auipc	a3,0x3
200015bc:	ae26c683          	lbu	a3,-1310(a3) # 2000409a <gBleIPPara+0x6>
200015c0:	0406f693          	andi	a3,a3,64
200015c4:	00978713          	addi	a4,a5,9
200015c8:	4789                	li	a5,2
200015ca:	ca8d                	beqz	a3,200015fc <ble_ll_chkcrc+0x9a>
200015cc:	953a                	add	a0,a0,a4
200015ce:	00054703          	lbu	a4,0(a0)
200015d2:	4685                	li	a3,1
200015d4:	4799                	li	a5,6
200015d6:	06f77613          	andi	a2,a4,111
200015da:	02d61163          	bne	a2,a3,200015fc <ble_ll_chkcrc+0x9a>
200015de:	0762                	slli	a4,a4,0x18
200015e0:	8761                	srai	a4,a4,0x18
200015e2:	47b9                	li	a5,14
200015e4:	00074c63          	bltz	a4,200015fc <ble_ll_chkcrc+0x9a>
200015e8:	00082783          	lw	a5,0(a6)
200015ec:	5f9c                	lw	a5,56(a5)
200015ee:	83ed                	srli	a5,a5,0x1b
200015f0:	8b8d                	andi	a5,a5,3
200015f2:	00003717          	auipc	a4,0x3
200015f6:	aaf706a3          	sb	a5,-1363(a4) # 2000409f <gBleIPPara+0xb>
200015fa:	4781                	li	a5,0
200015fc:	853e                	mv	a0,a5
200015fe:	8082                	ret
20001600:	4785                	li	a5,1
20001602:	bfed                	j	200015fc <ble_ll_chkcrc+0x9a>

20001604 <ll_tx_wait_finish>:
ll_tx_wait_finish():
20001604:	1141                	addi	sp,sp,-16
20001606:	c422                	sw	s0,8(sp)
20001608:	c606                	sw	ra,12(sp)
2000160a:	00003417          	auipc	s0,0x3
2000160e:	aa640413          	addi	s0,s0,-1370 # 200040b0 <gptrLLEReg>
20001612:	4018                	lw	a4,0(s0)
20001614:	e949                	bnez	a0,200016a6 <ll_tx_wait_finish+0xa2>
20001616:	87ae                	mv	a5,a1
20001618:	5374                	lw	a3,100(a4)
2000161a:	fefd                	bnez	a3,20001618 <ll_tx_wait_finish+0x14>
2000161c:	853e                	mv	a0,a5
2000161e:	85b2                	mv	a1,a2
20001620:	00003797          	auipc	a5,0x3
20001624:	a6078b23          	sb	zero,-1418(a5) # 20004096 <gBleIPPara+0x2>
20001628:	e0017097          	auipc	ra,0xe0017
2000162c:	a1e080e7          	jalr	-1506(ra) # 18046 <BLE_SetPHYTxMode>
20001630:	00003797          	auipc	a5,0x3
20001634:	a5c78793          	addi	a5,a5,-1444 # 2000408c <gptrBBReg>
20001638:	439c                	lw	a5,0(a5)
2000163a:	008006b7          	lui	a3,0x800
2000163e:	4398                	lw	a4,0(a5)
20001640:	8f55                	or	a4,a4,a3
20001642:	c398                	sw	a4,0(a5)
20001644:	57d8                	lw	a4,44(a5)
20001646:	9b71                	andi	a4,a4,-4
20001648:	d7d8                	sw	a4,44(a5)
2000164a:	00003797          	auipc	a5,0x3
2000164e:	a40787a3          	sb	zero,-1457(a5) # 20004099 <gBleIPPara+0x5>
20001652:	00003797          	auipc	a5,0x3
20001656:	a40781a3          	sb	zero,-1469(a5) # 20004095 <gBleIPPara+0x1>
2000165a:	401c                	lw	a5,0(s0)
2000165c:	4709                	li	a4,2
2000165e:	c398                	sw	a4,0(a5)
20001660:	e000f7b7          	lui	a5,0xe000f
20001664:	d107a703          	lw	a4,-752(a5) # e000ed10 <_eusrstack+0xc0006d10>
20001668:	9b6d                	andi	a4,a4,-5
2000166a:	d0e7a823          	sw	a4,-752(a5)
2000166e:	d107a703          	lw	a4,-752(a5)
20001672:	9b5d                	andi	a4,a4,-9
20001674:	d0e7a823          	sw	a4,-752(a5)
20001678:	10500073          	wfi
2000167c:	4014                	lw	a3,0(s0)
2000167e:	00003717          	auipc	a4,0x3
20001682:	a1670713          	addi	a4,a4,-1514 # 20004094 <gBleIPPara>
20001686:	00274783          	lbu	a5,2(a4)
2000168a:	8b85                	andi	a5,a5,1
2000168c:	eb89                	bnez	a5,2000169e <ll_tx_wait_finish+0x9a>
2000168e:	00374783          	lbu	a5,3(a4)
20001692:	8b85                	andi	a5,a5,1
20001694:	c7d9                	beqz	a5,20001722 <ll_tx_wait_finish+0x11e>
20001696:	00003797          	auipc	a5,0x3
2000169a:	a0078123          	sb	zero,-1534(a5) # 20004098 <gBleIPPara+0x4>
2000169e:	40b2                	lw	ra,12(sp)
200016a0:	4422                	lw	s0,8(sp)
200016a2:	0141                	addi	sp,sp,16
200016a4:	8082                	ret
200016a6:	478d                	li	a5,3
200016a8:	02f51063          	bne	a0,a5,200016c8 <ll_tx_wait_finish+0xc4>
200016ac:	00003797          	auipc	a5,0x3
200016b0:	9e078793          	addi	a5,a5,-1568 # 2000408c <gptrBBReg>
200016b4:	439c                	lw	a5,0(a5)
200016b6:	008006b7          	lui	a3,0x800
200016ba:	4398                	lw	a4,0(a5)
200016bc:	8f55                	or	a4,a4,a3
200016be:	c398                	sw	a4,0(a5)
200016c0:	57d8                	lw	a4,44(a5)
200016c2:	9b71                	andi	a4,a4,-4
200016c4:	d7d8                	sw	a4,44(a5)
200016c6:	bf5d                	j	2000167c <ll_tx_wait_finish+0x78>
200016c8:	4785                	li	a5,1
200016ca:	faf519e3          	bne	a0,a5,2000167c <ll_tx_wait_finish+0x78>
200016ce:	67b5                	lui	a5,0xd
200016d0:	07bd                	addi	a5,a5,15
200016d2:	c75c                	sw	a5,12(a4)
200016d4:	0000100f          	fence.i
200016d8:	401c                	lw	a5,0(s0)
200016da:	6709                	lui	a4,0x2
200016dc:	4609                	li	a2,2
200016de:	c798                	sw	a4,8(a5)
200016e0:	f8000713          	li	a4,-128
200016e4:	00003697          	auipc	a3,0x3
200016e8:	9ae68a23          	sb	a4,-1612(a3) # 20004098 <gBleIPPara+0x4>
200016ec:	00003717          	auipc	a4,0x3
200016f0:	9a070713          	addi	a4,a4,-1632 # 2000408c <gptrBBReg>
200016f4:	4314                	lw	a3,0(a4)
200016f6:	4298                	lw	a4,0(a3)
200016f8:	8331                	srli	a4,a4,0xc
200016fa:	8b0d                	andi	a4,a4,3
200016fc:	00c71963          	bne	a4,a2,2000170e <ll_tx_wait_finish+0x10a>
20001700:	43e00713          	li	a4,1086
20001704:	d3f8                	sw	a4,100(a5)
20001706:	673d                	lui	a4,0xf
20001708:	073d                	addi	a4,a4,15
2000170a:	c7d8                	sw	a4,12(a5)
2000170c:	bf85                	j	2000167c <ll_tx_wait_finish+0x78>
2000170e:	4298                	lw	a4,0(a3)
20001710:	8331                	srli	a4,a4,0xc
20001712:	8b0d                	andi	a4,a4,3
20001714:	e701                	bnez	a4,2000171c <ll_tx_wait_finish+0x118>
20001716:	19600713          	li	a4,406
2000171a:	b7ed                	j	20001704 <ll_tx_wait_finish+0x100>
2000171c:	1be00713          	li	a4,446
20001720:	b7d5                	j	20001704 <ll_tx_wait_finish+0x100>
20001722:	52fc                	lw	a5,100(a3)
20001724:	f3ad                	bnez	a5,20001686 <ll_tx_wait_finish+0x82>
20001726:	bfa5                	j	2000169e <ll_tx_wait_finish+0x9a>

20001728 <BLE_CheckHoppingMap>:
BLE_CheckHoppingMap():
20001728:	715d                	addi	sp,sp,-80
2000172a:	dc52                	sw	s4,56(sp)
2000172c:	00003a17          	auipc	s4,0x3
20001730:	960a0a13          	addi	s4,s4,-1696 # 2000408c <gptrBBReg>
20001734:	000a2703          	lw	a4,0(s4)
20001738:	c686                	sw	ra,76(sp)
2000173a:	c4a2                	sw	s0,72(sp)
2000173c:	c2a6                	sw	s1,68(sp)
2000173e:	c0ca                	sw	s2,64(sp)
20001740:	de4e                	sw	s3,60(sp)
20001742:	431c                	lw	a5,0(a4)
20001744:	00003997          	auipc	s3,0x3
20001748:	9b898993          	addi	s3,s3,-1608 # 200040fc <gptrRFENDReg>
2000174c:	00003917          	auipc	s2,0x3
20001750:	96490913          	addi	s2,s2,-1692 # 200040b0 <gptrLLEReg>
20001754:	e7f7f793          	andi	a5,a5,-385
20001758:	0807e793          	ori	a5,a5,128
2000175c:	c31c                	sw	a5,0(a4)
2000175e:	0009a683          	lw	a3,0(s3)
