Archive member included to satisfy reference by file (symbol)

d:/mounriver_studio/toolchain/risc-v embedded gcc/bin/../lib/gcc/riscv-none-embed/8.2.0/rv32imac/ilp32\libgcc.a(muldf3.o)
                              ./common/CH58x_sdk/StdPeriphDriver/CH58x_clk.o (__muldf3)
d:/mounriver_studio/toolchain/risc-v embedded gcc/bin/../lib/gcc/riscv-none-embed/8.2.0/rv32imac/ilp32\libgcc.a(floatsidf.o)
                              ./common/CH58x_sdk/StdPeriphDriver/CH58x_clk.o (__floatsidf)
d:/mounriver_studio/toolchain/risc-v embedded gcc/bin/../lib/gcc/riscv-none-embed/8.2.0/rv32imac/ilp32\libgcc.a(mulsf3.o)
                              ./common/CH58x_sdk/StdPeriphDriver/CH58x_clk.o (__mulsf3)
d:/mounriver_studio/toolchain/risc-v embedded gcc/bin/../lib/gcc/riscv-none-embed/8.2.0/rv32imac/ilp32\libgcc.a(fixsfsi.o)
                              ./common/CH58x_sdk/StdPeriphDriver/CH58x_clk.o (__fixsfsi)
d:/mounriver_studio/toolchain/risc-v embedded gcc/bin/../lib/gcc/riscv-none-embed/8.2.0/rv32imac/ilp32\libgcc.a(floatsisf.o)
                              ./common/CH58x_sdk/StdPeriphDriver/CH58x_clk.o (__floatsisf)
d:/mounriver_studio/toolchain/risc-v embedded gcc/bin/../lib/gcc/riscv-none-embed/8.2.0/rv32imac/ilp32\libgcc.a(truncdfsf2.o)
                              ./common/CH58x_sdk/StdPeriphDriver/CH58x_clk.o (__truncdfsf2)
d:/mounriver_studio/toolchain/risc-v embedded gcc/bin/../lib/gcc/riscv-none-embed/8.2.0/rv32imac/ilp32\libgcc.a(_clzsi2.o)
                              d:/mounriver_studio/toolchain/risc-v embedded gcc/bin/../lib/gcc/riscv-none-embed/8.2.0/rv32imac/ilp32\libgcc.a(muldf3.o) (__clzsi2)
d:/mounriver_studio/toolchain/risc-v embedded gcc/bin/../lib/gcc/riscv-none-embed/8.2.0/rv32imac/ilp32\libgcc.a(_clz.o)
                              d:/mounriver_studio/toolchain/risc-v embedded gcc/bin/../lib/gcc/riscv-none-embed/8.2.0/rv32imac/ilp32\libgcc.a(_clzsi2.o) (__clz_tab)
d:/mounriver_studio/toolchain/risc-v embedded gcc/bin/../lib/gcc/riscv-none-embed/8.2.0/../../../../riscv-none-embed/lib/rv32imac/ilp32\libc_nano.a(lib_a-init.o)
                              ./common/CH58x_sdk/Startup/startup_CH573.o (__libc_init_array)
d:/mounriver_studio/toolchain/risc-v embedded gcc/bin/../lib/gcc/riscv-none-embed/8.2.0/../../../../riscv-none-embed/lib/rv32imac/ilp32\libc_nano.a(lib_a-memcmp.o)
                              ./full_demo/common_demo_files/MessageBufferDemo.o (memcmp)
d:/mounriver_studio/toolchain/risc-v embedded gcc/bin/../lib/gcc/riscv-none-embed/8.2.0/../../../../riscv-none-embed/lib/rv32imac/ilp32\libc_nano.a(lib_a-memcpy.o)
                              ./FreeRTOS_Source/queue.o (memcpy)
d:/mounriver_studio/toolchain/risc-v embedded gcc/bin/../lib/gcc/riscv-none-embed/8.2.0/../../../../riscv-none-embed/lib/rv32imac/ilp32\libc_nano.a(lib_a-memset.o)
                              ./full_demo/common_demo_files/MessageBufferDemo.o (memset)
d:/mounriver_studio/toolchain/risc-v embedded gcc/bin/../lib/gcc/riscv-none-embed/8.2.0/../../../../riscv-none-embed/lib/rv32imac/ilp32\libc_nano.a(lib_a-printf.o)
                              ./common/CH58x_sdk/StdPeriphDriver/CH58x_usbhostClass.o (printf)
d:/mounriver_studio/toolchain/risc-v embedded gcc/bin/../lib/gcc/riscv-none-embed/8.2.0/../../../../riscv-none-embed/lib/rv32imac/ilp32\libc_nano.a(lib_a-putchar.o)
                              ./common/CH58x_sdk/StdPeriphDriver/CH58x_usbhostClass.o (putchar)
d:/mounriver_studio/toolchain/risc-v embedded gcc/bin/../lib/gcc/riscv-none-embed/8.2.0/../../../../riscv-none-embed/lib/rv32imac/ilp32\libc_nano.a(lib_a-puts.o)
                              ./common/CH58x_sdk/StdPeriphDriver/CH58x_usbhostBase.o (puts)
d:/mounriver_studio/toolchain/risc-v embedded gcc/bin/../lib/gcc/riscv-none-embed/8.2.0/../../../../riscv-none-embed/lib/rv32imac/ilp32\libc_nano.a(lib_a-sprintf.o)
                              ./full_demo/common_demo_files/MessageBufferDemo.o (sprintf)
d:/mounriver_studio/toolchain/risc-v embedded gcc/bin/../lib/gcc/riscv-none-embed/8.2.0/../../../../riscv-none-embed/lib/rv32imac/ilp32\libc_nano.a(lib_a-strcmp.o)
                              ./full_demo/common_demo_files/MessageBufferDemo.o (strcmp)
d:/mounriver_studio/toolchain/risc-v embedded gcc/bin/../lib/gcc/riscv-none-embed/8.2.0/../../../../riscv-none-embed/lib/rv32imac/ilp32\libc_nano.a(lib_a-strlen.o)
                              ./full_demo/common_demo_files/MessageBufferDemo.o (strlen)
d:/mounriver_studio/toolchain/risc-v embedded gcc/bin/../lib/gcc/riscv-none-embed/8.2.0/../../../../riscv-none-embed/lib/rv32imac/ilp32\libc_nano.a(lib_a-vsprintf.o)
                              ./common/DEBUG.o (vsprintf)
d:/mounriver_studio/toolchain/risc-v embedded gcc/bin/../lib/gcc/riscv-none-embed/8.2.0/../../../../riscv-none-embed/lib/rv32imac/ilp32\libc_nano.a(lib_a-wbuf.o)
                              d:/mounriver_studio/toolchain/risc-v embedded gcc/bin/../lib/gcc/riscv-none-embed/8.2.0/../../../../riscv-none-embed/lib/rv32imac/ilp32\libc_nano.a(lib_a-puts.o) (__swbuf_r)
d:/mounriver_studio/toolchain/risc-v embedded gcc/bin/../lib/gcc/riscv-none-embed/8.2.0/../../../../riscv-none-embed/lib/rv32imac/ilp32\libc_nano.a(lib_a-wsetup.o)
                              d:/mounriver_studio/toolchain/risc-v embedded gcc/bin/../lib/gcc/riscv-none-embed/8.2.0/../../../../riscv-none-embed/lib/rv32imac/ilp32\libc_nano.a(lib_a-puts.o) (__swsetup_r)
d:/mounriver_studio/toolchain/risc-v embedded gcc/bin/../lib/gcc/riscv-none-embed/8.2.0/../../../../riscv-none-embed/lib/rv32imac/ilp32\libc_nano.a(lib_a-fflush.o)
                              d:/mounriver_studio/toolchain/risc-v embedded gcc/bin/../lib/gcc/riscv-none-embed/8.2.0/../../../../riscv-none-embed/lib/rv32imac/ilp32\libc_nano.a(lib_a-wbuf.o) (_fflush_r)
d:/mounriver_studio/toolchain/risc-v embedded gcc/bin/../lib/gcc/riscv-none-embed/8.2.0/../../../../riscv-none-embed/lib/rv32imac/ilp32\libc_nano.a(lib_a-findfp.o)
                              d:/mounriver_studio/toolchain/risc-v embedded gcc/bin/../lib/gcc/riscv-none-embed/8.2.0/../../../../riscv-none-embed/lib/rv32imac/ilp32\libc_nano.a(lib_a-printf.o) (__sinit)
d:/mounriver_studio/toolchain/risc-v embedded gcc/bin/../lib/gcc/riscv-none-embed/8.2.0/../../../../riscv-none-embed/lib/rv32imac/ilp32\libc_nano.a(lib_a-fwalk.o)
                              d:/mounriver_studio/toolchain/risc-v embedded gcc/bin/../lib/gcc/riscv-none-embed/8.2.0/../../../../riscv-none-embed/lib/rv32imac/ilp32\libc_nano.a(lib_a-findfp.o) (_fwalk)
d:/mounriver_studio/toolchain/risc-v embedded gcc/bin/../lib/gcc/riscv-none-embed/8.2.0/../../../../riscv-none-embed/lib/rv32imac/ilp32\libc_nano.a(lib_a-impure.o)
                              d:/mounriver_studio/toolchain/risc-v embedded gcc/bin/../lib/gcc/riscv-none-embed/8.2.0/../../../../riscv-none-embed/lib/rv32imac/ilp32\libc_nano.a(lib_a-fflush.o) (_global_impure_ptr)
d:/mounriver_studio/toolchain/risc-v embedded gcc/bin/../lib/gcc/riscv-none-embed/8.2.0/../../../../riscv-none-embed/lib/rv32imac/ilp32\libc_nano.a(lib_a-makebuf.o)
                              d:/mounriver_studio/toolchain/risc-v embedded gcc/bin/../lib/gcc/riscv-none-embed/8.2.0/../../../../riscv-none-embed/lib/rv32imac/ilp32\libc_nano.a(lib_a-wsetup.o) (__smakebuf_r)
d:/mounriver_studio/toolchain/risc-v embedded gcc/bin/../lib/gcc/riscv-none-embed/8.2.0/../../../../riscv-none-embed/lib/rv32imac/ilp32\libc_nano.a(lib_a-nano-freer.o)
                              d:/mounriver_studio/toolchain/risc-v embedded gcc/bin/../lib/gcc/riscv-none-embed/8.2.0/../../../../riscv-none-embed/lib/rv32imac/ilp32\libc_nano.a(lib_a-wsetup.o) (_free_r)
d:/mounriver_studio/toolchain/risc-v embedded gcc/bin/../lib/gcc/riscv-none-embed/8.2.0/../../../../riscv-none-embed/lib/rv32imac/ilp32\libc_nano.a(lib_a-nano-mallocr.o)
                              d:/mounriver_studio/toolchain/risc-v embedded gcc/bin/../lib/gcc/riscv-none-embed/8.2.0/../../../../riscv-none-embed/lib/rv32imac/ilp32\libc_nano.a(lib_a-findfp.o) (_malloc_r)
d:/mounriver_studio/toolchain/risc-v embedded gcc/bin/../lib/gcc/riscv-none-embed/8.2.0/../../../../riscv-none-embed/lib/rv32imac/ilp32\libc_nano.a(lib_a-nano-svfprintf.o)
                              d:/mounriver_studio/toolchain/risc-v embedded gcc/bin/../lib/gcc/riscv-none-embed/8.2.0/../../../../riscv-none-embed/lib/rv32imac/ilp32\libc_nano.a(lib_a-sprintf.o) (_svfprintf_r)
d:/mounriver_studio/toolchain/risc-v embedded gcc/bin/../lib/gcc/riscv-none-embed/8.2.0/../../../../riscv-none-embed/lib/rv32imac/ilp32\libc_nano.a(lib_a-nano-vfprintf.o)
                              d:/mounriver_studio/toolchain/risc-v embedded gcc/bin/../lib/gcc/riscv-none-embed/8.2.0/../../../../riscv-none-embed/lib/rv32imac/ilp32\libc_nano.a(lib_a-printf.o) (_vfprintf_r)
d:/mounriver_studio/toolchain/risc-v embedded gcc/bin/../lib/gcc/riscv-none-embed/8.2.0/../../../../riscv-none-embed/lib/rv32imac/ilp32\libc_nano.a(lib_a-nano-vfprintf_i.o)
                              d:/mounriver_studio/toolchain/risc-v embedded gcc/bin/../lib/gcc/riscv-none-embed/8.2.0/../../../../riscv-none-embed/lib/rv32imac/ilp32\libc_nano.a(lib_a-nano-svfprintf.o) (_printf_i)
d:/mounriver_studio/toolchain/risc-v embedded gcc/bin/../lib/gcc/riscv-none-embed/8.2.0/../../../../riscv-none-embed/lib/rv32imac/ilp32\libc_nano.a(lib_a-putc.o)
                              d:/mounriver_studio/toolchain/risc-v embedded gcc/bin/../lib/gcc/riscv-none-embed/8.2.0/../../../../riscv-none-embed/lib/rv32imac/ilp32\libc_nano.a(lib_a-putchar.o) (_putc_r)
d:/mounriver_studio/toolchain/risc-v embedded gcc/bin/../lib/gcc/riscv-none-embed/8.2.0/../../../../riscv-none-embed/lib/rv32imac/ilp32\libc_nano.a(lib_a-sbrkr.o)
                              d:/mounriver_studio/toolchain/risc-v embedded gcc/bin/../lib/gcc/riscv-none-embed/8.2.0/../../../../riscv-none-embed/lib/rv32imac/ilp32\libc_nano.a(lib_a-nano-mallocr.o) (_sbrk_r)
d:/mounriver_studio/toolchain/risc-v embedded gcc/bin/../lib/gcc/riscv-none-embed/8.2.0/../../../../riscv-none-embed/lib/rv32imac/ilp32\libc_nano.a(lib_a-stdio.o)
                              d:/mounriver_studio/toolchain/risc-v embedded gcc/bin/../lib/gcc/riscv-none-embed/8.2.0/../../../../riscv-none-embed/lib/rv32imac/ilp32\libc_nano.a(lib_a-findfp.o) (__sread)
d:/mounriver_studio/toolchain/risc-v embedded gcc/bin/../lib/gcc/riscv-none-embed/8.2.0/../../../../riscv-none-embed/lib/rv32imac/ilp32\libc_nano.a(lib_a-writer.o)
                              d:/mounriver_studio/toolchain/risc-v embedded gcc/bin/../lib/gcc/riscv-none-embed/8.2.0/../../../../riscv-none-embed/lib/rv32imac/ilp32\libc_nano.a(lib_a-stdio.o) (_write_r)
d:/mounriver_studio/toolchain/risc-v embedded gcc/bin/../lib/gcc/riscv-none-embed/8.2.0/../../../../riscv-none-embed/lib/rv32imac/ilp32\libc_nano.a(lib_a-closer.o)
                              d:/mounriver_studio/toolchain/risc-v embedded gcc/bin/../lib/gcc/riscv-none-embed/8.2.0/../../../../riscv-none-embed/lib/rv32imac/ilp32\libc_nano.a(lib_a-stdio.o) (_close_r)
d:/mounriver_studio/toolchain/risc-v embedded gcc/bin/../lib/gcc/riscv-none-embed/8.2.0/../../../../riscv-none-embed/lib/rv32imac/ilp32\libc_nano.a(lib_a-fstatr.o)
                              d:/mounriver_studio/toolchain/risc-v embedded gcc/bin/../lib/gcc/riscv-none-embed/8.2.0/../../../../riscv-none-embed/lib/rv32imac/ilp32\libc_nano.a(lib_a-makebuf.o) (_fstat_r)
d:/mounriver_studio/toolchain/risc-v embedded gcc/bin/../lib/gcc/riscv-none-embed/8.2.0/../../../../riscv-none-embed/lib/rv32imac/ilp32\libc_nano.a(lib_a-fvwrite.o)
                              d:/mounriver_studio/toolchain/risc-v embedded gcc/bin/../lib/gcc/riscv-none-embed/8.2.0/../../../../riscv-none-embed/lib/rv32imac/ilp32\libc_nano.a(lib_a-nano-vfprintf.o) (__sfvwrite_r)
d:/mounriver_studio/toolchain/risc-v embedded gcc/bin/../lib/gcc/riscv-none-embed/8.2.0/../../../../riscv-none-embed/lib/rv32imac/ilp32\libc_nano.a(lib_a-isattyr.o)
                              d:/mounriver_studio/toolchain/risc-v embedded gcc/bin/../lib/gcc/riscv-none-embed/8.2.0/../../../../riscv-none-embed/lib/rv32imac/ilp32\libc_nano.a(lib_a-makebuf.o) (_isatty_r)
d:/mounriver_studio/toolchain/risc-v embedded gcc/bin/../lib/gcc/riscv-none-embed/8.2.0/../../../../riscv-none-embed/lib/rv32imac/ilp32\libc_nano.a(lib_a-lseekr.o)
                              d:/mounriver_studio/toolchain/risc-v embedded gcc/bin/../lib/gcc/riscv-none-embed/8.2.0/../../../../riscv-none-embed/lib/rv32imac/ilp32\libc_nano.a(lib_a-stdio.o) (_lseek_r)
d:/mounriver_studio/toolchain/risc-v embedded gcc/bin/../lib/gcc/riscv-none-embed/8.2.0/../../../../riscv-none-embed/lib/rv32imac/ilp32\libc_nano.a(lib_a-memchr.o)
                              d:/mounriver_studio/toolchain/risc-v embedded gcc/bin/../lib/gcc/riscv-none-embed/8.2.0/../../../../riscv-none-embed/lib/rv32imac/ilp32\libc_nano.a(lib_a-nano-svfprintf.o) (memchr)
d:/mounriver_studio/toolchain/risc-v embedded gcc/bin/../lib/gcc/riscv-none-embed/8.2.0/../../../../riscv-none-embed/lib/rv32imac/ilp32\libc_nano.a(lib_a-memmove.o)
                              d:/mounriver_studio/toolchain/risc-v embedded gcc/bin/../lib/gcc/riscv-none-embed/8.2.0/../../../../riscv-none-embed/lib/rv32imac/ilp32\libc_nano.a(lib_a-nano-svfprintf.o) (memmove)
d:/mounriver_studio/toolchain/risc-v embedded gcc/bin/../lib/gcc/riscv-none-embed/8.2.0/../../../../riscv-none-embed/lib/rv32imac/ilp32\libc_nano.a(lib_a-mlock.o)
                              d:/mounriver_studio/toolchain/risc-v embedded gcc/bin/../lib/gcc/riscv-none-embed/8.2.0/../../../../riscv-none-embed/lib/rv32imac/ilp32\libc_nano.a(lib_a-nano-freer.o) (__malloc_lock)
d:/mounriver_studio/toolchain/risc-v embedded gcc/bin/../lib/gcc/riscv-none-embed/8.2.0/../../../../riscv-none-embed/lib/rv32imac/ilp32\libc_nano.a(lib_a-nano-reallocr.o)
                              d:/mounriver_studio/toolchain/risc-v embedded gcc/bin/../lib/gcc/riscv-none-embed/8.2.0/../../../../riscv-none-embed/lib/rv32imac/ilp32\libc_nano.a(lib_a-nano-svfprintf.o) (_realloc_r)
d:/mounriver_studio/toolchain/risc-v embedded gcc/bin/../lib/gcc/riscv-none-embed/8.2.0/../../../../riscv-none-embed/lib/rv32imac/ilp32\libc_nano.a(lib_a-readr.o)
                              d:/mounriver_studio/toolchain/risc-v embedded gcc/bin/../lib/gcc/riscv-none-embed/8.2.0/../../../../riscv-none-embed/lib/rv32imac/ilp32\libc_nano.a(lib_a-stdio.o) (_read_r)
d:/mounriver_studio/toolchain/risc-v embedded gcc/bin/../lib/gcc/riscv-none-embed/8.2.0/../../../../riscv-none-embed/lib/rv32imac/ilp32\libc_nano.a(lib_a-reent.o)
                              d:/mounriver_studio/toolchain/risc-v embedded gcc/bin/../lib/gcc/riscv-none-embed/8.2.0/../../../../riscv-none-embed/lib/rv32imac/ilp32\libc_nano.a(lib_a-sbrkr.o) (errno)
d:/mounriver_studio/toolchain/risc-v embedded gcc/bin/../lib/gcc/riscv-none-embed/8.2.0/../../../../riscv-none-embed/lib/rv32imac/ilp32\libc_nano.a(lib_a-nano-msizer.o)
                              d:/mounriver_studio/toolchain/risc-v embedded gcc/bin/../lib/gcc/riscv-none-embed/8.2.0/../../../../riscv-none-embed/lib/rv32imac/ilp32\libc_nano.a(lib_a-nano-reallocr.o) (_malloc_usable_size_r)
d:/mounriver_studio/toolchain/risc-v embedded gcc/bin/../lib/gcc/riscv-none-embed/8.2.0/../../../../riscv-none-embed/lib/rv32imac/ilp32\libnosys.a(close.o)
                              d:/mounriver_studio/toolchain/risc-v embedded gcc/bin/../lib/gcc/riscv-none-embed/8.2.0/../../../../riscv-none-embed/lib/rv32imac/ilp32\libc_nano.a(lib_a-closer.o) (_close)
d:/mounriver_studio/toolchain/risc-v embedded gcc/bin/../lib/gcc/riscv-none-embed/8.2.0/../../../../riscv-none-embed/lib/rv32imac/ilp32\libnosys.a(fstat.o)
                              d:/mounriver_studio/toolchain/risc-v embedded gcc/bin/../lib/gcc/riscv-none-embed/8.2.0/../../../../riscv-none-embed/lib/rv32imac/ilp32\libc_nano.a(lib_a-fstatr.o) (_fstat)
d:/mounriver_studio/toolchain/risc-v embedded gcc/bin/../lib/gcc/riscv-none-embed/8.2.0/../../../../riscv-none-embed/lib/rv32imac/ilp32\libnosys.a(isatty.o)
                              d:/mounriver_studio/toolchain/risc-v embedded gcc/bin/../lib/gcc/riscv-none-embed/8.2.0/../../../../riscv-none-embed/lib/rv32imac/ilp32\libc_nano.a(lib_a-isattyr.o) (_isatty)
d:/mounriver_studio/toolchain/risc-v embedded gcc/bin/../lib/gcc/riscv-none-embed/8.2.0/../../../../riscv-none-embed/lib/rv32imac/ilp32\libnosys.a(lseek.o)
                              d:/mounriver_studio/toolchain/risc-v embedded gcc/bin/../lib/gcc/riscv-none-embed/8.2.0/../../../../riscv-none-embed/lib/rv32imac/ilp32\libc_nano.a(lib_a-lseekr.o) (_lseek)
d:/mounriver_studio/toolchain/risc-v embedded gcc/bin/../lib/gcc/riscv-none-embed/8.2.0/../../../../riscv-none-embed/lib/rv32imac/ilp32\libnosys.a(read.o)
                              d:/mounriver_studio/toolchain/risc-v embedded gcc/bin/../lib/gcc/riscv-none-embed/8.2.0/../../../../riscv-none-embed/lib/rv32imac/ilp32\libc_nano.a(lib_a-readr.o) (_read)
d:/mounriver_studio/toolchain/risc-v embedded gcc/bin/../lib/gcc/riscv-none-embed/8.2.0/../../../../riscv-none-embed/lib/rv32imac/ilp32\libnosys.a(sbrk.o)
                              d:/mounriver_studio/toolchain/risc-v embedded gcc/bin/../lib/gcc/riscv-none-embed/8.2.0/../../../../riscv-none-embed/lib/rv32imac/ilp32\libc_nano.a(lib_a-sbrkr.o) (_sbrk)

Allocating common symbols
Common symbol       size              file

pHOST_RX_RAM_Addr   0x4               ./common/CH58x_sdk/StdPeriphDriver/CH58x_usbhostBase.o
pHOST_TX_RAM_Addr   0x4               ./common/CH58x_sdk/StdPeriphDriver/CH58x_usbhostBase.o
errno               0x4               d:/mounriver_studio/toolchain/risc-v embedded gcc/bin/../lib/gcc/riscv-none-embed/8.2.0/../../../../riscv-none-embed/lib/rv32imac/ilp32\libc_nano.a(lib_a-reent.o)
xQueueRegistry      0x40              ./FreeRTOS_Source/queue.o
pEP2_RAM_Addr       0x4               ./common/CH58x_sdk/StdPeriphDriver/CH58x_usbdev.o
pEP3_RAM_Addr       0x4               ./common/CH58x_sdk/StdPeriphDriver/CH58x_usbdev.o
pEP0_RAM_Addr       0x4               ./common/CH58x_sdk/StdPeriphDriver/CH58x_usbdev.o
FoundNewDev         0x1               ./common/CH58x_sdk/StdPeriphDriver/CH58x_usbhostBase.o
xCreatedTask        0x4               ./full_demo/common_demo_files/death.o
Com_Buffer          0x80              ./common/CH58x_sdk/StdPeriphDriver/CH58x_usbhostClass.o
UsbDevEndp0Size     0x1               ./common/CH58x_sdk/StdPeriphDriver/CH58x_usbhostBase.o
ThisUsbDev          0xe               ./common/CH58x_sdk/StdPeriphDriver/CH58x_usbhostBase.o
xSuspendedTestQueue
                    0x4               ./full_demo/common_demo_files/dynamic.o
pEP1_RAM_Addr       0x4               ./common/CH58x_sdk/StdPeriphDriver/CH58x_usbdev.o

Discarded input sections

 .data          0x0000000000000000        0x0 ./full_demo/common_demo_files/AbortDelay.o
 .bss           0x0000000000000000        0x0 ./full_demo/common_demo_files/AbortDelay.o
 .srodata       0x0000000000000000        0xc ./full_demo/common_demo_files/AbortDelay.o
 COMMON         0x0000000000000000        0x0 ./full_demo/common_demo_files/AbortDelay.o
 .data          0x0000000000000000        0x0 ./full_demo/common_demo_files/EventGroupsDemo.o
 .bss           0x0000000000000000        0x0 ./full_demo/common_demo_files/EventGroupsDemo.o
 .text          0x0000000000000000      0xa78 ./full_demo/common_demo_files/GenQTest.o
 .data          0x0000000000000000        0x0 ./full_demo/common_demo_files/GenQTest.o
 .bss           0x0000000000000000        0x0 ./full_demo/common_demo_files/GenQTest.o
 .rodata        0x0000000000000000       0x7b ./full_demo/common_demo_files/GenQTest.o
 .rodata.str1.4
                0x0000000000000000       0x88 ./full_demo/common_demo_files/GenQTest.o
 .sbss          0x0000000000000000       0x2c ./full_demo/common_demo_files/GenQTest.o
 .debug_info    0x0000000000000000     0x1ac7 ./full_demo/common_demo_files/GenQTest.o
 .debug_abbrev  0x0000000000000000      0x379 ./full_demo/common_demo_files/GenQTest.o
 .debug_loc     0x0000000000000000      0x26d ./full_demo/common_demo_files/GenQTest.o
 .debug_aranges
                0x0000000000000000       0x20 ./full_demo/common_demo_files/GenQTest.o
Memory Configuration

Name             Origin             Length             Attributes
FLASH            0x0000000000000000 0x0000000000070000 xr
RAM              0x0000000020000000 0x0000000000008000 xrw
*default*        0x0000000000000000 0xffffffffffffffff

Linker script and memory map

LOAD ./full_demo/common_demo_files/AbortDelay.o
LOAD ./full_demo/common_demo_files/EventGroupsDemo.o
LOAD ./full_demo/common_demo_files/GenQTest.o
LOAD ./full_demo/common_demo_files/MessageBufferDemo.o
LOAD ./full_demo/common_demo_files/StreamBufferDemo.o
LOAD ./full_demo/common_demo_files/StreamBufferInterrupt.o
LOAD ./full_demo/common_demo_files/TaskNotify.o
LOAD ./full_demo/common_demo_files/TimerDemo.o
LOAD ./full_demo/common_demo_files/blocktim.o
LOAD ./full_demo/common_demo_files/countsem.o
LOAD ./full_demo/common_demo_files/death.o
LOAD ./full_demo/common_demo_files/dynamic.o
LOAD ./full_demo/common_demo_files/recmutex.o
LOAD ./full_demo/RegTest.o
LOAD ./full_demo/main_full.o
LOAD ./common/CH58x_sdk/StdPeriphDriver/CH58x_adc.o
LOAD ./common/CH58x_sdk/StdPeriphDriver/CH58x_clk.o
LOAD ./common/CH58x_sdk/StdPeriphDriver/CH58x_flash.o
LOAD ./common/CH58x_sdk/StdPeriphDriver/CH58x_gpio.o
LOAD ./common/CH58x_sdk/StdPeriphDriver/CH58x_pwm.o
LOAD ./common/CH58x_sdk/StdPeriphDriver/CH58x_pwr.o
LOAD ./common/CH58x_sdk/StdPeriphDriver/CH58x_spi0.o
LOAD ./common/CH58x_sdk/StdPeriphDriver/CH58x_sys.o
LOAD ./common/CH58x_sdk/StdPeriphDriver/CH58x_timer0.o
LOAD ./common/CH58x_sdk/StdPeriphDriver/CH58x_timer1.o
LOAD ./common/CH58x_sdk/StdPeriphDriver/CH58x_timer2.o
LOAD ./common/CH58x_sdk/StdPeriphDriver/CH58x_timer3.o
LOAD ./common/CH58x_sdk/StdPeriphDriver/CH58x_uart0.o
LOAD ./common/CH58x_sdk/StdPeriphDriver/CH58x_uart1.o
LOAD ./common/CH58x_sdk/StdPeriphDriver/CH58x_uart2.o
LOAD ./common/CH58x_sdk/StdPeriphDriver/CH58x_uart3.o
LOAD ./common/CH58x_sdk/StdPeriphDriver/CH58x_usbdev.o
LOAD ./common/CH58x_sdk/StdPeriphDriver/CH58x_usbhostBase.o
LOAD ./common/CH58x_sdk/StdPeriphDriver/CH58x_usbhostClass.o
LOAD ./common/CH58x_sdk/Startup/startup_CH573.o
LOAD ./common/CH58x_sdk/RVMSIS/core_riscv.o
LOAD ./common/DEBUG.o
LOAD ./blinky_demo/main_blinky.o
LOAD ./FreeRTOS_Source/portable/MemMang/heap_4.o
LOAD ./FreeRTOS_Source/portable/GCC/RISC-V/port.o
LOAD ./FreeRTOS_Source/portable/GCC/RISC-V/portASM.o
LOAD ./FreeRTOS_Source/croutine.o
LOAD ./FreeRTOS_Source/event_groups.o
LOAD ./FreeRTOS_Source/list.o
LOAD ./FreeRTOS_Source/queue.o
LOAD ./FreeRTOS_Source/stream_buffer.o
LOAD ./FreeRTOS_Source/tasks.o
LOAD ./FreeRTOS_Source/timers.o
LOAD ./Main.o
LOAD d:/mounriver_studio/toolchain/risc-v embedded gcc/bin/../lib/gcc/riscv-none-embed/8.2.0/../../../../riscv-none-embed/lib/rv32imac/ilp32\libnosys.a
LOAD d:/mounriver_studio/toolchain/risc-v embedded gcc/bin/../lib/gcc/riscv-none-embed/8.2.0/rv32imac/ilp32\libgcc.a
LOAD d:/mounriver_studio/toolchain/risc-v embedded gcc/bin/../lib/gcc/riscv-none-embed/8.2.0/../../../../riscv-none-embed/lib/rv32imac/ilp32\libc_nano.a
LOAD d:/mounriver_studio/toolchain/risc-v embedded gcc/bin/../lib/gcc/riscv-none-embed/8.2.0/../../../../riscv-none-embed/lib/rv32imac/ilp32\libm.a
LOAD d:/mounriver_studio/toolchain/risc-v embedded gcc/bin/../lib/gcc/riscv-none-embed/8.2.0/../../../../riscv-none-embed/lib/rv32imac/ilp32\libm.a
LOAD d:/mounriver_studio/toolchain/risc-v embedded gcc/bin/../lib/gcc/riscv-none-embed/8.2.0/../../../../riscv-none-embed/lib/rv32imac/ilp32\libg_nano.a
LOAD d:/mounriver_studio/toolchain/risc-v embedded gcc/bin/../lib/gcc/riscv-none-embed/8.2.0/rv32imac/ilp32\libgcc.a
LOAD d:/mounriver_studio/toolchain/risc-v embedded gcc/bin/../lib/gcc/riscv-none-embed/8.2.0/../../../../riscv-none-embed/lib/rv32imac/ilp32\libnosys.a
LOAD d:/mounriver_studio/toolchain/risc-v embedded gcc/bin/../lib/gcc/riscv-none-embed/8.2.0/rv32imac/ilp32\libgcc.a
LOAD d:/mounriver_studio/toolchain/risc-v embedded gcc/bin/../lib/gcc/riscv-none-embed/8.2.0/../../../../riscv-none-embed/lib/rv32imac/ilp32\libg_nano.a
LOAD d:/mounriver_studio/toolchain/risc-v embedded gcc/bin/../lib/gcc/riscv-none-embed/8.2.0/../../../../riscv-none-embed/lib/rv32imac/ilp32\libc_nano.a
LOAD d:/mounriver_studio/toolchain/risc-v embedded gcc/bin/../lib/gcc/riscv-none-embed/8.2.0/rv32imac/ilp32\libgcc.a
START GROUP
LOAD d:/mounriver_studio/toolchain/risc-v embedded gcc/bin/../lib/gcc/riscv-none-embed/8.2.0/rv32imac/ilp32\libgcc.a
LOAD d:/mounriver_studio/toolchain/risc-v embedded gcc/bin/../lib/gcc/riscv-none-embed/8.2.0/../../../../riscv-none-embed/lib/rv32imac/ilp32\libc_nano.a
LOAD d:/mounriver_studio/toolchain/risc-v embedded gcc/bin/../lib/gcc/riscv-none-embed/8.2.0/../../../../riscv-none-embed/lib/rv32imac/ilp32\libnosys.a
END GROUP
START GROUP
LOAD d:/mounriver_studio/toolchain/risc-v embedded gcc/bin/../lib/gcc/riscv-none-embed/8.2.0/rv32imac/ilp32\libgcc.a
LOAD d:/mounriver_studio/toolchain/risc-v embedded gcc/bin/../lib/gcc/riscv-none-embed/8.2.0/../../../../riscv-none-embed/lib/rv32imac/ilp32\libc_nano.a
LOAD d:/mounriver_studio/toolchain/risc-v embedded gcc/bin/../lib/gcc/riscv-none-embed/8.2.0/../../../../riscv-none-embed/lib/rv32imac/ilp32\libnosys.a
END GROUP
                0x0000000000000400                HEAP_SIZE = DEFINED (__heap_size__)?__heap_size__:0x400
                0x0000000000000800                STACK_SIZE = DEFINED (__stack_size__)?__stack_size__:0x800

.init           0x0000000000000000        0x4
                0x0000000000000000                _sinit = .
                0x0000000000000000                . = ALIGN (0x4)
 *(SORT_NONE(.init))
 .init          0x0000000000000000        0x4 ./common/CH58x_sdk/Startup/startup_CH573.o
                0x0000000000000000                _start
                0x0000000000000004                . = ALIGN (0x4)
                0x0000000000000004                _einit = .

.vectors        0x0000000000000004       0x90
                0x0000000000000004                __VECTOR_TABLE = .
 *(.vectors)
 .vectors       0x0000000000000004       0x90 ./common/CH58x_sdk/Startup/startup_CH573.o

.highcodelalign
                0x0000000000000094        0x0
                0x0000000000000094                . = ALIGN (0x4)
                0x0000000000000094                PROVIDE (_highcode_lma = .)

.highcode       0x0000000020000000      0x138 load address 0x0000000000000094
                0x0000000020000000                . = ALIGN (0x4)
                0x0000000020000000                PROVIDE (_highcode_vma_start = .)
 *(.vector)
 *(SORT_NONE(.vector_handler))
 *(.highcode)
 .highcode      0x0000000020000000      0x138 ./common/CH58x_sdk/StdPeriphDriver/CH58x_sys.o
                0x0000000020000000                SetSysClock
                0x000000002000010c                mDelayuS
                0x000000002000011c                mDelaymS
 *(.highcode.*)
                0x0000000020000138                . = ALIGN (0x4)
                0x0000000020000138                PROVIDE (_highcode_vma_end = .)

.text           0x0000000000000200     0xd104
                0x0000000000000200                . = ALIGN (0x4)
 *(.startup)
 .startup       0x0000000000000200      0x210 ./common/CH58x_sdk/Startup/startup_CH573.o
                0x00000000000002b4                _fini
                0x00000000000002b4                _init
                0x00000000000003b0                IRQ_Handler
                0x00000000000003c8                IllegalInstruction_Handler
                0x00000000000003dc                Ecall_Handler
                0x00000000000003f0                LSU_Handler
                0x0000000000000404                IllegalInstruction_HandlerFunc
                0x0000000000000408                Ecall_HandlerFunc
                0x000000000000040c                LSU_HandlerFunc
                0x0000000000000410                . = ALIGN (0x4)
                0x0000000000000410                __user_vector = .
 *(user_vectors)
 user_vectors   0x0000000000000410       0x90 ./common/CH58x_sdk/RVMSIS/core_riscv.o
                0x0000000000000410                isrTable
 *(.text)
 .text          0x00000000000004a0      0x776 ./full_demo/common_demo_files/AbortDelay.o
                0x0000000000000b7e                vCreateAbortDelayTasks
                0x0000000000000bc2                xAreAbortDelayTestTasksStillRunning
 .text          0x0000000000000c16      0x980 ./full_demo/common_demo_files/EventGroupsDemo.o
                0x0000000000001352                vStartEventGroupTasks
                0x0000000000001444                vPeriodicEventGroupsProcessing
                0x0000000000001532                xAreEventGroupTasksStillRunning
 .text          0x0000000000001596      0xf48 ./full_demo/common_demo_files/TaskNotify.o
                0x0000000000002344                vStartTaskNotifyTask
                0x0000000000002382                xNotifyTaskFromISR
                0x000000000000248a                xAreTaskNotificationTasksStillRunning
 .text          0x00000000000024de     0x1480 ./full_demo/common_demo_files/TimerDemo.o
                0x0000000000002e88                vStartTimerDemoTask
                0x0000000000003128                xAreTimerDemoTasksStillRunning
                0x0000000000003198                vTimerPeriodicISRTests
 .text          0x000000000000395e      0x4ca ./full_demo/common_demo_files/blocktim.o
                0x0000000000003d64                vCreateBlockTimeTasks
                0x0000000000003dd4                xAreBlockTimeTestTasksStillRunning
 .text          0x0000000000003e28      0x418 ./full_demo/common_demo_files/dynamic.o
                0x0000000000004106                vStartDynamicPriorityTasks
                0x00000000000041d8                xAreDynamicPriorityTasksStillRunning
 .text          0x0000000000004240      0x3a8 ./full_demo/common_demo_files/recmutex.o
                0x00000000000044e6                vStartRecursiveMutexTasks
                0x000000000000456a                xAreRecursiveMutexTasksStillRunning
 *fill*         0x00000000000045e8        0x8 
 .text          0x00000000000045f0      0x272 ./full_demo/RegTest.o
                0x00000000000045f0                vRegTest1Implementation
                0x00000000000046f0                vRegTest2Implementation
 .text          0x0000000000004862      0x228 ./full_demo/main_full.o
                0x00000000000049e6                main_full
                0x0000000000004a76                vFullDemoTickHook
 .text          0x0000000000004a8a      0x370 ./common/CH58x_sdk/StdPeriphDriver/CH58x_gpio.o
                0x0000000000004a8a                GPIOA_ModeCfg
                0x0000000000004b4e                GPIOB_ModeCfg
                0x0000000000004c12                GPIOA_ITModeCfg
                0x0000000000004ce4                GPIOB_ITModeCfg
                0x0000000000004dbe                GPIOPinRemap
                0x0000000000004ddc                GPIOAGPPCfg
 .text          0x0000000000004dfa      0x19c ./common/CH58x_sdk/StdPeriphDriver/CH58x_sys.o
                0x0000000000004dfa                GetSysClock
                0x0000000000004e40                SYS_GetInfoSta
                0x0000000000004e64                SYS_ResetExecute
                0x0000000000004e8c                SYS_DisableAllIrq
                0x0000000000004ea8                SYS_RecoverIrq
                0x0000000000004ebc                SYS_GetSysTickCnt
                0x0000000000004ec6                WWDG_ITCfg
                0x0000000000004f06                WWDG_ResetCfg
                0x0000000000004f46                WWDG_ClearFlag
                0x0000000000004f6e                _write
 .text          0x0000000000004f96      0x134 ./common/CH58x_sdk/StdPeriphDriver/CH58x_uart1.o
                0x0000000000004f96                UART1_DefInit
                0x0000000000004fe4                UART1_BaudRateCfg
                0x000000000000501a                UART1_ByteTrigCfg
                0x0000000000005034                UART1_INTCfg
                0x000000000000505e                UART1_Reset
                0x000000000000506c                UART1_SendString
                0x0000000000005090                UART1_RecvString
 .text          0x00000000000050ca      0x146 ./common/CH58x_sdk/RVMSIS/core_riscv.o
                0x00000000000050ca                SPI0_IRQHandler
                0x00000000000050ca                LLE_IRQHandler
                0x00000000000050ca                HardFault_Handler
                0x00000000000050ca                TMR2_IRQHandler
                0x00000000000050ca                GPIOB_IRQHandler
                0x00000000000050ca                GPIOA_IRQHandler
                0x00000000000050ca                ADC_IRQHandler
                0x00000000000050ca                NMI_Handler
                0x00000000000050ca                UART1_IRQHandler
                0x00000000000050ca                PWMX_IRQHandler
                0x00000000000050ca                TMR1_IRQHandler
                0x00000000000050ca                UART2_IRQHandler
                0x00000000000050ca                UART0_IRQHandler
                0x00000000000050ca                UART3_IRQHandler
                0x00000000000050ca                WDOG_BAT_IRQHandler
                0x00000000000050ca                BB_IRQHandler
                0x00000000000050ca                Break_Point_Handler
                0x00000000000050ca                Ecall_M_Mode_Handler
                0x00000000000050ca                USB_IRQHandler
                0x00000000000050ca                Ecall_U_Mode_Handler
                0x00000000000050ca                TMR3_IRQHandler
                0x00000000000050ca                SW_Handler
                0x00000000000050ca                RTC_IRQHandler
                0x00000000000050dc                __get_FFLAGS
                0x00000000000050e2                __set_FFLAGS
                0x00000000000050e8                __get_FRM
                0x00000000000050ee                __set_FRM
                0x00000000000050f4                __get_FCSR
                0x00000000000050fa                __set_FCSR
                0x0000000000005100                __get_MSTATUS
                0x0000000000005106                __set_MSTATUS
                0x000000000000510c                __get_MISA
                0x0000000000005112                __set_MISA
                0x0000000000005118                __get_MIE
                0x000000000000511e                __set_MIE
                0x0000000000005124                __get_MTVEC
                0x000000000000512a                __set_MTVEC
                0x0000000000005130                __get_MSCRATCH
                0x0000000000005136                __set_MSCRATCH
                0x000000000000513c                __get_MEPC
                0x0000000000005142                __set_MEPC
                0x0000000000005148                __get_MCAUSE
                0x000000000000514e                __set_MCAUSE
                0x0000000000005154                __get_MTVAL
                0x000000000000515a                __set_MTVAL
                0x0000000000005160                __get_MIP
                0x0000000000005166                __set_MIP
                0x000000000000516c                __get_MCYCLE
                0x0000000000005172                __set_MCYCLE
                0x0000000000005178                __get_MCYCLEH
                0x000000000000517e                __set_MCYCLEH
                0x0000000000005184                __get_MINSTRET
                0x000000000000518a                __set_MINSTRET
                0x0000000000005190                __get_MINSTRETH
                0x0000000000005196                __set_MINSTRETH
                0x000000000000519c                __get_MVENDORID
                0x00000000000051a2                __get_MARCHID
                0x00000000000051a8                __get_MIMPID
                0x00000000000051ae                __get_MHARTID
                0x00000000000051b4                SystemInitHook
                0x00000000000051f4                SystemInit
 .text          0x0000000000005210      0x140 ./common/DEBUG.o
                0x0000000000005210                log_print
                0x000000000000524e                log_debug
                0x000000000000529e                log_info
                0x00000000000052ee                Device_Info
                0x000000000000531a                DEBUG_Init
 .text          0x0000000000005350      0x30c ./FreeRTOS_Source/portable/MemMang/heap_4.o
                0x0000000000005398                pvPortMalloc
                0x0000000000005528                vPortFree
                0x00000000000055ca                xPortGetFreeHeapSize
                0x00000000000055d0                xPortGetMinimumEverFreeHeapSize
                0x00000000000055d6                vPortInitialiseBlocks
                0x00000000000055d8                vPortGetHeapStats
 .text          0x000000000000565c       0x84 ./FreeRTOS_Source/portable/GCC/RISC-V/port.o
                0x000000000000565c                xPortStartScheduler
                0x00000000000056de                vPortEndScheduler
 *fill*         0x00000000000056e0       0x20 
 .text          0x0000000000005700      0x2c6 ./FreeRTOS_Source/portable/GCC/RISC-V/portASM.o
                0x0000000000005700                freertos_risc_v_trap_handler
                0x0000000000005800                xPortStartFirstTask
                0x0000000000005900                pxPortInitialiseStack
 .text          0x00000000000059c6      0x4ca ./FreeRTOS_Source/event_groups.o
                0x00000000000059c6                xEventGroupCreate
                0x00000000000059e8                xEventGroupWaitBits
                0x0000000000005b60                xEventGroupClearBits
                0x0000000000005be4                xEventGroupGetBitsFromISR
                0x0000000000005be8                xEventGroupSetBits
                0x0000000000005cd4                xEventGroupSync
                0x0000000000005e24                vEventGroupDelete
                0x0000000000005e8c                vEventGroupSetBitsCallback
                0x0000000000005e8e                vEventGroupClearBitsCallback
 .text          0x0000000000005e90       0x90 ./FreeRTOS_Source/list.o
                0x0000000000005e90                vListInitialise
                0x0000000000005ea4                vListInitialiseItem
                0x0000000000005eaa                vListInsertEnd
                0x0000000000005ec2                vListInsert
                0x0000000000005ef2                uxListRemove
 .text          0x0000000000005f20     0x123a ./FreeRTOS_Source/queue.o
                0x0000000000006098                xQueueGenericReset
                0x00000000000061f2                xQueueGenericCreate
                0x0000000000006220                xQueueGetMutexHolder
                0x0000000000006250                xQueueGetMutexHolderFromISR
                0x0000000000006288                xQueueCreateCountingSemaphore
                0x00000000000062f4                xQueueGenericSend
                0x00000000000064ce                xQueueCreateMutex
                0x00000000000064fc                xQueueGiveMutexRecursive
                0x0000000000006562                xQueueGenericSendFromISR
                0x00000000000066a2                xQueueGiveFromISR
                0x00000000000067ae                xQueueReceive
                0x0000000000006942                xQueueSemaphoreTake
                0x0000000000006b3c                xQueueTakeMutexRecursive
                0x0000000000006baa                xQueuePeek
                0x0000000000006d36                xQueueReceiveFromISR
                0x0000000000006e34                xQueuePeekFromISR
                0x0000000000006ee2                uxQueueMessagesWaiting
                0x0000000000006f26                uxQueueSpacesAvailable
                0x0000000000006f70                uxQueueMessagesWaitingFromISR
                0x0000000000006fa0                vQueueDelete
                0x0000000000006ffe                xQueueIsQueueEmptyFromISR
                0x0000000000007034                xQueueIsQueueFullFromISR
                0x000000000000706e                vQueueAddToRegistry
                0x0000000000007096                pcQueueGetName
                0x00000000000070c0                vQueueUnregisterQueue
                0x00000000000070ee                vQueueWaitForMessageRestricted
 .text          0x000000000000715a      0xb2c ./FreeRTOS_Source/stream_buffer.o
                0x0000000000007400                xStreamBufferGenericCreate
                0x00000000000074d2                vStreamBufferDelete
                0x0000000000007514                xStreamBufferReset
                0x0000000000007576                xStreamBufferSetTriggerLevel
                0x00000000000075b6                xStreamBufferSpacesAvailable
                0x00000000000075f8                xStreamBufferBytesAvailable
                0x0000000000007638                xStreamBufferSend
                0x000000000000779c                xStreamBufferSendFromISR
                0x0000000000007864                xStreamBufferReceive
                0x00000000000079c8                xStreamBufferNextMessageLengthBytes
                0x0000000000007a6a                xStreamBufferReceiveFromISR
                0x0000000000007b5e                xStreamBufferIsEmpty
                0x0000000000007b96                xStreamBufferIsFull
                0x0000000000007bde                xStreamBufferSendCompletedFromISR
                0x0000000000007c32                xStreamBufferReceiveCompletedFromISR
 .text          0x0000000000007c86     0x1ee0 ./FreeRTOS_Source/tasks.o
                0x0000000000007e30                xTaskCreate
                0x000000000000805a                vTaskDelete
                0x0000000000008150                eTaskGetState
                0x000000000000820c                uxTaskPriorityGet
                0x000000000000824a                uxTaskPriorityGetFromISR
                0x0000000000008258                vTaskPrioritySet
                0x0000000000008370                vTaskResume
                0x0000000000008442                xTaskResumeFromISR
                0x00000000000084f6                vTaskStartScheduler
                0x0000000000008584                vTaskEndScheduler
                0x0000000000008590                vTaskSuspendAll
                0x000000000000859c                xTaskGetTickCount
                0x00000000000085a2                xTaskGetTickCountFromISR
                0x00000000000085a8                uxTaskGetNumberOfTasks
                0x00000000000085ae                pcTaskGetName
                0x00000000000085e8                xTaskIncrementTick
                0x0000000000008768                xTaskResumeAll
                0x000000000000889e                xTaskDelayUntil
                0x000000000000896e                vTaskDelay
                0x00000000000089c4                xTaskGetHandle
                0x0000000000008a86                xTaskCatchUpTicks
                0x0000000000008ace                xTaskAbortDelay
                0x0000000000008ba2                vTaskSwitchContext
                0x0000000000008c6a                vTaskSuspend
                0x0000000000008d92                vTaskPlaceOnEventList
                0x0000000000008ddc                vTaskPlaceOnUnorderedEventList
                0x0000000000008e62                vTaskPlaceOnEventListRestricted
                0x0000000000008eb6                xTaskRemoveFromEventList
                0x0000000000008f5c                vTaskRemoveFromUnorderedEventList
                0x0000000000009016                vTaskSetTimeOutState
                0x0000000000009088                vTaskInternalSetTimeOutState
                0x0000000000009096                xTaskCheckForTimeOut
                0x0000000000009188                vTaskMissedYield
                0x0000000000009190                xTaskGetCurrentTaskHandle
                0x0000000000009196                xTaskGetSchedulerState
                0x00000000000091aa                xTaskPriorityInherit
                0x0000000000009258                xTaskPriorityDisinherit
                0x0000000000009318                vTaskPriorityDisinheritAfterTimeout
                0x00000000000093fe                vTaskEnterCritical
                0x000000000000940e                vTaskExitCritical
                0x0000000000009422                uxTaskResetEventItemValue
                0x000000000000943a                pvTaskIncrementMutexHeldCount
                0x0000000000009450                ulTaskGenericNotifyTake
                0x000000000000953a                xTaskGenericNotifyWait
                0x0000000000009654                xTaskGenericNotify
                0x00000000000097e8                xTaskGenericNotifyFromISR
                0x0000000000009966                vTaskGenericNotifyGiveFromISR
                0x0000000000009a78                xTaskGenericNotifyStateClear
                0x0000000000009b08                ulTaskGenericNotifyValueClear
 .text          0x0000000000009b66      0x7b2 ./FreeRTOS_Source/timers.o
                0x0000000000009c18                xTimerCreateTimerTask
                0x0000000000009c72                xTimerCreate
                0x0000000000009d00                xTimerGenericCommand
                0x000000000000a05a                xTimerGetTimerDaemonTaskHandle
                0x000000000000a08c                xTimerGetPeriod
                0x000000000000a0bc                vTimerSetReloadMode
                0x000000000000a122                uxTimerGetReloadMode
                0x000000000000a16e                xTimerGetExpiryTime
                0x000000000000a19e                pcTimerGetName
                0x000000000000a1ce                xTimerIsTimerActive
                0x000000000000a218                pvTimerGetTimerID
                0x000000000000a25c                vTimerSetTimerID
                0x000000000000a2a2                xTimerPendFunctionCallFromISR
                0x000000000000a2c6                xTimerPendFunctionCall
 .text          0x000000000000a318       0xe0 ./Main.o
                0x000000000000a318                vToggleLED
                0x000000000000a33a                vSendString
                0x000000000000a33e                vApplicationMallocFailedHook
                0x000000000000a356                vApplicationIdleHook
                0x000000000000a358                vApplicationStackOverflowHook
                0x000000000000a370                vApplicationTickHook
                0x000000000000a374                vPortSetupTimerInterrupt
                0x000000000000a39c                SystemIrqHandler
                0x000000000000a3ac                SysTick_Handler
                0x000000000000a3da                TMR0_IRQHandler
 .text          0x000000000000a3f8       0xa8 d:/mounriver_studio/toolchain/risc-v embedded gcc/bin/../lib/gcc/riscv-none-embed/8.2.0/../../../../riscv-none-embed/lib/rv32imac/ilp32\libc_nano.a(lib_a-memset.o)
                0x000000000000a3f8                memset
 .text          0x000000000000a4a0      0x11e d:/mounriver_studio/toolchain/risc-v embedded gcc/bin/../lib/gcc/riscv-none-embed/8.2.0/../../../../riscv-none-embed/lib/rv32imac/ilp32\libc_nano.a(lib_a-strcmp.o)
                0x000000000000a4a0                strcmp
 *(.text.*)
 .text.startup  0x000000000000a5be       0x5e ./Main.o
                0x000000000000a5be                main
 .text.__libc_init_array
                0x000000000000a61c       0x6e d:/mounriver_studio/toolchain/risc-v embedded gcc/bin/../lib/gcc/riscv-none-embed/8.2.0/../../../../riscv-none-embed/lib/rv32imac/ilp32\libc_nano.a(lib_a-init.o)
                0x000000000000a61c                __libc_init_array
 .text.memcpy   0x000000000000a68a       0xb6 d:/mounriver_studio/toolchain/risc-v embedded gcc/bin/../lib/gcc/riscv-none-embed/8.2.0/../../../../riscv-none-embed/lib/rv32imac/ilp32\libc_nano.a(lib_a-memcpy.o)
                0x000000000000a68a                memcpy
 .text.printf   0x000000000000a740       0x40 d:/mounriver_studio/toolchain/risc-v embedded gcc/bin/../lib/gcc/riscv-none-embed/8.2.0/../../../../riscv-none-embed/lib/rv32imac/ilp32\libc_nano.a(lib_a-printf.o)
                0x000000000000a740                iprintf
                0x000000000000a740                printf
 .text.putchar  0x000000000000a780       0x2a d:/mounriver_studio/toolchain/risc-v embedded gcc/bin/../lib/gcc/riscv-none-embed/8.2.0/../../../../riscv-none-embed/lib/rv32imac/ilp32\libc_nano.a(lib_a-putchar.o)
                0x000000000000a780                putchar
 .text._puts_r  0x000000000000a7aa       0xda d:/mounriver_studio/toolchain/risc-v embedded gcc/bin/../lib/gcc/riscv-none-embed/8.2.0/../../../../riscv-none-embed/lib/rv32imac/ilp32\libc_nano.a(lib_a-puts.o)
                0x000000000000a7aa                _puts_r
 .text.puts     0x000000000000a884        0xc d:/mounriver_studio/toolchain/risc-v embedded gcc/bin/../lib/gcc/riscv-none-embed/8.2.0/../../../../riscv-none-embed/lib/rv32imac/ilp32\libc_nano.a(lib_a-puts.o)
                0x000000000000a884                puts
 .text.strlen   0x000000000000a890       0x12 d:/mounriver_studio/toolchain/risc-v embedded gcc/bin/../lib/gcc/riscv-none-embed/8.2.0/../../../../riscv-none-embed/lib/rv32imac/ilp32\libc_nano.a(lib_a-strlen.o)
                0x000000000000a890                strlen
 .text._vsprintf_r
                0x000000000000a8a2       0x2e d:/mounriver_studio/toolchain/risc-v embedded gcc/bin/../lib/gcc/riscv-none-embed/8.2.0/../../../../riscv-none-embed/lib/rv32imac/ilp32\libc_nano.a(lib_a-vsprintf.o)
                0x000000000000a8a2                _vsprintf_r
                0x000000000000a8a2                _vsiprintf_r
 .text.vsprintf
                0x000000000000a8d0       0x10 d:/mounriver_studio/toolchain/risc-v embedded gcc/bin/../lib/gcc/riscv-none-embed/8.2.0/../../../../riscv-none-embed/lib/rv32imac/ilp32\libc_nano.a(lib_a-vsprintf.o)
                0x000000000000a8d0                vsiprintf
                0x000000000000a8d0                vsprintf
 .text.__swbuf_r
                0x000000000000a8e0       0xc0 d:/mounriver_studio/toolchain/risc-v embedded gcc/bin/../lib/gcc/riscv-none-embed/8.2.0/../../../../riscv-none-embed/lib/rv32imac/ilp32\libc_nano.a(lib_a-wbuf.o)
                0x000000000000a8e0                __swbuf_r
 .text.__swsetup_r
                0x000000000000a9a0      0x10c d:/mounriver_studio/toolchain/risc-v embedded gcc/bin/../lib/gcc/riscv-none-embed/8.2.0/../../../../riscv-none-embed/lib/rv32imac/ilp32\libc_nano.a(lib_a-wsetup.o)
                0x000000000000a9a0                __swsetup_r
 .text.__sflush_r
                0x000000000000aaac      0x13c d:/mounriver_studio/toolchain/risc-v embedded gcc/bin/../lib/gcc/riscv-none-embed/8.2.0/../../../../riscv-none-embed/lib/rv32imac/ilp32\libc_nano.a(lib_a-fflush.o)
                0x000000000000aaac                __sflush_r
 .text._fflush_r
                0x000000000000abe8       0x66 d:/mounriver_studio/toolchain/risc-v embedded gcc/bin/../lib/gcc/riscv-none-embed/8.2.0/../../../../riscv-none-embed/lib/rv32imac/ilp32\libc_nano.a(lib_a-fflush.o)
                0x000000000000abe8                _fflush_r
 .text.std      0x000000000000ac4e       0x6a d:/mounriver_studio/toolchain/risc-v embedded gcc/bin/../lib/gcc/riscv-none-embed/8.2.0/../../../../riscv-none-embed/lib/rv32imac/ilp32\libc_nano.a(lib_a-findfp.o)
 .text._cleanup_r
                0x000000000000acb8        0xa d:/mounriver_studio/toolchain/risc-v embedded gcc/bin/../lib/gcc/riscv-none-embed/8.2.0/../../../../riscv-none-embed/lib/rv32imac/ilp32\libc_nano.a(lib_a-findfp.o)
                0x000000000000acb8                _cleanup_r
 .text.__sfmoreglue
                0x000000000000acc2       0x46 d:/mounriver_studio/toolchain/risc-v embedded gcc/bin/../lib/gcc/riscv-none-embed/8.2.0/../../../../riscv-none-embed/lib/rv32imac/ilp32\libc_nano.a(lib_a-findfp.o)
                0x000000000000acc2                __sfmoreglue
 .text.__sinit  0x000000000000ad08       0x70 d:/mounriver_studio/toolchain/risc-v embedded gcc/bin/../lib/gcc/riscv-none-embed/8.2.0/../../../../riscv-none-embed/lib/rv32imac/ilp32\libc_nano.a(lib_a-findfp.o)
                0x000000000000ad08                __sinit
 .text.__sfp    0x000000000000ad78       0xa4 d:/mounriver_studio/toolchain/risc-v embedded gcc/bin/../lib/gcc/riscv-none-embed/8.2.0/../../../../riscv-none-embed/lib/rv32imac/ilp32\libc_nano.a(lib_a-findfp.o)
                0x000000000000ad78                __sfp
 .text._fwalk_reent
                0x000000000000ae1c       0x6c d:/mounriver_studio/toolchain/risc-v embedded gcc/bin/../lib/gcc/riscv-none-embed/8.2.0/../../../../riscv-none-embed/lib/rv32imac/ilp32\libc_nano.a(lib_a-fwalk.o)
                0x000000000000ae1c                _fwalk_reent
 .text.__swhatbuf_r
                0x000000000000ae88       0x5a d:/mounriver_studio/toolchain/risc-v embedded gcc/bin/../lib/gcc/riscv-none-embed/8.2.0/../../../../riscv-none-embed/lib/rv32imac/ilp32\libc_nano.a(lib_a-makebuf.o)
                0x000000000000ae88                __swhatbuf_r
 .text.__smakebuf_r
                0x000000000000aee2       0xa0 d:/mounriver_studio/toolchain/risc-v embedded gcc/bin/../lib/gcc/riscv-none-embed/8.2.0/../../../../riscv-none-embed/lib/rv32imac/ilp32\libc_nano.a(lib_a-makebuf.o)
                0x000000000000aee2                __smakebuf_r
 .text._free_r  0x000000000000af82       0xa8 d:/mounriver_studio/toolchain/risc-v embedded gcc/bin/../lib/gcc/riscv-none-embed/8.2.0/../../../../riscv-none-embed/lib/rv32imac/ilp32\libc_nano.a(lib_a-nano-freer.o)
                0x000000000000af82                _free_r
 .text._malloc_r
                0x000000000000b02a       0xda d:/mounriver_studio/toolchain/risc-v embedded gcc/bin/../lib/gcc/riscv-none-embed/8.2.0/../../../../riscv-none-embed/lib/rv32imac/ilp32\libc_nano.a(lib_a-nano-mallocr.o)
                0x000000000000b02a                _malloc_r
 .text.__ssputs_r
                0x000000000000b104       0xee d:/mounriver_studio/toolchain/risc-v embedded gcc/bin/../lib/gcc/riscv-none-embed/8.2.0/../../../../riscv-none-embed/lib/rv32imac/ilp32\libc_nano.a(lib_a-nano-svfprintf.o)
                0x000000000000b104                __ssputs_r
 .text._svfprintf_r
                0x000000000000b1f2      0x280 d:/mounriver_studio/toolchain/risc-v embedded gcc/bin/../lib/gcc/riscv-none-embed/8.2.0/../../../../riscv-none-embed/lib/rv32imac/ilp32\libc_nano.a(lib_a-nano-svfprintf.o)
                0x000000000000b1f2                _svfiprintf_r
                0x000000000000b1f2                _svfprintf_r
 .text.__sfputc_r
                0x000000000000b472       0x2a d:/mounriver_studio/toolchain/risc-v embedded gcc/bin/../lib/gcc/riscv-none-embed/8.2.0/../../../../riscv-none-embed/lib/rv32imac/ilp32\libc_nano.a(lib_a-nano-vfprintf.o)
 .text.__sfputs_r
                0x000000000000b49c       0x44 d:/mounriver_studio/toolchain/risc-v embedded gcc/bin/../lib/gcc/riscv-none-embed/8.2.0/../../../../riscv-none-embed/lib/rv32imac/ilp32\libc_nano.a(lib_a-nano-vfprintf.o)
                0x000000000000b49c                __sfputs_r
 .text._vfprintf_r
                0x000000000000b4e0      0x29e d:/mounriver_studio/toolchain/risc-v embedded gcc/bin/../lib/gcc/riscv-none-embed/8.2.0/../../../../riscv-none-embed/lib/rv32imac/ilp32\libc_nano.a(lib_a-nano-vfprintf.o)
                0x000000000000b4e0                _vfprintf_r
                0x000000000000b4e0                _vfiprintf_r
 .text._printf_common
                0x000000000000b77e      0x10c d:/mounriver_studio/toolchain/risc-v embedded gcc/bin/../lib/gcc/riscv-none-embed/8.2.0/../../../../riscv-none-embed/lib/rv32imac/ilp32\libc_nano.a(lib_a-nano-vfprintf_i.o)
                0x000000000000b77e                _printf_common
 .text._printf_i
                0x000000000000b88a      0x2a4 d:/mounriver_studio/toolchain/risc-v embedded gcc/bin/../lib/gcc/riscv-none-embed/8.2.0/../../../../riscv-none-embed/lib/rv32imac/ilp32\libc_nano.a(lib_a-nano-vfprintf_i.o)
                0x000000000000b88a                _printf_i
 .text._putc_r  0x000000000000bb2e       0x86 d:/mounriver_studio/toolchain/risc-v embedded gcc/bin/../lib/gcc/riscv-none-embed/8.2.0/../../../../riscv-none-embed/lib/rv32imac/ilp32\libc_nano.a(lib_a-putc.o)
                0x000000000000bb2e                _putc_r
 .text._sbrk_r  0x000000000000bbb4       0x30 d:/mounriver_studio/toolchain/risc-v embedded gcc/bin/../lib/gcc/riscv-none-embed/8.2.0/../../../../riscv-none-embed/lib/rv32imac/ilp32\libc_nano.a(lib_a-sbrkr.o)
                0x000000000000bbb4                _sbrk_r
 .text.__sread  0x000000000000bbe4       0x30 d:/mounriver_studio/toolchain/risc-v embedded gcc/bin/../lib/gcc/riscv-none-embed/8.2.0/../../../../riscv-none-embed/lib/rv32imac/ilp32\libc_nano.a(lib_a-stdio.o)
                0x000000000000bbe4                __sread
 .text.__swrite
                0x000000000000bc14       0x4e d:/mounriver_studio/toolchain/risc-v embedded gcc/bin/../lib/gcc/riscv-none-embed/8.2.0/../../../../riscv-none-embed/lib/rv32imac/ilp32\libc_nano.a(lib_a-stdio.o)
                0x000000000000bc14                __swrite
 .text.__sseek  0x000000000000bc62       0x36 d:/mounriver_studio/toolchain/risc-v embedded gcc/bin/../lib/gcc/riscv-none-embed/8.2.0/../../../../riscv-none-embed/lib/rv32imac/ilp32\libc_nano.a(lib_a-stdio.o)
                0x000000000000bc62                __sseek
 .text.__sclose
                0x000000000000bc98        0x6 d:/mounriver_studio/toolchain/risc-v embedded gcc/bin/../lib/gcc/riscv-none-embed/8.2.0/../../../../riscv-none-embed/lib/rv32imac/ilp32\libc_nano.a(lib_a-stdio.o)
                0x000000000000bc98                __sclose
 .text._write_r
                0x000000000000bc9e       0x36 d:/mounriver_studio/toolchain/risc-v embedded gcc/bin/../lib/gcc/riscv-none-embed/8.2.0/../../../../riscv-none-embed/lib/rv32imac/ilp32\libc_nano.a(lib_a-writer.o)
                0x000000000000bc9e                _write_r
 .text._close_r
                0x000000000000bcd4       0x30 d:/mounriver_studio/toolchain/risc-v embedded gcc/bin/../lib/gcc/riscv-none-embed/8.2.0/../../../../riscv-none-embed/lib/rv32imac/ilp32\libc_nano.a(lib_a-closer.o)
                0x000000000000bcd4                _close_r
 .text._fstat_r
                0x000000000000bd04       0x32 d:/mounriver_studio/toolchain/risc-v embedded gcc/bin/../lib/gcc/riscv-none-embed/8.2.0/../../../../riscv-none-embed/lib/rv32imac/ilp32\libc_nano.a(lib_a-fstatr.o)
                0x000000000000bd04                _fstat_r
 .text._isatty_r
                0x000000000000bd36       0x30 d:/mounriver_studio/toolchain/risc-v embedded gcc/bin/../lib/gcc/riscv-none-embed/8.2.0/../../../../riscv-none-embed/lib/rv32imac/ilp32\libc_nano.a(lib_a-isattyr.o)
                0x000000000000bd36                _isatty_r
 .text._lseek_r
                0x000000000000bd66       0x34 d:/mounriver_studio/toolchain/risc-v embedded gcc/bin/../lib/gcc/riscv-none-embed/8.2.0/../../../../riscv-none-embed/lib/rv32imac/ilp32\libc_nano.a(lib_a-lseekr.o)
                0x000000000000bd66                _lseek_r
 .text.memchr   0x000000000000bd9a       0x1a d:/mounriver_studio/toolchain/risc-v embedded gcc/bin/../lib/gcc/riscv-none-embed/8.2.0/../../../../riscv-none-embed/lib/rv32imac/ilp32\libc_nano.a(lib_a-memchr.o)
                0x000000000000bd9a                memchr
 .text.memmove  0x000000000000bdb4       0x4a d:/mounriver_studio/toolchain/risc-v embedded gcc/bin/../lib/gcc/riscv-none-embed/8.2.0/../../../../riscv-none-embed/lib/rv32imac/ilp32\libc_nano.a(lib_a-memmove.o)
                0x000000000000bdb4                memmove
 .text.__malloc_lock
                0x000000000000bdfe        0x2 d:/mounriver_studio/toolchain/risc-v embedded gcc/bin/../lib/gcc/riscv-none-embed/8.2.0/../../../../riscv-none-embed/lib/rv32imac/ilp32\libc_nano.a(lib_a-mlock.o)
                0x000000000000bdfe                __malloc_lock
 .text.__malloc_unlock
                0x000000000000be00        0x2 d:/mounriver_studio/toolchain/risc-v embedded gcc/bin/../lib/gcc/riscv-none-embed/8.2.0/../../../../riscv-none-embed/lib/rv32imac/ilp32\libc_nano.a(lib_a-mlock.o)
                0x000000000000be00                __malloc_unlock
 .text._realloc_r
                0x000000000000be02       0x58 d:/mounriver_studio/toolchain/risc-v embedded gcc/bin/../lib/gcc/riscv-none-embed/8.2.0/../../../../riscv-none-embed/lib/rv32imac/ilp32\libc_nano.a(lib_a-nano-reallocr.o)
                0x000000000000be02                _realloc_r
 .text._read_r  0x000000000000be5a       0x34 d:/mounriver_studio/toolchain/risc-v embedded gcc/bin/../lib/gcc/riscv-none-embed/8.2.0/../../../../riscv-none-embed/lib/rv32imac/ilp32\libc_nano.a(lib_a-readr.o)
                0x000000000000be5a                _read_r
 .text._malloc_usable_size_r
                0x000000000000be8e       0x14 d:/mounriver_studio/toolchain/risc-v embedded gcc/bin/../lib/gcc/riscv-none-embed/8.2.0/../../../../riscv-none-embed/lib/rv32imac/ilp32\libc_nano.a(lib_a-nano-msizer.o)
                0x000000000000be8e                _malloc_usable_size_r
 .text._close   0x000000000000bea2       0x10 d:/mounriver_studio/toolchain/risc-v embedded gcc/bin/../lib/gcc/riscv-none-embed/8.2.0/../../../../riscv-none-embed/lib/rv32imac/ilp32\libnosys.a(close.o)
                0x000000000000bea2                _close
 .text._fstat   0x000000000000beb2       0x10 d:/mounriver_studio/toolchain/risc-v embedded gcc/bin/../lib/gcc/riscv-none-embed/8.2.0/../../../../riscv-none-embed/lib/rv32imac/ilp32\libnosys.a(fstat.o)
                0x000000000000beb2                _fstat
 .text._isatty  0x000000000000bec2       0x10 d:/mounriver_studio/toolchain/risc-v embedded gcc/bin/../lib/gcc/riscv-none-embed/8.2.0/../../../../riscv-none-embed/lib/rv32imac/ilp32\libnosys.a(isatty.o)
                0x000000000000bec2                _isatty
 .text._lseek   0x000000000000bed2       0x10 d:/mounriver_studio/toolchain/risc-v embedded gcc/bin/../lib/gcc/riscv-none-embed/8.2.0/../../../../riscv-none-embed/lib/rv32imac/ilp32\libnosys.a(lseek.o)
                0x000000000000bed2                _lseek
 .text._read    0x000000000000bee2       0x10 d:/mounriver_studio/toolchain/risc-v embedded gcc/bin/../lib/gcc/riscv-none-embed/8.2.0/../../../../riscv-none-embed/lib/rv32imac/ilp32\libnosys.a(read.o)
                0x000000000000bee2                _read
 .text._sbrk    0x000000000000bef2       0x24 d:/mounriver_studio/toolchain/risc-v embedded gcc/bin/../lib/gcc/riscv-none-embed/8.2.0/../../../../riscv-none-embed/lib/rv32imac/ilp32\libnosys.a(sbrk.o)
                0x000000000000bef2                _sbrk
 *(.rodata)
 *fill*         0x000000000000bf16        0x2 
 .rodata        0x000000000000bf18       0xc3 ./full_demo/common_demo_files/AbortDelay.o
 *fill*         0x000000000000bfdb        0x1 
 .rodata        0x000000000000bfdc       0x6b ./full_demo/common_demo_files/EventGroupsDemo.o
 *fill*         0x000000000000c047        0x1 
 .rodata        0x000000000000c048       0x4b ./full_demo/common_demo_files/TaskNotify.o
 *fill*         0x000000000000c093        0x1 
 .rodata        0x000000000000c094      0x183 ./full_demo/common_demo_files/TimerDemo.o
 *fill*         0x000000000000c217        0x1 
 .rodata        0x000000000000c218       0x2d ./full_demo/common_demo_files/dynamic.o
 *fill*         0x000000000000c245        0x3 
 .rodata        0x000000000000c248       0x1d ./full_demo/common_demo_files/recmutex.o
 *fill*         0x000000000000c265        0x3 
 .rodata        0x000000000000c268       0x28 ./common/CH58x_sdk/StdPeriphDriver/CH58x_gpio.o
 .rodata        0x000000000000c290       0x1a ./FreeRTOS_Source/portable/MemMang/heap_4.o
 *fill*         0x000000000000c2aa        0x2 
 .rodata        0x000000000000c2ac       0x14 ./FreeRTOS_Source/portable/GCC/RISC-V/port.o
 .rodata        0x000000000000c2c0       0x62 ./FreeRTOS_Source/event_groups.o
 *fill*         0x000000000000c322        0x2 
 .rodata        0x000000000000c324      0x1d1 ./FreeRTOS_Source/queue.o
 *fill*         0x000000000000c4f5        0x3 
 .rodata        0x000000000000c4f8      0x1ed ./FreeRTOS_Source/stream_buffer.o
 *fill*         0x000000000000c6e5        0x3 
 .rodata        0x000000000000c6e8      0x2d5 ./FreeRTOS_Source/tasks.o
 *fill*         0x000000000000c9bd        0x3 
 .rodata        0x000000000000c9c0      0x18b ./FreeRTOS_Source/timers.o
 *(.rodata*)
 *fill*         0x000000000000cb4b        0x1 
 .rodata.str1.4
                0x000000000000cb4c       0x4f ./full_demo/common_demo_files/AbortDelay.o
 *fill*         0x000000000000cb9b        0x1 
 .rodata.str1.4
                0x000000000000cb9c       0x59 ./full_demo/common_demo_files/EventGroupsDemo.o
                                         0x5d (size before relaxing)
 *fill*         0x000000000000cbf5        0x3 
 .rodata.str1.4
                0x000000000000cbf8       0x61 ./full_demo/common_demo_files/TaskNotify.o
                                         0x65 (size before relaxing)
 *fill*         0x000000000000cc59        0x3 
 .rodata.str1.4
                0x000000000000cc5c       0x70 ./full_demo/common_demo_files/TimerDemo.o
                                         0x74 (size before relaxing)
 .rodata.str1.4
                0x000000000000cccc       0x23 ./full_demo/common_demo_files/blocktim.o
 *fill*         0x000000000000ccef        0x1 
 .rodata.str1.4
                0x000000000000ccf0       0x7c ./full_demo/common_demo_files/dynamic.o
                                         0x80 (size before relaxing)
 .rodata.str1.4
                0x000000000000cd6c       0x61 ./full_demo/common_demo_files/recmutex.o
                                         0x65 (size before relaxing)
 *fill*         0x000000000000cdcd        0x3 
 .rodata.str1.4
                0x000000000000cdd0      0x18a ./full_demo/main_full.o
 *fill*         0x000000000000cf5a        0x2 
 .rodata.str1.4
                0x000000000000cf5c       0x3d ./common/CH58x_sdk/RVMSIS/core_riscv.o
 *fill*         0x000000000000cf99        0x3 
 .rodata.str1.4
                0x000000000000cf9c       0xb3 ./common/DEBUG.o
 *fill*         0x000000000000d04f        0x1 
 .rodata.str1.4
                0x000000000000d050       0x45 ./FreeRTOS_Source/portable/MemMang/heap_4.o
                                         0x49 (size before relaxing)
 *fill*         0x000000000000d095        0x3 
 .rodata.str1.4
                0x000000000000d098       0x46 ./FreeRTOS_Source/portable/GCC/RISC-V/port.o
                                         0x4a (size before relaxing)
 *fill*         0x000000000000d0de        0x2 
 .rodata.str1.4
                0x000000000000d0e0       0x3a ./FreeRTOS_Source/event_groups.o
                                         0x3e (size before relaxing)
 *fill*         0x000000000000d11a        0x2 
 .rodata.str1.4
                0x000000000000d11c       0x33 ./FreeRTOS_Source/queue.o
                                         0x37 (size before relaxing)
 *fill*         0x000000000000d14f        0x1 
 .rodata.str1.4
                0x000000000000d150       0x3b ./FreeRTOS_Source/stream_buffer.o
                                         0x3f (size before relaxing)
 *fill*         0x000000000000d18b        0x1 
 .rodata.str1.4
                0x000000000000d18c       0x39 ./FreeRTOS_Source/tasks.o
                                         0x3d (size before relaxing)
 *fill*         0x000000000000d1c5        0x3 
 .rodata.str1.4
                0x000000000000d1c8       0x44 ./FreeRTOS_Source/timers.o
                                         0x48 (size before relaxing)
 .rodata.str1.4
                0x000000000000d20c       0x56 ./Main.o
 *fill*         0x000000000000d262        0x2 
 .rodata.__sf_fake_stderr
                0x000000000000d264       0x20 d:/mounriver_studio/toolchain/risc-v embedded gcc/bin/../lib/gcc/riscv-none-embed/8.2.0/../../../../riscv-none-embed/lib/rv32imac/ilp32\libc_nano.a(lib_a-findfp.o)
                0x000000000000d264                __sf_fake_stderr
 .rodata.__sf_fake_stdin
                0x000000000000d284       0x20 d:/mounriver_studio/toolchain/risc-v embedded gcc/bin/../lib/gcc/riscv-none-embed/8.2.0/../../../../riscv-none-embed/lib/rv32imac/ilp32\libc_nano.a(lib_a-findfp.o)
                0x000000000000d284                __sf_fake_stdin
 .rodata.__sf_fake_stdout
                0x000000000000d2a4       0x20 d:/mounriver_studio/toolchain/risc-v embedded gcc/bin/../lib/gcc/riscv-none-embed/8.2.0/../../../../riscv-none-embed/lib/rv32imac/ilp32\libc_nano.a(lib_a-findfp.o)
                0x000000000000d2a4                __sf_fake_stdout
 .rodata._svfprintf_r.str1.4
                0x000000000000d2c4       0x13 d:/mounriver_studio/toolchain/risc-v embedded gcc/bin/../lib/gcc/riscv-none-embed/8.2.0/../../../../riscv-none-embed/lib/rv32imac/ilp32\libc_nano.a(lib_a-nano-svfprintf.o)
 .rodata._vfprintf_r.str1.4
                0x000000000000d2d7       0x13 d:/mounriver_studio/toolchain/risc-v embedded gcc/bin/../lib/gcc/riscv-none-embed/8.2.0/../../../../riscv-none-embed/lib/rv32imac/ilp32\libc_nano.a(lib_a-nano-vfprintf.o)
 *fill*         0x000000000000d2d7        0x1 
 .rodata._printf_i.str1.4
                0x000000000000d2d8       0x28 d:/mounriver_studio/toolchain/risc-v embedded gcc/bin/../lib/gcc/riscv-none-embed/8.2.0/../../../../riscv-none-embed/lib/rv32imac/ilp32\libc_nano.a(lib_a-nano-vfprintf_i.o)
                                         0x25 (size before relaxing)
 *(.sdata2.*)
 .sdata2._global_impure_ptr
                0x000000000000d300        0x4 d:/mounriver_studio/toolchain/risc-v embedded gcc/bin/../lib/gcc/riscv-none-embed/8.2.0/../../../../riscv-none-embed/lib/rv32imac/ilp32\libc_nano.a(lib_a-impure.o)
                0x000000000000d300                _global_impure_ptr
 *(.glue_7)
 *(.glue_7t)
 *(.gnu.linkonce.t.*)
                0x000000000000d304                . = ALIGN (0x4)

.rela.dyn       0x000000000000d304        0x0
 .rela.text     0x000000000000d304        0x0 ./full_demo/common_demo_files/AbortDelay.o
 .rela.vectors  0x000000000000d304        0x0 ./full_demo/common_demo_files/AbortDelay.o
 .relauser_vectors
                0x000000000000d304        0x0 ./full_demo/common_demo_files/AbortDelay.o
 .rela.srodata  0x000000000000d304        0x0 ./full_demo/common_demo_files/AbortDelay.o
 .rela.text.__libc_init_array
                0x000000000000d304        0x0 ./full_demo/common_demo_files/AbortDelay.o
 .rela.text._svfprintf_r
                0x000000000000d304        0x0 ./full_demo/common_demo_files/AbortDelay.o
 .rela.text._vfprintf_r
                0x000000000000d304        0x0 ./full_demo/common_demo_files/AbortDelay.o
 .rela.text._sbrk_r
                0x000000000000d304        0x0 ./full_demo/common_demo_files/AbortDelay.o
 .rela.text._write_r
                0x000000000000d304        0x0 ./full_demo/common_demo_files/AbortDelay.o
 .rela.text._close_r
                0x000000000000d304        0x0 ./full_demo/common_demo_files/AbortDelay.o
 .rela.text._fstat_r
                0x000000000000d304        0x0 ./full_demo/common_demo_files/AbortDelay.o
 .rela.text._isatty_r
                0x000000000000d304        0x0 ./full_demo/common_demo_files/AbortDelay.o
 .rela.text._lseek_r
                0x000000000000d304        0x0 ./full_demo/common_demo_files/AbortDelay.o
 .rela.text._read_r
                0x000000000000d304        0x0 ./full_demo/common_demo_files/AbortDelay.o
 .rela.text._close
                0x000000000000d304        0x0 ./full_demo/common_demo_files/AbortDelay.o
 .rela.text._fstat
                0x000000000000d304        0x0 ./full_demo/common_demo_files/AbortDelay.o
 .rela.text._isatty
                0x000000000000d304        0x0 ./full_demo/common_demo_files/AbortDelay.o
 .rela.text._lseek
                0x000000000000d304        0x0 ./full_demo/common_demo_files/AbortDelay.o
 .rela.text._read
                0x000000000000d304        0x0 ./full_demo/common_demo_files/AbortDelay.o
 .rela.text._sbrk
                0x000000000000d304        0x0 ./full_demo/common_demo_files/AbortDelay.o

.fini           0x000000000000d304        0x0
 *(SORT_NONE(.fini))
                0x000000000000d304                . = ALIGN (0x4)
                [!provide]                        PROVIDE (_etext = .)
                [!provide]                        PROVIDE (_eitcm = .)

.preinit_array  0x000000000000d304        0x0
                0x000000000000d304                PROVIDE (__preinit_array_start = .)
 *(.preinit_array)
                0x000000000000d304                PROVIDE (__preinit_array_end = .)

.init_array     0x000000000000d304        0x0
                0x000000000000d304                PROVIDE (__init_array_start = .)
 *(SORT_BY_INIT_PRIORITY(.init_array.*) SORT_BY_INIT_PRIORITY(.ctors.*))
 *(.init_array EXCLUDE_FILE(*crtend?.o *crtend.o *crtbegin?.o *crtbegin.o) .ctors)
                0x000000000000d304                PROVIDE (__init_array_end = .)

.fini_array     0x000000000000d304        0x0
                [!provide]                        PROVIDE (__fini_array_start = .)
 *(SORT_BY_INIT_PRIORITY(.fini_array.*) SORT_BY_INIT_PRIORITY(.dtors.*))
 *(.fini_array EXCLUDE_FILE(*crtend?.o *crtend.o *crtbegin?.o *crtbegin.o) .dtors)
                [!provide]                        PROVIDE (__fini_array_end = .)

.ctors
 *crtbegin.o(.ctors)
 *crtbegin?.o(.ctors)
 *(EXCLUDE_FILE(*crtend?.o *crtend.o) .ctors)
 *(SORT_BY_NAME(.ctors.*))
 *(.ctors)

.dtors
 *crtbegin.o(.dtors)
 *crtbegin?.o(.dtors)
 *(EXCLUDE_FILE(*crtend?.o *crtend.o) .dtors)
 *(SORT_BY_NAME(.dtors.*))
 *(.dtors)

.dalign         0x0000000020000138      0x6c8 load address 0x000000000000d304
                0x0000000020000800                . = (ORIGIN (RAM) + MAX (0x800, SIZEOF (.highcode)))
 *fill*         0x0000000020000138      0x6c8 

.dlalign        0x000000000000d304        0x0
                0x000000000000d304                . = ALIGN (0x4)
                0x000000000000d304                PROVIDE (_data_lma = .)

.data           0x0000000020000800       0x84 load address 0x000000000000d304
                0x0000000020000800                PROVIDE (_data_vma = .)
 *(.gnu.linkonce.r.*)
 *(.data .data.*)
 .data.impure_data
                0x0000000020000800       0x60 d:/mounriver_studio/toolchain/risc-v embedded gcc/bin/../lib/gcc/riscv-none-embed/8.2.0/../../../../riscv-none-embed/lib/rv32imac/ilp32\libc_nano.a(lib_a-impure.o)
 *(.gnu.linkonce.d.*)
                0x0000000020000860                . = ALIGN (0x8)
                0x0000000020001060                PROVIDE (__global_pointer$ = (. + 0x800))
 *(.sdata .sdata.*)
 .sdata         0x0000000020000860        0x4 ./full_demo/common_demo_files/TaskNotify.o
 .sdata         0x0000000020000864        0x8 ./full_demo/common_demo_files/TimerDemo.o
 .sdata         0x000000002000086c        0x4 ./FreeRTOS_Source/tasks.o
                0x000000002000086c                uxTopUsedPriority
 .sdata._impure_ptr
                0x0000000020000870        0x4 d:/mounriver_studio/toolchain/risc-v embedded gcc/bin/../lib/gcc/riscv-none-embed/8.2.0/../../../../riscv-none-embed/lib/rv32imac/ilp32\libc_nano.a(lib_a-impure.o)
                0x0000000020000870                _impure_ptr
 *(.gnu.linkonce.s.*)
                0x0000000020000878                . = ALIGN (0x8)
 *fill*         0x0000000020000874        0x4 
 *(.srodata.cst16)
 *(.srodata.cst8)
 *(.srodata.cst4)
 *(.srodata.cst2)
 *(.srodata .srodata.*)
 .srodata       0x0000000020000878        0xc ./FreeRTOS_Source/portable/GCC/RISC-V/port.o
                0x0000000020000878                ullMachineTimerCompareRegisterBase
                0x000000002000087c                uxTimerIncrementsForOneTick
                0x0000000020000880                xISRStackTop
                0x0000000020000884                . = ALIGN (0x4)
                0x0000000020000884                PROVIDE (_edata = .)

.bss            0x0000000020000884     0x53a0 load address 0x000000000000d388
                0x0000000020000884                . = ALIGN (0x4)
                0x0000000020000884                PROVIDE (_sbss = .)
 *(.sbss*)
 .sbss          0x0000000020000884       0x14 ./full_demo/common_demo_files/AbortDelay.o
 .sbss          0x0000000020000898       0x30 ./full_demo/common_demo_files/EventGroupsDemo.o
 .sbss          0x00000000200008c8       0x28 ./full_demo/common_demo_files/TaskNotify.o
 .sbss          0x00000000200008f0       0x38 ./full_demo/common_demo_files/TimerDemo.o
 .sbss          0x0000000020000928       0x20 ./full_demo/common_demo_files/blocktim.o
 .sbss          0x0000000020000948       0x28 ./full_demo/common_demo_files/dynamic.o
 .sbss          0x0000000020000970       0x30 ./full_demo/common_demo_files/recmutex.o
 .sbss          0x00000000200009a0       0x10 ./full_demo/main_full.o
                0x00000000200009a8                ulRegTest2LoopCounter
                0x00000000200009ac                ulRegTest1LoopCounter
 .sbss          0x00000000200009b0        0x4 ./common/CH58x_sdk/RVMSIS/core_riscv.o
 .sbss          0x00000000200009b4       0x20 ./FreeRTOS_Source/portable/MemMang/heap_4.o
 .sbss          0x00000000200009d4       0x3c ./FreeRTOS_Source/tasks.o
                0x0000000020000a0c                pxCurrentTCB
 .sbss          0x0000000020000a10       0x14 ./FreeRTOS_Source/timers.o
 .sbss.__malloc_free_list
                0x0000000020000a24        0x4 d:/mounriver_studio/toolchain/risc-v embedded gcc/bin/../lib/gcc/riscv-none-embed/8.2.0/../../../../riscv-none-embed/lib/rv32imac/ilp32\libc_nano.a(lib_a-nano-mallocr.o)
                0x0000000020000a24                __malloc_free_list
 .sbss.__malloc_sbrk_start
                0x0000000020000a28        0x4 d:/mounriver_studio/toolchain/risc-v embedded gcc/bin/../lib/gcc/riscv-none-embed/8.2.0/../../../../riscv-none-embed/lib/rv32imac/ilp32\libc_nano.a(lib_a-nano-mallocr.o)
                0x0000000020000a28                __malloc_sbrk_start
 .sbss.heap_end.1518
                0x0000000020000a2c        0x4 d:/mounriver_studio/toolchain/risc-v embedded gcc/bin/../lib/gcc/riscv-none-embed/8.2.0/../../../../riscv-none-embed/lib/rv32imac/ilp32\libnosys.a(sbrk.o)
 *(.gnu.linkonce.sb.*)
 *(.bss*)
 .bss           0x0000000020000a30       0x14 ./full_demo/common_demo_files/TimerDemo.o
 .bss           0x0000000020000a44       0x80 ./common/DEBUG.o
 .bss           0x0000000020000ac4     0x5000 ./FreeRTOS_Source/portable/MemMang/heap_4.o
 .bss           0x0000000020005ac4       0xf0 ./FreeRTOS_Source/tasks.o
 .bss           0x0000000020005bb4       0x28 ./FreeRTOS_Source/timers.o
 *(.gnu.linkonce.b.*)
 *(COMMON*)
 COMMON         0x0000000020005bdc        0x4 ./full_demo/common_demo_files/dynamic.o
                0x0000000020005bdc                xSuspendedTestQueue
 COMMON         0x0000000020005be0       0x40 ./FreeRTOS_Source/queue.o
                0x0000000020005be0                xQueueRegistry
 COMMON         0x0000000020005c20        0x4 d:/mounriver_studio/toolchain/risc-v embedded gcc/bin/../lib/gcc/riscv-none-embed/8.2.0/../../../../riscv-none-embed/lib/rv32imac/ilp32\libc_nano.a(lib_a-reent.o)
                0x0000000020005c20                errno
                0x0000000020005c24                . = ALIGN (0x4)
                0x0000000020005c24                PROVIDE (_ebss = .)
                [!provide]                        PROVIDE (_end = _ebss)
                0x0000000020005c24                PROVIDE (end = .)

.stack          0x0000000020005c24      0x80c load address 0x000000000000d388
                0x0000000020005c28                . = ALIGN (0x8)
 *fill*         0x0000000020005c24        0x4 
                0x0000000020005c28                __StackLimit = .
                0x0000000020006428                . = (. + STACK_SIZE)
 *fill*         0x0000000020005c28      0x800 
                0x0000000020006428                __StackTop = .
                0x0000000020006430                . = ALIGN (0x10)
 *fill*         0x0000000020006428        0x8 
                0x0000000020006430                __freertos_irq_stack_top = .
                [!provide]                        PROVIDE (__stack = __StackTop)
OUTPUT(RTOSDemo_blinky.elf elf32-littleriscv)

.debug_info     0x0000000000000000    0x22597
 .debug_info    0x0000000000000000     0x217e ./full_demo/common_demo_files/AbortDelay.o
 .debug_info    0x000000000000217e     0x1b70 ./full_demo/common_demo_files/EventGroupsDemo.o
 .debug_info    0x0000000000003cee     0x23c9 ./full_demo/common_demo_files/TaskNotify.o
 .debug_info    0x00000000000060b7     0x232a ./full_demo/common_demo_files/TimerDemo.o
 .debug_info    0x00000000000083e1     0x1299 ./full_demo/common_demo_files/blocktim.o
 .debug_info    0x000000000000967a     0x1332 ./full_demo/common_demo_files/dynamic.o
 .debug_info    0x000000000000a9ac     0x110e ./full_demo/common_demo_files/recmutex.o
 .debug_info    0x000000000000baba       0x26 ./full_demo/RegTest.o
 .debug_info    0x000000000000bae0     0x1018 ./full_demo/main_full.o
 .debug_info    0x000000000000caf8      0xcee ./common/CH58x_sdk/StdPeriphDriver/CH58x_gpio.o
 .debug_info    0x000000000000d7e6     0x10cc ./common/CH58x_sdk/StdPeriphDriver/CH58x_sys.o
 .debug_info    0x000000000000e8b2      0xcfb ./common/CH58x_sdk/StdPeriphDriver/CH58x_uart1.o
 .debug_info    0x000000000000f5ad       0x22 ./common/CH58x_sdk/Startup/startup_CH573.o
 .debug_info    0x000000000000f5cf      0xff2 ./common/CH58x_sdk/RVMSIS/core_riscv.o
 .debug_info    0x00000000000105c1      0xded ./common/DEBUG.o
 .debug_info    0x00000000000113ae     0x10a7 ./FreeRTOS_Source/portable/MemMang/heap_4.o
 .debug_info    0x0000000000012455      0xd03 ./FreeRTOS_Source/portable/GCC/RISC-V/port.o
 .debug_info    0x0000000000013158       0x26 ./FreeRTOS_Source/portable/GCC/RISC-V/portASM.o
 .debug_info    0x000000000001317e     0x17be ./FreeRTOS_Source/event_groups.o
 .debug_info    0x000000000001493c      0xd2d ./FreeRTOS_Source/list.o
 .debug_info    0x0000000000015669     0x31ad ./FreeRTOS_Source/queue.o
 .debug_info    0x0000000000018816     0x272b ./FreeRTOS_Source/stream_buffer.o
 .debug_info    0x000000000001af41     0x40b0 ./FreeRTOS_Source/tasks.o
 .debug_info    0x000000000001eff1     0x2259 ./FreeRTOS_Source/timers.o
 .debug_info    0x000000000002124a     0x134d ./Main.o

.debug_abbrev   0x0000000000000000     0x4e55
 .debug_abbrev  0x0000000000000000      0x3e2 ./full_demo/common_demo_files/AbortDelay.o
 .debug_abbrev  0x00000000000003e2      0x405 ./full_demo/common_demo_files/EventGroupsDemo.o
 .debug_abbrev  0x00000000000007e7      0x3b3 ./full_demo/common_demo_files/TaskNotify.o
 .debug_abbrev  0x0000000000000b9a      0x3d7 ./full_demo/common_demo_files/TimerDemo.o
 .debug_abbrev  0x0000000000000f71      0x35e ./full_demo/common_demo_files/blocktim.o
 .debug_abbrev  0x00000000000012cf      0x334 ./full_demo/common_demo_files/dynamic.o
 .debug_abbrev  0x0000000000001603      0x334 ./full_demo/common_demo_files/recmutex.o
 .debug_abbrev  0x0000000000001937       0x14 ./full_demo/RegTest.o
 .debug_abbrev  0x000000000000194b      0x33e ./full_demo/main_full.o
 .debug_abbrev  0x0000000000001c89      0x27b ./common/CH58x_sdk/StdPeriphDriver/CH58x_gpio.o
 .debug_abbrev  0x0000000000001f04      0x3bf ./common/CH58x_sdk/StdPeriphDriver/CH58x_sys.o
 .debug_abbrev  0x00000000000022c3      0x304 ./common/CH58x_sdk/StdPeriphDriver/CH58x_uart1.o
 .debug_abbrev  0x00000000000025c7       0x12 ./common/CH58x_sdk/Startup/startup_CH573.o
 .debug_abbrev  0x00000000000025d9      0x307 ./common/CH58x_sdk/RVMSIS/core_riscv.o
 .debug_abbrev  0x00000000000028e0      0x281 ./common/DEBUG.o
 .debug_abbrev  0x0000000000002b61      0x3b9 ./FreeRTOS_Source/portable/MemMang/heap_4.o
 .debug_abbrev  0x0000000000002f1a      0x288 ./FreeRTOS_Source/portable/GCC/RISC-V/port.o
 .debug_abbrev  0x00000000000031a2       0x14 ./FreeRTOS_Source/portable/GCC/RISC-V/portASM.o
 .debug_abbrev  0x00000000000031b6      0x3c8 ./FreeRTOS_Source/event_groups.o
 .debug_abbrev  0x000000000000357e      0x26c ./FreeRTOS_Source/list.o
 .debug_abbrev  0x00000000000037ea      0x487 ./FreeRTOS_Source/queue.o
 .debug_abbrev  0x0000000000003c71      0x458 ./FreeRTOS_Source/stream_buffer.o
 .debug_abbrev  0x00000000000040c9      0x594 ./FreeRTOS_Source/tasks.o
 .debug_abbrev  0x000000000000465d      0x413 ./FreeRTOS_Source/timers.o
 .debug_abbrev  0x0000000000004a70      0x3e5 ./Main.o

.debug_loc      0x0000000000000000     0xbc44
 .debug_loc     0x0000000000000000      0xee1 ./full_demo/common_demo_files/AbortDelay.o
 .debug_loc     0x0000000000000ee1      0x3e9 ./full_demo/common_demo_files/EventGroupsDemo.o
 .debug_loc     0x00000000000012ca      0x3ae ./full_demo/common_demo_files/TaskNotify.o
 .debug_loc     0x0000000000001678      0x368 ./full_demo/common_demo_files/TimerDemo.o
 .debug_loc     0x00000000000019e0      0x1db ./full_demo/common_demo_files/blocktim.o
 .debug_loc     0x0000000000001bbb      0x1a6 ./full_demo/common_demo_files/dynamic.o
 .debug_loc     0x0000000000001d61       0xf7 ./full_demo/common_demo_files/recmutex.o
 .debug_loc     0x0000000000001e58       0xb8 ./full_demo/main_full.o
 .debug_loc     0x0000000000001f10      0x3cd ./common/CH58x_sdk/StdPeriphDriver/CH58x_gpio.o
 .debug_loc     0x00000000000022dd      0x1ff ./common/CH58x_sdk/StdPeriphDriver/CH58x_sys.o
 .debug_loc     0x00000000000024dc      0x239 ./common/CH58x_sdk/StdPeriphDriver/CH58x_uart1.o
 .debug_loc     0x0000000000002715       0x53 ./common/CH58x_sdk/RVMSIS/core_riscv.o
 .debug_loc     0x0000000000002768       0xdc ./common/DEBUG.o
 .debug_loc     0x0000000000002844      0x406 ./FreeRTOS_Source/portable/MemMang/heap_4.o
 .debug_loc     0x0000000000002c4a      0xd65 ./FreeRTOS_Source/event_groups.o
 .debug_loc     0x00000000000039af       0x58 ./FreeRTOS_Source/list.o
 .debug_loc     0x0000000000003a07     0x2522 ./FreeRTOS_Source/queue.o
 .debug_loc     0x0000000000005f29     0x1f41 ./FreeRTOS_Source/stream_buffer.o
 .debug_loc     0x0000000000007e6a     0x2b25 ./FreeRTOS_Source/tasks.o
 .debug_loc     0x000000000000a98f     0x11a7 ./FreeRTOS_Source/timers.o
 .debug_loc     0x000000000000bb36      0x10e ./Main.o

.debug_aranges  0x0000000000000000      0x350
 .debug_aranges
                0x0000000000000000       0x20 ./full_demo/common_demo_files/AbortDelay.o
 .debug_aranges
                0x0000000000000020       0x20 ./full_demo/common_demo_files/EventGroupsDemo.o
 .debug_aranges
                0x0000000000000040       0x20 ./full_demo/common_demo_files/TaskNotify.o
 .debug_aranges
                0x0000000000000060       0x20 ./full_demo/common_demo_files/TimerDemo.o
 .debug_aranges
                0x0000000000000080       0x20 ./full_demo/common_demo_files/blocktim.o
 .debug_aranges
                0x00000000000000a0       0x20 ./full_demo/common_demo_files/dynamic.o
 .debug_aranges
                0x00000000000000c0       0x20 ./full_demo/common_demo_files/recmutex.o
 .debug_aranges
                0x00000000000000e0       0x20 ./full_demo/RegTest.o
 .debug_aranges
                0x0000000000000100       0x20 ./full_demo/main_full.o
 .debug_aranges
                0x0000000000000120       0x20 ./common/CH58x_sdk/StdPeriphDriver/CH58x_gpio.o
 .debug_aranges
                0x0000000000000140       0x38 ./common/CH58x_sdk/StdPeriphDriver/CH58x_sys.o
 .debug_aranges
                0x0000000000000178       0x20 ./common/CH58x_sdk/StdPeriphDriver/CH58x_uart1.o
 .debug_aranges
                0x0000000000000198       0x30 ./common/CH58x_sdk/Startup/startup_CH573.o
 .debug_aranges
                0x00000000000001c8       0x20 ./common/CH58x_sdk/RVMSIS/core_riscv.o
 .debug_aranges
                0x00000000000001e8       0x20 ./common/DEBUG.o
 .debug_aranges
                0x0000000000000208       0x20 ./FreeRTOS_Source/portable/MemMang/heap_4.o
 .debug_aranges
                0x0000000000000228       0x20 ./FreeRTOS_Source/portable/GCC/RISC-V/port.o
 .debug_aranges
                0x0000000000000248       0x20 ./FreeRTOS_Source/portable/GCC/RISC-V/portASM.o
 .debug_aranges
                0x0000000000000268       0x20 ./FreeRTOS_Source/event_groups.o
 .debug_aranges
                0x0000000000000288       0x20 ./FreeRTOS_Source/list.o
 .debug_aranges
                0x00000000000002a8       0x20 ./FreeRTOS_Source/queue.o
 .debug_aranges
                0x00000000000002c8       0x20 ./FreeRTOS_Source/stream_buffer.o
 .debug_aranges
                0x00000000000002e8       0x20 ./FreeRTOS_Source/tasks.o
 .debug_aranges
                0x0000000000000308       0x20 ./FreeRTOS_Source/timers.o
 .debug_aranges
                0x0000000000000328       0x28 ./Main.o

.debug_ranges   0x0000000000000000      0xdb8
 .debug_ranges  0x0000000000000000      0x1d8 ./full_demo/common_demo_files/AbortDelay.o
 .debug_ranges  0x00000000000001d8       0x78 ./full_demo/common_demo_files/EventGroupsDemo.o
 .debug_ranges  0x0000000000000250       0x58 ./full_demo/common_demo_files/TaskNotify.o
 .debug_ranges  0x00000000000002a8       0xe8 ./full_demo/common_demo_files/TimerDemo.o
 .debug_ranges  0x0000000000000390       0x18 ./full_demo/common_demo_files/blocktim.o
 .debug_ranges  0x00000000000003a8       0x28 ./common/CH58x_sdk/StdPeriphDriver/CH58x_sys.o
 .debug_ranges  0x00000000000003d0       0x18 ./common/CH58x_sdk/StdPeriphDriver/CH58x_uart1.o
 .debug_ranges  0x00000000000003e8       0x28 ./common/CH58x_sdk/Startup/startup_CH573.o
 .debug_ranges  0x0000000000000410       0x30 ./FreeRTOS_Source/portable/MemMang/heap_4.o
 .debug_ranges  0x0000000000000440       0x20 ./FreeRTOS_Source/portable/GCC/RISC-V/port.o
 .debug_ranges  0x0000000000000460       0x58 ./FreeRTOS_Source/event_groups.o
 .debug_ranges  0x00000000000004b8      0x218 ./FreeRTOS_Source/queue.o
 .debug_ranges  0x00000000000006d0       0xb8 ./FreeRTOS_Source/stream_buffer.o
 .debug_ranges  0x0000000000000788      0x4e8 ./FreeRTOS_Source/tasks.o
 .debug_ranges  0x0000000000000c70      0x110 ./FreeRTOS_Source/timers.o
 .debug_ranges  0x0000000000000d80       0x38 ./Main.o

.debug_line     0x0000000000000000    0x1cc9d
 .debug_line    0x0000000000000000     0x1953 ./full_demo/common_demo_files/AbortDelay.o
 .debug_line    0x0000000000001953     0x16d0 ./full_demo/common_demo_files/EventGroupsDemo.o
 .debug_line    0x0000000000003023     0x19dd ./full_demo/common_demo_files/TaskNotify.o
 .debug_line    0x0000000000004a00     0x281c ./full_demo/common_demo_files/TimerDemo.o
 .debug_line    0x000000000000721c      0xeb5 ./full_demo/common_demo_files/blocktim.o
 .debug_line    0x00000000000080d1      0xb3a ./full_demo/common_demo_files/dynamic.o
 .debug_line    0x0000000000008c0b      0xaf6 ./full_demo/common_demo_files/recmutex.o
 .debug_line    0x0000000000009701      0x450 ./full_demo/RegTest.o
 .debug_line    0x0000000000009b51      0x743 ./full_demo/main_full.o
 .debug_line    0x000000000000a294      0x880 ./common/CH58x_sdk/StdPeriphDriver/CH58x_gpio.o
 .debug_line    0x000000000000ab14      0xa78 ./common/CH58x_sdk/StdPeriphDriver/CH58x_sys.o
 .debug_line    0x000000000000b58c      0x552 ./common/CH58x_sdk/StdPeriphDriver/CH58x_uart1.o
 .debug_line    0x000000000000bade      0x419 ./common/CH58x_sdk/Startup/startup_CH573.o
 .debug_line    0x000000000000bef7      0x78f ./common/CH58x_sdk/RVMSIS/core_riscv.o
 .debug_line    0x000000000000c686      0x478 ./common/DEBUG.o
 .debug_line    0x000000000000cafe      0xd39 ./FreeRTOS_Source/portable/MemMang/heap_4.o
 .debug_line    0x000000000000d837      0x398 ./FreeRTOS_Source/portable/GCC/RISC-V/port.o
 .debug_line    0x000000000000dbcf      0x3db ./FreeRTOS_Source/portable/GCC/RISC-V/portASM.o
 .debug_line    0x000000000000dfaa     0x116c ./FreeRTOS_Source/event_groups.o
 .debug_line    0x000000000000f116      0x68e ./FreeRTOS_Source/list.o
 .debug_line    0x000000000000f7a4     0x37ef ./FreeRTOS_Source/queue.o
 .debug_line    0x0000000000012f93     0x24db ./FreeRTOS_Source/stream_buffer.o
 .debug_line    0x000000000001546e     0x593e ./FreeRTOS_Source/tasks.o
 .debug_line    0x000000000001adac     0x1856 ./FreeRTOS_Source/timers.o
 .debug_line    0x000000000001c602      0x69b ./Main.o

.debug_str      0x0000000000000000     0x4b40
 .debug_str     0x0000000000000000      0xc60 ./full_demo/common_demo_files/AbortDelay.o
                                        0xd98 (size before relaxing)
 .debug_str     0x0000000000000c60      0x35c ./full_demo/common_demo_files/EventGroupsDemo.o
                                        0xb66 (size before relaxing)
 .debug_str     0x0000000000000fbc      0x3a4 ./full_demo/common_demo_files/TaskNotify.o
                                        0xc5c (size before relaxing)
 .debug_str     0x0000000000001360      0x4e2 ./full_demo/common_demo_files/TimerDemo.o
                                        0xcd5 (size before relaxing)
 .debug_str     0x0000000000001842      0x1d5 ./full_demo/common_demo_files/blocktim.o
                                        0xa08 (size before relaxing)
 .debug_str     0x0000000000001a17      0x238 ./full_demo/common_demo_files/dynamic.o
                                        0xaec (size before relaxing)
 .debug_str     0x0000000000001c4f      0x1e6 ./full_demo/common_demo_files/recmutex.o
                                        0xa35 (size before relaxing)
 .debug_str     0x0000000000001e35       0x23 ./full_demo/RegTest.o
                                         0x79 (size before relaxing)
 .debug_str     0x0000000000001e58      0x195 ./full_demo/main_full.o
                                        0xabf (size before relaxing)
 .debug_str     0x0000000000001fed      0x1c9 ./common/CH58x_sdk/StdPeriphDriver/CH58x_gpio.o
                                        0x898 (size before relaxing)
 .debug_str     0x00000000000021b6      0x3c9 ./common/CH58x_sdk/StdPeriphDriver/CH58x_sys.o
                                        0xaca (size before relaxing)
 .debug_str     0x000000000000257f      0x132 ./common/CH58x_sdk/StdPeriphDriver/CH58x_uart1.o
                                        0x83d (size before relaxing)
 .debug_str     0x00000000000026b1       0x62 ./common/CH58x_sdk/Startup/startup_CH573.o
                                         0xc4 (size before relaxing)
 .debug_str     0x0000000000002713      0x2b2 ./common/CH58x_sdk/RVMSIS/core_riscv.o
                                        0x80c (size before relaxing)
 .debug_str     0x00000000000029c5       0xb9 ./common/DEBUG.o
                                        0x7c7 (size before relaxing)
 .debug_str     0x0000000000002a7e      0x2d5 ./FreeRTOS_Source/portable/MemMang/heap_4.o
                                        0xa7a (size before relaxing)
 .debug_str     0x0000000000002d53      0x148 ./FreeRTOS_Source/portable/GCC/RISC-V/port.o
                                        0x87f (size before relaxing)
 .debug_str     0x0000000000002e9b       0x49 ./FreeRTOS_Source/portable/GCC/RISC-V/portASM.o
                                         0xab (size before relaxing)
 .debug_str     0x0000000000002ee4      0x2e5 ./FreeRTOS_Source/event_groups.o
                                        0xb78 (size before relaxing)
 .debug_str     0x00000000000031c9       0xa4 ./FreeRTOS_Source/list.o
                                        0x857 (size before relaxing)
 .debug_str     0x000000000000326d      0x68a ./FreeRTOS_Source/queue.o
                                       0x107c (size before relaxing)
 .debug_str     0x00000000000038f7      0x3f8 ./FreeRTOS_Source/stream_buffer.o
                                        0xdd9 (size before relaxing)
 .debug_str     0x0000000000003cef      0x880 ./FreeRTOS_Source/tasks.o
                                       0x1644 (size before relaxing)
 .debug_str     0x000000000000456f      0x41f ./FreeRTOS_Source/timers.o
                                        0xef0 (size before relaxing)
 .debug_str     0x000000000000498e      0x1b2 ./Main.o
                                        0xced (size before relaxing)

.comment        0x0000000000000000       0x33
 .comment       0x0000000000000000       0x33 ./full_demo/common_demo_files/AbortDelay.o
                                         0x34 (size before relaxing)
 .comment       0x0000000000000033       0x34 ./full_demo/common_demo_files/EventGroupsDemo.o
 .comment       0x0000000000000033       0x34 ./full_demo/common_demo_files/TaskNotify.o
 .comment       0x0000000000000033       0x34 ./full_demo/common_demo_files/TimerDemo.o
 .comment       0x0000000000000033       0x34 ./full_demo/common_demo_files/blocktim.o
 .comment       0x0000000000000033       0x34 ./full_demo/common_demo_files/dynamic.o
 .comment       0x0000000000000033       0x34 ./full_demo/common_demo_files/recmutex.o
 .comment       0x0000000000000033       0x34 ./full_demo/main_full.o
 .comment       0x0000000000000033       0x34 ./common/CH58x_sdk/StdPeriphDriver/CH58x_gpio.o
 .comment       0x0000000000000033       0x34 ./common/CH58x_sdk/StdPeriphDriver/CH58x_sys.o
 .comment       0x0000000000000033       0x34 ./common/CH58x_sdk/StdPeriphDriver/CH58x_uart1.o
 .comment       0x0000000000000033       0x34 ./common/CH58x_sdk/RVMSIS/core_riscv.o
 .comment       0x0000000000000033       0x34 ./common/DEBUG.o
 .comment       0x0000000000000033       0x34 ./FreeRTOS_Source/portable/MemMang/heap_4.o
 .comment       0x0000000000000033       0x34 ./FreeRTOS_Source/portable/GCC/RISC-V/port.o
 .comment       0x0000000000000033       0x34 ./FreeRTOS_Source/event_groups.o
 .comment       0x0000000000000033       0x34 ./FreeRTOS_Source/list.o
 .comment       0x0000000000000033       0x34 ./FreeRTOS_Source/queue.o
 .comment       0x0000000000000033       0x34 ./FreeRTOS_Source/stream_buffer.o
 .comment       0x0000000000000033       0x34 ./FreeRTOS_Source/tasks.o
 .comment       0x0000000000000033       0x34 ./FreeRTOS_Source/timers.o
 .comment       0x0000000000000033       0x34 ./Main.o

.debug_frame    0x0000000000000000     0x2f1c
 .debug_frame   0x0000000000000000       0x90 ./full_demo/common_demo_files/AbortDelay.o
 .debug_frame   0x0000000000000090       0xec ./full_demo/common_demo_files/EventGroupsDemo.o
 .debug_frame   0x000000000000017c       0xf0 ./full_demo/common_demo_files/TaskNotify.o
 .debug_frame   0x000000000000026c      0x158 ./full_demo/common_demo_files/TimerDemo.o
 .debug_frame   0x00000000000003c4       0x9c ./full_demo/common_demo_files/blocktim.o
 .debug_frame   0x0000000000000460       0xf8 ./full_demo/common_demo_files/dynamic.o
 .debug_frame   0x0000000000000558       0xb8 ./full_demo/common_demo_files/recmutex.o
 .debug_frame   0x0000000000000610       0xac ./full_demo/main_full.o
 .debug_frame   0x00000000000006bc       0x70 ./common/CH58x_sdk/StdPeriphDriver/CH58x_gpio.o
 .debug_frame   0x000000000000072c       0xe0 ./common/CH58x_sdk/StdPeriphDriver/CH58x_sys.o
 .debug_frame   0x000000000000080c       0x9c ./common/CH58x_sdk/StdPeriphDriver/CH58x_uart1.o
 .debug_frame   0x00000000000008a8      0x2b4 ./common/CH58x_sdk/RVMSIS/core_riscv.o
 .debug_frame   0x0000000000000b5c       0xbc ./common/DEBUG.o
 .debug_frame   0x0000000000000c18       0xe0 ./FreeRTOS_Source/portable/MemMang/heap_4.o
 .debug_frame   0x0000000000000cf8       0x40 ./FreeRTOS_Source/portable/GCC/RISC-V/port.o
 .debug_frame   0x0000000000000d38      0x158 ./FreeRTOS_Source/event_groups.o
 .debug_frame   0x0000000000000e90       0x60 ./FreeRTOS_Source/list.o
 .debug_frame   0x0000000000000ef0      0x4dc ./FreeRTOS_Source/queue.o
 .debug_frame   0x00000000000013cc      0x32c ./FreeRTOS_Source/stream_buffer.o
 .debug_frame   0x00000000000016f8      0x890 ./FreeRTOS_Source/tasks.o
 .debug_frame   0x0000000000001f88      0x2b0 ./FreeRTOS_Source/timers.o
 .debug_frame   0x0000000000002238       0xfc ./Main.o
 .debug_frame   0x0000000000002334       0x3c d:/mounriver_studio/toolchain/risc-v embedded gcc/bin/../lib/gcc/riscv-none-embed/8.2.0/../../../../riscv-none-embed/lib/rv32imac/ilp32\libc_nano.a(lib_a-init.o)
 .debug_frame   0x0000000000002370       0x20 d:/mounriver_studio/toolchain/risc-v embedded gcc/bin/../lib/gcc/riscv-none-embed/8.2.0/../../../../riscv-none-embed/lib/rv32imac/ilp32\libc_nano.a(lib_a-memcpy.o)
 .debug_frame   0x0000000000002390       0x54 d:/mounriver_studio/toolchain/risc-v embedded gcc/bin/../lib/gcc/riscv-none-embed/8.2.0/../../../../riscv-none-embed/lib/rv32imac/ilp32\libc_nano.a(lib_a-printf.o)
 .debug_frame   0x00000000000023e4       0x50 d:/mounriver_studio/toolchain/risc-v embedded gcc/bin/../lib/gcc/riscv-none-embed/8.2.0/../../../../riscv-none-embed/lib/rv32imac/ilp32\libc_nano.a(lib_a-putchar.o)
 .debug_frame   0x0000000000002434       0x54 d:/mounriver_studio/toolchain/risc-v embedded gcc/bin/../lib/gcc/riscv-none-embed/8.2.0/../../../../riscv-none-embed/lib/rv32imac/ilp32\libc_nano.a(lib_a-puts.o)
 .debug_frame   0x0000000000002488       0x20 d:/mounriver_studio/toolchain/risc-v embedded gcc/bin/../lib/gcc/riscv-none-embed/8.2.0/../../../../riscv-none-embed/lib/rv32imac/ilp32\libc_nano.a(lib_a-strlen.o)
 .debug_frame   0x00000000000024a8       0x3c d:/mounriver_studio/toolchain/risc-v embedded gcc/bin/../lib/gcc/riscv-none-embed/8.2.0/../../../../riscv-none-embed/lib/rv32imac/ilp32\libc_nano.a(lib_a-vsprintf.o)
 .debug_frame   0x00000000000024e4       0x50 d:/mounriver_studio/toolchain/risc-v embedded gcc/bin/../lib/gcc/riscv-none-embed/8.2.0/../../../../riscv-none-embed/lib/rv32imac/ilp32\libc_nano.a(lib_a-wbuf.o)
 .debug_frame   0x0000000000002534       0x3c d:/mounriver_studio/toolchain/risc-v embedded gcc/bin/../lib/gcc/riscv-none-embed/8.2.0/../../../../riscv-none-embed/lib/rv32imac/ilp32\libc_nano.a(lib_a-wsetup.o)
 .debug_frame   0x0000000000002570       0x7c d:/mounriver_studio/toolchain/risc-v embedded gcc/bin/../lib/gcc/riscv-none-embed/8.2.0/../../../../riscv-none-embed/lib/rv32imac/ilp32\libc_nano.a(lib_a-fflush.o)
 .debug_frame   0x00000000000025ec      0x148 d:/mounriver_studio/toolchain/risc-v embedded gcc/bin/../lib/gcc/riscv-none-embed/8.2.0/../../../../riscv-none-embed/lib/rv32imac/ilp32\libc_nano.a(lib_a-findfp.o)
 .debug_frame   0x0000000000002734       0x88 d:/mounriver_studio/toolchain/risc-v embedded gcc/bin/../lib/gcc/riscv-none-embed/8.2.0/../../../../riscv-none-embed/lib/rv32imac/ilp32\libc_nano.a(lib_a-fwalk.o)
 .debug_frame   0x00000000000027bc       0x64 d:/mounriver_studio/toolchain/risc-v embedded gcc/bin/../lib/gcc/riscv-none-embed/8.2.0/../../../../riscv-none-embed/lib/rv32imac/ilp32\libc_nano.a(lib_a-makebuf.o)
 .debug_frame   0x0000000000002820       0x40 d:/mounriver_studio/toolchain/risc-v embedded gcc/bin/../lib/gcc/riscv-none-embed/8.2.0/../../../../riscv-none-embed/lib/rv32imac/ilp32\libc_nano.a(lib_a-nano-freer.o)
 .debug_frame   0x0000000000002860       0x40 d:/mounriver_studio/toolchain/risc-v embedded gcc/bin/../lib/gcc/riscv-none-embed/8.2.0/../../../../riscv-none-embed/lib/rv32imac/ilp32\libc_nano.a(lib_a-nano-mallocr.o)
 .debug_frame   0x00000000000028a0       0xe0 d:/mounriver_studio/toolchain/risc-v embedded gcc/bin/../lib/gcc/riscv-none-embed/8.2.0/../../../../riscv-none-embed/lib/rv32imac/ilp32\libc_nano.a(lib_a-nano-svfprintf.o)
 .debug_frame   0x0000000000002980       0xd0 d:/mounriver_studio/toolchain/risc-v embedded gcc/bin/../lib/gcc/riscv-none-embed/8.2.0/../../../../riscv-none-embed/lib/rv32imac/ilp32\libc_nano.a(lib_a-nano-vfprintf.o)
 .debug_frame   0x0000000000002a50       0x8c d:/mounriver_studio/toolchain/risc-v embedded gcc/bin/../lib/gcc/riscv-none-embed/8.2.0/../../../../riscv-none-embed/lib/rv32imac/ilp32\libc_nano.a(lib_a-nano-vfprintf_i.o)
 .debug_frame   0x0000000000002adc       0x4c d:/mounriver_studio/toolchain/risc-v embedded gcc/bin/../lib/gcc/riscv-none-embed/8.2.0/../../../../riscv-none-embed/lib/rv32imac/ilp32\libc_nano.a(lib_a-putc.o)
 .debug_frame   0x0000000000002b28       0x30 d:/mounriver_studio/toolchain/risc-v embedded gcc/bin/../lib/gcc/riscv-none-embed/8.2.0/../../../../riscv-none-embed/lib/rv32imac/ilp32\libc_nano.a(lib_a-sbrkr.o)
 .debug_frame   0x0000000000002b58       0xa4 d:/mounriver_studio/toolchain/risc-v embedded gcc/bin/../lib/gcc/riscv-none-embed/8.2.0/../../../../riscv-none-embed/lib/rv32imac/ilp32\libc_nano.a(lib_a-stdio.o)
 .debug_frame   0x0000000000002bfc       0x30 d:/mounriver_studio/toolchain/risc-v embedded gcc/bin/../lib/gcc/riscv-none-embed/8.2.0/../../../../riscv-none-embed/lib/rv32imac/ilp32\libc_nano.a(lib_a-writer.o)
 .debug_frame   0x0000000000002c2c       0x30 d:/mounriver_studio/toolchain/risc-v embedded gcc/bin/../lib/gcc/riscv-none-embed/8.2.0/../../../../riscv-none-embed/lib/rv32imac/ilp32\libc_nano.a(lib_a-closer.o)
 .debug_frame   0x0000000000002c5c       0x30 d:/mounriver_studio/toolchain/risc-v embedded gcc/bin/../lib/gcc/riscv-none-embed/8.2.0/../../../../riscv-none-embed/lib/rv32imac/ilp32\libc_nano.a(lib_a-fstatr.o)
 .debug_frame   0x0000000000002c8c       0x30 d:/mounriver_studio/toolchain/risc-v embedded gcc/bin/../lib/gcc/riscv-none-embed/8.2.0/../../../../riscv-none-embed/lib/rv32imac/ilp32\libc_nano.a(lib_a-isattyr.o)
 .debug_frame   0x0000000000002cbc       0x30 d:/mounriver_studio/toolchain/risc-v embedded gcc/bin/../lib/gcc/riscv-none-embed/8.2.0/../../../../riscv-none-embed/lib/rv32imac/ilp32\libc_nano.a(lib_a-lseekr.o)
 .debug_frame   0x0000000000002cec       0x20 d:/mounriver_studio/toolchain/risc-v embedded gcc/bin/../lib/gcc/riscv-none-embed/8.2.0/../../../../riscv-none-embed/lib/rv32imac/ilp32\libc_nano.a(lib_a-memchr.o)
 .debug_frame   0x0000000000002d0c       0x20 d:/mounriver_studio/toolchain/risc-v embedded gcc/bin/../lib/gcc/riscv-none-embed/8.2.0/../../../../riscv-none-embed/lib/rv32imac/ilp32\libc_nano.a(lib_a-memmove.o)
 .debug_frame   0x0000000000002d2c       0x30 d:/mounriver_studio/toolchain/risc-v embedded gcc/bin/../lib/gcc/riscv-none-embed/8.2.0/../../../../riscv-none-embed/lib/rv32imac/ilp32\libc_nano.a(lib_a-mlock.o)
 .debug_frame   0x0000000000002d5c       0x40 d:/mounriver_studio/toolchain/risc-v embedded gcc/bin/../lib/gcc/riscv-none-embed/8.2.0/../../../../riscv-none-embed/lib/rv32imac/ilp32\libc_nano.a(lib_a-nano-reallocr.o)
 .debug_frame   0x0000000000002d9c       0x30 d:/mounriver_studio/toolchain/risc-v embedded gcc/bin/../lib/gcc/riscv-none-embed/8.2.0/../../../../riscv-none-embed/lib/rv32imac/ilp32\libc_nano.a(lib_a-readr.o)
 .debug_frame   0x0000000000002dcc       0x70 d:/mounriver_studio/toolchain/risc-v embedded gcc/bin/../lib/gcc/riscv-none-embed/8.2.0/../../../../riscv-none-embed/lib/rv32imac/ilp32\libc_nano.a(lib_a-reent.o)
 .debug_frame   0x0000000000002e3c       0x20 d:/mounriver_studio/toolchain/risc-v embedded gcc/bin/../lib/gcc/riscv-none-embed/8.2.0/../../../../riscv-none-embed/lib/rv32imac/ilp32\libc_nano.a(lib_a-nano-msizer.o)
 .debug_frame   0x0000000000002e5c       0x20 d:/mounriver_studio/toolchain/risc-v embedded gcc/bin/../lib/gcc/riscv-none-embed/8.2.0/../../../../riscv-none-embed/lib/rv32imac/ilp32\libnosys.a(close.o)
 .debug_frame   0x0000000000002e7c       0x20 d:/mounriver_studio/toolchain/risc-v embedded gcc/bin/../lib/gcc/riscv-none-embed/8.2.0/../../../../riscv-none-embed/lib/rv32imac/ilp32\libnosys.a(fstat.o)
 .debug_frame   0x0000000000002e9c       0x20 d:/mounriver_studio/toolchain/risc-v embedded gcc/bin/../lib/gcc/riscv-none-embed/8.2.0/../../../../riscv-none-embed/lib/rv32imac/ilp32\libnosys.a(isatty.o)
 .debug_frame   0x0000000000002ebc       0x20 d:/mounriver_studio/toolchain/risc-v embedded gcc/bin/../lib/gcc/riscv-none-embed/8.2.0/../../../../riscv-none-embed/lib/rv32imac/ilp32\libnosys.a(lseek.o)
 .debug_frame   0x0000000000002edc       0x20 d:/mounriver_studio/toolchain/risc-v embedded gcc/bin/../lib/gcc/riscv-none-embed/8.2.0/../../../../riscv-none-embed/lib/rv32imac/ilp32\libnosys.a(read.o)
 .debug_frame   0x0000000000002efc       0x20 d:/mounriver_studio/toolchain/risc-v embedded gcc/bin/../lib/gcc/riscv-none-embed/8.2.0/../../../../riscv-none-embed/lib/rv32imac/ilp32\libnosys.a(sbrk.o)

.stab           0x0000000000000000       0x84
 .stab          0x0000000000000000       0x24 d:/mounriver_studio/toolchain/risc-v embedded gcc/bin/../lib/gcc/riscv-none-embed/8.2.0/../../../../riscv-none-embed/lib/rv32imac/ilp32\libnosys.a(close.o)
 .stab          0x0000000000000024       0x18 d:/mounriver_studio/toolchain/risc-v embedded gcc/bin/../lib/gcc/riscv-none-embed/8.2.0/../../../../riscv-none-embed/lib/rv32imac/ilp32\libnosys.a(fstat.o)
                                         0x24 (size before relaxing)
 .stab          0x000000000000003c       0x18 d:/mounriver_studio/toolchain/risc-v embedded gcc/bin/../lib/gcc/riscv-none-embed/8.2.0/../../../../riscv-none-embed/lib/rv32imac/ilp32\libnosys.a(isatty.o)
                                         0x24 (size before relaxing)
 .stab          0x0000000000000054       0x18 d:/mounriver_studio/toolchain/risc-v embedded gcc/bin/../lib/gcc/riscv-none-embed/8.2.0/../../../../riscv-none-embed/lib/rv32imac/ilp32\libnosys.a(lseek.o)
                                         0x24 (size before relaxing)
 .stab          0x000000000000006c       0x18 d:/mounriver_studio/toolchain/risc-v embedded gcc/bin/../lib/gcc/riscv-none-embed/8.2.0/../../../../riscv-none-embed/lib/rv32imac/ilp32\libnosys.a(read.o)
                                         0x24 (size before relaxing)

.stabstr        0x0000000000000000      0x117
 .stabstr       0x0000000000000000      0x117 d:/mounriver_studio/toolchain/risc-v embedded gcc/bin/../lib/gcc/riscv-none-embed/8.2.0/../../../../riscv-none-embed/lib/rv32imac/ilp32\libnosys.a(close.o)
