:040000006F0000206D
:100004006F50C06F6F50806F6F50406F6F50006FB4
:100014006F50C06E6F50806E6F50406E6F50006EA8
:100024006F50C06D6F50806D6F50406D6F50006D9C
:100034006F50C06C6F50806C6F50406C6F50006C90
:100044006F50C06B6F50806B6F50406B6F50006B84
:100054006F50C06A6F50806A6F50406A6F50006A78
:100064006F50C0696F5080696F5040696F5000696C
:100074006F50C0686F5080686F5040686F50006860
:100084006F00C0176F0000346F5040676F00003678
:1000940093770502BDCF371700408347A700918BA4
:1000A4009DE7930770052300F704930780FA230064
:1000B400F704010001008346A7009307004B93E671
:1000C40046002305D70001000100FD17EDFFB71717
:1000D4000040930670052380D704130780FA238019
:1000E400E70401007D892394A700010001000100B9
:1000F4000100238007042380D7042380E704010040
:100104000100372700408546A303D78023800704D6
:10011400828093770504D1C3371700408347A70033
:10012400C18B9DE7930770052300F704930780FABA
:100134002300F704010001008346A700930720036E
:1001440093E606012305D70001000100FD17EDFF2A
:1001540037170040130670052300C704930680FA7E
:100164002300D704010001009377F50193E7070406
:100174002314F7000100010001000100230007041B
:100184002300C7042300D70401000100B72700405F
:100194008D46A383D780230007048280931725000C
:1001A4003E950A0501007D1575FD828009CD014744
:1001B4009566938706E20100FD17F5FF05074207E0
:0801C4004183E318E5FE82808F
:1002000097110020938101E617610020130101225C
:1002100013054009970500209385C5DE17060020C9
:100220001306C6F163FCC5008322050023A0550018
:100230001305450093854500E3E8C5FE17D500008A
:100240001305850C970500209385C55B13864182B5
:1002500063FCC5008322050023A05500130545005B
:1002600093854500E3E8C5FE170500201305C56129
:10027000976500209385459B6378B5002320050092
:1002800013054500E36CB5FE9302F003739002BCC6
:1002900073504080B72200009382828873A002309E
:1002A000EF405075EFA0803773600430EFA020312D
:1002B00073001000678000002320310023224100DA
:1002C000232451002326610023287100232AA10042
:1002D000232CB100232EC1002320D1022322E102CE
:1002E0002324F10223260103232811037325007B15
:1002F000F325107B7326207B232AA102232CB10235
:10030000232EC1027325407BF325507B7326607B2F
:100310002320A1042322B1042324C1047325103413
:100320002326A104F32500302328B10467800000B0
:1003300083250105739005300325C104731015341E
:100340000325010483254104032681047310457BA2
:100350007390557B7310667B0325410383258103CE
:100360000326C1037310057B7390157B7310267BE6
:100370008321010003224100832281000323C10065
:100380008323010103254101832581010326C10146
:100390008326010203274102832781020328C10229
:1003A0008328010383204105130181057300203058
:1003B000130181FA232A1104EFF01FF09300003398
:1003C000732520346F90907D130181FA232A110444
:1003D000EFF09FEE930000336F00C002130181FA2B
:1003E000232A1104EFF05FED930000336F00C0018A
:1003F000130181FA232A1104EFF01FEC930000335C
:100400006F00C0006F0000006F0000006F00000070
:100410000000000000000000CA500000CA500000A8
:1004200000000000CA5000000000000000000000B2
:10043000CA500000CA500000000000000000000088
:10044000ACA3000000000000CA5000000000000043
:10045000DAA30000CA500000CA500000CA500000D1
:10046000CA500000CA500000CA500000000000003E
:10047000CA500000CA500000CA500000CA50000014
:10048000CA500000CA50000000000000CA5000001E
:10049000CA500000CA500000CA500000CA500000F4
:1004A000397106DE22DC26DA4AD84ED652D456D22C
:1004B0005AD05ECE62CC66CA6AC8EF80704DEF80BB
:1004C00000613714002001C585472326F48837D5FD
:1004D00000001305C5B4EF80E04EAA8B6303054E00
:1004E000B16A938A8AF1371B00201D4C130930062C
:1004F000130A10039304B006930990037D57340048
:100500007D5681450145EF904003A2476363FC0A95
:100510008A07D6979C43828781450D460545EF5053
:10052000504DAA8CEF8080072A8D93054006668582
:10053000EF60204101C585472326F488EF8000063F
:100540003305A5416374A90063F5A40085472326FC
:10055000F488EF80A0042A8DFD556685EF60603E2B
:1005600001C585472326F488EF8040033305A54164
:100570006374AA0063F5A90085472326F488EF80F9
:10058000E0012A8D930540066685EF60803B01C53A
:1005900085472326F488EF8060003305A541637406
:1005A000A90063F5A40085472326F4886685EF60DB
:1005B000301F01478946014681455E85EF908009DD
:1005C00083270B8985072328FB880DBF01468545B6
:1005D0000545EF501042AA8C630A05388146130680
:1005E00040066C00EF50105185476304F500232648
:1005F000F488EF70B07A2A8D8146130640066C00AD
:100600006685EF50304F01C585472326F488EF708B
:10061000F0783305A5416363A93A85472326F4881A
:10062000EF70D0772A8D8146130640066C006685F0
:10063000EF50504C01C585472326F488EF701076A3
:100640003305A5416363AA3685472326F488EF70F6
:10065000F0742A8D8146130640066C006685EF50C3
:10066000704915D935B7EF500036AA8C630F054095
:10067000EF70D0722A8D13074006854605468545E2
:100680006685EF50603601C585472326F488EF70F4
:10069000F0703305A5416360A93285472326F488AD
:1006A000EF70D06F2A8D13074006854605468545B5
:1006B0006685EF50603301C585472326F488EF70C7
:1006C000F06D3305A541636FAA2C85472326F48876
:1006D000EF70D06C2A8D1307400685460546854588
:1006E0006685EF50603001C585472326F488EF709A
:1006F000F06A3305A5416361A92A85472326F4885A
:100700006685EF50207275B5EF705069AA8C13069C
:10071000400681450145EF80B05301C5854723263A
:10072000F488EF70B067330595416374A90063F5F1
:10073000A40085472326F488EF705066AA8C130620
:10074000400681450145EF80B05001C5854723260D
:10075000F488EF70B064330595416374AA0063F5C3
:10076000A90085472326F488EF705063AA8C1306EE
:10077000400681450145EF80B04D01C585472326E0
:10078000F488EF70B061330595416374A900E3F21A
:10079000A4E285472326F48829BDEF703060AA8C37
:1007A00093054006680066C6EF80600F2A8DEF70E3
:1007B000F05E330595416374A90063F5A400854795
:1007C0002326F48885476304FD2473700430B166E2
:1007D00037D6000037D50000938686F4130646B559
:1007E00093056013130585B5EF407026029001A0B4
:1007F000014685450545EF60B040AA8C6306051E9D
:10080000EF70D0592A8D9306400605466C00668528
:10081000EF70400501C585472326F488EF70105816
:100820003305A5416366A91885472326F488EF7030
:10083000F0562A8D9306400605466C006685EF70DB
:10084000600201C585472326F488EF7030553305D3
:10085000A5416366AA1485472326F488EF701054D7
:100860002A8D9306400605466C006685EF60907FF2
:1008700001C585472326F488EF7050523305A54102
:100880006369A91085472326F4886685EF60704464
:100890000DB3EF70B050AA8C130740068146014695
:1008A00081450145EF80704901C585472326F488BD
:1008B000EF70D04E330595416374A90063F5A40031
:1008C00085472326F488EF70704DAA8C7D578146AA
:1008D000014681450145EF80504601C585472326E5
:1008E000F488EF70B04B330595416374AA0063F54B
:1008F000A90085472326F488EF70504AAA8C130775
:1009000040068146014681450145EF801043E30AD8
:1009100005E6ADB5EF709048AA8C13054006EF8050
:100920000005EF70B047330595416374A90063F586
:10093000A40085472326F488EF705046AA8C13053F
:100940004006EF80C002EF70704533059541637437
:10095000AA0063F5A90085472326F488EF701044A8
:10096000AA8C13054006EF80800021BD737004300F
:10097000B16637D6000037D50000938686F8130697
:1009800046B59305B022130585B5EF40500C029093
:1009900001A0E3E9A4EED5BDE3E1A4D695B3E3EC71
:1009A000A9EA6DBDE3E3A9D225B3E3EFA9C845B138
:1009B000E3ECA4E6ADBDE3E2A4CEDDB1E3EFA4C475
:1009C00085B173700430B16637D6000037D50000AA
:1009D000938686F3130646B59305E00D130585B59A
:1009E000EF40F006029001A073700430B16637D674
:1009F000000037D50000938646FA130646B59305E6
:100A0000C01E130585B5EF409004029001A0EF7061
:100A1000F038AA8C93054006680066C6EF7030680F
:100A2000EF70D037330595416374AA0063F4A900D1
:100A30002326A489EF709036AA8C9305400668009F
:100A400066C6EF70D0652A8DEF705035330595413D
:100A50006374A90063F5A40085472326F4888547BD
:100A6000E309FDB473700430B16637D6000037D5A2
:100A70000000938686F4130646B59305A01413056B
:100A800085B5EF40C07C029001A073700430B16660
:100A900037D6000037D50000938686F6130646B594
:100AA0009305701A130585B5EF40607A029001A096
:100AB00037D500007971130545B906D622D426D260
:100AC0004AD04ECE52CC56CA5AC85EC662C4EF70E7
:100AD000706F59C1AA890144B71A0020371A002043
:100AE0000549930B900F130C10101D4BEF70102B3A
:100AF00001478D4622868145AA844E85EF80903538
:100B000095450145EF70407513058009EF7030661B
:100B10004E85EF70D07B91456304250123A62A8979
:100B20000145EF7060737D5685450145EF80501299
:100B3000EF70D026058D63F4AB006374AC0023A680
:100B40002A8983274A89050433378B007D17850757
:100B5000798C232AFA8859BF73700430B16637D66E
:100B6000000037D50000938686FC130646B5930532
:100B7000C009130585B5EF40806D029001A0B7D57F
:100B800000003715000041118147114781461306C7
:100B900090069385C5B4130505AB06C6EF704029D2
:100BA000B240B7D5000037050000814715478146A0
:100BB00013069006938545B91305054A41016F70E8
:100BC000202737160020B7150020B71600208327EE
:100BD000468903A8468883A8058937170020032380
:100BE0008788014563860801B38767403335F00085
:100BF000B717002083A7C78883A5058903264689E0
:100C0000FD17B337F000B307F04023A2B6882324C2
:100C1000C7887D8D8280011126CA4AC806CE22CCA3
:100C20004EC6AA84EF80C056B717002083A7078B53
:100C300015496383A70A371400200145EF80E002BD
:100C40000325848B7D5781460546CA85EF40D059E0
:100C50006DF53DA80325848BEF50C0071379F5008F
:100C600001456313390DEF8040000325848BFD5649
:100C70003D46A685EF5000063D897D5785460146D5
:100C8000BD45631025090325848BEF40F05539E5F8
:100C90000145EF70907D0325848B81463D46A685F6
:100CA000EF5040033D89BD49FD563D46A685E313FF
:100CB00035FB73700430B16637D6000037D50000BD
:100CC0009386C6FD130646B59305F0121305C5B904
:100CD000EF40E057029001A00D49B1BF737004309E
:100CE000B16637D6000037D500009386C6FD1306DF
:100CF00046B59305F0141305C5B9EF404055029071
:100D000001A073700430B16637D6000037D50000FB
:100D10009386C6FD130646B5930590141305C5B911
:100D2000EF40E052029001A073700430B16637D6F4
:100D3000000037D500009386C6FD130646B593051F
:100D400090131305C5B9EF408050029001A0011126
:100D500022CC4AC852C406CE26CA4EC6371400203A
:100D600037190020130AF00F0145EF7010700325AA
:100D7000848B7D57854605468945EF40F046AA8914
:100D80000325848B7D57854601469305200AEF4055
:100D9000B0451375250A9307200A85446316F500AC
:100DA0009384E9F5B33490000145EF70106C03258E
:100DB000848B7D57854605469305200AEF40D04237
:100DC0006303450185440145EF70306A0325848B38
:100DD000FD563D468945EF40F06F3D89BD476301B3
:100DE000F50A0325848B8145EF4010600325848B31
:100DF00081458544EF40D0560145EF7010670325CB
:100E0000848BFD563D468945EF40D06C3D89BD47FA
:100E10006302F5040325848B8145EF40F05C0325D4
:100E2000848B7D5785460146BD45EF40F03B73708E
:100E30000430B16637D6000037D50000938686FEB1
:100E4000130646B59305701F1305C5B9EF40204042
:100E5000029001A00325848B8145EF40F05861F199
:100E60000325848B7D5785460146BD45EF40D0372D
:100E7000458D55FD8327098C85072320F98CEDB519
:100E80000325848B8145EF4030562DF10325848B5B
:100E90008145EF40F04C458D01E98327098C814461
:100EA00085072320F98C89BF8544B9B7797126D28B
:100EB0004AD006D622D44ECE52CC56CA5AC85EC6A6
:100EC00062C466C26AC02A89B7140020EF40B02FFE
:100ED00023ACA48A630C0544371A002003250A8B2F
:100EE000B71900200544EF70A026AA8A03A5C98A75
:100EF000EF7000268D476306F542A14B854A094BEA
:100F00000D4C03250A8BEF70A04603A5C98AEF702C
:100F1000204603250A8BEF70A02363036501054477
:100F200003A5C98AEF70C02263036501054403A5C8
:100F3000848BD685EF40504B93F73A0003250A8BFC
:100F400063970738EF70C02063036501054493F78A
:100F50005A0003A5C98A63970736EF70601F6303C1
:100F600065010544FD1B860AE39D0BF803250A8BEA
:100F7000B71C0020894AEF70A03F03A5C98A854BA2
:100F8000130D000AEF70C03E03A5848B0D4B130CAC
:100F9000D005EF403069EF40102323ACA48A630FE3
:100FA00005344A85EF70C03C4A85EF70601A6303D0
:100FB0005501054403A5848B9305200AEF40D042D8
:100FC00003A5848B0147814601469305F00FEF404E
:100FD000B0216303A50105444A85EF7060176303E0
:100FE0005501054403A5848B9305D00FEF40D03FF6
:100FF00003A5848B0147814601469305F00FEF401E
:10100000B01E9307D00F6303F50005444A85EF70C7
:10101000201463035501054403A5848B8945EF40E3
:10102000B03C4A85EF70C01263036501054403A517
:10103000848B8145EF40503B9307F00F6303F5002D
:10104000054403A5848B8945EF4090319307F00F49
:101050006303F50005444A85EF7080314A85EF70DF
:10106000200F63035501054403A5848B8945EF4098
:10107000B0374A85EF70C00D63036501054403A5D1
:10108000848B0147814601469305F00FEF40D01550
:1010900063038501054403A5848B9305F00FEF409E
:1010A000302C63038501054403A5848B8145EF4003
:1010B000302B11C105444A85EF7080096303650137
:1010C000054403250A8BEF70A008630365010544FE
:1010D00003A5C98AEF70C00763036501054403A532
:1010E000848BB945EF40503003A5848BFD560546EF
:1010F0008545EF40303E058911E1054403A5848B09
:101100008145EF40F025B9476303F500054403A589
:10111000848BB945EF40D02403A5848B8145EF40F3
:10112000302411C105444A85EF70802403250A8BC1
:10113000EF70002403A5C98AEF7080234A85EF7001
:10114000200163035501054403250A8BEF7040001D
:1011500063035501054403A5C98AEF60707F6303EB
:101160005501054403A5848BFD563D468545EF405A
:1011700070363D89BD476303F500054403A5848BA4
:101180008145EF40F01D11C105444A85EF60507C58
:1011900063036501054403250A8BEF60707B6303DD
:1011A0006501054403A5C98AEF60907A6303650170
:1011B00005444A85EF70C01B03250A8BEF70401B66
:1011C00003A5C98AEF70C01A4A85EF60707863037F
:1011D0005501054403250A8BEF60907763035501A1
:1011E000054403A5C98AEF60B07663035501054441
:1011F00089450145EF70400603A5848BFD563D46A9
:101200008545EF40302D3D89BD476303F50005441A
:1012100003A5848B8145EF40B01411C105444A8574
:10122000EF60107363037501054403250A8BEF60BB
:10123000307263037501054403A5C98AEF605071DC
:1012400063037501054401458145EF70E0004A855F
:10125000EF60107063035501054403250A8BEF60AE
:10126000306F63035501054403A5C98AEF60506ED2
:1012700063035501054403A5848BEF40B03A4A85CA
:10128000EF60106D63036501054403250A8BEF6071
:10129000306C6303650503A5C98AEF60706B7370DA
:1012A0000430B16637D6000037D500009386C6FFFC
:1012B000130646B5930560101305C5B9EF303079B4
:1012C000029001A0EF60D068E31D85C961B9EF60AD
:1012D0003068E31D85C7A5B903A5C98AEF605067CB
:1012E000E31F65FB4DFC83A74C8C850723A2FC8C78
:1012F000EF40606D23ACA48AE31505CA7370043017
:10130000B16637D6000037D500009386C6FF1306B6
:1013100046B59305300E1305C5B9EF3050730290F2
:1013200001A01384DAFF33348000C1BE737004302F
:10133000B16637D6000037D500009386C6FF130686
:1013400046B59305800D1305C5B9EF305070029076
:1013500001A00111B7D50000371500007C0005473A
:10136000814613069006938505BE1305E5D406CE87
:1013700022CC26CA4AC8EF60B02BB246B7D50000CF
:10138000371500008147014713069006938585BEF7
:101390001305C5EAEF60D02937D90000B714000063
:1013A000B71700209387078B0547914613069006D1
:1013B000930509BF138564C1EF609027371400209F
:1013C0009307C48A0547A14613069006930509BFF3
:1013D000138564C1EF60D0258327C48A91CFEF4085
:1013E000805EB717002023AAA78A15C9F24062447D
:1013F000D24442490561828073700430B16637D6A9
:10140000000037D5000093860601130646B5930504
:10141000300C1305C5B9EF309063029001A07370D2
:101420000430B16637D6000037D500009386060138
:10143000130646B59305800C1305C5B9EF3030612E
:10144000029001A0411126C2B714002003A5448BCD
:1014500006C622C421CD371400208327848A1307AF
:10146000400685072324F48A6385E7061307800C6A
:10147000638EE7061307C0126387E700B240224479
:10148000924441018280AA85376500008146494621
:101490001305E5E8EF80F0608547630DF506371723
:1014A00000202322F78A2324048AC9BF73700430E2
:1014B000B16637D6000037D5000093868602130642
:1014C00046B59305903C1305C5B9EF3050580290CE
:1014D00001A0EF4020710DC1B2402244B717002097
:1014E000054723A2E78A924441018280EF40806F42
:1014F000C947E313F5FE59B783A5448B3765000050
:10150000814649461305C5E8EF80B0598547E31584
:10151000F5FCADB7B717002083A7478A2324048AB8
:10152000B1FF371700208327C78B8507232EF78A43
:10153000B1B7371700200323478CB7170020832843
:10154000478CB716002083A5078C03A8C6893717D8
:1015500000200326078A2320178B01456306B80065
:10156000330666403335C000371700203716002099
:1015700003A8078C832787898325C68B0326C68B00
:1015800023AE06898D8FB337F000B307F040232CCC
:10159000C7887D8D8280B716002083A7868D375738
:1015A0005A01130757E3B387E7028507139517001E
:1015B00023ACF68C45818280B717002003A5878E67
:1015C0004111014789460146814506C6EF808008E2
:1015D000EF70F062371700208327078EB24085072F
:1015E0002320F78E41016F709062397106DE22DC94
:1015F00026DA4AD84ED652D456D25AD05ECE62CCD3
:1016000066CA6AC8EF6090792A84130740063400DE
:101610000146FD550145EF7050722A89EF60107840
:10162000018D93073006B714002063E4A70023A0C0
:10163000048663170902A247B9C773700430B16604
:1016400037D6000037D5000093868604130646B5CA
:1016500093058009130585BFEF30703F029001A00C
:1016600073700430B16637D6000037D5000093861A
:101670008604130646B593057009130585BFEF3040
:10168000103D029001A0371400200325848E61666E
:10169000780091461306166A8145EF70B07B854746
:1016A0006318F502324A63080A0473700430B166A5
:1016B00037D6000037D5000093868604130646B55A
:1016C0009305B00A130585BFEF307038029001A072
:1016D00073700430B16637D6000037D500009386AA
:1016E0008604130646B59305700A130585BFEF30CF
:1016F0001036029001A0EF60706AAA8913074006B5
:1017000034000146FD550145EF7030632A89EF60D2
:10171000F068330535419307300663F4A70023A032
:10172000048685476314F91CA24AE1679387176A08
:101730006385FA0273700430B16637D6000037D57E
:10174000000093868604130646B59305A00B130587
:1017500085BFEF30D02F029001A0B714002083A7DF
:10176000C48E0325848E01478507914656868145A0
:1017700023A6F48EEF70106E63052503737004309A
:10178000B16637D6000037D500009386860413066D
:1017900046B59305B00C130585BFEF30502B029072
:1017A00001A00325848E8569014791461386395B24
:1017B0008145EF70306A05C573700430B16637D665
:1017C000000037D5000093868604130646B59305BE
:1017D000F00C130585BFEF309027029001A0014760
:1017E00034000146FD55EF705055630525037370B5
:1017F0000430B16637D6000037D5000093868604E2
:10180000130646B59305600D130585BFEF303024F0
:10181000029001A022466305560373700430B1663E
:1018200037D6000037D5000093868604130646B5E8
:101830009305700D130585BFEF307021029001A054
:101840000325848E01478D468145EF70B0606305A6
:10185000250373700430B16637D6000037D5000019
:1018600093868604130646B59305500E130585BF6F
:10187000EF30F01D029001A00325848E01478D46B4
:101880001386395B8145EF70F05C63052503737047
:101890000430B16637D6000037D500009386860441
:1018A000130646B59305800E130585BFEF30301A39
:1018B000029001A0014734000146FD550145EF703B
:1018C000D0476308250573700430B16637D6000031
:1018D00037D5000093868604130646B59305B00EEF
:1018E000130585BFEF30B016029001A0737004306D
:1018F000B16637D6000037D50000938686041306FC
:1019000046B59305900B130585BFEF305014029038
:1019100001A0A2479389395B638537037370043054
:10192000B16637D6000037D50000938686041306CB
:1019300046B59305D00E130585BFEF3050110290C8
:1019400001A00325848E6166014781461306166A4D
:101950008145EF70305085476305F50273700430A0
:10196000B16637D6000037D500009386860413068B
:1019700046B59305800F130585BFEF30500D0290DB
:1019800001A0014734000146FD550145EF70F03AD2
:10199000224785679387375B154985496305F702B9
:1019A00073700430B16637D6000037D500009386D7
:1019B0008604130646B59305B00F130585BFEF30B7
:1019C0001009029001A00325848E01478946014633
:1019D0008145EF7030487D1963103505E31509FE28
:1019E000014734000146FD550145EF70103563088D
:1019F000350573700430B16637D6000037D5000066
:101A000093868604130646B59305D010130585BF4B
:101A1000EF30F003029001A073700430B16637D646
:101A2000000037D5000093868604130646B593055B
:101A30008010130585BFEF309001029001A022476E
:101A400085679387875B6305F70273700430B1661F
:101A500037D6000037D5000093868604130646B5B6
:101A60009305E010130585BFEF30607E029001A062
:101A700001473400014681450145EF70102C05C532
:101A800073700430B16637D6000037D500009386F6
:101A90008604130646B593054011130585BFEF3044
:101AA000007B029001A0014734000146FD55EF7014
:101AB000D0280549FD5A0325848E4A86014785466C
:101AC0008145EF70303901473400014681450145B9
:101AD000EF70B0268547AA89631EF502A247050A62
:101AE0000609E39A57FD930700026308FA0473702E
:101AF0000430B16637D6000037D5000093868604DF
:101B0000130646B59305B013130585BFEF30207457
:101B1000029001A073700430B16637D6000037D54B
:101B2000000093868604130646B59305F01213054C
:101B300085BFEF30C071029001A01307400634004A
:101B4000094685450145EF70501F05C57370043087
:101B5000B16637D6000037D5000093868604130699
:101B600046B593058014130585BFEF30406E029093
:101B700001A00325848E014781467D568145EF7083
:101B8000702D01473400014681450145EF70F01A80
:101B90006305350373700430B16637D6000037D55E
:101BA000000093868604130646B593053015130589
:101BB00085BFEF30C069029001A02249F957630543
:101BC000F90273700430B16637D6000037D50000D3
:101BD00093868604130646B593054015130585BF05
:101BE000EF30E066029001A00325848E0147814614
:101BF00001468145EF7010260147340009468145B2
:101C00000145EF709013A24763852703737004307A
:101C1000B16637D6000037D50000938686041306D8
:101C200046B593054016130585BFEF30406202901C
:101C300001A001473400014681450145EF70F00FD6
:101C400035E52249F1576305F90273700430B16636
:101C500037D6000037D5000093868604130646B5B4
:101C60009305B016130585BFEF30605E029001A0AA
:101C70000325848E7800854601468145EF70901DCE
:101C8000A2476388270573700430B16637D6000019
:101C900037D5000093868604130646B59305401792
:101CA000130585BFEF30A05A029001A07370043075
:101CB000B16637D6000037D5000093868604130638
:101CC00046B59305A016130585BFEF304058029026
:101CD00001A034007D56814501470145EF70F005B4
:101CE0000325848E7800854601468145EF70901665
:101CF000B249639709081D4A05490325848E4A861F
:101D0000780085468145EF70F014B2477D1A6396DE
:101D10003705B3E929010609E3110AFEFD5501471C
:101D2000340001460145EF70500181450145EF70D7
:101D3000B05435C973700430B16637D6000037D55A
:101D4000000093868604130646B59305E018130534
:101D500085BFEF30C04F029001A073700430B166B0
:101D600037D6000037D5000093868604130646B5A3
:101D700093052018130585BFEF30604D029001A038
:101D800073700430B16637D6000037D500009386F3
:101D90008604130646B593059017130585BFEF30EB
:101DA000004B029001A00325848E61667800914665
:101DB0001306166A8145EF70F00981450145EF7001
:101DC000B04B85476305F50273700430B16637D6B2
:101DD000000037D5000093868604130646B59305A8
:101DE0006019130585BFEF308046029001A0814540
:101DF0000145EF70704805C573700430B16637D681
:101E0000000037D5000093868604130646B5930577
:101E10007019130585BFEF308043029001A00325A0
:101E2000848E014785467D568145EF70B0020325BB
:101E3000848E370600FF8145EF70104DFD57630516
:101E4000F50273700430B16637D6000037D5000054
:101E500093868604130646B59305401A130585BF7D
:101E6000EF30E03E029001A00325848E1306F00FB0
:101E7000814537090001EF7030499307F9FF630589
:101E8000F50273700430B16637D6000037D5000014
:101E900093868604130646B59305801A130585BFFD
:101EA000EF30E03A029001A00325848E7D568145F3
:101EB000EF709045130909F0630525037370043032
:101EC000B16637D6000037D5000093868604130626
:101ED00046B59305C01A130585BFEF304037029011
:101EE00001A00325848E7D568145EF70F04105C524
:101EF00073700430B16637D6000037D50000938682
:101F00008604130646B59305F01A130585BFEF3016
:101F10000034029001A00325848E01468145EF70B4
:101F2000B03E05C573700430B16637D6000037D5B2
:101F3000000093868604130646B59305001B13051F
:101F400085BFEF30C030029001A00325848E7D56FE
:101F50008145EF70703B05C573700430B16637D6AC
:101F6000000037D5000093868604130646B5930516
:101F7000101B130585BFEF30802D029001A0814515
:101F8000EF70902F8547AA896305F50273700430BE
:101F9000B16637D6000037D5000093868604130655
:101FA00046B59305501B130585BFEF30402A0290BC
:101FB00001A081450145EF70302C05C573700430D8
:101FC000B16637D6000037D5000093868604130625
:101FD00046B59305601B130585BFEF30402702907F
:101FE00001A03727000037D500001307C728814616
:101FF000014693052003130545C3EF7090472A89D6
:1020000025C983A7C48E0147814685070146FD5532
:10201000014523A6F48EEF70405299450145EF60CB
:10202000A02302C4EF6080572A867D5781468545EC
:102030004A85EF70F04C7D573400014681450145DB
:10204000EF70A04F5DE1A247B9C773700430B1666D
:1020500037D6000037D5000093868604130646B5B0
:102060009305301D130585BFEF30601E029001A05F
:1020700073700430B16637D6000037D50000938600
:102080008604130646B59305D01B130585BFEF30B4
:10209000001C029001A083A7C48E850723A6F48E9E
:1020A000EF60C04F2A867D57814685454A85EF708F
:1020B00030457D573400014681450145EF70E047CA
:1020C0006308350573700430B16637D6000037D524
:1020D000000093868604130646B59305101E13056B
:1020E00085BFEF30C016029001A073700430B16656
:1020F00037D6000037D5000093868604130646B510
:102100009305201D130585BFEF306014029001A0D8
:10211000A24785E773700430B16637D6000037D523
:10212000000093868604130646B59305301E1305FA
:1021300085BFEF30C011029001A081450145EF60DD
:10214000A0117D578146014695454A85EF70503B69
:1021500083A7C48E0147814685070146FD55014589
:1021600023A6F48EEF70603D3717000037D50000CE
:102170001307875B814601469305A005130545C4F7
:10218000EF70302FB71C0020B75A5A01216A23AED6
:10219000AC8C371B002037190020938A5AE37D1A34
:1021A000130CA005A94B130D200383278B8DB38738
:1021B0005703850713D60701337646013376860326
:1021C000232CFB8C63737601294603A5CC8D7D57A8
:1021D00081469145EF70D03283278B8DB3875703AB
:1021E000850793D90701B3F94901B3F98903232C72
:1021F000FB8C63F37901A9494E8681450145EF7057
:10220000202511C58327498E85072322F98E014693
:1022100081450145EF70C02311C58327498E85078D
:102220002322F98E4E8685450145EF70602283A7F3
:10223000C48E0327498EB3F7A7032A972322E98E7A
:102240009DEB0325848E9945EF60000185457D5601
:102250000145EF70E01F8327498E8145AA9703252A
:10226000848E2322F98EEF50307F83A7C48E85079A
:1022700023A6F48E1DBF7D5685450145EF70401D98
:102280008327498EAA972322F98EC5B7411126C20A
:10229000B714002083A7448D22C406C6371400203B
:1022A0000325848E8DEFEF60501C0325848EEF5044
:1022B000306A8D47630AF50673700430B16637D60D
:1022C000000037D500009386C605130646B5930572
:1022D0001020130585BFEF209077029001A0EF60DA
:1022E000D01803A6448D0325848E01478D46814571
:1022F000EF7040360325848EEF5090658D4763055F
:10230000F50273700430B16637D6000037D500008F
:102310009386C605130646B59305E020130585BFD1
:10232000EF20F072029001A00325848EEF6040043C
:1023300083A7448DB2402244850723AAF48C92449B
:1023400041018280B7170020B7D500003715000083
:1023500041119387878E0147814613069006938526
:1023600005C51305A55E06C6EF50902CB240B71701
:1023700000003717002093876759232CF78C410101
:102380008280B717002003A5878E011106CE22CCCC
:1023900026CA49C9B717002083A7C78D95CF37171D
:1023A00000208327078D93061003850763DBF60261
:1023B000371400208327C48C2328078C05476386A5
:1023C000E70809476380E70485C73717002083279C
:1023D000078E85072320F78EF2406244D2440561C0
:1023E0008280F24062442328F78CD24405618280C7
:1023F00001468145EF7020578327C48C850723262B
:10240000F48CE1B781479304F00F780089460146C8
:10241000814526C6EF70403DB24763859704232669
:10242000048C65B773700430B16637D6000037D5B9
:10243000000093860608130646B5930590281305F9
:1024400085BFEF20D060029001A0814701478946F7
:1024500001468145EF7040398327C48C85072326C8
:10246000F48CA5B773700430B16637D6000037D549
:10247000000093860608130646B59305602A1305E7
:1024800085BFEF20D05C029001A037170020B7175E
:1024900000208326C78E03A6878C630DD6020327F0
:1024A000C78EB716002023A4E78CB7170020371774
:1024B000002083A7078E0327478E637AF700998F42
:1024C00015476376F70023A006860145828003A5A1
:1024D00006868280B716002023A00686F9B7371734
:1024E00000208347C79085072306F790828037171F
:1024F00000208347479085072302F79082805D7113
:1025000052DC371A002083270A903737000037D56E
:102510000000939517001307E7E181460146BE9539
:102520001305C5C5A2C46AD086C6A6C2CAC04EDEFF
:1025300056DA5AD85ED662D466D26ECE37140020F0
:10254000EF702073232CA49015CD8545EF701037C4
:1025500003258491EF70F03C0547630DE50473702B
:102560000430B16637D6000037D50000938646099F
:10257000130646B59305E00A1305C5C6EF20304D96
:10258000029001A023A4018003A781805DFF7370E6
:102590000430B16637D6000037D50000938646096F
:1025A000130646B59305400A1305C5C6EF20304A09
:1025B000029001A0032584918145EF7030300325FE
:1025C0008491EF7010366317053E138C019D93893B
:1025D000019D930C0C019384019D88409104EF7040
:1025E000103F19E523A4018003A781806307073EFC
:1025F000E39594FF03A50901EF70703D19C523A46D
:10260000018003A78180630F0766B71D0020938AAE
:10261000CD91B7140020371B002005490145EF502C
:10262000F03E2AC699450145EF501043832B0A908E
:102630008A0B5E85EF60A03303250A90B2480147FC
:102640002A86B3D6CB02B385EA0003C80500050786
:102650002A9693F6F60F9385F6FF93F5F50F6364CC
:10266000B80063F8060123A4018083A681806388F3
:10267000065E9147E317F7FCC6850145EF50D03D54
:1026800003A781806307275DE28B03A50B00EF7032
:1026900010340147814601468D4519E523A4018088
:1026A00003A581806304055803A50B00910BEF700F
:1026B000206503A5CBFFEF70903119C523A40180DD
:1026C00003A7818063010754E3919BFDEF603053C2
:1026D00003C74A0019C723A4018003A781806301AF
:1026E000075023AE0D9023820A00EF60505203255D
:1026F0000A900A05EF60A0270147B386EA0083C667
:102700000600050799C623A4018083A681806386FD
:10271000064A9147E313F7FE03A78180630927491F
:1027200003258491EF70B02A6311055803474B913C
:1027300019C723A4018003A781806301075A832B53
:102740008491EF50B0652A860147814685455E85B4
:10275000EF70005B03258491EF70702719E523A4C7
:10276000018003A78180630E075803250A90A547BF
:102770003385A702EF60A01F03258491EF703025F9
:1027800019C523A4018003A78180630F075803475D
:102790004B916301275F23A4018003A78180630815
:1027A000075A03A781806317270103A744920507EF
:1027B00023A2E492832B8491EF50505E2A86014736
:1027C000814685455E85EF70A05303258491EF70A7
:1027D000102019E523A4018003A78180630207224A
:1027E00083ABC900EF50905B2A860147814685453F
:1027F0005E85EF70E05003A5C900EF70501D19E52C
:1028000023A4018003A78180630F0720A94B032520
:102810000A908D473385A7020581EF604015032597
:102820008491EF70D01A19E523A4018003A7818059
:102830006305075403474B9119C723A4018003A7DD
:102840008180630F075403A5C900EF70501819E584
:1028500023A4018003A78180630A071E03C73A00EF
:1028600019C723A4018003A78180630407200328DC
:10287000849142C6EF50905232482A8601478146E1
:1028800089454285EF70C04703A8C90042C6EF5092
:10289000F05032482A860147814689454285EF70CB
:1028A000204603A781806317270103A744920507E9
:1028B00023A2E492FD1B93FBFB0FE39A0BF4032589
:1028C0000A900A05EF60A00A03474B9163082701AD
:1028D00023A4018003A78180630F072203C73A0066
:1028E00019E723A4018003A781806309072403A5B6
:1028F000C900EF70D00D19E523A4018003A78180E2
:102900006301072603258491EF70700C631825017D
:1029100023A4018003A781806308072603A5C900BB
:102920000147814601468D45EF70803D03A5C900F2
:10293000EF70F00919C523A4018003A78180630DFE
:10294000071403A78180A3810A00230A0B90630860
:102950002717E28B03A50B00EF70700719C523A49E
:10296000018003A781806302071603A80B00910B67
:1029700042C6EF50B04232482A860147814685451B
:102980004285EF70E03703A5CBFFEF70500419E5E7
:1029900023A4018003A78180630C0714E39C9BFBA5
:1029A00003A78180E31C27C703A74492050723A23E
:1029B000E492ADB173700430B16637D6000037D5FC
:1029C000000093864609130646B59305400B130590
:1029D000C5C6EF20D007029001A073700430B16625
:1029E00037D6000037D500009386860A130646B511
:1029F000930560161305C5C6EF207005029001A06F
:102A000073700430B16637D6000037D50000938666
:102A1000C614130646B59305C0221305C5C6EF209C
:102A20001003029001A073700430B16637D6000025
:102A300037D500009386C614130646B59305502378
:102A40001305C5C6EF20B000029001A073700430DA
:102A5000B16637D6000037D500009386C61413063A
:102A600046B5930500251305C5C6EF20407E0290AC
:102A700001A073700430B16637D6000037D500006E
:102A80009386C614130646B5930560251305C5C67F
:102A9000EF20E07B029001A073700430B16637D65E
:102AA000000037D500009386C614130646B593057B
:102AB000A0281305C5C6EF208079029001A003A7C6
:102AC0004492050723A2E49269B573700430B1669D
:102AD00037D6000037D5000093864617130646B553
:102AE0009305802A1305C5C6EF206076029001A0E9
:102AF00073700430B16637D6000037D50000938676
:102B00004617130646B59305402B1305C5C6EF209F
:102B10000074029001A073700430B16637D60000D3
:102B200037D500009386C614130646B59305D02604
:102B30001305C5C6EF20A071029001A07370043088
:102B4000B16637D6000037D500009386C614130649
:102B500046B5930530271305C5C6EF20406F029098
:102B600001A073700430B16637D6000037D500007D
:102B70009386C614130646B59305B0271305C5C63C
:102B8000EF20E06C029001A073700430B16637D67C
:102B9000000037D500009386C614130646B593058A
:102BA00010281305C5C6EF20806A029001A003A774
:102BB0004492050723A2E492A5B673700430B1666F
:102BC00037D6000037D500009386460F130646B56A
:102BD0009305B01D1305C5C6EF206067029001A0E4
:102BE00073700430B16637D6000037D50000938685
:102BF000460F130646B59305B01C1305C5C6EF2056
:102C00000065029001A073700430B16637D60000F1
:102C100037D500009386460F130646B59305E01B93
:102C20001305C5C6EF20A062029001A073700430A6
:102C3000B16637D6000037D500009386460F1306DD
:102C400046B59305201B1305C5C6EF2040600290D2
:102C500001A003A74492050723A2E49235B4737040
:102C60000430B16637D6000037D500009386060DD4
:102C7000130646B5930540191305C5C6EF20205D20
:102C8000029001A073700430B16637D6000037D5CA
:102C900000009386860A130646B59305D0161305E1
:102CA000C5C6EF20C05A029001A023A4018003A74B
:102CB0008180E31D07A673700430B16637D600002B
:102CC00037D5000093860612130646B59305101FEC
:102CD0001305C5C6EF20A057029001A07370043001
:102CE000B16637D6000037D500009386061213066A
:102CF00046B59305701F1305C5C6EF2040550290D9
:102D000001A073700430B16637D6000037D50000DB
:102D100093860612130646B59305F01F1305C5C624
:102D2000EF20E052029001A073700430B16637D6F4
:102D3000000037D5000093860612130646B59305AA
:102D4000A0201305C5C6EF208050029001A073702B
:102D50000430B16637D6000037D5000093860612DE
:102D6000130646B5930500211305C5C6EF20204E76
:102D7000029001A0230A0B902DB473700430B16649
:102D800037D6000037D500009386C614130646B523
:102D9000930540241305C5C6EF20604B029001A0A7
:102DA00073700430B16637D6000037D500009386C3
:102DB000C614130646B59305A0241305C5C6EF2017
:102DC0000049029001A0411106C6EF70E04495470A
:102DD00063EFA700B71700209387C791AA9703C78F
:102DE000070005072380E700B2404101828023A449
:102DF000018083A78180EDFB73700430B16637D604
:102E0000000037D500009386C619130646B5930512
:102E1000A0401305C5C6EF208043029001A04111D8
:102E200022C426C206C637140020AA84EF70C03E12
:102E30008325C48F6385A50273700430B16637D6CD
:102E4000000037D500009386861B130646B5930510
:102E5000A0411305C5C6EF20803F029001A0268542
:102E60008505EF70A03F0327C48FB716002083C7E6
:102E700046910507232EE48EB24022448507238A1B
:102E8000F690924441018280797122D43717002054
:102E900026D24AD04ECE56CA5AC85EC606D652CCA4
:102EA00062C49387019D9306C791B7190020232E12
:102EB000079023820600138B019D23A0070023A205
:102EC000070023A4070023A6070023A8070023A0C8
:102ED000A9901384019D8146B73A000037D90000BC
:102EE000914B138A1600B305AA0213876ADC0546C4
:102EF000130589CAEF60F05708C06306050EEF702E
:102F0000002A930589CAEF70A0596319051C032C88
:102F10000400EF50A0682A867D578146854562856A
:102F2000EF60105E85476308F50023A4018083A746
:102F300081806388071C03A509901104D286E312DF
:102F40007AFB9315250013876ADC91460546130525
:102F500089CAEF6010522328AB002A844DCDEF5070
:102F6000E0632A867D57814685452285EF6050596A
:102F70008547630CF51241693727000037D50000FB
:102F80001307E74D814605469305F9FF130545CB29
:102F9000EF60304E371400202328A490372700001C
:102FA00037D500001307E74E814601469305F9FF28
:102FB0001305C5CBEF60F04B832704913717002032
:102FC0002324A790C9C341C183A78180CDE7B25014
:102FD000225492540259F249624AD24A424BB24BAD
:102FE000224C4561828023A4018083A78180A1F7C0
:102FF00073700430B16637D6000037D50000938671
:10300000061D130646B5930550111305C5C6EF20DE
:103010000024029001A023A4018083A78180A1FF46
:1030200073700430B16637D6000037D50000938640
:10303000061D130646B5930530131305C5C6EF20CC
:103040000021029001A023A4018083A78180ADFF0D
:1030500073700430B16637D6000037D50000938610
:10306000061D130646B5930510151305C5C6EF20BA
:10307000001E029001A02254B25092540259F2490B
:10308000624AD24A424BB24B224CB7D50000372598
:10309000000081471547814613069006938545CC6D
:1030A0001305E54F45616F40B05823A4018083A705
:1030B0008180E39207EC73700430B16637D600006C
:1030C00037D500009386061D130646B59305C01339
:1030D0001305C5C6EF20A017029001A0737004303D
:1030E000B16637D6000037D500009386061D13065B
:1030F00046B5930590111305C5C6EF204015029003
:1031000001A073700430B16637D6000037D50000D7
:103110009386061D130646B5930520121305C5C6F2
:10312000EF20E012029001A0B717002003A7878FBD
:10313000B71600206306A70023AA068E23ACA78E2D
:1031400037170020B71700200326479283A5078F63
:10315000638BC50023AA068E0327479203A58180AF
:1031600023A8E78E8280371600200326069083A5C9
:10317000468F0A063355A6021386150023AAC68E6B
:103180000505E37BC5FC23A401800327479203A523
:10319000818023A8E78E8280011122CC3714002081
:1031A000832744864EC606CE8507B719002026CA57
:1031B0004AC82322F48603A60990638E07101307DA
:1031C000C6FF6388E70C13074600638DE7181317E3
:1031D000160071176389E714930687006384D71C70
:1031E00011079356260036976389E72613171600B2
:1031F000B306C7006383D7329106638FD72C93162B
:103200002600C1166381D74CD1066388D756931622
:1032100036006386D73EB296F116638DD75A931661
:103220002600B2968606E1166383D74432970A07D2
:10323000B306C740D1166385D74E61176384E7365E
:1032400013174600118F639FE702B717002003C7CB
:10325000C7908D476308F70023A4018083A781806E
:103260006387075CB717002003C747908D47630843
:10327000F70023A4018083A78180638C0722FD5778
:103280002322F486F2406244D2444249B2490561A5
:103290008280B71700203717002083C7C7900347E5
:1032A0004790D98FE5D323A4018083A78180F9FBC0
:1032B00073700430B16637D6000037D500009386AE
:1032C0000620130646B59305F0301305C5C6EF106A
:1032D0001078029001A0B7140020B717002003A5B2
:1032E000049123860790B717002023820790014797
:1032F000FD578146A5452322F486EF60702085475F
:103300002A89E311F5F8B717002003A6099003A551
:10331000879001478146A545EF60901E631A2511ED
:103320002322048685B7B717002083C7C7900547B7
:10333000638EE71023A4018083A78180A1F77370B7
:103340000430B16637D6000037D5000093860620DA
:10335000130646B5930540321305C5C6EF10306F0E
:10336000029001A0B717002083C7C7900547638A62
:10337000E70623A4018083A78180E39507F073709B
:103380000430B16637D6000037D50000938606209A
:10339000130646B5930590311305C5C6EF10306B83
:1033A000029001A0B717002003C7C79089476301A7
:1033B000F70423A4018083A781809DEB7370043000
:1033C000B16637D6000037D5000093860620130675
:1033D00046B59305F0321305C5C6EF10506702904D
:1033E00001A03717002003474790E314F7F859BDB1
:1033F000B717002003C747908547E305F7E823A4E4
:10340000018083A78180E39F07E673700430B16673
:1034100037D6000037D5000093860620130646B540
:10342000930550331305C5C6EF107062029001A0DA
:1034300003A50491014781460146A1456244F2403B
:10344000D2444249B24905616F60900B37170020A2
:1034500003474790E310F7EE35B5B717002003C7D1
:10346000C79089476307F70023A4018083A7818061
:10347000E9C3B717002003C747908547E304F7E087
:1034800023A4018083A78180E39E07DE737004304C
:10349000B16637D6000037D50000938606201306A4
:1034A00046B5930560341305C5C6EF10505A029017
:1034B00001A073700430B16637D6000037D5000024
:1034C00093860620130646B59305303F1305C5C6FF
:1034D000EF10F057029001A0B717002003C7C79064
:1034E0008D476307F70023A4018083A78180ADC7C0
:1034F000B717002003C7479085476307F70023A449
:10350000018083A78180A5CFB717002003A507916D
:10351000014781460146A14515B7B717002003A40E
:103520008790EF5000082A860147814699452285F9
:1035300031B773700430B16637D6000037D500005C
:1035400093860620130646B5930500341305C5C6B9
:10355000EF10F04F029001A073700430B16637D6BF
:10356000000037D5000093860620130646B5930564
:1035700060351305C5C6EF10904D029001A0737021
:103580000430B16637D6000037D500009386062098
:10359000130646B59305C0351305C5C6EF10304B6D
:1035A000029001A0B717002003C7C7908D4763089A
:1035B000F70023A4018083A7818063860730B717B3
:1035C000002003C747908D47E30EF7CA23A401806C
:1035D00083A78180E39807CA73700430B16637D639
:1035E000000037D5000093860620130646B59305E4
:1035F000203E1305C5C6EF109045029001A0B717F5
:10360000002003C7C7908D476308F70023A40180FB
:1036100083A7818063830726B717002003C74790DD
:1036200089476307F70023A4018083A7818089CF9E
:10363000B717002003A48790EF40B0762A86014791
:1036400081469D452285DDBB73700430B16637D657
:10365000000037D5000093860620130646B5930573
:1036600030391305C5C6EF10903E029001A0B71780
:10367000002003C7C7908D476308F70023A401808B
:1036800083A7818063870728B717002003C7479067
:103690008947E30FF7F823A4018083A78180C9FB42
:1036A00073700430B16637D6000037D500009386BA
:1036B0000620130646B59305A03B1305C5C6EF10BB
:1036C0001039029001A0B717002003C7C7908D479B
:1036D0006308F70023A4018083A78180638C071609
:1036E000B717002003C747908547E30DF7B823A419
:1036F000018083A78180E39707B873700430B166B7
:1037000037D6000037D5000093860620130646B54D
:10371000930510371305C5C6EF107033029001A052
:10372000B717002003C7C7908D476308F70023A48D
:10373000018083A78180638B071AB717002003C716
:1037400047908947E306F7EE23A4018083A7818091
:10375000E39007EE73700430B16637D6000037D5BA
:10376000000093860620130646B59305D03C13054A
:10377000C5C6EF10D02D029001A0B717002003C7D7
:10378000C7908D476308F70023A4018083A7818039
:1037900063880710B717002003C747908947E303E2
:1037A000F7AE23A4018083A78180E39D07AC7370EB
:1037B0000430B16637D6000037D500009386062066
:1037C000130646B5930520381305C5C6EF103028FB
:1037D000029001A0B717002003C7C7908D47630868
:1037E000F70023A4018083A7818063870714B7179C
:1037F000002003C747908947E30CF7E223A4018028
:1038000083A78180E39607E273700430B16637D6F0
:10381000000037D5000093860620130646B59305B1
:10382000703A1305C5C6EF109022029001A0737084
:103830000430B16637D6000037D5000093860620E5
:10384000130646B59305D03E1305C5C6EF103020CC
:10385000029001A073700430B16637D6000037D5EE
:10386000000093860620130646B59305B03613056F
:10387000C5C6EF10D01D029001A073700430B16670
:1038800037D6000037D5000093860620130646B5CC
:103890009305D0381305C5C6EF10701B029001A028
:1038A00073700430B16637D6000037D500009386B8
:1038B0000620130646B59305C0371305C5C6EF109D
:1038C0001019029001A073700430B16637D6000061
:1038D00037D5000093860620130646B59305C03DF4
:1038E0001305C5C6EF10B016029001A07370043026
:1038F000B16637D6000037D5000093860620130640
:1039000046B59305703C1305C5C6EF1050140290E0
:1039100001A073700430B16637D6000037D50000BF
:1039200093860620130646B59305403B1305C5C68E
:10393000EF10F011029001A073700430B16637D619
:10394000000037D5000093860620130646B5930580
:10395000103A1305C5C6EF10900F029001A03971FF
:1039600026DA4AD84ED652D456D25AD05ECE62CC3F
:1039700006DE22DC37190020B71B0020371A002092
:10398000371B0020930450058549930AE00A130C65
:10399000E00B0145EF50602DEF4050402A8403A515
:1039A0004B9481461306F00A6C0002C623289992B4
:1039B000EF20501419C1232A3A93EF40303E018D75
:1039C00063F4AA006374AC00232A3A9301452328C8
:1039D0009992EF508029EF40703C2A8403A54B94C4
:1039E0001306F00A6C0023289992EF20505C19C14D
:1039F000232A3A93EF40903A018D63F4AA0063744E
:103A0000AC00232A3A932328999283278B93850726
:103A1000232CFB92BDBF5D71A2C4CAC04EDE52DC36
:103A200056DA5ED662D466D26AD086C6A6C25AD8A4
:103A30006ECE37190020B71C0020371A0020B719A6
:103A40000020B71B0020130D600B0544294C930A7E
:103A5000500595450145EF403000EF403034AA84D1
:103A60001305F00AEF40B070EF405033058D6374DA
:103A7000AD00232A8992EF4070322A8B2AC68144F6
:103A80009305B0046800EF409061EF40303133059A
:103A90006541058D9384B4046374AD00232A899233
:103AA00083A7CC93850723AEFC9293077017E39905
:103AB000F4FC9305B0046800EF40705E6304850079
:103AC000232A899213055002EF40706A9305B004CF
:103AD0006800EF40D05C63048500232A89921305B7
:103AE000B004EF40D0689305B0046800EF40305B4D
:103AF00019C1232A89929305B0046800EF40305A17
:103B000063048500232A899213052005EF4030665F
:103B10009305B0046800EF40905819C1232A899298
:103B200091450145EF404073914D02C28144EF4001
:103B3000F0262A8B03254A94B3149C0026862C0079
:103B4000EF20F04619C1232A8992EF403025330532
:103B500065419387F40063749500232A899263F486
:103B6000A700232A89929244850426C2E3D19DFCB2
:103B700002C2914403254A94814601464C00EF203D
:103B8000607763048500232A8992924785073EC2A5
:103B9000E3D2F4FE02C28144914DEF4030202A8BE3
:103BA00003254A94B3149C00814626864C00EF20DE
:103BB000607419C1232A8992EF40501E3305654174
:103BC0009387F40063749500232A899263F4A70015
:103BD000232A89929244850426C2E3D09DFC03A542
:103BE0000B9423A80992EF40A07883A709936389D7
:103BF00057015145EF40B05783A70993E39B57FF07
:103C00005145EF40D056914423A8099202C20325A2
:103C10004A9401462C00EF209039814601464C0021
:103C200063048500232A899203254A94EF20806C3F
:103C3000994563048500232A899283A7099303A5E4
:103C40000B9463945701232A8992EF40E06083A785
:103C5000099303A50B948D4563945701232A8992F8
:103C6000EF40805F924785073EC2E3D2F4FA83A714
:103C70000993514563895701EF40704F83A709931A
:103C80005145E39B57FFEF40904E914423A8099282
:103C900002C203254A9401462C00EF2050316304F0
:103CA0008500232A8992924785073EC2E3D3F4FE1A
:103CB00003A50B94EF40C06B83A709936389570159
:103CC0005145EF40D04A83A70993E39B57FF5145E5
:103CD000EF40F049914423A8099202C203254A9477
:103CE00001464C008146EF20E06001462C00630451
:103CF0008500232A899203254A94EF20502B994569
:103D000063048500232A899283A7099303A50B9452
:103D100063945701232A8992EF40005483A70993A3
:103D200003A50B948D4563945701232A8992EF4094
:103D3000A052924785073EC2E3D2F4FA83A70993C3
:103D4000514563895701EF40904283A7099351453C
:103D5000E39B57FFEF40B04183A7CC93850723AE89
:103D6000FC92C5B9411101469145154506C6EF20A3
:103D70004048371700202322A79431C9B7D5000047
:103D80009385C5CCEF30A02EB7D500003745000095
:103D900081471147814613069006938505CE13058A
:103DA00065A1EF40E008B240B7170020B7D500008A
:103DB00037450000938707940D4781461306900608
:103DC000938585CE1305E59541016F406006B240AD
:103DD0004101828037160020B7150020B716002059
:103DE0008327C69303A8869283A88593371700205C
:103DF0000323C792014563860801B38767403335C3
:103E0000F000B717002083A7479383A58593032667
:103E1000C693FD17B337F000B307F04023A4B69262
:103E20002326C7927D8D8280797126D24AD04ECECC
:103E300052CC56CA06D622D4B764002037190020C7
:103E4000371A0020854A8549EF408074EF4040745E
:103E500003A5C4BD01466C00EF2070152A84EF4015
:103E6000B01019C1232C3995EF40101071DC832755
:103E70004A953247938617006304F700232C39953F
:103E800083278995E38257FD232ADA9475BF0111B0
:103E900022CC26CA4AC84EC606CE3769002037143F
:103EA0000020B71900208544EF40806E0325C9BD6E
:103EB0008146014693050495EF20C04363049500B5
:103EC00023AE9994EF40500A13050008EF40302AC2
:103ED0008327049585072328F494F9B7411122C458
:103EE0002A84014526C206C69304E00FEF40F0572E
:103EF0001C4085071CC01C40E3FCF4FE0145EF405C
:103F0000D056FDB7797122D44AD04ECE52CC56CA83
:103F10005AC85EC662C406D626D266C2814AB71B9C
:103F200000208D49054B130CF00F23A201909544FE
:103F300003A5C190EF40705303A5C190EF4040210D
:103F40006310350D03A5C19083AC4190EF40404212
:103F500003A5C190EF40C01F631165091305000858
:103F6000EF40F020EF40C06283A741906393970138
:103F7000854AFD14C204C180EF40007FD5F803A537
:103F8000C190EF40904E03A5819023A20190EF4095
:103F9000201C631D350B03A58190EF40603D03A5F8
:103FA0008190EF40E01A6310350983A74190638840
:103FB0008701854A03A5C190EF40803BBDB7E39BD5
:103FC0000AFEEF50C04383D70B968507C207C18313
:103FD0002390FB96EF50A043F1BF73700430B1669D
:103FE00037D6000037D5000093868621130646B5E4
:103FF0009305A011130505CFEF106025029001A0D5
:1040000073700430B16637D6000037D50000938650
:104010008621130646B59305C010130505CFEF1092
:104020000023029001A073700430B16637D60000FF
:1040300037D5000093868621130646B59305C01434
:10404000130505CFEF10A020029001A0737004307B
:10405000B16637D6000037D5000093868621130657
:1040600046B59305B013130505CFEF10401E02901F
:1040700001A041114AC02A89014522C426C206C6B0
:10408000EF40C0182A849304150031A88327090043
:10409000014585072320F900EF40001C0145EF4052
:1040A000E016631F8502A6850145EF40E01A014531
:1040B000EF40C015A285E30B95FC73700430B16628
:1040C00037D6000037D500009386C622130646B5C2
:1040D0009305000E130505CFEF106017029001A0A5
:1040E00073700430B16637D6000037D50000938670
:1040F000C622130646B59305900E130505CFEF10A3
:104100000015029001A0411101469145054506C6E2
:1041100022C4EF20000E37670020232EA7BC4DC914
:10412000B7D500009385C5D2EF207074B7D50000D5
:1041300037450000938641909387C190014713064D
:104140009006938545D413052507EF30704EB7D5FB
:104150000000374500009386419093878190054782
:10416000130690069385C5D41305C5EDEF30504C6A
:10417000B7D5000037450000814701478146130647
:104180009006938545D5130545F0EF30704AB7D5B5
:10419000000037450000814701478146130690061D
:1041A0009385C5D51305E5E8EF3090482244B24029
:1041B000B7D5000037450000814701478146130607
:1041C0009006938545D6130585E241016F30504630
:1041D000B240224441018280B7180020B717002066
:1041E0003716002003D5089683A547958327869424
:1041F00037180020420541810357C89481466385E2
:10420000F500198DB336A000B717002003A7C79596
:10421000B717002083A787957D1703D508963337F6
:10422000E000FD173307E040B337F000F98EB30725
:10423000F0402316A8942324B69433F5F600828028
:10424000797122D426D24AD04ECE52CC56CA5AC800
:104250005EC662C466C206D605440D49894B03A5F5
:10426000C1938145EF20900DE31B85FE03A50192CC
:10427000EF30106E631B250B03A5C191EF30506D1D
:104280006318250D83A701936385870023AC819272
:10429000F9B783A74193E39B87FE83A7419203A5C8
:1042A000C191850723A2F192EF40800C03A50192F2
:1042B000EF40000C83A701936386870683A7419391
:1042C000638287060145EF3070746316750B03A592
:1042D0000192EF30F0676316750F03A5C191EF30BF
:1042E0003067631D750B03A5C193EF202021630484
:1042F000850023AC81920145EF3050712DD1737050
:104300000430B16637D6000037D500009386862486
:10431000130646B59305F0151305C5D6EF003073A7
:10432000029001A023AC819271BF73700430B1661A
:1043300037D6000037D5000093868624130646B58D
:104340009305E0111305C5D6EF007070029001A02F
:1043500073700430B16637D6000037D500009386FD
:104360008624130646B59305F0111305C5D6EF0054
:10437000106E029001A073700430B16637D6000051
:1043800037D5000093868624130646B59305B014EE
:104390001305C5D6EF00B06B029001A07370043016
:1043A000B16637D6000037D5000093868624130601
:1043B00046B5930520151305C5D6EF005069029048
:1043C00001A073700430B16637D6000037D5000005
:1043D00093868624130646B5930510151305C5D696
:1043E000EF00F066029001A0011122CC26CA4AC853
:1043F0004EC652C456C25AC006CE05440DA023ACC8
:10440000819283A7819203A7C19285076384E70005
:1044100023AC819283A78192850723A4F19203A5FF
:10442000C193F955EF208071E31B85FC83A741936D
:10443000E39787FC03A5C193EF20400C630485003C
:1044400023AC8192014523A88192EF40100223A85A
:10445000019245BF01114AC803A5C19322CC4EC6A3
:1044600052C456C206CE26CA0544EF20200963096D
:104470008506A94403A5C193BD45FD14EF20006C3A
:104480006304850023AC81925145EF40404EFDF01E
:10449000A9445145EF40A04D03A5C193FD14EF2061
:1044A000E0056304850023AC8192E5F403A5C19384
:1044B000EF20C0046314850023AC819283A7C192CE
:1044C0000145850723A6F19223AA8192EF40E07966
:1044D00003A5C19323AA0192EF204002E31B85F8B4
:1044E00023AC819279B74111114506C6EF10307E99
:1044F00023AEA19225C9B7D50000938585DAEF20B8
:104500001037B7D50000374500009387019209475F
:10451000814613069006938585DB13054545EF30EC
:104520003011B7D50000374500009387C19105478A
:10453000814613069006938505DC1305853EEF3012
:10454000300FB240B7D50000374500008147014722
:10455000814613069006938585DC130505244101E9
:104560006F30100DB2404101828083A6C19203A634
:1045700081916300D60483A6C19223ACD19003A697
:10458000819283A54191638FC50283A6819223AA5C
:10459000D19003A6419283A50191638EC50283A6A3
:1045A000419203A5819323A8D1907D153335A000B6
:1045B0008280054723ACE19203A6819283A54191B5
:1045C000E395C5FC054723ACE19203A6419283A580
:1045D0000191E396C5FC054723ACE19203A58193C5
:1045E0007D153335A000828000000000000000002F
:1045F000954219439D432144A5442945AD45314683
:10460000B5463947BD474148C5484949CD49514A52
:10461000D54A594BDD4B614CE54C694DED4D714E22
:10462000F54E794F954F639A5F0A994F63976F0ADA
:104630009D4F63947F0AA14F63918F0AA54F639E9C
:104640009F08A94F639BAF08AD4F6398BF08B14F58
:104650006395CF08B54F6392DF08B94F639FEF06AC
:10466000BD4F639CFF06C14F63990F07C54F63960B
:104670001F07C94F63932F07CD4F63903F07D14F5B
:10468000639D4F05D54F639A5F05D94F63976F05BB
:10469000DD4F63947F05E14F63918F05E54F639E86
:1046A0009F03E94F639BAF03ED4F6398BF03F14F47
:1046B0006395CF03F54F6392DF03F94F639FEF01DB
:1046C000970F000083AF0F0203AF0F00050F23A069
:1046D000EF01794F73000000B1370290FD3F0100F8
:1046E000AC090020130000001300000013000000BC
:1046F0001303100693031007130410089304100902
:104700001305100A9305100B1306100C9306100DD9
:104710001307100E9307100F1308000293081002DE
:104720001309200293093002130A4002930A50022F
:10473000130B6002930B7002130C8002930C900217
:10474000130DA002930DB002130EC002930ED002FF
:10475000130FE002930FF002930210066392620EB1
:1047600093021007639E720C93021008639A820CE6
:10477000930210096396920C9302100A6392A20CA2
:104780009302100B639EB20A9302100C639AC20A42
:104790009302100D6396D20A9302100E6392E20AFE
:1047A0009302100F639EF20893020002639A0209BB
:1047B0009302100263961209930220026392220967
:1047C00093023002639E320793024002639A4207CB
:1047D000930250026396520793026002639262074B
:1047E00093027002639E720593028002639A8205AF
:1047F00093029002639692059302A0026392A2052F
:104800009302B002639EB2039302C002639AC20392
:104810009302D0026396D2039302E0026392E20312
:104820009302F002639EF2019702000083A28202CB
:1048300003A30200050323A0620013031006293F0F
:104840000290FD3F13000000130000001300000061
:10485000A809002000000000000000000000000087
:10486000000037D5000059711305C5EF86D6A2D4D4
:10487000A6D2CAD0CECED2CCD6CADAC8DEC6E2C460
:10488000E6C2EAC06EDEEF50502BEF303051B7D7A2
:1048900000009387C7E13EC4B7D70000938747E481
:1048A0003EC6B7D70000938707E63EC8B7D70000DB
:1048B000938747E83ECAB7D700009387C7EA3ECC44
:1048C000B7D7000037D40000B7DD000037DD0000A7
:1048D000938787ECB7DC000005692AD6130404DD52
:1048E000938D4DDD130DCDDF3ECE938C4CEE37DC3A
:1048F0000000B7DB0000130989BB8544CA85681036
:10490000EF30F079EFF05F8D630395006E84EFF088
:104910006FCC630395006A84EFF03FC56303950095
:1049200022444A85EFE05F80630395003244EFC084
:104930005FC0630395004244EFD03FB56303950029
:10494000524483A7C19403A741946313F7006244C0
:1049500083A6C19403A7019483A7819423A2D19431
:104960006313F7007244EFC0CFA511E1668483A7FB
:104970008194228523A0F194EF50301CEF50D01980
:10498000EF00B044AA8513054CF0EF005011EF0082
:104990003044AA8513850BF2EF00701085B7B74736
:1049A0006587938717326305F50001456F30E06A2C
:1049B000411106C6EFF0DFD3B240014541016F302F
:1049C000C069B7573412938787676305F5000145BF
:1049D0006F30A068411106C6EFF09FC1B24001459B
:1049E00041016F308067B7563412B7D50000375594
:1049F00000004111814701479386866713064006F0
:104A0000938545F41305259C06C6EF306042B746F2
:104A10006587B7D500003755000081470147938669
:104A20001632130640069385C5F41305E599EF3059
:104A30002040EFF04FEDEFF0EFB2EFF0DFAA1305FB
:104A40002003EFE06FC4EFC0DF90EFD0BF8FEFC067
:104A50000F93B7D5000037550000814719478146AD
:104A60001306800C938545F513052586EF30403CF1
:104A7000EF30702801A0411106C6EFE0EFF1EFC062
:104A80007F9CB24041016FD0DF8F914763E5B70251
:104A9000B167938787268A05BE959C418287B717A1
:104AA000004003A7470B498F23AAE70A03A7070A79
:104AB000598D23A0A70A8280B717004083A6470B11
:104AC0001347F5FF758F23AAE70A03A7070A598D35
:104AD00023A0A70A8280B717004003A7470B1345FE
:104AE000F5FF698F23AAE70A03A7070B698F23A89D
:104AF000E70A03A7070A798D23A0A70A8280B717C0
:104B0000004083A6470B1347F5FFF98E23AAD70A67
:104B100083A6070B558D23A8A70A83A6070A758FBE
:104B200023A0E70A8280B717004083A6470B1347EC
:104B3000F5FF558D23AAA70A83A6070BF98E23A894
:104B4000D70A83A6070A758F23A0E70A82809147B8
:104B500063E5B702B1679387C7278A05BE959C4175
:104B60008287B717004003A7470D498F23AAE70C98
:104B700003A7070C598D23A0A70C8280B71700400C
:104B800083A6470D1347F5FF758F23AAE70C03A7EC
:104B9000070C598D23A0A70C8280B717004003A7EC
:104BA000470D1345F5FF698F23AAE70C03A7070DEF
:104BB000698F23A8E70C03A7070C798D23A0A70C06
:104BC0008280B717004083A6470D1347F5FFF98E83
:104BD00023AAD70C83A6070D558D23A8A70C83A65F
:104BE000070C758F23A0E70C8280B717004083A6BF
:104BF000470D1347F5FF558D23AAA70C83A6070D74
:104C0000F98E23A8D70C83A6070C758F23A0E70C79
:104C10008280931705010547C183638FE502D9C9D7
:104C200009476383E5060D47639EE500371700409B
:104C300083564709DD8E231AD7088326870A558DA8
:104C40002324A70A37170040231EF70883560709B5
:104C5000D58F2318F708828037170040035647097D
:104C600093C6F7FFF18E231AD7088326870A558D3E
:104C70002324A70A37170040231EF7088356070985
:104C8000D58F2318F70882803717004083564709CD
:104C9000DD8E231AD7088326C70A558D2326A70A37
:104CA00037170040231EF70883560709D58F2318AE
:104CB000F7088280371700400356470993C6F7FF6D
:104CC000F18E231AD7088326C70A558D2326A70AF3
:104CD00037170040231EF70883560709D58F23187E
:104CE000F70882809357E50093F70730C98FC20712
:104CF0000547C183638FE502D9C909476383E50688
:104D00000D47639EE5003717004083566709DD8E27
:104D1000231BD7088326870C558D2324A70C371710
:104D20000040231FF70883562709D58F2319F7085A
:104D30008280371700400356670993C6F7FFF18E4C
:104D4000231BD7088326870C558D2324A70C3717E0
:104D50000040231FF70883562709D58F2319F7082A
:104D600082803717004083566709DD8E231BD708E2
:104D70008326C70C558D2326A70C37170040231F09
:104D8000F70883562709D58F2319F708828037172C
:104D900000400356670993C6F7FFF18E231BD7081F
:104DA0008326C70C558D2326A70C37170040231FD9
:104DB000F70883562709D58F2319F7088280B7177C
:104DC000004003D7870109C5D98D239CB700828095
:104DD00093C5F5FFF98D239CB7008280B71700407B
:104DE00003D7A70109C5D98D239DB700828093C53C
:104DF000F5FFF98D239DB7008280B717004003D5DA
:104E0000870042054181937705049DC39377050C84
:104E1000130700046386E7002165130505D082802F
:104E2000B7479C1C938707807D8933C5A702828082
:104E3000B757E801938707807D8933C5A702828031
:104E40009947630BF500B717004003C75704854720
:104E50003395A700798D8280B717004003C50704FA
:104E600021898280B7170040130770052380E7046B
:104E7000130780FA2380E704010003C76704136760
:104E800017002383E70423800704828037E700E0CC
:104E90001C4354437D56A183E206D58F1CC12320B9
:104EA000C7182322C7188280B7E700E013178500D0
:104EB00023A0E710618123A2A7108280B7F700E04A
:104EC0008847CC478280B7170040130770052380BE
:104ED000E704130780FA2380E704010003C767048F
:104EE00011E91377B70F2383E704B7170040238036
:104EF00007048280136747002383E704B717004045
:104F0000238007048280B7170040130770052380B1
:104F1000E704130780FA2380E704010003C767044E
:104F200011E91377D70F2383E704B71700402380D5
:104F300007048280136727002383E704B717004024
:104F4000238007048280B717004013077005238071
:104F5000E704130780FA2380E704010003C767040E
:104F6000136707012383E7042380070482806352C9
:104F7000C0023388C50037370040A1468347B74099
:104F8000E38EF6FE850583C7F5FF2304F740E3179C
:104F9000B8FE32858280411106C6EFF01FE69317F6
:104FA0002500AA97860737150E00B3D7A702A94692
:104FB000373700409507B3D7D702C207C1832316FE
:104FC000F740930770F82301F7408D47A301F7409E
:104FD00093070004A300F74085472307F740B2403A
:104FE00041018280411122C406C62A84EFF0FFE00D
:104FF00093172500AA9786078D83B3D78702294781
:10500000B24022449507B3D7E70237370040C207C2
:10501000C1832316F7404101828037370040834720
:1050200027401A0593F7F703C98F93F7F70F23016A
:10503000F7408280B737004003C7174019C9D98DA0
:10504000A380B74003C70740136787002380E7406A
:10505000828093C5F5FFF98DA380B7408280B73772
:105060000040130700F8A380E7408280AA953737F5
:105070000040A146630DB5008347B740E38EF6FEBE
:1050800005058347F5FF2304F740E317B5FE82804B
:10509000B737004083C7A74093F7F70F8DC7054682
:1050A000AA87B7360040098E03C786403305F6004D
:1050B00042052380E70003C7A64041818507137797
:1050C000F70F7DF382800145828037D500004111C2
:1050D0001305C5F506C6EF50E07A01A07325100050
:1050E00082807310150082807325200082807310E7
:1050F0002500828073253000828073103500828005
:105100007325003082807310053082807325103043
:105110008280731015308280732540308280731036
:1051200045308280732550308280731055308280E4
:105130007325003482807310053482807325103407
:10514000828073101534828073252034828073101E
:105150002534828073253034828073103534828008
:10516000732540348280731045348280732500B0EB
:105170008280731005B08280732500B8828073101E
:1051800005B88280732520B08280731025B082809C
:10519000732520B88280731025B88280732510F1A2
:1051A0008280732520F18280732530F182807325FF
:1051B00040F182808280634305008280411122C4D5
:1051C00083A7019506C6850723A8F1947360043070
:1051D0007D89930700410A053E951C4182977370B3
:1051E000043083A70195B240FD1723A8F19422440F
:1051F00041018280411106C6753F23A80194B7077B
:1052000000009387470073905730B240410182807D
:10521000397122CC130341022ED232D4AA851A86C8
:105220001385419E06CE36D63AD83EDA42DC46DEBB
:105230001AC6EF50E06937D500009385419E1305EB
:10524000C5F9EF50E04FF24062442161828039712C
:1052500026CAB2842E86AA8537D500003EDA130509
:1052600005FA7C1006CE22CC36D63AD842DC46DE91
:105270003EC6793F3246A6851385419EEF50406574
:1052800037D500009385419E1305C5F9513729454F
:10529000EF50004FF2406244D24421618280397164
:1052A00026CAAA8437D500003EDA130505FB5C1038
:1052B00006CE22CC36D63AD842DC46DE3EC62ED2C8
:1052C00032D4B9373246A6851385419EEF504060EF
:1052D00037D500009385419E1305C5F9153F294533
:1052E000EF50004AF2406244D24421618280411171
:1052F00006C6B717004083C5470437D5000013051D
:1053000085FB713FB240B7B5C40437D50000938523
:105310000540130505FD410159B7411122C437D697
:10532000000037D40000130544FF1306C6FD9305A3
:10533000B00906C6293F653F130544FF2244B24029
:1053400037D600001306C6039305F009410101B7E3
:105350001387C19611A03E871C43E3EEA7FE50437E
:105360005441B305C7006305B5023306D500638712
:10537000C7001CC16303E50008C3828003A68196B1
:10538000E389C7FED0439C43B29654C11CC1DDB72C
:10539000B29654C33A85D1BF011122CC06CE26CA9B
:1053A0004AC84EC652C42A84EF30801E83A7819615
:1053B000C5CB83A94195B3F78900C9E79307F4FFEB
:1053C00039576361F7089307040113F7F70035E7CE
:1053D00003A941966368F90603A4C1969386C19612
:1053E00029A00C4091C5A2862E845840E36BF7FE9D
:1053F00003A68196630886040C4084423306F74076
:105400008CC29306000263F2C60C3305F4001377D6
:10541000F50045CB73700430B16637D6000037D540
:10542000000093860629130646B59305E00C130584
:105430000505EFF0DFE1029001A013F707FF410738
:1054400063EAE706EF304032EF40706F8144F2408C
:10545000624426854249D244B249224A056182808B
:10546000B7160020938746AC13F7F70031E7138790
:1054700046AC938646AC9565C115AE97C19B23A0FB
:10548000070023A207001388C1962322080023A641
:10549000D1963387E74023A4F1969CC223A0E196DE
:1054A00023A2E196D8C23707008023AAE194B70966
:1054B000008011B7BA8729BF1387F700419BBA86CE
:1054C0005DBF50C15CC06935584003A60196B30763
:1054D000E94023A2F19663E6C70483A7C19533E7A9
:1054E000E900C104850758C02320040023AEF194CD
:1054F000EF308027B1D893F7F400B1DB737004303C
:10550000B16637D6000037D500009386062913060A
:1055100046B59305101113050505EFF05FD3029012
:1055200001A023A0F19655BF2DC5032745FF83A7F2
:105530004195411122C406C6B376F7002A849DC660
:10554000832605FFA1CA73700430B16637D6000008
:1055500037D500009386062A130646B593056012D8
:1055600013050505EFF0BFCE029001A07370043063
:10557000B16637D6000037D500009386062A130699
:1055800046B59305501213050505EFF05FCC029068
:1055900001A0828093C7F7FFF98F232AF5FEEF2041
:1055A000307F83A64196832744FF130504FFB697F7
:1055B00023A2F196713B83A781952244B2408507CF
:1055C00023ACF19441016F30201A03A541968280EB
:1055D00003A501968280828001114EC606CE22CCA0
:1055E00026CA4AC8AA89EF20B07A83A7C196BDC34C
:1055F00083A68196FD5401490144D8430504637391
:10560000E9003A8963739700BA849C43E397F6FEF6
:10561000EF30801523A2290123A4990023A6890035
:10562000EF30F05D03A6419683A6C19503A781954F
:1056300083A70196624423A0C90023AAD90023AC02
:10564000E90023A8F900F240D2444249B249056179
:105650006F30F05BFD54014901445DBF011106CE7E
:1056600002C6F32750303EC6B2478D8BB1E7B7670D
:10567000002093870743BD8B85C773700430B166E4
:1056800037D6000037D500009386C62A130646B5E4
:105690009305600A13058509EFF07FBB029001A016
:1056A000EF40504D85679387078073A04730892A64
:1056B000F24001450561828073700430B16637D6CF
:1056C000000037D500009386C62A130646B5930519
:1056D000100A13058509EFF09FB7029001A001A001
:1056E00000000000000000000000000000000000BA
:1056F00000000000000000000000000000000000AA
:10570000130181F806C216C41AC61EC822CA26CCC6
:105710002ACE2ED032D236D43AD63ED842DA46DC21
:105720004ADECEC0D2C2D6C4DAC6DEC8E2CAE6CCF1
:10573000EACEEED0F2D2F6D4FAD6FED8F32200307A
:1057400096DA83A2C19A23A0220073252034F32580
:1057500010341356F50119C62EC003A10182EF4083
:10576000F0432DA091052EC0AD426317550003A153
:105770000182EF30004319A8F32220347323103440
:10578000F3230030D5BFF3222034F5BF03A3C19A21
:1057900003210300824273901234D6527390023078
:1057A0009240A2423243C2435244E244724582557F
:1057B0001256A2563257C2575258E2587259864969
:1057C000164AA64A364BC64B564CE64C764D865D7D
:1057D000165EA65E365FC65F130181077300203038
:1057E000130000001300000013000000130000006D
:1057F000130000001300000013000000130000005D
:1058000003A1C19A024182403243C2435244E2445E
:10581000724582551256A2563257C2575258E25814
:1058200072598649164AA64A364BC64B564CE64C28
:10583000764D865D165EA65E365FC65FD652A102C5
:1058400073900230A242130181078280130000008E
:1058500013000000130000001300000013000000FC
:1058600013000000130000001300000013000000EC
:1058700013000000130000001300000013000000DC
:1058800013000000130000001300000013000000CC
:1058900013000000130000001300000013000000BC
:1058A00013000000130000001300000013000000AC
:1058B000130000001300000013000000130000009C
:1058C000130000001300000013000000130000008C
:1058D000130000001300000013000000130000007C
:1058E000130000001300000013000000130000006C
:1058F000130000001300000013000000130000005C
:10590000F322003093F272FF130380181203B3E204
:105910006200711523205500130585FA10C1211569
:1059200023200500930200006387020071152320E5
:105930000500FD12D5BF71150CC18280000000006A
:105940000000000000000000000000000000000057
:105950000000000000000000000000000000000047
:105960000000000000000000000000000000000037
:105970000000000000000000000000000000000027
:105980000000000000000000000000000000000017
:105990000000000000000000000000000000000007
:1059A00000000000000000000000000000000000F7
:1059B00000000000000000000000000000000000E7
:1059C0000000000000004111614522C406C6EFF04E
:1059D000BF9C2A8409C5232005001105552922856D
:1059E000B240224441018280011106CE22CC26CA57
:1059F0004AC84EC652C456C26308050EB70700FF18
:105A0000ED8F2E84DDEF85E573700430B16637D6F7
:105A1000000037D500009386062C130646B5930583
:105A2000A0141305050EEFF09F82029001A02A89B1
:105A3000B289368ABA8AEF30007615E563850A02A4
:105A400073700430B16637D6000037D500009386F6
:105A5000062C130646B59305D0141305050EEFF07A
:105A60000FFF029001A0EF20B03283240900B3772A
:105A70009400631E0A08D1EF63870A0AB335300128
:105A8000E20563150A0A5686C18D13054900EF30F9
:105A9000E034EF20704D19E173000000EF30701812
:105AA00093176500AA8463D70708A204A180F24077
:105AB000624426854249D244B249224A924A05614B
:105AC000828073700430B16637D6000037D500008D
:105AD0009386062C130646B5930590141305050E00
:105AE000EFF0EFF6029001A073700430B16637D684
:105AF000000037D500009386062C130646B59305A3
:105B000080141305050EEFF08FF4029001A0E31549
:105B1000F4F6638A09009347F4FFE58F2320F90028
:105B2000EF20904469B7EF20304451B7B707000425
:105B3000DD8D91BFEF30B00C83240900B377940062
:105B4000631D0A0081CB638709009347F4FFE58F4B
:105B50002320F900EF30B00B89BFE31DF4FEE5B759
:105B6000411106C622C426C24AC031C9B70700FF88
:105B7000ED8F2E8985C773700430B16637D600006B
:105B800037D500009386462D130646B59305001EB3
:105B90001305050EEFF0AFEB029001A02A84EF3061
:105BA000100604409347F9FFE58F1CC0EF30300624
:105BB000B24022442685024992444101828073709A
:105BC0000430B16637D6000037D500009386462DE5
:105BD000130646B59305F01D1305050EEFF02FE7EC
:105BE000029001A008418280011106CE22CC26CA73
:105BF0004AC84EC652C456C25DC9B70700FFED8FF2
:105C0000AE84D9E32A84EF20B0181C4018489309C9
:105C1000C400C58F1CC0638CE904370900018144AE
:105C20007D19370A000231A8630A0800931776002D
:105C300063D30700D58CEF3060321C4056876385F4
:105C4000590310433A85832A4700B3762601131778
:105C50005600B3E5470133F8D700E35707FCE38765
:105C600006FD5687E39F59FD93C4F4FFE58F1CC0E2
:105C7000EF20902F0840F2406244D2444249B2499A
:105C8000224A924A0561828073700430B16637D629
:105C9000000037D500009386C62E130646B593053F
:105CA00000221305050EEFF08FDA029001A0737049
:105CB0000430B16637D6000037D500009386C62E73
:105CC000130646B59305F0211305050EEFF02FD806
:105CD000029001A00111B70700FF06CE22CC26CA10
:105CE0004AC84EC652C4F18FA5E3B2841DCA2A89A0
:105CF0002E8AB689EF30204A3DE96392090EEF20E3
:105D0000300903240900D2854A8533648A00E93DBD
:105D1000B3F78400638BF40A03240900EF20D02436
:105D200061A873700430B16637D6000037D5000023
:105D300093860630130646B59305B00C1305050E81
:105D4000EFF0EFD0029001A073700430B16637D647
:105D5000000037D5000093860630130646B593053C
:105D6000A00C1305050EEFF08FCE029001A0EF20DE
:105D7000300203240900D2854A8533644401AD35DD
:105D8000B377940063839704E38809F8B7050005A7
:105D90004E86C58D13054900EF304004EF20D01C1E
:105DA00019E173000000EF30C067931765002A8483
:105DB00063DA0704220421802285F2406244D2443F
:105DC0004249B249224A056182808327090093C46F
:105DD000F4FFFD8C23209900EF201019F1BF7370A0
:105DE0000430B16637D6000037D500009386063000
:105DF000130646B59305E00C1305050EEFF02FC50D
:105E0000029001A0EF30A05F03240900B3F78400E3
:105E10006397970093C7F4FFE18F2320F900EF30D9
:105E2000005F49BF411122C406C62A8426C2EF2062
:105E300020765C4085C308489304C400631695002F
:105E40001DA0084863019502B7050002EF3000115C
:105E50005C40E5FB2285EFF02FED2244B2409244F6
:105E600041016F20701073700430B16637D60000A6
:105E700037D5000093860631130646B59305F02703
:105E80001305050EEFF0AFBC029001A0B1BBC9B97C
:105E9000930785007D575CC118C55CC51CC92320CC
:105EA000050082802328050082805C4118419447C8
:105EB000DCC1050794C59447CCC28CC788C918C1FA
:105EC00082809041FD57130785006314F60039A8BE
:105ED0003E875C439443E37DD6FEDCC18CC71C4106
:105EE00098C54CC388C985071CC1828018495C438A
:105EF000EDB71C4954411845D04398C654C36309B3
:105F0000A6009843232805007D1798C38843828004
:105F1000D8C39843232805007D1798C388438280FF
:105F200041113C4126C2045D22C406C64AC02A84EF
:105F300081EF1C4185040145A5CF04DCB240224419
:105F4000924402494101828032891DE648413E86E1
:105F50008504EF4080735C40344018440145B69797
:105F60005CC0E3ECE7FC1C4004DCB2405CC02244B3
:105F7000924402494101828048453E86EF40E070EC
:105F800038405C4414403307E040BA975CC463F582
:105F9000D7001C443E9758C489476301F902850421
:105FA00004DCB2402244924402490145410182800E
:105FB0000844EF30602A2324040041B70145B5FCB2
:105FC0008544A5BF3041AE8701CE4C451845B295FA
:105FD0004CC563E4E5000C414CC53E856F40E06A6A
:105FE0008280411126C2AA8422C406C64AC0EF306C
:105FF000004103C4540462046184635D8002DC5088
:1060000095CB1389440211A87D149377F40F139450
:106010008701618485C3DC5091CF4A85EF20B06948
:1060200065D57D14EF3040169377F40F13948701F4
:106030006184F5F3FD57A382F404EF30403DEF3067
:10604000003C03C4440462046184635D80029C4894
:1060500095CB1389040111A87D149377F40F139441
:106060008701618485C39C4891CF4A85EF20B06445
:1060700065D57D14EF3040119377F40F13948701A9
:106080006184F5F3FD572382F4042244B240924424
:10609000024941016F30A037411106C622C426C211
:1060A0003DC12A84AE84EF30803534405C5C1840BA
:1060B000232C0402B387F6027D562302C40458C081
:1060C000A302C404B386D740BA9736971CC458C4F9
:1060D00099E81C48A1EFEF308033B240224492444B
:1060E00005454101828013050401EFF07FDA1305B5
:1060F0004402EFF0FFD9EF308031B24022449244A5
:1061000005454101828073700430B16637D60000C6
:1061100037D5000093864632130646B59305D01056
:106120001305C511EFF0AF92029001A01305040111
:10613000EF2070584DD17300000071BF411126C28D
:106140004AC006C622C42A89AE843305B50281ED51
:1061500013058504EFF04FA42DE5B240224492448C
:10616000024941018280B357B5026305F902737099
:106170000430B16637D6000037D5000093868633E9
:10618000130646B59305E0181305C511EFF02F8CE3
:10619000029001A0930770FB63F4A70473700430AE
:1061A000B16637D6000037D50000938686331306D4
:1061B00046B5930510191305C511EFF04F890290EC
:1061C00001A02A8408C0232E240324C022858545EB
:1061D000E1352285B2402244924402494101828045
:1061E00013058504EFF04F9B2DD92A8413058504F0
:1061F000D1BF11C1A1B7411106C673700430B16699
:1062000037D6000037D5000093868633130646B58F
:10621000930560181305C511EFF06F83029001A07C
:10622000411122C406C62A84EF30601D1C4089EB50
:106230000044EF30C01DB2402285224441018280DB
:10624000EF30E01C01442285B240224441018280AB
:1062500019C51841AA87014511E388478280411179
:1062600006C673700430B16637D6000037D500001B
:106270009386C634130646B5930520251305C5112C
:10628000EFE0FFFC029001A0411106C622C421C12B
:106290002E84636BB50009468145A13F11C100DD25
:1062A000B24022444101828073700430B16637D617
:1062B000000037D5000093868636130646B5930551
:1062C000E02E1305C511EFE09FF8029001A0737056
:1062D0000430B16637D6000037D500009386863685
:1062E000130646B59305D02E1305C511EFE03FF612
:1062F000029001A0397106DE22DC26DA4AD84ED699
:1063000052D456D25AD032C6630705182A842E8A30
:1063100036896386051089476316F900585C8547FE
:106320006315F712EF20306755C18144EF30200D1F
:10633000185C5C5C894AFD59130B0401636AF7061B
:1063400063085907B247638407146386040CEF306F
:10635000000CEF20E023EF30800A83474404E2077B
:10636000E187639437012302040483475404E2075E
:10637000E18763943701A3020404EF3040096C0005
:106380002808EF2050516315050EEF304007185CC8
:106390005C5C6303F706EF30800722859931EF20BC
:1063A000A03C8544EF30A005185C5C5CE37AF7F80C
:1063B0004A86D2852285AD365C506391071019C19B
:1063C00073000000EF30A004054545A8B2478144A2
:1063D000B1DF73700430B16637D6000037D50000E6
:1063E00093868638130646B5930510311305C511FB
:1063F000EFE0FFE5029001A0EF306001B2455A8561
:10640000EF2030192285F13EEF20003659F9730054
:106410000000854441BF2808EF2010470DBF3C41D4
:10642000E38B07EE73700430B16637D6000037D5C2
:10643000000093868638130646B59305D0301305C1
:10644000C511EFE0DFE0029001A073700430B16687
:1064500037D6000037D5000093868638130646B538
:106460009305E0301305C511EFE07FDE029001A037
:106470002285853EEF20402F0145F2506254D254D0
:106480004259B259225A925A025B21618280EF200E
:1064900010780145DDB773700430B16637D600005F
:1064A00037D5000093868638130646B59305C0306D
:1064B0001305C511EFE0BFD9029001A013054402F6
:1064C000EF20701FE30005F073000000E5BD4111EF
:1064D0008145054522C406C695312A8419C923245D
:1064E000050023200500232605008146014681453D
:1064F00011352285B240224441018280411106C6F5
:1065000022C426C24AC01DC9032985002A84EF205F
:10651000304881446309A900B240224426850249DB
:106520009244410182805C448544FD175CC4EDF7D0
:106530008146014681452285753BF9BF7370043061
:10654000B16637D6000037D500009386C6391306EA
:1065500046B59305D0261305C511EFE05FCF029035
:1065600001A0011106CE22CC26CA4AC84EC661C976
:106570002A843289BDC109475C5C638DE600185CE2
:10658000636EF700F2406244D2444249B249014589
:106590000561828005476397E7061C5C83445404C9
:1065A0001C5C36862285939984019D3A93D9894152
:1065B000FD57638CF9069307F0076381F90C938705
:1065C0001400E207E187A302F404F2406244D244DB
:1065D0004249B2490545056182803C41C9DF73707B
:1065E0000430B16637D6000037D500009386863B6D
:1065F000130646B59305103E1305C511EFE03FC5E0
:10660000029001A073700430B16637D6000037D510
:1066100000009386863B130646B59305203E13057E
:10662000C511EFE0DFC2029001A05C5085EF054587
:10663000F2406244D2444249B2490561828073709B
:106640000430B16637D6000037D500009386863B0C
:10665000130646B59305003E1305C511EFE03FBF95
:10666000029001A013054402EF20F00469D1E30079
:1066700009FC85472320F90005455DBF7370043090
:10668000B16637D6000037D500009386863B1306E7
:1066900046B59305B0461305C511EFE05FBB029008
:1066A00001A0411106C622C459CD3C41A1E31C41C1
:1066B0002E84ADC7185D5C5D637DF7048347550488
:1066C000050718DD139787016187FD566300D70A18
:1066D0009306F0076300D70A8507E207E187A30264
:1066E000F504B240224405454101828073700430B4
:1066F000B16637D6000037D500009386463D1306B5
:1067000046B59305F0481305C511EFE05FB402905C
:1067100001A00145B2402244410182801C45D9DBE1
:1067200073700430B16637D6000037D50000938609
:10673000463D130646B5930540491305C511EFE0E4
:106740001FB1029001A073700430B16637D600000B
:1067500037D500009386463D130646B59305B048ED
:106760001305C511EFE0BFAE029001A05C5195E7A3
:1067700005454DB773700430B16637D6000037D584
:1067800000009386463D130646B593053051130528
:10679000C511EFE0DFAB029001A013054502EF2029
:1067A000807179D571D485471CC00545A5B739716D
:1067B00006DE22DC26DA4AD84ED652D432C663062A
:1067C00005142A842E89638C0510EF20D01C6302E7
:1067D000050EEF20D042045CA5ECB247C5CB2808DB
:1067E000EF20900AFD59130A4402EF205042EF10A7
:1067F000305AEF20D04083474404E207E187639496
:1068000037012302040483475404E207E1876394B9
:106810003701A3020404EF20903F6C002808EF200A
:10682000900721E5EF20B03D1C5CA5EFEF20303E46
:10683000B2455285EF20E0552285EFF08FFAEF1038
:10684000B0721DED73000000EF20703B045C8DCC36
:10685000CA852285FD14EFF0EFF604DC1C4863992D
:10686000070CEF20D03A05452DA02285EFF06FF7F9
:10687000EF10906FEF20B0381C5C89CBEF203039DF
:10688000EF20F037045CE9F4B247A5F3EF2030388D
:106890000145F2506254D2544259B259225A2161F0
:1068A0008280EF20D0362285EFF0AFF3EF10D06B6F
:1068B000C1BFB247E38F07F073700430B16637D6BB
:1068C000000037D500009386863E130646B5930533
:1068D00080531305C511EFE09F97029001A03C4142
:1068E000E38507EE73700430B16637D6000037D504
:1068F00000009386863E130646B593053053130574
:10690000C511EFE0DF94029001A073700430B1660E
:1069100037D6000037D500009386863E130646B56D
:106920009305F0521305C511EFE07F92029001A08C
:1069300013050401EF202058E30505F27300000061
:106940000DB7397106DE22DC26DA4AD84ED652D48B
:106950002EC6630E05123C412A84C9E3EF20B00322
:1069600063110510B24781440149639F070EFD5929
:10697000130A4402EF20B0281C5C63970716B24745
:10698000638E0716630F090AEF207028EF1050403E
:10699000EF20F02683474404E207E1876394370140
:1069A0002302040483475404E207E1876394370118
:1069B000A3020404EF20B0256C002808EF20A06D8E
:1069C00025E5EF20D0231C5C8DCFEF2050242285BD
:1069D000EFF02FE1EF105059054969BF7370043093
:1069E000B16637D6000037D500009386863F130680
:1069F00046B59305605C1305C511EFE05F85029015
:106A000001A0EF20D0201C406387070CB2455285BF
:106A1000EF2020382285EFF0CFDCEF10F0544DFD51
:106A2000730000000549B9B72285EFF08FDBEF1046
:106A3000B053EF20D01C1C5C89CBEF20501D0549C2
:106A400015BF2808EF20406481B7EF20501CBDE03F
:106A5000F250625426854259D254B259225A2161C9
:106A600082808144014921B773700430B16637D602
:106A7000000037D500009386863F130646B5930580
:106A8000B05C1305C511EFE08FFC029001A073709C
:106A90000430B16637D6000037D500009386863FB4
:106AA000130646B59305205C1305C511EFE02FFAD8
:106AB000029001A0EF20B0145C50814581EB0844A6
:106AC0008144EF207005EF20901459B71C589D4564
:106AD0009C439D8DEDB7EF2090120844EF20E06CB1
:106AE000AA84EF20D0121DB71840FD171CDC39C353
:106AF0001C488DEBEF20B011854499BFE9D4737029
:106B00000430B16637D6000037D500009386863F43
:106B1000130646B5930510611305C511EFE02FF379
:106B2000029001A013050401EF20E03861D5730045
:106B30000000C9B7EF20701008C45DBF411106C640
:106B400022C426C24AC01DCD04452A842E89EF20C6
:106B50002064638FA400CA852285E53301C55C44A7
:106B600085075CC4B24022449244024941018280BC
:106B70005C44B240924485075CC422440249054506
:106B80004101828073700430B16637D6000037D57A
:106B900000009386C640130646B59305502A130598
:106BA000C511EFE0CFEA029001A0397106DE22DCC8
:106BB00026DA4AD84ED632C6630605122A84AE8437
:106BC000638C050EEF20205D6302050CEF2030037F
:106BD0001C5C639C0712B247C1CB2808EF20C04A57
:106BE0007D5993094402EF209002EF10701AEF20B4
:106BF000100183474404E207E187639427012302DD
:106C0000040483475404E207E18763942701A30245
:106C10000404EF20C07F6C002808EF20C04705E582
:106C2000EF20E07D1C5CB9EBEF20607EB2454E8525
:106C3000EF2020162285EFF0CFBAEF10F03219EDD9
:106C40007300000021A82285EFF0AFB9EF10D0311A
:106C5000EF20E07A1C5C89CBEF20607BEF20207A6C
:106C60001C5CC5E7B247C1F3EF20607A0145F250E2
:106C70006254D2544259B25921618280EF20207966
:106C80002285EFF00FB6EF10302EC9BFB247E38F69
:106C900007F273700430B16637D6000037D50000B4
:106CA00093868642130646B59305406A1305C511BF
:106CB000EFE0EFD9029001A03C41E38507F073704B
:106CC0000430B16637D6000037D50000938686427F
:106CD000130646B59305F0691305C511EFE02FD7EC
:106CE000029001A073700430B16637D6000037D52A
:106CF000000093868642130646B59305B0691305D6
:106D0000C511EFE0CFD4029001A0A685228503290A
:106D1000C400EFF02FAB5C502326240189E7EF205D
:106D2000006F0545A9B713054402EF20C01865D9C7
:106D300073000000EDB7011106CE22CC26CA4AC866
:106D40004EC649C52A84B289A9CD032984030145C9
:106D500063190900F2406244D2444249B2490561D4
:106D60008280834444042285EFF0CFA57D19939758
:106D70008401E187232C24037D57638CE7061307E6
:106D8000F0076386E70893871400E207E187230290
:106D9000F404F2406244D2444249B24905450561D7
:106DA00082803C41DDD373700430B16637D6000079
:106DB00037D5000093864643130646B593051073F6
:106DC0001305C511EFE0AFC8029001A07370043045
:106DD000B16637D6000037D50000938646431306C8
:106DE00046B5930500731305C511EFE04FC6029039
:106DF00001A01C48D9DF13050401EF20C00B51D9B5
:106E0000E38909F8854723A0F9000545A1B7737008
:106E10000430B16637D6000037D50000938646436C
:106E2000130646B5930540771305C511EFE02FC251
:106E3000029001A0411106C622C426C229CD2A848F
:106E40003C4199C999CB185D81471DEBB240224462
:106E500092443E8541018280B5E373700430B1668F
:106E600037D6000037D500009386C644130646B5D2
:106E7000930510791305C511EFE06FBD029001A0D5
:106E80004445EFF02F94B24044C4224485479244D5
:106E90003E854101828073700430B16637D60000B0
:106EA00037D500009386C644130646B59305F0789F
:106EB0001305C511EFE0AFB9029001A07370043063
:106EC000B16637D6000037D500009386C644130656
:106ED00046B5930500791305C511EFE04FB7029051
:106EE00001A0411106C622C401CD2A84EF20205101
:106EF000005CEF20C051B2402285224441018280D3
:106F000073700430B16637D6000037D50000938621
:106F10000646130646B59305207C1305C511EFE020
:106F20000FB3029001A0411106C622C419CD2A84D4
:106F3000EF20E04C485C1C5C3304F540EF20204D12
:106F40002285B24022444101828073700430B166D0
:106F500037D6000037D5000093868647130646B51E
:106F60009305307D1305C511EFE06FAE029001A0CF
:106F700019C1085D8280411106C673700430B16684
:106F800037D6000037D5000093860649130646B56C
:106F90009305407E1305C511EFE06FAB029001A091
:106FA00015C937670020930607BE8147130707BE40
:106FB000A145504321076307C5008507E39BB7FE42
:106FC0006FE08FD68E07B69723A0070023A2070095
:106FD0006FE08FD5411106C673700430B16637D6A5
:106FE000000037D500009386064B130646B593057F
:106FF000F07E1305C511EFE08FA5029001A009C531
:10700000085D133515008280411106C67370043087
:10701000B16637D60000856537D500009386064CEB
:10702000130646B5938595941305C511EFE02FA27D
:10703000029001A019C51C5D485D1D8D133515001A
:107040008280411106C673700430B16637D60000E5
:10705000856537D500009386C64D130646B59385E2
:1070600025971305C511EFE08F9E029001A0B76729
:107070000020138807BE0147938707BE214694432B
:10708000A10789C60507E31CC7FE82800E07429749
:107090000CC348C38280B7670020938507BE0147B1
:1070A000938707BE2146D443A1076387A60005073F
:1070B000E31BC7FE014582800E072E97084382809E
:1070C000B7670020938507BE0147938707BE214617
:1070D000D443A1076386A6000507E31BC7FE828091
:1070E0000E072E97232007002322070082804111DC
:1070F00022C426C24AC02A8406C6AE843289EF2042
:107100000030834744047D57E207E1876394E7003A
:1071100023020404834754047D57E207E187639404
:10712000E700A3020404EF20802E1C5C89CB22859B
:107130002244B2409244024941016FE09FEA1305A4
:1071400044024A86A685EF10D05122852244B240DF
:107150009244024941016FE0DFE8011122CC06CEE2
:1071600026CA4AC84EC652C4368463E3C600328477
:1071700025CC04411845B309974063603409AE87B4
:107180002A89328A6365360BB3863401636ED7066B
:107190000C4D4E863E85A695EF30204F63FE89024A
:1071A00063758A0273700430B16637D6000037D534
:1071B00000009386864F130646B59305A04B130532
:1071C0000515EFE0CF88029001A0832589013306E1
:1071D00034414E95EF30604B83278900A29463E3DE
:1071E000F4009D8C232099002285F2406244D24411
:1071F0004249B249224A05618280A289AE872A8922
:10720000328AE37336F925A073700430B16637D63D
:10721000000037D500009386864F130646B59305C8
:10722000204B13050515EFE08F82029001A07370CB
:107230000430B16637D6000037D500009386864FFC
:10724000130646B59305104B13050515EFE02F8087
:10725000029001A00111AE8722CC930550052A842B
:107260003E854AC84EC652C406CE26CA328AB68960
:107270003A89EF3060186305A50273700430B16677
:1072800037D6000037D5000093860651130646B561
:107290009305A04F13050515EFD07FFB029001A0C9
:1072A000AA841306000222858145EF30E014230EE4
:1072B000240104CC2324440123263401F2406244F7
:1072C000D2444249B249224A05618280011122CC4E
:1072D0001C45404126CA4AC84EC652C406CE338910
:1072E0008740AA84B2892E8A6373260132893307C4
:1072F000240163F5E70273700430B16637D60000ED
:1073000037D5000093860653130646B59305B0475C
:1073100013050515EFD0BFF3029001A0884C4A86F3
:10732000D2852295EF306036637F39039C443386E3
:10733000294163F5C70273700430B16637D6000087
:1073400037D5000093860653130646B5930530489B
:1073500013050515EFD0BFEF029001A0884CB305CF
:107360002A01EF3080329C444E946363F4001D8CFC
:10737000C0C0F24062444E85D2444249B249224ADA
:1073800005618280011106CE22CC26CA32C699CE72
:107390008347C5012A84AE84858B99EF63E7C602D3
:1073A00032C605CEA68522851537AA86F2406244EC
:1073B000D24436850561828063FCE600F240624477
:1073C0008146D244368505618280368632C6D1BF79
:1073D00011466C00E53D324671F673700430B166BB
:1073E00037D6000037D5000093860653130646B5FE
:1073F0009305104713050515EFD07FE5029001A016
:10740000011122CC4AC806CE26CA4EC685472A8418
:107410002E896309F60881493DC1636F2403631314
:10742000090005499307E0FD814463EF87001305D8
:107430001402EFD07FF6AA8401C94E87CA861306CC
:107440001400930505023935F2406244268542490D
:10745000D244B2490561828073700430B16637D678
:10746000000037D5000093868654130646B5930571
:10747000400F13050515EFD09FDD029001A073703A
:107480000430B16637D6000037D5000093868654A5
:10749000130646B59305100F13050515EFD03FDB16
:1074A000029001A091478549E3E9A7F67370043083
:1074B000B16637D6000037D5000093868654130690
:1074C00046B59305B00E13050515EFD05FD80290B1
:1074D00001A001CD8347C501898B99E36FE0CF847B
:1074E0001306000281456F203071411106C673708A
:1074F0000430B16637D6000037D500009386465673
:10750000130646B59305701713050515EFD03FD444
:10751000029001A0411106C622C426C215C9AA8440
:10752000EF10F06D9C48014489CBEF10506E22851E
:10753000B2402244924441018280DC48FDF703C7F7
:10754000C401D44490448C4C268505442133F1BFBA
:1075500073700430B16637D6000037D500009386CB
:107560008657130646B59305D01913050515EFD0B8
:107570001FCE029001A019C9AA8791E185459847BD
:1075800001456364B700CCC705458280411106C63A
:1075900073700430B16637D6000037D5000093868B
:1075A000C658130646B59305B01C13050515EFD054
:1075B0001FCA029001A001CD1C411845544133055A
:1075C000F7007D15158D6363E500198D82804111EB
:1075D00006C673700430B16637D6000037D5000098
:1075E0009386C65A130646B59305801E13050515E6
:1075F000EFD0FFC5029001A019C95C4118450841B0
:10760000BA973385A7406363E500198D82804111E5
:1076100006C673700430B16637D6000037D5000057
:107620009386C65C130646B5930500201305051521
:10763000EFD0FFC1029001A0397106DE22DC26DA0C
:107640004AD84ED652D436C61C456380050E034731
:10765000C5012A842E8A058B3289FD1759EFB28421
:1076600063F3C700BE84B247B1CB2808EF10B01A4D
:107670000DA8EF2060405C48639F070EEF1050316B
:1076800048C8EF10D0583247814581460146014530
:10769000EF10B06A6C00232A04002808EF10B01F16
:1076A00001EDEF10D05522853937AA898145014572
:1076B000E3E199FCEF10B055639509002285E53DA3
:1076C000AA892687CE864A86D28522856539AA84EC
:1076D00001CD5C4018441440BA97958F63E3E700EE
:1076E000998F584463F3E702F25062542685425959
:1076F000D254B259225A21618280930446006379A0
:107700009604E3F297F602C655BFEF0070681C4876
:1077100091CB08480147814601468145EF1090739F
:1077200023280400EF104004C1B773700430B16621
:1077300037D6000037D500009386865E130646B51F
:107740009305502113050515EFD07FB0029001A0DD
:1077500073700430B16637D6000037D500009386C9
:10776000865E130646B59305102213050515EFD066
:107770001FAE029001A073700430B16637D60000CE
:1077800037D500009386865E130646B5930510250F
:1077900013050515EFD0BFAB029001A0011106CE75
:1077A00022CC26CA4AC84EC652C4BDC52A8441C985
:1077B00036898346C501AE84B289858A328A99C2E8
:1077C000130A46002285C53BAA86A68552874E86A7
:1077D00022854D3EAA8405C958401444104036976E
:1077E000118F6363D700158F5444636ED700184818
:1077F00019CB0848CA870147814601468145EF10E9
:10780000B07E23280400F240624426854249D244D7
:10781000B249224A0561828073700430B16637D65E
:10782000000037D500009386C65F130646B5930562
:10783000202913050515EFD09FA1029001A07370B8
:107840000430B16637D6000037D500009386C65F96
:10785000130646B59305302913050515EFD03F9F54
:10786000029001A0797106D622D426D24AD04ECEFB
:1078700052CC56CAF1C1AA846303050E0349C5015F
:107880002E8AB28913791900B68A0A0995E6C04092
:107890009C4498403E94198C6363F4001D8C63648F
:1078A000890601442285B250225492540259F24969
:1078B000624AD24A45618280EF1070349C44C040D5
:1078C00098403E94198C6363F4001D8C636B8902AD
:1078D00081450145EF20401A9C48F1C77370043080
:1078E000B16637D6000037D500009386866113064F
:1078F00046B59305C03113050515EFD05F9502908D
:1079000001A0EF10D030631F0906A2864E86D285F3
:107910002685A1302A8451D5EF009047DC4891CBD1
:10792000C8480147814601468145EF10B05223AA5D
:107930000400EF007063BDB773700430B16637D6D2
:10794000000037D5000093868661130646B593057F
:10795000802F13050515EFD09F8F029001A0737043
:107960000430B16637D6000037D5000093868661B3
:10797000130646B59305902F13050515EFD03F8DDF
:10798000029001A0A2864A866C00268583AA040084
:10799000EFF0AFFCB2473304244163F5F90223A0B2
:1079A000540181499DB7EF10A07E88C8EF103026A2
:1079B00056878146014681450145EF10103823A8BE
:1079C0000400F1B5BE8991B7011106CE22CC26CABA
:1079D00035C98347C5012A84858BA1C354411C4501
:1079E0001841BE96998E63E3F6009D8E914763ED34
:1079F000D7028DC673700430B16637D6000037D514
:107A0000000093860663130646B593058037130579
:107A10000515EFD0DF83029001A08146F240624459
:107A2000D24436850561828004406C00228511466F
:107A3000EFF0AFF2B24604C0F2406244D244368561
:107A40000561828073700430B16637D6000037D587
:107A5000000093860663130646B59305E0351305CB
:107A60000515EFD0CFFE029001A0797106D622D481
:107A700026D24AD04ECE52CC56CA5AC8A5C92A845C
:107A800049C944411C450349C5011841BE941379B5
:107A90001900998C2E8AB289B68A0A0963E3F40028
:107AA0009D8C636E99008144B25022542685025900
:107AB0009254F249624AD24A424B45618280631D28
:107AC0000906A6864E86D2852285EFF00FE9AA84A4
:107AD00079D95C48F1DB4848D687014781460146A1
:107AE0008145EF107050232A04007DBF737004306D
:107AF000B16637D6000037D5000093864665130679
:107B000046B59305D03813050515EFD04FF4029014
:107B100001A073700430B16637D6000037D500007D
:107B200093864665130646B59305E038130505159B
:107B3000EFD0EFF1029001A0A6864A866C00228564
:107B4000032B0400EFF06FE1B247B384244163F6E6
:107B5000F900232064018149ADB7BE899DB719C5DD
:107B60001C4148411D8D133515008280411106C608
:107B700073700430B16637D6000037D500009386A5
:107B80000667130646B59305803F13050515EFD02C
:107B90000FEC029001A0411106C622C411CD03448E
:107BA000C501113CB24005880A043335A4002244C3
:107BB000134515004101828073700430B16637D6D9
:107BC000000037D5000093868668130646B59305F6
:107BD000004113050515EFD08FE7029001A0411178
:107BE00006C622C405C518492A84014501CF0848A4
:107BF000AE870147814601468145EF10F03E0545BD
:107C000023280400B2402244410182807370043072
:107C1000B16637D6000037D500009386C6691306D3
:107C200046B59305404313050515EFD04FE202908A
:107C300001A0411106C622C405C558492A84014540
:107C400001CF4848AE870147814601468145EF1084
:107C5000B0390545232A0400B24022444101828004
:107C600073700430B16637D6000037D500009386B4
:107C7000066C130646B59305304513050515EFD080
:107C80000FDD029001A01C412A83B1C75C41130E95
:107C9000850083A84700232215016386C80583AEAB
:107CA000C80083A848002322130163081E0303A50C
:107CB000C8002E8793074503130845048346070031
:107CC00003C60700050785076395C60081CEE397C5
:107CD00007FFE398AEFC0145828083284E002322F3
:107CE0001301F1B782808328C50055BF83A7819A0D
:107CF000DC47984323AEE1968280011126CA4AC828
:107D000003A9819903A7C19A83A7C19A22CC4EC621
:107D100006CE2A84A30A070413854700AE89EFE044
:107D20004F9DFD576309F40483A7C19A4A94C0C3C9
:107D30006366240303A5819A83A5C19A9105EFE0A8
:107D40004F9803A7C1976374E40023AE8196F24075
:107D50006244D2444249B2490561828003A5419AF6
:107D6000624483A5C19AF240D2444249B249910586
:107D700005616FE00F95E38909FA83A5C19A624412
:107D8000F240D2444249B24937650020130545AC60
:107D9000910505616FE06F9103A7C19A83A7C19A0E
:107DA0007C4385077CC3828003A7C19A83A6C19ABE
:107DB0007C43FD177CC3FC4299E3736004308280EE
:107DC000011152C4376A002022CC4AC84EC656C29E
:107DD00006CE26CA130A4AACB1A07370043083A73A
:107DE000019991C3553F83270A02C4471385440074
:107DF000EFE02F9083A7C199FD1723AEF19883A7D9
:107E0000019AFD1723A0F19A83A7019991C783A72F
:107E1000C19AFC4391C3493F8858EFD0EFF02685C3
:107E2000EFD08FF083A7019ACDFBEF20C052DDBFCA
:107E300079714AD01319260056CAAA8A4A8526D2D1
:107E400052CC5AC85EC606D622D44ECE62C4AE8488
:107E5000368BBA8B3E8AEFD02FD463080514AA89DB
:107E600013058005EFD04FD32A8463060514232819
:107E700035034A869305500A4E85EF20E057032CC0
:107E80000403638C0414A6859307440393860401BA
:107E900003C7050085078505A38FE7FE19C3E3998E
:107EA000D5FEA3010404994763E5771193094400C3
:107EB0004E85232674032324740523260404EFD05F
:107EC0007FFE13058401EFD0FFFD9D477119B38438
:107ED0007741629900C804CC40D0232204042308CF
:107EE0000404A308040423090404A3090404230AC2
:107EF0000404A30A04045A86D685137509FFEFD03B
:107F00003FA008C063040A0023208A007370043075
:107F100083A70199C9EF83A7C199850723AEF1987B
:107F200083A7C19AD1CF03A701995C5401EB03A7A2
:107F3000C19A585763E4E70023A6819A3769002065
:107F40001309C9AE03A7019883A54199050723A08A
:107F5000E19863F4F50023AAF198139527003E9564
:107F60000A05CE854A95EFD05FF483A7019991C7A2
:107F700083A7C19AFC4391C3053D83A70199054599
:107F800089CB03A7C19A5C5458576374F7007300F8
:107F90000000B250225492540259F249624AD24A25
:107FA000424BB24B224C456182807D55DDB7ED33AB
:107FB0009DB7994BE5BD4E85EFD00FD77D55D1BF0D
:107FC00023A6819A03A7C1998547630BF7003769F8
:107FD00000205C541309C9AEB5B7230A0402E1B509
:107FE000376C0020930A4CAC13898A024A85EFD083
:107FF0003FEA1385CA03EFD0BFE913850A05EFD026
:108000003FE913854A06EFD0BFE813858A07EFD012
:108010003FE81385CA08EFD0BFE713850A0AEFD0FF
:108020003FE7938B4A0B5E85EFD09FE6138B8A0C5C
:108030005A85EFD0FFE51385CA0DEFD07FE5138594
:108040004A01EFD0FFE413054CACEFD07FE423A44A
:10805000719B23A2619B5C54F5B5011122CC06CE25
:1080600026CA4AC84EC62A847370043083A7019971
:1080700091C31D3341CC930944004E85EFD07FE777
:108080001C5489C713058401EFD0BFE683A701986C
:1080900083A6C19A850723A0F198638C860483A7E1
:1080A000C1990858FD1723AEF198EFD0EFC722858C
:1080B000EFD08FC783A7819A9C4385CB053983A7CF
:1080C000019991C783A7C19AFC4391C3F13983A752
:1080D000019989C783A7C19A638D8702F2406244E0
:1080E000D2444249B249056182807D5723AEE19670
:1080F000F9B737650020CE85130585ADEFD0FFDADF
:1081000083A7019A850723A0F19A55BF03A4C19ABA
:108110009DB783A7419791EB73000000F240624442
:10812000D2444249B2490561828073700430B1661D
:1081300037D6000037D5000093860671130646B582
:108140009305104D1305C518EFD06F90029001A054
:10815000011106CE22CC26CA4AC84EC652C425C931
:1081600003A7C19AAA8481476308A70473700430E7
:1081700083A7019991C30D3103AA819A83A9419ADA
:1081800083A70199C04891C783A7C19AFC4391C3B3
:108190002139630C4403630A3403B76700209387D3
:1081A00047AC6309F404D1076300F4069337140065
:1081B000B307F0408D8B8507F2406244D2444249B8
:1081C000B249224A3E85056182808947F5B77370BE
:1081D0000430B16637D6000037D500009386C671EB
:1081E000130646B59305A0561305C518EFD02F8684
:1081F000029001A09854894761F383C74405FD1795
:10820000B337F00089074DBF91477DB7011122CCEC
:1082100006CE26CA2A847370043083A7019991C3BD
:10822000A53E0DC083A70199485481CB83A7C19A6D
:10823000FC4381C72AC68D3E3245F2406244D24497
:108240000561828003A4C19AF1BF19C1485582809B
:1082500003A5C19A48558280011106CE22CC26CAB8
:108260004AC84EC652C4994763E6B70AAE892A8403
:108270007370043083A7019991C3393E51C43C44C3
:10828000638DF90463FB370B83A6C19A814463892C
:10829000860003A7C19A4457B3B4990093C414004D
:1082A00058546394E700232634031C4C23243405DC
:1082B00063C607009D47B38737411CCC931727003F
:1082C000BA97B769002058489389C9AE8A07CE97F4
:1082D000630BF70699C07300000083A7019989CF4B
:1082E00083A7C19AFC4389CB6244F240D2444249FD
:1082F000B249224A05614DBCF2406244D24442492F
:10830000B249224A0561828003A4C19A3C44E39B9E
:10831000F9F6E1B773700430B16637D6000037D58F
:1083200000009386C672130646B59305A060130538
:10833000C518EFC0DFF1029001A083A4C19A818C1F
:1083400093B41400B1BF130A44005285EFD07FBA32
:108350005C5483A6419963F4F60023AAF19813951F
:1083600027003E950A05D2854E95EFD01FB49DB7E4
:10837000011106CE22CC26CA4AC84EC652C459CDD7
:1083800083A7C19A2A84638EA7027370043083A7DF
:10839000019991C311345C48B7640020938444ACC4
:1083A0006389970283A7019989CF83A7C19AFC4368
:1083B00089CB6244F240D2444249B249224A056123
:1083C000E5B2F2406244D2444249B249224A0561D0
:1083D00082801C541387C40DE386E7FCE1F7130A7F
:1083E00044005285EFD0FFB05C5483A6419963F4FA
:1083F000F60023AAF198139527003E950A05938469
:108400008402D2852695EFD05FAA83A7C19A5854DB
:10841000DC57E369F7F87300000069B77370043044
:10842000B16637D6000037D5000093860674130670
:1084300046B5930560741305C518EFC05FE102905F
:1084400001A0011106CE22CC26CA4AC84EC625CDAF
:108450005C49B7640020938444AC2A840149638A50
:108460009700F24062444A85D2444249B2490561CC
:1084700082801C551385C40DE385A7FEFDF383A7F9
:108480004197ADE783A7C19A5854DC576366F7005C
:10849000054723A4E1980549930944004E85EFD090
:1084A0005FA55C5483A6419963F4F60023AAF19872
:1084B000139527003E95938484020A05CE85269560
:1084C000EFD0BF9E79BF73700430B16637D600001D
:1084D00037D500009386C674130646B59305D0774A
:1084E0001305C518EFC0BFD6029001A09305840103
:1084F000EFD0BF9BBDB7B7D5000037850000411155
:108500009387819701478146130690069385051C42
:10851000130505DC22C406C60544193A630B850021
:10852000FD57630DF502B240224483A7C18041018B
:108530008280EF10606EE31585FE737004307D5706
:1085400023AEE19623A8A19823AC0198EFD00F9118
:10855000B240224483A7C1804101828073700430FD
:10856000B16637D60000856537D50000938606765C
:10857000130646B5938555831305C518EFC03FCD47
:10858000029001A07370043023A801986FD02F953A
:1085900083A74197850723AAF196828003A5819935
:1085A000828003A58199828003A5C199828001C53B
:1085B00013054503828003A5C19A7DF9411106C6C2
:1085C00073700430B16637D60000856537D500007A
:1085D00093864677130646B59385D5941305C5183B
:1085E000EFC0FFC6029001A083A74197797106D61C
:1085F00022D426D24AD04ECE52CC56CA5AC85EC6D3
:1086000062C466C2639C071083A98199850923AC63
:108610003199638E090483A7C19763F6F908B7649B
:108620000020014A938444AC83A7C19A8546D85759
:1086300093172700BA978A07BE949C5463F3F600F9
:10864000054A83A7C1986387070E83A7819891C3C2
:10865000054AB2502254528592540259F249624A54
:10866000D24A424BB24B224C924C4561828083A746
:10867000819A9C43F9E383A6819A03A6419A23A495
:10868000C19A23A2D19A83A74198850723A2F19882
:1086900083A7819A9C43C1EFFD5723AEF19683A730
:1086A000C197E3EEF9F6B7640020938444AC014A25
:1086B000138C840283A7819A9C43A9CF83A7819AB4
:1086C000DC47C0475C40930C4400668563EBF908C7
:1086D000EFD03F821C541305840199C3EFD07F81F2
:1086E0005C5403A74199E685139527003E950A053A
:1086F00062956374F70023AAF198EFD00FFB83A76C
:10870000C19A5854DC57E367F7FA83A7819A054A60
:108710009C43CDF7FD5723AEF19639B783A7C19897
:10872000014A850723A6F198EF1090441DB7EFF09A
:10873000EFDBD5B5EF10D04309BF73700430B166DD
:1087400037D60000856537D5000093864678130636
:1087500046B59385A5AB1305C518EFC05FAF029072
:1087600001A023AEF196C9B5797122D483A74197B0
:1087700006D626D24AD04ECE52CC56CA5AC85EC66B
:1087800062C46387070E7370043083A7019999C38D
:10879000EFF08FE083A74197FD1723AAF19683A7F7
:1087A000419785CB014483A7019999C783A7C19AB3
:1087B000FC4399C3EFF04FDF2285B250225492540C
:1087C0000259F249624AD24A424BB24B224C4561AD
:1087D000828083A7C199F9D7B7640020938444AC01
:1087E0000144938B8402854A83A7C40DB9C783A72C
:1087F000840EC04713058401EFD0AFEF130C440083
:108800006285EFD00FEF5C5403A74199E285139581
:1088100027003E950A055E956374F70023AAF19838
:10882000EFD0AFE883A7C19A5854DC57E36EF7FA4C
:1088300023A4519983A7C40DDDFB01C883A7819AA6
:108840009C43B9EB7D5723AEE19603A4C19811C8B0
:10885000054A593B7D1419C123A441997DF823A6EB
:10886000019883A781989DDF73000000054425BF10
:1088700073700430B16637D60000856537D50000C7
:1088800093868679130646B59385858A1305C518A0
:10889000EFC0FF9B029001A0EFF04FC57DB74111E3
:1088A00006C622C445C1A1C503A741972DEB03A766
:1088B0004197050723AAE196144103A78199B3873D
:1088C000B6001CC16378D70463F1D70A637FF70849
:1088D00081453385E740EFF04FC20544713519E11A
:1088E000730000002285B2402244410182807370EF
:1088F0000430B16637D6000037D500009386867AFB
:10890000130646B59305704E1305C518EFC03F9486
:10891000029001A0E3EED7FA6379F70455BF7370B4
:108920000430B16637D6000037D500009386867ACA
:10893000130646B59305804E1305C518EFC03F9149
:10894000029001A073700430B16637D6000037D5AD
:1089500000009386867A130646B59305604E13058C
:10896000C518EFC0DF8E029001A0014485BF01E56C
:1089700073000000828003A74197411106C605C716
:1089800073700430B16637D6000037D50000938687
:10899000867B130646B59305E0531305C518EFC053
:1089A0001F8B029001A003A74197050723AAE19618
:1089B0008145EFF08FB44D3B19E173000000B240E8
:1089C00041018280011126CA06CE22CC4AC84EC679
:1089D00052C456C2AA84EF10B06BBD4763E1A7082A
:1089E00083A74197850723AAF196376A0020930948
:1089F0004AAC938A89021389090A11A03E894A85E3
:108A0000A685EFF04FA82A8421E19307C9FEE397DA
:108A10002AFF03A5819AA685EFF0EFA62A840DE52B
:108A200003A5419AA685EFF00FA62A8411EDA6852D
:108A300013054AACEFF02FA52A8419E5A685138506
:108A40004901EFF04FA42A8405332285F2406244A5
:108A5000D2444249B249224A924A056182807370E7
:108A60000430B16637D60000856537D5000093869F
:108A7000467C130646B59385F5991305C518EFC0D6
:108A80000FFD029001A003A741971DC7411106C623
:108A900073700430B16637D60000856537D50000A5
:108AA0009386467D130646B5938585A41305C518A0
:108AB000EFC0EFF9029001A003A74197050723AA91
:108AC000E19683A7C198AA9723A6F19871B941119D
:108AD00006C622C426C24AC00DC583A741972A8470
:108AE000850723AAF196EFF0AFE689478144630E2C
:108AF000F5029D39B2402244268502499244410143
:108B0000828073700430B16637D60000856537D532
:108B100000009386867E130646B59385B5A513059A
:108B2000C518EFC0CFF2029001A0130944004A8596
:108B3000EFD02FBC7370043083A7019999C3EFF075
:108B4000AFA51C5481CB13058401EFD08FBA8547A4
:108B5000A30AF40483A7019989C783A7C19AFC4398
:108B600095EF585483A6419963F4E60023AAE1984F
:108B700093172700BA97376500208A071305C5AEFB
:108B80003E95CA85EFD06FB283A7C19A58548544E9
:108B9000DC57E3F0E7F623A49198A1BFEFF0CFA054
:108BA000C9B783A7419789C7054723A4E198828065
:108BB000411122C423A4019883A7C19A37A7A5A570
:108BC00006C69C5B1307575A90436315E600D443CF
:108BD0006383C60803A5C19A83A5C19A93854503FB
:108BE000EF1080773767002083A74199130747ACC0
:108BF00019A095CFFD17939627003386F6000A0635
:108C00003A9610567DD6BE968A063306D700485649
:108C100013070603544154D66386E604D846B2408F
:108C200023A6E19A224423AAF1984101828073701D
:108C30000430B16637D60000856537D500009386CD
:108C4000867F130646B5938555BF1305C518EFC03B
:108C50000FE0029001A09847E31ED7F6DC47E39BA4
:108C6000E7F649B7D44254D655BF797126D206D615
:108C700022D44AD04ECEAA847370043083A70199BF
:108C800099C3EFF06F91C9CC938544002E852EC611
:108C9000EFD02FA69C54B24591C713858401EFD025
:108CA0004FA5B24537640020130544ACEFD0EF9FC9
:108CB00083C744050547630BF70483A7019989C758
:108CC00083A7C19AFC43B1EB83A701998DC7737049
:108CD000043083A7019999C3EFF00F8C83A7819A81
:108CE0009C4385CBEFF08F8083A7019989C783A729
:108CF000C19AFC43B5E383A7C19A63869702B25039
:108D0000225492540259F24945618280238A040414
:108D10006DB77D5723AEE196C1BFEFF0EF886DB719
:108D200083A4C19A95B783A7019989CF83A7419757
:108D300095EF73000000B250225492540259F24948
:108D400045618280130444AC184083A7C19963181D
:108D5000F70023A6019A65B7EFF00F8569BF22548B
:108D6000B25092540259F249456125BD73700430E6
:108D7000B56637D6000037D500009386C680130647
:108D800046B59305206F1305C518EFC04FCC029070
:108D900001A0411106C622C411CD2E8483A5C19A1B
:108DA000E105EFD00F9222852244B2408545410172
:108DB0006FE0BFF473700430B56637D60000856588
:108DC00037D500009386C681130646B59385F5C056
:108DD0001305C518EFC0AFC7029001A0411106C628
:108DE00022C421CD03A741970DE773700430B56607
:108DF00037D60000856537D5000093864683130675
:108E000046B5938565C21305C518EFC04FC40290DF
:108E100001A083A6C19AAE8783A5C19A37070080B7
:108E2000D98FE1059CCE3284EFD02F882285224451
:108E3000B240854541016FE05FEC73700430B56668
:108E400037D60000856537D5000093864683130624
:108E500046B5938525C21305C518EFC04FBF0290D4
:108E600001A0411106C622C426C215C12E8483A5C5
:108E7000C19AB284E105EFD04F8391C07D54228521
:108E80002244B240A685924441016FE01FE773700F
:108E90000430B56637D60000856537D50000938667
:108EA0004685130646B59385E5C31305C518EFC07F
:108EB0000FBA029001A05C45411122C4C04706C60A
:108EC00026C22DC8930484012685EFD08F8283A704
:108ED000419785CB37650020A685130505BAEFC0FD
:108EE000DFFC83A7C19A58540145DC5763F6E700BD
:108EF000054723A4E1980545B2402244924441012C
:108F00008280930444002685EFC0BFFE585483A698
:108F1000419963F4E60023AAE19893172700BA97D2
:108F2000376500208A071305C5AEA6853E95EFC0BC
:108F3000DFF745BF73700430B56637D6000085652E
:108F400037D5000093864687130646B59385E5C658
:108F50001305C518EFC0AFAF029001A083A74197DA
:108F6000411106C622C426C2D9C3B70700804045B6
:108F7000CD8F1CC129C8EFC0DFF7930444002685BC
:108F8000EFC03FF7585483A6419963F4E60023AA43
:108F9000E19893172700BA97376500208A071305D1
:108FA000C5AE3E95A685EFC05FF083A7C19A585421
:108FB000DC5763F5E700054723A4E198B24022445B
:108FC00092444101828073700430B56637D6000048
:108FD000856537D5000093860689130646B59385C7
:108FE000E5CA1305C518EFC08FA6029001A07370E3
:108FF0000430B56637D60000856537D50000938606
:109000000689130646B5938565CA1305C518EFC0D2
:109010000FA4029001A0411106C622C426C229C194
:10902000AA847370043083A7019999C3EFE0DFD657
:1090300083A6419803A7819983A7019994C0D8C0BA
:1090400099CB83A7C19AFC4399C72244B24092446A
:1090500041016FE07FD5B2402244924441018280B9
:1090600073700430B56637D60000856537D50000CB
:109070009386468B130646B5938525CD1305C518F3
:10908000EFC0EF9C029001A003A7419883A78199AC
:1090900018C15CC18280011106CE22CC26CA4AC802
:1090A0004EC659C9AE89CDCD2A847370043083A7CA
:1090B000019999C3EFE05FCE03A6819983A7C19A76
:1090C00083C757059DC783A7C19A0549A38A07048B
:1090D00083A7019999C783A7C19AFC4399C3EFE07D
:1090E000BFCCF24062444A85D2444249B24905614C
:1090F000828083A70900FD560149E38BD7FC83A832
:109100004198032304005440630813016366D600AA
:1091100023A0090005496DBFB308D640E3FAF8FE65
:1091200003A54198918F03A68199B69723A0F900D2
:1091300008C050C0014969BF73700430B56637D6A6
:109140000000856537D500009386C68C130646B5AA
:10915000938595CE1305C518EFC06F8F029001A0BF
:1091600073700430B56637D60000856537D50000CA
:109170009386C68C130646B59385A5CE1305C518F0
:10918000EFC0EF8C029001A0054723A4E1988280F4
:1091900003A5C19A828083A70199054591C703A5BC
:1091A0004197133515000605828025CD011126CA89
:1091B00003A7C19A545522CC585706CE4AC84EC66A
:1091C0002A8463F3E604184D6348070003A7C19A95
:1091D00050571D47118F18CD1397260036973769C2
:1091E000002054481309C9AE0A074A97638DE60266
:1091F00003A7C19AF240D24458574249B24958D4C1
:10920000624405450561828003A7C19A28455C57E1
:109210003335F500F2406244D2444249B249056117
:10922000828001458280930944004E85EFC07FCC47
:1092300083A7C19A83A64199DC575CD463F4F600F6
:1092400023AAF198139527003E950A054A95CE85E5
:10925000EFC0BFC505457DBF41C1411122C403A474
:10926000C19A06C626C26306A40273700430B566AE
:1092700037D60000856537D500009386468E1306E5
:1092800046B59385B5031305C518EFB05FFC029092
:1092900001A07C4491CF54543844FD177CC46383AF
:1092A000E6008DCF0145B2402244924441018280C4
:1092B00073700430B56637D60000856537D5000079
:1092C0009386468E130646B59385C5031305C518C8
:1092D000EFB0FFF7029001A00145828093044400A3
:1092E0002685EFC01FC13C441D4703A641991D8F31
:1092F0005CD418CC6374F60023AAF1981397270066
:10930000BA97376500208A071305C5AE3E95A68536
:10931000EFC0BFB9054541BF29CD7445411122C4F5
:1093200006C626C24AC02A848DC23C4563F3B700F4
:10933000AE8758546305F7000546638DC602B240F8
:109340002244924402494101828073700430B56620
:1093500037D60000856537D500009386C68F130683
:1093600046B59385B5081305C518EFB05FEE0290BA
:1093700001A0828083A6C19A638F8604144C5CD4BA
:1093800063C606009D46B387F6401CCC93172700A2
:10939000BA97B764002058489384C4AE8A07A6974A
:1093A000E31FF7F8130944004A85EFC09FB45C54EB
:1093B00083A6419963F4F60023AAF1981395270038
:1093C0003E9522440A05B240CA8526950249924438
:1093D00041016FC09FAD73700430B56637D6000091
:1093E000856537D500009386C68F130646B59385ED
:1093F000650A1305C518EFB09FE5029001A07370D0
:10940000043083A7019999C36FE01F99828083A7D5
:10941000019999C783A7C19AFC4399C36FE0DF986C
:10942000828003A6C19A83A6C19A03A7C19A9D47C9
:10943000D456084E958F1CCF828003A7C19A11C7BE
:1094400083A6C19AF8460507F8C603A5C19A82808B
:10945000011106CE22CC26CA4AC84EC651E52E8935
:10946000B2897370043083A7019999C3EFE0DF924A
:1094700083A7C19ABC4B81EB83A7C19A0547238A76
:10948000E7046392090A83A7019999C783A7C19A40
:10949000FC4399C3EFE05F917370043083A7019997
:1094A00099C3EFE07F8F83A7C19A83A907056388DB
:1094B000090083A7C19A630D090423A8070483A7A1
:1094C000C19A238A070483A7019999C783A7C19AE0
:1094D000FC4399C3EFE05F8DF24062444E85D24475
:1094E0004249B2490561828073700430B56637D64F
:1094F0000000856537D5000093860692130646B5B1
:10950000938505251305C518EFB07FD4029001A0FF
:109510001387F9FFB8CB83A7C19A238A070483A7CF
:109520000199DDDB65B785454E85EFE00FFD7300E2
:10953000000083A70199ADD391BF011106CE22CCC3
:1095400026CA4AC84EC652C456C279E5AE8AB2840B
:10955000B6893A8A7370043083A7019999C3EFE002
:10956000BF8383A7C19A894683C747056380F602F4
:1095700083A6C19A93C7FAFFB04AF18FBCCA83A7EA
:10958000C19A8546238AD704631C0A0A83A70199D6
:1095900099C783A7C19AFC4399C3EFE0FF8073701A
:1095A000043083A7019999C3EFE00FFF6387090097
:1095B00083A7C19ABC4B23A0F90083A7C19A09478E
:1095C000814983C747056309F70283A7C19A238AA4
:1095D000070483A7019999C783A7C19AFC4399C33C
:1095E000EFE08FFCF24062444E85D2444249B249DA
:1095F000224A924A0561828003A7C19A93C7F4FF69
:109600008549344BF58F3CCB83A7C19A238A070445
:1096100083A70199E1DBC9B773700430B56637D60B
:109620000000856537D5000093868693130646B5FE
:109630009385A5291305C518EFB07FC1029001A03D
:1096400085455285EFE06FEB7300000083A7019919
:10965000B9D781B7011106CE22CC26CA4AC84EC658
:1096600052C4B5ED2A844DC93289B6893A8A7370DD
:10967000043083A7019999C3EFE00FF263050A0054
:109680003C482320FA00034744058947230AF40491
:1096900091471377F70F63E5370BB166939729006E
:1096A0009386866EB6979C4382873C48B3E7270132
:1096B0003CC88547630DF70A054483A7019999C7FC
:1096C00083A7C19AFC4399C3EFE00FEE2285F240D5
:1096D0006244D2444249B249224A05618280737091
:1096E0000430B56637D60000856537D5000093860F
:1096F0000695130646B59385252F1305C518EFB0BB
:109700001FB5029001A089476305F70C23282405A3
:109710008547E313F7FAA1A873700430B56637D60E
:109720000000856537D5000093860695130646B57B
:109730009385352F1305C518EFB07FB1029001A0B6
:1097400083A78199BDD773700430B56637D6000002
:10975000856537D5000093860695130646B5938533
:1097600085321305C518EFB09FAE029001A0130912
:1097700044004A85EFC0EFF7585483A6419963F43B
:10978000E60023AAE19893172700BA9737650020CF
:109790008A071305C5AE3E95CA85EFC00FF11C546C
:1097A0009DCB73700430B56637D60000856537D51C
:1097B000000093860695130646B593857533130509
:1097C000C518EFB0DFA8029001A03C4885073CC84F
:1097D000CDB50144DDB583A7C19A5854DC57E3FDEC
:1097E000E7EC73000000C9BD411106C622C426C2C1
:1097F0004AC045C9A9E52A84BE8419C33C491CC393
:10980000034744058947230AF40491471377F70F68
:1098100063EDD70A93972600B1669386C66FB69715
:109820009C4382873C48D18F3CC88547630DF70233
:109830000545B2402244924402494101828073703E
:109840000430B56637D60000856537D500009386AD
:109850004696130646B5938505371305C518EFB030
:109860001F9F029001A01C54C1CB73700430B566D9
:1098700037D60000856537D50000938646961306D7
:1098800046B59385253C1305C518EFB05F9C029043
:1098900001A08947630EF70830C88547E31AF7F837
:1098A000D9B773700430B56637D60000856537D5F3
:1098B000000093864696130646B59385F536130544
:1098C000C518EFB0DF98029001A083A78199B1DF9E
:1098D00073700430B56637D60000856537D5000053
:1098E00093864696130646B59385753B1305C518B2
:1098F000EFB0FF95029001A083A7419785CF376510
:10990000002093058401130505BAEFC00FDA83A781
:10991000C19A5854DC57E3FDE7F099C085479CC0D5
:10992000054723A4E19829B73C4885073CC8F5BD05
:10993000014501B7130944004A85EFC08FDB585435
:1099400083A6419963F4E60023AAE19893172700C0
:10995000BA97376500208A071305C5AECA853E95BC
:10996000EFC0AFD46DB7411106C622C426C24AC0AB
:1099700035CD9DE1894703474505230AF5043C4958
:1099800085462A8485073CC9638CE602B24022449E
:10999000924402494101828073700430B56637D623
:1099A0000000856537D5000093860698130646B5F6
:1099B0009385753F1305C518EFB07F89029001A00C
:1099C0001C55A9CB73700430B56637D60000856589
:1099D00037D5000093860698130646B59385D54182
:1099E0001305C518EFB0BF86029001A07370043054
:1099F000B56637D60000856537D500009386069892
:109A0000130646B59385653F1305C518EFB03F842F
:109A1000029001A083A74197B284B1E713094500E2
:109A20004A85EFC00FCD585483A6419963F4E600F0
:109A300023AAE19893172700BA97376500208A0771
:109A40001305C5AECA853E95EFC02FC683A7C19A40
:109A50005854DC57E3FCE7F299C085479CC00547A2
:109A600023A4E19825B793058501376500201305E8
:109A700005BAEFC08FC3D9BF411106C622C426C2A2
:109A80004AC0B9ED2A8429C57370043083A70199AF
:109A900099C3EFE06FB0834744050947014963026A
:109AA000F70283A7019999C783A7C19AFC4399C379
:109AB000EFE08FAFB24022444A859244024941010F
:109AC0008280230A040483A701990549E5D7E9BFE9
:109AD00003A4C19A7370043083A70199CDDF55BFE9
:109AE00073700430B56637D60000856537D5000041
:109AF0009386069A130646B59385D5441305C51873
:109B0000EFB0EFF4029001A0797122D426D24AD0AE
:109B100006D64ECE2E89B2842A8439C173700430A1
:109B200083A7019999C3EFE02FA793152900A29568
:109B3000A849B04993C4F4FFF18CA4C983A7019943
:109B400089CB83A7C19AFC4389C72AC6EFE0CFA57A
:109B50003245B250225492540259F24945618280F2
:109B600003A4C19A65BF411122C406C626C24AC0D9
:109B7000EFF0FF8883A7819B81CB2244B2409244BF
:109B8000024941016FF0BF8837650020130945BBCA
:109B9000130545BBEFC0CFAF930449012685EFC045
:109BA0002FAF23A0219D0146C145114523AE919AB7
:109BB000EFC02FE423ACA19A69D1B7D500009385FB
:109BC000851CEFD0CFCA55BF411106C64CC108C98C
:109BD000AA87636AB600184D158E05456364E602D0
:109BE000B240410182806375D6000545E3FAD5FE97
:109BF00003A5019C93854700EFC0AFACB24001457F
:109C00004101828003A5C19B93854700EFC06FABE4
:109C1000B240014541018280411106C6A93783A7A0
:109C2000819B95C3B7D5000037A500009387419B62
:109C30001947814613069006938545201305E5E2F2
:109C4000EFE00F9F05E573700430B56637D600006E
:109C500037D500009386869E130646B59305D0102F
:109C60001305051DEFB0AFDE029001A0B240410127
:109C70008280011156C2AA8A1305800222CC26CA0C
:109C80004AC84EC652C406CEAE843289368ABA89D4
:109C9000EFB08FF02A8405C9230205029DCCE1357F
:109CA000130544002320540104CC232E4401232017
:109CB0003403EFC02F9F630809008347440293E7F2
:109CC00047002302F4022285F2406244D244424912
:109CD000B249224A924A0561828073700430B566A7
:109CE00037D6000037D50000938606A0130646B588
:109CF0009305F0151305051DEFB06FD5029001A077
:109D0000011106CE22CC26CA35C183A7819B2A88A1
:109D100001458DC7B6882EC032C242C4954663C481
:109D2000B602BA84EFF02FC789476309F50203A58D
:109D3000819B814601468A85EFC0CFDBF2406244B9
:109D4000D244056182808A85814646863E85EFC081
:109D50005F81F2406244D2440561828003A5819B09
:109D6000814626868A85EFC0EFD8C9BF737004305C
:109D7000B56637D6000037D50000938686A1130656
:109D800046B5930520181305051DEFB04FCC029082
:109D900001A001114AC806CE22CC26CA4EC60DA08B
:109DA000DC47C04783A90700930444002685EFC021
:109DB0004F941C502285829783474402918B95E3F0
:109DC00083A7019C984369FF83A6C19BF24062442C
:109DD00023A0D19C23AEF19AD2444249B2490561F5
:109DE00082801C4C01478146CE974E868145228554
:109DF00063FAF90003A5019C5CC000C8A685EFC00A
:109E00004F8C7DBFF53D4DFD73700430B56637D680
:109E1000000037D50000938606A3130646B59305C8
:109E2000903A1305051DEFB08FC2029001A05D713D
:109E300052DC356AA6C2CAC04EDE56DA5AD886C689
:109E4000A2C45ED662D4130A0A9CA54A83A7019CC9
:109E5000984363070712DC4783AB0700EFE04FF33B
:109E6000EFE0CFF383A7019B2A84636DF51223A84B
:109E7000A19A01466372751503A5819BB3858B403A
:109E8000EFD0EFA6EFE05F8E19E17300000003A5AD
:109E9000819B01460C08EFC09F914DD9C247624497
:109EA00063C7070C5C4889C713054400EFC06F8483
:109EB000EFE0CFEE83A7019B636CF50EC24723A8AA
:109EC000A19AE3E6FAFC8A07D2979C4382878347EC
:109ED0004402D24593E717002302F4020CCC638BB3
:109EE0000514AA862A86AA952285F9394DB7834793
:109EF0004402F99B2302F40259BF8347440213F73B
:109F000027006303070EF99B2302F40249B7834736
:109F100044020C4CD24693E717002A862302F4022F
:109F2000B6952285553125D51C50228582978347C9
:109F30004402918BA9DF1C4C5246014781463E9654
:109F400081452285753B21F573700430B56637D69F
:109F5000000037D500009386C6A5130646B59305C5
:109F600060331305051DEFB08FAE029001A0D247FC
:109F7000F24522858297C247E3CB07F062441DB7C2
:109F8000EFE00FE1EFE08FE183A7019B2A84636B91
:109F9000F50083A7C19B23A8819A814B9043133678
:109FA0001600D9BDFD3323A8819AEFE0EFFBC5B5BC
:109FB0002AC6C533324519B7EFE00FFB83A7019CD2
:109FC000DC4703ACC70013054C00EFB09FF283479A
:109FD0004C0213F7470009EFF99B2302FC02832789
:109FE0000C026285829765B52285EFB0EFD345B547
:109FF00083258C01DE862286DE956285F13665D169
:10A00000014781465E8681456285DD3969F9737055
:10A010000430B56637D6000037D50000938646A4D5
:10A02000130646B5930540211305051DEFB02FA279
:10A03000029001A073700430B56637D6000037D5A2
:10A0400000009386C6A5130646B59305F0341305A4
:10A05000051DEFB0CF9F029001A003A5419B11C148
:10A060008280411106C673700430B56637D6000091
:10A0700037D50000938686A7130646B59305C01A08
:10A080001305051DEFB0AF9C029001A019C1084D4A
:10A090008280411106C673700430B56637D6000061
:10A0A00037D50000938686A9130646B59305501B45
:10A0B0001305051DEFB0AF99029001A0411106C62E
:10A0C00022C426C205CD2A84AE84EFF04FB3834765
:10A0D000440299E893F7B70F2302F4022244B240F6
:10A0E000924441016FF0AFB293E747002302F402BC
:10A0F0002244B240924441016FF06FB1737004305A
:10A10000B56637D6000037D50000938686AA1306B9
:10A1100046B59305F01B1305051DEFB04F93029054
:10A1200001A0411106C622C405C12A84EFF02FAD5B
:10A1300003454402098113741500EFF04FAD2285E9
:10A14000B24022444101828073700430B56637D634
:10A15000000037D500009386C6AB130646B59305BD
:10A16000401D1305051DEFB08F8E029001A019C18F
:10A1700048418280411106C673700430B56637D6F7
:10A18000000037D50000938646AD130646B593050B
:10A19000D01E1305051DEFB08F8B029001A019C1D1
:10A1A00008418280411106C673700430B56637D607
:10A1B000000037D50000938686AE130646B593059A
:10A1C000701F1305051DEFB08F88029001A041118B
:10A1D00006C622C419CD2A84EFF06FA203454402BB
:10A1E00013741500EFF0AFA22285B2402244410162
:10A1F000828073700430B56637D6000037D5000012
:10A20000938686AF130646B59305103F1305051DCB
:10A21000EFB0EF83029001A0411106C622C401CD28
:10A220002A84EFF0CF9D404CEFF06F9EB240228524
:10A2300022444101828073700430B56637D6000035
:10A2400037D500009386C6B0130646B59305A040E7
:10A250001305051DEFA0BFFF029001A0411106C626
:10A2600022C426C201CD2A84AE84EFF04F9944CC9B
:10A270002244B240924441016FF06F9973700430F0
:10A28000B56637D6000037D50000938606B21306B0
:10A2900046B59305B0411305051DEFA05FFB029085
:10A2A00001A001112AC203A5819BB6872EC432C624
:10A2B0008A853E868146F95706CE3EC0EFC06FAA1A
:10A2C000F2400561828083A7819B011106CE95C370
:10A2D000AA882E8832878A8536863E858146FD5734
:10A2E0003EC046C242C43AC6EFC0CF80F2400561CC
:10A2F000828073700430B56637D6000037D5000011
:10A30000938646B3130646B59305D0441305051D41
:10A31000EFA0FFF3029001A041118D45414506C613
:10A32000EFA0FF82371700408327870CB24093C706
:10A3300007012324F70C410182806FA05FF637D517
:10A34000000041111305052206C6EFA05FF57370EA
:10A350000430029001A0828037D50000411113051E
:10A36000052406C6EFA0BFF373700430029001A06D
:10A370006FA06FF0516637F700E01306F68710CB39
:10A38000814654CBB7E700E0856623A0D71093063B
:10A39000F00314C319472386E74082807D890A05AC
:10A3A000930700413E95032305000283411106C631
:10A3B000EFE08FA309E937F700E05C43B240F99B77
:10A3C0005CC341018280EFE0CFFD37F700E05C43E2
:10A3D000B240F99B5CC3410182803727004083472C
:10A3E0006700858B91E38280854737D50000230382
:10A3F000F7001305052679A13D432A876373C3023D
:10A400009377F700BDEFADE5937606FF3D8ABA96E8
:10A410000CC34CC30CC74CC74107E36BD7FE11E21A
:10A420008280B306C3408A06970200009696678032
:10A43000A6002307B700A306B7002306B700A305AD
:10A44000B7002305B700A304B7002304B700A30394
:10A45000B7002303B700A302B7002302B700A3018C
:10A46000B7002301B700A300B7002300B700828024
:10A4700093F5F50F93968500D58D93960501D58DAF
:10A4800061B7939627009702000096968682E78030
:10A4900086FA9680C1171D8F3E96E374C3F8A5B760
:10A4A0003367B500FD530D8B79E7B7877F7F9387BF
:10A4B000F7F710419441B372F6003363F600BE9291
:10A4C000B3E262006397720C6318D6065041D44120
:10A4D000B372F6003363F600BE92B3E26200639893
:10A4E000720A631BD60410459445B372F6003363B9
:10A4F000F600BE92B3E262006391720A631ED60256
:10A500005045D445B372F6003363F600BE92B3E211
:10A510006200639A72086311D60210499449B372BB
:10A52000F6003363F600BE92B3E2620063937208F2
:10A530005105D105E30FD6F61317060193970601CF
:10A54000631CF7001357060193D706013305F74044
:10A550009375F50F91E982804183C1833305F740FC
:10A560009375F50F91E182801377F70F93F7F70F4B
:10A570003305F74082800346050083C605000505C4
:10A5800085056313D60065FA3305D6408280110530
:10A590009105E312D6FE014582802105A105E31C49
:10A5A000D6FC014582803105B105E316D6FC014594
:10A5B00082804105C105E310D6FC0145828041112E
:10A5C0001305600406C69760FF1FE780A0A38545BA
:10A5D0007D55EFA08FCB85457D55EFA04FD7371721
:10A5E00000408327870A8D451305002093E7072045
:10A5F0002324F70AEFA06FC9EFA0FF9937D6000018
:10A6000037D500001306C6209305F0021305452137
:10A61000EFA0FFC3B24041016FA0EFBC41119737DB
:10A620000000938767CE22C4173400001304C4CD02
:10A630001D8C26C24AC006C6098481443E8963989F
:10A640008402EF503FC7973700009387E7CB17345A
:10A650000000130464CB1D8C098481443E89639FF0
:10A660008400B2402244924402494101828093977F
:10A670002400CA979C4385048297D1B793972400FE
:10A68000CA979C4385048297D9BFB3C7A5008D8B19
:10A690003307C50081E78D4763EEC700AA87637063
:10A6A000E50A83C6050085078505A38FD7FEE3EA83
:10A6B000E7FE828093763500AA8791CA83C605009B
:10A6C00085078505A38FD7FE93F63700FDB79376F0
:10A6D000C7FF138606FE63F0C70683A3050083A2A7
:10A6E000450083AF850003AFC50083AE050103AE0F
:10A6F000450103A3850183A8C5019385450223A0D5
:10A70000770003A8C5FF23A2570023A4F70123A6BF
:10A71000E70123A8D70123AAC70123AC670023AE12
:10A7200017019387470223AE07FF75B79041910742
:10A73000910523AEC7FEE3EBD7FEE3E4E7F68280A4
:10A7400039713EDA2ED232D436D63AD842DC46DEE1
:10A750009387018122CC804326CA06CEAA8409C4ED
:10A760001C4C99E322854D230C44541026862285E7
:10A7700036C6EF00F056F2406244D2442161828036
:10A7800001119387018122CC804306CEAA8519C48A
:10A790001C4C89E72AC62285852BB24510442285A8
:10A7A0006244F24005616F108038011126CA4AC820
:10A7B00006CE22CC4EC652C4AA842E8901C51C4D99
:10A7C00091E399239C4C804499E32685352B973758
:10A7D0000000938767AB631CF402C0408357C4003A
:10A7E000A18BB1C71C48A1C7FD59294A1C44834508
:10A7F0000900FD17B1E91CC463DE07062286A945DE
:10A800002685F928FD576308F502294535A09737B5
:10A810000000938767A96314F4008044C1B7973799
:10A820000000938767A4E31BF4FAC04445BFA285E8
:10A830002685BD2255D97D55F2406244D244424915
:10A84000B249224A056182801CC4050963D707000A
:10A85000184C63CBE700638945011C401387170040
:10A8600018C02380B70059B7228626859528E31F94
:10A8700035F7D1B71C401387170018C0294723802C
:10A88000E70061B793870181AA8588436FF0FFF1E4
:10A89000AA87850703C7F7FF6DFF3385A7407D159E
:10A8A0008280B7070080197193C7F7FF3ECE3EC87C
:10A8B000C1772EC42ECC938787202C0086DE3ECA1B
:10A8C000EF003013A24723800700F6500961828011
:10A8D00093870181B2862E86AA8588436FF07FFC1C
:10A8E000011122CC26CA4AC806CE4EC6AA842E8999
:10A8F000328401C51C4D91E30129973700009387ED
:10A90000A7986319F406C0401C4C1CC48357C400AC
:10A91000A18BC9C31C48BDCF1C4808409379F90FCF
:10A920001379F90F1D8D5C486346F500A2852685D5
:10A93000652C2DE51C440505FD171CC41C40138720
:10A94000170018C0238037015C486389A70083572C
:10A95000C400858B81CBA9476316F900A2852685A3
:10A9600061240DEDF24062444A85D2444249B24925
:10A970000561828097370000938707936314F40082
:10A98000804459B7973700009387078EE31EF4F68B
:10A99000C0449DBFA285268521203DDD7D59D9B7C4
:10A9A00041119387018126C2844322C44AC006C64E
:10A9B0002A892E8489C49C4C99E32685B126973731
:10A9C00000009387678C631CF402C0400317C40027
:10A9D00093170701C18393F68700B5EE93F607013D
:10A9E0009DEEA5472320F900136707042316E40012
:10A9F0007D55B240224492440249410182809737FA
:10AA000000009387678A6314F4008044C1B79737C6
:10AA1000000093876785E31BF4FAC04445BF918B20
:10AA20008DC74C5889C9930744046384F5004A854F
:10AA3000892B232A04028357C4002322040093F79E
:10AA4000B7FD2316F4001C481CC08357C40093E7CD
:10AA500087002316F4001C4881EF8357C4001307B6
:10AA6000002093F707286385E700A2854A8595298A
:10AA70008357C40013F7170005C75C48232404005C
:10AA8000B307F0401CCC1C480145A5F78317C40050
:10AA900013F7070839DF93E707042316F40089BF8B
:10AAA000898B014791E3584818C4F1BF83D7C5008B
:10AAB000011122CC26CA06CE4AC84EC613F787001B
:10AAC000AA842E8471EFD841634DE000B841634AF7
:10AAD000E0000145F2406244D2444249B249056176
:10AAE000828058547DD703A904009396370123A090
:10AAF000040063DD060670488357C400918B99C734
:10AB00005C401D8E5C5899C33C401D8E5C540C50BB
:10AB1000814626858297FD570357C400631DF500C3
:10AB20009440F54763E8D706B70740208507B3D7B9
:10AB3000D700858BA5C31C48232204001CC0931793
:10AB4000370163D80700FD576314F5009C4091E37B
:10AB500068C84C5823A02401ADDD930744046384E6
:10AB6000F50026853929232A0402A5B70C50014691
:10AB7000854626850297FD572A86E31FF5F69C40F9
:10AB8000A5DF75476385E70059476394E70423A071
:10AB9000240181B7136707042316E4007D551DBF08
:10ABA00083A90501E38709F203A905008D8B23A082
:10ABB000350133093941014791E3D84918C4E35AB3
:10ABC00020F11C540C50CA864E8626858297634914
:10ABD000A0008357C40093E707042316F4007DBF49
:10ABE000AA993309A940E1BF9C49A5C3011122CC10
:10ABF00006CE2A8411C51C4D81E72EC63122B245EE
:10AC00009727000093874768639CF5004C40839723
:10AC1000C5009DC722856244F24005616FF01FE9BF
:10AC200097270000938747686394F5000C44C5B7E5
:10AC30009727000093874763E39BF5FC4C44C1BF13
:10AC4000F2406244014505618280014582804111E4
:10AC500022C406C62A842316B5002317C500232064
:10AC600005002322050023240500232205062328AE
:10AC70000500232A0500232C0500214681451305E4
:10AC8000C505EFF06FF7971700009387E7F55CD0E5
:10AC900097170000938747F81CD4971700009387F5
:10ACA00087FC5CD497170000938747FF00D01CD81F
:10ACB000B24022444101828097050000938505F34C
:10ACC000B1AA411126C2130680069384F5FFB3840E
:10ACD000C4024AC02E8922C406C693854407B12601
:10ACE0002A8401CD2320050023222501310508C433
:10ACF000138684068145EFF02FF02285B24022446E
:10AD000092440249410182801C4DB5E7411106C6BB
:10AD100022C497070000938767FA1CD59727000085
:10AD20009387475E9C432324050423260504232898
:10AD300005046314F50085471CCD2A84352848C0D6
:10AD400022851D2808C42285052848C4484001469C
:10AD50009145EFF0DFEF08440546A545EFF03FEFE2
:10AD600048440946C945EFF09FEE85471CCCB240E8
:10AD700022444101828082804111972700009387FD
:10AD8000675826C284434AC006C69C4C22C42A89FE
:10AD900081E72685EFF05FF7938484048044DC40EC
:10ADA000FD1763D607009C40B9CF8440C5BF031789
:10ADB000C40039E7C1778507232204062320040055
:10ADC00023220400232404005CC423280400232A33
:10ADD0000400232C0400214681451305C405EFF02F
:10ADE000AFE1232A0402232C040223240404232693
:10ADF00004042285B24022449244024941018280E7
:10AE00001304840671BF91454A85EFF09FEB88C01B
:10AE100049FDB1472320F9000144E1BF797122D4F3
:10AE20004AD052CC56CA5AC85EC606D626D24ECE94
:10AE30002A8AAE8A130485040149054BFD5B09EC9F
:10AE4000B25022544A8592540259F249624AD24A77
:10AE5000424BB24B45618280044483294400FD1972
:10AE600063D409000040E1BF83D7C400637BFB00CB
:10AE70008397E40063877701A6855285829A3369B8
:10AE8000A90093848406E1BF1971A6DAAE84839584
:10AE9000E500A2DC86DE328463DC050083D7C400D3
:10AEA00023A0060093F7070885E7930700401DA03D
:10AEB000300836C6EF001065B246E34105FE724722
:10AEC000BD67F98F7977BA9793B717009CC2F1BF26
:10AED000930700041CC0F6506654D654014509611E
:10AEE000828083D7C500011122CC06CE26CA4AC86B
:10AEF000898B2E8489CF930774041CC01CC8854796
:10AF00005CC8F2406244D2444249056182807400C8
:10AF10003000AA84EFF05FF7A2452A892685312206
:10AF200001ED8317C40013F7072061FFF19B93E73E
:10AF300027002316F400C1B797070000938707D8AE
:10AF40009CD48357C40008C008C893E70708231699
:10AF5000F400A2475CC8B24791CF8315E400268570
:10AF6000EF00705D01C98357C400F19B93E71700A0
:10AF70002316F4008357C4003369F9002316240113
:10AF800049B7DDC183A7C5FF411122C406C626C249
:10AF90001384C5FF63D307003E94AA84EF00306694
:10AFA0009387419C9C4381EF2322040023A2819C30
:10AFB0002244B2402685924441016F007064637E52
:10AFC000F40014403307D4006396E7009843DC4351
:10AFD000369718C05CC0D9BFBA87D84319C3E37D80
:10AFE000E4FE94433386D700631F86001040B29678
:10AFF00094C33386D700E31DC7FA10435843B29673
:10B0000094C3D8C375B76375C400B1479CC04DB72E
:10B010001040B306C4006316D70014435843B296D9
:10B0200014C058C0C0C369B78280011126CA938476
:10B030003500F19806CE22CC4AC84EC6A104B147CD
:10B0400063F5F404B14463E4B4042A89EF00305B8F
:10B050009387419C98433A8429E49387819C9C433D
:10B0600099E781454A85EF00F03423A4A19CA68589
:10B070004A85EF003034FD5963193507B147232065
:10B08000F9004A85EF00D05729A0E3DE04FAB14762
:10B090001CC10145F2406244D2444249B2490561B3
:10B0A00082801C40858F63CF0702AD4663F6F600B1
:10B0B0001CC03E9404C031A05C406313870223A2ED
:10B0C000F19C4A85EF00D0531305B4009307440068
:10B0D00061993307F5405DDF3A94898F1CC05DBFED
:10B0E0005CC3C5B72287404085BF13043500719803
:10B0F000E30285FCB305A4404A85EF00B02BE31BB7
:10B1000035FBADBF01114AC803A9850022CC52C44A
:10B110005AC006CE26CA4EC656C22E84328B368AF6
:10B1200063EE260983D7C50013F7074851C70440CB
:10B130008C495848AA8AB389B4408D44B384E40248
:10B140000947B3C4E402138716004E9763F3E40083
:10B15000BA8493F70740D9C3A6855685EFF0FFEC74
:10B160002A890DE5B14723A0FA008357C4007D5515
:10B1700093E707042316F400F2406244D2444249A4
:10B18000B249224A924A024B056182800C484E869F
:10B19000EFF0AFCF8357C40093F7F7B793E70708F3
:10B1A0002316F4002328240144C84E99B384344163
:10B1B0002320240104C4528963732A015289084060
:10B1C0004A86DA85EF00103F1C440145B3872741CA
:10B1D0001CC41C403E992320240179BF2686568535
:10B1E000EF0030422A895DFD0C485685EFF07FD98B
:10B1F00095BF83D7C500717126D34AD14ECF06D7EC
:10B2000022D552CD56CB5AC95EC762C566C393F7E5
:10B210000708AA892E89B284B9C39C49A9E393057A
:10B22000000436C6EFF07FE02320A9002328A90000
:10B23000B24615E1B14723A0F9007D55BA502A5412
:10B240009A540A59FA496A4ADA4A4A4BBA4B2A4C82
:10B250009A4C4D61828093070004232AF9009307DA
:10B260000002A30CF1029307000302DA230DF1029E
:10B2700036CE930B5002972A0000938AEA04054CBD
:10B28000294B26848347040099C3639D7709B30C37
:10B290009440638E0C00E6862686CA854E85EFF0C4
:10B2A0007FE6FD576304F51AD256E69636DA8347F1
:10B2B0000400638D0718FD579304140002D002D6D2
:10B2C0003ED202D4A301010682DC83C504001546E8
:10B2D0005685EF00902C13841400825731E513F744
:10B2E000070109C713070002A301E10613F787004E
:10B2F00009C71307B002A301E10683C604001307C0
:10B30000A002638BE602B257268481462546034796
:10B31000040093051400130707FD6374E6068DC649
:10B320003ED61DA00504B9BF330555413315AC0009
:10B33000C98F3ED0A28451BF72479306470018437D
:10B3400036CE634907023AD6034704009307E0026A
:10B35000631FF704034714009307A002631BF7025F
:10B36000F2470904138747009C433ACE63C10702A2
:10B370003ED235A83307E04093E727003AD63ED0C7
:10B38000E1B7B387670385462E84BA9749B7FD575F
:10B39000C5B7050402D2814681472546034704000C
:10B3A00093051400130707FD6378E606F1F2834561
:10B3B00004000D4617250000130585F1EF00F01D70
:10B3C00011CD972700009387A7F01D8D93070004E8
:10B3D000B397A700025505045D8D2AD0834504006C
:10B3E0001946172500001305E5EE93041400230CFD
:10B3F000B102EF00901A25C59757FFFF938787C0CA
:10B4000095E70257F2471377071009CF91073ECE11
:10B41000D257D2973EDAB5B5B387670385462E84F7
:10B42000BA97ADBF9D07E19BA107D5B778089706EE
:10B430000000938666CD4A860C104E85970000006A
:10B44000E7000000FD572A8AE314F5FC8357C90082
:10B450007D5593F70704E39307DE5255C5B378088B
:10B4600097060000938646CA4A860C104E853129FD
:10B47000D1BF1C46FD171CC663DA0700184E63C512
:10B48000E700A9476394F5006FF08FC51C422E8535
:10B490001387170018C22380B7008280011122CCC5
:10B4A00026CA4AC84EC652C406CE2A89AE893284FC
:10B4B000B304D6007D5A63149400014511A8834556
:10B4C00004004E864A85EFF0DFFA0504E31545FFD8
:10B4D000F2406244D2444249B249224A0561828024
:10B4E000357122CD26CB4AC94EC706CF52C556C3A9
:10B4F0005AC1DEDEE2DCE6DAAA89AE84328936841D
:10B5000009C51C4D99E3EFF03F8097270000938712
:10B51000A7D7639DF40C83A4490083D7C400A18BF3
:10B52000E5CB9C48F5C793070002A304F1029307FB
:10B53000000302D22305F10222C6930B5002972A80
:10B540000000938A6AD8054C294B4A84834704003B
:10B5500099C36392770FB30C2441638E0C00E68687
:10B560004A86A6854E85EFF07FF3FD576307F51EEB
:10B570009256E69636D2834704006380071EFD5735
:10B580001309140002C802CE3ECA02CCA30901046A
:10B5900082D48345090015465685EF001000130438
:10B5A0001900C24759E913F7070109C71307000239
:10B5B000A309E10413F7870009C71307B002A30921
:10B5C000E104834609001307A0026380E608F247FE
:10B5D0004A84814625460347040093051400130757
:10B5E00007FD6379E60AB5CA3ECE85A89727000015
:10B5F000938787CB6395F40083A4890039BF97278D
:10B600000000938767C6E39AF4F083A4C90031B7BA
:10B61000A6854E85EFF0CFB819D57D55FA406A441E
:10B62000DA444A49BA492A4A9A4A0A4BF65B665CA6
:10B63000D65C0D618280050411BF33055541331579
:10B64000AC00C98F3EC82289A9B73247930647008C
:10B65000184336C6634907023ACE034704009307EE
:10B66000E002631FF704034714009307A002631B63
:10B67000F702B2470904138747009C433AC663C1E7
:10B6800007023ECA35A83307E04093E727003ACEC9
:10B690003EC8E1B7B387670385462E84BA9725BFB6
:10B6A000FD57C5B7050402CA8146814725460347B1
:10B6B000040093051400130707FD6376E606F1F214
:10B6C000834504000D4617250000130565C0F125CC
:10B6D00011CD972700009387A7BF1D8D9307000406
:10B6E000B397A700424505045D8D2AC88345040031
:10B6F0001946172500001305E5BD1309140023049E
:10B70000B102612D3DC19757FFFF9387A78F95E742
:10B710004247B2471377071009CF91073EC69257A9
:10B72000D2973ED21DB5B387670385462E84BA975C
:10B73000BDBF9D07E19BA107D5B778009706000024
:10B74000938606D626860C084E8597000000E700F3
:10B750000000FD572A8AE314F5FC83D7C40093F751
:10B760000704E39C07EA125555BD780097060000D0
:10B77000938606D326860C084E85012AD9BF797197
:10B7800056CA9C49BA8A984522D426D24ECE52CC6B
:10B7900006D64AD05AC85EC6AA892E84B284368A92
:10B7A00063D3E700BA879CC00347340419C38507F5
:10B7B0009CC01C4093F7070281C79C4089079CC02E
:10B7C0000329040013796900631A0900130B94011B
:10B7D000FD5B5C449840998F634CF9041C408346A0
:10B7E000340493F70702B336D000A5EB13063404F4
:10B7F000D2854E85829AFD576303F5041C4011469D
:10B800009840998B544481446397C700B384E640C1
:10B8100063D3040081441C4418486354F700998F93
:10B82000BE94014969047D5B63982405014509A81C
:10B8300085465A86D2854E85829A631E75017D554E
:10B84000B250225492540259F249624AD24A424BAF
:10B85000B24B456182800509ADBF3307D4001306A2
:10B860000003A301C7040347540493871600A2975B
:10B870008906A381E7049DBF85462286D2854E8531
:10B88000829AE30E65FB050945B7797122D426D269
:10B890004AD04ECE06D652CC56CA5AC8B68983C6AE
:10B8A00085019307E0063289AA842E841386350425
:10B8B0006381F61E63E2D706930730066382F60AB9
:10B8C00063EDD700638B061E930780056387F6162A
:10B8D000930A24042301D40469A8930740066386CD
:10B8E000F60093079006E395F6FE1C40084393F696
:10B8F000070893054500C1C21C410CC363D807006B
:10B900001307D002B307F040A301E4049726000018
:10B910009386C69C294765A0930730076383F61A70
:10B9200063EFD7009307F006638FF60493070007D1
:10B93000E390F6FA9C4193E707029CC109A893079C
:10B9400050076382F60493078007E393F6F89307A2
:10B950008007A302F4049726000093866699E5A069
:10B960001C43938A2504938647009C4314C3238178
:10B97000F5048547B5A293F607041C410CC3BDDE50
:10B98000C207C187A5BF0C401C4313F805081385E7
:10B9900047006305080008C39C4339A093F50504DC
:10B9A00008C3FDD983D707001307F006638BE60CA5
:10B9B00097260000938686922947A30104044C40F1
:10B9C0000CC463C5050008406D9908C099E3B28AAC
:10B9D00091CDB28AB3F5E702FD1AB69583C505008D
:10B9E0002380BA00B3D5E70263F3E70AA147631ED9
:10B9F000F7001C40858B91CB58401C4863C7E7007B
:10BA000093070003A38FFAFEFD1A3306564110C8B0
:10BA10004E87CA867000A2852685EFF05FD67D5AD4
:10BA20006314450D7D55B250225492540259F24987
:10BA3000624AD24A424B45618280A382D50497264E
:10BA400000009386A6890C40084313F805081C41A2
:10BA500011056300080208C313F7150001C793E539
:10BA600005020CC04147B1FB0C4093F5F5FD0CC03D
:10BA7000A9B713F8050408C3E30008FEC207C18391
:10BA8000E1BF972600009386668521473DB7AE87C4
:10BA900091B794411C43CC4913F80608138547001D
:10BAA0006306080008C39C438CC301A808C393F62F
:10BAB00006049C43F5DA2390B70023280400B28AD9
:10BAC00081BF1C43D04181459386470014C383AA9C
:10BAD00007005685D92401C53305554148C05C404F
:10BAE0001CC8A30104042DB714485686CA852685B0
:10BAF0008299E30945F31C40898B8DE7B24748449E
:10BB0000E353F5F23E8505B785465686CA852685F8
:10BB10008299E30965F1050A5C443247998FE34550
:10BB2000FAFEE9BF014A930A94017D5BF5B7011162
:10BB300022CC06CE2A8409C91C4D99E732C62EC4F0
:10BB4000EFF08F9C3246A245971700009387C7738A
:10BB50006316F60250401C46FD171CC663D007044E
:10BB6000184E63C7E70093F7F50F29476398E7027C
:10BB700022856244F24005616FE09FD6971700006E
:10BB8000938787726314F6001044F1B7971700008B
:10BB90009387876DE311F6FC504475BF1C4213F583
:10BBA000F50F1387170018C22380B700F2406244D4
:10BBB00005618280411122C42A842E8597A7FF1F28
:10BBC00023A2070606C63526FD576319F50097A779
:10BBD000FF1F938727059C4391C31CC0B24022449A
:10BBE00041018280411122C42E848395E50006C65E
:10BBF000AD24634905007C48AA977CC8B240224422
:10BC0000410182808357C4007D777D17F98F231609
:10BC1000F400EDB783D7C500011122CC26CA4AC86B
:10BC20004EC606CE93F70710AA842E843289B689B1
:10BC300091C78395E5008946014635228357C400A4
:10BC40007D777D17F98F2316F4008315E400624495
:10BC5000F240CE864A86B24942492685D2440561E1
:10BC60003DA8411122C42E848395E50006C6E5282F
:10BC7000FD570357C400631BF500FD77FD17F98FCF
:10BC80002316F400B2402244410182808567D98F97
:10BC90002316F40068C8FDB78395E50025A8411177
:10BCA00022C42A842E85B285368697A7FF1F23AB30
:10BCB00007F606C6EF90AFABFD576319F50097A7DF
:10BCC000FF1F938727F69C4391C31CC0B2402244B8
:10BCD00041018280411122C42A842E8597A7FF1F2B
:10BCE00023A207F406C6752AFD576319F50097A726
:10BCF000FF1F938727F39C4391C31CC0B24022448B
:10BD000041018280411122C42A842E85B28597A7E1
:10BD1000FF1F23A907F006C6692AFD576319F5001E
:10BD200097A7FF1F938707F09C4391C31CC0B240A5
:10BD3000224441018280411122C42A842E8597A782
:10BD4000FF1F23A107EE06C6AD2AFD576319F500B4
:10BD500097A7FF1F938707ED9C4391C31CC0B24078
:10BD6000224441018280411122C42A842E85B28559
:10BD7000368697A7FF1F23A707EA06C6992AFD570D
:10BD80006319F50097A7FF1F9387C7E99C4391C3E9
:10BD90001CC0B24022444101828093F5F50F2A96DF
:10BDA0006314C5000145828083470500E38DB7FE1B
:10BDB0000505FDB763F3A504B386C500637FD5020F
:10BDC0009345F6FF8147FD176393F5008280338723
:10BDD000F600034807003387C7002A9723000701AE
:10BDE000DDB73387F500834607003307F500850785
:10BDF0002300D700E317F6FE82808147E5BF8280EB
:10BE0000828081E5B2856FF04FA2011122CC06CE6F
:10BE100026CA4AC84EC6328401EEEFF08F96014919
:10BE2000F24062444A85D2444249B2490561828067
:10BE3000AE84AA89A9282689E37485FEA2854E8549
:10BE4000EFF0AF9E2A8969DDA6852286EFE0FF83A9
:10BE5000A6854E85EFF0EF92E1B7411122C42A8406
:10BE60002E85B285368697A7FF1F23AD07DA06C653
:10BE70008D28FD576319F50097A7FF1F938787DA71
:10BE80009C4391C31CC0B24022444101828083A7DD
:10BE9000C5FF1385C7FF63D50700AA959C413E9552
:10BEA00082809307800517A7FF1F232DF7D67D55A6
:10BEB00082809307800517A7FF1F2325F7D67D559E
:10BEC00082809307800517A7FF1F232DF7D4014514
:10BED00082809307800517A7FF1F2325F7D47D5580
:10BEE00082809307800517A7FF1F232DF7D27D556A
:10BEF00082809387C19C9C4391C73E9523A6A19CB9
:10BF00003E85828097A7FF1F938707D23E9523A681
:10BF1000A19C3E8582800000920800000807000076
:10BF2000140900009A0700001805000066060000CA
:10BF3000CC050000F0070000707276426C6F636BF6
:10BF4000696E675461736B007072765465737441E7
:10BF5000626F7274696E675461736B44656C61796A
:10BF6000556E74696C00000070727654657374418C
:10BF7000626F7274696E674576656E7447726F752D
:10BF80007057616974000000707276546573744173
:10BF9000626F7274696E67517565756553656E641D
:10BFA000000000007072765465737441626F7274A1
:10BFB000696E6753747265616D427566666572522B
:10BFC0006563656976650000707276436F6E7472A2
:10BFD0006F6C6C696E675461736B0000707276539E
:10BFE000796E635461736B00707276546573745329
:10BFF0006C6176655461736B00000000707276545A
:10C000006573744D61737465725461736B000000E5
:10C010007653746172744576656E7447726F75708D
:10C020005461736B7300000076506572696F6469C8
:10C03000634576656E7447726F75707350726F6387
:10C04000657373696E67000070727653696E676C12
:10C05000655461736B54657374730000707276532A
:10C06000757370656E6465645461736B54696D6556
:10C07000725465737443616C6C6261636B000000A1
:10C08000784E6F746966795461736B46726F6D494F
:10C090005352000070727654696D65725465737402
:10C0A0005461736B000000007072765465737432D3
:10C0B0005F436865636B5461736B416E6454696D73
:10C0C000657273496E697469616C5374617465005B
:10C0D00070727654657374335F436865636B417542
:10C0E000746F52656C6F61644578706972655261F6
:10C0F0007465730070727654657374345F43686559
:10C10000636B4175746F52656C6F616454696D65E2
:10C11000727343616E426553746F707065640000A2
:10C1200070727654657374355F436865636B426102
:10C130007369634F6E6553686F7454696D657242BD
:10C1400065686176696F75720000000070727654E0
:10C15000657374365F436865636B4175746F5265D0
:10C160006C6F616452657365744265686176696F6E
:10C1700075720000707276526573657453746172E3
:10C1800074436F6E646974696F6E73466F724E6547
:10C190007874497465726174696F6E00707276416B
:10C1A00075746F52656C6F616454696D657243613B
:10C1B0006C6C6261636B00007072764F6E655368E1
:10C1C0006F7454696D657243616C6C6261636B007E
:10C1D00070727654657374315F437265617465542F
:10C1E000696D657273576974686F757453636865B8
:10C1F00064756C657252756E6E696E670000000042
:10C200007654696D6572506572696F6469634953EC
:10C21000525465737473000076436F756E74657263
:10C22000436F6E74726F6C5461736B0076436F6E04
:10C2300074696E756F7573496E6372656D656E7442
:10C240005461736B00000000707276526563757202
:10C25000736976654D75746578506F6C6C696E673F
:10C260005461736B00000000D64A0000FE4A0000D3
:10C27000264B0000B84A00009E4A00009A4B00007E
:10C28000C24B0000EA4B00007C4B0000624B0000F8
:10C290007076506F72744D616C6C6F6300000000BB
:10C2A00076506F72744672656500000078506F7248
:10C2B0007453746172745363686564756C6572005D
:10C2C000784576656E7447726F7570576169744210
:10C2D00069747300784576656E7447726F75704344
:10C2E0006C65617242697473000000007845766580
:10C2F0006E7447726F757053657442697473000091
:10C30000784576656E7447726F757053796E630009
:10C31000764576656E7447726F757044656C6574AA
:10C320006500000078517565756547656E657269D1
:10C33000635265736574000078517565756547656E
:10C340006E657269634372656174650078517565E5
:10C3500075654765744D75746578486F6C64657272
:10C3600046726F6D49535200785175657565437219
:10C3700065617465436F756E74696E6753656D6151
:10C3800070686F7265000000785175657565476566
:10C390006E6572696353656E64000000785175655F
:10C3A0007565476976654D75746578526563757214
:10C3B000736976650000000078517565756547659D
:10C3C0006E6572696353656E6446726F6D49535250
:10C3D000000000007851756575654769766546729D
:10C3E0006F6D49535200000078517565756552654F
:10C3F00063656976650000007851756575655365FC
:10C400006D6170686F726554616B65007851756518
:10C41000756554616B654D757465785265637572A9
:10C420007369766500000000785175657565506523
:10C43000656B000078517565756552656365697651
:10C440006546726F6D495352000000007851756562
:10C4500075655065656B46726F6D495352000000FB
:10C46000757851756575654D65737361676573574B
:10C47000616974696E6700007578517565756553FB
:10C480007061636573417661696C61626C6500001F
:10C49000757851756575654D65737361676573571B
:10C4A000616974696E6746726F6D4953520000008E
:10C4B00076517565756544656C65746500000000AE
:10C4C00078517565756549735175657565456D700C
:10C4D000747946726F6D495352000000785175654A
:10C4E00075654973517565756546756C6C46726FF7
:10C4F0006D495352000000007072765265616442CB
:10C500007974657346726F6D427566666572000078
:10C51000707276496E697469616C6973654E65778E
:10C5200053747265616D4275666665720000000045
:10C5300070727657726974654279746573546F428C
:10C5400075666665720000007853747265616D42AD
:10C55000756666657247656E65726963437265618B
:10C56000746500007653747265616D427566666528
:10C570007244656C657465007853747265616D42D0
:10C5800075666665725265736574000078537472DF
:10C5900065616D427566666572536574547269674C
:10C5A0006765724C6576656C0000000078537472A4
:10C5B00065616D427566666572537061636573414E
:10C5C0007661696C61626C6500000000785374727A
:10C5D00065616D4275666665724279746573417610
:10C5E00061696C61626C65007853747265616D425B
:10C5F000756666657253656E6400000078537472E8
:10C6000065616D42756666657253656E6446726FEC
:10C610006D495352000000007853747265616D4299
:10C62000756666657252656365697665000000002F
:10C630007853747265616D4275666665724E657891
:10C64000744D6573736167654C656E677468427994
:10C65000746573007853747265616D4275666665C2
:10C66000725265636569766546726F6D4953520013
:10C670007853747265616D4275666665724973457B
:10C680006D707479000000007853747265616D42BA
:10C690007566666572497346756C6C007853747282
:10C6A00065616D42756666657253656E64436F6D54
:10C6B000706C6574656446726F6D4953520000007A
:10C6C0007853747265616D42756666657252656312
:10C6D00065697665436F6D706C6574656446726FED
:10C6E0006D49535200000000B2960000AA96000067
:10C6F000CA9700000C970000069700002A980000D7
:10C700002498000028990000989800009298000052
:10C71000765461736B44656C657465006554617330
:10C720006B476574537461746500000076546173DF
:10C730006B5072696F726974795365740000000000
:10C74000765461736B526573756D650078546173CF
:10C750006B526573756D6546726F6D49535200007B
:10C76000765461736B537461727453636865647556
:10C770006C65720070635461736B4765744E616DD4
:10C7800065000000785461736B496E6372656D6576
:10C790006E745469636B0000785461736B526573F7
:10C7A000756D65416C6C0000785461736B44656C09
:10C7B0006179556E74696C00765461736B44656C75
:10C7C00061790000785461736B47657448616E64E9
:10C7D0006C650000785461736B43617463685570D5
:10C7E0005469636B73000000785461736B41626F2E
:10C7F000727444656C617900765461736B53776928
:10C80000746368436F6E7465787400007654617366
:10C810006B53757370656E6400000000765461732D
:10C820006B506C6163654F6E4576656E744C6973D1
:10C8300074000000765461736B506C6163654F6ED9
:10C84000556E6F7264657265644576656E744C6989
:10C8500073740000765461736B506C6163654F6E46
:10C860004576656E744C697374526573747269634E
:10C8700074656400785461736B52656D6F766546BC
:10C88000726F6D4576656E744C69737400000000BC
:10C89000765461736B52656D6F766546726F6D5538
:10C8A0006E6F7264657265644576656E744C69730B
:10C8B00074000000765461736B53657454696D6540
:10C8C0004F7574537461746500000000785461738F
:10C8D0006B436865636B466F7254696D654F757421
:10C8E00000000000785461736B5072696F72697454
:10C8F00079446973696E686572697400765461730E
:10C900006B5072696F72697479446973696E686596
:10C91000726974416674657254696D656F757400EF
:10C92000756C5461736B47656E657269634E6F74A5
:10C9300069667954616B6500785461736B47656E05
:10C94000657269634E6F7469667957616974000036
:10C95000785461736B47656E657269634E6F746975
:10C9600066790000785461736B47656E6572696320
:10C970004E6F7469667946726F6D495352000000BC
:10C98000765461736B47656E657269634E6F746947
:10C9900066794769766546726F6D495352000000AB
:10C9A000785461736B47656E657269634E6F746925
:10C9B00066795374617465436C65617200000000B0
:10C9C0000E9F00000E9F00000E9F0000EE9E0000D4
:10C9D000CE9E0000FA9E00000E9F00000E9F0000F9
:10C9E000EE9E0000CE9E00007854696D6572437221
:10C9F0006561746554696D65725461736B00000004
:10CA0000707276496E697469616C6973654E657799
:10CA100054696D65720000007854696D65724765F0
:10CA20006E65726963436F6D6D616E640000000036
:10CA300070727653776974636854696D65724C6976
:10CA40007374730070727650726F63657373457898
:10CA5000706972656454696D657200007072765019
:10CA6000726F636573735265636569766564436F5E
:10CA70006D6D616E647300007854696D6572476511
:10CA80007454696D65724461656D6F6E5461736B4A
:10CA900048616E646C6500007854696D6572476525
:10CAA00074506572696F64007654696D6572536580
:10CAB0007452656C6F61644D6F646500757854697C
:10CAC0006D657247657452656C6F61644D6F646526
:10CAD000000000007854696D657247657445787090
:10CAE00069727954696D6500706354696D65724748
:10CAF00065744E616D6500007854696D65724973A7
:10CB000054696D6572416374697665007076546925
:10CB10006D657247657454696D6572494400000023
:10CB20007654696D657253657454696D65724944D4
:10CB3000000000007854696D657250656E6446753A
:10CB40006E6374696F6E43616C6C00004162744384
:10CB500074726C003A257300453A2F39204D797470
:10CB60006573742F467265655F52544F532F455855
:10CB7000414D2F44656D6F2F436F6D6D6F6E2F4D5F
:10CB8000696E696D616C2F41626F727444656C618E
:10CB9000792E6300416274426C6B0000453A2F3974
:10CBA000204D79746573742F467265655F52544FDA
:10CBB000532F4558414D2F44656D6F2F436F6D6D59
:10CBC0006F6E2F4D696E696D616C2F4576656E7461
:10CBD00047726F75707344656D6F2E6300000000BF
:10CBE000576169744F0000005365744200000000F3
:10CBF000526E647600000000453A2F39204D79745A
:10CC00006573742F467265655F52544F532F4558B4
:10CC1000414D2F44656D6F2F436F6D6D6F6E2F4DBE
:10CC2000696E696D616C2F5461736B4E6F746966C8
:10CC3000792E630053696E676C654E6F746966790F
:10CC4000000000004E6F74696669657200000000A4
:10CC50004E6F746966696564000000004F6E65730D
:10CC6000686F742054696D6572000000453A2F3971
:10CC7000204D79746573742F467265655F52544F09
:10CC8000532F4558414D2F44656D6F2F436F6D6D88
:10CC90006F6E2F4D696E696D616C2F54696D657291
:10CCA00044656D6F2E63000046522054696D6572B5
:10CCB00000000000495352204152000049535220C5
:10CCC0004F530000546D722054737400426C6F63B4
:10CCD0006B5F54696D655F51756575650000000097
:10CCE000425465737431000042546573743200001D
:10CCF000453A2F39204D79746573742F46726565F6
:10CD00005F52544F532F4558414D2F44656D6F2F3F
:10CD1000436F6D6D6F6E2F4D696E696D616C2F6421
:10CD2000796E616D69632E63000000005375737046
:10CD3000656E6465645F546573745F517565756590
:10CD400000000000434E545F494E43004C494D5F84
:10CD5000494E4300435F4354524C000053555350D7
:10CD60005F545800535553505F525800453A2F397D
:10CD7000204D79746573742F467265655F52544F08
:10CD8000532F4558414D2F44656D6F2F436F6D6D87
:10CD90006F6E2F4D696E696D616C2F7265636D7575
:10CDA0007465782E6300000052656375727369764E
:10CDB000655F4D7574657800526563310000000051
:10CDC00052656332000000005265633300000000CA
:10CDD0002E0000004552524F523A2044796E616D48
:10CDE0006963207072696F726974792064656D6F10
:10CDF0002F74657374732E0D0A0000004552524F54
:10CE0000523A20426C6F636B2074696D65206465D3
:10CE10006D6F2F74657374732E0D0A004552524F57
:10CE2000523A20526563757273697665206D757428
:10CE300065782064656D6F2F74657374732E0D0AA9
:10CE4000000000004552524F523A2054696D6572FD
:10CE50002064656D6F2F74657374732E0D0A000066
:10CE60004552524F523A204576656E742067726F74
:10CE700075702064656D6F2F74657374732E0D0A61
:10CE8000000000004552524F523A205461736B200B
:10CE90006E6F74696669636174696F6E2064656D35
:10CEA0006F2F74657374732E0D0A00004552524F34
:10CEB000523A2052656769737465722074657374A1
:10CEC00020312E0D0A0000004552524F523A205296
:10CED00065676973746572207465737420322E0DF2
:10CEE0000A0000004552524F523A2041626F72745C
:10CEF0002064656C61792E0D0A0000005061737327
:10CF00000000000046726565204865617020536925
:10CF10007A653A20256420627974657321000000E7
:10CF20004D696E20457665722046726565204865BC
:10CF300061702053697A653A2025642062797465AE
:10CF400073210000526567310000000052656732AE
:10CF500000000000436865636B000000546869735B
:10CF60002069732064656661756C74204952512094
:10CF700068616E646C65722C20796F7520686176CB
:10CF80006520746F20646566696E65206974207918
:10CF90006F757273656C66210000000025730000D8
:10CFA0005B4C4F475D2825733A256C6429200000AF
:10CFB0005B4C4F475D00000052385F52455345546B
:10CFC0005F5354415455533A30782530327800003D
:10CFD000465245515F5359533A256400446576697A
:10CFE000636520496E666F2073746172742E2E2EF5
:10CFF00000000000453A2F39204D79746573742F75
:10D00000467265655F52544F532F4558414D2F442A
:10D01000656D6F2F524953432D562D43483538784F
:10D020005F45636C697073655F4743432F636F6D42
:10D030006D6F6E2F44454255472E630044657669F7
:10D04000636520496E666F20656E642E2E2E00008B
:10D05000453A2F39204D79746573742F4672656592
:10D060005F52544F532F4558414D2F4672656552BC
:10D07000544F535F536F757263652F706F72746195
:10D08000626C652F4D656D4D616E672F68656170CF
:10D090005F342E6300000000453A2F39204D79742B
:10D0A0006573742F467265655F52544F532F455810
:10D0B000414D2F4672656552544F535F536F7572E1
:10D0C00063652F706F727461626C652F4743432FE5
:10D0D000524953432D562F706F72742E6300000017
:10D0E000453A2F39204D79746573742F4672656502
:10D0F0005F52544F532F4558414D2F46726565522C
:10D10000544F535F536F757263652F6576656E7408
:10D110005F67726F7570732E63000000453A2F3998
:10D12000204D79746573742F467265655F52544F54
:10D13000532F4558414D2F4672656552544F535FEA
:10D14000536F757263652F71756575652E63000089
:10D15000453A2F39204D79746573742F4672656591
:10D160005F52544F532F4558414D2F4672656552BB
:10D17000544F535F536F757263652F73747265619B
:10D180006D5F6275666665722E630000453A2F39E1
:10D19000204D79746573742F467265655F52544FE4
:10D1A000532F4558414D2F4672656552544F535F7A
:10D1B000536F757263652F7461736B732E63000018
:10D1C00049444C4500000000546D725100000000BD
:10D1D000453A2F39204D79746573742F4672656511
:10D1E0005F52544F532F4558414D2F46726565523B
:10D1F000544F535F536F757263652F74696D657219
:10D20000732E6300546D72205376630074657374DB
:10D21000000000002E2E2F4D61696E2E630000006D
:10D22000764170706C69636174696F6E4D616C6C8E
:10D230006F634661696C6564486F6F6B0000000046
:10D24000764170706C69636174696F6E5374616369
:10D250006B4F766572666C6F77486F6F6B0000007E
:10D260002A00000000000000000000000000000094
:10D2700000000000000000000000000000000000AE
:10D28000000000000000000000000000000000009E
:10D29000000000000000000000000000000000008E
:10D2A000000000000000000000000000000000007E
:10D2B000000000000000000000000000000000006E
:10D2C00000000000232D302B20000000686C4C0073
:10D2D00065666745464700003031323334353637AE
:10D2E0003839414243444546000000003031323372
:10D2F0003435363738396162636465660000000092
:04D300000008002001
:10D304000000000084D20000A4D2000064D2000017
:10D314000000000000000000000000000000000009
:10D3240000000000000000000000000000000000F9
:10D3340000000000000000000000000000000000E9
:10D3440000000000000000000000000000000000D9
:10D3540000000000000000000000000000000000C9
:10D3640001000000FFFFFFFF0100000006000000B5
:10D3740000080020000000000000000080380100C8
:04D3840030640020F1
:00000001FF
