
RTOSDemo_blinky.elf:     file format elf32-littleriscv
RTOSDemo_blinky.elf
architecture: riscv:rv32, flags 0x00000112:
EXEC_P, HAS_SYMS, D_PAGED
start address 0x00000000

Program Header:
    LOAD off    0x00001000 vaddr 0x00000000 paddr 0x00000000 align 2**12
         filesz 0x00000094 memsz 0x00000094 flags r-x
    LOAD off    0x00002000 vaddr 0x20000000 paddr 0x00000094 align 2**12
         filesz 0x00000138 memsz 0x00000138 flags r-x
    LOAD off    0x00002200 vaddr 0x00000200 paddr 0x00000200 align 2**12
         filesz 0x0000d104 memsz 0x0000d104 flags r-x
    LOAD off    0x00010138 vaddr 0x20000138 paddr 0x0000d304 align 2**12
         filesz 0x00000000 memsz 0x000006c8 flags rw-
    LOAD off    0x0000f800 vaddr 0x20000800 paddr 0x0000d304 align 2**12
         filesz 0x00000084 memsz 0x00005424 flags rw-
    LOAD off    0x0000fc24 vaddr 0x20005c24 paddr 0x0000d388 align 2**12
         filesz 0x00000000 memsz 0x0000080c flags rw-

Sections:
Idx Name            Size      VMA       LMA       File off  Algn  Flags
  0 .init           00000004  00000000  00000000  00001000  2**1  CONTENTS, ALLOC, LOAD, READONLY, CODE
  1 .vectors        00000090  00000004  00000004  00001004  2**2  CONTENTS, ALLOC, LOAD, READONLY, CODE
  2 .highcodelalign 00000000  00000094  00000094  0000f884  2**0  CONTENTS
  3 .highcode       00000138  20000000  00000094  00002000  2**1  CONTENTS, ALLOC, LOAD, READONLY, CODE
  4 .text           0000d104  00000200  00000200  00002200  2**8  CONTENTS, ALLOC, LOAD, READONLY, CODE
  5 .fini           00000000  0000d304  0000d304  0000f884  2**0  CONTENTS, ALLOC, LOAD, CODE
  6 .dalign         000006c8  20000138  0000d304  00010138  2**0  ALLOC
  7 .dlalign        00000000  0000d304  0000d304  0000f884  2**0  CONTENTS
  8 .data           00000084  20000800  0000d304  0000f800  2**2  CONTENTS, ALLOC, LOAD, DATA
  9 .bss            000053a0  20000884  0000d388  0000f884  2**2  ALLOC
 10 .stack          0000080c  20005c24  0000d388  0000fc24  2**0  ALLOC
 11 .debug_info     00022597  00000000  00000000  0000f884  2**0  CONTENTS, READONLY, DEBUGGING
 12 .debug_abbrev   00004e55  00000000  00000000  00031e1b  2**0  CONTENTS, READONLY, DEBUGGING
 13 .debug_loc      0000bc44  00000000  00000000  00036c70  2**0  CONTENTS, READONLY, DEBUGGING
 14 .debug_aranges  00000350  00000000  00000000  000428b8  2**3  CONTENTS, READONLY, DEBUGGING
 15 .debug_ranges   00000db8  00000000  00000000  00042c08  2**3  CONTENTS, READONLY, DEBUGGING
 16 .debug_line     0001cc9d  00000000  00000000  000439c0  2**0  CONTENTS, READONLY, DEBUGGING
 17 .debug_str      00004b40  00000000  00000000  0006065d  2**0  CONTENTS, READONLY, DEBUGGING
 18 .comment        00000033  00000000  00000000  0006519d  2**0  CONTENTS, READONLY
 19 .debug_frame    00002f1c  00000000  00000000  000651d0  2**2  CONTENTS, READONLY, DEBUGGING
 20 .stab           00000084  00000000  00000000  000680ec  2**2  CONTENTS, READONLY, DEBUGGING
 21 .stabstr        00000117  00000000  00000000  00068170  2**0  CONTENTS, READONLY, DEBUGGING
SYMBOL TABLE:
00000000 l    d  .init	00000000 .init
00000004 l    d  .vectors	00000000 .vectors
00000094 l    d  .highcodelalign	00000000 .highcodelalign
20000000 l    d  .highcode	00000000 .highcode
00000200 l    d  .text	00000000 .text
0000d304 l    d  .fini	00000000 .fini
20000138 l    d  .dalign	00000000 .dalign
0000d304 l    d  .dlalign	00000000 .dlalign
20000800 l    d  .data	00000000 .data
20000884 l    d  .bss	00000000 .bss
20005c24 l    d  .stack	00000000 .stack
00000000 l    d  .debug_info	00000000 .debug_info
00000000 l    d  .debug_abbrev	00000000 .debug_abbrev
00000000 l    d  .debug_loc	00000000 .debug_loc
00000000 l    d  .debug_aranges	00000000 .debug_aranges
00000000 l    d  .debug_ranges	00000000 .debug_ranges
00000000 l    d  .debug_line	00000000 .debug_line
00000000 l    d  .debug_str	00000000 .debug_str
00000000 l    d  .comment	00000000 .comment
00000000 l    d  .debug_frame	00000000 .debug_frame
00000000 l    d  .stab	00000000 .stab
00000000 l    d  .stabstr	00000000 .stabstr
00000000 l    df *ABS*	00000000 ./common/CH58x_sdk/Startup/startup_CH573.o
00000200 l       .text	000000b4 Reset_Handler
000002b8 l       .text	00000000 store_regs
00000330 l       .text	00000000 end_except
00000000 l    df *ABS*	00000000 CH58x_sys.c
00000000 l    df *ABS*	00000000 core_riscv.c
000050ca l     F .text	00000012 DefaultIRQHandler
200009b0 l     O .bss	00000004 irqNesting
00000000 l    df *ABS*	00000000 AbortDelay.c
000004a0 l     F .text	00000610 prvBlockingTask
2000088c l     O .bss	00000004 xErrorOccurred
20000890 l     O .bss	00000004 xBlockingCycles
00000ab0 l     F .text	000000ce prvControllingTask
20000894 l     O .bss	00000004 xControllingCycles
20000884 l     O .bss	00000004 xLastBlockingCycleCount.4446
20000888 l     O .bss	00000004 xLastControllingCycleCount.4445
0000bf38 l     O .text	00000010 __FUNCTION__.4360
0000bf48 l     O .text	0000001e __FUNCTION__.4384
0000bf68 l     O .text	0000001e __FUNCTION__.4403
0000bf88 l     O .text	00000019 __FUNCTION__.4423
0000bfa4 l     O .text	00000023 __FUNCTION__.4413
0000bfc8 l     O .text	00000013 __FUNCTION__.4351
00000000 l    df *ABS*	00000000 EventGroupsDemo.c
00000c16 l     F .text	00000138 prvSyncTask
200008b0 l     O .bss	00000004 xSyncTask1
200008b8 l     O .bss	00000004 xEventGroup
00000d4e l     F .text	0000015e prvTestSlaveTask
200008c0 l     O .bss	00000004 ulTestSlaveCycles
00000eac l     F .text	000004a6 prvTestMasterTask
200008ac l     O .bss	00000004 xSyncTask2
200008c4 l     O .bss	00000004 ulTestMasterCycles
200008b4 l     O .bss	00000004 xISREventGroup
200008a8 l     O .bss	00000004 xCallCount.4219
200008a4 l     O .bss	00000004 xISRTestError.4220
200008bc l     O .bss	00000004 ulISRCycles
2000089c l     O .bss	00000004 ulPreviousWaitBitCycles.4232
200008a0 l     O .bss	00000004 ulPreviousSetBitCycles.4233
20000898 l     O .bss	00000004 ulPreviousISRCycles.4234
0000bfdc l     O .text	0000000c __FUNCTION__.4177
0000bfe8 l     O .text	00000011 __FUNCTION__.4188
0000bffc l     O .text	00000012 __FUNCTION__.4167
0000c010 l     O .text	00000016 __FUNCTION__.4159
0000c028 l     O .text	0000001f __FUNCTION__.4227
00000000 l    df *ABS*	00000000 TaskNotify.c
00001596 l     F .text	00000022 prvRand
200008d8 l     O .bss	00000004 uxNextRand
000015b8 l     F .text	00000032 prvNotifyingTimer
200008e8 l     O .bss	00000004 xTaskToNotify
200008e0 l     O .bss	00000004 ulTimerNotificationsSent
000015ea l     F .text	00000ca2 prvNotifiedTask
20000860 l     O .data	00000004 xErrorStatus
200008ec l     O .bss	00000004 ulNotifyCycleCount
0000228c l     F .text	000000b8 prvSuspendedTaskTimerTestCallback
200008dc l     O .bss	00000004 xTimer
200008e4 l     O .bss	00000004 ulTimerNotificationsReceived
200008d4 l     O .bss	00000004 ulCallCount.4196
200008d0 l     O .bss	00000004 xCallCount.4215
200008cc l     O .bss	00000004 xAPIToUse.4216
200008c8 l     O .bss	00000004 ulLastNotifyCycleCount.4231
0000c048 l     O .text	00000013 __FUNCTION__.4137
0000c05c l     O .text	00000022 __FUNCTION__.4197
0000c080 l     O .text	00000013 __FUNCTION__.4220
00000000 l    df *ABS*	00000000 TimerDemo.c
000024de l     F .text	00000010 prvISRAutoReloadTimerCallback
2000090c l     O .bss	00000001 ucISRAutoReloadTimerCounter
000024ee l     F .text	00000010 prvISROneShotTimerCallback
20000904 l     O .bss	00000001 ucISROneShotTimerCounter
000024fe l     F .text	000008c8 prvTimerTestTask
20000900 l     O .bss	00000004 xBasePeriod
00002e1e l     F .text	0000006a prvOneShotTimerCallback
20000918 l     O .bss	00000004 xOneShotTimer
20000868 l     O .data	00000004 xTestStatus
2000091c l     O .bss	00000005 ucAutoReloadTimerCounters
20000924 l     O .bss	00000004 ulLoopCounter
20000914 l     O .bss	00000001 ucOneShotTimerCounter
00002dc6 l     F .text	00000058 prvAutoReloadTimerCallback
200008fc l     O .bss	00000004 uxCallCount.4286
20000910 l     O .bss	00000004 xISRAutoReloadTimer
20000908 l     O .bss	00000004 xISROneShotTimer
200008f8 l     O .bss	00000004 xLastCycleFrequency.4153
200008f4 l     O .bss	00000004 xIterationsWithoutCounterIncrement.4152
200008f0 l     O .bss	00000004 ulLastLoopCounter.4149
20000864 l     O .data	00000004 uxTick.4249
0000c094 l     O .text	00000011 __FUNCTION__.4141
0000c0a8 l     O .text	00000028 __FUNCTION__.4172
0000c0d0 l     O .text	00000024 __FUNCTION__.4188
0000c0f4 l     O .text	0000002b __FUNCTION__.4197
0000c120 l     O .text	00000029 __FUNCTION__.4211
0000c14c l     O .text	00000027 __FUNCTION__.4221
0000c174 l     O .text	00000028 __FUNCTION__.4240
0000c19c l     O .text	0000001b __FUNCTION__.4281
0000c1b8 l     O .text	00000018 __FUNCTION__.4288
0000c1d0 l     O .text	0000002d __FUNCTION__.4158
0000c200 l     O .text	00000017 __FUNCTION__.4251
20000a30 l     O .bss	00000014 xAutoReloadTimers
00000000 l    df *ABS*	00000000 blocktim.c
0000395e l     F .text	000000b8 vSecondaryBlockTimeTestTask
20000930 l     O .bss	00000004 xRunIndicator
20000944 l     O .bss	00000004 xTestQueue
20000934 l     O .bss	00000004 xErrorOccurred
20000938 l     O .bss	00000004 xSecondaryCycles
00003a16 l     F .text	0000034e vPrimaryBlockTimeTestTask
2000093c l     O .bss	00000004 xPrimaryCycles
20000940 l     O .bss	00000004 xSecondary
20000928 l     O .bss	00000004 xLastSecondaryCycleCount.4250
2000092c l     O .bss	00000004 xLastPrimaryCycleCount.4249
00000000 l    df *ABS*	00000000 dynamic.c
00003e28 l     F .text	00000066 vQueueReceiveWhenSuspendedTask
20000958 l     O .bss	00000004 xSuspendedQueueReceiveError
20000954 l     O .bss	00000004 ulExpectedValue
00003e8e l     F .text	0000004e vQueueSendWhenSuspendedTask
20000950 l     O .bss	00000004 ulValueToSend.4637
2000095c l     O .bss	00000004 xSuspendedQueueSendError
00003edc l     F .text	00000028 vLimitedIncrementTask
00003f04 l     F .text	0000016e vCounterControlTask
20000964 l     O .bss	00000004 ulCounter
2000096c l     O .bss	00000004 xContinuousIncrementHandle
20000968 l     O .bss	00000004 xLimitedIncrementHandle
20000960 l     O .bss	00000002 usCheckVariable
00004072 l     F .text	00000094 vContinuousIncrementTask
20000948 l     O .bss	00000004 ulLastExpectedValue.4651
2000094c l     O .bss	00000002 usLastTaskCheck.4650
0000c218 l     O .text	00000014 __FUNCTION__.4625
0000c22c l     O .text	00000019 __FUNCTION__.4615
00000000 l    df *ABS*	00000000 recmutex.c
00004240 l     F .text	000001a8 prvRecursiveMutexPollingTask
2000099c l     O .bss	00000004 xMutex
20000980 l     O .bss	00000004 xControllingTaskHandle
2000097c l     O .bss	00000004 xBlockingTaskHandle
20000990 l     O .bss	00000004 xBlockingIsSuspended
20000994 l     O .bss	00000004 xControllingIsSuspended
20000998 l     O .bss	00000004 xErrorOccurred
20000984 l     O .bss	00000004 uxPollingCycles
000043e8 l     F .text	0000006c prvRecursiveMutexBlockingTask
20000988 l     O .bss	00000004 uxBlockingCycles
2000098c l     O .bss	00000004 uxControllingCycles
00004454 l     F .text	00000092 prvRecursiveMutexControllingTask
20000978 l     O .bss	00000004 uxLastControllingCycles.4218
20000974 l     O .bss	00000004 uxLastBlockingCycles.4219
20000970 l     O .bss	00000004 uxLastPollingCycles.4220
0000c248 l     O .text	0000001d __FUNCTION__.4206
00000000 l    df *ABS*	00000000 ./full_demo/RegTest.o
00004624 l       .text	00000000 reg1_loop
000046da l       .text	00000000 reg1_error_loop
000046e0 l       .text	00000000 ulRegTest1LoopCounterConst
00004758 l       .text	00000000 Reg2_loop
00004840 l       .text	00000000 reg2_error_loop
00004850 l       .text	00000000 ulRegTest2LoopCounterConst
00000000 l    df *ABS*	00000000 main_full.c
00004862 l     F .text	0000013c prvCheckTask
200009a4 l     O .bss	00000004 ulLastRegTest1Value.4276
200009a0 l     O .bss	00000004 ulLastRegTest2Value.4277
0000499e l     F .text	00000024 prvRegTestTaskEntry2
000049c2 l     F .text	00000024 prvRegTestTaskEntry1
00000000 l    df *ABS*	00000000 CH58x_gpio.c
00000000 l    df *ABS*	00000000 CH58x_uart1.c
00000000 l    df *ABS*	00000000 DEBUG.c
20000a44 l     O .bss	00000080 log_buf
00000000 l    df *ABS*	00000000 heap_4.c
00005350 l     F .text	00000048 prvInsertBlockIntoFreeList
200009cc l     O .bss	00000008 xStart
200009c8 l     O .bss	00000004 pxEnd
200009b4 l     O .bss	00000004 xBlockAllocatedBit
200009c4 l     O .bss	00000004 xFreeBytesRemaining
20000ac4 l     O .bss	00005000 ucHeap
200009c0 l     O .bss	00000004 xMinimumEverFreeBytesRemaining
200009bc l     O .bss	00000004 xNumberOfSuccessfulAllocations
200009b8 l     O .bss	00000004 xNumberOfSuccessfulFrees
0000c290 l     O .text	0000000d __FUNCTION__.4481
0000c2a0 l     O .text	0000000a __FUNCTION__.4496
00000000 l    df *ABS*	00000000 port.c
0000c2ac l     O .text	00000014 __FUNCTION__.4058
00000000 l    df *ABS*	00000000 ./FreeRTOS_Source/portable/GCC/RISC-V/portASM.o
00005752 l       .text	00000000 test_if_asynchronous
00005764 l       .text	00000000 handle_synchronous
0000575a l       .text	00000000 handle_asynchronous
0000578c l       .text	00000000 processed_source
00005768 l       .text	00000000 test_if_environment_call
00005778 l       .text	00000000 is_exception
00005786 l       .text	00000000 as_yet_unhandled
00005928 l       .text	00000000 chip_specific_stack_frame
00000000 l    df *ABS*	00000000 event_groups.c
0000c2c0 l     O .text	00000014 __FUNCTION__.4579
0000c2d4 l     O .text	00000015 __FUNCTION__.4591
0000c2ec l     O .text	00000013 __FUNCTION__.4613
0000c300 l     O .text	00000010 __FUNCTION__.4562
0000c310 l     O .text	00000012 __FUNCTION__.4624
00000000 l    df *ABS*	00000000 list.c
00000000 l    df *ABS*	00000000 queue.c
00005f20 l     F .text	000000a4 prvCopyDataToQueue
00005fc4 l     F .text	0000001e prvCopyDataFromQueue
00005fe2 l     F .text	000000b6 prvUnlockQueue
0000613c l     F .text	000000b6 xQueueGenericCreate.part.2
0000c324 l     O .text	00000013 __FUNCTION__.4636
0000c338 l     O .text	00000014 __FUNCTION__.4646
0000c34c l     O .text	0000001c __FUNCTION__.4675
0000c368 l     O .text	0000001e __FUNCTION__.4697
0000c388 l     O .text	00000012 __FUNCTION__.4710
0000c39c l     O .text	00000019 __FUNCTION__.4682
0000c3b8 l     O .text	00000019 __FUNCTION__.4725
0000c3d4 l     O .text	00000012 __FUNCTION__.4739
0000c3e8 l     O .text	0000000e __FUNCTION__.4754
0000c3f8 l     O .text	00000014 __FUNCTION__.4768
0000c40c l     O .text	00000019 __FUNCTION__.4690
0000c428 l     O .text	0000000b __FUNCTION__.4785
0000c434 l     O .text	00000015 __FUNCTION__.4799
0000c44c l     O .text	00000012 __FUNCTION__.4813
0000c460 l     O .text	00000017 __FUNCTION__.4821
0000c478 l     O .text	00000017 __FUNCTION__.4828
0000c490 l     O .text	0000001e __FUNCTION__.4835
0000c4b0 l     O .text	0000000d __FUNCTION__.4841
0000c4c0 l     O .text	0000001a __FUNCTION__.4878
0000c4dc l     O .text	00000019 __FUNCTION__.4889
00000000 l    df *ABS*	00000000 stream_buffer.c
0000715a l     F .text	000000fa prvReadBytesFromBuffer
00007254 l     F .text	00000078 prvInitialiseNewStreamBuffer
000072cc l     F .text	000000b8 prvWriteBytesToBuffer.part.1
00007384 l     F .text	0000007c prvWriteMessageToBuffer
0000c4f8 l     O .text	00000017 __FUNCTION__.4328
0000c510 l     O .text	0000001d __FUNCTION__.4344
0000c530 l     O .text	00000016 __FUNCTION__.4315
0000c548 l     O .text	0000001b __FUNCTION__.4143
0000c564 l     O .text	00000014 __FUNCTION__.4151
0000c578 l     O .text	00000013 __FUNCTION__.4158
0000c58c l     O .text	0000001d __FUNCTION__.4166
0000c5ac l     O .text	0000001d __FUNCTION__.4173
0000c5cc l     O .text	0000001c __FUNCTION__.4180
0000c5e8 l     O .text	00000012 __FUNCTION__.4194
0000c5fc l     O .text	00000019 __FUNCTION__.4211
0000c618 l     O .text	00000015 __FUNCTION__.4234
0000c630 l     O .text	00000024 __FUNCTION__.4246
0000c654 l     O .text	0000001c __FUNCTION__.4259
0000c670 l     O .text	00000015 __FUNCTION__.4280
0000c688 l     O .text	00000014 __FUNCTION__.4288
0000c69c l     O .text	00000022 __FUNCTION__.4297
0000c6c0 l     O .text	00000025 __FUNCTION__.4306
00000000 l    df *ABS*	00000000 tasks.c
00007c86 l     F .text	00000066 prvSearchForNameWithinSingleList
00007cec l     F .text	0000000e prvResetNextTaskUnblockTime.part.0
20000a08 l     O .bss	00000004 pxDelayedTaskList
200009dc l     O .bss	00000004 xNextTaskUnblockTime
00007cfa l     F .text	0000009e prvAddCurrentTaskToDelayedList
200009f8 l     O .bss	00000004 xTickCount
20000a04 l     O .bss	00000004 pxOverflowDelayedTaskList
00007d98 l     F .text	00000010 vTaskEnterCritical.part.6
00007da8 l     F .text	00000018 vTaskExitCritical.part.7
00007dc0 l     F .text	00000070 prvIdleTask
20000a00 l     O .bss	00000004 uxDeletedTasksWaitingCleanUp
200009f0 l     O .bss	00000004 xSchedulerRunning
200009fc l     O .bss	00000004 uxCurrentNumberOfTasks
200009e0 l     O .bss	00000004 uxTaskNumber
200009f4 l     O .bss	00000004 uxTopReadyPriority
200009d4 l     O .bss	00000004 uxSchedulerSuspended
200009e8 l     O .bss	00000004 xYieldPending
200009d8 l     O .bss	00000004 xIdleTaskHandle
200009ec l     O .bss	00000004 xPendedTicks
200009e4 l     O .bss	00000004 xNumOfOverflows
20005ac4 l     O .bss	00000014 xSuspendedTaskList
20005ad8 l     O .bss	00000014 xTasksWaitingTermination
20005aec l     O .bss	0000008c pxReadyTasksLists
20005b78 l     O .bss	00000014 xDelayedTaskList1
20005b8c l     O .bss	00000014 xDelayedTaskList2
20005ba0 l     O .bss	00000014 xPendingReadyList
0000c710 l     O .text	0000000c __FUNCTION__.4608
0000c71c l     O .text	0000000e __FUNCTION__.4636
0000c72c l     O .text	00000011 __FUNCTION__.4661
0000c740 l     O .text	0000000c __FUNCTION__.4684
0000c74c l     O .text	00000013 __FUNCTION__.4692
0000c760 l     O .text	00000014 __FUNCTION__.4698
0000c774 l     O .text	0000000e __FUNCTION__.4735
0000c784 l     O .text	00000013 __FUNCTION__.4784
0000c798 l     O .text	0000000f __FUNCTION__.4711
0000c7a8 l     O .text	00000010 __FUNCTION__.4617
0000c7b8 l     O .text	0000000b __FUNCTION__.4626
0000c7c4 l     O .text	0000000f __FUNCTION__.4759
0000c7d4 l     O .text	00000012 __FUNCTION__.4767
0000c7e8 l     O .text	00000010 __FUNCTION__.4774
0000c7f8 l     O .text	00000013 __FUNCTION__.4794
0000c80c l     O .text	0000000d __FUNCTION__.4671
0000c81c l     O .text	00000016 __FUNCTION__.4804
0000c834 l     O .text	0000001f __FUNCTION__.4811
0000c854 l     O .text	00000020 __FUNCTION__.4819
0000c874 l     O .text	00000019 __FUNCTION__.4826
0000c890 l     O .text	00000022 __FUNCTION__.4833
0000c8b4 l     O .text	00000015 __FUNCTION__.4839
0000c8cc l     O .text	00000015 __FUNCTION__.4849
0000c8e4 l     O .text	00000018 __FUNCTION__.4902
0000c8fc l     O .text	00000024 __FUNCTION__.4913
0000c920 l     O .text	00000018 __FUNCTION__.4935
0000c938 l     O .text	00000017 __FUNCTION__.4945
0000c950 l     O .text	00000013 __FUNCTION__.4957
0000c964 l     O .text	0000001a __FUNCTION__.4981
0000c980 l     O .text	0000001e __FUNCTION__.5001
0000c9a0 l     O .text	0000001d __FUNCTION__.5011
00000000 l    df *ABS*	00000000 timers.c
00009b66 l     F .text	00000062 prvCheckForValidListAndQueue
20000a18 l     O .bss	00000004 xTimerQueue
20000a20 l     O .bss	00000004 pxCurrentTimerList
20000a1c l     O .bss	00000004 pxOverflowTimerList
00009bc8 l     F .text	00000050 prvInsertTimerInActiveList
20000a14 l     O .bss	00000004 xTimerTaskHandle
00009e2e l     F .text	0000022c prvTimerTask
00009d92 l     F .text	0000009c prvSwitchTimerLists
20000a10 l     O .bss	00000004 xLastTime.4791
20005bb4 l     O .bss	00000014 xActiveTimerList1
20005bc8 l     O .bss	00000014 xActiveTimerList2
0000c9e8 l     O .text	00000016 __FUNCTION__.4694
0000ca00 l     O .text	00000016 __FUNCTION__.4712
0000ca18 l     O .text	00000015 __FUNCTION__.4723
0000ca30 l     O .text	00000014 __FUNCTION__.4835
0000ca44 l     O .text	00000017 __FUNCTION__.4769
0000ca5c l     O .text	0000001b __FUNCTION__.4808
0000ca78 l     O .text	0000001f __FUNCTION__.4728
0000ca98 l     O .text	00000010 __FUNCTION__.4734
0000caa8 l     O .text	00000014 __FUNCTION__.4741
0000cabc l     O .text	00000015 __FUNCTION__.4748
0000cad4 l     O .text	00000014 __FUNCTION__.4755
0000cae8 l     O .text	0000000f __FUNCTION__.4761
0000caf8 l     O .text	00000014 __FUNCTION__.4848
0000cb0c l     O .text	00000012 __FUNCTION__.4855
0000cb20 l     O .text	00000011 __FUNCTION__.4862
0000cb34 l     O .text	00000017 __FUNCTION__.4880
00000000 l    df *ABS*	00000000 Main.c
00000000 l    df *ABS*	00000000 init.c
00000000 l    df *ABS*	00000000 memcpy.c
00000000 l    df *ABS*	00000000 printf.c
00000000 l    df *ABS*	00000000 putchar.c
00000000 l    df *ABS*	00000000 puts.c
00000000 l    df *ABS*	00000000 strlen.c
00000000 l    df *ABS*	00000000 vsprintf.c
00000000 l    df *ABS*	00000000 wbuf.c
00000000 l    df *ABS*	00000000 wsetup.c
00000000 l    df *ABS*	00000000 fflush.c
00000000 l    df *ABS*	00000000 findfp.c
0000ac4e l     F .text	0000006a std
00000000 l    df *ABS*	00000000 fwalk.c
00000000 l    df *ABS*	00000000 makebuf.c
00000000 l    df *ABS*	00000000 nano-mallocr.c
00000000 l    df *ABS*	00000000 nano-mallocr.c
00000000 l    df *ABS*	00000000 nano-vfprintf.c
00000000 l    df *ABS*	00000000 nano-vfprintf.c
0000b472 l     F .text	0000002a __sfputc_r
00000000 l    df *ABS*	00000000 nano-vfprintf_i.c
00000000 l    df *ABS*	00000000 putc.c
00000000 l    df *ABS*	00000000 sbrkr.c
00000000 l    df *ABS*	00000000 stdio.c
00000000 l    df *ABS*	00000000 writer.c
00000000 l    df *ABS*	00000000 closer.c
00000000 l    df *ABS*	00000000 fstatr.c
00000000 l    df *ABS*	00000000 isattyr.c
00000000 l    df *ABS*	00000000 lseekr.c
00000000 l    df *ABS*	00000000 memchr.c
00000000 l    df *ABS*	00000000 memmove.c
00000000 l    df *ABS*	00000000 mlock.c
00000000 l    df *ABS*	00000000 nano-mallocr.c
00000000 l    df *ABS*	00000000 readr.c
00000000 l    df *ABS*	00000000 nano-mallocr.c
00000000 l    df *ABS*	00000000 close.c
00000000 l    df *ABS*	00000000 fstat.c
00000000 l    df *ABS*	00000000 isatty.c
00000000 l    df *ABS*	00000000 lseek.c
00000000 l    df *ABS*	00000000 read.c
00000000 l    df *ABS*	00000000 sbrk.c
20000a2c l     O .bss	00000004 heap_end.1518
00000000 l    df *ABS*	00000000 impure.c
20000800 l     O .data	00000060 impure_data
00000000 l    df *ABS*	00000000 reent.c
00000000 l    df *ABS*	00000000 
0000d304 l       .fini	00000000 __init_array_end
0000d304 l       .fini	00000000 __preinit_array_end
0000d304 l       .fini	00000000 __init_array_start
0000d304 l       .fini	00000000 __preinit_array_start
0000be8e g     F .text	00000014 _malloc_usable_size_r
0000512a g     F .text	00000006 __set_MTVEC
0000a780 g     F .text	0000002a putchar
0000bd36 g     F .text	00000030 _isatty_r
0000506c g     F .text	00000024 UART1_SendString
0000a7aa g     F .text	000000da _puts_r
0000bd66 g     F .text	00000034 _lseek_r
00008ddc g     F .text	00000086 vTaskPlaceOnUnorderedEventList
000055ca g     F .text	00000006 xPortGetFreeHeapSize
00005be4 g     F .text	00000004 xEventGroupGetBitsFromISR
00005124 g     F .text	00000006 __get_MTVEC
00000800 g       *ABS*	00000000 STACK_SIZE
0000820c g     F .text	0000003e uxTaskPriorityGet
00009c72 g     F .text	0000008e xTimerCreate
0000a740 g     F .text	00000040 printf
20001060 g       .data	00000000 __global_pointer$
0000a8d0 g     F .text	00000010 vsprintf
00008ace g     F .text	000000d4 xTaskAbortDelay
0000bc62 g     F .text	00000036 __sseek
0000ad08 g     F .text	00000070 __sinit
0000a8e0 g     F .text	000000c0 __swbuf_r
2000010c g     F .highcode	00000010 mDelayuS
000050ca  w    F .text	00000012 HardFault_Handler
000070ee g     F .text	0000006c vQueueWaitForMessageRestricted
0000acc2 g     F .text	00000046 __sfmoreglue
00007864 g     F .text	00000164 xStreamBufferReceive
00005184 g     F .text	00000006 __get_MINSTRET
000050ca  w    F .text	00000012 GPIOB_IRQHandler
0000be00 g     F .text	00000002 __malloc_unlock
0000889e g     F .text	000000d0 xTaskDelayUntil
000045f0 g       .text	00000000 vRegTest1Implementation
000050ca  w    F .text	00000012 GPIOA_IRQHandler
000003c8  w      .text	00000000 IllegalInstruction_Handler
0000a3ac g     F .text	0000002e SysTick_Handler
00005090 g     F .text	0000003a UART1_RecvString
00005cd4 g     F .text	00000150 xEventGroupSync
0000bdb4 g     F .text	0000004a memmove
00009b08 g     F .text	0000005e ulTaskGenericNotifyValueClear
00002e88 g     F .text	000002a0 vStartTimerDemoTask
00003dd4 g     F .text	00000054 xAreBlockTimeTestTasksStillRunning
000093fe g     F .text	00000010 vTaskEnterCritical
000050f4 g     F .text	00000006 __get_FCSR
00006562 g     F .text	00000140 xQueueGenericSendFromISR
000085ae g     F .text	0000003a pcTaskGetName
000050ca  w    F .text	00000012 NMI_Handler
0000a318 g     F .text	00000022 vToggleLED
000003b0  w    F .text	00000018 IRQ_Handler
000075b6 g     F .text	00000042 xStreamBufferSpacesAvailable
000050ca  w    F .text	00000012 UART1_IRQHandler
00007514 g     F .text	00000062 xStreamBufferReset
00005100 g     F .text	00000006 __get_MSTATUS
000064fc g     F .text	00000066 xQueueGiveMutexRecursive
000044e6 g     F .text	00000084 vStartRecursiveMutexTasks
20000a0c g     O .bss	00000004 pxCurrentTCB
00005210 g     F .text	0000003e log_print
0000bd04 g     F .text	00000032 _fstat_r
20005c20 g     O .bss	00000004 errno
20000884 g       .bss	00000000 _sbss
0000779c g     F .text	000000c8 xStreamBufferSendFromISR
0000519c g     F .text	00000006 __get_MVENDORID
00008258 g     F .text	00000118 vTaskPrioritySet
00003198 g     F .text	000007c6 vTimerPeriodicISRTests
0000511e g     F .text	00000006 __set_MIE
00009088 g     F .text	0000000e vTaskInternalSetTimeOutState
000059e8 g     F .text	00000178 xEventGroupWaitBits
0000529e g     F .text	00000050 log_info
00004c12 g     F .text	000000d2 GPIOA_ITModeCfg
00004ea8 g     F .text	00000014 SYS_RecoverIrq
000050ca  w    F .text	00000012 UART0_IRQHandler
0000565c g     F .text	00000082 xPortStartScheduler
00008584 g     F .text	0000000c vTaskEndScheduler
0000a68a g     F .text	000000b6 memcpy
00008d92 g     F .text	0000004a vTaskPlaceOnEventList
00008f5c g     F .text	000000ba vTaskRemoveFromUnorderedEventList
0000456a g     F .text	0000007e xAreRecursiveMutexTasksStillRunning
000051a8 g     F .text	00000006 __get_MIMPID
0000acb8 g     F .text	0000000a _cleanup_r
0000b1f2 g     F .text	00000280 _svfprintf_r
0000a374 g     F .text	00000028 vPortSetupTimerInterrupt
00006e34 g     F .text	000000ae xQueuePeekFromISR
00004f46 g     F .text	00000028 WWDG_ClearFlag
000046f0 g       .text	00000000 vRegTest2Implementation
0000a884 g     F .text	0000000c puts
00005528 g     F .text	000000a2 vPortFree
0000a19e g     F .text	00000030 pcTimerGetName
20006430 g       .stack	00000000 __freertos_irq_stack_top
000050e2 g     F .text	00000006 __set_FFLAGS
0000a8a2 g     F .text	0000002e _vsiprintf_r
00006942 g     F .text	000001fa xQueueSemaphoreTake
0000a2c6 g     F .text	00000052 xTimerPendFunctionCall
00004ddc g     F .text	0000001e GPIOAGPPCfg
00005034 g     F .text	0000002a UART1_INTCfg
0000beb2 g     F .text	00000010 _fstat
00000004 g       .init	00000000 _einit
00006220 g     F .text	00000030 xQueueGetMutexHolder
00005eaa g     F .text	00000018 vListInsertEnd
0000040c  w    F .text	00000004 LSU_HandlerFunc
00009450 g     F .text	000000ea ulTaskGenericNotifyTake
000050ca  w    F .text	00000012 BB_IRQHandler
00000bc2 g     F .text	00000054 xAreAbortDelayTestTasksStillRunning
000059c6 g     F .text	00000022 xEventGroupCreate
000050ca  w    F .text	00000012 Break_Point_Handler
00004b4e g     F .text	000000c4 GPIOB_ModeCfg
00004106 g     F .text	000000d2 vStartDynamicPriorityTasks
0000bbb4 g     F .text	00000030 _sbrk_r
000003dc  w      .text	00000000 Ecall_Handler
00005e8c g     F .text	00000002 vEventGroupSetBitsCallback
0000501a g     F .text	0000001a UART1_ByteTrigCfg
00008442 g     F .text	000000b4 xTaskResumeFromISR
0000a3da g     F .text	0000001e TMR0_IRQHandler
0000be5a g     F .text	00000034 _read_r
00005ea4 g     F .text	00000006 vListInitialiseItem
000089c4 g     F .text	000000c2 xTaskGetHandle
000067ae g     F .text	00000194 xQueueReceive
20005be0 g     O .bss	00000040 xQueueRegistry
00004ce4 g     F .text	000000da GPIOB_ITModeCfg
0000824a g     F .text	0000000e uxTaskPriorityGetFromISR
200009ac g     O .bss	00000004 ulRegTest1LoopCounter
00004f06 g     F .text	00000040 WWDG_ResetCfg
00004ec6 g     F .text	00000040 WWDG_ITCfg
2000011c g     F .highcode	0000001c mDelaymS
000050ca  w    F .text	00000012 Ecall_M_Mode_Handler
00007096 g     F .text	0000002a pcQueueGetName
0000a122 g     F .text	0000004c uxTimerGetReloadMode
0000bec2 g     F .text	00000010 _isatty
0000a08c g     F .text	00000030 xTimerGetPeriod
0000d300 g     O .text	00000004 _global_impure_ptr
00005be8 g     F .text	000000ec xEventGroupSetBits
0000531a g     F .text	00000036 DEBUG_Init
0000be02 g     F .text	00000058 _realloc_r
0000514e g     F .text	00000006 __set_MCAUSE
0000a61c g     F .text	0000006e __libc_init_array
0000a8d0 g     F .text	00000010 vsiprintf
000003f0  w      .text	00000000 LSU_Handler
0000bef2 g     F .text	00000024 _sbrk
00005398 g     F .text	00000190 pvPortMalloc
000049e6 g     F .text	00000090 main_full
00005142 g     F .text	00000006 __set_MEPC
000050ee g     F .text	00000006 __set_FRM
000002b4 g       .text	00000000 _init
00006fa0 g     F .text	0000005e vQueueDelete
000056de g     F .text	00000002 vPortEndScheduler
00005e90 g     F .text	00000014 vListInitialise
00007b5e g     F .text	00000038 xStreamBufferIsEmpty
00005196 g     F .text	00000006 __set_MINSTRETH
00001352 g     F .text	000000f2 vStartEventGroupTasks
0000859c g     F .text	00000006 xTaskGetTickCount
000062f4 g     F .text	000001da xQueueGenericSend
000050ca  w    F .text	00000012 RTC_IRQHandler
00007638 g     F .text	00000164 xStreamBufferSend
20005c24 g       .bss	00000000 _ebss
00004e40 g     F .text	00000024 SYS_GetInfoSta
00007c32 g     F .text	00000054 xStreamBufferReceiveCompletedFromISR
00005166 g     F .text	00000006 __set_MIP
00004f96 g     F .text	0000004e UART1_DefInit
00009966 g     F .text	00000112 vTaskGenericNotifyGiveFromISR
000079c8 g     F .text	000000a2 xStreamBufferNextMessageLengthBytes
00009258 g     F .text	000000c0 xTaskPriorityDisinherit
00005700 g       .text	00000000 freertos_risc_v_trap_handler
0000505e g     F .text	0000000e UART1_Reset
0000bb2e g     F .text	00000086 _putc_r
00005190 g     F .text	00000006 __get_MINSTRETH
0000515a g     F .text	00000006 __set_MTVAL
00008eb6 g     F .text	000000a6 xTaskRemoveFromEventList
0000a33e g     F .text	00000018 vApplicationMallocFailedHook
00001532 g     F .text	00000064 xAreEventGroupTasksStillRunning
0000a370 g     F .text	00000004 vApplicationTickHook
00005b60 g     F .text	00000084 xEventGroupClearBits
00006baa g     F .text	0000018c xQueuePeek
0000524e g     F .text	00000050 log_debug
0000d264 g     O .text	00000020 __sf_fake_stderr
00002344 g     F .text	0000003e vStartTaskNotifyTask
20005c24 g       .bss	00000000 end
20000880 g     O .data	00000004 xISRStackTop
00007a6a g     F .text	000000f4 xStreamBufferReceiveFromISR
000051a2 g     F .text	00000006 __get_MARCHID
0000805a g     F .text	000000f6 vTaskDelete
0000248a g     F .text	00000054 xAreTaskNotificationTasksStillRunning
000050ca  w    F .text	00000012 UART2_IRQHandler
000050ca  w    F .text	00000012 PWMX_IRQHandler
000070c0 g     F .text	0000002e vQueueUnregisterQueue
0000b104 g     F .text	000000ee __ssputs_r
0000943a g     F .text	00000016 pvTaskIncrementMutexHeldCount
00000400 g       *ABS*	00000000 HEAP_SIZE
0000b49c g     F .text	00000044 __sfputs_r
0000bd9a g     F .text	0000001a memchr
00009096 g     F .text	000000f2 xTaskCheckForTimeOut
0000af82 g     F .text	000000a8 _free_r
000091aa g     F .text	000000ae xTaskPriorityInherit
000052ee g     F .text	0000002c Device_Info
0000953a g     F .text	0000011a xTaskGenericNotifyWait
000074d2 g     F .text	00000042 vStreamBufferDelete
00002382 g     F .text	00000108 xNotifyTaskFromISR
00000000 g       .init	00000000 _start
00008590 g     F .text	0000000c vTaskSuspendAll
00008150 g     F .text	000000bc eTaskGetState
00005106 g     F .text	00000006 __set_MSTATUS
00007b96 g     F .text	00000048 xStreamBufferIsFull
0000510c g     F .text	00000006 __get_MISA
000085a2 g     F .text	00000006 xTaskGetTickCountFromISR
0000bed2 g     F .text	00000010 _lseek
00005ef2 g     F .text	0000002e uxListRemove
00000404  w    F .text	00000004 IllegalInstruction_HandlerFunc
000050ca  w    F .text	00000012 ADC_IRQHandler
20000000 g       .highcode	00000000 _highcode_vma_start
00005112 g     F .text	00000006 __set_MISA
00007400 g     F .text	000000d2 xStreamBufferGenericCreate
00008370 g     F .text	000000d2 vTaskResume
000050dc g     F .text	00000006 __get_FFLAGS
200009a8 g     O .bss	00000004 ulRegTest2LoopCounter
00008ba2 g     F .text	000000c8 vTaskSwitchContext
000050ca  w    F .text	00000012 TMR2_IRQHandler
0000a0bc g     F .text	00000066 vTimerSetReloadMode
000051ae g     F .text	00000006 __get_MHARTID
00008e62 g     F .text	00000054 vTaskPlaceOnEventListRestricted
00005148 g     F .text	00000006 __get_MCAUSE
00005172 g     F .text	00000006 __set_MCYCLE
0000bcd4 g     F .text	00000030 _close_r
20000800 g       .data	00000000 _data_vma
20000000 g     F .highcode	0000010c SetSysClock
000050ca  w    F .text	00000012 USB_IRQHandler
00009d00 g     F .text	00000092 xTimerGenericCommand
0000a9a0 g     F .text	0000010c __swsetup_r
0000a358 g     F .text	00000018 vApplicationStackOverflowHook
00008c6a g     F .text	00000128 vTaskSuspend
0000ad78 g     F .text	000000a4 __sfp
00008a86 g     F .text	00000048 xTaskCatchUpTicks
000085a8 g     F .text	00000006 uxTaskGetNumberOfTasks
0000a2a2 g     F .text	00000024 xTimerPendFunctionCallFromISR
0000bbe4 g     F .text	00000030 __sread
0000bdfe g     F .text	00000002 __malloc_lock
00005154 g     F .text	00000006 __get_MTVAL
00006b3c g     F .text	0000006e xQueueTakeMutexRecursive
0000513c g     F .text	00000006 __get_MEPC
0000abe8 g     F .text	00000066 _fflush_r
00005e24 g     F .text	00000068 vEventGroupDelete
0000d284 g     O .text	00000020 __sf_fake_stdin
00009654 g     F .text	00000194 xTaskGenericNotify
00004dbe g     F .text	0000001e GPIOPinRemap
0000a3f8 g     F .text	000000a8 memset
0000a5be g     F .text	0000005e main
00003d64 g     F .text	00000070 vCreateBlockTimeTasks
00005ec2 g     F .text	00000030 vListInsert
00000410 g       .text	00000000 __user_vector
0000bc98 g     F .text	00000006 __sclose
00009c18 g     F .text	0000005a xTimerCreateTimerTask
0000b02a g     F .text	000000da _malloc_r
00006d36 g     F .text	000000fe xQueueReceiveFromISR
00009190 g     F .text	00000006 xTaskGetCurrentTaskHandle
0000516c g     F .text	00000006 __get_MCYCLE
000061f2 g     F .text	0000002e xQueueGenericCreate
00005130 g     F .text	00000006 __get_MSCRATCH
0000a4a0 g     F .text	0000011e strcmp
00006288 g     F .text	0000006c xQueueCreateCountingSemaphore
00007576 g     F .text	00000040 xStreamBufferSetTriggerLevel
00000094 g       .highcodelalign	00000000 _highcode_lma
000051f4 g     F .text	0000001c SystemInit
00004a76 g     F .text	00000014 vFullDemoTickHook
000097e8 g     F .text	0000017e xTaskGenericNotifyFromISR
000002b4 g       .text	00000000 _fini
0000a740 g     F .text	00000040 iprintf
00000410 g     O .text	00000090 isrTable
00008768 g     F .text	00000136 xTaskResumeAll
2000086c g     O .data	00000004 uxTopUsedPriority
00006f26 g     F .text	0000004a uxQueueSpacesAvailable
000084f6 g     F .text	0000008e vTaskStartScheduler
000050ca  w    F .text	00000012 LLE_IRQHandler
00000000 g       .init	00000000 _sinit
0000a33a g     F .text	00000004 vSendString
0000bc9e g     F .text	00000036 _write_r
0000a8a2 g     F .text	0000002e _vsprintf_r
00005800 g       .text	00000000 xPortStartFirstTask
00007034 g     F .text	0000003a xQueueIsQueueFullFromISR
0000a218 g     F .text	00000044 pvTimerGetTimerID
20006428 g       .stack	00000000 __StackTop
0000b77e g     F .text	0000010c _printf_common
20000870 g     O .data	00000004 _impure_ptr
000050e8 g     F .text	00000006 __get_FRM
0000a16e g     F .text	00000030 xTimerGetExpiryTime
0000aaac g     F .text	0000013c __sflush_r
0000b1f2 g     F .text	00000280 _svfiprintf_r
000050ca  w    F .text	00000012 WDOG_BAT_IRQHandler
000050ca  w    F .text	00000012 Ecall_U_Mode_Handler
00009188 g     F .text	00000008 vTaskMissedYield
000050ca  w    F .text	00000012 TMR3_IRQHandler
0000a39c g     F .text	00000010 SystemIrqHandler
000050ca  w    F .text	00000012 SW_Handler
00006ee2 g     F .text	00000044 uxQueueMessagesWaiting
0000706e g     F .text	00000028 vQueueAddToRegistry
00004a8a g     F .text	000000c4 GPIOA_ModeCfg
000085e8 g     F .text	00000180 xTaskIncrementTick
0000ae88 g     F .text	0000005a __swhatbuf_r
00003128 g     F .text	00000070 xAreTimerDemoTasksStillRunning
00004e8c g     F .text	0000001c SYS_DisableAllIrq
00004dfa g     F .text	00000046 GetSysClock
00001444 g     F .text	000000ee vPeriodicEventGroupsProcessing
00005160 g     F .text	00000006 __get_MIP
00006098 g     F .text	000000a4 xQueueGenericReset
000050fa g     F .text	00000006 __set_FCSR
0000a25c g     F .text	00000046 vTimerSetTimerID
00004f6e g     F .text	00000028 _write
20000884 g       .data	00000000 _edata
000051b4  w    F .text	00000002 SystemInitHook
000050ca  w    F .text	00000012 SPI0_IRQHandler
20000138 g       .highcode	00000000 _highcode_vma_end
00000004 g       .vectors	00000000 __VECTOR_TABLE
00007e30 g     F .text	0000022a xTaskCreate
0000d304 g       .dlalign	00000000 _data_lma
000055d6 g     F .text	00000002 vPortInitialiseBlocks
00009a78 g     F .text	00000090 xTaskGenericNotifyStateClear
20005c28 g       .stack	00000000 __StackLimit
0000a1ce g     F .text	0000004a xTimerIsTimerActive
0000bc14 g     F .text	0000004e __swrite
0000518a g     F .text	00000006 __set_MINSTRET
0000b4e0 g     F .text	0000029e _vfiprintf_r
0000ae1c g     F .text	0000006c _fwalk_reent
2000087c g     O .data	00000004 uxTimerIncrementsForOneTick
00000b7e g     F .text	00000044 vCreateAbortDelayTasks
0000896e g     F .text	00000056 vTaskDelay
0000517e g     F .text	00000006 __set_MCYCLEH
0000d2a4 g     O .text	00000020 __sf_fake_stdout
00004ebc g     F .text	0000000a SYS_GetSysTickCnt
00009196 g     F .text	00000014 xTaskGetSchedulerState
00009318 g     F .text	000000e6 vTaskPriorityDisinheritAfterTimeout
0000bee2 g     F .text	00000010 _read
20005bdc g     O .bss	00000004 xSuspendedTestQueue
00000408  w    F .text	00000004 Ecall_HandlerFunc
0000aee2 g     F .text	000000a0 __smakebuf_r
0000940e g     F .text	00000014 vTaskExitCritical
000041d8 g     F .text	00000068 xAreDynamicPriorityTasksStillRunning
0000a890 g     F .text	00000012 strlen
00005900 g       .text	00000000 pxPortInitialiseStack
0000b88a g     F .text	000002a4 _printf_i
000050ca  w    F .text	00000012 UART3_IRQHandler
00006250 g     F .text	00000038 xQueueGetMutexHolderFromISR
20000a28 g     O .bss	00000004 __malloc_sbrk_start
000055d8 g     F .text	00000084 vPortGetHeapStats
00009016 g     F .text	00000072 vTaskSetTimeOutState
0000a05a g     F .text	00000032 xTimerGetTimerDaemonTaskHandle
20000a24 g     O .bss	00000004 __malloc_free_list
00006f70 g     F .text	00000030 uxQueueMessagesWaitingFromISR
00006ffe g     F .text	00000036 xQueueIsQueueEmptyFromISR
000075f8 g     F .text	00000040 xStreamBufferBytesAvailable
0000b4e0 g     F .text	0000029e _vfprintf_r
000050ca  w    F .text	00000012 TMR1_IRQHandler
20000878 g     O .data	00000004 ullMachineTimerCompareRegisterBase
00005118 g     F .text	00000006 __get_MIE
00009422 g     F .text	00000018 uxTaskResetEventItemValue
000064ce g     F .text	0000002e xQueueCreateMutex
00004e64 g     F .text	00000028 SYS_ResetExecute
00005e8e g     F .text	00000002 vEventGroupClearBitsCallback
000055d0 g     F .text	00000006 xPortGetMinimumEverFreeHeapSize
00007bde g     F .text	00000054 xStreamBufferSendCompletedFromISR
00005178 g     F .text	00000006 __get_MCYCLEH
000066a2 g     F .text	0000010c xQueueGiveFromISR
0000bea2 g     F .text	00000010 _close
00005136 g     F .text	00000006 __set_MSCRATCH
00004fe4 g     F .text	00000036 UART1_BaudRateCfg
0000a356 g     F .text	00000002 vApplicationIdleHook



Disassembly of section .init:

00000000 <_sinit>:
_start():
E:/9 Mytest/Free_RTOS/EXAM/Demo/RISC-V-CH58x_Eclipse_GCC/common/CH58x_sdk/Startup/startup_CH573.S:35

	.section	.init,"ax",@progbits
	.global	_start
	.align	1
_start:
	j	Reset_Handler
   0:	2000006f          	j	200 <Reset_Handler>

Disassembly of section .vectors:

00000004 <__VECTOR_TABLE>:
__VECTOR_TABLE():
E:/9 Mytest/Free_RTOS/EXAM/Demo/RISC-V-CH58x_Eclipse_GCC/common/CH58x_sdk/Startup/startup_CH573.S:41

    .text
    .section .vectors, "ax"
    .option norvc;

 	jal x0, freertos_risc_v_trap_handler
   4:	6fc0506f          	j	5700 <freertos_risc_v_trap_handler>
E:/9 Mytest/Free_RTOS/EXAM/Demo/RISC-V-CH58x_Eclipse_GCC/common/CH58x_sdk/Startup/startup_CH573.S:42
    jal x0, freertos_risc_v_trap_handler
   8:	6f80506f          	j	5700 <freertos_risc_v_trap_handler>
E:/9 Mytest/Free_RTOS/EXAM/Demo/RISC-V-CH58x_Eclipse_GCC/common/CH58x_sdk/Startup/startup_CH573.S:43
    jal x0, freertos_risc_v_trap_handler
   c:	6f40506f          	j	5700 <freertos_risc_v_trap_handler>
E:/9 Mytest/Free_RTOS/EXAM/Demo/RISC-V-CH58x_Eclipse_GCC/common/CH58x_sdk/Startup/startup_CH573.S:44
    jal x0, freertos_risc_v_trap_handler
  10:	6f00506f          	j	5700 <freertos_risc_v_trap_handler>
E:/9 Mytest/Free_RTOS/EXAM/Demo/RISC-V-CH58x_Eclipse_GCC/common/CH58x_sdk/Startup/startup_CH573.S:45
    jal x0, freertos_risc_v_trap_handler
  14:	6ec0506f          	j	5700 <freertos_risc_v_trap_handler>
E:/9 Mytest/Free_RTOS/EXAM/Demo/RISC-V-CH58x_Eclipse_GCC/common/CH58x_sdk/Startup/startup_CH573.S:46
    jal x0, freertos_risc_v_trap_handler
  18:	6e80506f          	j	5700 <freertos_risc_v_trap_handler>
E:/9 Mytest/Free_RTOS/EXAM/Demo/RISC-V-CH58x_Eclipse_GCC/common/CH58x_sdk/Startup/startup_CH573.S:47
    jal x0, freertos_risc_v_trap_handler
  1c:	6e40506f          	j	5700 <freertos_risc_v_trap_handler>
E:/9 Mytest/Free_RTOS/EXAM/Demo/RISC-V-CH58x_Eclipse_GCC/common/CH58x_sdk/Startup/startup_CH573.S:48
    jal x0, freertos_risc_v_trap_handler
  20:	6e00506f          	j	5700 <freertos_risc_v_trap_handler>
E:/9 Mytest/Free_RTOS/EXAM/Demo/RISC-V-CH58x_Eclipse_GCC/common/CH58x_sdk/Startup/startup_CH573.S:49
    jal x0, freertos_risc_v_trap_handler
  24:	6dc0506f          	j	5700 <freertos_risc_v_trap_handler>
E:/9 Mytest/Free_RTOS/EXAM/Demo/RISC-V-CH58x_Eclipse_GCC/common/CH58x_sdk/Startup/startup_CH573.S:50
    jal x0, freertos_risc_v_trap_handler
  28:	6d80506f          	j	5700 <freertos_risc_v_trap_handler>
E:/9 Mytest/Free_RTOS/EXAM/Demo/RISC-V-CH58x_Eclipse_GCC/common/CH58x_sdk/Startup/startup_CH573.S:51
    jal x0, freertos_risc_v_trap_handler
  2c:	6d40506f          	j	5700 <freertos_risc_v_trap_handler>
E:/9 Mytest/Free_RTOS/EXAM/Demo/RISC-V-CH58x_Eclipse_GCC/common/CH58x_sdk/Startup/startup_CH573.S:52
    jal x0, freertos_risc_v_trap_handler
  30:	6d00506f          	j	5700 <freertos_risc_v_trap_handler>
E:/9 Mytest/Free_RTOS/EXAM/Demo/RISC-V-CH58x_Eclipse_GCC/common/CH58x_sdk/Startup/startup_CH573.S:53
    jal x0, freertos_risc_v_trap_handler
  34:	6cc0506f          	j	5700 <freertos_risc_v_trap_handler>
E:/9 Mytest/Free_RTOS/EXAM/Demo/RISC-V-CH58x_Eclipse_GCC/common/CH58x_sdk/Startup/startup_CH573.S:54
    jal x0, freertos_risc_v_trap_handler
  38:	6c80506f          	j	5700 <freertos_risc_v_trap_handler>
E:/9 Mytest/Free_RTOS/EXAM/Demo/RISC-V-CH58x_Eclipse_GCC/common/CH58x_sdk/Startup/startup_CH573.S:55
    jal x0, freertos_risc_v_trap_handler
  3c:	6c40506f          	j	5700 <freertos_risc_v_trap_handler>
E:/9 Mytest/Free_RTOS/EXAM/Demo/RISC-V-CH58x_Eclipse_GCC/common/CH58x_sdk/Startup/startup_CH573.S:56
    jal x0, freertos_risc_v_trap_handler
  40:	6c00506f          	j	5700 <freertos_risc_v_trap_handler>
E:/9 Mytest/Free_RTOS/EXAM/Demo/RISC-V-CH58x_Eclipse_GCC/common/CH58x_sdk/Startup/startup_CH573.S:57
    jal x0, freertos_risc_v_trap_handler
  44:	6bc0506f          	j	5700 <freertos_risc_v_trap_handler>
E:/9 Mytest/Free_RTOS/EXAM/Demo/RISC-V-CH58x_Eclipse_GCC/common/CH58x_sdk/Startup/startup_CH573.S:58
    jal x0, freertos_risc_v_trap_handler
  48:	6b80506f          	j	5700 <freertos_risc_v_trap_handler>
E:/9 Mytest/Free_RTOS/EXAM/Demo/RISC-V-CH58x_Eclipse_GCC/common/CH58x_sdk/Startup/startup_CH573.S:59
    jal x0, freertos_risc_v_trap_handler
  4c:	6b40506f          	j	5700 <freertos_risc_v_trap_handler>
E:/9 Mytest/Free_RTOS/EXAM/Demo/RISC-V-CH58x_Eclipse_GCC/common/CH58x_sdk/Startup/startup_CH573.S:60
    jal x0, freertos_risc_v_trap_handler
  50:	6b00506f          	j	5700 <freertos_risc_v_trap_handler>
E:/9 Mytest/Free_RTOS/EXAM/Demo/RISC-V-CH58x_Eclipse_GCC/common/CH58x_sdk/Startup/startup_CH573.S:61
    jal x0, freertos_risc_v_trap_handler
  54:	6ac0506f          	j	5700 <freertos_risc_v_trap_handler>
E:/9 Mytest/Free_RTOS/EXAM/Demo/RISC-V-CH58x_Eclipse_GCC/common/CH58x_sdk/Startup/startup_CH573.S:62
    jal x0, freertos_risc_v_trap_handler
  58:	6a80506f          	j	5700 <freertos_risc_v_trap_handler>
E:/9 Mytest/Free_RTOS/EXAM/Demo/RISC-V-CH58x_Eclipse_GCC/common/CH58x_sdk/Startup/startup_CH573.S:63
    jal x0, freertos_risc_v_trap_handler
  5c:	6a40506f          	j	5700 <freertos_risc_v_trap_handler>
E:/9 Mytest/Free_RTOS/EXAM/Demo/RISC-V-CH58x_Eclipse_GCC/common/CH58x_sdk/Startup/startup_CH573.S:64
    jal x0, freertos_risc_v_trap_handler
  60:	6a00506f          	j	5700 <freertos_risc_v_trap_handler>
E:/9 Mytest/Free_RTOS/EXAM/Demo/RISC-V-CH58x_Eclipse_GCC/common/CH58x_sdk/Startup/startup_CH573.S:65
    jal x0, freertos_risc_v_trap_handler
  64:	69c0506f          	j	5700 <freertos_risc_v_trap_handler>
E:/9 Mytest/Free_RTOS/EXAM/Demo/RISC-V-CH58x_Eclipse_GCC/common/CH58x_sdk/Startup/startup_CH573.S:66
    jal x0, freertos_risc_v_trap_handler
  68:	6980506f          	j	5700 <freertos_risc_v_trap_handler>
E:/9 Mytest/Free_RTOS/EXAM/Demo/RISC-V-CH58x_Eclipse_GCC/common/CH58x_sdk/Startup/startup_CH573.S:67
    jal x0, freertos_risc_v_trap_handler
  6c:	6940506f          	j	5700 <freertos_risc_v_trap_handler>
E:/9 Mytest/Free_RTOS/EXAM/Demo/RISC-V-CH58x_Eclipse_GCC/common/CH58x_sdk/Startup/startup_CH573.S:68
    jal x0, freertos_risc_v_trap_handler
  70:	6900506f          	j	5700 <freertos_risc_v_trap_handler>
E:/9 Mytest/Free_RTOS/EXAM/Demo/RISC-V-CH58x_Eclipse_GCC/common/CH58x_sdk/Startup/startup_CH573.S:69
    jal x0, freertos_risc_v_trap_handler
  74:	68c0506f          	j	5700 <freertos_risc_v_trap_handler>
E:/9 Mytest/Free_RTOS/EXAM/Demo/RISC-V-CH58x_Eclipse_GCC/common/CH58x_sdk/Startup/startup_CH573.S:70
    jal x0, freertos_risc_v_trap_handler
  78:	6880506f          	j	5700 <freertos_risc_v_trap_handler>
E:/9 Mytest/Free_RTOS/EXAM/Demo/RISC-V-CH58x_Eclipse_GCC/common/CH58x_sdk/Startup/startup_CH573.S:71
    jal x0, freertos_risc_v_trap_handler
  7c:	6840506f          	j	5700 <freertos_risc_v_trap_handler>
E:/9 Mytest/Free_RTOS/EXAM/Demo/RISC-V-CH58x_Eclipse_GCC/common/CH58x_sdk/Startup/startup_CH573.S:72
    jal x0, freertos_risc_v_trap_handler
  80:	6800506f          	j	5700 <freertos_risc_v_trap_handler>
E:/9 Mytest/Free_RTOS/EXAM/Demo/RISC-V-CH58x_Eclipse_GCC/common/CH58x_sdk/Startup/startup_CH573.S:75

    // reset vector
    jal x0, Reset_Handler
  84:	17c0006f          	j	200 <Reset_Handler>
E:/9 Mytest/Free_RTOS/EXAM/Demo/RISC-V-CH58x_Eclipse_GCC/common/CH58x_sdk/Startup/startup_CH573.S:78

    // Illegal instrution exception
    jal x0, IllegalInstruction_Handler
  88:	3400006f          	j	3c8 <IllegalInstruction_Handler>
E:/9 Mytest/Free_RTOS/EXAM/Demo/RISC-V-CH58x_Eclipse_GCC/common/CH58x_sdk/Startup/startup_CH573.S:81

    // ecall handler
    jal x0, freertos_risc_v_trap_handler
  8c:	6740506f          	j	5700 <freertos_risc_v_trap_handler>
E:/9 Mytest/Free_RTOS/EXAM/Demo/RISC-V-CH58x_Eclipse_GCC/common/CH58x_sdk/Startup/startup_CH573.S:84

    // LSU error
    jal x0, LSU_Handler
  90:	3600006f          	j	3f0 <LSU_Handler>

Disassembly of section .highcode:

20000000 <SetSysClock>:
SetSysClock():
E:/9 Mytest/Free_RTOS/EXAM/Demo/RISC-V-CH58x_Eclipse_GCC/common/CH58x_sdk/StdPeriphDriver/CH58x_sys.c:23
__attribute__((section(".highcode")))
void SetSysClock( SYS_CLKTypeDef sc)
{
  UINT32 i;

  if ( sc & 0x20 ){    // HSE div
20000000:	02057793          	andi	a5,a0,32
20000004:	cfbd                	beqz	a5,20000082 <SetSysClock+0x82>
E:/9 Mytest/Free_RTOS/EXAM/Demo/RISC-V-CH58x_Eclipse_GCC/common/CH58x_sdk/StdPeriphDriver/CH58x_sys.c:24
    if ( !( R8_HFCK_PWR_CTRL & RB_CLK_XT32M_PON ) ){
20000006:	40001737          	lui	a4,0x40001
2000000a:	00a74783          	lbu	a5,10(a4) # 4000100a <__freertos_irq_stack_top+0x1fffabda>
2000000e:	8b91                	andi	a5,a5,4
20000010:	e79d                	bnez	a5,2000003e <SetSysClock+0x3e>
E:/9 Mytest/Free_RTOS/EXAM/Demo/RISC-V-CH58x_Eclipse_GCC/common/CH58x_sdk/StdPeriphDriver/CH58x_sys.c:25
      R8_SAFE_ACCESS_SIG = SAFE_ACCESS_SIG1;
20000012:	05700793          	li	a5,87
20000016:	04f70023          	sb	a5,64(a4)
E:/9 Mytest/Free_RTOS/EXAM/Demo/RISC-V-CH58x_Eclipse_GCC/common/CH58x_sdk/StdPeriphDriver/CH58x_sys.c:26
      R8_SAFE_ACCESS_SIG = SAFE_ACCESS_SIG2;__nop();__nop();
2000001a:	fa800793          	li	a5,-88
2000001e:	04f70023          	sb	a5,64(a4)
20000022:	0001                	nop
20000024:	0001                	nop
E:/9 Mytest/Free_RTOS/EXAM/Demo/RISC-V-CH58x_Eclipse_GCC/common/CH58x_sdk/StdPeriphDriver/CH58x_sys.c:27
      R8_HFCK_PWR_CTRL |= RB_CLK_XT32M_PON;    // HSE power on
20000026:	00a74683          	lbu	a3,10(a4)
2000002a:	4b000793          	li	a5,1200
2000002e:	0046e693          	ori	a3,a3,4
20000032:	00d70523          	sb	a3,10(a4)
E:/9 Mytest/Free_RTOS/EXAM/Demo/RISC-V-CH58x_Eclipse_GCC/common/CH58x_sdk/StdPeriphDriver/CH58x_sys.c:28 (discriminator 3)
      for(i=0;i<1200;i++){  __nop();__nop();  }
20000036:	0001                	nop
20000038:	0001                	nop
2000003a:	17fd                	addi	a5,a5,-1
2000003c:	ffed                	bnez	a5,20000036 <SetSysClock+0x36>
E:/9 Mytest/Free_RTOS/EXAM/Demo/RISC-V-CH58x_Eclipse_GCC/common/CH58x_sdk/StdPeriphDriver/CH58x_sys.c:31
    }

    R8_SAFE_ACCESS_SIG = SAFE_ACCESS_SIG1;
2000003e:	400017b7          	lui	a5,0x40001
20000042:	05700693          	li	a3,87
20000046:	04d78023          	sb	a3,64(a5) # 40001040 <__freertos_irq_stack_top+0x1fffac10>
E:/9 Mytest/Free_RTOS/EXAM/Demo/RISC-V-CH58x_Eclipse_GCC/common/CH58x_sdk/StdPeriphDriver/CH58x_sys.c:32
    R8_SAFE_ACCESS_SIG = SAFE_ACCESS_SIG2;__nop();
2000004a:	fa800713          	li	a4,-88
2000004e:	04e78023          	sb	a4,64(a5)
20000052:	0001                	nop
E:/9 Mytest/Free_RTOS/EXAM/Demo/RISC-V-CH58x_Eclipse_GCC/common/CH58x_sdk/StdPeriphDriver/CH58x_sys.c:33
    R16_CLK_SYS_CFG = ( 0 << 6 ) | ( sc & 0x1f );
20000054:	897d                	andi	a0,a0,31
20000056:	00a79423          	sh	a0,8(a5)
E:/9 Mytest/Free_RTOS/EXAM/Demo/RISC-V-CH58x_Eclipse_GCC/common/CH58x_sdk/StdPeriphDriver/CH58x_sys.c:34
    __nop();__nop();__nop();__nop();
2000005a:	0001                	nop
2000005c:	0001                	nop
2000005e:	0001                	nop
20000060:	0001                	nop
E:/9 Mytest/Free_RTOS/EXAM/Demo/RISC-V-CH58x_Eclipse_GCC/common/CH58x_sdk/StdPeriphDriver/CH58x_sys.c:35
    R8_SAFE_ACCESS_SIG = 0;
20000062:	04078023          	sb	zero,64(a5)
E:/9 Mytest/Free_RTOS/EXAM/Demo/RISC-V-CH58x_Eclipse_GCC/common/CH58x_sdk/StdPeriphDriver/CH58x_sys.c:36
    R8_SAFE_ACCESS_SIG = SAFE_ACCESS_SIG1;
20000066:	04d78023          	sb	a3,64(a5)
E:/9 Mytest/Free_RTOS/EXAM/Demo/RISC-V-CH58x_Eclipse_GCC/common/CH58x_sdk/StdPeriphDriver/CH58x_sys.c:37
    R8_SAFE_ACCESS_SIG = SAFE_ACCESS_SIG2;__nop();__nop();
2000006a:	04e78023          	sb	a4,64(a5)
2000006e:	0001                	nop
20000070:	0001                	nop
E:/9 Mytest/Free_RTOS/EXAM/Demo/RISC-V-CH58x_Eclipse_GCC/common/CH58x_sdk/StdPeriphDriver/CH58x_sys.c:38
    R8_FLASH_CFG = 0X01;
20000072:	40002737          	lui	a4,0x40002
20000076:	4685                	li	a3,1
20000078:	80d703a3          	sb	a3,-2041(a4) # 40001807 <__freertos_irq_stack_top+0x1fffb3d7>
E:/9 Mytest/Free_RTOS/EXAM/Demo/RISC-V-CH58x_Eclipse_GCC/common/CH58x_sdk/StdPeriphDriver/CH58x_sys.c:39
    R8_SAFE_ACCESS_SIG = 0;
2000007c:	04078023          	sb	zero,64(a5)
20000080:	8082                	ret
E:/9 Mytest/Free_RTOS/EXAM/Demo/RISC-V-CH58x_Eclipse_GCC/common/CH58x_sdk/StdPeriphDriver/CH58x_sys.c:42
  }

  else if ( sc & 0x40 ){    // PLL div
20000082:	04057793          	andi	a5,a0,64
20000086:	c3d1                	beqz	a5,2000010a <SetSysClock+0x10a>
E:/9 Mytest/Free_RTOS/EXAM/Demo/RISC-V-CH58x_Eclipse_GCC/common/CH58x_sdk/StdPeriphDriver/CH58x_sys.c:43
    if ( !( R8_HFCK_PWR_CTRL & RB_CLK_PLL_PON ) ){
20000088:	40001737          	lui	a4,0x40001
2000008c:	00a74783          	lbu	a5,10(a4) # 4000100a <__freertos_irq_stack_top+0x1fffabda>
20000090:	8bc1                	andi	a5,a5,16
20000092:	e79d                	bnez	a5,200000c0 <SetSysClock+0xc0>
E:/9 Mytest/Free_RTOS/EXAM/Demo/RISC-V-CH58x_Eclipse_GCC/common/CH58x_sdk/StdPeriphDriver/CH58x_sys.c:44
        R8_SAFE_ACCESS_SIG = SAFE_ACCESS_SIG1;
20000094:	05700793          	li	a5,87
20000098:	04f70023          	sb	a5,64(a4)
E:/9 Mytest/Free_RTOS/EXAM/Demo/RISC-V-CH58x_Eclipse_GCC/common/CH58x_sdk/StdPeriphDriver/CH58x_sys.c:45
        R8_SAFE_ACCESS_SIG = SAFE_ACCESS_SIG2;__nop();__nop();
2000009c:	fa800793          	li	a5,-88
200000a0:	04f70023          	sb	a5,64(a4)
200000a4:	0001                	nop
200000a6:	0001                	nop
E:/9 Mytest/Free_RTOS/EXAM/Demo/RISC-V-CH58x_Eclipse_GCC/common/CH58x_sdk/StdPeriphDriver/CH58x_sys.c:46
        R8_HFCK_PWR_CTRL |= RB_CLK_PLL_PON;    // PLL power on
200000a8:	00a74683          	lbu	a3,10(a4)
200000ac:	03200793          	li	a5,50
200000b0:	0106e693          	ori	a3,a3,16
200000b4:	00d70523          	sb	a3,10(a4)
E:/9 Mytest/Free_RTOS/EXAM/Demo/RISC-V-CH58x_Eclipse_GCC/common/CH58x_sdk/StdPeriphDriver/CH58x_sys.c:47 (discriminator 3)
        for(i=0;i<50;i++){  __nop();__nop();  }
200000b8:	0001                	nop
200000ba:	0001                	nop
200000bc:	17fd                	addi	a5,a5,-1
200000be:	ffed                	bnez	a5,200000b8 <SetSysClock+0xb8>
E:/9 Mytest/Free_RTOS/EXAM/Demo/RISC-V-CH58x_Eclipse_GCC/common/CH58x_sdk/StdPeriphDriver/CH58x_sys.c:49
    }
    R8_SAFE_ACCESS_SIG = SAFE_ACCESS_SIG1;
200000c0:	40001737          	lui	a4,0x40001
200000c4:	05700613          	li	a2,87
200000c8:	04c70023          	sb	a2,64(a4) # 40001040 <__freertos_irq_stack_top+0x1fffac10>
E:/9 Mytest/Free_RTOS/EXAM/Demo/RISC-V-CH58x_Eclipse_GCC/common/CH58x_sdk/StdPeriphDriver/CH58x_sys.c:50
    R8_SAFE_ACCESS_SIG = SAFE_ACCESS_SIG2;__nop();__nop();
200000cc:	fa800693          	li	a3,-88
200000d0:	04d70023          	sb	a3,64(a4)
200000d4:	0001                	nop
200000d6:	0001                	nop
E:/9 Mytest/Free_RTOS/EXAM/Demo/RISC-V-CH58x_Eclipse_GCC/common/CH58x_sdk/StdPeriphDriver/CH58x_sys.c:51
    R16_CLK_SYS_CFG = ( 1 << 6 ) | ( sc & 0x1f );
200000d8:	01f57793          	andi	a5,a0,31
200000dc:	0407e793          	ori	a5,a5,64
200000e0:	00f71423          	sh	a5,8(a4)
E:/9 Mytest/Free_RTOS/EXAM/Demo/RISC-V-CH58x_Eclipse_GCC/common/CH58x_sdk/StdPeriphDriver/CH58x_sys.c:52
    __nop();__nop();__nop();__nop();
200000e4:	0001                	nop
200000e6:	0001                	nop
200000e8:	0001                	nop
200000ea:	0001                	nop
E:/9 Mytest/Free_RTOS/EXAM/Demo/RISC-V-CH58x_Eclipse_GCC/common/CH58x_sdk/StdPeriphDriver/CH58x_sys.c:53
    R8_SAFE_ACCESS_SIG = 0;
200000ec:	04070023          	sb	zero,64(a4)
E:/9 Mytest/Free_RTOS/EXAM/Demo/RISC-V-CH58x_Eclipse_GCC/common/CH58x_sdk/StdPeriphDriver/CH58x_sys.c:54
    R8_SAFE_ACCESS_SIG = SAFE_ACCESS_SIG1;
200000f0:	04c70023          	sb	a2,64(a4)
E:/9 Mytest/Free_RTOS/EXAM/Demo/RISC-V-CH58x_Eclipse_GCC/common/CH58x_sdk/StdPeriphDriver/CH58x_sys.c:55
    R8_SAFE_ACCESS_SIG = SAFE_ACCESS_SIG2;__nop();__nop();
200000f4:	04d70023          	sb	a3,64(a4)
200000f8:	0001                	nop
200000fa:	0001                	nop
E:/9 Mytest/Free_RTOS/EXAM/Demo/RISC-V-CH58x_Eclipse_GCC/common/CH58x_sdk/StdPeriphDriver/CH58x_sys.c:56
    R8_FLASH_CFG = 0X03;
200000fc:	400027b7          	lui	a5,0x40002
20000100:	468d                	li	a3,3
20000102:	80d783a3          	sb	a3,-2041(a5) # 40001807 <__freertos_irq_stack_top+0x1fffb3d7>
E:/9 Mytest/Free_RTOS/EXAM/Demo/RISC-V-CH58x_Eclipse_GCC/common/CH58x_sdk/StdPeriphDriver/CH58x_sys.c:57
    R8_SAFE_ACCESS_SIG = 0;
20000106:	04070023          	sb	zero,64(a4)
E:/9 Mytest/Free_RTOS/EXAM/Demo/RISC-V-CH58x_Eclipse_GCC/common/CH58x_sdk/StdPeriphDriver/CH58x_sys.c:59
  }
}
2000010a:	8082                	ret

2000010c <mDelayuS>:
mDelayuS():
E:/9 Mytest/Free_RTOS/EXAM/Demo/RISC-V-CH58x_Eclipse_GCC/common/CH58x_sdk/StdPeriphDriver/CH58x_sys.c:228
__attribute__((section(".highcode")))
void mDelayuS( UINT16 t )
{
    UINT32 i;
#if     (FREQ_SYS == 80000000)
    i = t*20;
2000010c:	00251793          	slli	a5,a0,0x2
20000110:	953e                	add	a0,a0,a5
20000112:	050a                	slli	a0,a0,0x2
E:/9 Mytest/Free_RTOS/EXAM/Demo/RISC-V-CH58x_Eclipse_GCC/common/CH58x_sdk/StdPeriphDriver/CH58x_sys.c:252 (discriminator 1)
#elif	(FREQ_SYS == 1000000)
    i = t>>2;
#endif
    do
    {
    	__nop();
20000114:	0001                	nop
E:/9 Mytest/Free_RTOS/EXAM/Demo/RISC-V-CH58x_Eclipse_GCC/common/CH58x_sdk/StdPeriphDriver/CH58x_sys.c:253 (discriminator 1)
    }while(--i);
20000116:	157d                	addi	a0,a0,-1
20000118:	fd75                	bnez	a0,20000114 <mDelayuS+0x8>
E:/9 Mytest/Free_RTOS/EXAM/Demo/RISC-V-CH58x_Eclipse_GCC/common/CH58x_sdk/StdPeriphDriver/CH58x_sys.c:254
}
2000011a:	8082                	ret

2000011c <mDelaymS>:
mDelaymS():
E:/9 Mytest/Free_RTOS/EXAM/Demo/RISC-V-CH58x_Eclipse_GCC/common/CH58x_sdk/StdPeriphDriver/CH58x_sys.c:267
__attribute__((section(".highcode")))
void mDelaymS( UINT16 t )
{
    UINT16 i;

    for(i=0; i<t; i++)
2000011c:	cd09                	beqz	a0,20000136 <mDelaymS+0x1a>
2000011e:	4701                	li	a4,0
20000120:	6695                	lui	a3,0x5
20000122:	e2068793          	addi	a5,a3,-480 # 4e20 <GetSysClock+0x26>
mDelayuS():
E:/9 Mytest/Free_RTOS/EXAM/Demo/RISC-V-CH58x_Eclipse_GCC/common/CH58x_sdk/StdPeriphDriver/CH58x_sys.c:252
    	__nop();
20000126:	0001                	nop
20000128:	17fd                	addi	a5,a5,-1
E:/9 Mytest/Free_RTOS/EXAM/Demo/RISC-V-CH58x_Eclipse_GCC/common/CH58x_sdk/StdPeriphDriver/CH58x_sys.c:253
    }while(--i);
2000012a:	fff5                	bnez	a5,20000126 <mDelaymS+0xa>
mDelaymS():
E:/9 Mytest/Free_RTOS/EXAM/Demo/RISC-V-CH58x_Eclipse_GCC/common/CH58x_sdk/StdPeriphDriver/CH58x_sys.c:267 (discriminator 3)
    for(i=0; i<t; i++)
2000012c:	0705                	addi	a4,a4,1
2000012e:	0742                	slli	a4,a4,0x10
20000130:	8341                	srli	a4,a4,0x10
20000132:	fee518e3          	bne	a0,a4,20000122 <mDelaymS+0x6>
E:/9 Mytest/Free_RTOS/EXAM/Demo/RISC-V-CH58x_Eclipse_GCC/common/CH58x_sdk/StdPeriphDriver/CH58x_sys.c:269
        mDelayuS(1000);
}
20000136:	8082                	ret

Disassembly of section .text:

00000200 <Reset_Handler>:
Reset_Handler():
E:/9 Mytest/Free_RTOS/EXAM/Demo/RISC-V-CH58x_Eclipse_GCC/common/CH58x_sdk/Startup/startup_CH573.S:92

/* Reset Handler */
Reset_Handler:
.option push
.option	norelax
	la gp, __global_pointer$
     200:	20001197          	auipc	gp,0x20001
     204:	e6018193          	addi	gp,gp,-416 # 20001060 <__global_pointer$>
E:/9 Mytest/Free_RTOS/EXAM/Demo/RISC-V-CH58x_Eclipse_GCC/common/CH58x_sdk/Startup/startup_CH573.S:95
.option	pop
1:
	la sp, __StackTop
     208:	20006117          	auipc	sp,0x20006
     20c:	22010113          	addi	sp,sp,544 # 20006428 <__StackTop>
E:/9 Mytest/Free_RTOS/EXAM/Demo/RISC-V-CH58x_Eclipse_GCC/common/CH58x_sdk/Startup/startup_CH573.S:99

/* Load highcode code section from flash to RAM */
2:
    la a0, _highcode_lma
     210:	09400513          	li	a0,148
     214:	20000597          	auipc	a1,0x20000
E:/9 Mytest/Free_RTOS/EXAM/Demo/RISC-V-CH58x_Eclipse_GCC/common/CH58x_sdk/Startup/startup_CH573.S:100
    la a1, _highcode_vma_start
     218:	dec58593          	addi	a1,a1,-532 # 20000000 <SetSysClock>
     21c:	20000617          	auipc	a2,0x20000
E:/9 Mytest/Free_RTOS/EXAM/Demo/RISC-V-CH58x_Eclipse_GCC/common/CH58x_sdk/Startup/startup_CH573.S:101
    la a2, _highcode_vma_end
     220:	f1c60613          	addi	a2,a2,-228 # 20000138 <_highcode_vma_end>
     224:	00c5fc63          	bgeu	a1,a2,23c <Reset_Handler+0x3c>
E:/9 Mytest/Free_RTOS/EXAM/Demo/RISC-V-CH58x_Eclipse_GCC/common/CH58x_sdk/Startup/startup_CH573.S:102
    bgeu a1, a2, 2f
     228:	00052283          	lw	t0,0(a0)
E:/9 Mytest/Free_RTOS/EXAM/Demo/RISC-V-CH58x_Eclipse_GCC/common/CH58x_sdk/Startup/startup_CH573.S:104
1:
    lw t0, (a0)
     22c:	0055a023          	sw	t0,0(a1)
E:/9 Mytest/Free_RTOS/EXAM/Demo/RISC-V-CH58x_Eclipse_GCC/common/CH58x_sdk/Startup/startup_CH573.S:105
    sw t0, (a1)
     230:	00450513          	addi	a0,a0,4
E:/9 Mytest/Free_RTOS/EXAM/Demo/RISC-V-CH58x_Eclipse_GCC/common/CH58x_sdk/Startup/startup_CH573.S:106
    addi a0, a0, 4
     234:	00458593          	addi	a1,a1,4
E:/9 Mytest/Free_RTOS/EXAM/Demo/RISC-V-CH58x_Eclipse_GCC/common/CH58x_sdk/Startup/startup_CH573.S:107
    addi a1, a1, 4
     238:	fec5e8e3          	bltu	a1,a2,228 <Reset_Handler+0x28>
E:/9 Mytest/Free_RTOS/EXAM/Demo/RISC-V-CH58x_Eclipse_GCC/common/CH58x_sdk/Startup/startup_CH573.S:108
    bltu a1, a2, 1b
     23c:	0000d517          	auipc	a0,0xd
E:/9 Mytest/Free_RTOS/EXAM/Demo/RISC-V-CH58x_Eclipse_GCC/common/CH58x_sdk/Startup/startup_CH573.S:112

/* Load data section from flash to RAM */
2:
	la a0, _data_lma
     240:	0c850513          	addi	a0,a0,200 # d304 <__init_array_end>
     244:	20000597          	auipc	a1,0x20000
E:/9 Mytest/Free_RTOS/EXAM/Demo/RISC-V-CH58x_Eclipse_GCC/common/CH58x_sdk/Startup/startup_CH573.S:113
	la a1, _data_vma
     248:	5bc58593          	addi	a1,a1,1468 # 20000800 <_data_vma>
     24c:	82418613          	addi	a2,gp,-2012 # 20000884 <_edata>
E:/9 Mytest/Free_RTOS/EXAM/Demo/RISC-V-CH58x_Eclipse_GCC/common/CH58x_sdk/Startup/startup_CH573.S:114
	la a2, _edata
     250:	00c5fc63          	bgeu	a1,a2,268 <Reset_Handler+0x68>
     254:	00052283          	lw	t0,0(a0)
E:/9 Mytest/Free_RTOS/EXAM/Demo/RISC-V-CH58x_Eclipse_GCC/common/CH58x_sdk/Startup/startup_CH573.S:115
	bgeu a1, a2, 2f
     258:	0055a023          	sw	t0,0(a1)
E:/9 Mytest/Free_RTOS/EXAM/Demo/RISC-V-CH58x_Eclipse_GCC/common/CH58x_sdk/Startup/startup_CH573.S:117
1:
	lw t0, (a0)
     25c:	00450513          	addi	a0,a0,4
E:/9 Mytest/Free_RTOS/EXAM/Demo/RISC-V-CH58x_Eclipse_GCC/common/CH58x_sdk/Startup/startup_CH573.S:118
	sw t0, (a1)
     260:	00458593          	addi	a1,a1,4
E:/9 Mytest/Free_RTOS/EXAM/Demo/RISC-V-CH58x_Eclipse_GCC/common/CH58x_sdk/Startup/startup_CH573.S:119
	addi a0, a0, 4
     264:	fec5e8e3          	bltu	a1,a2,254 <Reset_Handler+0x54>
E:/9 Mytest/Free_RTOS/EXAM/Demo/RISC-V-CH58x_Eclipse_GCC/common/CH58x_sdk/Startup/startup_CH573.S:120
	addi a1, a1, 4
     268:	20000517          	auipc	a0,0x20000
E:/9 Mytest/Free_RTOS/EXAM/Demo/RISC-V-CH58x_Eclipse_GCC/common/CH58x_sdk/Startup/startup_CH573.S:121
	bltu a1, a2, 1b
     26c:	61c50513          	addi	a0,a0,1564 # 20000884 <_edata>
E:/9 Mytest/Free_RTOS/EXAM/Demo/RISC-V-CH58x_Eclipse_GCC/common/CH58x_sdk/Startup/startup_CH573.S:124
2:
	/* clear bss section */
	la a0, _sbss
     270:	20006597          	auipc	a1,0x20006
     274:	9b458593          	addi	a1,a1,-1612 # 20005c24 <_ebss>
E:/9 Mytest/Free_RTOS/EXAM/Demo/RISC-V-CH58x_Eclipse_GCC/common/CH58x_sdk/Startup/startup_CH573.S:125
	la a1, _ebss
     278:	00b57863          	bgeu	a0,a1,288 <Reset_Handler+0x88>
     27c:	00052023          	sw	zero,0(a0)
E:/9 Mytest/Free_RTOS/EXAM/Demo/RISC-V-CH58x_Eclipse_GCC/common/CH58x_sdk/Startup/startup_CH573.S:126
	bgeu a0, a1, 2f
     280:	00450513          	addi	a0,a0,4
E:/9 Mytest/Free_RTOS/EXAM/Demo/RISC-V-CH58x_Eclipse_GCC/common/CH58x_sdk/Startup/startup_CH573.S:128
1:
	sw zero, (a0)
     284:	feb56ce3          	bltu	a0,a1,27c <Reset_Handler+0x7c>
E:/9 Mytest/Free_RTOS/EXAM/Demo/RISC-V-CH58x_Eclipse_GCC/common/CH58x_sdk/Startup/startup_CH573.S:129
	addi a0, a0, 4
     288:	03f00293          	li	t0,63
E:/9 Mytest/Free_RTOS/EXAM/Demo/RISC-V-CH58x_Eclipse_GCC/common/CH58x_sdk/Startup/startup_CH573.S:130
	bltu a0, a1, 1b
     28c:	bc029073          	csrw	0xbc0,t0
E:/9 Mytest/Free_RTOS/EXAM/Demo/RISC-V-CH58x_Eclipse_GCC/common/CH58x_sdk/Startup/startup_CH573.S:133
2:
	/* 流水线控制位 & 动态预测控制位 */
	li t0, 0x3f
     290:	80405073          	csrwi	0x804,0
E:/9 Mytest/Free_RTOS/EXAM/Demo/RISC-V-CH58x_Eclipse_GCC/common/CH58x_sdk/Startup/startup_CH573.S:134
	csrw 0xbc0, t0
     294:	000022b7          	lui	t0,0x2
E:/9 Mytest/Free_RTOS/EXAM/Demo/RISC-V-CH58x_Eclipse_GCC/common/CH58x_sdk/Startup/startup_CH573.S:137

	/* 打开嵌套中断、硬件压栈功能 */
	csrwi 0x804, 0x0
     298:	88828293          	addi	t0,t0,-1912 # 1888 <prvNotifiedTask+0x29e>
E:/9 Mytest/Free_RTOS/EXAM/Demo/RISC-V-CH58x_Eclipse_GCC/common/CH58x_sdk/Startup/startup_CH573.S:139

    li t0, 0x1888
     29c:	3002a073          	csrs	mstatus,t0
     2a0:	755040ef          	jal	ra,51f4 <SystemInit>
E:/9 Mytest/Free_RTOS/EXAM/Demo/RISC-V-CH58x_Eclipse_GCC/common/CH58x_sdk/Startup/startup_CH573.S:140
    csrs mstatus, t0
     2a4:	3780a0ef          	jal	ra,a61c <__libc_init_array>
E:/9 Mytest/Free_RTOS/EXAM/Demo/RISC-V-CH58x_Eclipse_GCC/common/CH58x_sdk/Startup/startup_CH573.S:153
	/*la t0, IRQ_Handler
	csrw mtvec, t0*/


#ifndef __NO_SYSTEM_INIT
    jal SystemInit
     2a8:	30046073          	csrsi	mstatus,8
E:/9 Mytest/Free_RTOS/EXAM/Demo/RISC-V-CH58x_Eclipse_GCC/common/CH58x_sdk/Startup/startup_CH573.S:156
#endif

    call __libc_init_array
     2ac:	3120a0ef          	jal	ra,a5be <main>
     2b0:	00100073          	ebreak

000002b4 <_fini>:
_init():
E:/9 Mytest/Free_RTOS/EXAM/Demo/RISC-V-CH58x_Eclipse_GCC/common/CH58x_sdk/Startup/startup_CH573.S:159

    # Enable global interrupt. */
    csrsi mstatus, 8
     2b4:	00008067          	ret

000002b8 <store_regs>:
store_regs():
E:/9 Mytest/Free_RTOS/EXAM/Demo/RISC-V-CH58x_Eclipse_GCC/common/CH58x_sdk/Startup/startup_CH573.S:161

	jal main
     2b8:	00312023          	sw	gp,0(sp)
E:/9 Mytest/Free_RTOS/EXAM/Demo/RISC-V-CH58x_Eclipse_GCC/common/CH58x_sdk/Startup/startup_CH573.S:162
    ebreak
     2bc:	00412223          	sw	tp,4(sp)
E:/9 Mytest/Free_RTOS/EXAM/Demo/RISC-V-CH58x_Eclipse_GCC/common/CH58x_sdk/Startup/startup_CH573.S:170

    .global _init
    .global _fini
_init:
_fini:
    ret
     2c0:	00512423          	sw	t0,8(sp)
E:/9 Mytest/Free_RTOS/EXAM/Demo/RISC-V-CH58x_Eclipse_GCC/common/CH58x_sdk/Startup/startup_CH573.S:174

  // saves all caller-saved registers (except return address)
store_regs:
    sw  x3, 0x00(x2)  // gp
     2c4:	00612623          	sw	t1,12(sp)
E:/9 Mytest/Free_RTOS/EXAM/Demo/RISC-V-CH58x_Eclipse_GCC/common/CH58x_sdk/Startup/startup_CH573.S:175
    sw  x4, 0x04(x2)  // tp
     2c8:	00712823          	sw	t2,16(sp)
E:/9 Mytest/Free_RTOS/EXAM/Demo/RISC-V-CH58x_Eclipse_GCC/common/CH58x_sdk/Startup/startup_CH573.S:176
    sw  x5, 0x08(x2)  // t0
     2cc:	00a12a23          	sw	a0,20(sp)
E:/9 Mytest/Free_RTOS/EXAM/Demo/RISC-V-CH58x_Eclipse_GCC/common/CH58x_sdk/Startup/startup_CH573.S:177
    sw  x6, 0x0c(x2)  // t1
     2d0:	00b12c23          	sw	a1,24(sp)
E:/9 Mytest/Free_RTOS/EXAM/Demo/RISC-V-CH58x_Eclipse_GCC/common/CH58x_sdk/Startup/startup_CH573.S:178
    sw  x7, 0x10(x2)  // t2
     2d4:	00c12e23          	sw	a2,28(sp)
E:/9 Mytest/Free_RTOS/EXAM/Demo/RISC-V-CH58x_Eclipse_GCC/common/CH58x_sdk/Startup/startup_CH573.S:179
    sw x10, 0x14(x2)  // a0
     2d8:	02d12023          	sw	a3,32(sp)
E:/9 Mytest/Free_RTOS/EXAM/Demo/RISC-V-CH58x_Eclipse_GCC/common/CH58x_sdk/Startup/startup_CH573.S:180
    sw x11, 0x18(x2)  // a1
     2dc:	02e12223          	sw	a4,36(sp)
E:/9 Mytest/Free_RTOS/EXAM/Demo/RISC-V-CH58x_Eclipse_GCC/common/CH58x_sdk/Startup/startup_CH573.S:181
    sw x12, 0x1c(x2)  // a2
     2e0:	02f12423          	sw	a5,40(sp)
E:/9 Mytest/Free_RTOS/EXAM/Demo/RISC-V-CH58x_Eclipse_GCC/common/CH58x_sdk/Startup/startup_CH573.S:182
    sw x13, 0x20(x2)  // a3
     2e4:	03012623          	sw	a6,44(sp)
E:/9 Mytest/Free_RTOS/EXAM/Demo/RISC-V-CH58x_Eclipse_GCC/common/CH58x_sdk/Startup/startup_CH573.S:183
    sw x14, 0x24(x2)  // a4
     2e8:	03112823          	sw	a7,48(sp)
E:/9 Mytest/Free_RTOS/EXAM/Demo/RISC-V-CH58x_Eclipse_GCC/common/CH58x_sdk/Startup/startup_CH573.S:184
    sw x15, 0x28(x2)  // a5
     2ec:	7b002573          	csrr	a0,dcsr
E:/9 Mytest/Free_RTOS/EXAM/Demo/RISC-V-CH58x_Eclipse_GCC/common/CH58x_sdk/Startup/startup_CH573.S:185
    sw x16, 0x2c(x2)  // a6
     2f0:	7b1025f3          	csrr	a1,dpc
E:/9 Mytest/Free_RTOS/EXAM/Demo/RISC-V-CH58x_Eclipse_GCC/common/CH58x_sdk/Startup/startup_CH573.S:186
    sw x17, 0x30(x2)  // a7
     2f4:	7b202673          	csrr	a2,dscratch
E:/9 Mytest/Free_RTOS/EXAM/Demo/RISC-V-CH58x_Eclipse_GCC/common/CH58x_sdk/Startup/startup_CH573.S:188

    csrr a0, 0x7B0
     2f8:	02a12a23          	sw	a0,52(sp)
E:/9 Mytest/Free_RTOS/EXAM/Demo/RISC-V-CH58x_Eclipse_GCC/common/CH58x_sdk/Startup/startup_CH573.S:189
    csrr a1, 0x7B1
     2fc:	02b12c23          	sw	a1,56(sp)
E:/9 Mytest/Free_RTOS/EXAM/Demo/RISC-V-CH58x_Eclipse_GCC/common/CH58x_sdk/Startup/startup_CH573.S:190
    csrr a2, 0x7B2
     300:	02c12e23          	sw	a2,60(sp)
E:/9 Mytest/Free_RTOS/EXAM/Demo/RISC-V-CH58x_Eclipse_GCC/common/CH58x_sdk/Startup/startup_CH573.S:191
    sw a0, 0x34(x2)  // lpstart[0]
     304:	7b402573          	csrr	a0,0x7b4
E:/9 Mytest/Free_RTOS/EXAM/Demo/RISC-V-CH58x_Eclipse_GCC/common/CH58x_sdk/Startup/startup_CH573.S:192
    sw a1, 0x38(x2)  // lpend[0]
     308:	7b5025f3          	csrr	a1,0x7b5
E:/9 Mytest/Free_RTOS/EXAM/Demo/RISC-V-CH58x_Eclipse_GCC/common/CH58x_sdk/Startup/startup_CH573.S:193
    sw a2, 0x3c(x2)  // lpcount[0]
     30c:	7b602673          	csrr	a2,0x7b6
E:/9 Mytest/Free_RTOS/EXAM/Demo/RISC-V-CH58x_Eclipse_GCC/common/CH58x_sdk/Startup/startup_CH573.S:194
    csrr a0, 0x7B4
     310:	04a12023          	sw	a0,64(sp)
E:/9 Mytest/Free_RTOS/EXAM/Demo/RISC-V-CH58x_Eclipse_GCC/common/CH58x_sdk/Startup/startup_CH573.S:195
    csrr a1, 0x7B5
     314:	04b12223          	sw	a1,68(sp)
E:/9 Mytest/Free_RTOS/EXAM/Demo/RISC-V-CH58x_Eclipse_GCC/common/CH58x_sdk/Startup/startup_CH573.S:196
    csrr a2, 0x7B6
     318:	04c12423          	sw	a2,72(sp)
E:/9 Mytest/Free_RTOS/EXAM/Demo/RISC-V-CH58x_Eclipse_GCC/common/CH58x_sdk/Startup/startup_CH573.S:197
    sw a0, 0x40(x2)  // lpstart[1]
     31c:	34102573          	csrr	a0,mepc
E:/9 Mytest/Free_RTOS/EXAM/Demo/RISC-V-CH58x_Eclipse_GCC/common/CH58x_sdk/Startup/startup_CH573.S:198
    sw a1, 0x44(x2)  // lpend[1]
     320:	04a12623          	sw	a0,76(sp)
E:/9 Mytest/Free_RTOS/EXAM/Demo/RISC-V-CH58x_Eclipse_GCC/common/CH58x_sdk/Startup/startup_CH573.S:199
    sw a2, 0x48(x2)  // lpcount[1]
     324:	300025f3          	csrr	a1,mstatus
E:/9 Mytest/Free_RTOS/EXAM/Demo/RISC-V-CH58x_Eclipse_GCC/common/CH58x_sdk/Startup/startup_CH573.S:201

    csrr a0, 0x341
     328:	04b12823          	sw	a1,80(sp)
E:/9 Mytest/Free_RTOS/EXAM/Demo/RISC-V-CH58x_Eclipse_GCC/common/CH58x_sdk/Startup/startup_CH573.S:202
    sw a0, 0x4c(x2)  // mepc
     32c:	00008067          	ret

00000330 <end_except>:
end_except():
E:/9 Mytest/Free_RTOS/EXAM/Demo/RISC-V-CH58x_Eclipse_GCC/common/CH58x_sdk/Startup/startup_CH573.S:203
    csrr a1, 0x300
     330:	05012583          	lw	a1,80(sp)
E:/9 Mytest/Free_RTOS/EXAM/Demo/RISC-V-CH58x_Eclipse_GCC/common/CH58x_sdk/Startup/startup_CH573.S:204
    sw a1, 0x50(x2)  // mstatus
     334:	30059073          	csrw	mstatus,a1
E:/9 Mytest/Free_RTOS/EXAM/Demo/RISC-V-CH58x_Eclipse_GCC/common/CH58x_sdk/Startup/startup_CH573.S:205
    jalr x0, x1
     338:	04c12503          	lw	a0,76(sp)
E:/9 Mytest/Free_RTOS/EXAM/Demo/RISC-V-CH58x_Eclipse_GCC/common/CH58x_sdk/Startup/startup_CH573.S:209

    // load back registers from stack
end_except:
    lw a1, 0x50(x2)  // mstatus
     33c:	34151073          	csrw	mepc,a0
E:/9 Mytest/Free_RTOS/EXAM/Demo/RISC-V-CH58x_Eclipse_GCC/common/CH58x_sdk/Startup/startup_CH573.S:210
    csrrw x0, 0x300, a1
     340:	04012503          	lw	a0,64(sp)
E:/9 Mytest/Free_RTOS/EXAM/Demo/RISC-V-CH58x_Eclipse_GCC/common/CH58x_sdk/Startup/startup_CH573.S:211
    lw a0, 0x4c(x2)  // mepc
     344:	04412583          	lw	a1,68(sp)
E:/9 Mytest/Free_RTOS/EXAM/Demo/RISC-V-CH58x_Eclipse_GCC/common/CH58x_sdk/Startup/startup_CH573.S:212
    csrrw x0, 0x341, a0
     348:	04812603          	lw	a2,72(sp)
E:/9 Mytest/Free_RTOS/EXAM/Demo/RISC-V-CH58x_Eclipse_GCC/common/CH58x_sdk/Startup/startup_CH573.S:214

    lw a0, 0x40(x2)  // lpstart[1]
     34c:	7b451073          	csrw	0x7b4,a0
E:/9 Mytest/Free_RTOS/EXAM/Demo/RISC-V-CH58x_Eclipse_GCC/common/CH58x_sdk/Startup/startup_CH573.S:215
    lw a1, 0x44(x2)  // lpend[1]
     350:	7b559073          	csrw	0x7b5,a1
E:/9 Mytest/Free_RTOS/EXAM/Demo/RISC-V-CH58x_Eclipse_GCC/common/CH58x_sdk/Startup/startup_CH573.S:216
    lw a2, 0x48(x2)  // lpcount[1]
     354:	7b661073          	csrw	0x7b6,a2
E:/9 Mytest/Free_RTOS/EXAM/Demo/RISC-V-CH58x_Eclipse_GCC/common/CH58x_sdk/Startup/startup_CH573.S:217
    csrrw x0, 0x7B4, a0
     358:	03412503          	lw	a0,52(sp)
E:/9 Mytest/Free_RTOS/EXAM/Demo/RISC-V-CH58x_Eclipse_GCC/common/CH58x_sdk/Startup/startup_CH573.S:218
    csrrw x0, 0x7B5, a1
     35c:	03812583          	lw	a1,56(sp)
E:/9 Mytest/Free_RTOS/EXAM/Demo/RISC-V-CH58x_Eclipse_GCC/common/CH58x_sdk/Startup/startup_CH573.S:219
    csrrw x0, 0x7B6, a2
     360:	03c12603          	lw	a2,60(sp)
E:/9 Mytest/Free_RTOS/EXAM/Demo/RISC-V-CH58x_Eclipse_GCC/common/CH58x_sdk/Startup/startup_CH573.S:220
    lw a0, 0x34(x2)  // lpstart[0]
     364:	7b051073          	csrw	dcsr,a0
E:/9 Mytest/Free_RTOS/EXAM/Demo/RISC-V-CH58x_Eclipse_GCC/common/CH58x_sdk/Startup/startup_CH573.S:221
    lw a1, 0x38(x2)  // lpend[0]
     368:	7b159073          	csrw	dpc,a1
E:/9 Mytest/Free_RTOS/EXAM/Demo/RISC-V-CH58x_Eclipse_GCC/common/CH58x_sdk/Startup/startup_CH573.S:222
    lw a2, 0x3c(x2)  // lpcount[0]
     36c:	7b261073          	csrw	dscratch,a2
E:/9 Mytest/Free_RTOS/EXAM/Demo/RISC-V-CH58x_Eclipse_GCC/common/CH58x_sdk/Startup/startup_CH573.S:223
    csrrw x0, 0x7B0, a0
     370:	00012183          	lw	gp,0(sp)
E:/9 Mytest/Free_RTOS/EXAM/Demo/RISC-V-CH58x_Eclipse_GCC/common/CH58x_sdk/Startup/startup_CH573.S:224
    csrrw x0, 0x7B1, a1
     374:	00412203          	lw	tp,4(sp)
E:/9 Mytest/Free_RTOS/EXAM/Demo/RISC-V-CH58x_Eclipse_GCC/common/CH58x_sdk/Startup/startup_CH573.S:225
    csrrw x0, 0x7B2, a2
     378:	00812283          	lw	t0,8(sp)
E:/9 Mytest/Free_RTOS/EXAM/Demo/RISC-V-CH58x_Eclipse_GCC/common/CH58x_sdk/Startup/startup_CH573.S:227

    lw  x3, 0x00(x2)  // gp
     37c:	00c12303          	lw	t1,12(sp)
E:/9 Mytest/Free_RTOS/EXAM/Demo/RISC-V-CH58x_Eclipse_GCC/common/CH58x_sdk/Startup/startup_CH573.S:228
    lw  x4, 0x04(x2)  // tp
     380:	01012383          	lw	t2,16(sp)
E:/9 Mytest/Free_RTOS/EXAM/Demo/RISC-V-CH58x_Eclipse_GCC/common/CH58x_sdk/Startup/startup_CH573.S:229
    lw  x5, 0x08(x2)  // t0
     384:	01412503          	lw	a0,20(sp)
E:/9 Mytest/Free_RTOS/EXAM/Demo/RISC-V-CH58x_Eclipse_GCC/common/CH58x_sdk/Startup/startup_CH573.S:230
    lw  x6, 0x0c(x2)  // t1
     388:	01812583          	lw	a1,24(sp)
E:/9 Mytest/Free_RTOS/EXAM/Demo/RISC-V-CH58x_Eclipse_GCC/common/CH58x_sdk/Startup/startup_CH573.S:231
    lw  x7, 0x10(x2)  // t2
     38c:	01c12603          	lw	a2,28(sp)
E:/9 Mytest/Free_RTOS/EXAM/Demo/RISC-V-CH58x_Eclipse_GCC/common/CH58x_sdk/Startup/startup_CH573.S:232
    lw x10, 0x14(x2)  // a0
     390:	02012683          	lw	a3,32(sp)
E:/9 Mytest/Free_RTOS/EXAM/Demo/RISC-V-CH58x_Eclipse_GCC/common/CH58x_sdk/Startup/startup_CH573.S:233
    lw x11, 0x18(x2)  // a1
     394:	02412703          	lw	a4,36(sp)
E:/9 Mytest/Free_RTOS/EXAM/Demo/RISC-V-CH58x_Eclipse_GCC/common/CH58x_sdk/Startup/startup_CH573.S:234
    lw x12, 0x1c(x2)  // a2
     398:	02812783          	lw	a5,40(sp)
E:/9 Mytest/Free_RTOS/EXAM/Demo/RISC-V-CH58x_Eclipse_GCC/common/CH58x_sdk/Startup/startup_CH573.S:235
    lw x13, 0x20(x2)  // a3
     39c:	02c12803          	lw	a6,44(sp)
E:/9 Mytest/Free_RTOS/EXAM/Demo/RISC-V-CH58x_Eclipse_GCC/common/CH58x_sdk/Startup/startup_CH573.S:236
    lw x14, 0x24(x2)  // a4
     3a0:	03012883          	lw	a7,48(sp)
E:/9 Mytest/Free_RTOS/EXAM/Demo/RISC-V-CH58x_Eclipse_GCC/common/CH58x_sdk/Startup/startup_CH573.S:237
    lw x15, 0x28(x2)  // a5
     3a4:	05412083          	lw	ra,84(sp)
E:/9 Mytest/Free_RTOS/EXAM/Demo/RISC-V-CH58x_Eclipse_GCC/common/CH58x_sdk/Startup/startup_CH573.S:238
    lw x16, 0x2c(x2)  // a6
     3a8:	05810113          	addi	sp,sp,88
E:/9 Mytest/Free_RTOS/EXAM/Demo/RISC-V-CH58x_Eclipse_GCC/common/CH58x_sdk/Startup/startup_CH573.S:239
    lw x17, 0x30(x2)  // a7
     3ac:	30200073          	mret

000003b0 <IRQ_Handler>:
IRQ_Handler():
E:/9 Mytest/Free_RTOS/EXAM/Demo/RISC-V-CH58x_Eclipse_GCC/common/CH58x_sdk/Startup/startup_CH573.S:241

    lw  x1, 0x54(x2)
     3b0:	fa810113          	addi	sp,sp,-88
E:/9 Mytest/Free_RTOS/EXAM/Demo/RISC-V-CH58x_Eclipse_GCC/common/CH58x_sdk/Startup/startup_CH573.S:242
    addi x2, x2, EXCEPTION_STACK_SIZE
     3b4:	04112a23          	sw	ra,84(sp)
E:/9 Mytest/Free_RTOS/EXAM/Demo/RISC-V-CH58x_Eclipse_GCC/common/CH58x_sdk/Startup/startup_CH573.S:243
    mret
     3b8:	f01ff0ef          	jal	ra,2b8 <store_regs>
E:/9 Mytest/Free_RTOS/EXAM/Demo/RISC-V-CH58x_Eclipse_GCC/common/CH58x_sdk/Startup/startup_CH573.S:248

    .weak IRQ_Handler
    .type IRQ_Handler, %function
IRQ_Handler:
    addi x2, x2, -EXCEPTION_STACK_SIZE
     3bc:	33000093          	li	ra,816
E:/9 Mytest/Free_RTOS/EXAM/Demo/RISC-V-CH58x_Eclipse_GCC/common/CH58x_sdk/Startup/startup_CH573.S:249
    sw x1, 0x54(x2)
     3c0:	34202573          	csrr	a0,mcause
E:/9 Mytest/Free_RTOS/EXAM/Demo/RISC-V-CH58x_Eclipse_GCC/common/CH58x_sdk/Startup/startup_CH573.S:250
    jal x1, store_regs
     3c4:	7d90906f          	j	a39c <SystemIrqHandler>

000003c8 <IllegalInstruction_Handler>:
IllegalInstruction_Handler():
E:/9 Mytest/Free_RTOS/EXAM/Demo/RISC-V-CH58x_Eclipse_GCC/common/CH58x_sdk/Startup/startup_CH573.S:251
    la x1, end_except
     3c8:	fa810113          	addi	sp,sp,-88
     3cc:	04112a23          	sw	ra,84(sp)
E:/9 Mytest/Free_RTOS/EXAM/Demo/RISC-V-CH58x_Eclipse_GCC/common/CH58x_sdk/Startup/startup_CH573.S:252
    csrr a0, mcause
     3d0:	ee9ff0ef          	jal	ra,2b8 <store_regs>
E:/9 Mytest/Free_RTOS/EXAM/Demo/RISC-V-CH58x_Eclipse_GCC/common/CH58x_sdk/Startup/startup_CH573.S:253
    jal x0, SystemIrqHandler
     3d4:	33000093          	li	ra,816
E:/9 Mytest/Free_RTOS/EXAM/Demo/RISC-V-CH58x_Eclipse_GCC/common/CH58x_sdk/Startup/startup_CH573.S:266
    jal x1, store_regs
    la x1, end_except
    jal x0, \handler_name
    .endm

define_exception_entry IllegalInstruction_Handler IllegalInstruction_HandlerFunc
     3d8:	02c0006f          	j	404 <IllegalInstruction_HandlerFunc>

000003dc <Ecall_Handler>:
Ecall_Handler():
E:/9 Mytest/Free_RTOS/EXAM/Demo/RISC-V-CH58x_Eclipse_GCC/common/CH58x_sdk/Startup/startup_CH573.S:266
     3dc:	fa810113          	addi	sp,sp,-88
     3e0:	04112a23          	sw	ra,84(sp)
     3e4:	ed5ff0ef          	jal	ra,2b8 <store_regs>
     3e8:	33000093          	li	ra,816
     3ec:	01c0006f          	j	408 <Ecall_HandlerFunc>

000003f0 <LSU_Handler>:
LSU_Handler():
E:/9 Mytest/Free_RTOS/EXAM/Demo/RISC-V-CH58x_Eclipse_GCC/common/CH58x_sdk/Startup/startup_CH573.S:267
define_exception_entry Ecall_Handler Ecall_HandlerFunc
     3f0:	fa810113          	addi	sp,sp,-88
     3f4:	04112a23          	sw	ra,84(sp)
     3f8:	ec1ff0ef          	jal	ra,2b8 <store_regs>
     3fc:	33000093          	li	ra,816
     400:	00c0006f          	j	40c <LSU_HandlerFunc>

00000404 <IllegalInstruction_HandlerFunc>:
IllegalInstruction_HandlerFunc():
E:/9 Mytest/Free_RTOS/EXAM/Demo/RISC-V-CH58x_Eclipse_GCC/common/CH58x_sdk/Startup/startup_CH573.S:267
     404:	0000006f          	j	404 <IllegalInstruction_HandlerFunc>

00000408 <Ecall_HandlerFunc>:
Ecall_HandlerFunc():
E:/9 Mytest/Free_RTOS/EXAM/Demo/RISC-V-CH58x_Eclipse_GCC/common/CH58x_sdk/Startup/startup_CH573.S:268
define_exception_entry LSU_Handler LSU_HandlerFunc
     408:	0000006f          	j	408 <Ecall_HandlerFunc>

0000040c <LSU_HandlerFunc>:
LSU_HandlerFunc():
E:/9 Mytest/Free_RTOS/EXAM/Demo/RISC-V-CH58x_Eclipse_GCC/common/CH58x_sdk/Startup/startup_CH573.S:268
     40c:	0000006f          	j	40c <LSU_HandlerFunc>

00000410 <isrTable>:
	...
__user_vector():
E:/9 Mytest/Free_RTOS/EXAM/Demo/RISC-V-CH58x_Eclipse_GCC/common/CH58x_sdk/Startup/startup_CH573.S:268
     418:	000050ca 000050ca 00000000 000050ca     .P...P.......P..
	...
     430:	000050ca 000050ca 00000000 00000000     .P...P..........
     440:	0000a3ac 00000000 000050ca 00000000     .........P......
     450:	0000a3da 000050ca 000050ca 000050ca     .....P...P...P..
     460:	000050ca 000050ca 000050ca 00000000     .P...P...P......
     470:	000050ca 000050ca 000050ca 000050ca     .P...P...P...P..
     480:	000050ca 000050ca 00000000 000050ca     .P...P.......P..
     490:	000050ca 000050ca 000050ca 000050ca     .P...P...P...P..

000004a0 <prvBlockingTask>:
prvBlockingTask():
E:/9 Mytest/Free_RTOS/EXAM/Demo/Common/Minimal/AbortDelay.c:209
	}
}
/*-----------------------------------------------------------*/

static void prvBlockingTask( void *pvParameters )
{
     4a0:	7139                	addi	sp,sp,-64
     4a2:	de06                	sw	ra,60(sp)
     4a4:	dc22                	sw	s0,56(sp)
     4a6:	da26                	sw	s1,52(sp)
     4a8:	d84a                	sw	s2,48(sp)
     4aa:	d64e                	sw	s3,44(sp)
     4ac:	d452                	sw	s4,40(sp)
     4ae:	d256                	sw	s5,36(sp)
     4b0:	d05a                	sw	s6,32(sp)
     4b2:	ce5e                	sw	s7,28(sp)
     4b4:	cc62                	sw	s8,24(sp)
     4b6:	ca66                	sw	s9,20(sp)
     4b8:	c86a                	sw	s10,16(sp)
E:/9 Mytest/Free_RTOS/EXAM/Demo/Common/Minimal/AbortDelay.c:284
TaskHandle_t xThisTask;
BaseType_t xReturned;

	/* Try unblocking this task using both the task and ISR versions of the API -
	both should return false as this task is not blocked. */
	xThisTask = xTaskGetCurrentTaskHandle();
     4ba:	4d7080ef          	jal	ra,9190 <xTaskGetCurrentTaskHandle>
E:/9 Mytest/Free_RTOS/EXAM/Demo/Common/Minimal/AbortDelay.c:286

	xReturned = xTaskAbortDelay( xThisTask );
     4be:	610080ef          	jal	ra,8ace <xTaskAbortDelay>
E:/9 Mytest/Free_RTOS/EXAM/Demo/Common/Minimal/AbortDelay.c:289
	if( xReturned != pdFALSE )
	{
		xErrorOccurred = pdTRUE;
     4c2:	20001437          	lui	s0,0x20001
E:/9 Mytest/Free_RTOS/EXAM/Demo/Common/Minimal/AbortDelay.c:287
	if( xReturned != pdFALSE )
     4c6:	c501                	beqz	a0,4ce <prvBlockingTask+0x2e>
E:/9 Mytest/Free_RTOS/EXAM/Demo/Common/Minimal/AbortDelay.c:289
		xErrorOccurred = pdTRUE;
     4c8:	4785                	li	a5,1
     4ca:	88f42623          	sw	a5,-1908(s0) # 2000088c <xErrorOccurred>
E:/9 Mytest/Free_RTOS/EXAM/Demo/Common/Minimal/AbortDelay.c:221
	xControllingTask = xTaskGetHandle( pcControllingTaskName );
     4ce:	0000d537          	lui	a0,0xd
     4d2:	b4c50513          	addi	a0,a0,-1204 # cb4c <__FUNCTION__.4880+0x18>
     4d6:	4ee080ef          	jal	ra,89c4 <xTaskGetHandle>
     4da:	8baa                	mv	s7,a0
E:/9 Mytest/Free_RTOS/EXAM/Demo/Common/Minimal/AbortDelay.c:222
	configASSERT( xControllingTask );
     4dc:	4e050363          	beqz	a0,9c2 <STACK_SIZE+0x1c2>
     4e0:	6ab1                	lui	s5,0xc
     4e2:	f18a8a93          	addi	s5,s5,-232 # bf18 <_sbrk+0x26>
     4e6:	20001b37          	lui	s6,0x20001
E:/9 Mytest/Free_RTOS/EXAM/Demo/Common/Minimal/AbortDelay.c:229
		switch( ulNotificationValue )
     4ea:	4c1d                	li	s8,7
prvCheckExpectedTimeIsWithinAnAcceptableMargin():
E:/9 Mytest/Free_RTOS/EXAM/Demo/Common/Minimal/AbortDelay.c:714

	xTimeNow = xTaskGetTickCount();
	xActualBlockTime = xTimeNow - xStartTime;

	/* The actual block time should not be less than the expected block time. */
	if( xActualBlockTime < xExpectedBlockTime )
     4ec:	06300913          	li	s2,99
     4f0:	03100a13          	li	s4,49
E:/9 Mytest/Free_RTOS/EXAM/Demo/Common/Minimal/AbortDelay.c:722
	}

	/* The actual block time can be greater than the expected block time, as it
	depends on the priority of the other tasks, but it should be within an
	acceptable margin. */
	if( xActualBlockTime > ( xExpectedBlockTime + xAllowableMargin ) )
     4f4:	06b00493          	li	s1,107
     4f8:	03900993          	li	s3,57
prvBlockingTask():
E:/9 Mytest/Free_RTOS/EXAM/Demo/Common/Minimal/AbortDelay.c:227 (discriminator 2)
		xTaskNotifyWait( 0, ulMax, &ulNotificationValue, portMAX_DELAY );
     4fc:	577d                	li	a4,-1
     4fe:	0034                	addi	a3,sp,8
     500:	567d                	li	a2,-1
     502:	4581                	li	a1,0
     504:	4501                	li	a0,0
     506:	034090ef          	jal	ra,953a <xTaskGenericNotifyWait>
E:/9 Mytest/Free_RTOS/EXAM/Demo/Common/Minimal/AbortDelay.c:229 (discriminator 2)
		switch( ulNotificationValue )
     50a:	47a2                	lw	a5,8(sp)
     50c:	0afc6363          	bltu	s8,a5,5b2 <prvBlockingTask+0x112>
     510:	078a                	slli	a5,a5,0x2
     512:	97d6                	add	a5,a5,s5
     514:	439c                	lw	a5,0(a5)
     516:	8782                	jr	a5
prvTestAbortingSemaphoreTake():
E:/9 Mytest/Free_RTOS/EXAM/Demo/Common/Minimal/AbortDelay.c:622
		xSemaphore = xSemaphoreCreateBinary();
     518:	4581                	li	a1,0
     51a:	460d                	li	a2,3
     51c:	4505                	li	a0,1
     51e:	4d5050ef          	jal	ra,61f2 <xQueueGenericCreate>
     522:	8caa                	mv	s9,a0
E:/9 Mytest/Free_RTOS/EXAM/Demo/Common/Minimal/AbortDelay.c:627
	xTimeAtStart = xTaskGetTickCount();
     524:	078080ef          	jal	ra,859c <xTaskGetTickCount>
     528:	8d2a                	mv	s10,a0
E:/9 Mytest/Free_RTOS/EXAM/Demo/Common/Minimal/AbortDelay.c:630
	xReturn = xSemaphoreTake( xSemaphore, xMaxBlockTime );
     52a:	06400593          	li	a1,100
     52e:	8566                	mv	a0,s9
     530:	412060ef          	jal	ra,6942 <xQueueSemaphoreTake>
E:/9 Mytest/Free_RTOS/EXAM/Demo/Common/Minimal/AbortDelay.c:631
	if( xReturn != pdFALSE )
     534:	c501                	beqz	a0,53c <prvBlockingTask+0x9c>
E:/9 Mytest/Free_RTOS/EXAM/Demo/Common/Minimal/AbortDelay.c:633
		xErrorOccurred = pdTRUE;
     536:	4785                	li	a5,1
     538:	88f42623          	sw	a5,-1908(s0)
prvCheckExpectedTimeIsWithinAnAcceptableMargin():
E:/9 Mytest/Free_RTOS/EXAM/Demo/Common/Minimal/AbortDelay.c:710
	xTimeNow = xTaskGetTickCount();
     53c:	060080ef          	jal	ra,859c <xTaskGetTickCount>
E:/9 Mytest/Free_RTOS/EXAM/Demo/Common/Minimal/AbortDelay.c:711
	xActualBlockTime = xTimeNow - xStartTime;
     540:	41a50533          	sub	a0,a0,s10
E:/9 Mytest/Free_RTOS/EXAM/Demo/Common/Minimal/AbortDelay.c:714
	if( xActualBlockTime < xExpectedBlockTime )
     544:	00a97463          	bgeu	s2,a0,54c <prvBlockingTask+0xac>
E:/9 Mytest/Free_RTOS/EXAM/Demo/Common/Minimal/AbortDelay.c:722
	if( xActualBlockTime > ( xExpectedBlockTime + xAllowableMargin ) )
     548:	00a4f563          	bgeu	s1,a0,552 <prvBlockingTask+0xb2>
E:/9 Mytest/Free_RTOS/EXAM/Demo/Common/Minimal/AbortDelay.c:724
	{
		xErrorOccurred = pdTRUE;
     54c:	4785                	li	a5,1
     54e:	88f42623          	sw	a5,-1908(s0)
prvTestAbortingSemaphoreTake():
E:/9 Mytest/Free_RTOS/EXAM/Demo/Common/Minimal/AbortDelay.c:638
	xTimeAtStart = xTaskGetTickCount();
     552:	04a080ef          	jal	ra,859c <xTaskGetTickCount>
     556:	8d2a                	mv	s10,a0
E:/9 Mytest/Free_RTOS/EXAM/Demo/Common/Minimal/AbortDelay.c:642
	xReturn = xSemaphoreTake( xSemaphore, portMAX_DELAY );
     558:	55fd                	li	a1,-1
     55a:	8566                	mv	a0,s9
     55c:	3e6060ef          	jal	ra,6942 <xQueueSemaphoreTake>
E:/9 Mytest/Free_RTOS/EXAM/Demo/Common/Minimal/AbortDelay.c:643
	if( xReturn != pdFALSE )
     560:	c501                	beqz	a0,568 <prvBlockingTask+0xc8>
E:/9 Mytest/Free_RTOS/EXAM/Demo/Common/Minimal/AbortDelay.c:645
		xErrorOccurred = pdTRUE;
     562:	4785                	li	a5,1
     564:	88f42623          	sw	a5,-1908(s0)
prvCheckExpectedTimeIsWithinAnAcceptableMargin():
E:/9 Mytest/Free_RTOS/EXAM/Demo/Common/Minimal/AbortDelay.c:710
	xTimeNow = xTaskGetTickCount();
     568:	034080ef          	jal	ra,859c <xTaskGetTickCount>
E:/9 Mytest/Free_RTOS/EXAM/Demo/Common/Minimal/AbortDelay.c:711
	xActualBlockTime = xTimeNow - xStartTime;
     56c:	41a50533          	sub	a0,a0,s10
E:/9 Mytest/Free_RTOS/EXAM/Demo/Common/Minimal/AbortDelay.c:714
	if( xActualBlockTime < xExpectedBlockTime )
     570:	00aa7463          	bgeu	s4,a0,578 <prvBlockingTask+0xd8>
E:/9 Mytest/Free_RTOS/EXAM/Demo/Common/Minimal/AbortDelay.c:722
	if( xActualBlockTime > ( xExpectedBlockTime + xAllowableMargin ) )
     574:	00a9f563          	bgeu	s3,a0,57e <prvBlockingTask+0xde>
E:/9 Mytest/Free_RTOS/EXAM/Demo/Common/Minimal/AbortDelay.c:724
		xErrorOccurred = pdTRUE;
     578:	4785                	li	a5,1
     57a:	88f42623          	sw	a5,-1908(s0)
prvTestAbortingSemaphoreTake():
E:/9 Mytest/Free_RTOS/EXAM/Demo/Common/Minimal/AbortDelay.c:650
	xTimeAtStart = xTaskGetTickCount();
     57e:	01e080ef          	jal	ra,859c <xTaskGetTickCount>
     582:	8d2a                	mv	s10,a0
E:/9 Mytest/Free_RTOS/EXAM/Demo/Common/Minimal/AbortDelay.c:653
	xReturn = xSemaphoreTake( xSemaphore, xMaxBlockTime );
     584:	06400593          	li	a1,100
     588:	8566                	mv	a0,s9
     58a:	3b8060ef          	jal	ra,6942 <xQueueSemaphoreTake>
E:/9 Mytest/Free_RTOS/EXAM/Demo/Common/Minimal/AbortDelay.c:654
	if( xReturn != pdFALSE )
     58e:	c501                	beqz	a0,596 <prvBlockingTask+0xf6>
prvTestAbortingQueueSend():
E:/9 Mytest/Free_RTOS/EXAM/Demo/Common/Minimal/AbortDelay.c:597
		xErrorOccurred = pdTRUE;
     590:	4785                	li	a5,1
     592:	88f42623          	sw	a5,-1908(s0)
prvCheckExpectedTimeIsWithinAnAcceptableMargin():
E:/9 Mytest/Free_RTOS/EXAM/Demo/Common/Minimal/AbortDelay.c:710
	xTimeNow = xTaskGetTickCount();
     596:	006080ef          	jal	ra,859c <xTaskGetTickCount>
E:/9 Mytest/Free_RTOS/EXAM/Demo/Common/Minimal/AbortDelay.c:711
	xActualBlockTime = xTimeNow - xStartTime;
     59a:	41a50533          	sub	a0,a0,s10
E:/9 Mytest/Free_RTOS/EXAM/Demo/Common/Minimal/AbortDelay.c:714
	if( xActualBlockTime < xExpectedBlockTime )
     59e:	00a97463          	bgeu	s2,a0,5a6 <prvBlockingTask+0x106>
E:/9 Mytest/Free_RTOS/EXAM/Demo/Common/Minimal/AbortDelay.c:722
	if( xActualBlockTime > ( xExpectedBlockTime + xAllowableMargin ) )
     5a2:	00a4f563          	bgeu	s1,a0,5ac <prvBlockingTask+0x10c>
E:/9 Mytest/Free_RTOS/EXAM/Demo/Common/Minimal/AbortDelay.c:724
		xErrorOccurred = pdTRUE;
     5a6:	4785                	li	a5,1
     5a8:	88f42623          	sw	a5,-1908(s0)
prvTestAbortingQueueSend():
E:/9 Mytest/Free_RTOS/EXAM/Demo/Common/Minimal/AbortDelay.c:602
	vQueueDelete( xQueue );
     5ac:	8566                	mv	a0,s9
     5ae:	1f3060ef          	jal	ra,6fa0 <vQueueDelete>
prvBlockingTask():
E:/9 Mytest/Free_RTOS/EXAM/Demo/Common/Minimal/AbortDelay.c:269
		xTaskNotifyGive( xControllingTask );
     5b2:	4701                	li	a4,0
     5b4:	4689                	li	a3,2
     5b6:	4601                	li	a2,0
     5b8:	4581                	li	a1,0
     5ba:	855e                	mv	a0,s7
     5bc:	098090ef          	jal	ra,9654 <xTaskGenericNotify>
E:/9 Mytest/Free_RTOS/EXAM/Demo/Common/Minimal/AbortDelay.c:272
		xBlockingCycles++;
     5c0:	890b2783          	lw	a5,-1904(s6) # 20000890 <xBlockingCycles>
     5c4:	0785                	addi	a5,a5,1
     5c6:	88fb2823          	sw	a5,-1904(s6)
E:/9 Mytest/Free_RTOS/EXAM/Demo/Common/Minimal/AbortDelay.c:227
		xTaskNotifyWait( 0, ulMax, &ulNotificationValue, portMAX_DELAY );
     5ca:	bf0d                	j	4fc <prvBlockingTask+0x5c>
prvTestAbortingQueueSend():
E:/9 Mytest/Free_RTOS/EXAM/Demo/Common/Minimal/AbortDelay.c:554
		xQueue = xQueueCreate( xQueueLength, sizeof( uint8_t ) );
     5cc:	4601                	li	a2,0
     5ce:	4585                	li	a1,1
     5d0:	4505                	li	a0,1
     5d2:	421050ef          	jal	ra,61f2 <xQueueGenericCreate>
     5d6:	8caa                	mv	s9,a0
E:/9 Mytest/Free_RTOS/EXAM/Demo/Common/Minimal/AbortDelay.c:555
		configASSERT( xQueue );
     5d8:	38050a63          	beqz	a0,96c <STACK_SIZE+0x16c>
E:/9 Mytest/Free_RTOS/EXAM/Demo/Common/Minimal/AbortDelay.c:561
	xReturn = xQueueSend( xQueue, &ucItemToQueue, xMaxBlockTime );
     5dc:	4681                	li	a3,0
     5de:	06400613          	li	a2,100
     5e2:	006c                	addi	a1,sp,12
     5e4:	511050ef          	jal	ra,62f4 <xQueueGenericSend>
E:/9 Mytest/Free_RTOS/EXAM/Demo/Common/Minimal/AbortDelay.c:562
	if( xReturn != pdPASS )
     5e8:	4785                	li	a5,1
     5ea:	00f50463          	beq	a0,a5,5f2 <prvBlockingTask+0x152>
E:/9 Mytest/Free_RTOS/EXAM/Demo/Common/Minimal/AbortDelay.c:564
		xErrorOccurred = pdTRUE;
     5ee:	88f42623          	sw	a5,-1908(s0)
E:/9 Mytest/Free_RTOS/EXAM/Demo/Common/Minimal/AbortDelay.c:568
	xTimeAtStart = xTaskGetTickCount();
     5f2:	7ab070ef          	jal	ra,859c <xTaskGetTickCount>
     5f6:	8d2a                	mv	s10,a0
E:/9 Mytest/Free_RTOS/EXAM/Demo/Common/Minimal/AbortDelay.c:571
	xReturn = xQueueSend( xQueue, &ucItemToQueue, xMaxBlockTime );
     5f8:	4681                	li	a3,0
     5fa:	06400613          	li	a2,100
     5fe:	006c                	addi	a1,sp,12
     600:	8566                	mv	a0,s9
     602:	4f3050ef          	jal	ra,62f4 <xQueueGenericSend>
E:/9 Mytest/Free_RTOS/EXAM/Demo/Common/Minimal/AbortDelay.c:572
	if( xReturn != pdFALSE )
     606:	c501                	beqz	a0,60e <prvBlockingTask+0x16e>
E:/9 Mytest/Free_RTOS/EXAM/Demo/Common/Minimal/AbortDelay.c:574
		xErrorOccurred = pdTRUE;
     608:	4785                	li	a5,1
     60a:	88f42623          	sw	a5,-1908(s0)
prvCheckExpectedTimeIsWithinAnAcceptableMargin():
E:/9 Mytest/Free_RTOS/EXAM/Demo/Common/Minimal/AbortDelay.c:710
	xTimeNow = xTaskGetTickCount();
     60e:	78f070ef          	jal	ra,859c <xTaskGetTickCount>
E:/9 Mytest/Free_RTOS/EXAM/Demo/Common/Minimal/AbortDelay.c:711
	xActualBlockTime = xTimeNow - xStartTime;
     612:	41a50533          	sub	a0,a0,s10
E:/9 Mytest/Free_RTOS/EXAM/Demo/Common/Minimal/AbortDelay.c:714
	if( xActualBlockTime < xExpectedBlockTime )
     616:	3aa96363          	bltu	s2,a0,9bc <STACK_SIZE+0x1bc>
E:/9 Mytest/Free_RTOS/EXAM/Demo/Common/Minimal/AbortDelay.c:724
		xErrorOccurred = pdTRUE;
     61a:	4785                	li	a5,1
     61c:	88f42623          	sw	a5,-1908(s0)
prvTestAbortingQueueSend():
E:/9 Mytest/Free_RTOS/EXAM/Demo/Common/Minimal/AbortDelay.c:579
	xTimeAtStart = xTaskGetTickCount();
     620:	77d070ef          	jal	ra,859c <xTaskGetTickCount>
     624:	8d2a                	mv	s10,a0
E:/9 Mytest/Free_RTOS/EXAM/Demo/Common/Minimal/AbortDelay.c:583
	xReturn = xQueueSend( xQueue, &ucItemToQueue, xMaxBlockTime );
     626:	4681                	li	a3,0
     628:	06400613          	li	a2,100
     62c:	006c                	addi	a1,sp,12
     62e:	8566                	mv	a0,s9
     630:	4c5050ef          	jal	ra,62f4 <xQueueGenericSend>
E:/9 Mytest/Free_RTOS/EXAM/Demo/Common/Minimal/AbortDelay.c:584
	if( xReturn != pdFALSE )
     634:	c501                	beqz	a0,63c <prvBlockingTask+0x19c>
E:/9 Mytest/Free_RTOS/EXAM/Demo/Common/Minimal/AbortDelay.c:586
		xErrorOccurred = pdTRUE;
     636:	4785                	li	a5,1
     638:	88f42623          	sw	a5,-1908(s0)
prvCheckExpectedTimeIsWithinAnAcceptableMargin():
E:/9 Mytest/Free_RTOS/EXAM/Demo/Common/Minimal/AbortDelay.c:710
	xTimeNow = xTaskGetTickCount();
     63c:	761070ef          	jal	ra,859c <xTaskGetTickCount>
E:/9 Mytest/Free_RTOS/EXAM/Demo/Common/Minimal/AbortDelay.c:711
	xActualBlockTime = xTimeNow - xStartTime;
     640:	41a50533          	sub	a0,a0,s10
E:/9 Mytest/Free_RTOS/EXAM/Demo/Common/Minimal/AbortDelay.c:714
	if( xActualBlockTime < xExpectedBlockTime )
     644:	36aa6363          	bltu	s4,a0,9aa <STACK_SIZE+0x1aa>
E:/9 Mytest/Free_RTOS/EXAM/Demo/Common/Minimal/AbortDelay.c:724
		xErrorOccurred = pdTRUE;
     648:	4785                	li	a5,1
     64a:	88f42623          	sw	a5,-1908(s0)
prvTestAbortingQueueSend():
E:/9 Mytest/Free_RTOS/EXAM/Demo/Common/Minimal/AbortDelay.c:591
	xTimeAtStart = xTaskGetTickCount();
     64e:	74f070ef          	jal	ra,859c <xTaskGetTickCount>
     652:	8d2a                	mv	s10,a0
E:/9 Mytest/Free_RTOS/EXAM/Demo/Common/Minimal/AbortDelay.c:594
	xReturn = xQueueSend( xQueue, &ucItemToQueue, xMaxBlockTime );
     654:	4681                	li	a3,0
     656:	06400613          	li	a2,100
     65a:	006c                	addi	a1,sp,12
     65c:	8566                	mv	a0,s9
     65e:	497050ef          	jal	ra,62f4 <xQueueGenericSend>
E:/9 Mytest/Free_RTOS/EXAM/Demo/Common/Minimal/AbortDelay.c:595
	if( xReturn != pdFALSE )
     662:	d915                	beqz	a0,596 <prvBlockingTask+0xf6>
     664:	b735                	j	590 <prvBlockingTask+0xf0>
prvTestAbortingEventGroupWait():
E:/9 Mytest/Free_RTOS/EXAM/Demo/Common/Minimal/AbortDelay.c:422
		xEventGroup = xEventGroupCreate();
     666:	360050ef          	jal	ra,59c6 <xEventGroupCreate>
     66a:	8caa                	mv	s9,a0
E:/9 Mytest/Free_RTOS/EXAM/Demo/Common/Minimal/AbortDelay.c:423
		configASSERT( xEventGroup );
     66c:	40050f63          	beqz	a0,a8a <STACK_SIZE+0x28a>
E:/9 Mytest/Free_RTOS/EXAM/Demo/Common/Minimal/AbortDelay.c:428
	xTimeAtStart = xTaskGetTickCount();
     670:	72d070ef          	jal	ra,859c <xTaskGetTickCount>
     674:	8d2a                	mv	s10,a0
E:/9 Mytest/Free_RTOS/EXAM/Demo/Common/Minimal/AbortDelay.c:431
	xReturn = xEventGroupWaitBits( xEventGroup, xBitsToWaitFor, pdTRUE, pdTRUE, xMaxBlockTime );
     676:	06400713          	li	a4,100
     67a:	4685                	li	a3,1
     67c:	4605                	li	a2,1
     67e:	4585                	li	a1,1
     680:	8566                	mv	a0,s9
     682:	366050ef          	jal	ra,59e8 <xEventGroupWaitBits>
E:/9 Mytest/Free_RTOS/EXAM/Demo/Common/Minimal/AbortDelay.c:432
	if( xReturn != 0x00 )
     686:	c501                	beqz	a0,68e <prvBlockingTask+0x1ee>
E:/9 Mytest/Free_RTOS/EXAM/Demo/Common/Minimal/AbortDelay.c:434
		xErrorOccurred = pdTRUE;
     688:	4785                	li	a5,1
     68a:	88f42623          	sw	a5,-1908(s0)
prvCheckExpectedTimeIsWithinAnAcceptableMargin():
E:/9 Mytest/Free_RTOS/EXAM/Demo/Common/Minimal/AbortDelay.c:710
	xTimeNow = xTaskGetTickCount();
     68e:	70f070ef          	jal	ra,859c <xTaskGetTickCount>
E:/9 Mytest/Free_RTOS/EXAM/Demo/Common/Minimal/AbortDelay.c:711
	xActualBlockTime = xTimeNow - xStartTime;
     692:	41a50533          	sub	a0,a0,s10
E:/9 Mytest/Free_RTOS/EXAM/Demo/Common/Minimal/AbortDelay.c:714
	if( xActualBlockTime < xExpectedBlockTime )
     696:	32a96063          	bltu	s2,a0,9b6 <STACK_SIZE+0x1b6>
E:/9 Mytest/Free_RTOS/EXAM/Demo/Common/Minimal/AbortDelay.c:724
		xErrorOccurred = pdTRUE;
     69a:	4785                	li	a5,1
     69c:	88f42623          	sw	a5,-1908(s0)
prvTestAbortingEventGroupWait():
E:/9 Mytest/Free_RTOS/EXAM/Demo/Common/Minimal/AbortDelay.c:439
	xTimeAtStart = xTaskGetTickCount();
     6a0:	6fd070ef          	jal	ra,859c <xTaskGetTickCount>
     6a4:	8d2a                	mv	s10,a0
E:/9 Mytest/Free_RTOS/EXAM/Demo/Common/Minimal/AbortDelay.c:443
	xReturn = xEventGroupWaitBits( xEventGroup, xBitsToWaitFor, pdTRUE, pdTRUE, xMaxBlockTime );
     6a6:	06400713          	li	a4,100
     6aa:	4685                	li	a3,1
     6ac:	4605                	li	a2,1
     6ae:	4585                	li	a1,1
     6b0:	8566                	mv	a0,s9
     6b2:	336050ef          	jal	ra,59e8 <xEventGroupWaitBits>
E:/9 Mytest/Free_RTOS/EXAM/Demo/Common/Minimal/AbortDelay.c:444
	if( xReturn != 0x00 )
     6b6:	c501                	beqz	a0,6be <prvBlockingTask+0x21e>
E:/9 Mytest/Free_RTOS/EXAM/Demo/Common/Minimal/AbortDelay.c:446
		xErrorOccurred = pdTRUE;
     6b8:	4785                	li	a5,1
     6ba:	88f42623          	sw	a5,-1908(s0)
prvCheckExpectedTimeIsWithinAnAcceptableMargin():
E:/9 Mytest/Free_RTOS/EXAM/Demo/Common/Minimal/AbortDelay.c:710
	xTimeNow = xTaskGetTickCount();
     6be:	6df070ef          	jal	ra,859c <xTaskGetTickCount>
E:/9 Mytest/Free_RTOS/EXAM/Demo/Common/Minimal/AbortDelay.c:711
	xActualBlockTime = xTimeNow - xStartTime;
     6c2:	41a50533          	sub	a0,a0,s10
E:/9 Mytest/Free_RTOS/EXAM/Demo/Common/Minimal/AbortDelay.c:714
	if( xActualBlockTime < xExpectedBlockTime )
     6c6:	2caa6f63          	bltu	s4,a0,9a4 <STACK_SIZE+0x1a4>
E:/9 Mytest/Free_RTOS/EXAM/Demo/Common/Minimal/AbortDelay.c:724
		xErrorOccurred = pdTRUE;
     6ca:	4785                	li	a5,1
     6cc:	88f42623          	sw	a5,-1908(s0)
prvTestAbortingEventGroupWait():
E:/9 Mytest/Free_RTOS/EXAM/Demo/Common/Minimal/AbortDelay.c:451
	xTimeAtStart = xTaskGetTickCount();
     6d0:	6cd070ef          	jal	ra,859c <xTaskGetTickCount>
     6d4:	8d2a                	mv	s10,a0
E:/9 Mytest/Free_RTOS/EXAM/Demo/Common/Minimal/AbortDelay.c:454
	xReturn = xEventGroupWaitBits( xEventGroup, xBitsToWaitFor, pdTRUE, pdTRUE, xMaxBlockTime );
     6d6:	06400713          	li	a4,100
     6da:	4685                	li	a3,1
     6dc:	4605                	li	a2,1
     6de:	4585                	li	a1,1
     6e0:	8566                	mv	a0,s9
     6e2:	306050ef          	jal	ra,59e8 <xEventGroupWaitBits>
E:/9 Mytest/Free_RTOS/EXAM/Demo/Common/Minimal/AbortDelay.c:455
	if( xReturn != 0x00 )
     6e6:	c501                	beqz	a0,6ee <prvBlockingTask+0x24e>
E:/9 Mytest/Free_RTOS/EXAM/Demo/Common/Minimal/AbortDelay.c:457
		xErrorOccurred = pdTRUE;
     6e8:	4785                	li	a5,1
     6ea:	88f42623          	sw	a5,-1908(s0)
prvCheckExpectedTimeIsWithinAnAcceptableMargin():
E:/9 Mytest/Free_RTOS/EXAM/Demo/Common/Minimal/AbortDelay.c:710
	xTimeNow = xTaskGetTickCount();
     6ee:	6af070ef          	jal	ra,859c <xTaskGetTickCount>
E:/9 Mytest/Free_RTOS/EXAM/Demo/Common/Minimal/AbortDelay.c:711
	xActualBlockTime = xTimeNow - xStartTime;
     6f2:	41a50533          	sub	a0,a0,s10
E:/9 Mytest/Free_RTOS/EXAM/Demo/Common/Minimal/AbortDelay.c:714
	if( xActualBlockTime < xExpectedBlockTime )
     6f6:	2aa96163          	bltu	s2,a0,998 <STACK_SIZE+0x198>
E:/9 Mytest/Free_RTOS/EXAM/Demo/Common/Minimal/AbortDelay.c:724
		xErrorOccurred = pdTRUE;
     6fa:	4785                	li	a5,1
     6fc:	88f42623          	sw	a5,-1908(s0)
prvTestAbortingEventGroupWait():
E:/9 Mytest/Free_RTOS/EXAM/Demo/Common/Minimal/AbortDelay.c:462
	vEventGroupDelete( xEventGroup );
     700:	8566                	mv	a0,s9
     702:	722050ef          	jal	ra,5e24 <vEventGroupDelete>
     706:	b575                	j	5b2 <prvBlockingTask+0x112>
prvTestAbortingTaskNotifyTake():
E:/9 Mytest/Free_RTOS/EXAM/Demo/Common/Minimal/AbortDelay.c:371
	xTimeAtStart = xTaskGetTickCount();
     708:	695070ef          	jal	ra,859c <xTaskGetTickCount>
     70c:	8caa                	mv	s9,a0
E:/9 Mytest/Free_RTOS/EXAM/Demo/Common/Minimal/AbortDelay.c:374
	ulReturn = ulTaskNotifyTake( pdFALSE, xMaxBlockTime );
     70e:	06400613          	li	a2,100
     712:	4581                	li	a1,0
     714:	4501                	li	a0,0
     716:	53b080ef          	jal	ra,9450 <ulTaskGenericNotifyTake>
E:/9 Mytest/Free_RTOS/EXAM/Demo/Common/Minimal/AbortDelay.c:375
	if( ulReturn != 0 )
     71a:	c501                	beqz	a0,722 <prvBlockingTask+0x282>
E:/9 Mytest/Free_RTOS/EXAM/Demo/Common/Minimal/AbortDelay.c:377
		xErrorOccurred = pdTRUE;
     71c:	4785                	li	a5,1
     71e:	88f42623          	sw	a5,-1908(s0)
prvCheckExpectedTimeIsWithinAnAcceptableMargin():
E:/9 Mytest/Free_RTOS/EXAM/Demo/Common/Minimal/AbortDelay.c:710
	xTimeNow = xTaskGetTickCount();
     722:	67b070ef          	jal	ra,859c <xTaskGetTickCount>
E:/9 Mytest/Free_RTOS/EXAM/Demo/Common/Minimal/AbortDelay.c:711
	xActualBlockTime = xTimeNow - xStartTime;
     726:	41950533          	sub	a0,a0,s9
E:/9 Mytest/Free_RTOS/EXAM/Demo/Common/Minimal/AbortDelay.c:714
	if( xActualBlockTime < xExpectedBlockTime )
     72a:	00a97463          	bgeu	s2,a0,732 <prvBlockingTask+0x292>
E:/9 Mytest/Free_RTOS/EXAM/Demo/Common/Minimal/AbortDelay.c:722
	if( xActualBlockTime > ( xExpectedBlockTime + xAllowableMargin ) )
     72e:	00a4f563          	bgeu	s1,a0,738 <prvBlockingTask+0x298>
E:/9 Mytest/Free_RTOS/EXAM/Demo/Common/Minimal/AbortDelay.c:724
		xErrorOccurred = pdTRUE;
     732:	4785                	li	a5,1
     734:	88f42623          	sw	a5,-1908(s0)
prvTestAbortingTaskNotifyTake():
E:/9 Mytest/Free_RTOS/EXAM/Demo/Common/Minimal/AbortDelay.c:382
	xTimeAtStart = xTaskGetTickCount();
     738:	665070ef          	jal	ra,859c <xTaskGetTickCount>
     73c:	8caa                	mv	s9,a0
E:/9 Mytest/Free_RTOS/EXAM/Demo/Common/Minimal/AbortDelay.c:386
	ulReturn = ulTaskNotifyTake( pdFALSE, xMaxBlockTime );
     73e:	06400613          	li	a2,100
     742:	4581                	li	a1,0
     744:	4501                	li	a0,0
     746:	50b080ef          	jal	ra,9450 <ulTaskGenericNotifyTake>
E:/9 Mytest/Free_RTOS/EXAM/Demo/Common/Minimal/AbortDelay.c:387
	if( ulReturn != 0 )
     74a:	c501                	beqz	a0,752 <prvBlockingTask+0x2b2>
E:/9 Mytest/Free_RTOS/EXAM/Demo/Common/Minimal/AbortDelay.c:389
		xErrorOccurred = pdTRUE;
     74c:	4785                	li	a5,1
     74e:	88f42623          	sw	a5,-1908(s0)
prvCheckExpectedTimeIsWithinAnAcceptableMargin():
E:/9 Mytest/Free_RTOS/EXAM/Demo/Common/Minimal/AbortDelay.c:710
	xTimeNow = xTaskGetTickCount();
     752:	64b070ef          	jal	ra,859c <xTaskGetTickCount>
E:/9 Mytest/Free_RTOS/EXAM/Demo/Common/Minimal/AbortDelay.c:711
	xActualBlockTime = xTimeNow - xStartTime;
     756:	41950533          	sub	a0,a0,s9
E:/9 Mytest/Free_RTOS/EXAM/Demo/Common/Minimal/AbortDelay.c:714
	if( xActualBlockTime < xExpectedBlockTime )
     75a:	00aa7463          	bgeu	s4,a0,762 <prvBlockingTask+0x2c2>
E:/9 Mytest/Free_RTOS/EXAM/Demo/Common/Minimal/AbortDelay.c:722
	if( xActualBlockTime > ( xExpectedBlockTime + xAllowableMargin ) )
     75e:	00a9f563          	bgeu	s3,a0,768 <prvBlockingTask+0x2c8>
E:/9 Mytest/Free_RTOS/EXAM/Demo/Common/Minimal/AbortDelay.c:724
		xErrorOccurred = pdTRUE;
     762:	4785                	li	a5,1
     764:	88f42623          	sw	a5,-1908(s0)
prvTestAbortingTaskNotifyTake():
E:/9 Mytest/Free_RTOS/EXAM/Demo/Common/Minimal/AbortDelay.c:394
	xTimeAtStart = xTaskGetTickCount();
     768:	635070ef          	jal	ra,859c <xTaskGetTickCount>
     76c:	8caa                	mv	s9,a0
E:/9 Mytest/Free_RTOS/EXAM/Demo/Common/Minimal/AbortDelay.c:397
	ulReturn = ulTaskNotifyTake( pdFALSE, xMaxBlockTime );
     76e:	06400613          	li	a2,100
     772:	4581                	li	a1,0
     774:	4501                	li	a0,0
     776:	4db080ef          	jal	ra,9450 <ulTaskGenericNotifyTake>
E:/9 Mytest/Free_RTOS/EXAM/Demo/Common/Minimal/AbortDelay.c:398
	if( ulReturn != 0 )
     77a:	c501                	beqz	a0,782 <prvBlockingTask+0x2e2>
E:/9 Mytest/Free_RTOS/EXAM/Demo/Common/Minimal/AbortDelay.c:400
		xErrorOccurred = pdTRUE;
     77c:	4785                	li	a5,1
     77e:	88f42623          	sw	a5,-1908(s0)
prvCheckExpectedTimeIsWithinAnAcceptableMargin():
E:/9 Mytest/Free_RTOS/EXAM/Demo/Common/Minimal/AbortDelay.c:710
	xTimeNow = xTaskGetTickCount();
     782:	61b070ef          	jal	ra,859c <xTaskGetTickCount>
E:/9 Mytest/Free_RTOS/EXAM/Demo/Common/Minimal/AbortDelay.c:711
	xActualBlockTime = xTimeNow - xStartTime;
     786:	41950533          	sub	a0,a0,s9
E:/9 Mytest/Free_RTOS/EXAM/Demo/Common/Minimal/AbortDelay.c:714
	if( xActualBlockTime < xExpectedBlockTime )
     78a:	00a97463          	bgeu	s2,a0,792 <prvBlockingTask+0x2f2>
E:/9 Mytest/Free_RTOS/EXAM/Demo/Common/Minimal/AbortDelay.c:722
	if( xActualBlockTime > ( xExpectedBlockTime + xAllowableMargin ) )
     78e:	e2a4f2e3          	bgeu	s1,a0,5b2 <prvBlockingTask+0x112>
E:/9 Mytest/Free_RTOS/EXAM/Demo/Common/Minimal/AbortDelay.c:724
		xErrorOccurred = pdTRUE;
     792:	4785                	li	a5,1
     794:	88f42623          	sw	a5,-1908(s0)
     798:	bd29                	j	5b2 <prvBlockingTask+0x112>
prvTestAbortingTaskDelayUntil():
E:/9 Mytest/Free_RTOS/EXAM/Demo/Common/Minimal/AbortDelay.c:300
	xTimeAtStart = xTaskGetTickCount();
     79a:	603070ef          	jal	ra,859c <xTaskGetTickCount>
     79e:	8caa                	mv	s9,a0
E:/9 Mytest/Free_RTOS/EXAM/Demo/Common/Minimal/AbortDelay.c:308
	xReturned = xTaskDelayUntil( &xLastBlockTime, xMaxBlockTime );
     7a0:	06400593          	li	a1,100
     7a4:	0068                	addi	a0,sp,12
E:/9 Mytest/Free_RTOS/EXAM/Demo/Common/Minimal/AbortDelay.c:305
	xLastBlockTime = xTimeAtStart;
     7a6:	c666                	sw	s9,12(sp)
E:/9 Mytest/Free_RTOS/EXAM/Demo/Common/Minimal/AbortDelay.c:308
	xReturned = xTaskDelayUntil( &xLastBlockTime, xMaxBlockTime );
     7a8:	0f6080ef          	jal	ra,889e <xTaskDelayUntil>
     7ac:	8d2a                	mv	s10,a0
prvCheckExpectedTimeIsWithinAnAcceptableMargin():
E:/9 Mytest/Free_RTOS/EXAM/Demo/Common/Minimal/AbortDelay.c:710
	xTimeNow = xTaskGetTickCount();
     7ae:	5ef070ef          	jal	ra,859c <xTaskGetTickCount>
E:/9 Mytest/Free_RTOS/EXAM/Demo/Common/Minimal/AbortDelay.c:711
	xActualBlockTime = xTimeNow - xStartTime;
     7b2:	41950533          	sub	a0,a0,s9
E:/9 Mytest/Free_RTOS/EXAM/Demo/Common/Minimal/AbortDelay.c:714
	if( xActualBlockTime < xExpectedBlockTime )
     7b6:	00a97463          	bgeu	s2,a0,7be <prvBlockingTask+0x31e>
E:/9 Mytest/Free_RTOS/EXAM/Demo/Common/Minimal/AbortDelay.c:722
	if( xActualBlockTime > ( xExpectedBlockTime + xAllowableMargin ) )
     7ba:	00a4f563          	bgeu	s1,a0,7c4 <prvBlockingTask+0x324>
E:/9 Mytest/Free_RTOS/EXAM/Demo/Common/Minimal/AbortDelay.c:724
		xErrorOccurred = pdTRUE;
     7be:	4785                	li	a5,1
     7c0:	88f42623          	sw	a5,-1908(s0)
prvTestAbortingTaskDelayUntil():
E:/9 Mytest/Free_RTOS/EXAM/Demo/Common/Minimal/AbortDelay.c:310
	configASSERT( xReturned == pdTRUE );
     7c4:	4785                	li	a5,1
     7c6:	24fd0463          	beq	s10,a5,a0e <STACK_SIZE+0x20e>
     7ca:	30047073          	csrci	mstatus,8
     7ce:	66b1                	lui	a3,0xc
     7d0:	0000d637          	lui	a2,0xd
     7d4:	0000d537          	lui	a0,0xd
     7d8:	f4868693          	addi	a3,a3,-184 # bf48 <__FUNCTION__.4384>
     7dc:	b5460613          	addi	a2,a2,-1196 # cb54 <__FUNCTION__.4880+0x20>
     7e0:	13600593          	li	a1,310
     7e4:	b5850513          	addi	a0,a0,-1192 # cb58 <__FUNCTION__.4880+0x24>
     7e8:	267040ef          	jal	ra,524e <log_debug>
     7ec:	9002                	ebreak
     7ee:	a001                	j	7ee <prvBlockingTask+0x34e>
prvTestAbortingStreamBufferReceive():
E:/9 Mytest/Free_RTOS/EXAM/Demo/Common/Minimal/AbortDelay.c:491
		xStreamBuffer = xStreamBufferCreate( sizeof( uint8_t ), xTriggerLevelBytes );
     7f0:	4601                	li	a2,0
     7f2:	4585                	li	a1,1
     7f4:	4505                	li	a0,1
     7f6:	40b060ef          	jal	ra,7400 <xStreamBufferGenericCreate>
     7fa:	8caa                	mv	s9,a0
E:/9 Mytest/Free_RTOS/EXAM/Demo/Common/Minimal/AbortDelay.c:492
		configASSERT( xStreamBuffer );
     7fc:	1e050663          	beqz	a0,9e8 <STACK_SIZE+0x1e8>
E:/9 Mytest/Free_RTOS/EXAM/Demo/Common/Minimal/AbortDelay.c:497
	xTimeAtStart = xTaskGetTickCount();
     800:	59d070ef          	jal	ra,859c <xTaskGetTickCount>
     804:	8d2a                	mv	s10,a0
E:/9 Mytest/Free_RTOS/EXAM/Demo/Common/Minimal/AbortDelay.c:500
	xReturn = xStreamBufferReceive( xStreamBuffer, &uxRxData, sizeof( uxRxData ), xMaxBlockTime );
     806:	06400693          	li	a3,100
     80a:	4605                	li	a2,1
     80c:	006c                	addi	a1,sp,12
     80e:	8566                	mv	a0,s9
     810:	054070ef          	jal	ra,7864 <xStreamBufferReceive>
E:/9 Mytest/Free_RTOS/EXAM/Demo/Common/Minimal/AbortDelay.c:501
	if( xReturn != 0x00 )
     814:	c501                	beqz	a0,81c <STACK_SIZE+0x1c>
E:/9 Mytest/Free_RTOS/EXAM/Demo/Common/Minimal/AbortDelay.c:503
		xErrorOccurred = pdTRUE;
     816:	4785                	li	a5,1
     818:	88f42623          	sw	a5,-1908(s0)
prvCheckExpectedTimeIsWithinAnAcceptableMargin():
E:/9 Mytest/Free_RTOS/EXAM/Demo/Common/Minimal/AbortDelay.c:710
	xTimeNow = xTaskGetTickCount();
     81c:	581070ef          	jal	ra,859c <xTaskGetTickCount>
E:/9 Mytest/Free_RTOS/EXAM/Demo/Common/Minimal/AbortDelay.c:711
	xActualBlockTime = xTimeNow - xStartTime;
     820:	41a50533          	sub	a0,a0,s10
E:/9 Mytest/Free_RTOS/EXAM/Demo/Common/Minimal/AbortDelay.c:714
	if( xActualBlockTime < xExpectedBlockTime )
     824:	18a96663          	bltu	s2,a0,9b0 <STACK_SIZE+0x1b0>
E:/9 Mytest/Free_RTOS/EXAM/Demo/Common/Minimal/AbortDelay.c:724
		xErrorOccurred = pdTRUE;
     828:	4785                	li	a5,1
     82a:	88f42623          	sw	a5,-1908(s0)
prvTestAbortingStreamBufferReceive():
E:/9 Mytest/Free_RTOS/EXAM/Demo/Common/Minimal/AbortDelay.c:508
	xTimeAtStart = xTaskGetTickCount();
     82e:	56f070ef          	jal	ra,859c <xTaskGetTickCount>
     832:	8d2a                	mv	s10,a0
E:/9 Mytest/Free_RTOS/EXAM/Demo/Common/Minimal/AbortDelay.c:512
	xReturn = xStreamBufferReceive( xStreamBuffer, &uxRxData, sizeof( uxRxData ), xMaxBlockTime );
     834:	06400693          	li	a3,100
     838:	4605                	li	a2,1
     83a:	006c                	addi	a1,sp,12
     83c:	8566                	mv	a0,s9
     83e:	026070ef          	jal	ra,7864 <xStreamBufferReceive>
E:/9 Mytest/Free_RTOS/EXAM/Demo/Common/Minimal/AbortDelay.c:513
	if( xReturn != 0x00 )
     842:	c501                	beqz	a0,84a <STACK_SIZE+0x4a>
E:/9 Mytest/Free_RTOS/EXAM/Demo/Common/Minimal/AbortDelay.c:515
		xErrorOccurred = pdTRUE;
     844:	4785                	li	a5,1
     846:	88f42623          	sw	a5,-1908(s0)
prvCheckExpectedTimeIsWithinAnAcceptableMargin():
E:/9 Mytest/Free_RTOS/EXAM/Demo/Common/Minimal/AbortDelay.c:710
	xTimeNow = xTaskGetTickCount();
     84a:	553070ef          	jal	ra,859c <xTaskGetTickCount>
E:/9 Mytest/Free_RTOS/EXAM/Demo/Common/Minimal/AbortDelay.c:711
	xActualBlockTime = xTimeNow - xStartTime;
     84e:	41a50533          	sub	a0,a0,s10
E:/9 Mytest/Free_RTOS/EXAM/Demo/Common/Minimal/AbortDelay.c:714
	if( xActualBlockTime < xExpectedBlockTime )
     852:	14aa6663          	bltu	s4,a0,99e <STACK_SIZE+0x19e>
E:/9 Mytest/Free_RTOS/EXAM/Demo/Common/Minimal/AbortDelay.c:724
		xErrorOccurred = pdTRUE;
     856:	4785                	li	a5,1
     858:	88f42623          	sw	a5,-1908(s0)
prvTestAbortingStreamBufferReceive():
E:/9 Mytest/Free_RTOS/EXAM/Demo/Common/Minimal/AbortDelay.c:520
	xTimeAtStart = xTaskGetTickCount();
     85c:	541070ef          	jal	ra,859c <xTaskGetTickCount>
     860:	8d2a                	mv	s10,a0
E:/9 Mytest/Free_RTOS/EXAM/Demo/Common/Minimal/AbortDelay.c:523
	xReturn = xStreamBufferReceive( xStreamBuffer, &uxRxData, sizeof( uxRxData ), xMaxBlockTime );
     862:	06400693          	li	a3,100
     866:	4605                	li	a2,1
     868:	006c                	addi	a1,sp,12
     86a:	8566                	mv	a0,s9
     86c:	7f9060ef          	jal	ra,7864 <xStreamBufferReceive>
E:/9 Mytest/Free_RTOS/EXAM/Demo/Common/Minimal/AbortDelay.c:524
	if( xReturn != 0x00 )
     870:	c501                	beqz	a0,878 <STACK_SIZE+0x78>
E:/9 Mytest/Free_RTOS/EXAM/Demo/Common/Minimal/AbortDelay.c:526
		xErrorOccurred = pdTRUE;
     872:	4785                	li	a5,1
     874:	88f42623          	sw	a5,-1908(s0)
prvCheckExpectedTimeIsWithinAnAcceptableMargin():
E:/9 Mytest/Free_RTOS/EXAM/Demo/Common/Minimal/AbortDelay.c:710
	xTimeNow = xTaskGetTickCount();
     878:	525070ef          	jal	ra,859c <xTaskGetTickCount>
E:/9 Mytest/Free_RTOS/EXAM/Demo/Common/Minimal/AbortDelay.c:711
	xActualBlockTime = xTimeNow - xStartTime;
     87c:	41a50533          	sub	a0,a0,s10
E:/9 Mytest/Free_RTOS/EXAM/Demo/Common/Minimal/AbortDelay.c:714
	if( xActualBlockTime < xExpectedBlockTime )
     880:	10a96963          	bltu	s2,a0,992 <STACK_SIZE+0x192>
E:/9 Mytest/Free_RTOS/EXAM/Demo/Common/Minimal/AbortDelay.c:724
		xErrorOccurred = pdTRUE;
     884:	4785                	li	a5,1
     886:	88f42623          	sw	a5,-1908(s0)
prvTestAbortingStreamBufferReceive():
E:/9 Mytest/Free_RTOS/EXAM/Demo/Common/Minimal/AbortDelay.c:531
	vStreamBufferDelete( xStreamBuffer );
     88a:	8566                	mv	a0,s9
     88c:	447060ef          	jal	ra,74d2 <vStreamBufferDelete>
     890:	b30d                	j	5b2 <prvBlockingTask+0x112>
prvTestAbortingTaskNotifyWait():
E:/9 Mytest/Free_RTOS/EXAM/Demo/Common/Minimal/AbortDelay.c:671
	xTimeAtStart = xTaskGetTickCount();
     892:	50b070ef          	jal	ra,859c <xTaskGetTickCount>
     896:	8caa                	mv	s9,a0
E:/9 Mytest/Free_RTOS/EXAM/Demo/Common/Minimal/AbortDelay.c:674
	xReturn = xTaskNotifyWait( 0, 0, NULL, xMaxBlockTime );
     898:	06400713          	li	a4,100
     89c:	4681                	li	a3,0
     89e:	4601                	li	a2,0
     8a0:	4581                	li	a1,0
     8a2:	4501                	li	a0,0
     8a4:	497080ef          	jal	ra,953a <xTaskGenericNotifyWait>
E:/9 Mytest/Free_RTOS/EXAM/Demo/Common/Minimal/AbortDelay.c:675
	if( xReturn != pdFALSE )
     8a8:	c501                	beqz	a0,8b0 <STACK_SIZE+0xb0>
E:/9 Mytest/Free_RTOS/EXAM/Demo/Common/Minimal/AbortDelay.c:677
		xErrorOccurred = pdTRUE;
     8aa:	4785                	li	a5,1
     8ac:	88f42623          	sw	a5,-1908(s0)
prvCheckExpectedTimeIsWithinAnAcceptableMargin():
E:/9 Mytest/Free_RTOS/EXAM/Demo/Common/Minimal/AbortDelay.c:710
	xTimeNow = xTaskGetTickCount();
     8b0:	4ed070ef          	jal	ra,859c <xTaskGetTickCount>
E:/9 Mytest/Free_RTOS/EXAM/Demo/Common/Minimal/AbortDelay.c:711
	xActualBlockTime = xTimeNow - xStartTime;
     8b4:	41950533          	sub	a0,a0,s9
E:/9 Mytest/Free_RTOS/EXAM/Demo/Common/Minimal/AbortDelay.c:714
	if( xActualBlockTime < xExpectedBlockTime )
     8b8:	00a97463          	bgeu	s2,a0,8c0 <STACK_SIZE+0xc0>
E:/9 Mytest/Free_RTOS/EXAM/Demo/Common/Minimal/AbortDelay.c:722
	if( xActualBlockTime > ( xExpectedBlockTime + xAllowableMargin ) )
     8bc:	00a4f563          	bgeu	s1,a0,8c6 <STACK_SIZE+0xc6>
E:/9 Mytest/Free_RTOS/EXAM/Demo/Common/Minimal/AbortDelay.c:724
		xErrorOccurred = pdTRUE;
     8c0:	4785                	li	a5,1
     8c2:	88f42623          	sw	a5,-1908(s0)
prvTestAbortingTaskNotifyWait():
E:/9 Mytest/Free_RTOS/EXAM/Demo/Common/Minimal/AbortDelay.c:682
	xTimeAtStart = xTaskGetTickCount();
     8c6:	4d7070ef          	jal	ra,859c <xTaskGetTickCount>
     8ca:	8caa                	mv	s9,a0
E:/9 Mytest/Free_RTOS/EXAM/Demo/Common/Minimal/AbortDelay.c:686
	xReturn = xTaskNotifyWait( 0, 0, NULL, portMAX_DELAY );
     8cc:	577d                	li	a4,-1
     8ce:	4681                	li	a3,0
     8d0:	4601                	li	a2,0
     8d2:	4581                	li	a1,0
     8d4:	4501                	li	a0,0
     8d6:	465080ef          	jal	ra,953a <xTaskGenericNotifyWait>
E:/9 Mytest/Free_RTOS/EXAM/Demo/Common/Minimal/AbortDelay.c:687
	if( xReturn != pdFALSE )
     8da:	c501                	beqz	a0,8e2 <STACK_SIZE+0xe2>
E:/9 Mytest/Free_RTOS/EXAM/Demo/Common/Minimal/AbortDelay.c:689
		xErrorOccurred = pdTRUE;
     8dc:	4785                	li	a5,1
     8de:	88f42623          	sw	a5,-1908(s0)
prvCheckExpectedTimeIsWithinAnAcceptableMargin():
E:/9 Mytest/Free_RTOS/EXAM/Demo/Common/Minimal/AbortDelay.c:710
	xTimeNow = xTaskGetTickCount();
     8e2:	4bb070ef          	jal	ra,859c <xTaskGetTickCount>
E:/9 Mytest/Free_RTOS/EXAM/Demo/Common/Minimal/AbortDelay.c:711
	xActualBlockTime = xTimeNow - xStartTime;
     8e6:	41950533          	sub	a0,a0,s9
E:/9 Mytest/Free_RTOS/EXAM/Demo/Common/Minimal/AbortDelay.c:714
	if( xActualBlockTime < xExpectedBlockTime )
     8ea:	00aa7463          	bgeu	s4,a0,8f2 <STACK_SIZE+0xf2>
E:/9 Mytest/Free_RTOS/EXAM/Demo/Common/Minimal/AbortDelay.c:722
	if( xActualBlockTime > ( xExpectedBlockTime + xAllowableMargin ) )
     8ee:	00a9f563          	bgeu	s3,a0,8f8 <STACK_SIZE+0xf8>
E:/9 Mytest/Free_RTOS/EXAM/Demo/Common/Minimal/AbortDelay.c:724
		xErrorOccurred = pdTRUE;
     8f2:	4785                	li	a5,1
     8f4:	88f42623          	sw	a5,-1908(s0)
prvTestAbortingTaskNotifyWait():
E:/9 Mytest/Free_RTOS/EXAM/Demo/Common/Minimal/AbortDelay.c:694
	xTimeAtStart = xTaskGetTickCount();
     8f8:	4a5070ef          	jal	ra,859c <xTaskGetTickCount>
     8fc:	8caa                	mv	s9,a0
E:/9 Mytest/Free_RTOS/EXAM/Demo/Common/Minimal/AbortDelay.c:697
	xReturn = xTaskNotifyWait( 0, 0, NULL, xMaxBlockTime );
     8fe:	06400713          	li	a4,100
     902:	4681                	li	a3,0
     904:	4601                	li	a2,0
     906:	4581                	li	a1,0
     908:	4501                	li	a0,0
     90a:	431080ef          	jal	ra,953a <xTaskGenericNotifyWait>
E:/9 Mytest/Free_RTOS/EXAM/Demo/Common/Minimal/AbortDelay.c:698
	if( xReturn != pdFALSE )
     90e:	e6050ae3          	beqz	a0,782 <prvBlockingTask+0x2e2>
     912:	b5ad                	j	77c <prvBlockingTask+0x2dc>
prvTestAbortingTaskDelay():
E:/9 Mytest/Free_RTOS/EXAM/Demo/Common/Minimal/AbortDelay.c:342
	xTimeAtStart = xTaskGetTickCount();
     914:	489070ef          	jal	ra,859c <xTaskGetTickCount>
     918:	8caa                	mv	s9,a0
E:/9 Mytest/Free_RTOS/EXAM/Demo/Common/Minimal/AbortDelay.c:345
	vTaskDelay( xMaxBlockTime );
     91a:	06400513          	li	a0,100
     91e:	050080ef          	jal	ra,896e <vTaskDelay>
prvCheckExpectedTimeIsWithinAnAcceptableMargin():
E:/9 Mytest/Free_RTOS/EXAM/Demo/Common/Minimal/AbortDelay.c:710
	xTimeNow = xTaskGetTickCount();
     922:	47b070ef          	jal	ra,859c <xTaskGetTickCount>
E:/9 Mytest/Free_RTOS/EXAM/Demo/Common/Minimal/AbortDelay.c:711
	xActualBlockTime = xTimeNow - xStartTime;
     926:	41950533          	sub	a0,a0,s9
E:/9 Mytest/Free_RTOS/EXAM/Demo/Common/Minimal/AbortDelay.c:714
	if( xActualBlockTime < xExpectedBlockTime )
     92a:	00a97463          	bgeu	s2,a0,932 <STACK_SIZE+0x132>
E:/9 Mytest/Free_RTOS/EXAM/Demo/Common/Minimal/AbortDelay.c:722
	if( xActualBlockTime > ( xExpectedBlockTime + xAllowableMargin ) )
     92e:	00a4f563          	bgeu	s1,a0,938 <STACK_SIZE+0x138>
E:/9 Mytest/Free_RTOS/EXAM/Demo/Common/Minimal/AbortDelay.c:724
		xErrorOccurred = pdTRUE;
     932:	4785                	li	a5,1
     934:	88f42623          	sw	a5,-1908(s0)
prvTestAbortingTaskDelay():
E:/9 Mytest/Free_RTOS/EXAM/Demo/Common/Minimal/AbortDelay.c:349
	xTimeAtStart = xTaskGetTickCount();
     938:	465070ef          	jal	ra,859c <xTaskGetTickCount>
     93c:	8caa                	mv	s9,a0
E:/9 Mytest/Free_RTOS/EXAM/Demo/Common/Minimal/AbortDelay.c:353
	vTaskDelay( xMaxBlockTime );
     93e:	06400513          	li	a0,100
     942:	02c080ef          	jal	ra,896e <vTaskDelay>
prvCheckExpectedTimeIsWithinAnAcceptableMargin():
E:/9 Mytest/Free_RTOS/EXAM/Demo/Common/Minimal/AbortDelay.c:710
	xTimeNow = xTaskGetTickCount();
     946:	457070ef          	jal	ra,859c <xTaskGetTickCount>
E:/9 Mytest/Free_RTOS/EXAM/Demo/Common/Minimal/AbortDelay.c:711
	xActualBlockTime = xTimeNow - xStartTime;
     94a:	41950533          	sub	a0,a0,s9
E:/9 Mytest/Free_RTOS/EXAM/Demo/Common/Minimal/AbortDelay.c:714
	if( xActualBlockTime < xExpectedBlockTime )
     94e:	00aa7463          	bgeu	s4,a0,956 <STACK_SIZE+0x156>
E:/9 Mytest/Free_RTOS/EXAM/Demo/Common/Minimal/AbortDelay.c:722
	if( xActualBlockTime > ( xExpectedBlockTime + xAllowableMargin ) )
     952:	00a9f563          	bgeu	s3,a0,95c <STACK_SIZE+0x15c>
E:/9 Mytest/Free_RTOS/EXAM/Demo/Common/Minimal/AbortDelay.c:724
		xErrorOccurred = pdTRUE;
     956:	4785                	li	a5,1
     958:	88f42623          	sw	a5,-1908(s0)
prvTestAbortingTaskDelay():
E:/9 Mytest/Free_RTOS/EXAM/Demo/Common/Minimal/AbortDelay.c:357
	xTimeAtStart = xTaskGetTickCount();
     95c:	441070ef          	jal	ra,859c <xTaskGetTickCount>
     960:	8caa                	mv	s9,a0
E:/9 Mytest/Free_RTOS/EXAM/Demo/Common/Minimal/AbortDelay.c:360
	vTaskDelay( xMaxBlockTime );
     962:	06400513          	li	a0,100
     966:	008080ef          	jal	ra,896e <vTaskDelay>
     96a:	bd21                	j	782 <prvBlockingTask+0x2e2>
prvTestAbortingQueueSend():
E:/9 Mytest/Free_RTOS/EXAM/Demo/Common/Minimal/AbortDelay.c:555
		configASSERT( xQueue );
     96c:	30047073          	csrci	mstatus,8
     970:	66b1                	lui	a3,0xc
     972:	0000d637          	lui	a2,0xd
     976:	0000d537          	lui	a0,0xd
     97a:	f8868693          	addi	a3,a3,-120 # bf88 <__FUNCTION__.4423>
     97e:	b5460613          	addi	a2,a2,-1196 # cb54 <__FUNCTION__.4880+0x20>
     982:	22b00593          	li	a1,555
     986:	b5850513          	addi	a0,a0,-1192 # cb58 <__FUNCTION__.4880+0x24>
     98a:	0c5040ef          	jal	ra,524e <log_debug>
     98e:	9002                	ebreak
     990:	a001                	j	990 <STACK_SIZE+0x190>
prvCheckExpectedTimeIsWithinAnAcceptableMargin():
E:/9 Mytest/Free_RTOS/EXAM/Demo/Common/Minimal/AbortDelay.c:722
	if( xActualBlockTime > ( xExpectedBlockTime + xAllowableMargin ) )
     992:	eea4e9e3          	bltu	s1,a0,884 <STACK_SIZE+0x84>
     996:	bdd5                	j	88a <STACK_SIZE+0x8a>
     998:	d6a4e1e3          	bltu	s1,a0,6fa <prvBlockingTask+0x25a>
     99c:	b395                	j	700 <prvBlockingTask+0x260>
     99e:	eaa9ece3          	bltu	s3,a0,856 <STACK_SIZE+0x56>
     9a2:	bd6d                	j	85c <STACK_SIZE+0x5c>
     9a4:	d2a9e3e3          	bltu	s3,a0,6ca <prvBlockingTask+0x22a>
     9a8:	b325                	j	6d0 <prvBlockingTask+0x230>
     9aa:	c8a9efe3          	bltu	s3,a0,648 <prvBlockingTask+0x1a8>
     9ae:	b145                	j	64e <prvBlockingTask+0x1ae>
     9b0:	e6a4ece3          	bltu	s1,a0,828 <STACK_SIZE+0x28>
     9b4:	bdad                	j	82e <STACK_SIZE+0x2e>
     9b6:	cea4e2e3          	bltu	s1,a0,69a <prvBlockingTask+0x1fa>
     9ba:	b1dd                	j	6a0 <prvBlockingTask+0x200>
     9bc:	c4a4efe3          	bltu	s1,a0,61a <prvBlockingTask+0x17a>
     9c0:	b185                	j	620 <prvBlockingTask+0x180>
prvBlockingTask():
E:/9 Mytest/Free_RTOS/EXAM/Demo/Common/Minimal/AbortDelay.c:222 (discriminator 1)
	configASSERT( xControllingTask );
     9c2:	30047073          	csrci	mstatus,8
     9c6:	66b1                	lui	a3,0xc
     9c8:	0000d637          	lui	a2,0xd
     9cc:	0000d537          	lui	a0,0xd
     9d0:	f3868693          	addi	a3,a3,-200 # bf38 <__FUNCTION__.4360>
     9d4:	b5460613          	addi	a2,a2,-1196 # cb54 <__FUNCTION__.4880+0x20>
     9d8:	0de00593          	li	a1,222
     9dc:	b5850513          	addi	a0,a0,-1192 # cb58 <__FUNCTION__.4880+0x24>
     9e0:	06f040ef          	jal	ra,524e <log_debug>
     9e4:	9002                	ebreak
     9e6:	a001                	j	9e6 <STACK_SIZE+0x1e6>
prvTestAbortingStreamBufferReceive():
E:/9 Mytest/Free_RTOS/EXAM/Demo/Common/Minimal/AbortDelay.c:492
		configASSERT( xStreamBuffer );
     9e8:	30047073          	csrci	mstatus,8
     9ec:	66b1                	lui	a3,0xc
     9ee:	0000d637          	lui	a2,0xd
     9f2:	0000d537          	lui	a0,0xd
     9f6:	fa468693          	addi	a3,a3,-92 # bfa4 <__FUNCTION__.4413>
     9fa:	b5460613          	addi	a2,a2,-1196 # cb54 <__FUNCTION__.4880+0x20>
     9fe:	1ec00593          	li	a1,492
     a02:	b5850513          	addi	a0,a0,-1192 # cb58 <__FUNCTION__.4880+0x24>
     a06:	049040ef          	jal	ra,524e <log_debug>
     a0a:	9002                	ebreak
     a0c:	a001                	j	a0c <STACK_SIZE+0x20c>
prvTestAbortingTaskDelayUntil():
E:/9 Mytest/Free_RTOS/EXAM/Demo/Common/Minimal/AbortDelay.c:320
	xTimeAtStart = xTaskGetTickCount();
     a0e:	38f070ef          	jal	ra,859c <xTaskGetTickCount>
     a12:	8caa                	mv	s9,a0
E:/9 Mytest/Free_RTOS/EXAM/Demo/Common/Minimal/AbortDelay.c:322
	vTaskDelayUntil( &xLastBlockTime, xMaxBlockTime );
     a14:	06400593          	li	a1,100
     a18:	0068                	addi	a0,sp,12
E:/9 Mytest/Free_RTOS/EXAM/Demo/Common/Minimal/AbortDelay.c:321
	xLastBlockTime = xTimeAtStart;
     a1a:	c666                	sw	s9,12(sp)
E:/9 Mytest/Free_RTOS/EXAM/Demo/Common/Minimal/AbortDelay.c:322
	vTaskDelayUntil( &xLastBlockTime, xMaxBlockTime );
     a1c:	683070ef          	jal	ra,889e <xTaskDelayUntil>
prvCheckExpectedTimeIsWithinAnAcceptableMargin():
E:/9 Mytest/Free_RTOS/EXAM/Demo/Common/Minimal/AbortDelay.c:710
	xTimeNow = xTaskGetTickCount();
     a20:	37d070ef          	jal	ra,859c <xTaskGetTickCount>
E:/9 Mytest/Free_RTOS/EXAM/Demo/Common/Minimal/AbortDelay.c:711
	xActualBlockTime = xTimeNow - xStartTime;
     a24:	41950533          	sub	a0,a0,s9
E:/9 Mytest/Free_RTOS/EXAM/Demo/Common/Minimal/AbortDelay.c:714
	if( xActualBlockTime < xExpectedBlockTime )
     a28:	00aa7463          	bgeu	s4,a0,a30 <STACK_SIZE+0x230>
E:/9 Mytest/Free_RTOS/EXAM/Demo/Common/Minimal/AbortDelay.c:722
	if( xActualBlockTime > ( xExpectedBlockTime + xAllowableMargin ) )
     a2c:	00a9f463          	bgeu	s3,a0,a34 <STACK_SIZE+0x234>
E:/9 Mytest/Free_RTOS/EXAM/Demo/Common/Minimal/AbortDelay.c:724
		xErrorOccurred = pdTRUE;
     a30:	89a42623          	sw	s10,-1908(s0)
prvTestAbortingTaskDelayUntil():
E:/9 Mytest/Free_RTOS/EXAM/Demo/Common/Minimal/AbortDelay.c:326
	xTimeAtStart = xTaskGetTickCount();
     a34:	369070ef          	jal	ra,859c <xTaskGetTickCount>
     a38:	8caa                	mv	s9,a0
E:/9 Mytest/Free_RTOS/EXAM/Demo/Common/Minimal/AbortDelay.c:328
	xReturned = xTaskDelayUntil( &xLastBlockTime, xMaxBlockTime );
     a3a:	06400593          	li	a1,100
     a3e:	0068                	addi	a0,sp,12
E:/9 Mytest/Free_RTOS/EXAM/Demo/Common/Minimal/AbortDelay.c:327
	xLastBlockTime = xTimeAtStart;
     a40:	c666                	sw	s9,12(sp)
E:/9 Mytest/Free_RTOS/EXAM/Demo/Common/Minimal/AbortDelay.c:328
	xReturned = xTaskDelayUntil( &xLastBlockTime, xMaxBlockTime );
     a42:	65d070ef          	jal	ra,889e <xTaskDelayUntil>
     a46:	8d2a                	mv	s10,a0
prvCheckExpectedTimeIsWithinAnAcceptableMargin():
E:/9 Mytest/Free_RTOS/EXAM/Demo/Common/Minimal/AbortDelay.c:710
	xTimeNow = xTaskGetTickCount();
     a48:	355070ef          	jal	ra,859c <xTaskGetTickCount>
E:/9 Mytest/Free_RTOS/EXAM/Demo/Common/Minimal/AbortDelay.c:711
	xActualBlockTime = xTimeNow - xStartTime;
     a4c:	41950533          	sub	a0,a0,s9
E:/9 Mytest/Free_RTOS/EXAM/Demo/Common/Minimal/AbortDelay.c:714
	if( xActualBlockTime < xExpectedBlockTime )
     a50:	00a97463          	bgeu	s2,a0,a58 <STACK_SIZE+0x258>
E:/9 Mytest/Free_RTOS/EXAM/Demo/Common/Minimal/AbortDelay.c:722
	if( xActualBlockTime > ( xExpectedBlockTime + xAllowableMargin ) )
     a54:	00a4f563          	bgeu	s1,a0,a5e <STACK_SIZE+0x25e>
E:/9 Mytest/Free_RTOS/EXAM/Demo/Common/Minimal/AbortDelay.c:724
		xErrorOccurred = pdTRUE;
     a58:	4785                	li	a5,1
     a5a:	88f42623          	sw	a5,-1908(s0)
prvTestAbortingTaskDelayUntil():
E:/9 Mytest/Free_RTOS/EXAM/Demo/Common/Minimal/AbortDelay.c:330
	configASSERT( xReturned == pdTRUE );
     a5e:	4785                	li	a5,1
     a60:	b4fd09e3          	beq	s10,a5,5b2 <prvBlockingTask+0x112>
     a64:	30047073          	csrci	mstatus,8
     a68:	66b1                	lui	a3,0xc
     a6a:	0000d637          	lui	a2,0xd
     a6e:	0000d537          	lui	a0,0xd
     a72:	f4868693          	addi	a3,a3,-184 # bf48 <__FUNCTION__.4384>
     a76:	b5460613          	addi	a2,a2,-1196 # cb54 <__FUNCTION__.4880+0x20>
     a7a:	14a00593          	li	a1,330
     a7e:	b5850513          	addi	a0,a0,-1192 # cb58 <__FUNCTION__.4880+0x24>
     a82:	7cc040ef          	jal	ra,524e <log_debug>
     a86:	9002                	ebreak
     a88:	a001                	j	a88 <STACK_SIZE+0x288>
prvTestAbortingEventGroupWait():
E:/9 Mytest/Free_RTOS/EXAM/Demo/Common/Minimal/AbortDelay.c:423
		configASSERT( xEventGroup );
     a8a:	30047073          	csrci	mstatus,8
     a8e:	66b1                	lui	a3,0xc
     a90:	0000d637          	lui	a2,0xd
     a94:	0000d537          	lui	a0,0xd
     a98:	f6868693          	addi	a3,a3,-152 # bf68 <__FUNCTION__.4403>
     a9c:	b5460613          	addi	a2,a2,-1196 # cb54 <__FUNCTION__.4880+0x20>
     aa0:	1a700593          	li	a1,423
     aa4:	b5850513          	addi	a0,a0,-1192 # cb58 <__FUNCTION__.4880+0x24>
     aa8:	7a6040ef          	jal	ra,524e <log_debug>
     aac:	9002                	ebreak
     aae:	a001                	j	aae <STACK_SIZE+0x2ae>

00000ab0 <prvControllingTask>:
prvControllingTask():
E:/9 Mytest/Free_RTOS/EXAM/Demo/Common/Minimal/AbortDelay.c:155
	xBlockingTask = xTaskGetHandle( pcBlockingTaskName );
     ab0:	0000d537          	lui	a0,0xd
E:/9 Mytest/Free_RTOS/EXAM/Demo/Common/Minimal/AbortDelay.c:146
{
     ab4:	7179                	addi	sp,sp,-48
E:/9 Mytest/Free_RTOS/EXAM/Demo/Common/Minimal/AbortDelay.c:155
	xBlockingTask = xTaskGetHandle( pcBlockingTaskName );
     ab6:	b9450513          	addi	a0,a0,-1132 # cb94 <__FUNCTION__.4880+0x60>
E:/9 Mytest/Free_RTOS/EXAM/Demo/Common/Minimal/AbortDelay.c:146
{
     aba:	d606                	sw	ra,44(sp)
     abc:	d422                	sw	s0,40(sp)
     abe:	d226                	sw	s1,36(sp)
     ac0:	d04a                	sw	s2,32(sp)
     ac2:	ce4e                	sw	s3,28(sp)
     ac4:	cc52                	sw	s4,24(sp)
     ac6:	ca56                	sw	s5,20(sp)
     ac8:	c85a                	sw	s6,16(sp)
     aca:	c65e                	sw	s7,12(sp)
     acc:	c462                	sw	s8,8(sp)
E:/9 Mytest/Free_RTOS/EXAM/Demo/Common/Minimal/AbortDelay.c:155
	xBlockingTask = xTaskGetHandle( pcBlockingTaskName );
     ace:	6f7070ef          	jal	ra,89c4 <xTaskGetHandle>
E:/9 Mytest/Free_RTOS/EXAM/Demo/Common/Minimal/AbortDelay.c:156
	configASSERT( xBlockingTask );
     ad2:	c159                	beqz	a0,b58 <prvControllingTask+0xa8>
     ad4:	89aa                	mv	s3,a0
E:/9 Mytest/Free_RTOS/EXAM/Demo/Common/Minimal/AbortDelay.c:148
uint32_t ulTestToPerform = abtNOTIFY_WAIT_ABORTS;
     ad6:	4401                	li	s0,0
     ad8:	20001ab7          	lui	s5,0x20001
     adc:	20001a37          	lui	s4,0x20001
E:/9 Mytest/Free_RTOS/EXAM/Demo/Common/Minimal/AbortDelay.c:177
		if( xTaskAbortDelay( xBlockingTask ) != pdPASS )
     ae0:	4905                	li	s2,1
prvCheckExpectedTimeIsWithinAnAcceptableMargin():
E:/9 Mytest/Free_RTOS/EXAM/Demo/Common/Minimal/AbortDelay.c:714
	if( xActualBlockTime < xExpectedBlockTime )
     ae2:	0f900b93          	li	s7,249
E:/9 Mytest/Free_RTOS/EXAM/Demo/Common/Minimal/AbortDelay.c:722
	if( xActualBlockTime > ( xExpectedBlockTime + xAllowableMargin ) )
     ae6:	10100c13          	li	s8,257
prvControllingTask():
E:/9 Mytest/Free_RTOS/EXAM/Demo/Common/Minimal/AbortDelay.c:197
		if( ulTestToPerform >= abtMAX_TESTS )
     aea:	4b1d                	li	s6,7
E:/9 Mytest/Free_RTOS/EXAM/Demo/Common/Minimal/AbortDelay.c:161 (discriminator 2)
		xTimeAtStart = xTaskGetTickCount();
     aec:	2b1070ef          	jal	ra,859c <xTaskGetTickCount>
E:/9 Mytest/Free_RTOS/EXAM/Demo/Common/Minimal/AbortDelay.c:162 (discriminator 2)
		xTaskNotify( xBlockingTask, ulTestToPerform, eSetValueWithOverwrite );
     af0:	4701                	li	a4,0
     af2:	468d                	li	a3,3
     af4:	8622                	mv	a2,s0
     af6:	4581                	li	a1,0
E:/9 Mytest/Free_RTOS/EXAM/Demo/Common/Minimal/AbortDelay.c:161 (discriminator 2)
		xTimeAtStart = xTaskGetTickCount();
     af8:	84aa                	mv	s1,a0
E:/9 Mytest/Free_RTOS/EXAM/Demo/Common/Minimal/AbortDelay.c:162 (discriminator 2)
		xTaskNotify( xBlockingTask, ulTestToPerform, eSetValueWithOverwrite );
     afa:	854e                	mv	a0,s3
     afc:	359080ef          	jal	ra,9654 <xTaskGenericNotify>
E:/9 Mytest/Free_RTOS/EXAM/Demo/Common/Minimal/AbortDelay.c:175 (discriminator 2)
		vTaskPrioritySet( NULL, abtBLOCKING_PRIORITY );
     b00:	4595                	li	a1,5
     b02:	4501                	li	a0,0
     b04:	754070ef          	jal	ra,8258 <vTaskPrioritySet>
E:/9 Mytest/Free_RTOS/EXAM/Demo/Common/Minimal/AbortDelay.c:176 (discriminator 2)
		vTaskDelay( xMaxBlockTime + xHalfMaxBlockTime + xStartMargin );
     b08:	09800513          	li	a0,152
     b0c:	663070ef          	jal	ra,896e <vTaskDelay>
E:/9 Mytest/Free_RTOS/EXAM/Demo/Common/Minimal/AbortDelay.c:177 (discriminator 2)
		if( xTaskAbortDelay( xBlockingTask ) != pdPASS )
     b10:	854e                	mv	a0,s3
     b12:	7bd070ef          	jal	ra,8ace <xTaskAbortDelay>
E:/9 Mytest/Free_RTOS/EXAM/Demo/Common/Minimal/AbortDelay.c:183 (discriminator 2)
		vTaskPrioritySet( NULL, abtCONTROLLING_PRIORITY );
     b16:	4591                	li	a1,4
E:/9 Mytest/Free_RTOS/EXAM/Demo/Common/Minimal/AbortDelay.c:177 (discriminator 2)
		if( xTaskAbortDelay( xBlockingTask ) != pdPASS )
     b18:	01250463          	beq	a0,s2,b20 <prvControllingTask+0x70>
E:/9 Mytest/Free_RTOS/EXAM/Demo/Common/Minimal/AbortDelay.c:179
			xErrorOccurred = pdTRUE;
     b1c:	892aa623          	sw	s2,-1908(s5) # 2000088c <xErrorOccurred>
E:/9 Mytest/Free_RTOS/EXAM/Demo/Common/Minimal/AbortDelay.c:183
		vTaskPrioritySet( NULL, abtCONTROLLING_PRIORITY );
     b20:	4501                	li	a0,0
     b22:	736070ef          	jal	ra,8258 <vTaskPrioritySet>
E:/9 Mytest/Free_RTOS/EXAM/Demo/Common/Minimal/AbortDelay.c:187
		ulTaskNotifyTake( pdTRUE, portMAX_DELAY );
     b26:	567d                	li	a2,-1
     b28:	4585                	li	a1,1
     b2a:	4501                	li	a0,0
     b2c:	125080ef          	jal	ra,9450 <ulTaskGenericNotifyTake>
prvCheckExpectedTimeIsWithinAnAcceptableMargin():
E:/9 Mytest/Free_RTOS/EXAM/Demo/Common/Minimal/AbortDelay.c:710
	xTimeNow = xTaskGetTickCount();
     b30:	26d070ef          	jal	ra,859c <xTaskGetTickCount>
E:/9 Mytest/Free_RTOS/EXAM/Demo/Common/Minimal/AbortDelay.c:711
	xActualBlockTime = xTimeNow - xStartTime;
     b34:	8d05                	sub	a0,a0,s1
E:/9 Mytest/Free_RTOS/EXAM/Demo/Common/Minimal/AbortDelay.c:714
	if( xActualBlockTime < xExpectedBlockTime )
     b36:	00abf463          	bgeu	s7,a0,b3e <prvControllingTask+0x8e>
E:/9 Mytest/Free_RTOS/EXAM/Demo/Common/Minimal/AbortDelay.c:722
	if( xActualBlockTime > ( xExpectedBlockTime + xAllowableMargin ) )
     b3a:	00ac7463          	bgeu	s8,a0,b42 <prvControllingTask+0x92>
E:/9 Mytest/Free_RTOS/EXAM/Demo/Common/Minimal/AbortDelay.c:724
		xErrorOccurred = pdTRUE;
     b3e:	892aa623          	sw	s2,-1908(s5)
prvControllingTask():
E:/9 Mytest/Free_RTOS/EXAM/Demo/Common/Minimal/AbortDelay.c:203
		xControllingCycles++;
     b42:	894a2783          	lw	a5,-1900(s4) # 20000894 <xControllingCycles>
E:/9 Mytest/Free_RTOS/EXAM/Demo/Common/Minimal/AbortDelay.c:195
		ulTestToPerform++;
     b46:	0405                	addi	s0,s0,1
E:/9 Mytest/Free_RTOS/EXAM/Demo/Common/Minimal/AbortDelay.c:199
			ulTestToPerform = 0;
     b48:	008b3733          	sltu	a4,s6,s0
     b4c:	177d                	addi	a4,a4,-1
E:/9 Mytest/Free_RTOS/EXAM/Demo/Common/Minimal/AbortDelay.c:203
		xControllingCycles++;
     b4e:	0785                	addi	a5,a5,1
E:/9 Mytest/Free_RTOS/EXAM/Demo/Common/Minimal/AbortDelay.c:199
			ulTestToPerform = 0;
     b50:	8c79                	and	s0,s0,a4
E:/9 Mytest/Free_RTOS/EXAM/Demo/Common/Minimal/AbortDelay.c:203
		xControllingCycles++;
     b52:	88fa2a23          	sw	a5,-1900(s4)
E:/9 Mytest/Free_RTOS/EXAM/Demo/Common/Minimal/AbortDelay.c:161
		xTimeAtStart = xTaskGetTickCount();
     b56:	bf59                	j	aec <prvControllingTask+0x3c>
E:/9 Mytest/Free_RTOS/EXAM/Demo/Common/Minimal/AbortDelay.c:156 (discriminator 1)
	configASSERT( xBlockingTask );
     b58:	30047073          	csrci	mstatus,8
     b5c:	66b1                	lui	a3,0xc
     b5e:	0000d637          	lui	a2,0xd
     b62:	0000d537          	lui	a0,0xd
     b66:	fc868693          	addi	a3,a3,-56 # bfc8 <__FUNCTION__.4351>
     b6a:	b5460613          	addi	a2,a2,-1196 # cb54 <__FUNCTION__.4880+0x20>
     b6e:	09c00593          	li	a1,156
     b72:	b5850513          	addi	a0,a0,-1192 # cb58 <__FUNCTION__.4880+0x24>
     b76:	6d8040ef          	jal	ra,524e <log_debug>
     b7a:	9002                	ebreak
     b7c:	a001                	j	b7c <prvControllingTask+0xcc>

00000b7e <vCreateAbortDelayTasks>:
vCreateAbortDelayTasks():
E:/9 Mytest/Free_RTOS/EXAM/Demo/Common/Minimal/AbortDelay.c:140
	xTaskCreate( prvControllingTask, pcControllingTaskName, configMINIMAL_STACK_SIZE, NULL, abtCONTROLLING_PRIORITY, NULL );
     b7e:	0000d5b7          	lui	a1,0xd
     b82:	00001537          	lui	a0,0x1
E:/9 Mytest/Free_RTOS/EXAM/Demo/Common/Minimal/AbortDelay.c:138
{
     b86:	1141                	addi	sp,sp,-16
E:/9 Mytest/Free_RTOS/EXAM/Demo/Common/Minimal/AbortDelay.c:140
	xTaskCreate( prvControllingTask, pcControllingTaskName, configMINIMAL_STACK_SIZE, NULL, abtCONTROLLING_PRIORITY, NULL );
     b88:	4781                	li	a5,0
     b8a:	4711                	li	a4,4
     b8c:	4681                	li	a3,0
     b8e:	06900613          	li	a2,105
     b92:	b4c58593          	addi	a1,a1,-1204 # cb4c <__FUNCTION__.4880+0x18>
     b96:	ab050513          	addi	a0,a0,-1360 # ab0 <prvControllingTask>
E:/9 Mytest/Free_RTOS/EXAM/Demo/Common/Minimal/AbortDelay.c:138
{
     b9a:	c606                	sw	ra,12(sp)
E:/9 Mytest/Free_RTOS/EXAM/Demo/Common/Minimal/AbortDelay.c:140
	xTaskCreate( prvControllingTask, pcControllingTaskName, configMINIMAL_STACK_SIZE, NULL, abtCONTROLLING_PRIORITY, NULL );
     b9c:	294070ef          	jal	ra,7e30 <xTaskCreate>
E:/9 Mytest/Free_RTOS/EXAM/Demo/Common/Minimal/AbortDelay.c:142
}
     ba0:	40b2                	lw	ra,12(sp)
E:/9 Mytest/Free_RTOS/EXAM/Demo/Common/Minimal/AbortDelay.c:141
	xTaskCreate( prvBlockingTask, pcBlockingTaskName, configMINIMAL_STACK_SIZE, NULL, abtBLOCKING_PRIORITY, NULL );
     ba2:	0000d5b7          	lui	a1,0xd
     ba6:	00000537          	lui	a0,0x0
     baa:	4781                	li	a5,0
     bac:	4715                	li	a4,5
     bae:	4681                	li	a3,0
     bb0:	06900613          	li	a2,105
     bb4:	b9458593          	addi	a1,a1,-1132 # cb94 <__FUNCTION__.4880+0x60>
     bb8:	4a050513          	addi	a0,a0,1184 # 4a0 <prvBlockingTask>
E:/9 Mytest/Free_RTOS/EXAM/Demo/Common/Minimal/AbortDelay.c:142
}
     bbc:	0141                	addi	sp,sp,16
E:/9 Mytest/Free_RTOS/EXAM/Demo/Common/Minimal/AbortDelay.c:141
	xTaskCreate( prvBlockingTask, pcBlockingTaskName, configMINIMAL_STACK_SIZE, NULL, abtBLOCKING_PRIORITY, NULL );
     bbe:	2720706f          	j	7e30 <xTaskCreate>

00000bc2 <xAreAbortDelayTestTasksStillRunning>:
xAreAbortDelayTestTasksStillRunning():
E:/9 Mytest/Free_RTOS/EXAM/Demo/Common/Minimal/AbortDelay.c:736
static BaseType_t xLastControllingCycleCount = 0, xLastBlockingCycleCount = 0;
BaseType_t xReturn = pdPASS;

	/* Have both tasks performed at least one cycle since this function was
	last called? */
	if( xControllingCycles == xLastControllingCycleCount )
     bc2:	20001637          	lui	a2,0x20001
E:/9 Mytest/Free_RTOS/EXAM/Demo/Common/Minimal/AbortDelay.c:741
	{
		xReturn = pdFAIL;
	}

	if( xBlockingCycles == xLastBlockingCycleCount )
     bc6:	200015b7          	lui	a1,0x20001
     bca:	200016b7          	lui	a3,0x20001
E:/9 Mytest/Free_RTOS/EXAM/Demo/Common/Minimal/AbortDelay.c:736
	if( xControllingCycles == xLastControllingCycleCount )
     bce:	89462783          	lw	a5,-1900(a2) # 20000894 <xControllingCycles>
E:/9 Mytest/Free_RTOS/EXAM/Demo/Common/Minimal/AbortDelay.c:741
	if( xBlockingCycles == xLastBlockingCycleCount )
     bd2:	8846a803          	lw	a6,-1916(a3) # 20000884 <_edata>
     bd6:	8905a883          	lw	a7,-1904(a1) # 20000890 <xBlockingCycles>
E:/9 Mytest/Free_RTOS/EXAM/Demo/Common/Minimal/AbortDelay.c:736
	if( xControllingCycles == xLastControllingCycleCount )
     bda:	20001737          	lui	a4,0x20001
     bde:	88872303          	lw	t1,-1912(a4) # 20000888 <xLastControllingCycleCount.4445>
E:/9 Mytest/Free_RTOS/EXAM/Demo/Common/Minimal/AbortDelay.c:743
	{
		xReturn = pdFAIL;
     be2:	4501                	li	a0,0
E:/9 Mytest/Free_RTOS/EXAM/Demo/Common/Minimal/AbortDelay.c:741
	if( xBlockingCycles == xLastBlockingCycleCount )
     be4:	01088663          	beq	a7,a6,bf0 <xAreAbortDelayTestTasksStillRunning+0x2e>
E:/9 Mytest/Free_RTOS/EXAM/Demo/Common/Minimal/AbortDelay.c:736
	if( xControllingCycles == xLastControllingCycleCount )
     be8:	406787b3          	sub	a5,a5,t1
     bec:	00f03533          	snez	a0,a5
E:/9 Mytest/Free_RTOS/EXAM/Demo/Common/Minimal/AbortDelay.c:746
	}

	if( xErrorOccurred == pdTRUE )
     bf0:	200017b7          	lui	a5,0x20001
     bf4:	88c7a783          	lw	a5,-1908(a5) # 2000088c <xErrorOccurred>
E:/9 Mytest/Free_RTOS/EXAM/Demo/Common/Minimal/AbortDelay.c:751
	{
		xReturn = pdFAIL;
	}

	xLastBlockingCycleCount = xBlockingCycles;
     bf8:	8905a583          	lw	a1,-1904(a1)
E:/9 Mytest/Free_RTOS/EXAM/Demo/Common/Minimal/AbortDelay.c:752
	xLastControllingCycleCount = xControllingCycles;
     bfc:	89462603          	lw	a2,-1900(a2)
E:/9 Mytest/Free_RTOS/EXAM/Demo/Common/Minimal/AbortDelay.c:748
		xReturn = pdFAIL;
     c00:	17fd                	addi	a5,a5,-1
     c02:	00f037b3          	snez	a5,a5
     c06:	40f007b3          	neg	a5,a5
E:/9 Mytest/Free_RTOS/EXAM/Demo/Common/Minimal/AbortDelay.c:751
	xLastBlockingCycleCount = xBlockingCycles;
     c0a:	88b6a223          	sw	a1,-1916(a3)
E:/9 Mytest/Free_RTOS/EXAM/Demo/Common/Minimal/AbortDelay.c:752
	xLastControllingCycleCount = xControllingCycles;
     c0e:	88c72423          	sw	a2,-1912(a4)
E:/9 Mytest/Free_RTOS/EXAM/Demo/Common/Minimal/AbortDelay.c:755

	return xReturn;
}
     c12:	8d7d                	and	a0,a0,a5
     c14:	8082                	ret

00000c16 <prvSyncTask>:
prvSyncTask():
E:/9 Mytest/Free_RTOS/EXAM/Demo/Common/Minimal/EventGroupsDemo.c:268
	}
}
/*-----------------------------------------------------------*/

static void prvSyncTask( void *pvParameters )
{
     c16:	1101                	addi	sp,sp,-32
     c18:	ca26                	sw	s1,20(sp)
     c1a:	c84a                	sw	s2,16(sp)
     c1c:	ce06                	sw	ra,28(sp)
     c1e:	cc22                	sw	s0,24(sp)
     c20:	c64e                	sw	s3,12(sp)
     c22:	84aa                	mv	s1,a0
E:/9 Mytest/Free_RTOS/EXAM/Demo/Common/Minimal/EventGroupsDemo.c:837
	unblock at the correct times.

	This function is called by two different tasks - each of which will use a
	different bit.  Check the task handle to see which task the function was
	called by. */
	if( xTaskGetCurrentTaskHandle() == xSyncTask1 )
     c24:	56c080ef          	jal	ra,9190 <xTaskGetCurrentTaskHandle>
     c28:	200017b7          	lui	a5,0x20001
     c2c:	8b07a783          	lw	a5,-1872(a5) # 200008b0 <xSyncTask1>
E:/9 Mytest/Free_RTOS/EXAM/Demo/Common/Minimal/EventGroupsDemo.c:843
	{
		uxPendBits = ebSELECTIVE_BITS_1;
	}
	else
	{
		uxPendBits = ebSELECTIVE_BITS_2;
     c30:	4915                	li	s2,5
E:/9 Mytest/Free_RTOS/EXAM/Demo/Common/Minimal/EventGroupsDemo.c:837
	if( xTaskGetCurrentTaskHandle() == xSyncTask1 )
     c32:	0aa78363          	beq	a5,a0,cd8 <prvSyncTask+0xc2>
     c36:	20001437          	lui	s0,0x20001
E:/9 Mytest/Free_RTOS/EXAM/Demo/Common/Minimal/EventGroupsDemo.c:851
	for( ;; )
	{
		/* Wait until it is time to perform the next cycle of the test.  The
		task is unsuspended by the tests implemented in the
		prvSelectiveBitsTestMasterFunction() function. */
		vTaskSuspend( NULL );
     c3a:	4501                	li	a0,0
     c3c:	02e080ef          	jal	ra,8c6a <vTaskSuspend>
E:/9 Mytest/Free_RTOS/EXAM/Demo/Common/Minimal/EventGroupsDemo.c:852
		uxReturned = xEventGroupWaitBits( xEventGroup, uxPendBits, pdTRUE, pdFALSE, portMAX_DELAY );
     c40:	8b842503          	lw	a0,-1864(s0) # 200008b8 <xEventGroup>
     c44:	577d                	li	a4,-1
     c46:	4681                	li	a3,0
     c48:	4605                	li	a2,1
     c4a:	85ca                	mv	a1,s2
     c4c:	59d040ef          	jal	ra,59e8 <xEventGroupWaitBits>
E:/9 Mytest/Free_RTOS/EXAM/Demo/Common/Minimal/EventGroupsDemo.c:854

		if( uxReturned == ( EventBits_t ) 0 )
     c50:	f56d                	bnez	a0,c3a <prvSyncTask+0x24>
     c52:	a83d                	j	c90 <prvSyncTask+0x7a>
E:/9 Mytest/Free_RTOS/EXAM/Demo/Common/Minimal/EventGroupsDemo.c:305 (discriminator 2)
		uxReturned = xEventGroupSync( xEventGroup,	/* The event group used for the synchronisation. */
     c54:	8b842503          	lw	a0,-1864(s0)
     c58:	07c050ef          	jal	ra,5cd4 <xEventGroupSync>
E:/9 Mytest/Free_RTOS/EXAM/Demo/Common/Minimal/EventGroupsDemo.c:313 (discriminator 2)
		configASSERT( ( uxReturned & ebALL_SYNC_BITS ) == ebALL_SYNC_BITS );
     c5c:	00f57913          	andi	s2,a0,15
E:/9 Mytest/Free_RTOS/EXAM/Demo/Common/Minimal/EventGroupsDemo.c:319 (discriminator 2)
		vTaskSuspend( NULL );
     c60:	4501                	li	a0,0
E:/9 Mytest/Free_RTOS/EXAM/Demo/Common/Minimal/EventGroupsDemo.c:313 (discriminator 2)
		configASSERT( ( uxReturned & ebALL_SYNC_BITS ) == ebALL_SYNC_BITS );
     c62:	0d391363          	bne	s2,s3,d28 <prvSyncTask+0x112>
E:/9 Mytest/Free_RTOS/EXAM/Demo/Common/Minimal/EventGroupsDemo.c:319 (discriminator 2)
		vTaskSuspend( NULL );
     c66:	004080ef          	jal	ra,8c6a <vTaskSuspend>
E:/9 Mytest/Free_RTOS/EXAM/Demo/Common/Minimal/EventGroupsDemo.c:324 (discriminator 2)
		uxReturned = xEventGroupSync( xEventGroup, uxSynchronisationBit, ebALL_SYNC_BITS, portMAX_DELAY );
     c6a:	8b842503          	lw	a0,-1864(s0)
     c6e:	56fd                	li	a3,-1
     c70:	463d                	li	a2,15
     c72:	85a6                	mv	a1,s1
     c74:	060050ef          	jal	ra,5cd4 <xEventGroupSync>
E:/9 Mytest/Free_RTOS/EXAM/Demo/Common/Minimal/EventGroupsDemo.c:329 (discriminator 2)
		configASSERT( ( uxReturned & ebALL_SYNC_BITS ) == ebALL_SYNC_BITS );
     c78:	893d                	andi	a0,a0,15
E:/9 Mytest/Free_RTOS/EXAM/Demo/Common/Minimal/EventGroupsDemo.c:334 (discriminator 2)
		uxReturned = xEventGroupWaitBits( xEventGroup, ebALL_SYNC_BITS, pdFALSE, pdTRUE, portMAX_DELAY );
     c7a:	577d                	li	a4,-1
     c7c:	4685                	li	a3,1
     c7e:	4601                	li	a2,0
     c80:	45bd                	li	a1,15
E:/9 Mytest/Free_RTOS/EXAM/Demo/Common/Minimal/EventGroupsDemo.c:329 (discriminator 2)
		configASSERT( ( uxReturned & ebALL_SYNC_BITS ) == ebALL_SYNC_BITS );
     c82:	09251063          	bne	a0,s2,d02 <prvSyncTask+0xec>
E:/9 Mytest/Free_RTOS/EXAM/Demo/Common/Minimal/EventGroupsDemo.c:334 (discriminator 2)
		uxReturned = xEventGroupWaitBits( xEventGroup, ebALL_SYNC_BITS, pdFALSE, pdTRUE, portMAX_DELAY );
     c86:	8b842503          	lw	a0,-1864(s0)
     c8a:	55f040ef          	jal	ra,59e8 <xEventGroupWaitBits>
E:/9 Mytest/Free_RTOS/EXAM/Demo/Common/Minimal/EventGroupsDemo.c:335 (discriminator 2)
		configASSERT( uxReturned == 0 );
     c8e:	e539                	bnez	a0,cdc <prvSyncTask+0xc6>
E:/9 Mytest/Free_RTOS/EXAM/Demo/Common/Minimal/EventGroupsDemo.c:287
		vTaskSuspend( NULL );
     c90:	4501                	li	a0,0
     c92:	7d9070ef          	jal	ra,8c6a <vTaskSuspend>
E:/9 Mytest/Free_RTOS/EXAM/Demo/Common/Minimal/EventGroupsDemo.c:296
		uxReturned = xEventGroupSync( xEventGroup,	/* The event group used for the synchronisation. */
     c96:	8b842503          	lw	a0,-1864(s0)
     c9a:	4681                	li	a3,0
     c9c:	463d                	li	a2,15
     c9e:	85a6                	mv	a1,s1
     ca0:	034050ef          	jal	ra,5cd4 <xEventGroupSync>
E:/9 Mytest/Free_RTOS/EXAM/Demo/Common/Minimal/EventGroupsDemo.c:303
		configASSERT( ( uxReturned & ebALL_SYNC_BITS ) != ebALL_SYNC_BITS );
     ca4:	893d                	andi	a0,a0,15
     ca6:	49bd                	li	s3,15
E:/9 Mytest/Free_RTOS/EXAM/Demo/Common/Minimal/EventGroupsDemo.c:305
		uxReturned = xEventGroupSync( xEventGroup,	/* The event group used for the synchronisation. */
     ca8:	56fd                	li	a3,-1
     caa:	463d                	li	a2,15
     cac:	85a6                	mv	a1,s1
E:/9 Mytest/Free_RTOS/EXAM/Demo/Common/Minimal/EventGroupsDemo.c:303
		configASSERT( ( uxReturned & ebALL_SYNC_BITS ) != ebALL_SYNC_BITS );
     cae:	fb3513e3          	bne	a0,s3,c54 <prvSyncTask+0x3e>
E:/9 Mytest/Free_RTOS/EXAM/Demo/Common/Minimal/EventGroupsDemo.c:303 (discriminator 1)
     cb2:	30047073          	csrci	mstatus,8
     cb6:	66b1                	lui	a3,0xc
     cb8:	0000d637          	lui	a2,0xd
     cbc:	0000d537          	lui	a0,0xd
     cc0:	fdc68693          	addi	a3,a3,-36 # bfdc <__FUNCTION__.4177>
     cc4:	b5460613          	addi	a2,a2,-1196 # cb54 <__FUNCTION__.4880+0x20>
     cc8:	12f00593          	li	a1,303
     ccc:	b9c50513          	addi	a0,a0,-1124 # cb9c <__FUNCTION__.4880+0x68>
     cd0:	57e040ef          	jal	ra,524e <log_debug>
     cd4:	9002                	ebreak
     cd6:	a001                	j	cd6 <prvSyncTask+0xc0>
     cd8:	490d                	li	s2,3
     cda:	bfb1                	j	c36 <prvSyncTask+0x20>
E:/9 Mytest/Free_RTOS/EXAM/Demo/Common/Minimal/EventGroupsDemo.c:335 (discriminator 1)
		configASSERT( uxReturned == 0 );
     cdc:	30047073          	csrci	mstatus,8
     ce0:	66b1                	lui	a3,0xc
     ce2:	0000d637          	lui	a2,0xd
     ce6:	0000d537          	lui	a0,0xd
     cea:	fdc68693          	addi	a3,a3,-36 # bfdc <__FUNCTION__.4177>
     cee:	b5460613          	addi	a2,a2,-1196 # cb54 <__FUNCTION__.4880+0x20>
     cf2:	14f00593          	li	a1,335
     cf6:	b9c50513          	addi	a0,a0,-1124 # cb9c <__FUNCTION__.4880+0x68>
     cfa:	554040ef          	jal	ra,524e <log_debug>
     cfe:	9002                	ebreak
E:/9 Mytest/Free_RTOS/EXAM/Demo/Common/Minimal/EventGroupsDemo.c:335 (discriminator 4)
     d00:	a001                	j	d00 <prvSyncTask+0xea>
E:/9 Mytest/Free_RTOS/EXAM/Demo/Common/Minimal/EventGroupsDemo.c:329 (discriminator 1)
		configASSERT( ( uxReturned & ebALL_SYNC_BITS ) == ebALL_SYNC_BITS );
     d02:	30047073          	csrci	mstatus,8
     d06:	66b1                	lui	a3,0xc
     d08:	0000d637          	lui	a2,0xd
     d0c:	0000d537          	lui	a0,0xd
     d10:	fdc68693          	addi	a3,a3,-36 # bfdc <__FUNCTION__.4177>
     d14:	b5460613          	addi	a2,a2,-1196 # cb54 <__FUNCTION__.4880+0x20>
     d18:	14900593          	li	a1,329
     d1c:	b9c50513          	addi	a0,a0,-1124 # cb9c <__FUNCTION__.4880+0x68>
     d20:	52e040ef          	jal	ra,524e <log_debug>
     d24:	9002                	ebreak
E:/9 Mytest/Free_RTOS/EXAM/Demo/Common/Minimal/EventGroupsDemo.c:329 (discriminator 3)
     d26:	a001                	j	d26 <prvSyncTask+0x110>
E:/9 Mytest/Free_RTOS/EXAM/Demo/Common/Minimal/EventGroupsDemo.c:313 (discriminator 1)
		configASSERT( ( uxReturned & ebALL_SYNC_BITS ) == ebALL_SYNC_BITS );
     d28:	30047073          	csrci	mstatus,8
     d2c:	66b1                	lui	a3,0xc
     d2e:	0000d637          	lui	a2,0xd
     d32:	0000d537          	lui	a0,0xd
     d36:	fdc68693          	addi	a3,a3,-36 # bfdc <__FUNCTION__.4177>
     d3a:	b5460613          	addi	a2,a2,-1196 # cb54 <__FUNCTION__.4880+0x20>
     d3e:	13900593          	li	a1,313
     d42:	b9c50513          	addi	a0,a0,-1124 # cb9c <__FUNCTION__.4880+0x68>
     d46:	508040ef          	jal	ra,524e <log_debug>
     d4a:	9002                	ebreak
E:/9 Mytest/Free_RTOS/EXAM/Demo/Common/Minimal/EventGroupsDemo.c:313 (discriminator 2)
     d4c:	a001                	j	d4c <prvSyncTask+0x136>

00000d4e <prvTestSlaveTask>:
prvTestSlaveTask():
E:/9 Mytest/Free_RTOS/EXAM/Demo/Common/Minimal/EventGroupsDemo.c:341
{
     d4e:	1101                	addi	sp,sp,-32
     d50:	cc22                	sw	s0,24(sp)
     d52:	c84a                	sw	s2,16(sp)
     d54:	c452                	sw	s4,8(sp)
     d56:	ce06                	sw	ra,28(sp)
     d58:	ca26                	sw	s1,20(sp)
     d5a:	c64e                	sw	s3,12(sp)
     d5c:	20001437          	lui	s0,0x20001
     d60:	20001937          	lui	s2,0x20001
E:/9 Mytest/Free_RTOS/EXAM/Demo/Common/Minimal/EventGroupsDemo.c:411
		if( uxReturned != ebALL_BITS )
     d64:	0ff00a13          	li	s4,255
E:/9 Mytest/Free_RTOS/EXAM/Demo/Common/Minimal/EventGroupsDemo.c:359
		vTaskSuspend( NULL );
     d68:	4501                	li	a0,0
     d6a:	701070ef          	jal	ra,8c6a <vTaskSuspend>
E:/9 Mytest/Free_RTOS/EXAM/Demo/Common/Minimal/EventGroupsDemo.c:363
		uxReturned = xEventGroupWaitBits( xEventGroup,	/* The event group that contains the event bits being queried. */
     d6e:	8b842503          	lw	a0,-1864(s0) # 200008b8 <xEventGroup>
     d72:	577d                	li	a4,-1
     d74:	4685                	li	a3,1
     d76:	4605                	li	a2,1
     d78:	4589                	li	a1,2
     d7a:	46f040ef          	jal	ra,59e8 <xEventGroupWaitBits>
     d7e:	89aa                	mv	s3,a0
E:/9 Mytest/Free_RTOS/EXAM/Demo/Common/Minimal/EventGroupsDemo.c:383
		uxReturned = xEventGroupWaitBits( xEventGroup,
     d80:	8b842503          	lw	a0,-1864(s0)
     d84:	577d                	li	a4,-1
     d86:	4685                	li	a3,1
     d88:	4601                	li	a2,0
     d8a:	0a200593          	li	a1,162
     d8e:	45b040ef          	jal	ra,59e8 <xEventGroupWaitBits>
E:/9 Mytest/Free_RTOS/EXAM/Demo/Common/Minimal/EventGroupsDemo.c:390
		if( ( uxReturned & ebCOMBINED_BITS ) != ebCOMBINED_BITS )
     d92:	0a257513          	andi	a0,a0,162
     d96:	0a200793          	li	a5,162
E:/9 Mytest/Free_RTOS/EXAM/Demo/Common/Minimal/EventGroupsDemo.c:392
			xError = pdTRUE;
     d9a:	4485                	li	s1,1
E:/9 Mytest/Free_RTOS/EXAM/Demo/Common/Minimal/EventGroupsDemo.c:390
		if( ( uxReturned & ebCOMBINED_BITS ) != ebCOMBINED_BITS )
     d9c:	00f51663          	bne	a0,a5,da8 <prvTestSlaveTask+0x5a>
E:/9 Mytest/Free_RTOS/EXAM/Demo/Common/Minimal/EventGroupsDemo.c:374
		if( uxReturned != ebCOMBINED_BITS )
     da0:	f5e98493          	addi	s1,s3,-162
     da4:	009034b3          	snez	s1,s1
E:/9 Mytest/Free_RTOS/EXAM/Demo/Common/Minimal/EventGroupsDemo.c:396
		vTaskSuspend( NULL );
     da8:	4501                	li	a0,0
     daa:	6c1070ef          	jal	ra,8c6a <vTaskSuspend>
E:/9 Mytest/Free_RTOS/EXAM/Demo/Common/Minimal/EventGroupsDemo.c:401
		uxReturned = xEventGroupWaitBits( xEventGroup,
     dae:	8b842503          	lw	a0,-1864(s0)
     db2:	577d                	li	a4,-1
     db4:	4685                	li	a3,1
     db6:	4605                	li	a2,1
     db8:	0a200593          	li	a1,162
     dbc:	42d040ef          	jal	ra,59e8 <xEventGroupWaitBits>
E:/9 Mytest/Free_RTOS/EXAM/Demo/Common/Minimal/EventGroupsDemo.c:411
		if( uxReturned != ebALL_BITS )
     dc0:	01450363          	beq	a0,s4,dc6 <prvTestSlaveTask+0x78>
E:/9 Mytest/Free_RTOS/EXAM/Demo/Common/Minimal/EventGroupsDemo.c:413
			xError = pdTRUE;
     dc4:	4485                	li	s1,1
E:/9 Mytest/Free_RTOS/EXAM/Demo/Common/Minimal/EventGroupsDemo.c:429
		vTaskSuspend( NULL );
     dc6:	4501                	li	a0,0
     dc8:	6a3070ef          	jal	ra,8c6a <vTaskSuspend>
E:/9 Mytest/Free_RTOS/EXAM/Demo/Common/Minimal/EventGroupsDemo.c:434
		uxReturned = xEventGroupSync( xEventGroup,		/* The event group used for the sync. */
     dcc:	8b842503          	lw	a0,-1864(s0)
     dd0:	56fd                	li	a3,-1
     dd2:	463d                	li	a2,15
     dd4:	4589                	li	a1,2
     dd6:	6ff040ef          	jal	ra,5cd4 <xEventGroupSync>
E:/9 Mytest/Free_RTOS/EXAM/Demo/Common/Minimal/EventGroupsDemo.c:441
		if( ( uxReturned & ebALL_SYNC_BITS ) != ebALL_SYNC_BITS )
     dda:	893d                	andi	a0,a0,15
     ddc:	47bd                	li	a5,15
     dde:	0af50163          	beq	a0,a5,e80 <prvTestSlaveTask+0x132>
E:/9 Mytest/Free_RTOS/EXAM/Demo/Common/Minimal/EventGroupsDemo.c:450
		if( xEventGroupSetBits( xEventGroup, 0x00 ) != 0 )
     de2:	8b842503          	lw	a0,-1864(s0)
     de6:	4581                	li	a1,0
     de8:	601040ef          	jal	ra,5be8 <xEventGroupSetBits>
E:/9 Mytest/Free_RTOS/EXAM/Demo/Common/Minimal/EventGroupsDemo.c:456
		if( xEventGroupGetBits( xEventGroup ) != 0 )
     dec:	8b842503          	lw	a0,-1864(s0)
     df0:	4581                	li	a1,0
E:/9 Mytest/Free_RTOS/EXAM/Demo/Common/Minimal/EventGroupsDemo.c:458
			xError = pdTRUE;
     df2:	4485                	li	s1,1
E:/9 Mytest/Free_RTOS/EXAM/Demo/Common/Minimal/EventGroupsDemo.c:456
		if( xEventGroupGetBits( xEventGroup ) != 0 )
     df4:	56d040ef          	jal	ra,5b60 <xEventGroupClearBits>
E:/9 Mytest/Free_RTOS/EXAM/Demo/Common/Minimal/EventGroupsDemo.c:467
		vTaskSuspend( NULL );
     df8:	4501                	li	a0,0
     dfa:	671070ef          	jal	ra,8c6a <vTaskSuspend>
E:/9 Mytest/Free_RTOS/EXAM/Demo/Common/Minimal/EventGroupsDemo.c:472
		uxReturned = xEventGroupSync( xEventGroup, ebWAIT_BIT_TASK_SYNC_BIT, ebALL_SYNC_BITS, portMAX_DELAY );
     dfe:	8b842503          	lw	a0,-1864(s0)
     e02:	56fd                	li	a3,-1
     e04:	463d                	li	a2,15
     e06:	4589                	li	a1,2
     e08:	6cd040ef          	jal	ra,5cd4 <xEventGroupSync>
E:/9 Mytest/Free_RTOS/EXAM/Demo/Common/Minimal/EventGroupsDemo.c:476
		if( ( uxReturned & ebALL_SYNC_BITS ) != ebALL_SYNC_BITS )
     e0c:	893d                	andi	a0,a0,15
     e0e:	47bd                	li	a5,15
     e10:	04f50263          	beq	a0,a5,e54 <prvTestSlaveTask+0x106>
E:/9 Mytest/Free_RTOS/EXAM/Demo/Common/Minimal/EventGroupsDemo.c:482
		if( xEventGroupSetBits( xEventGroup, 0x00 ) != 0 )
     e14:	8b842503          	lw	a0,-1864(s0)
     e18:	4581                	li	a1,0
     e1a:	5cf040ef          	jal	ra,5be8 <xEventGroupSetBits>
E:/9 Mytest/Free_RTOS/EXAM/Demo/Common/Minimal/EventGroupsDemo.c:490
		uxReturned = xEventGroupWaitBits( xEventGroup, ebALL_SYNC_BITS, pdFALSE, pdTRUE, portMAX_DELAY );
     e1e:	8b842503          	lw	a0,-1864(s0)
     e22:	577d                	li	a4,-1
     e24:	4685                	li	a3,1
     e26:	4601                	li	a2,0
     e28:	45bd                	li	a1,15
     e2a:	3bf040ef          	jal	ra,59e8 <xEventGroupWaitBits>
E:/9 Mytest/Free_RTOS/EXAM/Demo/Common/Minimal/EventGroupsDemo.c:503 (discriminator 1)
		configASSERT( xError == pdFALSE );
     e2e:	30047073          	csrci	mstatus,8
     e32:	66b1                	lui	a3,0xc
     e34:	0000d637          	lui	a2,0xd
     e38:	0000d537          	lui	a0,0xd
     e3c:	fe868693          	addi	a3,a3,-24 # bfe8 <__FUNCTION__.4188>
     e40:	b5460613          	addi	a2,a2,-1196 # cb54 <__FUNCTION__.4880+0x20>
     e44:	1f700593          	li	a1,503
     e48:	b9c50513          	addi	a0,a0,-1124 # cb9c <__FUNCTION__.4880+0x68>
     e4c:	402040ef          	jal	ra,524e <log_debug>
     e50:	9002                	ebreak
     e52:	a001                	j	e52 <prvTestSlaveTask+0x104>
E:/9 Mytest/Free_RTOS/EXAM/Demo/Common/Minimal/EventGroupsDemo.c:482
		if( xEventGroupSetBits( xEventGroup, 0x00 ) != 0 )
     e54:	8b842503          	lw	a0,-1864(s0)
     e58:	4581                	li	a1,0
     e5a:	58f040ef          	jal	ra,5be8 <xEventGroupSetBits>
     e5e:	f161                	bnez	a0,e1e <prvTestSlaveTask+0xd0>
E:/9 Mytest/Free_RTOS/EXAM/Demo/Common/Minimal/EventGroupsDemo.c:490
		uxReturned = xEventGroupWaitBits( xEventGroup, ebALL_SYNC_BITS, pdFALSE, pdTRUE, portMAX_DELAY );
     e60:	8b842503          	lw	a0,-1864(s0)
     e64:	577d                	li	a4,-1
     e66:	4685                	li	a3,1
     e68:	4601                	li	a2,0
     e6a:	45bd                	li	a1,15
     e6c:	37d040ef          	jal	ra,59e8 <xEventGroupWaitBits>
E:/9 Mytest/Free_RTOS/EXAM/Demo/Common/Minimal/EventGroupsDemo.c:492
		if( uxReturned != 0 )
     e70:	8d45                	or	a0,a0,s1
     e72:	fd55                	bnez	a0,e2e <prvTestSlaveTask+0xe0>
E:/9 Mytest/Free_RTOS/EXAM/Demo/Common/Minimal/EventGroupsDemo.c:500
			ulTestSlaveCycles++;
     e74:	8c092783          	lw	a5,-1856(s2) # 200008c0 <ulTestSlaveCycles>
     e78:	0785                	addi	a5,a5,1
     e7a:	8cf92023          	sw	a5,-1856(s2)
E:/9 Mytest/Free_RTOS/EXAM/Demo/Common/Minimal/EventGroupsDemo.c:503
		configASSERT( xError == pdFALSE );
     e7e:	b5ed                	j	d68 <prvTestSlaveTask+0x1a>
E:/9 Mytest/Free_RTOS/EXAM/Demo/Common/Minimal/EventGroupsDemo.c:450
		if( xEventGroupSetBits( xEventGroup, 0x00 ) != 0 )
     e80:	8b842503          	lw	a0,-1864(s0)
     e84:	4581                	li	a1,0
     e86:	563040ef          	jal	ra,5be8 <xEventGroupSetBits>
     e8a:	f12d                	bnez	a0,dec <prvTestSlaveTask+0x9e>
E:/9 Mytest/Free_RTOS/EXAM/Demo/Common/Minimal/EventGroupsDemo.c:456
		if( xEventGroupGetBits( xEventGroup ) != 0 )
     e8c:	8b842503          	lw	a0,-1864(s0)
     e90:	4581                	li	a1,0
     e92:	4cf040ef          	jal	ra,5b60 <xEventGroupClearBits>
     e96:	8d45                	or	a0,a0,s1
     e98:	e901                	bnez	a0,ea8 <prvTestSlaveTask+0x15a>
E:/9 Mytest/Free_RTOS/EXAM/Demo/Common/Minimal/EventGroupsDemo.c:464
			ulTestSlaveCycles++;
     e9a:	8c092783          	lw	a5,-1856(s2)
     e9e:	4481                	li	s1,0
     ea0:	0785                	addi	a5,a5,1
     ea2:	8cf92023          	sw	a5,-1856(s2)
     ea6:	bf89                	j	df8 <prvTestSlaveTask+0xaa>
E:/9 Mytest/Free_RTOS/EXAM/Demo/Common/Minimal/EventGroupsDemo.c:458
			xError = pdTRUE;
     ea8:	4485                	li	s1,1
     eaa:	b7b9                	j	df8 <prvTestSlaveTask+0xaa>

00000eac <prvTestMasterTask>:
prvTestMasterTask():
E:/9 Mytest/Free_RTOS/EXAM/Demo/Common/Minimal/EventGroupsDemo.c:205
{
     eac:	7179                	addi	sp,sp,-48
     eae:	d226                	sw	s1,36(sp)
     eb0:	d04a                	sw	s2,32(sp)
     eb2:	d606                	sw	ra,44(sp)
     eb4:	d422                	sw	s0,40(sp)
     eb6:	ce4e                	sw	s3,28(sp)
     eb8:	cc52                	sw	s4,24(sp)
     eba:	ca56                	sw	s5,20(sp)
     ebc:	c85a                	sw	s6,16(sp)
     ebe:	c65e                	sw	s7,12(sp)
     ec0:	c462                	sw	s8,8(sp)
     ec2:	c266                	sw	s9,4(sp)
     ec4:	c06a                	sw	s10,0(sp)
     ec6:	892a                	mv	s2,a0
E:/9 Mytest/Free_RTOS/EXAM/Demo/Common/Minimal/EventGroupsDemo.c:215
	xEventGroup = xEventGroupCreate();
     ec8:	200014b7          	lui	s1,0x20001
     ecc:	2fb040ef          	jal	ra,59c6 <xEventGroupCreate>
     ed0:	8aa4ac23          	sw	a0,-1864(s1) # 200008b8 <xEventGroup>
E:/9 Mytest/Free_RTOS/EXAM/Demo/Common/Minimal/EventGroupsDemo.c:216
	configASSERT( xEventGroup );
     ed4:	44050c63          	beqz	a0,132c <prvTestMasterTask+0x480>
prvSelectiveBitsTestMasterFunction():
E:/9 Mytest/Free_RTOS/EXAM/Demo/Common/Minimal/EventGroupsDemo.c:874
	unblock at the correct times.  The two other tasks (xSyncTask1 and
	xSyncTask2) call prvSelectiveBitsTestSlaveFunction() to perform their parts in
	this test.

	Both other tasks should start in the suspended state. */
	if( eTaskGetState( xSyncTask1 ) != eSuspended )
     ed8:	20001a37          	lui	s4,0x20001
     edc:	8b0a2503          	lw	a0,-1872(s4) # 200008b0 <xSyncTask1>
E:/9 Mytest/Free_RTOS/EXAM/Demo/Common/Minimal/EventGroupsDemo.c:879
	{
		xError = pdTRUE;
	}

	if( eTaskGetState( xSyncTask2 ) != eSuspended )
     ee0:	200019b7          	lui	s3,0x20001
E:/9 Mytest/Free_RTOS/EXAM/Demo/Common/Minimal/EventGroupsDemo.c:881
	{
		xError = pdTRUE;
     ee4:	4405                	li	s0,1
E:/9 Mytest/Free_RTOS/EXAM/Demo/Common/Minimal/EventGroupsDemo.c:874
	if( eTaskGetState( xSyncTask1 ) != eSuspended )
     ee6:	26a070ef          	jal	ra,8150 <eTaskGetState>
     eea:	8aaa                	mv	s5,a0
E:/9 Mytest/Free_RTOS/EXAM/Demo/Common/Minimal/EventGroupsDemo.c:879
	if( eTaskGetState( xSyncTask2 ) != eSuspended )
     eec:	8ac9a503          	lw	a0,-1876(s3) # 200008ac <xSyncTask2>
     ef0:	260070ef          	jal	ra,8150 <eTaskGetState>
     ef4:	478d                	li	a5,3
     ef6:	42f50663          	beq	a0,a5,1322 <prvTestMasterTask+0x476>
E:/9 Mytest/Free_RTOS/EXAM/Demo/Common/Minimal/EventGroupsDemo.c:881
		xError = pdTRUE;
     efa:	4ba1                	li	s7,8
     efc:	4a85                	li	s5,1
E:/9 Mytest/Free_RTOS/EXAM/Demo/Common/Minimal/EventGroupsDemo.c:892
		/* Resume both tasks. */
		vTaskResume( xSyncTask1 );
		vTaskResume( xSyncTask2 );

		/* Now both tasks should be blocked on the event group. */
		if( eTaskGetState( xSyncTask1 ) != eBlocked )
     efe:	4b09                	li	s6,2
E:/9 Mytest/Free_RTOS/EXAM/Demo/Common/Minimal/EventGroupsDemo.c:918
			}
		}
		else
		{
			/* Task should have unblocked and returned to the suspended state. */
			if( eTaskGetState( xSyncTask1 ) != eSuspended )
     f00:	4c0d                	li	s8,3
E:/9 Mytest/Free_RTOS/EXAM/Demo/Common/Minimal/EventGroupsDemo.c:888
		vTaskResume( xSyncTask1 );
     f02:	8b0a2503          	lw	a0,-1872(s4)
     f06:	46a070ef          	jal	ra,8370 <vTaskResume>
E:/9 Mytest/Free_RTOS/EXAM/Demo/Common/Minimal/EventGroupsDemo.c:889
		vTaskResume( xSyncTask2 );
     f0a:	8ac9a503          	lw	a0,-1876(s3)
     f0e:	462070ef          	jal	ra,8370 <vTaskResume>
E:/9 Mytest/Free_RTOS/EXAM/Demo/Common/Minimal/EventGroupsDemo.c:892
		if( eTaskGetState( xSyncTask1 ) != eBlocked )
     f12:	8b0a2503          	lw	a0,-1872(s4)
     f16:	23a070ef          	jal	ra,8150 <eTaskGetState>
     f1a:	01650363          	beq	a0,s6,f20 <prvTestMasterTask+0x74>
E:/9 Mytest/Free_RTOS/EXAM/Demo/Common/Minimal/EventGroupsDemo.c:894
			xError = pdTRUE;
     f1e:	4405                	li	s0,1
E:/9 Mytest/Free_RTOS/EXAM/Demo/Common/Minimal/EventGroupsDemo.c:897
		if( eTaskGetState( xSyncTask2 ) != eBlocked )
     f20:	8ac9a503          	lw	a0,-1876(s3)
     f24:	22c070ef          	jal	ra,8150 <eTaskGetState>
     f28:	01650363          	beq	a0,s6,f2e <prvTestMasterTask+0x82>
E:/9 Mytest/Free_RTOS/EXAM/Demo/Common/Minimal/EventGroupsDemo.c:899
			xError = pdTRUE;
     f2c:	4405                	li	s0,1
E:/9 Mytest/Free_RTOS/EXAM/Demo/Common/Minimal/EventGroupsDemo.c:903
		xEventGroupSetBits( xEventGroup, uxBit );
     f2e:	8b84a503          	lw	a0,-1864(s1)
     f32:	85d6                	mv	a1,s5
     f34:	4b5040ef          	jal	ra,5be8 <xEventGroupSetBits>
E:/9 Mytest/Free_RTOS/EXAM/Demo/Common/Minimal/EventGroupsDemo.c:907
		if( ( uxBit & ebSELECTIVE_BITS_1 ) == 0 )
     f38:	003af793          	andi	a5,s5,3
E:/9 Mytest/Free_RTOS/EXAM/Demo/Common/Minimal/EventGroupsDemo.c:910
			if( eTaskGetState( xSyncTask1 ) != eBlocked )
     f3c:	8b0a2503          	lw	a0,-1872(s4)
E:/9 Mytest/Free_RTOS/EXAM/Demo/Common/Minimal/EventGroupsDemo.c:907
		if( ( uxBit & ebSELECTIVE_BITS_1 ) == 0 )
     f40:	38079763          	bnez	a5,12ce <prvTestMasterTask+0x422>
E:/9 Mytest/Free_RTOS/EXAM/Demo/Common/Minimal/EventGroupsDemo.c:910
			if( eTaskGetState( xSyncTask1 ) != eBlocked )
     f44:	20c070ef          	jal	ra,8150 <eTaskGetState>
     f48:	01650363          	beq	a0,s6,f4e <prvTestMasterTask+0xa2>
E:/9 Mytest/Free_RTOS/EXAM/Demo/Common/Minimal/EventGroupsDemo.c:912
				xError = pdTRUE;
     f4c:	4405                	li	s0,1
E:/9 Mytest/Free_RTOS/EXAM/Demo/Common/Minimal/EventGroupsDemo.c:925
				xError = pdTRUE;
			}
		}

		/* Same checks for the second sync task. */
		if( ( uxBit & ebSELECTIVE_BITS_2 ) == 0 )
     f4e:	005af793          	andi	a5,s5,5
E:/9 Mytest/Free_RTOS/EXAM/Demo/Common/Minimal/EventGroupsDemo.c:928
		{
			/* Task should not have unblocked. */
			if( eTaskGetState( xSyncTask2 ) != eBlocked )
     f52:	8ac9a503          	lw	a0,-1876(s3)
E:/9 Mytest/Free_RTOS/EXAM/Demo/Common/Minimal/EventGroupsDemo.c:925
		if( ( uxBit & ebSELECTIVE_BITS_2 ) == 0 )
     f56:	36079763          	bnez	a5,12c4 <prvTestMasterTask+0x418>
E:/9 Mytest/Free_RTOS/EXAM/Demo/Common/Minimal/EventGroupsDemo.c:928
			if( eTaskGetState( xSyncTask2 ) != eBlocked )
     f5a:	1f6070ef          	jal	ra,8150 <eTaskGetState>
     f5e:	01650363          	beq	a0,s6,f64 <prvTestMasterTask+0xb8>
E:/9 Mytest/Free_RTOS/EXAM/Demo/Common/Minimal/EventGroupsDemo.c:930
			{
				xError = pdTRUE;
     f62:	4405                	li	s0,1
     f64:	1bfd                	addi	s7,s7,-1
E:/9 Mytest/Free_RTOS/EXAM/Demo/Common/Minimal/EventGroupsDemo.c:885
	for( uxBit = 0x01; uxBit < 0x100; uxBit <<= 1 )
     f66:	0a86                	slli	s5,s5,0x1
     f68:	f80b9de3          	bnez	s7,f02 <prvTestMasterTask+0x56>
E:/9 Mytest/Free_RTOS/EXAM/Demo/Common/Minimal/EventGroupsDemo.c:945
		}
	}

	/* Ensure both tasks are blocked on the event group again, then delete the
	event group so the other tasks leave this portion of the test. */
	vTaskResume( xSyncTask1 );
     f6c:	8b0a2503          	lw	a0,-1872(s4)
     f70:	20001cb7          	lui	s9,0x20001
prvBitCombinationTestMasterFunction():
E:/9 Mytest/Free_RTOS/EXAM/Demo/Common/Minimal/EventGroupsDemo.c:714
	if( eTaskGetState( xTestSlaveTaskHandle ) != eBlocked )
     f74:	4a89                	li	s5,2
prvSelectiveBitsTestMasterFunction():
E:/9 Mytest/Free_RTOS/EXAM/Demo/Common/Minimal/EventGroupsDemo.c:945
	vTaskResume( xSyncTask1 );
     f76:	3fa070ef          	jal	ra,8370 <vTaskResume>
E:/9 Mytest/Free_RTOS/EXAM/Demo/Common/Minimal/EventGroupsDemo.c:946
	vTaskResume( xSyncTask2 );
     f7a:	8ac9a503          	lw	a0,-1876(s3)
prvBitCombinationTestMasterFunction():
E:/9 Mytest/Free_RTOS/EXAM/Demo/Common/Minimal/EventGroupsDemo.c:716
		xError = pdTRUE;
     f7e:	4b85                	li	s7,1
E:/9 Mytest/Free_RTOS/EXAM/Demo/Common/Minimal/EventGroupsDemo.c:729
	if( uxBits != ( ebCOMBINED_BITS & ~ebBIT_1 ) )
     f80:	0a000d13          	li	s10,160
prvSelectiveBitsTestMasterFunction():
E:/9 Mytest/Free_RTOS/EXAM/Demo/Common/Minimal/EventGroupsDemo.c:946
	vTaskResume( xSyncTask2 );
     f84:	3ec070ef          	jal	ra,8370 <vTaskResume>
E:/9 Mytest/Free_RTOS/EXAM/Demo/Common/Minimal/EventGroupsDemo.c:951

	/* Deleting the event group is the signal that the two other tasks should
	leave the prvSelectiveBitsTestSlaveFunction() function and continue to the main
	part of their functionality. */
	vEventGroupDelete( xEventGroup );
     f88:	8b84a503          	lw	a0,-1864(s1)
prvBitCombinationTestMasterFunction():
E:/9 Mytest/Free_RTOS/EXAM/Demo/Common/Minimal/EventGroupsDemo.c:763
	if( eTaskGetState( xTestSlaveTaskHandle ) != eSuspended )
     f8c:	4b0d                	li	s6,3
E:/9 Mytest/Free_RTOS/EXAM/Demo/Common/Minimal/EventGroupsDemo.c:804
	if( uxBits != ( ebALL_BITS & ~ebCOMBINED_BITS ) )
     f8e:	05d00c13          	li	s8,93
prvSelectiveBitsTestMasterFunction():
E:/9 Mytest/Free_RTOS/EXAM/Demo/Common/Minimal/EventGroupsDemo.c:951
	vEventGroupDelete( xEventGroup );
     f92:	693040ef          	jal	ra,5e24 <vEventGroupDelete>
prvTestMasterTask():
E:/9 Mytest/Free_RTOS/EXAM/Demo/Common/Minimal/EventGroupsDemo.c:226
		xEventGroup = xEventGroupCreate();
     f96:	231040ef          	jal	ra,59c6 <xEventGroupCreate>
     f9a:	8aa4ac23          	sw	a0,-1864(s1)
E:/9 Mytest/Free_RTOS/EXAM/Demo/Common/Minimal/EventGroupsDemo.c:227
		configASSERT( xEventGroup );
     f9e:	34050f63          	beqz	a0,12fc <prvTestMasterTask+0x450>
prvBitCombinationTestMasterFunction():
E:/9 Mytest/Free_RTOS/EXAM/Demo/Common/Minimal/EventGroupsDemo.c:711
	vTaskResume( xTestSlaveTaskHandle );
     fa2:	854a                	mv	a0,s2
     fa4:	3cc070ef          	jal	ra,8370 <vTaskResume>
E:/9 Mytest/Free_RTOS/EXAM/Demo/Common/Minimal/EventGroupsDemo.c:714
	if( eTaskGetState( xTestSlaveTaskHandle ) != eBlocked )
     fa8:	854a                	mv	a0,s2
     faa:	1a6070ef          	jal	ra,8150 <eTaskGetState>
     fae:	01550363          	beq	a0,s5,fb4 <prvTestMasterTask+0x108>
E:/9 Mytest/Free_RTOS/EXAM/Demo/Common/Minimal/EventGroupsDemo.c:716
		xError = pdTRUE;
     fb2:	4405                	li	s0,1
E:/9 Mytest/Free_RTOS/EXAM/Demo/Common/Minimal/EventGroupsDemo.c:721
	xEventGroupSetBits( xEventGroup, ebCOMBINED_BITS );
     fb4:	8b84a503          	lw	a0,-1864(s1)
     fb8:	0a200593          	li	a1,162
     fbc:	42d040ef          	jal	ra,5be8 <xEventGroupSetBits>
E:/9 Mytest/Free_RTOS/EXAM/Demo/Common/Minimal/EventGroupsDemo.c:727
	uxBits = xEventGroupWaitBits( xEventGroup, ebALL_BITS, pdFALSE, pdFALSE, ebDONT_BLOCK );
     fc0:	8b84a503          	lw	a0,-1864(s1)
     fc4:	4701                	li	a4,0
     fc6:	4681                	li	a3,0
     fc8:	4601                	li	a2,0
     fca:	0ff00593          	li	a1,255
     fce:	21b040ef          	jal	ra,59e8 <xEventGroupWaitBits>
E:/9 Mytest/Free_RTOS/EXAM/Demo/Common/Minimal/EventGroupsDemo.c:729
	if( uxBits != ( ebCOMBINED_BITS & ~ebBIT_1 ) )
     fd2:	01a50363          	beq	a0,s10,fd8 <prvTestMasterTask+0x12c>
E:/9 Mytest/Free_RTOS/EXAM/Demo/Common/Minimal/EventGroupsDemo.c:731
		xError = pdTRUE;
     fd6:	4405                	li	s0,1
E:/9 Mytest/Free_RTOS/EXAM/Demo/Common/Minimal/EventGroupsDemo.c:735
	if( eTaskGetState( xTestSlaveTaskHandle ) != eBlocked )
     fd8:	854a                	mv	a0,s2
     fda:	176070ef          	jal	ra,8150 <eTaskGetState>
     fde:	01550363          	beq	a0,s5,fe4 <prvTestMasterTask+0x138>
E:/9 Mytest/Free_RTOS/EXAM/Demo/Common/Minimal/EventGroupsDemo.c:737
		xError = pdTRUE;
     fe2:	4405                	li	s0,1
E:/9 Mytest/Free_RTOS/EXAM/Demo/Common/Minimal/EventGroupsDemo.c:742
	xEventGroupSetBits( xEventGroup, ebALL_BITS & ~ebBIT_1 );
     fe4:	8b84a503          	lw	a0,-1864(s1)
     fe8:	0fd00593          	li	a1,253
     fec:	3fd040ef          	jal	ra,5be8 <xEventGroupSetBits>
E:/9 Mytest/Free_RTOS/EXAM/Demo/Common/Minimal/EventGroupsDemo.c:745
	uxBits = xEventGroupWaitBits( xEventGroup, ebALL_BITS, pdFALSE, pdFALSE, ebDONT_BLOCK );
     ff0:	8b84a503          	lw	a0,-1864(s1)
     ff4:	4701                	li	a4,0
     ff6:	4681                	li	a3,0
     ff8:	4601                	li	a2,0
     ffa:	0ff00593          	li	a1,255
     ffe:	1eb040ef          	jal	ra,59e8 <xEventGroupWaitBits>
E:/9 Mytest/Free_RTOS/EXAM/Demo/Common/Minimal/EventGroupsDemo.c:747
	if( uxBits != ( ebALL_BITS & ~ebBIT_1 ) )
    1002:	0fd00793          	li	a5,253
    1006:	00f50363          	beq	a0,a5,100c <prvTestMasterTask+0x160>
E:/9 Mytest/Free_RTOS/EXAM/Demo/Common/Minimal/EventGroupsDemo.c:749
		xError = pdTRUE;
    100a:	4405                	li	s0,1
E:/9 Mytest/Free_RTOS/EXAM/Demo/Common/Minimal/EventGroupsDemo.c:753
	if( eTaskGetState( xTestSlaveTaskHandle ) != eBlocked )
    100c:	854a                	mv	a0,s2
    100e:	142070ef          	jal	ra,8150 <eTaskGetState>
    1012:	01550363          	beq	a0,s5,1018 <prvTestMasterTask+0x16c>
E:/9 Mytest/Free_RTOS/EXAM/Demo/Common/Minimal/EventGroupsDemo.c:755
		xError = pdTRUE;
    1016:	4405                	li	s0,1
E:/9 Mytest/Free_RTOS/EXAM/Demo/Common/Minimal/EventGroupsDemo.c:760
	xEventGroupSetBits( xEventGroup, ebBIT_1 );
    1018:	8b84a503          	lw	a0,-1864(s1)
    101c:	4589                	li	a1,2
    101e:	3cb040ef          	jal	ra,5be8 <xEventGroupSetBits>
E:/9 Mytest/Free_RTOS/EXAM/Demo/Common/Minimal/EventGroupsDemo.c:763
	if( eTaskGetState( xTestSlaveTaskHandle ) != eSuspended )
    1022:	854a                	mv	a0,s2
    1024:	12c070ef          	jal	ra,8150 <eTaskGetState>
    1028:	01650363          	beq	a0,s6,102e <prvTestMasterTask+0x182>
E:/9 Mytest/Free_RTOS/EXAM/Demo/Common/Minimal/EventGroupsDemo.c:765
		xError = pdTRUE;
    102c:	4405                	li	s0,1
E:/9 Mytest/Free_RTOS/EXAM/Demo/Common/Minimal/EventGroupsDemo.c:770
	if( xEventGroupSetBits( xEventGroup, 0x00 ) != ebALL_BITS )
    102e:	8b84a503          	lw	a0,-1864(s1)
    1032:	4581                	li	a1,0
    1034:	3b5040ef          	jal	ra,5be8 <xEventGroupSetBits>
    1038:	0ff00793          	li	a5,255
    103c:	00f50363          	beq	a0,a5,1042 <prvTestMasterTask+0x196>
E:/9 Mytest/Free_RTOS/EXAM/Demo/Common/Minimal/EventGroupsDemo.c:772
		xError = pdTRUE;
    1040:	4405                	li	s0,1
E:/9 Mytest/Free_RTOS/EXAM/Demo/Common/Minimal/EventGroupsDemo.c:776
	if( xEventGroupClearBits( xEventGroup, ebBIT_1 ) != ebALL_BITS )
    1042:	8b84a503          	lw	a0,-1864(s1)
    1046:	4589                	li	a1,2
    1048:	319040ef          	jal	ra,5b60 <xEventGroupClearBits>
    104c:	0ff00793          	li	a5,255
    1050:	00f50363          	beq	a0,a5,1056 <prvTestMasterTask+0x1aa>
E:/9 Mytest/Free_RTOS/EXAM/Demo/Common/Minimal/EventGroupsDemo.c:778
		xError = pdTRUE;
    1054:	4405                	li	s0,1
E:/9 Mytest/Free_RTOS/EXAM/Demo/Common/Minimal/EventGroupsDemo.c:783
	vTaskResume( xTestSlaveTaskHandle );
    1056:	854a                	mv	a0,s2
    1058:	318070ef          	jal	ra,8370 <vTaskResume>
E:/9 Mytest/Free_RTOS/EXAM/Demo/Common/Minimal/EventGroupsDemo.c:786
	if( eTaskGetState( xTestSlaveTaskHandle ) != eBlocked )
    105c:	854a                	mv	a0,s2
    105e:	0f2070ef          	jal	ra,8150 <eTaskGetState>
    1062:	01550363          	beq	a0,s5,1068 <prvTestMasterTask+0x1bc>
E:/9 Mytest/Free_RTOS/EXAM/Demo/Common/Minimal/EventGroupsDemo.c:788
		xError = pdTRUE;
    1066:	4405                	li	s0,1
E:/9 Mytest/Free_RTOS/EXAM/Demo/Common/Minimal/EventGroupsDemo.c:792
	xEventGroupSetBits( xEventGroup, ebBIT_1 );
    1068:	8b84a503          	lw	a0,-1864(s1)
    106c:	4589                	li	a1,2
    106e:	37b040ef          	jal	ra,5be8 <xEventGroupSetBits>
E:/9 Mytest/Free_RTOS/EXAM/Demo/Common/Minimal/EventGroupsDemo.c:795
	if( eTaskGetState( xTestSlaveTaskHandle ) != eSuspended )
    1072:	854a                	mv	a0,s2
    1074:	0dc070ef          	jal	ra,8150 <eTaskGetState>
    1078:	01650363          	beq	a0,s6,107e <prvTestMasterTask+0x1d2>
E:/9 Mytest/Free_RTOS/EXAM/Demo/Common/Minimal/EventGroupsDemo.c:797
		xError = pdTRUE;
    107c:	4405                	li	s0,1
E:/9 Mytest/Free_RTOS/EXAM/Demo/Common/Minimal/EventGroupsDemo.c:802
	uxBits = xEventGroupWaitBits( xEventGroup, ebALL_BITS, pdFALSE, pdFALSE, ebDONT_BLOCK );
    107e:	8b84a503          	lw	a0,-1864(s1)
    1082:	4701                	li	a4,0
    1084:	4681                	li	a3,0
    1086:	4601                	li	a2,0
    1088:	0ff00593          	li	a1,255
    108c:	15d040ef          	jal	ra,59e8 <xEventGroupWaitBits>
E:/9 Mytest/Free_RTOS/EXAM/Demo/Common/Minimal/EventGroupsDemo.c:804
	if( uxBits != ( ebALL_BITS & ~ebCOMBINED_BITS ) )
    1090:	01850363          	beq	a0,s8,1096 <prvTestMasterTask+0x1ea>
E:/9 Mytest/Free_RTOS/EXAM/Demo/Common/Minimal/EventGroupsDemo.c:806
		xError = pdTRUE;
    1094:	4405                	li	s0,1
E:/9 Mytest/Free_RTOS/EXAM/Demo/Common/Minimal/EventGroupsDemo.c:811
	if( xEventGroupClearBits( xEventGroup, ebALL_BITS ) != ( ebALL_BITS & ~ebCOMBINED_BITS ) )
    1096:	8b84a503          	lw	a0,-1864(s1)
    109a:	0ff00593          	li	a1,255
    109e:	2c3040ef          	jal	ra,5b60 <xEventGroupClearBits>
    10a2:	01850363          	beq	a0,s8,10a8 <prvTestMasterTask+0x1fc>
E:/9 Mytest/Free_RTOS/EXAM/Demo/Common/Minimal/EventGroupsDemo.c:813
		xError = pdTRUE;
    10a6:	4405                	li	s0,1
E:/9 Mytest/Free_RTOS/EXAM/Demo/Common/Minimal/EventGroupsDemo.c:817
	if( xEventGroupGetBits( xEventGroup ) != 0x00 )
    10a8:	8b84a503          	lw	a0,-1864(s1)
    10ac:	4581                	li	a1,0
    10ae:	2b3040ef          	jal	ra,5b60 <xEventGroupClearBits>
    10b2:	c111                	beqz	a0,10b6 <prvTestMasterTask+0x20a>
E:/9 Mytest/Free_RTOS/EXAM/Demo/Common/Minimal/EventGroupsDemo.c:819
		xError = pdTRUE;
    10b4:	4405                	li	s0,1
prvPerformTaskSyncTests():
E:/9 Mytest/Free_RTOS/EXAM/Demo/Common/Minimal/EventGroupsDemo.c:514
	if( eTaskGetState( xTestSlaveTaskHandle ) != eSuspended )
    10b6:	854a                	mv	a0,s2
    10b8:	098070ef          	jal	ra,8150 <eTaskGetState>
    10bc:	01650363          	beq	a0,s6,10c2 <prvTestMasterTask+0x216>
E:/9 Mytest/Free_RTOS/EXAM/Demo/Common/Minimal/EventGroupsDemo.c:516
		xError = pdTRUE;
    10c0:	4405                	li	s0,1
E:/9 Mytest/Free_RTOS/EXAM/Demo/Common/Minimal/EventGroupsDemo.c:519
	if( eTaskGetState( xSyncTask1 ) != eSuspended )
    10c2:	8b0a2503          	lw	a0,-1872(s4)
    10c6:	08a070ef          	jal	ra,8150 <eTaskGetState>
    10ca:	01650363          	beq	a0,s6,10d0 <prvTestMasterTask+0x224>
E:/9 Mytest/Free_RTOS/EXAM/Demo/Common/Minimal/EventGroupsDemo.c:521
		xError = pdTRUE;
    10ce:	4405                	li	s0,1
E:/9 Mytest/Free_RTOS/EXAM/Demo/Common/Minimal/EventGroupsDemo.c:524
	if( eTaskGetState( xSyncTask2 ) != eSuspended )
    10d0:	8ac9a503          	lw	a0,-1876(s3)
    10d4:	07c070ef          	jal	ra,8150 <eTaskGetState>
    10d8:	01650363          	beq	a0,s6,10de <prvTestMasterTask+0x232>
E:/9 Mytest/Free_RTOS/EXAM/Demo/Common/Minimal/EventGroupsDemo.c:526
		xError = pdTRUE;
    10dc:	4405                	li	s0,1
E:/9 Mytest/Free_RTOS/EXAM/Demo/Common/Minimal/EventGroupsDemo.c:531
	xEventGroupSetBits( xEventGroup, ( ebALL_SYNC_BITS & ~ebSET_BIT_TASK_SYNC_BIT ) );
    10de:	8b84a503          	lw	a0,-1864(s1)
    10e2:	45b9                	li	a1,14
    10e4:	305040ef          	jal	ra,5be8 <xEventGroupSetBits>
E:/9 Mytest/Free_RTOS/EXAM/Demo/Common/Minimal/EventGroupsDemo.c:534
	uxBits = xEventGroupSync( xEventGroup,			/* The event group used for the synchronisation. */
    10e8:	8b84a503          	lw	a0,-1864(s1)
    10ec:	56fd                	li	a3,-1
    10ee:	4605                	li	a2,1
    10f0:	4585                	li	a1,1
    10f2:	3e3040ef          	jal	ra,5cd4 <xEventGroupSync>
E:/9 Mytest/Free_RTOS/EXAM/Demo/Common/Minimal/EventGroupsDemo.c:542
	if( ( uxBits & ebSET_BIT_TASK_SYNC_BIT ) != ebSET_BIT_TASK_SYNC_BIT )
    10f6:	8905                	andi	a0,a0,1
    10f8:	e111                	bnez	a0,10fc <prvTestMasterTask+0x250>
E:/9 Mytest/Free_RTOS/EXAM/Demo/Common/Minimal/EventGroupsDemo.c:544
		xError = pdTRUE;
    10fa:	4405                	li	s0,1
E:/9 Mytest/Free_RTOS/EXAM/Demo/Common/Minimal/EventGroupsDemo.c:549
	if( xEventGroupGetBits( xEventGroup ) != ( ebALL_SYNC_BITS & ~ebSET_BIT_TASK_SYNC_BIT ) )
    10fc:	8b84a503          	lw	a0,-1864(s1)
    1100:	4581                	li	a1,0
    1102:	25f040ef          	jal	ra,5b60 <xEventGroupClearBits>
    1106:	47b9                	li	a5,14
    1108:	00f50363          	beq	a0,a5,110e <prvTestMasterTask+0x262>
E:/9 Mytest/Free_RTOS/EXAM/Demo/Common/Minimal/EventGroupsDemo.c:551
		xError = pdTRUE;
    110c:	4405                	li	s0,1
E:/9 Mytest/Free_RTOS/EXAM/Demo/Common/Minimal/EventGroupsDemo.c:555
	xEventGroupClearBits( xEventGroup, ( ebALL_SYNC_BITS & ~ebSET_BIT_TASK_SYNC_BIT ) );
    110e:	8b84a503          	lw	a0,-1864(s1)
    1112:	45b9                	li	a1,14
    1114:	24d040ef          	jal	ra,5b60 <xEventGroupClearBits>
E:/9 Mytest/Free_RTOS/EXAM/Demo/Common/Minimal/EventGroupsDemo.c:556
	if( xEventGroupGetBits( xEventGroup ) != 0 )
    1118:	8b84a503          	lw	a0,-1864(s1)
    111c:	4581                	li	a1,0
    111e:	243040ef          	jal	ra,5b60 <xEventGroupClearBits>
    1122:	c111                	beqz	a0,1126 <prvTestMasterTask+0x27a>
E:/9 Mytest/Free_RTOS/EXAM/Demo/Common/Minimal/EventGroupsDemo.c:558
		xError = pdTRUE;
    1124:	4405                	li	s0,1
E:/9 Mytest/Free_RTOS/EXAM/Demo/Common/Minimal/EventGroupsDemo.c:563
	vTaskResume( xTestSlaveTaskHandle );
    1126:	854a                	mv	a0,s2
    1128:	248070ef          	jal	ra,8370 <vTaskResume>
E:/9 Mytest/Free_RTOS/EXAM/Demo/Common/Minimal/EventGroupsDemo.c:564
	vTaskResume( xSyncTask1 );
    112c:	8b0a2503          	lw	a0,-1872(s4)
    1130:	240070ef          	jal	ra,8370 <vTaskResume>
E:/9 Mytest/Free_RTOS/EXAM/Demo/Common/Minimal/EventGroupsDemo.c:565
	vTaskResume( xSyncTask2 );
    1134:	8ac9a503          	lw	a0,-1876(s3)
    1138:	238070ef          	jal	ra,8370 <vTaskResume>
E:/9 Mytest/Free_RTOS/EXAM/Demo/Common/Minimal/EventGroupsDemo.c:567
	if( eTaskGetState( xTestSlaveTaskHandle ) != eBlocked )
    113c:	854a                	mv	a0,s2
    113e:	012070ef          	jal	ra,8150 <eTaskGetState>
    1142:	01550363          	beq	a0,s5,1148 <prvTestMasterTask+0x29c>
E:/9 Mytest/Free_RTOS/EXAM/Demo/Common/Minimal/EventGroupsDemo.c:569
		xError = pdTRUE;
    1146:	4405                	li	s0,1
E:/9 Mytest/Free_RTOS/EXAM/Demo/Common/Minimal/EventGroupsDemo.c:572
	if( eTaskGetState( xSyncTask1 ) != eBlocked )
    1148:	8b0a2503          	lw	a0,-1872(s4)
    114c:	004070ef          	jal	ra,8150 <eTaskGetState>
    1150:	01550363          	beq	a0,s5,1156 <prvTestMasterTask+0x2aa>
E:/9 Mytest/Free_RTOS/EXAM/Demo/Common/Minimal/EventGroupsDemo.c:574
		xError = pdTRUE;
    1154:	4405                	li	s0,1
E:/9 Mytest/Free_RTOS/EXAM/Demo/Common/Minimal/EventGroupsDemo.c:577
	if( eTaskGetState( xSyncTask2 ) != eBlocked )
    1156:	8ac9a503          	lw	a0,-1876(s3)
    115a:	7f7060ef          	jal	ra,8150 <eTaskGetState>
    115e:	01550363          	beq	a0,s5,1164 <prvTestMasterTask+0x2b8>
E:/9 Mytest/Free_RTOS/EXAM/Demo/Common/Minimal/EventGroupsDemo.c:579
		xError = pdTRUE;
    1162:	4405                	li	s0,1
E:/9 Mytest/Free_RTOS/EXAM/Demo/Common/Minimal/EventGroupsDemo.c:583
	uxBits = xEventGroupSync( xEventGroup,			/* The event group used for the synchronisation. */
    1164:	8b84a503          	lw	a0,-1864(s1)
    1168:	56fd                	li	a3,-1
    116a:	463d                	li	a2,15
    116c:	4585                	li	a1,1
    116e:	367040ef          	jal	ra,5cd4 <xEventGroupSync>
E:/9 Mytest/Free_RTOS/EXAM/Demo/Common/Minimal/EventGroupsDemo.c:590
	if( ( uxBits & ebALL_SYNC_BITS ) != ebALL_SYNC_BITS )
    1172:	893d                	andi	a0,a0,15
    1174:	47bd                	li	a5,15
    1176:	00f50363          	beq	a0,a5,117c <prvTestMasterTask+0x2d0>
E:/9 Mytest/Free_RTOS/EXAM/Demo/Common/Minimal/EventGroupsDemo.c:592
		xError = pdTRUE;
    117a:	4405                	li	s0,1
E:/9 Mytest/Free_RTOS/EXAM/Demo/Common/Minimal/EventGroupsDemo.c:596
	if( xEventGroupGetBits( xEventGroup ) != 0 )
    117c:	8b84a503          	lw	a0,-1864(s1)
    1180:	4581                	li	a1,0
    1182:	1df040ef          	jal	ra,5b60 <xEventGroupClearBits>
    1186:	c111                	beqz	a0,118a <prvTestMasterTask+0x2de>
E:/9 Mytest/Free_RTOS/EXAM/Demo/Common/Minimal/EventGroupsDemo.c:598
		xError = pdTRUE;
    1188:	4405                	li	s0,1
E:/9 Mytest/Free_RTOS/EXAM/Demo/Common/Minimal/EventGroupsDemo.c:604
	if( eTaskGetState( xTestSlaveTaskHandle ) != eSuspended )
    118a:	854a                	mv	a0,s2
    118c:	7c5060ef          	jal	ra,8150 <eTaskGetState>
    1190:	01650363          	beq	a0,s6,1196 <prvTestMasterTask+0x2ea>
E:/9 Mytest/Free_RTOS/EXAM/Demo/Common/Minimal/EventGroupsDemo.c:606
		xError = pdTRUE;
    1194:	4405                	li	s0,1
E:/9 Mytest/Free_RTOS/EXAM/Demo/Common/Minimal/EventGroupsDemo.c:609
	if( eTaskGetState( xSyncTask1 ) != eSuspended )
    1196:	8b0a2503          	lw	a0,-1872(s4)
    119a:	7b7060ef          	jal	ra,8150 <eTaskGetState>
    119e:	01650363          	beq	a0,s6,11a4 <prvTestMasterTask+0x2f8>
E:/9 Mytest/Free_RTOS/EXAM/Demo/Common/Minimal/EventGroupsDemo.c:611
		xError = pdTRUE;
    11a2:	4405                	li	s0,1
E:/9 Mytest/Free_RTOS/EXAM/Demo/Common/Minimal/EventGroupsDemo.c:614
	if( eTaskGetState( xSyncTask2 ) != eSuspended )
    11a4:	8ac9a503          	lw	a0,-1876(s3)
    11a8:	7a9060ef          	jal	ra,8150 <eTaskGetState>
    11ac:	01650363          	beq	a0,s6,11b2 <prvTestMasterTask+0x306>
E:/9 Mytest/Free_RTOS/EXAM/Demo/Common/Minimal/EventGroupsDemo.c:616
		xError = pdTRUE;
    11b0:	4405                	li	s0,1
E:/9 Mytest/Free_RTOS/EXAM/Demo/Common/Minimal/EventGroupsDemo.c:624
	vTaskResume( xTestSlaveTaskHandle );
    11b2:	854a                	mv	a0,s2
    11b4:	1bc070ef          	jal	ra,8370 <vTaskResume>
E:/9 Mytest/Free_RTOS/EXAM/Demo/Common/Minimal/EventGroupsDemo.c:625
	vTaskResume( xSyncTask1 );
    11b8:	8b0a2503          	lw	a0,-1872(s4)
    11bc:	1b4070ef          	jal	ra,8370 <vTaskResume>
E:/9 Mytest/Free_RTOS/EXAM/Demo/Common/Minimal/EventGroupsDemo.c:626
	vTaskResume( xSyncTask2 );
    11c0:	8ac9a503          	lw	a0,-1876(s3)
    11c4:	1ac070ef          	jal	ra,8370 <vTaskResume>
E:/9 Mytest/Free_RTOS/EXAM/Demo/Common/Minimal/EventGroupsDemo.c:628
	if( eTaskGetState( xTestSlaveTaskHandle ) != eBlocked )
    11c8:	854a                	mv	a0,s2
    11ca:	787060ef          	jal	ra,8150 <eTaskGetState>
    11ce:	01550363          	beq	a0,s5,11d4 <prvTestMasterTask+0x328>
E:/9 Mytest/Free_RTOS/EXAM/Demo/Common/Minimal/EventGroupsDemo.c:630
		xError = pdTRUE;
    11d2:	4405                	li	s0,1
E:/9 Mytest/Free_RTOS/EXAM/Demo/Common/Minimal/EventGroupsDemo.c:633
	if( eTaskGetState( xSyncTask1 ) != eBlocked )
    11d4:	8b0a2503          	lw	a0,-1872(s4)
    11d8:	779060ef          	jal	ra,8150 <eTaskGetState>
    11dc:	01550363          	beq	a0,s5,11e2 <prvTestMasterTask+0x336>
E:/9 Mytest/Free_RTOS/EXAM/Demo/Common/Minimal/EventGroupsDemo.c:635
		xError = pdTRUE;
    11e0:	4405                	li	s0,1
E:/9 Mytest/Free_RTOS/EXAM/Demo/Common/Minimal/EventGroupsDemo.c:638
	if( eTaskGetState( xSyncTask2 ) != eBlocked )
    11e2:	8ac9a503          	lw	a0,-1876(s3)
    11e6:	76b060ef          	jal	ra,8150 <eTaskGetState>
    11ea:	01550363          	beq	a0,s5,11f0 <prvTestMasterTask+0x344>
E:/9 Mytest/Free_RTOS/EXAM/Demo/Common/Minimal/EventGroupsDemo.c:640
		xError = pdTRUE;
    11ee:	4405                	li	s0,1
E:/9 Mytest/Free_RTOS/EXAM/Demo/Common/Minimal/EventGroupsDemo.c:644
	vTaskPrioritySet( NULL, ebWAIT_BIT_TASK_PRIORITY + 1 );
    11f0:	4589                	li	a1,2
    11f2:	4501                	li	a0,0
    11f4:	064070ef          	jal	ra,8258 <vTaskPrioritySet>
E:/9 Mytest/Free_RTOS/EXAM/Demo/Common/Minimal/EventGroupsDemo.c:647
	uxBits = xEventGroupSync( xEventGroup, ebSET_BIT_TASK_SYNC_BIT, ebALL_SYNC_BITS, portMAX_DELAY );
    11f8:	8b84a503          	lw	a0,-1864(s1)
    11fc:	56fd                	li	a3,-1
    11fe:	463d                	li	a2,15
    1200:	4585                	li	a1,1
    1202:	2d3040ef          	jal	ra,5cd4 <xEventGroupSync>
E:/9 Mytest/Free_RTOS/EXAM/Demo/Common/Minimal/EventGroupsDemo.c:651
	if( ( uxBits & ebALL_SYNC_BITS ) != ebALL_SYNC_BITS )
    1206:	893d                	andi	a0,a0,15
    1208:	47bd                	li	a5,15
    120a:	00f50363          	beq	a0,a5,1210 <prvTestMasterTask+0x364>
E:/9 Mytest/Free_RTOS/EXAM/Demo/Common/Minimal/EventGroupsDemo.c:653
		xError = pdTRUE;
    120e:	4405                	li	s0,1
E:/9 Mytest/Free_RTOS/EXAM/Demo/Common/Minimal/EventGroupsDemo.c:657
	if( xEventGroupGetBits( xEventGroup ) != 0 )
    1210:	8b84a503          	lw	a0,-1864(s1)
    1214:	4581                	li	a1,0
    1216:	14b040ef          	jal	ra,5b60 <xEventGroupClearBits>
    121a:	c111                	beqz	a0,121e <prvTestMasterTask+0x372>
E:/9 Mytest/Free_RTOS/EXAM/Demo/Common/Minimal/EventGroupsDemo.c:659
		xError = pdTRUE;
    121c:	4405                	li	s0,1
E:/9 Mytest/Free_RTOS/EXAM/Demo/Common/Minimal/EventGroupsDemo.c:665
	if( eTaskGetState( xTestSlaveTaskHandle ) != eReady )
    121e:	854a                	mv	a0,s2
    1220:	731060ef          	jal	ra,8150 <eTaskGetState>
    1224:	01750363          	beq	a0,s7,122a <prvTestMasterTask+0x37e>
E:/9 Mytest/Free_RTOS/EXAM/Demo/Common/Minimal/EventGroupsDemo.c:667
		xError = pdTRUE;
    1228:	4405                	li	s0,1
E:/9 Mytest/Free_RTOS/EXAM/Demo/Common/Minimal/EventGroupsDemo.c:670
	if( eTaskGetState( xSyncTask1 ) != eReady )
    122a:	8b0a2503          	lw	a0,-1872(s4)
    122e:	723060ef          	jal	ra,8150 <eTaskGetState>
    1232:	01750363          	beq	a0,s7,1238 <prvTestMasterTask+0x38c>
E:/9 Mytest/Free_RTOS/EXAM/Demo/Common/Minimal/EventGroupsDemo.c:672
		xError = pdTRUE;
    1236:	4405                	li	s0,1
E:/9 Mytest/Free_RTOS/EXAM/Demo/Common/Minimal/EventGroupsDemo.c:675
	if( eTaskGetState( xSyncTask2 ) != eReady )
    1238:	8ac9a503          	lw	a0,-1876(s3)
    123c:	715060ef          	jal	ra,8150 <eTaskGetState>
    1240:	01750363          	beq	a0,s7,1246 <prvTestMasterTask+0x39a>
E:/9 Mytest/Free_RTOS/EXAM/Demo/Common/Minimal/EventGroupsDemo.c:677
		xError = pdTRUE;
    1244:	4405                	li	s0,1
E:/9 Mytest/Free_RTOS/EXAM/Demo/Common/Minimal/EventGroupsDemo.c:682
	vTaskPrioritySet( NULL, ebSET_BIT_TASK_PRIORITY );
    1246:	4501                	li	a0,0
    1248:	4581                	li	a1,0
    124a:	00e070ef          	jal	ra,8258 <vTaskPrioritySet>
E:/9 Mytest/Free_RTOS/EXAM/Demo/Common/Minimal/EventGroupsDemo.c:686
	if( eTaskGetState( xTestSlaveTaskHandle ) != eBlocked )
    124e:	854a                	mv	a0,s2
    1250:	701060ef          	jal	ra,8150 <eTaskGetState>
    1254:	01550363          	beq	a0,s5,125a <prvTestMasterTask+0x3ae>
E:/9 Mytest/Free_RTOS/EXAM/Demo/Common/Minimal/EventGroupsDemo.c:688
		xError = pdTRUE;
    1258:	4405                	li	s0,1
E:/9 Mytest/Free_RTOS/EXAM/Demo/Common/Minimal/EventGroupsDemo.c:691
	if( eTaskGetState( xSyncTask1 ) != eBlocked )
    125a:	8b0a2503          	lw	a0,-1872(s4)
    125e:	6f3060ef          	jal	ra,8150 <eTaskGetState>
    1262:	01550363          	beq	a0,s5,1268 <prvTestMasterTask+0x3bc>
E:/9 Mytest/Free_RTOS/EXAM/Demo/Common/Minimal/EventGroupsDemo.c:693
		xError = pdTRUE;
    1266:	4405                	li	s0,1
E:/9 Mytest/Free_RTOS/EXAM/Demo/Common/Minimal/EventGroupsDemo.c:696
	if( eTaskGetState( xSyncTask2 ) != eBlocked )
    1268:	8ac9a503          	lw	a0,-1876(s3)
    126c:	6e5060ef          	jal	ra,8150 <eTaskGetState>
    1270:	01550363          	beq	a0,s5,1276 <prvTestMasterTask+0x3ca>
E:/9 Mytest/Free_RTOS/EXAM/Demo/Common/Minimal/EventGroupsDemo.c:698
		xError = pdTRUE;
    1274:	4405                	li	s0,1
prvTestMasterTask():
E:/9 Mytest/Free_RTOS/EXAM/Demo/Common/Minimal/EventGroupsDemo.c:237
		vEventGroupDelete( xEventGroup );
    1276:	8b84a503          	lw	a0,-1864(s1)
    127a:	3ab040ef          	jal	ra,5e24 <vEventGroupDelete>
E:/9 Mytest/Free_RTOS/EXAM/Demo/Common/Minimal/EventGroupsDemo.c:241
		if( eTaskGetState( xTestSlaveTaskHandle ) != eSuspended )
    127e:	854a                	mv	a0,s2
    1280:	6d1060ef          	jal	ra,8150 <eTaskGetState>
    1284:	01650363          	beq	a0,s6,128a <prvTestMasterTask+0x3de>
E:/9 Mytest/Free_RTOS/EXAM/Demo/Common/Minimal/EventGroupsDemo.c:243
			xError = pdTRUE;
    1288:	4405                	li	s0,1
E:/9 Mytest/Free_RTOS/EXAM/Demo/Common/Minimal/EventGroupsDemo.c:246
		if( eTaskGetState( xSyncTask1 ) != eSuspended )
    128a:	8b0a2503          	lw	a0,-1872(s4)
    128e:	6c3060ef          	jal	ra,8150 <eTaskGetState>
    1292:	05650363          	beq	a0,s6,12d8 <prvTestMasterTask+0x42c>
E:/9 Mytest/Free_RTOS/EXAM/Demo/Common/Minimal/EventGroupsDemo.c:251
		if( eTaskGetState( xSyncTask2 ) != eSuspended )
    1296:	8ac9a503          	lw	a0,-1876(s3)
    129a:	6b7060ef          	jal	ra,8150 <eTaskGetState>
E:/9 Mytest/Free_RTOS/EXAM/Demo/Common/Minimal/EventGroupsDemo.c:262 (discriminator 1)
		configASSERT( xError == pdFALSE );
    129e:	30047073          	csrci	mstatus,8
    12a2:	66b1                	lui	a3,0xc
    12a4:	0000d637          	lui	a2,0xd
    12a8:	0000d537          	lui	a0,0xd
    12ac:	ffc68693          	addi	a3,a3,-4 # bffc <__FUNCTION__.4167>
    12b0:	b5460613          	addi	a2,a2,-1196 # cb54 <__FUNCTION__.4880+0x20>
    12b4:	10600593          	li	a1,262
    12b8:	b9c50513          	addi	a0,a0,-1124 # cb9c <__FUNCTION__.4880+0x68>
    12bc:	793030ef          	jal	ra,524e <log_debug>
    12c0:	9002                	ebreak
E:/9 Mytest/Free_RTOS/EXAM/Demo/Common/Minimal/EventGroupsDemo.c:262 (discriminator 3)
    12c2:	a001                	j	12c2 <prvTestMasterTask+0x416>
prvSelectiveBitsTestMasterFunction():
E:/9 Mytest/Free_RTOS/EXAM/Demo/Common/Minimal/EventGroupsDemo.c:936
			if( eTaskGetState( xSyncTask2 ) != eSuspended )
    12c4:	68d060ef          	jal	ra,8150 <eTaskGetState>
    12c8:	c9851de3          	bne	a0,s8,f62 <prvTestMasterTask+0xb6>
    12cc:	b961                	j	f64 <prvTestMasterTask+0xb8>
E:/9 Mytest/Free_RTOS/EXAM/Demo/Common/Minimal/EventGroupsDemo.c:918
			if( eTaskGetState( xSyncTask1 ) != eSuspended )
    12ce:	683060ef          	jal	ra,8150 <eTaskGetState>
    12d2:	c7851de3          	bne	a0,s8,f4c <prvTestMasterTask+0xa0>
    12d6:	b9a5                	j	f4e <prvTestMasterTask+0xa2>
prvTestMasterTask():
E:/9 Mytest/Free_RTOS/EXAM/Demo/Common/Minimal/EventGroupsDemo.c:251
		if( eTaskGetState( xSyncTask2 ) != eSuspended )
    12d8:	8ac9a503          	lw	a0,-1876(s3)
    12dc:	675060ef          	jal	ra,8150 <eTaskGetState>
