:020000021000EC
:100000006FA02252000000000018011800280128EB
:100010000228032800290129022903290429052986
:10002000062907290829002A012A022A032A042A64
:10003000052AA62A18AD0300861E01006A020020C8
:10004000B40200202602002014020020DC0100205F
:10005000102101003C210100242201002224010082
:10006000C6240100FC1C0100201C0100921C0100A0
:100070004C1C01009A29010000040020E620010028
:1000800078260100D8500300D052030048530300E3
:10009000780A03008C0A0300F2590200724B020036
:1000A000C04A0300AE260100B813030064DE01005D
:1000B000F2DE01004ADF010088320100D432010083
:1000C0003E310100BA9A01007E95010056A401005C
:1000D00026A80100D2AB0100A08701003E870100E5
:1000E000288B0100EC87010014870100988701002C
:1000F000C686010070880100C88801007888010068
:100100007C88010016890100D08801000289010065
:10011000248E01002C8E01006C880100748801007F
:1001200014890100288E0100C48901009A8F010002
:100130001EBA01009CBA0100DABA01001E9D01003E
:10014000369D0100729D0100408101002482010062
:100150008C820100D2500100184C0100467701004A
:10016000964C010072720100CC870300DA84030010
:100170002C8F0300A09F0300709E0300A4A2030025
:100180005CA203009CA203004CA30300E6720300E0
:10019000DCA203006096030086960300AE9603007F
:1001A000BCA303006A9C0300009C03002CA4030072
:1001B00048750300E47503000C760300AE75030078
:1001C000102E030032190300C01C0300161A03008E
:1001D000A4230300604B0300464A03001A73030084
:1001E0008C2B0100B40B0300981303009014030040
:1001F00054420300F4420300A444030022A101007E
:10020000BE2D0300242403005A2A0300C226030043
:10021000E6180300260600207A0C0300C8A203009B
:1002200060A2030098A2030094A20300CE23010061
:10023000709E0100D0A203000A3003005C3103006D
:10024000D63103006A8F0300CCA20300D4A20300BE
:10025000FE4A0200D8A203009A0F00209814002042
:10026000000000000000000000000000000000008E
:10027000000000000000000000000000000000007E
:100280006373B60082801C419105110523AEF5FE13
:10029000C5BFB7270020372700209387879C130707
:1002A000C7F26373F700828023A007009107D5BFD0
:1002B0005DCDAA870145D5CD8D07C207C183F19BCE
:1002C000C207C18313074003636CF702372700207E
:1002D000032587B537270020832607B56397A60235
:1002E00037270020032787BE014541C74111C207B8
:1002F00006C60545DD8D0297B24001454101828069
:1003000037270020032547B5F1B70357650031EFC4
:1003100003574500636BF704B72600203306F74008
:100320002148938606B66378C8028328050003D85F
:100330006600138687001D8F2A9661172312E60038
:10034000232016012313060010C12312F500130702
:1003500088FF2393E6002313B50083D566002105AB
:10036000B387F5402393F6008280084185BF01459D
:100370008280828009CDB727002003A387B5B727E5
:10038000002083A807B581469A8763E3170182801E
:1003900003A807006369F50A6367A80A1387870043
:1003A000E367E5FE03D66700216705076319E600EA
:1003B000372600200347C6A50507230EE6A43726E7
:1003C0000020130506B683D5470003576500239325
:1003D0000700130606B62E97420741832313E50054
:1003E0006387670237250020032545B56301F502C1
:1003F00003D5660009ED83D7460023A00601210737
:10040000BE95A1052392B6002313E600B687984354
:10041000E30F17F7B726002083A646B5E309D7F602
:1004200083566700ADF683D64700835547001843CF
:10043000A106AE962392D70098C383576600A10702
:100440002313F6008280BE86C28781B719CD91CD75
:1004500009CE81473387F500834607003307F5004F
:1004600085072300D700E317F6FE828019C991C9DA
:1004700009CA910583A7C5FF11057D16232EF5FE38
:10048000C5BF828001C919C62A960505A30FB5FE0E
:10049000E31DA6FE828081473307F50003070700AE
:1004A00019E33E8582808507C5BF01112E8626CAC5
:1004B000AA84131506019305F004418122CC06CECF
:1004C00032C6FD332A8401C53246A68541372285CE
:1004D000F2406244D24405618280854715C18DC1D6
:1004E00005C28147B306F5003387F50083C60600D1
:1004F000034707006398E6008507E315F6FE854786
:100500003E8582808147EDBF9307F6FFBE952A9610
:100510006313C5008280FD1583C715000505A30F71
:10052000F5FEFDB7AA87014581CF09CE3E96850726
:1005300003C7F7FF6317B700E39BC7FE054582803B
:10054000828001458280797126D2B724002022D48E
:1005500003A444BB06D64AD04ECE52CC56CA5AC883
:100560005EC662C44DC43729002037CAC901B72905
:100570000020814B372B0020130989BB130AFA375F
:10058000938909B6B70AC0A88357240099EF5C4441
:10059000639A0B0023AAF4BA032CC4002285D93B2A
:1005A000628499A823A6FB00C5BF8327CBBF82978F
:1005B000830669011C4463D806063307F54063626D
:1005C000EA0823A809008355240003450400972066
:1005D00001E0E78020DB5C405844A1CF1444B6978B
:1005E0008306690163C7060063E55701B7064057F4
:1005F000B6971CC4A28B3A8441F8B7270020938792
:1006000007B6984B894663F2E606791798CBB25045
:10061000225492540259F249624AD24A424BB24B96
:10062000224C45618280E37AF5F83387FA402A97B5
:1006300079B763950B0023AAE4BAB9BF23A6EB00F0
:10064000A1BF0327490219CB63DD06003385A7400C
:1006500083A709016374F50023A8A900A28B404475
:1006600061BFE3F5A7FED697D5B723A8070045B726
:1006700001114AC837290020832709B906CE22CCA8
:1006800026CA4EC652C456C25AC081C78297232872
:1006900009B8930709B9DC4337240020130404B9CF
:1006A00091C38297832709B963900718B724002064
:1006B000938704E783C75700938404E7858B8DC332
:1006C00003C77400A3820400914763FBE700EF00B7
:1006D000904783C77400F9178A07A2979C438297B3
:1006E000372A002093070AEB83C7C700130A0AEBD7
:1006F000918B99C3EF1040341C4491C382973724E7
:100700000020B7290020930704B603A709BB03C63E
:100710001700930A04B6834704B693961700BA9657
:1007200083D60600C1CA834704B663EDC708832792
:1007300009B9230004B6EDEB83C7940091CB83C7BE
:10074000740099E7A3840400971003E0E78020BBBE
:10075000B727002083A7C7BFE1CBB707C0A823A84E
:10076000FA00D533B7270020938787BBD8534DCFE6
:1007700083C7570103A70A016368F70A03C7740018
:10078000914763E3E70A8347CA00918BD1EF83C6A1
:100790001A0003A609BB63C3D70A6244F240D244DD
:1007A0004249B249224A924A024B0561172301E0AD
:1007B00067008399850793F7F70F2300F4B6E3ECFE
:1007C000C7F495B786073E978355070023100700A7
:1007D000034504B6B727002083A7C7B81317250021
:1007E000372B0020BA979C4323160BBA8297835766
:1007F000CBBA034704B693C7F7FF7D8D9317170055
:1008000003A709BB3E97835707005D8D2310A70000
:10081000834704B681C785072300F4B6034704B6AF
:1008200083C71A00E375F7F0F2406244D2444249AC
:10083000B249224A924A024B0561828013971700FF
:100840003297035707006DF38507B1B7AD6737C718
:100850000040BD072326F7200F100000B727002017
:10086000938707B6C84F83278726BD66BD0693C703
:10087000F7FF99836A052326D7205D8D8280411179
:10088000B7170040985F3AC6945F3247E39CE6FE94
:10089000324541018280828003278511630007125F
:1008A000411122C406C68347C5008345C5042A8476
:1008B00093F7C70F2306F500834697000356C7003A
:1008C00013958601618563F1C508635A05060345E2
:1008D000870093F6F607A304D700054693E62700A2
:1008E0006314C50093E617002306D4005C43890710
:1008F0005CC3A30AB400032504112E864C430905EA
:10090000B1368327841103465401D44303D7C7006B
:10091000B296118FD4C32396E7008947A30DF40044
:10092000B72700200347440383C7A7BC6378F704B5
:100930008347C40093E707012306F40081A093E7EF
:1009400017002306F40075B79376F60F635D050272
:1009500003458700854513E627006314B50013E6B9
:1009600017002306C400A30AD400A3040700854788
:10097000A30DF400832784119C43DDF3B24022448D
:1009800001454101828093E717002306F400A30A82
:10099000D400A3040700032504114C4309057D344A
:1009A0008327841103465401D44303D7C700B2966A
:1009B000118FD4C32396E7008D475DBF0545828024
:1009C000B727002083A7C7E5411122C406C6858B3F
:1009D0002A84DDEB4165130525F5976002E0E78089
:1009E000005C5DC18347A5002315F5008327041231
:1009F000B5E72320A4122322A41285472310F40470
:100A0000232005008347640154412316F500034762
:100A1000D4002304E5000547A304E50037270020A0
:100A2000032787E81385170215811C437D1513756D
:100A3000F50F9CC25C43DCC21C479CC65C47DCC60D
:100A40001C4B9CCA5C4BDCCA1C4F9CCE5C4FDCCE62
:100A500019CD9386060213070702C1BF83274412EC
:100A600088C3835704042322A412850741BFB727F4
:100A70000020938707D403D7870005072394E70056
:100A8000B2402244410182808347C400230904000C
:100A9000054593C747002306F400DDB7834785016A
:100AA00093F7E70FD5E783479501DDE3034625017B
:100AB0008346C50009CA37270020834545030347FD
:100AC000B7BC63E7E50013F7060141C7014709C654
:100AD000C18A0357851B81C68356C51B369735CB04
:100AE000B727002083D687B8B7470F00938707241E
:100AF000B3C7D7021307C712411126C222C406C6C4
:100B00007D543357F702B727002083C717BDB3843E
:100B1000E700B727002083A6C7DC83A7060963F395
:100B200087003E849442F5FAB727002083A7C7BF09
:100B3000829781476364A400B307A440B240224473
:100B4000B3B7970093C7170092443E854101828056
:100B500081473E858280797126D206D622D44AD03A
:100B60004ECE52CC56CA5AC85EC68347350303449C
:100B70007513AA843E941374F40F9307400263F62E
:100B800087001304B4FD1374F40F03AA841383AA1B
:100B9000C413A38B841222865285D68597A003E0C6
:100BA000E780A0C3058915E503CBD412014981492B
:100BB000337B6403930B50024A865285D68597A0F7
:100BC00003E0E78080C1058915C56391690313744B
:100BD000F90F238B8412B250225492540259F249D5
:100BE000624AD24A424BB24B456182808509E20992
:100BF00093D989410509E31179FDE1BF832785096F
:100C00000356E503797193D60701BD8EC206C182F2
:100C1000358E1357764093575640898B058B5D8FE1
:100C200093573640918B5D8F93571640A18B5D8F04
:100C300093171600C18B5D8F9317360093F7070249
:100C40005D8F931756009355860093F707041E0691
:100C50005D8F1376F60F518F93D7554013D63540DD
:100C6000118A898BD18F13D67540D18F13D6154039
:100C7000218AD18F13961500418AD18F13963500A2
:100C800013760602D18F13965500137606049E053F
:100C9000D18F93F5F50FCD8FA20745465D8F3307B2
:100CA000C70222D42A8426D252CC56CA032A8413DD
:100CB000832AC4135AC806D63697420741839357EE
:100CC0007740135557400989858BC98F1355374095
:100CD0001189C98F135517402189C98F1315170022
:100CE0004189C98F1315370013750502C98F131574
:100CF000570093558700137505041E07C98F137796
:100D0000F70FD98F13D5354013D755401189098B6B
:100D1000498F13D57540498F13D515402189498FC7
:100D2000139515004189498F1395350013750502F8
:100D3000498F13955500137505049E05498F93F54A
:100D4000F50F4D8F2207D98FB387C7024AD04ECEF9
:100D50005EC662C4B697C207C18313D7774013D566
:100D600057400989058B498F13D537401189498F21
:100D700013D517402189498F139517004189498F51
:100D80001395370013750502498F1395570093D5B6
:100D90008700137505049E07498F93F7F70FD98FC6
:100DA00013D5354013D755401189098B498F13D579
:100DB0007540498F13D515402189498F139515002A
:100DC0004189498F1395350013750502498F139595
:100DD0005500137505049E05498F93F5F50F4D8F4A
:100DE0002207D98FB387C702130650025285D685D2
:100DF000B697BD8E93940601C18033F6C402137B6F
:100E0000F60F97A003E0E780409D05890DED83472D
:100E1000D41201498149B3849702130C5002C18056
:100E20004A865285D68597A003E0E780009B058916
:100E3000937BF90F11C563863403850993F9F90F84
:100E40000509E31F89FD230B6413B2502254925409
:100E50000259F249624AD24A424BB24B224C456196
:100E600082805E8BCDB70111B727002022CC03A46E
:100E700087DF26CA4AC84EC606CEAA8413092500B3
:100E8000854915C083C7140003473400858B63046C
:100E9000F700405CFDB71946930544004A85EFF022
:100EA000CFE3E31835FF2285F2406244D244424941
:100EB000B249056182804111B727002022C403A4F2
:100EC00087DF26C24AC006C693042500054901E80B
:100ED0002285B24022449244024941018280A68583
:100EE0001305A40297C002E0E780809EE30225FF7D
:100EF000405CF1BF4111B727002022C403A487DF63
:100F000026C24AC006C693042500054901E8228589
:100F1000B24022449244024941018280A6851305D1
:100F2000A40197C002E0E780A09AE30225FF405C9D
:100F3000F1BF011122CC604126CA4AC84EC652C434
:100F400006CEAA841D4A130965058549BC4463641D
:100F5000F400054581A803C7D40083474400631B00
:100F6000470503C784026304F7000040C5B7034781
:100F7000540083C75405E31AF7FE1946CA851305C2
:100F80006400EFF08FD5E31235FF0347C40083C739
:100F90009402E31CF7FC0357E40083D7A402E31692
:100FA000F7FC0145F2406244D2444249B249224A28
:100FB00005618280E31BF7FA0347540083C7540599
:100FC000E315F7FA1946CA8513056400EFF0EFD070
:100FD000E31D35F9F9B70111B727002022CC03A48E
:100FE00007DF26CA06CE2AC42EC6854419E4014569
:100FF000F2406244D24405618280834791000347F6
:101000001400858B6304F7000044CDB7194693059F
:10101000A10013052400EFF04FCCE31795FE054522
:10102000C1BF011122CC372400200327C4E82AC6FF
:101030002EC432C206CE3C4B93F7F7F73CCB970059
:1010400003E0E78000290327C4E8B72600203C4BD3
:1010500093E707083CCB83A746E63245A24523A089
:10106000070003471500034825002207420842975E
:10107000034805004297034835006208429798D715
:10108000034755000348650022074208429703487A
:10109000450042970348750062084297D8D7034736
:1010A00095000348A500220742084297034885009F
:1010B00042970348B5006208429798DB0347D50082
:1010C0000348E5002207420842970348C50003454C
:1010D000F500429762052A97D8DB03C7150003C5C0
:1010E0002500220742052A9703C505002A9703C554
:1010F000350062052A9798CF03C7550003C56500E0
:10110000220742052A9703C545002A9703C57500A3
:1011100062052A97D8CF03C7950003C5A50022070B
:1011200042052A9703C585002A9703C5B5006205C5
:101130002A9798D303C7D50003C5E50022074205C7
:101140002A9703C5C50083C5F5002A97E2052E97A7
:10115000D8D3D843759BD8C3D84313671700D8C3D7
:1011600098431367170098C3124603A746E65C43EB
:10117000858BD1EB1C4F01452300F60083A746E683
:101180009C4FA183A300F60083A746E69C4FC18332
:101190002301F60083A746E69C4FE183A301F600F6
:1011A00083A746E6D84F2302E600D84F2183A30247
:1011B000E600D84F41832303E600D84F6183A303A1
:1011C000E60098532304E60098532183A304E60025
:1011D000985341832305E60098536183A305E600F5
:1011E000D8532306E600D8532183A306E600D8533C
:1011F00041832307E600DC53E183A307F600F240B6
:1012000062440561828001008DB75D7136D4B726D6
:1012100000203AD203A786E63ED04ACA1C5F4EC8D9
:1012200086C6998396C49AC29EC022DE26DC2ADA3C
:101230002ED832D642CE46CC72C676C47AC27EC092
:10124000858BB68937290020ADCF1C5F372400205D
:10125000930404E793F7F7F91CDF930704E783C7C8
:101260006700130700086319F700832749E69C43CA
:1012700093F707042383F400834704E793F70704F5
:1012800089CFB727002083A7C7BF829788C8834725
:1012900004E793F7F70B2308F4E683C7440093F7BA
:1012A000070485E38547A382F400B727002083A7BE
:1012B000C7E8096798C7130700FC2382E400D844F5
:1012C000F8D383A789E6985F1183058B19CB985FC4
:1012D00085463D9B98DF37270020130707E7230249
:1012E000D700985F1D83058B01CF985F1377F7F7C1
:1012F00098DFB7270020938707E705472382E70099
:10130000832749E6D8430583058B19C7D843759BC6
:10131000D8C3D843799BD8C37254B640A64216436B
:101320008643E2545255C2553256A256125782573E
:101330007248E2485249C249324EA24E124F824F81
:10134000616173002030B7270020B726002003A674
:10135000C7E8938706E703C706E7058B11C7238213
:101360000700A3820700828003C71700058B65FB77
:10137000785275F303C75700EDB7372800200327CD
:1013800088E61C5F9583858BD1E709C61C5BBD830E
:101390002300F60085CA832788E6985B46079357A3
:1013A00067016356070093E707C0C207C18303972D
:1013B0000600C207C18709C7BA970947B3C7E70242
:1013C0002390F60037270020130707E795C98347C6
:1013D00015009DC7034667009386970089471376DB
:1013E00006041DC63695834605000546994793F5C4
:1013F000F606639FC500E206E186B94763CA0600A8
:10140000832788E69C5FED838D8BA305F7008147DA
:101410003E8582808547EDBF411122C406C6372430
:10142000002026C20327C4E859E5AE877453FDFEA9
:10143000B7240020938404E73E85B285238104000D
:10144000970003E0E780E0C6B727002083A787E680
:10145000B70680009843558F98C3D857719BD8D74B
:101460008327C4E8A3820400A3800400094798C32B
:10147000B7F700E003A707D16D9B23A8E7D003A728
:1014800007D15D9B23A8E7D0730050108326C4E8E2
:10149000B7270020938707E703C72700058B19E7C5
:1014A00003C73700058B59C723820700B240224487
:1014B0009244410182808D47631FF500B7270020C9
:1014C00083A787E6B70680009843558F98C3D857FF
:1014D000719BD8D765BF8547E31AF5FAB567BD0795
:1014E0005CC70F1000008327C4E80967930600F863
:1014F00098C737270020130707E72302D7003727AD
:101500000020832687E60946984231830D8B6319B4
:10151000C7001307E043F8D33D673D07D8C7BDB701
:10152000984231830D8B01E713076019EDB713075C
:10153000E01BD5B7F8522DF395BF5D7152DC372A09
:10154000002003278AE686C6A2C4A6C2CAC04EDE11
:101550001C43B72900203729002093F7F7E793E7CA
:1015600007081CC383A689ED3707CEFF7D179C466D
:10157000130680022A84F98F9CC68327C9E81307C3
:1015800000082800B8CBAE8493051008EFE09FEF69
:10159000970003E0E780E0D3970003E0E780C0DF37
:1015A00083278AE69376F41F370FFCFF23A40700F6
:1015B000984B4E88CA881367F70398CBF84F1305EA
:1015C00010F8D285137707E0558FF8CF9843F5765A
:1015D000FD16758F98C39843B7063300B702040011
:1015E0001377F7E798C398439303401F7D1F137742
:1015F000F7E71367071098C303A789ED930F8002DD
:1016000085491C47D58F1CC78327C9E81307900D50
:101610003400B8CB11490147135337002693834751
:10162000030013767700B3D7C740858BE1C383A748
:1016300085E6832E88ED239C07042390070603AEDE
:10164000CE02137EDEFF23A6CE0383AE0700137EF9
:10165000F70793FE0EF833EECE0123A0C70103AEC9
:101660004702336E5E0023A2C70383AEC8E8014E73
:1016700023A27E0603DA070663074E0303AE0703C1
:10168000038A0600135EFE00620E135E8E416358ED
:10169000CA0103AE0703135EFE002380C60103DE0A
:1016A0000706137EFE0F03AA4E0663060A0003DA3E
:1016B0008705E37F49FB03AE4702337EEE0123A299
:1016C000C70383870600635CF400034E0300339670
:1016D000C9001346F6FF3376C6012300C3003E86D9
:1016E00063D3A7002A861315860161850507137742
:1016F000F70F8506E312F7F3B640264496440649F1
:10170000F259625A61618280011132CA3726002083
:101710003EC48327C6E83AC636C8D8472ACE2ECC60
:101720009316170163D2060298479316170163DDDB
:1017300006007D57B8D737270020130707B6544F48
:10174000850654CF116798C798470D83058B0DC345
:1017500037270020130707E78346270093E6160084
:101760002301D700930600F82302D700214798C72A
:101770009847058B09CF37270020130707E78346D3
:10178000170093E61600A300D700054798C79847AF
:101790000983058B09E798470583058B21CF94477B
:1017A00037270020372500208982858A6388061024
:1017B000832685E69442B1828D8AF5EEAC4B930682
:1017C00007E7944E93F5050283C61600DDCDEDE2E2
:1017D00093067006D4CF834607E793E616002308E6
:1017E000D7E6114798C7032785E65C57F19B93E737
:1017F00017005CD70327C6E81C479396370163D4CC
:101800000602B7270020938607D403C606079387EE
:1018100007D4418A55CE83C7060793E7070223887A
:10182000F60685671CC71C479396270163D10602FD
:10183000B7270020938707E783C64700E206E186C3
:1018400063D5060085462382D70089671CC71C47DD
:101850009396070163D20602B7270020938707D427
:1018600083C61707858AC9C683C6170793E626006D
:10187000A388D706A1671CC77245E2455246C246F7
:101880003247A247056173002030B9D28545639580
:10189000B6009306B0063DBF89456395B600930632
:1018A000F0060DBF8D456395B600930630071DB752
:1018B0009306500705B79306600729BF130707E78C
:1018C0008346370093E61600A301D700094719BFE6
:1018D00083C607070946BD8A6388C60083C6070713
:1018E0000D46BD8AE39FC6F291462388D70615BFF1
:1018F00083C61707918ABDDE83C6170793E6860065
:1019000085BFB726002037270020938706EB1306F4
:1019100007E90346B60183C7D700938606EB130792
:1019200007E9B29793F7F70F7D466361F604A300CA
:10193000F70083471700484B05463316F600A38689
:10194000F600698E05EE03C61601130800028146F3
:1019500033F6C7028147B355F500858993F8F70F31
:1019600099C96317D600A300170182808117C1B7F8
:10197000850693F6F60F8507E39F07FD8280B7275C
:10198000002083A7C7BF011122CC26CA52C406CEAD
:101990004AC84EC656C25AC08297B72400209387C1
:1019A00004EB8047014A6306A406B727002013878B
:1019B00087BB03076701938404EB138987BB6355D7
:1019C0000706018D37270020930707E983C7A70182
:1019D00013545500137AF501930907E96368F4027B
:1019E000B70AC0A8370B4057293F83C6A9019C44BA
:1019F000139756003E9783076901158C63C507004E
:101A0000636357015A9798C4E370D4FE1604336A8F
:101A10004401F24062445285D2444249B249224ACA
:101A2000924A024B05618280E37D85F8B707C0A822
:101A300033848740229579B7B727002083A7C7BF93
:101A4000411122C44AC006C626C282973729002007
:101A5000930709EB80476308A406B7270020838714
:101A6000E7BC130909EB63D80704018DB7240020F4
:101A7000938704E983C7A70113545500938404E9AD
:101A80006363F404BD3D83C7A401032789009396D3
:101A9000570036971D8C2324E900E375F4FE224499
:101AA00003C51400B2409244024981454101170325
:101AB00003E0670043DEE37A85FAB707C0A8338402
:101AC0008740229565B7B2402244924402494101C1
:101AD0008280B727002003A787EDB75702009387BE
:101AE000079F83260709139656006358060083262E
:101AF00007091396660063440600FD17FDF3828014
:101B0000B72700203727002083A787B5032707B50D
:101B100001456313F700828083D6670081E683D690
:101B2000470036959C43F5B7B727002083A587BBB0
:101B300037270020938787BB13860522232CC7B441
:101B400003D74700938785FFB72600204111BA9736
:101B5000056523A8F6B406C61D05935637006374C1
:101B6000E500930600203307D60037250020232AFE
:101B7000E5B423A0E522E1162312D60023130600C4
:101B80001CC3998FE1172312F700231307008D3F21
:101B9000B240B72700202393A7B641018280B72720
:101BA00000203727002083A787B5832607B5014586
:101BB0006393F600828003D7670011E703D74700DD
:101BC0006373E5003A859C43E5B7B7270020B72645
:101BD000002083A787B503A606B52A87B305B540BD
:101BE0006314F6003A8529A8938687009C43E3692D
:101BF000D7FEE377F7FE2E85E3E4D5FEE3F2F5FEAC
:101C0000828023AC05FE1C4191E7010001000CC15C
:101C10008280BA8703A787FF6DFF23ACB7FE82805F
:101C20001DC18346E5FF1307F00F9147639EE60051
:101C3000411106C697E0FE1FE780004DB240814784
:101C40003E854101828095473E85828001E90145BC
:101C500082800145B2402244410182809565411154
:101C6000938505D022C4C98D2A842105C205420569
:101C7000C181418106C697E0FE1FE780A03C71D973
:101C8000FD5723200500231285002303F5002105BD
:101C9000D1B7411126C2B724002083A7C4B522C4FE
:101CA0004AC006C60144014989E7A1659D2F15C4B4
:101CB00001A803C7E7FF6319A70205CCA16589291D
:101CC00003A7C4B5832784FF6317E40223AEF4B4EB
:101CD000FD57232C04FE230FF4FE2285B24022443C
:101CE000924402494101828011E03E8983A787FF27
:101CF00065BF3E84E5BF232CF9FED9BFB1CDB72720
:101D0000002083C717B6411122C406C62A842E8537
:101D10006375F400894763E8870019370D45B240C1
:101D200022444101828083A785FF99E703C7E5FF2D
:101D30009307F00F6305F700E5351545CDB7372557
:101D40000020238F85FE1305C5B5653D22852244FD
:101D5000B240A16541016DAE15458280B7270020D4
:101D600023AE07B48280B727002083A747BB99E33F
:101D70003E85828003D727006316B70003C707009C
:101D8000E308A7FEDC47E5B7BDCD797122D406D6BE
:101D900026D24AD04ECE01444147B3D78540858BE9
:101DA000B1CF1205314722953305E502B727002050
:101DB00003A947BF8544B3948400C204C180BE898F
:101DC0002A990327090011C7032549002EC6029747
:101DD000B24531473304E40283A749BF3E941C4413
:101DE00089E72320090023220900B2502254A58D3F
:101DF00002599254F2492E85456182800504E31E02
:101E0000E4F88144DDB72E858280411113970501E6
:101E100022C406C626C24AC041872E84635E0700DC
:101E20008D3D11C1F53BA1673D8C2285B240224416
:101E30009244024941018280EDD9AA870147414677
:101E4000B356E440858A9DCA9207BA97B146B387D4
:101E5000D702B726002003A946BF8544B394E40007
:101E6000C204C1803E998327090003254900829757
:101E70002320090023220900258C45BF0507E31113
:101E8000C7FC8144D5BFB727002083A787BD411178
:101E900022C406C6372400201304049991C78297F0
:101EA0001C403E9508C031A0B727002083A7C7BFBC
:101EB000FDF70840B74703009387D73F3305F50286
:101EC000B7A72600938737ECB2403E9508C022445E
:101ED000410182800111680006CE22CC26CAEF3073
:101EE000B118FD57630BF50C37240020930684BB13
:101EF00083C756013247130484BB63F5E70AB7244E
:101F00000020938404B698483706C0A8630BC70224
:101F1000B727002083A7C7BF829732479C486373C7
:101F2000F700BA8703475401998F3E9583076401F0
:101F300063CE0700B707C0A8636AF500B70740572C
:101F40009DA88386660163D406061D8D3724002074
:101F5000930704E79C4F130404E799CBB7270020AD
:101F600083A687ED3707CDFF7D179C46F98F9CC66A
:101F700019E13705C0A8B727002083A7C7BD8297FE
:101F800019E51C4C85C3EFF08164EFE0D1431C4C94
:101F900091CBB727002003A787EDB70633001C4776
:101FA000D58F1CC7F2406244D24405618280E37E33
:101FB000F5F8B307F7403E9551BF372400201304CE
:101FC00004B61C48B704C0A8E38E97FCB7270020CE
:101FD00083A7C7BF829737270020130787BB834695
:101FE00057011C48958F3E9583076701E3C007F6AC
:101FF000E36E95F4A1B76DC53748F6A6130808C877
:1020000089476360C80E7971B727002022D45AC867
:1020100003A847BF3E8B06D626D24AD04ECE52CC1E
:1020200056CA5EC662C40144B148C147B30B14032B
:10203000137CF40F3303780103230300631D0308AB
:10204000AE8AC165AA84938505F041453A8AB6896E
:10205000328997E0FE1FE780E0FE05E9B727002000
:1020600083A787BE99EF8147B250225492540259F8
:10207000F249624AD24A424BB24B224C3E854561FC
:102080008280814511458297F9BFB726002003A7BA
:1020900046BB15EF23AAA6BA2300050083274BBF32
:1020A0000547331487002326050023242501231127
:1020B000850023224501DE9784C323A2570123A470
:1020C0004701E38209FA2380890171BF36875447AB
:1020D000F5FE48C7D1B70504E31AF4F4A14769B780
:1020E00089473E858280B727002083A787BF41119B
:1020F00022C406C637240020130404B689C7829779
:102100005C483E9548C84848B2402244410182801C
:10211000B727002083C717B66370F5023727002062
:1021200093171500032507BB3E9583570500DD8DEA
:102130002310B500014582800D458280B72700201D
:1021400083C717B66372F50237270020931715006F
:10215000032507BB93C5F5FF3E9583570500FD8D0D
:102160002310B500014582800D4582809307F0025F
:1021700063E7A70AB146B306D502B727002003A735
:1021800047BF89473697184341CF011122CC4EC62D
:102190000544935945003D893315A40013140501E6
:1021A000418026CA4E85AE84A2854AC806CE653EC9
:1021B0002A89814729CDA2854E854937B727002036
:1021C00083A7C7BF8297B727002083D787B82A8401
:1021D00013060064338797028146B3B7970213054D
:1021E0000732B335E500BE95EF80623DB72700208A
:1021F0008387E7BC229563C90700B707C0A863655A
:10220000F500B70740573E952324A9008147F240C7
:102210006244D2444249B2493E8505618280894781
:102220003E85828001114EC6B7290020938909B6E8
:1022300083C7190006CE22CC26CA4AC852C4636B93
:10224000F5000145F2406244D2444249B249224A73
:1022500005618280B727002083A4C7BFFDD02E8AE6
:1022600083D589022A843289B387C5028146B3B5F2
:10227000C50213850732B337F50013060064BE9517
:10228000EF80E233B747F6A6938707C8E3EBA7FAD8
:10229000829483D58902AA8413060064B387250338
:1022A0008146B3B5250313850732B337F500BE95D4
:1022B000EF80E230B7270020138787BB0307670151
:1022C000AA94138987BB63490700B707C0A863E5D1
:1022D000F400B7074057BE94D2852285693401C502
:1022E00004C5054585B7936504F0C205C181414524
:1022F00097E0FE1FE78000D501E983270903B1D3EA
:10230000A2851145829735BF37270020832747BB19
:102310008DE3232AA7BA85472326050004C5231188
:10232000450123008500A300F5002322050055BFC9
:10233000BA87D84775FFC8C7F9BF41C9797122D498
:1023400026D24AD04ECE52CC56CA5AC85EC662C4B5
:1023500006D6B689B28A2E8A2A899304000C414493
:10236000372B0020054C930B000383274BBFA69708
:102370009C43A1E79375F400B315BC00C2055686D3
:10238000C18113554400793D0DC983274BBF0145D9
:10239000BE9423A0240123A2440163840900238066
:1023A0008900B250225492540259F249624AD24AE8
:1023B000424BB24B224C4561828005041374F40FEA
:1023C000B104E31474FB2145E9BF09458280411142
:1023D00022C426C24AC006C62A842E89B2849935F0
:1023E000CA852285493205CDB727002083D587B815
:1023F0002A8413060064B38795028146B3B595021B
:1024000013850732B337F500BE95EF80421B48C0F5
:102410000145B24022449244024941018280214553
:10242000CDBF411122C426C24AC006C62A892E84C5
:102430001D3AAA8419C123110500A2854A85FD39D8
:10244000B727002083C707B663992701B727002065
:1024500003D7C7BA598C239687BA014591E019452D
:10246000B240224492440249410182809307F00223
:1024700063E8A7044111B14722C43304F50226C220
:10248000B724002083A744BF06C6A2979843894774
:1024900015C39377F5008545B395F500C205C18155
:1024A0001181413783A744BFA29723A0070023A22D
:1024B00007008147B240224492443E854101828018
:1024C00089473E858280411106C622C4693811E5DC
:1024D0000145B240224441018280B727002083A7F2
:1024E000C7BF00458297B72700208387E7BC63D822
:1024F0000702B747F6A63305A4409387F7C7E3E979
:10250000A7FC93070064B335F50237270020035674
:1025100087B881463305F502EF80620A5DBFE37A32
:10252000A4FCB707C0A83E94E9B74111B727002023
:1025300006C623ACA7BE0295B240B727002023AC45
:10254000A7B6014541018280994763E9B700B727E3
:1025500000208A05938707B9BE9588C18280B72776
:10256000002023AA07BA37250020B72700204111F1
:1025700023AC07BE7146B72700208145130505B976
:1025800006C623AE07BE22C426C23724002097E029
:10259000FE1FE78060C8130504B61306C00281451C
:1025A00097E0FE1FE78040C7EFF00FD8B727002065
:1025B00083C7F7BC130404B6854513D527008D8B5C
:1025C0003E958D473305F5029947B724002039051C
:1025D0001375F50F2301A4003305F5021305052437
:1025E00097E0FE1FE78000A623AAA4BE49C10346C8
:1025F0002400994781453306F6021306062497E026
:10260000FE1FE78060C183A744BF03472400B724AF
:102610000020938707240A0723A6F4B8BA97372720
:1026200000202328F7BAEFF06FF30D218347140041
:1026300083A6C4B8372601001397270036971306E0
:1026400086D810C3138717001377F70F0A073726AA
:10265000010036971306A6E010C3138737008907D9
:1026600093F7F70F8A07A300E400B69790C3B24030
:10267000224492444101828037270020130707B685
:10268000834717008346270063F0D702B726002050
:1026900083A6C6B813861700A300C70013972700A8
:1026A000369708C33E8582809307F00FE5BF1C4133
:1026B000638B071041777D8FB7060020894763152C
:1026C000D7100357450063010710411126C2194670
:1026D000AA849305F00F690506C622C497E0FE1F81
:1026E000E78080BD05478D476309E50C9C4491C791
:1026F000D858994779C3985C69C3372400201306DA
:10270000C0038145130584BB97E0FE1FE780C0B07E
:102710001306C003A685130584BB97E0FE1FE78060
:1027200020AC930784BB03D7C70009E71307001049
:102730002396E70003C7E70001E705472387E70083
:1027400003D7070101E76D472398E70003C7F700A8
:1027500001E71547A387E70003C7270101E70547FE
:102760002389E70003C7370109E703C7F700A389F7
:10277000E70003C7470101E73547238AE70003C79E
:10278000970109E713078002A38CE70003C75701ED
:1027900009E71307D002A38AE70003C7840109E70A
:1027A0001307C003238CE7009C5791C78297B72774
:1027B00000202394A7B665338147B2402244924457
:1027C0003E854101828089473E858280B72700206F
:1027D00083A7C7BF011106CE22CC26CA4AC84EC65F
:1027E000829793070064B335F5023729002013045C
:1027F00009B68359840281464E863305F502EF708F
:10280000125C004CAA84014563049402130909B6C2
:1028100033858440636C94004E868146370500B052
:102820009305E041EF70B259018D2695232C990054
:10283000F2406244D2444249B249056182800111AA
:1028400022CC2E84B7B503000A8541469385C5A0E6
:1028500006CEEF804210180806043A94B7270020ED
:10286000035504FF83D7A7B8F2406244AA973745BF
:102870000F00130505243355F50205618280B72743
:10288000002083D7A7B851471D45637CF7027947DD
:1028900019456378F7021307200315456373F702A0
:1028A0001307B0041145637EF700130740060D457A
:1028B0006379F7001307600909456374F70013B5DE
:1028C000B70F8280011122CC06CE2A842EC6EFF0EB
:1028D0008FDBB245F240818D33A5A502229562447B
:1028E0001375F50F05618280011122CC06CE2A8472
:1028F0002EC6EFF04FD9B245F240818D33A5A50227
:10290000229562444205418105618280011122CCF9
:1029100006CE2A842EC6EFF00FD7B245F240818D45
:1029200033B5A5022295624405618280B727002055
:10293000138787BB18572DC3411122C426C24AC032
:1029400006C6138987BB0297B7270020138707B6EF
:10295000035787002A84938407B60DCBBA87637325
:10296000A700AA87C207C183BA866373E400A28660
:10297000C206C182958F5147635AF7008327C90267
:1029800091C38297EFE0D13023948400B240224477
:1029900092440249410182808280B7270020138738
:1029A00087BB5857011122CC06CE138487BB01C7C1
:1029B0002AC602973245B7270020938707B63727E4
:1029C000002015C1B7863200938626A194D7232E06
:1029D000A7BE372501001305C57C813EF240624445
:1029E00001450561828083466401139686016186F4
:1029F00063550602B7863200938626A123AE0700F0
:102A000094D7B7C70040FD5623A4D726B7070020A8
:102A10009387C75D232EF7BE6DBF13F6160019CA44
:102A2000B7862003938606D094D7B70700209387F4
:102A3000E760CDB761762394C70291C69306003252
:102A40002395D702DDB793062003DDBF011122CC09
:102A500037240020930784BB884706CE26CA4AC87D
:102A600001E90545F2406244D24442490561828051
:102A7000130484BB5C58F5D7185C65D77000854596
:102A800082971844B247E30EF7FC0355C400930540
:102A9000E004B724002097D0FE1FE780A05A1387D8
:102AA00004B608D3938404B64DDD0356C4009305E1
:102AB000F00F014997D0FE1FE78000768347E400BE
:102AC0009050634DF900328597D0FE1FE780C063B8
:102AD000014523A0040223A2040269B78355C40060
:102AE0000844185CB3872503898105093E9508C20F
:102AF0000297E9B7411122C437240020930784BB11
:102B00009C4726C206C6B72400204AC0938404B658
:102B100091EB88503DE1B240224492440249014584
:102B200041018280130484BB1C5CE5D79C5091EB6F
:102B30000355C4009305E00497D0FE1FE780805042
:102B400088D0885079D50356C4009305F00F014909
:102B500097D0FE1FE780406C8347E4009050E35A13
:102B6000F9FA8355C4001C4433852503898105097E
:102B70003E951C5C08C28297C5B797D0FE1FE780C0
:102B8000A05823A0040223A2040271B701114EC66B
:102B9000B7290020938789BB9C4726CA4AC852C4DC
:102BA00006CE22CC56C25AC02A8AAE843289638CA1
:102BB000071E938989BB03A74903630207127D4758
:102BC0006361A71237240020130704B6832A070283
:102BD000130404B6639A0A0803D5C9009565938562
:102BE00015E097D0FE1FE780E04508D02A8665C92A
:102BF00083D5C90083A7490303A5890089818297EA
:102C000083A78900832A04025CD089476316FA08E7
:102C1000C1476396F40C83D5C9009147938505FCA1
:102C2000B3C5F5028A05D69503C705009307A0052D
:102C30006313F70A83C71500639F47094A852686F1
:102C4000910597D0FE1FE780A0591C5056856393CD
:102C500057130145F2406244D2444249B249224AE4
:102C6000924A024B056182805850E380E7FA03D50F
:102C7000C9009565938525E097D0FE1FE780803CCD
:102C8000AA8A31CD83D5C9002A8683A7490303A523
:102C900089008981829795BF8D47631BFA00C147E0
:102CA000639FF40283D5C900938545FDF199A5BFC3
:102CB00091476318FA006394440383D5C900A115B2
:102CC000F5B7C147631DFA00A14763EA970083D5B2
:102CD000C900C115E1BF1C5056856391570D2945A8
:102CE00095BF1307F006636CA708930A05FE194702
:102CF000B3CAEA0203D7C900372B0020B38AEA021D
:102D0000BE9A93070BB6DC53130B0BB663955701B2
:102D100003240B021DE003D5C9009305E00497D0FE
:102D2000FE1FE78020322A845DD983D5C90083A79E
:102D300049032A8689815685829791451307A00504
:102D4000898193972500A29783C607006393E604C1
:102D500083C61700639C460385058A052686A295CF
:102D60004A8597D0FE1FE780A04783270B02E382A6
:102D700087EE228597D0FE1FE7800039D9BD130763
:102D8000E007E36EA7F4930A05F9ADB783D52700F2
:102D900045BF83270B02E38487F4228597D0FE1F6B
:102DA000E78080362DBFB727002083A507B885D9D7
:102DB00091479306A0058983139727002E97034612
:102DC0000700E31ED6F003461700631C4601850783
:102DD0008A072686BE954A8597D0FE1FE780404029
:102DE0008DBD83572700C1BFB7270020938787BBBE
:102DF000984729C3985F1DCF8546631DD5024111B1
:102E000022C437240020130404B6105006C619CE7D
:102E100083D5C700485089810297085097D0FE1F7C
:102E2000E780802E2320040223220402B2402244A1
:102E3000410182808280011122CC37240020930737
:102E400084BB56C283AA870026CA4AC84EC606CE8D
:102E500052C42A89AE84B289130484BB638B0A1CD2
:102E60001C5C99EB2945F2406244D2444249B24984
:102E7000224A924A056182805C58EDD7FD4763E79C
:102E8000A70C372A002093070AB69C53130A0AB6E8
:102E9000B9C7084483274A02639FA7048947631779
:102EA000F906C147E390F4FC0355C40091471305AC
:102EB00005FC3345F5029317250003250A022686F3
:102EC000CE853E959307A0052300F500A3002501BC
:102ED000110597D0FE1FE780A030014569B7035563
:102EE000C4009305E00497D0FE1FE780A0152320BF
:102EF000AA0245F185BF8355C4005C5803260A0227
:102F0000898182971C442322FA0249BF8D47631CA2
:102F1000F900C147E398F4F40355C400130545FDD7
:102F20009377C5FF59BF91476318F900E39C24F3D9
:102F30000355C4002115EDB7C147E315F9F2A147C8
:102F4000E3E297F20355C4004115D9BF9307F00699
:102F500063E9A706930705FE1947B3C7E7020357BE
:102F6000C400372A0020B387E702BE9A93070AB647
:102F70009C53130A0AB6A9CF83274A0263965707C0
:102F800003250A0291461308A005FD5593D7260094
:102F9000C207C183139727002A97034607006314CB
:102FA00006078348170003562700639C2805B306CD
:102FB000D64063C6960485078A072686CE853E9549
:102FC00009BF9307E007E3EFA7E8930705F941BFBF
:102FD0000355C4009305E00497D0FE1FE7808006E8
:102FE0002320AA0251F9BDBD8355C4005C580326B5
:102FF0000A0289815685829723225A0351B7A3007A
:10300000B700B28661B70356C400B3859600910538
:10301000130606FCE3F8C5E4138634001376C60FE6
:103020001106B29623000701A30027012311D70040
:1030300059B7372A002093070AB69C53130A0AB6D9
:10304000A1C303250A0291461308A005FD5593D795
:103050002600C207C183139727002A97034607005B
:10306000631206058348170003562700639828015A
:10307000B306D640E3D196F4A300B700B286C1BF31
:103080000345E4008357C4009305E0043305F502CB
:103090004205418197D0FE1FE780C0FA2320AA0293
:1030A0004DF1C9B30356C4008345E400B385C5029E
:1030B000338696001106E3E7C5DAB9BF0145828081
:1030C00083C705002300F50083D72500A300F50082
:1030D00083D72500A1832301F50083C74500A30101
:1030E000F50011458280B727002023A6079CB7274B
:1030F000002023A4079C828029C1411126C206C654
:1031000022C4AA8401458DC52E84B7B5030022854B
:1031100041469385C5A197D0FE1FE780600C83C709
:10312000040005452306F40083C71400A306F40039
:10313000B2402244924441018280014582800111C3
:1031400022CC26CA06CE0947AA8432846381E504CC
:1031500041468147639BC500638FE6006397B600D5
:103160000DA841478147638EE600F2406244D24495
:103170003E85056182808A852285BD3F41468A85DC
:1031800019A88A85953F41468A85228531A0E39A10
:10319000B6FC2E86A285268597D0FE1FE780200DDF
:1031A000AA87E1B7B727002023A4A79C8280B7276E
:1031B000002023A6A79C8280011122CC0354650025
:1031C00006CE26CA4AC84EC641C083298500AE84B1
:1031D0002A8803C90900814713178901618763554C
:1031E0000702B147054563FA8704511442040355A9
:1031F0002800418033878900A2864E868545EFD01E
:10320000C065B337A00085077D14135569004204DB
:1032100005891379F90341802380F400A380A40079
:103220002381240123928400014719C013871900C8
:1032300098C409476383E7000145F2406244D244E1
:103240004249B249056182800545C5BFC167F9178A
:10325000630AF502D94763F7B702011122CC2EC6E3
:1032600006CE2A84EF90002AB2456368B500228515
:103270006244F24005616FA0D04AF24062440545C5
:103280000561828005458280C167F9176314F500E6
:103290006F904027411106C6EFA0703711E15D45E0
:1032A000B2404101828091476394F5028347050053
:1032B0002300F6008347250003471500A207D98F96
:1032C0002311F6008347350001452302F600828072
:1032D000114582804111814522C426C206C6AA84B6
:1032E00005252A8409E9B727002083A7879C81C781
:1032F000F945268582972285B240224492444101B5
:10330000828039714ED656D25AD006DE22DC26DAB9
:103310004AD852D4AA8A2E8BB28941EF36C6AD372D
:103320009145EF90E02FAA844D492DC9B246054A38
:10333000238034010544630A0B00B685138514000D
:10334000029B0505131405014180E20993D98941C7
:1033500063D30902C1455685EFA0B039654905E937
:1033600033868400A2852685EFD060102A8905E186
:1033700031044204418091472C085685231CF100FA
:1033800026CE231D8100EFA0A0402A8901C9630732
:103390000A00268597D0FE1FE78000D7F2506254BE
:1033A0004A85D2544259B259225A925A025B21613B
:1033B0008280BA84014AADBF011122CC26CA4AC814
:1033C0004EC606CE2A893284B689253FAA840DE1ED
:1033D000B727002083A7C79C81CF05476317E40068
:1033E00003C4090005041374F40FA2854A8582976B
:1033F000F240624426854249D244B2490561828046
:10340000AE86B7350100014705469385050C6DB7BB
:1034100083D705002300F50083D70500A183A3000F
:10342000F5000945828083D705002300F50083D786
:103430000500A183A300F50083D725002301F50033
:1034400083D72500A183A301F5001145828083D78E
:1034500005002300F50083D70500A183A300F50034
:1034600083D725002301F50083D72500A183A3017D
:10347000F50083C755002302F50083C76500A3024A
:10348000F50003D58500190542054181828083D767
:1034900005002300F50083D70500A183A300F500F4
:1034A0000945828083D705002300F50083D70500F6
:1034B000A183A300F50083D725002301F50083D75E
:1034C0002500A183A301F5001145828003D54500A5
:1034D000060542054181828083D705002300F5005F
:1034E00083D70500A183A300F50003D525000905B6
:1034F00042054181828083D705002300F50083D7F0
:103500000500A183A300F50083D725002301F50062
:1035100083D72500A183A301F50003D5450011053C
:1035200042054181828083C705002300F5000545DF
:10353000828083D70500411122C406C62300F5000E
:1035400083D705002E841105A183A30EF5FE83D732
:1035500025009505230FF5FE83D7D5FFA183A30F83
:10356000F5FE03C6F5FF97D0FE1FE78060C7034551
:103570004400B24022441105410182808947639C86
:10358000F50083471500034705000145A207D98FC1
:103590002310F60082801145828003D70500D947A9
:1035A00063FEE702011122CC06CE2EC62A84EF80EC
:1035B0007075B24683D70600636DF50022856244BC
:1035C000F240B73501000147094693850541056181
:1035D0000DBBF24062440945056182800945828045
:1035E00091479DC583460500FD15C2058547C181EC
:1035F0006392F60213D725008D89914791E991478F
:1036000001CB05052301D6002310E60048C28147FF
:103610003E85828009479147E39CE6FEC94733D740
:10362000F502B3F5F502D1BFAE86B735010001470B
:10363000114693856542F1B193F7350091EB89818D
:10364000914789C52310B60048C281473E858280D4
:103650009147EDBF03C745008947631AF70201117F
:1036600022CC2A84C84506CEAE86014719C52EC68F
:103670009D45EFE08FD5B2462A8722856244F2400D
:10368000B735010019469385E54405619DB90945A3
:10369000828099E111458280834705000547231107
:1036A000F600E379F7FEFD1593F5F50F33D7F50234
:1036B000B387E702E390F5FE050548C22310E60054
:1036C0000145828083C745000947AE866385E700D0
:1036D00041476399E700B7350100014721469385CB
:1036E000255305B1094582802310B60091E10145BB
:1036F00048C201458280AE86B735010001472946A0
:103700009385E548FDBE2310B60091E1014548C20E
:1037100001458280AE86B735010001473146938569
:10372000454AC5B62310B60091E1014548C201459E
:10373000828003D74500854763FDE702011122CC53
:103740002A84884106CE0DC12EC68545EFE0EFC71D
:103750002A8722856244B246F240B73501003946D5
:103760009385C54C056171BEF2406244094505610F
:1037700082800945828091479DC5034705008D469B
:10378000914763F2E602FD15C205C181B3C6E502A9
:103790003308D7026399050105052310D6002311CC
:1037A000E60048C281473E85828083C745000947BD
:1037B000AE866385E70041476399E700B7350100AE
:1037C00001474146938525532DBE09458280B33577
:1037D000B000139525008280011122CC26CA06CEA6
:1037E00003C785008547AA842E8449466310F702E3
:1037F000613C8357240049151306200963C8A700BC
:10380000F2406244D2440945056182800347940036
:1038100085476314F70013660604484011C58D45BB
:1038200032C6EFE08FBA3246A2866244F2402A875F
:103830002685D244B73501009385854D0561D1B405
:103840008D4763FFB7028347150003470500F11555
:10385000A207D98F2310F6008347350003472500C0
:10386000C205A207C181D98F2311F6002312B60029
:1038700089C5110508C60145828023240600E5BFDD
:1038800011458280011122CC2A84884506CEAE865D
:1038900011C52EC69545EFE04FB3B2462A87228563
:1038A0006244F240B735010059469385654F056182
:1038B00089BCB335B000139525008280AE86B7353C
:1038C0000100014761469385655225BC8547114536
:1038D00063F4D7028347160083450600A207CD8F05
:1038E0002310F7009387E6FF2311F70089476386CB
:1038F000F600090650C30145828023220700E5BF78
:103900000147814679468145EDBA83D705002300FA
:10391000F50083D70500A183A300F5000945828047
:1039200083C7250005472300F50003D505006397ED
:10393000E7000A050505420541818280C947330534
:10394000F502CDBF03D505000A05420541818280FD
:1039500083D725002300F50003D5050083D7250074
:103960003305F502050542054181828003D5050036
:10397000828003D50500828003D50500828083D72D
:1039800025002300F50003D5050083D72500330566
:10399000F502050542054181828083D70500230099
:1039A000F50083D70500A183A300F50083D7250088
:1039B0002301F50083D72500A183A301F50003D5DA
:1039C0004500110542054181828083D7050023000F
:1039D000F50083D70500A183A300F50003D52500DA
:1039E000090542054181828089471145639BF600A4
:1039F00083471600834606000145A207D58F231092
:103A0000F700828003D70500D947AE8663F9E70047
:103A1000B745010001470D469385A59071BA094548
:103A2000828011456393A6028347160083460600F1
:103A30000145A207D58F2310F70083473600834640
:103A40002600A207D58F2311F700828083C72500A7
:103A50000547FD1793F7F70F6361F70483D7050058
:103A60008DCF011122CC2A84C84106CE15C12EC6A5
:103A70008945EFE08F952A8722856244B246F2405D
:103A8000B745010015469385059205616FF0DF92F9
:103A9000F24062440945056182800945828095476C
:103AA000114563F9D706411122C426C24AC006C691
:103AB00083471600BA8403470600A2073284D98FD1
:103AC0002390F40083473600034726009305440003
:103AD000A207D98F2391F40089472382F400094675
:103AE00013855400368997C0FE1FE780606F9307E7
:103AF000A9FF2394F4009947631BF90023A604004F
:103B0000B240224492440249014541018280190495
:103B1000C0C4FDB7828083D705008DCF011122CCB0
:103B20002A84C84106CE15C12EC68545EFE0EF892F
:103B30002A8722856244B246F240B74501001D46FD
:103B40009385459405616FF03F87F24062440945D3
:103B5000056182800945828099476395F60489470B
:103B6000411106C62302F70083471600834606006C
:103B7000B285A207D58F2310F7008347360083460E
:103B8000260003464700A207D58F130557002311CF
:103B9000F700910597C0FE1FE7808064B2400145A1
:103BA00041018280D14711456394F600C1474DBF62
:103BB000828083D705008DCF011122CC2A84C84191
:103BC00006CE15C12EC68945EFE02F802A872285B3
:103BD0006244B246F240B7450100254693850595FB
:103BE00005616FF06FFDF240624409450561828016
:103BF0000945828089471145639BF600834716007B
:103C0000834606000145A207D58F2310F700828066
:103C1000011122CC2A84C84106CEAE86014719C5BF
:103C20002EC68545EFD07FFAB2462A8722856244A8
:103C3000F240B74501002D469385C59605616FF0AA
:103C4000AFF711456393A60283471600834606002B
:103C50000145A207D58F2310F7008347360083461E
:103C60002600A207D58F2311F7008280011122CCF4
:103C70002A84C84106CEAE8611C52EC68545EFD032
:103C8000DFF4B2462A8722856244F240B74501003C
:103C900035469385259705616FF00FF293F716006F
:103CA000114589EB89476387F60085822312D70087
:103CB00010C301458280011122CC2A84C84106CE5E
:103CC00015C12EC68545EFD05FF02A872285624454
:103CD000B246F240B74501003D46938585970561A0
:103CE0006FF08FEDF240624409450561828083D711
:103CF00005008DCF011122CC2A84C84106CE15C102
:103D00002EC68945EFD07FEC2A8722856244B246D1
:103D1000F240B745010045469385E59705616FF090
:103D2000AFE9F2406244094505618280094582801D
:103D3000854763FCD7022304A700A304B700834789
:103D4000160083450600A207CD8F2310F700938746
:103D5000E6FF2311F70089476386F600090650C382
:103D60000145828023220700E5BF1145828001477B
:103D700081464D4681456FF02FE48D47114563FB29
:103D8000D7028347160083450600A207CD8F231074
:103D9000F7008347360083452600A207CD8F231105
:103DA000F7009387C6FF2312F7006386A60011066B
:103DB00010C70145828023240700E5BF011122CCF2
:103DC0002A84884506CEAE8611C52EC69545EFD00D
:103DD000DFDFB2462A8722856244F240B745010000
:103DE0005D469385A59905616FF00FDD8547114507
:103DF0006397F6008347060001452300F7008280A1
:103E000001478146654681456FF00FDB011122CCE9
:103E10002A84C84106CEAE86014719C52EC68D45F7
:103E2000EFD0BFDAB2462A8722856244F240B74516
:103E300001006D469385A59C05616FF08FCC011143
:103E400022CC2A84C84106CEAE86014719C52EC6AB
:103E50008D45EFD09FD7B2462A8722856244F24033
:103E6000B745010075469385A59C05616FF06FC944
:103E7000011106CE2EC6EF90B07501C9B245F240D1
:103E80000355250005616FD09012F2404945056148
:103E90008280B7270020A38C079EB7270020238CA1
:103EA000079EB727002023A0079EB727002023A244
:103EB000079EB727002023A4079EB727002023A62C
:103EC000079EB727002023AE079CB727002023AC0E
:103ED000079CB7270020239007C21306403893871A
:103EE00007C22391C70271761307400B130606B869
:103EF0002391E7002392C70211671D469306000530
:103F00009305000A1305007D2392E7002393C7025F
:103F100041470546130810F82395E7002396E7006C
:103F20002399E700239AE700239BE700239CE700FF
:103F30002394E702239607032393B7002394B70043
:103F40002397D7002398D700239DA700239E07001F
:103F5000239F0700239007022395C7022397070298
:103F60001308F007239807022392E7042393E7043A
:103F7000239FE7042390E7062391E7062392E706B1
:103F8000239907031307C01C239AC702239BC70268
:103F9000239C0702239D0702239E0702239F0702FB
:103FA000239007042391C70423940704239507044F
:103FB0002396C7042397D7042398D7042399A704EB
:103FC000239A0704239B0704239C0704239DD704FB
:103FD000239ED7042393A706239407062395070659
:103FE000239607062397B7062398B7062399070653
:103FF000239AE7067D57239B0706239CE7068280CA
:10400000011126CAAA84214522CC06CE2E8432C6AE
:1040100036C43AC2EFD09FC31DC9A24612473246EA
:10402000930700FD2300F5009947A30095002301A5
:10403000F5002303D500A303E5002312C500AA85DC
:1040400022856244F240D24405616FD03FCBF240FA
:104050006244D24405618280B727002023A0A79E36
:104060008280B727002023A2A79E8280B727002046
:1040700023A4A79E8280B727002023A6A79E828024
:10408000011122CC4AC806CE26CA2A890144B304AB
:1040900089006368B400F2406244D2444249056139
:1040A00082802EC6EFD03FDE93170501C183A18326
:1040B000B2452380F4009307140093F7F70F8504AB
:1040C00063F9B700CA9709042380A7001374F40F9B
:1040D0007DBF3E847DBF411122C4372400201304DC
:1040E00004C003556400C16706C6FD17630FF500E1
:1040F000B727002003C687D2B72500209385059FE8
:10410000EF90102BFD572313F400B24022444101DD
:10411000828009C925151375F50F1335850E1345D2
:10412000150082800145828023900500C9C67971FF
:1041300022D426D24ECE52CC5AC806D64AD056CA1F
:104140005EC63684328AAE892A8B814463F3440783
:10415000B307940083C70700138914004209939A98
:10416000070193DA0A011359090163840A04CA9703
:104170006341FA04B307240183CB07005E85513FF6
:104180000DC99387FAFF2390F90063906B03130521
:1041900019002295B250225492540259F249624AAF
:1041A000D24A424BB24B45618280D694C204C18050
:1041B00071BF0145C5B701458280011122CC37246A
:1041C000002026CA4AC84EC6930704C006CE2E89D0
:1041D000D0CB8CCBC8C7AA8441469305F00F4A8543
:1041E00097C0FE1FE780400D8549130404C0631982
:1041F00035030848C145693541469305F00F2685CA
:1042000097C0FE1FE780400B05496315250348440E
:104210006244F240D2444249B249C14505618DB57C
:10422000414681454A8597C0FE1FE780E008E315B7
:1042300035FDC1B741468145268597C0FE1FE78001
:10424000A007E30625FDF2406244D2444249B24948
:1042500005618280411122C43724002026C24AC051
:10426000AE842A89130600028145130504C006C6E0
:1042700097C0FE1FE78040FA930704C0A38127017F
:10428000B7270020238697D2EFD0A054854719C1C5
:10429000814749452300F4C0B24022449244024978
:1042A00041018280814781CD19C98547631BF50093
:1042B00083C7550093E707FCA382F50085473E8539
:1042C000828089476317F50083C7550093F7F7038A
:1042D000E5B70D478547E314E5FE03C7550013779F
:1042E000F70313670704A382E500D1BF81478DC19F
:1042F00005C103C755009306000C85471377070CCB
:104300006308D700930600048D476303D7008947ED
:104310003E858280411122C4005D06C626C21DC8AA
:10432000AA84085009C597C0FE1FE780E0DD485009
:1043300009C597C0FE1FE78020DD085409C597C056
:10434000FE1FE78060DC228597C0FE1FE780C0DB90
:1043500023AC0402B240224492444101828019E914
:10436000B727002083C727C091C737250020130532
:10437000059D828037250020130585C18280B727DF
:10438000002003C527C08280B727002003A5C7C02F
:104390008280B727002003A507C18280B7270020AD
:1043A00083A747C188438280B7270020938707C02F
:1043B000D44B9842050798C203C537009307F00F06
:1043C0006305F50091656FD0BFD48280011122CCC6
:1043D00006CE2E8432C6EF9050309147B24563101E
:1043E000F502B727002083A7C79E95C303A3070044
:1043F000630F030022856244F24005610283B72700
:10440000002083A7479E81C703A34700D5B7F2408A
:104410006244054505618280011122CC2A8403553E
:10442000450006CE26CA4AC84EC6EF9030093DC99F
:104430002A89834405008349C500E93D4A85EFA0E8
:10444000500A03554400EF909024372900201309A7
:10445000899F83470900B9CB639A9704B727002047
:1044600083C5979F2685293419E123000900035548
:104470004400EF9090269147631FF500B727002076
:10448000938707C08356440003D767006395E6000F
:104490007D572393E700F2406244D2444249B24937
:1044A0000561828081499304F00F45B79307F00FAF
:1044B000E38FF4FA83466400035644000345240066
:1044C0004E87A685353E65B779715EC6AA8B2E8567
:1044D00052CC56CA5AC806D622D426D24AD04ECE7C
:1044E000AE8A328B368AEF90607D7DC1045D2A8969
:1044F000E5C09C50614599C3130540039C5481C796
:1045000051054205418163050A007105420541815B
:10451000DC5081C7590542054181EFD02FF32A8431
:1045200045C96146814597C0FE1FE780E0CEB727A9
:10453000002083C907C563940900834909009307D4
:1045400000FD2300F400A947A30074012301F40037
:10455000230364018C50231254011305840191C973
:1045600008C47146930A440397C0FE1FE78040C702
:1045700056858C5491C948C45146930A450197C049
:10458000FE1FE780E0C55685630C0A0008C8714627
:10459000D285930AC50197C0FE1FE78060C4568587
:1045A000CC5099C548C8594697C0FE1FE78040C304
:1045B000A2854E85EFD08FF42254B2509254F24926
:1045C000624AD24A424BB24B4A850259456199B37D
:1045D000B250225492540259F249624AD24A424B92
:1045E000B24B4561828001114EC6AA892E854AC808
:1045F00006CE22CC26CA2E89EF90406C21C9B7275F
:10460000002083C407C599E0834405001945EFD015
:10461000EFE32A8405CD8145194697C0FE1FE78048
:10462000A0BF930700FD2300F400B947A3003401A5
:104630002301F40023122401A2856244F24042497E
:10464000B2492685D24405616FD04FEBF2406244F7
:10465000D2444249B2490561828039715ECEAA8B4B
:104660002E8526DA4ED652D456D25AD006DE22DC19
:104670004AD8AE84328BB68A3A8ABE8942C6EF9057
:10468000E06321CD2A894145EFD04FDC2A8431C532
:104690004146814597C0FE1FE78000B8B72700203C
:1046A00003C507C519E103450900930700FD230071
:1046B000F400BD472301F400B247A30074012312A4
:1046C000940023046401A304540123054401A305B9
:1046D00034015CC4A285EFD06FE2F2506254D25430
:1046E0004259B259225A925A025BF24B216182809E
:1046F000797126D2AA8439454AD04ECE06D622D424
:104700002EC6B2893689EFD06FD421C1B245930746
:10471000000D2310F500B1472A842312B5002301B0
:10472000F500CE851905194697C0FE1FE78040ABFE
:1047300023062401A2852254B2500259F24913F5EE
:10474000F40F925445616FD06FDBB25022549254F3
:104750000259F24945618280411126C2B7240020E6
:10476000938404C003C7340006C622C44AC093071A
:10477000F00F630CF7042A893945EFD02FCD2A8436
:1047800029C5930700FDB72500202300F500A300ED
:10479000250123010500938585C10D05194697C0A4
:1047A000FE1FE780E0A383D78400A28503C5340001
:1047B0002315F40083C714002306F4002244B240FA
:1047C0009244024941016FD06FD3B24022449244D7
:1047D00002494101828001115AC02A8B314526CA03
:1047E0004EC652C456C206CE22CC4AC8AE84B28A45
:1047F000368ABA89EFD08FC53DCD2A842685EF90C1
:10480000E04B11C50347C500A1476314F704B72760
:10481000002003C937C0930700FD2300F4009D4723
:10482000A30064012301F400231294002313540114
:104830002314440123153401A2856244F240D2447A
:10484000B249224A924A024B4A85424905616FD0D9
:10485000EFCAB727002003C9D7D2E31E0BFAB72748
:10486000002083A787AB9C47DDD7CE865286D685AE
:10487000268582974DB7F2406244D2444249B249FC
:10488000224A924A024B05618280011122CC2A847D
:10489000214506CE2EC6EFD06FBB21C1B24593078E
:1048A00000FD2300F500C5472301F50083C735004F
:1048B000A301F50083D745002312F50083C76500E7
:1048C0002303F50083C77500AA85A303F50022859D
:1048D0006244F24005616FD06FC2F24062440561EC
:1048E0008280397162CC2A8C594526DA4AD84ED654
:1048F00052D456D25AD05ECE06DE22DCAE8432C608
:1049000036C4BA8B3E8BC28A468A83590104034956
:104910004104EFD0AFB325C93246930700FDA2464C
:104920002300F5009547A301C500A30085012301DD
:10493000F5002A8419461105A9C2B68597C0FE1F45
:10494000E780008A23066401230A240123157401E9
:10495000231754012318440123193401A2856254FA
:10496000F2504259B259225A925A025BF24B624CAF
:104970002685D25421616FD06FB8814597C0FE1F44
:10498000E7808089C1B7F2506254D2544259B2597B
:10499000225A925A025BF24B624C21618280411191
:1049A00022C437240020130404C08347240006C611
:1049B00026C28DCBB7240020AA8519461385049DF5
:1049C00097C0FE1FE780C081034524009385049DA6
:1049D000EFF05F8D2244B2401385049D9244410163
:1049E0006FC0F05FB2402244924401454101828091
:1049F000411126C2B7240020938704C006C622C4F2
:104A00004AC003C737009307F00F938404C06304C0
:104A1000F7042A892945EFD06FA32A840DCD930787
:104A200000FD2300F500A147A30025012301F500A7
:104A300083C72400B72500209385059DA301F500B9
:104A40001946110597B0FE1FE780807903C5340031
:104A5000A285EFD0AFAA03C724008D476311F702E8
:104A6000B727002083A7879E99CB03A387006308FD
:104A700003002244B2409244024941010283B24001
:104A800022449244024941018280797122D406D69F
:104A900026D24AD04ECE52CC56CA09445DCD2A8980
:104AA00003550500AE895144EF904021AA8455C5B5
:104AB00037270020930787D283C747008546BA8AE5
:104AC000FD1793F7F70F494463F9F6080347C5004C
:104AD000A1476314F700639209089C5C4544B5EF55
:104AE0009165938545711305C00297B0FE1FE7805D
:104AF000605588DC2A8A4D442DC11306C0028145C9
:104B000097B0FE1FE78040718357090093064A0063
:104B100036852311FA0071469305490036C697B0D1
:104B2000FE1FE780E06B89472300FA0003C5C4003D
:104B3000B2460356090083C58AD2611513351500A4
:104B4000EFB0B0442A8463860900CE852685EFA0A5
:104B5000604501C42685EFF0EFFB2285B250225458
:104B600092540259F249624AD24A45618280B7277B
:104B7000002083C7C7D20547FD1793F7F70F637A65
:104B8000F708894741CA011122CC26CA4AC84EC635
:104B900052C406CEAA89368AB2842E89EF900012BA
:104BA0002A84D14739C9485509C597B0FE1FE78007
:104BB000A055F145268597B0FE1FE780406848D490
:104BC000CD4705CD8346C40021478147639FE6005A
:104BD000630D0A000347A50103560501930625014D
:104BE000AA854E85EF907030AA8703474400630F73
:104BF0000900136767002302E400F2406244D244D4
:104C00004249B249224A3E850561828013674700C6
:104C1000DDB7C9473E8582809307B00363EBA700E9
:104C2000B7270020938707C206053E950355050068
:104C3000828041657D158280011122CC2A842E85D7
:104C400026CA06CEAE84EF9060071DCDB7470F0091
:104C50009387F723094563E4870281450A85414626
:104C600097B0FE1FE780405BA685231081000A8570
:104C7000418023018100A3010100EFB05012F240F6
:104C80006244D244056182804945D5BFB7270020E0
:104C90002385A7D282806FB07027797152CC2A8A7F
:104CA000328522D426D24AD04ECE56CA5AC85EC6C3
:104CB00006D662C4AE8BB28A368BBA843E89C2896C
:104CC0004684EF80B07F15C92A8C63140A021377DB
:104CD0004B008347450015CF93E727012302FC00D3
:104CE0008DEC631C0902639A090205E8ED9B23021F
:104CF000FC00832B8C0363910B08B2502254925416
:104D00000259F249624AD24A424BB24B224C4561A7
:104D10008280F59B93E70701D1B793E74700230211
:104D2000FC0001CC1C484146A2852324FC0213054B
:104D30008C0197B0FE1FE780A04A63930B02D5D881
:104D40000325CC0209C597B0FE1FE780E03BF14583
:104D5000268597B0FE1FE780804E2326AC0251BF08
:104D6000E30909F80325CC0209C597B0FE1FE780C7
:104D7000A039F1454A85F1BF9DC483A70B0299EB89
:104D8000916593853571714597B0FE1FE780802B43
:104D900023A0AB0203A50B0219C57146A68597B0E7
:104DA000FE1FE780E0436388090283A74B0299EB6B
:104DB000916593852571594597B0FE1FE78080283E
:104DC00023A2AB0203A54B0219C55946CE8597B065
:104DD000FE1FE780E0401DC483A78B0299EB91651D
:104DE00093851571514597B0FE1FE780A02523A438
:104DF000AB0203A58B0219C55146A28597B0FE1FD1
:104E0000E780003E2254B2509254F249B24B224CF9
:104E1000CA865A860259424BD6855285D24A624A80
:104E200045616FF06FEA011126CA52C406CE22CC4A
:104E30004AC84EC62A8AAE84EF80506825C5AA8922
:104E40003945EFC0BFE02A8431CDB727002003C920
:104E500007C56314090003C909009307000D231057
:104E6000F400AD472301F400938569001305340075
:104E7000194697B0FE1FE780A03693F7140085808F
:104E800085882306F400A306940023154401A28517
:104E90006244F240D244B249224A4A8542490561FD
:104EA0006FC0DFE5F2406244D2444249B249224A2F
:104EB00005618280411122C4372400201304849D9F
:104EC000084006C619C597B0FE1FE780E0232320DF
:104ED0000400B240224441018280011106CE22CC5E
:104EE00026CA4AC82EC6EF80705D39CDB245B727B5
:104EF000002003C907C50CD5AA846314090003491F
:104F000005004145EFC09FD42A841DCD9307000DB5
:104F10002310F500A5472301F50083C754009385AE
:104F200064001105A30FF5FE194697B0FE1FE78038
:104F3000202B9C54A285F2405CC46244D2444A8532
:104F4000424905616FC09FDBF2406244D24442494E
:104F500005618280797122D406D62A842EC6EF801C
:104F6000F0550DCD8346C5001147AA874945639387
:104F7000E6029C5FB24599C383C567010808EFA0AC
:104F8000800BB70602009386869310088945228518
:104F9000EF90C07AB2502254456182805145DDBF06
:104FA000B727002083C7C7D20547FD1793F7F70F30
:104FB000637AF704894721CA411122C426C24AC034
:104FC00006C6B2842E89EF80704F2A84D14705C56A
:104FD000630809008347450093E727002302F50093
:104FE0004146A6851305840197B0FE1FE780401F48
:104FF0009C481CD48147B2402244924402493E85D9
:1050000041018280C9473E858280797122D406D6CB
:105010002A842EC6EF80904A01CDB2452285230E08
:10502000B1006C08EF909074B250225445618280B8
:105030005145DDBF6F80305FC1671387E7FF639520
:10504000E502B727002083A7479E91EB4945828060
:105050004945B2402244924402494101828003A35F
:105060000700E30503FE0283411122C426C24AC0A1
:1050700006C6FD172A892E84B284639AF502B727E3
:10508000002083A7479E91CF9C4381CF829711E94F
:10509000B7270020238C279FB7270020A38C979E3B
:1050A0004DBFA6854A85EFE0BFDC45F5D5B72E8517
:1050B000EF80D04051DD834705000D45E39B27F984
:1050C00022852244B2400249A685924441016FC024
:1050D000006E1307B0036360A7064111C16722C4C5
:1050E00006C626C2FD172A8409456382F502C54714
:1050F000AE846313F4022E85EFC0207337250020A1
:10510000130505C206042A94231094000145B240F9
:1051100022449244410182809307A0036316F40065
:105120002E85EFC08069D9BFE31AE4FC13F5F50FB3
:10513000EFC0E068E1B709458280011106CE2AC6BA
:10514000EFE03FD5EF208075EF10B01EEF40B24981
:10515000B7270020938707C0130700F02391E700CB
:1051600023820700B72700203245138787D2FD56D8
:105170002301D700F2402384A7D2954505616F70C3
:105180008044597193970501CAD086D6A2D4A6D27D
:10519000CECED2CCD6CADAC8DEC6E2C4E6C2EAC0F7
:1051A0006EDEC1872E8963DC0754B724002003C557
:1051B00084D2B7290020372B0020EFC09FAD2A846E
:1051C00026CEB72A0020372C0020938409C0B72CA4
:1051D00000201DE021653345A900B65026549654A1
:1051E0000659F649664AD64A464BB64B264C964C6B
:1051F000064DF25D65618280834704001307200A33
:10520000639CE70003CA340003552400C16522866D
:10521000FD15EFF0AF9B8DA27247130787D2034AAB
:105220002700130710096395E716834714001547F5
:10523000639FE7002285EFF02F9E2285EFC05F9EDF
:10524000F24703C587D2EFC0DFA42A8459B7394794
:105250006398E716035544008567A5076315F504B1
:105260000C4483CB0500639D0B00850591C9372550
:1052700000201946130585C197B0FE1FE78040F650
:1052800003C709C085476315F71063880B002380A7
:1052900009C05E85EFF04FCC4DB789472380F9C038
:1052A000EFC0A05359BF896713872700631CE5042B
:1052B000832B8400638E0B0C83C70B0089EF83C79D
:1052C0002B0003C71B00A207D98F2394F40083C7C8
:1052D0003B00A380F40003C709C08947631AF70A9B
:1052E00083C70B0091C7238009C003C50B005DB7BE
:1052F00083C5140003D584008D472380F9C0EF7067
:10530000802FE5B795076318F5001C4403C5070017
:10531000EFF00FEE1DB7F9771387A7FF2A97420723
:105320004183914663F1E6049387A7FCAA97C207DD
:10533000C18371476371F70289671387B7006310F0
:10534000E50483A70A9EE38A07EE9C43A285E386D1
:1053500007EE829715A0370700181307F770B357A9
:10536000F700858BA1CB83278B9EE38807EC9C43BA
:10537000E38507EC22858297E31105EC11A81387DA
:10538000C7006310E5021C4483C70700E38707EAF0
:105390009307F00FE303FAEAA2855285EFC01F9648
:1053A00045B5B9076318F50083A74C9EE38707E866
:1053B000DC4369BF896793871704E304F5F8C9BF25
:1053C0003D476399E7040355440089671387D70075
:1053D000E30CE5FC13879701E308E5FCCD07E3192F
:1053E000F5FA03D76400C167FD17631DF70083A7B3
:1053F0004C9EE38407E4DC43E38107E40965A2856E
:105400004D0581BFB727002083A7C79EE38707E22A
:105410009C43DDB71307E003E39CE7F683472400D2
:1054200005476398E70E8347640037270020930DF4
:10543000879DE1E783A70D00D5CF83CB0700214AE5
:1054400003457400130D8400EA85EFE03FEA8347CB
:105450004401A303A400835804010358E400035744
:1054600044002A86034534003EC283572401EA865D
:10547000DE853EC0D287EFF0CFC68347340095E784
:10548000DD47835804010358E400834674008355C4
:1054900044003EC2835724013EC06A87D287054636
:1054A0005E85EF80903AA301A40083A70D0081C719
:1054B0001145EFF03FA0930B8C9F03C50B00E30E4B
:1054C00005D6B727002083C5979FEFE07F9AE306B4
:1054D00005D68346340093071003638AF60003560B
:1054E000440083C50B0052873685EFE07FB1230C63
:1054F0000C9EA1B383CB340099B783278B9E83CBBB
:105500003400114A95DFDC4385DF814501458297F0
:1055100005BF29476390E70A8347640037270020C7
:10552000930D879DA5EF83A70D00B5C783CB07001B
:10553000214A03457400130D8400937725001376E8
:10554000150089E7EA85EFE07FDA2A8683470402BF
:10555000A303C4008358C4010358A40103574400A3
:10556000034534003EC28357E401EA86DE853EC02F
:10557000D287EFF00FB78347340085FBDD478358B0
:10558000C4010358A40183467400835544003EC2FD
:105590008357E40111B783CB340059BF83278B9E17
:1055A00083CB3400114AD1D7DC43C1D781450145B3
:1055B000829741B70947639CE70083A70A9EE38E61
:1055C00007C6DC43E38B07C622858297BDB12D4712
:1055D0006398E70083A70A9EE38107C69C47DDB76F
:1055E0000D476397E70022868D450355440015B1AA
:1055F00019476395E7069305610213051031EF40E3
:1056000032072C1013052031EF4092060356640038
:10561000835781020355440063E8C7008356840022
:105620000357610263F7E60093050002EFC0E01E36
:1056300029B16374E6002313E40063F4D700231454
:10564000F4000357C4008356A40003568400835516
:10565000640001488147EFC0001CC5B61D47E389BF
:10566000E7D231476395E7002286B145BDBF354794
:105670006398E70083A70A9EE38107BCDC4799B7DC
:1056800039476396E7002285EF0030077DB63D4736
:105690006398E70083A70A9EE38107BA9C4B1DB776
:1056A00041476396E7002285EF00501079B64547E1
:1056B0006396E7000145EF00D01F41B64947639D5F
:1056C000E70083278B9EE38507CCDC43E38207CC8E
:1056D0008145054582976DB94D47639CE700832757
:1056E0008B9EE38707CADC43E38407CAA28509458A
:1056F000D5B76147E39EE7C82286E145FDB593F73C
:10570000150089CFB727002083A7079E89C7DC43F0
:1057100099C30145829713451900C1B493F7250039
:1057200091CFB727002083A7879E91C7DC4381C70D
:105730008145054582971345290045B493F74500F7
:105740000145E38C07A8B727002083A7C79D37240E
:105750000020130404C091CF85472302F400B7272B
:10576000002083A7879E91C7DC4381C781450545FB
:10577000829748442C10EFA0504A2810EFF02FA237
:10578000B727002083D727C481CF13060064338650
:10579000C702B727002003C587D29145EFC09FA855
:1057A000134549001DBC011122CC2A84554506CE63
:1057B00026CAEFF06FC6AA8413054002EFF0CFC5EA
:1057C0002AC613055002EFF02FC5AA86228562442F
:1057D0003246F240B3359000D24405616FC0400AB2
:1057E000797122D406D68D472E84631FF50003D726
:1057F000A50083D6850003D665000345340083D514
:105800004500EFE05FFD09A889671387D7006311A2
:10581000E50403C5250019E58547B25022543E85AD
:1058200045618280B727002083A6879DF5D603C6F1
:10583000360083C50600814802C202C00148814784
:1058400001479106EFF0EF890545EFF0AFE6E9B7C4
:105850001387E700E302E5FC13873701631AE500CD
:1058600003C5250055D9014781460146814551BFF1
:10587000E507E303F5FAB1476319F500B727002000
:1058800003C537C0EFF06F8041BF41677D17814787
:10589000E315E5F803C75500C947E31FF7F683D6BC
:1058A000E50003D6C5000355840083D5A500EFC0ED
:1058B000200351C15D45EFF02FB63335A000231C06
:1058C000A10083454400035524003008EF80A02F39
:1058D00083578101B1F36C0813051031EF40425931
:1058E0009305E10113052031EF4082588357C10130
:1058F000035784006374F7002314F4008357E10115
:105900000357A40063F4E7002315F40083558400D3
:105910008357A40063F4B7002315B4000357E400D1
:105920008356C4000356A400035524000148814750
:10593000EFB0306CD5B58547231CF10059B7B727B8
:105940000020138787D2834677001307F00F638CFC
:10595000E60851C9411122C426C24AC006C6AA841B
:105960000345A500138987D24105EFC02FAE2A84D5
:105970002DC59307000D2310F500D9472301F5002D
:1059800083D744002312F50083C764002303F50086
:1059900083C77400A303F50083C784002304F500C4
:1059A00083C79400A304F50003C6A4002305C50023
:1059B00015C2CC44410548C497B0FE1FE780408221
:1059C000A285224403457900B24092440249410134
:1059D0006FC0CFB223260500E5B7B24022449244FF
:1059E0000249410182808280C1671387E7FF639E7D
:1059F000E500B727002083A7879D9DC383C70700C5
:105A00000D47639DA7006FB0105EFD174947639770
:105A1000F500B727002083A7879DF5F73A85828098
:105A20004947EDBF397122DC06DE26DA4AD84ED668
:105A300052D456D25AD05ECE62CC03470500854779
:105A40002A84630DF70403468500930695009305A9
:105A5000E1000545EFE04FED814719C1834705009F
:105A60008346040011476383E60437270020032799
:105A7000C79F8D4603471700630AD70285CB1DC712
:105A80000DE10145F2506254D2544259B259225AA2
:105A9000925A025BF24B624C216182808147014540
:105AA000C1B785466314D70A8D8BE1DF0345140027
:105AB000130A2400D285EFE07F8337290020A3005A
:105AC000A400832709A02A8B130909A08149C1C713
:105AD000B72A00209304F00F83C7AA9F138CAA9FB4
:105AE00063FDF90203250900939B49005E958347F6
:105AF000050063849706834715006390670719467E
:105B0000D285090597A0FE1FE780607639C58324FA
:105B1000090003470400DE94B9E48346040091477A
:105B2000E381F6F683270900A9DF03460C0001474D
:105B30009305F00FE307E6F4BE84C10703C507FF32
:105B40006309B50C05071377F70FEDB78946E31A1C
:105B5000D7F2858B99BF054535B7850993F9F90FBC
:105B6000A5BF88C4F5A09147631AF706C84405C5C8
:105B700083478400034605006304F60603470400D8
:105B80009147631DF706C84419C597A0FE1FE7801B
:105B9000A05723A604000345840091659385E57111
:105BA000050597A0FE1FE780E04905C503470400EF
:105BB0009147631EF704C8C483478400930594008B
:105BC0000505A30FF5FE0346840097A0FE1FE7809E
:105BD0002061034584003335A0006DB5884441BF82
:105BE00093059400050597A0FE1FE7804068854750
:105BF000E316F5F85545EFF02F82BDA8884441DD46
:105C000097A0FE1FE780405023A4040069B788C412
:105C100065B72380D40083471400D2851385240000
:105C2000A380F400194697A0FE1FE780605B034540
:105C3000840091659385F571050597A0FE1FE780A7
:105C4000604005C5034704009147E31CF7F0C8C452
:105C500083478400930594000505A30FF5FE0346D2
:105C6000840097A0FE1FE780A05783478400E39439
:105C700007EE034504007D151335150021B5397174
:105C800022DC26DA4ED652D406DE4AD856D25AD074
:105C90005ECE2A849309250003451500CE85B724DE
:105CA0000020EFE0AFE4A300A4009384C49F9C40D5
:105CB0000D472A8A83C717006390E704372900201D
:105CC000832709A0814A130909A0638E0714B72B03
:105CD000002003C7AB9F93970A01C18303250900E6
:105CE000138BAB9F63E7E70C83460B000327090088
:105CF00081471306F00F79AAF1D3144C03467401BF
:105D00009305E1000545EFE02FC205CD984085469B
:105D100083470500034717006310D7028D8BD9FF17
:105D20000145F2506254D2544259B259225A925A01
:105D3000025BF24B216182808946858BE310D7F8A4
:105D4000F9BF8347040011476385E7002D47E399B6
:105D5000E7FCB724002083A704A0938404A0E9D320
:105D6000814A0149B72B00201DA88840139B4A0097
:105D7000834704005A95034705006311F7028347E0
:105D80001500639D47011946CE85090597A0FE1FA2
:105D9000E780E04D01C503A904005A99850A03C7AD
:105DA000AB9F93970A01C183E3E1E7FCE31809F095
:105DB00085BF93944A002695034705008347040056
:105DC000631FF70A83471500639B470B1946CE856F
:105DD000090597A0FE1FE780804955C18327090068
:105DE0001147BE94834704006385E7002D47639EF7
:105DF000E70203AAC4008347740103460A0063094B
:105E0000F602528597A0FE1FE7800030034574011B
:105E100091659385E571050597A0FE1FE7808022B7
:105E20001DE5E38304EC0545EDBD03AA8400E1B75D
:105E30000C4C13051A0097A0FE1FE78040438547CE
:105E4000E311F5FC5545EFE03FDD61DDD1BD834752
:105E5000040011476385E7002D476390E702C8C43B
:105E6000834774010505A30FF5FE034674010C4C2E
:105E700097A0FE1FE780C0366DB788C4D5B7850AE6
:105E800089BDBA844107834507FF638AC50085073A
:105E9000C207C183E3E7D7FE79B788C491A08347DF
:105EA0000400CE85138524002380F400834714006A
:105EB0001946A380F40097A0FE1FE78060320345D7
:105EC000740191659385F571050597A0FE1FE78024
:105ED000601731D9034704009147E310F7FCC8C4A9
:105EE000834774010505A30FF5FE034674010C4CAE
:105EF00097A0FE1FE780C02E3DB701114AC8372981
:105F00000020130989D20347790006CE22CC26CA85
:105F10004EC69307F00F6304F70851C1AA84514598
:105F2000EFB0DFD22A8425CD9307000D2310F500B2
:105F3000D5472301F50083C7340093898400CE85BB
:105F4000A301F50083D744002312F50083C7640042
:105F50002303F50003C57400EFE04FB9A303A400C9
:105F6000CE8513058400194697A0FE1FE7804027C1
:105F700083C7E400A285034579002307F40083D793
:105F800004012318F40083C724012309F4006244A8
:105F9000F240D2444249B24905616FB03FD6F24067
:105FA0006244D2444249B24905618280411122C40F
:105FB00037240020130484D20347740006C626C287
:105FC0009307F00F630CF70215C9AA841945EFB0C7
:105FD000FFC7AA8505C59307000D2310F500DD470F
:105FE0002301F50083D74400B24092442312F50008
:105FF00003457400224441016FB05FD0B240224497
:10600000924441018280011122CC37240020832751
:1060100004A006CE26CA4AC84EC652C48DC3130475
:1060200004A02E8AAA840149084063129902630CD5
:106030000A0497A0FE1FE780200D23200400F240F1
:106040006244D2444249B249224A0561828093198E
:106050004900B3073501884709C997A0FE1FE780AB
:10606000A00A1C40CE9723A407001C40CE97C84727
:1060700009C997A0FE1FE78020091C40BE9923A6EE
:106080000900050955B745DD13964400814597A0E1
:10609000FE1FE7806018144081477D5613F7F70F05
:1060A000E37F97F81397470036972300C7008507CB
:1060B000F5B779714AD0372900208327C99F06D6C2
:1060C00022D426D24ECE52CC56CA5AC85EC6C5C7B6
:1060D000B72A0020AA891309C99F938AAA9F01445D
:1060E00005E1B727002083A607A099CA03C60A00C6
:1060F0002A8481479305F00F13F7F70F6368C708E9
:10610000131534002105EFB07FB4AA8401E92145BD
:10611000EFB0DFB3AA8421C50144CD49930700FD48
:106120002380F4008547A38034012381F400A381F8
:10613000840045C89389840023A23401014A372B87
:106140000020930BF00F83C70A006373FA0039E84D
:1061500083270900A68503C50700EFB03FBA03C532
:106160000A0081454D350325090097A0FE1FE780F1
:10617000A0F923200900B250225492540259F24946
:10618000624AD24A424BB24B456182801397470024
:106190003697034707006305B70005041374F40F2F
:1061A000850799BF83270BA093154A00BE9583C727
:1061B0000500638477032380F90083C715001385E6
:1061C00029007D14A380F900194689051374F40F82
:1061D00097A0FE1FE780C000A109050A137AFA0FF5
:1061E0009DB723A20400ADB7B727002083A7C79FA0
:1061F000B1C7411122C406C62A841DE10945EFE05A
:10620000BFA12A8601C9B727002003C587D28545CB
:10621000EFC04F810545EFF00FD92A84054519C815
:10622000B727002003C587D28545EFC08F9F228501
:1062300049350545B24022444101828001458280B2
:1062400089679386B7006316D5009C4503C5070090
:1062500061BF9386C7006318D5009C45854603C57A
:10626000070019C9F5B793861704E300D5FE938795
:1062700027048146E303F5FE36858280797106D6D0
:1062800022D426D24AD04ECE52CC56CA5AC85EC666
:1062900062C471CD83473500AA8985C7404115C0C6
:1062A0005945EFE07F97931A850193DA8A410149B6
:1062B000372A0020130B000DB54B83C73900636EDE
:1062C000F900B250225492540259F249624AD24A19
:1062D000424BB24B224C456182808307840263CFDC
:1062E00057078327CA9F130CCA9FADCB2285EFF0B7
:1062F0006FF32DC5034584005105EFB03F95AA8487
:1063000031CD23106501230175018347040019462F
:1063100093052400A301F5008307840215052303D8
:10632000F50083471400A30FF5FE97A0FE1FE7803A
:1063300020EB034684002386C4001DC61385440158
:1063400088C89305940097A0FE1FE78060E9832723
:106350000C00A68503C50700EFB05F9A050913047A
:1063600094021379F90F91BF23A80400CDB7B72782
:10637000002083A7C79FB1D72D3B2254B25092541F
:106380000259F249624AD24A424BB24B224C014571
:1063900045616FF04FC1797106D622D426D24AD01A
:1063A0004ECE52CC56CA5AC85EC662C469C583472F
:1063B0003500AA8985C7444195C05945EFE0DF857E
:1063C000931A850193DA8A410149372B0020930BF8
:1063D00000FD414C83C73900636EF900B25022546E
:1063E00092540259F249624AD24A424BB24B224C71
:1063F000456182808387F40063CA5707130ACB9FE5
:1064000083270A00A5C75145EFB05F842A8439CDA0
:1064100023007501A30005002301850183C7040043
:10642000194693852400A301F5008387F400150520
:10643000A306F50083C71400A30FF5FE97A0FE1F67
:10644000E78000DA83C78400938594001305C400B5
:10645000A305F400194697A0FE1FE78060D88327A4
:106460000A00A28503C50700EFB05F890509C104D2
:106470001379F90F85B7B727002083A7C79FB9DF26
:10648000EFF03FC32254B25092540259F249624A8B
:10649000D24A424BB24B224C014545616FF0AFB03E
:1064A0005D7186C6A2C4A6C2CAC04EDE52DC56DAF0
:1064B0005AD85ED662D466D26AD06ECE6304052204
:1064C00083473500AA848DCB832A450063860A0260
:1064D0005945EFE06FF493178501E1873EC601440B
:1064E000372900209309000D354C9D4C294D994DBD
:1064F00003C734006361E402B6402644964406496B
:10650000F259625AD25A425BB25B225C925C025DE3
:10651000F24D616182800387CA00B247634FF71072
:106520000327C99F130AC99F6309071083CB0A0079
:1065300013F70B015DCB4D47639CEB0623800A00EC
:106540005685EFF0CFF375C903C70A00914703C51D
:106550007A0163E9E70E5105EFB04FEF2A8B71CD59
:10656000231035012301850183C60A00194693854E
:106570002A00A301D5008386CA0015052303D50090
:1065800083C61A00A30FD5FE97A0FE1FE78040C563
:1065900003C67A012306CB0041CA13054B01232809
:1065A000AB0083A58A0197A0FE1FE78060C3BDA84A
:1065B00055476398EB0005472380EA00A38B0A0048
:1065C00041B77547E389EBFE49476396EB000947FE
:1065D0002380EA00B5B741476394EB000D47CDBF78
:1065E0006D47E39FEBF41147E5B713F78B0019C331
:1065F0002D47F9BF13F61B0013F74B0011C619C343
:1066000015475DBF2147E9B713F62B0019C619C31B
:1066100025475DB72380BA0125B701C72380AA01AA
:1066200005B723809A0129BF23280B0083260A007F
:10663000DA8503C50600EFB06FEC0504F10A1374A8
:10664000F40F7DB513050502EFB04FE02A8B75D529
:10665000C9472301F5002310350103C60A0093F64C
:106660000B0693852A00D18EA301D50083C61A009C
:1066700019461505A30FD5FE97A0FE1FE78040B66B
:1066800083C68A00194693851A01A305DB0083C6D9
:106690009A0013053B012306DB0083C6AA00A3066C
:1066A000DB0083C6BA002307DB008386CA00A3078A
:1066B000DB0083D6EA002318DB0083C60A01230926
:1066C000DB0097A0FE1FE780A0B103C67A01A30CF0
:1066D000CB0011C613050B02232EAB00D9B5232E18
:1066E0000B00A9B7B727002083A7C79FE38607E061
:1066F000EFF03F9C2644B64096440649F259625A50
:10670000D25A425BB25B225C925C025DF24D014563
:1067100061616FF04F89B727002083A7C79F85CBA2
:1067200003C707008D476315A702B727002003C5DD
:1067300087D24111854506C6EFB0BFCE13050003D1
:10674000EFF03F97B240014541016FF0CF85C94757
:106750003E85828079714AD0372900201309C99F6C
:106760008327090006D622D426D24ECE6395071081
:1067700037240020130484D203474400C947298BDF
:106780005DCF9165AA849385D571114597A0FE1FB1
:10679000E780408B2320A900CD4755C183C7040063
:1067A0001146A685A303F40097A0FE1FE78040A32F
:1067B000930531001305F041EF103252B727002046
:1067C000938707C003C42700034731003334800098
:1067D00011C3090413051002EFE00FC41379F50F7C
:1067E0009377190093794900BDC31545EFE0CFC2F7
:1067F00083C724002314A10019452302F100EFE010
:10680000AFC12316A1006382090283C724001305C8
:106810002002A302F100EFE02FC02315A100130511
:106820003002EFE06FBF2317A10083C534007C0066
:10683000380054004A862285EFB04004AA87B2503F
:10684000225492540259F2493E8545618280E147C3
:10685000E38709FE83C72400130520022302F10009
:10686000EFE08FBB2314A10013053002EFE0CFBA95
:106870002316A1005DBFC547D9B7757126C3B724DC
:10688000002022C506C74AC1CEDED2DC938484D262
:1068900083C744004944A18B63870724B72700209E
:1068A00083A7C79F414463900724AA89EFE08FF82C
:1068B00083C7840055446378F522B724002083A75A
:1068C000849D268945446390072291659385C5710F
:1068D00029459790FE1FE780E07623ACA49C4D44A9
:1068E000630305202946CE8597A0FE1FE780408FD1
:1068F00013056002EFE04FB2137AF50F93775A0059
:1069000061446382071E130600038145880097A037
:10691000FE1FE780609093771A0093692A00014474
:10692000A5C34145EFE04FAF2316A1043D45EFE07D
:10693000AFAE2319A1043545EFE00FAE231CA1042F
:106940003945EFE06FAD231FA1042145EFE0CFAC47
:106950002312A1061D45EFE02FAC83A7849D2315CC
:10696000A10683C71700638907182D45EFE0CFAA5A
:106970002310A1043145EFE02FAA2313A1040544FD
:106980001305C002EFE04FA9981893171400BA97A7
:10699000239EA7FC1305B002EFE00FA89304840028
:1069A0009C188604BE942399A4FC13059002EFE082
:1069B000AFA6239CA4FC1305A002EFE0EFA5239F44
:1069C000A4FC13058002EFE02FA5930404019C189A
:1069D0008604BE94239AA4FC13057002EFE0CFA3B3
:1069E000239DA4FC137A4A0063050A08130560037B
:1069F000EFE08FA205049C1893141400BE94239E0C
:106A0000A4FC13055003EFE02FA1130A84009C1887
:106A1000060A3E9A2319AAFC13053003EFE0CF9F24
:106A2000231CAAFC13054003EFE00F9F231FAAFCC1
:106A30001305E002EFE04F9E41049C1806043E94CB
:106A4000231AA4FC1305D002EFE00F9D8327899D34
:106A5000231DA4FC83C71700DDC713051003EFE057
:106A6000AF9B2398A4FC13052003EFE0EF9A239B30
:106A7000A4FC8327899D03C5370093854700EFD089
:106A80007F822AD69305F1031305F041EF10F2241B
:106A9000B7270020938707C083C527000347F1036A
:106AA0003256B335B00011C389058326899DFC0099
:106AB0009308A10603C526003EC8930721053EC6DC
:106AC000BC083EC49307E1053EC2DC103EC013087B
:106AD00061049C004E879106EFA0D05A2A8401C51C
:106AE0000D45EFE02FBD2285BA402A449A440A4959
:106AF000F659665A496182802545EFE0EF912310EF
:106B0000A10429458DBD1305F002EFE0EF90239815
:106B1000A4FC1305000391BFB727002083C7C7D289
:106B20000145A18B89C737250020130505CB6FD000
:106B30004FD3B72700207D57238D079EB72700200E
:106B4000A387E7D2B727002023A007A0376701005B
:106B5000B72700201307072423AE079EB72700207E
:106B600023AEE7C8376701009387C7C91307C72754
:106B7000D8C3376701001307673998C73767010023
:106B80001307074AD8C7376701001307E79398CB65
:106B900037670100B72700201307879E23A8E7CA9D
:106BA00037570100938707CB1307077ED8C382802E
:106BB000411122C4372400201304A49F26C2AA84B2
:106BC00003450400854506C6EFF0EFC3B727002054
:106BD00083C7C7D2A98BA5CF3725002023009400F7
:106BE0001305C5C9B7240020EFD00FC7938404A0B4
:106BF0009C4099C74D45B240224492444101828055
:106C00000345040019E10145FDB791659385B57110
:106C100012059790FE1FE780E04288C061DD0346C1
:106C20000400814512069790FE1FE780E05E8346D0
:106C3000040090408147FD5513F7F70FE375D7FC2B
:106C40001397470032972300B7008507F5B7014532
:106C500023000400EFD04FC07DB7411122C4372478
:106C600000200325C49D06C619C59790FE1FE78026
:106C7000A049232E049CB24022444101828001118C
:106C80001305700306CEEFD03FF92AC61305800323
:106C9000EFD09FF82AC413059003EFD0FFF72246E8
:106CA000B245F240AA86054505616FA0703C597156
:106CB000A2D4372400208327C49D86D6A6D2CAD06A
:106CC000CECED2CCD6CADAC80545638D070C930563
:106CD000F1041305F041EF1052009305F104130580
:106CE000F041EF10827FB7270020938707C083C74A
:106CF00027000347F104B337F00011C389070327C6
:106D0000C49D3EDE0345370093054700EFD08FD981
:106D10000327C49D2ADC0D45834527002EDAEFD0DA
:106D2000BFEF2AD81145EFD03FEF0324C49D2AD6E8
:106D300065450347A400034BB4003AD4EFD0DFED20
:106D4000AA846945EFD05FED2A897145EFD0DFEC69
:106D5000AA896D45EFD05FEC2A8A7545EFD0DFEB4D
:106D6000AA8A7945EFD05FEBE2046258F2572257C6
:106D7000B2564256D2551375F50F93FAFA0F137A9D
:106D8000FA0F93F9F90F1379F90FE1842ACC56CA57
:106D900052C84EC64AC426C25AC09308440005458C
:106DA000EFA07029B650265496540659F649664A03
:106DB000D64A464B65618280011122CC06CE26CA96
:106DC0008D472E846315F50603C73500B7240020D0
:106DD000E94703D54500938404C06316F70083D7C1
:106DE00064006382A706EF60706D09C58357640075
:106DF0002317F5000357A40083568400035664004C
:106E00008355440003453400EFD0FF9C03574400F2
:106E100083D764006309F7008547F2406244D24497
:106E20003E8505618280FD572393F400F5B789679D
:106E3000CD07631DF50083C7250031476385E70053
:106E40004547E39BE7FCEFD00FA9F9B7B1476319BA
:106E5000F500B727002003C5D7D2EFD01FA36DBF21
:106E600041677D178147E31AE5FA83C65500494714
:106E7000E395E6FA83C5450003552400300023144A
:106E80000100EF60304F49BF411122C43724002078
:106E9000834744A026C24AC006C61307E00FAA844F
:106EA0002E896385E7041307F00F130444A063865B
:106EB000E7021145EFA09FD90DC1930700FD230004
:106EC000F5008947A30025012301F500A3019500E2
:106ED000AA8503450400EFA07FE2F9572300F400E0
:106EE000B240224492440249410182801145EFA000
:106EF000FFD57DD5930700FD2300F50089472301C9
:106F0000F500A3002501A30195002244B727002026
:106F1000B24092440249AA8503C557A041016FA01F
:106F2000FFDD79714AD0372900208327C99D22D4FB
:106F300006D626D24ECE52CC56CA4544D5EFB724FB
:106F40000020938784D283C747004944958BCDC7DF
:106F5000B72700202E8A9165A382A7A0AA899385CE
:106F6000757131459790FE1FE780C00D232EA99CB7
:106F70004D4459C123003501A30005002946D2859F
:106F800009059790FE1FE780A0258327C99D91469C
:106F900003C7270063EDE60835EB4D472381E70083
:106FA00003C72700136707012381E70093057100DA
:106FB0001305F041EF10625283477100F1EBB727E0
:106FC000002003C727C08D476314F70CEFD0CFBB59
:106FD0002C00EF9080442800EFD07F9C4545EFD0F7
:106FE000BFC3014411C9130600643306C50203C5BB
:106FF00084D29145EFB00FA32285B250225492540F
:107000000259F249624AD24A456182808546631438
:10701000D700754761B789466314D7004947BDBF9C
:107020008D466314D700414795BF554785BF9546A8
:10703000CA8A630ED70099466316D7000947238191
:10704000E70031A01D466314C70223810700654590
:10705000EFD09FBC9307F007E30AF5F403A7CA9D9E
:107060008347270093E707042301F70081B72146F0
:107070006314C7000547E1B725466315C7002381A0
:10708000D700F1B7A9460544E318D7F6114745BF25
:10709000EFF0FFC12A842DD1EFF03FBCB1BF011149
:1070A00026CAB724002083A7C49D22CC06CE4AC896
:1070B0004944B1C783C707000D446392A704372929
:1070C0000020034589D28945EFB0AFB5034589D289
:1070D000B72700209145239307A0EFB08FB483A773
:1070E000C49D01478146A38087001306F1008547B0
:1070F00085450145A307F100EFA040772A8422854A
:10710000F2406244D244424905618280011106CEB8
:1071100022CC26CA4AC88547631EF50637240020BC
:10712000130464A083570400A9CB3727002003472A
:1071300047C021E71307B003636CF702B7240020B0
:1071400003C584D28945EFB0CFAD03560400930741
:10715000006403C584D23306F6028945EFB08F8CF4
:1071600023100400F2406244D24442490561828007
:10717000938747FC2310F400F5B7B727002083A7B7
:10718000C79DEDD36244F240D244424903C5070093
:10719000056131B7B724002083A7C49DE1D7372705
:1071A0000020130987D283474900918BC5DF8947A7
:1071B0006313F5062D452EC6EFA05FA92A845DD185
:1071C000B245930700FD2300F500E547A300050045
:1071D0002301F50083C7350015051946230FF5FE79
:1071E00083C745009505A30FF5FE9790FE1FE78026
:1071F00020FF034559009307F00F6316F50083A79E
:10720000C49D03C50700A2856244F240D2444249AE
:1072100005616FA0BFAE034587D28945EFB06FA06F
:107220006244F240D2444249B7270020239307A08A
:1072300005616FF09FA2B727002083C7C7D2958B47
:1072400089CFB727002083A747A191CBB72700207C
:1072500005472384E7A06FF09FA2494582804145FE
:107260008280B727002085450145238407A06FA0B1
:10727000A060B727002083C7C7D2958B638F071202
:107280009307C01C63FCC70009458280F24062443A
:10729000D2444249B249094505618280B72700209E
:1072A00083A7C79D638B0710B7270020938747A04C
:1072B00003C807001307E00F6311E810011122CC87
:1072C0004AC806CE26CA4EC62380A70013058600EC
:1072D0004205368932844181ADC9916593856571D6
:1072E0009790FE1FE78000D6AA894DD1B7240020D1
:1072F00003A504A1938404A109C59790FE1FE7800C
:10730000A0E01385890023A0A9002286814523A03F
:1073100034019790FE1FE78020F09C402286CA85AA
:1073200088439790FE1FE780A0EB9C40A286F24026
:10733000239287006244D2444249B24998430546A9
:107340008D45054505616FA0E051916593855571A7
:107350009790FE1FE78000CFAA890DD9B72400209F
:1073600003A584A1938484A109C59790FE1FE7809B
:10737000A0D91385890023A0A9002286814523A0D6
:1073800034019790FE1FE78020E99C402286CA8541
:1073900088439790FE1FE780A0E49C40A286F240BD
:1073A000239287006244D2444249B2499843054639
:1073B0008D45054505616FA0204B494582809307A7
:1073C000C01C63FCA700094582800945F240624465
:1073D000D2444249B2490561828045CD011122CC97
:1073E0002A8421054EC64205AE8991659385657153
:1073F00041814AC806CE26CA9790FE1FE78080C406
:107400002A8961D5B724002003A504A1938404A18F
:1074100009C59790FE1FE78020CF13058900232020
:10742000A9002286814523A024019790FE1FE780B2
:10743000A0DE9C402286CE8588439790FE1FE78081
:1074400020DA9C4023928700B727002083A7C79D9E
:107450008DCFB727002083C7C7D2958B8DCBB72799
:10746000002083A707A199CF984383D647006244A1
:10747000F240D2444249B24905468D450545056171
:107480006FA0403E01478146DDB7014581B74945C0
:1074900035BFB727002083A7C79D95C7B727002012
:1074A00083C7C7D2958B95C3B727002083A707A1B1
:1074B00081CB984383D6470005468D450545C9B71E
:1074C00001478146D5BF01458280494582809307A7
:1074D000C01C63FCA700094582800945F240624454
:1074E000D2444249B2490561828045CD011122CC86
:1074F0002A8421054EC64205AE8991659385557152
:1075000041814AC806CE26CA9790FE1FE78080B305
:107510002A8961D5B724002003A584A1938484A17E
:1075200009C59790FE1FE78020BE13058900232020
:10753000A9002286814523A024019790FE1FE780A1
:10754000A0CD9C402286CE8588439790FE1FE78081
:1075500020C99C4023928700B727002083A7C79D9E
:107560008DCFB727002083C7C7D2958B8DCBB72788
:10757000002083A787A199CF984383D64700624410
:10758000F240D2444249B24905468D450545056160
:107590006FA0802D01478146DDB7014581B7494580
:1075A00035BFB727002083A7C79D95C7B727002001
:1075B00083C7C7D2958B95C3B727002083A787A120
:1075C00081CB984383D6470005468D450545C9B70D
:1075D00001478146D5BF0145828049458280930796
:1075E000C01C63F4A70009458280797122D44ECE75
:1075F00006D626D24AD0AE892A842DC121059165AE
:1076000042059385757141819790FE1FE78080A3A5
:107610002A89094563060908B724002003A544A167
:10762000938444A109C59790FE1FE780E0AD130540
:1076300089002320A9002286814523A02401979058
:10764000FE1FE78060BD9C402286CE8588439790D0
:10765000FE1FE780E0B89C4023928700B7270020F8
:1076600083A7C79D01458DCFB727002083C7C7D209
:107670004945958B95C76C001305D030EF20427FAC
:10768000B247014593F7070F81CFB727002083A7A3
:1076900047A18D450545944303D64700EFA0801DC3
:1076A000B250225492540259F24945618280B72760
:1076B000002083A707A191CF03D647008C43411137
:1076C00006C69790FE1FE780A0B1B2400145410178
:1076D000828009458280B727002083A707A18DC734
:1076E000B727002003A787A1894705C30356470092
:1076F0000C43411106C69790FE1FE78060AEB24072
:1077000081473E854101828089473E858280B72737
:10771000002083A707A18DC7B727002003A747A193
:10772000894705C3035647000C43411106C697908D
:10773000FE1FE780E0AAB24081473E85410182807A
:1077400089473E858280797106D622D426D24AD0D6
:107750004ECE52CC8D4763FCA7008944B2502254D0
:10776000268502599254F249624A4561828037293E
:107770000020034709C0C144E312F7FE9307F5FF59
:10778000930909C093F7F70F8546AE842A8403CA8C
:107790002900130909C063EAF6068DE1994528001E
:1077A000EFC01F8EB729002003C589D29145230160
:1077B0008900EFA01FC735E481444DB719468145C4
:1077C00028009790FE1FE78020A519462C002685EB
:1077D0009790FE1FE780A0A949F119469305F00F85
:1077E00028009790FE1FE78020A319462C002685CD
:1077F0009790FE1FE780A0A72DF11946A6852800C7
:107800009790FE1FE780C09D71BFE31DE5F803A5BB
:10781000C9002C00EF807040AA8449D5238149011A
:1078200035BF2800EFD0AF97AA840DED9305710006
:107830001305F041EF00724A83447100B5FC8D4797
:10784000E31CF4F64545EFD02FBD3DD5B7771800C2
:10785000938707A03306F50203C589D29145EFA0AF
:107860001FB7EDBD23014901D5BDB727002083C750
:10787000C7D2918B8DC33725002041111305C5A0B8
:1078800006C6EFC04FFFB240B72700207D572393B5
:10789000E7C04101828001456FC0EFFDB72700209E
:1078A0007D57A382E7A0B727002079572382E7A05E
:1078B000B7270020238407A0B7270020239307A021
:1078C000B727002023A807A0B727002023AC07A0D4
:1078D000B727002023AA07A037870100B727002079
:1078E0009387C7AC130707AC98C33777010013071A
:1078F000C710D8C3377701001307E7CA98C737778F
:1079000001001307E7C7D8C7B77701003727002062
:10791000938787DB2326F7A08280411126C2B724F4
:10792000002083A7C49D06C622C48DCF2A840D459E
:10793000EFA0CFB1AA8505C1930700FD2300F50094
:107940008D47A30085002301F50083A7C49D03C5CF
:107950000700EFA0AFBA19C42244B24092444101DB
:107960006FF0AFAFB24022449244410182807971FE
:1079700052CC372A00208327CA9D4AD006D622D46B
:1079800026D24ECE56CA0149B1C703C91700B72443
:1079900000208547AA89938404C06307F90483C73C
:1079A0004400054985EB0D45EFA04FAAAA8505C106
:1079B000930700FD2300F5009147A3003501230143
:1079C000F5008327CA9D03C50700EFA02FB3EFF092
:1079D000CFA80549B25022544A8592540259F2491F
:1079E000624AD24A45618280B727002083A707A157
:1079F000D28A85E30145EFD02FA22A8601CAB72794
:107A0000002003C587D28945EFA0DF8183A7CA9DE7
:107A100081A8944303D647009305E1000545EFC0D4
:107A2000AFF069D983470500858BE9D70545EFD0CD
:107A3000AF9E9307B0032A8463F0A704B727002002
:107A400003C587D25D66130606708945EFA03F988F
:107A5000B7270020130444FC239387A08327CA9DE3
:107A60000947A380E70083C7440081C7238204003D
:107A700095B74E855D35B9BF130600643306C50260
:107A8000B5BF411122C42A840D4506C6EFA00F9C44
:107A900005C5930700FD2300F500CD472301F50040
:107AA000A30085002244B7270020B240AA8503C561
:107AB00057A041016FA08FA4B240224441018280AF
:107AC000035745000111896706CE22CC26CA93864A
:107AD00067006319D7001C45014583C50700EFF017
:107AE000AFBA35A8938687006317D7001C450545B4
:107AF00083C50700EDB7938697006314D702B727B5
:107B0000002083A7C79D01449DC718450345070072
:107B100059E90547A380E7000545EF90904C0544DF
:107B200019A89386A700631ED7001C4503C507004C
:107B3000EFF0FFE32A842285F2406244D2440561DB
:107B4000828093866703E308D7F893867703E30F71
:107B5000D7F893868703631BD704B724002083A735
:107B6000C49D0144E9DB1C4503C507000DED054438
:107B70007D4523058100EFD02F8A2316A100130530
:107B80000002EFD06F8983A7C49DA305A10013074E
:107B9000B100A380870074001306A1008545054548
:107BA000EF90D04CADBFEFF05FD795BF93869703B2
:107BB000E30DD7F69386E7036317D7001C45094505
:107BC00083C5070029BF9387F703631DF7021C4590
:107BD00003C5070041E16C001305D030EF204229B6
:107BE000B247414793F7070FE38BE7F29305B100E4
:107BF00013056031EF20C2270345B1008545EF90A2
:107C0000B04731BF8967938707040144E315F7F252
:107C10001C4583C40700B727002083C787A026859B
:107C200095EB0D45EFA08F82AA850544E30505F08D
:107C3000930700FD2300F500D147A3009500230121
:107C4000F500B727002083A7C79D03C50700EFA055
:107C5000EF8AD5B5EFF0FFE2D9B5B727002083C78B
:107C6000C7D2411106C6958B99CB37250020130545
:107C7000C5ACEFC0AFBF4D45B24041018280014568
:107C8000EFC0CFBE0145CDBF03C7050093762500E9
:107C90009377D70F99C2936727001318850113585C
:107CA000884113F7F7076354080013E70708937632
:107CB00085009377770F99C2936787001377050242
:107CC00093F6F70D19C393E607022380D5006345A9
:107CD00008009377A50281CB8347060093E7C7008E
:107CE0002300F60082807DFD83470600CD9BCDBF3B
:107CF0002D456319071403C8050009476310E814EC
:107D0000C84103471500034505002207498F420774
:107D10000D654187930825A0630B170B011122CC39
:107D200026CA4AC84EC606CEBE89B68432842E897B
:107D300063CEE800930705A0630DF702130515A0B5
:107D40006300A706239004000545B5A0930745A04E
:107D50006309F7086348F706130565AAE314A7FE4D
:107D600085472390F600DC4583C707002300F60013
:107D700091A0C8459780FE1FE780204B42054181B6
:107D80004E86637335012A862390C40042064182E1
:107D90008325C90022859780FE1FE780604419A8CB
:107DA000DC4583D70700239006012300F600A1835A
:107DB000A300F6000145F2406244D2444249B24970
:107DC0000561828099472390F6001946D1B785470F
:107DD0002390F600DC45014583C707002300F60029
:107DE0008280DC45A9CB21472390E60003D707001A
:107DF0002300E60003D707002183A300E60003D792
:107E000027002301E60003D727002183A301E60012
:107E100003D747002302E60003D747002183A302CC
:107E2000E60003D767002303E60083D76700A1833A
:107E3000A303F60041B723900600ADBF23900600D0
:107E400005458280828083C805008947639BF814BA
:107E5000DC41797122D406D626D24AD04ECE52CCFD
:107E600003C8170083C707002E8422083368F80070
:107E700042088D6713580841138327A063046810D4
:107E80002A8A3A89B684B285634C0301138707A016
:107E9000630AE802938717A06309F808854711A8C9
:107EA000138737A0630BE80A138767AA8D47E31788
:107EB000E8FEB250225492540259F249624A3E8579
:107EC00045618280484432C69780FE1FE780E035D6
:107ED000420541819D47E36E25FDB3099900D547D1
:107EE000B24563D43701B547E9B748442686C2098D
:107EF0004A959780FE1FE780A02E484493D9090138
:107F000059463306364181454E959780FE1FE780DE
:107F1000A030B727002083A707A299E3814751BF6C
:107F20009C438145E5DF52853DA0AD47E31309F849
:107F3000E39B16FB83471600834606005844A207BE
:107F4000D58F2310F700B727002083A707A2F9D702
:107F50009C438545E1D78297D1B7AD47E31B09F430
:107F60009947E392F6F8484419469780FE1FE78048
:107F70002027B727002083A707A2CDD39C43D9DFB2
:107F80008D4555B7AD4715F78547E39EF6F4034792
:107F9000060093070008E3EEE6F0DC452380E700E7
:107FA000B5BF85473E858280B72700203727002050
:107FB00023A007A2B72E00208947A30BF798130F21
:107FC00077998147938E0EAE5947B386FE00238082
:107FD00006008507E39BE7FEB7250020B707A00052
:107FE0009385C599938707059CC1B707E803DCC152
:107FF000B7270020238F07A037B60300B72700203C
:108000009387078913064609D0C3372E002037B659
:1080100003000947130E4E99130686062300EE004F
:10802000D0C723AEE70123AEC70337230020B7280C
:108030000020372800203725002037B6030037BF3F
:10804000030037BE03008546130686079388889988
:108050001303C3A11308689913055599130F0F084B
:10806000130E0E072380E8002380E7002388E70033
:108070002380E7022388E7022380E7042300E80047
:108080002384D70023950700D0CB238CD700239DD2
:10809000070023A2E7032384D7022395070223A620
:1080A000D703D0DB238CD702239D070223A2C70569
:1080B0002384D70423950704231003002300D5004D
:1080C00023A667042388E70423AE17052380E70669
:1080D0002388E7062380E708B7B8030037B7030013
:1080E000130747079388080923A2E708F0CB238CDE
:1080F000D704239D070423A217072384D7062395BB
:108100000706ECD7F0DB238CD706239D070623AEAA
:1081100007072384D7082395070823A6A7083787CE
:108120000100B727002093870792130707CF98C352
:1081300037870100130767E4D8C323A407008280B0
:10814000A54763EFA70CB7B703009387C7A20A053B
:108150003E951C41411122C426C206C64AC0B284C3
:108160002E848287D547614563E5B7023729002011
:1081700059468145130509AE9780FE1FE780C00967
:108180002286A685130509AE9780FE1FE78040056D
:108190000145B2402244924402494101828089470C
:1081A0006145E398F5FE03570600B7270020239E9C
:1081B000E7A0F9BFA1476145E39DF5FC3725002005
:1081C0002146A6851305C599EF20E278D1B78547EA
:1081D0006145E390F5FCB725002093850589D04DD6
:1081E0009385850203C50400EFF01FAA55B78547A4
:1081F0006145E390F5FAB725002093850589D05DA8
:1082000093858504C5B785476145E394F5F8034731
:108210000600B7270020A38AE7989DBF094595BFB0
:10822000094582800547630CE5024111AA8706C60D
:108230002E8599CB1147638CE70225476381E704BC
:108240000945B24041018280B725002055469385FB
:1082500005AE9780FE1FE780A0F80145DDB7B72780
:10826000002083D7C7A101452390F5008280B72560
:10827000002021469385C599EF20E26DF9BFB7270D
:10828000002083C757992380F500C1BFB72700207E
:108290009387E7A103C7070015E305472380E7009D
:1082A000058909CDB7260020372500209386069240
:1082B0004146A545130505896F30607601458280EA
:1082C00001111388F5FF06CE22CC26CA4AC84EC635
:1082D00052C41378F80FAD4563ED050BB7B5030035
:1082E0000A08938545A52E983E8A83270800BA89F7
:1082F0003689B28482878545EFB0DFF52A8419E19B
:10830000EFF0BF952285F2406244D2444249B2491F
:10831000224A056182808945EFB0DFF32A847DF12E
:108320002685EFE0FF88F9BF9145EFB0BFF22A84C0
:1083300071F95286CE854A85EFB03FE8EFF0FF91A4
:10834000EFF0AFD2EF80604275BFA145EFB09FF074
:108350002A844DF95286CE854A85EFB01FE62685E0
:10836000EFE01F85EFE04FFBEF80602161BFB1457B
:10837000EFB05FEE2A8459F55286CE854A85EFB07C
:10838000DFE32685EFE0DF82EFE00FF9EF80201FCB
:1083900075B7094485BF79714ECEAE896C0022D481
:1083A00026D24AD006D62A89B284EF00107B2A84CE
:1083B0000DE1CE854A85EFB00FB42A8419E9324524
:1083C000B736010026879386866E2D468145EF10CD
:1083D000E0132285B250225492540259F249456169
:1083E000828079714ECEAE896C0022D426D24AD0DA
:1083F00006D62A89B284EF0050762A840DE1CE8514
:108400004A85EFB06FBD2A8419E93245B7360100BD
:1084100026879386E67C4D468145EF10200F228506
:10842000B250225492540259F24945618280397106
:1084300026DAAE844C0022DC4AD84ED652D406DE70
:10844000AA893289368AEF0050712A8431EDA685D7
:108450006303090283D704002C002314F10083D79F
:1084600024002315F100930720302316F100930711
:1084700080022307F1004E85EFB0CFA42A840DE5DA
:108480005946A6851305A100230421019780FE1FEC
:10849000E78000D51245B7360100528793862669DA
:1084A00025462C00EF1080062285F2506254D254EB
:1084B0004259B259225A21618280797126D2AE8402
:1084C0006C0022D44AD04ECE06D6AA893289EF005B
:1084D000D0682A840DE1A6854E85EFB0AFA32A842B
:1084E00019E93245B73601004A87938666703546EA
:1084F000A685EF10A0012285B25022549254025951
:10850000F24945618280BD47638CF50663E9B70295
:10851000A5476387F50663EDB7009947638CF504BB
:108520009D47638FF5049547638CF5040145828070
:10853000B5476387F50463E1B704AD47F5B7DD4799
:10854000638EF50263EAB700C947638BF502D9472A
:108550006386F502C547C9BFF5476383F50263E447
:10856000B700ED47D1B793072005638BF50093075C
:10857000200D5DBF48458280084182800845828089
:10858000484182809307F00F630EF506011126CA59
:10859000AA841305000222CC4AC84EC652C456C251
:1085A00006CE3A89B689B28A2E8AEF902FEA2A84BB
:1085B0004D4515C8930700FB2300F400A3005401A8
:1085C000231144012302340113058400614663052D
:1085D0000902CA859780FE1FE78080C0A285268594
:1085E000EF90CFF10145F2406244D2444249B24992
:1085F000224A924A0561828081459780FE1FE7806A
:10860000A0C1E9BF09458280011122CC06CE2A848F
:108610002306B100A306C100EF50406A15C183468E
:10862000C500B72700202147938787D2639EE600C5
:1086300003C5670078009306E0070146A2859937D5
:10864000F24062440561828078009306E0070146AB
:10865000A28503C55700E5B7930700643306F60209
:108660006F90BFCD05C903470500854693072700D6
:1086700093F7F70F63F0F602411122C42A843A857A
:1086800006C6EF90BFDEFD572300F400B24022443F
:10869000410182808280035705009307000B63131A
:1086A000F702834745004947639CE70003471501EC
:1086B00085476399E7000355250085456F30306590
:1086C0006D47C5BF828001112314B1006C0022CC1C
:1086D00026CA4AC806CE2A89B6842315C100EF00EF
:1086E000D0472A840DE12C004A85EFA0FFF32A84AD
:1086F00019E93245B736010026879386065E15468E
:108700002C00EF00B0602285F2406244D24442491E
:10871000056182807971930720302314B1002315FD
:10872000C1002316F1002C0093078002014606D6F3
:108730002307F100EFF0BFCFB25045618280C177CF
:10874000797185073EC4894726D22316F100AE848D
:10875000930780024C0022D44AD006D62A892307E8
:10876000F100EF00903F2A840DE12C004A85EFB024
:10877000CF832A8419E91245B736010026879386EC
:10878000667745462C00EF0070582285B25022547F
:108790009254025945618280B28605466FF03FC906
:1087A000797126D2AE846C0022D44AD04ECE06D641
:1087B000AA893289EF00703A2A840DE1A6854E8598
:1087C000EFA0BFDD2A8419E93245B73601004A8798
:1087D0009386C6570D46A685EF0050532285B250AA
:1087E000225492540259F24945618280797193076B
:1087F00020202314B1002315C1002316F1002C0002
:1088000093078002014606D62307F100EFF03FC22E
:10881000B25045618280011122CC06CE2A842EC638
:1088200032C436C2EF5080490DCD0345C500B7278D
:108830000020A146938787D212472246B245631C87
:10884000D50003C56700B2862E86A2856244F24039
:1088500005616FF03FD3B28603C557002E86A2850F
:10886000F5B7F24062440545056182806FF0BFB202
:108870006FF07FB26FF07FC46FF03FC479714ECE5E
:10888000AE896C0022D426D24AD006D62A89B28478
:10889000EF00B02C2A840DE1CE854A85EFA07FE958
:1088A0002A8419E93245B736010026879386467235
:1088B0003D468145EF0090452285B25022549254A6
:1088C0000259F24945618280B28601466FF03FB697
:1088D000011122CC2E846C0026CA06CEAA84EF0099
:1088E000D027DD47630AF500930710102314F40026
:1088F000A2852685EFA05FEEF2406244D244056176
:1089000082802394050083D7850099E36FF07FADC3
:1089100009458280FDB7B727002003C7A7A5854773
:1089200063F9E702011122CC2E846C0026CA06CE20
:10893000AA84EF00902209E9930700102314F400A1
:10894000A2852685EFA05FE9F2406244D24405612A
:10895000828059458280B727002023A2A7A2828067
:10896000B727002023A4A7A28280011122CC26CA07
:1089700006CE2A84AE84EF506034A6852285EFA00F
:10898000FF8C0DE9228523169100EF5020331DC185
:108990008346C500B72700202147938787D263907D
:1089A000E60203C5670078009306F0070146A2853A
:1089B000EFF05FBDF2406244D2440561828003C59E
:1089C0005700D5B7011126CA06CEB68422CCDD46A3
:1089D00063E2B608D94663FED50AA5466381D50A87
:1089E00063EEB6049546638CD50899466387D50A2D
:1089F000054441687D18631606093AC6EFA0DF8872
:108A000033068540324742064182420441803305A5
:108A1000C4004205BA85418132C6EF307040AA8752
:108A200049C181C432462390C400B30580406244EA
:108A3000F240D2443E8505616F902F99C546638010
:108A4000D504C9460D44E395D5FAC167FD17E31E69
:108A5000F6FA65B7F5466380D50463E4B600ED46E3
:108A6000D5B7930620056388D5029306200DE391C0
:108A7000D5F8C167FD170D446319F600BDBF094461
:108A80008DBF9306200DE392D5F831064206418250
:108A9000ADBF15445DBF0D444DBFC167FD171D44FB
:108AA0007DB7F2406244D24405618280011122CC3C
:108AB00026CA06CE03C645002E841307000281464F
:108AC0009945AA84EFF01FF02AC629CD83570400E8
:108AD00003464400930554002310F10083572400FB
:108AE0002311F10089472312F10093078002230329
:108AF000F1009770FE1FE780A06E834744008A85CF
:108B000026852314F100EFA0FFB42A8411C5324555
:108B10009770FE1FE780405F2285F2406244D24496
:108B2000056182804D44CDBF5D7186C6A2C4A6C2D8
:108B3000CAC04EDE89476306F600C1470944631A7E
:108B4000F6040144B9C52E894C0832C6B689AA84F8
:108B5000EF00B0002A8432460DEDC1778507CA8543
:108B60001305D1013ECC230EC1009770FE1FE78094
:108B700020672C082685EFF07FF32A8419E95245F7
:108B8000B73601004E87938686631D462C08EF009A
:108B9000F0172285B640264496440649F259616191
:108BA0008280797122D436844AD04ECE52CCB2899A
:108BB0002E8A3A898146130710022286D94526D289
:108BC00006D6AA84EFF01FE02AC629C12286CA85EC
:108BD0002314810023124101231331019770FE1FDA
:108BE000E78000604C002685EFA0DFC92A8411C50C
:108BF00032459770FE1FE78020512285B2502254E3
:108C000092540259F249624A456182804D44F5B757
:108C1000011122CC26CA06CE4AC8DD472A84AE847A
:108C2000638DF5028147035504006C002306F100B3
:108C3000EFA0DFC80545638EA40803458400B16535
:108C4000938505B8EF908FD2E5472301F400B7472D
:108C500001009387278B5CC0A5A8034755013149C4
:108C6000B2863306270318499C4232971043E31B10
:108C7000F6FA83D7460003564700E315F6FA8C460A
:108C800008479770FE1FE780805E49DD83475401E7
:108C900003474401850793F7F70FA30AF40063F035
:108CA000E704B3872703184803550400BA97984789
:108CB00083D6470003D6270083D50700EFF07FEE69
:108CC00035F103458400B165938505B8EF900FCA6F
:108CD0005945F2406244D24442490561828083474B
:108CE000640191B7011122CC26CA06CEDD472A8441
:108CF000AE84639CF50603550500EFA0EFD803563C
:108D0000C40183562401035744016D162A96420676
:108D10004182B307D640C207231EC400C18363F15A
:108D2000E7089305C5FF3308F740635CB802BA96BD
:108D3000918EC206184C8355040103550400C1826C
:108D40003E97EFF01FE615E103458400B16593857A
:108D500005B8EF90AFC15945F2406244D244056175
:108D600082806D1593160501F1B781470355040004
:108D70006C002306F100EFA07FB40545E38EA4FC50
:108D800003458400B165938505B8EF902FBEE54794
:108D90002301F400B74701009387278B5CC065BFB0
:108DA0008547E9B7397126DAAE842C0022DC4AD82F
:108DB0004ED606DE2A89B2894D232A8421ED4A85C2
:108DC000EFA08FCC83D644006D1563C5A600931623
:108DD0000501C182984403D6240083D504004A8546
:108DE000EFF03FDC2A841DE53146A68508082306FE
:108DF00001009770FE1FE780A03E83D72400224524
:108E0000B74601004E87938606845D466C00231E9C
:108E1000F100ED2D2285F2506254D2544259B259DC
:108E2000216182806FF01FF86FF0DFF7797126D231
:108E300006D622D44AD04ECE52CC56CA5AC88944FD
:108E4000C5C159CE2E842A89BA8A368B328AEFA0C0
:108E5000AFC3930544008147711503D705006352E2
:108E6000A70A850793F7F70FB105E318FAFE8A857D
:108E70004A85E521AA842DE531453305AA0291658D
:108E800093851570CD449770FE1FE780A01BAA89BB
:108E900021C931463306CA02A2859770FE1FE780BA
:108EA000203418448356440003562400835504009C
:108EB0004A85EFF01FCFAA841DED0245B746010099
:108EC00085475687938606845D464C002302F10051
:108ED0004EC423064101A3060100230761013D257D
:108EE000B2502254268502599254F249624AD24A1B
:108EF000424B456182804E859770FE1FE780C020FF
:108F0000C5B7ED44F1BF79714ECE37B60300AE89D7
:108F1000C16526D20147AA8489461306C609FD15F4
:108F2000054522D406D64AD0EF10301A054431CD7B
:108F30002A891307300281461146F5452685EFF050
:108F40007FA82AC6554431C18357A900CE86014661
:108F50002314F10091472315F10085472300F50004
:108F6000B2472C002685A38007003247FD57230116
:108F7000F7003247A301F700EF10F00A2A8411C569
:108F800032459770FE1FE78020182285B250225488
:108F900092540259F24945618280411106C6EFF0B0
:108FA0008FD619C5B24041011773FE1F6700C31564
:108FB000B24041018280011106CE2AC6EFA0AF92D5
:108FC0003245B727002023A207A2B727002023A4F9
:108FD00007A29145B7270020A384A7D2EF30A05E57
:108FE000F24005616F20303993970501C18763DB3B
:108FF0000712B727002003C597D2797122D44AD02F
:1090000006D626D22E89EF80DFC82A8451CD0347A9
:1090100005009307000A6316F70885474C08A30567
:10902000F100EFA06F99AA840DED834761017147AC
:109030006375F708138717FE1377F70F930600027F
:1090400063F4E608858BD5C7B727002083A747A21E
:10905000994481CB035524001306B1004C08829734
:10906000AA848347B10099C7084409C59770FE1FB9
:10907000E780800995E05247B7070001938707F022
:109080007D8FB707120093870710630CF700034723
:109090006101ED476317F700035524008545EF3064
:1090A00000472285EF80DFB7B25022542165334557
:1090B000A900925402594561828037073014050790
:1090C0003357F700058B3DDF37270020032787A2A2
:1090D00049DB0347510151F72306F1009947230863
:1090E000F100035524006C0023170100EFA04FB1DD
:1090F0008DBFB727002083A787A29DC303552400F7
:109100001306B1004C08829729DDAA8483475101D8
:10911000A9FB83476101230891002306F100D1B721
:109120009944EDB701458280397122DC26DA06DEEA
:109130004AD84ED652D456D25AD0A5472A84B284A1
:109140006399F5108347450203570600835A2600AA
:1091500085072302F5029307F7FFB387FA0254420B
:10916000C207C183B69703C9170083C707008346A8
:10917000C50022093369F90085476390F602330779
:109180005703231006008149014A130B3501931A36
:10919000070193DA0A0163E15907C167FD1763020A
:1091A000F90C83570401637EF90A050942098346D5
:1091B000C40013590901231724010547035504006E
:1091C0009305E400639FE6002315F1009307203028
:1091D0002316F10093078002231421012307F100D5
:1091E0002C00EFA02FCE03458400B165938505B810
:1091F000EF80DFF75945BDA083D62400DC408345CE
:109200002401ED1613865900C206C1823E965A8586
:10921000EF90FFF205C9630C3A01C84003D6240061
:10922000B305350152959770FE1FE78060FB83D729
:1092300024003E9A83D70400420A135A0A01850784
:109240002390F40083D72400BE99C20993D9090161
:1092500099B703474600A9476310F70283474502C1
:1092600081CF0145F2506254D2544259B259225A28
:10927000925A025B216182808346240113093401E2
:1092800037B503004A86894513054509EF903FEB42
:1092900019C10545C1BF8346240137B503004A867D
:1092A000894513058509EF909FE965F583462401FB
:1092B00037B503004A8689451305C508EF903FE896
:1092C00069F98346240137B503004A8689451305A9
:1092D0008507EF90DFE655FD03C74400BD47E3EA8D
:1092E000E7FAA56793874712B3D7E700858BD5D3F5
:1092F0008347440285072302F40203D9240071BD89
:10930000B727002003C607D3B727002003A7C7A2AB
:1093100081476315F600814636858280BA86130739
:109320008702835587FDE389A5FE850793F7F70F2D
:10933000CDB7011106CE2EC6EFF09FFC01CD8347BD
:10934000A500B245138717006396E50093F707F869
:109350002305F500F24005618280011106CE2EC67C
:10936000EFF01FFA05C5B24591C188C1834785005A
:109370001307E00F5D456388E7001307F00F014511
:109380006383E7005945F240056182800945E5BFE6
:10939000411122C42A84210506C626C24AC0EFF024
:1093A0006FAC83472400A51793F7D70F91EB0347C2
:1093B000C40085476310F7061C4881443149A9E37E
:1093C000FD5723010400A304F40023020402130543
:1093D000C4002244B24092440249614681454101A1
:1093E0001773FE1F670043E3B38724033E950845C8
:1093F00009C59770FE1FE78020D1850493F4F40F10
:10940000834744010848E3E1F4FE9770FE1FE780BC
:10941000A0CF7DB7084C75F965B7411122C44164EE
:1094200006C626C29307E4FF630EF500AA8485E111
:10943000EFF01FED01E91305F4FFEFF07FEC19C128
:1094400023109500B2402244924441018280854716
:109450006395F504EFF0DFEA2A846DD5FD572310FC
:10946000F500834784001307F00F6385E7021307B5
:10947000E00F638BE7008346240003459400014717
:109480005146A685EFF00F902285EFF07FF0FD5753
:109490002304F4002305040075B78947E394F5FA23
:1094A0008545EF40102559FD2685EFF07FE52A849C
:1094B0004DF949BF39C9034785009307F00F63068B
:1094C000F704011122CC06CE2A8483462500835559
:1094D00005000345950001475D46EFF0AF8A03475D
:1094E0002400E1476319F700035504006C002306CC
:1094F0000100EFA0AFBCF9572304F4002285EFF080
:109500003FE9F24062440561828082809307F00F58
:109510006306F706011122CC26CA2A844EC6AE8401
:10952000B689AA8593068500379501004AC852C4BA
:109530003A89328A1305454B794606CEEFF0CF9132
:10954000A3042401230144012322340185C013050F
:10955000C4006244F2404249B249224AA685D2443C
:10956000614605611773FE1F670083C7F2406244BE
:10957000D2444249B249224A056182808280B7279B
:1095800000202388A7A282809547639CF506834725
:109590004502854685072302F50283570600584297
:1095A00003462600FD17C207C1836318D6048A0745
:1095B000BA9703C7170083C707002207D98F03573D
:1095C000E50063F9E704411106C622C485072316A6
:1095D000F5002A849305C50003550500EFA0CF844C
:1095E00003458400B165938505B8EF803FB8B2406C
:1095F0002244D9473E8541018280C946B387D702BC
:1096000045BF83464600294785476396E6000347E2
:10961000450211C381473E8582809D476392F506CE
:10962000834745028356E50085072302F5028357E9
:1096300006005842FD178A073E97834717000347E5
:109640000700A207D98F014763F6D704411106C668
:1096500022C485072A842316F5009305C500035507
:109660000500EFF0AFC403458400B165938505B8EC
:10967000EF80DFAFB240224459473A8541018280F2
:1096800083464600A94705476396F600034745020F
:10969000133717003A858280411122C406C626C2BC
:1096A000B5472A84639BF50483474502B284850746
:1096B0002302F50203550500EF901FBD83D7040078
:1096C0001307F5FF014563C5E7020357E40003559F
:1096D00004009305C400BA972317F400EFA08F830A
:1096E00003458400B165938505B8EF803FA85945CF
:1096F000B2402244924441018280034746009D4784
:109700000545E317F7FE0345440213351500CDB7B1
:10971000C547639EF5068357060003572600FD17CD
:10972000B387E7020347450205072302E5025842D3
:10973000C207C1833E978347370003472700A2072C
:10974000D98F41677D176395E70081473E85828009
:10975000138717002316E5000357E500E3F7E7FE3C
:10976000411122C49305C5002A840355050006C68D
:10977000EFA0AF8303458400B165938505B8EF8002
:10978000FF9EB2402244D9473E85410182808346F4
:10979000460029478547E39BE6FA0347450255F70C
:1097A00075B7011122CC26CA4AC852C406CE4EC68D
:1097B00083C7250015472A8AAE8432843689639D83
:1097C000E7043686A2852685EFF01FDCAA8955E9D5
:1097D00085476318F40A03474900A9476301F70264
:1097E00003C594004A8785460146D285EFE09FD99C
:1097F00019E585454A85EFE01FD11334150083C66E
:10980000240003C5940001476946D285EFE09FD745
:109810002685EFF0FFB751A01D476398E700368615
:10982000A2852685EFF07FDF55B725476398E700CF
:109830003686A2852685EFF03F8F49BF354763986E
:10984000E7003686A2852685EFF01FE541B745473C
:109850006398E7003686A2852685EFF07FEBBDB7DB
:109860005D47639FE70003C7C50085473686A2852D
:109870002685631DF702EFF0AFB98547631BF5043A
:109880008549A5476317F402835709009DE3054402
:10989000E38709F6D947E39DF9F62285F240624451
:1098A000D2444249B249224A05618280EFF08FC317
:1098B000E9B703C594004A87A2860146D285EFE046
:1098C0007FCC71F5A2854A85EFE0FFC31334150004
:1098D000C1B70544D9B7397122DC06DE26DA4AD889
:1098E0004ED652D456D283D705001944B1E783C966
:1098F00025002A89328A938759FE93F7D70FAE84C1
:10990000DDE7B727002083C607A31307F00F938A6C
:1099100007A319446382E602F5476394F904EFF064
:109920003F9EAA8921C10346A5000DCE931786014B
:10993000E18763DD070001442285F2506254D2546E
:109940004259B259225A925A21618280F5454A857C
:10995000EFE09FCB83C7A90093E707F82385F900C1
:10996000D9BF814983D64400904483C5140003C500
:1099700004003800EF909FF52A845DFD83C6240023
:1099800003C50A0038000146CA85EFE0BFBF2A843C
:1099900045F5B24799C323000A0083C724007547E1
:1099A000E39BE7F8E38909F82385F90071B7EFF045
:1099B0003F95AA8A49D18547639CF90883D544001D
:1099C00088443000EF903F8E2A843DF503C72A007B
:1099D000C54763FDE708DD47630CF70AB72700209A
:1099E00003C59A0083C797D26397A70A014403C7A8
:1099F0002A008D47631AF7048357810003D7CA00F2
:109A000063F4E7002396FA0083D5CA004A85EFE0A5
:109A1000DFF5B727002083D787BC6D476376F70251
:109A200083D6CA005D476371D7021307B00FBE85A6
:109A30006374F7009305B00F1166C205130606297B
:109A4000C1814A85EF7030575685EFF07F94EDB5B0
:109A5000834725001144E39137EF5C41E38E07EC27
:109A600083D54400884430008297B9BFB7270200ED
:109A70009387072AB3D7E700858BADD303C62400AD
:109A80003400D6854A85EFF0DFD12300AA006DB5FA
:109A900083A70A01DDB783C6240038000146CA85C2
:109AA000EFE05FAE2A8421F583C524002800EFE0B3
:109AB0009FA50DDD23000A001DBF011122CC372414
:109AC000002006CE26CA4AC84EC652C4930984D284
:109AD00003C589009307800291653305F5029385DC
:109AE0006570372900209304C9A29760FE1FE780A4
:109AF000605503C689009307800281453306F6024C
:109B000088C09760FE1FE78020719C404D45A1C32F
:109B1000930484D21309C9A20144130A8002FD5997
:109B200083C78400636DF40237A501001305658DBA
:109B3000EFE07FE23795010013052533EF908FE6C4
:109B4000379501001305A541EF40C0310145F240B2
:109B50006244D2444249B249224A05618280B30735
:109B60004403032509006146814505041374F40F7D
:109B70003E952310350123010500231435012305EB
:109B800005002302050231059760FE1FE780C068CB
:109B900041BF01458280B727002083C617D3814784
:109BA00063E5D70001473A8582802E87910503D669
:109BB000C5FFE30AA6FE8507E5B70DCD834725005F
:109BC0000547890793F7F70F6376F702411122C41F
:109BD00006C62A8483550500034535000147F9462A
:109BE0005D46EFE03F9AF9572311F400B24022445A
:109BF000410182808280B727002003C717D3FD561A
:109C0000814763E3E70082802310D500230105002C
:109C100085071105FDB70145828037260020130610
:109C2000369B930700022300F60037270020FD57DC
:109C30002309F79A37270020A302F79A3727002035
:109C40002302F79A8545B72700202398B79AB727AC
:109C50000020239907A2B727002023AE07A2B72729
:109C6000002023A607A4B727002023A007A4B72617
:109C70000020B7B703009386869A93878708DCC2D3
:109C8000B7270020238A07A2B72700209387C7920F
:109C900009472380E6002380E7002388E70023802C
:109CA000E7022388E70237B70300D4C71307C707C3
:109CB000B7B60300D8DB938686070D47D4CB238C39
:109CC000E70237B50300B7B60300372700201307B4
:109CD00087A3130545099386C609D8DFC8C3238423
:109CE000B70023950700238CB700239D0700D0CF32
:109CF000D4D3238407022395070223A60702239DBA
:109D0000070237A70100B72700209387C7961307DC
:109D100027DD23A00700D8C323A4070082804111B8
:109D200006C6EFF05FE711C503452500B2404101CB
:109D300082800145E5BF411122C426C24AC006C641
:109D4000AA842E893284EFF01FE511E94165CA85A6
:109D50007D15EFF05FE4C54711C523109500230181
:109D600085008147B2402244924402493E85410128
:109D7000828029E78948354763931605011106CE8D
:109D800022CC26CA034716000346060093C7F7FFF6
:109D90002207598EF18F32C68DE7C4452A84A685E5
:109DA000EFF0FFF732460147630FA60022856244B9
:109DB000F240A685D24405616FF0FFF72D473A8542
:109DC000828013070008F2406244D2443A8505615C
:109DD000828083C8050009486395080303A84500ED
:109DE0008347180003480800A207B3E70701C2072A
:109DF0000D68C187130828906395070189476FF0A4
:109E00005FF705458280011122CC3724002013041E
:109E1000549A0347040006CE26CA4AC84EC6930782
:109E2000F00F6300F704AA892945B2842E89EF70E8
:109E3000FFE105C99307100B2310F500230205006D
:109E4000231135012313250123149500AA85034509
:109E500004006244F240D2444249B24905616F7045
:109E6000FFE9F2406244D2444249B249056182802E
:109E70004111B727002026C2AE8483A587A322C440
:109E800006C62A84EFF0BFE9098909C92285224460
:109E9000B240A685924441016FF0EF86B240224461
:109EA0009244054541018280411122C426C24AC024
:109EB00006C6AA84130445001309850B83570400C2
:109EC0009DC3084409C59760FE1FE780E0232285F3
:109ED000314681459760FE1FE78000343104231A24
:109EE00004FEE31D24FDB2402244FD572390F400FC
:109EF0000249924441018280B727002003C617D34C
:109F0000B727002003A747A481476315F6008146C1
:109F100036858280BA861307870B835587F4E389D9
:109F2000A5FE850793F7F70FCDB7B727002083A7C6
:109F3000C7A489CB03D747006314A7008847828052
:109F40009C43C5BF01458280411106C6EFF0FFFD6D
:109F500009C50845B240410182800145E5BF0111B4
:109F600026CA9384450022CC4EC606CE4AC852C4A7
:109F700056C25AC0268781490144814681473D45E2
:109F80000356070055CED9E20354470083572700F4
:109F9000B286A297C207C18385093107E392A9FE61
:109FA00025C82E8991659385457022859760FE1F8F
:109FB000E78040092A8B29CD814A014A8C4485C516
:109FC00003D6440033054B019760FE1FE780402114
:109FD00083D7440088443E9A420A135A0A01976084
:109FE000FE1FE780601263890A003146814526859D
:109FF0009760FE1FE7804022850AB104E3E03AFD46
:10A000002326690123148900054521A0630DD6008C
:10A010000145F2406244D2444249B249224A924A3E
:10A02000024B0561828003562700E313F6FE0356B8
:10A0300047003294B2974204C2074180C183A9BF4E
:10A040000545E37835FDA9BFB727002083A707A4FE
:10A0500099E30145828098470357A7006315A7003D
:10A060001385470082809C43E5B7411106C6EFF097
:10A07000BFFD11C503550500B24041018280014575
:10A08000E5BF411106C6EFF03FFC11C503452500B1
:10A09000B240410182804145E5BF411122C42A847A
:10A0A0002E8506C6EFF0FFFDAA8505462285EF3016
:10A0B000104495476305F500BD476313F50021453E
:10A0C000B2402244410182804111B727002022C4BE
:10A0D00006C603A407A48146938707A429C0184491
:10A0E0000356A70018406317A60285CA98C22E859A
:10A0F00081C92146930544009760FE1FE780400E0A
:10A1000022859760FE1FE78020000145B24022446F
:10A1100041018280A2863A84D1B798C3C9BF054560
:10A12000F5B7372700208327C7A401461307C7A424
:10A13000A9C703D847009443631CA802011106CEA7
:10A1400022CC26CA0DCA14C2AA843E852E849760EA
:10A15000FE1FE78060FB2C002685EFF0FFF601E58F
:10A1600019C0B2471CC0F2406244D24405618280EB
:10A170003E86B68775BF14C3C1BF054582804111B5
:10A1800022C42A84090506C6EFE0CFCDFD57A301FE
:10A19000F400B240224441018280B727002003C668
:10A1A00017D3B727002083A787A401476365C7009B
:10A1B000814636858280BE86990783D5A7FFE38ACC
:10A1C000A5FE0507E5B7411122C4416406C626C2B3
:10A1D0009307E4FF630EF500AA8485E1EFF0FFFB2F
:10A1E00001E91305F4FFEFF05FFB19C1231095009F
:10A1F000B240224492444101828085476394F50431
:10A20000EFF0BFF92A846DD5FD572310F500834781
:10A2100024001307F00F6384E7021307E00F638A3B
:10A22000E700034534000147F9465146A685EFE0B3
:10A230006FB52285EFF0BFF4FD572301F400230230
:10A2400004007DB78947E395F5FA8545EF30704AFC
:10A2500045F12685EFF07FF42A8455F951BF1D7131
:10A26000A6CACEC686CEA2CCCAC8D2C4D6C2DAC0CE
:10A270005EDEAE8483C52500F947AA896397F5049D
:10A28000EFF0BFF12A8411ED01442285F6406644C7
:10A29000D6444649B649264A964A064BF25B2561A2
:10A2A0008280834725000547890793F7F70FE37DF1
:10A2B000F7FC034535000147F9460146CE85EFE03E
:10A2C0006FAC2285EFF0BFEBC1B703AB0400B7075B
:10A2D0000001938707F037071200B377FB001307DD
:10A2E0000710B28A0149638AE7022EC6EFF0FFEA3F
:10A2F0002A89B2451DC10346450005C29317860150
:10A30000E187E3C307F84E85EFE00FB083474900CC
:10A3100093E707F82302F90085BF372A0020034797
:10A320002A9B9307F00F130A2A9B1944E30FF7F4B3
:10A33000E147E3ECB7F493D71500FD171397370007
:10A34000B7B70300938747A8BA9703A80700E30E9F
:10A3500008F283AB4700E38A0BF2420B135B0B015D
:10A3600063050B00C947E392F5F283D6440090449D
:10A3700083C5140003C50400380802982A84E31634
:10A3800005F02C084E85829B2A8421C983C71400BE
:10A39000E39D07EE83C72400230AA1003947230861
:10A3A000F1006399E70262478347170003470700FC
:10A3B000A207D98F0C084E852319F100EF904F8426
:10A3C000E30405EC14080546D9454E85EFE0AFC41B
:10A3D0002A8465BD83578101F1BF83C6240091475C
:10A3E000E384F6EA03450A0038080146CE85EFE02B
:10A3F0006F992A84E31B05E883C524002808EFE051
:10A400008F9019C123800A009840B70700019387F5
:10A4100007F07D8FB707120093870710E306F7E672
:10A42000E30409E683C724002302F900B9BD011142
:10A4300006CE2EC6EFF07FD601CD83474500B2454C
:10A44000138717006396E50093F707F82302F500DA
:10A45000F24005618280B727002003A707A419E313
:10A46000014615A81C4703D8A700636B0501835854
:10A470004700B38608016355D500814663941601F1
:10A480001843F1BF3E86C10703D3A7FF6317A3009C
:10A4900099C123900501328582808506C206C1825A
:10A4A000F1BF397152D42E8A4ED69305E101AA89A3
:10A4B000528522DC4AD856D206DE26DA328936C6E2
:10A4C0003AC4BE8AEFF03FF9054435C5AA84035566
:10A4D000E1013944EFF07FA539CD03284500630C35
:10A4E00008042247B246D6874A86A6854E8502983A
:10A4F0002A8431E19307E00F638FFA0203C7040057
:10A500008947631AF702D8408347170003470700BB
:10A51000A207D98FC2070D67C18713072790639CD5
:10A52000E7008347190003460900D285A2075D8E24
:10A530004E85EFF05F8D2285F2506254D25442591D
:10A54000B259225A925A21618280797122D40354DD
:10A5500025004ECEAA89228556CA06D626D24AD0D2
:10A5600052CC5AC85EC662C4AE8AEFF0FF9801E9C9
:10A570002285EF90FF88594429E90144B9A003C717
:10A5800089008547AA840144631AF702AA851385C6
:10A590008900EFF0DF9C29CD03D7640083D68400C7
:10A5A000D04483D5440003D52900E147EFF07FEF85
:10A5B000D9472A846318F50223A604002685EFF004
:10A5C000BF8E49C0D947E30AF4FA2285B25022541B
:10A5D00092540259F249624AD24A424BB24B224C3F
:10A5E0004561828061DD83D744002390FA00F9B78A
:10A5F00013894400014AB94B594C3D4B835509001E
:10A60000D5DDE14763067A010357C90011C3D94775
:10A6100003572900835649000326890003D52900E2
:10A62000EFF03FE82A846319850123240900050A15
:10A630003109E3156AFD59B77DD983570900239085
:10A64000FA00F5B703D529002DB701112317C10072
:10A650009307E00F1306E1000147894606CEEFF0AD
:10A660005FE4F24005618280797122D42A84035527
:10A67000850026D2AE849305210106D64AD0EFF09C
:10A680009FDD6308050E834785002AC693F70702FE
:10A690008DCF03552101EFF03F8BAA87B24501ED25
:10A6A0008357840039452390F400B25022549254C9
:10A6B000025945618280035524004946829711C59D
:10A6C000835784002390F400CDB7035924004A85B2
:10A6D000EFF09F8211ED41657D15EFF0FF8119E5E7
:10A6E0008357840025452390F400C1B7231025012A
:10A6F000130745008147BD46035607002DE6314745
:10A70000B387E702130984003146CA8591073E9555
:10A710009760FE1FE780C0AC3146CA854808976045
:10A72000FE1FE780E0AB0356C400035524004147F9
:10A730008146DD45EFE00FA92ACE19E58357840055
:10A7400045452390F40095B70C480356C400976024
:10A75000FE1FE780E0A8035524004C08EF900FE6A9
:10A7600029D5594599B785073107E397D7F8254586
:10A7700081BF0545B1B7797122D42A84035585007C
:10A7800026D2AE849305E1014AD006D63289EFF095
:10A790009FCC51C58347850093F70702A9E703477C
:10A7A00014019307200519E3834744008356A4004E
:10A7B000504483558400035524000147EFF07FCEB9
:10A7C000AA8721E98347140199E703552400EF90F4
:10A7D0000FDAD94711E18147B250225492540259FD
:10A7E0003E85456182802AC60355E101EFF0CFF531
:10A7F000AA8705C9B2450355240049468297AA870E
:10A8000059DD035784002390E4000347140161F7E6
:10A81000E1B75947E317E5FE230009006DBF8547FF
:10A82000CDB7B947F9BF397122DC4AD84ED652D4D8
:10A8300006DE26DAAA892E8A32C63689EFF0FF951F
:10A84000094415C5834725001307E00FAA845D441A
:10A85000638FE7001307F00F5944639AE70032460D
:10A8600005E2D2854E85EF908FDD2A8415CD2285B5
:10A87000F2506254D2544259B259225A2161828014
:10A8800003550A009305E101231F0100EFF0BFBC4F
:10A890000355E101EFF0EFFEAA8505464E85EF3046
:10A8A00000452A845DDDE1B79307F00FE301F9FC71
:10A8B00037A50100938624007946A6851305A5BB1C
:10A8C000EFD09FD9A38124015DB73971B72700204C
:10A8D00026DA83A407A452D45AD05ECE62CC06DE18
:10A8E00022DC4AD84ED656D266CA2A8BAE8B328C20
:10A8F000368A99E08149B9A0804483DC440001494B
:10A90000835AA400631499018440E5B78357A400D7
:10A91000A28963F867010509420913590901410435
:10A92000D5B7E3EAFBFE630C0A0083450400484008
:10A93000D28662863AC6EF809F80324769DD19C3AE
:10A9400023105701F25062544E85D2544259B259E5
:10A95000225A925A025BF24B624CD24C21618280A5
:10A9600003D7050083D62500854763E9E60439C788
:10A97000411183C6450026C237B5030093845500B4
:10A9800022C426862E8413054509894506C6EF8014
:10A990000FFBC14711CD8346440083552400035566
:10A9A000040001472686EFF05FF2814711E1A947D5
:10A9B000B240224492443E85410182803E8582809D
:10A9C0002E860355060083D52500854763E2A50240
:10A9D00005C18346460041110147150606C6EFF042
:10A9E000DFEE814711E1A947B2403E8541018280F7
:10A9F0003E8582802E860355060083D52500854737
:10AA000063E2A50205C183464600411101471506D0
:10AA100006C6EFF09FEB814711E1A947B2403E85A2
:10AA2000410182803E85828039714ED683D72500D0
:10AA300083D9050006DE22DC26DA4AD852D456D263
:10AA40005AD05ECE62CC66CA6AC863E037198547C1
:10AA5000638E0914416BAE8A2A8A2314010002C650
:10AA6000014401497D1B894B054CC94C054D83D5DB
:10AA70002A000147814601464E8523130100EFF06D
:10AA8000DFE4AA846300051209EC13072002930691
:10AA900061005A8695455285EFD0DFF22A8463081B
:10AAA00005120357810083C7040045C70347A1006F
:10AAB000630CA70741476385E7022C005285EF80AE
:10AAC000FFF809CD34001546D9455285EFD0BFD4E3
:10AAD00011C532459750FE1FE78000638147F9A0FA
:10AAE00083D7A4004146130524002300F40083D734
:10AAF000A400A183A300F400CC409750FE1FE78080
:10AB0000206E4904835781008507C207C18323143F
:10AB1000F10063F9270983D7A400638567098509D4
:10AB2000C20993D90901A1B7E39977F983D7A400A2
:10AB30000946130524002300F40083D7A400A18351
:10AB4000A300F400CC409750FE1FE7806069110419
:10AB500055BF22C60359610003C7A4001305240092
:10AB60006382770333599903230571012300E400BD
:10AB700083D7A4004146A183A300F400CC401379FD
:10AB8000F90FA5BF230581012300E40083D7A400AA
:10AB9000135929001379F90FA183A300F400094682
:10ABA000CC4055B78357810089FBA947F2506254C6
:10ABB000D2544259B259225A925A025BF24B624C19
:10ABC000D24C424D3E85216182808547C5B7C5473D
:10ABD000F1BFB727002003C7A7A5854763F3E706A2
:10ABE000011122CC26CA4AC806CE2A843289AE84F4
:10ABF000EFF0AFDA01C9034725009307E00F5D4589
:10AC00006308F700631C0900A6852285EF900FA05A
:10AC1000F2406244D24442490561828003D5040077
:10AC20009305E10023170100EFF0FF820355E100D7
:10AC3000EFF02FC5AA8505462285EF30400B69D578
:10AC4000C1BF5945828013F7050201C7B2856FF075
:10AC5000CFC4411126C24AC006C622C413F98500DA
:10AC6000AA8463170900139785016187635D070252
:10AC700032853684EFF0EFC0AA85054663130900DC
:10AC800001462685EF30A00601E90145B240224485
:10AC9000924402494101828083479400E5DB834767
:10ACA0008400E5F7E5B793F72500E5F30D45F9BF17
:10ACB0007971AE8622D42A8403D506009305E1017A
:10ACC00006D636C6EFF02FF909CD83458500B2468A
:10ACD0000356E1012285EFF01FF7B250225445617F
:10ACE00082800545DDBF13F7050201C7B2856FF00D
:10ACF000CFBA411122C426C206C693F485002A8425
:10AD000091E4139785016187635007023285EFF064
:10AD10004FB7AA85054691E0014622852244B240FC
:10AD2000924441016F20B07C93F72500014591E3E7
:10AD30000D45B24022449244410182807971AE8631
:10AD400022D42A8403D506009305E10136C606D62F
:10AD5000EFF06FF0B24601CD834585000356E10167
:10AD60002285EFF05FF8B25022544561828005459C
:10AD7000DDBF797126D2AA840355A500C16722D40C
:10AD80004AD04ECE06D623170100FD173284B6896D
:10AD90000149630DF500050583C60400D040420556
:10ADA0001307E1004181EFF05FB22A8983C60400F6
:10ADB000D04037B50300894513054509EF802FB80A
:10ADC0001DC503D4A4002285EFF02FAA09C57D1468
:10ADD0002A94420441806384090023908900B25080
:10ADE00022544A8592540259F2494561828083C6B1
:10ADF0000400D04037B50300894513058509EF806D
:10AE00000FB461F183C60400D04037B50300894513
:10AE100013058507EF80AFB219C9E30609FA835716
:10AE2000E100E39287FA0354A9007D145DB703D4CF
:10AE3000A40055B7397122DC26DA4AD84ED652D44E
:10AE400056D25AD062CC06DE5ECEBE8983C785005C
:10AE50002A8AAE84C18B328C36843A89C28A468B68
:10AE60009DE783CB04008947638BFB046285EFF089
:10AE7000CF8B1DC183280500638008025A88D687BE
:10AE80004E87CA862286A6855285829839A0328549
:10AE9000EFF08F8BAA8711ED3945F2506254D254EE
:10AEA0004259B259225A925A025BF24B624C2161CA
:10AEB00082802946A6855285829745D5F9BFD8401C
:10AEC0008347170003470700A207D98FC2070D6702
:10AED000C187930607906384D72263CEF606930654
:10AEE0002780638ED70C63C1F60213070780E3CF78
:10AEF000E7F62D45E39309FADC4403C60700CC438B
:10AF00002310C900228569A213073780E390E7F672
:10AF10002D45E39409F885472310F900DC44814569
:10AF200083C707002300F40003D5A40005054205EC
:10AF30004181EFF04FD28357090063170512910743
:10AF40002310F90011468145130514009750FE1F88
:10AF5000E780802C29A2930627906383D71863CEBD
:10AF6000D71293063790638CD71813074790E39F47
:10AF7000E7EE2D45E39309F2DC441D472310E90079
:10AF800003C707002300E40003C71700A300E40081
:10AF900003D727002301E40003D727002183A3015F
:10AFA000E40003C747002302E40003D76700A302BD
:10AFB000E40083D76700A1832303F4004DA02D454F
:10AFC000E39D09ECDC446C0083C9170003C707004C
:10AFD000A209B3E9E90011472310E90083C707007C
:10AFE0004E852300F400DC4483C71700A300F4005F
:10AFF000EFF06FC6AA8435C50356C100C16593063C
:10B00000E100FD158329C500EFF0BFD619ED83C619
:10B010000400D04037B50300894513058509EF804A
:10B020000F9201E5FD572317F10003C70900894777
:10B030006310F70283A549000946130544009750A1
:10B04000FE1FE780E0198357090089072310F900E4
:10B050008357E1002301F400A183A301F40001451B
:10B060002DBD23173101EDB7034705008907BA97B6
:10B070002310F9008357A500A300F4008357A5000F
:10B08000A1832301F400034605004C41130534005D
:10B090009750FE1FE780C014D9B7C8449750FE1FD1
:10B0A000E780A01893170501C1832A871D45E3E6B1
:10B0B00037DF6399F90023100900CC4403560900D7
:10B0C000CE9589B54207B3863A01418363C7E6004E
:10B0D000B38737412310F900CDB723105901F1BFD1
:10B0E0002D45E39C09DACC445285EFE05FC3231081
:10B0F00079012300A4002181A300A4008DB72D4570
:10B10000E39D09D8DC442310790183C7070023009D
:10B11000F400DC4483C71700A300F40089B71D7155
:10B12000CAC82A8903552500A2CCCEC6D2C4D6C22D
:10B13000DAC05EDE62DC66DA6ED686CEA6CA6AD871
:10B14000AE8AEF806F94130CF5FF93170C01B72BA9
:10B150000020C1832A8A814913848BAF3EC6372BD6
:10B160000020B72C0020C16D8357C90063F6F90099
:10B170008357040063CC87010355290093858BAF67
:10B18000EF807FB32A8D15CD594D25A883278900DF
:10B19000139719009305E101BA9783C4170083C779
:10B1A0000700A204DD8C2685EFF0EFAAAA8515E939
:10B1B00023909A004840054D09C59750FE1FE7802F
:10B1C000A0F4F64066446A85D6444649B649264A04
:10B1D000964A064BF25B625CD25C425DB25D2561D1
:10B1E000828032488348490083A6CCA30356E101FC
:10B1F00003552900814713072BA3EFF0BFC32A8D06
:10B200001388CCA309C523909A00484075B75C40C9
:10B2100085E703552900514781461386FDFFBD454B
:10B22000EFD04FFAB727002048C01388C7A309E51D
:10B2300023909A00454D71B78357040003572BA301
:10B2400093042BA33E976347470113C7F7FF529719
:10B250002390E400484003D60400832508003E956F
:10B2600085099750FE1FE780A0F78357040003D796
:10B270000400C20993D90901BA972310F400EDB56F
:10B28000397122DC2A840355250006DE26DA4AD8E5
:10B290004ED652D45AD05ECE62CC66CA2E8B56D2CF
:10B2A0006AC8EF707FFE2A8A8346C4008355A400D3
:10B2B0000355840078001306D400130CBAFF651AF6
:10B2C000EFF0AFE0420A37290020AA898144135ADF
:10B2D0000A01B72B0020B72C0020130989AF638621
:10B2E000090463D48405938ACCA38348440083A6CD
:10B2F0000A000356C1000355240052888147138772
:10B300002BA3CE85138D2BA3EFF0DFB215C5814A99
:10B310000356C1008355A4004E859306E100EFF06B
:10B320005FA5AA89639D0A065DF9E5E0835784005D
:10B3300029452310FB0089A083570D000356040103
:10B34000E317F6FC83A50A0048489750FE1FE780E4
:10B3500000F255DD83274900A1E30355240041662F
:10B36000454781467D169D45EFD0CFE505E58357DE
:10B37000840045452310FB00F2506254D2544259D8
:10B38000B259225A925A025BF24B624CD24C424D55
:10B39000216182802322A90083DAA90095BF832737
:10B3A0004900A6972380570193871400139707013C
:10B3B00083274900418393DA8A00BA972380570193
:10B3C00013872400832649009387340042079104A1
:10B3D0004183C207C204C183C180369711CD835611
:10B3E000E1002300D70003274900BA970357E10083
:10B3F00021832380E700E5B5FD562300D70003270E
:10B400004900BA972380D7000DB703552400B7250C
:10B4100000208980239C95AE938585AFEF80AFEFA8
:10B4200021DD594591BF411122C406C693F705019C
:10B430002A84328585C3EFE0DFC4AA8505462285CC
:10B44000EF20F00A95476305F500BD47631DF5023F
:10B45000214515A893F7450099CBEFE09FC205461B
:10B46000AA8522852244B24041016F20500893F7FB
:10B47000050489C7EFE0FFC00146DDB713F51500ED
:10B48000133515000605B2402244410182807971CE
:10B490004AD04ECE52CC06D622D426D22A8AAE89A3
:10B4A000014983D749006364F9000145A1A083A73E
:10B4B00009001314190093041400338797000347FD
:10B4C0000700A29703C5070022079305E100598DE5
:10B4D000EFE07FF805E983A7090005453E9403479F
:10B4E00004002380E70083A70900BE9403C704007B
:10B4F000A380E700B250225492540259F249624AA2
:10B5000045618280834585000356E1005285EFF056
:10B510009FF105C183A709003E94034704002380DF
:10B52000E70083A70900BE9403C70400A380E700D7
:10B53000D1B70509420913590901A5B7011122CC58
:10B540002A8403D505009305E10006CEEFE0BFF0A5
:10B5500001CD834585000356E1002285EFF0BFEC65
:10B56000F2406244056182800545DDBF1D71CAC895
:10B570002A890355250086CEA2CCA6CAD2C4D6C23B
:10B58000DAC05EDE62DC66DA2E8ACEC66AD86ED695
:10B59000EF709FCF2AC68346C9008355A900035583
:10B5A000890078081306D900EFF02FB2B247B7240C
:10B5B0000020416B938AA7FFC20AAA8B014493DA49
:10B5C0000A01372C0020B72C0020938484AF7D1B08
:10B5D00063810B1A0356C10183C58B0003552900F3
:10B5E000EFF07FE4AA8D631105188348490083A614
:10B5F000CCA30356C1010355290056888147130780
:10B600002CA3DE85EFF01F83AA8D93092CA3138D45
:10B61000CCA3631B051429C003D7090083D72400DA
:10B6200011076397E7003247A2976D1763CAE706D1
:10B63000B7250020938785AF03D72700035529003E
:10B64000938585AF3354E40223908700EF802FEA7F
:10B65000AA8D15C1D94D05A003552900494781463A
:10B660005A86C545EFD00FB6C8C015E583D7AB00E5
:10B67000C54D2310FA00F64066446E85D64446490F
:10B68000B649264A964A064BF25B625CD25C425D42
:10B69000B25D2561828083D7090091072391F40070
:10B6A000DC4003D7AB009306E101A2972380E700BB
:10B6B0009307140013970701DC4041835E85BA9716
:10B6C00003D7AB0021832380E7000356C1018355D4
:10B6D000A900EFF00FEA13072400D44093073400C9
:10B6E000420711044183C2074204AA8BC1834180EF
:10B6F000369721E1FD562300D700D84083250D0061
:10B70000BA972380D700C84003D6090022959750E6
:10B71000FE1FE780E0AC83D709003E9442044180DD
:10B7200001F8835789002310FA00E3960DF4A94D20
:10B7300099B78356E10183250D002300D700D84037
:10B74000BA970357E10121832380E700C84003D65D
:10B75000090022959750FE1FE78080A883D7090033
:10B760003E9442044180ADB583D7AB002310FA006C
:10B7700045BF814D75B75D71A6C2CAC0AA84035981
:10B78000850003552500A2C44EDE52DC5AD85ED691
:10B7900062D466D286C656DA6AD06ECE2E8BEF7031
:10B7A000BFAE930BD5FF7115131A0501B729002001
:10B7B0000144135A0A01372C0020B72C002093892A
:10B7C00089AF6359741583C6C40083D5A4001307D9
:10B7D000E1001386D4004A85EFF02F8F2A8D630B8A
:10B7E00005120359A500834585000356E10003D5E2
:10B7F0002400EFF05FC36314051283C8440083A6DE
:10B80000CCA30356E10003D52400528881471307D7
:10B810002CA3EA85EFF00FE2930D2CA31388CCA3A1
:10B82000631F050E1DC883D70D0003D729008907A4
:10B83000630CF706B7250020138785AF83572700D1
:10B8400003D52400938585AF3354F4022310870079
:10B85000EF802FB615C5594525A003D524004166B4
:10B860004D4781467D16A545EFD0CF95B7270020DF
:10B8700023A2A9001388C7A31DE123102B0145456E
:10B88000B640264496440649F259625AD25A425B5F
:10B89000B25B225C925C025DF24D6161828083D773
:10B8A0000D0089072391F90083D70D00A29763D378
:10B8B000770783A749000357AD00930A2400A29796
:10B8C0002380E70005049317040103A44900C18302
:10B8D000C20A3E948357AD008325080093DA0A011B
:10B8E000A1832300F40003A5490003D60D0056955B
:10B8F0009750FE1FE780C08E03D40D00C167FD176F
:10B90000569442044180E30EF9EA050942091359AD
:10B91000090145BD294519FC23102B0195B76DDCA4
:10B9200011BF8357050099E309458280411126C262
:10B93000444122C406C64AC083C60400D0402A84BB
:10B9400037B50300894513054509EF704FFF59C509
:10B950008347240025476145E51793F7F70F636B8D
:10B96000F708372900200357099B05451309099B50
:10B9700051C383570400BA974167634DF706916539
:10B980009385257031459740FE1FE780A06BAA8400
:10B990004D45ADC08357040083550900014601475A
:10B9A000B386E500C206C182636CF704AE97C20796
:10B9B000C18319C22310F90023A004002146A285E7
:10B9C000138544009750FE1FE7808081B727002031
:10B9D000938707A498431DEF84C381A083C6040006
:10B9E000D04037B50300894513058509EF702FF561
:10B9F00025F10945B2402244924402494101828026
:10BA000050401315470005072A962315D600054612
:10BA100041BF3E871C43F5FF04C30145E1BF01114F
:10BA200006CE22CC26CA4AC809E98944F2406244BB
:10BA300026854249D244056182802AC62A8428008C
:10BA400036892314B1002305C100EFF09FEDAA84CD
:10BA500071FDE30D09FC8357A400E1DB916593853B
:10BA6000557031459740FE1FE780C05D15C583576F
:10BA7000A40023200500232425012312F500B72765
:10BA800000209387C7A4984301E788C345B73E8742
:10BA90001C43F5FF08C359BFCD4449BFB727002059
:10BAA000938747A303C7070015E305472380E700F3
:10BAB000058909CDB7260020372500209386C69634
:10BAC000414691451305C5926FF07FF5014582808F
:10BAD000B7270020A382A79A8280C167FD1763154C
:10BAE000F5002E856FE02F91411106C6EFE0AF8A79
:10BAF00011C5FD572310F50023010500B240410197
:10BB0000828001114AC806CE22CC26CA85472A89DE
:10BB10006393F5044A85EFE02FBE39E9C16437B677
:10BB200003009385F4FF1307E10089461306C60757
:10BB30000545EFE09FD92A84FD140DC44C444A8585
:10BB4000EFF0BFF90356E10022858146A685EFF0AC
:10BB50004FA22A84DDB789476396F5008545EF201B
:10BB600040394DD9F2406244D24442490561828055
:10BB7000EFE08FB365B7011126CAB7240020938484
:10BB800084D222CC03C7940037240020130444A499
:10BB9000B7270020B726002006CE4AC84EC623206D
:10BBA000040023A407A423AC06A235CB1305200C64
:10BBB0003305A702916593851570938986A3138930
:10BBC00087A49740FE1FE780E04703C694009307D1
:10BBD000200C81453306F60208C09740FE1FE7801F
:10BBE000A0631C4003C7940081459386870B7D5555
:10BBF00063E1E5069306800BB306D7020146FD55C7
:10BC0000B6972320F900BE866364E606F9562390B2
:10BC1000D70099463307D702BA9723A0F90037A572
:10BC200001001305E525EFC0BFD337A501001305BB
:10BC3000E542EF70CFD737A501001305651CEF2053
:10BC40006022F2406244D2444249B2490145056152
:10BC500082802394A6F41386C6F4231006002324BE
:10BC600006003106E31BD6FE85059386860B49B791
:10BC70002390B600A381B6002381B600238206007C
:10BC80000506990651B7411106C622C42A84EFC0A1
:10BC9000AFB1EFD09FF8B72700202382879AB7274C
:10BCA000002003A587A3EFD01FF5B7270020238925
:10BCB000879A2244B24037C50100130525B04101DF
:10BCC0006F20401A93970501C18763D30734B727C4
:10BCD000002003C5479A797122D45AC806D626D2C5
:10BCE0004AD04ECE52CC56CA2E8BEF509FFA2A84A1
:10BCF00029C9034705009307000B6311F704B72414
:10BD0000002085479384C4A3A304F1009C4023151D
:10BD10000100A9E7EF00007F91659385357097409A
:10BD2000FE1FE780203288C015E98347910099C73C
:10BD30008345440013058400EFD02FA62285EF50E1
:10BD40003FEEB250225421653345AB009254025964
:10BD5000F249624AD24A424B45618280372A00202A
:10BD60006146814513058AAF9740FE1FE780C04AB0
:10BD700003494400894793048AAFD289930A8AAF62
:10BD80006314F906EF0000782390A4000355240003
:10BD900093058AAFEF701FC70357240083D70400B1
:10BDA0008356840011ED63E4F6002314F4008355F8
:10BDB00084003A85EFC07FBB2285EFC0DF8DB5B729
:10BDC00063E4F6002314F40083578400D945938676
:10BDD00089AF0D463A852390FA00EFC0DFA38D4569
:10BDE00061DD138589AFD1A09947631AF9029305E4
:10BDF000A1002285EFF0CFC8AA845DDDD947639604
:10BE0000F40E0509035524001379F90FD9459386DB
:10BE100089AF4A86EFC03FA0CA8559DDD9B7A1478F
:10BE20006318F9009305A1002285EFF0DF94E9B7CC
:10BE3000A947631FF906035584006C00EFE0AFE1EA
:10BE40002A89630D05140355240041669306E10019
:10BE500055477D16AD45EFC0FFB6C8C0AA8649C19B
:10BE6000834844000358E1000356C10003552400F1
:10BE7000814713078AAFCA85EFE0DFFBAA84631E00
:10BE8000050E0355240093058AAFEF707FD80DD5BA
:10BE90000355240093068AAF2D46D945EFC0BF97BE
:10BEA000E30C05F0AD4513058AAFEFD00F8F29B72E
:10BEB000B147631BF90E035584006C00EFE0AFD966
:10BEC000AA8469CD0355240041669306E1005947D1
:10BED0007D16B545EFC01FAF23A2AA00AA8629E9A7
:10BEE00083578400C5442315F10003471400D1474C
:10BEF000E304F7EC8347440003552400938589AF9E
:10BF00002380FA008357A10023829A002391FA002C
:10BF1000EF700FCFE30205EA03552400938689AF43
:10BF20000546D945EFC03F8FE30805E8854555BD77
:10BF3000834844000358E1008357A4000356C1001E
:10BF400003552400A68513078AAFEFE0BFEEAA844D
:10BF50000DE50355240093058AAFEF703FD1E30D43
:10BF600005E403552400D94593068AAF3546EFC052
:10BF70009F8AB545E30205E4ADB5D9476393F40064
:10BF8000814403A54A009740FE1FE780E017E38540
:10BF900004E2835784002315F10081BF8357840096
:10BFA00085442315F10091B7B9476318F90093054B
:10BFB000A1002285EFF0AF9681B5C1476318F90063
:10BFC0009305A1002285EFF06FDA3DB5C947631AEA
:10BFD000F900130691009305A1002285EFE0AFF967
:10BFE00021BDD947631DF9009305A1002285EFE02B
:10BFF000AFE7AA84E31405E0A304010075BBE147A1
:10C00000E31CF9DA9305A1002285EFE00FD4EDB32C
:10C0100001458280EDC2011152C42E8A854522CC91
:10C020004EC656C206CE26CA4AC8AA8AB6893284E5
:10C03000EF10306CD1471DC5B727002037270020EF
:10C0400083C787A5834697A5814419E0B684BE8639
:10C0500037270020032707A593974400BA9763ED7D
:10C06000D400D547F2406244D2444249B249224A00
:10C07000924A3E85056182803E89C10703D727FF2A
:10C0800009C7850493F4F40FD9BF25C0956593853E
:10C0900025C0130500029740FE1FE780A0FA232663
:10C0A000A90061D1130600028145938404049740DE
:10C0B000FE1FE78060162311990023000900231357
:10C0C00059011DC43727002083479400032687CBDE
:10C0D0002304F900118C8327C90011841180238E59
:10C0E000870023A029018147B5BF23260900F1B7A6
:10C0F00023044901FDB785473E858280B72700208C
:10C1000083C587A5B727002003A707A581476395A7
:10C11000F50081463685828003562700BA8619C20B
:10C12000E30AA6FE850793F7F70F4107CDB7B727B8
:10C13000002003C687A5B727002003A707A58147CE
:10C140006315F60081463685828083552700BA86BE
:10C1500089C583454700E388A5FE850793F7F70F58
:10C160004107F9BFB727002083C5B7A5B72700202F
:10C1700003A787CB81476395F5008146368582808A
:10C1800003560700BA8619C2E30AA6FE850793F78D
:10C19000F70F4107CDB7B727002003C897A5B727EA
:10C1A000002083A707A501476315E800814636856F
:10C1B000828003D62700BE8619CA03D6670063189B
:10C1C000A600D04709C603562600E302B6FE0507BF
:10C1D0001377F70FC107C9BF411122C4404526C2DA
:10C1E00006C6AA8415C0484409C59740FE1FE780CB
:10C1F000A0F1484809C59740FE1FE780E0F022857E
:10C200009740FE1FE78040F02685414681459740D4
:10C21000FE1FE7806000B2402244FD57A384F40073
:10C22000924441018280011122CC2A8403552500C9
:10C2300006CE2EC6EF103015324622858145EF001E
:10C24000706E22856244F24005616FF0FFF80DC503
:10C2500003572500411122C406C62A8411CBDD45AF
:10C26000EF00307022852244B24041016FF0DFF6CA
:10C27000B2402244410182808280411126C2B146EF
:10C280009304C5FFB386D402B7270020138707CCD9
:10C2900006C622C436978356A7006398B602484361
:10C2A0000DC5138407CC9307F00F6306F600834790
:10C2B0000500639CC7009740FE1FE780E0E4B1479C
:10C2C000B387F402A29723A20700B240224492440B
:10C2D00041018280411122C42E8426C24946AA848B
:10C2E0008145228506C69740FE1FE780E0F2A5C083
:10C2F00083C7C40113974700B727002083A787CBC4
:10C30000BA9703D707002310E40003D7270083D789
:10C3100067002311E40037270020035767A5231285
:10C32000E40003D704002313E40003D724002314FC
:10C33000E40003D744002315E40003D76400231668
:10C34000E40003D784002318F4002317E400B2406C
:10C350002244924441018280B727002083C587A5EB
:10C36000B727002003A887CBB727002003A607A57F
:10C37000014781476394E5003E858280834606003D
:10C3800081CE544691CA83C6C6019206C2966315F1
:10C39000D500850793F7F70F05071377F70F4106C9
:10C3A000D1BF130600643386C50293069500AA85A3
:10C3B00037C501001305E5246F503FF8411122C431
:10C3C00006C62A8403459500EF604F8AFD57A304F3
:10C3D000F400B240224441018280011122CC4AC8BB
:10C3E0004EC652C456C25AC006CE26CA2A89AE8943
:10C3F0000144372A0020B72A00201D4B83479AA505
:10C400006365F40463990902B7290020372A0020E4
:10C41000930AF00F83C789A56367F4061144A1440A
:10C420002285050442041306F00FCA854180EFF00F
:10C43000DFE4E31794FEF2406244D2444249B24939
:10C44000224A924A024B0561828083A70AA593146F
:10C450004400BE9483C704009DC383D764006390E7
:10C4600027036396690103D52400EF10C071268568
:10C470004E868145EF00104B2685EFF0FFD5050471
:10C480001374F40FA5BF83270AA593144400BE9428
:10C4900083C704009DC383C794006380570383D779
:10C4A0006400639C27012685EFF05FF12685D14566
:10C4B000EF00304B2685EFF03FD205041374F40FE4
:10C4C00091BF41677917630BE502411122C406C68B
:10C4D00085472A846399F50022852244B24081452C
:10C4E00041016FF09FEF89476396F5008545EF1096
:10C4F00050207DD1B24022444101828082809D45FE
:10C500006FF0BFEDB727002003D567A58280B7275E
:10C51000002003C747A5011106CE2317A10023164B
:10C52000B10085476318F70070009305E1000545E9
:10C53000EF502029F24005618280A947631CF60470
:10C5400083C7150003C70500A207D98F2310F50084
:10C5500083C7350003C72500A207D98F2311F50033
:10C5600083C7550003C74500A207D98F2312F500E2
:10C5700083C7750003C76500A207D98F2313F50091
:10C5800083C7950003C78500A207D98F2314F50040
:10C59000014582800545828091476314F60283C776
:10C5A000150003C70500A207D98F2310F50083C724
:10C5B000350003C72500A207D98F2311F5000145D7
:10C5C0008280054582809387C5FF93960701C182CB
:10C5D0000D476360D7023147B387E7023727002052
:10C5E000130707CCBA972381A7002390B700014512
:10C5F0008280094582809306402037270020AA8741
:10C6000063F4A60093074020F117231BF7A4B72774
:10C610000020238DB7A4B7270020238EB7A48280E3
:10C620001905956542054111938535C0418106C6BE
:10C630009740FE1FE78000A111C5B240E9554101B6
:10C640006F50AFD8B24041018280B7270020238DC0
:10C6500007A4B7270020238A07A4B7270020A38AAE
:10C6600007A4B7270020A38E07A4B7270020011135
:10C67000239B07A4B7270020238EA7CA4EC63725C1
:10C680000020B7290020130505CC22CC26CA4AC8B1
:10C6900037240020B7240020372900201306000388
:10C6A00081459389B9A506CE52C4230C04A4A38C5A
:10C6B00004A4232809A423800900372A00209740D6
:10C6C000FE1FE78060B5EF10C05403450ACF130486
:10C6D00084A5938494A5130909A515CD9565938523
:10C6E00045C012059740FE1FE780C0953727002000
:10C6F000232CA7CA0DC103460ACF93070ACF83C7CD
:10C7000017002380C900814512062380F40097405A
:10C71000FE1FE78060B0B727002003C507D383C79B
:10C7200004009565938555C03E951375F50F23005C
:10C73000A40012059740FE1FE780C0902320A900A7
:10C7400031C503460400814512069740FE1FE7806D
:10C75000A0AC0327090083460400814725077D56C6
:10C76000639FF6006244F240D2444249B249224AF1
:10C7700037C501001305254C05616F10A06E8507B4
:10C780002300C70093F7F70F4107D9BF2300040028
:10C7900023800400C1BF41119397050126C206C63C
:10C7A00022C44AC0C187AE8463D1070A372900205A
:10C7B0000345C9CBEF50EFCD2A8429CD03470500AF
:10C7C000930700096315F70403471500CD47631C61
:10C7D000F706B72600200348250003C576BC372797
:10C7E00000208347A7A513066400814581461307EF
:10C7F000A7A5AA886318D80299C12300F700834728
:10C80000070091C70345C9CB8545EF507F9022852E
:10C81000EF500FC12165258DB24022449244024958
:10C820004101828083450600AE9793F5F70F93F799
:10C83000F80F63F4A50093F7F50F850693F6F60F4E
:10C840000906854545BF012DD9B793F71500014568
:10C85000E1D7EF00107009CDB727002083C7A7A547
:10C8600081CBB727002003C5C7CB8545EF505F8A32
:10C8700013C5140055B785462A8763FBC60483C7D2
:10C88000150003C60500A207D18F2310F500639C95
:10C89000D70083C7350083C62500A207D58F231193
:10C8A000F50001458280894601456394D70283C71C
:10C8B000350083C62500A207D58F2311F70083C753
:10C8C000550083C64500A207D58F2312F70082804A
:10C8D0000545828091476314F60283C7150003C79C
:10C8E0000500A207D98F2310F50083C7350003C7C1
:10C8F0002500A207D98F2311F50001458280054547
:10C90000828091476314F60283C7150003C70500B0
:10C91000A207D98F2310F50083C7350003C7250070
:10C92000A207D98F2311F500014582800545828039
:10C93000A1476314F60483C7150003C70500A207C7
:10C94000D98F2310F50083C7350003C72500A20740
:10C95000D98F2311F50083C7550003C74500A207EF
:10C96000D98F2312F50083C7750003C76500A2079E
:10C97000D98F2313F50001458280054582808947C0
:10C98000631CF60083C7150003C70500A207D98FF3
:10C990002310F500014582800545828083572600DB
:10C9A00079714ECE06D622D426D24AD01307F0078C
:10C9B000AE896372F70209473AC42316F1003000CA
:10C9C00093F5F50FEF10001BB25022549254025908
:10C9D000F2494561828003574600D9462A8932844C
:10C9E00063F8E6008357660063F4F6006379F700A6
:10C9F00023140100300093F5F90F4A85E1B7035580
:10CA0000060002C4EFF00FF6AA8459C1EFF0DF94DC
:10CA100083C784006369F5001146A246CE854A8526
:10CA2000EF10C00A55B7340026869305F00F4A85EB
:10CA3000EFF04FDE75F1A24703578400DC472390E7
:10CA4000E700035724002391E70003574400239293
:10CA5000E700035764002393E70003D744002394BF
:10CA6000E700DC4485CB93F4F90F2286A6854A853E
:10CA70008297C167FD172A86E311F5FA2245994787
:10CA8000F9452300F50023029500EFF09F912DBF9B
:10CA9000094661B7014651B7A947631CF60483C72D
:10CAA000150003C70500A207D98F2310F50083C71F
:10CAB000350003C72500A207D98F2311F50083C7CE
:10CAC000550003C74500A207D98F2312F50083C77D
:10CAD000750003C76500A207D98F2313F50083C72C
:10CAE000950003C78500A207D98F2314F5000145DF
:10CAF00082800545828083C705002300F50083C737
:10CB00001500A300F50083C7350003C72500A20761
:10CB1000D98F2311F50082802322050003C7450029
:10CB200089476304F7000545828083D665000D4779
:10CB3000E37BD7FE9C45011106CE22CC26CA4AC80B
:10CB40004EC683C4170003C60700A204D18C138607
:10CB500044006311D60403C4370083C72700AE899D
:10CB600022045D8C9307C4FFC207C1832A89636FC7
:10CB7000F70003A589002311990023108900F155BE
:10CB8000EF50AF842322A900014531A02285EFF0A8
:10CB9000EFD665F10545F2406244D2444249B249BC
:10CBA00005618280397122DC2E84834704004AD8D3
:10CBB00006DE26DA4ED619472A89B285639AE70639
:10CBC000034624002800EFF0FFD0AA8415E903559E
:10CBD0008100EFF0AFD2AA898345140015C937E769
:10CBE00001002E86130747AA34009D454A85EF00B1
:10CBF000D0424E850946814535234E85EFF0CFDD85
:10CC0000F250625426854259D254B2592161828031
:10CC100089472310F100835781000A862311F10010
:10CC20008357A1002312F1004A85EF00B074C9BFF9
:10CC30004947639DE702035624002800EFF05FCFC9
:10CC4000AA845DFD37250020130505CC8357C50058
:10CC500099E3814475B703471400834604000345F4
:10CC6000E5003C000146CA85912659BF51476390B3
:10CC7000E702035624002800EFF03F8CAA8449F114
:10CC80008345140030004A85EFF05FD195BF5947C6
:10CC90006393E706035624002800EFF0FF8FAA8471
:10CCA00025F1835581004A85EFF0EFCE1DC9584527
:10CCB0008356A10083570700B697C207C18323108C
:10CCC000F700C1DB5C47D1D7B727002083C7A7A5F2
:10CCD000C9D3B727002003C5C7CB8545EF504FC345
:10CCE00005B789473EC0835781000A8683451400F3
:10CCF0002312F10015BF834514000A86231001009A
:10CD0000EF005067B9B75D71A6C256DA86C6A2C4F5
:10CD1000CAC04EDE52DCAA8A03C51500AE8432C6F4
:10CD2000EFF0EFC0B24501ED8144B64026442685C0
:10CD300006499644F259625AD25A616182802302AE
:10CD400005002311050083C9040085472A84639ADE
:10CD5000F90003C624002808EFF0FFB1AA840549B2
:10CD60002DA09D476394F904034705008D47E31DFB
:10CD7000F7FA03C6240028080549EFF09FB8AA84F3
:10CD800009E5054681452285712E2285EFF00FE3E6
:10CD9000034584003C080147CE862686D685392483
:10CDA000E30509F82285EFF02FC341B7CD47639D16
:10CDB000F900034705009147E318F7F603C624007E
:10CDC0002808EFF0DFBB59BFD547E39FF9F4034ACA
:10CDD00005008947E31AFAF403C624002808054928
:10CDE000EFF09FCBAA8455F183570102BDE30357AF
:10CDF00081011306F0035C44930607FCC206C1825E
:10CE0000636CD6000356A101D94663F7C60083566A
:10CE1000C101D94563EFD500035524002391E700F4
:10CE20000549EF00505603560102D2852285692C30
:10CE3000A9BF8355E1012391E7002392C700239006
:10CE4000B7002393D70085472300F400014A014926
:10CE5000D9BF014AC9BF7971AA8522D426D2035409
:10CE60002500AA84280806D6EFF01FCBF24599E5E5
:10CE700035E985452285EFF08FE9C1A0835781010F
:10CE80001547639BE7060357A1018D4763FCE70441
:10CE90006800EFF05FC60357E100DD4763FCE70081
:10CEA0008345D100B70717008507100822853EC8C3
:10CEB000EF00504C8357E1000357A1019107630530
:10CEC000F7002285EFF0AFE38347C10072466C00A4
:10CED000858B1106228591CFEFF0FFE201C52285F7
:10CEE000EFF0EFE1884451D59730FE1FE780C02175
:10CEF00049B7EFF03FCBDDB711476389E7001387F0
:10CF0000A7FF42074183854663EEE6023147F117EA
:10CF1000B387E70237270020130707CCBA9703D758
:10CF2000070069D303C527003008A2850D205DF9ED
:10CF3000035781019147E31EF7F2B25022549254F5
:10CF4000456182802C082285812E49FDFDB70111A3
:10CF50004AC82A89314526CA06CE22CC2EC6B284BA
:10CF6000EF40DFCE31C1B2459307000A2310F50030
:10CF70002311B5002A84214611058DC0A68597305E
:10CF8000FE1FE780E025A2854A85EF403FD7014597
:10CF9000F2406244D2444249056182808145973023
:10CFA000FE1FE7806027C5B70545DDB7797126D23A
:10CFB000AA841305000206D622D42ECE32CC36CA5D
:10CFC0003AC83EC6EF409FC831C96246F245424763
:10CFD000D246B2472A84130520FA2300A400A300F6
:10CFE000C4002311B4002302E400A302D4001305FB
:10CFF0008400614691CFBE859730FE1FE780401EBA
:10D00000A2852254B2502685925445616F401FCFAD
:10D0100081459730FE1FE7802020DDB7B2502254B3
:10D020009254456182805845797122D406D62A846B
:10D03000AE8649C383572700231DF10093072006BE
:10D04000639FF504B727002003D667A583576700C1
:10D050006373F600B28713F6F70F835527018347F2
:10D0600007018D8F93F7F70F81E5890793F7F70F86
:10D07000B297FD17B3C7C702231EF10083572400E0
:10D080008355640003458400231CF10001473C08DC
:10D090000146EFF0BFF1B250225445618280034750
:10D0A000C701B727002083A787CB1207BA9783D77A
:10D0B0006700D9B72EC61946814528089730FE1F4C
:10D0C000E7808015B2465DBF797122D406D626D29C
:10D0D0002A848DC181470147930600062E86835519
:10D0E000640003458400EFF07FECB2502254925468
:10D0F00045618280B284280059469730FE1FE78040
:10D10000A0112314910089E88357240048446C003F
:10D110002315F100EFF00F9C3C0001479306000639
:10D12000014675BF797106D6814799ED8357250071
:10D1300058452316C1002314F1003C0011C7835742
:10D1400027002315F1003C002E868355650003451A
:10D150008500014793060006EFF05FE5B250456198
:10D160008280411122C406C68347050011472A84E4
:10D170006395E7022E868355650003458500814748
:10D180000147CD46EFF09FE24946835564002244B3
:10D19000B240154541016FF04F8E13F7B70F894626
:10D1A0006317D7000146EFF03FF25146F9BF0D4734
:10D1B0006398E7002244B240014641016FF09FF6B8
:10D1C000B24022444101828003D70500B146B7270F
:10D1D000002071173307D702938707CCBA97D8433B
:10D1E00019EBD8412395A7000145D8C303D72500E3
:10D1F0002394E700828059458280797122D440458A
:10D2000026D24AD006D6AA842E8925C0484419C5FC
:10D210009730FE1FE78040EF232604008357040069
:10D2200083D5640003C584002315F10083572400CF
:10D230000147930640062316F100835784004A866F
:10D240002317F1001C483EC883D724002314F100A3
:10D250003C00EFF0BFD5A30E240123280400B250F8
:10D2600022549254025945618280280031468145FA
:10D270009730FE1FE78040FA83D7240083D56400EF
:10D2800003C584002314F10001473C0093064006C7
:10D290004A86EFF0BFD1E1B7797152CC2A8A03D523
:10D2A000050026D206D622D44AD04ECE56CAAE8427
:10D2B000EFE0DFE419E18547BDA84045AA8965DCB8
:10D2C00083576500E39947FF8357840063870712FC
:10D2D0008346C401B72A002003A78ACB9206FD1714
:10D2E0003697C20703576700C1832314F4006316FF
:10D2F000F70093053006EFF01FD35C48A5EFC84058
:10D30000034915008347050022093369F90083D7D3
:10D31000240013072900631AF702F955EF40FF8A2A
:10D32000C8C02391240103C589002686D285EFF069
:10D330001FC2814721E1B250225492540259F2494E
:10D34000624AD24A3E85456182809565938515C0C3
:10D350004A859730FE1FE780E0CE48C8C840231CAE
:10D360002401F955EF407F8683D72400C8C0F91700
:10D370002391F400484859C503D624008356A401DC
:10D38000835784013308D60063C007090347C401EB
:10D3900083A78ACB95451207BA9783D7270063CF17
:10D3A0000705CC4036959730FE1FE78060E30357B2
:10D3B000A40183D72400BA97C20703578401C1830D
:10D3C000231DF400E399E7EE03D7290003C5890084
:10D3D00030002314E1005848D2852315F1003AC6E5
:10D3E000EFF0FFB611C548489730FE1FE780C0D167
:10D3F000232A0400232C04007DBD99454E85EFE0CF
:10D400009FE255BDA545DDBF9145CDBF03D72500A2
:10D410007DC3B727002083D667A5ED4763EEE60CF2
:10D42000011122CC2E8426CAAA844840914506CEFA
:10D43000EF40AFF983572400AA862300F5008357F5
:10D440002400A183A300F500835704002301F50005
:10D4500083570400A183A301F50003562400C1678C
:10D46000F9171106420641826396F4042AC4314535
:10D4700032C6EF40AFFDAA85CD471DC5930700F921
:10D480002300F5003246F957A2462311F5008947DB
:10D490002302F500B72700202313C50014C503C5D8
:10D4A000C7CBEF40BF858147F2406244D2443E85FE
:10D4B0000561828081452685EF404042AA8711E9B7
:10D4C000B726002003C7A6A565D37D17238DE6A444
:10D4D000E1BF09476304E5021D476303E5024947CD
:10D4E0006302E5027D47E311E5FCB726002003C790
:10D4F000A6A58147D1BFED473E858280D1476DB754
:10D5000091475DB789474DB701114AC831471309A3
:10D51000C5FF3307E902B727002026CA938407CC4A
:10D5200006CE22CCBA94D84029CB138407CCB72797
:10D53000002083C6A7A5854795CA2314A10083D7D9
:10D54000840003D5A4002C003AC62315F100EFF0A7
:10D55000FFEB11C5C8409730FE1FE780E0BAB14726
:10D56000B307F902A29723A207008547F24062445D
:10D57000D24442493E85056182808147C5BF7971A9
:10D5800026D24445372700204AD083D76400035968
:10D5900067A552CC06D622D44ECE56CA2A8A63F349
:10D5A00027013E8903D7240142091359090183D772
:10D5B000040141CB998F4A8463D527011394070155
:10D5C000418089452285EFF0AF85AA89CD4A25C1E2
:10D5D00083D724002AC6231581002314F10083D7A2
:10D5E000240185E383D70401930925002300F50076
:10D5F00083D70401A183A300F5006376240503D437
:10D60000040183D72401CC4422864E85BE959730F1
:10D61000FE1FE780E0BC03556A002C00EFF01FDF1F
:10D62000AA8A15C54E859730FE1FE780E0ADB2503F
:10D630002254568592540259F249624AD24A4561AF
:10D64000828089078DBF7914420441805DBF03D772
:10D65000240183D704003A94FD17C207420403D77C
:10D660000401C18341802390F400239984006377EF
:10D67000E400D5FFFD57A38EF40055BF81455285C8
:10D68000EFF0BFB76DB779714AD03729002052CC7F
:10D69000034AD9A522D456CA5AC85EC662C406D661
:10D6A00026D24ECE5284B72A0020054B930BF00FA2
:10D6B000372C002083A70AA593144400BE9483C985
:10D6C0000400639D6907DC44B5CBD84725CB03D75D
:10D6D000070029CBB727002083C7A7A599CF2685A8
:10D6E000EFF0FFE9AA8515E9B727002083C797A5C2
:10D6F00005046351F402A30E89A4B25022544E854E
:10D7000092540259F249624AD24A424BB24B224CDD
:10D7100045618280A30E09A4CDB72685EFF0FFAD49
:10D720008149E1BF83C7D701639A7701930520063A
:10D730002685EFF05F8FDC44A38E070083479CA50E
:10D7400005041374F40F6363F4000144E31444F715
:10D75000C1BF4111154506C6EFF01FDB09C50545E0
:10D76000B240410182801945EFF01FDA6DF9114591
:10D77000EFF09FD96DF51D45EFF01FD96DF1B7277B
:10D78000002003C597A569DDB24041016FF0BFEFEE
:10D7900083D705000D47F117C207C1836365F706FC
:10D7A000DC41B5C3411122C42E84854526C206C67C
:10D7B000AA84812739C92685992DC167F917638104
:10D7C000F40219ED8357240081CF835604001947D2
:10D7D0006393E60437270020035767A563FDE7023C
:10D7E000B727002083C7A7A5A285268599C722440D
:10D7F000B240924441016FF07FC12244B240924452
:10D8000041016FF07F9C094582805145B24022441E
:10D810009244410182806D45D5BF397126DA4ED6DA
:10D82000AA84AE895D4589454AD806DE22DC328964
:10D8300036C63AC4EFE0DFDE35C522472A8401450B
:10D8400011C7B24613054400B68502979357850069
:10D8500023003401A3002401A301F4009547231CF5
:10D86000F100B727002083C7A7A52301A400110555
:10D87000231DA10022CE2C08268595C3EFF01FB9E9
:10D88000AA8411C522859730FE1FE780E087F250F9
:10D89000625426854259D254B25921618280EFF0F8
:10D8A000BF92F9BFCD44E5B7797126D24AD052CCA8
:10D8B00056CA06D6BA8A22D44ECE19472E89B284C9
:10D8C000368A6396E506035526000944EFE01F8378
:10D8D0002AC635C55C458359650083D72700239048
:10D8E000F400B247B726002015472380570103C62E
:10D8F00056A52391E70093051600A38AB6A42382B8
:10D90000C700D1466319D9002391E400DC4703D74F
:10D9100084002394E7005287A686CA854E85EFF0DF
:10D92000DFEF2A84324515C4EFE01F8B09A8428639
:10D930007400BE85AA89EFE0EFED2A845DD12285CF
:10D94000B250225492540259F249624AD24A456175
:10D950008280F945EFE0FFA4DDB783D705002300FF
:10D96000F50083D70500A183A300F50083D7250028
:10D970002301F50083D72500A183A301F5001145FC
:10D98000828083D705002300F50083D70500A1839B
:10D99000A300F50083D725002301F50083D72500D8
:10D9A000A183A301F50083D745002302F50083D7A7
:10D9B0004500A183A302F50083D765002303F5008A
:10D9C00083D76500A183A303F5002145828083D717
:10D9D00005002300F50083D70500A183A300F5000F
:10D9E0000945828083D705002300F50083D7050011
:10D9F000A183A300F50083D725002301F50083D779
:10DA00002500A183A301F50083D745002302F5007B
:10DA100083D74500A183A302F50083D765002303C4
:10DA2000F50083D76500A183A303F50083D78500A4
:10DA30002304F50083D78500A183A304F5002945BD
:10DA4000828003D705008546AA872300E50003D717
:10DA500005002183A300E50003D70500631DD7005F
:10DA600003D725002301E50003D725002183A30167
:10DA7000E5001145828009456315A70203D72500FB
:10DA800019452381E70003D725002183A381E700FF
:10DA900003D745002382E70003D745002183A382F3
:10DAA000E700828083D705002300F50083D70500B7
:10DAB000A183A300F50083D725002301F50083D7B8
:10DAC0002500A183A301F50011458280797126D23A
:10DAD0004AD04ECEB2842A89AE8929468145480073
:10DAE00022D406D636849720FE1FE780E0722316E4
:10DAF00091008DEC835724002312F100B7270020FA
:10DB000083D767A52314F1005C448DC383C6C70186
:10DB100037270020032787CB920683D787003697C5
:10DB2000035727002315F1002313E10037E7010015
:10DB30004A851307479E540013F6F90FD545EFF0B9
:10DB4000DFCD2A8911C19DE085472300F40023021F
:10DB50000400014681452285EFF00FD7B2502254D0
:10DB60004A8592540259F249456182802285EFE04C
:10DB7000AFE6EDB737E70100B286130727A42E867C
:10DB800085456FF09FC901112317A100B7E6010079
:10DB90004165700001489307F00F0D479386A695E5
:10DBA00099457D1506CEEFF03FD0F24005618280A9
:10DBB000B7E60100B28701482E8611479386269862
:10DBC000C9456FF07FCE37E70100B2861307E79CA7
:10DBD0002E86CD456FF07FC4011122CC3724002062
:10DBE000130484CF26CA4AC84EC606CE2A89AE89F7
:10DBF000930404031C4081C7CE854A858297110493
:10DC0000E31A94FEF2406244D2444249B2490561AB
:10DC10008280B727002003C5F7BC411122C43724F6
:10DC2000002093773500130484D20981A304F40003
:10DC3000AA9706C626C22304F400A5CF1305C00385
:10DC40003385A702A5658505B72400209720FE1F10
:10DC5000E780403F034684009307C00381453306B5
:10DC6000F60223AAA4CE9720FE1FE780E05A83A7DE
:10DC700044CF83468400014789077D566341D7021C
:10DC80002244B24092443725002013060003814508
:10DC9000130585CF41011723FE1F6700E35723902B
:10DCA000C7002381070023A5070205079387C70341
:10DCB000F1B7B2402244924441018280B72700204C
:10DCC00003C607D3B727002003A747CF81476315B3
:10DCD000F600814636858280BA861307C7038355CE
:10DCE00067FCE389A5FE850793F7F70FCDB7011110
:10DCF00022CC2EC632C406CE2A84EFF03FFC224648
:10DD0000B24511E9C167F9176303F4005145F240C8
:10DD100062440561828054558347450095C213F7DC
:10DD2000270141456314A700154575F2C18B3D4598
:10DD3000F9DF83C7A6010145E3FBB7FC3145C1BF4D
:10DD4000C18B0145E9F71545D9B7797126D24AD07B
:10DD5000B7240020416922D44ECE52CC56CA5AC8AC
:10DD600006D6AA890144938484D2372A0020930AD4
:10DD7000C0037D19054B83C784006364F40001452B
:10DD800035A8B307540303274ACFBA9703D7270010
:10DD90006316270105041374F40FF1BF03C5570080
:10DDA000300093856700EFA031131946CE85280017
:10DDB0009720FE1FE780A04BE31E65FDB250225462
:10DDC00092540259F249624AD24A424B45618280DA
:10DDD000B727002083C507D3C166B727002003A754
:10DDE00047CFFD1681476395F50001463285828055
:10DDF000035827003A866306D80003480700E30764
:10DE0000A8FE850793F7F70F1307C703E9BF411172
:10DE100006C6EFF0BFEA11C503554501B240410106
:10DE200082800145E5BFB727002083C607D3B72707
:10DE3000002003A747CF0145814711076393F600F0
:10DE400082800346070001C605051375F50F850797
:10DE500093F7F70F1307C703D5B7B727002003C5FC
:10DE600007D3828037270020930687CF8147130787
:10DE700087CF31468C4291E58A07BA9788C301451E
:10DE8000828085079106E397C7FE4D458280411148
:10DE900006C622C4EFF09FE21DCD2A84035525005B
:10DEA0008545EFF07FD3485409C59720FE1FE780D2
:10DEB000A02522851306C00381459720FE1FE78019
:10DEC000A035FD572311F400230204000145B240A0
:10DED0002244410182800945DDBF411106C6EFF0B1
:10DEE000FFDD11C50345C500B240410182800145F7
:10DEF000E5BFC167F9176304F502411122C406C6E4
:10DF00002E84EFF0BFDBAA87014591C703C5470008
:10DF1000698C33358000B24022444101828005453E
:10DF20008280011106CE2EC6EFF05FD9854711C958
:10DF300003574501B24585476305B700231AB5006D
:10DF40008147F2403E850561828031CD01114AC88A
:10DF50004EC637290020C16922CC26CA52C456C2F7
:10DF600006CE0144AA84130989D2372A0020930AD5
:10DF7000C003FD1983478900634BF400F2406244FB
:10DF8000D2444249B249224A924A0561828033050D
:10DF9000540383274ACF3E95835725006383370177
:10DFA00082940504C1BF8280B727002003C607D32F
:10DFB000B727002083A747CFC166014589070147DE
:10DFC000FD1691456313E600828003D807006309BC
:10DFD000D80003C8A7006315B80005051375F50F31
:10DFE00005071377F70F9387C703E9BFB72700200B
:10DFF00003C607D3B727002083A647CF0147814731
:10E0000091066310E602858393C7F7FFC207C183B9
:10E0100005456364E50285473395A70042054181C4
:10E02000828083C5060081C583D5C602CD8F0507D2
:10E030001377F70F9386C603E9B793F61700E1FE4F
:10E04000050585831375F50FE9B7797156CAAA8A54
:10E050002E8526D24AD04ECE52CC5AC85EC662C455
:10E0600006D622D4AE84328B368CBA8B3E8AC289D5
:10E070004689EFF0BFC449E141657D15EFF01FC44B
:10E080002A84554531CC1946DE8513056400A30268
:10E0900084019720FE1FE780A014835701032311FA
:10E0A0009400230264012319F400835741032300E1
:10E0B000540123260402231AF400230644012317E3
:10E0C000340123182401EFF07FF22318A402232A3D
:10E0D00004022685232C04028145EFF0FFAF0145A1
:10E0E000B250225492540259F249624AD24A424BE7
:10E0F000B24B224C456182804545DDB7B7270020F1
:10E1000083C607D3B727002003A747CF814763956E
:10E11000F60041657D1582803A861307C703835553
:10E1200047FF6395A500035526008280850793F776
:10E13000F70FF1BFB727002003C807D34166B72701
:10E14000002003A747CF7D16814785482D43314ED8
:10E150006314F80001458280835627003A85638264
:10E16000C602545B99CE83C506006397150183C62A
:10E1700016006378DE00828089E583C61600E37CA2
:10E18000D3FC850793F7F70F1307C703D1B7B7275A
:10E19000002083C507D34166B727002003A747CFD8
:10E1A0007D16814725486394F5000145828083569A
:10E1B00027003A85638BC600545B81CA83C616006C
:10E1C000E51693F6F60FE373D8FE850793F7F70F7E
:10E1D0001307C703C9BF894791C909C99547238058
:10E1E000F50083470500A380F50081473E858280C6
:10E1F00039714ED652D4AE892A8A930530054145ED
:10E2000026DA4AD856D206DE22DC32C63689BA8AE7
:10E210009720FE1FE78000E3CD4431C92A8489445A
:10E220006382090432468145231AC1004146972082
:10E23000FE1FE78060FE5686CE8522859720FE1F52
:10E24000E78000FA2146630E0902CA852808972054
:10E25000FE1FE780E0F8A28650082C085285EF30B8
:10E26000005AAA8422859720FE1FE780E0E9F25039
:10E27000625426854259D254B259225A925A216187
:10E280008280814528089720FE1FE780E0F8E1B7EB
:10E2900089478DC505C5411106C6AE871947AA85B0
:10E2A0002380E7001385170041469720FE1FE78073
:10E2B00020F3B24081473E85410182803E858280C5
:10E2C000894795C90DC9411106C625472380E50038
:10E2D00003470500AE871946A380E50093051500A6
:10E2E000138527009720FE1FE78080EFB24081470B
:10E2F0003E85410182803E85828089478DC505C566
:10E30000411106C6AE872147AA852380E700138501
:10E31000170041469720FE1FE78080ECB2408147FE
:10E320003E85410182803E85828089479DCD15CD05
:10E33000411106C61D472380E50003570500AE873F
:10E340002146A380E5000357050021832381E500D2
:10E3500093052500138537009720FE1FE78040E8CE
:10E36000B24081473E85410182803E858280894757
:10E370008DC505C5411106C6AE870D47AA85238008
:10E38000E7001385170041469720FE1FE78040E510
:10E39000B24081473E85410182803E858280894727
:10E3A0008DC505C5411106C6AE871147AA852380D4
:10E3B000E7001385170041469720FE1FE78040E2E3
:10E3C000B24081473E85410182803E8582808947F7
:10E3D0008DC505C5411106C6AE872947AA8523808C
:10E3E000E7001385170041469720FE1FE78040DFB6
:10E3F000B24081473E85410182803E858280B727B9
:10E40000002023A007A6B727002023A207A6B7272E
:10E41000002023A407A637070200B7270020938710
:10E420008797130707A798C337F701001307078AD1
:10E43000D8C337E701001307071F98C7B727002085
:10E4400037070200938747981307C71C98C337F70D
:10E4500001001307E7A6D8C337F701001307A72C5D
:10E4600098C78280C14709CD144DC14791CA784DE4
:10E4700001CB83C73600BD4663F4F60083478701AE
:10E480003E858280411122C43724002026C2930495
:10E4900004A64AC02A89884006C649C5130404A6B2
:10E4A000631E0900834705002146B1CB290597204B
:10E4B000FE1FE780E0D21C400545B9CF4945EF304B
:10E4C000EFF8AA840DC5930710FC2300F500A30004
:10E4D00025010C400905414689059720FE1FE7806C
:10E4E00020D01C40A68503C51700EF303F810840AF
:10E4F0009720FE1FE78040C12320040029A80905BA
:10E500009720FE1FE780C0CDEF30202F054945F54D
:10E510009C40238027010545B24022449244024991
:10E52000410182800145CDBF1C4D639F07164111FB
:10E5300022C426C22A84AE8441459305300506C60E
:10E540009720FE1FE78000B008CCCD47630405107C
:10E55000A68541469720FE1FE78080C883450400BA
:10E56000F9ED7C4C184CD04B5443058A858A6307DF
:10E57000D60083D64701F99A239AD700D04B54434B
:10E5800005828582058A858A6307D60083D647017E
:10E59000F59A239AD700D04B544309828982058A81
:10E5A000858A6307D60083D64701ED9A239AD70060
:10E5B000D04B54430D828D82058A858A6307D6002D
:10E5C00083D64701DD9A239AD700D04B544321824A
:10E5D000A182058A858A6308D60083D6470193F60F
:10E5E000F6EF239AD700D04B54432582A582058AA3
:10E5F000858A6308D60083D6470193F6F6DF239A0F
:10E60000D700D04B54432982A982058A858A6308A2
:10E61000D60083D6470193F6F6BF239AD700D44B92
:10E620005843AD822D83858A058B638AE60003D724
:10E630004701FD769386F67F758F239AE70003C71F
:10E6400014007C4C11CF03C7170019CB9547A301C9
:10E65000F4008147B240224492443E8541018280C9
:10E6600003C72400118B19E703C72701118B19E396
:10E670008547F1BF03C7070083C6040081C5B6877D
:10E68000BA863E871146E147E366E6FCE364D6FCC2
:10E6900095473307F702B7B70300938707B6BA97D2
:10E6A000B69783C7070065B7C5473E858280AE87AA
:10E6B00015C5784D05C7834607002380D5008346DE
:10E6C0001700A380D500834627012381D500834608
:10E6D0008701584BA381D500D8C18280414681452E
:10E6E0003E851723FE1F670023B3B727002083A7AB
:10E6F00047A691C703A3870063030300028309456C
:10E700008280011122CC2A84494506CEEF60CFD009
:10E7100015C12AC62285EFF06FDA09CD6244B7270A
:10E720000020324683550503F24003C5B7D2056188
:10E730006F305FAFF240624405618280797126D20A
:10E740009947231DB100AA842E858D4522D406D673
:10E7500032C636C4231CF100EFD09FEC2ACE4D44C4
:10E760001DC13246A246AA85328582962A8419E5C1
:10E770002C082685EFF0CF812A8411C57245972099
:10E78000FE1FE78060982685EFF0BFF72285B25024
:10E790002254925445618280011122CC9305C50117
:10E7A0002A8441460A8506CE9720FE1FE78040A3B3
:10E7B00003554400B7E601000A869386E636C54550
:10E7C000EFF0DFF7F240624405618280011122CC54
:10E7D0009305C5022A8441460A8506CE9720FE1F6E
:10E7E000E78000A003554400B7E601000A8693863F
:10E7F000E639C545EFF09FF4F2406244056182803E
:10E80000B7E601002E8693860629C5456FF01FF3F3
:10E810000111B28722CC2300B1002A84BE851305E2
:10E820001100194606CE9720FE1FE780609BB7E6D1
:10E8300001000A8622859386062CA145EFF01FF081
:10E84000F240624405618280B7E601002E8693861D
:10E85000A62FC5456FF09FEE0111B28722CC231081
:10E86000B1002A84BE8513052100214606CE9720DB
:10E87000FE1FE780E096B7E601000A8622859386B0
:10E88000A632AD45EFF09FEBF24062440561828015
:10E89000B7E601002E869386E63CC5456FF01FEA79
:10E8A000011106CE22CC26CA834405008547639B0E
:10E8B000F4048347150019472A84639AE7041C4D22
:10E8C00083D7470013F7071019C7784D035747013F
:10E8D0001377071021E313F7072001CB784C035778
:10E8E000470113770720631B071093F7074081CB7D
:10E8F0007C4C83D7470193F7074063920716C947BB
:10E90000A300F400F2406244D244056182803147A2
:10E910006398E70A3C5085E39305300571459710ED
:10E92000FE1FE780207228D019C5714681459720C7
:10E93000FE1FE780608E2450B9C883C7A40191E709
:10E940002285EFF03FB2238DA40081452685414604
:10E950009720FE1FE780408C28503D478345A50146
:10E960009387F5FF93F7F70F6364F700EF504FF1CC
:10E97000EF306FD13C50A1452398A70013852701A4
:10E98000EF500FF02C5003554400EFF07FE7B547F0
:10E9900003554400A300F400EFF04FB2414611C507
:10E9A0008357E50013D617003E966244B727002030
:10E9B000F240D24403C5B7D2854505616F309F86CA
:10E9C0003547639AE7023C5189CB83D5070103554C
:10E9D000450013862701EFF03FE81C4C83D7470022
:10E9E00013F7072039CB784C0357470113770720DB
:10E9F00029C7B94771BF3947639BE700EF50DF98DC
:10EA0000AA8503554400EFF03FE4BD4751B73D47A9
:10EA10006394E704EF50BF96AA85630D9502814584
:10EA200026852EC6EF50BF932A86B2450355440073
:10EA3000EFF01FDE1C4C83D7470093F70740E380BD
:10EA400007EC7C4C83D7470193F70740E38907EA3B
:10EA5000C1473DBF8144E9B74147E392E7EAEF5040
:10EA60005F93AA8503554400EFF09FE249BD797199
:10EA700006D622D426D283440500A5E48347150098
:10EA800019472A846394E7067C4D83D7470113F71F
:10EA9000170011C7184D03574700058B39EB13F7C3
:10EAA000270019C7184C03574700098B6315071433
:10EAB000918B99C71C4C83D74700918B639C071897
:10EAC0007C4C83D7470113F70710630D0718184CC8
:10EAD000035747001377071063060718B147A300D1
:10EAE000F400B25022549254456182801D476397CE
:10EAF000E70C3C5089EB9305300571459710FE1FDC
:10EB0000E780405428D02450C9C02285EFF09F955B
:10EB1000238DA4008145268541469710FE1FE7807E
:10EB2000A06F28503D478345A5019387F5FF93F7D4
:10EB3000F70F636DF702B727002083C777EEA5CFE5
:10EB40004146814508089710FE1FE780E06CB72515
:10EB500000201946938585C108089710FE1FE7809D
:10EB6000206830500C082E85EF101171EF30AFB1D6
:10EB70003C50A1452398A70013852701EF504FD0A3
:10EB80002C5003554400EFF0BFC7A1470355440084
:10EB9000A300F400EFF08F92414611C58357E500C2
:10EBA00013D617003E96B727002003C5B7D2854578
:10EBB000EF304FE73DB7EF50AFCC4DBF21476399E2
:10EBC000E7023C5189CB83D50701035545001386E5
:10EBD0002701EFF07FC87C4C83D7470113F727004C
:10EBE00021CF184C03574700098B39C7A54779BF78
:10EBF0002547639BE700EF502FF9AA850355440092
:10EC0000EFF09FC4A94759B729476392E704EF5033
:10EC10000FF78547AA856304F5008145854426855D
:10EC20002EC6EF50CFF32A86B24503554400EFF0CD
:10EC30003FBE7C4C83D74701918BE38307E81C4C94
:10EC400083D74700918BE38D07E6AD4781B72D470A
:10EC5000E398E7E6EF50EFF3AA8503554400EFF0A1
:10EC60003FC3B9BD13F7072009CB184C0357470022
:10EC70001377072019C3B9479DB593F7074089CB90
:10EC80001C4C83D7470093F7074099C3C14781BD08
:10EC9000C947B1B515CD01118A8522CC06CE2A848B
:10ECA000EFF0FFA0834704000355440089CFB70667
:10ECB0000200938606870A869D45EFF03FA8F24042
:10ECC000624405618280B70602009386A687E5B795
:10ECD00005458280B7270020AA8503C5B7D26F30CB
:10ECE0004FF4411122C4405926C206C6AA8431C439
:10ECF000084C09C59710FE1FE7800041285009C540
:10ED00009710FE1FE7804040685009C59710FE1F0E
:10ED1000E780803F285409C59710FE1FE780C03E5A
:10ED2000685409C59710FE1FE780003E22859710A2
:10ED3000FE1FE780603D23AA0402224403D504039A
:10ED4000B240924441016FF0FFF8411126C206C65D
:10ED500022C4AE84EFE09FF621C54C592A84A9C194
:10ED600083A8C50603A88506FC51B85183C6650073
:10ED700003D6450083C505002685EF501FF2228586
:10ED8000EFF03FF6EFF0AFC001CD2244B7270020EF
:10ED9000B240924403C5B7D2854541016F304FB7A9
:10EDA000B2402244924441018280411122C4405920
:10EDB00026C206C67C4CAA8483D7470113F70710E6
:10EDC00019C7184C03574700137707101DE313F7B3
:10EDD000072019C7184C035747001377072011EB7A
:10EDE00093F707409DCB1C4C83D7470093F7074010
:10EDF0008DC79947A300F4002285EFF07FAA03474F
:10EE00001400C947631FF700224403D52400B24011
:10EE10009244814541016FF05FF3C947A300F400BC
:10EE2000E5B7B2402244924441018280411106C6B6
:10EE300022C426C2EFF00FB039C14059AA8421C0C4
:10EE40008347040085CBB727002083A747A689C73F
:10EE5000DC4399C32285829703471400C947631096
:10EE6000F702224403D52400B24092448145410177
:10EE70006FF0BFEDB727002083A787A6C9BFB240B8
:10EE80002244924441018280411126C24AC006C6F2
:10EE900022C4AA842E89EFE07FE20DCD405955C4EB
:10EEA000835744006393970A834714001947639577
:10EEB000E70883470400A5CF7C4C83D7470113F7AD
:10EEC000170005C3184C03574700058B19CB9D4706
:10EED000A300F400B2402244924402490545410196
:10EEE000828013F7270001CB184C03574700098B8A
:10EEF00019C3A547F1BF918B81CB1C4C83D7470029
:10EF0000918B99C3AD47E9B7B727002083A747A6E0
:10EF1000F1D3DC43E1D32285829703471400C9472C
:10EF20008145E319F7FA2685EFF03FE265B7B72789
:10EF3000002083A787A6E9BF45476398E7006304DD
:10EF4000090013092003CA85F9BF631C090026853F
:10EF5000EFE0DFD619C58347450093E70701230299
:10EF6000F500A6854A85EF500FE8ADB74111B7E629
:10EF7000010022C42E862E849386661D894506C60E
:10EF800026C24AC02A89EFF06FFB83450400AA8499
:10EF90004A85EFF09FDBB240224426850249924425
:10EFA00041018280B727002083A787A695CB9C4389
:10EFB00085CB797122D406D6984110082A843AC8A4
:10EFC000D84185453ACA829701C92306A100035555
:10EFD00024006C00EFF09FF9B2502254456182800A
:10EFE0008280011122CC06CE2A842EC6EFE01FCDEE
:10EFF0005C5991CF83D74700B245639A8700854714
:10F000006397F5006244F24005616FF09FCDF240D6
:10F01000624405618280411106C6EFF02F8EC16700
:10F02000FD176307F500B240DD4541016FF0FFD1E8
:10F03000B240410182802300B5008280011126CABE
:10F040004EC6AE84AA8993053005130500034AC84D
:10F0500006CE22CC32899710FE1FE780A0FE2DC578
:10F060001306000381452A849710FE1FE780C01A0B
:10F070004146CE8522859710FE1FE7802022A68577
:10F080000D461305D4019710FE1FE78020211306BB
:10F090000402930504012285EF10111EAA840D4677
:10F0A0009305D4024A859710FE1FE780201F228512
:10F0B0009710FE1FE7804005F240624426854249D2
:10F0C000D244B24905618280CD44FDB781474146B3
:10F0D000B306F5003387F5000347070003C80600B1
:10F0E0008507334707012380E600E393C7FE82804C
:10F0F0005D714EDE62D4AE892A8C9305300513050E
:10F100000003A6C2CAC052DC56DA5AD85ED686C6FA
:10F11000A2C4B28B368BBA84BE8A4289468A9710C3
:10F12000FE1FE78020F263050510130600038145EA
:10F130002A849710FE1FE780200E4146E285228533
:10F140009710FE1FE7808015414681450A8597107C
:10F15000FE1FE780600C1D46DE850A859710FE1FA6
:10F16000E780C0131D46DA85130571009710FE1F56
:10F17000E780C01233392001B33490004146814505
:10F18000080823072101A30791009710FE1FE780BD
:10F19000A0081946D68548089710FE1FE780001082
:10F1A0001946D2851305A1019710FE1FE780000FB5
:10F1B000930404014146CE8526859710FE1FE78003
:10F1C000E00D8A852685EFF07FF0930904024E86D4
:10F1D000A6852285EF10510A2A890DE94146CE8580
:10F1E00026859710FE1FE780A0FF0C082685EFF00C
:10F1F000FFED4E86A6852285EF1011082A89464527
:10F200004146CE859710FE1FE78040092285971062
:10F21000FE1FE78060EFB64026444A8596440649C3
:10F22000F259625AD25A425BB25B225C61618280BF
:10F230004D49D5B7011126CA52C4AA842E8A130596
:10F240000003930530054AC84EC606CE22CC32894B
:10F25000B6899710FE1FE780E0DE35C52A84A685B3
:10F2600041469710FE1FE780600393040401214686
:10F27000D28526859710FE1FE7804002CA85214669
:10F28000130584019710FE1FE78040011309040253
:10F29000A6854A862285EF10217EAA844146CA852A
:10F2A0004E859710FE1FE78060FF22859710FE1F96
:10F2B000E78080E5F240624426854249D244B24963
:10F2C000224A05618280CD44F5B75D71A2C4A6C211
:10F2D0004EDE52DC86C6CAC0AE89328AAA84EFE00E
:10F2E000FF9D4059414681450A859710FE1FE780E2
:10F2F000A0F241CC035944006319990883470400E4
:10F30000C9E70347140099476313F7041408130669
:10F31000C4049305C40213057400EFF0BFF135E592
:10F320002285EFF02F942A860C080A859710FE1F7D
:10F33000E78000EB8A854A85EF20604D0545B640A1
:10F34000264496440649F259625A616182802C50E3
:10F350008DCDC54683D705016310D70A6312FA0223
:10F360002146C9054E859710FE1FE78040F085476E
:10F370006318F5002285EFF0EF8E2A862C5075B7C2
:10F38000930520032685EFF05F9C2685EFE01F9311
:10F390002A8459C14C55C9C183D70501639E4707CB
:10F3A0002146C9054E859710FE1FE78040EC854732
:10F3B0002A896313F5064C540A8503C6A5019710E4
:10F3C000FE1FE780E0E1B727002083C7579C91C765
:10F3D0005C5483C7B701639A270FBD452685EF208C
:10F3E000403DB727002083A787BE0145A9DB1D4507
:10F3F000894582970145A1B7E319FAF82146C90565
:10F400004E859710FE1FE78080E68547E31FF5F6DF
:10F410002C5003C6A50111BFB727002003C787EEF4
:10F42000B7290020938989BB058B3E8931C3B72753
:10F4300000200347540083C707EE631BF702B7257C
:10F4400000201946938515EE130564009710FE1FE2
:10F45000E780E0E18547631DF50083A7090381C7C5
:10F4600091451D458297BD452685EF208034F9B52D
:10F4700037270020034777EE83A7090331CB0347E3
:10F4800089EE098B09CB81C795451D458297268555
:10F49000EF20203865B581C78D451D4582974146CF
:10F4A000814508109710FE1FE78000D7B725002080
:10F4B0001946938585C108109710FE1FE78040D23A
:10F4C0000C100A862E85EF10215B8A852685ADB546
:10F4D0008545C5FF6DBF8147C1463307F500B38839
:10F4E000F5000347070083C808003308F6008507C6
:10F4F000334717012300E800E391D7FE82800147DC
:10F50000BD471308F00F3306F50083460600B388A5
:10F51000F500FD178606558F2380E8000347060097
:10F5200093F7F70F1D83E39007FF828081479308CD
:10F5300000F8414893F6F70F3387F50063FCC600E7
:10F54000B306F50083C606002300D7008507E393C2
:10F5500007FF82806395C60023001701C5BF230003
:10F560000700EDB701114AC856C22E89AA8A930531
:10F570003005414506CE22CC26CA4EC652C4328A38
:10F580009710FE1FE78000ACAA8493053005414523
:10F590009710FE1FE78000AB2A84CD49A5C431CD6A
:10F5A000414681459710FE1FE78000C72686A28549
:10F5B0005685EF10614CAA8929E18387040063D343
:10F5C0000706A2852685EFF09FF3B7B503004A86AC
:10F5D0009385C5B72285EFF01FF08307090063D834
:10F5E0000704A2854A85EFF09FF1B7B50300528664
:10F5F0009385C5B72285EFF01FEE26859710FE1F75
:10F60000E78080B011C422859710FE1FE780C0AF4D
:10F61000F24062444E85D2444249B249224A924A5B
:10F6200005618280CA852685EFF07FED7DB7D285A2
:10F630004A85EFF0DFECD1B739715AD05ECE2A8B14
:10F64000AE8B41459305300506DE26DA52D456D2FC
:10F6500062CC66CA6AC8368C328DBA8C22DC4AD833
:10F660004ED69710FE1FE780E09DAA8A93053005CD
:10F6700041459710FE1FE780E09C2A8ACD44638EA7
:10F680000A0859C52A86D6855A85EFF0BFEDAA84A7
:10F6900041E19305300541459710FE1FE780809AB0
:10F6A0002A899305300541459710FE1FE780809910
:10F6B000AA89630A090E6306050E1304FD0011846E
:10F6C0001376FD0049C07D144204418035EE1315C8
:10F6D00044004E86D6855E95EFF0FFDF41468145BA
:10F6E0004A859710FE1FE78020B3014D93170D0147
:10F6F000C18363F48708BDC04A859710FE1FE78069
:10F70000A0A0638709004E859710FE1FE780C09F69
:10F7100056859710FE1FE780209F63070A005285D9
:10F720009710FE1FE780409EF25062542685425992
:10F73000D254B259225A925A025BF24B624CD24CCA
:10F74000424D216182800144131544008A855E95F3
:10F75000EFF0DFDD4E86D2850A85BDBF93154D00E3
:10F760000A86DE954A85EFF01FD74A868A855A8534
:10F77000EF108130AA84050D95BFBDFC0A86CE85A9
:10F780004A85EFF05FD54A868A855A85EF10C12EEB
:10F79000AA846686CA8562859710FE1FE78040A40A
:10F7A000A1BFCD4491BFCD44A9BF894761C2DDCD82
:10F7B0002300A60083C70500A300F60083C7150039
:10F7C0002301F60083C72500A301F60083C7350097
:10F7D000A30206002302F60083D74500A183858B90
:10F7E000A302F60003D745001377072009C793E764
:10F7F0002700A302F60083D7450093F7074099C777
:10F800008347560093E74700A302F60083D74500DD
:10F8100013974701635807008347560093E7870013
:10F82000A302F6002303060083C74500858B23034C
:10F83000F60003D74500098B09C793E72700230388
:10F84000F60083D74500918B99C78347660093E7FD
:10F8500047002303F60003D745008147218B19C7D2
:10F8600003476600136787002303E6003E85828016
:10F870002E86AA8505456FF05FF32E86AA85094579
:10F880006FF0BFF24DC95971A2D42A8403554500C7
:10F89000A6D2CAD0CECED6CA86D6D2CCDAC8DEC6DA
:10F8A000B68AB2892E89EFE06FC1AA8439C50C18D7
:10F8B0002285EFE0DFDF83470400138A6400A9CBD1
:10F8C000EF40FFAB2A8B014583CB5400EF403FA9AB
:10F8D000AA840C100818EFF0BFF9084C2C10EFF0B8
:10F8E000DFF9D288268A56C05E88D2875A871410DC
:10F8F0003010CE854A85EFF0AFFFB65026549654AF
:10F900000659F649664AD64A464BB64B656182802F
:10F91000EF40FFA6AA8B014503CB5400EF403FA464
:10F920002ACE084C0C10EFF0BFF42C100818EFF0A2
:10F93000DFF4F2484DBF8280894791C909C9AD47BC
:10F940002380F50083470500A380F50081473E85AD
:10F950008280011122CC4AC806CE26CA2A84EFE052
:10F96000BFBC2A8901CDE1476302F5102149F2406D
:10F9700062444A85D2444249056182807C4C83C7F7
:10F980002701858B91CF1C4C054783C727008D8BA2
:10F990006398E7008347640093E717002303F400AC
:10F9A0008344340089476391F4020355440085453C
:10F9B000EF506FC78347640093E747002303F400C9
:10F9C0008D47A300F40065B70D476390E40203552B
:10F9D00044008945EF502FC583476400A30094007D
:10F9E00093E747002303F40059B71147E38FE4FA84
:10F9F00005476390E40493047400A300F4004146B7
:10FA0000814526859710FE1FE78000811306C402FA
:10FA10003285C14532C6EF40AFE6324622859306B5
:10FA2000C401A685EFF01FE62285EFE0FFD621D1C5
:10FA300035BF1547E39DE4F293047400A300F4007E
:10FA40004146814526859700FE1FE780E07C6C4C8F
:10FA50004146268589059700FE1FE7806078834729
:10FA6000640093E747002303F4004DB70D4901B745
:10FA7000397122DC405926DA4AD84ED606DEAA89E8
:10FA8000AE8432896308042003552500835744005F
:10FA9000638BA700A144F250625426854259D25488
:10FAA000B259216182808347040099E39D44E5B700
:10FAB000AD47E3EDB7FE9387E5FF93F7F70F2547D3
:10FAC000E366F7FE37B703008A07130747AEBA9716
:10FAD0009C438287B2852285EFF0BFE7AA8465BF89
:10FAE0004146CA851305C4039700FE1FE780406F97
:10FAF0002285EFE0BFCDAA8411C1A1449547A300A0
:10FB0000F40051BF9309C404CA8541464E8597004D
:10FB1000FE1FE780E06C1309740014084E86CA8546
:10FB20002285EFF03FD641469305C40308089700AD
:10FB3000FE1FE780C0738547E31FF5F48A8613062E
:10FB4000C402CE854A85EFF0EFEE11ED2285EFE09D
:10FB50007F912A8703554400814601468A85EFE05C
:10FB60002FE9AA8411C1A144994751BF034714004A
:10FB70009D47E31DF7F27C5089EB930530057145F5
:10FB80009700FE1FE780004C68D0685005D14146C1
:10FB9000CA859700FE1FE780A0642285EFE09F8C56
:10FBA0007C50238DA700A147A300F4008144E5B554
:10FBB0006850E30D05EE03471400A147E318F7EE84
:10FBC000835706009305290021462318F5004905AF
:10FBD0009700FE1FE780C0607C4C83D7470113F776
:10FBE00027002DC3184C03574700098B21CFA54789
:10FBF00065BF03471400A547E31AF7EA3C5481EBBD
:10FC0000854559459700FE1FE780C04328D42854F6
:10FC100019C54146CA859700FE1FE780605CA94769
:10FC200061B703471400A947E312F7E828541946BF
:10FC30009305190041059700FE1FE780605A7C4C30
:10FC400083D74701918B95CF1C4C83D74700918B6D
:10FC50008DCBAD4791BF7C5489EB93053005514561
:10FC60009700FE1FE780003E68D46854E30405E275
:10FC70004146CA859700FE1FE78080567C547D5719
:10FC800098CB4E85EFF06F9215B783450600EFF0E5
:10FC9000CF8B29BFAD47E39BF5F083460600835524
:10FCA00025001306650003450500EF407FA4FDBD58
:10FCB00015C1AA8709458DC141112E8541469385FD
:10FCC000170006C69700FE1FE7808051B24001452D
:10FCD0004101828009458280828089471DC595C582
:10FCE000411106C603471500AE8719462380E5007B
:10FCF00093052500138517009700FE1FE780404EEF
:10FD0000B24081473E85410182803E85828015C197
:10FD1000AA8709458DC141112E854146938517005B
:10FD200006C69700FE1FE780A04BB2400145410187
:10FD3000828009458280828089471DC995C9411109
:10FD400006C60347250083461500AE872207558F58
:10FD50002390E50021469305350013852700970081
:10FD6000FE1FE780E047B24081473E854101828027
:10FD70003E85828015C1AA8709458DC141112E8516
:10FD800041469385170006C69700FE1FE780404551
:10FD9000B240014541018280094582808280094745
:10FDA00011CD89CD83471500A14601472380F50079
:10FDB000FD1793F7F70F63F3F60061473A858280EA
:10FDC00015C1AA8709458DC141112E8541469385EC
:10FDD000170006C69700FE1FE7808040B24001452D
:10FDE000410182800945828082808947630905102C
:10FDF00063870510411106C622C426C28347150039
:10FE00002E842380F50083472500A380F5008347D7
:10FE100035002381F50083474500A381F500834722
:10FE20005500858B9396870083D7450093F7F7EFAE
:10FE3000D58F2392F5008346550093F7F7DFA2068E
:10FE400093F60620DD8E2392D5000347550093F6E6
:10FE5000F6BF220713770740558F2392E5008347AB
:10FE60005500FD769386F67F8D83858B758FAE0763
:10FE7000D98F2392F50083466500F99B858ADD8E34
:10FE80002392D500034765009377270013F7D6FF29
:10FE90005D8F2392E5008347650093F647009377D3
:10FEA000B7FFD58F2392F50003476500DD9B4D45D5
:10FEB000218BD98F2392F500EF401FD6AA8451459C
:10FEC000EF409FD50347340093F4F40F1375F50FFB
:10FED000C94763609702636EE500834604001147DB
:10FEE000E1476368D7008346140005476363D70082
:10FEF0008147B240224492443E85410182803E8542
:10FF0000828015C1AA8709458DC141112E854146C0
:10FF10009385170006C69700FE1FE780602CB2404D
:10FF2000014541018280094582808280797122D415
:10FF30002A84084506D626D22306010083440500FC
:10FF400029479387F4FF93F7F70F6362F70C37B7EE
:10FF500003008A071307C7B0BA979C4382870C082F
:10FF6000EFF0BFE8C9476312F50299472306F10095
:10FF7000035524006C00EFE07FFFB25022549254EE
:10FF8000456182800C08EFF0FFDE29C98347C1007C
:10FF9000E5F303552400EFE0CFF6C5B70C08EFF00A
:10FFA0003FE2E5B70C08EFF09FDFC5B70C08EFF0B4
:10FFB0003FD0E1BF0C08EFF03FD8C1BF0C08EFF015
:10FFC0001FD5E1B70C08EFF05FD1C1B70C08EFF017
:10FFD0005FF365BF834715002308F1000355240034
:10FFE000EFD0DFCDA1470DC10347C5006313F70272
:10FFF000B727002003A747A69D4719C7184309C77D
:020000022000DC
:100000001008A6850297AA872306F10041B79D47ED
:10001000B1BFB727002003A787A6F9BF411122C4AB
:1000200006C603470500930720092A846313F70ACD
:100030008347150039476393E702835645000967F4
:10004000610781476392E6081C452244B24003C51C
:1000500007009385170041016FE0CFC21307E0034B
:100060006397E708034725009547631EF70203558A
:100070004500EFD09FE691476304F5008547A9A0AE
:10008000B727002083A787A6F5DB03A38700E30734
:1000900003FE0356E4000355440093056400224424
:1000A000B24041010283A147631BF700834564000E
:1000B000035544002244B24041016FE0FFDC930647
:1000C00000038147E304D7FEB24022443E8541014C
:1000D00082809306000A8147E318D7FEEFF01FE500
:1000E000084449DD9700FE1FE780000241BF8147B9
:1000F000E1BF411122C426C206C62A84EFE0CFC266
:10010000AA8419C9E1476301F50CA144B240224415
:1001100026859244410182802285EFE0BFB76C4C76
:1001200083C72501858B91CF1C4C054783C72700CA
:100130008D8B6398E7008347640093E717002303E0
:10014000F4008347340009476391E702894503556A
:100150004400EF405FCD8347640093E747002303EB
:10016000F4009147A300F40055B79386D7FF93F6A8
:10017000F60F05466364D6008545D1BF6392C7027A
:10018000A300E40041468145130574009700FE1F5B
:10019000E7808008C1451305C402EF307FEEBDB78C
:1001A0009546E395D7F6A300E4004146890513057B
:1001B00074009700FE1FE780A0028347640093E766
:1001C00047002303F400F9B78D4489B7797122D42D
:1001D000405926D24AD04ECE06D6AA89AE8432895C
:1001E000630A04200355250083574400638BA7004E
:1001F000A144B2502254268502599254F2494561D5
:1002000082800347040085476314F7009D44D5B7F7
:100210009387F5FF93F7F70F2547E369F7FE37B7A5
:1002200003008A07130787B3BA979C438287B28576
:100230002285EFF01FECAA846DBF4146CA851305E5
:10024000C4039700FE1FE780A0F9034714009147FD
:100250006305F7029306C4011306C40293057400F4
:100260002285EFF02FE22285EFE00FD3AA8411C19F
:10027000A1449547A300F400ADBF8D47A300F4004F
:10028000814485BF9307C4043E85CA8541463E89A3
:100290009700FE1FE780C0F48A864A8693057400A3
:1002A0002285EFF02FDE41469305C4030A859700AF
:1002B000FE1FE780C0FB8547E31DF5F22285EFE0D6
:1002C000EFD0AA8415F5994775B703471400B147D5
:1002D000E31EF7F27C5089EB9305300571459700DA
:1002E000FE1FE78020D668D068500DD14146CA85F0
:1002F0009700FE1FE780C0EE2285EFE0AF967C50AE
:10030000238DA700B5479DBF6850E30105F0034763
:100310001400B547E31CF7EE835706009305290048
:1003200021462318F50049059700FE1FE78040EBA2
:100330007C4C83D7470113F707203DC3184C035764
:1003400047001377072029CFB9470DBF0347140093
:10035000B947E31DF7EA3C5489EB9305300559454D
:100360009700FE1FE78000CE28D4285419C54146C7
:10037000CA859700FE1FE780A0E6BD4701B7034787
:100380001400BD47E314F7E82854194693051900F3
:1003900041059700FE1FE780A0E47C4C83D747010E
:1003A00093F707409DCF1C4C83D7470093F7074036
:1003B0008DCBC147E1B57C5489EB930530055145A0
:1003C0009700FE1FE78000C868D46854E30205E286
:1003D0004146CA859700FE1FE78080E07C547D5728
:1003E00098CB03D529008145EFE03F9651BD834569
:1003F0000600DDBF8547E395F5E8032846008347FF
:100400003600034726008346160083552500034621
:1004100006000145EF406FA4A5B5011126CA06CE1E
:1004200022CC89441DCD95CDAA842E8468008D45AB
:10043000EF301FC58347E1002685228693F7F70337
:1004400093E707046C002307F100EFE03FBFAA84A5
:1004500009E90D466C00130534009700FE1FE78084
:1004600020D8F24062442685D244056182805D71C5
:100470004EDE86C6A2C4A6C2CAC052DC56DA5AD81C
:100480005ED6894945CD5DCA138B4500420B135B8F
:100490000B01AE8A2A8A930530055A85B2849700EB
:1004A000FE1FE78020BA2A84CD4949C9EF301FEFEB
:1004B0002A895686D285935A8900135A0901937B5B
:1004C000F90F1305440093FAFA0F137AFA0F135930
:1004D00089019700FE1FE78060DCA30174012301FE
:1004E0005401A300440123002401EF309FEAAA85B0
:1004F000414608089700FE1FE78040DA2147340094
:100500005A86A2850808EFF02F93AA891DE121469B
:100510002C0023807401A380540123814401A38112
:100520002401138544009700FE1FE78020D7EF3099
:10053000BFE722859700FE1FE78000BDB640264436
:100540004E8596440649F259625AD25A425BB25BD2
:1005500061618280011106CE2AC6EFD05FEA324582
:10056000B72700209945A385A7D2EFC0CF85F240D9
:1005700037F50100130525FE05616FD0BF8EB72743
:10058000002083C7C7D2A18B89C7B72700209387D4
:100590008797372700202322F7A6014582807971AB
:1005A00052CC2A8A2E8506D622D426D24AD04ECEC6
:1005B0002EC6EFD0AFF045C5405945C4834734003F
:1005C0008949F91793F7F70F63EDF908835744004A
:1005D000B24589446394B706130974004146D28535
:1005E0004A859700FE1FE780A0BF1306C40232852C
:1005F000C14532C6EF30DFA832469306C401CA8532
:100600002285EFF02FA803470400834714000DC391
:100610000D4781446394E702A300340122852254EC
:10062000B25092540259F249624A45616FE0CF9646
:100630001147639EE700A30094008144B250225406
:10064000268502599254F249624A456182800D47DB
:100650008144E395E7FE9547A300F400C1B78944C0
:10066000F1BFC944E1BF79719397050122D406D641
:1006700026D24AD04ECEC1872E8463D50704B72434
:100680000020938484D203C53400EF108FE02AC683
:1006900011CDEFF0BF98B24519E503C524009307CB
:1006A000F00F631EF5002E85EF108FD72165218D89
:1006B000B250225492540259F24945618280EF109F
:1006C000EFE3EDB793F7150091C7EFE02FF6134571
:1006D0001400F9BF8DE90145E1BF850493F4F40FDF
:1006E000EFD0AFF7E3F9A4FE339599001319050194
:1006F00013590901B3772401EDD34A85EFE0BF9187
:100700003345240175B785448549D9BF29CD0111E9
:1007100026CA06CE22CCAA840945A9C10D462800C6
:100720002E848D059700FE1FE78080AB8347A100D4
:1007300070002C0093F7F70393E707042685230541
:10074000F100EFE0BF8F19E90D46A2856800970020
:10075000FE1FE780C0B17D153335A000F240624432
:10076000D2440561828009458280B727002083C773
:10077000C7D2918B89C7B72700209387479837271F
:1007800000202324F7A601458280011152C42A8A41
:1007900032854EC656C25AC006CE22CC26CA4AC898
:1007A0002E8BB28AB689EFD06FD109ED8944F24021
:1007B000624426854249D244B249224A924A024BB7
:1007C000056182805C592A89C544F5F34D45EF40A7
:1007D000AFC41374F50F5145EF400FC4E38809FC13
:1007E00083C78901E3E487FC1375F50FE360F5FC2B
:1007F00093053005130500079700FE1FE7808084EE
:10080000232AA9022A84CD445DD11306000781451D
:100810009700FE1FE78040A0A300040023004401CE
:100820002301640123125401232E3405232C0400D8
:10083000A301040063170A008547A300F400814464
:10084000BDB72285EFE00FC58547A300F400AA8459
:1008500039DD4A85EFE0EFC899BF397122DC06DE49
:1008600026DA4AD84ED652D456D25AD05ECE62CC70
:1008700066CA0944630B061063090710AA8B3A89FC
:10088000368BB28A2E8CEFD06FC32A8A5144630E06
:10089000050E93053005414597F0FD1FE780807AEE
:1008A000AA894D447DC18344190083472900A204CD
:1008B000C207BE9483470900BE9483473900E2070C
:1008C000BE9483278A0263E697007D5709446399A3
:1008D000E70A63070C0083474A000544898BCDC3B0
:1008E000930C4B00214681450A85C20C9700FE1FE0
:1008F000E780809293DC0C0193053005668597F0C4
:10090000FD1FE78020742A8C4D443DC95A86D68548
:1009100011059700FE1FE78060981146CA85628521
:100920009700FE1FE7808097414693058A014E8518
:100930009700FE1FE780809621478A866686E285BB
:100940004E85EFE07FCF2A841DE521468A85280069
:100950009700FE1FE78080942146930549002800F8
:100960009700FE1FE780A0908547631EF502A685CD
:100970005E85EF408FD6628597F0FD1FE780C078D7
:100980004E8597F0FD1FE78020782285F250625453
:10099000D2544259B259225A925A025BF24B624CDB
:1009A000D24C216182800544F9B7397162CC2A8C1E
:1009B000594526DA4AD84ED652D456D25AD05ECEAF
:1009C00006DE22DCAE8B328BB68A3AC63E8AC289FC
:1009D000468983440104EF106FA749C1916793874B
:1009E00017E92310F50085472301F5002A843247D3
:1009F0002105630C0C0493071003A301F4001946AE
:100A000081459700FE1FE780208123036401A30333
:100A10005401230A9400231274012317440123185C
:100A2000340123192401A285B72700206254F25013
:100A3000D2544259B259225A925A025BF24B624C3A
:100A400003C587D221616F106FABA3010400194663
:100A5000BA8597F0FD1FE780A07845BFF250625439
:100A6000D2544259B259225A925A025BF24B624C0A
:100A700021618280797156CAAA8A1305100326D291
:100A80004AD04ECE52CC06D622D42EC6328AB68456
:100A9000BA893E89EF108F9B2DC1B24537460201BE
:100AA00093078500130616E92A845CC110C123044C
:100AB0005501A304B5001946D285290597F0FD1FFD
:100AC000E7800072CE852308940013051401268662
:100AD00097F0FD1FE780C07023082403A285B72785
:100AE00000202254B25092540259F249624AD24A2A
:100AF00003C587D245616F106FA0B2502254925443
:100B00000259F249624AD24A45618280011122CCDF
:100B10002A84314506CE2EC632C436C23AC0EF1002
:100B2000EF9229C19167938717E92310F500B24529
:100B30002246924602478D472301F500A301850016
:100B40006244B72700202312B5002313C5002314E5
:100B5000D5002315E500F240AA8503C587D20561BB
:100B60006F10CF99F24062440561828001114AC83A
:100B70002A89394526CA06CE22CC2EC6B284EF1069
:100B8000EF8C31C1B2459167938727E92310F500B7
:100B900091472301F500A30125012312B5002A8402
:100BA000A6851905214697F0FD1FE7806063A285A1
:100BB000B72700206244F240D244424903C587D29D
:100BC00005616F10AF93F2406244D244424905611F
:100BD000828001114AC82A89414526CA06CE22CC04
:100BE0002EC6B284EF108F8629C19167B2459387D4
:100BF00027E92310F50095472A842301F5002312E5
:100C000025012146190597F0FD1FE780605DA2854B
:100C100023179400B72700206244F240D24442498F
:100C200003C5B7D205616F106F8DF2406244D244A4
:100C3000424905618280011122CC2A84394506CEC1
:100C40002EC632C436C23AC0EF104F8029C1916718
:100C5000938717E92310F500B245224692460247D2
:100C600099472301F50023128500B727002062442D
:100C70002313B5002314C5002315D5002316E50062
:100C8000F240AA8503C587D205616F102F87F24015
:100C9000624405618280797122D406D62A842EC6E8
:100CA00032C436C23AC0EFD06F811DC1B245224670
:100CB00092460247231CB100231DC1002C081306D5
:100CC000F00F2285231ED100231FE100EFC05FEE4D
:100CD000B250225445618280011122CC2A843945C8
:100CE00006CE2EC632C436C23AC0EF003FF629C146
:100CF0009167938717E92310F500B2452246924683
:100D000002479D472301F50023128500B7270020E5
:100D100062442313B5002314C5002315D500231600
:100D2000E500F240AA8503C587D205616F001FFD6B
:100D3000F2406244056182805D712AC6130520027B
:100D4000CAC04EDE52DC56DA5AD85ED662D466D2BB
:100D50006AD086C6A2C4A6C26ECE2E8CB28B368B4B
:100D60003AC43E8DC28CC68A035A01058359410597
:100D700003498105EF009FED69C591663243938673
:100D800016E9A9472A842310D5002301F500930D05
:100D9000E4002105930444012247630D03069307F1
:100DA0001003A301F4001946814597F0FD1FE78069
:100DB000A046194681456E8597F0FD1FE780C04526
:100DC00019468145268597F0FD1FE780E0442303FF
:100DD0007401A30364012300240323128401231D4F
:100DE0005401231E4401231F3401A285B72700208C
:100DF0002644B64096440649F259625AD25A425B9A
:100E0000B25B225C925C025DF24D03C587D26161E8
:100E10006F00DFEEBA85A3010400194697F0FD1FAD
:100E2000E780003CEA856E85194697F0FD1FE78054
:100E3000203B1946E685268597F0FD1FE780403A5E
:100E400079B7B640264496440649F259625AD25AB6
:100E5000425BB25B225C925C025DF24D616182801A
:100E600079715EC6AA8B61454ECE52CC56CA5AC81D
:100E700062C406D622D426D24AD02E8BB28A368AB3
:100E8000BA893E8CEF009FDC2DCD37470B0113074D
:100E900017E913048500AA8418C140C1014913054C
:100EA000240023007401A30064011946D68597F03D
:100EB000FD1FE780E0321305940023044401194626
:100EC000CE8597F0FD1FE780A031A307840103C7FB
:100ED000340005091379F90F4104E362E9FC225457
:100EE000B7270020B2500259F249624AD24A424B17
:100EF000B24B224CA68503C587D2925445616F0040
:100F0000FFDFB250225492540259F249624AD24A47
:100F1000424BB24B224C45618280011122CC2A8483
:100F2000214506CE2EC632C436C2EF003FD215CDC3
:100F3000224692469167938717E92310F500B24540
:100F4000B1472301F500A30185002303C500A303D6
:100F5000D5006244B72700202312B500F240AA85CD
:100F600003C587D205616F007FD9F24062440561F5
:100F700082805D71A6C28344C1052AC6CAC013859A
:100F800044024EDE52DC56DA5AD85ED662D466D2BD
:100F90006AD06ECE86C6A2C42EC4B28D368DBA8CEF
:100FA0003E8CC28B468B835A0105034A4105E649B4
:100FB0000659EF00BFC949CD3243A24537460D015E
:100FC00093078500130616E92A845CC12304650093
:100FD00010C1A304B5001946EE85290597F0FD1F41
:100FE000E7800020CE852308A401A30894012309EB
:100FF0008401A3097401230A6401231B5401230CF7
:10100000440113059401194697F0FD1FE780401D28
:1010100013054402A30F940008D0CA85268697F0D2
:10102000FD1FE780E01BA285B72700202644B640BD
:1010300096440649F259625AD25A425BB25B225C2C
:10104000925C025DF24D03C587D261616F001FCBD8
:10105000B640264496440649F259625AD25A425B37
:10106000B25B225C925C025DF24D61618280411153
:1010700026C2AA84514506C622C4EF003FBD49C11D
:101080009167938717E92310F500B9472301F5000D
:1010900083C714002A8493856400A301F50083C7E5
:1010A000340003C724002105A207D98F231EF5FEB3
:1010B00083C744001946230FF5FE83C75400A30FCE
:1010C000F5FE97F0FD1FE780A01183C7C400A2853D
:1010D0002307F40083C7E40003C7D400A207D98F15
:1010E0002318F40083C7F4002309F4002244B7272F
:1010F0000020B240924403C587D241016F001FC057
:10110000B240224492444101828079714AD0372909
:101110000020930889D206D622D426D24ECE52CCB5
:1011200056CA5AC85EC662C403C378009308F00F5B
:10113000630013092A8C13850701C289BE843A8A89
:10114000B68A328BAE8BEF007FB02A8435C193070D
:10115000000D2310F500D9472301F5002312850166
:1011600023037501A303650123045501A30445016D
:1011700023059500130989D28DC8410548C42686E8
:10118000CE8597F0FD1FE780A005A2852254034578
:101190007900B25092540259F249624AD24A424B03
:1011A000B24B224C45616F007FB523260500F1BF8D
:1011B000B250225492540259F249624AD24A424BE6
:1011C000B24B224C45618280411122C42A841945C8
:1011D00006C6EF00BFA70DC59167938717E92310D7
:1011E000F500C1472301F50023128500B727002031
:1011F0002244B240AA8503C587D241016F001FB0C7
:10120000B24022444101828041110D4506C6EF00E3
:10121000FFA30DC5930710F92300F5009307E00322
:10122000A300F500C5472301F500B7270020B24011
:10123000AA8503C587D241016F005FACB24041016E
:101240008280011122CC2A84294506CE2EC632C4C2
:1012500036C2EF00BF9F15CDB24592469167938786
:1012600017E92310F5002246C9472301F5002302A0
:10127000B500A30185002304D5006244B7270020F0
:101280002313C500F240AA8503C587D205616F000C
:10129000FFA6F24062440561828001114AC82A8992
:1012A0002D4526CA06CE22CC2EC6B284EF001F9A48
:1012B00029C5B245930710F92300F5009307E00311
:1012C000A300F500CD472301F500A301250123026A
:1012D000B5002A84A6851505194697F0FD1FE780FD
:1012E00020F0A285B72700206244F240D244424950
:1012F00003C587D205616F007FA0F2406244D244EB
:10130000424905618280011122CC2A84214506CE02
:101310002EC6EF00BF9305C9B2459167938717E9C1
:101320002310F500D1472301F5002303B500231254
:101330008500B72700206244F240AA8503C587D202
:1013400005616F00BF9BF24062440561828001111C
:1013500022CC2A84214506CE2EC632C4EF001F8F30
:101360001DC52246B245930710592310F5002301ED
:1013700085002303C5006244B72700202312B5006F
:10138000F240AA8503C587D205616F003F97F240FE
:10139000624405618280011122CC2A84214506CE57
:1013A0002EC632C4EF009F8A1DC9224691679387DB
:1013B00027E92310F500B245A1472301F5002303D7
:1013C0008500A303C5006244B72700202312B5009F
:1013D000F240AA8503C5B7D205616F003F92F24083
:1013E000624405618280011122CC2A84314506CEF7
:1013F0002EC632C436C23AC0EF005F8515CD2246F4
:101400008567B24592460247938717C92310F500B6
:10141000230185002303C5006244B727002023125F
:10142000B5002314D5002315E500F240AA8503C5B5
:1014300087D205616F009F8CF24062440561828013
:10144000011126CAAE844AC82A891385C40006CE73
:1014500022CC32C6EF008FFF1DCD8567938717E939
:10146000B2452310F50023019500231225012A849B
:10147000310508C4268697F0FD1FE78060D6A28557
:10148000B72700206244F240D244424903C587D2C4
:1014900005616F00BF86F2406244D2444249056153
:1014A0008280011122CC2A84194506CE2EC6EF0077
:1014B000EFF905C98567938717F92310F500B24541
:1014C0008547A301F500230185006244B72700206A
:1014D0002312B500F240AA8503C587D205616F00CB
:1014E000FF81F240624405618280411122C42A8456
:1014F0000D4506C6EF008FF505C5930710F92300CB
:10150000F500E947A300F500230185002244B72731
:101510000020B240AA8503C587D241016F000FFEAB
:10152000B240224441018280011122CC2A8421450B
:1015300006CE2EC6EF008FF10DC99167938727E97C
:101540002310F500B245930700032301F5002303A0
:1015500085006244B72700202312B500F240AA8517
:1015600003C5B7D205616F006FF9F24062440561AF
:1015700082800111214506CE2EC632C4EF000FED48
:1015800005C98567B2452246938707392310F500C0
:1015900085472301F500B72700202312B500231348
:1015A000C500F240AA8503C5C7CB05616F000FF5E2
:1015B000F24005618280397122DC4ED652D45AD075
:1015C00006DE26DA4AD856D25ECE094B2A8A328403
:1015D000B68963996513372900208347C9A5CA8A4C
:1015E0008944C9C783C7160003C706009306C6FF10
:1015F000A207D98F37270020231CF7D2BA84639E15
:10160000D70831452EC6EF006FE4AA8449C1B24520
:10161000420441802302B50023138500930700F99B
:101620001504A1652310F5002311450185052285C8
:1016300097F0FD1FE78000A188C429C58347C9A58D
:101640009385E9FF13562400FD17230EF9A497F0A4
:10165000FD1FE780E0BA9C44A68589079CC4B72794
:10166000002003C5C7CBEF006FE98144F2506254FC
:1016700026854259D254B259225A925A025BF24BF1
:1016800021618280268597F0FD1FE780E0A7B727BC
:101690000020239D07D28544D1BF1307D6FFE3C89E
:1016A000E7FEB727002003C7C7A6138AC7A63729B6
:1016B000002001CB032549D309C597F0FD1FE78022
:1016C000A0A403D584D3A1658505110542054181F8
:1016D00097F0FD1FE7800097232AA9D24DDD83C72D
:1016E000CAA52286CE85FD17238EFAA497F0FD1F8A
:1016F000E78000AFB7270020239D87D285472300CE
:10170000FA00A5B7372900208357A9D3CA8BC1D7C0
:10171000B724002003D784D3B72A0020B386C7009C
:10172000110703A54AD36348D7063E95CE8597F0A7
:10173000FD1FE780E0AA0356A9D383D784D3814451
:10174000329442044180231D89D29107E310F4F2C0
:101750003145EF00AFCFAA850DCD930700F92310D7
:10176000F5008357A9D323114501230265012313F3
:10177000F50083A74AD31CC5B727002003C5C7CBF4
:10178000EF00CFD7B7270020231D09D2238607A655
:10179000F1BD03A54AD309C597F0FD1FE780C096A8
:1017A000B7270020239D0BD2238607A6EDB56F2017
:1017B00091016F20D1026F20515A6F3021066F20A6
:1017C0009105411106C6EF20D101B240014541010A
:1017D00082806F20F1066F2011096F20510C6F205D
:1017E000710E6F2071106F2071126F2051146F20D5
:1017F00051166F2051186F20F1196F20F11B83478C
:10180000160003460600A2075D8E6F20311D6F2073
:10181000711E6F2031216F20114E6F20F1506F200B
:10182000F1566F2011596F20315B6F20515D6F2091
:10183000715F6F20916103430100030E4100834EED
:101840008100034FC100834F010183424101834363
:1018500081017EC816CA1ECC7AC676C472C21AC06E
:101860006F20B1606F20B1656F20D1676F20F16983
:101870006F20116C6F20316E6F2051706F2071726C
:101880006F2091746F20B1766F50C1316F50A143BA
:101890006F5021466F50214E411122C406C62A8442
:1018A00083576500034745008346550003462500DE
:1018B0008345350003550500EF50015311E9834579
:1018C0008400035504002244B24041016F50E15DA1
:1018D000B2402244410182806F5081576F500163B2
:1018E0001307A5FF420785672A8841831385A7C789
:1018F000636CE502138707C801456368B70263E6B6
:1019000005031307301F6362C702138766FF420790
:101910004183938767C763EAE70005063306B6028B
:101920008E063325D600828001458280B7B603003B
:1019300081479386C6B81308F00F3387F600034635
:1019400007001317060141836364E5006313060172
:10195000828003D605006365C7002390E50082807E
:10196000850793F7F70FD1BF41119397050122C463
:1019700006C626C2C1872E8463D50702EF006FB169
:10198000AA8409CD83470500054793C70708636408
:10199000F700EFA0D0252685EF008FA82165218DC7
:1019A00021A893F7150091CFB727002083A787DAE6
:1019B00091C3829713451400B240224492444101DE
:1019C000828093F7250091CBB727002083A7C7DA41
:1019D00091C3829713452400C5B793F7850099CB2F
:1019E000B727002083A747DBBC5B91C382971345D1
:1019F0008400D9B793F7450099CBB727002083A778
:101A000047DBFC5791C382971345440075B793F7A2
:101A1000050281CFB727002083A747DC83A70709EA
:101A200091C382971345040241BF93F7050181CF0B
:101A3000B727002083A747DC83A7C70891C38297F5
:101A40001345040195BF939725010145E3D607F699
:101A5000B7270020938707D483C6770003C66700A3
:101A600083C5570003C54700EF20916B096505BF8B
:101A7000411126C2B7240020B72700201306801189
:101A8000814522C42A84138504D406C623AE07E404
:101A90004AC097E0FD1FE78020780145EF3020061F
:101AA0000145EF30000DB7270020A38187B6B707A7
:101AB000D707138404D4B1075CC8B7A70C0C93876D
:101AC00007151CCCB7A7D707938707155CCCE97718
:101AD000938707157D472310F4022328E40C8147E0
:101AE0000327040C232AF40CB78701049387F79F7C
:101AF0005D8F8327440C37290020130989BB93E7A6
:101B0000E7092322F40C2326F40C8347E900232061
:101B1000E40C2324E40CA306F40AA30AF40AF977DC
:101B2000FD17231BF40E231CF40EFD47230DF40EAA
:101B300085679387F7F0231DF402231EF402A30C9C
:101B40000402EF00DFD39307C01C2319F406854776
:101B5000A30FF40283574900A301A4002322040425
:101B6000A983A30EF4068D472311F40483570901BA
:101B70009306B00F138704D463F4F6009307B00FF5
:101B8000139607012315F7022317F7028347C703AC
:101B90004182918BC1CF931766009387073D83469F
:101BA000D703C207C1832316F702918AC1C69316D1
:101BB00066009386063DC206C1822318D7026D4592
:101BC000938504D4B2866373A600ED462391D502B3
:101BD00013068014BE8663F4C70093068014139620
:101BE0000601856741822312D702938787849384F5
:101BF00004D463F3C700BE869307C01C2310F70408
