:081000006F10802BD4F50100F4
:1010080000000000000000006F0080086F00E02270
:1010180000000000000000000000000000000000C8
:1010280000000000000000000000000000000000B8
:101038006F004006000000006F00E005000000009F
:101048006F0080056F0060056F0040056F00200588
:101058006F0000056F00E0046F00C004000000008E
:101068006F0060046F0040046F0020046F000004EC
:101078006F00E0236F00C003000000006F006003F2
:101088006F0040036F0020036F00C0236F00E00271
:1010980001A001A001A001A001A001A001A001A040
:1010A80001A001A001A001A001A001A001A001A030
:1010B80001A001A001A001A001A001A0B717004054
:1010C800130770052380E704130780FA2380E704D9
:1010D8002396A70223800704371700408347270574
:1010E800898BEDDF835707053717004083472705AE
:1010F800898BEDFF3717004083472705898BEDDF84
:10110800035507058280B7170040930670052380B2
:10111800D704130780FA2380E70403C6B7041376BD
:10112800F60DA385C70423800704137605022DC690
:1011380003C6A700118A0DE22380D7042380E704A1
:1011480003C7A700136747002385E7009307004BF1
:1011580001000100FD17EDFFB71700409306700569
:101168002380D704130780FA2380E7047D8923941A
:10117800A70001000100010001002380070423806B
:10118800D7042380E7049306100537270040A303FC
:10119800D780238007048280137605046DDE03C69A
:1011A800A700418A0DE22380D7042380E70403C700
:1011B800A700136707012385E7009307007D010057
:1011C8000100FD17EDFFB717004093067005238057
:1011D800D704130780FA7D892380E7041365050483
:1011E8002394A700010001000100010023800704E7
:1011F8002380D7042380E70493063005372700406F
:1012080079B74111814601468145114506C6C52A6F
:10121800B7170040130770052380E704130780FA07
:101228002380E70403C76704136717002383E704D1
:1012380023800704B24041018280814601468145EE
:101248001145752AB7170040930670052380D70407
:10125800130780FA2380E7047D562396C70223806C
:10126800D7042380E70403C76704136717002383A1
:10127800E7042380070401A0BD473305F5020100F8
:101288007D1575FD8280411122C426C206C6AA8436
:10129800014463179400B240224492444101828081
:1012A80005041305803E4204C13F4180DDB7B717EE
:1012B8000040130700032388E702854723ACF16E3B
:1012C8007300203037470040834747C09946BD8B9D
:1012D800638DD70231476385E70011476399E702B9
:1012E800B745004003C6A5C01725000013058502B1
:1012F800938585C0970000E0E78000B542054181ED
:101308000DE585472381F17419A0834757C0730001
:101318002030834687C0850793F7F70F2386D1725D
:101328008346A7C0E3E7D7FEE9BF814737470040B8
:10133800C5BF411106C68929970000E0E780E0CDC6
:10134800DDBF2303048015472303E4800100230243
:10135800A480828083076480E3CE07FE2303048091
:10136800828083076480E3CE07FE03454480828041
:1013780083076480E3CE07FE2302A48082804111A4
:1013880026C44AC24EC006C61377F50BAD47AA89D4
:101398002E8995446306F70019456537653F8D44E6
:1013A8004E854537FD59FD1463983401B240A24477
:1013B8001249824941018280135509011375F50FBD
:1013C800453F2209CDB7011126CC06CEB704080047
:1013D80051371545BD37713769372AC6A53F32459C
:1013E8009377150089EB136515001375F50FF24017
:1013F800E24405618280FD14E9FC0145CDBF3971E5
:1014080026DC4ADA4ED852D656D45AD25ED006DEF8
:1014180062CE66CCB7E700E07D5783AA070022C6F4
:1014280003AA470023A0E71823A2E718B71700402C
:10143800130770052380E704130780FA2380E70465
:1014480083C74704930B75FFB684E20793FBFB0F32
:101458008546AA892E8B328937240040E1870157B7
:1014680063FA76016308D5008946130700026313FF
:10147800D5000157D98F93F7F70FB71C0040238287
:10148800FC0411472303E4801305F00F5D3D094C6C
:10149800D13563697C11B70707003E9B3787070082
:1014A8007955637EEB02B3079B00636AF702A9478D
:1014B8006399F90689E48144713D26850DA0DA8592
:1014C8000945753D05090345F9FFFD14050B4D3523
:1014D80081C49377FB0FFDF7FD3569FD7D55B7177F
:1014E8000040130770052380E704130780FA238060
:1014F800E70403C74704418B2382E704F250B7E7A8
:1015080000E023A0571123A24711E2543244525954
:10151800C259325AA25A125B825B724CE24C216168
:101528008280A5476395F90685691309F00FB3060C
:101538009900B3742B01B6941349F9FFB374990059
:10154800856B33796901416B9387F9FFB3F72701FD
:1015580099E363FC340193D94900C147E3E637FFB7
:1015680099BF0569C1697D19D9B71305800D6388CD
:101578006901130500026384790113051008CA85FF
:10158800FD3B913521DD4E99B3843441D9B7DA85D5
:101598002D45F533CA94E30099F20509D933A30F11
:1015A800A9FED5BF9387F9FF93F7F70F636CFC0883
:1015B80003C75C04B70708001377070219E3B78766
:1015C80007007955E37DFBF033079B00E3E9E7F07B
:1015D80089476390F9048980D549E38E04ECDA855C
:1015E8000945713B11090327C9FF91472320E4806E
:1015F80003076480E34E07FE23033481FD17EDFBE8
:10160800FD14110B81C49377FB0FE9FF6D3B71F556
:10161800F1B58547E387F9F4DA852D458D3393894C
:10162800F4FFE38A04E8353B93F7390091EB83260E
:1016380004800327090093074900E39FE6E63E89F3
:10164800CE84F1BFB5476396F9001305900BD539E1
:101658009DB5B1471305B00AE38BF9FE9947639E20
:10166800F902DA852D45213B81448D4BA149D539B5
:1016780063967401832704802320F9008504E39886
:1016880034FF8327048013172B01635507002312A7
:10169800F90015B52322F90039BD9D476399F90270
:1016A80081451305B004E139BD44232009002322F4
:1016B8000900FD597D3193F77400CA9703C70700E5
:1016C800FD14398D2380A700E39634FFEDB3A147BD
:1016D8006392F904CD398144630D0B008D4793045F
:1016E800C0036308FB009304000563048B019304A3
:1016F80040041375C507E30095DC194599319939FC
:10170800054581312685AD3109459D316D39E31493
:1017180005DAE9B391476399F900130560061531B5
:1017280015391305900925B7E38709D8F15469B32A
:1017380009CDB7170040130770052380E704130786
:1017480080FA2380E7042396A702828019C1814783
:1017580099E982803387F500834607003307F5004F
:1017680085072300D700E397C7FEE5B719C1FD57E2
:1017780081E98280910503A7C5FF1105232EE5FEA7
:101788007D16E319F6FEF5B7797122D417340000F7
:101798001304847F1C4006D626D24AD04ECE91C769
:1017A80082979737000023A1077E5C4089CB03D539
:1017B8000175BD3F5C40829703D52175953F1C405C
:1017C800639907189747000083C7D78D858B95C7FE
:1017D80097470000A388078C174700000347B78C7A
:1017E800914763FCE700DD239747000083C7B78B69
:1017F800F9178A07A2979C4382979747000083C7E7
:10180800278F918B89C7972001E0E78000141C443B
:1018180091C382979387C174984317360000034693
:1018280076743E89973400009384C4739737000018
:1018380083C7477393961700BA9683D606006380CA
:1018480006109737000083C7E77163F2C708860759
:101858003E97835507002310070003D501752EC650
:10186800239C0174F135938741769C43173500001A
:101878000345456F13172500BA979C43B2458297D5
:10188800AA8903D521756D359737000083C7876D01
:10189800139717008327090003D581751345F5FFB2
:1018A800BA9703D7070033753501598D2390A700E0
:1018B80083C70400850793F7F70F17370000230342
:1018C800F76A173700000347F76963E6E7009737B9
:1018D8000000238907681C40ADEF9387C1759843C2
:1018E8003E8425CB9737000083C7377C91CB973749
:1018F800000083C7577B89E7972001E0E780E0B1C4
:101908001C4082972A8431C59C48AA971737000043
:101918002322F766938701769C4385CF03D501750B
:10192800013D2285970000E0E78020452254B2500F
:1019380092540259F24903D521754561D5BB8507F3
:1019480093F7F70F97360000238EF660E3E0C7EEB3
:10195800CDBDB250225492540259F2494561828059
:101968009167B7C600409387373023A6F6200F103B
:101978000000973700009387E75E884F97170000AD
:10198800938707EE9C43316713073730F053B70747
:101998001000FD17918F99833A0523A6E6205D8DE7
:1019A80082804111B7170040985F3AC6945F32476A
:1019B800E39CE6FE324541018280411106C6D537D7
:1019C8009736000083C68657858AB1C69307303399
:1019D8003307F502B337F5023983CA07D98F1737AA
:1019E800000013072758584B01456303F702338556
:1019F800E740636BF70037653D0889C637856F0890
:101A080013050590198D3E95173700002326F756C4
:101A1800B24041018280E5473307F502B337F5024A
:101A28002583DE0765BF0327C50F8346B5009737B3
:101A380000009387E7669C4F584393861602958269
:101A48009043FD1693F6F60F10C3D04350C390474A
:101A580010C7D04750C7904B10CBD04B50CB904FAE
:101A680010CFD04F50CF91C61307070293870702B4
:101A7800C1BF82808347E50193F7E70FF1EF2A871B
:101A88000345F50171E9034607018346870009CA42
:101A98008345A7029737000083C7574A63E7F500D5
:101AA80093F70601C5CF814709CA8347071503463F
:101AB800F714C18AA207D18F81CA83463715034715
:101AC80047152207558FBA97D1CB17370000130750
:101AD800A7683847411122C406C67D5483260708E3
:101AE80063F386003684184375FB173700000347F5
:101AF800E74493168701E18663D906029387C713E3
:101B080095831737000003470744BA9763D0060444
:101B18001D8C938781769C4382973335A400B2400D
:101B280022441345150041018280058B9387C71213
:101B380009CB8A079387F7031305D007B3D7A70202
:101B4800C9B78607FD071305D003CDBFE372F4FCC0
:101B58003705C0A82A946DBF014582808280411153
:101B680022C4171400001304A4CE18404AC006C6A5
:101B78001C5F26C217190000130949CD9983858B6C
:101B8800D1C31C5F973400009384845193F7F7F90D
:101B98001CDF9737000083C7A75093F707048DC34E
:101BA800938781769C4382979737000023A2A7509A
:101BB80083C7040093F7F70B173700002302F74E8B
:101BC800854717370000A30FF74C83C7440093F7E6
:101BD800070491EF97170000938787C89C43D84460
:101BE800B8D3930700FC17370000230DF74A838703
:101BF800640063D90700832709009C431737000056
:101C08002303F74A18401C5F8583858BD9CBF5578A
:101C18001CDF0100010001000100010001000100BA
:101C280001000100010001000100010001000100A4
:101C38000100010001000100010001000100010094
:101C48000100010001000100010001000100010084
:101C58000100010001000100010001000100010074
:101C68000100010001000100010001000100010064
:101C78000100010001000100010001000100010054
:101C88000100010001000100010001000100010044
:101C98000100971700009387A7BC9C4313075004C3
:101CA800B8CB18401C5F9183858B99CFBD571CDF3B
:101CB800971700009387C7BA9C4323A80704854752
:101CC800173700002300F73E83270900D843058310
:101CD800058B19C7D843759BD8C3D843799BD8C3FC
:101CE800B24022449244024941018280397106DEA1
:101CF80016DC1ADA1ED82AD62ED432D236D03ACEEC
:101D08003ECC42CA46C872C676C47AC27EC0813DFD
:101D1800F250E2525253C2533255A25512568256CD
:101D28007247E2475248C248324EA24E124F824F83
:101D380021617300203097170000938767B294439E
:101D4800173700001307C735BC5289CF83472700D0
:101D5800858B89EB83473700858BFDD79737000044
:101D680023820734828097170000938727AF9C430C
:101D780099CB944BD04B9842518F98C294439C472F
:101D88009842D98F9CC297170000938767AD9C43F0
:101D980037C700401306C003A8CB93062003973526
:101DA80000009385E52F83278720C18393F7F703E6
:101DB8006369F60083278720C18393F7F70363E6F7
:101DC800F60083C74500858BF9DF828097170000EE
:101DD800938707A99443173700001307672CBC5251
:101DE80089CB83470700858B91CB97370000238BDE
:101DF800072A97370000A387072A8280834717009E
:101E0800858BF1DFDDB797170000938727A59C43E3
:101E180099CB944BD04B9842518F98C294439C478E
:101E28009842D98F9CC297170000938767A3944361
:101E380037C70040C145A8CA654683278720C183A4
:101E480093F7F70363FBF50083278720C18393F794
:101E5800F7036364F600BC52EDF3828017170000A5
:101E68001307079F1843AA87185F1583058B41E35B
:101E78000345150015051377C51F19C6B386E70076
:101E880083C626002300D60095C59736000083C672
:101E9800862193F606040945A1CEB386E70083C6DA
:101EA8003600054693F5F6066394C504E206E18616
:101EB80063C006043385E700834715000347050020
:101EC800A20793F70770D98F139707014183937679
:101ED800074089CA1367078097170000239EE79673
:101EE80001458280171700002318F796D5BF0545CE
:101EF8008280971600009386A6968C423685973680
:101F080000009386E619984593170701C183137853
:101F180017203E86630608041377072069C703C79E
:101F280026001367170017380000230CE81613075C
:101F38000019B8D1130700F8973500002384E51677
:101F4800171700001307C7900C4337080010D8551F
:101F5800719B13672700D8D598413367070198C14B
:101F68001377261005C31376061059CE03C706004B
:101F780013671700173600002304E612173700000E
:101F88002314071283C6460093C7F7FFC207E20669
:101F9800E186C183184163D106029396170163DE77
:101FA800060630538D4663E9C6008546173600009D
:101FB800230AD60E3453FDFE973600009386C6F6E4
:101FC8008386460163DD060093960701C18663DCBC
:101FD80006047053894663E4C6007453FDFE144733
:101FE800F58F1CC7828003C7160013671700973543
:101FF8000000A387E50A173700002305070A1737EB
:1020080000002313070AA9BF03C736001367170088
:1020180017360000A307E60895B78546173600006F
:102028002302D60851BF544713960601635106028E
:10203800B7061000FD1674D397360000938686F213
:10204800944E850617360000232AD6F249BFA166AA
:10205800D58F71B7397106DE16DC1ADA1ED82AD682
:102068002ED432D236D03ACE3ECC42CA46C872C6F8
:1020780076C47AC27EC0B53DF250E2525253C25382
:102088003255A255125682567247E2475248C24804
:10209800324EA24E124F824F216173002030173703
:1020A80000001307A7018346B7019737000083C7CD
:1020B8003704B69793F7F70FFD4663EAF6044C4BDF
:1020C80097360000A38CF6FE9737000083C717FFEA
:1020D80005473317F70097360000A38BF6006D8F7E
:1020E8001DEF9736000083C6F600B3F6D702130536
:1020F8000002814733D6F500058A13F8F70F09CE99
:102108006399E60097370000A38A07FB828081174E
:102118007DB705071377F70F8507E39DA7FC828036
:1021280097070000938787749843B75702009387EF
:10213800279F8326070913965600635806008326AF
:1021480007091396660063440600FD17FDF38280B5
:1021580045C1AA870145D9CD8D07C207C183F19B27
:10216800C207C18313074003636FF7021707000014
:10217800130707790843170700001307E777144385
:102188006398A60217370000130707DA185B0145A2
:1021980035C34111C20706C60545DD8D0297B24019
:1021A8000145410182801707000013072775D9B739
:1021B8000357650005EF035745006369F702B30647
:1021C800F74021466370D6021041938687001D8F21
:1021D800AA96611790C22392E6002393060014C1C1
:1021E8002312F5002313B50021058280084149BF59
:1021F80001458280828005C1970700009387477058
:1022080003A80700970700009387076F8C430147CF
:10221800C28763E3B700828094436367F50863E588
:10222800A60813868700E368C5FE03D56700216604
:102238000506631BC500170600000346E65C050695
:10224800170500002302C55C239307006386070374
:10225800170600001306866A1042630FF60003563D
:10226800670019EA83D7470014C383564700B69717
:10227800A1072312F700BA879843E30EB7F8970629
:1022880000009386A6679442E307D7F88356670051
:10229800D9F283D64700035647001843A106B296E1
:1022A8002392D70098C382803E87B6879DB70000E7
:1022B800972100209381815417610020130101D4D4
:1022C80017F5FFFF130505D49715002093850553CF
:1022D800172600201306867D63FAC50083220500B1
:1022E80023A0550011059105E3EAC5FE17D50100A5
:1022F800130505329385012B1386816D63FAC5009A
:102308008322050023A0550011059105E3EAC5FEC7
:102318001385816D975500209385856E6377B50089
:10232800232005001105E36DB5FEB7220000938256
:10233800828873A00230971200209382224C93E285
:1023480012007390523097220000938222D3739028
:102358001234730020303D432A876373C302937796
:10236800F700BDEFADE5937606FF3D8ABA960CC33C
:102378004CC30CC74CC74107E36BD7FE11E2828000
:10238800B306C3408A069702000096966780A600A7
:102398002307B700A306B7002306B700A305B700B5
:1023A8002305B700A304B7002304B700A303B700AD
:1023B8002303B700A302B7002302B700A301B700A5
:1023C8002301B700A300B7002300B700828093F56C
:1023D800F50F93968500D58D93960501D58D61B738
:1023E800939627009702000096968682E78086FAE1
:1023F8009680C1171D8F3E96E374C3F8A5B7B7172B
:10240800004003C777051377E70FA38BE70413078B
:1024180000F8A38DE7043D47238CE7041307500316
:10242800A38CE7048280B717004003D587005D714D
:102438005ED64205418186C6A2C4A6C2CAC04EDE87
:1024480052DC56DA5AD862D466D26AD06ECE937706
:10245800050C13070008814B6388E718130700046D
:10246800639CE714B7240D8F7D8993840480B3D4CB
:10247800A4029167938707E8BE94A167938707D062
:10248800B3D4F402EFA0916697D701009387078031
:102498009043D443EFA0511AEFB0C1272A8B939CE5
:1024A800040103D9816D93DC0C01631509000569EA
:1024B80013090980B7170040130770052380E70444
:1024C800130780FA2380E704371A00400547939DD5
:1024D8000401096C85662389E704D14A814E814548
:1024E800130D0A0413087005130680FA894893DD52
:1024F8000D01130C0C712943FD1623000D01230057
:10250800CD0023162A0323000D0083472A05898B53
:10251800EDDF83570A0583472A05898BEDFF83473B
:102528002A05898BEDDF83570A05239C216DC20795
:10253800C183338597419319050193D90941638470
:1025480009163387B902635E070C850EC20E93DE47
:102558000E0163E8D80D63D9050A3305B040931519
:102568000501C185C204C18063D7350B0965130510
:1025780005713385A502B71700401307700523803E
:10258800E704130780FA2380E70423967703238060
:1025980007043345950242054181B64026449644D6
:1025A8000649F259625AD25A425BB25B225C925C8B
:1025B800025DF24D61618280B1E3B77489097D895A
:1025C80093840480B3C4A4029167938707E8BE94F8
:1025D800A167938707D0B3C4F402EFA0315197C71E
:1025E80001009387276B6DB597C7010093878769AB
:1025F800856403AB07009384843855B5130B00003A
:10260800954471BD3A89D5BDB387FC4093990701BC
:1026180093D9094181BF0965130505713385A9025D
:102628008DBF3385B74163E4FC003385FD40330536
:1026380085033344B5036345830013150401A9BF1B
:102648004E8536C642C432C2EFB06100DA85EFA0CB
:10265800F150EFA0B179931E050193DE0E41B30747
:10266800D941C207C183056E3E8712462248894870
:102678002943B24663E3C701368742074183631A99
:10268800270113071900634430011307F9FF4207B4
:102698004183FD1A93FAFA0FCA8BCE85E3940AF6A2
:1026A800239CE16C59BF0145CDBDB717004003D548
:1026B80087005D7186C642054181A2C4A6C2CAC010
:1026C8004EDE52DC56DA5AD85ED662D466D26AD06A
:1026D8006ECE02C69377050C13070008638BE714C8
:1026E80013070004639FE710B7240D8F7D89938437
:1026F8000480B3D4A4029167938707E8BE94A167C6
:10270800938707D0B3D4F402EFA0513E97C70100D6
:102718009387C7579043D443EFA00172EFA0917FEE
:102728002A89939A040103DBA16D93DA0A016315E0
:102738000B00056B130B0B80B717004013077005D0
:102748002380E704130780FA2380E704939B04019E
:1027580005478969056A2389E704D14D014D814CF4
:1027680093DB0B01938909717D1A5A859710002014
:10277800E7808014330C5541420C135C0C41239DB7
:10278800616D63010C16B3079C0363D1070E050D39
:10279800420D135D0D01894763EAA70D63DB0C0A3F
:1027A80033059041931C050193DC0C41C204C180A0
:1027B80063D88C0B0965130505713385AC02B7170F
:1027C8000040130770052380E704130780FA23806D
:1027D800E70432472396E70223800704334595022E
:1027E80042054181B640264496440649F259625A48
:1027F800D25A425BB25B225C925C025DF24D61612F
:102808008280B1E3B77489097D8993840480B3C455
:10281800A4029167938707E8BE94A167938707D0BE
:10282800B3C4F402EFA0912C97C7010093878746A1
:10283800D5B597C701009387E744856403A90700C6
:1028480093848438F9BD130900009544D9BD3E8BA3
:1028580029BF3385AA40131C0501135C0C41B9B785
:102868000965130505713305AC028DBF63FEAA0027
:102878003305754133053503A9473344750363C8E8
:10288800870013150401B1BF3385AB40E5B76285F6
:10289800EFA0F15BCA85EFA0712CEFA03155131D95
:1028A8000501135D0D413307AB414207418385653F
:1028B800BA876363B700D287C207C183639A670187
:1028C80093071B00634480019307FBFFC207C18382
:1028D800FD1D93FDFD0F5AC6E28CE39A0DF6239D6C
:1028E800F16C45B70145FDBD41112A83014E930E98
:1028F800407E130F0019930F400663EB6E0A93088E
:10290800001913034006B3781503854E0D4FA14FE8
:10291800337365020D891335150063E5BE0C130882
:10292800F6FF794672984208135808013307C70220
:1029380013D61700BE0732976146B3F6C6021306D0
:102948008070B386C6023697A166F58F42075D8F01
:10295800B717004083C6F70293F60608A307D1000D
:102968000346F10083C6F70293F60608E394C6FE11
:102978008346F10093F6F60FF1DE93067005238087
:10298800D704930680FA2380D70423AA070383C6B3
:10299800170393E60608A388D702D8DB03C71703F3
:1029A80013670704A388E702238007044101828094
:1029B8007D133368E3039308E016630E0800336859
:1029C800F3039308D016630808009378330093B88C
:1029D80018009388D81633081E01131E0801135EC9
:1029E8000E0121BF6393E50305486386080001488B
:1029F800630303002A8871087298FD15131E0801E5
:102A0800C205135E0E01C18109BF13F8150063F4F6
:102A1800BF007908D5B713381800E5BF914763EEB2
:102A2800B70217C70100130767278A05BA959C41A3
:102A3800BA978287B717004003A7470B1345F5FFDE
:102A4800698F23AAE70A03A7070B698F23A8E70A58
:102A580003A7070A798D23A0A70A8280B717004029
:102A680083A6470B1347F5FFF98E23AAD70A83A637
:102A7800070B558D23A8A70A83A6070A758F23A0DD
:102A8800E70A8280B717004003A7470B498F23AA9C
:102A9800E70A03A7070B1345F5FF45BFB717004023
:102AA80083A6470B1347F5FF758F23AAE70A03A7E9
:102AB800070A598D4DB7B717004003A7470B498F31
:102AC800EDB7B717004003D58700420541819377DA
:102AD800050491EB9377F5013755E8011305058057
:102AE8003345F50282809377050C1307000463973A
:102AF800E7009377F50137459C1CCDB72165130591
:102B080005D0828037E700E01C435443A183E206E6
:102B1800D58F1CC1FD572320F7182322F718828070
:102B280013178500B7E700E023A0E710618123A20F
:102B3800A7108280B7F700E0C8439C47828081478E
:102B480037370040A14663C4C700328582800345F9
:102B5800B740E38EA6FE3385F500034505008507DB
:102B68002304A740CDB7411122C406C62A84913F49
:102B78002947B307E502B2408D83B3D787022244C1
:102B88009507B3D7E70237370040C207C18323163A
:102B9800F74041018280716541111305052006C681
:102BA800D937B7370040130770F82381E7400D473E
:102BB800A381E74013070004A380E7400547238764
:102BC800E740B24041018280411122C406C62A84EE
:102BD800CD3D2947B307E502B2408D83B3D78702BD
:102BE80022449507B3D7E70237470040C207C1839D
:102BF8002316F7C041018280716541111305052034
:102C080006C6D937B7470040130770F82381E7C0D5
:102C18000D47A381E7C013070004A380E7C0054759
:102C28002387E7C0B24041018280B747004003C70D
:102C380017C019C9D98DA380B7C003C707C01367C8
:102C480087002380E7C0828093C5F5FFF98DA380B4
:102C5800B7C08280411122C406C603C70500894750
:102C68000544631FF702D8412944834717000347E7
:102C78000700A207D98FC207C187130710EE639117
:102C8800E702238FD16C814793F6F60F9725002032
:102C9800938545571397070141836369D702014418
:102CA80003C6E16D19CE9387016E9C4399CBDC4333
:102CB80089CB972500209385E55401458297238F7A
:102CC800016C2285B2402244410182803307F6001C
:102CD800034507003387F50085072300A7005DBF7C
:102CE80003C7050089476315F706D84183471700CE
:102CF80003470700A207D98FC207C187130710EE41
:102D08006394E70432852390060003C6D16D19E267
:102D18000145828041112390C600972500209385A4
:102D2800E53E06C697100020E7800022A38E016CBE
:102D38009387016E9C43014589C79C4399C3829739
:102D48000145B240410182802390060029458280D6
:102D58002390060005458280058909C99386012FBD
:102D6800414691451385012B6F705024014582809F
:102D780009C523A0A16E014582804545828051473F
:102D88006362C7024111172500201305253806C6BE
:102D9800A38EC16C97100020E780001BB24001454C
:102DA800410182801305E00F8280CC41411106C6A3
:102DB800328503C6150083C5050022064D8E4206DE
:102DC8008D654186138875A2630C060F6348C80495
:102DD800138845A26306060B634AC800938535A28B
:102DE8006309B60623900600294679A0138855A2E0
:102DF8006308060B938565A2E316B6FEC1451D461A
:102E080063ECE5064546198E63F3C7003E862390BA
:102E1800C60097C501009385A5EA89A8138895A2DD
:102E28006300060F634E060B1388A5A2630A060FFC
:102E3800938505A5E318B6FA99451D4663EEE502A4
:102E4800198E63F3C7003E862390C60093850166FA
:102E580031A89D451D4663E1E5022146198E63F3BD
:102E6800C7003E862390C6009385416EBA95971099
:102E78000020E780600D0146B24032854101828022
:102E8800AD451D46E3EAE5FE3146198E63F3C700FA
:102E98003E862390C60097C50100938525E6F9B7BD
:102EA800B1451D46E3EAE5FC3546198E63F3C700D4
:102EB8003E862390C60097C50100938525E57DB71A
:102EC800C1451D46E3EAE5FA4546198E63F3C70096
:102ED8003E862390C60097C501009385A5DF79B784
:102EE800C1451D46E3EAE5F84546198E63F3C70078
:102EF8003E862390C60097C50100938525E2BDB79D
:102F0800C1451D46E3EAE5F64546198E63F3C70059
:102F18003E862390C60097C501009385E5DCB9B7C6
:102F2800B5451D46E3EAE5F43946198E63F3C70053
:102F38003E862390C60097C50100938565D73DB7A7
:102F4800938681434146CD45138581306F701006C5
:102F5800914763E2A70817C70100130767DD0A0551
:102F68003A951C41BA978287854761456397F5066C
:102F7800834706002386F16E0145828085476145B7
:102F8800639DF50483470600A386F16EF5B7854770
:102F980061456394F504834706002387F16EE9BF12
:102FA80085476145639BF50283470600A387F16E59
:102FB800E1B7954761456392F5024111B2851385E2
:102FC800016F154606C697100020E780E0F7B2406B
:102FD800014541018280094582808280914763E8EA
:102FE800A70417C701001307E7D50A053A951C413E
:102FF800BA97828783C7C16E2380F5000145828016
:1030080083C7D16ED5BF83C7E16EFDB783C7F16EA5
:10301800E5B741112E8515469385016F06C69710B1
:103028000020E78060F2B2400145410182800945F5
:103038008280411106C6EFF00FBFBD4763F4A700B9
:10304800EFF06FBEEFF06FE6BD4763F4A700EFF057
:10305800CFE5B24083D5A16D03D5816D41016F10D5
:10306800D008411193962500AA852D4506C69710CC
:103078000020E78080B8B2400145410182804111BB
:1030880026C29394250022C44AC02A843289A6867F
:10309800AA850146254506C697100020E780E0B5B9
:1030A800A6864A86A285294597100020E780E0B4C5
:1030B800B2402244924402490145410182800111F3
:1030C80022CC06CE3714004026CA4AC84EC652C47F
:1030D80083447405034AB405834984050349940568
:1030E800EFF0EFB18347A40593F4F40F137AFA0FC6
:1030F80093E71700230DF40493F9F90F1379F90FE7
:10310800B717004003C7A705058B6DFF03D5C70593
:10311800A38D4705238C3705A38C2705A38B97041C
:10312800F2406244D2444249B249224A056182804F
:1031380041119397050122C406C6C1872E8463DD19
:103148000700EF10600119C1EF00707A2165218D29
:10315800B24022444101828093F7150013C515003F
:10316800E5FB9397250163D00702EF20714DD13518
:1031780037F60200130606E0896503C5516FEF10A4
:10318800C04E0965E9B7939715010145E3D207FCDD
:1031980017C501001305C5C0EFA0D11213060064BE
:1031A800916503C5516FEF10404C11654DB71D7106
:1031B800494697C50100938525BA17C5010013052F
:1031C80065F986CEEF10203201E917C50100130515
:1031D800E5B9EFA0310F01A037F700E0F9575CC758
:1031E800FD571CCB8566B7E700E023A0D710130670
:1031F800701010C3B8434146B0C323A0D718B8C352
:10320800010001001306C00381454808EF1080271C
:10321800973700209387C7D03ECA8967938707806E
:10322800231CF100A167938707E03ECE97070000B3
:10323800938767E3BEC497070000938787E4BEC6F9
:10324800930720B02311F1029307A0102312F10273
:10325800D1472303F10285472304F102B547230828
:10326800F102970700009387278D3EDAB7F507002C
:10327800970700009387E7E43EDE81469707000042
:10328800938767DB7000E1051945BEC097100020E1
:10329800E780A09658088147994670003E960346F5
:1032A800060085070507A30AC700E398D7FED2479B
:1032B80091C70357810185676373F70001A0480828
:1032C800EF106078AA8501C917C50100130545AB41
:1032D800EFA0A16D01A0F64025618280411117057C
:1032E8000000130525E506C622C4EF1040721384BA
:1032F800516F2300A4002928034504002244B2404A
:1033080037F60200130606E0896541016F10E035C3
:10331800411106C622C493067005371400402300E5
:10332800D404130780FA2300E4048347F40293F7D4
:10333800A70FA307F4022300D4042300E40483475F
:10334800F40293E72700A307F402E5311305407E52
:103358002300040481470147814605468545EFF06F
:10336800AFD82244B240014541016F10901A7971DB
:1033780026D206D622D44AD04ECE52CC03C88500D7
:10338800A14413780802631F080483C8050009488C
:103398002E8481446398080503A84500AA89328AC7
:1033A80083471800034808003689A207B3E70701D6
:1033B800C2070D68C18713082890638E07038144EC
:1033C8000357A40083D7E149631EF7009387C16FB1
:1033D8009C4389CB0D473AC22316210152C44C00A5
:1033E8004E858297B2502254268502599254F2494A
:1033F800624A456182808547EF50807FAA8469F1DF
:103408009387C16F984345DF83471A0083460A00B4
:103418004C00A207D58FB337F00085073EC24E8512
:10342800029779BF011117C501001305A59722CC92
:1034380026CA2EC606CEB28436C4EFA0A168B2450D
:10344800214483C78500C18B9DEF03C605008947CA
:103458000144A2466319F602D8418347170003477F
:103468000700A207D98FC2070D67C18713072790E6
:10347800639BE700CC452390C60026850946971034
:103488000020E78060AC2285F2406244D2440561A6
:10349800828041677917630EE502411122C406C68E
:1034A80085472A84639CF50022852244B2409725EB
:1034B80000209385A5E441016F70A0398947639680
:1034C800F5008545EF90A07C65D1B24022444101CA
:1034D80082808280411126C2AA84416597250020F6
:1034E8009385C5E17D1506C622C4EF7080361705A1
:1034F8000000130545FAEF9000719386414A414652
:10350800994513854144EF70602A2A8419C517C567
:1035180001001305E589EFA0E15A2285B240224453
:1035280023AE916E9244410182804111972500207B
:103538009385C5DC06C6EF506066B2407D1513352D
:10354800150041018280411122C42E849725002054
:103558009385C5DA26C206C6AA84EF502064058979
:1035680005C19387414483D7A702A285B24023109F
:10357800F400224426859244014641016F60403E92
:10358800B240224492444945410182808357250034
:10359800035505003385A740420541818280AA87EB
:1035A80005C21307F6FFB376C700054599EA23A0BD
:1035B8000700CCC32394C7002395E7000145828008
:1035C80005458280232005008280AA871145B5C75A
:1035D8002DC683D6070003D787000D45369783D6B7
:1035E8002700158F4207418329CB0145B9C583566A
:1035F80006006373D700BA86C206C1820147131555
:10360800070141816366D5002310D60001458280F9
:103618003385E5008348050003D8A70003D52700B4
:10362800050733780501C84342952300150103D5E2
:10363800270005052391A700D9B782802A8729CDBD
:10364800835605008357A500B6978356250085073E
:10365800958FC207C183BE866373F600B286C20621
:10366800C1820D459DCB81476394D7000145828077
:10367800035627000355A70003C805008507718D69
:103688005043C207C1832A96230006010356270028
:1036980005062311C700C9BF11458280AA871145B5
:1036A800B1CF29CE83D6070003D72700158F8356BD
:1036B8000600420741836373D700BA86C206C182F7
:1036C80009450DCF01476366D7002310D600014591
:1036D800828003D5070003D8A70033780501C843C3
:1036E8004295034805003385E500050723000501D9
:1036F80003D5070005052390A700F1B7828029C5E7
:103708000357050083572500998F3E87C207C18359
:103718006373F600328742074183814763E4E70019
:1037280001458280835605000356A5008507758EDE
:103738005441B29683C606002380D50083560500FF
:1037480085062310D500D9BF1145828017B5010021
:103758001305C56A6FA001377D15954763E8A70A69
:1037680017B701001307C7660A053A951C410111EE
:1037780022CC06CE26CABA972E84828717B50100B6
:103788001305457EEFA00134A1A017B5010013056C
:10379800657ECDBF83D4E50017B501001305857E8E
:1037A80023959172EFA00132B14763F3970217B5E1
:1037B80001001305257EEFA0E1300355A40083C75F
:1037C80081671307803E814631469945EF70011D98
:1037D800F2406244D2440561828017B501001305A6
:1037E800657C4DB785471306F100854513055030B4
:1037F800A307F100EF70C15617B501001305057C4A
:1038080051B717B501001305657CADBF8280011162
:10381800680006CEEFF00FAF83C7217491CB09463D
:103828009305000203C58167EF00306423810174AA
:103838003245EFF0EFAEB745004083C7B5C01D472E
:10384800636FF70083C7B5C02146938585C01D8E79
:1038580042064182172500201305054C4D35F240DC
:103868000561828041111306002097250020938569
:10387800A52A172500201305254A06C622C40533A4
:1038880005661306068097250020938525A8172529
:1038980000201305A5272133371400408327840A05
:1038A8008D451305000293E707022324F40AEFF07D
:1038B800EF968327840A8545414593E7070123242A
:1038C800F40AEFF0AF95EFF02FB395450545EFF00B
:1038D800CFB5B2402244B7E700E0114723A2E71072
:1038E8004101828001112317B1001306E100AA8566
:1038F800172500201305454206CEC139F24005615F
:1039080082809C41011106CE22CC09476383E702DD
:103918000D476386E70205476399E700AA8517B54F
:1039280001001305255EEFA04108F24062440561DD
:103938008280AA8517B501001305055FEDB72E84AF
:1039480083D5850017B5010013054560EFA0E10593
:10395800835784004C401306E10017250020130507
:10396800E51A2317F100953109469305000203C5AE
:103978008167EF00904F835584004840A53775B79D
:103988007971170500001305251C06D622D426D206
:10399800EF10E00793848167994705442380A400CA
:1039A8002318F1001306F100B1478545130550307F
:1039B800231CF100A3078100EF70813A1386414D63
:1039C800FD4513057030EF70A1391386C1679D4519
:1039D80013056030EF70C1381008894513051031A0
:1039E800EF7001383008894513052031EF704137F1
:1039F8001386C14BD5450145EF40D0119305800290
:103A08000D45EF205061930580021145EF20B0600D
:103A18003008914513057040A306810023078100F3
:103A28002308810002CCA3070100EF50315D130683
:103A3800D100854513050040EF50515C1306E100A5
:103A4800854513051040EF50715B1306F10085455D
:103A580013052040EF50915A100885451305504032
:103A6800EF50D1597D55EF40D0177D55EF60D05BB1
:103A7800EFF00FCD170500001305E5E8A13C7D55D3
:103A8800EFF08FADC16713878173F9171CC389479E
:103A98002307F1008D47A307F100B7373233938727
:103AA80007133ECCB7373637938747533ECE9387B5
:103AB800016D23220700984383C747001306D100EE
:103AC800854501453AC8230AF100A3068100EFF0B5
:103AD8002FC81306E10085450545EFF06FC71306AB
:103AE800F10085450945EFF0AFC63008A1450D4501
:103AF800EFF00FC6100895451145EFF06FC5138517
:103B08004170EF40114D13850167EFF06FA603C5B3
:103B180004008545EF001023B250225492544561A9
:103B280082802E86AA8501456FF06FA501112306B4
:103B3800A1008945680006CEA3060100DD37F240E2
:103B48000561828001119397050122CC06CE26CA11
:103B58004AC8C1872E8463D0070203C58167ED2B4D
:103B680011C17123A1673D8C2285F2406244D24481
:103B780042490561828093F715009DC31386014B66
:103B88009385017203C58167EF60F1671306803E74
:103B9800894503C58167EF00502D13441400E9B728
:103BA80093F725008DC789451306803E03C58167B5
:103BB800EF00B02B2C000D45EFF04FC211E530009F
:103BC800A1450D45EFF0CFB81344240071BF93F71A
:103BD800850099CF83C781671307803E81463146A8
:103BE800994503D58173EF60715B13448400ADBFC1
:103BF80093F70501ADC79384017190401389C17093
:103C0800832709009315C60017B501001305052081
:103C1800BE95EF9091599C40832509008566B207AF
:103C28000146BE95054597000020E78000FD137505
:103C3800F50F09C5E53D134404013DB79C408507D0
:103C480023A8F170138741711843E3EFE7F017B524
:103C580001001305E51CEF90F1660145E1BF93F7FC
:103C680005026386071A8547239CF172938741688A
:103C78009C4305476389E70081C70D47637FF710B9
:103C880013440402D5B50545EFF03F8A03D7817385
:103C980015E1C167F917E315F7FE17B5010013051C
:103CA8002519EF90316217250020130525E6EFF05E
:103CB8007F91F9B73A85EF10F01875152390A17424
:103CC80017250020130585E4EFF05F8C83D7017476
:103CD800636CF50817250020130545E3EFF01F8BEB
:103CE800AA8517B5010013052515EF90114C138609
:103CF8000174972500209385651317250020130567
:103D0800E5E0EFF0BF991375F50F23A201742DF9C3
:103D180003D6017401478146ED4503D58173239984
:103D2800C172EF40302223AAA172630E050C03D69C
:103D38002173972500209385650F97000020E78061
:103D4800A02093850173014603D58173EFF0AFFF7F
:103D5800AA8517B5010013052510C1E5854723A2DB
:103D6800F1682390017441A89387417494432947CB
:103D7800BE84E36ED7F611469305000203C581673A
:103D8800EF00B00E9C4017B501001305E50B850741
:103D980023A2F174EF901153E5B503D601740147DE
:103DA8008146ED4505452399C172EF40B01923AA14
:103DB800A17231C903D62173972500209385050781
:103DC80097000020E780401893850173014603D5CA
:103DD8008173EFF04FF7AA8551D117B5010013058C
:103DE8006508EF90913C8D47ED451385017323A23B
:103DF800F168EF40F02C09469305000203C581677E
:103E0800EF00B006B5BD894723A2F168EDB70144BC
:103E1800A1BB1305E00F19BB411122C417240020D0
:103E2800130444F026C22286AA8491469D652D4536
:103E380006C697000020E78040DC93060010014684
:103E48009D65254597000020E78020DB228623001A
:103E580094002244B240924491469D65294541010F
:103E680017030020670063D901456FE0BFC9797166
:103E78009727002083C707EC06D622D493C70708E4
:103E880011476361F71A17B701001307E7F58A07A7
:103E9800BA979C43BA97828717260020034696E96B
:103EA80023AEC1709725002083D5E5E8B7670300E6
:103EB8009205BE9517B50100130585FB23ACB170BB
:103EC800EF90B12E938781718C4383D6C1711726E9
:103ED8000020130666E6094597000020E780E0D138
:103EE8001374F50F19C417B50100130525FAEF90DF
:103EF800713D22852539B25022544561828097252B
:103F0800002083D545E3B76703009205BE951726C1
:103F18000020035666E217B50100130525F823AC07
:103F2800B17023AAC17023A6B17023A8017023849D
:103F38000172EF9091279387C1709443B77703007C
:103F480063EFF600938741719C43370710007D1794
:103F5800BA97B207B69737D706006375F700130507
:103F6800F00F49BFC14503C58167E92B69B717261B
:103F78000020034636DC23AEC1709725002083D588
:103F880085DBB76703009205BE9517B501001305D9
:103F9800E5F223ACB170EF9051219387C17194433E
:103FA800938781718C43172600201306E6D80D45A8
:103FB80097000020E78060C41374F50F19C417B583
:103FC8000100130565F1EF90F12F03C58172418D52
:103FD8002384A17205B717B50100130525F1EF90E9
:103FE800712E59350D450D3D294597000020E78074
:103FF80040A997000020E78080A0F5BD17B5010013
:10400800130585EFEF90112CB707600389073EC6AB
:10401800D145B707107368003EC8230A0100EFF0C6
:104028005FB0D1BDFD33C1BD411117250020130577
:1040380065D006C697000020E78000F1B240410134
:104048003DB50111914670009D652D4506CE97003E
:104058000020E78080BA8346C10005479387F6FFB2
:1040680093F7F70F6367F7002384D168F24005617F
:1040780082802384E168DDBF41111305800406C6F0
:1040880097000020E780E087371700408327870ADA
:104098008D451305002093E707202324F70AEFE056
:1040A800FF97EFE05FAF17B501001305A50AEF9082
:1040B8007121413FEFF0AF8FEFF04FA2EF60D17366
:1040C800EFF01F8CEFF00FFA97000020E78020A692
:1040D80023AC05FE1C4191E7010001000CC1828060
:1040E800BA8703A787FF6DFF23ACB7FE82801DC187
:1040F8008346E5FF1307F00F9147639EE6004111E1
:1041080006C697100020E780C08EB24081473E85E2
:104118004101828095473E85828001E90145828080
:104128000145B240224441018280411122C42A84BF
:10413800210542059305D004418106C69710002049
:10414800E780C08071DDFD5723200500231285001C
:104158002303F5002105F1B7138781741C4341112E
:1041680022C426C24AC006C601440149BA8489E766
:10417800A1658D250DC401A803C7E7FF6318A70231
:104188001DC8A165C1269840832784FF6317E402F0
:1041980023A4F174FD57232C04FE230FF4FE22857B
:1041A800B2402244924402494101828011E03E8992
:1041B80083A787FF6DBF3E84E5BF232CF9FED9BFD7
:1041C800A9C9411122C406C62A849737002083C78B
:1041D800F7582E856368F400193F0D45B240224414
:1041E8004101828083A785FF99E703C7E5FF93070D
:1041F800F00F6305F700E53D1545CDB7238F85FE24
:1042080013858174F13522852244B240A1654101AC
:1042180015AE1545828023A40174828093870176A8
:104228009C4399E33E85828003D727006316B70035
:1042380003C70700E308A7FEDC47E5B741119397DA
:1042480005014AC006C622C426C2C1872E8963DE7C
:104258000700193711C1613D21653345A900B240F6
:1042680022449244024941018280AA860145E5D947
:1042780001443D47B3578940858B95CB938741755A
:104288008443BD4791E28147A2978E070545BE94B6
:1042980033158500131405019C40C840418082975E
:1042A80023A0040023A20400334524014DBF0504C4
:1042B800E312E4FC0144CDBF9737002093874746BB
:1042C8009C53411122C406C61384C16895C78297BE
:1042D80023A6A1680840B74703009387D73F330553
:1042E800F502B7A72600938737ECB24022443E95E3
:1042F80023A6A1684101828097370020938707464B
:1043080018409C4BBA9723A6F168E9B79387C17404
:1043180090439736002083C67644814713F7F70FFA
:104328006360D70A1737002003477757914763E040
:10433800E70A9737002083C7275B918BC9EB0111E8
:10434800680006CE22CC26CAEFC08074FD56630FE3
:10435800D50C32479737002083C7B73D63F3E70C86
:10436800173700201307873F4047173700200347B8
:10437800673C6305D406058B21CF51473304E4021B
:1043880063F1870A97000020E78060E1B247637312
:10439800F400A287173700200347B739998F3E9555
:1043A800973700209387C7378387470163CD070274
:1043B800B707C0A86369F502B70740573E9525A01F
:1043C80085071397170032970357E7FF21DB828091
:1043D800130790023304E40205805DB76207618722
:1043E800635707001D8D19E93705C0A801A8E37BAD
:1043F800F5FE3707C0A8B307F7403E95973700206A
:1044080093870732DC53829709ED9737002093870B
:10441800A7489C4F99C7EF10415AEF109138EF10F9
:10442800E14DF2406244D244056182809737002012
:104438009387C732DC47E386A7FE173700201307A8
:10444800272E83464701BA84858A9DC65144338402
:1044580087029737002083C7D72DE3F487FC97009E
:104468000020E780C0D39737002083C7972C1D8C86
:104478002295838744011DBF130490023384870269
:104488000580C1BF2A9609E582800505A30FB5FE00
:10449800E31DC5FED5BF81473307F50003070700B5
:1044A80019E33E8582808507C5BF01112E8626CA7D
:1044B800AA84131506019305F004418122CC06CE87
:1044C80032C697000020E78060482A8419C5324622
:1044D800A68597000020E78020A72285F240624445
:1044E800D2440561828081476314F60005458280C5
:1044F8003307F5008507B386F5000347070083C631
:10450800F6FFE383E6FE014582809307F6FFBE953A
:104518002A966313C5008280FD1583C7150005051B
:10452800A30FF5FEFDB7814711E9014582803307E6
:10453800F50003470700E31AB7FE8507E319F6FEFF
:10454800054582809737002083C75721637FF50090
:104558001387C1749317150008433E9583570500C8
:10456800DD8D2310B500014582800D458280FD5701
:104578000111173700202329F71E9387017622CCD3
:1045880080434EC6973900209389891926CA4AC89C
:1045980052C456C206CE5AC02A8981444E8A973AD6
:1045A8000020938AAA1B184481476374E900B30763
:1045B800274103A749021CC409CB03A7CA0063F615
:1045C800E700173700202321F71AA1E783552400B5
:1045D8009DE95C44A1E823A0F176032BC400228561
:1045E80097000020E780E0405A8455FC83274A0260
:1045F80085CF6244F240D2444249B249224A924AA3
:10460800024B056121B3034504002D3F5C4081CB7B
:104618001CC483572400D5DFA2844044F9B71C4446
:10462800CDDBC5BFDCC455BFF2406244D244424929
:10463800B249224A924A024B05618280973700208C
:1046480083C7D7116371F5021387C17493171500D7
:10465800084393C5F5FF3E9583570500FD8D23104C
:10466800B500014582800D4582809737002083C7B9
:10467800F70E6364F50001458280411122C426C209
:104688004AC006C62A842E89B284493E01C504C59B
:1046980005452DA0936504F0C205C18141459700E9
:1046A8000020E780A02A0DE197370020938747076D
:1046B8009C5B81C7A285114582970145B24022447F
:1046C8009244024941018280938701769C438DE39D
:1046D80023A0A17685472326050004C523112501BB
:1046E80023008500A300F5002322050055B7BA87EB
:1046F800D84775FFC8C7F9BF45C539715AD0138B5C
:10470800417522DC26DA4AD84ED652D45ECE66CA25
:104718006AC86EC606DE56D262CC3689328AAE893F
:10472800AA8401445A8DB94D854BF94C03270B00D7
:10473800131C3400937AF40F62971C43A9EF13B546
:10474800FA0013451500B3978B0063F65D019307D4
:1047580014FFB397FB0093950701C1815286313747
:104768001DC983270D000145E29784C323A23701A1
:104778006304090023005901F2506254D25442598B
:10478800B259225A925A025BF24B624CD24C424DB9
:10479800B24D216182800504E31A94F92145E9BFED
:1047A80009458280411122C426C24AC006C6AA848D
:1047B8002E8932845D3DCA852685EFF03FA609C95A
:1047C80040C10145B24022449244024941018280DD
:1047D8002145CDBF411122C426C24AC006C6AA84BB
:1047E8002E89EFF0BFA32A8419C12311050097373A
:1047F800002083C7A7F663949700239C2175CA8578
:1048080026852D3D014511E01945B24022449244C8
:104818000249410182807547636BA704138741757C
:104828001443411126C293143500A696944222C41B
:1048380006C6AA873A84094595C613B5F7003947CD
:10484800134515006373F700C5178545B395F50043
:10485800C205C18141371C400145A69723A0070026
:1048680023A20700B24022449244410182800945B4
:104878008280411106C6EFF07F9A09C50845B2400B
:10488800410182800145E5BFF54763EDA7049387A1
:1048980041759C4313173500BA979843894721C738
:1048A800011126CA06CE9334F50022CCB94793C429
:1048B800140063F3A700451505443314A40042040B
:1048C80041802EC62685A2856D378947324609C59F
:1048D800A2852685593B8147F2406244D2443E85F1
:1048E8000561828089473E8582802398A174239937
:1048F800B1748280411106C623AEA1740295B240FC
:104908009737002023A6A7E60145410182809947F1
:1049180063E9B7008A0597370020938767E6BE9555
:1049280088C18280411106C6EF60017471468145D5
:10493800173500201305C5E4EFF0DFB41306400275
:10494800814517350020130565E1EFF0BFB323A0BB
:10495800017623AE01749737002083C727DE13D56D
:1049680027008D8B3E958D473305F5029305101072
:1049780035051375F50F973700202382A7DE994771
:104988003305F5021305050F97000020E78000FCAA
:1049980023AAA17435C9994717360020034626DC97
:1049A8003306F60281451306060FEFF0BFAD938775
:1049B80041759C439387070F23A2F1761737002090
:1049C8000347E7D90A07BA9723A6F174EFF0BF8423
:1049D800792E9387417698439737002083C717D855
:1049E80093962700BA96170600001306668590C2AC
:1049F80093862700850793F7F70F8A0797350020D6
:104A0800A38ED5D4BA9790C3B2404101828097371C
:104A1800002083C7B7D417370020034747D463F172
:104A2800E70213874176184393861700173600204C
:104A3800A306D6D293962700369708C33E85828070
:104A48009307F00FE5BF1C41638E071841777D8FF0
:104A5800B706002089476318D71803574500630431
:104A68000718411122C419462A849305F00F5905E5
:104A780006C6EFF05FAB05478D476300E5161C449B
:104A880081CB58589947630A0714185C63070714C1
:104A98001306C003814517350020130565C8EFF0DC
:104AA8007F9E1306C003A28517350020130545C74E
:104AB80097F0FF1FE78040499737002083D707C743
:104AC800973600209386C6C599E7930700101737D5
:104AD8000020231DF7C49737002083C747C591E7F7
:104AE8008547173700202304F7C49737002083C76A
:104AF80017C491E7ED4717370020A30AF7C2973785
:104B0800002083C7E7C291E79547173700202301A4
:104B1800F7C29737002083C7B7C191E78547173792
:104B28000020A307F7C09737002083C7B7C099E7CD
:104B380083C7060117370020A30EF7BE973700205A
:104B480083C727BF91E7D147173700202303F7BE54
:104B58009737002083C7A7BE95E71737002003477C
:104B680067BD1316870161869307C0026348060074
:104B78009377170093B717009387D702173700204A
:104B8800230FF7BA9737002083C7B7BA95E71737C7
:104B98000020034727BA1316870161869307C002CE
:104BA800634806009377170093B717009387D702D7
:104BB80017370020A30FF7B68347D40191E7894739
:104BC80017370020A30CF7B69C5691C782979737E2
:104BD80000202398A7B8B9338147B24022443E85C4
:104BE8004101828089473E858280011122CC06CE10
:104BF8002A842EC6EFF04FECB245F240818D33A5E2
:104C0800A502229562441375F50F05618280011192
:104C180022CC06CE2A842EC6EFF00FEAB245F24027
:104C2800818D33A5A5022295624442054181056123
:104C38008280011122CC06CE2A842EC6EFF0CFE75F
:104C4800B245F240818D33B5A502229562440561D3
:104C58008280973700209387A7AC985725C34111C6
:104C680022C426C206C6BE840297173700200357FF
:104C780047AF2A8441C7BA876373A700AA87C207C8
:104C8800C183BA866373E400A286C206C182958F87
:104C980051476355F706DC5491C382978547173708
:104CA8000020230FF7BEEF10A11997370020239A91
:104CB80087AAB2402244924441018280973700205B
:104CC80083C707BE9DE7973700209387E7BC83C754
:104CD8009700850793F7F70F17370020A302F7BC53
:104CE800A18B9DC7854717370020231BF7BA6F1084
:104CF800411B97370020A38507BAD5BF97370020F7
:104D080083C707BADDD72244B24092444101C5B7F0
:104D18008280973700209387A7A0D857011122CC0B
:104D280006CE3E8401C72AC60297324509CD23A480
:104D3800A17617F5FF1F130505486D3EF240624442
:104D48000145056182808307440163DD07009737C9
:104D5800002023A107A297F7FF1F9387274023A4CA
:104D6800F176C1BF97F7FF1F93876743CDBF011146
:104D780022CC173400201304A49A084406CE26CA6D
:104D88004AC801E90545F2406244D24442490561F6
:104D980082805C58E5DB185C75D770008545829782
:104DA8001844B247E300F7FE9305E00417350020E6
:104DB8000355C59797000020E78040B917370020B2
:104DC800232CA79A61D117360020035626969305FF
:104DD800F00FEFF02FEB81441739002013090998E1
:104DE8009737002083C7A7940326C90163C1F4023B
:104DF800328597000020E780C0BF01459737002023
:104E080023AC07969737002023AA0796ADBF97359E
:104E1800002083D5A591B38795020844185C898141
:104E280085043E9508C2029765BF411122C4173414
:104E380000201304E48E1C4426C206C64AC09734D8
:104E480000209384A49191EBC84C35E9B2402244E8
:104E5800924402490145410182801C5CF5D7DC4C33
:104E680099EF9305E004173500200355258C97002A
:104E78000020E780A0AD9737002023AFA78EC84C4D
:104E880061D5173600200356668A9305F00FEFF0B8
:104E98006FDF01499737002083C76789D04CE355F6
:104EA800F9FA9735002083D56588338525031C4496
:104EB800898105093E951C5C08C28297E1BF97006D
:104EC8000020E78000B39737002023A7078A973789
:104ED800002023A5078A9DBF011156C2973A0020DA
:104EE800938A0A8483A78A0022CC4AC84EC606CE73
:104EF80026CA52C45AC0AA892E84328963850722D9
:104F080003A74A03630707147D476366A71497340A
:104F180000209384A48403AAC40163170A0A956530
:104F2800938515E01735002003554580970000202C
:104F3800E780C0A19737002023A0A7842A86630AA8
:104F4800051083A74A0303A58A009725002083D567
:104F5800E57D8981829783A78A0003AAC401173750
:104F68000020232DF7808947639CF908C147631205
:104F7800F40E9725002083D5657B938505FC914722
:104F8800B3C5F5028A05D29503C705009307A005A6
:104F9800631DF70A83C715006399370B4A85228674
:104FA800910597F0FF1FE78020FADC4C5285639348
:104FB80047150145F2406244D2444249B249224A67
:104FC800924A024B056182809850E38EE7F8956516
:104FD800938525E017250020035545759700002087
:104FE800E780C0962A8A35C52A8683A74A0303A57F
:104FF8008A009725002083D5657389818297A5B794
:105008008D47639DF900C1476315F4049725002077
:1050180083D5C571938545FDF199B5B79147639AD5
:10502800F900631834039725002083D52570A1154E
:10503800E5B7C147639FF900A14763EC870097254F
:10504800002083D5A56EC115C1BFDC4C528563977E
:10505800470D294585B71307F006568B6361A70AE4
:10506800130A05FE1947334AEA0217270020035797
:10507800E76B972A0020938A6A6E330AEA023E9AFF
:1050880083A70A026395470183A4CA019DE4930597
:10509800E004172500200355656997000020E78084
:1050A800E08AAA845DD583274B039725002083D502
:1050B800E5672A8689815285829791451307A0055D
:1050C800898193972500A69783C607006393E60412
:1050D80083C61700639C360385058A052286A69534
:1050E8004A8597F0FF1FE78020E683A7CA01E3827D
:1050F80097EC268597000020E780A08F5DBD1307F9
:10510800E007E368A7F4130A05F985B783D52700F4
:1051180045BF83A7CA01E38E97F226859700002032
:10512800E780208D3DB79727002093872763CC4FD2
:105138008DD191479306A0058983139727002E9751
:1051480003460700E317D6F003461700631C360131
:1051580085078A072286BE954A8597F0FF1FE78054
:10516800A0DE81BD83572700C1BF97270020938702
:10517800275B984739C79C5FA9C705476313E504B0
:10518800411122C4172400201304445D504C06C664
:105198000DC608509725002083D5455989818297E7
:1051A800484C97000020E780C0849727002023A55B
:1051B800075C9727002023A3075CB24022444101E3
:1051C80082808280011117270020130767554EC679
:1051D8008329870022CC26CA4AC806CE52C456C2A2
:1051E800AA842E843289638A09201C5FBA8A99EBC3
:1051F8002945F2406244D2444249B249224A924A7D
:10520800056182805C5BEDD7FD4763E9A70E9729AE
:1052180000209389A95483A7C901B1CB03A58A00AB
:1052280083A709026395A70689476393F408C147D2
:10523800E310F4FC172500200355454F914713054B
:1052480005FC3345F5029317250003A5C9012286FD
:10525800CA853E959307A0052300F500A300950095
:10526800110597F0FF1FE78020CE014559B7930538
:10527800E004172500200355654B97F0FF1FE780D2
:10528800E06C9727002023A9A74E49F995B783A773
:105298004A0303A6C9019725002083D5254989819A
:1052A800829783A78A00172700202329F74CADBFD0
:1052B8008D47639EF400C147E31CF4F217250020D4
:1052C8000355C546130545FD9377C5FFBDBF9147F7
:1052D800639AF400E31E94F0172500200355054552
:1052E8002115DDB7C147E395F4F0A147E3E287F064
:1052F80017250020035585434115F9B79307F00694
:1053080063EAA706930705FE1947B3C7E7021727FD
:1053180000200357A741172A0020130A2A44B387FD
:10532800E702BE998327CA01A9CF83270A02639A95
:1053380037070325CA0191461308A005FD5593D7E1
:105348002600C207C183139727002A970346070040
:10535800631D0607834817000356270063959806C0
:10536800B306D64063CF860485078A072286CA8596
:105378003E95C5BD9307E007E3ECA7E6930705F95B
:1053880079B79305E004172500200355253A97F0CF
:10539800FF1FE780A05B9727002023AFA73C51F5AC
:1053A80081BD83A74A030326CA019725002083D518
:1053B800E53789814E8582979727002023A0373DBE
:1053C8008DBFA300B700B2869DBFB38586001726A0
:1053D80000200356A6359105130606FCE3FAC5E03E
:1053E800130634001376C60F1106B2962300070180
:1053F800A30097002311D70085BF97270020938724
:10540800E735D44FBE89A1C203A5C9019146130847
:10541800A005FD5593D72600C207C183139727001F
:105428002A970346070063160605834817000356A4
:10543800270063989800B306D640E3D786F2A30006
:10544800B700B286C1BF8357C700172500200345A0
:10545800052E9305E0043305F5024205418197F0D6
:10546800FF1FE780A04E9727002023A7A73049FDFC
:1054780041B3172600200356662B9725002083C5C5
:10548800052BB385C502338686001106E3E2C5D62F
:1054980081BF0145828083C705002300F50083D7BB
:1054A8002500A300F50083D72500A1832301F5007B
:1054B80083C74500A301F5001145828023A8017622
:1054C80023A60176828029C1411126C206C622C4BC
:1054D800AA8401458DC52E842285414697A50100E1
:1054E800938545AF97F0FF1FE78000A683C70400A8
:1054F80005452306F40083C71400A306F400B24050
:10550800224492444101828001458280011122CCCB
:1055180026CA06CE0947AA8432846381E504414637
:105528008147639BC500638FE6006397B6000DA8AB
:1055380041478147638EE600F2406244D2443E858B
:10554800056182808A852285BD3F41468A8519A8E2
:105558008A85953F41468A85228531A0E39AB6FC23
:105568002E86A2852685EFE01FF8AA87F1B723A823
:10557800A1768280011122CC0354650006CE26CA8A
:105588004AC84EC641C083298500AE842A8803C90B
:105598000900814713178901618763550702B147DD
:1055A800054563FA870451144204035528004180D5
:1055B80033878900A2864E868545EF90F079B33708
:1055C800A00085077D1413556900420405891379E5
:1055D800F90341802380F400A380A40023812401DF
:1055E80023928400014719C01387190098C40947FA
:1055F8006383E7000145F2406244D2444249B2491C
:10560800056182800545C5BFC167F917630AF502C0
:10561800D94763F7B702011122CC2EC606CE2A84D9
:10562800EF505046B2456368B50022856244F240A7
:1056380005616F70C068F24062440545056182806B
:1056480005458280C167F9176314F5006F509043D0
:10565800411106C6EF70A05511E15D45B240410108
:10566800828039714ED656D25AD006DE22DC26DA2E
:105678004AD852D4AA8A2E8BB28941EF36C6D93776
:105688009145EF50F051AA844D492DC9B246054ABB
:10569800238034010544630A0B00B6851385140082
:1056A800029B0505131405014180E20993D989413C
:1056B80063D30902C1455685EF70605D654905E908
:1056C80033868400A2852685EF90D02B2A8905E1B0
:1056D80031044204418091472C085685231CF1006F
:1056E80026CE231D8100EF6070632A8901C96307F4
:1056F8000A00268597F0FF1FE780A02FF25062541A
:105708004A85D2544259B259225A925A025B2161AF
:105718008280BA84014AADBF011122CC26CA4AC888
:105728004EC606CE2A893284B689253FAA8405E169
:10573800938701779C4381CF05476317E40003C42F
:10574800090005041374F40FA2854A858297F24074
:10575800624426854249D244B24905618280AE86B8
:105768000147054697050000938525D375B70111B4
:1057780006CE2EC6EF70A03F01C9B245F2400355D0
:10578800250005616FA0807AF24049450561828055
:10579800A38E0178238E017823A2017823A40178AF
:1057A80023A6017823A8017823A0017823AE0176E7
:1057B80097270020938787FE3707B40098C3374799
:1057C800A000D8C3370710009306070A94C7B70686
:1057D8005000C106D4C7930607054107D8CB370741
:1057E800D007410798CF3707840398D337C70700F6
:1057F800130707B8D8D3416794CB9306070113075B
:1058080017F8D8D7417723AE070094D798DB828062
:10581800011126CAAA84214522CC06CE2E8432C67E
:1058280036C43AC2EFE07F8F1DC9A24612473246FE
:10583800930700FD2300F5009947A3009500230175
:10584800F5002303D500A303E5002312C500AA85AC
:1058580022856244F240D24405616FE07F96F240AF
:105868006244D2440561828023A2A178828023A465
:10587800A178828023A6A178828023A8A17882803B
:10588800011122CC4AC806CE26CA2A890144B3048B
:1058980089006368B400F2406244D2444249056119
:1058A80082802EC6EFE05FA193170501C183A18313
:1058B800B2452380F4009307140093F7F70F85048B
:1058C80063F9B700CA9709042380A7001374F40F7B
:1058D8007DBF3E847DBFC167172500200355A5EF16
:1058E800FD176304F502411117F6FF1F034686737F
:1058F8009385417906C6EF70E005B240FD5717273A
:105908000020231AF7EC41018280828009C92515FD
:105918001375F50F1335850E134515008280014563
:10592800828023800500F94763E2C708797122D491
:1059380026D24ECE56CA5AC806D64AD052CC5EC6D1
:105948003684B289AE8A2A8B814463FF3405B30753
:10595800940003CA0700138914001379F90F63052B
:105968000A04B3072A0163C1F904B307240183CBEE
:1059780007005E85613F0DC99307FAFF2380FA008F
:1059880063906B03130519002295B2502254925468
:105998000259F249624AD24A424BB24B456182806F
:1059A800D29493F4F40F55B70145C5B701458280E9
:1059B800411126C2AE8422C49727002023A4C7E23F
:1059C8009727002023AEB7E09727002023A8A7E059
:1059D8002A8441469305F00F26854AC006C6054924
:1059E800EFE07FB4631E250397270020938747DEE7
:1059F800884BC145713541469305F00F2285EFE08C
:105A08009FB2854463169502224497270020938706
:105A180027DCB24092440249C847C14541018DB5CF
:105A2800414681452685EFE01FB0E31625FD6DBF91
:105A3800414681452285EFE01FAFE30795FCB24060
:105A480022449244024941018280411122C426C263
:105A58002E84AA8413060002814517250020130509
:105A680025D706C6EFE01FA297270020A38397D665
:105A780097F7FF1FA389875AEFA0C04C854719C124
:105A880081474945B2402244172700202302F7D412
:105A9800924441018280814781CD19C98547631BA2
:105AA800F50083C7550093E707FCA382F5008547F7
:105AB8003E85828089476317F50083C7550093F7B1
:105AC800F703E5B70D478547E314E5FE03C755001F
:105AD8001377F70313670704A382E500D1BF814753
:105AE8008DC105C103C755009306000C8547137780
:105AF800070C6308D700930600048D476303D7009B
:105B080089473E858280411122C4005D06C626C2AF
:105B18001DC8AA84085009C597F0FF1FE78060EDEB
:105B2800485009C597F0FF1FE780A0EC085409C545
:105B380097F0FF1FE780E0EB228597F0FF1FE780D3
:105B480040EB23AC0402B2402244924441018280DB
:105B580009ED9727002083C7C7C71725002013051D
:105B6800A5C881CB138541778280172500201305AE
:105B7800A5C78280172500200345A5C582809727E1
:105B880000209387E7C4C84782809727002093871F
:105B980027C4884B828097270020938767C3DC4BF4
:105BA8008843828097270020938787C2D84B1C435D
:105BB80085071CC3172500200345B5C19307F00FBF
:105BC8006305F50091656FE0FF978280011122CC93
:105BD80006CE2E8432C6EF70000A9147B245631F85
:105BE800F500938701799C438DC303A30700630ED7
:105BF800030022856244F24005610283938781781D
:105C08009C4381C703A34700DDB7F24062440545C2
:105C180005618280011122CC2A840355450006CEF5
:105C280026CA4AC84EC6EF60B06335C52A89834480
:105C380005008349C500C13D4A85EF709062035550
:105C48004400EF60D07E83C7C179B1CB63999704D4
:105C580083C5D1792685EFF09FB119E1238E0178AC
:105C680003554400EF7020019147631FF500035767
:105C780044009727002083D707B66317F700FD571E
:105C8800172700202319F7B4F2406244D24442494E
:105C9800B2490561828081499304F00F6DB793077B
:105CA800F00FE38FF4FA834664000356440003457B
:105CB80024004E87A685EFF0BFB55DB779715EC643
:105CC800AA8B2E8552CC56CA5AC806D622D426D2BA
:105CD8004AD04ECEAE8A328B368AEF6070586DC18C
:105CE800045D2A89F1CC9C50614599C31305400392
:105CF8009C5481C751054205418163050A0071051D
:105D080042054181DC5081C7590542054181EFE0D8
:105D1800CFC02A8455C561468145EFE0AFF6972983
:105D2800002083C9A9AA639409008349090093073D
:105D380000FD2300F400A947A30074012301F40027
:105D4800230364018C50231254011305840191C963
:105D580008C47146930A440397E0FF1FE780C01EFA
:105D680056858C5491C948C45146930A450197E019
:105D7800FF1FE780601D5685630C0A0008C871463E
:105D8800D285930AC50197E0FF1FE780E01B56857F
:105D9800CC5099C548C8594697E0FF1FE780C01AFC
:105DA800A2854E85EFE0CFC12254B2509254F249F9
:105DB800624AD24A424BB24B4A8502594561A1B365
:105DC800B250225492540259F249624AD24A424B82
:105DD800B24B4561828001114EC6AA892E854AC8F8
:105DE80006CE22CC26CA2E89EF60904731C597246B
:105DF800002083C4A49D99E0834405001945EFE081
:105E0800CFB12A8415C981451946EFE0AFE793075A
:105E180000FD2300F400B947A30034012301F40076
:105E280023122401A2856244F2404249B2492685E0
:105E3800D24405616FE0CFB8F2406244D24442498F
:105E4800B2490561828039715ECEAA8B2E8526DA29
:105E58004ED652D456D25AD006DE22DC4AD8AE8468
:105E6800328BB68A3A8ABE8942C6EF60703F31C922
:105E78002A894145EFE06FAA2A8421C54146814518
:105E8800EFE04FE0172500200345459419E103454D
:105E98000900930700FD2300F400BD472301F40027
:105EA800B247A30074012312940023046401A304DD
:105EB800540123054401A30534015CC4A285EFE025
:105EC8002FB0F2506254D2544259B259225A925ABF
:105ED800025BF24B21618280797126D2AA8439450E
:105EE8004AD04ECE06D622D42EC6B2893689EFE0E5
:105EF800CFA221C1B2459307000D2310F500B14789
:105F08002A842312B5002301F500CE851905194608
:105F180097E0FF1FE780400323062401A28522544F
:105F2800B2500259F24913F5F40F925445616FE0EB
:105F38002FA9B250225492540259F24945618280E5
:105F4800172700200347F7889307F00F630DF7061C
:105F5800411126C2AA84394522C406C64AC0EFE0C8
:105F6800CF9B2A8439C9930700FD2300F500A300BD
:105F7800950023010500972500209385E5860D05EA
:105F8800194697E0FF1FE78020FC17290020130916
:105F9800298483578900A285172500200345758326
:105FA8002315F400834719002306F4002244B24065
:105FB8009244024941016FE0AFA0B24022449244AA
:105FC8000249410182808280011156C2AA8A314564
:105FD80026CA4AC84EC652C406CE22CCAE84328ADD
:105FE800B6893A89EFE06F9329C92A842685EF603C
:105FF80030271DCD03450500930700FD2300F4005D
:106008009D47A30054012301F40023129400231395
:1060180044012314340123152401A2856244F2406B
:10602800D2444249B249224A924A05616FE04F99E7
:10603800171500200345F579C1B7F2406244D244F0
:106048004249B249224A924A05618280397162CC3A
:106058002A8C594526DA4AD84ED652D456D25AD026
:106068005ECE06DE22DCAE8432C636C4BA8B3E8BE8
:10607800C28A468A8359010403494104EFE0EF8943
:1060880035C53246930700FDA2462300F500954723
:10609800A301C500A30085012301F5002A84194640
:1060A8001105A9C2B68597E0FF1FE780E0E923063E
:1060B8006401230A240123157401231754012318AA
:1060C800440123193401A2856254F2504259B2594D
:1060D800225A925A025BF24B624C2685D2542161B5
:1060E8006FE00F8E8145EFE0EFB9D1B7F2506254FF
:1060F800D2544259B259225A925A025BF24B624C1C
:10610800216182809717002083C7A76C8DCB41112E
:10611800AA8519461385417706C697E0FF1FE780D1
:10612800A0E293854177171500200345856AEFF0B3
:106138009F96B2401385417741016F9030610145C8
:106148008280171700200347D7689307F00F63056D
:10615800F708411126C2AA84294522C406C6EFD0F1
:10616800DFFB2A8429C1930700FD2300F500A1471E
:106178002301F500A3009500971700209387476532
:1061880083C72700938541771105A30FF5FE1946AC
:1061980097E0FF1FE78040DBA28517150020034525
:1061A8005563EFE0EF8117170020034787628D479B
:1061B800631FF7009387C1789C4391CB03A38700A3
:1061C800630703002244B240924441010283B24073
:1061D8002244924441018280171700200347675FD9
:1061E8008D47631AF7009387C1789C4389C703A337
:1061F8008700E31D03FC8280797122D406D626D25B
:106208004AD04ECE52CC094445CD2A8903550500C3
:106218002E8A5144EF60D004AA845DC197F7FF1F0E
:1062280083C777E0FD1793F7F70F0547494463796C
:10623800F7080347C500A1476314F70063120A086B
:106248009C5C4544B5EF9165938545711305C00283
:1062580097E0FF1FE780806F88DCAA894D442DC135
:106268001306C0028145EFE0EFA18357090093862A
:10627800490036852391F90071469305490036C6D1
:1062880097E0FF1FE78040CC89472380F90003C5CA
:10629800C400B24603560900611597F5FF1F83C570
:1062A80065D813351500EF90601E2A8463060A002E
:1062B800D2852685EF70502701C42685EFF0BF846C
:1062C8002285B250225492540259F249624A4561D9
:1062D800828097F7FF1F83C717D5FD1793F7F70F2E
:1062E80005476378F708894751C6011122CC26CAA9
:1062F8004AC84EC652C406CEAA89368AB2842E89A6
:10630800EF6000762A84D14729C9485509C597E026
:10631800FF1FE780006EF1452685EFE00F9948D40E
:10632800CD4705CD8346C40021478147639FE600DA
:10633800630D0A000347A5010356050193062501CD
:10634800AA854E85EF706013AA8703474400630F40
:106358000900136767002302E400F2406244D24454
:106368004249B249224A3E85056182801367470047
:10637800DDB7C9473E858280E14763EBA7009717E1
:1063880000209387A74106053E95035505008280A6
:1063980041657D158280011122CC2A842E8526CA6A
:1063A80006CEAE84EF60C06B0DCDB7470F00938764
:1063B800F723094563E2870281450A854146EFE0F4
:1063C8006F8CA685231081000A85418023018100F6
:1063D800A3010100EF80306DF2406244D2440561B0
:1063E80082804945D5BF97F7FF1FA38DA7C282803A
:1063F8006F904002797152CC2A8A328522D426D2F3
:106408004AD04ECE56CA5AC85EC606D662C4AE8BAD
:10641800B28A368BBA843E89C2894684EF6040646A
:1064280015C92A8C63140A0213774B008347450069
:1064380015CF93E727012302FC008DEC631C0902AA
:10644800639A090205E8ED9B2302FC00832B8C0369
:10645800639F0B06B250225492540259F249624A81
:10646800D24A424BB24B224C45618280F59B93E75E
:106478000701D1B793E747002302FC0001CC1C4871
:106488004146A2852324FC0213058C0197E0FF1FD7
:10649800E78080AB63910B02D5D80325CC0209C5F0
:1064A80097E0FF1FE780E054F1452685EFD0FFFF16
:1064B8002326AC0261BFE30B09F80325CC0209C50A
:1064C80097E0FF1FE780E052F1454A85C5B79DC4B4
:1064D80083A70B0299EB916593853571714597E018
:1064E800FF1FE780A04623A0AB0203A50B0219C536
:1064F8007146A68597E0FF1FE78000A5638809021B
:1065080083A74B0299EB916593852571594597E0CF
:10651800FF1FE780A04323A2AB0203A54B0219C5C6
:106528005946CE8597E0FF1FE78000A21DC483A7C8
:106538008B0299EB916593851571514597E0FF1F83
:10654800E780C04023A4AB0203A58B0219C55146BE
:10655800A28597E0FF1FE780209F2254B2509254F3
:10656800F249B24B224CCA865A860259424BD6850A
:106578005285D24A624A45616FF04FF4011126CA2A
:1065880052C406CE22CC4AC84EC62A8AAE84EF60D0
:10659800204D25C5AA893945EFD03FB82A8431CD89
:1065A80017190020034989226314090003C9090047
:1065B8009307000D2310F400AD472301F4009385E1
:1065C800690013053400194697E0FF1FE780C0975C
:1065D80093F71400858085882306F400A3069400A9
:1065E80023154401A2856244F240D244B249224AAA
:1065F8004A85424905616FD0BFBCF2406244D2442B
:106608004249B249224A056182809387C17788430B
:1066180001CD411106C697E0FF1FE780803DB240DB
:1066280023AE0176410182808280011106CE22CC00
:1066380026CA4AC82EC6EF60A04239CDB2451719FE
:1066480000200349A918AA840CD56314090003493A
:1066580005004145EFD07FAC2A841DCD9307000D7E
:106668002310F500A5472301F50083C7540093853F
:1066780064001105A30FF5FE194697E0FF1FE78098
:10668800A08C9C54A285F2405CC46244D2444A85E2
:10669800424905616FD0DFB2F2406244D2444249B8
:1066A80005618280797122D406D62A842EC6EF60CD
:1066B800203B0DCD8346C5001147AA874945639302
:1066C800E6029C5FB24599C383C567010808EF706D
:1066D800E06E97860000938666F810088945228543
:1066E800EF60F05EB2502254456182805145DDBFB3
:1066F80097F7FF1F83C73793FD1793F7F70F0547E2
:10670800637AF704894721CA411122C426C24AC0C4
:1067180006C6B2842E89EF60A0342A84D14705C505
:10672800630809008347450093E727002302F50023
:106738004146A6851305840197E0FF1FE780C080C6
:106748009C481CD48147B2402244924402493E8569
:1067580041018280C9473E858280797122D406D65C
:106768002A842EC6EF60C02F01CDB2452285230EA4
:10677800B1006C08EF70C057B25022544561828056
:106788005145DDBF6F602044C1671387E7FF6394FD
:10679800E502938781789C4391EB4945828049457E
:1067A800B2402244924402494101828003A3070077
:1067B800E30503FE0283411122C426C24AC006C66D
:1067C800FD172A892E84B2846395F5029387817810
:1067D8009C4391CB9C4381CB829711E5238E2179F1
:1067E800A38E917875BFA6854A85EFE05FF84DF9CD
:1067F800F5B72E85EF60C0265DD1834705000D45AE
:10680800E39027FB22852244B2400249A6859244A0
:1068180041016F90A07161476362A704411141670C
:1068280022C406C626C27D172A8409456383E50269
:10683800C547AE846315F4002E85EF90A0769317B4
:10684800140017140020130464F5A29723909700EE
:106858000145B24022449244410182800945828028
:10686800011106CE2AC6EFE0BFF2EF10A004EF0038
:106878000076EF40E130324597170020938747F5BF
:10688800130700F02391E700238207007D5797E75D
:10689800FF1F93872779A380E7002380A700F24092
:1068A800954505616F40302A5D7193970501CAC00F
:1068B80086C6A2C4A6C24EDE52DC56DA5AD85ED6C6
:1068C80062D466D26AD0C1872E8963D3074C17E594
:1068D800FF1F03452575EFD03F888964416A856AA3
:1068E800797B2A84938BD4007D1AA50A691B15E04D
:1068F80021653345A900B640264496440649F25915
:10690800625AD25A425BB25B225C925C025D616160
:106918008280834704001307200A639DE70003551C
:106928002400171C0020034CDCEA2286D285EFF0F5
:10693800EFA999A21307100917ECFF1F034C9C6ECF
:106948006399E7168347140015476390E702228589
:10695800EFF04FAC2285EFD08FF917E5FF1F034505
:10696800656CEFD06FFF2A8459B739476399E716EA
:1069780003554400631B55050C4483C90500639DFA
:106988000900850591C91946171500201305C5E5A5
:1069980097D0FF1FE780405B17170020034747E3A6
:1069A80085476318F710638A090097170020238129
:1069B80007E24E85EFF0CFD871BF8947171700203F
:1069C8002308F7E0EF90405871B793872400631AC3
:1069D800F50683298400638E090C83C709008DE3BB
:1069E80083C7290003C71900A207D98F17170020EA
:1069F8002314F7DE83C7390017170020A30AF7DC32
:106A0800171700200347C7DC89476314F70A83C7B1
:106A1800090081CB97170020238C07DA03C50900EA
:106A280051BF8D479715002083C595DA17150020AB
:106A3800035585DA17170020230CF7D8EF40B01359
:106A4800F1BF938754006318F5001C4403C5070081
:106A5800EFF02FEF01B7B3076501C207C1831147F4
:106A6800636FF7009387C1789C43E38507EE9C43E7
:106A7800E38207EE22858297E31E05EC1DA8938723
:106A8800B400631FF500938741789C43E38407ECC7
:106A98009C43E38107ECA2851385B4008297E9BF84
:106AA8009387C4006310F5021C4483C70700E3837F
:106AB80007EA9307F00FE30FFCE8A2856285EFD0A1
:106AC8002FF061BD9387E400E315F5FE9387817885
:106AD8009C43E38107E8DC43A285E9F3A5BD3D4774
:106AE8006397E70403554400E30275FF9387940115
:106AF800E30EF5FC93873401E31DF5FA97170020A0
:106B080083D767CD639E4701938781789C43E3834E
:106B180007E4DC43E38007E4A28513853401BDBFA5
:106B2800938701799C43E38707E29C43E5B7130702
:106B3800E003E390E7F88347240005476396E70EF0
:106B480083476400138DC177F1E383270D00D5CB0C
:106B580003CC0700A14903457400930C8400E68523
:106B6800EFE0FFF783474401A303A400835804011F
:106B78000358E400035744002A86034534003EC204
:106B880083572401E686E2853EC0CE87EFF00FCC1E
:106B98008347340095E7DD47835804010358E40030
:106BA80083467400835544003EC283572401668798
:106BB80005463EC06285CE87EF60E022A301A400AF
:106BC80083270D0081C71145EFF03FA403C5C179A4
:106BD800E30205D883C5D179EFE07FB9E30C05D688
:106BE8008346340093071003638AF6000356440073
:106BF8004E8783C5C1793685EFE09FC1238E017822
:106C080091BB171C0020034CDCBCA9B79387C17843
:106C18009C43171C0020034CDCBB91498DDFDC43EF
:106C28009DDB0145829705BF2947639DE70A834796
:106C38006400938CC177C9EB83A70C00C9C303CC4C
:106C48000700A14903457400130D840093772500BC
:106C58001376150089E7EA85EFE07FE82A868347FF
:106C68000402A303C4008358C4010358A4010357B2
:106C78004400034534003EC28357E401EA86E285B6
:106C88003EC0CE87EFF08FBC8347340095E7DD47E1
:106C98008358C4010358A4018346740083554400F3
:106CA8003EC28357E4016A8705463EC06285CE87A7
:106CB800EF606013A301A40083A70C0021B7171C81
:106CC8000020034C1CB1B5BF9387C1789C43171CA7
:106CD8000020034C1CB09149B5D7DC43A5D701452A
:106CE80082978DB70947639DE700938741789C4356
:106CF800E38207C6DC43E38F07C42285829799B9EC
:106D08002D476399E700938741789C43E38407C440
:106D18009C47D5B70D476397E70022868D450355F5
:106D2800440031B11947E396E7D89305610113058B
:106D38001031EF30F1712C0813052031EF3051710B
:106D480003566400835781010355440063E8C70074
:106D5800835684000357610163F7E6009305000238
:106D6800EF904023C5BE6374E6002313E40063F488
:106D7800D7002314F4000357C4008356A400035615
:106D880084008355640001488147EF906020D9B69C
:106D980093F7150081CF938741789C4389C7DC43DB
:106DA80099C30145829713451900B1B693F7250099
:106DB80081CF9387C1789C4389C7DC4399C3054534
:106DC80082971345290005BE93F745000145E384E2
:106DD80007B2938701789C4391CF85471717002006
:106DE800230AF79E9387C1789C4389C7DC4399C3DC
:106DF80005458297971700209387879DC8472C08D9
:106E0800EF8000332808EFF0EFAF9717002083D703
:106E1800079B81CF130600643386C702914517E5A7
:106E2800FF1F03452520EFD05F8413454900E1B4D7
:106E3800411122C42A84554506C6EFF0EFD3B33575
:106E4800A00022852244B24041016F9060117971FF
:106E580022D406D68D472E84631FF50003D7A500DC
:106E680083D6850003D665000345340083D54500E5
:106E7800EFF08F9509A889671387D7006310E50499
:106E880003C5250019E58547B25022543E85456162
:106E980082809387C1779443FDD603C6360083C5A5
:106EA8000600814802C202C0014881470147910695
:106EB800EFF0CF990545EFF04FF5F1B71387E700ED
:106EC800E303E5FC13873701631AE50003C52500D2
:106ED8005DD9014781460146814559BFE507E3046D
:106EE800F5FA41677D178147E310E5FA03C75500B6
:106EF800C947E31AF7F883D6E50003D6C50003555A
:106F0800840083D5A500EF90600A51C15D45EFF07C
:106F1800AFC63335A000231CA100834544000355A8
:106F280024003008EF50702483578101A9FF6C08B2
:106F380013051031EF30D1519305E10113052031CC
:106F4800EF3011518357C101035784006374F70070
:106F58002314F4008357E1010357A40063F4E70006
:106F68002315F400835584008357A40063F4B70005
:106F78002315B4000357E4008356C4000356A40045
:106F88000355240001488147EF80907EEDBD854779
:106F9800231CF10059B7C1671387E7FF639DE5001C
:106FA8009387C1779C4395C383C707000D47639CAC
:106FB800A7006F80307BFD1749476396F5009387DC
:106FC800C1779C43FDF73A8582804947EDBF23840A
:106FD800017A23A8017A23A6017A971700209387BC
:106FE8002781170700001307074898C317070000F1
:106FF8001307274BD8C3170700001307875B98C7E9
:107008009387017A17070000130727F998C3170712
:107018000000130707E4D8C38280797122D406D60A
:1070280026D24AD04ECE52CC56CA5AC8034705007B
:1070380085472A84630AF70403468500930695006A
:107048009305F1000545EFE0DF8D814719C18347BE
:1070580005008346040011476380E6041387C17A5C
:1070680018438D46034717006308D70295C70DC715
:1070780019ED0145B250225492540259F249624A1C
:10708800D24A424B4561828081470145D9B785463E
:107098006318D7028D8BF1DF03451400130A24000F
:1070A800D285EFE0DFA3A300A4001389017B832727
:1070B8000900AA8A81499304F00F99EB05455DBF41
:1070C8008946E318D7FA858BF9B7850993F9F90F3B
:1070D80083C7817A63FBF90203250900139B4900E2
:1070E8005A9583470500E38297FE83471500E39E80
:1070F80057FD1946D2850905EFD0EFBE79D583240F
:10710800090003470400DA9485EC8346040091479C
:10711800E381F6F683270900A9DF03C6817A0147D0
:107128009305F00FE307E6F4BE84C10703C507FF24
:10713800630CB50A05071377F70FEDB788C4E5A008
:107148009147631AF706C84405C583478400034678
:1071580005006304F606034704009147631BF7061E
:10716800C84419C597E0FF1FE780A08823A604003C
:107178000345840091659385E571050597D0FF1F48
:10718800E780C07C05C5034704009147631CF704EA
:10719800C8C483478400930594000505A30FF5FE32
:1071A8000346840097D0FF1FE78000DA0345840078
:1071B8003335A000C1B5884441BF93059400050547
:1071C800EFD06FB28547E318F5F85545EFF0CF9A41
:1071D800BDA8884451DD97E0FF1FE780808123A484
:1071E800040079B788C475B72380D4008347140096
:1071F800D28513852400A380F400194697D0FF1F79
:10720800E78080D40345840091659385F571050571
:1072180097D0FF1FE780807305C503470400914797
:10722800E31EF7F0C8C4834784009305940005055E
:10723800A30FF5FE0346840097D0FF1FE780C0D058
:1072480083478400E39C07E6034504007D15133556
:1072580015000DB5011122CC1384017B1C4006CE0C
:1072680026CA4AC84EC652C499CF2E8AAA84014952
:10727800084063129902630C0A0497D0FF1FE78045
:10728800407723A8017AF2406244D2444249B24985
:10729800224A0561828093194900B307350188475E
:1072A80009C997D0FF1FE780C0741C40CE9723A45C
:1072B80007001C40CE97C84709C997D0FF1FE78031
:1072C80040731C40BE9923A60900050955B745DD42
:1072D800139644008145EFD0EF9A144081477D56BC
:1072E80013F7F70FE37197FA1397470036972300C0
:1072F800C7008507F5B7011152C4138AC17A8327DD
:107308000A0006CE22CC26CA4AC84EC656C25AC061
:10731800C9CF2A89014419ED9387017B944399CAFF
:1073280003C6817A2A8481479305F00F13F7F70F74
:107338006367C708131534002105EFC01FDEAA8450
:1073480001E92145EFC07FDDAA8421C501444D49EB
:10735800930700FD2380F4008547A380240123813F
:10736800F400A38184005DC41389840023A224014E
:107378008149938A017B130BF00F83C7817A63F3EA
:10738800F90031E883270A00A68503C50700EFC086
:107398003FE3814503C5817A753D03250A0097D0EF
:1073A800FF1FE780006523A6017AF2406244D244B9
:1073B8004249B249224A924A024B05618280139798
:1073C80047003697034707006305B70005041374A1
:1073D800F40F8507A1BF83A70A0093954900BE95BE
:1073E80083C70500638467032300F90083C715007A
:1073F800130529007D14A300F900194689051374A3
:10740800F40F97D0FF1FE78020B42109850993F96D
:10741800F90FA5B723A20400B5B7411122C406C6C7
:107428002A8415E10945EFE03FF52A8601C985451B
:1074380017E5FF1F034505BFEFD02FA30545EFF064
:107448003F9F2A8411C9854517E5FF1F034585BD60
:10745800EFD04FB822854535B24022440545410159
:10746800828089671387B700631AE5009387C17A1A
:107478009C439DC39C4503C5070045B71387C700B8
:107488008147631CE5009C4503C50700854711C576
:107498009387C17A9C43F5F381473E858280797151
:1074A80006D622D426D24AD04ECE52CC56CA5AC874
:1074B8005EC679C983473500AA8985C7404115C08A
:1074C8005945EFE07FEB931A850193DA8A41014928
:1074D800138AC17A130B000DB54B83C73900636D4E
:1074E800F900B250225492540259F249624AD24ADF
:1074F800424BB24B456182808307840263CD5707B4
:1075080083270A00ADCB2285EFF03FB12DC5034597
:1075180084005105EFC07FC0AA8431CD23106501D6
:107528002301750183470400194693052400A3012C
:10753800F5008307840215052303F500834714002B
:10754800A30FF5FE97D0FF1FE78000A00346840035
:107558002386C4001DC61385440188C8930594007A
:1075680097D0FF1FE780409E83270A00A68503C5A2
:107578000700EFC0FFC40509130494021379F90F3B
:10758800A9BF23A80400CDB79387C17A9C43B1DB78
:10759800EFF07FD62254B25092540259F249624A0F
:1075A800D24A424BB24B014545616FF07F887971F1
:1075B80006D622D426D24AD04ECE52CC56CA5AC863
:1075C8005EC671C183473500AA8985C7444195C005
:1075D8005945EFE07FDA931A850193DA8A41014928
:1075E800138AC17A130B00FDC14B83C73900636D41
:1075F800F900B250225492540259F249624AD24ACE
:10760800424BB24B456182808387F40063C85707B9
:1076180083270A00A5C75145EFC03FB02A8439CD5A
:1076280023006501A30005002301750183C7040039
:10763800194693852400A301F5008387F4001505F6
:10764800A306F50083C71400A30FF5FE97D0FF1F0C
:10765800E780808F83C78400938594001305C40056
:10766800A305F400194697D0FF1FE780E08D832714
:107678000A00A28503C50700EFC09FB40509C1042D
:107688001379F90F9DB79387C17A9C43BDD3EFF067
:107698009FC62254B25092540259F249624AD24AC1
:1076A800424BB24B014545616FF08FF897E7FF1FDA
:1076B80083C77797A18B1385017A91E301456FE022
:1076C8000F9B411122C485452A8403C5817A06C6C9
:1076D800EFF05FB897E7FF1F83C7F794A98BA5CB97
:1076E800170500201305C5102384817AEFE0CF9792
:1076F8001384017B1C4091C74D45B240224441018F
:10770800828003C5817A19E10145C5BF91659385DA
:10771800B571120597D0FF1FE780402323A8A17AEF
:1077280061DD03C6817A12068145EFC0BFD51040DE
:1077380083C6817A8147FD5513F7F70FE376D7FCA7
:107748001397470032972300B7008507F5B701451F
:107758002384017AEFE04F9145BF938701788843EE
:1077680001CD411106C697D0FF1FE7808028B2409F
:1077780023A00178410182808280011122CC06CEAB
:107788008D472E846316F50603C73500E94703D5F0
:1077980045006318F7009707002083D7C703638560
:1077A800A706EF50E02B09C5835764002317F5009F
:1077B8000357A4008356840003566400835544008D
:1077C80003453400EFE05F8003574400970700202B
:1077D80083D767006308F7008547F24062443E8517
:1077E80005618280FD57170700202316F7FEEDB7C5
:1077F8008967CD07631DF50083C725003147638579
:10780800E7004547E39AE7FCEFE0EF8CF1B7416703
:107818007D178147E313E5FC83C655004947E39E7E
:10782800E6FA83C5450003552400300023140100FF
:10783800EF50800E55B7797122D4138401781C401B
:1078480006D626D24AD00545A5C30D45EFE0DFB2DE
:10785800AA841145EFE05FB22A899305F101130567
:10786800F041EF10D14C0347F1019707002083C77F
:1078780047F6B336F00011C389061C4036C603C567
:10788800370093854700EFE00FA11040B2462A87E2
:107898008348B6000348A60093074600034626001F
:1078A800CA852685EF80C06AB25022549254025984
:1078B80045618280FD572388F168239A017A23AEB7
:1078C800017A23A0017C23A2017C970700209387DB
:1078D800E7F2170700001307C70798C31707000048
:1078E80013078736D8C317070000130707F598C78B
:1078F800970700009387A7E823ACF17A82804111AB
:1079080026C2938401789C4006C622C485CF2A8467
:107918000D45EFC09F80AA8519CD930700FD230070
:10792800F5008D47A30085002301F5009C4003C5A1
:107938000700EFC0FF8819C42244B24092444101B5
:107948006FF0BFE1B24022449244410182807971D4
:1079580026D283544500896706D622D44AD04ECE13
:1079680052CC13876700639DE402938701789C4398
:10797800014481CF1845034507000DE10547A38061
:10798800E7000545EF80805D05442285B25022540A
:1079980092540259F249624A456182808D37EDB7A7
:1079A800138797006365970403C701699307F00F6E
:1079B800E30CF7FC1C45114503C40700EFC0EFF5C5
:1079C800AA8579D1930700FD2300F5008947230193
:1079D800F500F977E117BE9493B41400A30085006D
:1079E800A301950003C50169EFC08FFD71BFA90709
:1079F8000144E39CF4F813890178832709004A8A33
:107A0800C9D7184503C41700854783490700630E83
:107A1800F4029707002083C7E7DBBDF70D45EFC0E9
:107A2800CFEFAA8505C1930700FD2300F500914714
:107A3800A30035012301F5008327090003C50700CA
:107A4800EFC00FF8EFF07FD181B79387C17B9C43DC
:107A580085E30145EFE05F922A8601CA894517D57B
:107A6800FF1F0345255CEFC05FC083270A00B9A04C
:107A780003C60700938617009305F1000545EFD06C
:107A88005FEA61D983470500858BE1D70545EFE0BB
:107A9800BF8E9307B003AA8463FFA7025D6613062F
:107AA8000670894517D5FF1F0345C557938444FCC5
:107AB800EFC05FCF239A917A832709000947A380F3
:107AC800E7009707002083C7E7D099CB97070020E6
:107AD800238207D05DBD130600643306C502B5BF17
:107AE8004E85EFF0DFE155B5938701789C4301118E
:107AF80022CC06CE26CA4AC8454489EB97D7FF1F31
:107B080083C7775213F7570009EB49442285F2409F
:107B18006244D2444249056182801387C17B18437D
:107B280041446DD70347070075D3858BAE842A89F6
:107B3800C9CB83C704000547F91793F7F70FE36626
:107B4800F7FC916593857571314597D0FF1FE780E4
:107B5800E0DF23A0A1784D4455D923002501A300D7
:107B680005002946A685090597C0FF1FE780C03D87
:107B7800930571001305F041EF10711B83477100E5
:107B8800A9EB170700200347C7C48D476313F70401
:107B9800EFD0FFFE2C00EF70A0592800EFE08FD641
:107BA8004545EFE06FFD014435D113060064330607
:107BB800C502914517D5FF1F0345C546EFC0FFAA6B
:107BC800B1B7EFE03FBC2A84EF504003E373A4F65B
:107BD8008DBFEFF05FC62A8415D9EFF01FB83DB707
:107BE800411126C2938401789C4006C622C4A1C7CD
:107BF80083C707000D446391A704894517D5FF1F64
:107C080003454542EFC01FBD914517D5FF1F0345EA
:107C18006541239A017AEFC0FFBB97070020A38B29
:107C280007BA9C400145A38087002244B240924491
:107C380041016F80A03249442285B24022449244D7
:107C480041018280411106C685476315F50683D731
:107C5800417BA1CB170700200347C7B739E31307B8
:107C6800B003636BF702894517D5FF1F0345853BB2
:107C7800EFC05FB69307006403D6417B3306F60274
:107C8800894517D5FF1F0345E539EFC01F9E239A85
:107C9800017AB24041018280938747FC239AF17AA6
:107CA800CDBF938701789C43EDD7B24003C5070049
:107CB80041013DB7938701789C43E1DF97D7FF1FC8
:107CC80083C77736918BF1D7894517D5FF1F0345B1
:107CD8006535EFC03FB0B240239A017A41016FF099
:107CE800DFA797D7FF1F83C71734958BCDC7938717
:107CF800C17B99E19387417C9C43D1CFFD4763EEDB
:107D0800C70811C2D9CA411122C426C206C64AC030
:107D18002388A168B6843284A1C11389C17B032555
:107D280009007D4681450505EFC0CFF5032509000B
:107D3800A6852286050597C0FF1FE780E0208325DA
:107D480009002285238085002244B24092440249DA
:107D5800850541016F8000201389417C03250900B6
:107D68007D4681450505EFC0EFF103250900A6858D
:107D78002286050597C0FF1FE780001D832509009F
:107D88002285238085002244B24092440249850519
:107D980041016F80601C494582800945828097D7E0
:107DA800FF1F83C75728918B99CF41111385817B7A
:107DB80006C6EFD09FACB240FD5717070020231C22
:107DC800F7A04101828001456FD03FAB9387C17B0B
:107DD8008843411122C406C626C23E8419C597D0DD
:107DE800FF1FE78000C123AE017A9387417C884357
:107DF80019C597D0FF1FE780C0BF23A2017C97D485
:107E0800FF1F9384242283C73400958BA5CF1705C1
:107E180000201305A59EEFD0FFA583C73400958BDE
:107E280099E74D45B24022449244410182809164D1
:107E3800938564711305000297D0FF1FE78000B196
:107E480023AEA17A79DD130600028145EFC08FE3E6
:107E5800938554711305000297D0FF1FE78000AF88
:107E680023A2A17C01C9130600028145EFC08FE15E
:107E780001454DBF084097D0FF1FE78080B723AE6C
:107E8800017A45B70145EFD0FF9EDDB703C705006E
:107E9800937625009377D70F99C293672700131815
:107EA80085011358884113F7F7076354080013E74F
:107EB8000708937685009377770F99C293678700B1
:107EC8001377050293F6F70D19C393E6070223808B
:107ED800D500634508009377A50281CB8347060048
:107EE80093E7C7002300F60082807DFD83470600E4
:107EF800CD9BCDBF2D456317071403C8050009475F
:107F0800631EE812C8410347150003450500220710
:107F1800498F42070D654187930825A06309170B10
:107F2800011122CC26CA4AC84EC606CEBE89B684DE
:107F380032842E8963CEE800930705A0630DF7020B
:107F4800130515A0630EA704239004000545A5A0FA
:107F5800930745A06307F7086346F706130565AA64
:107F6800E314A7FE85472390F600DC4583C7070086
:107F78002300F60081A0C845EFC0EFD1420541813A
:107F88004E86637335012A862390C40042064182D7
:107F98008325C900228597C0FF1FE780E0FA19A84A
:107FA800DC4583D70700239006012300F600A18350
:107FB800A300F6000145F2406244D2444249B24966
:107FC8000561828099472390F6001946D1B7854705
:107FD8002390F600DC45014583C707002300F6001F
:107FE8008280DC45A9CB21472390E60003D7070010
:107FF8002300E60003D707002183A300E60003D788
:1080080027002301E60003D727002183A301E60008
:1080180003D747002302E60003D747002183A302C2
:10802800E60003D767002303E60083D76700A18330
:10803800A303F60041B723900600ADBF23900600C6
:1080480005458280828083C8050089476394F814B7
:10805800DC41797122D406D626D24AD04ECE52CCF3
:1080680003C8170083C707002E8422083368F80066
:1080780042088D6713580841138327A0630D680EC3
:108088002A8A3A89B684B285634C0301138707A00C
:10809800630AE802938717A06304F808854711A8C4
:1080A800138737A06305E80A138767AA8D47E31784
:1080B800E8FEB250225492540259F249624A3E856F
:1080C80045618280484432C6EFC0EFBC4205418119
:1080D8009D47E36025FFB3099900D547B24563D4AE
:1080E8003701B547F9B748442686C2094A9597C06B
:1080F800FF1FE78060E5484493D9090159463306D4
:10810800364181454E95EFC0EFB79387C17C9C43BC
:1081180099E3814779BF9C438145E5DF528535A0C6
:10812800AD47E31809F8E39E16FB8347160083461C
:1081380006005844A207D58F2310F7009387C17C07
:108148009C43E1DB9C438545E9D78297D9B7AD4786
:10815800E31109F69947E396F6F84844194697C09B
:10816800FF1FE78060DE9387C17C9C43DDD39C437F
:10817800CDD38D4565B7AD470DFF8547E393F6F63B
:108188000347060093070008E3E5E6F2DC45238091
:10819800E70041B785473E85828023A6017C894751
:1081A800238AF16817F6FF1F1306066681475947A9
:1081B800B306F600238006008507E39BE7FE8947A0
:1081C800A388F168A38AF1682394017C3707A0008B
:1081D8001307070523ACE1683707E80323AEE16816
:1081E800A389F16805472389E168238AF14E23852D
:1081F800017C977601009386A64023ACD14E238E4E
:10820800E14E239F014E977601009386A63C23A05A
:10821800D1502382F150977601009386E63C23A43F
:10822800D1502386E150239701509385416923A8B3
:10823800B150238AF150977501009385653B23ACB3
:10824800B15023A0C15223A4D1522386E1522382E4
:10825800F152239701521386116923A8C152238A28
:10826800F152177601001306663723ACC152238EEC
:10827800E152239F01521386817C238EE150239F74
:10828800015023A0C15423A4D1542386E15423824E
:10829800F154239701541386516923A8C154238AA2
:1082A800F154177601001306663523ACC154238EAA
:1082B800E154239F01541386816923A0C15623A446
:1082C800D1562386E156239701569386316923A810
:1082D800D1562382F156238AF15697770100938766
:1082E800273023ACF156238EE156239F01569387FE
:1082F800216923A0F158970700009387E7BF23A2BD
:10830800F15897070000938747D423A4F15823A670
:1083180001588280A54763E4A70C1777010013076B
:1083280067CC0A053A951C41411122C426C206C6EB
:10833800BA97B2842E848287D547614563E5B70230
:108348005946814517F5FF1F1305054CEFC08F935C
:108358002286A68517F5FF1F1305054B97C0FF1F3B
:10836800E78080BE0145B2402244924441018280A8
:1083780089476145E399F5FE835706002394F17C0C
:10838800D5B7A1476145E390F5FE2146A68513853B
:108398008169EF502156F9B785476145E395F5FCAA
:1083A8009387414FD04F9385C15103C50400EFF027
:1083B800FFAD4DBF85476145E397F5FA9387414F78
:1083C800D05F9385C153D5B785476145E39DF5F8DF
:1083D800834706002389F16871B7094569B70945DC
:1083E800828083C7A17C91EF85472385F17C05892D
:1083F80009C9938641584146A5451385414F6F20C9
:10840800E03A0145828001111388F5FF06CE22CC9F
:1084180026CA4AC84EC652C41378F80FAD4563EE53
:10842800050BBA890A0817770100130727BE3A987F
:108438003E8A832708003689B284BA9782878545A1
:10844800EFD0AFE02A8419E1EFF05F982285F2407F
:108458006244D2444249B249224A05618280894530
:10846800EFD0AFDE2A847DF12685EFF08FA5F9BF26
:108478009145EFD08FDD2A8471F95286CE854A85E1
:10848800EFD00FD3EFF09F94EFF07F91EF60307E45
:1084980075BFA145EFD06FDB2A844DF95286CE8592
:1084A8004A85EFD0EFD02685EFF0AFA1EFF00FA00F
:1084B800EF60905D61BFB145EFD02FD92A8459F59F
:1084C8005286CE854A85EFD0AFCE2685EFF06F9FD6
:1084D800EFF0CF9DEF60505B75B7094485BFBD478E
:1084E800638CF50663E9B702A5476387F50663ED74
:1084F800B7009947638CF5049D47638FF50495474A
:10850800638CF50401458280B5476387F50463E110
:10851800B704AD47F5B7DD47638EF50263EAB700E8
:10852800C947638BF502D9476386F502C547C9BFBA
:10853800F5476383F50263E4B700ED47D1B79307C6
:108548002005638BF5009307200D5DBF48458280A9
:108558000841828008458280484182809307F00F55
:10856800630CF506011126CAAA841305000222CC61
:108578004AC84EC652C456C206CE3A89B689B28A8D
:108588002E8AEFB09FB92A844D4515C8930700FB82
:108598002300F400A30054012311440123023401F1
:1085A80013058400614663050902CA8597C0FF1F49
:1085B800E7808099A2852685EFB09FC00145F240EB
:1085C8006244D2444249B249224A924A05618280B1
:1085D8008145EFB03FEBF9BF09458280011122CCFC
:1085E80006CE2A842306B100A306C100EF40404707
:1085F80019CD0347C500A147631FF700780093060C
:10860800E0070146A28503C5016AEFF03FF5F24095
:1086180062440561828078009306E0070146A285DE
:1086280003C5116ADDB7930700643306F6026FC00D
:10863800AF8C05C90347050085469307270093F7C4
:10864800F70F63F0F602411122C42A843A8506C660
:10865800EFC06F9CFD572300F400B2402244410153
:1086680082808280035705009307000B6313F7028B
:10867800834745004947639CE70003471501854741
:108688006399E7000355250085456F2050406D47E5
:10869800C5BF8280011122CC06CE2A842EC632C4E0
:1086A80036C2EF40E03B0DC98346C500A1471247DB
:1086B8002246B245639CF600B28603C5016A2E863F
:1086C800A2856244F24005616FF05FE9B28603C596
:1086D800116A2E86A285F5B7F24062440545056108
:1086E800828023ACA17C8280011122CC26CA06CECE
:1086F8002A84AE84EF40C036A6852285EFC0DFF01D
:108708000DE5228523169100EF40803519CD0347EA
:10871800C500A1476310F70278009306F0070146E9
:10872800A28503C5016AEFF07FE3F2406244D244B8
:108738000561828078009306F0070146A28503C58B
:10874800116AD5B7011126CA06CEB68422CCDD46F9
:1087580063E2B608D94663FED50AA5466381D50A01
:1087680063EEB6049546638CD50899466387D50AA7
:10877800054441687D18631606093AC6EFC09FECA8
:108788003306854032474206418242044180330520
:10879800C4004205BA85418132C6EF207040AA87DD
:1087A80049C181C432462390C400B3058040624465
:1087B800F240D2443E8505616F207111C546638041
:1087C800D504C9460D44E395D5FAC167FD17E31EE4
:1087D800F6FA65B7F5466380D50463E4B600ED465E
:1087E800D5B7930620056388D5029306200DE3913B
:1087F800D5F8C167FD170D446319F600BDBF0944DC
:108808008DBF9306200DE392D5F8310642064182CA
:10881800ADBF15445DBF0D444DBFC167FD171D4475
:108828007DB7F2406244D2440561828079714ECEB0
:10883800AE89C16526D20147AA8489461776010008
:10884800130686DCFD15054522D406D64AD0EF006E
:10885800D060054431CD2A8913073002814611467C
:10886800F5452685EFF01FEE2AC6554431C18357DA
:10887800A900CE8601462314F10091472315F10083
:1088880085472300F500B2472C002685A380070002
:108898003247FD572301F7003247A301F700EF00E5
:1088A80090512A8411C5324597C0FF1FE780601494
:1088B8002285B250225492540259F249456182806D
:1088C800411106C6EFF0BFC119C5B240410117C337
:1088D800FF1F67000312B24041018280A380A16A92
:1088E8008280011106CE2AC6EFC05FBD3245FD5712
:1088F8009145A380F16A2380F16A23AA017C23AC05
:10890800017C2388A17CEF201024F24005616F10C0
:10891800107E93970501C18763D60712797103C545
:10892800017D22D44AD006D626D22E89EFB0DF8226
:108938002A8449CD034705009307000A6315F70801
:1089480085474C08A305F100EFC0DFC2AA8405EDF6
:108958008347610171476374F708138717FE13771C
:10896800F70F9306000263F3E608858BC5C7938764
:10897800417D9C43994481CB035524001306B100E3
:108988004C088297AA848347B10099C7084409C54F
:1089980097C0FF1FE780E00595E05247B707000141
:1089A800938707F07D8FB707120093870710630C32
:1089B800F70003476101ED476317F70003552400EB
:1089C8008545EF20D00C2285EFB06FF2B2502254CB
:1089D80021653345A90092540259456182803707C1
:1089E800301405073357F700058B41D31387817D72
:1089F800184351DB0347510159F72306F100994702
:108A08002308F100035524006C0023170100EFC070
:108A18001FD595BF9387817D9C439DC30355240033
:108A28001306B1004C08829739DDAA8483475101A7
:108A3800B9FB83476101230891002306F100D9B7E8
:108A48009944EDB7014582800145828097C6FF1F92
:108A580083C6965D814763E5D70001473A858280E2
:108A68002E87910503D6C5FFE30AA6FE8507E5B75D
:108A78000DCD834725000547890793F7F70F6376E0
:108A8800F702411122C406C62A848355050003450E
:108A980035000147F9465D46EFF05FACF957231101
:108AA800F400B240224441018280828017C7FF1F30
:108AB800034797578147FD5663E3E70082802310F9
:108AC800D5002301050085071105FDB70145828002
:108AD8009385F16A9307000285462380F500FD57C8
:108AE8002387F16AA381F16A2381F16A2396D16A07
:108AF800239E017C23A2017E23AA017E23A4017E5A
:108B08001386416A97770100938707AF5CC2238F6A
:108B1800017C9387015909472300E6002380E70079
:108B28002388E7002380E7022388E70217770100FC
:108B38001307C7ABD8DB0D472384D700D0C7238CD6
:108B4800D700238CE70217750100130565AB13875F
:108B5800017E17760100130626A9977601009386F1
:108B6800A6AAD8DFC8C323950700D0CB239D07004A
:108B7800CCCFD4D3238407022395070223A6070268
:108B8800239D0702170700001307C70C9387015D91
:108B980023A00700D8C323A407008280411106C67A
:108BA800EFF0DFEA11C503452500B240410182809C
:108BB8000145E5BF411122C426C24AC006C6AA849F
:108BC8002E893284EFF09FE811E94165CA857D1549
:108BD800EFF0DFE7C54711C5231095002301850095
:108BE8008147B2402244924402493E854101828035
:108BF80029E78948354763931605011106CE22CC2B
:108C080026CA034716000346060093C7F7FF220744
:108C1800598EF18F32C68DE7C4452A84A685EFF0B8
:108C2800FFF732460147630FA60022856244F240EF
:108C3800A685D24405616FF0FFF72D473A858280FB
:108C480013070008F2406244D2443A8505618280E5
:108C580083C8050009486395080303A845008347AE
:108C6800180003480800A207B3E70701C2070D6808
:108C7800C187130828906395070189476FF05FF74C
:108C88000545828003C7316A9307F00F630AF7042A
:108C980041114AC02A89294522C426C206C63284FF
:108CA800AE84EFB08FC71DC59307100B2310F500D6
:108CB80023020500231485002244231125012313D0
:108CC8009500B24092440249AA8503C5316A410120
:108CD8006FB00FCFB24022449244024941018280D2
:108CE800828041119387017E26C2AE848C4322C4C0
:108CF80006C62A84EFF09FEA098909C92285224419
:108D0800B240A685924441016FF05FB2B24022445E
:108D18009244054541018280411122C426C24AC0BD
:108D280006C6AA84130445001309050483570400E2
:108D38008DC3084409C597C0FF1FE78080CB2285F3
:108D480031468145EFB00FF43104231A04FEE31FC6
:108D580024FDB2402244FD572390F4000249924476
:108D6800410182809387C17E984317C6FF1F03463F
:108D7800B62B81476315F600814636858280BA8610
:108D880013070704835507FCE389A5FE850793F7B6
:108D9800F70FCDB79387417F9C4399C703D7470007
:108DA800E31CA7FE8847828001458280411106C6E0
:108DB800EFF05FFE09C50845B240410182800145D8
:108DC800E5BF011126CA9384450022CC4EC606CEC3
:108DD8004AC852C456C25AC02687814901448146AE
:108DE800814715450356070045CEC9E2035447009D
:108DF80083572700B286A297C207C1838509310726
:108E0800E392A9FE35C42E89916593854570228524
:108E180097C0FF1FE78080B32A8B39C9814A014A6E
:108E28008C4485C503D6440033054B0197B0FF1F1A
:108E3800E780801183D7440088443E9A420A135A37
:108E48000A0197C0FF1FE780C0BA63870A0031464E
:108E580081452685EFB00FE3850AB104E3E23AFDC8
:108E68002326690123148900054521A0630DD60036
:108E78000145F2406244D2444249B249224A924AE8
:108E8800024B0561828003562700E313F6FE035662
:108E980047003294B2974204C2074180C183B9BFE8
:108EA8000545E37835FDB9BF9387817E9C4399E3F7
:108EB8000145828098470357A700E319A7FE138549
:108EC80047008280411106C6EFF01FFE11C5035509
:108ED8000500B240410182800145E5BF411106C647
:108EE800EFF09FFC11C503452500B2404101828087
:108EF8004145E5BF411122C42A842E8506C6EFF0FC
:108F0800FFFDAA8505462285EF30D03895476305D1
:108F1800F500BD476313F5002145B24022444101E5
:108F28008280411122C42A84090506C6EFF06FF039
:108F3800FD57A301F400B240224441018280938787
:108F4800017F9C4317C6FF1F0346160E0147636542
:108F5800C700814636858280BE86990783D5A7FFDC
:108F6800E38AA5FE0507E5B7411122C4416406C698
:108F780026C29307E4FF630EF500AA8485E1EFF0AB
:108F88001FFC01E91305F4FFEFF07FFB19C1231063
:108F98009500B240224492444101828085476394FF
:108FA800F504EFF0DFF92A846DD5FD572310F5009D
:108FB800834724001307F00F6384E7021307E00FC9
:108FC800638AE700034534000147F9465146A68500
:108FD800EFF0CFD82285EFF0DFF4FD572301F4003E
:108FE800230204007DB78947E395F5FA8545EF30FC
:108FF800104A45F12685EFF09FF42A8455F951BFB0
:109008005D71A6C24EDE86C6A2C4CAC052DC56DA5C
:109018005AD8AE8483C52500F947AA896396F50412
:10902800EFF0FFF12A8409ED01442285B640264479
:1090380096440649F259625AD25A425B616182806B
:10904800834725000547890793F7F70FE37EF7FC69
:10905800034535000147F9460146CE85EFF00FD0AC
:109068002285EFF01FECC9B783AA0400B7070001F7
:10907800938707F037071200B3F7FA0013070710B2
:10908800328A0149638AE7022EC6EFF05FEB2A892C
:10909800B2451DC10346450005C293178601E18705
:1090A800E3C407F84E85EFF06FD38347490093E791
:1090B80007F82302F9008DBF03C7E16A9307F00F91
:1090C8001944E304F7F6E147E3E1B7F693D715004F
:1090D800FD178E0717670100130747F6BA9703A80D
:1090E8000700E30408F403AB4700E3000BF4C20AEB
:1090F80093DA0A0163850A00C947E398F5F283D633
:109108004400904483C5140003C50400380802983D
:109118002A8401FD2C084E85029B2A8421C983C715
:109128001400E39407F083C72400230AA1003947F9
:109138002308F1006399E702624783471700034752
:109148000700A207D98F0C084E852319F100EFC03C
:109158000FE1E30B05EC14080546D9454E85EFF001
:109168006FD32A84D9B583578101F1BF83C6240000
:109178009147E38BF6EA38080146CE8503C5E16AD4
:10918800EFF0CFBD2A84E31205EA83C5240028083E
:10919800EFF0EFB419C123000A009840B7070001A7
:1091A800938707F07D8FB707120093870710E30DA9
:1091B800F7E6E30B09E683C724002302F900B5B5F7
:1091C800011106CE2EC6EFF09FD701CD834745008B
:1091D800B245138717006396E50093F707F8230253
:1091E800F500F240056182809387817E984319E3F8
:1091F800014615A81C4703D8A700636B05018358CF
:109208004700B38608016355D5008146639416016B
:109218001843F1BF3E86C10703D3A7FF6317A30016
:1092280099C123900501328582808506C206C182D4
:10923800F1BF397152D42E8A4ED69305E101AA891D
:10924800528522DC4AD856D206DE26DA328936C65C
:109258003AC4BE8AEFF05FF9054435C5AA840355C0
:10926800E1013944EFF01FB339CD03284500630C01
:1092780008042247B246D6874A86A6854E850298B4
:109288002A8431E19307E00F638FFA0203C70400D1
:109298008947631AF702D840834717000347070036
:1092A800A207D98FC2070D67C18713072790639C50
:1092B800E7008347190003460900D285A2075D8E9F
:1092C8004E85EFF03F9C2285F2506254D2544259A9
:1092D800B259225A925A21618280797122D4035458
:1092E80025004ECEAA89228556CA06D626D24AD04D
:1092F80052CC5AC85EC662C4AE8AEFF0BFA601E976
:109308002285EF200130594429E90144B9A003C757
:1093180089008547AA840144631AF702AA85138540
:109328008900EFF01FAA29CD03D7640083D68400F3
:10933800D04483D5440003D52900E147EFF07FEFFF
:10934800D9472A846318F50223A604002685EFF07E
:10935800BF9C49C0D947E30AF4FA2285B250225487
:1093680092540259F249624AD24A424BB24B224CB9
:109378004561828061DD83D744002390FA00F9B704
:1093880013894400014A914B594C154B83550900E8
:10939800D5DDE14763067A010357C90011C3D947F0
:1093A80003572900835649000326890003D529005D
:1093B800EFF03FE82A846319850123240900050A90
:1093C8003109E3156AFD59B77DD983570900239000
:1093D800FA00F5B703D529002DB701112317C100ED
:1093E8009307E00F1306E1000147894606CEEFF028
:1093F8005FE4F24005618280797122D42A840355A2
:10940800850026D2AE849305210106D64AD0EFF016
:10941800BFDD6308050E834785002AC693F7070258
:109428008DCF03552101EFF07F98AA87B24501ED52
:109438008357840039452390F400B2502254925443
:10944800025945618280035524004946829711C517
:10945800835784002390F400CDB7035924004A852C
:10946800EFF05F9011ED41657D15EFF0BF8F19E5C5
:109478008357840025452390F400C1B723102501A4
:109488001307450081479546035607002DE63147E7
:10949800B387E702130984003146CA8591073E95D0
:1094A80097B0FF1FE78040AA3146CA85480897B0A1
:1094B800FF1FE78060A90356C400035524004147F5
:1094C8008146DD45EFF00FA82ACE19E583578400C1
:1094D80045452390F40095B70C480356C40097B04F
:1094E800FF1FE78060A6035524004C08EF20210DDC
:1094F80029D5594599B785073107E397D7F8254501
:1095080081BF0545B1B7797122D42A8403558500F6
:1095180026D2AE849305E1014AD006D63289EFF00F
:10952800BFCC51C58347850093F70702A9E70347D6
:1095380014019307200519E3834744008356A400C8
:10954800504483558400035524000147EFF07FCE33
:10955800AA8721E98347140199E703552400EF20DE
:109568002101D94711E18147B2502254925402593E
:109578003E85456182802AC60355E101EFF01F83CD
:10958800AA8705C9B2450355240049468297AA8788
:1095980059DD035784002390E4000347140161F761
:1095A800E1B75947E317E5FE230009006DBF85477A
:1095B800CDB7B947F9BF397122DC4AD84ED652D453
:1095C80006DE26DAAA892E8A32C63689EFF03F9758
:1095D800094415C5834725001307E00FAA845D4495
:1095E800638FE7001307F00F5944639AE700324688
:1095F80005E2D2854E85EF20A1042A8415CD228567
:10960800F2506254D2544259B259225A216182808E
:1096180003550A009305E101231F0100EFF0DFBCA9
:109628000355E101EFF09F8BAA8505464E85EF3083
:1096380060462A845DDDE1B79307F00FE301F9FC8A
:10964800938624007946A68517F5FFFF1305854202
:10965800EFE07FFDA38124015DB739719387817E97
:1096680026DA844352D45AD05ECE62CC06DE22DC9F
:109678004AD84ED656D266CA2A8BAE8B328C368AD8
:1096880099E08149B9A0804483DC44000149835AA8
:10969800A400631499018440E5B78357A400A28904
:1096A80063F8670105094209135909014104D5B74F
:1096B800E3EAFBFE630C0A00834504004840D286B7
:1096C80062863AC6EFB09FE4324769DD19C32310BA
:1096D8005701F25062544E85D2544259B259225A17
:1096E800925A025BF24B624CD24C2161828003D7C2
:1096F800050083D62500854763E9E60439C741118B
:1097080083C6450026C29384550022C426862E842B
:10971800176501001305C5EE894506C6EFB01FDFC2
:10972800C14711CD834644008355240003550400E6
:1097380001472686EFF07FF2814711E1A947B24041
:10974800224492443E85410182803E8582802E8655
:109758000355060083D52500854763E2A50205C1A8
:109768008346460041110147150606C6EFF0FFEE95
:10977800814711E1A947B2403E85410182803E857B
:1097880082802E860355060083D52500854763E22F
:10979800A50205C18346460041110147150606C6C4
:1097A800EFF0BFEB814711E1A947B2403E85410187
:1097B80082803E85828039714ED683D7250083D931
:1097C800050006DE22DC26DA4AD852D456D25AD010
:1097D8005ECE62CC66CA6AC863E037198547638E75
:1097E8000914416BAE8A2A8A2314010002C6014477
:1097F80001497D1B894B054CC94C054D83D52A0071
:109808000147814601464E8523130100EFF0FFE42E
:10981800AA846300051209EC13072002930661006D
:109828005A8695455285EFE0FFF12A8463080512B0
:109838000357810083C7040045C70347A100630C91
:10984800A70741476385E7022C005285EF103120B6
:1098580009CD34001546D9455285EFE0BFE311C55F
:10986800324597B0FF1FE780C0188147F9A083D71A
:10987800A4004146130524002300F40083D7A40064
:10988800A183A300F400CC4097A0FF1FE780C06B22
:109898004904835781008507C207C1832314F10057
:1098A80063F9270983D7A400638567098509C20975
:1098B80093D90901A1B7E39977F983D7A400094699
:1098C800130524002300F40083D7A400A183A30078
:1098D800F400CC4097A0FF1FE7800067110455BF34
:1098E80022C60359610003C7A4001305240063823C
:1098F800770333599903230571012300E40083D7C3
:10990800A4004146A183A300F400CC401379F90FC9
:10991800A5BF230581012300E40083D7A4001359C0
:1099280029001379F90FA183A300F4000946CC405C
:1099380055B78357810089FBA947F2506254D25426
:109948004259B259225A925A025BF24B624CD24C9B
:10995800424D3E85216182808547C5B7C547F1BF25
:1099680017B7FF1F0347A769854763F3E706011188
:1099780022CC26CA4AC806CE2A843289AE84EFF0A1
:109988000FDC01C9034725009307E00F5D45630815
:10999800F700631C0900A6852285EF105147F240A5
:1099A8006244D24442490561828003D5040093058C
:1099B800E10023170100EFF03F830355E100EFF0CA
:1099C800EFD1AA8505462285EF30C00C69D5C1BF05
:1099D8005945828013F7050201C7B2856FF08FD110
:1099E800411126C24AC006C622C413F98500AA84BA
:1099F80063170900139785016187635D0702328544
:109A08003684EFF0AFCDAA850546631309000146F9
:109A18002685EF30200801E90145B24022449244EE
:109A280002494101828083479400E5DB8347840033
:109A3800E5F7E5B793F72500E5F30D45F9BF79712B
:109A4800AE8622D42A8403D506009305E10106D602
:109A580036C6EFF06FF909CD83458500B246035647
:109A6800E1012285EFF01FF7B25022544561828050
:109A78000545DDBF13F7050201C7B2856FF08FC733
:109A8800411122C426C206C693F485002A8491E4B3
:109A9800139785016187635007023285EFF00FC481
:109AA800AA85054691E0014622852244B2409244A7
:109AB80041016F20307E93F72500014591E30D4564
:109AC800B24022449244410182807971AE8622D408
:109AD8002A8403D506009305E10136C606D6EFF0C1
:109AE800AFF0B24601CD834585000356E1012285DA
:109AF800EFF05FF8B2502254456182800545DDBF22
:109B0800797126D2AA840355A500C16722D44AD008
:109B18004ECE06D623170100FD173284B6890149B7
:109B2800630DF500050583C60400D0404205130700
:109B3800E1004181EFF07FB22A8983C60400D0405A
:109B48008945176501001305A5ABEFB03F9C1DC5FE
:109B580003D4A4002285EFF0EFB609C57D142A943A
:109B6800420441806384090023908900B250225442
:109B78004A8592540259F2494561828083C604009D
:109B8800D0408945176501001305C5A7EFB01F9898
:109B980061F183C60400D0408945176501001305AB
:109BA800A5A4EFB0BF9619C9E30609FA8357E100E7
:109BB800E39287FA0354A9007D145DB703D4A40087
:109BC80055B7397122DC26DA4AD84ED652D456D245
:109BD8005AD062CC06DE5ECEBE8983C785002A8A4B
:109BE800AE84C18B328C36843A89C28A468B9DE713
:109BF80083CB04008947638BFB046285EFF08F9960
:109C08001DC183280500638008025A88D6874E87BD
:109C1800CA862286A6855285829839A03285EFF0B9
:109C2800EF98AA8711ED3945F2506254D25442593F
:109C3800B259225A925A025BF24B624C21618280DD
:109C48002946A6855285829745D5F9BFD8408347CE
:109C5800170003470700A207D98FC2070D67C187FE
:109C6800930607906380D72263CCF6069306278075
:109C7800638CD70C63C1F60213070780E3CFE7F6BE
:109C88002D45E39309FADC4403C60700CC432310AF
:109C9800C900228559A213073780E390E7F62D45BE
:109CA800E39409F885472310F900DC44814583C70C
:109CB80007002300F40003D5A400050542054181EF
:109CC800EFF08FD28357090063150512910723100F
:109CD800F9001146814513051400EFA0AFFA29A237
:109CE800930627906381D71863CED71293063790CF
:109CF800638AD71813074790E391E7F02D45E3955A
:109D080009F2DC441D472310E90003C707002300BC
:109D1800E40003C71700A300E40003D727002301CA
:109D2800E40003D727002183A301E40003C7470009
:109D38002302E40003D76700A302E40083D7670087
:109D4800A1832303F4004DA02D45E39F09ECDC44D7
:109D58006C0083C9170003C70700A209B3E9E9002B
:109D680011472310E90083C707004E852300F4003C
:109D7800DC4483C71700A300F400EFF0EFC6AA8401
:109D880035C50356C100C1659306E100FD15832959
:109D9800C500EFF0FFD619ED83C60400D040894511
:109DA8001765010013050586EFB04FF601E5FD576D
:109DB8002317F10003C7090089476310F70283A539
:109DC800490009461305440097A0FF1FE780C01704
:109DD8008357090089072310F9008357E1002301FD
:109DE800F400A183A301F40001453DBD231731010F
:109DF800EDB7034705008907BA972310F900835781
:109E0800A500A300F4008357A500A1832301F40053
:109E1800034605004C411305340097A0FF1FE78057
:109E2800A012D9B7C844EFA00FE793170501C18363
:109E38002A871D45E3EA37DF6399F90023100900F3
:109E4800CC4403560900CE95A9B54207B3863A011A
:109E5800418363C7E600B38737412310F900CDB7C4
:109E680023105901F1BF2D45E39009DCCC445285FC
:109E7800EFE0DFD2231079012300A4002181A300A1
:109E8800A4009DB72D45E39109DADC44231079013C
:109E980083C707002300F400DC4483C71700A3002E
:109EA800F40099B75D71CAC02A89035525004EDEB2
:109EB80052DC56DA5AD85ED662D466D26AD06ECEF2
:109EC80086C6A2C4A6C22E8BEFB0CFF7130CF5FF3F
:109ED800931D0C01C16BAA8A814917EAFF1F130A57
:109EE8002A9493DD0D01938C417E138DC17DFD1B5A
:109EF8008357C90063F8F90097E7FF1F83D7479294
:109F080063CE87010355290097E5FF1F9385459187
:109F1800EF10815AAA841DCDD9442DA88327890022
:109F2800139719009305E100BA9703C4170083C774
:109F3800070022045D8C2285EFF00FABAA851DE98E
:109F480023108B0003254A00854409C597B0FF1FDD
:109F5800E78020AAB6402644268506499644F25949
:109F6800625AD25A425BB25B225C925C025DF24D4D
:109F7800616182808348490083A60C000356E10092
:109F8800035529006E8881476A87EFF09FC3AA842A
:109F980011C523108B0003254A0045BF83274A00BB
:109FA80095E303552900514781465E86BD45EFE09C
:109FB8006FF997E7FF1F23A7A78609E523108B00F2
:109FC800C54449BF97E7FF1F83D7878503D7C17D5E
:109FD8003E976347570113C7F7FF5697239EE17CC7
:109FE80003254A0083A50C0003D6C17D3E9597A0A2
:109FF800FF1FE78060F583570A0003570D008509A6
:10A00800C209BA9717E7FF1F231CF78093D90901E4
:10A01800C5B5397122DC2A840355250006DE26DA07
:10A028004AD84ED652D45AD05ECE62CC66CAAE8BCF
:10A0380056D2EFB02FE12A8A8346C4008355A40084
:10A048000355840078001306D400930CBAFF651AF0
:10A05800EFF0AFE0420A416B2A898144135A0A01A2
:10A06800138C417E97D9FF1F9389897B7D1B6302DF
:10A07800090463D094058348440083260C000356E2
:10A08800C10003552400528881471387C17DCA85C2
:10A09800EFF03FB315C5814A0356C1008355A400AC
:10A0A8004A859306E100EFF0BFA52A89639B0A065B
:10A0B8005DFDF1EC8357840029452390FB0035A80A
:10A0C8000356040183D7C17DE317F6FC83250C00F2
:10A0D8004848EFA04FC161D183A74900A1E30355C8
:10A0E8002400454781465A869D45EFE0AFE51DE1CE
:10A0F8008357840045452390FB00F2506254D254A4
:10A108004259B259225A925A025BF24B624CD24CD3
:10A118002161828097D7FF1F23A6A770835AA900C1
:10A12800A5BF83A74900A6972380570193871400EA
:10A138001397070183A74900418393DA8A00BA97E6
:10A14800238057011387240083A64900938734008E
:10A15800420791044183C207C204C183C180369774
:10A1680011CD8356E1002300D70003A74900BA9711
:10A178000357E10021832380E700D5BDFD56230066
:10A18800D70003A74900BA972380D7001DB7035506
:10A198002400898097D5FF1F9385856897D7FF1F6F
:10A1A80023909768EF10411729D95945B9B741113C
:10A1B80022C406C693F705012A84328585C3EFE0D9
:10A1C800FFD1AA8505462285EF20D00C9547630567
:10A1D800F500BD47631DF502214515A893F7450015
:10A1E80099CBEFE0BFCF0546AA8522852244B2402D
:10A1F80041016F20300A93F7050489C7EFE01FCEAD
:10A208000146DDB713F51500133515000605B240F4
:10A2180022444101828079714AD04ECE52CC06D672
:10A2280022D426D22A8AAE89014983D74900636499
:10A23800F9000145A1A083A709001314190093048C
:10A2480014003387970003470700A29703C5070048
:10A2580022079305E100598DEFE01FF905E983A76F
:10A26800090005453E94034704002380E70083A7BF
:10A278000900BE9403C70400A380E700B25022542B
:10A2880092540259F249624A4561828083458500A9
:10A298000356E1005285EFF09FF105C183A709003D
:10A2A8003E94034704002380E70083A70900BE9477
:10A2B80003C70400A380E700D1B705094209135971
:10A2C8000901A5B7011122CC2A8403D505009305FD
:10A2D800E10006CEEFE05FF101CD8345850003562E
:10A2E800E1002285EFF0BFECF24062440561828014
:10A2F8000545DDBF397126DAAA840355250006DE37
:10A3080022DC4ED652D456D25AD05ECE62CC66CA21
:10A318006AC82E8A4AD8EFB0EFB2AA8A83C6C400A8
:10A3280083D5A40003D58400138CAAFF7800138674
:10A33800D400EFF08FB2420CC16CAA890144135CBF
:10A348000C01138BC17D938B417EFD1CED1A17DD2B
:10A35800FF1F130DED4C638B091A0356C10083C50B
:10A36800890003D52400EFF09FE42A89631B0518B0
:10A3780083C8440083A60B000356C10003D52400FC
:10A38800628881471387C17DCE85EFF09F832A8934
:10A398006319051639C003D7C17D110797D7FF1F69
:10A3A80083D727486395E700A29763C0570997D7D3
:10A3B800FF1F83D707473354F40203D5240097D5EA
:10A3C800FF1F9385E54597D7FF1F239B8744EF1011
:10A3D80021122A890DC559491DA003D524004947D2
:10A3E80081466686C545EFE0EFB597D7FF1F23ABDB
:10A3F800A7420DE583D7A90045492310FA00F2507A
:10A4080062544A85D2544259B259225A925A025B2E
:10A41800F24B624CD24C424D2161828083570B0033
:10A42800910717D7FF1F231EF73E83274D0003D739
:10A43800A9009306E100A2972380E7009307140080
:10A448001397070183274D0041834E85BA9703D799
:10A45800A90021832380E7000356C10083D5A40007
:10A46800EFF00FEA1307240083264D00930734000A
:10A47800420711044183C2074204AA89C18341806B
:10A48800369739E1FD562300D70003274D0083A5F1
:10A498000B00BA972380D70003254D0003D6C17D52
:10A4A800229597A0FF1FE78020AA83570B003E94B0
:10A4B80042044180E31D04EE83D784002310FA0090
:10A4C800E31F09F2294925BF8356E10083A50B0044
:10A4D8002300D70003274D00BA970357E1002183D3
:10A4E8002380E70003254D0003D6C17D229597A060
:10A4F800FF1FE78060A583570B003E94420441800C
:10A5080099BD83D7A9002310FA006DB701495DB73B
:10A518005D71A6C2CAC0AA840359850003552500E7
:10A52800A2C44EDE56DA5AD85ED662D466D26AD053
:10A5380086C652DC6ECE2E8BEFB0CF90930BD5FF34
:10A548007115931905010144138DD40093D909019C
:10A55800138CC17D938C417E97DAFF1F938A4A2C16
:10A568006358741583C6C40083D5A4001307E1009B
:10A578006A864A85EFF06F8EAA8D630B0512035920
:10A58800A500834585000356E10003D52400EFF0BC
:10A598001FC26314051283C8440083A60C00035627
:10A5A800E10003D524004E8881471387C17DEE85DD
:10A5B800EFF02FE1631305101DCC83D7C17D17D7AA
:10A5C800FF1F035707268907630EF70697D7FF1F54
:10A5D80083D727253354F40203D5240097D5FF1FCA
:10A5E8009385052497D7FF1F239C8722EF00915C52
:10A5F80005C5594515A003D5240041664D47814638
:10A608007D16A545EFE00F9497D7FF1F23ACA72031
:10A618001DE123102B014545B640264496440649C2
:10A62800F259625AD25A425BB25B225C925C025D7A
:10A63800F24D6161828083570C00890717D7FF1F8D
:10A648002311F71E83D7C17DA29763D3770783A70A
:10A658004A0003D7AD00130A2400A2972380E7001D
:10A6680005049317040103A44A00C183420A3E94D7
:10A6780083D7AD0083A50C00135A0A01A1832300D8
:10A68800F40003A54A0003D6C17D529597A0FF1F89
:10A69800E780808B03540C00C167FD175294420475
:10A6A8004180E30FF9EA05094209135909014DBD33
:10A6B800294509FC23102B0185B76DDC01BF8357A1
:10A6C800050099E309458280411126C2444122C40C
:10A6D80006C683C60400D0402A8489451755010060
:10A6E800130505F2EFA09FE251C1834724002547D7
:10A6F8006145E51793F7F70F6366F70803D7C16A53
:10A70800054549C383570400BA974167634CF70668
:10A71800916593852570314597A0FF1FE780002339
:10A72800AA844D45A5C08357040083D5C16A014654
:10A738000147B386E500C206C182636AF704AE9793
:10A74800C207C18319C22396F16A23A004002146D7
:10A75800A285138544009790FF1FE780E07E9387CA
:10A76800817E9C439DEF23A4917E3DA883C604006F
:10A77800D0408945175501001305C5E8EFA01FD93A
:10A788002DF50945B240224492444101828050404F
:10A798001315470005072A962315D600054651BF0D
:10A7A800BA87984375FF84C30145E9BF011106CEF6
:10A7B80022CC26CA4AC809E98944F240624426855F
:10A7C8004249D244056182802AC62A8428003689F3
:10A7D8002314B1002305C100EFF07FEEAA8471FDB8
:10A7E800E30D09FC8357A400E1DB9165938555705F
:10A7F800314597A0FF1FE78060150DC58357A4005A
:10A8080023200500232425012312F5009387417F87
:10A818009C4389E723AAA17E4DB7BA87984375FF61
:10A8280088C361BFCD4451BF83C7E17D91EF8547A0
:10A83800238FF17C058909C99386015D41469145BD
:10A84800138501596FF09FF601458280A381A16AA3
:10A858008280C167FD176315F5002E856FE00FA58F
:10A86800411106C6EFE08F9E11C5FD572310F50074
:10A8780023010500B2404101828001114AC806CE79
:10A8880022CC26CA85472A896393F5044A85EFE0D6
:10A898006FCD39E9C1649385F4FF1307E100894658
:10A8A80017560100130686D40545EFE01FDB2A84FE
:10A8B800FD140DC44C444A85EFF0BFF90356E1007E
:10A8C80022858146A685EFF0AFA32A84DDB78947A4
:10A8D8006396F5008545EF20803B4DD9F2406244F0
:10A8E800D244424905618280EFE00FC365B7411148
:10A8F80023A6017E23A8017E23A0017E06C697A772
:10A90800FF1F83C77772A5CB1305A0043385A70261
:10A9180091659385157097A0FF1FE780200323A6F4
:10A92800A17E9307A00417A6FF1F0346F66F330600
:10A93800F6028145EF901FB59387C17E984397A68D
:10A94800FF1F83C6766E0146BA87FD55636BD60432
:10A9580093976600BA9723A8F17E3E870146FD5576
:10A96800636BD60679572390E7001947B386E6024A
:10A97800B69723A0F17E17E5FFFF1305A568EFD072
:10A988005FD617F5FFFF1305E583EFA05FBE17E558
:10A99800FFFF1305A55DEF200027B24001454101E7
:10A9A80082802390B7002392070023A607002398EC
:10A9B800070023AC0700239E070023A20702239465
:10A9C800070223A80702239A070223AE07020506F7
:10A9D80093870704A5BF2310B700A301B70023017D
:10A9E800B70023020700050619079DBF411122C4BD
:10A9F8002A8406C6EFD06FFAEFE08F8D2381816A33
:10AA08009387017E8843EFE06F8A2387816A224417
:10AA1800B24017050000130585E641016F20A01E0E
:10AA280093970501C18763DE0734797103C5216AED
:10AA380022D452CC06D626D24AD04ECE2E8AEF90B9
:10AA4800AFF12A8421C9034705009307000B63105F
:10AA5800F7048547A304F1009387417E9C4323159F
:10AA68000100A1E7EF00100291659385357097A06A
:10AA7800FF1FE780A0ED23A2A17E05E9834791008F
:10AA880099C78345440013058400EFD07FE32285EE
:10AA9800EF90EFE5B250225421653345AA00925455
:10AAA8000259F249624A456182806146814517D55B
:10AAB800FF1F1305E5D6EF90FF9C03494400894723
:10AAC80097D9FF1F9389C9D5631DF906EF00807BCD
:10AAD80097D7FF1F2396A7D403552400CE85EF00F0
:10AAE80061720357240097D7FF1F83D767D3835614
:10AAF800840011ED63E4F6002314F4008355840008
:10AB08003A85EFD07FBE2285EFD0DFB585BF63E4FD
:10AB1800F6002314F40083578400D9450D4697D6D0
:10AB2800FF1F239FF6CE97D6FF1F938666CF3A85E1
:10AB3800EFD05FB68D4561D917D5FF1F130545CEF8
:10AB4800E1A09947631CF9029305A1002285EFF063
:10AB58004FCCAA844DD9D947639BF40E05090355F8
:10AB680024001379F90FD94597D6FF1F938646CB52
:10AB78004A86EFD03FB2CA8559D57DBFA147631831
:10AB8800F9009305A1002285EFF09F98D9B7A9474E
:10AB9800631FF906035584006C00EFE0EFE4AA8414
:10ABA800630705160355240041669306E1005547DF
:10ABB8007D16AD45EFD01FB997D7FF1F23A4A7C6B1
:10ABC800AA8649C1834844000358E1000356C100DE
:10ABD80003552400A68581474E87EFE09FFEAA848F
:10ABE8006316051003552400CE85EF009102E30C8F
:10ABF80005F003552400CE862D46D945EFD09FA9F0
:10AC0800E30305F0AD454E85EFD09FCBEDBDB147D1
:10AC18006315F910035584006C00EFE0EFDCAA849B
:10AC28006307050E0355240041669306E100594762
:10AC38007D16B545EFD01FB197D7FF1F23A4A7BE38
:10AC4800AA863DE183578400C5442315F1000347D4
:10AC58001400D147E309F7EA834744000355240069
:10AC680097D5FF1F9385C5BB17D7FF1F230AF7BAD0
:10AC78008357A10017D7FF1F2315F7BA97D7FF1FD0
:10AC8800238297BAEFA0BFADE30F05E60355240072
:10AC980097D6FF1F9386C6B80546D945EFD09F9F24
:10ACA800E30305E6854549BD834844000358E100B0
:10ACB8008357A4000356C10003552400A6854E8778
:10ACC800EFE03FF0AA841DE103552400CE85EF0094
:10ACD800017AE30A05E203552400D945CE863546B4
:10ACE800EFD05F9BB545E30005E2B9B5D94763935B
:10ACF800F400814403A5490097A0FF1FE78060CFB7
:10AD0800E38304E0835784002315F10089B7835750
:10AD1800840085442315F1001DBFB9476318F90065
:10AD28009305A1002285EFF0EF9725B5C147631879
:10AD3800F9009305A1002285EFF0CFDB19BDC947C3
:10AD4800631AF900130691009305A1002285EFE02C
:10AD58008FFB01B5D947631DF9009305A100228532
:10AD6800EFE08FE9AA84E31805DEA304010061BBC4
:10AD7800E147E31AF9D89305A1002285EFE0EFD562
:10AD8800C9BB01458280EDC2011152C42E8A854596
:10AD980022CC4EC656C206CE26CA4AC8AA8AB68948
:10ADA8003284EF10D06ED14705C997A7FF1F83C71C
:10ADB800E72497A6FF1F83C67624814419E0B6844A
:10ADC800BE8617A7FF1F1307E7221843939744006F
:10ADD800BA9763EDD400D547F2406244D244424961
:10ADE800B249224A924A3E85056182803E89C1075E
:10ADF80003D727FF09C7850493F4F40FD9BF39CCCB
:10AE08009565938525C01305000297A0FF1FE7806D
:10AE1800E0B32326A90061D113060002814593847B
:10AE28000404EF902FE6231199002300090023134F
:10AE3800590105C817A7FF1F1307C71C83479400AC
:10AE480010432304F900118C8327C9001184118051
:10AE5800238E870023A029018147BDBF232609002F
:10AE6800E9B723044901FDB785473E85828097A746
:10AE7800FF1F93872718984397A5FF1F83C50518B9
:10AE880081476395F5008146368582800356270001
:10AE9800BA8619C2E30AA6FE850793F7F70F41079A
:10AEA800CDB797A7FF1F9387E714984317A6FF1FEF
:10AEB8000346C61481476315F600814636858280AD
:10AEC80083552700BA8689C583454700E388A5FED0
:10AED800850793F7F70F4107F9BF97A7FF1F9387D8
:10AEE8006712984397A5FF1F83C57511814763951E
:10AEF800F50081463685828003560700BA8619C256
:10AF0800E30AA6FE850793F7F70F4107CDB797A782
:10AF1800FF1F9387270E9C4317A8FF1F0348180E8F
:10AF280001476315E80081463685828003D62700ED
:10AF3800BE8619CA03D667006318A600D04709C69B
:10AF480003562600E302B6FE05071377F70FC1077D
:10AF5800C9BF411122C4404526C206C6AA8415C0ED
:10AF6800484409C597A0FF1FE780A0A8484809C51D
:10AF780097A0FF1FE780E0A7228597A0FF1FE78023
:10AF880040A7268541468145EF90CFCFB240224465
:10AF9800FD57A384F400924441018280011122CC20
:10AFA8002A840355250006CE2EC6EF101018324607
:10AFB80022858145EF00306F22856244F2400561A9
:10AFC8006FF03FF90DC503572500411122C406C68D
:10AFD8002A8411CBDD45EF00F07022852244B2406F
:10AFE80041016FF01FF7B240224441018280828004
:10AFF800411126C231479304C5FF3387E40297D72E
:10B00800FF1F9387678306C622C43E978356A7000F
:10B018006397B602484305C53E849307F00F63065D
:10B02800F60083470500639CC70097A0FF1FE780D1
:10B03800409CB147B387F402A29723A20700B2400D
:10B048002244924441018280411122C42E8426C2A6
:10B058004946AA848145228506C6EF90AFC2BDC085
:10B0680083C7C4011397470097A7FF1F938787F9E2
:10B078009C43BA9703D707002310E40003D727009F
:10B0880083D767002311E40017A7FF1F1307E7F60C
:10B09800035707002312E40003D704002313E40036
:10B0A80003D724002314E40003D744002315E40045
:10B0B80003D764002316E40003D784002318F400A0
:10B0C8002317E400B240224492444101828097A7AA
:10B0D800FF1F938727F303A8070097A7FF1F9387EE
:10B0E80067F1904397A5FF1F83C545F10147814745
:10B0F8006394E5003E8582808346060081CE5446EF
:10B1080091CA83C6C6019206C2966315D500850703
:10B1180093F7F70F05071377F70F4106D1BF13060B
:10B1280000643386C50293069500AA8517050000BA
:10B13800130585E96F904FDC411122C406C62A84A5
:10B1480003459500EF902FEDFD57A304F400B2409E
:10B15800224441018280011122CC4AC84EC652C401
:10B1680056C206CE26CA2A89AE89014417AAFF1FED
:10B17800130A4AE89D4A97A7FF1F83C737E8636603
:10B18800F404639B090297A9FF1F9389A9E6130A90
:10B19800F00F97A7FF1F83C767E66366F40611449D
:10B1A800A1442285050442041306F00FCA85418094
:10B1B800EFF01FE4E31794FEF2406244D2444249A0
:10B1C800B249224A924A0561828083270A00931471
:10B1D8004400BE9483C704009DC383D76400639072
:10B1E80027036396590103D52400EF1000742685C0
:10B1F8004E868145EF00304B2685EFF09FD505043C
:10B208001374F40F8DBF83A7090093144400BE94F0
:10B2180083C704009DC383C794006380470383D713
:10B228006400639C27012685EFF01FF12685D14530
:10B23800EF00504B2685EFF0DFD105041374F40FAF
:10B2480089BF41677917630BE502411122C406C61D
:10B2580085472A846399F50022852244B2408145B6
:10B2680041016FF05FEF89476396F5008545EF1060
:10B2780010227DD1B24022444101828082809D45C6
:10B288006FF07FED17A5FF1F035525D782800111A9
:10B2980006CE2317A1002316B10017A7FF1F0347E7
:10B2A800A7D585476318F70070009305E1000545A9
:10B2B800EF405048F24005618280A947631CF604BC
:10B2C80083C7150003C70500A207D98F2310F5000F
:10B2D80083C7350003C72500A207D98F2311F500BE
:10B2E80083C7550003C74500A207D98F2312F5006D
:10B2F80083C7750003C76500A207D98F2313F5001C
:10B3080083C7950003C78500A207D98F2314F500CA
:10B31800014582800545828091476314F60283C700
:10B32800150003C70500A207D98F2310F50083C7AE
:10B33800350003C72500A207D98F2311F500014561
:10B348008280054582809387C5FF93960701C18255
:10B358000D476360D70231473387E70297C7FF1F5E
:10B368009387874DBA972381A7002390B70001459B
:10B378008280094582801307B00FAA876374A700EB
:10B388009307B00FF11717A7FF1F2318F7C697A742
:10B39800FF1F2386B7C697A7FF1F2383B7C68280E0
:10B3A8001905956542054111938535C0418106C649
:10B3B8009790FF1FE780805911C5B240E9554101B8
:10B3C8006FF0F050B2404101828097A7FF1F23879A
:10B3D80007C297A7FF1F238407C297A7FF1FA38051
:10B3E80007C297A7FF1FA38B07C097A7FF1F238537
:10B3F80007C0854717A7FF1FA300F7C0411197A7EC
:10B40800FF1F2383A7C01306000317C5FF1F1305DB
:10B41800A542814506C697A7FF1F238A07BE97A79F
:10B42800FF1F239C07BC97A7FF1F23A507BCEF900E
:10B438006F85EF10805817A5FF1F034525BD21C54F
:10B448009565938545C012059790FF1FE7800050CA
:10B4580017A7FF1F2328A7BA1DC597A7FF1F938704
:10B46800E7BA83C7170017A6FF1F034626BA814508
:10B4780017A7FF1FA304F7B897A7FF1FA381C7B893
:10B488001206EF902F8097A7FF1F938737B783C7C0
:10B49800070017A5FF1F034525B995653E95137548
:10B4A800F50F97A7FF1F238BA7B4938555C01205E7
:10B4B8009790FF1FE780804917A7FF1F232CA7B28B
:10B4C80031C517A6FF1F034666B312068145EF80F4
:10B4D8007FFB97A7FF1F9387E7B1984397A6FF1FA6
:10B4E80083C6C6B1814725077D56639AF600B240E8
:10B4F80017050000130525D541016F10C070850799
:10B508002300C70093F7F70F4107C5B797A7FF1F99
:10B51800238607AE97A7FF1FA38207AEC9BF4111B5
:10B528009397050126C206C622C4C187AE8463D498
:10B53800070A17A5FF1F034525ADEF80FFC12A8421
:10B548002DC103470500930700096319F704034752
:10B558001500CD47631FF7060345250097C5FF1F54
:10B5680083C5051D97A7FF1F83C767A993066400B6
:10B57800014601472E88631DE50209C617A7FF1F6C
:10B58800230FF7A697A7FF1F83C767A781CB85451A
:10B5980017A5FF1F034545A7EF80DFFA2285EF8037
:10B5A8001FB52165258DB240224492444101828015
:10B5B80003C60600B29713F6F70F9377F80F637474
:10B5C800B6009377F60F05071377F70F8906054638
:10B5D8005DB7012DE1B793F715000145E9D7EF00F5
:10B5E800107009CD97A7FF1F83C767A181CB854539
:10B5F80017A5FF1F034545A1EF80DFF413C514000D
:10B608005DB785462A8763FBC60483C7150003C652
:10B618000500A207D18F2310F500639CD70083C7CC
:10B62800350083C62500A207D58F2311F5000145F3
:10B638008280894601456394D70283C7350083C653
:10B648002500A207D58F2311F70083C7550083C6AD
:10B658004500A207D58F2312F70082800545828016
:10B6680091476314F60283C7150003C70500A207B4
:10B67800D98F2310F50083C7350003C72500A2071B
:10B68800D98F2311F50001458280054582809147B5
:10B698006314F60283C7150003C70500A207D98FF4
:10B6A8002310F50083C7350003C72500A207D98FEB
:10B6B8002311F5000145828005458280A147631466
:10B6C800F60483C7150003C70500A207D98F231006
:10B6D800F50083C7350003C72500A207D98F2311BA
:10B6E800F50083C7550003C74500A207D98F231269
:10B6F800F50083C7750003C76500A207D98F231318
:10B70800F50001458280054582808947631CF60063
:10B7180083C7150003C70500A207D98F2310F500BA
:10B7280001458280054582808357260079714ECE77
:10B7380006D622D426D24AD01307F007AE89637200
:10B74800F70209473AC42316F100300093F5F50FC4
:10B75800EF10801CB250225492540259F2494561AC
:10B76800828003574600D9462A89328463F8E60066
:10B778008357660063F4F6006379F7002314010029
:10B78800300093F5F90F4A85E1B70355060002C466
:10B79800EFF0AFF4AA8459C1EFF07F9383C7840018
:10B7A8006369F5001146A246CE854A85EF10200C44
:10B7B80055B7340026869305F00F4A85EFF0AFDCC5
:10B7C80075F1A24703578400DC472390E70003572D
:10B7D80024002391E700035744002392E70003570E
:10B7E80064002393E70003D744002394E700DC4474
:10B7F80085CB93F4F90F2286A6854A858297C1677F
:10B80800FD172A86E311F5FA22459947F9452300E1
:10B81800F50023029500EFF09F902DBF094661B710
:10B82800014651B7A947631CF60483C7150003C72F
:10B838000500A207D98F2310F50083C7350003C779
:10B848002500A207D98F2311F50083C7550003C728
:10B858004500A207D98F2312F50083C7750003C7D7
:10B868006500A207D98F2313F50083C7950003C786
:10B878008500A207D98F2314F5000145828005456C
:10B88800828083C705002300F50083C71500A30045
:10B89800F50083C7350003C72500A207D98F2311F8
:10B8A800F50082802322050003C745008947630409
:10B8B800F7000545828083D665000D47E37BD7FEF8
:10B8C8009C45011106CE22CC26CA4AC84EC683C45E
:10B8D800170003C60700A204D18C13864400631125
:10B8E800D60403C4370083C72700AE8922045D8CC1
:10B8F8009307C4FFC207C1832A89636FF70003A5B2
:10B9080089002311990023108900F155EFF0207C5C
:10B918002322A900014531A02285EFF04FD565F11A
:10B928000545F2406244D2444249B24905618280E9
:10B93800397122DC2E84834704004AD806DE26DAD1
:10B948004ED619472A89B285639AE706034624002A
:10B958002800EFF0FFD0AA8415E903558100EFF025
:10B968000FD1AA898345140015C92E861717000020
:10B978001307A7ED34009D454A85EF00D0424E8558
:10B98800094681450D234E85EFF0AFDCF250625435
:10B9980026854259D254B2592161828089472310A1
:10B9A800F100835781000A862311F1008357A10013
:10B9B8002312F1004A85EF003076C9BF4947639DDD
:10B9C800E702035624002800EFF05FCFAA845DFD4C
:10B9D80097C7FF1F83D707E799E3814445BF03470C
:10B9E8001400834604003C000146CA8517C5FF1FA2
:10B9F800034565E5812659BF51476390E702035621
:10BA080024002800EFF07F8BAA8449F183451400B5
:10BA180030004A85EFF05FD195BF59476393E70639
:10BA2800035624002800EFF03F8FAA8425F18355A0
:10BA380081004A85EFF0AFCD1DC958458356A10056
:10BA480083570700B697C207C1832310F700D1D7E1
:10BA58005C47C1D79797FF1F83C7675ABDDF8545E6
:10BA68001795FF1F0345455AEF80DFAD05B7894796
:10BA78003EC0835781000A86834514002312F100D3
:10BA880015BF834514000A8623100100EF00D06813
:10BA9800A9B75D71A6C256DA86C6A2C4CAC04EDE70
:10BAA80052DCAA8A03C51500AE8432C6EFF06FBF18
:10BAB800B24501ED8144B6402644268506499644A0
:10BAC800F259625AD25A6161828023020500231119
:10BAD800050083C9040085472A84639AF90003C6D0
:10BAE80024002808EFF0FFB1AA8405492DA09D473E
:10BAF8006394F904034705008D47E31DF7FA03C66D
:10BB0800240028080549EFF09FB8AA8409E50546EE
:10BB180081452285492E2285EFF00FE203458400F6
:10BB28003C080147CE862686D6852924E30509F8F0
:10BB38002285EFF00FC241B7CD47639DF900034757
:10BB480005009147E318F7F603C624002808EFF02C
:10BB5800DFBB59BFD547E39FF9F4034A050089477E
:10BB6800E31AFAF403C6240028080549EFF09FCB2E
:10BB7800AA8455F183570102BDE3035781011306D7
:10BB8800F0035C44930607FCC206C182636CD600CE
:10BB98000356A101D94663F7C6008356C101D945AA
:10BBA80063EFD500035524002391E7000549EF0012
:10BBB800D05703560102D2852285512CA9BF83553F
:10BBC800E1012391E7002392C7002390B700239354
:10BBD800D70085472300F400014A0149D9BF014A2B
:10BBE800C9BF7971AA8522D426D203542500AA8414
:10BBF800280806D6EFF01FCBF24599E535E98545CB
:10BC08002285EFF0CFE8C1A0835781011547639BD8
:10BC1800E7060357A1018D4763FCE7046800EFF0CE
:10BC28005FC60357E100DD4763FCE7008345D100A9
:10BC3800B70717008507100822853EC8EF00D04DCA
:10BC48008357E1000357A10191076305F700228597
:10BC5800EFF0EFE28347C10072466C00858B110656
:10BC6800228591CFEFF0FFE201C52285EFF02FE1A9
:10BC7800884451D59790FF1FE780A0D749B7EFF0C8
:10BC88003FCBDDB711476389E7001387A7FF42075A
:10BC98004183854663EEE6023147F117B387E70231
:10BCA80017C7FF1F130747B9BA9703D7070069D308
:10BCB80003C527003008A2850D205DF903578101CF
:10BCC8009147E31EF7F2B2502254925445618280A4
:10BCD8002C082285892649FDFDB701114AC82A8901
:10BCE800314526CA06CE22CC2EC6B284EF80EFC2DA
:10BCF80021C1B2459307000A2310F5002311B500AE
:10BD08002A84214611058DC0A6859780FF1FE780EC
:10BD1800A023A2854A85EF80AFCA0145F24062445C
:10BD2800D2444249056182808145EF80AFF5D5B79D
:10BD38000545EDB7797126D2AA841305000206D607
:10BD480022D42ECE32CC36CA3AC83EC6EF80EFBCDB
:10BD580021C96246F2454247D246B2472A841305B2
:10BD680020FA2300A400A300C4002311B400230276
:10BD7800E400A302D40013058400614691CFBE8578
:10BD88009780FF1FE780401CA2852254B250268569
:10BD9800925445616F80CFC28145EF80AFEEEDB719
:10BDA800B25022549254456182805845797122D408
:10BDB80006D62A84AE8641C783572700231DF10083
:10BDC800930720066391F5069797FF1F9387E7224D
:10BDD80003D60700835767006373F600B28713F62C
:10BDE800F70F83552701834707018D8F93F7F70FC7
:10BDF80081E5890793F7F70FB297FD17B3C7C70215
:10BE0800231EF100835724008355640003458400F2
:10BE1800231CF10001473C080146EFF0BFF1B25086
:10BE28002254456182800347C7019797FF1F938774
:10BE3800671D9C431207BA9783D76700D1B72EC6F0
:10BE4800194681452808EF80EFE3B24665BF79714E
:10BE580022D406D626D22A848DC18147014793066B
:10BE680000062E868355640003458400EFF09FEC9E
:10BE7800B2502254925445618280B28428005946B7
:10BE8800EF804FE02314910089E883572400484449
:10BE98006C002315F100EFF02F9B3C00014793063F
:10BEA80000060146C1B7797106D6814799ED8357D7
:10BEB800250058452316C1002314F1003C0011C782
:10BEC800835727002315F1003C002E868355650013
:10BED80003458500014793060006EFF0BFE5B25021
:10BEE80045618280411122C406C683470500114777
:10BEF8002A846395E7022E868355650003458500ED
:10BF080081470147CD46EFF0FFE24946835564007B
:10BF18002244B240154541016FF08F8D13F7B70FDA
:10BF280089466317D7000146EFF07FF25146F9BF03
:10BF38000D476398E7002244B240014641016FF083
:10BF48009FF6B24022444101828083D705003147E1
:10BF5800F1173387E70297C7FF1F9387E78DBA97D3
:10BF6800D84319EBD8412395A7000145D8C303D777
:10BF780025002394E700828059458280797122D474
:10BF8800404526D24AD006D6AA842E8925C04844E0
:10BF980019C59790FF1FE780C0A523260400835783
:10BFA800040083D5640003C584002315F10083577A
:10BFB80024000147930640062316F10083578400A6
:10BFC8004A862317F1001C483EC883D7240023144F
:10BFD800F1003C00EFF01FD6A30E24012328040033
:10BFE800B250225492540259456182802800314649
:10BFF8008145EF802FC983D7240083D5640003C50A
:10C0080084002314F10001473C00930640064A8649
:10C01800EFF05FD2F1B7797152CC2A8A03D50500C7
:10C0280026D206D622D44AD04ECE56CAAE84EFE0E7
:10C038001FE419E1854749A04045AA8965DC835773
:10C048006500E39947FF8357840063890712834695
:10C05800C401979AFF1F938AEAFA03A70A00920677
:10C06800FD173697C20703576700C1832314F400EE
:10C078006316F70093053006EFF03FD35C48A5EF51
:10C08800C840034915008347050022093369F900B0
:10C0980083D7240013072900631AF702F955EFF034
:10C0A8000003C8C02391240103C589002686D285D0
:10C0B800EFF0BFC2814721E1B25022549254025995
:10C0C800F249624AD24A3E854561828095659385E8
:10C0D80015C04A859790FF1FE780408748C8C84029
:10C0E800231C2401F955EFE0907E83D72400C8C0B3
:10C0F800F9172391F400484859C503D624008356FC
:10C10800A401835784013308D60063C00709034795
:10C11800C40183A70A0095451207BA9783D7270059
:10C1280063CF0705CC4036959780FF1FE780C0E1B5
:10C138000357A40183D72400BA97C2070357840181
:10C14800C183231DF400E397E7EE03D7290003C555
:10C15800890030002314E1005848D2852315F100E6
:10C168003AC6EFF09FB711C548489790FF1FE78080
:10C178004088232A0400232C04006DBD99454E8570
:10C18800EFE0DFE145BDA545DDBF9145CDBF03D754
:10C1980025006DC79796FF1F83D626E6ED4763E017
:10C1A800E60E011122CC2E8426CAAA844840914565
:10C1B80006CEEFE0D07183572400AA862300F5004D
:10C1C80083572400A183A300F500835704002301AB
:10C1D800F50083570400A183A301F500035624004A
:10C1E800C167F9171106420641826396F4042AC40E
:10C1F800314532C6EF707FF2AA85CD471DC593073A
:10C2080000F93246A2462300F500F9572311F5003C
:10C2180089472302F5002313C50014C51795FF1F8E
:10C22800034585DEEF70DFF98147F2406244D2446E
:10C238003E850561828081452685EF30F056AA87C4
:10C2480001ED1797FF1F034787DB65D37D17979687
:10C25800FF1F2386E6DAD1BF09476304E5021D47BD
:10C268006303E50249476302E5027D47E31FE5FAF8
:10C278001797FF1F0347A7D88147C1BFED473E85E2
:10C288008280D1475DB791474DB7894779BF011182
:10C2980022CC4AC831441309C5FF3304890297B731
:10C2A800FF1F9387675906CE26CA3E94584021CB74
:10C2B8009796FF1F83C6A6D4BE84854795CA2314C4
:10C2C800A100835784000355A4002C003AC6231507
:10C2D800F100EFF0DFEB11C548409780FF1FE780C2
:10C2E8004071B147B307F902A69723A20700854713
:10C2F800F2406244D24442493E85056182808147CA
:10C30800C5BF797126D244451797FF1F1307E7CE9B
:10C318004AD083D764000359070052CC06D622D4EA
:10C328004ECE56CA2A8A63F327013E8903D72401D1
:10C3380042091359090183D7040141CB998F4A84D3
:10C3480063D5270113940701418089452285EFF0C1
:10C358002F85AA89CD4A25C183D724002AC623154B
:10C3680081002314F10083D7240185E383D70401D6
:10C37800930925002300F50083D70401A183A300B6
:10C38800F5006376240503D4040183D72401CC4443
:10C3980022864E85BE959780FF1FE780E0BA035539
:10C3A8006A002C00EFF0BFDEAA8A15C54E8597807B
:10C3B800FF1FE7800064B2502254568592540259F8
:10C3C800F249624AD24A4561828089078DBF791451
:10C3D800420441805DBF03D7240183D704003A9407
:10C3E800FD17C207420403D70401C183418023908B
:10C3F800F400239984006377E400D5FFFD57A38EEA
:10C40800F40055BF81455285EFF05FB76DB7011154
:10C418004EC69799FF1F83C989BF22CC52C456C202
:10C428005AC006CE26CA4AC84E84179AFF1F130A56
:10C438006ABC854A130BF00F83270A009314440043
:10C44800BE9403C90400631F5907DC44A5CFD8472D
:10C4580035CB03D7070039CB9797FF1F83C727BA78
:10C468008DC32685EFF0FFE9AA8505ED05049797AA
:10C47800FF1F83C7B7B86351F4029797FF1F23883C
:10C4880087B8F24062444A85D2444249B249224AB6
:10C49800924A024B056182809797FF1F238907B64E
:10C4A800CDB72685EFF09FAD0149E1BF83C7D7011E
:10C4B800639A6701930520062685EFF01F8FDC44F9
:10C4C800A38E070005041374F40F9797FF1F83C703
:10C4D800F7B26363F4000144E31034F7F1B7411194
:10C4E800154506C6EFF0BFDA09C50545B24041015A
:10C4F80082801945EFF0BFD96DF91145EFF03FD9AA
:10C508006DF51D45EFF0BFD86DF11795FF1F034579
:10C51800F5AE69DDB24041016FF07FEF83D70500CA
:10C528000D47F117C207C1836365F706DC41B5C340
:10C53800411122C42E84854526C206C6AA84812FAD
:10C5480039C92685AD25C167F9176381F40219ED4C
:10C558008357240081CF8356040019476393E60468
:10C568001797FF1F035767A963FDE7029797FF1FF8
:10C5780083C7E7A8A285268599C72244B24092447A
:10C5880041016FF0DFC02244B240924441016FF094
:10C59800DF9B094582805145B240224492444101C3
:10C5A80082806D45D5BF397126DA4ED6AA84AE8908
:10C5B8005D4589454AD806DE22DC328936C63AC44A
:10C5C800EFE01FDE35C522472A84014511C7B24670
:10C5D80013054400B685029793578500230034015C
:10C5E800A30024012301A400A301F4001105954729
:10C5F800231DA100231CF10022CE9797FF1F83C79C
:10C6080007A02C08268595C3EFF07FB8AA8411C52A
:10C6180022859780FF1FE780C03DF250625426852F
:10C628004259D254B25921618280EFF01F92F9BF6A
:10C63800CD44E5B7797126D24AD052CC56CA06D62F
:10C64800BA8A22D44ECE19472E89B284368A63918B
:10C65800E508035526000944EFE07F812AC649C151
:10C668005C458359650083D727002390F400B247BF
:10C678001547238057011796FF1F0346F697239106
:10C68800E700130716001377F70F9796FF1FA38588
:10C69800E6962382C70011E705479796FF1FA38DEB
:10C6A800E6945147631AE90015472391E400DC47F3
:10C6B80003D784002394E7005287A686CA854E854F
:10C6C800EFF07FEE2A84324515C4EFE09F8809A871
:10C6D80042867400BE85AA89EFE0EFEA2A8441D930
:10C6E8002285B250225492540259F249624AD24ADF
:10C6F80045618280F945EFE09FA2DDB783D7050049
:10C708002300F50083D70500A183A300F50083D794
:10C7180025002301F50083D72500A183A301F50097
:10C728001145828083D705002300F50083D70500D3
:10C73800A183A300F50083D725002301F50083D743
:10C748002500A183A301F50083D745002302F50046
:10C7580083D74500A183A302F50083D7650023038F
:10C76800F50083D76500A183A303F50021458280E6
:10C7780083D705002300F50083D70500A183A30014
:10C78800F5000945828083D705002300F50083D78B
:10C798000500A183A300F50083D725002301F50038
:10C7A80083D72500A183A301F50083D74500230281
:10C7B800F50083D74500A183A302F50083D7650060
:10C7C8002303F50083D76500A183A303F50083D76E
:10C7D80085002304F50083D78500A183A304F50011
:10C7E8002945828003D705008546AA872300E500EE
:10C7F80003D705002183A300E50003D70500631DC7
:10C80800D70003D725002301E50003D7250021839E
:10C81800A301E5001145828009456315A70203D7E6
:10C82800250019452381E70003D725002183A3812B
:10C83800E70003D745002382E70003D7450021839B
:10C84800A382E700828083D705002300F50083D701
:10C858000500A183A300F50083D725002301F50077
:10C8680083D72500A183A301F50011458280797142
:10C8780026D24AD04ECEB2842A89AE89294681452D
:10C88800480022D406D63684EF70DFBF2316910005
:10C89800A1E0835724002312F1009787FF1F938795
:10C8A800C77583D707002314F1005C4495C383C67A
:10C8B800C7011787FF1F1307E7741843920683D72A
:10C8C80087003697035727002315F1002313E1004B
:10C8D8004A8517070000130747EB540013F6F90FB2
:10C8E800D545EFF05FCC2A8911C19DE0854723002B
:10C8F800F40023020400014681452285EFF02FD57C
:10C90800B25022544A8592540259F24945618280B4
:10C918002285EFE00FE4EDB7B28617070000130792
:10C92800A7EC2E8685456FF01FC801112317A100BB
:10C938004165700001489307F00F0D479706000006
:10C94800938606DC99457D1506CEEFF0BFCEF24002
:10C9580005618280B28701482E861147970600003C
:10C96800938686DCC9456FF0FFCCB28617070000B6
:10C97800130747E02E86CD456FF0FFC2011122CC88
:10C9880026CA4AC84EC606CE2A89AE8917B4FF1FE2
:10C99800130484ED97B4FF1F938404F01C4081C7EF
:10C9A800CE854A8582971104E31A94FEF2406244C8
:10C9B800D2444249B2490561828017B5FF1F034539
:10C9C800E5D79377350099C7138717009786FF1F18
:10C9D800A38CE6640981AA971787FF1F2306F764CB
:10C9E800BDCF1305C0033385A702A5654111850591
:10C9F80006C69780FF1FE78060F59787FF1F23A96A
:10CA0800A7609307C0031786FF1F0346E661330636
:10CA1800F6028145EF701FA79787FF1F9387475F2F
:10CA28009C439786FF1F83C62660014789077D566A
:10CA3800634DD700B24013060003814517B5FF1FA9
:10CA4800130585E241016F70FFA32390C70023817E
:10CA5800070023A5070205079387C703D1BF828074
:10CA68009787FF1F9387C75A98431786FF1F034668
:10CA7800A65B81476315F600814636858280BA86B3
:10CA88001307C703835567FCE389A5FE850793F75A
:10CA9800F70FCDB7011122CC2EC632C406CE2A8498
:10CAA800EFF01FFC2246B24511E9C167F91763038D
:10CAB800F4005145F2406244056182805455834731
:10CAC800450095C213F7270141456314A700154592
:10CAD80075F2C18B3D45F9DF83C7A6010145E3FB2C
:10CAE800B7FC3145C1BFC18B0145E9F71545D9B739
:10CAF800797126D2C16422D44AD04ECE52CC56CABD
:10CB080006D62A8901449789FF1F93896950130A19
:10CB1800C003FD14854A9787FF1F83C7E7506364E6
:10CB2800F400014525A8B307440303A70900BA97F1
:10CB380003D727006316970005041374F40FE1BFA9
:10CB480003C55700300093856700EFC0F03B1946D6
:10CB5800CA852800EF703F99E31055FFB250225460
:10CB680092540259F249624AD24A456182809787B3
:10CB7800FF1F9387E749C16698439785FF1F83C5C1
:10CB8800A54A8147FD166395F500014632858280E6
:10CB9800035827003A866306D80003480700E307CE
:10CBA800A8FE850793F7F70F1307C703E9BF4111DD
:10CBB80006C6EFF0FFEA11C503554501B240410131
:10CBC80082800145E5BF9787FF1F93876744984395
:10CBD8009786FF1F83C64645814711070145639322
:10CBE800F60082800346070001C605051375F50F98
:10CBF800850793F7F70F1307C703D5B71785FF1FE7
:10CC080003458542828017B7FF1F1307E7C5814791
:10CC1800BA8631460C4391E58A07B69788C3014521
:10CC2800828085071107E397C7FE4D458280411131
:10CC380006C622C4EFF0DFE20DCD2A840355250095
:10CC48008545EFF0BFD3485409C59780FF1FE7809B
:10CC580040DA22851306C0038145EF70BF82FD5775
:10CC68002311F400230204000145B240224441018B
:10CC780082800945DDBF411106C6EFF07FDE11C590
:10CC88000345C500B240410182800145E5BFC16747
:10CC9800F9176304F502411122C406C62E84EFF089
:10CCA8003FDCAA87014591C703C54700698C333526
:10CCB8008000B240224441018280054582800111F2
:10CCC80006CE2EC6EFF0DFD9854711C903574501B7
:10CCD800B24585476305B700231AB5008147F2407E
:10CCE8003E850561828021CD01114AC8416922CC67
:10CCF80026CA4EC652C406CE0144AA849789FF1F8D
:10CD080093890931130AC0037D199787FF1F83C7C9
:10CD1800A731634AF400F2406244D2444249B2491E
:10CD2800224A056182803305440383A709003E95A2
:10CD3800835725006383270182940504F9B782800D
:10CD48009787FF1F9387C72C9C43C1661786FF1FD1
:10CD58000346862D890701450147FD169145631352
:10CD6800E600828003D807006309D80003C8A7003B
:10CD78006315B80005051375F50F05071377F70F49
:10CD88009387C703E9BF9787FF1F93876728944353
:10CD98001786FF1F034646290147910681476310FE
:10CDA800E602858393C7F7FFC207C183054563641D
:10CDB800E50285473395A70042054181828083C5F6
:10CDC800060081C583D5C602CD8F05071377F70FF7
:10CDD8009386C603E9B793F61700E1FE0505858338
:10CDE8001375F50FE9B7797156CAAA8A2E8526D226
:10CDF8004AD04ECE52CC5AC85EC662C406D622D499
:10CE0800AE84328B368CBA8B3E8AC2894689EFF063
:10CE18003FC549E141657D15EFF09FC42A8455451A
:10CE280031CC1946DE8513056400A302840197708E
:10CE3800FF1FE78060118357010323119400230229
:10CE480064012319F4008357410323005401232666
:10CE58000402231AF400230644012317340123187B
:10CE68002401EFF05FF22318A402232A0402268586
:10CE7800232C04028145EFF07FB00145B2502254C3
:10CE880092540259F249624AD24A424BB24B224C5E
:10CE9800456182804545DDB79787FF1F9387471710
:10CEA80098439786FF1F83C6261881476395F60027
:10CEB80041657D1582803A861307C703835547FF6E
:10CEC8006395A500035526008280850793F7F70F21
:10CED800F1BF9787FF1F9387A71341669843178869
:10CEE800FF1F0348681481477D1685482D43314E3E
:10CEF8006314F80001458280835627003A856382CF
:10CF0800C602545B99CE83C506006397150183C694
:10CF180016006378DE00828089E583C61600E37C0C
:10CF2800D3FC850793F7F70F1307C703D1B7978784
:10CF3800FF1F9387E70D416698439785FF1F83C5B9
:10CF4800A50E81477D1625486394F500014582802A
:10CF5800835627003A85638BC600545B81CA83C613
:10CF68001600E51693F6F60FE373D8FE850793F7D8
:10CF7800F70F1307C703C9BF894791C909C995475F
:10CF88002380F50083470500A380F50081473E858F
:10CF9800828039714ED652D4AE892A8A93053005DB
:10CFA800414526DA4AD856D206DE22DC32C6368910
:10CFB800BA8A9780FF1FE7806099CD4421C92A84E7
:10CFC80089446380090432468145231AC1004146D9
:10CFD800EF704FCB5686CE8522859770FF1FE7806E
:10CFE800A0F62146630E0902CA8528089770FF1F1C
:10CFF800E78080F5A28650082C085285EF20D0776C
:10D00800AA8422859780FF1FE780A09EF250625471
:10D0180026854259D254B259225A925A21618280A5
:10D0280081452808EF700FC6F1B789478DC505C53A
:10D03800411106C6AE871947AA852380E7001385E4
:10D04800170041469770FF1FE78000F0B240814704
:10D058003E85410182803E858280894795C90DC9F8
:10D06800411106C625472380E50003470500AE8722
:10D078001946A380E50093051500138527009770CE
:10D08800FF1FE78060ECB24081473E854101828006
:10D098003E85828089478DC505C5411106C6AE8784
:10D0A8002147AA852380E70013851700414697701A
:10D0B800FF1FE78060E9B24081473E8541018280D9
:10D0C8003E85828089479DCD15CD411106C61D47F5
:10D0D8002380E50003570500AE872146A380E500BD
:10D0E8000357050021832381E50093052500138557
:10D0F80037009770FF1FE78020E5B24081473E85E3
:10D10800410182803E85828089478DC505C54111D0
:10D1180006C6AE870D47AA852380E700138517004A
:10D1280041469770FF1FE78020E2B24081473E8565
:10D13800410182803E85828089478DC505C54111A0
:10D1480006C6AE871147AA852380E7001385170016
:10D1580041469770FF1FE78020DFB24081473E8538
:10D16800410182803E85828089478DC505C5411170
:10D1780006C6AE872947AA852380E70013851700CE
:10D1880041469770FF1FE78020DCB24081473E850B
:10D19800410182803E8582809787FF1F23AC07E686
:10D1A8009787FF1F23AA07E69787FF1F23A807E68D
:10D1B8009387C15D171700001307475D98C31707CA
:10D1C800000013074747D8C3170700001307A7DC59
:10D1D80098C79387815E172700001307E7D098C385
:10D1E8001707000013078761D8C317170000130734
:10D1F800E7E198C78280C14709CD144DC14791CA5C
:10D20800784D01CB83C73600BD4663F4F6008347EB
:10D2180087013E858280411122C41784FF1F1304B1
:10D2280064DF4AC02A89084006C626C251C5A284BE
:10D23800631E0900834705002146A1CF2905977081
:10D24800FF1FE78060D09C400545ADC34945EF60AE
:10D25800DFEC2A840DC5930710FC2300F500A3001A
:10D2680025018C400905414689059770FF1FE78015
:10D27800A0CD9C40A28503C51700EF607FF48840CD
:10D288009770FF1FE780E0769787FF1F23A407D8D2
:10D2980029A809059770FF1FE78000CBEF20904D64
:10D2A800054955F11C40238027010545B240224419
:10D2B80092440249410182800145CDBF1C4D639FC4
:10D2C8000716411122C426C22A84AE84414593051B
:10D2D800300506C69770FF1FE780406708CCCD472A
:10D2E80063040510A68541469770FF1FE780C0C5F7
:10D2F80083450400F9ED7C4C184CD04B5443058A07
:10D30800858A6307D60083D64701F99A239AD700FE
:10D31800D04B544305828582058A858A6307D600E7
:10D3280083D64701F59A239AD700D04B54430982F4
:10D338008982058A858A6307D60083D64701ED9AD4
:10D34800239AD700D04B54430D828D82058A858A53
:10D358006307D60083D64701DD9A239AD700D04BBE
:10D3680054432182A182058A858A6308D60083D620
:10D37800470193F6F6EF239AD700D04B5443258202
:10D38800A582058A858A6308D60083D6470193F665
:10D39800F6DF239AD700D04B54432982A982058A05
:10D3A800858A6308D60083D6470193F6F6BF239A89
:10D3B800D700D44B5843AD822D83858A058B638A69
:10D3C800E60003D74701FD769386F67F758F239A8B
:10D3D800E70003C714007C4C11CF03C7170019CB13
:10D3E8009547A301F4008147B240224492443E8508
:10D3F8004101828003C72400118B19E703C7270165
:10D40800118B19E38547F1BF03C7070083C60400E2
:10D4180081C5B687BA863E871146E147E366E6FCD2
:10D42800E364D6FC95473307F702972701009387F3
:10D43800A7CE3E9736978347070065B7C5473E8511
:10D448008280AE8715C5784D05C7834607002380BF
:10D45800D50083461700A380D50083462701238182
:10D46800D50083468701584BA381D500D8C1828057
:10D47800414681453E856F70EF809787FF1F9387F0
:10D48800A7B99C4391C703A38700630303000283E2
:10D4980009458280011122CC2A84494506CEEF80B5
:10D4A800BFED15C12AC62285EFF08FDB09CD624496
:10D4B800324683550503F2401785FF1F0345A5B67D
:10D4C80005616F708F9AF2406244056182807971BC
:10D4D80026D29947231DB100AA842E858D4522D4D2
:10D4E80006D632C636C4231CF100EFD07FEB2ACE15
:10D4F8004D441DC13246A246AA85328582962A84A9
:10D5080019E52C082685EFF06F812A8411C572452C
:10D518009770FF1FE780E04D2685EFF0BFF7228563
:10D52800B2502254925445618280011122CC930555
:10D53800C5012A8441460A8506CE9770FF1FE780F9
:10D54800A0A0035544000A8697060000938606BCEF
:10D55800C545EFF0DFF7F2406244056182800111B2
:10D5680022CC9305C5022A8441460A8506CE9770C7
:10D57800FF1FE780609D035544000A869706000058
:10D588009386C6BBC545EFF09FF4F240624405613F
:10D5980082802E8697060000938666A9C5456FF09F
:10D5A8001FF30111B28722CC2300B1002A84BE8563
:10D5B80013051100194606CE9770FF1FE780C09823
:10D5C8000A86228597060000938666A9A145EFF092
:10D5D8001FF0F2406244056182802E8697060000A3
:10D5E800938686ABC5456FF09FEE0111B28722CCBA
:10D5F8002310B1002A84BE8513052100214606CEDA
:10D608009770FF1FE78040940A86228597060000DE
:10D61800938686ABAD45EFF09FEBF240624405611F
:10D6280082802E8697060000938646B4C5456FF023
:10D638001FEA011106CE22CC26CA8344050085477D
:10D64800639BF4048347150019472A84639AE70407
:10D658001C4D83D7470013F7071019C7784D035798
:10D6680047011377071021E313F7072001CB784C04
:10D6780003574701137707206317071093F70740ED
:10D6880081CB7C4C83D7470193F70740639E0714EF
:10D69800C947A300F400F2406244D2440561828085
:10D6A80031476394E70A3C5091EF93053005714583
:10D6B8009770FF1FE780802928D009C571468145EA
:10D6C800EF605FDC2450A9C883C7A40191E72285D5
:10D6D800EFF07FB2238DA400814526854146EF6097
:10D6E8007FDA28503D478345A5019387F5FF93F7D7
:10D6F800F70F6364F700EF80AF98EF60FFBB3C5013
:10D70800A1452398A70013852701EF806F972C5018
:10D7180003554400EFF0FFE7B54703554400A30065
:10D72800F400EFF0EFB3414611C58357E50013D677
:10D7380017003E966244F240D2441785FF1F034506
:10D74800858E854505616F605FF23547639AE7020C
:10D758003C5189CB83D50701035545001386270122
:10D76800EFF0BFE81C4C83D7470013F7072039CBED
:10D77800784C035747011377072029C7B94771BF6A
:10D788003947639BE700EF808FBFAA8503554400A4
:10D79800EFF0BFE4BD4751B73D476394E704EF801E
:10D7A8006FBDAA85630D9502814526852EC6EF803B
:10D7B8002FBA2A86B24503554400EFF09FDE1C4C71
:10D7C80083D7470093F70740E38407EC7C4C83D763
:10D7D800470193F70740E38D07EAC1473DBF8144FE
:10D7E800E9B74147E396E7EAEF802FBAAA850355E0
:10D7F8004400EFF01FE369BD797106D622D426D222
:10D8080083440500A5E48347150019472A846394D7
:10D81800E7067C4D83D7470113F7170011C7184D4A
:10D8280003574700058B39EB13F7270019C7184C26
:10D8380003574700098B63110714918B99C71C4C38
:10D8480083D74700918B639807187C4C83D747018F
:10D8580013F7071063090718184C03574700137785
:10D86800071063020718B147A300F400B25022540E
:10D878009254456182801D476393E70C3C5089EBC5
:10D888009305300571459770FF1FE780200C28D05D
:10D898002450ADCC2285EFF01F96238DA40081453E
:10D8A80026854146EF601FBE28503D478345A501A8
:10D8B8009387F5FF93F7F70F636BF7029777FF1FCF
:10D8C80083C7477DB5CB414681450808EF609FBBBC
:10D8D800194697A5FF1F938525F108089760FF1F34
:10D8E800E780806630500C082E85EF70B072EF60CC
:10D8F800BF9C3C50A1452398A70013852701EF70D2
:10D908003FF82C5003554400EFF0BFC8A14703551A
:10D918004400A300F400EFF0AF94414611C58357CB
:10D92800E50013D617003E9685451775FF1F03457A
:10D93800856FEF609FD31DBFEF709FF44DBF2147E8
:10D948006399E7023C5189CB83D50701035545000C
:10D9580013862701EFF07FC97C4C83D7470113F763
:10D96800270021CF184C03574700098B39C7A54713
:10D9780079BF2547639BE700EF806FA0AA85035511
:10D988004400EFF09FC5A94759B729476392E704B8
:10D99800EF804F9E8547AA856304F500814585443D
:10D9A80026852EC6EF80CF9A2A86B24503554400B5
:10D9B800EFF03FBF7C4C83D74701918BE38707E8A3
:10D9C8001C4C83D74700918BE38107E8AD4781B7AB
:10D9D8002D47E39CE7E6EF804F9BAA85035544005B
:10D9E800EFF03FC49DB513F7072009CB184C035738
:10D9F80047001377072019C3B947BDB593F7074008
:10DA080089CB1C4C83D7470093F7074099C3C1477C
:10DA1800A1BDC94791BD0DCD01118A8522CC06CE85
:10DA28002A84EFF01FA28347040003554400971689
:10DA38000000938626B689E797160000938626B6D7
:10DA48000A869D45EFF0BFA8F240624405618280D6
:10DA580005458280AA851775FF1F0345C55C6F6061
:10DA68007FD7411122C4405926C206C6AA8431C4B0
:10DA7800084C09C59770FF1FE780A0F7285009C513
:10DA88009770FF1FE780E0F6685009C59770FF1F81
:10DA9800E78020F6285409C59770FF1FE78060F5D6
:10DAA800685409C59770FF1FE780A0F42285977016
:10DAB800FF1FE78000F423AA0402224403D50403CD
:10DAC800B240924441016FF0FFF8411126C206C6E8
:10DAD80022C4AE84EFE0DFF821C54C592A84A9C1DD
:10DAE80083A8C50603A88506FC51B85183C66500FE
:10DAF80003D6450083C505002685EF80BF8F2285A4
:10DB0800EFF03FF6EFF0AFC201CD2244B2409244AD
:10DB18001775FF1F03452551854541016F609FA279
:10DB2800B2402244924441018280411122C44059AA
:10DB380026C206C67C4CAA8483D7470113F7071070
:10DB480019C7184C03574700137707101DE313F73D
:10DB5800072019C7184C035747001377072011EB04
:10DB680093F707409DCB1C4C83D7470093F707409A
:10DB78008DC79947A300F4002285EFF09FAB0347B8
:10DB88001400C947631FF700224403D52400B2409C
:10DB98009244814541016FF05FF3C947A300F40047
:10DBA800E5B7B2402244924441018280411106C641
:10DBB80022C426C2EFF0EFB121C54059AA8429C07A
:10DBC800834704008DCB9777FF1F9387E7449C43D7
:10DBD80089C7DC4399C32285829703471400C94744
:10DBE8006310F702224403D52400B24092448145D1
:10DBF80041016FF09FED9777FF1F93872742C1BFC1
:10DC0800B2402244924441018280411126C24AC056
:10DC180006C622C4AA842E89EFE09FE40DCD4059A0
:10DC28005DC4835744006394970A834714001947D7
:10DC38006396E70883470400ADCF7C4C83D7470140
:10DC480013F7170005C3184C03574700058B19CB6A
:10DC58009D47A300F400B24022449244024905457E
:10DC68004101828013F7270001CB184C0357470066
:10DC7800098B19C3A547F1BF918B81CB1C4C83D766
:10DC88004700918B99C3AD47E9B79777FF1F9387F3
:10DC9800A7389C43E9D3DC43DDDF2285829703471D
:10DCA8001400C9478145E318F7FA2685EFF0FFE12C
:10DCB8005DB79777FF1F93876736E1BF454763983E
:10DCC800E7006304090013092003CA85F9BF631C30
:10DCD80009002685EFE0DFD819C58347450093E79B
:10DCE80007012302F500A6854A85EF80CF8EA5B7E8
:10DCF800411122C42E862E8497F6FFFF93860628AC
:10DD0800894506C626C24AC02A89EFF04FFC8345DA
:10DD18000400AA844A85EFF05FDBB24022442685DE
:10DD280002499244410182809777FF1F9387072F0A
:10DD38009C4395CB9C4385CB797122D406D69841D8
:10DD480010082A843AC8D84185453ACA829701C939
:10DD58002306A100035524006C00EFF07FF9B250B0
:10DD68002254456182808280011122CC06CE2A8409
:10DD78002EC6EFE0FFCE5C5991CF83D74700B2455E
:10DD8800639A870085476397F5006244F24005610E
:10DD98006FF03FCDF240624405618280411106C6B2
:10DDA800EFF08F8FC167FD176307F500B240DD45BF
:10DDB80041016FF09FD1B240410182802300B5003C
:10DDC8008280011126CA4EC6AE84AA899305300501
:10DDD800130500034AC806CE22CC32899770FF1F6C
:10DDE800E780C0B629CD1306000381452A84EF6079
:10DDF8006FE94146CE852285EF602FF1A6850D4655
:10DE08001305D401EF606FF01306040293050401B3
:10DE18002285EF703020AA840D469305D4024A85E6
:10DE2800EF60AFEE22859770FF1FE78080BCF2405D
:10DE3800624426854249D244B24905618280CD4474
:10DE4800FDB781474146B306F5003387F500034720
:10DE5800070003C806008507334707012380E6004B
:10DE6800E393C7FE82805D714EDE62D4AE892A8C50
:10DE78009305300513050003A6C2CAC052DC56DA62
:10DE88005AD85ED686C6A2C4B28B368BBA84BE8AEE
:10DE98004289468A9770FF1FE78040AB6301050EF1
:10DEA8001306000381452A84EF60CFDD4146E285F1
:10DEB8002285EF608FE5414681450A85EF608FDC5A
:10DEC8001D46DE850A85EF604FE41D46DA85130599
:10DED8007100EF608FE333392001B334900041467D
:10DEE8008145080823072101A3079100EF608FD916
:10DEF8001946D6854808EF604FE11946D2851305C3
:10DF0800A101EF608FE0930404014146CE85268588
:10DF1800EF60AFDF8A852685EFF0BFF29309040230
:10DF28004E86A6852285EF70F00E2A891DE54146AA
:10DF3800CE8526859760FF1FE78000010C0826859F
:10DF4800EFF03FF04E86A6852285EF70B00C2A8947
:10DF580046454146CE85EF604FDB22859770FF1F0F
:10DF6800E78020A9B64026444A8596440649F259D6
:10DF7800625AD25A425BB25B225C616182804D492F
:10DF8800D5B7011126CA52C4AA842E8A13050003E4
:10DF9800930530054AC84EC606CE22CC3289B689CA
:10DFA8009770FF1FE780809A31CD2A84A685414665
:10DFB800EF60AFD5930404012146D2852685EF6032
:10DFC800CFD4CA85214613058401EF600FD4130905
:10DFD8000402A6854A862285EF70D003AA844146AA
:10DFE800CA854E85EF606FD222859770FF1FE78044
:10DFF80040A0F240624426854249D244B249224AAE
:10E0080005618280CD44F5B75D71A2C4A6C24EDE1B
:10E0180052DC86C6CAC0AE89328AAA84EFE05FA401
:10E028004059414681450A85EF60CFC551C803591B
:10E0380044006317990883470400D9E30347140091
:10E0480099476313F70414081306C4049305C4021C
:10E0580013057400EFF0FFF225E52285EFF0AF9984
:10E068002A860C080A859760FF1FE780E0ED8A85FD
:10E078004A85EF1070710545B64026449644064916
:10E08800F259625A616182802C509DC9C54683D776
:10E098000501631BD7086310FA022146C9054E859E
:10E0A800EF606FC485476318F5002285EFF0AF94E1
:10E0B8002A862C5045BF930520032685EFF0FFA044
:10E0C8002685EFE0FF992A8435CD4C55A5CD83D719
:10E0D8000501639947072146C9054E85EF60AFC022
:10E0E80085472A896310F5064C540A8503C6A5019D
:10E0F8009760FF1FE78040E583C7116C91C75C54A8
:10E1080083C7B7016397270FBD452685EF10506277
:10E118009797FF1F9387C7609C5B0145B1DF1D453B
:10E1280089458297014589BFE31CFAF82146C9054C
:10E138004E85EF604FBB8547E314F5F82C5003C6B6
:10E14800A5010DB79777FF1F9387F7F303C707005C
:10E158009799FF1F9389C95C3E89058B21C30347A3
:10E1680054009777FF1F83C7A7F16319F702194671
:10E178009775FF1F9385D5F013056400EF60AFB660
:10E188008547631DF50083A7090381C791451D4590
:10E198008297BD452685EF10B059F1BD1777FF1F4F
:10E1A800034747EF83A7090321CB03470900098BDE
:10E1B80009CB81C795451D4582972685EF10105DCF
:10E1C8005DBD81C78D451D45829741468145081033
:10E1D800EF604FAB19469795FF1F9385E5600810D0
:10E1E8009760FF1FE78040D60C100A862E85EF70D7
:10E1F80060628A852685B5BD8545D5FF7DBF814787
:10E20800C1463307F500B388F5000347070083C804
:10E2180008003308F6008507334717012300E80094
:10E22800E391D7FE82800147BD471308F00F3306FC
:10E23800F50083460600B388F500FD178606558F5E
:10E248002380E8000347060093F7F70F1D83E39048
:10E2580007FF82808147930800F8414893F6F70F3B
:10E268003387F50063FCC600B306F50083C60600D5
:10E278002300D7008507E39307FF82806395C600D4
:10E2880023001701C5BF23000700EDB701114AC8D5
:10E2980056C22E89AA8A93053005414506CE22CC5E
:10E2A80026CA4EC652C4328A9760FF1FE780006AAA
:10E2B800AA849305300541459760FF1FE7800069F0
:10E2C8002A84CD49B5C021CD41468145EF608F9B59
:10E2D8002686A2855685EF70E053AA8929E18387AF
:10E2E800040063D30706A2852685EFF0DFF34A868C
:10E2F80097150100938505E42285EFF05FF0830709
:10E30800090063D80704A2854A85EFF0DFF1528639
:10E3180097150100938505E22285EFF05FEE2685CB
:10E328009760FF1FE780E06C11C422859760FF1F8C
:10E33800E780206CF24062444E85D2444249B2499B
:10E34800224A924A05618280CA852685EFF0BFED90
:10E358007DB7D2854A85EFF01FEDD1B739715AD014
:10E368005ECE2A8BAE8B41459305300506DE26DA54
:10E3780052D456D262CC66CA6AC8368C328DBA8CF0
:10E3880022DC4AD84ED69760FF1FE780205CAA8A15
:10E398009305300541459760FF1FE780205B2A8A77
:10E3A800CD44638C0A0849C52A86D6855A85EFF07C
:10E3B800FFEDAA8435ED9305300541459760FF1FB1
:10E3C800E780C0582A899305300541459760FF1FAB
:10E3D800E780C057AA896308090E6304050E130471
:10E3E800FD0011841376FD003DCC7D14420441806C
:10E3F80025EE131544004E86D6855E95EFF03FE076
:10E40800414681454A85EF60EF87014D93170D011D
:10E41800C18363F48708BDC04A859760FF1FE78002
:10E42800405D638709004E859760FF1FE780605C49
:10E4380056859760FF1FE780C05B63070A00528517
:10E448009760FF1FE780E05AF250625426854259D0
:10E45800D254B259225A925A025BF24B624CD24CB5
:10E46800424D216182800144131544008A855E95DE
:10E47800EFF05FDE4E86D2850A8549B793154D00C9
:10E488000A86DE954A85EFF09FD74A868A855A859F
:10E49800EF704038AA84050D95BFBDFC0A86CE856D
:10E4A8004A85EFF0DFD54A868A855A85EF7080362F
:10E4B800AA846686CA8562859760FF1FE780C0A820
:10E4C800A1BFCD4491BFCD44A9BF894761C2DDCD6D
:10E4D8002300A60083C70500A300F60083C7150024
:10E4E8002301F60083C72500A301F60083C7350082
:10E4F800A30206002302F60083D74500A183858B7B
:10E50800A302F60003D745001377072009C793E74E
:10E518002700A302F60083D7450093F7074099C761
:10E528008347560093E74700A302F60083D74500C8
:10E5380013974701635807008347560093E78700FE
:10E54800A302F6002303060083C74500858B230337
:10E55800F60003D74500098B09C793E72700230373
:10E56800F60083D74500918B99C78347660093E7E8
:10E5780047002303F60003D745008147218B19C7BD
:10E5880003476600136787002303E6003E85828001
:10E598002E86AA8505456FF05FF32E86AA85094564
:10E5A8006FF0BFF24DC95971A2D42A8403554500B2
:10E5B800A6D2CAD0CECED6CA86D6D2CCDAC8DEC6C5
:10E5C800B68AB2892E89EFE0AFC9AA8439C50C187A
:10E5D8002285EFE01FE783470400138A6400A9CB74
:10E5E800EF704FD92A8B014583CB5400EF704FD67B
:10E5F800AA840C100818EFF0BFF9084C2C10EFF0A3
:10E60800DFF9D288268A56C05E88D2875A871410C6
:10E618003010CE854A85EFF01F85B65026549654A3
:10E628000659F649664AD64A464BB64B656182801A
:10E63800EF704FD4AA8B014503CB5400EF704FD134
:10E648002ACE084C0C10EFF0BFF42C100818EFF08D
:10E65800DFF4F2484DBF8280894791C909C9AD47A7
:10E668002380F50083470500A380F50081473E8598
:10E678008280011122CC4AC806CE26CA2A84EFE03D
:10E68800FFC32A8901CDE147630EF50E2149F24007
:10E6980062444A85D2444249056182807C4C83C7E2
:10E6A8002701858B91CF1C4C054783C727008D8B8D
:10E6B8006398E7008347640093E717002303F40097
:10E6C8008344340089476391F40203554400854527
:10E6D800EF70DFEA8347640093E747002303F40001
:10E6E8008D47A300F40065B70D476390E402035516
:10E6F80044008945EF709FE883476400A3009400B5
:10E7080093E747002303F40059B71147E38FE4FA6E
:10E718000547639EE40293047400A300F400414695
:10E7280081452685EF501FD61306C4023285C145A0
:10E7380032C6EF70EF94324622859306C401A6854F
:10E74800EFF05FE62285EFE05FDE31D181B7154754
:10E75800E39FE4F293047400A300F400414681456A
:10E768002685EF503FD26C4C414626858905975047
:10E77800FF1FE780607D8347640093E7470023031A
:10E78800F4005DB70D4921B7397122DC405926DA0A
:10E798004AD84ED606DEAA89AE8432896307042099
:10E7A8000355250083574400638BA700A144F2500A
:10E7B800625426854259D254B259216182808347D6
:10E7C800040099E39D44E5B7AD47E3EDB7FE9387B1
:10E7D800E5FF93F7F70F2547E366F7FE17170100E4
:10E7E8001307C78B8A07BA979C43BA978287B28563
:10E7F8002285EFF01FE8AA845DBF4146CA8513054C
:10E80800C4039750FF1FE78020742285EFE03FD5AF
:10E81800AA8411C1A1449547A300F40049BF9309F4
:10E82800C404CA8541464E859750FF1FE780C071D2
:10E838001309740014084E86CA852285EFF09FD606
:10E8480041469305C4030808EF50FFC98547E31004
:10E85800F5F68A861306C402CE854A85EFF06FF274
:10E8680011ED2285EFE03F992A8703554400814640
:10E8780001468A85EFE0EFF1AA8411C1A1449947C6
:10E8880061BF034714009D47E31EF7F27C5089EBF4
:10E898009305300571459760FF1FE780200B68D00E
:10E8A80068500DD14146CA859750FF1FE780C0695F
:10E8B8002285EFE05F947C50238DA700A147A30039
:10E8C800F4008144EDB56850E30E05EE03471400EB
:10E8D800A147E319F7EE835706009305290021465F
:10E8E8002318F50049059750FF1FE780E0657C4C29
:10E8F80083D7470113F727002DC3184C0357470048
:10E90800098B21CFA54765BF03471400A547E31B23
:10E91800F7EA3C5481EB854559459760FF1FE7802E
:10E92800E00228D4285419C54146CA859750FF1FCC
:10E93800E7808061A94761B703471400A947E3133B
:10E94800F7E8285419469305190041059750FF1F09
:10E95800E780805F7C4C83D74701918B95CF1C4C17
:10E9680083D74700918B8DCBAD4791BF7C5489EB02
:10E978009305300551459760FF1FE78020FD68D457
:10E988006854E30505E24146CA859750FF1FE780B2
:10E99800A05B7C547D5798CB4E85EFF00F9915B747
:10E9A80083450600EFF06F9229BFAD47E39BF5F072
:10E9B80083460600835525001306650003450500B8
:10E9C800EF708FD1FDBD15C1AA8709458DC14111D1
:10E9D8002E8541469385170006C69750FF1FE7808E
:10E9E800A056B2400145410182800945828082805B
:10E9F80089471DC595C5411106C603471500AE8751
:10EA080019462380E50093052500138517009750C4
:10EA1800FF1FE7806053B24081473E8541018280F5
:10EA28003E85828015C1AA8709458DC141112E8571
:10EA380041469385170006C69750FF1FE780C050D0
:10EA4800B240014541018280094582808280894720
:10EA58001DC995C9411106C60347250083461500FF
:10EA6800AE872207558F2390E50021469305350090
:10EA7800138527009750FF1FE780004DB24081475C
:10EA88003E85410182803E85828015C1AA8709455D
:10EA98008DC141112E8541469385170006C69750B2
:10EAA800FF1FE780604AB240014541018280094565
:10EAB80082808280094711CD89CD83471500A14600
:10EAC80001472380F500FD1793F7F70F63F3F6006E
:10EAD80061473A85828015C1AA8709458DC14111D0
:10EAE8002E8541469385170006C69750FF1FE7807D
:10EAF800A045B2400145410182800945828082805B
:10EB080089476309051063870510411106C622C4A9
:10EB180026C2834715002E842380F50083472500ED
:10EB2800A380F500834735002381F500834745001E
:10EB3800A381F50083475500858B9396870083D77B
:10EB4800450093F7F7EFD58F2392F50083465500DC
:10EB580093F7F7DFA20693F60620DD8E2392D50001
:10EB68000347550093F6F6BF220713770740558FE2
:10EB78002392E50083475500FD769386F67F8D83C3
:10EB8800858B758FAE07D98F2392F5008346650074
:10EB9800F99B858ADD8E2392D5000347650093771C
:10EBA800270013F7D6FF5D8F2392E50083476500A2
:10EBB80093F647009377B7FFD58F2392F500034765
:10EBC8006500DD9B4D45218BD98F2392F500EF70B1
:10EBD800AFFAAA845145EF702FFA0347340093F433
:10EBE800F40F1375F50FC94763609702636EE5006C
:10EBF800834604001147E1476368D7008346140041
:10EC080005476363D7008147B240224492443E855A
:10EC1800410182803E85828015C1AA8709458DC140
:10EC280041112E8541469385170006C69750FF1F50
:10EC3800E7808031B24001454101828009458280E8
:10EC48008280797122D42A84084506D626D22306E2
:10EC580001008344050029479387F4FF93F7F70FD2
:10EC68006364F70C170701001307C7458A07BA97AB
:10EC78009C43BA9782870C08EFF09FE8C947631254
:10EC8800F50299472306F100035524006C00EFF0C4
:10EC98002F86B25022549254456182800C08EFF0BE
:10ECA800DFDE29C98347C100E5F303552400EFE0FF
:10ECB8006FFEC5B70C08EFF01FE2E5B70C08EFF0E0
:10ECC8007FDFC5B70C08EFF01FD0E1BF0C08EFF0ED
:10ECD8001FD8C1BF0C08EFF0FFD4E1B70C08EFF064
:10ECE8003FD1C1B70C08EFF03FF365BF834715006C
:10ECF8002308F10003552400EFD09FD6A14715C182
:10ED08000347C5006314F7029767FF1F9387C7304F
:10ED180098439D4719C7184309C71008A685029745
:10ED2800AA872306F100BDBF9D47A9BF9767FF1FAC
:10ED38009387C72EF1BF411122C406C603470500B9
:10ED4800930720092A846314F70A83471500394773
:10ED58006393E70283564500096761078147639318
:10ED6800E6081C452244B24003C5070093851700F6
:10ED780041016FE04FCA1307E0036398E7080347B0
:10ED880025009547631FF70203554500EFD0BFEEF6
:10ED980091476304F5008547B1A09767FF1F9387E4
:10EDA800E7279C43EDDB03A38700E30603FE035636
:10EDB800E40003554400930564002244B240410135
:10EDC8000283A147631BF700834564000355440091
:10EDD8002244B24041016FE05FE39306000381479C
:10EDE800E304D7FEB24022443E8541018280930667
:10EDF800000A8147E318D7FEEFF0BFE4084441DD7D
:10EE08009760FF1FE780E0BE79B78147E1BF4111F6
:10EE180022C426C206C62A84EFE04FCAAA8419C9AA
:10EE2800E147630FF50AA144B24022442685924483
:10EE3800410182802285EFE01FBE6C4C83C725010B
:10EE4800858B91CF1C4C054783C727008D8B639812
:10EE5800E7008347640093E717002303F400834720
:10EE6800340009476391E702894503554400EF7070
:10EE7800EFF08347640093E747002303F4009147CA
:10EE8800A300F40055B79386D7FF93F6F60F05460F
:10EE98006364D6008545D1BF6390C702A300E40030
:10EEA8004146814513057400EF50CFDDC145130578
:10EEB800C402EF60FF9C8DBF9546E397D7F6A30089
:10EEC800E40041468905130574009750FF1FE78049
:10EED800A0078347640093E747002303F400F9B7CA
:10EEE8008D4499B7797122D4405926D24AD04ECE52
:10EEF80006D6AA89AE843289630904200355250001
:10EF080083574400638BA700A144B250225426853E
:10EF180002599254F24945618280034704008547AB
:10EF28006314F7009D44D5B79387F5FF93F7F70F60
:10EF38002547E369F7FE170701001307671B8A07D0
:10EF4800BA979C43BA978287B2852285EFF03FEC47
:10EF5800AA8465BF4146CA851305C4039750FF1F9D
:10EF6800E78080FE0347140091476305F702930684
:10EF7800C4011306C402930574002285EFF08FE2E2
:10EF88002285EFE08FDAAA8411C1A1449547A30036
:10EF9800F400A5BF8D47A300F4008144BDB79307D3
:10EFA800C4043E85CA8541463E899750FF1FE780C5
:10EFB800A0F98A864A86930574002285EFF08FDED1
:10EFC80041469305C4030A85EF50EFD18547E31EF8
:10EFD800F5F22285EFE0AFD8AA841DF5994745BF21
:10EFE80003471400B147E31FF7F27C5089EB930500
:10EFF800300571459760FF1FE780409568D06850DD
:10F0080015D14146CA859750FF1FE780E0F3228556
:10F01800EFE06F9E7C50238DA700B547ADBF6850C9
:10F02800E30205F003471400B547E31DF7EE8357E5
:10F0380006009305290021462318F5004905975035
:10F04800FF1FE78060F07C4C83D7470113F7072048
:10F058003DC3184C035747001377072029CFB947FA
:10F068001DBF03471400B947E31EF7EA3C5489EB78
:10F078009305300559459760FF1FE780208D28D4F8
:10F08800285419C54146CA859750FF1FE780C0EB31
:10F09800BD4711B703471400BD47E315F7E82854E7
:10F0A80019469305190041059750FF1FE780C0E9ED
:10F0B8007C4C83D7470193F707409DCF1C4C83D7DF
:10F0C800470093F707408DCBC147F1B57C5489EBD6
:10F0D8009305300551459760FF1FE780208768D466
:10F0E8006854E30305E24146CA859750FF1FE7804D
:10F0F800A0E57C547D5798CB03D529008145EFE0E6
:10F10800DF9C61BD83450600DDBF8547E397F5E8D1
:10F118000328460083473600034726008346160027
:10F1280083552500034606000145EF60DFD1B5B5DC
:10F13800011126CA06CE22CC89441DCD95CDAA84BC
:10F148002E8468008D45EF60AFF38347E100268584
:10F15800228693F7F70393E707046C002307F1006F
:10F16800EFE03FC6AA8409E90D466C001305340098
:10F178009750FF1FE78040DDF24062442685D24465
:10F18800056182805D714EDE86C6A2C4A6C2CAC071
:10F1980052DC56DA5AD85ED6894955C54DC6138B06
:10F1A8004500420B135B0B01AE8A2A8A9305300592
:10F1B8005A85B2849750FF1FE78040792A84CD4949
:10F1C80059C1EF605F9D2A895686D285935A890076
:10F1D800135A0901937BF90F1305440093FAFA0FA8
:10F1E800137AFA0F13598901EF502FB2A301740152
:10F1F80023015401A300440123002401EF60FF9878
:10F20800AA8541460808EF504FB0214734005A8676
:10F21800A2850808EFF08F94AA890DE121462C00F9
:10F2280023807401A380540123814401A381240114
:10F2380013854400EF506FADEF60DF96228597503D
:10F24800FF1FE780007BB64026444E85964406495A
:10F25800F259625AD25A425BB25B616182800111F3
:10F2680006CE2AC6EFD05FF3324599459767FF1F50
:10F27800238BA7DAEFC02F8DF24017F5FFFF130598
:10F28800E5AE05616FD03F989767FF1F83C7B7D971
:10F29800A18B1387C15D91E301479767FF1F23ADDA
:10F2A800E7D601458280797152CC2A8A2E8506D606
:10F2B80022D426D24AD04ECE2EC6EFD06FFA45C5FC
:10F2C800405945C4834734008949F91793F7F70F24
:10F2D80063EDF90883574400B24589446394B7063F
:10F2E800130974004146D2854A859750FF1FE7806D
:10F2F800A0C51306C4023285C14532C6EF604FD897
:10F3080032469306C401CA852285EFF0AFA90347A8
:10F318000400834714000DC30D4781446394E7023A
:10F32800A300340122852254B25092540259F24962
:10F33800624A45616FE06F9F1147639EE700A30033
:10F3480094008144B2502254268502599254F249BD
:10F35800624A456182800D478144E395E7FE9547FF
:10F36800A300F400C1B78944F1BFC944E1BF797172
:10F378009397050122D406D626D24AD04ECEC1870D
:10F388002E8463D507041765FF1F0345C5C9EF40E1
:10F39800BFDC2AC605C1EFF01F9AB24509E9176517
:10F3A800FF1F034535C89307F00F631EF5002E8530
:10F3B800EF40FFD32165218DB25022549254025957
:10F3C800F24945618280EF40BFDFEDB793F7150042
:10F3D80091C7EFE0AFFD13451400F9BF8DE9014572
:10F3E800E1BF850493F4F40FEFD05F81E3F9A4FE45
:10F3F800339599001319050113590901B3772401AD
:10F40800EDD34A85EFE09F993345240175B78544CC
:10F418008549D9BF39C9011126CA06CE22CCAA848A
:10F4280009459DCD0D4628002E848D059750FF1F58
:10F43800E78080B18347A10070002C0093F7F703A1
:10F4480093E7070426852305F100EFE09F9709E974
:10F458000D46A2856800EF500F897D153335A00051
:10F46800F2406244D24405618280094582809767F0
:10F47800FF1F83C757BB918B1387815E91E30147B9
:10F488009767FF1F23ACE7B801458280011152C47A
:10F498002A8A32854EC656C25AC006CE22CC26CA01
:10F4A8004AC82E8BB28AB689EFD08FDB09ED894422
:10F4B800F240624426854249D244B249224A924ADD
:10F4C800024B056182805C592A89C544F5F34D4594
:10F4D800EF609FEA1374F50F5145EF60FFE9E38889
:10F4E80009FC83C78901E3E487FC1375F50FE36022
:10F4F800F5FC93053005130500079750FF1FE780BB
:10F50800E044232AA9022A84CD445DD113060007CA
:10F518008145EF403FF7A300040023004401230185
:10F52800640123125401232E3405232C0400A30163
:10F53800040063170A008547A300F40081448DBFC7
:10F548002285EFE04FCD8547A300F400AA842DD192
:10F558004A85EFE00FD1A9BF397122DC06DE26DA31
:10F568004AD84ED652D456D25AD05ECE62CC66CA4B
:10F578000944630F060E630D070EAA8B3A89368B72
:10F58800B28A2E8CEFD0CFCD2A8A51446302050E61
:10F598009305300541459750FF1FE780203BAA8916
:10F5A8004D4479C58344190083472900A204C20742
:10F5B800BE9483470900BE9483473900E207BE948E
:10F5C80083278A0263E697007D570944639DE7080D
:10F5D80063070C0083474A000544898BC9C7930C0D
:10F5E8004B00214681450A85C20CEF40BFE993DCF8
:10F5F8000C019305300566859750FF1FE78000359D
:10F608002A8C4D442DC15A86D6851105EF40FFEF4F
:10F618001146CA856285EF405FEF414693058A012E
:10F628004E85EF409FEE21478A866686E2854E85A5
:10F63800EFE0DFD22A841DE121468A852800EF40C9
:10F64800DFEC2146930549002800EF40DFE98547B4
:10F65800631EF502A6855E85EF603FFD62859750C3
:10F66800FF1FE78000394E859750FF1FE7806038FD
:10F678002285F2506254D2544259B259225A925AAF
:10F68800025BF24B624CD24C216182800544F9B78F
:10F69800397162CC2A8C594526DA4AD84ED652D4CA
:10F6A80056D25AD05ECE06DE22DCAE8B328BB68ABC
:10F6B8003AC63E8AC289468983440104EF40FFA5C1
:10F6C8003DCD9167938717E92310F50085472301FE
:10F6D800F5002A8432472105630A0C0493071003B6
:10F6E800A301F40019468145EF40DFD923036401E3
:10F6F800A3035401230A940023127401231744011D
:10F708002318340123192401A2856254F250D254DB
:10F718004259B259225A925A025BF24B624C17650F
:10F72800FF1F0345259021616F409FA9A301040095
:10F738001946BA859750FF1FE780008145BFF250F0
:10F748006254D2544259B259225A925A025BF24B2D
:10F75800624C21618280011122CC2A84314506CE77
:10F768002EC632C436C23AC0EF403F9B29C19167CA
:10F77800938717E92310F5008D472301F500A301AE
:10F788008500B2452246924602476244F24023125F
:10F79800B5002313C5002314D5002315E500AA8559
:10F7A8001765FF1F0345058805616F407FA1F2407B
:10F7B80062440561828001114AC82A89394526CAEE
:10F7C80006CE22CC2EC6B284EF403F9531C1B24559
:10F7D8009167938727E92310F5009147A301250135
:10F7E8002312B5002A842301F500A68519052146B0
:10F7F8009740FF1FE7804075A2856244F240D244DB
:10F8080042491765FF1F0345E58105616F405F9B0E
:10F81800F2406244D24442490561828001114AC8DB
:10F828002A89414526CA06CE22CC2EC6B284EF408C
:10F83800DF8E29C19167B245938727E92310F50028
:10F8480095472A84231225012301F500214619052D
:10F858009740FF1FE780406FA285231794006244FA
:10F86800F240D24442491755FF1F0345C57B056145
:10F878006F401F95F2406244D2444249056182803C
:10F88800011122CC2A84394506CE2EC632C436C28E
:10F898003AC0EF409F8829C19167938717E92310E1
:10F8A800F50099472301F500B245224692460247E2
:10F8B800231285006244F2402313B5002314C500C7
:10F8C8002315D5002316E500AA851755FF1F034504
:10F8D800657505616F40DF8EF24062440561828084
:10F8E800797122D406D62A842EC632C436C23AC0CA
:10F8F800EFD00F971DC1B245224692460247231CFE
:10F90800B100231DC1002C081306F00F2285231E09
:10F91800D100231FE100EFD0EF83B250225445619C
:10F928008280011122CC2A84394506CE2EC632C4E3
:10F9380036C23AC0EF406FFE29C19167938717E935
:10F948002310F5009D472301F500B2452246924653
:10F958000247231285006244F2402313B5002314A2
:10F96800C5002315D5002316E500AA851755FF1FE6
:10F978000345456B05616F40BF84F24062440561F1
:10F9880082805D712AC613052002CAC04EDE52DC91
:10F9980056DA5AD85ED662D466D26AD086C6A2C46F
:10F9A800A6C26ECE2E8CB28B368B3AC43E8DC28CDC
:10F9B800C68A035A01058359410503498105EF4069
:10F9C800CFF55DCD91663243938616E9A9472A841F
:10F9D8002310D5002301F500930DE40021059304BD
:10F9E800440122476307030693071003A301F400A9
:10F9F80019468145EF401FA9194681456E85EF409C
:10FA08007FA8194681452685EF40DFA723037401A7
:10FA1800A30364012300240323128401231D54013A
:10FA2800231E4401231F3401A2852644B640964470
:10FA38000649F259625AD25A425BB25B225C925C26
:10FA4800025DF24D1755FF1F0345C55D61616F40AB
:10FA58002FF7BA85A301040019469740FF1FE780D6
:10FA6800A04EEA856E8519469740FF1FE780C04D76
:10FA78001946E68526859740FF1FE780E04C79B751
:10FA8800B640264496440649F259625AD25A425B15
:10FA9800B25B225C925C025DF24D61618280011171
:10FAA80022CC2A84214506CE2EC632C4EF40EFE68A
:10FAB8001DC52246930710592310F5002301850020
:10FAC800B2452303C5006244F2402312B500AA855B
:10FAD8001755FF1F0345055505616F406FEEF2404E
:10FAE800624405618280011122CC2A84214506CE18
:10FAF8002EC632C4EF406FE21DC922469167938734
:10FB080027E92310F500A1472301F500B245230397
:10FB18008500A303C5006244F2402312B500AA85FC
:10FB28001755FF1F0345255005616F406FE9F240E7
:10FB3800624405618280011122CC2A84314506CEB7
:10FB48002EC632C436C23AC0EF402FDD15CD22464C
:10FB58008567938717C92310F50023018500B245EF
:10FB68002303C500924602476244F2402312B500BF
:10FB78002314D5002315E500AA851755FF1F034553
:10FB8800654A05616F40CFE3F240624405618280B7
:10FB9800011126CAAE844AC82A891385C40006CE34
:10FBA80022CC32C6EF406FD71DCD8567B24593870B
:10FBB80017E923019500231225012A842310F50053
:10FBC800310508C426869740FF1FE780E037A285E5
:10FBD8006244F240D24442491755FF1F0345854409
:10FBE80005616F40EFDDF2406244D244424905614D
:10FBF8008280011122CC2A84194506CE2EC6EF40F8
:10FC0800CFD105C98567938717F92310F500854774
:10FC180023018500A301F500B2456244F240231296
:10FC2800B500AA851755FF1F0345C53F05616F40FD
:10FC38002FD9F240624405618280411122C42A848E
:10FC48000D4506C6EF406FCD05C5930710F9230093
:10FC5800F500E947A300F500230185002244B240DE
:10FC6800AA851755FF1F0345E53B41016F404FD556
:10FC7800B240224441018280011122CC2A842145CC
:10FC880006CE2EC6EF406FC90DC99167938727E945
:10FC98002310F500930700032301F500B245230361
:10FCA80085006244F2402312B500AA851755FF1F4C
:10FCB8000345653705616F40AFD0F2406244056186
:10FCC80082800111214506CE2EC632C4EF40EFC412
:10FCD80005C98567938707392310F500B245224681
:10FCE80085472301F500F2402312B5002313C50010
:10FCF800AA851755FF1F0345253105616F404FCC75
:10FD0800F24005618280797122D44AD04ECE56CA1B
:10FD180006D626D252CC5AC8894AAA89328436894C
:10FD280063945515975AFF1F938A8A2D9757FF1F7B
:10FD380083C7072D568A8944D1C783C7160003C7CE
:10FD48000600A207D98F1757FF1F2311F72E130795
:10FD5800C6FF639FE70831452EC6EF400FBCAA8453
:10FD680051C1B245420441802302B50023138500E6
:10FD7800930700F91504A1652310F5002311350137
:10FD8800850522859750FF1FE78040BC88C431C590
:10FD980083C70A009305E9FF13562400FD17175778
:10FDA800FF1F230FF7249740FF1FE780E01B9C44A9
:10FDB800A6851755FF1F0345252589079CC4EF40D5
:10FDC8002FC08144B2502254268502599254F249D8
:10FDD800624AD24A424B4561828026859750FF1F6E
:10FDE800E78020C19757FF1F239107248544D9BF77
:10FDF8001307D6FFE3C8E7FE9757FF1F83C74722BD
:10FE080099CB9757FF1F9387A722884309C5975017
:10FE1800FF1FE78000BE1755FF1F03552521110559
:10FE2800A1654205850541819750FF1FE78000B213
:10FE38001757FF1F232EA71E55D983470A0022866E
:10FE4800CA85FD171757FF1F230CF71A9740FF1F86
:10FE5800E780800F9757FF1F2399871C85471757FF
:10FE6800FF1F230FF71AB1BF9757FF1F83D7E71B51
:10FE7800175BFF1F130B6B1BB5DB1757FF1F0357D0
:10FE8800E71A175AFF1F130AAA1AB386C7001107E1
:10FE980003250A00634ED7063E95CA859740FF1F83
:10FEA800E780800A03560B00814432944204418063
:10FEB8009757FF1F239B87169757FF1F83D707174F
:10FEC8009107E311F4F03145EF402FA5AA851DCD28
:10FED800930700F92310F50083570B002311350110
:10FEE800230255012313F50083270A001CC5175563
:10FEF800FF1F03456511EF40AFAC9757FF1F2396CF
:10FF080007129757FF1F238D07106DBD03250A00A1
:10FF180009C59750FF1FE780C0AD9757FF1F23966D
:10FF280007109757FF1F238D070EC9B56F70805DA7
:10FF38006F70A05E411106C6EF70405EB240014589
:10FF4800410182806F70C0606F70C0626F70C06462
:10FF58006F70A0666F7080686F70606A6F70406CB9
:10FF68006F70206E6F7020706F7000726F70007409
:10FF78006F7000766F70A0778347160003460600FF
:10FF8800A2075D8E6F70E0786F70207A6F70E07CEA
:10FF98006F70A07F6F7070026F7050056F70700780
:10FFA8006F7090096F70B00B6F70D00D1307A5FFBD
:10FFB800420785672A8841831385A7C7636CE502D2
:10FFC800138707C801456368B70263E6050313078B
:10FFD800301F6362C702138766FF42074183938716
:10FFE80067C763EAE70005063306B6028E063325BF
:08FFF800D600828001458280E1
:020000021000EC
:1000000011C98327050993E707402328F508FD5701
:100010002300F5028280011122CC06CE2A840345FA
:1000200005029307F00F2E866309F5002EC6EF40F8
:100030000FFF3246FD572300F40283473402035773
:10004000C4039306040293E70706A301F40283574F
:100050004403A285F240BA97231DF40262441705B7
:100060000000130525FA05616F408FE9011122CCCC
:1000700006CE2A84034515029307F00F2E866309E6
:10008000F5002EC6EF40AFF93246FD57A300F4024B
:1000900093061402A2856244F2401715000013056E
:1000A000A5FD05616F40CFE5011122CC06CE2A8463
:1000B000034525029307F00F2E866309F5002EC62F
:1000C000EF40EFF53246FD572301F4029306240278
:1000D000A2856244F24017150000130585FC0561F6
:1000E0006F400FE29787FF1F9387078703C70702B9
:1000F000ED46A30DE51203C71702230EE51203D741
:100100002702A30EE5122183230FE51203C747023E
:10011000A30BE51203C7570283D767022311D51437
:10012000230CE512A30CF512A183230DF512B707DA
:100130001B00938787142322F5149307801423143C
:10014000F514ED4713078004A306F514854723072C
:100150000514A307E5142308F514A308D5142309EF
:100160000514A309E514230AF51482800357E50357
:10017000954703562503B307F7028356E50293D547
:1001800037406355B600118F93173700B3C7D702B6
:10019000C207C183231EF50282808327C50E0D4648
:1001A0009306F00F03C707000D8B2305E5006314CA
:1001B000C70083C62700A30AD50003C70700418BE9
:1001C0002308E50083C71700A305F50082800327F5
:1001D000050F63030710411122C406C6834785003B
:1001E000032605152A8493F7C70F2304F5008345DA
:1001F000970021828356C7004206139585014182EC
:1002000061856375D606635E05040345870093F533
:10021000F507A304B700854593E627006314B500EE
:1002200093E617002304D4005C4389075CC313766C
:10023000F60FA304C4000325840E4C430905974020
:10024000FF1FE780E0D08327040F03469400D443C8
:1002500003D7C700B296118FD4C32396E70089470E
:1002600015A893E717002304F400D1B713F6F60F8F
:10027000635B050403458700854593E62700631407
:10028000B50093E617002304D400A304C400A3041C
:1002900007008547A30BF4008327040F01459C4307
:1002A00099CF0347A4029777FF1F83C7F748637866
:1002B000F7008347840093E707012304F400B2406A
:1002C00022444101828093E717002304F400A30431
:1002D000C400A304070085B70545828083478500D5
:1002E000CD9B2304F50082808327C50E034785003C
:1002F00083C70700935637408987B58F858B99C789
:10030000134787002304E50001458280054582806C
:100310008327C50E0347850083C7070093562740F0
:100320008D87B58F858B99E7134747002304E50038
:1003300001458280054582808327050C850723209F
:10034000F50C91E78327450C85072322F50C8327BD
:10035000450C93F7070891C785472320F50C232206
:10036000050C8347350293F7070491CF8357450364
:100370000357C503BA97231DF5028327450993F751
:10038000F7BF232AF50882808327850C850723245D
:10039000F50C91E78327C50C85072326F50C8327E9
:1003A000C50C93F7070891C785472324F50C23262E
:1003B000050C8347350213F7070409C793E70702C3
:1003C000A301F50282809777FF1F9387E758BC4708
:1003D0000145054791E3828083C677006393E60079
:1003E00005059C43C5BF411122C491452A8401459E
:1003F00006C6EF401F802315A4041777FF1F03577D
:10040000675B854763F4E7048357440383562405F9
:100410000355C4041777FF1F130707549D8EB38637
:10042000A602832704088328870485451303F5FF64
:10043000130E8002BE9683270415A183C207C183D1
:10044000938727028587AD0763E66500B2402244A3
:10045000410182803388C50346877D56369801E77F
:100460002315B404E5B76314E400184075DB832E4C
:10047000C7076398AE00032607083306C8403376E3
:10048000A6026364F6001843D9BF890575BF1777C4
:10049000FF1F03572752854763FDE706832705158E
:1004A000834595041777FF1F1307074BA183C207E6
:1004B000C18393872702032387048587AD07FD1532
:1004C0000546130E80026363B6008280B306C6033E
:1004D000032705087D58BA961A8701E72315C50436
:1004E00082806314E500184175DB832EC7078328DB
:1004F000C507639A1E01832807083388D84063E440
:100500001601338816416364F8001843F9B70506ED
:100510005DBF82801777FF1F0357C749854763F088
:10052000E70E41119777FF1F9387074322C4A04727
:1005300006C626C2A28789EB09EC230C0500B2404F
:10054000224492444101828003C7A7016DFB9C4372
:10055000DDB76314A40000406DD083477400D1EF71
:10056000785C7C5D630BF7080347850193070008FF
:10057000AA84631BF7048357E40219469305000815
:100580002314F5062315F506835704032317F504F2
:10059000835724032318F50403554500EF30800EDC
:1005A0008547238DF40083C7840193F7F707238CD5
:1005B000F4001305C4052244B24092443146930529
:1005C000F00F41016F309FEC8357E5021946930508
:1005D00000082314F4062315F40683570503231794
:1005E000F40483572503035544002318F404EF3023
:1005F00060098947230DF4006DBF004035BF230C0F
:1006000005008280411126C206C622C41777FF1F4B
:100610000357473A8547AA8463F8E71A8347050ECC
:10062000898B6383071A9777FF1F9387E732B84751
:10063000BA85C1E183A7041501447D58A183C2078F
:10064000C183938727028587AD077D5525EB630C12
:100650000410834774000357E402C5EB894723164F
:10066000E404A304F4040357440583574403228598
:10067000BA97C1071D8B998F2319F404835704037C
:100680002317F404835724032318F404EFF0BFD591
:100690008327440993E74700232AF4088547A30CDE
:1006A000F4008D47230DF400B240224492444101EE
:1006B000828083C7A501EDFB8C41A5BF1443631461
:1006C0009700D1D636870326070883A604086361FE
:1006D000D602B306D640F05C6374D600B3F6C60209
:1006E00063F6A600368563F3F600BA851843B9BFF2
:1006F000918E705F6374D600B3F6C602E3F806FF0E
:100700003688E3F5F6FE3A84D5B783D7E402B3F72B
:10071000E702D9FB9D46994763F5E600935717001A
:100720008D0705672314F406130707C88A07635368
:10073000F700BA872315F4068357040303554400D2
:10074000130660082317F404835724039305000855
:100750002318F404C947230DF4002244B240924404
:1007600041016F203072ADC103D7E40283D7E502A7
:10077000B3F7E702B1EB8387840163D707049D4693
:10078000994763F5E600935717008D070567239493
:10079000F406130707C88A076353F700BA8723953F
:1007A000F40683D7040303D5440013066008239797
:1007B000F40483D72403930500082398F404CD4759
:1007C000238DF400EF20106C238C0400F1BD17770B
:1007D000FF1F0357271E854763FDE720397122DC81
:1007E00026DA4AD84ED652D456D25AD05ECE66CAEF
:1007F00006DE62CC6AC86EC6032C05155149AA8C68
:10080000135C8C00420C135C0C01130C2C02135C67
:100810001C402D0C33592C037945E5449777FF1F75
:100820009387871313061027814681457D6AA04769
:100830008569B70A0200930B8A84938909C8130A51
:100840000A408D0A3305AC02B3049C02EFC0C025F8
:100850002A8BA58005E0F2506254D2544259B25915
:10086000225A925A025BF24B624CD24C424DB24D2C
:100870002161828063958C0003A40C0069DC8347AE
:10088000A401E9E3785C83A7CC0763EDE70A03A53D
:100890000C08832704086367F50A177DFF1F034DC3
:1008A000EDE9931D8D0193DD8D411D8DDE8763C7BD
:1008B0000D0093761D00D28791E2D6876374F50808
:1008C0006374A7003375E502637E850793571700AD
:1008D0006373FC00E287AA9763D80D067945130677
:1008E00010278146B3B5A7023385A702EFC0C01B0E
:1008F0009307150085466387D704034674000357A2
:10090000E4023DE22316E404035704038583231520
:10091000F4042317E404035724032318E4040947C9
:10092000A304E40483D74C03A30CD400A907231920
:10093000F4048327440993E74700232AF4089147E6
:10094000230DF400004039B713771D0009C7514546
:1009500033D5A70271BF65473385E702B3B7E70216
:100960002581DE075D8D69B783D6EC0263FFE60261
:10097000B3F6E602DA8763C70D0013761D00CA8757
:1009800011E2A6878507858363E1F602DA8763C8EB
:100990000D00137D1D00A68763030D00CA87850720
:1009A0008583B307F740E3FFD7F89D46994763F582
:1009B000E6000583930737002314F40613972700F6
:1009C00063D3E9004E87835704030355440023157E
:1009D000E4062317F40483572403130660089305E1
:1009E00000082318F404D147230DF400EF209049A8
:1009F00091BF82809747FF1F938747649C434111B3
:100A000022C406C6858B2A84B5EF4165130525F5FA
:100A1000EF00D04425C98347E5002317F50083275D
:100A2000840FA1EB232CA40E232EA40E8547231B99
:100A3000F402232005008347B4002316F500834702
:100A4000A4002304F5008547A304F5009777FF1F52
:100A500083D707F1850722851777FF1F2312F7F049
:100A60009730FF1FE780607C0145B240224441017E
:100A700082808327C40F88C383576403232EA40E68
:100A8000850775B78347840023080400054593C78D
:100A900047002304F400D1BF9777FF1F83C7B7CC6B
:100AA00063800712411126C206C6AA8422C44AC026
:100AB0007D55CDC89777FF1F938707EAB8475DC379
:100AC0001779FF1F130949C6030549019775FF1FD1
:100AD00083C555C785057D540548B708C0A8130EC2
:100AE000000C8346770083270708639906050353A4
:100AF000070783560703637DD3060346D7006319B0
:100B000006070326070F2DE60326470935E20346AD
:100B1000F700631FC605705FB3866640791633061B
:100B2000D60283264708B356D602B297AE96C206BF
:100B3000C182231BD70663500504958F63F387009A
:100B40003E84184359FF938781769C43829763685C
:100B5000A402B307A4409CC09C4035476361F704DE
:100B600023A00400B2402244924402494101828001
:100B700083566707C9B7E3F2D7FCC6977DBFB307B3
:100B8000854063DB070083074901E3C407FCB7071F
:100B9000C0A8A297898FC1B723A0040075BFCD1745
:100BA0009CC08307490163D50700130534FF5DBF6F
:100BB000B147E3EC87FE3705C0A84D1522955DB718
:100BC0007D5582809747FF1F938787479843011180
:100BD00026CA06CE22CC4AC84EC6AA8435C73E894C
:100BE0001777FF1F035707DD8547631FF704177744
:100BF000FF1F130767B383064701832705080354C4
:100C00006507BA8963DD060433848740938781765C
:100C10009C438297636BA404B307A4401775FF1F1E
:100C2000034565B2058103270900637CF50633851A
:100C3000A7409777FF1F83C767B093968701E18628
:100C400063D3060416050297F2406244930700FB43
:100C50002386F4004249D244B24905618280E3F51B
:100C600087FA3707C0A8BA9745B733078540814749
:100C7000E35607FA83874901E3C007FAB707C0A81C
:100C8000A297898F61BF858B99C79307803E3305F3
:100C9000F50215814DBF9307D0033305F502058199
:100CA0005DB701454DB79777FF1F9387E7CAFC4BA8
:100CB000411122C426C206C62A84AE846396A700C8
:100CC0009777FF1F23A407CE8327840F81CB03557B
:100CD0004400014693050008EF20D01A835784038F
:100CE00081CB035544004D4693051008EF20901921
:100CF00003554400154693051008EF20B018230350
:100D00000400A3060400230494041777FF1F03576D
:100D100067CA854763E6E70085450145EF30BFBFF9
:100D2000B2402244924401454101828083476500DC
:100D30006380073483570507411122C406C685071F
:100D40002318F5068347F500230F05002A8413971F
:100D5000870161876344070203574503954763E4AE
:100D6000E700014501A89305E003EFF0DFF323015D
:100D7000A4040945B24022444101828013F70702CE
:100D80002DCB93F7F7FDA307F5008327050903474C
:100D900075002301050493E747002328F5088547DC
:100DA0006319F704032745087C5D9776FF1F83C608
:100DB000E69813968601B3D7E7021777FF1F03471C
:100DC000779861869107BA97C207C183231AF506FF
:100DD00086071397070141838347B502635D0612B7
:100DE0009306204EB387D702BD079583BA97231980
:100DF000F4068347E40013F71700630F07228357B5
:100E0000240503574403639AE7208357040383555B
:100E1000040503452402231AF40483479404231988
:100E2000B4029205A305F4028357A404F91523160E
:100E3000F4028357E4042318F402EF307FA503463D
:100E40007400231804069776FF1F83C6268F8357E6
:100E5000C4020357C404631B061293958601E185FF
:100E60000326040863D9050C1305204EB387A70297
:100E7000BD0795835106B29763C905003706C0A820
:100E800063E5C70037064057B2972320F4082317BD
:100E9000E40263D3050C9307204EB307F702958352
:100EA0007CDC63DA050C06079377E701230EF40078
:100EB00083574403230204022313F4028347A4014B
:100EC00081C72285EFF0AFDC8347F40093E7070288
:100ED000A307F4008347E400F99B2307F40083474A
:100EE000340293F70704E38E07E60357A4038357FE
:100EF0004403E318F7E60347D4009307200A631579
:100F0000F7008547A306F4008327440993E70740C9
:100F1000232AF408B9B5858A91C693068002B3875F
:100F2000D702E9B585669386B647B387D70293871C
:100F300007049D8365BD13F5160011C513058002D6
:100F4000B387A70205BF05651305B547B387A70299
:100F5000938707049D8339BF93F7160091C79307C2
:100F60008002B307F7022DBF85679387B747B307A2
:100F7000F7029D8335B7858A81478DFA8567938708
:100F8000B747B307F7028983FD8B0DB793958601A9
:100F9000E1859DC70326040863D005041305204E90
:100FA000B387A702BD079583B29763C905003706CB
:100FB000C0A863E5C70037064057B2972320F4085E
:100FC0002317E40263DB05029307204E3307F70281
:100FD0003D07158378DCCDBD13F5160011C513054B
:100FE0008002B387A702C9B705651305B547B38764
:100FF000A702938707049D8345BF858A91C69307FF
:1010000080023307F702F9B785679387B74733073D
:10101000F702130707041D8375BF998F1397070104
:10102000E35F07EA930580022285EFF0DFC7230123
:10103000A404130580023DBB898BE38207EA0357B2
:10104000A41083574403B306F74013960601E34BFD
:1010500006FCE316F7E81546930554101305041033
:101060009730FF1FE780C0EE8347E400F59BB5B5DE
:101070000545828005C541119305200222C406C69C
:101080002A84EFF05FC2FD572301A404A3060400E5
:10109000A300F402B24022444101828082800DC943
:1010A000411122C406C68307F5002A849305E00394
:1010B00063D30700A145EFF01FBFFD572301A40430
:1010C000A30604002301F402B240224441018280BD
:1010D00082801776FF1F130626883846630007486C
:1010E000797126D29764FF1F938404648388440136
:1010F0002C4A06D622D44AD04ECE52CC56CA5AC812
:101100005EC601457D583703C0A88326070883576C
:10111000670763D80810B387F64063F50701BA85FF
:101120003E880545184375F309C59777FF1F23AD22
:10113000B786204A856913898176370AC0A8B70A1D
:101140004057054B9389B94783270900832B04082F
:101150008297637F752F035764079767FF1F83C7C5
:10116000875EB38BAB40BA9763E977238357440319
:101170002285A30E04008507231AF40299272285ED
:10118000EFF0DFBA41E5838644012305040283279B
:1011900004080357640763DA06083387E74038DC3E
:1011A000785CBA9763C906003706C0A863E5C70034
:1011B00037064057B297034674002320F40885454C
:1011C000631DB606835704078356040363ECF60ACF
:1011D0008346D4006398C60A8326040FC5E6832697
:1011E0004409CDE20346F4009306000C631CD608C4
:1011F000B387E70203274408B3D7E7021767FF1F47
:10120000034757540507BA97231BF406B2502254DC
:1012100092540259F249624AD24A424BB24B45615A
:101220008280E3FAF6EE9A96FDB5E3F8E7F6370624
:10123000C0A83E963307E6409DB70347C40139C3B3
:1012400083554403035664022313B4023386C54016
:101250003307C7020346440232971377F70F23027E
:10126000E4027D466370E6021387170063CA060036
:10127000B706C0A86366D7003707405705073E97F3
:101280002320E408832709008297AA89832709007D
:101290008297E30D35FF832709008329840782970E
:1012A0009767FF1F83C78749139787016187635E2D
:1012B00007063385A9405DC5745C6375D50A635C18
:1012C00007061605834744021747FF1F130747D930
:1012D0001843A166938636303E9554C7060528D339
:1012E000930600F81766FF1F230ED65AB166938641
:1012F000363054C77D476375F70081172302F40227
:10130000EF404079EF40407C0347740085478145BA
:101310006311F704173500001305850AEF30AFDFBE
:10132000930700FD2306F400D5B5E3F4A9F8B7064A
:10133000C0A8B699BDBF858B99C79307803E33057A
:10134000F502158141B79307D0033305F5020581F6
:1013500095BF17150000130585EDEF30CFDB930720
:1013600010FCC9B703477400854703A30403631740
:10137000F7009545E30C03E8154529A0E30803E8C9
:10138000954519452254B25092540259F249624A85
:10139000D24A424BB24B4561028363DC0B04835754
:1013A000440322858507231AF402212B2285EFF0BE
:1013B000FF97785C83270408BA9703874401634545
:1013C000070063E34701D6972320F408834774009E
:1013D000639567012285EF20507C8347D4018545C2
:1013E0008507A30EF4009C58E38007D61545829725
:1013F000A1BB835724031767FF1F034727349316A6
:101400008701E1868E0763D506021307204EB38756
:10141000E7029583E3FC77DFA1452285EFF0BF88E3
:1014200003A304032301A4048945E31703F4F9BBD0
:10143000058B11C713078002B387E702E1BF056779
:101440001307B747B387E702938707049D83D9B78C
:10145000835724031767FF1F0347472E93168701FF
:10146000E186B30B75418E0763D5060A1307204E3C
:10147000B387E702958363F5FB0C83270900829706
:1014800083574403AA8B22858507231AF402152962
:101490002285EFF0BF89E31B05D6785C832704081B
:1014A000BA97038744016345070063E34701D69772
:1014B0002320F4088347D40113F7070F25CB228597
:1014C000EFF0EFB0A30E040083270408E3F7FBFA64
:1014D000835604077C5C03274408B387F602B3D71E
:1014E000E7021767FF1F0347F7251107BA97231B6A
:1014F000F40683477400639F670383570403E3F58F
:10150000D7C42285EF2070699C58E38F07C28D45B0
:10151000F1BD058B11C713078002B387E702A1BF96
:10152000B3873703938707049D83B1B78507A30E5D
:10153000F40059BF9C58E38907C08D45194545BD46
:10154000E3C60BCCA1452285EFF0EFF503A304031E
:101550002301A404E30C03CA914539BD82804111E3
:1015600022C406C62A848327040FD9E78327840F61
:10157000D5E70325840E09C59730FF1FE780E047B4
:10158000034514029307F00F6304F500EF302FA911
:10159000034504029307F00F6304F500EF302FA812
:1015A000034524029307F00F6304F500EF302FA7E3
:1015B00003554400952C9767FF1F9387E7169C47B8
:1015C00085CB9767FF1F83D7E73E9DE39767FF1F94
:1015D00093874719C84F09CD9730FF1FE780E04137
:1015E0009767FF1F23AE07189767FF1F23AC0718E5
:1015F000B240224441018280C84309C59730FF1F91
:10160000E780A03F8327040F03D7E700136707F0A5
:101610002397E7009C432328F40EB1B703D7E700D4
:10162000C843136707F02397E70009C59730FF1FEA
:10163000E780A03C8327840F9C43232CF40E3DB706
:101640009767FF1F93874731BC4799E33E858280A8
:1016500003D74700E30CA7FE9C43C5BF9767FF1F56
:101660009387872FBC4FC1669765FF1F83C5C50C45
:101670000147FD1603D6E700630BA6006309D600F9
:1016800005071377F70FC107E3F6E5FE81473E85AF
:1016900082809767FF1F9387272CBC4FD1EB17657C
:1016A000FF1F0355A52D130515029767FF1F83C75D
:1016B000A70815858507160592073E954205411135
:1016C00041819305B02006C69730FF1FE780802830
:1016D0001DC59766FF1F83C62606138716009767EA
:1016E000FF1F23A7A72C1207939506012A97C181F4
:1016F0008147130840F5930820F563D5F600B24002
:10170000410182808DE32317150158C1A304050010
:1017100041052A8663E3B70001468507C2072328EF
:10172000C5FEC183D9BF2317050123220500F9BFD8
:10173000828041119305A0201305801506C622C49E
:1017400026C29730FF1FE780E020130680158145F1
:101750002A84EF20BFD3014559C89764FF1F9384A3
:10176000A41FB04429C6F44483D74600138717004A
:101770009317070193150701C18363D305008547BC
:10178000328783554700E383F5FE18437DFB231220
:10179000F400B9C780C29767FF1F23A5872083D7AE
:1017A000C40585071767FF1F2316F72015A0854777
:1017B0002312F4001767FF1F2324871E1767FF1FDC
:1017C0002322871E1767FF1F2316F71EEFF07FECFB
:1017D000FC4423A00700230304002306040031A0D7
:1017E00022859730FF1FE780402103554400B24017
:1017F000224492444101828041119767FF1F9387E1
:10180000A71522C4A04F06C609E8B2402244976734
:10181000FF1F23AF07184101828022859730FF1FE9
:10182000E780A01D0040CDB7411122C41764FF1FFF
:1018300013048412344406C60147B687B5C303D6E1
:1018400047006315A6060DEF98429766FF1F23A970
:10185000E6143E859730FF1FE780201A7C4423A0C2
:1018600007009767FF1F83D7E71495E7EFF0DFF8CE
:101870009767FF1F23A60712B240224441018280CE
:1018800074446397F6009766FF1F23ADE610D1B747
:10189000944314C37DBFFD171767FF1F231CF71068
:1018A0009767FF1F83D70711E1FBC9B73E879C43AA
:1018B00071B7614681451765FF1F1305650E6F20DF
:1018C000FFBC011126CA4AC806CE22CC4EC652C45D
:1018D00056C25AC02A89930745109306F50F8144D2
:1018E00001479319870003C7070013D68401B36922
:1018F0003601A204FD17D98C4E87E394D7FE8347A7
:101900008902034439013E941374F40F9307400293
:1019100063F687001304B4FD1374F40FA309890060
:1019200022862685CE85EFB06015058909CD23096D
:101930008900F2406244D2444249B249224A924A62
:10194000024B05618280814A014A130B5002568680
:101950002685CE85EFB08012058901C5050A137A68
:10196000FA0F850AE3956AFF33744403814A014AFA
:10197000130B500252862685CE85EFB020100589C4
:1019800011C963958A002309490165B7850AE20AEE
:1019900093DA8A41050AE31F6AFD61BFA3090500C6
:1019A000828083270509411122C406C626C22A84E3
:1019B0006389071813F7270019CBF59B2328F5082F
:1019C00003554500194693050008EF10B04B8327D7
:1019D000040913F7470021CBED9B2328F408834724
:1019E000340293F7070491CB83274409228593E7B8
:1019F0000740232AF408EFE06FF78347940199E743
:101A00008347340293E71700A301F402035544000F
:101A10000D4693050008EF10F04693070004231CC1
:101A2000F400230D04008327040913F7070139C7C5
:101A3000BD9B2328F4088347140403554400214622
:101A400089C7A30004041306000393051008EF10D0
:101A500070438347340293E71700A301F4028347DE
:101A6000040489CF8347040EC18B89CB8355E403DB
:101A700022859205C205C181EFE0EFD983270409D1
:101A800013F7072001CF0355440093F7F7DF23280E
:101A9000F408314693051008EF10D03E832704095F
:101AA00013F7070415C30355440093F7F7FB2328E6
:101AB000F408114693050008EF10D03C8347340228
:101AC00093E71700A301F402832704091397470142
:101AD000635507027D771307F77F03554400F98F9D
:101AE0002328F4081D4693050008EF10B0398347FA
:101AF000340293E71700A301F4028327040913F7C4
:101B0000074009CF0355440093F7F7BF2328F40893
:101B10001306700593051008EF10D03683270409CB
:101B200013972701635F07008347340283458404CA
:101B3000228593E71700A301F402EFF0CF9623016B
:101B4000A4048347640085CF8327840F99CF8347FC
:101B5000640181EF03554400014693050008EF102E
:101B6000703201E58547230BF4008357840381CB52
:101B7000035544004D4693051008EF10B0308347DD
:101B80003402F1C7918B91CF0346D400C165938590
:101B900005A02285EFE08FCD83473402ED9BA301A2
:101BA000F40283473402858B8DC3034514029307E7
:101BB000F00F6307F500EF209FC6FD57A300F40266
:101BC00083473402F99BA301F40283473402898BD3
:101BD00089CF83552403034524029205EF205FCB70
:101BE00083473402F59BA301F40283473402A18B9F
:101BF00099CF835524030D4622859205C205C181E4
:101C0000EFE0CFC683473402DD9BA301F402834794
:101C1000340213F7070101CF0345040293F7F7F8E5
:101C2000A301F402EF20BFBFFD572300F402834756
:101C3000340213F7070201CF8355E403034504027E
:101C400093F7F7FDA301F4029205EF207FC48347C9
:101C5000840193F7070C81C72285EFE0BF8B835780
:101C60004403C1CF13074006B3F7E702D9E797371C
:101C7000FF1F9387A73C9C43898BA5C39764FF1FD5
:101C8000938484AA985831CB9737FF1F83D7C73BDB
:101C9000C2079735FF1F83D5453BDD8D254502974C
:101CA0009C589735FF1F83D5053A130590088297F6
:101CB0009C589735FF1F83D5E538294582971737FC
:101CC000FF1F130767399C58831507002D4582971E
:101CD0009C5883054401314582979737FF1F239312
:101CE00007369737FF1F239107369737FF1F239E2D
:101CF00007349737FF1F23980734B2402244924499
:101D000041018280411122C426C206C64AC08347CF
:101D1000A5022A849734FF1F9384C43385072305C3
:101D2000F502834715016398074E03478500930723
:101D30000004A308F50083274509319B136737008A
:101D4000A30B05002304E5009396070163D5060263
:101D5000E176FD16F58F232AF5088327850E23806B
:101D6000E7008327840E03479400A380E7009C408C
:101D70000327840E81A80347D5000549631727234D
:101D8000638D072013F7070829C793F7F7F7232A6E
:101D9000F508EF10E0170347740185476318F7143F
:101DA0008327040F03478400DC432380E700832755
:101DB000040F03479400DC43A380E7000327040FCC
:101DC0009C405843B240224498CB9244024941017E
:101DD000828013F7072011CBEF10A021832744093D
:101DE00093F7F7DF232AF4087DB713F7270019C705
:101DF000F59B232AF508EF10E02F71BF13F747007A
:101E000019C7ED9B232AF508EF00306669B713F771
:101E1000870019C7DD9B232AF508EF00D070A5BF06
:101E200013F7074001CB93F7F7BF232AF508EF100C
:101E3000804395B71397370163500702EFE02FB93E
:101E400039D9832744097D777D17F98F232AF40830
:101E50002285EF10C04581B713F7070211CFEFE0DD
:101E60000FB715D983274409228593F7F7FD232A55
:101E7000F408EF10001305B713F7070401CBEF00C8
:101E800050748327440993F7F7FBA9BF13F7071092
:101E900001CBEF10E00C8327440993F7F7EF99B7D4
:101EA000139717016355070271777D17F98F232A5E
:101EB000F5088347040E918B99C7BD452285EF1025
:101EC0002038854799A82285EF10601BDDBF139746
:101ED000F7006352070241777D17F98F232AF5082F
:101EE0008327050993E727002328F5088327840E15
:101EF00003478400ADB51397E700635607020177E7
:101F00007D17F98F232AF5088347050E918B89CB1E
:101F1000BD45EF10E032930720F9A306F400A5BDFC
:101F2000EF10E015CDBF1397D700635307023707B3
:101F3000FCFF7D17F98F232AF5088347050E918B47
:101F400089C7BD45EF10C02FB9B5EF104013A1B53B
:101F50000567130707807D8F11CBEF10A033832710
:101F600044097D771307F77FF98FADBD1397C7003D
:101F700063520702EFE0AFA5E30F05E083274409B2
:101F80003707F8FF7D17F98F232AF4082285EF1011
:101F9000203A11B5232A050891BFEFE04FA3E30CC7
:101FA00005DE2285EF10A03FFDB365DF93065007E5
:101FB0006306D71863EAE608930690046304D7160D
:101FC00063E9E60493073003630EF71463ECE7005C
:101FD00093070003E317F7FCEF00705BD947230476
:101FE000F40455BB93075004E30DF7FA93078004FC
:101FF000E319F7FA2285EF10803A8347E400DD9B6E
:102000002307F4008327040993E707012328F40832
:102010004DBD930630066304D71463E9E6009307C9
:1020200030056300F71293075005D9B793065006A1
:10203000630CD71293074007E315F7F68547A30013
:10204000F504EF00105881BB9307300A6304F718BA
:1020500063E2E7069307900963EFE70293078009BD
:102060006370F70A93075008630FF712930730095C
:10207000E319F7F2834725047947E38CE7E2054942
:1020800063952707835785060357A506BA97858763
:102090002316F50495BB9307A009E314F7F0034753
:1020A0002504F947631EF704EF00707D8547A306FA
:1020B000F40095A09307300B6301F71263E9E70082
:1020C0009307500AE3EFE7ECEF10602DC5B79307D5
:1020D000400B6304F7129307500BE314F7ECEF1077
:1020E000002C8547A306F40005A2EF10402B8327A0
:1020F0000409A306240193E727002328F40861B903
:10210000835784060357A4062285BA97858723162A
:10211000F404EF0090358347340293E71700A301DE
:10212000F40295B92285EF108027832704090967F7
:10213000A3060400D98F2328F408B1B9EF00506931
:1021400099B98D472300F5042320050C2322050CA3
:102150002324050C2326050CEF0010572DB9EF00A2
:102160003060A306240105B90347C5138346B513A0
:102170002207558FED4663FBE6000347050E1377F4
:10218000070209C70567D98F232AF5082285EF10B2
:1021900000218547A306F4008327040923010404D2
:1021A00093E7070499BFEF10801F8347B401858B25
:1021B00099CB8327040923010404A30D040093E7AA
:1021C00007202328F4088347340293E71700A3016C
:1021D000F402C5B9EF10000C69B7EFD05FFFE30C54
:1021E00005BA2285EF10C014832704090567130779
:1021F000078023010404D98F11BDEF10401A8547D1
:10220000A306F400230104048327040905671307C8
:102210000780D98FDDB59737FF1F83D7E7E28507A2
:102220001737FF1F2312F7E2BDB601119757FF1FA3
:102230009387877222CCA04B26CA4AC84EC652C486
:10224000B164216A0569B729020056C206CE5AC098
:10225000930A3A30938434301309098093894906EC
:102260008347C4001307100C6398E714173BFF1F44
:10227000130B0BDF83270B0098430D8B05C3B84B63
:10228000619BB8CB98431367870098C39C438D83A9
:10229000858B89C701000100010001002285EFF054
:1022A0007FA603270B003C53FDFF9757FF1F238B8F
:1022B000075E83479400638D070E83470404898B70
:1022C000E5CBA2850545EF30605683270B00130749
:1022D000A007B8CB83270B001307000AB70600F945
:1022E000B8D37D47D8C39737FF1F938767D69C43E2
:1022F000FD16984F758FB7060002558F98CF984FEF
:10230000137737F81367870198CF1737FF1F130725
:10231000E7D51443D856759BD8D603472401937646
:10232000F7079843137707F8558F98C30327840856
:10233000B70600F0FD1698C70327C408D8C3D857BE
:10234000719BD8D79843758F98C39757FF1F238ADF
:102350000754930700F81757FF1FA304F754975724
:10236000FF1FA38107549757FF1F238E0752930720
:1023700030FC2306F400EF30E071C1471757FF1F10
:10238000A303F75203270B003C53FDFF8347940040
:10239000232657019207938787153CD3930700F8AC
:1023A0009756FF1F2380F65044C7EF30C0684DBDDD
:1023B0009307A0053CCB39BF1307400C639AE77E17
:1023C0009757FF1F83C7F74D858B175BFF1F130BB5
:1023D0002B4D6385077A9757FF1FA384074C8347CC
:1023E000F400139787016187634E070093E707F8AE
:1023F000130700F8230CE400A307F4009757FF1F0E
:1024000023A6075A834504040325C40E130644017A
:1024100085899720FF1FE780A0249757FF1F2384FB
:10242000A74805896313056A83473402A30F040094
:102430002318040693E72700A301F4022285EFD0B6
:10244000BFEA21ED8327040FA30804008DCF0347C3
:10245000740115CB03C79700058B15E703D7E70079
:10246000C843136707F02397E7009720FF1FE78013
:10247000C058835784038507231CF4028327040F65
:102480009C432328F40E8347940081CB83470404A4
:10249000898B81C72285EFD03FEA83470404858B6F
:1024A000F5C383476B00898BF1CF8347F401850720
:1024B000A30FF4008347F401639207628347E401AA
:1024C00093F7E70F639C076022859720FF1FE78043
:1024D000A0DA85476314F5602285EFF0BF8283465A
:1024E00094009737FF1F9387A7B79C431397460025
:1024F0001307C72023A65701B8D3130700F81756B0
:10250000FF1F2301E63AC4C783470404898B638411
:10251000075C6382065CA2850545EF302031130518
:10252000A0079720FF1FE78040048327840FB1C3D3
:102530000347F400137707040DCFD44303C6C70045
:1025400083C58700035544008906EF60C02815E164
:102550008327840F03D7E700136707F02397E7006B
:102560009C43232CF40E8357640381C7FD17231B60
:10257000F4029720FF1FE78040FC930730FC2306FE
:10258000F400F9B92285EFD0BFD80DF52285EFD040
:10259000DFC00347E4009377870095C78347B40003
:1025A0009DC383475401C54663E6F600B3D7F900DF
:1025B000858B91EB9307D0032304F40493079004D5
:1025C000A306F40091A08346A4008D476394F64AC5
:1025D00083475401BD466393D70A8346B400E1475D
:1025E0006393F6488347040E898B638E07460D8BF1
:1025F0000DCB9307A0022301F40483274409370776
:102600000400D98F232AF40883470404858BE383CD
:1026100007EA8347B400E38F07E82285EFD0DFD6CF
:1026200051BD8347D4000547639AE7002285EF0038
:10263000D0582301A404930730F959B79306200416
:10264000639CD7002285EF0050572301A4044DFD61
:1026500083274409416775B7930620096395D740DE
:10266000930730022301F40483274409B7060200CC
:10267000A306E400D58F232AF40879B7C1466395F1
:10268000D7020347B400E147631FF73C0347D40078
:10269000930720096319F73C2285EF00906123011D
:1026A000A4049307A0F929BF0946639FC700034705
:1026B000B400631AF73A8327C40E83C73700230494
:1026C000F40493073003EDBD2D46639CC702034716
:1026D000B40085476319F7380347D40093072007F0
:1026E0006313F73893075007A306F40083473402B7
:1026F0002300040493F70704E38E07DAA301D4024E
:1027000055BB91466396D7088346B400B547639C92
:10271000F6348346D400930720046396F634832767
:10272000C40E1367870083C6570003C64700A2067E
:102730004206B29603C66700B29603C63700620629
:10274000B296232ED40883C6970003C68700A2063C
:102750004206B29603C6A700B29603C67700620689
:10276000B296232CD40883C6C70003C6D700A2069E
:102770004206B29603C6B70083C7E7002307E4000A
:10278000B296E207B697232EF40A930750040DBDC4
:1027900015476390E7020347B40085476315F72C9C
:1027A0000347D40093075004631FF72A93073005AB
:1027B00001BD19476392E7020347B40085476314DC
:1027C000F72A0347D40093074005631EF728230127
:1027D000040493075005EDB33947639DE7040347AD
:1027E000B400A5476311F7288347040EA18B638CBF
:1027F00007260327C40E9307040D1306840D0D0747
:102800008346070083C507008507A383D700ED8EA5
:10281000A387D7000507E315F6FE0347D4008547D5
:102820006315F7009307300661BB8327440993E7DC
:102830000710C9BB25476394E7040347B400A547C5
:102840006313F7220347D40093072006631DF72084
:102850000327C40E9307040D1306840D0D0783464A
:10286000070083C507008507A383D700ED8EA387E4
:10287000D7000507E315F6FE9307500691B33147DD
:102880006396E7040347B4009947631EF71C22854B
:10289000EF00705C0347D40093072008631DF70026
:1028A000930750F8A306F4008347B40193F7F7FBAE
:1028B000A30DF40091BB8307B401E3D707FE832780
:1028C000440993E70720232AF408F9BF4947639492
:1028D000E7048347B40005476397E7180347040EEE
:1028E000418B630207180347D4006315F700930771
:1028F00030FAF9B19306200A631AD700034734026D
:10290000A306F40013671700A301E4028327440918
:10291000B3E72701C5B94D476390E7020347B40009
:1029200085476312F7140347D4009307200A631CFA
:10293000F712930740FA69B15147639DE7020347D5
:10294000B400A5476311F7128347040E93F70702FB
:10295000638B07102285EF00F0420347D4008547C0
:102960006315F700930730FBA1B9832744093707A4
:10297000080041B955476395E7020347B400A547EE
:102980006313F70E0347D4009307200B631DF70C66
:10299000930740FBA306F4002285EF00B03EADB1E3
:1029A0001D47639FE7040347B4008947631DF70A87
:1029B000E9472301F4048347D4001307200A6395F1
:1029C000E700930750FAEDBE130720066395E70072
:1029D00093077006F5B613072009639CE700930779
:1029E00090F9A306F4008347040EF59B2300F40E30
:1029F00021B91307200BE399E7C0930750FBC9B631
:102A00003547639CE7000347B4008947631DF7041B
:102A10008327C40E83C7370029A845476395E70479
:102A20000347B4008D476310F7048327C40E83C7A0
:102A300047002301F4048347D40013072009638669
:102A4000E700130770096395E700930780F98DBECF
:102A5000130720046386E700130750046395E7001B
:102A600093078004B1BE2285492183274409B3E737
:102A7000470149BE8347B40099C72285EFD09FF72D
:102A8000E30405B805BC83471401E39F07B68347F9
:102A9000D400C9466398D700136717002307E400E2
:102AA000854739BE9306200213672700E388D7FEC7
:102AB00013072003E39AE7B4832704090967A306F1
:102AC0000400D98F2328F40881B68347E4018507E1
:102AD000230FF400C5B21305A005A1B4EF20D07EEA
:102AE0008327840FB1C30347F400137707040DCF86
:102AF000D44303C6C70083C5870003554400890635
:102B0000EF50704D15E18327840F03D7E70013675B
:102B100007F02397E7009C43232CF40E83576403AC
:102B200081C7FD17231BF4022285EFE09FE783474F
:102B3000F4018DCB37C700400327073893F7070F01
:102B400081CB9305D0032285EFE0EF952301A40408
:102B50009757FF1F938747BD9C5B89C79545130512
:102B60006008829722856244F240D2444249B249C9
:102B7000224A924A024B05616FE0CF849727FF1FDC
:102B80009387074E9C43BC53639C07EC9757FF1FEA
:102B9000238A07D0EF2050732285EFE09FE0834720
:102BA0003B00E207E187E3DF07FAEF200F8B5DBF11
:102BB0001307300C6398E70A9757FF1F83C767CE48
:102BC000858BC9C79757FF1F238D07CC832704091F
:102BD0001397270163530702EF20106F0345140278
:102BE000EF10FFC383458404FD57A300F402228540
:102BF000EFE06F8B2301A404B5B7834704150347A7
