
BackupUpgrade_OTA_BLE_UART.elf:     file format elf32-littleriscv
BackupUpgrade_OTA_BLE_UART.elf
architecture: riscv:rv32, flags 0x00000112:
EXEC_P, HAS_SYMS, D_PAGED
start address 0x00001000

Program Header:
    LOAD off    0x00001000 vaddr 0x00001000 paddr 0x00001000 align 2**12
         filesz 0x00000008 memsz 0x00000008 flags rwx
    LOAD off    0x00001800 vaddr 0x20003800 paddr 0x00001008 align 2**12
         filesz 0x000012b0 memsz 0x000012b0 flags r-x
    LOAD off    0x000032b8 vaddr 0x000022b8 paddr 0x000022b8 align 2**12
         filesz 0x0001d35c memsz 0x0001d35c flags r-x
    LOAD off    0x00020ab0 vaddr 0x20004ab0 paddr 0x0001f614 align 2**12
         filesz 0x00000428 memsz 0x00002f54 flags rw-

Sections:
Idx Name            Size      VMA       LMA       File off  Algn  Flags
  0 .init           00000008  00001000  00001000  00001000  2**2  CONTENTS, ALLOC, LOAD, CODE
  1 .highcodelalign 00000000  00001008  00001008  00020ed8  2**0  CONTENTS
  2 .highcode       000012b0  20003800  00001008  00001800  2**1  CONTENTS, ALLOC, LOAD, READONLY, CODE
  3 .text           0001d35c  000022b8  000022b8  000032b8  2**3  CONTENTS, ALLOC, LOAD, READONLY, CODE
  4 .fini           00000000  0001f614  0001f614  00020ed8  2**0  CONTENTS, ALLOC, LOAD, CODE
  5 .dalign         00000000  20004ab0  20004ab0  00020ed8  2**0  CONTENTS
  6 .dlalign        00000000  0001f614  0001f614  00020ed8  2**0  CONTENTS
  7 .data           00000428  20004ab0  0001f614  00020ab0  2**2  CONTENTS, ALLOC, LOAD, DATA
  8 .bss            00002b2c  20004ed8  0001fa3c  00020ed8  2**3  ALLOC
  9 .stack          00000000  20008000  20008000  00020ed8  2**0  CONTENTS
 10 .debug_info     00012ead  00000000  00000000  00020ed8  2**0  CONTENTS, READONLY, DEBUGGING
 11 .debug_abbrev   000030be  00000000  00000000  00033d85  2**0  CONTENTS, READONLY, DEBUGGING
 12 .debug_loc      00003be1  00000000  00000000  00036e43  2**0  CONTENTS, READONLY, DEBUGGING
 13 .debug_aranges  000005a8  00000000  00000000  0003aa28  2**3  CONTENTS, READONLY, DEBUGGING
 14 .debug_ranges   00000870  00000000  00000000  0003afd0  2**3  CONTENTS, READONLY, DEBUGGING
 15 .debug_line     00009e10  00000000  00000000  0003b840  2**0  CONTENTS, READONLY, DEBUGGING
 16 .debug_str      00003b0f  00000000  00000000  00045650  2**0  CONTENTS, READONLY, DEBUGGING
 17 .comment        00000033  00000000  00000000  0004915f  2**0  CONTENTS, READONLY
 18 .debug_frame    000017f4  00000000  00000000  00049194  2**2  CONTENTS, READONLY, DEBUGGING
 19 .stab           00000084  00000000  00000000  0004a988  2**2  CONTENTS, READONLY, DEBUGGING
 20 .stabstr        00000117  00000000  00000000  0004aa0c  2**0  CONTENTS, READONLY, DEBUGGING
SYMBOL TABLE:
00001000 l    d  .init	00000000 .init
00001008 l    d  .highcodelalign	00000000 .highcodelalign
20003800 l    d  .highcode	00000000 .highcode
000022b8 l    d  .text	00000000 .text
0001f614 l    d  .fini	00000000 .fini
20004ab0 l    d  .dalign	00000000 .dalign
0001f614 l    d  .dlalign	00000000 .dlalign
20004ab0 l    d  .data	00000000 .data
20004ed8 l    d  .bss	00000000 .bss
20008000 l    d  .stack	00000000 .stack
00000000 l    d  .debug_info	00000000 .debug_info
00000000 l    d  .debug_abbrev	00000000 .debug_abbrev
00000000 l    d  .debug_loc	00000000 .debug_loc
00000000 l    d  .debug_aranges	00000000 .debug_aranges
00000000 l    d  .debug_ranges	00000000 .debug_ranges
00000000 l    d  .debug_line	00000000 .debug_line
00000000 l    d  .debug_str	00000000 .debug_str
00000000 l    d  .comment	00000000 .comment
00000000 l    d  .debug_frame	00000000 .debug_frame
00000000 l    d  .stab	00000000 .stab
00000000 l    d  .stabstr	00000000 .stabstr
00000000 l    df *ABS*	00000000 ./Startup/startup_CH573.o
20003800 l       .highcode	00000000 _vector_base
00000000 l    df *ABS*	00000000 peripheral_main.c
00000000 l    df *ABS*	00000000 CH57x_clk.c
00000000 l    df *ABS*	00000000 CH57x_sys.c
00000000 l    df *ABS*	00000000 RTC.c
00000000 l    df *ABS*	00000000 peripheral.c
00003760 l     F .text	000000b6 peripheralStateNotificationCB
20005310 l     O .bss	00000800 app_uart_rx_buffer
20005b10 l     O .bss	0000000c app_uart_rx_fifo
20005b1c l     O .bss	00000200 app_uart_tx_buffer
20005d1c l     O .bss	0000000c app_uart_tx_fifo
20005e30 l     O .bss	000000f4 to_test_buffer
20004cb0 l     O .data	0000000c Peripheral_PeripheralCBs
20004cbc l     O .data	00000015 attDeviceName
20004cd4 l     O .data	0000001f scanRspData
20004f04 l     O .bss	00000008 Broadcaster_BroadcasterCBs
20004f20 l     O .bss	00000008 Peripheral_BondMgrCBs
20004f30 l     O .bss	00000008 noti.5012
20004f38 l     O .bss	00000008 peripheralConnList
20004f40 l     O .bss	00000002 read_length.5015
20004e70 l     O .data	00000008 Peripheral_OTA_IAPProfileCBs
20004e7c l     O .data	00000007 advertData
00000000 l    df *ABS*	00000000 ISP573.c
20003b54 l       .highcode	00000000 .loop18
20003b62 l       .highcode	00000000 .loop29
20003b70 l       .highcode	00000000 .loop40
20003df0 l       .highcode	00000000 .loop401
00000000 l    df *ABS*	00000000 tmos.c
20003f30 l     F .highcode	0000001c tmos_switch_32k
00004224 l     F .text	00000020 tmosFindTask
20004e8c l     O .data	00000004 holdrand.5452
00000000 l    df *ABS*	00000000 tmos_hw.c
00000000 l    df *ABS*	00000000 ll_connect.c
00000000 l    df *ABS*	00000000 bb.c
00000000 l    df *ABS*	00000000 ip.c
00000000 l    df *ABS*	00000000 lle.c
00000000 l    df *ABS*	00000000 rf_fh.c
00000000 l    df *ABS*	00000000 rfend.c
00000000 l    df *ABS*	00000000 memory.c
00000000 l    df *ABS*	00000000 CH57x_adc.c
00000000 l    df *ABS*	00000000 CH57x_gpio.c
00000000 l    df *ABS*	00000000 CH57x_uart1.c
00000000 l    df *ABS*	00000000 CH57x_uart3.c
00000000 l    df *ABS*	00000000 OTAprofile.c
00002c5c l     F .text	0000008c OTAProfile_WriteAttrCB
00002ce8 l     F .text	00000078 OTAProfile_ReadAttrCB
20005110 l     O .bss	000000f7 OTAProfileReadBuf
20005208 l     O .bss	000000f7 OTAProfileWriteBuf
20004ab0 l     O .data	00000040 OTAProfileAttrTbl
0001f584 l     O .text	00000008 OTAProfileService
20004e58 l     O .data	00000001 OTAProfileCharProps
20004edc l     O .bss	00000001 OTAProfileChar
20004afc l     O .data	0000000c OTAProfileCharUserDesp
20004edd l     O .bss	00000001 OTAProfileReadLen
20004ede l     O .bss	00000001 OTAProfileWriteLen
20004ee0 l     O .bss	00000004 OTAProfile_AppCBs
00000000 l    df *ABS*	00000000 devinfoservice.c
00002db2 l     F .text	00000196 devInfo_ReadAttrCB
20004b08 l     O .data	00000130 devInfoAttrTbl
0001f5b0 l     O .text	00000008 devInfoService
20004e6a l     O .data	00000001 devInfoSystemIdProps
20004ee4 l     O .bss	00000008 devInfoSystemId
20004e5d l     O .data	00000001 devInfoModelNumberProps
0001ed00 l     O .text	0000000d devInfoModelNumber
20004e68 l     O .data	00000001 devInfoSerialNumberProps
0001ed10 l     O .text	0000000e devInfoSerialNumber
20004e5a l     O .data	00000001 devInfoFirmwareRevProps
0001ecc4 l     O .text	00000012 devInfoFirmwareRev
20004e5b l     O .data	00000001 devInfoHardwareRevProps
0001ecd8 l     O .text	00000012 devInfoHardwareRev
20004e69 l     O .data	00000001 devInfoSoftwareRevProps
0001ed20 l     O .text	00000012 devInfoSoftwareRev
20004e5c l     O .data	00000001 devInfoMfrNameProps
0001ecec l     O .text	00000012 devInfoMfrName
20004e59 l     O .data	00000001 devInfo11073CertProps
0001ecb4 l     O .text	0000000e devInfo11073Cert
20004e67 l     O .data	00000001 devInfoPnpIdProps
20004e60 l     O .data	00000007 devInfoPnpId
00000000 l    df *ABS*	00000000 gattprofile.c
20004eec l     O .bss	00000001 simpleProfileChar1
20004eed l     O .bss	00000001 simpleProfileChar2
20004eee l     O .bss	00000001 simpleProfileChar3
20004eef l     O .bss	00000001 simpleProfileChar4
20004ef0 l     O .bss	00000005 simpleProfileChar5
00000000 l    df *ABS*	00000000 MCU.c
00000000 l    df *ABS*	00000000 ble_uart_service_16bit.c
00003376 l     F .text	000000b6 ble_uart_WriteAttrCB
0000342c l     F .text	0000006e ble_uart_ReadAttrCB
0000349a l     F .text	00000042 ble_uart_HandleConnStatusCB
20005300 l     O .bss	00000010 ble_uart_TxCCCD
20004c44 l     O .data	00000060 ble_uart_ProfileAttrTbl
0001f5c4 l     O .text	00000008 ble_uart_Service
20004e6c l     O .data	00000001 ble_uart_TxCharProps
20004f01 l     O .bss	00000001 ble_uart_TxCharValue
20004e6b l     O .data	00000001 ble_uart_RxCharProps
20004f00 l     O .bss	00000001 ble_uart_RxCharValue
20004efc l     O .bss	00000004 ble_uart_AppCBs
00000000 l    df *ABS*	00000000 app_drv_fifo.c
00000000 l    df *ABS*	00000000 message.c
00000000 l    df *ABS*	00000000 tmos_snv.c
00000000 l    df *ABS*	00000000 att.c
00000000 l    df *ABS*	00000000 gap.c
00005776 l     F .text	00000022 disconnectNext
20004f74 l     O .bss	00000006 gapCurrentRandomAddr
20004f84 l     O .bss	00000004 pfnCentralCBs
20004f88 l     O .bss	00000004 pfnCentralConnCBs
20004f8c l     O .bss	00000004 pfnPeripheralCBs
20004f90 l     O .bss	00000004 pfnPeripheralConnCBs
20004f94 l     O .bss	00000008 slaveUpdateReq
20004f9c l     O .bss	00000001 terminateAllTaskID
20004f9d l     O .bss	00000001 terminateReason
00000000 l    df *ABS*	00000000 gap_central.c
00006e38 l     F .text	0000001e gapSendScanEnable
00007422 l     F .text	00000048 gapSetScanParamStatus.part.2
00000000 l    df *ABS*	00000000 gap_peripheral.c
00007762 l     F .text	00000020 gapFreeAdvertState
00007782 l     F .text	000000bc gapPeriProcessConnEvt
0000783e l     F .text	0000007e gapSetAdvParams
00007956 l     F .text	0000019a gapPeriProcessHCICmdCompleteEvt
00007c4c l     F .text	0000009e gapProcessAdvertisingEvt
20007800 l     O .bss	0000000c gapPeripheralCBs
20004fb4 l     O .bss	00000002 gapLimitedAdvertisingTimeout
20004fb8 l     O .bss	00000004 gapPeripheralConnCBs
20004fbc l     O .bss	00000004 pGapAdData
20004fc0 l     O .bss	00000004 pGapAdvTokens
20004fc4 l     O .bss	00000004 pGapScanRspData
20004e90 l     O .data	00000001 gapAdvAppTaskID
00000000 l    df *ABS*	00000000 gapgattserver.c
00007e94 l     F .text	00000068 ggs_SetAttrWPermit
00007efc l     F .text	00000152 ggs_ReadAttrCB
0000804e l     F .text	00000154 ggs_WriteAttrCB
2000780c l     O .bss	00000016 deviceName
20004cf4 l     O .data	00000090 gapAttrTbl
0001f5d8 l     O .text	00000008 gapService
20004e94 l     O .data	00000001 deviceNameCharProps
20004e91 l     O .data	00000001 appearanceCharProps
20004fc8 l     O .bss	00000002 appearance
20004e95 l     O .data	00000001 periConnParamCharProps
20004e98 l     O .data	00000008 periConnParameters
20004e93 l     O .data	00000001 centAddrResCharProps
20004e92 l     O .data	00000001 centAddrRes
20004fca l     O .bss	00000001 ggsAddService
20004fcc l     O .bss	00000004 ggs_AppCBs
00000000 l    df *ABS*	00000000 gatt.c
20004ea0 l     O .data	00000001 gattCentAppTaskID
20004ea1 l     O .data	00000001 gattPeriAppTaskID
00000000 l    df *ABS*	00000000 gattservapp.c
00008a50 l     F .text	00000004 gattProcessExchangeMTUReq
00008a54 l     F .text	00000024 gattServApp_FindCharCfgItem
00008a78 l     F .text	0000003c gattServerHandleTimerCB
00008ab4 l     F .text	00000020 GATTServApp_InitCharCfg.part.12
00008ad4 l     F .text	00000004 gattProcessExecuteWriteReq
00008efc l     F .text	0000002e GATT_VerifyWritePermissions.part.7
00008efc l     F .text	0000002e GATT_VerifyPrepareWritePermissions.part.8
000091c8 l     F .text	00000028 gattServerNotifyTxCB
000096f6 l     F .text	00000060 gattProcessReadByGrpTypeReq
00009756 l     F .text	00000034 gattProcessReadByTypeReq
0000978a l     F .text	00000034 gattProcessFindByTypeValueReq
000097be l     F .text	000001aa gattProcessFindInfoReq
00009a46 l     F .text	00000036 gattProcessWriteReq
00009ad2 l     F .text	00000036 gattProcessPrepareWriteReq
0000a21e l     F .text	000000ae gattProcessReadMultiReq
0000a2cc l     F .text	00000030 gattProcessReadReq
20007824 l     O .bss	00000018 rsp
20004d90 l     O .data	00000040 gattAttrTbl
20004ea4 l     O .data	00000008 gattService
20004eaf l     O .data	00000001 serviceChangedCharProps
20004fe0 l     O .bss	00000004 indCharCfg
20004dd0 l     O .data	0000000c gattServiceCBs
20004fdc l     O .bss	00000002 attrLen
20004fde l     O .bss	00000001 gattAddService
20004fe4 l     O .bss	00000004 pAttrValue
20004fe8 l     O .bss	00000004 pServiceList
20004fec l     O .bss	00000004 prepareWritesTbl
20004ff0 l     O .bss	00000004 serverInfoTbl
20004ff4 l     O .bss	00000004 serviceCBsList
20004ea2 l     O .data	00000001 GATTServApp_TaskID
20004ea3 l     O .data	00000001 appTaskID
20004eac l     O .data	00000002 nextHandle
20004eae l     O .data	00000001 reqTaskId
00000000 l    df *ABS*	00000000 l2cap.c
00000000 l    df *ABS*	00000000 l2cap_input.c
00000000 l    df *ABS*	00000000 l2cap_output.c
0000c296 l     F .text	00000074 l2capSendFCPkt.part.3
00000000 l    df *ABS*	00000000 l2cap_sdu.c
0000c704 l     F .text	00000028 l2capBuildDisconnectReq
0000c72c l     F .text	0000004c l2capBuildParamUpdateReq
0000c778 l     F .text	00000016 l2capBuildParamUpdateRsp
0000c78e l     F .text	0000005e l2capBuildConnectRsp
00000000 l    df *ABS*	00000000 linkdb.c
0000c984 l     F .text	0000003e reportStatusChange
00000000 l    df *ABS*	00000000 sm.c
00000000 l    df *ABS*	00000000 host_input.c
20005024 l     O .bss	00000001 fragment.4230
00000000 l    df *ABS*	00000000 host_output.c
00000000 l    df *ABS*	00000000 ll_core.c
00000000 l    df *ABS*	00000000 ll_hop.c
00000000 l    df *ABS*	00000000 ll_master.c
000119a2 l     F .text	00000362 ll_master_process_after_rx
00000000 l    df *ABS*	00000000 ll_pdu.c
00000000 l    df *ABS*	00000000 ll_report.c
00000000 l    df *ABS*	00000000 ll_scan.c
00000000 l    df *ABS*	00000000 ll_slave.c
00013cfa l     F .text	000003c4 ll_slave_process_after_tx
000141b4 l     F .text	000001e6 llSlaveSetFirstTimer
00000000 l    df *ABS*	00000000 ll_whitelist.c
00000000 l    df *ABS*	00000000 aes.c
00000000 l    df *ABS*	00000000 dma.c
00000000 l    df *ABS*	00000000 api_c.c
00000000 l    df *ABS*	00000000 ctl_input.c
20005072 l     O .bss	00000001 fragment.6322
00000000 l    df *ABS*	00000000 ctl_output.c
00000000 l    df *ABS*	00000000 broadcaster.c
00000000 l    df *ABS*	00000000 gapbondmgr.c
000187e4 l     F .text	00000024 gapBondMgrInvertCharCfgItem
00018808 l     F .text	0000002a gapBondMgrGetStateFlags
00018832 l     F .text	00000054 gapBondMgrBondTotal
00018886 l     F .text	0000004c gapBondFreeAuthEvt
000188d2 l     F .text	00000132 gapBondMgrEraseBonding
00018a04 l     F .text	0000002e gapBondMgrEraseAllBondings
00018a32 l     F .text	00000054 gapBondMgr_SyncWhiteList
00018a86 l     F .text	0000009c gapBondMgr_SyncResolveList
00018b22 l     F .text	00000028 gapBondSetupPrivFlag
00018b4a l     F .text	000000c8 gapBondMgrReadBonds
00018c12 l     F .text	00000010 gapBondMgrSendServiceChange
00018c22 l     F .text	00000070 gapBondMgrBondReq
00018c92 l     F .text	000001a0 gapBondMgrAuthenticate
00018e32 l     F .text	0000004e gapBondMgrFindAddr
00018e80 l     F .text	000001d4 gapBondMgrAddBond
00019054 l     F .text	00000050 gapBondPairStateCB
000190a4 l     F .text	00000092 gapBondPasscodeCB
00019136 l     F .text	0000004e gapBondMgrGetPublicAddr
00019184 l     F .text	00000074 gapBondMgrChangeState.constprop.8
000191f8 l     F .text	000000e2 gapBondMgrUpdateCharCfg
200078f4 l     O .bss	00000010 gapBond_Cent_OOBData
20007904 l     O .bss	00000010 gapBond_Peri_OOBData
20005078 l     O .bss	00000001 autoSyncResolveList
20005079 l     O .bss	00000001 autoSyncWhiteList
2000507a l     O .bss	00000001 bondIdx
2000507c l     O .bss	00000004 bonds
20005080 l     O .bss	00000001 eraseAllBonds
20005081 l     O .bss	00000001 gapBondMax
20005082 l     O .bss	00000001 gapBondMgr_TaskID
2000508c l     O .bss	00000001 gapBond_AutoFail
2000508d l     O .bss	00000001 gapBond_Cent_Bonding
2000508e l     O .bss	00000001 gapBond_Cent_IOCap
2000508f l     O .bss	00000001 gapBond_Cent_MITM
20005090 l     O .bss	00000001 gapBond_Cent_OOBDataFlag
20005094 l     O .bss	00000004 gapBond_Cent_Passcode
20005099 l     O .bss	00000001 gapBond_Peri_Bonding
2000509a l     O .bss	00000001 gapBond_Peri_IOCap
2000509b l     O .bss	00000001 gapBond_Peri_MITM
2000509c l     O .bss	00000001 gapBond_Peri_OOBDataFlag
200050a0 l     O .bss	00000004 gapBond_Peri_Passcode
200050a4 l     O .bss	00000001 gattCCFlag
200050a8 l     O .bss	00000004 pAttr.4281
200050ac l     O .bss	00000004 pAuthEvt
200050b0 l     O .bss	00000004 pGapBondCB
200050b4 l     O .bss	00000004 pGapCentBondCB
200050b8 l     O .bss	00000004 pGapPeriBondCB
200050bc l     O .bss	00000002 service.4282
20004eb0 l     O .data	00000008 gapBondCB
20004eb9 l     O .data	00000001 gapBond_AutoFailReason
20004eba l     O .data	00000001 gapBond_BondFailOption
20004ebb l     O .data	00000001 gapBond_Cent_KeyDistList
20004ebc l     O .data	00000001 gapBond_Cent_PairingMode
20004ebe l     O .data	00000001 gapBond_KeySize
20004ebf l     O .data	00000001 gapBond_Peri_KeyDistList
20004ec0 l     O .data	00000001 gapBond_Peri_PairingMode
00000000 l    df *ABS*	00000000 peripheral.c
0001a53c l     F .text	000002b8 gapRole_PeripheralProcessTMOSMsg
20007914 l     O .bss	00000010 gapRole_OldIRK
20007924 l     O .bss	00000010 gapRole_OldSRK
200050c0 l     O .bss	00000004 pGapRoles_AppCGs
00000000 l    df *ABS*	00000000 role.c
00000000 l    df *ABS*	00000000 att_server.c
00000000 l    df *ABS*	00000000 ll.c
00000000 l    df *ABS*	00000000 ll_advertise.c
0001b9f2 l     F .text	00000078 llAdvertiseCreateCore
0001ba6a l     F .text	00000290 ll_advertise_tx
00000000 l    df *ABS*	00000000 ll_initiate.c
00000000 l    df *ABS*	00000000 ll_resolvinglist.c
00000000 l    df *ABS*	00000000 ll_address.c
00000000 l    df *ABS*	00000000 libgcc2.c
00000000 l    df *ABS*	00000000 libgcc2.c
00000000 l    df *ABS*	00000000 muldf3.c
00000000 l    df *ABS*	00000000 floatsidf.c
00000000 l    df *ABS*	00000000 mulsf3.c
00000000 l    df *ABS*	00000000 fixsfsi.c
00000000 l    df *ABS*	00000000 floatsisf.c
00000000 l    df *ABS*	00000000 truncdfsf2.c
00000000 l    df *ABS*	00000000 libgcc2.c
00000000 l    df *ABS*	00000000 memcpy.c
00000000 l    df *ABS*	00000000 printf.c
00000000 l    df *ABS*	00000000 puts.c
00000000 l    df *ABS*	00000000 wbuf.c
00000000 l    df *ABS*	00000000 wsetup.c
00000000 l    df *ABS*	00000000 fflush.c
00000000 l    df *ABS*	00000000 findfp.c
0001de46 l     F .text	0000006a std
00000000 l    df *ABS*	00000000 fwalk.c
00000000 l    df *ABS*	00000000 makebuf.c
00000000 l    df *ABS*	00000000 nano-mallocr.c
00000000 l    df *ABS*	00000000 nano-mallocr.c
00000000 l    df *ABS*	00000000 nano-vfprintf.c
0001e30e l     F .text	0000002a __sfputc_r
00000000 l    df *ABS*	00000000 nano-vfprintf_i.c
00000000 l    df *ABS*	00000000 sbrkr.c
00000000 l    df *ABS*	00000000 stdio.c
00000000 l    df *ABS*	00000000 writer.c
00000000 l    df *ABS*	00000000 closer.c
00000000 l    df *ABS*	00000000 fstatr.c
00000000 l    df *ABS*	00000000 isattyr.c
00000000 l    df *ABS*	00000000 lseekr.c
00000000 l    df *ABS*	00000000 memchr.c
00000000 l    df *ABS*	00000000 mlock.c
00000000 l    df *ABS*	00000000 readr.c
00000000 l    df *ABS*	00000000 close.c
00000000 l    df *ABS*	00000000 fstat.c
00000000 l    df *ABS*	00000000 isatty.c
00000000 l    df *ABS*	00000000 lseek.c
00000000 l    df *ABS*	00000000 read.c
00000000 l    df *ABS*	00000000 sbrk.c
2000510c l     O .bss	00000004 heap_end.1518
00000000 l    df *ABS*	00000000 libgcc2.c
00000000 l    df *ABS*	00000000 gatt_uuid.c
00000000 l    df *ABS*	00000000 impure.c
20004df4 l     O .data	00000060 impure_data
00000000 l    df *ABS*	00000000 reent.c
20005070 g     O .bss	00000001 nGA2440
20004f2a g     O .bss	00000002 connhandletest
000062da g     F .text	000000a6 GAP_Bond
0001806e g     F .text	0000008a LL_AddWhiteListDevice
000047ac g     F .text	00000030 tmos_start_reload_task
20004d84 g     O .data	0000000c gapServiceCBs
00008dca g     F .text	000000e6 gattServApp_IsWriteLong
200045cc g     F .highcode	0000003a ll_rx_wait_finish
0001eb50 g     F .text	00000030 _isatty_r
0001b174 g     F .text	00000006 ATT_BuildReadRsp
00005b58 g     F .text	00000024 gapGetDevAddress
0000f290 g     F .text	0000001e SM_InitiatorInit
0000950e g     F .text	000000b0 gattServApp_ProcessWriteReq
000130f4 g     F .text	000000ac LL_ConnectionParamReq
200044ec g     F .highcode	0000004a BB_IRQLibFunction
000092e2 g     F .text	00000100 gattServApp_ProcessExecuteWriteReq
0001d9f2 g     F .text	000000da _puts_r
0001a328 g     F .text	0000001c GAPBondMgr_Init
20004fb0 g     O .bss	00000004 pGapScanRecs
00002bd0 g     F .text	00000030 UART3_BaudRateCfg
000063f8 g     F .text	00000004 GAP_ResolvePrivateAddr
0001eb80 g     F .text	00000034 _lseek_r
20003b70 g     F .highcode	0000000e FLASH_ROM_OUT
0001f5bc g     O .text	00000002 devInfoSystemIdUUID
20003f88 g     F .highcode	000001d8 TMOS_SystemProcess
0000af5a g     F .text	0000004a l2capFreeChannel
0000c876 g     F .text	000000aa l2capSendConnectRsp
0000da5c g     F .text	0000000e smStopRspTimer
0000a830 g     F .text	00000024 GATTServApp_AddService
000163ca g     F .text	000000ac RFEND_Reset
00002c00 g     F .text	00000032 UART3_DefInit
0000d4d6 g     F .text	0000005c smSendSMMsg
0001b3fe g     F .text	0000001c ATT_ParseReadReq
0000dd30 g     F .text	00000040 smProcessPairingReq
0001f5e8 g     O .text	00000002 charUserDescUUID
000076b4 g     F .text	00000016 GAP_CentConnRegister
0000b3a8 g     F .text	0000002a L2CAP_bm_alloc
0000e9f8 g     F .text	00000034 smpParseIdentityAddrInfo
00005720 g     F .text	00000046 attSendRspMsg
0000e5a2 g     F .text	0000000a smpBuildPairingRsp
00015566 g     F .text	000000b4 LL_WhitelistAdd
0000ff4c g     F .text	00000004 HCI_ReadBDADDRCmd
0000ea92 g     F .text	0000002a smpParsePairingConfirm
00015a0e g     F .text	00000028 ll_tx_wait_pkt_recv
20004ec4 g     O .data	00000001 gapRole_AdvertDataLen
0001b648 g     F .text	00000032 ATT_HandleValueInd
20005008 g     O .bss	00000004 l2capPsm
20005060 g     O .bss	00000004 ftuneFlag
0000a85a g     F .text	00000028 GATTServApp_InitCharCfg
0001d9b2 g     F .text	00000040 printf
20004800 g       *ABS*	00000000 __global_pointer$
0000cc96 g     F .text	00000030 linkDB_State
0000ff78 g     F .text	00000004 HCI_LE_ConnUpdateCmd
00002406 g     F .text	00000028 ADC_InterTSSampInit
0000cbce g     F .text	00000036 linkDB_NumActive
20005020 g     O .bss	00000004 pfnResponderCBs
0000dad2 g     F .text	00000060 smEndPairing
20004f80 g     O .bss	00000004 pGapAdvertState
20004ec3 g     O .data	00000001 gapRole_AdvEnabled
200050c5 g     O .bss	00000001 gapRole_AdvChanMap
0000d1fe g     F .text	00000020 smDetermineKeySize
0001ea7c g     F .text	00000036 __sseek
0001f608 g     O .text	00000002 secondaryServiceUUID
20004fa8 g     O .bss	00000001 gapMaxScanResponses
0001df00 g     F .text	00000070 __sinit
0001dad8 g     F .text	000000c0 __swbuf_r
20003a78 g     F .highcode	0000000e mDelayuS
20003a3a  w    F .highcode	0000003e HardFault_Handler
0000a6c6 g     F .text	000000ee GATT_RegisterService
00005a9e g     F .text	00000048 gapAddAddrAdj
0001b320 g     F .text	00000042 ATT_FindByTypeValueRsp
00008f2a g     F .text	0000001c gattResetServerInfo
0000cb76 g     F .text	00000040 linkDB_FindFirst
00018786 g     F .text	00000004 HCI_LE_ConnectionUpdateCompleteCback
0000cd8e g     F .text	00000060 linkDB_GetSMEvtID
0001deba g     F .text	00000046 __sfmoreglue
0001b584 g     F .text	00000042 ATT_ParsePrepareWriteReq
2000389c  w      .highcode	00000000 GPIOB_IRQHandler
0001ebd0 g     F .text	00000002 __malloc_unlock
00004c16 g     F .text	00000024 ble_ll_common_rand16
00019eea g     F .text	0000002c GAPBondMgr_PeriSecurityReq
0001b6b6 g     F .text	00000130 LL_ProcessEvent
0000681e g     F .text	0000004a GAP_SetParamValue
00003138 g     F .text	0000007e HAL_ProcessEvent
200050cf g     O .bss	00000001 gapRole_AdvEventType
0000eabc g     F .text	00000022 smpParsePairingFailed
2000389a  w      .highcode	00000000 GPIOA_IRQHandler
0001be60 g     F .text	00000156 ll_advertise_filter
2000504c g     O .bss	00000004 gptrBBReg
0001b000 g     F .text	00000070 GAPRole_PeripheralInit
00004a16 g     F .text	00000038 TMOS_ProcessEventRegister
20003894  w      .highcode	00000000 SysTick_Handler
0000dc12 g     F .text	000000e6 smProcessEncryptChange
0000b938 g     F .text	00000162 l2capProcessReq
0000ff54 g     F .text	00000004 HCI_LE_SetRandomAddressCmd
0000487a g     F .text	00000016 tmos_get_task_timer
0000ff70 g     F .text	00000004 HCI_LE_ClearWhiteListCmd
00004030 g     F .text	0000001a OTA_IAPWriteData
00005b0e g     F .text	0000004a gapFreeAuthLink
20005d38 g     O .bss	000000f7 iap_rec_data
00008834 g     F .text	00000094 GATT_ServiceChangedInd
00017866 g     F .text	00000026 API_LE_SetResolvableAddressTimeoutCmd
200050d8 g     O .bss	00000001 gapRole_MasterAndSlave
0000b712 g     F .text	0000001e l2capParseParamUpdateRsp
0000d44a g     F .text	00000038 smSetPairingReqRsp
00003b34 g     F .text	00000018 OTA_IAP_SendCMDDealSta
00009008 g     F .text	000001c0 gattServerProcessMsgCB
0001f5b8 g     O .text	00000002 devInfoSoftwareRevUUID
00005b86 g     F .text	0000000c gapGetIRK
20005028 g     O .bss	00000006 gBleHostPara
20003890  w      .highcode	00000000 NMI_Handler
000088c8 g     F .text	0000001c GATT_bm_free
0000ffb0 g     F .text	00000004 HCI_SendDataPkt
0001d5f4 g     F .text	00000062 .hidden __fixsfsi
0001f5f8 g     O .text	00000002 gapServiceUUID
000177f4 g     F .text	00000026 API_LE_AddDeviceToResolvingList
0001bcfa g     F .text	00000088 llAdvTraverseallChannel
0000746a g     F .text	0000003c gapCentProcessHCICmdEvt
2000500c g     O .bss	00000001 l2capTaskID
00019eb0 g     F .text	0000003a GAPBondMgr_PeripheralRegister
20004f6c g     O .bss	00000004 attClientNotifyTxCB
0001c7c0 g     F .text	00000052 LL_ResolvinglistClearall
0000448c g     F .text	00000012 tmos_memset
0000bce2 g     F .text	0000005a l2capNotifyData
200038ac  w      .highcode	00000000 UART1_IRQHandler
0000ffa0 g     F .text	00000004 HCI_LE_AddDeviceToResolvingList
0000ae76 g     F .text	00000034 l2capFindLocalCID
0000be56 g     F .text	00000058 l2capNotifyChannelEstEvt
0000f824 g     F .text	00000064 HOST_LE_LongTermKeyRequestEvent
00008d6c g     F .text	00000030 gattServApp_FindPrepareWriteQ
0000b88a g     F .text	00000022 l2capParseSignalHdr
00006612 g     F .text	00000020 gapFreeEstLink
0001f58c g     O .text	00000002 OTAProfilechar1UUID
0000831c g     F .text	000000ce GGS_SetParameter
20004536 g     F .highcode	00000030 ll_tx_wait_finish
00015904 g     F .text	000000be BB_DevInit
0001eb1e g     F .text	00000032 _fstat_r
0000449e g     F .text	00000014 tmos_strlen
2000465c g     F .highcode	00000096 ble_ll_chkcrc
000102dc g     F .text	0000000c ll_connect_flowcontrol_init
00003754 g     F .text	0000000c OTA_IAPReadDataComplete
00018792 g     F .text	00000004 HCI_LE_RemoteConnectionParameterRequestCback
0000c932 g     F .text	0000002a L2CAP_DisconnectReq
0000452e g     F .text	0000001e tmos_isbufset
0000ccc6 g     F .text	00000028 linkDB_UpdateMTU
0000ddca g     F .text	00000080 sm_ah
20007a00 g     O .bss	00000004 errno
0000c920 g     F .text	00000012 L2CAP_CmdReject
20005100 g     O .bss	00000004 pfnAdvertiseEventCBs
00004890 g     F .text	00000062 tmos_update_callback_timer
0000564c g     F .text	0000001e ATT_GetMTU
000143bc g     F .text	00001132 ll_slave_process
20004ed8 g       .bss	00000000 _sbss
0001f11c g     O .text	00000019 IOCapMatrix
00006584 g     F .text	0000008e gapPasskeyNeededCB
00002d78 g     F .text	0000000e OTAProfile_RegisterAppCBs
0000ff98 g     F .text	00000004 HCI_LE_RemoteConnParamReqReplyCmd
0001867c g     F .text	0000004c LL_SetResolvableAddressTimeout
0000cdee g     F .text	000000b2 linkDB_Add
20004ef8 g     O .bss	00000004 RTCTigFlag
20004e84 g     O .data	00000004 send_to_ble_state
000083ea g     F .text	00000024 GGS_AddService
00005798 g     F .text	00000080 GAP_ParamInit
20003b62 g     F .highcode	0000000e FLASH_ROM_IN
0001a9a4 g     F .text	0000006a GAPRole_PeripheralConnParamUpdateReq
000186c8 g     F .text	000000b4 LL_SendDataPkt
0001019a g     F .text	00000034 ll_connect_parse_datapdu_head
000175e4 g     F .text	00000022 API_LE_SetAdvDataCmd
200077f4 g     O .bss	0000000c gapCentralCBs
0001f158 g     O .text	00000014 VER_LIB
0000fb3e g     F .text	0000005a HOST_ReadRemoteVersionInfoEvent
000078bc g     F .text	0000004a GAP_PeripheralParamInit
00004d76 g     F .text	000000bc tmos_snv_init
00018618 g     F .text	00000010 LL_ClearResolvingList
00011828 g     F .text	0000008a LL_CoreClose
00017b20 g     F .text	000000ae LL_SetRandomAddress
0000e5ac g     F .text	000000b4 sm_c1
0000ff6c g     F .text	00000004 HCI_LE_CreateConnCancelCmd
00002b28 g     F .text	00000014 SYS_RecoverIrq
20004fa0 g     O .bss	00000008 gapCentralConnCBs
2000501c g     O .bss	00000004 pfnInitiatorCBs
00012d26 g     F .text	00000068 LL_ChannelMapReq
00003816 g     F .text	00000056 app_uart_process
200038aa  w      .highcode	00000000 UART0_IRQHandler
20007760 g     O .bss	00000024 gTmosPara
0001ac58 g     F .text	00000110 GAPRole_GetParameter
000066f8 g     F .text	0000006a GAP_Signable
00011074 g     F .text	0000002a ll_connect_procedure_timeout
000182be g     F .text	000001aa LL_StartEncrypt
000175c2 g     F .text	00000022 API_LE_SetAdvParamCmd
0001d8fc g     F .text	000000b6 memcpy
00010ca6 g     F .text	00000086 LL_ConnectToStandby
0000f476 g     F .text	0000001e SM_ResponderInit
000154ee g     F .text	0000002a LL_SlaveEnalbe
0000ff50 g     F .text	00000004 HCI_LE_ReadBufSizeCmd
00006868 g     F .text	00000048 GAP_Init
00017792 g     F .text	00000030 API_LE_RemoteConnParamReqReplyCmd
0000f376 g     F .text	000000a6 SM_ProcessEvent
0000b2c2 g     F .text	0000005e L2CAP_ParseConnectReq
0000afcc g     F .text	0000002c l2capHandleTimerCB
0001deb0 g     F .text	0000000a _cleanup_r
0001d2f4 g     F .text	00000070 .hidden __floatsidf
00004244 g     F .text	0000007c TMOS_CbTimerProcessEvent
0000a9f4 g     F .text	00000034 GATTServApp_Init
0001f594 g     O .text	00000002 devInfoFirmwareRevUUID
0000cc0e g     F .text	00000028 linkDB_Register
00013330 g     F .text	0000006e LL_LengthRsp
00006fd6 g     F .text	0000004c GAP_CentralParamInit
0000d482 g     F .text	0000001a smStartEncryption
0000ff94 g     F .text	00000004 HCI_LE_LtkReqNegReplyCmd
20004ff8 g     O .bss	00000004 l2capChannels
00012c6a g     F .text	000000bc LL_ConnectionUpdateReq
0001dacc g     F .text	0000000c puts
00017ef4 g     F .text	00000140 LL_RemoteConnParamReqReply
0000b82c g     F .text	0000005e l2capParseConnectRsp
00006632 g     F .text	0000007a gapUpdateConnSignCounter
0000d2c4 g     F .text	00000186 smSavePairInfo
0000beec g     F .text	00000066 l2capNotifyEvent
0000b296 g     F .text	0000002c L2CAP_HostNumCompletedPkts
200050c4 g     O .bss	00000001 gapMaxScanRes
0001307e g     F .text	00000026 LL_RejectInd
0000a1b6 g     F .text	00000068 GATT_VerifyReadPermissions
0000557c g     F .text	00000094 ATT_ParsePacket
00003988 g     F .text	000001a2 Peripheral_Init
20004274 g     F .highcode	000000ea ll_connect_event_continue
20004fd0 g     O .bss	00000001 gattTaskID
00003e76 g     F .text	000001ba Rec_OTA_IAP_DataDeal
000100a8 g     F .text	0000003c ll_connect_set_connect_timeout
20004ffc g     O .bss	00000001 l2capFlowCtrlMode
200050f4 g     O .bss	00000004 MemCtlEnd
0000d21e g     F .text	000000a6 smProcessRandComplete
0000fbfa g     F .text	00000048 HOST_CommandStatusEvent
0000b320 g     F .text	0000002e L2CAP_ParseFlowCtrlCredit
000178e2 g     F .text	0000005a CreatePRBS15
000118c2 g     F .text	000000da LL_HopGetChannel
0001ec16 g     F .text	00000010 _fstat
0000d1a0 g     F .text	0000005e SM_ParamInit
00001008 g       .init	00000000 _einit
000041c8 g     F .text	00000056 tmos_msg_send
0001f59c g     O .text	00000002 devInfoMfrNameUUID
0000dda4 g     F .text	00000020 smTimedOut
20004f64 g     O .bss	00000004 tasksArr
200050f8 g     O .bss	00000004 MemCtlPartition
00008db4 g     F .text	00000016 gattServApp_FindAuthorizeAttrCB
0001efd8 g     O .text	00000010 btBaseUUID
0000c972 g     F .text	00000012 L2CAP_ConnParamUpdateRsp
200050c8 g     O .bss	00000006 gapRole_AdvDirectAddr
2000435e g     F .highcode	0000018e BB_IRQLibHandler
200046f2 g     F .highcode	00000162 LLE_IRQLibHandler
20004de8 g     O .data	0000000c smResponderCBs
20007784 g     O .bss	0000001c pfnProcessCBs
0000b126 g     F .text	0000001a l2capStartTimer
0000aee2 g     F .text	00000034 l2capFindPsm
0001581c g     F .text	00000010 LL_Encrypt
200038a0  w      .highcode	00000000 BB_IRQHandler
20003bfe g     F .highcode	00000332 FLASH_EEPROM_CMD
0000e598 g     F .text	0000000a smpBuildPairingReq
000174f8 g     F .text	00000014 RFEND_TXFtune
0000d032 g     F .text	00000030 smpBuildEncInfo
00019536 g     F .text	00000128 GAPBondMgr_GetParameter
00005ae6 g     F .text	00000028 gapDetermineAddrType
0000d09c g     F .text	00000030 smpBuildIdentityInfo
0000ff38 g     F .text	00000004 HCI_MB_DisconnectCmd
20004fd4 g     O .bss	00000004 pfnClientProcessMsgCB
0001f580 g     O .text	00000002 OTAProfileServUUID
000165ec g     F .text	00000080 RFEND_RXFilter
00005b7c g     F .text	0000000a gapGetDevAddressMode
00003086 g     F .text	00000040 Lib_Write_Flash
0001222a g     F .text	00000a40 ll_master_process
200038bc g     F .highcode	0000004a Get_Calibration_Cnt_RAM
00009bca g     F .text	000002e2 GATTServApp_ReadAttr
0000e67a g     F .text	00000116 smpInitiatorProcessPairingRsp
200050e0 g     O .bss	00000001 gapRole_ScanRspDataLen
0001e9ce g     F .text	00000030 _sbrk_r
0000f2ae g     F .text	000000c8 SM_PasskeyUpdate
0001aa78 g     F .text	00000110 GAPRole_PeripheralEnable
000054ce g     F .text	00000046 ATT_ConvertUUIDto128
00005b92 g     F .text	0000000c gapGetSRK
000051cc g     F .text	000002ce tmos_snv_write
0000ec4a g     F .text	000000f4 smProcessDataMsg
20003898  w      .highcode	00000000 TMR0_IRQHandler
0001b578 g     F .text	0000000c ATT_WriteRsp
00017ece g     F .text	00000026 LL_CreateConnCancel
0001c480 g     F .text	00000046 LL_AdvertiseEnalbe
000100e4 g     F .text	00000088 ll_connect_init_dataLen
00004576 g     F .text	000000ce tmos_query_system_time
0000d62a g     F .text	00000010 smPairingSendSingingInfo
20004950 g     F .highcode	000000a6 tmos_memory_allocate
00017adc g     F .text	00000024 LL_ReadBDAddr
20004f58 g     O .bss	00000002 eventsClear
0001ebd2 g     F .text	00000034 _read_r
20005034 g     O .bss	00000004 pL2capDataBuf
0000f7be g     F .text	00000066 HOST_LE_ReadRemoteUsedFeaturesCompleteEvent
00012f10 g     F .text	00000050 LL_FeatureReq
20003b42 g     F .highcode	00000012 FLASH_ROM_BEG
000085e4 g     F .text	0000004a gattSendFlowCtrlEvt
00005766 g     F .text	00000010 ATT_ErrorRsp
00005172 g     F .text	0000005a tmos_snv_notify
20005014 g     O .bss	00000004 linkDB
0000ceda g     F .text	0000005c linkDB_GetPairingParam
0001b3bc g     F .text	00000042 ATT_ReadByTypeRsp
0001b112 g     F .text	00000016 ATT_BuildExchangeMTURsp
00003b4c g     F .text	000002ce Peripheral_ProcessEvent
0000f494 g     F .text	000000cc SM_StartPairing
0000a01a g     F .text	0000019c gattServApp_ProcessFindByTypeValueReq
0001f5e0 g     O .text	00000002 appearanceUUID
0000549a g     F .text	00000004 tmos_snv_compact
0000d062 g     F .text	0000003a smpBuildIdentityAddrInfo
00007da6 g     F .text	0000002e GAP_PeriConnRegister
00004512 g     F .text	0000001c tmos_revmemcpy
20003a86 g     F .highcode	00000028 mDelaymS
0001ab88 g     F .text	000000d0 GAPRole_ParamInit
00005bac g     F .text	00000028 gapIncSignCounter
00015c16 g     F .text	00000114 ll_multi_states_process
20004f2c g     O .bss	00000001 for_uart_rx_black_hole
0001339e g     F .text	0000001c LL_SendAck
00005fd0 g     F .text	00000084 gapSendLinkUpdateEvent
20004f1c g     O .bss	00000004 OpParaDataLen
000054c4 g     F .text	0000000a ATT_ParamInit
20005030 g     O .bss	00000002 l2cap_head_length
0000de4a g     F .text	00000024 sm_xor
0001ec26 g     F .text	00000010 _isatty
0000fd0e g     F .text	00000226 HOST_RecvDataPackets
0001f610 g     O .text	00000004 _global_impure_ptr
0000891a g     F .text	00000136 GATT_ProcessEvent
20003b7e g     F .highcode	00000048 FLASH_ROM_ADDR
00007dd4 g     F .text	000000c0 GAP_PeriDevMgrInit
000187bc g     F .text	00000004 HCI_ReadRemoteVersionInfoCback
000180f8 g     F .text	0000013e LL_ConnUpdate
00017ce6 g     F .text	00000048 LL_SetScanRspData
000187c8 g     F .text	00000004 HCI_NumberOfCompletedPacketsCback
00005818 g     F .text	00000058 sendTerminateEvent
0000ff58 g     F .text	00000004 HCI_LE_SetAdvParamCmd
20004f7c g     O .bss	00000004 pEstLink
0001caa8 g     F .text	00000398 .hidden __udivdi3
000088e4 g     F .text	00000006 GATT_RegisterForPeriMsgs
0001878e g     F .text	00000004 HCI_LE_LongTermKeyRequestCback
00006790 g     F .text	0000008e GAP_TerminateLinkReq
00010a98 g     F .text	0000012c LL_GetNextConnectEventTime
000187d0 g     F .text	00000004 HCI_EncryptionKeyRefreshCompleteCback
20005038 g     O .bss	00000004 llRecvDataDisable
2000489e g     F .highcode	00000082 RF_HopGetChannel
0001766e g     F .text	00000022 API_LE_CreateConnCancelCmd
00018468 g     F .text	000000ba LL_LtkReqReply
20004f0c g     O .bss	00000004 EraseAdd
0001ec56 g     F .text	00000030 _sbrk
20004ec8 g     O .data	00000002 gapRole_MinConnInterval
00017606 g     F .text	00000022 API_LE_SetScanRspDataCmd
0000aff8 g     F .text	00000058 l2capFreePendingPkt
20004ef5 g     O .bss	00000001 halTaskID
0000db32 g     F .text	00000082 setupInitiatorKeys
0000f138 g     F .text	00000054 SM_CalcRandomAddr
0000639e g     F .text	00000050 GAP_PasscodeUpdate
00015eaa g     F .text	00000050 BLE_ADCTune
00005c1c g     F .text	000000a8 gapProcessDisconnectCompleteEvt
0000e22e g     F .text	0000002e leftshift_onebit
20003b32 g     F .highcode	00000010 Main_Circulation
2000503c g     O .bss	00000004 pfnConnectEventCBs
0000e9ce g     F .text	0000002a smpParseEncInfo
20004f68 g     O .bss	00000004 fnGetClockCBs
2000502e g     O .bss	00000002 l2cap_fragment_length
00004a4e g     F .text	000001a4 BLE_LibInit
00015faa g     F .text	00000058 LLE_DevInit
00015a36 g     F .text	00000036 ll_tx_set_wait_finish
00017558 g     F .text	00000024 API_ReadBDADDRCmd
000118b2 g     F .text	00000010 LL_CoreInit
20005040 g     O .bss	00000002 CrcErrorCount
200050fc g     O .bss	00000004 MemCtlStart
20004920 g     F .highcode	00000030 RFEND_WaitTune
0001b362 g     F .text	0000005a ATT_ParseReadByTypeReq
00018522 g     F .text	0000004a LL_LtkReqNegReply
0000ddc4 g     F .text	00000006 smUint8ToAuthReq
0000454c g     F .text	0000002a tmos_set_event
20004854 g     F .highcode	0000004a LLE_IRQLibFunction
0000dbb4 g     F .text	0000005e smNextPairingState
0001f590 g     O .text	00000002 devInfo11073CertUUID
00015a6c g     F .text	00000028 ll_rx_wait_pkt_recv
00013584 g     F .text	000000d2 LL_RxLenUpdate
0000b28c g     F .text	0000000a L2CAP_GetMTU
0001c610 g     F .text	00000012 ll_resolvinglist_renew_set
0000f698 g     F .text	000000c6 HOST_LE_ConnectionCompleteEvent
20004ed8 g     O .bss	00000002 Int32K_Tune_FLASH
20003aae g     F .highcode	00000016 RTC_IRQHandler
0001b128 g     F .text	00000024 ATT_BuildFindInfoRsp
20007a04 g       .bss	00000000 _ebss
0000c30a g     F .text	0000010c l2capSendSegment
000130a4 g     F .text	00000050 LL_SlaveFeatureReq
0001f604 g     O .text	00000002 primaryServiceUUID
0001757c g     F .text	00000024 API_LE_ReadBufSizeCmd
00002c32 g     F .text	0000002a UART3_INTCfg
0000a8f6 g     F .text	000000fe GATT_InitServer
0001879e g     F .text	00000016 HCI_LE_EnhancedConnectionCompleteCback
20005018 g     O .bss	00000004 pSmGenKey
0001c038 g     F .text	0000042e ll_advertise_process
0001750c g     F .text	00000016 API_DisconnectCmd
0000725c g     F .text	000000a2 gapFreeScanRecs
000117f8 g     F .text	00000030 LL_CoreDataListFree
0000d5aa g     F .text	00000038 smPairingSendIdentityAddrInfo
000136c6 g     F .text	00000598 LL_ProcessTMOSReportMsg
0000610c g     F .text	0000003e gapProcessNewAddr
000103c6 g     F .text	00000020 ll_connect_get_slave_number
0001965e g     F .text	000000b2 GAPBondMgr_LinkTerm
0000c95c g     F .text	00000016 L2CAP_ConnParamUpdateReq
00002b9e g     F .text	00000032 UART1_DefInit
0000c7ec g     F .text	00000062 l2capBuildCmdReject
00007906 g     F .text	00000050 gapSendMakeDiscEvent
20004226 g     F .highcode	0000004e ll_connect_process_data
0000d59a g     F .text	00000010 smPairingSendEncInfo
0000faee g     F .text	00000050 HOST_EncryptionChangeEvent
00006f9e g     F .text	00000038 gapCancelLinkReq
0001b158 g     F .text	0000001c ATT_BuildReadByTypeRsp
00012dc2 g     F .text	0000008c LL_EncReq
0000a7b4 g     F .text	0000007c GATTServApp_RegisterService
000081a2 g     F .text	0000017a GGS_ParamInit
00015a94 g     F .text	00000034 ll_multi_states_check
000032e4 g     F .text	00000034 HAL_Init
20003bc6 g     F .highcode	00000038 FLASH_ROM_WAIT
0000587c g     F .text	00000006 gapRegisterPeripheral
00015ac8 g     F .text	0000005e ble_ll_hw_api_shut
00019710 g     F .text	000000f4 GAPBondMgr_ResolveAddr
20004ca4 g     O .data	0000000c ble_uart_ProfileCBs
0000fb98 g     F .text	00000062 HOST_CommandCompleteEvent
0001ca7c g     F .text	0000002c .hidden __lshrdi3
20005071 g     O .bss	00000001 nGA2480
20005048 g     O .bss	00000004 gptrAESReg
00002fe4 g     F .text	00000056 SimpleProfile_GetParameter
000058de g     F .text	00000036 gapL2capConnParamUpdateReq
00013c5e g     F .text	0000009c LL_ScanToStandby
00005a52 g     F .text	0000004c GAP_ParamsInit
0000ff34 g     F .text	00000004 HCI_DisconnectCmd
00008d20 g     F .text	0000004c gattServApp_ClearPrepareWriteQ
00016476 g     F .text	00000176 RFEND_DevInit
200050f0 g     O .bss	00000004 gapRole_state
00005882 g     F .text	00000006 gapRegisterPeripheralConn
0000faa6 g     F .text	00000048 HOST_DisconnectionCompleteEvent
0001c8a0 g     F .text	00000012 LL_ResolvinglistInit
0001f4e4 g     O .text	00000020 __sf_fake_stderr
00017522 g     F .text	00000002 API_MD_DisconnectCmd
00008eb0 g     F .text	0000001c gattFindService
0001b186 g     F .text	0000001c ATT_BuildReadByGrpTypeRsp
20007a04 g       .bss	00000000 end
000035a6 g     F .text	00000026 app_drv_fifo_init
000063ee g     F .text	0000000a GAP_RegisterForMsgs
0001b4f8 g     F .text	00000042 ATT_ReadByGrpTypeRsp
0000e25c g     F .text	00000038 padding
0000cf36 g     F .text	0000004a linkDB_NeedSendKey
200038b6  w      .highcode	00000000 UART2_IRQHandler
000059b8 g     F .text	0000009a GAP_SecParamsInit
0000c4e6 g     F .text	0000003e l2capSendPkt
200038b2  w      .highcode	00000000 PWMX_IRQHandler
20004f48 g     O .bss	00000004 msg_qHead
00003e20 g     F .text	00000050 SwitchImageFlag
00009968 g     F .text	00000074 GATT_Notification
0000bf84 g     F .text	0000009a l2capFreeTxSDU
0001f598 g     O .text	00000002 devInfoHardwareRevUUID
00005576 g     F .text	00000006 ATT_RegisterServer
000102e8 g     F .text	00000028 LL_ConnectFlowcontrolTx
0001f138 g     O .text	00000010 const_Rb
20004af0 g     O .data	0000000c OTAProfileCBs
00006200 g     F .text	000000da GAP_Authenticate
00001004 g     O .init	00000004 Image_Flag
00003706 g     F .text	0000004e app_drv_fifo_read_to_same_addr
200041a2 g     F .highcode	00000018 RTC_Get32KClock
0000e010 g     F .text	000001f6 smResponderProcessLTKReq
0001b616 g     F .text	00000032 ATT_HandleValueNoti
20004f52 g     O .bss	00000002 Tune32K_RAM
00008ba4 g     F .text	00000018 GATTServApp_ReadCharCfg
00009b08 g     F .text	000000c2 GATT_FindNextAttr
000133ba g     F .text	000000f8 LL_RxConnParamReq
0001d886 g     F .text	00000076 .hidden __clzsi2
00017762 g     F .text	00000030 API_LE_LtkReqNegReplyCmd
0001e338 g     F .text	00000044 __sfputs_r
2000506c g     O .bss	00000001 nCO2401
20005058 g     O .bss	00000004 gPaControl
0001b67a g     F .text	0000003c ll_get_prime_number
0000c524 g     F .text	0000008a L2CAP_SendData
0000c196 g     F .text	00000100 l2capEncapSendData
0001ebb4 g     F .text	0000001a memchr
0000cc36 g     F .text	00000048 linkDB_Remove
0000863a g     F .text	00000032 gattStopTimer
000132ae g     F .text	00000082 LL_LengthReq
20005012 g     O .bss	00000001 nextIdx
0001e17a g     F .text	000000b0 _free_r
20004eb8 g     O .data	00000001 gapBond_Auto
0000ffb4 g     F .text	0000004c HCI_ValidConnTimeParams
0000566a g     F .text	000000b6 attSendMsg
20004ffd g     O .bss	00000001 l2capId
00008564 g     F .text	00000080 gattNotifyEvent
000177c2 g     F .text	00000032 API_LE_RemoteConnParamReqNegReplyCmd
20005001 g     O .bss	00000001 l2capNumCoChannels
0001ad68 g     F .text	00000298 GAPRole_SetParameter
00008cea g     F .text	00000036 GATTServApp_SendServiceChangedInd
00008c58 g     F .text	00000034 gattServApp_WriteAttrCB
00003e1a g     F .text	00000006 OTA_IAP_CMDErrDeal
00001000 g       .init	00000000 _start
0001b180 g     F .text	00000006 ATT_BuildReadMultiRsp
0000ff80 g     F .text	00000010 HCI_LE_StartEncyptCmd
000161de g     F .text	000001ec RF_Rx
00009662 g     F .text	00000094 GATT_FindHandleUUID
0001b44c g     F .text	0000002a ATT_ParseReadBlobReq
20004ddc g     O .data	0000000c smInitiatorCBs
0001b8a0 g     F .text	00000152 llAdvertiseSet
0001a7f4 g     F .text	000001b0 GAPRole_PeripheralProcessEvent
0000af16 g     F .text	00000044 l2capFindRemoteCID
20005054 g     O .bss	00000002 cfo_comp
0001ec36 g     F .text	00000010 _lseek
0001c864 g     F .text	0000003c LL_ResolvinglistPeerRpaAddressGetIrk
20004f70 g     O .bss	00000004 attServerNotifyTxCB
0000ffa8 g     F .text	00000004 HCI_LE_SetAddressResolvableEnableCmd
00015664 g     F .text	00000012 LL_WhitelistInit
0000404a g     F .text	00000036 ReadImageFlag
0000cd48 g     F .text	00000046 linkDB_PeripheralLinkNum
0000f98a g     F .text	0000011c HOST_LE_EnhancedConnectionCompleteEvent
2000786c g     O .bss	00000030 linkCBs
0001d656 g     F .text	000000c6 .hidden __floatsisf
00005870 g     F .text	00000006 gapRegisterCentral
00015efa g     F .text	000000b0 BLE_IPCoreInit
000176b4 g     F .text	00000024 API_LE_AddWhiteListCmd
00006762 g     F .text	0000002a GAP_TerminateAuth
00018628 g     F .text	00000054 LL_SetAddressResolvableEnable
0000ee16 g     F .text	000000d6 smpResponderProcessPairingReq
0000e660 g     F .text	0000001a smpBuildSecurityReq
00015676 g     F .text	000001a6 AES_DevAESEnc
200038b0  w      .highcode	00000000 ADC_IRQHandler
00005f48 g     F .text	00000088 gapSendDeviceInitDoneEvent
0000f18c g     F .text	000000da SM_GenerateAuthenSig
00004122 g     F .text	0000003e tmos_msg_allocate
0001f60c g     O .text	00000002 serviceChangedUUID
0000b34e g     F .text	00000030 L2CAP_RegisterApp
0000d5e2 g     F .text	00000010 smPairingSendIdentityInfo
0000cc7e g     F .text	00000018 linkDB_Role
20003800 g       .highcode	00000000 _highcode_vma_start
000044b2 g     F .text	0000003c tmos_memdup
0000386c g     F .text	00000080 app_uart_init
0000fc42 g     F .text	0000003e HOST_DataBufferOverflowEvent
000038ec g     F .text	0000001e app_uart_tx_data
00012ea6 g     F .text	00000022 LL_StartEncReq
00015892 g     F .text	00000072 AES_DevPktDec
20005050 g     O .bss	00000004 gptrDMAReg
0000b8ac g     F .text	0000008c l2capParsePacket
000088ea g     F .text	00000030 GATT_Init
200077d4 g     O .bss	00000020 gapParams
20004f4c g     O .bss	00000004 EventsArr
00003644 g     F .text	00000060 app_drv_fifo_write_from_same_addr
200038a8  w      .highcode	00000000 TMR2_IRQHandler
0000cf80 g     F .text	0000001a smpBuildPairingFailed
0000ff60 g     F .text	00000004 HCI_LE_SetScanRspDataCmd
0001a344 g     F .text	000001f8 GAPBondMgr_ProcessEvent
000131a0 g     F .text	000000a0 LL_ConnectionParamRsp
0000bdb2 g     F .text	000000a4 l2capNotifyCreditEvt
20004f10 g     O .bss	00000004 EraseBlockCnt
0000fcca g     F .text	00000044 HOST_NumberOfCompletedPacketsEvent
00005e4e g     F .text	00000092 gapSendPairingReqEvent
200050ce g     O .bss	00000001 gapRole_AdvDirectType
0000bf52 g     F .text	00000032 l2capStoreFCPkt
200041ba g     F .highcode	0000006c SYS_GetTickCount
00004bf2 g     F .text	00000024 ble_ll_common_rand8
0000df8a g     F .text	00000086 sm_s1
0000a882 g     F .text	00000074 gattServApp_HandleConnStatusCB
20005000 g     O .bss	00000001 l2capNumChannels
0001f5d0 g     O .text	00000002 ble_uart_TxCharUUID
00017d2e g     F .text	0000010c LL_SetAdvControl
0001eaee g     F .text	00000030 _close_r
20004ab0 g       .data	00000000 _data_vma
0000ec20 g     F .text	0000002a smpParseSigningInfo
0000c63c g     F .text	000000c8 l2capSendReq
00005dde g     F .text	00000070 gapSendBondCompleteEvent
0000da1e g     F .text	0000003e smGeneratePairingReqRsp
20005068 g     O .bss	00000004 gptrRFENDReg
0001b476 g     F .text	00000030 ATT_ReadBlobRsp
200050ec g     O .bss	00000004 gapRole_signCounter
0000d49c g     F .text	0000003a smStartRspTimer
20003906 g     F .highcode	000000fc SetSysClock
20005004 g     O .bss	00000001 l2capNumRecvDataPkts
0001f5d4 g     O .text	00000004 Address
0001878a g     F .text	00000004 HCI_LE_ReadRemoteUsedFeaturesCompleteCback
200038a4  w      .highcode	00000000 USB_IRQHandler
00015518 g     F .text	0000004e LL_WhitelistLookup
0001c8b2 g     F .text	0000009c LL_AddrGenerateResolvableAddress
20007954 g     O .bss	000000ac gBleLlPara
0001db98 g     F .text	0000010c __swsetup_r
0001199c g     F .text	00000006 LL_HopInit
000075b6 g     F .text	000000fe gapProcessScanningDirectEvt
0000a2fc g     F .text	0000021c gattServApp_ProcessReadByGrpTypeReq
00002f58 g     F .text	0000008c SimpleProfile_SetParameter
0001df70 g     F .text	000000a4 __sfp
000159c2 g     F .text	0000004c DMA_DevInit
0001b4a6 g     F .text	0000001a ATT_ParseReadMultiReq
00012eea g     F .text	00000026 LL_UnknowRsp
20004ec6 g     O .data	00000002 gapRole_MaxConnInterval
20007934 g     O .bss	00000010 gapRole_IRK
0000f888 g     F .text	00000060 HOST_LE_RemoteConnectionParameterRequestEvent
0001ce40 g     F .text	000004b4 .hidden __muldf3
000063fc g     F .text	00000188 gapPairingCompleteCB
0001e9fe g     F .text	00000030 __sread
00005914 g     F .text	00000016 gapValidADType
20005084 g     O .bss	00000007 gapBondSignAddr
00013684 g     F .text	00000042 LL_ReportGenerateEvent
0001ebce g     F .text	00000002 __malloc_lock
000034dc g     F .text	00000056 ble_uart_add_service
00013266 g     F .text	0000002e LL_PingReq
0000f8e8 g     F .text	00000042 HOST_RemoteConnectionParameterRequestEvent
20005f24 g     O .bss	00001800 MEM_BUF
0000d5f2 g     F .text	00000038 smPairingSendMasterID
00005876 g     F .text	00000006 gapRegisterCentralConn
200078b8 g     O .bss	00000020 rfConfig
0001dde0 g     F .text	00000066 _fflush_r
000187da g     F .text	0000000a GAPRole_BroadcasterSetCB
0000866c g     F .text	00000030 GATT_AppCompletedMsg
0001f504 g     O .text	00000020 __sf_fake_stdin
00005bd4 g     F .text	00000048 gapProcessConnEvt
000044ee g     F .text	00000024 tmos_memcmp
0000235e g     F .text	000000a8 memset
0001c812 g     F .text	00000052 LL_ResolvinglistPeerIdentifyAddressGetIrk
2000505c g     O .bss	00000004 gptrLLEReg
00004080 g     F .text	00000058 main
00012d8e g     F .text	00000034 LL_TerminateInd
000110d2 g     F .text	0000048c ll_connect_process_event
0000840e g     F .text	000000d8 GAP_DeviceInit
20004c38 g     O .data	0000000c devInfoCBs
20004f50 g     O .bss	00000002 Tune32K_FLASH
00019da2 g     F .text	00000090 GAPBondMgr_ServiceChangeInd
00013240 g     F .text	00000026 LL_RejectIndExt
00009400 g     F .text	0000010e gattServApp_ProcessPrepareWriteReq
00017ab4 g     F .text	00000028 LL_MD_Disconnect
000140be g     F .text	000000f6 llSlaveCreateCore
0000549e g     F .text	00000026 ATT_BuildErrorRsp
20004e78 g     O .data	00000001 Peripheral_TaskID
0000b526 g     F .text	000000e4 L2CAP_ProcessEvent
20005098 g     O .bss	00000001 gapBond_Invalid
000187d6 g     F .text	00000004 HCI_RxDataCompleteCback
00004e32 g     F .text	000000ae tmos_snv_clear
00008bbc g     F .text	0000003c GATTServApp_WriteCharCfg
20005074 g     O .bss	00000004 pGapRoles_AppCGs
000187c0 g     F .text	00000004 HCI_CommandCompleteCback
00016146 g     F .text	00000098 RF_FrequencyHoppingChange
00018796 g     F .text	00000004 HCI_RemoteConnectionParameterRequestCback
0001eab2 g     F .text	00000006 __sclose
000068b0 g     F .text	00000588 GAP_ProcessEvent
0001561a g     F .text	0000004a LL_WhitelistClearAll
00012fd0 g     F .text	00000022 LL_PauseEncRsp
0001d71c g     F .text	0000016a .hidden __truncdfsf2
0001b4c0 g     F .text	00000038 ATT_ReadMultiRsp
0001e22a g     F .text	000000e4 _malloc_r
20007944 g     O .bss	00000010 gapRole_SRK
00008c8c g     F .text	0000005e GATTServApp_SendCCCUpdatedEvent
200049f6 g     F .highcode	000000b8 tmos_memory_free
00017732 g     F .text	00000030 API_LE_LtkReqReplyCmd
20004fac g     O .bss	00000004 pGapDiscReq
00017c9e g     F .text	00000048 LL_SetAdvData
00012ff2 g     F .text	0000008c LL_VersionInd
0000afa4 g     F .text	00000028 l2capDisconnectChannel
0001764a g     F .text	00000024 API_LE_SetScanEnableCmd
000035d2 g     F .text	00000072 app_drv_fifo_write
00018034 g     F .text	0000003a LL_RemoteConnParamReqNegReply
00015e48 g     F .text	00000062 BLE_RegInit
20004f44 g     O .bss	00000004 uart_to_ble_send_evt_cnt
0000492c g     F .text	000000ea TMOS_Init
00019f16 g     F .text	00000154 GAPBondMgr_LinkEst
0000a518 g     F .text	000001ae gattServApp_ProcessReadByTypeReq
00017840 g     F .text	00000026 API_LE_SetAddressResolvableEnableCmd
00017a76 g     F .text	0000003e LL_Disconnect
00019804 g     F .text	00000520 GAPBondMgr_SetParameter
000192da g     F .text	000001e2 GAPBondMgr_ParamInit
0001165c g     F .text	00000036 LL_CoreGetDataList
00004672 g     F .text	0000008e tmos_start_task
0001f5cc g     O .text	00000002 ble_uart_ServiceUUID
00002d86 g     F .text	0000002c OTAProfile_SendData
00017690 g     F .text	00000024 API_LE_ClearWhiteListCmd
0000869c g     F .text	0000004e GATT_NotifyEvent
200050d4 g     O .bss	00000004 gapRole_AdvertData
00010000 g     F .text	00000016 ll_connect_auth_timeout
200077a0 g     O .bss	00000034 gapParameters
00005514 g     F .text	00000062 ATT_CompareUUID
0001d364 g     F .text	00000290 .hidden __mulsf3
20005042 g     O .bss	00000002 md_timeout
0001f5f4 g     O .text	00000002 deviceNameUUID
0001879a g     F .text	00000004 HCI_LE_DataLengthChangeCback
00010d2c g     F .text	00000348 ll_connect_action_in_connintervaltimeout
00003318 g     F .text	0000005e HAL_TimeInit
000026b2 g     F .text	0000023e Calibration_LSI_RAM
0001f5a8 g     O .text	00000002 devInfoSerialNumberUUID
0001f5ec g     O .text	00000002 characterUUID
0001048e g     F .text	00000086 ll_connect_get_update_point
20004ebd g     O .data	00000001 gapBond_Erase
00012e4e g     F .text	00000058 LL_EncRsp
0001b1a2 g     F .text	00000030 ATT_BuildPrepareWriteRsp
00001008 g       .highcodelalign	00000000 _highcode_lma
0000d566 g     F .text	00000034 smGenerateRandMsg
0000ba9a g     F .text	00000150 l2capProcessRsp
0000e206 g     F .text	00000028 xor_128
0001793c g     F .text	0000013a LL_TransmitterTest
0000cc04 g     F .text	0000000a linkDB_NumConns
0001771a g     F .text	00000018 API_LE_StartEncryptCmd
000187b4 g     F .text	00000004 HCI_DisconnectionCompleteCback
0000aeaa g     F .text	00000038 l2capFindLocalId
00004314 g     F .text	00000178 tmos_query_sleep_time
0001d9b2 g     F .text	00000040 iprintf
20004e88 g     O .data	00000001 CurrImageFlag
2000508b g     O .bss	00000001 gapBondSign_Valid
0001f5a4 g     O .text	00000002 devInfoPnpIdUUID
000047dc g     F .text	00000042 tmos_stop_task
0000b3d2 g     F .text	00000154 L2CAP_Init
0000ca68 g     F .text	00000034 linkDB_Find
20004eda g     O .bss	00000002 Int32K_Tune_RAM
00017b00 g     F .text	00000020 LL_LE_ReadBufSize
0000c84e g     F .text	00000028 l2capBuildDisconnectRsp
0001f3e4 g     O .text	00000100 .hidden __clz_tab
200038a2  w      .highcode	00000000 LLE_IRQHandler
0000ccee g     F .text	0000005a linkDB_PerformFunc
00001000 g       .init	00000000 _sinit
0000a854 g     F .text	00000006 GATTServApp_RegisterForMsg
00017890 g     F .text	00000052 CreatePRBS9
0001c466 g     F .text	0000001a LL_AdvertiseDirectTimeout
0001eab8 g     F .text	00000036 _write_r
0000ff3c g     F .text	00000010 HCI_HostNumCompletedPktCmd
0001b14c g     F .text	0000000c ATT_BuildFindByTypeValueRsp
0000b730 g     F .text	000000fc l2capProcessConnectReq
0000ea2c g     F .text	0000002a smpParseIdentityInfo
00008ee4 g     F .text	00000018 GATT_ServiceEncKeySize
0001f5ac g     O .text	00000002 devInfoServUUID
0001c4c6 g     F .text	00000094 LL_InitiateToStandby
0000d170 g     F .text	00000030 smpBuildSigningInfo
0001439a g     F .text	00000022 ll_hw_timer_slave_recv_timeout
0000ea56 g     F .text	0000003c smpParseMasterID
0001f5c0 g     O .text	00000002 ble_uart_RxCharUUID
00005b9e g     F .text	0000000e gapGetSignCounter
20004f60 g     O .bss	00000004 taskHead
0001e618 g     F .text	0000010c _printf_common
0000ff9c g     F .text	00000004 HCI_LE_RemoteConnParamReqNegReplyCmd
000086ea g     F .text	00000006 gattRegisterServer
20004ecc g     O .data	00000004 _impure_ptr
0000c5ae g     F .text	0000008e l2capSendCmd
0000cbb6 g     F .text	00000018 linkDB_MTU
0001c5c6 g     F .text	0000004a ll_resolvinglist_renew_rpa
0001dca4 g     F .text	0000013c __sflush_r
0001b070 g     F .text	00000066 tmos_memory_init
0001b2a8 g     F .text	00000078 ATT_ParseFindByTypeValueReq
00008bf8 g     F .text	00000060 GATTServApp_ProcessCCCWriteReq
200050ea g     O .bss	00000001 gapRole_profileRole
0001b1f0 g     F .text	0000001c ATT_ParseExchangeMTUReq
0000ffa4 g     F .text	00000004 HCI_LE_ClearResolvingList
0000dcf8 g     F .text	00000038 smSendFailAndEnd
0000592a g     F .text	0000008e gapFindADType
20005044 g     O .bss	00000002 reSendCount
000176f6 g     F .text	00000024 API_LE_RandCmd
0001b5f6 g     F .text	00000014 ATT_ParseExecuteWriteReq
0001f5f0 g     O .text	00000002 clientCharCfgUUID
0001666c g     F .text	00000154 RFEND_RXAdc
0000fc80 g     F .text	0000004a HOST_EncryptionKeyRefreshCompleteEvent
0000b140 g     F .text	0000001e l2capStopTimer
0001f5a0 g     O .text	00000002 devInfoModelNumberUUID
000086f0 g     F .text	0000005c GATT_UpdateMTU
0000bbea g     F .text	000000f8 l2capProcessRxData
00018288 g     F .text	00000036 LL_Rand
00003532 g     F .text	0000001c ble_uart_notify_is_ready
00002d60 g     F .text	00000018 OTAProfile_AddService
00015b26 g     F .text	000000f0 ble_ll_hw_api_rx
200038ba  w      .highcode	00000000 WDOG_BAT_IRQHandler
00002f48 g     F .text	00000010 DevInfo_AddService
20004606 g     F .highcode	00000056 ll_rx_wait_tx_dma
0000c416 g     F .text	000000d0 l2capSendNextSegment
0000eeec g     F .text	0000024c smpResponderProcessIncoming
0000ffac g     F .text	00000004 HCI_LE_SetResolvableAddressTimeoutCmd
00006e56 g     F .text	00000148 gapCentProcessConnEvt
0000b6c4 g     F .text	0000004e L2CAP_ParseParamUpdateReq
0000f560 g     F .text	00000138 SM_VerifyAuthenSig
200038b4  w      .highcode	00000000 TMR3_IRQHandler
20004eca g     O .data	00000001 gapRole_TaskID
0001016c g     F .text	0000002e ll_connect_init_pingOffset
0000303a g     F .text	00000030 Lib_Calibration_LSI
0000aa28 g     F .text	00000366 GATTServApp_ProcessEvent
0000eb08 g     F .text	00000118 smpParsePairingReq
20008000 g       .stack	00000000 _eusrstack
20004566 g     F .highcode	00000066 ll_tx_wait_tx_dma
0000da6a g     F .text	00000068 smFreePairingParams
00017e3a g     F .text	00000094 LL_SetScanEnable
0000b696 g     F .text	0000002e l2capParseDisconnectRsp
000107ce g     F .text	00000226 ll_connect_change_connect_point
0000e4d2 g     F .text	000000c6 smpBuildPairingReqRsp
00007022 g     F .text	0000023a gapProcessAdvertDevInfo
20003896  w      .highcode	00000000 SW_Handler
0000d800 g     F .text	0000021e smResponderSendNextKeyInfo
0001006c g     F .text	0000003c ll_connect_set_procedure_timeout
0001b5c6 g     F .text	00000030 ATT_PrepareWriteRsp
200050dc g     O .bss	00000004 gapRole_ScanRspData
0001c67a g     F .text	00000146 LL_ResolvinglistAdd
00002a24 g     F .text	000000a6 GPIOA_ModeCfg
20003f6c g     F .highcode	0000001c tmos_memcpy_word
000040d8 g     F .text	0000001e tmos_msg_enqueue
20004ffe g     O .bss	00000002 l2capMtuSize
20007724 g     O .bss	0000003c ble
00009a7c g     F .text	00000056 GATT_VerifyPrepareWritePermissions
200050d0 g     O .bss	00000001 gapRole_AdvFilterPolicy
20005064 g     O .bss	00000001 gModeAdc
0001788c g     F .text	00000004 API_SendDataPkt
0001e080 g     F .text	0000005a __swhatbuf_r
0000ad8e g     F .text	000000e8 l2capAllocConnChannel
20004f42 g     O .bss	00000001 uart_rx_flag
0001f34c g     O .text	00000017 PrimeNumber
0001bfb6 g     F .text	00000082 LL_AdvertiseToStandby
00002b0c g     F .text	0000001c SYS_DisableAllIrq
2000506d g     O .bss	00000001 nCO2440
00004c5a g     F .text	000000c0 ll_hw_temp_sample
00002aca g     F .text	00000042 GetSysClock
0000c9c2 g     F .text	000000a6 linkDB_Init
00008f70 g     F .text	00000098 gattServerHandleConnStatusCB
0000b15e g     F .text	000000ec l2capDisconnectAllChannels
00010514 g     F .text	000000f0 ll_master_check_connect_point
0000ff90 g     F .text	00000004 HCI_LE_LtkReqReplyCmd
0001155e g     F .text	000000e2 LL_ConnectShut
0001f5fc g     O .text	00000002 gattServiceUUID
0001b256 g     F .text	00000052 ATT_FindInfoRsp
2000506f g     O .bss	00000001 nGA2401
0000b668 g     F .text	0000002e l2capParseDisconnectReq
00002b46 g     F .text	00000028 _write
20004ed8 g       .data	00000000 _edata
00013656 g     F .text	0000002e LL_RxVersionExchange
2000389e  w      .highcode	00000000 SPI0_IRQHandler
000176d8 g     F .text	0000001e API_LE_ConnUpdateCmd
2000783c g     O .bss	00000030 l2capFixedChannels
0001c55a g     F .text	0000006c ll_resolvinglist_checkRPA
00017524 g     F .text	00000034 API_HostNumCompletedPktCmd
200050e4 g     O .bss	00000006 gapRole_bdAddr
0001aa0e g     F .text	0000006a GAPRole_PeripheralStartDevice
000134b2 g     F .text	000000d2 LL_RxConnParamRsp
00010016 g     F .text	00000056 ll_connect_set_auth_timeout
0000b24a g     F .text	0000003c l2capHandleConnStatusCB
0000c01e g     F .text	00000178 l2capReassembleSegment
000040f6 g     F .text	0000002c tmos_msg_deallocate
20004ab0 g       .highcode	00000000 _highcode_vma_end
000042c0 g     F .text	00000054 tmos_rand
00015d2a g     F .text	0000011e ll_hw_api_tx_direct_test
20004fd8 g     O .bss	00000004 pfnServerProcessMsgCB
00007af0 g     F .text	000000f8 GAP_MakeDiscoverable
0000e790 g     F .text	0000023e smpInitiatorProcessIncoming
0001f040 g     O .text	00000060 serverReqTbl
20004f54 g     O .bss	00000004 cbTimersHead
0000242e g     F .text	00000284 Calibration_LSI_FLASH
0001f600 g     O .text	00000002 periConnParamUUID
0001f614 g       .dlalign	00000000 _data_lma
00004644 g     F .text	0000002e tmos_clear_event
000030c6 g     F .text	00000072 HAL_GetInterTempValue
0001109e g     F .text	00000034 ll_connect_supervision_timeout
20004ec1 g     O .data	00000001 gapBond_Valid
0000b37e g     F .text	0000002a L2CAP_SetBufSize
00007cea g     F .text	000000bc GAP_UpdateAdvertisingData
0000614a g     F .text	000000b6 gapProcessRandomAddrComplete
0000d140 g     F .text	00000030 smpBuildPairingRandom
0001ea2e g     F .text	0000004e __swrite
0001f148 g     O .text	00000010 SCA
20004ec2 g     O .data	00000001 gapCentralTaskID
000187d4 g     F .text	00000002 HCI_AuthenticatedPayloadTimeoutExpiredCback
0000678c g     F .text	00000004 GAP_NumActiveConnections
000103e6 g     F .text	000000a8 ll_connect_update_get_offset
0001e37c g     F .text	0000029c _vfiprintf_r
00010604 g     F .text	000001ca ll_slave_check_connect_point
000095be g     F .text	000000a4 GATT_Indication
0001b0d6 g     F .text	0000003c tmos_bm_adjust_header
0000481e g     F .text	0000005c tmos_stop_callback_task
0001e014 g     F .text	0000006c _fwalk_reent
00012ec8 g     F .text	00000022 LL_StartEncRsp
20004f14 g     O .bss	00000004 EraseBlockNum
000194bc g     F .text	0000007a GAPBondMgr_Erase
0000ff74 g     F .text	00000004 HCI_LE_AddWhiteListCmd
0000306a g     F .text	0000001c Lib_Read_Flash
00013294 g     F .text	0000001a LL_PingRsp
0000b286 g     F .text	00000006 l2capHandleRxError
20003f4c g     F .highcode	00000020 tmos_memcpy
000187cc g     F .text	00000004 HCI_DataBufferOverflowCback
0000923a g     F .text	000000a8 GATTServApp_WriteAttr
0000ff68 g     F .text	00000004 HCI_LE_SetScanEnableCmd
00008d9c g     F .text	00000018 gattServApp_FindServiceCBs
0000bd3c g     F .text	00000076 l2capNotifySignal
2000789c g     O .bss	0000001c gBleIPPara
00008f46 g     F .text	0000002a gattFindServerInfo
20005003 g     O .bss	00000001 l2capNumPSM
000035cc g     F .text	00000006 app_drv_fifo_flush
0000d532 g     F .text	00000034 smGenerateConfirm
0001f524 g     O .text	00000020 __sf_fake_stdout
00007be8 g     F .text	00000064 GAP_EndDiscoverable
00002b3c g     F .text	0000000a SYS_GetSysTickCnt
0000390a g     F .text	0000007e on_bleuartServiceEvt
0001c94e g     F .text	0000012e LL_AddrInit
00017bce g     F .text	000000d0 LL_SetAdvParam
0001b60a g     F .text	0000000c ATT_ExecuteWriteRsp
0001ec46 g     F .text	00000010 _read
000022b8  w      .text	00000000 handle_reset
0001a06a g     F .text	000002be GAPBondMgr_ProcessGAPMsg
00012f60 g     F .text	00000042 LL_FeatureRsp
00005610 g     F .text	0000003c ATT_UpdateMTU
00005888 g     F .text	00000056 smGenerateRandBuf
0000de6e g     F .text	0000011c sm_c1new
0001b22c g     F .text	0000002a ATT_ParseFindInfoReq
0000f41c g     F .text	0000005a SM_ResolveRandomAddrs
00004ee0 g     F .text	00000292 tmos_snv_read
0001b41a g     F .text	00000032 ATT_ReadRsp
000084e6 g     F .text	0000007e gattGetPayload
00005ee0 g     F .text	00000068 gapSendSlaveSecurityReqEvent
00011640 g     F .text	0000001c LL_CoreGetCore
00003594 g     F .text	00000012 app_drv_fifo_length
000167c0 g     F .text	00000d38 RFEND_TXCtune
0000b60a g     F .text	0000005e l2capParseCmdReject
0000ed3e g     F .text	000000d8 smProcessTMOSMsg
0000ff5c g     F .text	00000004 HCI_LE_SetAdvDataCmd
0000874c g     F .text	000000e8 GATT_bm_alloc
0001e0da g     F .text	000000a0 __smakebuf_r
0001b53a g     F .text	0000003e ATT_ParseWriteReq
00019e32 g     F .text	0000007e GAPBondMgr_UpdateCharCfg
00003e70 g     F .text	00000006 DisableAllIRQ
0001e724 g     F .text	000002aa _printf_i
000076ca g     F .text	00000098 GAP_CentDevMgrInit
0000b050 g     F .text	00000086 l2capGetCoChannelInfo
000175a0 g     F .text	00000022 API_LE_SetRandomAddressCmd
000101ce g     F .text	0000010e ll_connect_send_data
0000354e g     F .text	00000046 ble_uart_notify
000109f4 g     F .text	000000a4 ll_connect_recv_data
20004f28 g     O .bss	00000001 VerifyStatus
20003ac4 g     F .highcode	0000006e UART3_IRQHandler
0000cea0 g     F .text	0000003a linkDB_GetHandleFromSMEvtID
000028f0 g     F .text	00000134 RTC_InitTime
000048f2 g     F .text	0000000a TMOS_Set32KTuneValue
20005108 g     O .bss	00000004 __malloc_sbrk_start
000187c4 g     F .text	00000004 HCI_CommandStatusCback
20004160 g     F .highcode	00000042 BLE_GetHSEClock
20005d28 g     O .bss	00000010 block_buf
00010388 g     F .text	0000003e LL_ConnectRxPktnumIncrease
0000d0cc g     F .text	00000044 smpBuildMasterID
000099dc g     F .text	0000006a GATT_VerifyWritePermissions
0001b1d2 g     F .text	0000001e ATT_BuildHandleValueInd
000091f0 g     F .text	0000004a GATT_FindHandle
00010bc4 g     F .text	000000e2 LL_ConnectFreeTmosPrioritID
00004916 g     F .text	00000016 TMOS_ProcessRegister
0000ff7c g     F .text	00000004 HCI_LE_RandCmd
000066ac g     F .text	0000004c GAP_SendSlaveSecurityRequest
0001856c g     F .text	000000ac LL_AddDeviceToResolvingList
000031b6 g     F .text	0000012e CH57X_BLEInit
00012fa2 g     F .text	0000002e LL_PauseEncReq
0000e294 g     F .text	000000d0 generate_subkey
20003b54 g     F .highcode	0000000e FLASH_ROM_END
00004160 g     F .text	00000068 tmos_msg_receive
0000eade g     F .text	0000002a smpParsePairingRandom
0000ca9c g     F .text	0000005c linkDB_Authen
200078d8 g     O .bss	0000001c rfInfo
00011732 g     F .text	000000c6 LL_CoreOpen
00018236 g     F .text	00000052 LL_ClearWhiteList
000048fc g     F .text	0000001a TMOS_TimerRegister
00005cc4 g     F .text	0000011a sendAuthEvent
20005104 g     O .bss	00000004 __malloc_free_list
00004700 g     F .text	000000ac tmos_start_callback_task
0000d110 g     F .text	00000030 smpBuildPairingConfirm
0001e37c g     F .text	0000029c _vfprintf_r
2000506e g     O .bss	00000001 nCO2480
0000cf9a g     F .text	00000098 SM_StartEncryption
0001582c g     F .text	00000066 AES_DevPktEnc
20005046 g     O .bss	00000002 recvTimeoutCount
200038a6  w      .highcode	00000000 TMR1_IRQHandler
00010310 g     F .text	00000028 LL_ConnectFlowcontrolRx
00008ecc g     F .text	00000018 GATT_ServiceNumAttrs
00004d1a g     F .text	0000005c TMOS_TimerInit
00010338 g     F .text	00000050 LL_ConnectTxPktnumIncrease
0000e364 g     F .text	0000016e sm_CMAC
0001b20c g     F .text	00000020 ATT_ExchangeMTURsp
00006380 g     F .text	0000001e GAP_GetParamValue
0001781a g     F .text	00000026 API_LE_ClearResolvingList
0000f266 g     F .text	0000002a SM_Init
00019d24 g     F .text	0000007e GAPBondMgr_SlaveReqSecurity
00011d04 g     F .text	00000526 ll_master_action_tx_ready
000074a6 g     F .text	00000110 gapProcessScanningEvt
0000dd70 g     F .text	00000034 smLinkCheck
20005010 g     O .bss	00000002 l2capUserConfig
0001b17a g     F .text	00000006 ATT_BuildReadBlobRsp
00011692 g     F .text	000000a0 LL_CoreDataListInit
0001b7e6 g     F .text	000000ba LL_Init
0000f75e g     F .text	00000060 HOST_LE_ConnectionUpdateCompleteEvent
0000f92a g     F .text	00000060 HOST_LE_DataLengthChangeEvent
0001f5e4 g     O .text	00000002 centAddrResUUID
20004f5c g     O .bss	00000004 pfnTimerCBs
0000beae g     F .text	0000003e l2capNotifyChannelTermEvt
0000421e g     F .text	00000006 tmos_msg_init
20005002 g     O .bss	00000001 l2capNumDataPkts
0000862e g     F .text	0000000c gattStartTimer
00016002 g     F .text	00000144 RF_DevSetChannel
00008ad8 g     F .text	000000cc GATTServApp_ParamInit
20003a02 g     F .highcode	00000038 SYS_ResetExecute
00006054 g     F .text	000000b8 gapSendEstLinkEvent
00003b2a g     F .text	0000000a OTA_IAP_SendData
0001bd82 g     F .text	000000de llAdvertiseStart
0001c622 g     F .text	00000058 ll_resolvinglist_timeout_renew_rpa
0000ff64 g     F .text	00000004 HCI_LE_SetAdvEnableCmd
000093e2 g     F .text	0000001e GATTServApp_UpdateCharCfg
0000b0d6 g     F .text	00000050 l2capNumActiveChannnels
000036a4 g     F .text	00000062 app_drv_fifo_read
0001ec06 g     F .text	00000010 _close
000187b8 g     F .text	00000004 HCI_EncryptionChangeCback
00009eac g     F .text	0000016e gattServApp_ProcessReadMultiReq
0000caf8 g     F .text	0000007e linkDB_FindByAddr
20004f18 g     O .bss	00000004 OpAdd
000072fe g     F .text	00000124 gapSendDevDiscEvent
00004c3a g     F .text	00000020 ble_ll_common_rand32
00017628 g     F .text	00000022 API_LE_SetAdvEnableCmd
0001877c g     F .text	0000000a HCI_LE_ConnectionCompleteCback
0000d63a g     F .text	000001c6 smInitiatorSendNextKeyInfo
00002b6e g     F .text	00000030 UART1_BaudRateCfg



Disassembly of section .init:

00001000 <_sinit>:
_start():
C:\Users\OWNER\Desktop\CH573EVT_Write\EVT\EXAM\BLE\BackupUpgrade_OTA_BLE_UART\obj/../Startup/startup_CH573.S:15

	.section	.init,"ax",@progbits
	.global	_start
	.align	1
_start:
	j	handle_reset
    1000:	2b80106f          	j	22b8 <handle_reset>

00001004 <Image_Flag>:
    1004:	0001f5d4                                ....

Disassembly of section .highcode:

20003800 <_highcode_vma_start>:
	...
_vector_base():
C:\Users\OWNER\Desktop\CH573EVT_Write\EVT\EXAM\BLE\BackupUpgrade_OTA_BLE_UART\obj/../Startup/startup_CH573.S:23
    .align  1
_vector_base:
    .option norvc;
    .word   0
    .word   0
        j   NMI_Handler                 /* NMI Handler */
20003808:	0880006f          	j	20003890 <NMI_Handler>
C:\Users\OWNER\Desktop\CH573EVT_Write\EVT\EXAM\BLE\BackupUpgrade_OTA_BLE_UART\obj/../Startup/startup_CH573.S:24
        j   HardFault_Handler           /* Hard Fault Handler */
2000380c:	22e0006f          	j	20003a3a <HardFault_Handler>
	...
C:\Users\OWNER\Desktop\CH573EVT_Write\EVT\EXAM\BLE\BackupUpgrade_OTA_BLE_UART\obj/../Startup/startup_CH573.S:33
    .word   0
    .word   0
    .word   0
    .word   0
    .word   0
        j   SysTick_Handler            /* SysTick Handler */
20003830:	0640006f          	j	20003894 <SysTick_Handler>
20003834:	0000                	unimp
20003836:	0000                	unimp
C:\Users\OWNER\Desktop\CH573EVT_Write\EVT\EXAM\BLE\BackupUpgrade_OTA_BLE_UART\obj/../Startup/startup_CH573.S:35
    .word   0
        j   SW_Handler                 /* SW Handler */
20003838:	05e0006f          	j	20003896 <SW_Handler>
2000383c:	0000                	unimp
2000383e:	0000                	unimp
C:\Users\OWNER\Desktop\CH573EVT_Write\EVT\EXAM\BLE\BackupUpgrade_OTA_BLE_UART\obj/../Startup/startup_CH573.S:38
    .word   0
    /* External Interrupts */
        j   TMR0_IRQHandler            /* 0:  TMR0 */
20003840:	0580006f          	j	20003898 <TMR0_IRQHandler>
C:\Users\OWNER\Desktop\CH573EVT_Write\EVT\EXAM\BLE\BackupUpgrade_OTA_BLE_UART\obj/../Startup/startup_CH573.S:39
        j   GPIOA_IRQHandler           /* GPIOA */
20003844:	0560006f          	j	2000389a <GPIOA_IRQHandler>
C:\Users\OWNER\Desktop\CH573EVT_Write\EVT\EXAM\BLE\BackupUpgrade_OTA_BLE_UART\obj/../Startup/startup_CH573.S:40
        j   GPIOB_IRQHandler           /* GPIOB */
20003848:	0540006f          	j	2000389c <GPIOB_IRQHandler>
C:\Users\OWNER\Desktop\CH573EVT_Write\EVT\EXAM\BLE\BackupUpgrade_OTA_BLE_UART\obj/../Startup/startup_CH573.S:41
        j   SPI0_IRQHandler            /* SPI0 */
2000384c:	0520006f          	j	2000389e <SPI0_IRQHandler>
C:\Users\OWNER\Desktop\CH573EVT_Write\EVT\EXAM\BLE\BackupUpgrade_OTA_BLE_UART\obj/../Startup/startup_CH573.S:42
        j   BB_IRQHandler              /* BLEB */
20003850:	0500006f          	j	200038a0 <BB_IRQHandler>
C:\Users\OWNER\Desktop\CH573EVT_Write\EVT\EXAM\BLE\BackupUpgrade_OTA_BLE_UART\obj/../Startup/startup_CH573.S:43
        j   LLE_IRQHandler             /* BLEL */
20003854:	04e0006f          	j	200038a2 <LLE_IRQHandler>
C:\Users\OWNER\Desktop\CH573EVT_Write\EVT\EXAM\BLE\BackupUpgrade_OTA_BLE_UART\obj/../Startup/startup_CH573.S:44
        j   USB_IRQHandler             /* USB */
20003858:	04c0006f          	j	200038a4 <USB_IRQHandler>
2000385c:	0000                	unimp
2000385e:	0000                	unimp
C:\Users\OWNER\Desktop\CH573EVT_Write\EVT\EXAM\BLE\BackupUpgrade_OTA_BLE_UART\obj/../Startup/startup_CH573.S:46
        .word   0
        j   TMR1_IRQHandler            /* TMR1 */
20003860:	0460006f          	j	200038a6 <TMR1_IRQHandler>
C:\Users\OWNER\Desktop\CH573EVT_Write\EVT\EXAM\BLE\BackupUpgrade_OTA_BLE_UART\obj/../Startup/startup_CH573.S:47
        j   TMR2_IRQHandler            /* TMR2 */
20003864:	0440006f          	j	200038a8 <TMR2_IRQHandler>
C:\Users\OWNER\Desktop\CH573EVT_Write\EVT\EXAM\BLE\BackupUpgrade_OTA_BLE_UART\obj/../Startup/startup_CH573.S:48
        j   UART0_IRQHandler           /* UART0 */
20003868:	0420006f          	j	200038aa <UART0_IRQHandler>
C:\Users\OWNER\Desktop\CH573EVT_Write\EVT\EXAM\BLE\BackupUpgrade_OTA_BLE_UART\obj/../Startup/startup_CH573.S:49
        j   UART1_IRQHandler           /* UART1 */
2000386c:	0400006f          	j	200038ac <UART1_IRQHandler>
C:\Users\OWNER\Desktop\CH573EVT_Write\EVT\EXAM\BLE\BackupUpgrade_OTA_BLE_UART\obj/../Startup/startup_CH573.S:50
        j   RTC_IRQHandler             /* RTC */
20003870:	23e0006f          	j	20003aae <RTC_IRQHandler>
C:\Users\OWNER\Desktop\CH573EVT_Write\EVT\EXAM\BLE\BackupUpgrade_OTA_BLE_UART\obj/../Startup/startup_CH573.S:51
        j   ADC_IRQHandler             /* ADC */
20003874:	03c0006f          	j	200038b0 <ADC_IRQHandler>
20003878:	0000                	unimp
2000387a:	0000                	unimp
C:\Users\OWNER\Desktop\CH573EVT_Write\EVT\EXAM\BLE\BackupUpgrade_OTA_BLE_UART\obj/../Startup/startup_CH573.S:53
        .word   0
        j   PWMX_IRQHandler            /* PWMX */
2000387c:	0360006f          	j	200038b2 <PWMX_IRQHandler>
C:\Users\OWNER\Desktop\CH573EVT_Write\EVT\EXAM\BLE\BackupUpgrade_OTA_BLE_UART\obj/../Startup/startup_CH573.S:54
        j   TMR3_IRQHandler            /* TMR3 */
20003880:	0340006f          	j	200038b4 <TMR3_IRQHandler>
C:\Users\OWNER\Desktop\CH573EVT_Write\EVT\EXAM\BLE\BackupUpgrade_OTA_BLE_UART\obj/../Startup/startup_CH573.S:55
        j   UART2_IRQHandler           /* UART2 */
20003884:	0320006f          	j	200038b6 <UART2_IRQHandler>
C:\Users\OWNER\Desktop\CH573EVT_Write\EVT\EXAM\BLE\BackupUpgrade_OTA_BLE_UART\obj/../Startup/startup_CH573.S:56
        j   UART3_IRQHandler           /* UART3 */
20003888:	23c0006f          	j	20003ac4 <UART3_IRQHandler>
C:\Users\OWNER\Desktop\CH573EVT_Write\EVT\EXAM\BLE\BackupUpgrade_OTA_BLE_UART\obj/../Startup/startup_CH573.S:57
        j   WDOG_BAT_IRQHandler        /* WDOG_BAT */
2000388c:	02e0006f          	j	200038ba <WDOG_BAT_IRQHandler>

20003890 <NMI_Handler>:
NMI_Handler():
C:\Users\OWNER\Desktop\CH573EVT_Write\EVT\EXAM\BLE\BackupUpgrade_OTA_BLE_UART\obj/../Startup/startup_CH573.S:85
    .weak   TMR3_IRQHandler
    .weak   UART2_IRQHandler
    .weak   UART3_IRQHandler
    .weak   WDOG_BAT_IRQHandler

NMI_Handler:  1:  j 1b
20003890:	a001                	j	20003890 <NMI_Handler>
C:\Users\OWNER\Desktop\CH573EVT_Write\EVT\EXAM\BLE\BackupUpgrade_OTA_BLE_UART\obj/../Startup/startup_CH573.S:86
HardFault_Handler:  1:  j 1b
20003892:	a001                	j	20003892 <NMI_Handler+0x2>

20003894 <SysTick_Handler>:
SysTick_Handler():
C:\Users\OWNER\Desktop\CH573EVT_Write\EVT\EXAM\BLE\BackupUpgrade_OTA_BLE_UART\obj/../Startup/startup_CH573.S:87
SysTick_Handler:  1:  j 1b
20003894:	a001                	j	20003894 <SysTick_Handler>

20003896 <SW_Handler>:
SW_Handler():
C:\Users\OWNER\Desktop\CH573EVT_Write\EVT\EXAM\BLE\BackupUpgrade_OTA_BLE_UART\obj/../Startup/startup_CH573.S:88
SW_Handler:  1:  j 1b
20003896:	a001                	j	20003896 <SW_Handler>

20003898 <TMR0_IRQHandler>:
TMR0_IRQHandler():
C:\Users\OWNER\Desktop\CH573EVT_Write\EVT\EXAM\BLE\BackupUpgrade_OTA_BLE_UART\obj/../Startup/startup_CH573.S:89
TMR0_IRQHandler:  1:  j 1b
20003898:	a001                	j	20003898 <TMR0_IRQHandler>

2000389a <GPIOA_IRQHandler>:
GPIOA_IRQHandler():
C:\Users\OWNER\Desktop\CH573EVT_Write\EVT\EXAM\BLE\BackupUpgrade_OTA_BLE_UART\obj/../Startup/startup_CH573.S:90
GPIOA_IRQHandler:  1:  j 1b
2000389a:	a001                	j	2000389a <GPIOA_IRQHandler>

2000389c <GPIOB_IRQHandler>:
GPIOB_IRQHandler():
C:\Users\OWNER\Desktop\CH573EVT_Write\EVT\EXAM\BLE\BackupUpgrade_OTA_BLE_UART\obj/../Startup/startup_CH573.S:91
GPIOB_IRQHandler:  1:  j 1b
2000389c:	a001                	j	2000389c <GPIOB_IRQHandler>

2000389e <SPI0_IRQHandler>:
SPI0_IRQHandler():
C:\Users\OWNER\Desktop\CH573EVT_Write\EVT\EXAM\BLE\BackupUpgrade_OTA_BLE_UART\obj/../Startup/startup_CH573.S:92
SPI0_IRQHandler:  1:  j 1b
2000389e:	a001                	j	2000389e <SPI0_IRQHandler>

200038a0 <BB_IRQHandler>:
BB_IRQHandler():
C:\Users\OWNER\Desktop\CH573EVT_Write\EVT\EXAM\BLE\BackupUpgrade_OTA_BLE_UART\obj/../Startup/startup_CH573.S:93
BB_IRQHandler:  1:  j 1b
200038a0:	a001                	j	200038a0 <BB_IRQHandler>

200038a2 <LLE_IRQHandler>:
LLE_IRQHandler():
C:\Users\OWNER\Desktop\CH573EVT_Write\EVT\EXAM\BLE\BackupUpgrade_OTA_BLE_UART\obj/../Startup/startup_CH573.S:94
LLE_IRQHandler:  1:  j 1b
200038a2:	a001                	j	200038a2 <LLE_IRQHandler>

200038a4 <USB_IRQHandler>:
USB_IRQHandler():
C:\Users\OWNER\Desktop\CH573EVT_Write\EVT\EXAM\BLE\BackupUpgrade_OTA_BLE_UART\obj/../Startup/startup_CH573.S:95
USB_IRQHandler:  1:  j 1b
200038a4:	a001                	j	200038a4 <USB_IRQHandler>

200038a6 <TMR1_IRQHandler>:
TMR1_IRQHandler():
C:\Users\OWNER\Desktop\CH573EVT_Write\EVT\EXAM\BLE\BackupUpgrade_OTA_BLE_UART\obj/../Startup/startup_CH573.S:96
TMR1_IRQHandler:  1:  j 1b
200038a6:	a001                	j	200038a6 <TMR1_IRQHandler>

200038a8 <TMR2_IRQHandler>:
TMR2_IRQHandler():
C:\Users\OWNER\Desktop\CH573EVT_Write\EVT\EXAM\BLE\BackupUpgrade_OTA_BLE_UART\obj/../Startup/startup_CH573.S:97
TMR2_IRQHandler:  1:  j 1b
200038a8:	a001                	j	200038a8 <TMR2_IRQHandler>

200038aa <UART0_IRQHandler>:
UART0_IRQHandler():
C:\Users\OWNER\Desktop\CH573EVT_Write\EVT\EXAM\BLE\BackupUpgrade_OTA_BLE_UART\obj/../Startup/startup_CH573.S:98
UART0_IRQHandler:  1:  j 1b
200038aa:	a001                	j	200038aa <UART0_IRQHandler>

200038ac <UART1_IRQHandler>:
UART1_IRQHandler():
C:\Users\OWNER\Desktop\CH573EVT_Write\EVT\EXAM\BLE\BackupUpgrade_OTA_BLE_UART\obj/../Startup/startup_CH573.S:99
UART1_IRQHandler:  1:  j 1b
200038ac:	a001                	j	200038ac <UART1_IRQHandler>
C:\Users\OWNER\Desktop\CH573EVT_Write\EVT\EXAM\BLE\BackupUpgrade_OTA_BLE_UART\obj/../Startup/startup_CH573.S:100
RTC_IRQHandler:  1:  j 1b
200038ae:	a001                	j	200038ae <UART1_IRQHandler+0x2>

200038b0 <ADC_IRQHandler>:
ADC_IRQHandler():
C:\Users\OWNER\Desktop\CH573EVT_Write\EVT\EXAM\BLE\BackupUpgrade_OTA_BLE_UART\obj/../Startup/startup_CH573.S:101
ADC_IRQHandler:  1:  j 1b
200038b0:	a001                	j	200038b0 <ADC_IRQHandler>

200038b2 <PWMX_IRQHandler>:
PWMX_IRQHandler():
C:\Users\OWNER\Desktop\CH573EVT_Write\EVT\EXAM\BLE\BackupUpgrade_OTA_BLE_UART\obj/../Startup/startup_CH573.S:102
PWMX_IRQHandler:  1:  j 1b
200038b2:	a001                	j	200038b2 <PWMX_IRQHandler>

200038b4 <TMR3_IRQHandler>:
TMR3_IRQHandler():
C:\Users\OWNER\Desktop\CH573EVT_Write\EVT\EXAM\BLE\BackupUpgrade_OTA_BLE_UART\obj/../Startup/startup_CH573.S:103
TMR3_IRQHandler:  1:  j 1b
200038b4:	a001                	j	200038b4 <TMR3_IRQHandler>

200038b6 <UART2_IRQHandler>:
UART2_IRQHandler():
C:\Users\OWNER\Desktop\CH573EVT_Write\EVT\EXAM\BLE\BackupUpgrade_OTA_BLE_UART\obj/../Startup/startup_CH573.S:104
UART2_IRQHandler:  1:  j 1b
200038b6:	a001                	j	200038b6 <UART2_IRQHandler>
C:\Users\OWNER\Desktop\CH573EVT_Write\EVT\EXAM\BLE\BackupUpgrade_OTA_BLE_UART\obj/../Startup/startup_CH573.S:105
UART3_IRQHandler:  1:  j 1b
200038b8:	a001                	j	200038b8 <UART2_IRQHandler+0x2>

200038ba <WDOG_BAT_IRQHandler>:
WDOG_BAT_IRQHandler():
C:\Users\OWNER\Desktop\CH573EVT_Write\EVT\EXAM\BLE\BackupUpgrade_OTA_BLE_UART\obj/../Startup/startup_CH573.S:106
WDOG_BAT_IRQHandler:  1:  j 1b
200038ba:	a001                	j	200038ba <WDOG_BAT_IRQHandler>

200038bc <Get_Calibration_Cnt_RAM>:
sys_safe_access_enable():
C:\Users\OWNER\Desktop\CH573EVT_Write\EVT\EXAM\SRC\StdPeriphDriver\inc/CH57x_sys.h:171
void mDelaymS(uint16_t t);

/* Safe access */
 __attribute__((always_inline)) static inline void sys_safe_access_enable(void)
{
    R8_SAFE_ACCESS_SIG = SAFE_ACCESS_SIG1;
200038bc:	400017b7          	lui	a5,0x40001
200038c0:	05700713          	li	a4,87
200038c4:	04e78023          	sb	a4,64(a5) # 40001040 <_eusrstack+0x1fff9040>
C:\Users\OWNER\Desktop\CH573EVT_Write\EVT\EXAM\SRC\StdPeriphDriver\inc/CH57x_sys.h:172
    R8_SAFE_ACCESS_SIG = SAFE_ACCESS_SIG2;
200038c8:	fa800713          	li	a4,-88
200038cc:	04e78023          	sb	a4,64(a5)
Get_Calibration_Cnt_RAM():
C:/Users/OWNER/Desktop/CH573EVT_Write/EVT/EXAM/SRC/StdPeriphDriver/CH57x_clk.c:280
uint16_t Get_Calibration_Cnt_RAM(uint16_t loc)
{
    uint16_t i;

    sys_safe_access_enable();
    R16_INT32K_TUNE = loc;
200038d0:	02a79623          	sh	a0,44(a5)
sys_safe_access_disable():
C:\Users\OWNER\Desktop\CH573EVT_Write\EVT\EXAM\SRC\StdPeriphDriver\inc/CH57x_sys.h:177
}

__attribute__((always_inline)) static inline void sys_safe_access_disable(void)
{
    R8_SAFE_ACCESS_SIG = 0;
200038d4:	04078023          	sb	zero,64(a5)
Get_Calibration_Cnt_RAM():
C:/Users/OWNER/Desktop/CH573EVT_Write/EVT/EXAM/SRC/StdPeriphDriver/CH57x_clk.c:283
    sys_safe_access_disable();
    /* 读取当前值 */
    while(!(R8_OSC_CAL_CTRL & RB_OSC_CNT_HALT));
200038d8:	40001737          	lui	a4,0x40001
C:/Users/OWNER/Desktop/CH573EVT_Write/EVT/EXAM/SRC/StdPeriphDriver/CH57x_clk.c:283 (discriminator 1)
200038dc:	05274783          	lbu	a5,82(a4) # 40001052 <_eusrstack+0x1fff9052>
200038e0:	8b89                	andi	a5,a5,2
200038e2:	dfed                	beqz	a5,200038dc <Get_Calibration_Cnt_RAM+0x20>
C:/Users/OWNER/Desktop/CH573EVT_Write/EVT/EXAM/SRC/StdPeriphDriver/CH57x_clk.c:284
    i = R16_OSC_CAL_CNT; // 用于丢弃
200038e4:	05075783          	lhu	a5,80(a4)
C:/Users/OWNER/Desktop/CH573EVT_Write/EVT/EXAM/SRC/StdPeriphDriver/CH57x_clk.c:285
    while(R8_OSC_CAL_CTRL & RB_OSC_CNT_HALT);
200038e8:	40001737          	lui	a4,0x40001
C:/Users/OWNER/Desktop/CH573EVT_Write/EVT/EXAM/SRC/StdPeriphDriver/CH57x_clk.c:285 (discriminator 1)
200038ec:	05274783          	lbu	a5,82(a4) # 40001052 <_eusrstack+0x1fff9052>
200038f0:	8b89                	andi	a5,a5,2
200038f2:	ffed                	bnez	a5,200038ec <Get_Calibration_Cnt_RAM+0x30>
C:/Users/OWNER/Desktop/CH573EVT_Write/EVT/EXAM/SRC/StdPeriphDriver/CH57x_clk.c:286
    while(!(R8_OSC_CAL_CTRL & RB_OSC_CNT_HALT));
200038f4:	40001737          	lui	a4,0x40001
C:/Users/OWNER/Desktop/CH573EVT_Write/EVT/EXAM/SRC/StdPeriphDriver/CH57x_clk.c:286 (discriminator 1)
200038f8:	05274783          	lbu	a5,82(a4) # 40001052 <_eusrstack+0x1fff9052>
200038fc:	8b89                	andi	a5,a5,2
200038fe:	dfed                	beqz	a5,200038f8 <Get_Calibration_Cnt_RAM+0x3c>
C:/Users/OWNER/Desktop/CH573EVT_Write/EVT/EXAM/SRC/StdPeriphDriver/CH57x_clk.c:287
    i = R16_OSC_CAL_CNT;
20003900:	05075503          	lhu	a0,80(a4)
C:/Users/OWNER/Desktop/CH573EVT_Write/EVT/EXAM/SRC/StdPeriphDriver/CH57x_clk.c:289
    return i;
}
20003904:	8082                	ret

20003906 <SetSysClock>:
sys_safe_access_enable():
C:\Users\OWNER\Desktop\CH573EVT_Write\EVT\EXAM\SRC\StdPeriphDriver\inc/CH57x_sys.h:171
    R8_SAFE_ACCESS_SIG = SAFE_ACCESS_SIG1;
20003906:	400017b7          	lui	a5,0x40001
2000390a:	05700693          	li	a3,87
2000390e:	04d78023          	sb	a3,64(a5) # 40001040 <_eusrstack+0x1fff9040>
C:\Users\OWNER\Desktop\CH573EVT_Write\EVT\EXAM\SRC\StdPeriphDriver\inc/CH57x_sys.h:172
    R8_SAFE_ACCESS_SIG = SAFE_ACCESS_SIG2;
20003912:	fa800713          	li	a4,-88
20003916:	04e78023          	sb	a4,64(a5)
SetSysClock():
C:/Users/OWNER/Desktop/CH573EVT_Write/EVT/EXAM/SRC/StdPeriphDriver/CH57x_sys.c:27
__attribute__((section(".highcode")))
void SetSysClock(SYS_CLKTypeDef sc)
{
    uint32_t i;
    sys_safe_access_enable();
    R8_PLL_CONFIG &= ~(1 << 5); //
2000391a:	04b7c603          	lbu	a2,75(a5)
2000391e:	0df67613          	andi	a2,a2,223
20003922:	04c785a3          	sb	a2,75(a5)
sys_safe_access_disable():
C:\Users\OWNER\Desktop\CH573EVT_Write\EVT\EXAM\SRC\StdPeriphDriver\inc/CH57x_sys.h:177
    R8_SAFE_ACCESS_SIG = 0;
20003926:	04078023          	sb	zero,64(a5)
SetSysClock():
C:/Users/OWNER/Desktop/CH573EVT_Write/EVT/EXAM/SRC/StdPeriphDriver/CH57x_sys.c:29
    sys_safe_access_disable();
    if(sc & 0x20)
2000392a:	02057613          	andi	a2,a0,32
2000392e:	c62d                	beqz	a2,20003998 <SetSysClock+0x92>
C:/Users/OWNER/Desktop/CH573EVT_Write/EVT/EXAM/SRC/StdPeriphDriver/CH57x_sys.c:31
    { // HSE div
        if(!(R8_HFCK_PWR_CTRL & RB_CLK_XT32M_PON))
20003930:	00a7c603          	lbu	a2,10(a5)
20003934:	8a11                	andi	a2,a2,4
20003936:	e20d                	bnez	a2,20003958 <SetSysClock+0x52>
sys_safe_access_enable():
C:\Users\OWNER\Desktop\CH573EVT_Write\EVT\EXAM\SRC\StdPeriphDriver\inc/CH57x_sys.h:171
    R8_SAFE_ACCESS_SIG = SAFE_ACCESS_SIG1;
20003938:	04d78023          	sb	a3,64(a5)
C:\Users\OWNER\Desktop\CH573EVT_Write\EVT\EXAM\SRC\StdPeriphDriver\inc/CH57x_sys.h:172
    R8_SAFE_ACCESS_SIG = SAFE_ACCESS_SIG2;
2000393c:	04e78023          	sb	a4,64(a5)
SetSysClock():
C:/Users/OWNER/Desktop/CH573EVT_Write/EVT/EXAM/SRC/StdPeriphDriver/CH57x_sys.c:34
        {
            sys_safe_access_enable();
            R8_HFCK_PWR_CTRL |= RB_CLK_XT32M_PON; // HSE power on
20003940:	00a7c703          	lbu	a4,10(a5)
20003944:	00476713          	ori	a4,a4,4
20003948:	00e78523          	sb	a4,10(a5)
2000394c:	4b000793          	li	a5,1200
C:/Users/OWNER/Desktop/CH573EVT_Write/EVT/EXAM/SRC/StdPeriphDriver/CH57x_sys.c:37 (discriminator 3)
            for(i = 0; i < 1200; i++)
            {
                __nop();
20003950:	0001                	nop
C:/Users/OWNER/Desktop/CH573EVT_Write/EVT/EXAM/SRC/StdPeriphDriver/CH57x_sys.c:38 (discriminator 3)
                __nop();
20003952:	0001                	nop
20003954:	17fd                	addi	a5,a5,-1
C:/Users/OWNER/Desktop/CH573EVT_Write/EVT/EXAM/SRC/StdPeriphDriver/CH57x_sys.c:35 (discriminator 3)
            for(i = 0; i < 1200; i++)
20003956:	ffed                	bnez	a5,20003950 <SetSysClock+0x4a>
sys_safe_access_enable():
C:\Users\OWNER\Desktop\CH573EVT_Write\EVT\EXAM\SRC\StdPeriphDriver\inc/CH57x_sys.h:171
    R8_SAFE_ACCESS_SIG = SAFE_ACCESS_SIG1;
20003958:	400017b7          	lui	a5,0x40001
2000395c:	05700693          	li	a3,87
20003960:	04d78023          	sb	a3,64(a5) # 40001040 <_eusrstack+0x1fff9040>
C:\Users\OWNER\Desktop\CH573EVT_Write\EVT\EXAM\SRC\StdPeriphDriver\inc/CH57x_sys.h:172
    R8_SAFE_ACCESS_SIG = SAFE_ACCESS_SIG2;
20003964:	fa800713          	li	a4,-88
20003968:	04e78023          	sb	a4,64(a5)
SetSysClock():
C:/Users/OWNER/Desktop/CH573EVT_Write/EVT/EXAM/SRC/StdPeriphDriver/CH57x_sys.c:43
            }
        }

        sys_safe_access_enable();
        R16_CLK_SYS_CFG = (0 << 6) | (sc & 0x1f);
2000396c:	897d                	andi	a0,a0,31
2000396e:	00a79423          	sh	a0,8(a5)
C:/Users/OWNER/Desktop/CH573EVT_Write/EVT/EXAM/SRC/StdPeriphDriver/CH57x_sys.c:44
        __nop();
20003972:	0001                	nop
C:/Users/OWNER/Desktop/CH573EVT_Write/EVT/EXAM/SRC/StdPeriphDriver/CH57x_sys.c:45
        __nop();
20003974:	0001                	nop
C:/Users/OWNER/Desktop/CH573EVT_Write/EVT/EXAM/SRC/StdPeriphDriver/CH57x_sys.c:46
        __nop();
20003976:	0001                	nop
C:/Users/OWNER/Desktop/CH573EVT_Write/EVT/EXAM/SRC/StdPeriphDriver/CH57x_sys.c:47
        __nop();
20003978:	0001                	nop
sys_safe_access_disable():
C:\Users\OWNER\Desktop\CH573EVT_Write\EVT\EXAM\SRC\StdPeriphDriver\inc/CH57x_sys.h:177
    R8_SAFE_ACCESS_SIG = 0;
2000397a:	04078023          	sb	zero,64(a5)
sys_safe_access_enable():
C:\Users\OWNER\Desktop\CH573EVT_Write\EVT\EXAM\SRC\StdPeriphDriver\inc/CH57x_sys.h:171
    R8_SAFE_ACCESS_SIG = SAFE_ACCESS_SIG1;
2000397e:	04d78023          	sb	a3,64(a5)
C:\Users\OWNER\Desktop\CH573EVT_Write\EVT\EXAM\SRC\StdPeriphDriver\inc/CH57x_sys.h:172
    R8_SAFE_ACCESS_SIG = SAFE_ACCESS_SIG2;
20003982:	04e78023          	sb	a4,64(a5)
SetSysClock():
C:/Users/OWNER/Desktop/CH573EVT_Write/EVT/EXAM/SRC/StdPeriphDriver/CH57x_sys.c:50
        sys_safe_access_disable();
        sys_safe_access_enable();
        R8_FLASH_CFG = 0X51;
20003986:	05100693          	li	a3,81
2000398a:	40002737          	lui	a4,0x40002
C:/Users/OWNER/Desktop/CH573EVT_Write/EVT/EXAM/SRC/StdPeriphDriver/CH57x_sys.c:74
        __nop();
        __nop();
        __nop();
        sys_safe_access_disable();
        sys_safe_access_enable();
        R8_FLASH_CFG = 0X53;
2000398e:	80d703a3          	sb	a3,-2041(a4) # 40001807 <_eusrstack+0x1fff9807>
sys_safe_access_disable():
C:\Users\OWNER\Desktop\CH573EVT_Write\EVT\EXAM\SRC\StdPeriphDriver\inc/CH57x_sys.h:177
    R8_SAFE_ACCESS_SIG = 0;
20003992:	04078023          	sb	zero,64(a5)
SetSysClock():
C:/Users/OWNER/Desktop/CH573EVT_Write/EVT/EXAM/SRC/StdPeriphDriver/CH57x_sys.c:77
        sys_safe_access_disable();
    }
}
20003996:	8082                	ret
C:/Users/OWNER/Desktop/CH573EVT_Write/EVT/EXAM/SRC/StdPeriphDriver/CH57x_sys.c:54
    else if(sc & 0x40)
20003998:	04057613          	andi	a2,a0,64
2000399c:	de6d                	beqz	a2,20003996 <SetSysClock+0x90>
C:/Users/OWNER/Desktop/CH573EVT_Write/EVT/EXAM/SRC/StdPeriphDriver/CH57x_sys.c:56
        if(!(R8_HFCK_PWR_CTRL & RB_CLK_PLL_PON))
2000399e:	00a7c603          	lbu	a2,10(a5)
200039a2:	8a41                	andi	a2,a2,16
200039a4:	e20d                	bnez	a2,200039c6 <SetSysClock+0xc0>
sys_safe_access_enable():
C:\Users\OWNER\Desktop\CH573EVT_Write\EVT\EXAM\SRC\StdPeriphDriver\inc/CH57x_sys.h:171
    R8_SAFE_ACCESS_SIG = SAFE_ACCESS_SIG1;
200039a6:	04d78023          	sb	a3,64(a5)
C:\Users\OWNER\Desktop\CH573EVT_Write\EVT\EXAM\SRC\StdPeriphDriver\inc/CH57x_sys.h:172
    R8_SAFE_ACCESS_SIG = SAFE_ACCESS_SIG2;
200039aa:	04e78023          	sb	a4,64(a5)
SetSysClock():
C:/Users/OWNER/Desktop/CH573EVT_Write/EVT/EXAM/SRC/StdPeriphDriver/CH57x_sys.c:59
            R8_HFCK_PWR_CTRL |= RB_CLK_PLL_PON; // PLL power on
200039ae:	00a7c703          	lbu	a4,10(a5)
200039b2:	01076713          	ori	a4,a4,16
200039b6:	00e78523          	sb	a4,10(a5)
200039ba:	7d000793          	li	a5,2000
C:/Users/OWNER/Desktop/CH573EVT_Write/EVT/EXAM/SRC/StdPeriphDriver/CH57x_sys.c:62 (discriminator 3)
                __nop();
200039be:	0001                	nop
C:/Users/OWNER/Desktop/CH573EVT_Write/EVT/EXAM/SRC/StdPeriphDriver/CH57x_sys.c:63 (discriminator 3)
                __nop();
200039c0:	0001                	nop
200039c2:	17fd                	addi	a5,a5,-1
C:/Users/OWNER/Desktop/CH573EVT_Write/EVT/EXAM/SRC/StdPeriphDriver/CH57x_sys.c:60 (discriminator 3)
            for(i = 0; i < 2000; i++)
200039c4:	ffed                	bnez	a5,200039be <SetSysClock+0xb8>
sys_safe_access_enable():
C:\Users\OWNER\Desktop\CH573EVT_Write\EVT\EXAM\SRC\StdPeriphDriver\inc/CH57x_sys.h:171
    R8_SAFE_ACCESS_SIG = SAFE_ACCESS_SIG1;
200039c6:	400017b7          	lui	a5,0x40001
200039ca:	05700693          	li	a3,87
200039ce:	04d78023          	sb	a3,64(a5) # 40001040 <_eusrstack+0x1fff9040>
C:\Users\OWNER\Desktop\CH573EVT_Write\EVT\EXAM\SRC\StdPeriphDriver\inc/CH57x_sys.h:172
    R8_SAFE_ACCESS_SIG = SAFE_ACCESS_SIG2;
200039d2:	fa800713          	li	a4,-88
SetSysClock():
C:/Users/OWNER/Desktop/CH573EVT_Write/EVT/EXAM/SRC/StdPeriphDriver/CH57x_sys.c:67
        R16_CLK_SYS_CFG = (1 << 6) | (sc & 0x1f);
200039d6:	897d                	andi	a0,a0,31
sys_safe_access_enable():
C:\Users\OWNER\Desktop\CH573EVT_Write\EVT\EXAM\SRC\StdPeriphDriver\inc/CH57x_sys.h:172
200039d8:	04e78023          	sb	a4,64(a5)
SetSysClock():
C:/Users/OWNER/Desktop/CH573EVT_Write/EVT/EXAM/SRC/StdPeriphDriver/CH57x_sys.c:67
200039dc:	04056513          	ori	a0,a0,64
200039e0:	00a79423          	sh	a0,8(a5)
C:/Users/OWNER/Desktop/CH573EVT_Write/EVT/EXAM/SRC/StdPeriphDriver/CH57x_sys.c:68
        __nop();
200039e4:	0001                	nop
C:/Users/OWNER/Desktop/CH573EVT_Write/EVT/EXAM/SRC/StdPeriphDriver/CH57x_sys.c:69
        __nop();
200039e6:	0001                	nop
C:/Users/OWNER/Desktop/CH573EVT_Write/EVT/EXAM/SRC/StdPeriphDriver/CH57x_sys.c:70
        __nop();
200039e8:	0001                	nop
C:/Users/OWNER/Desktop/CH573EVT_Write/EVT/EXAM/SRC/StdPeriphDriver/CH57x_sys.c:71
        __nop();
200039ea:	0001                	nop
sys_safe_access_disable():
C:\Users\OWNER\Desktop\CH573EVT_Write\EVT\EXAM\SRC\StdPeriphDriver\inc/CH57x_sys.h:177
    R8_SAFE_ACCESS_SIG = 0;
200039ec:	04078023          	sb	zero,64(a5)
sys_safe_access_enable():
C:\Users\OWNER\Desktop\CH573EVT_Write\EVT\EXAM\SRC\StdPeriphDriver\inc/CH57x_sys.h:171
    R8_SAFE_ACCESS_SIG = SAFE_ACCESS_SIG1;
200039f0:	04d78023          	sb	a3,64(a5)
C:\Users\OWNER\Desktop\CH573EVT_Write\EVT\EXAM\SRC\StdPeriphDriver\inc/CH57x_sys.h:172
    R8_SAFE_ACCESS_SIG = SAFE_ACCESS_SIG2;
200039f4:	04e78023          	sb	a4,64(a5)
SetSysClock():
C:/Users/OWNER/Desktop/CH573EVT_Write/EVT/EXAM/SRC/StdPeriphDriver/CH57x_sys.c:74
        R8_FLASH_CFG = 0X53;
200039f8:	05300693          	li	a3,83
200039fc:	40002737          	lui	a4,0x40002
20003a00:	b779                	j	2000398e <SetSysClock+0x88>

20003a02 <SYS_ResetExecute>:
SYS_ResetExecute():
C:/Users/OWNER/Desktop/CH573EVT_Write/EVT/EXAM/SRC/StdPeriphDriver/CH57x_sys.c:139
 *
 * @return  none
 */
__attribute__((section(".highcode")))
void SYS_ResetExecute(void)
{
20003a02:	1141                	addi	sp,sp,-16
C:/Users/OWNER/Desktop/CH573EVT_Write/EVT/EXAM/SRC/StdPeriphDriver/CH57x_sys.c:140
    FLASH_ROM_SW_RESET();
20003a04:	4681                	li	a3,0
20003a06:	4601                	li	a2,0
20003a08:	4581                	li	a1,0
20003a0a:	4511                	li	a0,4
C:/Users/OWNER/Desktop/CH573EVT_Write/EVT/EXAM/SRC/StdPeriphDriver/CH57x_sys.c:139
{
20003a0c:	c606                	sw	ra,12(sp)
C:/Users/OWNER/Desktop/CH573EVT_Write/EVT/EXAM/SRC/StdPeriphDriver/CH57x_sys.c:140
    FLASH_ROM_SW_RESET();
20003a0e:	2ac5                	jal	20003bfe <FLASH_EEPROM_CMD>
sys_safe_access_enable():
C:\Users\OWNER\Desktop\CH573EVT_Write\EVT\EXAM\SRC\StdPeriphDriver\inc/CH57x_sys.h:171
    R8_SAFE_ACCESS_SIG = SAFE_ACCESS_SIG1;
20003a10:	400017b7          	lui	a5,0x40001
20003a14:	05700713          	li	a4,87
20003a18:	04e78023          	sb	a4,64(a5) # 40001040 <_eusrstack+0x1fff9040>
C:\Users\OWNER\Desktop\CH573EVT_Write\EVT\EXAM\SRC\StdPeriphDriver\inc/CH57x_sys.h:172
    R8_SAFE_ACCESS_SIG = SAFE_ACCESS_SIG2;
20003a1c:	fa800713          	li	a4,-88
20003a20:	04e78023          	sb	a4,64(a5)
SYS_ResetExecute():
C:/Users/OWNER/Desktop/CH573EVT_Write/EVT/EXAM/SRC/StdPeriphDriver/CH57x_sys.c:142
    sys_safe_access_enable();
    R8_RST_WDOG_CTRL |= RB_SOFTWARE_RESET;
20003a24:	0467c703          	lbu	a4,70(a5)
20003a28:	00176713          	ori	a4,a4,1
20003a2c:	04e78323          	sb	a4,70(a5)
sys_safe_access_disable():
C:\Users\OWNER\Desktop\CH573EVT_Write\EVT\EXAM\SRC\StdPeriphDriver\inc/CH57x_sys.h:177
    R8_SAFE_ACCESS_SIG = 0;
20003a30:	04078023          	sb	zero,64(a5)
SYS_ResetExecute():
C:/Users/OWNER/Desktop/CH573EVT_Write/EVT/EXAM/SRC/StdPeriphDriver/CH57x_sys.c:144
    sys_safe_access_disable();
}
20003a34:	40b2                	lw	ra,12(sp)
20003a36:	0141                	addi	sp,sp,16
20003a38:	8082                	ret

20003a3a <HardFault_Handler>:
HardFault_Handler():
C:/Users/OWNER/Desktop/CH573EVT_Write/EVT/EXAM/SRC/StdPeriphDriver/CH57x_sys.c:278
__attribute__((interrupt("WCH-Interrupt-fast")))
__attribute__((section(".highcode")))
__attribute__((weak))
void HardFault_Handler(void)
{
    FLASH_ROM_SW_RESET();
20003a3a:	4681                	li	a3,0
20003a3c:	4601                	li	a2,0
20003a3e:	4581                	li	a1,0
20003a40:	4511                	li	a0,4
20003a42:	2a75                	jal	20003bfe <FLASH_EEPROM_CMD>
sys_safe_access_enable():
C:\Users\OWNER\Desktop\CH573EVT_Write\EVT\EXAM\SRC\StdPeriphDriver\inc/CH57x_sys.h:171
    R8_SAFE_ACCESS_SIG = SAFE_ACCESS_SIG1;
20003a44:	400017b7          	lui	a5,0x40001
20003a48:	05700693          	li	a3,87
20003a4c:	04d78023          	sb	a3,64(a5) # 40001040 <_eusrstack+0x1fff9040>
C:\Users\OWNER\Desktop\CH573EVT_Write\EVT\EXAM\SRC\StdPeriphDriver\inc/CH57x_sys.h:172
    R8_SAFE_ACCESS_SIG = SAFE_ACCESS_SIG2;
20003a50:	fa800713          	li	a4,-88
20003a54:	04e78023          	sb	a4,64(a5)
HardFault_Handler():
C:/Users/OWNER/Desktop/CH573EVT_Write/EVT/EXAM/SRC/StdPeriphDriver/CH57x_sys.c:280
    sys_safe_access_enable();
    R16_INT32K_TUNE = 0xFFFF;
20003a58:	567d                	li	a2,-1
20003a5a:	02c79623          	sh	a2,44(a5)
sys_safe_access_enable():
C:\Users\OWNER\Desktop\CH573EVT_Write\EVT\EXAM\SRC\StdPeriphDriver\inc/CH57x_sys.h:171
    R8_SAFE_ACCESS_SIG = SAFE_ACCESS_SIG1;
20003a5e:	04d78023          	sb	a3,64(a5)
C:\Users\OWNER\Desktop\CH573EVT_Write\EVT\EXAM\SRC\StdPeriphDriver\inc/CH57x_sys.h:172
    R8_SAFE_ACCESS_SIG = SAFE_ACCESS_SIG2;
20003a62:	04e78023          	sb	a4,64(a5)
HardFault_Handler():
C:/Users/OWNER/Desktop/CH573EVT_Write/EVT/EXAM/SRC/StdPeriphDriver/CH57x_sys.c:282
    sys_safe_access_enable();
    R8_RST_WDOG_CTRL |= RB_SOFTWARE_RESET;
20003a66:	0467c703          	lbu	a4,70(a5)
20003a6a:	00176713          	ori	a4,a4,1
20003a6e:	04e78323          	sb	a4,70(a5)
sys_safe_access_disable():
C:\Users\OWNER\Desktop\CH573EVT_Write\EVT\EXAM\SRC\StdPeriphDriver\inc/CH57x_sys.h:177
    R8_SAFE_ACCESS_SIG = 0;
20003a72:	04078023          	sb	zero,64(a5)
HardFault_Handler():
C:/Users/OWNER/Desktop/CH573EVT_Write/EVT/EXAM/SRC/StdPeriphDriver/CH57x_sys.c:284 (discriminator 1)
    sys_safe_access_disable();
    while(1);
20003a76:	a001                	j	20003a76 <HardFault_Handler+0x3c>

20003a78 <mDelayuS>:
mDelayuS():
C:/Users/OWNER/Desktop/CH573EVT_Write/EVT/EXAM/SRC/StdPeriphDriver/CH57x_sys.c:301
__attribute__((section(".highcode")))
void mDelayuS(uint16_t t)
{
    uint32_t i;
#if(FREQ_SYS == 60000000)
    i = t * 15;
20003a78:	47bd                	li	a5,15
20003a7a:	02f50533          	mul	a0,a0,a5
C:/Users/OWNER/Desktop/CH573EVT_Write/EVT/EXAM/SRC/StdPeriphDriver/CH57x_sys.c:323 (discriminator 1)
#elif(FREQ_SYS == 1000000)
    i = t >> 2;
#endif
    do
    {
        __nop();
20003a7e:	0001                	nop
C:/Users/OWNER/Desktop/CH573EVT_Write/EVT/EXAM/SRC/StdPeriphDriver/CH57x_sys.c:324 (discriminator 1)
    } while(--i);
20003a80:	157d                	addi	a0,a0,-1
20003a82:	fd75                	bnez	a0,20003a7e <mDelayuS+0x6>
C:/Users/OWNER/Desktop/CH573EVT_Write/EVT/EXAM/SRC/StdPeriphDriver/CH57x_sys.c:325
}
20003a84:	8082                	ret

20003a86 <mDelaymS>:
mDelaymS():
C:/Users/OWNER/Desktop/CH573EVT_Write/EVT/EXAM/SRC/StdPeriphDriver/CH57x_sys.c:338
 *
 * @return  none
 */
__attribute__((section(".highcode")))
void mDelaymS(uint16_t t)
{
20003a86:	1141                	addi	sp,sp,-16
20003a88:	c422                	sw	s0,8(sp)
20003a8a:	c226                	sw	s1,4(sp)
20003a8c:	c606                	sw	ra,12(sp)
20003a8e:	84aa                	mv	s1,a0
C:/Users/OWNER/Desktop/CH573EVT_Write/EVT/EXAM/SRC/StdPeriphDriver/CH57x_sys.c:341
    uint16_t i;

    for(i = 0; i < t; i++)
20003a90:	4401                	li	s0,0
C:/Users/OWNER/Desktop/CH573EVT_Write/EVT/EXAM/SRC/StdPeriphDriver/CH57x_sys.c:341 (discriminator 1)
20003a92:	00941763          	bne	s0,s1,20003aa0 <mDelaymS+0x1a>
C:/Users/OWNER/Desktop/CH573EVT_Write/EVT/EXAM/SRC/StdPeriphDriver/CH57x_sys.c:345
    {
        mDelayuS(1000);
    }
}
20003a96:	40b2                	lw	ra,12(sp)
20003a98:	4422                	lw	s0,8(sp)
20003a9a:	4492                	lw	s1,4(sp)
20003a9c:	0141                	addi	sp,sp,16
20003a9e:	8082                	ret
C:/Users/OWNER/Desktop/CH573EVT_Write/EVT/EXAM/SRC/StdPeriphDriver/CH57x_sys.c:341 (discriminator 3)
    for(i = 0; i < t; i++)
20003aa0:	0405                	addi	s0,s0,1
C:/Users/OWNER/Desktop/CH573EVT_Write/EVT/EXAM/SRC/StdPeriphDriver/CH57x_sys.c:343 (discriminator 3)
        mDelayuS(1000);
20003aa2:	3e800513          	li	a0,1000
C:/Users/OWNER/Desktop/CH573EVT_Write/EVT/EXAM/SRC/StdPeriphDriver/CH57x_sys.c:341 (discriminator 3)
    for(i = 0; i < t; i++)
20003aa6:	0442                	slli	s0,s0,0x10
C:/Users/OWNER/Desktop/CH573EVT_Write/EVT/EXAM/SRC/StdPeriphDriver/CH57x_sys.c:343 (discriminator 3)
        mDelayuS(1000);
20003aa8:	3fc1                	jal	20003a78 <mDelayuS>
C:/Users/OWNER/Desktop/CH573EVT_Write/EVT/EXAM/SRC/StdPeriphDriver/CH57x_sys.c:341 (discriminator 3)
    for(i = 0; i < t; i++)
20003aaa:	8041                	srli	s0,s0,0x10
20003aac:	b7dd                	j	20003a92 <mDelaymS+0xc>

20003aae <RTC_IRQHandler>:
RTC_IRQHandler():
C:/Users/OWNER/Desktop/CH573EVT_Write/EVT/EXAM/BLE/HAL/RTC.c:57
 */
__attribute__((interrupt("WCH-Interrupt-fast")))
__attribute__((section(".highcode")))
void RTC_IRQHandler(void)
{
    R8_RTC_FLAG_CTRL = (RB_RTC_TMR_CLR | RB_RTC_TRIG_CLR);
20003aae:	400017b7          	lui	a5,0x40001
20003ab2:	03000713          	li	a4,48
20003ab6:	02e78823          	sb	a4,48(a5) # 40001030 <_eusrstack+0x1fff9030>
C:/Users/OWNER/Desktop/CH573EVT_Write/EVT/EXAM/BLE/HAL/RTC.c:58
    RTCTigFlag = 1;
20003aba:	4785                	li	a5,1
20003abc:	6ef1ac23          	sw	a5,1784(gp) # 20004ef8 <RTCTigFlag>
C:/Users/OWNER/Desktop/CH573EVT_Write/EVT/EXAM/BLE/HAL/RTC.c:59
}
20003ac0:	30200073          	mret

20003ac4 <UART3_IRQHandler>:
UART3_IRQHandler():
C:\Users\OWNER\Desktop\CH573EVT_Write\EVT\EXAM\BLE\BackupUpgrade_OTA_BLE_UART\obj/../APP/peripheral.c:110
__attribute__((interrupt("WCH-Interrupt-fast")))
__attribute__((section(".highcode")))
void UART3_IRQHandler(void)
{
    uint16_t error;
    switch(UART3_GetITFlag())
20003ac4:	40004737          	lui	a4,0x40004
20003ac8:	c0474783          	lbu	a5,-1020(a4) # 40003c04 <_eusrstack+0x1fffbc04>
20003acc:	4699                	li	a3,6
20003ace:	8bbd                	andi	a5,a5,15
20003ad0:	02d78d63          	beq	a5,a3,20003b0a <UART3_IRQHandler+0x46>
20003ad4:	4731                	li	a4,12
20003ad6:	00e78563          	beq	a5,a4,20003ae0 <UART3_IRQHandler+0x1c>
20003ada:	4711                	li	a4,4
20003adc:	02e79963          	bne	a5,a4,20003b0e <UART3_IRQHandler+0x4a>
C:\Users\OWNER\Desktop\CH573EVT_Write\EVT\EXAM\BLE\BackupUpgrade_OTA_BLE_UART\obj/../APP/peripheral.c:118
            UART3_GetLinSTA();
            break;

        case UART_II_RECV_RDY:
        case UART_II_RECV_TOUT:
            error = app_drv_fifo_write_from_same_addr(&app_uart_rx_fifo, (uint8_t *)&R8_UART3_RBR, R8_UART3_RFC);
20003ae0:	400045b7          	lui	a1,0x40004
20003ae4:	c0a5c603          	lbu	a2,-1014(a1) # 40003c0a <_eusrstack+0x1fffbc0a>
20003ae8:	00002517          	auipc	a0,0x2
20003aec:	02850513          	addi	a0,a0,40 # 20005b10 <app_uart_rx_fifo>
20003af0:	c0858593          	addi	a1,a1,-1016
20003af4:	e0000097          	auipc	ra,0xe0000
20003af8:	b50080e7          	jalr	-1200(ra) # 3644 <app_drv_fifo_write_from_same_addr>
C:\Users\OWNER\Desktop\CH573EVT_Write\EVT\EXAM\BLE\BackupUpgrade_OTA_BLE_UART\obj/../APP/peripheral.c:119
            if(error != APP_DRV_FIFO_RESULT_SUCCESS)
20003afc:	0542                	slli	a0,a0,0x10
20003afe:	8141                	srli	a0,a0,0x10
20003b00:	e50d                	bnez	a0,20003b2a <UART3_IRQHandler+0x66>
C:\Users\OWNER\Desktop\CH573EVT_Write\EVT\EXAM\BLE\BackupUpgrade_OTA_BLE_UART\obj/../APP/peripheral.c:127
                {
                    //fifo full,put to fifo black hole
                    for_uart_rx_black_hole = R8_UART3_RBR;
                }
            }
            uart_rx_flag = true;
20003b02:	4785                	li	a5,1
20003b04:	74f18123          	sb	a5,1858(gp) # 20004f42 <uart_rx_flag>
C:\Users\OWNER\Desktop\CH573EVT_Write\EVT\EXAM\BLE\BackupUpgrade_OTA_BLE_UART\obj/../APP/peripheral.c:128
            break;
20003b08:	a019                	j	20003b0e <UART3_IRQHandler+0x4a>
C:\Users\OWNER\Desktop\CH573EVT_Write\EVT\EXAM\BLE\BackupUpgrade_OTA_BLE_UART\obj/../APP/peripheral.c:113
            UART3_GetLinSTA();
20003b0a:	c0574783          	lbu	a5,-1019(a4)
C:\Users\OWNER\Desktop\CH573EVT_Write\EVT\EXAM\BLE\BackupUpgrade_OTA_BLE_UART\obj/../APP/peripheral.c:137
        case UART_II_MODEM_CHG:
            break;
        default:
            break;
    }
}
20003b0e:	30200073          	mret
C:\Users\OWNER\Desktop\CH573EVT_Write\EVT\EXAM\BLE\BackupUpgrade_OTA_BLE_UART\obj/../APP/peripheral.c:124 (discriminator 3)
                    for_uart_rx_black_hole = R8_UART3_RBR;
20003b12:	c0874683          	lbu	a3,-1016(a4)
C:\Users\OWNER\Desktop\CH573EVT_Write\EVT\EXAM\BLE\BackupUpgrade_OTA_BLE_UART\obj/../APP/peripheral.c:121 (discriminator 3)
                for(uint8_t i = 0; i < R8_UART3_RFC; i++)
20003b16:	0785                	addi	a5,a5,1
20003b18:	0ff7f793          	andi	a5,a5,255
C:\Users\OWNER\Desktop\CH573EVT_Write\EVT\EXAM\BLE\BackupUpgrade_OTA_BLE_UART\obj/../APP/peripheral.c:124 (discriminator 3)
                    for_uart_rx_black_hole = R8_UART3_RBR;
20003b1c:	72d18623          	sb	a3,1836(gp) # 20004f2c <for_uart_rx_black_hole>
C:\Users\OWNER\Desktop\CH573EVT_Write\EVT\EXAM\BLE\BackupUpgrade_OTA_BLE_UART\obj/../APP/peripheral.c:121 (discriminator 1)
                for(uint8_t i = 0; i < R8_UART3_RFC; i++)
20003b20:	c0a74683          	lbu	a3,-1014(a4)
20003b24:	fed7e7e3          	bltu	a5,a3,20003b12 <UART3_IRQHandler+0x4e>
20003b28:	bfe9                	j	20003b02 <UART3_IRQHandler+0x3e>
C:\Users\OWNER\Desktop\CH573EVT_Write\EVT\EXAM\BLE\BackupUpgrade_OTA_BLE_UART\obj/../APP/peripheral.c:121
20003b2a:	4781                	li	a5,0
20003b2c:	40004737          	lui	a4,0x40004
20003b30:	bfc5                	j	20003b20 <UART3_IRQHandler+0x5c>

20003b32 <Main_Circulation>:
Main_Circulation():
C:\Users\OWNER\Desktop\CH573EVT_Write\EVT\EXAM\BLE\BackupUpgrade_OTA_BLE_UART\obj/../APP/peripheral_main.c:76
 * @return  none
 */
__attribute__((section(".highcode")))
__attribute__((noinline))
void Main_Circulation(void)
{
20003b32:	1141                	addi	sp,sp,-16
20003b34:	c606                	sw	ra,12(sp)
C:\Users\OWNER\Desktop\CH573EVT_Write\EVT\EXAM\BLE\BackupUpgrade_OTA_BLE_UART\obj/../APP/peripheral_main.c:79 (discriminator 1)
    while(1)
    {
        TMOS_SystemProcess();
20003b36:	2989                	jal	20003f88 <TMOS_SystemProcess>
C:\Users\OWNER\Desktop\CH573EVT_Write\EVT\EXAM\BLE\BackupUpgrade_OTA_BLE_UART\obj/../APP/peripheral_main.c:80 (discriminator 1)
        app_uart_process();
20003b38:	e0000097          	auipc	ra,0xe0000
20003b3c:	cde080e7          	jalr	-802(ra) # 3816 <app_uart_process>
20003b40:	bfdd                	j	20003b36 <Main_Circulation+0x4>

20003b42 <FLASH_ROM_BEG>:
FLASH_ROM_BEG():
20003b42:	80040323          	sb	zero,-2042(s0)
20003b46:	4715                	li	a4,5
20003b48:	80e40323          	sb	a4,-2042(s0)
20003b4c:	0001                	nop
20003b4e:	80a40223          	sb	a0,-2044(s0)
20003b52:	8082                	ret

20003b54 <FLASH_ROM_END>:
FLASH_ROM_END():
20003b54:	80640783          	lb	a5,-2042(s0)
20003b58:	fe07cee3          	bltz	a5,20003b54 <FLASH_ROM_END>
20003b5c:	80040323          	sb	zero,-2042(s0)
20003b60:	8082                	ret

20003b62 <FLASH_ROM_IN>:
FLASH_ROM_IN():
20003b62:	80640783          	lb	a5,-2042(s0)
20003b66:	fe07cee3          	bltz	a5,20003b62 <FLASH_ROM_IN>
20003b6a:	80444503          	lbu	a0,-2044(s0)
20003b6e:	8082                	ret

20003b70 <FLASH_ROM_OUT>:
FLASH_ROM_OUT():
20003b70:	80640783          	lb	a5,-2042(s0)
20003b74:	fe07cee3          	bltz	a5,20003b70 <FLASH_ROM_OUT>
20003b78:	80a40223          	sb	a0,-2044(s0)
20003b7c:	8082                	ret

20003b7e <FLASH_ROM_ADDR>:
FLASH_ROM_ADDR():
20003b7e:	1141                	addi	sp,sp,-16
20003b80:	c426                	sw	s1,8(sp)
20003b82:	c24a                	sw	s2,4(sp)
20003b84:	c04e                	sw	s3,0(sp)
20003b86:	c606                	sw	ra,12(sp)
20003b88:	0bf57713          	andi	a4,a0,191
20003b8c:	47ad                	li	a5,11
20003b8e:	89aa                	mv	s3,a0
20003b90:	892e                	mv	s2,a1
20003b92:	4495                	li	s1,5
20003b94:	00f70663          	beq	a4,a5,20003ba0 <FLASH_ROM_ADDR+0x22>
20003b98:	4519                	li	a0,6
20003b9a:	3765                	jal	20003b42 <FLASH_ROM_BEG>
20003b9c:	3f65                	jal	20003b54 <FLASH_ROM_END>
20003b9e:	448d                	li	s1,3
20003ba0:	854e                	mv	a0,s3
20003ba2:	3745                	jal	20003b42 <FLASH_ROM_BEG>
20003ba4:	59fd                	li	s3,-1
20003ba6:	14fd                	addi	s1,s1,-1
20003ba8:	01349863          	bne	s1,s3,20003bb8 <FLASH_ROM_ADDR+0x3a>
20003bac:	40b2                	lw	ra,12(sp)
20003bae:	44a2                	lw	s1,8(sp)
20003bb0:	4912                	lw	s2,4(sp)
20003bb2:	4982                	lw	s3,0(sp)
20003bb4:	0141                	addi	sp,sp,16
20003bb6:	8082                	ret
20003bb8:	01095513          	srli	a0,s2,0x10
20003bbc:	0ff57513          	andi	a0,a0,255
20003bc0:	3f45                	jal	20003b70 <FLASH_ROM_OUT>
20003bc2:	0922                	slli	s2,s2,0x8
20003bc4:	b7cd                	j	20003ba6 <FLASH_ROM_ADDR+0x28>

20003bc6 <FLASH_ROM_WAIT>:
FLASH_ROM_WAIT():
20003bc6:	1101                	addi	sp,sp,-32
20003bc8:	cc26                	sw	s1,24(sp)
20003bca:	ce06                	sw	ra,28(sp)
20003bcc:	000804b7          	lui	s1,0x80
20003bd0:	3751                	jal	20003b54 <FLASH_ROM_END>
20003bd2:	4515                	li	a0,5
20003bd4:	37bd                	jal	20003b42 <FLASH_ROM_BEG>
20003bd6:	3771                	jal	20003b62 <FLASH_ROM_IN>
20003bd8:	3769                	jal	20003b62 <FLASH_ROM_IN>
20003bda:	c62a                	sw	a0,12(sp)
20003bdc:	3fa5                	jal	20003b54 <FLASH_ROM_END>
20003bde:	4532                	lw	a0,12(sp)
20003be0:	00157793          	andi	a5,a0,1
20003be4:	eb89                	bnez	a5,20003bf6 <FLASH_ROM_WAIT+0x30>
20003be6:	00156513          	ori	a0,a0,1
20003bea:	0ff57513          	andi	a0,a0,255
20003bee:	40f2                	lw	ra,28(sp)
20003bf0:	44e2                	lw	s1,24(sp)
20003bf2:	6105                	addi	sp,sp,32
20003bf4:	8082                	ret
20003bf6:	14fd                	addi	s1,s1,-1
20003bf8:	fce9                	bnez	s1,20003bd2 <FLASH_ROM_WAIT+0xc>
20003bfa:	4501                	li	a0,0
20003bfc:	bfcd                	j	20003bee <FLASH_ROM_WAIT+0x28>

20003bfe <FLASH_EEPROM_CMD>:
FLASH_EEPROM_CMD():
20003bfe:	7139                	addi	sp,sp,-64
20003c00:	dc26                	sw	s1,56(sp)
20003c02:	da4a                	sw	s2,52(sp)
20003c04:	d84e                	sw	s3,48(sp)
20003c06:	d652                	sw	s4,44(sp)
20003c08:	d456                	sw	s5,40(sp)
20003c0a:	d25a                	sw	s6,36(sp)
20003c0c:	d05e                	sw	s7,32(sp)
20003c0e:	de06                	sw	ra,60(sp)
20003c10:	ce62                	sw	s8,28(sp)
20003c12:	cc66                	sw	s9,24(sp)
20003c14:	e000e7b7          	lui	a5,0xe000e
20003c18:	577d                	li	a4,-1
20003c1a:	0007aa83          	lw	s5,0(a5) # e000e000 <_eusrstack+0xc0006000>
20003c1e:	c622                	sw	s0,12(sp)
20003c20:	0047aa03          	lw	s4,4(a5)
20003c24:	18e7a023          	sw	a4,384(a5)
20003c28:	18e7a223          	sw	a4,388(a5)
20003c2c:	400017b7          	lui	a5,0x40001
20003c30:	05700713          	li	a4,87
20003c34:	04e78023          	sb	a4,64(a5) # 40001040 <_eusrstack+0x1fff9040>
20003c38:	fa800713          	li	a4,-88
20003c3c:	04e78023          	sb	a4,64(a5)
20003c40:	0447c783          	lbu	a5,68(a5)
20003c44:	ff750b93          	addi	s7,a0,-9
20003c48:	84b6                	mv	s1,a3
20003c4a:	07e2                	slli	a5,a5,0x18
20003c4c:	0ffbfb93          	andi	s7,s7,255
20003c50:	4685                	li	a3,1
20003c52:	89aa                	mv	s3,a0
20003c54:	8b2e                	mv	s6,a1
20003c56:	8932                	mv	s2,a2
20003c58:	40002437          	lui	s0,0x40002
20003c5c:	87e1                	srai	a5,a5,0x18
20003c5e:	5701                	li	a4,-32
20003c60:	0176fa63          	bgeu	a3,s7,20003c74 <FLASH_EEPROM_CMD+0x76>
20003c64:	00d50863          	beq	a0,a3,20003c74 <FLASH_EEPROM_CMD+0x76>
20003c68:	4689                	li	a3,2
20003c6a:	02000713          	li	a4,32
20003c6e:	00d51363          	bne	a0,a3,20003c74 <FLASH_EEPROM_CMD+0x76>
20003c72:	5701                	li	a4,-32
20003c74:	8fd9                	or	a5,a5,a4
20003c76:	0ff7f793          	andi	a5,a5,255
20003c7a:	40001cb7          	lui	s9,0x40001
20003c7e:	04fc8223          	sb	a5,68(s9) # 40001044 <_eusrstack+0x1fff9044>
20003c82:	4711                	li	a4,4
20003c84:	80e40323          	sb	a4,-2042(s0) # 40001806 <_eusrstack+0x1fff9806>
20003c88:	0ff00513          	li	a0,255
20003c8c:	3d5d                	jal	20003b42 <FLASH_ROM_BEG>
20003c8e:	4c09                	li	s8,2
20003c90:	35d1                	jal	20003b54 <FLASH_ROM_END>
20003c92:	117c6963          	bltu	s8,s7,20003da4 <FLASH_EEPROM_CMD+0x1a6>
20003c96:	000707b7          	lui	a5,0x70
20003c9a:	9b3e                	add	s6,s6,a5
20003c9c:	00078737          	lui	a4,0x78
20003ca0:	5579                	li	a0,-2
20003ca2:	02eb7e63          	bgeu	s6,a4,20003cde <FLASH_EEPROM_CMD+0xe0>
20003ca6:	009b07b3          	add	a5,s6,s1
20003caa:	02f76a63          	bltu	a4,a5,20003cde <FLASH_EEPROM_CMD+0xe0>
20003cae:	47a9                	li	a5,10
20003cb0:	06f99963          	bne	s3,a5,20003d22 <FLASH_EEPROM_CMD+0x124>
20003cb4:	e489                	bnez	s1,20003cbe <FLASH_EEPROM_CMD+0xc0>
20003cb6:	4481                	li	s1,0
20003cb8:	3d71                	jal	20003b54 <FLASH_ROM_END>
20003cba:	8526                	mv	a0,s1
20003cbc:	a00d                	j	20003cde <FLASH_EEPROM_CMD+0xe0>
20003cbe:	85da                	mv	a1,s6
20003cc0:	4509                	li	a0,2
20003cc2:	3d75                	jal	20003b7e <FLASH_ROM_ADDR>
20003cc4:	0905                	addi	s2,s2,1
20003cc6:	fff94503          	lbu	a0,-1(s2)
20003cca:	14fd                	addi	s1,s1,-1
20003ccc:	0b05                	addi	s6,s6,1
20003cce:	354d                	jal	20003b70 <FLASH_ROM_OUT>
20003cd0:	c481                	beqz	s1,20003cd8 <FLASH_EEPROM_CMD+0xda>
20003cd2:	0ffb7793          	andi	a5,s6,255
20003cd6:	f7fd                	bnez	a5,20003cc4 <FLASH_EEPROM_CMD+0xc6>
20003cd8:	35fd                	jal	20003bc6 <FLASH_ROM_WAIT>
20003cda:	fd69                	bnez	a0,20003cb4 <FLASH_EEPROM_CMD+0xb6>
20003cdc:	557d                	li	a0,-1
20003cde:	400017b7          	lui	a5,0x40001
20003ce2:	05700713          	li	a4,87
20003ce6:	04e78023          	sb	a4,64(a5) # 40001040 <_eusrstack+0x1fff9040>
20003cea:	fa800713          	li	a4,-88
20003cee:	04e78023          	sb	a4,64(a5)
20003cf2:	0447c703          	lbu	a4,68(a5)
20003cf6:	8b41                	andi	a4,a4,16
20003cf8:	04e78223          	sb	a4,68(a5)
20003cfc:	50f2                	lw	ra,60(sp)
20003cfe:	e000e7b7          	lui	a5,0xe000e
20003d02:	1157a023          	sw	s5,256(a5) # e000e100 <_eusrstack+0xc0006100>
20003d06:	1147a223          	sw	s4,260(a5)
20003d0a:	54e2                	lw	s1,56(sp)
20003d0c:	4432                	lw	s0,12(sp)
20003d0e:	5952                	lw	s2,52(sp)
20003d10:	59c2                	lw	s3,48(sp)
20003d12:	5a32                	lw	s4,44(sp)
20003d14:	5aa2                	lw	s5,40(sp)
20003d16:	5b12                	lw	s6,36(sp)
20003d18:	5b82                	lw	s7,32(sp)
20003d1a:	4c72                	lw	s8,28(sp)
20003d1c:	4ce2                	lw	s9,24(sp)
20003d1e:	6121                	addi	sp,sp,64
20003d20:	8082                	ret
20003d22:	47a5                	li	a5,9
20003d24:	06f99563          	bne	s3,a5,20003d8e <FLASH_EEPROM_CMD+0x190>
20003d28:	6985                	lui	s3,0x1
20003d2a:	0ff00913          	li	s2,255
20003d2e:	009906b3          	add	a3,s2,s1
20003d32:	012b74b3          	and	s1,s6,s2
20003d36:	94b6                	add	s1,s1,a3
20003d38:	fff94913          	not	s2,s2
20003d3c:	009974b3          	and	s1,s2,s1
20003d40:	6b85                	lui	s7,0x1
20003d42:	01697933          	and	s2,s2,s6
20003d46:	6b41                	lui	s6,0x10
20003d48:	fff98793          	addi	a5,s3,-1 # fff <_sinit-0x1>
20003d4c:	0127f7b3          	and	a5,a5,s2
20003d50:	e399                	bnez	a5,20003d56 <FLASH_EEPROM_CMD+0x158>
20003d52:	0134fc63          	bgeu	s1,s3,20003d6a <FLASH_EEPROM_CMD+0x16c>
20003d56:	0049d993          	srli	s3,s3,0x4
20003d5a:	47c1                	li	a5,16
20003d5c:	ff37e6e3          	bltu	a5,s3,20003d48 <FLASH_EEPROM_CMD+0x14a>
20003d60:	bf99                	j	20003cb6 <FLASH_EEPROM_CMD+0xb8>
20003d62:	6905                	lui	s2,0x1
20003d64:	69c1                	lui	s3,0x10
20003d66:	197d                	addi	s2,s2,-1
20003d68:	b7d9                	j	20003d2e <FLASH_EEPROM_CMD+0x130>
20003d6a:	0d800513          	li	a0,216
20003d6e:	01698863          	beq	s3,s6,20003d7e <FLASH_EEPROM_CMD+0x180>
20003d72:	02000513          	li	a0,32
20003d76:	01798463          	beq	s3,s7,20003d7e <FLASH_EEPROM_CMD+0x180>
20003d7a:	08100513          	li	a0,129
20003d7e:	85ca                	mv	a1,s2
20003d80:	3bfd                	jal	20003b7e <FLASH_ROM_ADDR>
20003d82:	3591                	jal	20003bc6 <FLASH_ROM_WAIT>
20003d84:	dd21                	beqz	a0,20003cdc <FLASH_EEPROM_CMD+0xde>
20003d86:	994e                	add	s2,s2,s3
20003d88:	413484b3          	sub	s1,s1,s3
20003d8c:	b7d9                	j	20003d52 <FLASH_EEPROM_CMD+0x154>
20003d8e:	85da                	mv	a1,s6
20003d90:	452d                	li	a0,11
20003d92:	33f5                	jal	20003b7e <FLASH_ROM_ADDR>
20003d94:	94ca                	add	s1,s1,s2
20003d96:	f29900e3          	beq	s2,s1,20003cb6 <FLASH_EEPROM_CMD+0xb8>
20003d9a:	0905                	addi	s2,s2,1
20003d9c:	33d9                	jal	20003b62 <FLASH_ROM_IN>
20003d9e:	fea90fa3          	sb	a0,-1(s2) # fff <_sinit-0x1>
20003da2:	bfd5                	j	20003d96 <FLASH_EEPROM_CMD+0x198>
20003da4:	fff98793          	addi	a5,s3,-1 # ffff <HCI_ValidConnTimeParams+0x4b>
20003da8:	0ff7f793          	andi	a5,a5,255
20003dac:	08fc6c63          	bltu	s8,a5,20003e44 <.loop401+0x54>
20003db0:	045cc703          	lbu	a4,69(s9)
20003db4:	000807b7          	lui	a5,0x80
20003db8:	02077713          	andi	a4,a4,32
20003dbc:	e319                	bnez	a4,20003dc2 <FLASH_EEPROM_CMD+0x1c4>
20003dbe:	000787b7          	lui	a5,0x78
20003dc2:	5579                	li	a0,-2
20003dc4:	f0fb7de3          	bgeu	s6,a5,20003cde <FLASH_EEPROM_CMD+0xe0>
20003dc8:	009b0733          	add	a4,s6,s1
20003dcc:	f0e7e9e3          	bltu	a5,a4,20003cde <FLASH_EEPROM_CMD+0xe0>
20003dd0:	4789                	li	a5,2
20003dd2:	04f99063          	bne	s3,a5,20003e12 <.loop401+0x22>
20003dd6:	8089                	srli	s1,s1,0x2
20003dd8:	49d5                	li	s3,21
20003dda:	ec048ee3          	beqz	s1,20003cb6 <FLASH_EEPROM_CMD+0xb8>
20003dde:	85da                	mv	a1,s6
20003de0:	4509                	li	a0,2
20003de2:	3b71                	jal	20003b7e <FLASH_ROM_ADDR>
20003de4:	0911                	addi	s2,s2,4
20003de6:	ffc92703          	lw	a4,-4(s2)
20003dea:	4791                	li	a5,4
20003dec:	80e42023          	sw	a4,-2048(s0)

20003df0 <.loop401>:
20003df0:	80640703          	lb	a4,-2042(s0)
20003df4:	fe074ee3          	bltz	a4,20003df0 <.loop401>
20003df8:	81340323          	sb	s3,-2042(s0)
20003dfc:	17fd                	addi	a5,a5,-1
20003dfe:	fbed                	bnez	a5,20003df0 <.loop401>
20003e00:	14fd                	addi	s1,s1,-1
20003e02:	0b11                	addi	s6,s6,4
20003e04:	c481                	beqz	s1,20003e0c <.loop401+0x1c>
20003e06:	0ffb7793          	andi	a5,s6,255
20003e0a:	ffe9                	bnez	a5,20003de4 <FLASH_EEPROM_CMD+0x1e6>
20003e0c:	3b6d                	jal	20003bc6 <FLASH_ROM_WAIT>
20003e0e:	f571                	bnez	a0,20003dda <FLASH_EEPROM_CMD+0x1dc>
20003e10:	b5f1                	j	20003cdc <FLASH_EEPROM_CMD+0xde>
20003e12:	4785                	li	a5,1
20003e14:	f4f987e3          	beq	s3,a5,20003d62 <FLASH_EEPROM_CMD+0x164>
20003e18:	85da                	mv	a1,s6
20003e1a:	452d                	li	a0,11
20003e1c:	338d                	jal	20003b7e <FLASH_ROM_ADDR>
20003e1e:	fff48993          	addi	s3,s1,-1 # 7ffff <_data_lma+0x609eb>
20003e22:	e8048ae3          	beqz	s1,20003cb6 <FLASH_EEPROM_CMD+0xb8>
20003e26:	3b35                	jal	20003b62 <FLASH_ROM_IN>
20003e28:	0039f793          	andi	a5,s3,3
20003e2c:	eb91                	bnez	a5,20003e40 <.loop401+0x50>
20003e2e:	80042683          	lw	a3,-2048(s0)
20003e32:	00092703          	lw	a4,0(s2)
20003e36:	00490793          	addi	a5,s2,4
20003e3a:	e6e69fe3          	bne	a3,a4,20003cb8 <FLASH_EEPROM_CMD+0xba>
20003e3e:	893e                	mv	s2,a5
20003e40:	84ce                	mv	s1,s3
20003e42:	bff1                	j	20003e1e <.loop401+0x2e>
20003e44:	47b5                	li	a5,13
20003e46:	00f99663          	bne	s3,a5,20003e52 <.loop401+0x62>
20003e4a:	0b900513          	li	a0,185
20003e4e:	39d5                	jal	20003b42 <FLASH_ROM_BEG>
20003e50:	b59d                	j	20003cb6 <FLASH_EEPROM_CMD+0xb8>
20003e52:	47b1                	li	a5,12
20003e54:	0ab00513          	li	a0,171
20003e58:	fef98be3          	beq	s3,a5,20003e4e <.loop401+0x5e>
20003e5c:	4799                	li	a5,6
20003e5e:	02f99e63          	bne	s3,a5,20003e9a <.loop401+0xaa>
20003e62:	85da                	mv	a1,s6
20003e64:	452d                	li	a0,11
20003e66:	3b21                	jal	20003b7e <FLASH_ROM_ADDR>
20003e68:	4481                	li	s1,0
20003e6a:	4b8d                	li	s7,3
20003e6c:	49a1                	li	s3,8
20003e6e:	39d5                	jal	20003b62 <FLASH_ROM_IN>
20003e70:	01749663          	bne	s1,s7,20003e7c <.loop401+0x8c>
20003e74:	80042783          	lw	a5,-2048(s0)
20003e78:	00f92023          	sw	a5,0(s2)
20003e7c:	0485                	addi	s1,s1,1
20003e7e:	ff3498e3          	bne	s1,s3,20003e6e <.loop401+0x7e>
20003e82:	80042783          	lw	a5,-2048(s0)
20003e86:	012b1713          	slli	a4,s6,0x12
20003e8a:	00075563          	bgez	a4,20003e94 <.loop401+0xa4>
20003e8e:	00f91223          	sh	a5,4(s2)
20003e92:	b515                	j	20003cb6 <FLASH_EEPROM_CMD+0xb8>
20003e94:	00f92223          	sw	a5,4(s2)
20003e98:	bd39                	j	20003cb6 <FLASH_EEPROM_CMD+0xb8>
20003e9a:	479d                	li	a5,7
20003e9c:	02f99963          	bne	s3,a5,20003ece <.loop401+0xde>
20003ea0:	4581                	li	a1,0
20003ea2:	04b00513          	li	a0,75
20003ea6:	39e1                	jal	20003b7e <FLASH_ROM_ADDR>
20003ea8:	44bd                	li	s1,15
20003eaa:	00092023          	sw	zero,0(s2)
20003eae:	00092223          	sw	zero,4(s2)
20003eb2:	59fd                	li	s3,-1
20003eb4:	317d                	jal	20003b62 <FLASH_ROM_IN>
20003eb6:	0074f793          	andi	a5,s1,7
20003eba:	97ca                	add	a5,a5,s2
20003ebc:	0007c703          	lbu	a4,0(a5) # 78000 <_data_lma+0x589ec>
20003ec0:	14fd                	addi	s1,s1,-1
20003ec2:	8d39                	xor	a0,a0,a4
20003ec4:	00a78023          	sb	a0,0(a5)
20003ec8:	ff3496e3          	bne	s1,s3,20003eb4 <.loop401+0xc4>
20003ecc:	b3ed                	j	20003cb6 <FLASH_EEPROM_CMD+0xb8>
20003ece:	47a1                	li	a5,8
20003ed0:	04f99263          	bne	s3,a5,20003f14 <.loop401+0x124>
20003ed4:	39cd                	jal	20003bc6 <FLASH_ROM_WAIT>
20003ed6:	4481                	li	s1,0
20003ed8:	000b0d63          	beqz	s6,20003ef2 <.loop401+0x102>
20003edc:	478d                	li	a5,3
20003ede:	03c00493          	li	s1,60
20003ee2:	00fb0863          	beq	s6,a5,20003ef2 <.loop401+0x102>
20003ee6:	05000493          	li	s1,80
20003eea:	018b0463          	beq	s6,s8,20003ef2 <.loop401+0x102>
20003eee:	04400493          	li	s1,68
20003ef2:	07c57513          	andi	a0,a0,124
20003ef6:	dc9500e3          	beq	a0,s1,20003cb6 <FLASH_EEPROM_CMD+0xb8>
20003efa:	4519                	li	a0,6
20003efc:	3199                	jal	20003b42 <FLASH_ROM_BEG>
20003efe:	3999                	jal	20003b54 <FLASH_ROM_END>
20003f00:	4505                	li	a0,1
20003f02:	3181                	jal	20003b42 <FLASH_ROM_BEG>
20003f04:	8526                	mv	a0,s1
20003f06:	31ad                	jal	20003b70 <FLASH_ROM_OUT>
20003f08:	4509                	li	a0,2
20003f0a:	319d                	jal	20003b70 <FLASH_ROM_OUT>
20003f0c:	396d                	jal	20003bc6 <FLASH_ROM_WAIT>
20003f0e:	da0514e3          	bnez	a0,20003cb6 <FLASH_EEPROM_CMD+0xb8>
20003f12:	b3e9                	j	20003cdc <FLASH_EEPROM_CMD+0xde>
20003f14:	4791                	li	a5,4
20003f16:	00f99963          	bne	s3,a5,20003f28 <.loop401+0x138>
20003f1a:	06600513          	li	a0,102
20003f1e:	3115                	jal	20003b42 <FLASH_ROM_BEG>
20003f20:	3915                	jal	20003b54 <FLASH_ROM_END>
20003f22:	09900513          	li	a0,153
20003f26:	b725                	j	20003e4e <.loop401+0x5e>
20003f28:	d80987e3          	beqz	s3,20003cb6 <FLASH_EEPROM_CMD+0xb8>
20003f2c:	54f1                	li	s1,-4
20003f2e:	b369                	j	20003cb8 <FLASH_EEPROM_CMD+0xba>

20003f30 <tmos_switch_32k>:
tmos_switch_32k():
20003f30:	cd09                	beqz	a0,20003f4a <tmos_switch_32k+0x1a>
20003f32:	400017b7          	lui	a5,0x40001
20003f36:	05700713          	li	a4,87
20003f3a:	04e78023          	sb	a4,64(a5) # 40001040 <_eusrstack+0x1fff9040>
20003f3e:	fa800713          	li	a4,-88
20003f42:	04e78023          	sb	a4,64(a5)
20003f46:	02a79623          	sh	a0,44(a5)
20003f4a:	8082                	ret

20003f4c <tmos_memcpy>:
tmos_memcpy():
20003f4c:	c119                	beqz	a0,20003f52 <tmos_memcpy+0x6>
20003f4e:	4781                	li	a5,0
20003f50:	e999                	bnez	a1,20003f66 <tmos_memcpy+0x1a>
20003f52:	8082                	ret
20003f54:	00f58733          	add	a4,a1,a5
20003f58:	00074683          	lbu	a3,0(a4) # 78000 <_data_lma+0x589ec>
20003f5c:	00f50733          	add	a4,a0,a5
20003f60:	0785                	addi	a5,a5,1
20003f62:	00d70023          	sb	a3,0(a4)
20003f66:	fec797e3          	bne	a5,a2,20003f54 <tmos_memcpy+0x8>
20003f6a:	b7e5                	j	20003f52 <tmos_memcpy+0x6>

20003f6c <tmos_memcpy_word>:
tmos_memcpy_word():
20003f6c:	c119                	beqz	a0,20003f72 <tmos_memcpy_word+0x6>
20003f6e:	57fd                	li	a5,-1
20003f70:	e981                	bnez	a1,20003f80 <tmos_memcpy_word+0x14>
20003f72:	8082                	ret
20003f74:	0591                	addi	a1,a1,4
20003f76:	ffc5a703          	lw	a4,-4(a1)
20003f7a:	0511                	addi	a0,a0,4
20003f7c:	fee52e23          	sw	a4,-4(a0)
20003f80:	167d                	addi	a2,a2,-1
20003f82:	fef619e3          	bne	a2,a5,20003f74 <tmos_memcpy_word+0x8>
20003f86:	b7f5                	j	20003f72 <tmos_memcpy_word+0x6>

20003f88 <TMOS_SystemProcess>:
TMOS_SystemProcess():
20003f88:	7179                	addi	sp,sp,-48
20003f8a:	d422                	sw	s0,40(sp)
20003f8c:	00003417          	auipc	s0,0x3
20003f90:	7f840413          	addi	s0,s0,2040 # 20007784 <pfnProcessCBs>
20003f94:	401c                	lw	a5,0(s0)
20003f96:	d606                	sw	ra,44(sp)
20003f98:	d226                	sw	s1,36(sp)
20003f9a:	d04a                	sw	s2,32(sp)
20003f9c:	ce4e                	sw	s3,28(sp)
20003f9e:	c791                	beqz	a5,20003faa <TMOS_SystemProcess+0x22>
20003fa0:	9782                	jalr	a5
20003fa2:	00003797          	auipc	a5,0x3
20003fa6:	7e07a123          	sw	zero,2018(a5) # 20007784 <pfnProcessCBs>
20003faa:	405c                	lw	a5,4(s0)
20003fac:	cb89                	beqz	a5,20003fbe <TMOS_SystemProcess+0x36>
20003fae:	7501d503          	lhu	a0,1872(gp) # 20004f50 <Tune32K_FLASH>
20003fb2:	3fbd                	jal	20003f30 <tmos_switch_32k>
20003fb4:	405c                	lw	a5,4(s0)
20003fb6:	9782                	jalr	a5
20003fb8:	7521d503          	lhu	a0,1874(gp) # 20004f52 <Tune32K_RAM>
20003fbc:	3f95                	jal	20003f30 <tmos_switch_32k>
20003fbe:	401c                	lw	a5,0(s0)
20003fc0:	18079963          	bnez	a5,20004152 <TMOS_SystemProcess+0x1ca>
20003fc4:	00004797          	auipc	a5,0x4
20003fc8:	8dd7c783          	lbu	a5,-1827(a5) # 200078a1 <gBleIPPara+0x5>
20003fcc:	8b85                	andi	a5,a5,1
20003fce:	c795                	beqz	a5,20003ffa <TMOS_SystemProcess+0x72>
20003fd0:	00004797          	auipc	a5,0x4
20003fd4:	8c0788a3          	sb	zero,-1839(a5) # 200078a1 <gBleIPPara+0x5>
20003fd8:	00004717          	auipc	a4,0x4
20003fdc:	8cb74703          	lbu	a4,-1845(a4) # 200078a3 <gBleIPPara+0x7>
20003fe0:	4791                	li	a5,4
20003fe2:	00e7fc63          	bgeu	a5,a4,20003ffa <TMOS_SystemProcess+0x72>
20003fe6:	23dd                	jal	200045cc <ll_rx_wait_finish>
20003fe8:	00004797          	auipc	a5,0x4
20003fec:	8bb7c783          	lbu	a5,-1861(a5) # 200078a3 <gBleIPPara+0x7>
20003ff0:	17f9                	addi	a5,a5,-2
20003ff2:	078a                	slli	a5,a5,0x2
20003ff4:	97a2                	add	a5,a5,s0
20003ff6:	439c                	lw	a5,0(a5)
20003ff8:	9782                	jalr	a5
20003ffa:	00004797          	auipc	a5,0x4
20003ffe:	8f27c783          	lbu	a5,-1806(a5) # 200078ec <rfInfo+0x14>
20004002:	8b91                	andi	a5,a5,4
20004004:	c789                	beqz	a5,2000400e <TMOS_SystemProcess+0x86>
20004006:	e0012097          	auipc	ra,0xe0012
2000400a:	140080e7          	jalr	320(ra) # 16146 <RF_FrequencyHoppingChange>
2000400e:	441c                	lw	a5,8(s0)
20004010:	c391                	beqz	a5,20004014 <TMOS_SystemProcess+0x8c>
20004012:	9782                	jalr	a5
20004014:	74c18793          	addi	a5,gp,1868 # 20004f4c <EventsArr>
20004018:	4398                	lw	a4,0(a5)
2000401a:	00003617          	auipc	a2,0x3
2000401e:	74764603          	lbu	a2,1863(a2) # 20007761 <gTmosPara+0x1>
20004022:	893e                	mv	s2,a5
20004024:	00003497          	auipc	s1,0x3
20004028:	73c48493          	addi	s1,s1,1852 # 20007760 <gTmosPara>
2000402c:	00003797          	auipc	a5,0x3
20004030:	7347c783          	lbu	a5,1844(a5) # 20007760 <gTmosPara>
20004034:	00179693          	slli	a3,a5,0x1
20004038:	96ba                	add	a3,a3,a4
2000403a:	0006d683          	lhu	a3,0(a3)
2000403e:	10068063          	beqz	a3,2000413e <TMOS_SystemProcess+0x1b6>
20004042:	00003797          	auipc	a5,0x3
20004046:	71e7c783          	lbu	a5,1822(a5) # 20007760 <gTmosPara>
2000404a:	08c7f263          	bgeu	a5,a2,200040ce <TMOS_SystemProcess+0x146>
2000404e:	0786                	slli	a5,a5,0x1
20004050:	973e                	add	a4,a4,a5
20004052:	00075583          	lhu	a1,0(a4)
20004056:	00071023          	sh	zero,0(a4)
2000405a:	7501d503          	lhu	a0,1872(gp) # 20004f50 <Tune32K_FLASH>
2000405e:	c62e                	sw	a1,12(sp)
20004060:	74019c23          	sh	zero,1880(gp) # 20004f58 <eventsClear>
20004064:	35f1                	jal	20003f30 <tmos_switch_32k>
20004066:	76418793          	addi	a5,gp,1892 # 20004f64 <tasksArr>
2000406a:	439c                	lw	a5,0(a5)
2000406c:	00003517          	auipc	a0,0x3
20004070:	6f454503          	lbu	a0,1780(a0) # 20007760 <gTmosPara>
20004074:	00251713          	slli	a4,a0,0x2
20004078:	97ba                	add	a5,a5,a4
2000407a:	439c                	lw	a5,0(a5)
2000407c:	45b2                	lw	a1,12(sp)
2000407e:	9782                	jalr	a5
20004080:	89aa                	mv	s3,a0
20004082:	7521d503          	lhu	a0,1874(gp) # 20004f52 <Tune32K_RAM>
20004086:	356d                	jal	20003f30 <tmos_switch_32k>
20004088:	00003797          	auipc	a5,0x3
2000408c:	6d87c783          	lbu	a5,1752(a5) # 20007760 <gTmosPara>
20004090:	00179713          	slli	a4,a5,0x1
20004094:	00092783          	lw	a5,0(s2)
20004098:	7581d503          	lhu	a0,1880(gp) # 20004f58 <eventsClear>
2000409c:	fff54513          	not	a0,a0
200040a0:	97ba                	add	a5,a5,a4
200040a2:	0007d703          	lhu	a4,0(a5)
200040a6:	01357533          	and	a0,a0,s3
200040aa:	8d59                	or	a0,a0,a4
200040ac:	00a79023          	sh	a0,0(a5)
200040b0:	0004c783          	lbu	a5,0(s1)
200040b4:	0785                	addi	a5,a5,1
200040b6:	0ff7f793          	andi	a5,a5,255
200040ba:	00003717          	auipc	a4,0x3
200040be:	6af70323          	sb	a5,1702(a4) # 20007760 <gTmosPara>
200040c2:	00003717          	auipc	a4,0x3
200040c6:	69f74703          	lbu	a4,1695(a4) # 20007761 <gTmosPara+0x1>
200040ca:	00e7e663          	bltu	a5,a4,200040d6 <TMOS_SystemProcess+0x14e>
200040ce:	00003797          	auipc	a5,0x3
200040d2:	68078923          	sb	zero,1682(a5) # 20007760 <gTmosPara>
200040d6:	401c                	lw	a5,0(s0)
200040d8:	efad                	bnez	a5,20004152 <TMOS_SystemProcess+0x1ca>
200040da:	75c18793          	addi	a5,gp,1884 # 20004f5c <pfnTimerCBs>
200040de:	4398                	lw	a4,0(a5)
200040e0:	843e                	mv	s0,a5
200040e2:	cb25                	beqz	a4,20004152 <TMOS_SystemProcess+0x1ca>
200040e4:	00003797          	auipc	a5,0x3
200040e8:	7c37c783          	lbu	a5,1987(a5) # 200078a7 <gBleIPPara+0xb>
200040ec:	cb91                	beqz	a5,20004100 <TMOS_SystemProcess+0x178>
200040ee:	00003797          	auipc	a5,0x3
200040f2:	7b57c783          	lbu	a5,1973(a5) # 200078a3 <gBleIPPara+0x7>
200040f6:	e789                	bnez	a5,20004100 <TMOS_SystemProcess+0x178>
200040f8:	e0012097          	auipc	ra,0xe0012
200040fc:	b1e080e7          	jalr	-1250(ra) # 15c16 <ll_multi_states_process>
20004100:	401c                	lw	a5,0(s0)
20004102:	9782                	jalr	a5
20004104:	842a                	mv	s0,a0
20004106:	c531                	beqz	a0,20004152 <TMOS_SystemProcess+0x1ca>
20004108:	489c                	lw	a5,16(s1)
2000410a:	97aa                	add	a5,a5,a0
2000410c:	00003717          	auipc	a4,0x3
20004110:	66f72223          	sw	a5,1636(a4) # 20007770 <gTmosPara+0x10>
20004114:	76018793          	addi	a5,gp,1888 # 20004f60 <taskHead>
20004118:	439c                	lw	a5,0(a5)
2000411a:	cf85                	beqz	a5,20004152 <TMOS_SystemProcess+0x1ca>
2000411c:	7501d503          	lhu	a0,1872(gp) # 20004f50 <Tune32K_FLASH>
20004120:	3d01                	jal	20003f30 <tmos_switch_32k>
20004122:	8522                	mv	a0,s0
20004124:	e0000097          	auipc	ra,0xe0000
20004128:	452080e7          	jalr	1106(ra) # 4576 <tmos_query_system_time>
2000412c:	5422                	lw	s0,40(sp)
2000412e:	50b2                	lw	ra,44(sp)
20004130:	5492                	lw	s1,36(sp)
20004132:	5902                	lw	s2,32(sp)
20004134:	49f2                	lw	s3,28(sp)
20004136:	7521d503          	lhu	a0,1874(gp) # 20004f52 <Tune32K_RAM>
2000413a:	6145                	addi	sp,sp,48
2000413c:	bbd5                	j	20003f30 <tmos_switch_32k>
2000413e:	0785                	addi	a5,a5,1
20004140:	0ff7f793          	andi	a5,a5,255
20004144:	00003697          	auipc	a3,0x3
20004148:	60f68e23          	sb	a5,1564(a3) # 20007760 <gTmosPara>
2000414c:	eec7e0e3          	bltu	a5,a2,2000402c <TMOS_SystemProcess+0xa4>
20004150:	bdcd                	j	20004042 <TMOS_SystemProcess+0xba>
20004152:	50b2                	lw	ra,44(sp)
20004154:	5422                	lw	s0,40(sp)
20004156:	5492                	lw	s1,36(sp)
20004158:	5902                	lw	s2,32(sp)
2000415a:	49f2                	lw	s3,28(sp)
2000415c:	6145                	addi	sp,sp,48
2000415e:	8082                	ret

20004160 <BLE_GetHSEClock>:
BLE_GetHSEClock():
20004160:	6791                	lui	a5,0x4
20004162:	4000c6b7          	lui	a3,0x4000c
20004166:	30378793          	addi	a5,a5,771 # 4303 <tmos_rand+0x43>
2000416a:	20f6a623          	sw	a5,524(a3) # 4000c20c <_eusrstack+0x2000420c>
2000416e:	0000100f          	fence.i
20004172:	00003797          	auipc	a5,0x3
20004176:	5ee78793          	addi	a5,a5,1518 # 20007760 <gTmosPara>
2000417a:	4f88                	lw	a0,24(a5)
2000417c:	00001797          	auipc	a5,0x1
20004180:	ee078793          	addi	a5,a5,-288 # 2000505c <gptrLLEReg>
20004184:	439c                	lw	a5,0(a5)
20004186:	6731                	lui	a4,0xc
20004188:	30370713          	addi	a4,a4,771 # c303 <l2capSendFCPkt.part.3+0x6d>
2000418c:	53f0                	lw	a2,100(a5)
2000418e:	001007b7          	lui	a5,0x100
20004192:	17fd                	addi	a5,a5,-1
20004194:	8f91                	sub	a5,a5,a2
20004196:	8399                	srli	a5,a5,0x6
20004198:	053a                	slli	a0,a0,0xe
2000419a:	20e6a623          	sw	a4,524(a3)
2000419e:	8d5d                	or	a0,a0,a5
200041a0:	8082                	ret

200041a2 <RTC_Get32KClock>:
RTC_Get32KClock():
200041a2:	1141                	addi	sp,sp,-16
200041a4:	400017b7          	lui	a5,0x40001
200041a8:	5f98                	lw	a4,56(a5)
200041aa:	c63a                	sw	a4,12(sp)
200041ac:	5f94                	lw	a3,56(a5)
200041ae:	4732                	lw	a4,12(sp)
200041b0:	fee69ce3          	bne	a3,a4,200041a8 <RTC_Get32KClock+0x6>
200041b4:	4532                	lw	a0,12(sp)
200041b6:	0141                	addi	sp,sp,16
200041b8:	8082                	ret

200041ba <SYS_GetTickCount>:
SYS_GetTickCount():
200041ba:	1141                	addi	sp,sp,-16
200041bc:	c606                	sw	ra,12(sp)
200041be:	37d5                	jal	200041a2 <RTC_Get32KClock>
200041c0:	00003697          	auipc	a3,0x3
200041c4:	5786c683          	lbu	a3,1400(a3) # 20007738 <ble+0x14>
200041c8:	8a85                	andi	a3,a3,1
200041ca:	c6b1                	beqz	a3,20004216 <SYS_GetTickCount+0x5c>
200041cc:	33300793          	li	a5,819
200041d0:	02f50733          	mul	a4,a0,a5
200041d4:	02f537b3          	mulhu	a5,a0,a5
200041d8:	8339                	srli	a4,a4,0xe
200041da:	07ca                	slli	a5,a5,0x12
200041dc:	8fd9                	or	a5,a5,a4
200041de:	00003717          	auipc	a4,0x3
200041e2:	58270713          	addi	a4,a4,1410 # 20007760 <gTmosPara>
200041e6:	4b58                	lw	a4,20(a4)
200041e8:	4501                	li	a0,0
200041ea:	02f70363          	beq	a4,a5,20004210 <SYS_GetTickCount+0x56>
200041ee:	40e78533          	sub	a0,a5,a4
200041f2:	00f76b63          	bltu	a4,a5,20004208 <SYS_GetTickCount+0x4e>
200041f6:	083d6537          	lui	a0,0x83d6
200041fa:	c689                	beqz	a3,20004204 <SYS_GetTickCount+0x4a>
200041fc:	086f8537          	lui	a0,0x86f8
20004200:	90050513          	addi	a0,a0,-1792 # 86f7900 <_data_lma+0x86d82ec>
20004204:	8d19                	sub	a0,a0,a4
20004206:	953e                	add	a0,a0,a5
20004208:	00003717          	auipc	a4,0x3
2000420c:	56f72623          	sw	a5,1388(a4) # 20007774 <gTmosPara+0x14>
20004210:	40b2                	lw	ra,12(sp)
20004212:	0141                	addi	sp,sp,16
20004214:	8082                	ret
20004216:	47e5                	li	a5,25
20004218:	02f50733          	mul	a4,a0,a5
2000421c:	02f537b3          	mulhu	a5,a0,a5
20004220:	8325                	srli	a4,a4,0x9
20004222:	07de                	slli	a5,a5,0x17
20004224:	bf65                	j	200041dc <SYS_GetTickCount+0x22>

20004226 <ll_connect_process_data>:
ll_connect_process_data():
20004226:	0fc52703          	lw	a4,252(a0)
2000422a:	00b54683          	lbu	a3,11(a0)
2000422e:	00003797          	auipc	a5,0x3
20004232:	66e78793          	addi	a5,a5,1646 # 2000789c <gBleIPPara>
20004236:	4f9c                	lw	a5,24(a5)
20004238:	4358                	lw	a4,4(a4)
2000423a:	02168693          	addi	a3,a3,33
2000423e:	8295                	srli	a3,a3,0x5
20004240:	4390                	lw	a2,0(a5)
20004242:	16fd                	addi	a3,a3,-1
20004244:	0ff6f693          	andi	a3,a3,255
20004248:	c310                	sw	a2,0(a4)
2000424a:	43d0                	lw	a2,4(a5)
2000424c:	c350                	sw	a2,4(a4)
2000424e:	4790                	lw	a2,8(a5)
20004250:	c710                	sw	a2,8(a4)
20004252:	47d0                	lw	a2,12(a5)
20004254:	c750                	sw	a2,12(a4)
20004256:	4b90                	lw	a2,16(a5)
20004258:	cb10                	sw	a2,16(a4)
2000425a:	4bd0                	lw	a2,20(a5)
2000425c:	cb50                	sw	a2,20(a4)
2000425e:	4f90                	lw	a2,24(a5)
20004260:	cf10                	sw	a2,24(a4)
20004262:	4fd0                	lw	a2,28(a5)
20004264:	cf50                	sw	a2,28(a4)
20004266:	c691                	beqz	a3,20004272 <ll_connect_process_data+0x4c>
20004268:	02070713          	addi	a4,a4,32
2000426c:	02078793          	addi	a5,a5,32
20004270:	bfc1                	j	20004240 <ll_connect_process_data+0x1a>
20004272:	8082                	ret

20004274 <ll_connect_event_continue>:
ll_connect_event_continue():
20004274:	01e54783          	lbu	a5,30(a0)
20004278:	0fe7f793          	andi	a5,a5,254
2000427c:	eff1                	bnez	a5,20004358 <ll_connect_event_continue+0xe4>
2000427e:	872a                	mv	a4,a0
20004280:	01f54503          	lbu	a0,31(a0)
20004284:	e971                	bnez	a0,20004358 <ll_connect_event_continue+0xe4>
20004286:	01074603          	lbu	a2,16(a4)
2000428a:	00874683          	lbu	a3,8(a4)
2000428e:	ca09                	beqz	a2,200042a0 <ll_connect_event_continue+0x2c>
20004290:	02a74583          	lbu	a1,42(a4)
20004294:	00003797          	auipc	a5,0x3
20004298:	4a57c783          	lbu	a5,1189(a5) # 20007739 <ble+0x15>
2000429c:	00f5e763          	bltu	a1,a5,200042aa <ll_connect_event_continue+0x36>
200042a0:	0106f793          	andi	a5,a3,16
200042a4:	cfc5                	beqz	a5,2000435c <ll_connect_event_continue+0xe8>
200042a6:	4781                	li	a5,0
200042a8:	ca09                	beqz	a2,200042ba <ll_connect_event_continue+0x46>
200042aa:	15074783          	lbu	a5,336(a4)
200042ae:	14f74603          	lbu	a2,335(a4)
200042b2:	8ac1                	andi	a3,a3,16
200042b4:	07a2                	slli	a5,a5,0x8
200042b6:	8fd1                	or	a5,a5,a2
200042b8:	ca81                	beqz	a3,200042c8 <ll_connect_event_continue+0x54>
200042ba:	15374683          	lbu	a3,339(a4)
200042be:	15474703          	lbu	a4,340(a4)
200042c2:	0722                	slli	a4,a4,0x8
200042c4:	8f55                	or	a4,a4,a3
200042c6:	97ba                	add	a5,a5,a4
200042c8:	cbd1                	beqz	a5,2000435c <ll_connect_event_continue+0xe8>
200042ca:	00003717          	auipc	a4,0x3
200042ce:	68a70713          	addi	a4,a4,1674 # 20007954 <gBleLlPara>
200042d2:	4738                	lw	a4,72(a4)
200042d4:	1141                	addi	sp,sp,-16
200042d6:	c422                	sw	s0,8(sp)
200042d8:	c606                	sw	ra,12(sp)
200042da:	547d                	li	s0,-1
200042dc:	08072683          	lw	a3,128(a4)
200042e0:	0086f363          	bgeu	a3,s0,200042e6 <ll_connect_event_continue+0x72>
200042e4:	8436                	mv	s0,a3
200042e6:	4318                	lw	a4,0(a4)
200042e8:	fb75                	bnez	a4,200042dc <ll_connect_event_continue+0x68>
200042ea:	00003717          	auipc	a4,0x3
200042ee:	44e74703          	lbu	a4,1102(a4) # 20007738 <ble+0x14>
200042f2:	01871693          	slli	a3,a4,0x18
200042f6:	86e1                	srai	a3,a3,0x18
200042f8:	0206d963          	bgez	a3,2000432a <ll_connect_event_continue+0xb6>
200042fc:	13c78793          	addi	a5,a5,316
20004300:	8395                	srli	a5,a5,0x5
20004302:	00003717          	auipc	a4,0x3
20004306:	44074703          	lbu	a4,1088(a4) # 20007742 <ble+0x1e>
2000430a:	97ba                	add	a5,a5,a4
2000430c:	0406d063          	bgez	a3,2000434c <ll_connect_event_continue+0xd8>
20004310:	8c1d                	sub	s0,s0,a5
20004312:	76818793          	addi	a5,gp,1896 # 20004f68 <fnGetClockCBs>
20004316:	439c                	lw	a5,0(a5)
20004318:	9782                	jalr	a5
2000431a:	00a43533          	sltu	a0,s0,a0
2000431e:	40b2                	lw	ra,12(sp)
20004320:	4422                	lw	s0,8(sp)
20004322:	00154513          	xori	a0,a0,1
20004326:	0141                	addi	sp,sp,16
20004328:	8082                	ret
2000432a:	8b05                	andi	a4,a4,1
2000432c:	12c78793          	addi	a5,a5,300
20004330:	cb09                	beqz	a4,20004342 <ll_connect_event_continue+0xce>
20004332:	078a                	slli	a5,a5,0x2
20004334:	03f78793          	addi	a5,a5,63
20004338:	07d00513          	li	a0,125
2000433c:	02a7d7b3          	divu	a5,a5,a0
20004340:	b7c9                	j	20004302 <ll_connect_event_continue+0x8e>
20004342:	0786                	slli	a5,a5,0x1
20004344:	07fd                	addi	a5,a5,31
20004346:	03d00513          	li	a0,61
2000434a:	bfcd                	j	2000433c <ll_connect_event_continue+0xc8>
2000434c:	fcf472e3          	bgeu	s0,a5,20004310 <ll_connect_event_continue+0x9c>
20004350:	a8c00537          	lui	a0,0xa8c00
20004354:	942a                	add	s0,s0,a0
20004356:	bf6d                	j	20004310 <ll_connect_event_continue+0x9c>
20004358:	4501                	li	a0,0
2000435a:	8082                	ret
2000435c:	8082                	ret

2000435e <BB_IRQLibHandler>:
BB_IRQLibHandler():
2000435e:	1141                	addi	sp,sp,-16
20004360:	c422                	sw	s0,8(sp)
20004362:	00001417          	auipc	s0,0x1
20004366:	cea40413          	addi	s0,s0,-790 # 2000504c <gptrBBReg>
2000436a:	4018                	lw	a4,0(s0)
2000436c:	c04a                	sw	s2,0(sp)
2000436e:	c606                	sw	ra,12(sp)
20004370:	5f1c                	lw	a5,56(a4)
20004372:	c226                	sw	s1,4(sp)
20004374:	00001917          	auipc	s2,0x1
20004378:	cd490913          	addi	s2,s2,-812 # 20005048 <gptrAESReg>
2000437c:	8399                	srli	a5,a5,0x6
2000437e:	8b85                	andi	a5,a5,1
20004380:	c3d1                	beqz	a5,20004404 <BB_IRQLibHandler+0xa6>
20004382:	5f1c                	lw	a5,56(a4)
20004384:	00003497          	auipc	s1,0x3
20004388:	51848493          	addi	s1,s1,1304 # 2000789c <gBleIPPara>
2000438c:	f9f7f793          	andi	a5,a5,-97
20004390:	df1c                	sw	a5,56(a4)
20004392:	00003797          	auipc	a5,0x3
20004396:	50a7c783          	lbu	a5,1290(a5) # 2000789c <gBleIPPara>
2000439a:	0407f793          	andi	a5,a5,64
2000439e:	c38d                	beqz	a5,200043c0 <BB_IRQLibHandler+0x62>
200043a0:	76818793          	addi	a5,gp,1896 # 20004f68 <fnGetClockCBs>
200043a4:	439c                	lw	a5,0(a5)
200043a6:	9782                	jalr	a5
200043a8:	00003797          	auipc	a5,0x3
200043ac:	50a7a223          	sw	a0,1284(a5) # 200078ac <gBleIPPara+0x10>
200043b0:	0004c783          	lbu	a5,0(s1)
200043b4:	0bf7f793          	andi	a5,a5,191
200043b8:	00003717          	auipc	a4,0x3
200043bc:	4ef70223          	sb	a5,1252(a4) # 2000789c <gBleIPPara>
200043c0:	4785                	li	a5,1
200043c2:	00003717          	auipc	a4,0x3
200043c6:	4cf70fa3          	sb	a5,1247(a4) # 200078a1 <gBleIPPara+0x5>
200043ca:	0044c783          	lbu	a5,4(s1)
200043ce:	0407f793          	andi	a5,a5,64
200043d2:	ef91                	bnez	a5,200043ee <BB_IRQLibHandler+0x90>
200043d4:	00001797          	auipc	a5,0x1
200043d8:	c8878793          	addi	a5,a5,-888 # 2000505c <gptrLLEReg>
200043dc:	439c                	lw	a5,0(a5)
200043de:	44d8                	lw	a4,12(s1)
200043e0:	d3b8                	sw	a4,96(a5)
200043e2:	fc000793          	li	a5,-64
200043e6:	00003717          	auipc	a4,0x3
200043ea:	4af70d23          	sb	a5,1210(a4) # 200078a0 <gBleIPPara+0x4>
200043ee:	00648783          	lb	a5,6(s1)
200043f2:	0007d963          	bgez	a5,20004404 <BB_IRQLibHandler+0xa6>
200043f6:	00092783          	lw	a5,0(s2)
200043fa:	439c                	lw	a5,0(a5)
200043fc:	00003717          	auipc	a4,0x3
20004400:	4af70323          	sb	a5,1190(a4) # 200078a2 <gBleIPPara+0x6>
20004404:	4018                	lw	a4,0(s0)
20004406:	5f1c                	lw	a5,56(a4)
20004408:	8385                	srli	a5,a5,0x1
2000440a:	8b85                	andi	a5,a5,1
2000440c:	cbd9                	beqz	a5,200044a2 <BB_IRQLibHandler+0x144>
2000440e:	57f5                	li	a5,-3
20004410:	df1c                	sw	a5,56(a4)
20004412:	0001                	nop
20004414:	0001                	nop
20004416:	0001                	nop
20004418:	0001                	nop
2000441a:	0001                	nop
2000441c:	0001                	nop
2000441e:	0001                	nop
20004420:	0001                	nop
20004422:	0001                	nop
20004424:	0001                	nop
20004426:	0001                	nop
20004428:	0001                	nop
2000442a:	0001                	nop
2000442c:	0001                	nop
2000442e:	0001                	nop
20004430:	0001                	nop
20004432:	0001                	nop
20004434:	0001                	nop
20004436:	0001                	nop
20004438:	0001                	nop
2000443a:	0001                	nop
2000443c:	0001                	nop
2000443e:	0001                	nop
20004440:	0001                	nop
20004442:	0001                	nop
20004444:	0001                	nop
20004446:	0001                	nop
20004448:	0001                	nop
2000444a:	0001                	nop
2000444c:	0001                	nop
2000444e:	0001                	nop
20004450:	0001                	nop
20004452:	0001                	nop
20004454:	0001                	nop
20004456:	0001                	nop
20004458:	0001                	nop
2000445a:	0001                	nop
2000445c:	0001                	nop
2000445e:	0001                	nop
20004460:	0001                	nop
20004462:	0001                	nop
20004464:	0001                	nop
20004466:	0001                	nop
20004468:	0001                	nop
2000446a:	0001                	nop
2000446c:	0001                	nop
2000446e:	0001                	nop
20004470:	0001                	nop
20004472:	0001                	nop
20004474:	0001                	nop
20004476:	0001                	nop
20004478:	0001                	nop
2000447a:	0001                	nop
2000447c:	0001                	nop
2000447e:	0001                	nop
20004480:	0001                	nop
20004482:	0001                	nop
20004484:	0001                	nop
20004486:	0001                	nop
20004488:	0001                	nop
2000448a:	0001                	nop
2000448c:	0001                	nop
2000448e:	0001                	nop
20004490:	0001                	nop
20004492:	00001797          	auipc	a5,0x1
20004496:	bca78793          	addi	a5,a5,-1078 # 2000505c <gptrLLEReg>
2000449a:	439c                	lw	a5,0(a5)
2000449c:	04500713          	li	a4,69
200044a0:	cbb8                	sw	a4,80(a5)
200044a2:	4018                	lw	a4,0(s0)
200044a4:	5f1c                	lw	a5,56(a4)
200044a6:	8391                	srli	a5,a5,0x4
200044a8:	8b85                	andi	a5,a5,1
200044aa:	cf99                	beqz	a5,200044c8 <BB_IRQLibHandler+0x16a>
200044ac:	57bd                	li	a5,-17
200044ae:	df1c                	sw	a5,56(a4)
200044b0:	00001797          	auipc	a5,0x1
200044b4:	bac78793          	addi	a5,a5,-1108 # 2000505c <gptrLLEReg>
200044b8:	439c                	lw	a5,0(a5)
200044ba:	0407a823          	sw	zero,80(a5)
200044be:	4785                	li	a5,1
200044c0:	00003717          	auipc	a4,0x3
200044c4:	3ef70023          	sb	a5,992(a4) # 200078a0 <gBleIPPara+0x4>
200044c8:	00092783          	lw	a5,0(s2)
200044cc:	43d8                	lw	a4,4(a5)
200044ce:	8305                	srli	a4,a4,0x1
200044d0:	8b05                	andi	a4,a4,1
200044d2:	c719                	beqz	a4,200044e0 <BB_IRQLibHandler+0x182>
200044d4:	43d8                	lw	a4,4(a5)
200044d6:	9b75                	andi	a4,a4,-3
200044d8:	c3d8                	sw	a4,4(a5)
200044da:	43d8                	lw	a4,4(a5)
200044dc:	9b79                	andi	a4,a4,-2
200044de:	c3d8                	sw	a4,4(a5)
200044e0:	40b2                	lw	ra,12(sp)
200044e2:	4422                	lw	s0,8(sp)
200044e4:	4492                	lw	s1,4(sp)
200044e6:	4902                	lw	s2,0(sp)
200044e8:	0141                	addi	sp,sp,16
200044ea:	8082                	ret

200044ec <BB_IRQLibFunction>:
BB_IRQLibFunction():
200044ec:	7139                	addi	sp,sp,-64
200044ee:	de06                	sw	ra,60(sp)
200044f0:	dc16                	sw	t0,56(sp)
200044f2:	da1a                	sw	t1,52(sp)
200044f4:	d81e                	sw	t2,48(sp)
200044f6:	d62a                	sw	a0,44(sp)
200044f8:	d42e                	sw	a1,40(sp)
200044fa:	d232                	sw	a2,36(sp)
200044fc:	d036                	sw	a3,32(sp)
200044fe:	ce3a                	sw	a4,28(sp)
20004500:	cc3e                	sw	a5,24(sp)
20004502:	ca42                	sw	a6,20(sp)
20004504:	c846                	sw	a7,16(sp)
20004506:	c672                	sw	t3,12(sp)
20004508:	c476                	sw	t4,8(sp)
2000450a:	c27a                	sw	t5,4(sp)
2000450c:	c07e                	sw	t6,0(sp)
2000450e:	3d81                	jal	2000435e <BB_IRQLibHandler>
20004510:	50f2                	lw	ra,60(sp)
20004512:	52e2                	lw	t0,56(sp)
20004514:	5352                	lw	t1,52(sp)
20004516:	53c2                	lw	t2,48(sp)
20004518:	5532                	lw	a0,44(sp)
2000451a:	55a2                	lw	a1,40(sp)
2000451c:	5612                	lw	a2,36(sp)
2000451e:	5682                	lw	a3,32(sp)
20004520:	4772                	lw	a4,28(sp)
20004522:	47e2                	lw	a5,24(sp)
20004524:	4852                	lw	a6,20(sp)
20004526:	48c2                	lw	a7,16(sp)
20004528:	4e32                	lw	t3,12(sp)
2000452a:	4ea2                	lw	t4,8(sp)
2000452c:	4f12                	lw	t5,4(sp)
2000452e:	4f82                	lw	t6,0(sp)
20004530:	6121                	addi	sp,sp,64
20004532:	30200073          	mret

20004536 <ll_tx_wait_finish>:
ll_tx_wait_finish():
20004536:	00001797          	auipc	a5,0x1
2000453a:	b2678793          	addi	a5,a5,-1242 # 2000505c <gptrLLEReg>
2000453e:	4394                	lw	a3,0(a5)
20004540:	00003717          	auipc	a4,0x3
20004544:	35c70713          	addi	a4,a4,860 # 2000789c <gBleIPPara>
20004548:	52bc                	lw	a5,96(a3)
2000454a:	cf89                	beqz	a5,20004564 <ll_tx_wait_finish+0x2e>
2000454c:	00274783          	lbu	a5,2(a4)
20004550:	8b85                	andi	a5,a5,1
20004552:	eb89                	bnez	a5,20004564 <ll_tx_wait_finish+0x2e>
20004554:	00374783          	lbu	a5,3(a4)
20004558:	8b85                	andi	a5,a5,1
2000455a:	d7fd                	beqz	a5,20004548 <ll_tx_wait_finish+0x12>
2000455c:	00003797          	auipc	a5,0x3
20004560:	34078223          	sb	zero,836(a5) # 200078a0 <gBleIPPara+0x4>
20004564:	8082                	ret

20004566 <ll_tx_wait_tx_dma>:
ll_tx_wait_tx_dma():
20004566:	00001797          	auipc	a5,0x1
2000456a:	af278793          	addi	a5,a5,-1294 # 20005058 <gPaControl>
2000456e:	439c                	lw	a5,0(a5)
20004570:	cb99                	beqz	a5,20004586 <ll_tx_wait_tx_dma+0x20>
20004572:	4b94                	lw	a3,16(a5)
20004574:	4bd0                	lw	a2,20(a5)
20004576:	4298                	lw	a4,0(a3)
20004578:	8f51                	or	a4,a4,a2
2000457a:	c298                	sw	a4,0(a3)
2000457c:	4394                	lw	a3,0(a5)
2000457e:	479c                	lw	a5,8(a5)
20004580:	4298                	lw	a4,0(a3)
20004582:	8fd9                	or	a5,a5,a4
20004584:	c29c                	sw	a5,0(a3)
20004586:	00001797          	auipc	a5,0x1
2000458a:	ad678793          	addi	a5,a5,-1322 # 2000505c <gptrLLEReg>
2000458e:	439c                	lw	a5,0(a5)
20004590:	4000c737          	lui	a4,0x4000c
20004594:	03c00613          	li	a2,60
20004598:	cba8                	sw	a0,80(a5)
2000459a:	03200693          	li	a3,50
2000459e:	00003597          	auipc	a1,0x3
200045a2:	2fe58593          	addi	a1,a1,766 # 2000789c <gBleIPPara>
200045a6:	20872783          	lw	a5,520(a4) # 4000c208 <_eusrstack+0x20004208>
200045aa:	83c1                	srli	a5,a5,0x10
200045ac:	03f7f793          	andi	a5,a5,63
200045b0:	00f66963          	bltu	a2,a5,200045c2 <ll_tx_wait_tx_dma+0x5c>
200045b4:	20872783          	lw	a5,520(a4)
200045b8:	83c1                	srli	a5,a5,0x10
200045ba:	03f7f793          	andi	a5,a5,63
200045be:	00f6e663          	bltu	a3,a5,200045ca <ll_tx_wait_tx_dma+0x64>
200045c2:	0045c783          	lbu	a5,4(a1)
200045c6:	8b85                	andi	a5,a5,1
200045c8:	dff9                	beqz	a5,200045a6 <ll_tx_wait_tx_dma+0x40>
200045ca:	8082                	ret

200045cc <ll_rx_wait_finish>:
ll_rx_wait_finish():
200045cc:	00001797          	auipc	a5,0x1
200045d0:	a9078793          	addi	a5,a5,-1392 # 2000505c <gptrLLEReg>
200045d4:	4394                	lw	a3,0(a5)
200045d6:	00003717          	auipc	a4,0x3
200045da:	2c670713          	addi	a4,a4,710 # 2000789c <gBleIPPara>
200045de:	52bc                	lw	a5,96(a3)
200045e0:	cb89                	beqz	a5,200045f2 <ll_rx_wait_finish+0x26>
200045e2:	00074783          	lbu	a5,0(a4)
200045e6:	8b85                	andi	a5,a5,1
200045e8:	cb91                	beqz	a5,200045fc <ll_rx_wait_finish+0x30>
200045ea:	00003797          	auipc	a5,0x3
200045ee:	2a078b23          	sb	zero,694(a5) # 200078a0 <gBleIPPara+0x4>
200045f2:	00003797          	auipc	a5,0x3
200045f6:	2a0787a3          	sb	zero,687(a5) # 200078a1 <gBleIPPara+0x5>
200045fa:	8082                	ret
200045fc:	00174783          	lbu	a5,1(a4)
20004600:	8b85                	andi	a5,a5,1
20004602:	dff1                	beqz	a5,200045de <ll_rx_wait_finish+0x12>
20004604:	b7dd                	j	200045ea <ll_rx_wait_finish+0x1e>

20004606 <ll_rx_wait_tx_dma>:
ll_rx_wait_tx_dma():
20004606:	00001797          	auipc	a5,0x1
2000460a:	a5278793          	addi	a5,a5,-1454 # 20005058 <gPaControl>
2000460e:	439c                	lw	a5,0(a5)
20004610:	cb99                	beqz	a5,20004626 <ll_rx_wait_tx_dma+0x20>
20004612:	4b94                	lw	a3,16(a5)
20004614:	4bd0                	lw	a2,20(a5)
20004616:	4298                	lw	a4,0(a3)
20004618:	8f51                	or	a4,a4,a2
2000461a:	c298                	sw	a4,0(a3)
2000461c:	4394                	lw	a3,0(a5)
2000461e:	479c                	lw	a5,8(a5)
20004620:	4298                	lw	a4,0(a3)
20004622:	8fd9                	or	a5,a5,a4
20004624:	c29c                	sw	a5,0(a3)
20004626:	00001797          	auipc	a5,0x1
2000462a:	a3678793          	addi	a5,a5,-1482 # 2000505c <gptrLLEReg>
2000462e:	4394                	lw	a3,0(a5)
20004630:	4000c737          	lui	a4,0x4000c
20004634:	45c1                	li	a1,16
20004636:	caa8                	sw	a0,80(a3)
20004638:	4665                	li	a2,25
2000463a:	20872783          	lw	a5,520(a4) # 4000c208 <_eusrstack+0x20004208>
2000463e:	83c1                	srli	a5,a5,0x10
20004640:	03f7f793          	andi	a5,a5,63
20004644:	00f5fb63          	bgeu	a1,a5,2000465a <ll_rx_wait_tx_dma+0x54>
20004648:	20872783          	lw	a5,520(a4)
2000464c:	83c1                	srli	a5,a5,0x10
2000464e:	03f7f793          	andi	a5,a5,63
20004652:	00f66463          	bltu	a2,a5,2000465a <ll_rx_wait_tx_dma+0x54>
20004656:	52bc                	lw	a5,96(a3)
20004658:	f3ed                	bnez	a5,2000463a <ll_rx_wait_tx_dma+0x34>
2000465a:	8082                	ret

2000465c <ble_ll_chkcrc>:
ble_ll_chkcrc():
2000465c:	00001717          	auipc	a4,0x1
20004660:	9f070713          	addi	a4,a4,-1552 # 2000504c <gptrBBReg>
20004664:	4318                	lw	a4,0(a4)
20004666:	87aa                	mv	a5,a0
20004668:	5f18                	lw	a4,56(a4)
2000466a:	8315                	srli	a4,a4,0x5
2000466c:	8b05                	andi	a4,a4,1
2000466e:	e341                	bnez	a4,200046ee <ble_ll_chkcrc+0x92>
20004670:	00154503          	lbu	a0,1(a0) # a8c00001 <_eusrstack+0x88bf8001>
20004674:	0515                	addi	a0,a0,5
20004676:	1fc57713          	andi	a4,a0,508
2000467a:	c619                	beqz	a2,20004688 <ble_ll_chkcrc+0x2c>
2000467c:	00e786b3          	add	a3,a5,a4
20004680:	0026c683          	lbu	a3,2(a3)
20004684:	00d60023          	sb	a3,0(a2)
20004688:	c595                	beqz	a1,200046b4 <ble_ll_chkcrc+0x58>
2000468a:	00003697          	auipc	a3,0x3
2000468e:	2186c683          	lbu	a3,536(a3) # 200078a2 <gBleIPPara+0x6>
20004692:	0406f693          	andi	a3,a3,64
20004696:	4509                	li	a0,2
20004698:	cea1                	beqz	a3,200046f0 <ble_ll_chkcrc+0x94>
2000469a:	00e786b3          	add	a3,a5,a4
2000469e:	0036c683          	lbu	a3,3(a3)
200046a2:	4605                	li	a2,1
200046a4:	06f6f593          	andi	a1,a3,111
200046a8:	04c59463          	bne	a1,a2,200046f0 <ble_ll_chkcrc+0x94>
200046ac:	06e2                	slli	a3,a3,0x18
200046ae:	86e1                	srai	a3,a3,0x18
200046b0:	0406c063          	bltz	a3,200046f0 <ble_ll_chkcrc+0x94>
200046b4:	00e78533          	add	a0,a5,a4
200046b8:	00154783          	lbu	a5,1(a0)
200046bc:	00054703          	lbu	a4,0(a0)
200046c0:	07a2                	slli	a5,a5,0x8
200046c2:	7007f793          	andi	a5,a5,1792
200046c6:	8fd9                	or	a5,a5,a4
200046c8:	01079713          	slli	a4,a5,0x10
200046cc:	8341                	srli	a4,a4,0x10
200046ce:	40077693          	andi	a3,a4,1024
200046d2:	ca89                	beqz	a3,200046e4 <ble_ll_chkcrc+0x88>
200046d4:	80076713          	ori	a4,a4,-2048
200046d8:	00001797          	auipc	a5,0x1
200046dc:	96e79e23          	sh	a4,-1668(a5) # 20005054 <cfo_comp>
200046e0:	4501                	li	a0,0
200046e2:	8082                	ret
200046e4:	00001717          	auipc	a4,0x1
200046e8:	96f71823          	sh	a5,-1680(a4) # 20005054 <cfo_comp>
200046ec:	bfd5                	j	200046e0 <ble_ll_chkcrc+0x84>
200046ee:	4505                	li	a0,1
200046f0:	8082                	ret

200046f2 <LLE_IRQLibHandler>:
LLE_IRQLibHandler():
200046f2:	00001697          	auipc	a3,0x1
200046f6:	96a68693          	addi	a3,a3,-1686 # 2000505c <gptrLLEReg>
200046fa:	428c                	lw	a1,0(a3)
200046fc:	8536                	mv	a0,a3
200046fe:	00003697          	auipc	a3,0x3
20004702:	19e68693          	addi	a3,a3,414 # 2000789c <gBleIPPara>
20004706:	4598                	lw	a4,8(a1)
20004708:	01071793          	slli	a5,a4,0x10
2000470c:	83c1                	srli	a5,a5,0x10
2000470e:	20177813          	andi	a6,a4,513
20004712:	863e                	mv	a2,a5
20004714:	04080663          	beqz	a6,20004760 <LLE_IRQLibHandler+0x6e>
20004718:	20077713          	andi	a4,a4,512
2000471c:	c769                	beqz	a4,200047e6 <LLE_IRQLibHandler+0xf4>
2000471e:	0026c703          	lbu	a4,2(a3)
20004722:	00176713          	ori	a4,a4,1
20004726:	00003817          	auipc	a6,0x3
2000472a:	16e80c23          	sb	a4,376(a6) # 2000789e <gBleIPPara+0x2>
2000472e:	19000713          	li	a4,400
20004732:	d1b8                	sw	a4,96(a1)
20004734:	f8000713          	li	a4,-128
20004738:	00003597          	auipc	a1,0x3
2000473c:	16e58423          	sb	a4,360(a1) # 200078a0 <gBleIPPara+0x4>
20004740:	00001717          	auipc	a4,0x1
20004744:	90c70713          	addi	a4,a4,-1780 # 2000504c <gptrBBReg>
20004748:	430c                	lw	a1,0(a4)
2000474a:	10000837          	lui	a6,0x10000
2000474e:	55d8                	lw	a4,44(a1)
20004750:	9b71                	andi	a4,a4,-4
20004752:	00276713          	ori	a4,a4,2
20004756:	d5d8                	sw	a4,44(a1)
20004758:	4198                	lw	a4,0(a1)
2000475a:	01076733          	or	a4,a4,a6
2000475e:	c198                	sw	a4,0(a1)
20004760:	10267713          	andi	a4,a2,258
20004764:	c305                	beqz	a4,20004784 <LLE_IRQLibHandler+0x92>
20004766:	10067613          	andi	a2,a2,256
2000476a:	ce59                	beqz	a2,20004808 <__global_pointer$+0x8>
2000476c:	0006c703          	lbu	a4,0(a3)
20004770:	00176713          	ori	a4,a4,1
20004774:	00003617          	auipc	a2,0x3
20004778:	12e60423          	sb	a4,296(a2) # 2000789c <gBleIPPara>
2000477c:	00003717          	auipc	a4,0x3
20004780:	12071423          	sh	zero,296(a4) # 200078a4 <gBleIPPara+0x8>
20004784:	0046c683          	lbu	a3,4(a3)
20004788:	fff7c793          	not	a5,a5
2000478c:	07c2                	slli	a5,a5,0x10
2000478e:	06e2                	slli	a3,a3,0x18
20004790:	86e1                	srai	a3,a3,0x18
20004792:	83c1                	srli	a5,a5,0x10
20004794:	4118                	lw	a4,0(a0)
20004796:	0206d163          	bgez	a3,200047b8 <LLE_IRQLibHandler+0xc6>
2000479a:	01179693          	slli	a3,a5,0x11
2000479e:	0606de63          	bgez	a3,2000481a <__global_pointer$+0x1a>
200047a2:	5330                	lw	a2,96(a4)
200047a4:	468d                	li	a3,3
200047a6:	00c6e963          	bltu	a3,a2,200047b8 <LLE_IRQLibHandler+0xc6>
200047aa:	4685                	li	a3,1
200047ac:	00003617          	auipc	a2,0x3
200047b0:	0ed60a23          	sb	a3,244(a2) # 200078a0 <gBleIPPara+0x4>
200047b4:	5334                	lw	a3,96(a4)
200047b6:	fefd                	bnez	a3,200047b4 <LLE_IRQLibHandler+0xc2>
200047b8:	00003697          	auipc	a3,0x3
200047bc:	f6c68693          	addi	a3,a3,-148 # 20007724 <ble>
200047c0:	01468683          	lb	a3,20(a3)
200047c4:	0006dd63          	bgez	a3,200047de <LLE_IRQLibHandler+0xec>
200047c8:	01079693          	slli	a3,a5,0x10
200047cc:	86c1                	srai	a3,a3,0x10
200047ce:	0406dc63          	bgez	a3,20004826 <__global_pointer$+0x26>
200047d2:	5370                	lw	a2,100(a4)
200047d4:	4689                	li	a3,2
200047d6:	00c6e463          	bltu	a3,a2,200047de <LLE_IRQLibHandler+0xec>
200047da:	5374                	lw	a3,100(a4)
200047dc:	fefd                	bnez	a3,200047da <LLE_IRQLibHandler+0xe8>
200047de:	4714                	lw	a3,8(a4)
200047e0:	8ff5                	and	a5,a5,a3
200047e2:	c71c                	sw	a5,8(a4)
200047e4:	8082                	ret
200047e6:	0016c703          	lbu	a4,1(a3)
200047ea:	00176713          	ori	a4,a4,1
200047ee:	00003597          	auipc	a1,0x3
200047f2:	0ae587a3          	sb	a4,175(a1) # 2000789d <gBleIPPara+0x1>
200047f6:	00003717          	auipc	a4,0x3
200047fa:	0a070523          	sb	zero,170(a4) # 200078a0 <gBleIPPara+0x4>
200047fe:	00003717          	auipc	a4,0x3
20004802:	0a071323          	sh	zero,166(a4) # 200078a4 <gBleIPPara+0x8>
20004806:	bfa9                	j	20004760 <LLE_IRQLibHandler+0x6e>
20004808:	0036c703          	lbu	a4,3(a3)
2000480c:	00176713          	ori	a4,a4,1
20004810:	00003617          	auipc	a2,0x3
20004814:	08e607a3          	sb	a4,143(a2) # 2000789f <gBleIPPara+0x3>
20004818:	b795                	j	2000477c <LLE_IRQLibHandler+0x8a>
2000481a:	4685                	li	a3,1
2000481c:	00003617          	auipc	a2,0x3
20004820:	08d60223          	sb	a3,132(a2) # 200078a0 <gBleIPPara+0x4>
20004824:	bf51                	j	200047b8 <LLE_IRQLibHandler+0xc6>
20004826:	4754                	lw	a3,12(a4)
20004828:	01069613          	slli	a2,a3,0x10
2000482c:	02065163          	bgez	a2,2000484e <__global_pointer$+0x4e>
20004830:	001006b7          	lui	a3,0x100
20004834:	16fd                	addi	a3,a3,-1
20004836:	d374                	sw	a3,100(a4)
20004838:	00003697          	auipc	a3,0x3
2000483c:	f2868693          	addi	a3,a3,-216 # 20007760 <gTmosPara>
20004840:	4e94                	lw	a3,24(a3)
20004842:	0685                	addi	a3,a3,1
20004844:	00003617          	auipc	a2,0x3
20004848:	f2d62a23          	sw	a3,-204(a2) # 20007778 <gTmosPara+0x18>
2000484c:	bf49                	j	200047de <LLE_IRQLibHandler+0xec>
2000484e:	66a1                	lui	a3,0x8
20004850:	8fd5                	or	a5,a5,a3
20004852:	b771                	j	200047de <LLE_IRQLibHandler+0xec>

20004854 <LLE_IRQLibFunction>:
LLE_IRQLibFunction():
20004854:	7139                	addi	sp,sp,-64
20004856:	de06                	sw	ra,60(sp)
20004858:	dc16                	sw	t0,56(sp)
2000485a:	da1a                	sw	t1,52(sp)
2000485c:	d81e                	sw	t2,48(sp)
2000485e:	d62a                	sw	a0,44(sp)
20004860:	d42e                	sw	a1,40(sp)
20004862:	d232                	sw	a2,36(sp)
20004864:	d036                	sw	a3,32(sp)
20004866:	ce3a                	sw	a4,28(sp)
20004868:	cc3e                	sw	a5,24(sp)
2000486a:	ca42                	sw	a6,20(sp)
2000486c:	c846                	sw	a7,16(sp)
2000486e:	c672                	sw	t3,12(sp)
20004870:	c476                	sw	t4,8(sp)
20004872:	c27a                	sw	t5,4(sp)
20004874:	c07e                	sw	t6,0(sp)
20004876:	3db5                	jal	200046f2 <LLE_IRQLibHandler>
20004878:	50f2                	lw	ra,60(sp)
2000487a:	52e2                	lw	t0,56(sp)
2000487c:	5352                	lw	t1,52(sp)
2000487e:	53c2                	lw	t2,48(sp)
20004880:	5532                	lw	a0,44(sp)
20004882:	55a2                	lw	a1,40(sp)
20004884:	5612                	lw	a2,36(sp)
20004886:	5682                	lw	a3,32(sp)
20004888:	4772                	lw	a4,28(sp)
2000488a:	47e2                	lw	a5,24(sp)
2000488c:	4852                	lw	a6,20(sp)
2000488e:	48c2                	lw	a7,16(sp)
20004890:	4e32                	lw	t3,12(sp)
20004892:	4ea2                	lw	t4,8(sp)
20004894:	4f12                	lw	t5,4(sp)
20004896:	4f82                	lw	t6,0(sp)
20004898:	6121                	addi	sp,sp,64
2000489a:	30200073          	mret

2000489e <RF_HopGetChannel>:
RF_HopGetChannel():
2000489e:	00003717          	auipc	a4,0x3
200048a2:	01a70713          	addi	a4,a4,26 # 200078b8 <rfConfig>
200048a6:	01b74683          	lbu	a3,27(a4)
200048aa:	00003797          	auipc	a5,0x3
200048ae:	0437c783          	lbu	a5,67(a5) # 200078ed <rfInfo+0x15>
200048b2:	97b6                	add	a5,a5,a3
200048b4:	0ff7f793          	andi	a5,a5,255
200048b8:	46fd                	li	a3,31
200048ba:	04f6ea63          	bltu	a3,a5,2000490e <RF_HopGetChannel+0x70>
200048be:	4b4c                	lw	a1,20(a4)
200048c0:	00003697          	auipc	a3,0x3
200048c4:	fef68ca3          	sb	a5,-7(a3) # 200078b9 <rfConfig+0x1>
200048c8:	00003797          	auipc	a5,0x3
200048cc:	ff17c783          	lbu	a5,-15(a5) # 200078b9 <rfConfig+0x1>
200048d0:	4705                	li	a4,1
200048d2:	00f71733          	sll	a4,a4,a5
200048d6:	00003697          	auipc	a3,0x3
200048da:	00f68ba3          	sb	a5,23(a3) # 200078ed <rfInfo+0x15>
200048de:	8f6d                	and	a4,a4,a1
200048e0:	ef1d                	bnez	a4,2000491e <RF_HopGetChannel+0x80>
200048e2:	00003697          	auipc	a3,0x3
200048e6:	00f6c683          	lbu	a3,15(a3) # 200078f1 <rfInfo+0x19>
200048ea:	02d7f6b3          	remu	a3,a5,a3
200048ee:	02000513          	li	a0,32
200048f2:	4781                	li	a5,0
200048f4:	00f5d633          	srl	a2,a1,a5
200048f8:	8a05                	andi	a2,a2,1
200048fa:	0ff7f813          	andi	a6,a5,255
200048fe:	ce09                	beqz	a2,20004918 <RF_HopGetChannel+0x7a>
20004900:	00e69963          	bne	a3,a4,20004912 <RF_HopGetChannel+0x74>
20004904:	00003797          	auipc	a5,0x3
20004908:	fb078aa3          	sb	a6,-75(a5) # 200078b9 <rfConfig+0x1>
2000490c:	8082                	ret
2000490e:	1781                	addi	a5,a5,-32
20004910:	b77d                	j	200048be <RF_HopGetChannel+0x20>
20004912:	0705                	addi	a4,a4,1
20004914:	0ff77713          	andi	a4,a4,255
20004918:	0785                	addi	a5,a5,1
2000491a:	fca79de3          	bne	a5,a0,200048f4 <RF_HopGetChannel+0x56>
2000491e:	8082                	ret

20004920 <RFEND_WaitTune>:
RFEND_WaitTune():
20004920:	00000797          	auipc	a5,0x0
20004924:	74878793          	addi	a5,a5,1864 # 20005068 <gptrRFENDReg>
20004928:	4398                	lw	a4,0(a5)
2000492a:	000257b7          	lui	a5,0x25
2000492e:	9f278793          	addi	a5,a5,-1550 # 249f2 <_data_lma+0x53de>
20004932:	09072683          	lw	a3,144(a4)
20004936:	00569613          	slli	a2,a3,0x5
2000493a:	00065863          	bgez	a2,2000494a <RFEND_WaitTune+0x2a>
2000493e:	09072683          	lw	a3,144(a4)
20004942:	00669613          	slli	a2,a3,0x6
20004946:	00064463          	bltz	a2,2000494e <RFEND_WaitTune+0x2e>
2000494a:	17fd                	addi	a5,a5,-1
2000494c:	f3fd                	bnez	a5,20004932 <RFEND_WaitTune+0x12>
2000494e:	8082                	ret

20004950 <tmos_memory_allocate>:
tmos_memory_allocate():
20004950:	c145                	beqz	a0,200049f0 <tmos_memory_allocate+0xa0>
20004952:	87aa                	mv	a5,a0
20004954:	4501                	li	a0,0
20004956:	cdd9                	beqz	a1,200049f4 <tmos_memory_allocate+0xa4>
20004958:	078d                	addi	a5,a5,3
2000495a:	07c2                	slli	a5,a5,0x10
2000495c:	83c1                	srli	a5,a5,0x10
2000495e:	9bf1                	andi	a5,a5,-4
20004960:	07c2                	slli	a5,a5,0x10
20004962:	83c1                	srli	a5,a5,0x10
20004964:	03400713          	li	a4,52
20004968:	02f76f63          	bltu	a4,a5,200049a6 <tmos_memory_allocate+0x56>
2000496c:	00000717          	auipc	a4,0x0
20004970:	79070713          	addi	a4,a4,1936 # 200050fc <MemCtlStart>
20004974:	4308                	lw	a0,0(a4)
20004976:	00000717          	auipc	a4,0x0
2000497a:	77e70713          	addi	a4,a4,1918 # 200050f4 <MemCtlEnd>
2000497e:	4314                	lw	a3,0(a4)
20004980:	02a69863          	bne	a3,a0,200049b0 <tmos_memory_allocate+0x60>
20004984:	00003717          	auipc	a4,0x3
20004988:	da070713          	addi	a4,a4,-608 # 20007724 <ble>
2000498c:	5b18                	lw	a4,48(a4)
2000498e:	4501                	li	a0,0
20004990:	c335                	beqz	a4,200049f4 <tmos_memory_allocate+0xa4>
20004992:	1141                	addi	sp,sp,-16
20004994:	07c2                	slli	a5,a5,0x10
20004996:	c606                	sw	ra,12(sp)
20004998:	4505                	li	a0,1
2000499a:	8ddd                	or	a1,a1,a5
2000499c:	9702                	jalr	a4
2000499e:	40b2                	lw	ra,12(sp)
200049a0:	4501                	li	a0,0
200049a2:	0141                	addi	sp,sp,16
200049a4:	8082                	ret
200049a6:	00000717          	auipc	a4,0x0
200049aa:	75270713          	addi	a4,a4,1874 # 200050f8 <MemCtlPartition>
200049ae:	b7d9                	j	20004974 <tmos_memory_allocate+0x24>
200049b0:	00655703          	lhu	a4,6(a0)
200049b4:	ef05                	bnez	a4,200049ec <tmos_memory_allocate+0x9c>
200049b6:	00455703          	lhu	a4,4(a0)
200049ba:	02f76963          	bltu	a4,a5,200049ec <tmos_memory_allocate+0x9c>
200049be:	40f706b3          	sub	a3,a4,a5
200049c2:	4621                	li	a2,8
200049c4:	02d67063          	bgeu	a2,a3,200049e4 <tmos_memory_allocate+0x94>
200049c8:	4110                	lw	a2,0(a0)
200049ca:	00878693          	addi	a3,a5,8
200049ce:	8f1d                	sub	a4,a4,a5
200049d0:	96aa                	add	a3,a3,a0
200049d2:	1761                	addi	a4,a4,-8
200049d4:	c290                	sw	a2,0(a3)
200049d6:	00e69223          	sh	a4,4(a3)
200049da:	00069323          	sh	zero,6(a3)
200049de:	c114                	sw	a3,0(a0)
200049e0:	00f51223          	sh	a5,4(a0)
200049e4:	00b51323          	sh	a1,6(a0)
200049e8:	0521                	addi	a0,a0,8
200049ea:	8082                	ret
200049ec:	4108                	lw	a0,0(a0)
200049ee:	bf49                	j	20004980 <tmos_memory_allocate+0x30>
200049f0:	4501                	li	a0,0
200049f2:	8082                	ret
200049f4:	8082                	ret

200049f6 <tmos_memory_free>:
tmos_memory_free():
200049f6:	c105                	beqz	a0,20004a16 <tmos_memory_free+0x20>
200049f8:	00000797          	auipc	a5,0x0
200049fc:	70478793          	addi	a5,a5,1796 # 200050fc <MemCtlStart>
20004a00:	0007a803          	lw	a6,0(a5)
20004a04:	00000797          	auipc	a5,0x0
20004a08:	6f078793          	addi	a5,a5,1776 # 200050f4 <MemCtlEnd>
20004a0c:	438c                	lw	a1,0(a5)
20004a0e:	4701                	li	a4,0
20004a10:	87c2                	mv	a5,a6
20004a12:	00b7e363          	bltu	a5,a1,20004a18 <tmos_memory_free+0x22>
20004a16:	8082                	ret
20004a18:	4394                	lw	a3,0(a5)
20004a1a:	08f56763          	bltu	a0,a5,20004aa8 <tmos_memory_free+0xb2>
20004a1e:	08a6e563          	bltu	a3,a0,20004aa8 <tmos_memory_free+0xb2>
20004a22:	00878613          	addi	a2,a5,8
20004a26:	fec568e3          	bltu	a0,a2,20004a16 <tmos_memory_free+0x20>
20004a2a:	0067d503          	lhu	a0,6(a5)
20004a2e:	6621                	lui	a2,0x8
20004a30:	0605                	addi	a2,a2,1
20004a32:	00c51b63          	bne	a0,a2,20004a48 <tmos_memory_free+0x52>
20004a36:	00000617          	auipc	a2,0x0
20004a3a:	5ce64603          	lbu	a2,1486(a2) # 20005004 <l2capNumRecvDataPkts>
20004a3e:	0605                	addi	a2,a2,1
20004a40:	00000517          	auipc	a0,0x0
20004a44:	5cc50223          	sb	a2,1476(a0) # 20005004 <l2capNumRecvDataPkts>
20004a48:	00079323          	sh	zero,6(a5)
20004a4c:	03078663          	beq	a5,a6,20004a78 <tmos_memory_free+0x82>
20004a50:	00000617          	auipc	a2,0x0
20004a54:	6a860613          	addi	a2,a2,1704 # 200050f8 <MemCtlPartition>
20004a58:	4210                	lw	a2,0(a2)
20004a5a:	00f60f63          	beq	a2,a5,20004a78 <tmos_memory_free+0x82>
20004a5e:	00675603          	lhu	a2,6(a4)
20004a62:	ea19                	bnez	a2,20004a78 <tmos_memory_free+0x82>
20004a64:	0047d783          	lhu	a5,4(a5)
20004a68:	c314                	sw	a3,0(a4)
20004a6a:	00475683          	lhu	a3,4(a4)
20004a6e:	97b6                	add	a5,a5,a3
20004a70:	07a1                	addi	a5,a5,8
20004a72:	00f71223          	sh	a5,4(a4)
20004a76:	87ba                	mv	a5,a4
20004a78:	4398                	lw	a4,0(a5)
20004a7a:	f8b70ee3          	beq	a4,a1,20004a16 <tmos_memory_free+0x20>
20004a7e:	00000697          	auipc	a3,0x0
20004a82:	67a68693          	addi	a3,a3,1658 # 200050f8 <MemCtlPartition>
20004a86:	4294                	lw	a3,0(a3)
20004a88:	f8d707e3          	beq	a4,a3,20004a16 <tmos_memory_free+0x20>
20004a8c:	00675683          	lhu	a3,6(a4)
20004a90:	f2d9                	bnez	a3,20004a16 <tmos_memory_free+0x20>
20004a92:	0047d683          	lhu	a3,4(a5)
20004a96:	00475603          	lhu	a2,4(a4)
20004a9a:	4318                	lw	a4,0(a4)
20004a9c:	06a1                	addi	a3,a3,8
20004a9e:	96b2                	add	a3,a3,a2
20004aa0:	00d79223          	sh	a3,4(a5)
20004aa4:	c398                	sw	a4,0(a5)
20004aa6:	8082                	ret
20004aa8:	873e                	mv	a4,a5
20004aaa:	87b6                	mv	a5,a3
20004aac:	b79d                	j	20004a12 <tmos_memory_free+0x1c>
	...

Disassembly of section .text:

000022b8 <handle_reset>:
handle_reset():
C:\Users\OWNER\Desktop\CH573EVT_Write\EVT\EXAM\BLE\BackupUpgrade_OTA_BLE_UART\obj/../Startup/startup_CH573.S:114
	.weak	handle_reset
	.align	1
handle_reset:
.option push 
.option	norelax 
	la gp, __global_pointer$
    22b8:	20002197          	auipc	gp,0x20002
    22bc:	54818193          	addi	gp,gp,1352 # 20004800 <__global_pointer$>
C:\Users\OWNER\Desktop\CH573EVT_Write\EVT\EXAM\BLE\BackupUpgrade_OTA_BLE_UART\obj/../Startup/startup_CH573.S:117
.option	pop 
1:
	la sp, _eusrstack 
    22c0:	20006117          	auipc	sp,0x20006
    22c4:	d4010113          	addi	sp,sp,-704 # 20008000 <_eusrstack>
C:\Users\OWNER\Desktop\CH573EVT_Write\EVT\EXAM\BLE\BackupUpgrade_OTA_BLE_UART\obj/../Startup/startup_CH573.S:121

/* Load highcode code  section from flash to RAM */
2:
    la a0, _highcode_lma
    22c8:	fffff517          	auipc	a0,0xfffff
    22cc:	d4050513          	addi	a0,a0,-704 # 1008 <_einit>
C:\Users\OWNER\Desktop\CH573EVT_Write\EVT\EXAM\BLE\BackupUpgrade_OTA_BLE_UART\obj/../Startup/startup_CH573.S:122
    la a1, _highcode_vma_start
    22d0:	20001597          	auipc	a1,0x20001
    22d4:	53058593          	addi	a1,a1,1328 # 20003800 <_highcode_vma_start>
C:\Users\OWNER\Desktop\CH573EVT_Write\EVT\EXAM\BLE\BackupUpgrade_OTA_BLE_UART\obj/../Startup/startup_CH573.S:123
    la a2, _highcode_vma_end
    22d8:	20002617          	auipc	a2,0x20002
    22dc:	7d860613          	addi	a2,a2,2008 # 20004ab0 <_highcode_vma_end>
C:\Users\OWNER\Desktop\CH573EVT_Write\EVT\EXAM\BLE\BackupUpgrade_OTA_BLE_UART\obj/../Startup/startup_CH573.S:124
    bgeu a1, a2, 2f
    22e0:	00c5fa63          	bgeu	a1,a2,22f4 <handle_reset+0x3c>
C:\Users\OWNER\Desktop\CH573EVT_Write\EVT\EXAM\BLE\BackupUpgrade_OTA_BLE_UART\obj/../Startup/startup_CH573.S:127

1:
    lw t0, (a0)
    22e4:	00052283          	lw	t0,0(a0)
C:\Users\OWNER\Desktop\CH573EVT_Write\EVT\EXAM\BLE\BackupUpgrade_OTA_BLE_UART\obj/../Startup/startup_CH573.S:128
    sw t0, (a1)
    22e8:	0055a023          	sw	t0,0(a1)
C:\Users\OWNER\Desktop\CH573EVT_Write\EVT\EXAM\BLE\BackupUpgrade_OTA_BLE_UART\obj/../Startup/startup_CH573.S:129
    addi a0, a0, 4
    22ec:	0511                	addi	a0,a0,4
C:\Users\OWNER\Desktop\CH573EVT_Write\EVT\EXAM\BLE\BackupUpgrade_OTA_BLE_UART\obj/../Startup/startup_CH573.S:130
    addi a1, a1, 4
    22ee:	0591                	addi	a1,a1,4
C:\Users\OWNER\Desktop\CH573EVT_Write\EVT\EXAM\BLE\BackupUpgrade_OTA_BLE_UART\obj/../Startup/startup_CH573.S:131
    bltu a1, a2, 1b
    22f0:	fec5eae3          	bltu	a1,a2,22e4 <handle_reset+0x2c>
C:\Users\OWNER\Desktop\CH573EVT_Write\EVT\EXAM\BLE\BackupUpgrade_OTA_BLE_UART\obj/../Startup/startup_CH573.S:135

/* Load data section from flash to RAM */
2:
	la a0, _data_lma
    22f4:	0001d517          	auipc	a0,0x1d
    22f8:	32050513          	addi	a0,a0,800 # 1f614 <_data_lma>
C:\Users\OWNER\Desktop\CH573EVT_Write\EVT\EXAM\BLE\BackupUpgrade_OTA_BLE_UART\obj/../Startup/startup_CH573.S:136
	la a1, _data_vma
    22fc:	2b018593          	addi	a1,gp,688 # 20004ab0 <_highcode_vma_end>
C:\Users\OWNER\Desktop\CH573EVT_Write\EVT\EXAM\BLE\BackupUpgrade_OTA_BLE_UART\obj/../Startup/startup_CH573.S:137
	la a2, _edata
    2300:	6d818613          	addi	a2,gp,1752 # 20004ed8 <_edata>
C:\Users\OWNER\Desktop\CH573EVT_Write\EVT\EXAM\BLE\BackupUpgrade_OTA_BLE_UART\obj/../Startup/startup_CH573.S:138
	bgeu a1, a2, 2f
    2304:	00c5fa63          	bgeu	a1,a2,2318 <handle_reset+0x60>
C:\Users\OWNER\Desktop\CH573EVT_Write\EVT\EXAM\BLE\BackupUpgrade_OTA_BLE_UART\obj/../Startup/startup_CH573.S:140
1:
	lw t0, (a0)
    2308:	00052283          	lw	t0,0(a0)
C:\Users\OWNER\Desktop\CH573EVT_Write\EVT\EXAM\BLE\BackupUpgrade_OTA_BLE_UART\obj/../Startup/startup_CH573.S:141
	sw t0, (a1)
    230c:	0055a023          	sw	t0,0(a1)
C:\Users\OWNER\Desktop\CH573EVT_Write\EVT\EXAM\BLE\BackupUpgrade_OTA_BLE_UART\obj/../Startup/startup_CH573.S:142
	addi a0, a0, 4
    2310:	0511                	addi	a0,a0,4
C:\Users\OWNER\Desktop\CH573EVT_Write\EVT\EXAM\BLE\BackupUpgrade_OTA_BLE_UART\obj/../Startup/startup_CH573.S:143
	addi a1, a1, 4
    2312:	0591                	addi	a1,a1,4
C:\Users\OWNER\Desktop\CH573EVT_Write\EVT\EXAM\BLE\BackupUpgrade_OTA_BLE_UART\obj/../Startup/startup_CH573.S:144
	bltu a1, a2, 1b
    2314:	fec5eae3          	bltu	a1,a2,2308 <handle_reset+0x50>
C:\Users\OWNER\Desktop\CH573EVT_Write\EVT\EXAM\BLE\BackupUpgrade_OTA_BLE_UART\obj/../Startup/startup_CH573.S:147
2:
	/* clear bss section */
	la a0, _sbss
    2318:	6d818513          	addi	a0,gp,1752 # 20004ed8 <_edata>
C:\Users\OWNER\Desktop\CH573EVT_Write\EVT\EXAM\BLE\BackupUpgrade_OTA_BLE_UART\obj/../Startup/startup_CH573.S:148
	la a1, _ebss
    231c:	20005597          	auipc	a1,0x20005
    2320:	6e858593          	addi	a1,a1,1768 # 20007a04 <_ebss>
C:\Users\OWNER\Desktop\CH573EVT_Write\EVT\EXAM\BLE\BackupUpgrade_OTA_BLE_UART\obj/../Startup/startup_CH573.S:149
	bgeu a0, a1, 2f
    2324:	00b57763          	bgeu	a0,a1,2332 <handle_reset+0x7a>
C:\Users\OWNER\Desktop\CH573EVT_Write\EVT\EXAM\BLE\BackupUpgrade_OTA_BLE_UART\obj/../Startup/startup_CH573.S:151
1:
	sw zero, (a0)
    2328:	00052023          	sw	zero,0(a0)
C:\Users\OWNER\Desktop\CH573EVT_Write\EVT\EXAM\BLE\BackupUpgrade_OTA_BLE_UART\obj/../Startup/startup_CH573.S:152
	addi a0, a0, 4
    232c:	0511                	addi	a0,a0,4
C:\Users\OWNER\Desktop\CH573EVT_Write\EVT\EXAM\BLE\BackupUpgrade_OTA_BLE_UART\obj/../Startup/startup_CH573.S:153
	bltu a0, a1, 1b
    232e:	feb56de3          	bltu	a0,a1,2328 <handle_reset+0x70>
C:\Users\OWNER\Desktop\CH573EVT_Write\EVT\EXAM\BLE\BackupUpgrade_OTA_BLE_UART\obj/../Startup/startup_CH573.S:155
2:
    li t0, 0x1888
    2332:	000022b7          	lui	t0,0x2
    2336:	88828293          	addi	t0,t0,-1912 # 1888 <_einit+0x880>
C:\Users\OWNER\Desktop\CH573EVT_Write\EVT\EXAM\BLE\BackupUpgrade_OTA_BLE_UART\obj/../Startup/startup_CH573.S:156
    csrs mstatus, t0
    233a:	3002a073          	csrs	mstatus,t0
C:\Users\OWNER\Desktop\CH573EVT_Write\EVT\EXAM\BLE\BackupUpgrade_OTA_BLE_UART\obj/../Startup/startup_CH573.S:157
	la t0, _vector_base
    233e:	20001297          	auipc	t0,0x20001
    2342:	4c228293          	addi	t0,t0,1218 # 20003800 <_highcode_vma_start>
C:\Users\OWNER\Desktop\CH573EVT_Write\EVT\EXAM\BLE\BackupUpgrade_OTA_BLE_UART\obj/../Startup/startup_CH573.S:158
    ori t0, t0, 1
    2346:	0012e293          	ori	t0,t0,1
C:\Users\OWNER\Desktop\CH573EVT_Write\EVT\EXAM\BLE\BackupUpgrade_OTA_BLE_UART\obj/../Startup/startup_CH573.S:159
	csrw mtvec, t0
    234a:	30529073          	csrw	mtvec,t0
C:\Users\OWNER\Desktop\CH573EVT_Write\EVT\EXAM\BLE\BackupUpgrade_OTA_BLE_UART\obj/../Startup/startup_CH573.S:160
	la t0, main
    234e:	00002297          	auipc	t0,0x2
    2352:	d3228293          	addi	t0,t0,-718 # 4080 <main>
C:\Users\OWNER\Desktop\CH573EVT_Write\EVT\EXAM\BLE\BackupUpgrade_OTA_BLE_UART\obj/../Startup/startup_CH573.S:161
	csrw mepc, t0
    2356:	34129073          	csrw	mepc,t0
C:\Users\OWNER\Desktop\CH573EVT_Write\EVT\EXAM\BLE\BackupUpgrade_OTA_BLE_UART\obj/../Startup/startup_CH573.S:163

  mret
    235a:	30200073          	mret

0000235e <memset>:
memset():
    235e:	433d                	li	t1,15
    2360:	872a                	mv	a4,a0
    2362:	02c37363          	bgeu	t1,a2,2388 <memset+0x2a>
    2366:	00f77793          	andi	a5,a4,15
    236a:	efbd                	bnez	a5,23e8 <memset+0x8a>
    236c:	e5ad                	bnez	a1,23d6 <memset+0x78>
    236e:	ff067693          	andi	a3,a2,-16
    2372:	8a3d                	andi	a2,a2,15
    2374:	96ba                	add	a3,a3,a4
    2376:	c30c                	sw	a1,0(a4)
    2378:	c34c                	sw	a1,4(a4)
    237a:	c70c                	sw	a1,8(a4)
    237c:	c74c                	sw	a1,12(a4)
    237e:	0741                	addi	a4,a4,16
    2380:	fed76be3          	bltu	a4,a3,2376 <memset+0x18>
    2384:	e211                	bnez	a2,2388 <memset+0x2a>
    2386:	8082                	ret
    2388:	40c306b3          	sub	a3,t1,a2
    238c:	068a                	slli	a3,a3,0x2
    238e:	00000297          	auipc	t0,0x0
    2392:	9696                	add	a3,a3,t0
    2394:	00a68067          	jr	10(a3)
    2398:	00b70723          	sb	a1,14(a4)
    239c:	00b706a3          	sb	a1,13(a4)
    23a0:	00b70623          	sb	a1,12(a4)
    23a4:	00b705a3          	sb	a1,11(a4)
    23a8:	00b70523          	sb	a1,10(a4)
    23ac:	00b704a3          	sb	a1,9(a4)
    23b0:	00b70423          	sb	a1,8(a4)
    23b4:	00b703a3          	sb	a1,7(a4)
    23b8:	00b70323          	sb	a1,6(a4)
    23bc:	00b702a3          	sb	a1,5(a4)
    23c0:	00b70223          	sb	a1,4(a4)
    23c4:	00b701a3          	sb	a1,3(a4)
    23c8:	00b70123          	sb	a1,2(a4)
    23cc:	00b700a3          	sb	a1,1(a4)
    23d0:	00b70023          	sb	a1,0(a4)
    23d4:	8082                	ret
    23d6:	0ff5f593          	andi	a1,a1,255
    23da:	00859693          	slli	a3,a1,0x8
    23de:	8dd5                	or	a1,a1,a3
    23e0:	01059693          	slli	a3,a1,0x10
    23e4:	8dd5                	or	a1,a1,a3
    23e6:	b761                	j	236e <memset+0x10>
    23e8:	00279693          	slli	a3,a5,0x2
    23ec:	00000297          	auipc	t0,0x0
    23f0:	9696                	add	a3,a3,t0
    23f2:	8286                	mv	t0,ra
    23f4:	fa8680e7          	jalr	-88(a3)
    23f8:	8096                	mv	ra,t0
    23fa:	17c1                	addi	a5,a5,-16
    23fc:	8f1d                	sub	a4,a4,a5
    23fe:	963e                	add	a2,a2,a5
    2400:	f8c374e3          	bgeu	t1,a2,2388 <memset+0x2a>
    2404:	b7a5                	j	236c <memset+0xe>

00002406 <ADC_InterTSSampInit>:
ADC_InterTSSampInit():
C:/Users/OWNER/Desktop/CH573EVT_Write/EVT/EXAM/SRC/StdPeriphDriver/CH57x_adc.c:91
 *
 * @return  none
 */
void ADC_InterTSSampInit(void)
{
    R8_TKEY_CFG &= ~RB_TKEY_PWR_ON;
    2406:	400017b7          	lui	a5,0x40001
    240a:	0577c703          	lbu	a4,87(a5) # 40001057 <_eusrstack+0x1fff9057>
    240e:	0fe77713          	andi	a4,a4,254
    2412:	04e78ba3          	sb	a4,87(a5)
C:/Users/OWNER/Desktop/CH573EVT_Write/EVT/EXAM/SRC/StdPeriphDriver/CH57x_adc.c:92
    R8_TEM_SENSOR = RB_TEM_SEN_PWR_ON;
    2416:	f8000713          	li	a4,-128
    241a:	04e78da3          	sb	a4,91(a5)
C:/Users/OWNER/Desktop/CH573EVT_Write/EVT/EXAM/SRC/StdPeriphDriver/CH57x_adc.c:93
    R8_ADC_CHANNEL = CH_INTE_VTEMP;
    241e:	473d                	li	a4,15
    2420:	04e78c23          	sb	a4,88(a5)
C:/Users/OWNER/Desktop/CH573EVT_Write/EVT/EXAM/SRC/StdPeriphDriver/CH57x_adc.c:94
    R8_ADC_CFG = RB_ADC_POWER_ON | RB_ADC_DIFF_EN | (3 << 4);
    2424:	03500713          	li	a4,53
    2428:	04e78ca3          	sb	a4,89(a5)
C:/Users/OWNER/Desktop/CH573EVT_Write/EVT/EXAM/SRC/StdPeriphDriver/CH57x_adc.c:95
}
    242c:	8082                	ret

0000242e <Calibration_LSI_FLASH>:
Calibration_LSI_FLASH():
C:/Users/OWNER/Desktop/CH573EVT_Write/EVT/EXAM/SRC/StdPeriphDriver/CH57x_clk.c:147
    rev = R16_CLK_SYS_CFG & 0xff;
    242e:	400017b7          	lui	a5,0x40001
    2432:	0087d503          	lhu	a0,8(a5) # 40001008 <_eusrstack+0x1fff9008>
C:/Users/OWNER/Desktop/CH573EVT_Write/EVT/EXAM/SRC/StdPeriphDriver/CH57x_clk.c:137
{
    2436:	715d                	addi	sp,sp,-80
    2438:	d65e                	sw	s7,44(sp)
C:/Users/OWNER/Desktop/CH573EVT_Write/EVT/EXAM/SRC/StdPeriphDriver/CH57x_clk.c:147
    rev = R16_CLK_SYS_CFG & 0xff;
    243a:	0542                	slli	a0,a0,0x10
    243c:	8141                	srli	a0,a0,0x10
C:/Users/OWNER/Desktop/CH573EVT_Write/EVT/EXAM/SRC/StdPeriphDriver/CH57x_clk.c:137
{
    243e:	c686                	sw	ra,76(sp)
    2440:	c4a2                	sw	s0,72(sp)
    2442:	c2a6                	sw	s1,68(sp)
    2444:	c0ca                	sw	s2,64(sp)
    2446:	de4e                	sw	s3,60(sp)
    2448:	dc52                	sw	s4,56(sp)
    244a:	da56                	sw	s5,52(sp)
    244c:	d85a                	sw	s6,48(sp)
    244e:	d462                	sw	s8,40(sp)
    2450:	d266                	sw	s9,36(sp)
    2452:	d06a                	sw	s10,32(sp)
    2454:	ce6e                	sw	s11,28(sp)
    2456:	0c057793          	andi	a5,a0,192
C:/Users/OWNER/Desktop/CH573EVT_Write/EVT/EXAM/SRC/StdPeriphDriver/CH57x_clk.c:148
    if((rev & RB_CLK_SYS_MOD) == (2 << 6))
    245a:	08000713          	li	a4,128
C:/Users/OWNER/Desktop/CH573EVT_Write/EVT/EXAM/SRC/StdPeriphDriver/CH57x_clk.c:137
{
    245e:	4b81                	li	s7,0
C:/Users/OWNER/Desktop/CH573EVT_Write/EVT/EXAM/SRC/StdPeriphDriver/CH57x_clk.c:148
    if((rev & RB_CLK_SYS_MOD) == (2 << 6))
    2460:	18e78863          	beq	a5,a4,25f0 <Calibration_LSI_FLASH+0x1c2>
C:/Users/OWNER/Desktop/CH573EVT_Write/EVT/EXAM/SRC/StdPeriphDriver/CH57x_clk.c:153
    else if((rev & RB_CLK_SYS_MOD) == (1 << 6))
    2464:	04000713          	li	a4,64
    2468:	14e79c63          	bne	a5,a4,25c0 <Calibration_LSI_FLASH+0x192>
C:/Users/OWNER/Desktop/CH573EVT_Write/EVT/EXAM/SRC/StdPeriphDriver/CH57x_clk.c:155
        calv = (((uint32_t)5 * 480000000 / (rev & 0x1f) + (CAB_LSIFQ >> 1)) / CAB_LSIFQ);
    246c:	8f0d24b7          	lui	s1,0x8f0d2
    2470:	897d                	andi	a0,a0,31
    2472:	80048493          	addi	s1,s1,-2048 # 8f0d1800 <_eusrstack+0x6f0c9800>
    2476:	02a4d4b3          	divu	s1,s1,a0
    247a:	6791                	lui	a5,0x4
    247c:	e8078793          	addi	a5,a5,-384 # 3e80 <Rec_OTA_IAP_DataDeal+0xa>
    2480:	94be                	add	s1,s1,a5
    2482:	67a1                	lui	a5,0x8
    2484:	d0078793          	addi	a5,a5,-768 # 7d00 <GAP_UpdateAdvertisingData+0x16>
    2488:	02f4d4b3          	divu	s1,s1,a5
C:/Users/OWNER/Desktop/CH573EVT_Write/EVT/EXAM/SRC/StdPeriphDriver/CH57x_clk.c:156
        CNT_STEP_K = -0.1 * (rev & 0x1f);
    248c:	6691a0ef          	jal	ra,1d2f4 <__floatsidf>
    2490:	0001d797          	auipc	a5,0x1d
    2494:	80078793          	addi	a5,a5,-2048 # 1ec90 <_sbrk+0x3a>
C:/Users/OWNER/Desktop/CH573EVT_Write/EVT/EXAM/SRC/StdPeriphDriver/CH57x_clk.c:161
        CNT_STEP_K = -1.6 * (rev & 0x1f);
    2498:	4390                	lw	a2,0(a5)
    249a:	43d4                	lw	a3,4(a5)
    249c:	1a51a0ef          	jal	ra,1ce40 <__muldf3>
    24a0:	27c1b0ef          	jal	ra,1d71c <__truncdfsf2>
    24a4:	8b2a                	mv	s6,a0
C:/Users/OWNER/Desktop/CH573EVT_Write/EVT/EXAM/SRC/StdPeriphDriver/CH57x_clk.c:168
    basev = calv; // 获取校准标称值
    24a6:	01049c93          	slli	s9,s1,0x10
C:/Users/OWNER/Desktop/CH573EVT_Write/EVT/EXAM/SRC/StdPeriphDriver/CH57x_clk.c:170
    if(Int32K_Tune_FLASH)
    24aa:	6d81d903          	lhu	s2,1752(gp) # 20004ed8 <_edata>
C:/Users/OWNER/Desktop/CH573EVT_Write/EVT/EXAM/SRC/StdPeriphDriver/CH57x_clk.c:168
    basev = calv; // 获取校准标称值
    24ae:	010cdc93          	srli	s9,s9,0x10
C:/Users/OWNER/Desktop/CH573EVT_Write/EVT/EXAM/SRC/StdPeriphDriver/CH57x_clk.c:170
    if(Int32K_Tune_FLASH)
    24b2:	00091563          	bnez	s2,24bc <Calibration_LSI_FLASH+0x8e>
C:/Users/OWNER/Desktop/CH573EVT_Write/EVT/EXAM/SRC/StdPeriphDriver/CH57x_clk.c:176
        loc = 2048;
    24b6:	6905                	lui	s2,0x1
    24b8:	80090913          	addi	s2,s2,-2048 # 800 <_sinit-0x800>
sys_safe_access_enable():
C:\Users\OWNER\Desktop\CH573EVT_Write\EVT\EXAM\SRC\StdPeriphDriver\inc/CH57x_sys.h:171
    R8_SAFE_ACCESS_SIG = SAFE_ACCESS_SIG1;
    24bc:	400017b7          	lui	a5,0x40001
    24c0:	05700713          	li	a4,87
    24c4:	04e78023          	sb	a4,64(a5) # 40001040 <_eusrstack+0x1fff9040>
C:\Users\OWNER\Desktop\CH573EVT_Write\EVT\EXAM\SRC\StdPeriphDriver\inc/CH57x_sys.h:172
    R8_SAFE_ACCESS_SIG = SAFE_ACCESS_SIG2;
    24c8:	fa800713          	li	a4,-88
    24cc:	04e78023          	sb	a4,64(a5)
C:\Users\OWNER\Desktop\CH573EVT_Write\EVT\EXAM\SRC\StdPeriphDriver\inc/CH57x_sys.h:171
    R8_SAFE_ACCESS_SIG = SAFE_ACCESS_SIG1;
    24d0:	40001a37          	lui	s4,0x40001
Calibration_LSI_FLASH():
C:/Users/OWNER/Desktop/CH573EVT_Write/EVT/EXAM/SRC/StdPeriphDriver/CH57x_clk.c:185
    R8_OSC_CAL_CTRL = RB_OSC_CNT_EN;
    24d4:	4705                	li	a4,1
    24d6:	01049d93          	slli	s11,s1,0x10
    24da:	6c09                	lui	s8,0x2
    24dc:	6685                	lui	a3,0x1
    24de:	04e78923          	sb	a4,82(a5)
    24e2:	4ad1                	li	s5,20
C:/Users/OWNER/Desktop/CH573EVT_Write/EVT/EXAM/SRC/StdPeriphDriver/CH57x_clk.c:182
    diffc = 0;
    24e4:	4e81                	li	t4,0
C:/Users/OWNER/Desktop/CH573EVT_Write/EVT/EXAM/SRC/StdPeriphDriver/CH57x_clk.c:181
    diff_2 = 0;
    24e6:	4581                	li	a1,0
sys_safe_access_enable():
C:\Users\OWNER\Desktop\CH573EVT_Write\EVT\EXAM\SRC\StdPeriphDriver\inc/CH57x_sys.h:171
    24e8:	040a0d13          	addi	s10,s4,64 # 40001040 <_eusrstack+0x1fff9040>
    24ec:	05700813          	li	a6,87
C:\Users\OWNER\Desktop\CH573EVT_Write\EVT\EXAM\SRC\StdPeriphDriver\inc/CH57x_sys.h:172
    R8_SAFE_ACCESS_SIG = SAFE_ACCESS_SIG2;
    24f0:	fa800613          	li	a2,-88
Calibration_LSI_FLASH():
C:/Users/OWNER/Desktop/CH573EVT_Write/EVT/EXAM/SRC/StdPeriphDriver/CH57x_clk.c:208
            if((diffc == 1) || (diffc == -1) || (diffc == 0))
    24f4:	4889                	li	a7,2
    24f6:	010ddd93          	srli	s11,s11,0x10
    24fa:	710c0c13          	addi	s8,s8,1808 # 2710 <Calibration_LSI_RAM+0x5e>
C:/Users/OWNER/Desktop/CH573EVT_Write/EVT/EXAM/SRC/StdPeriphDriver/CH57x_clk.c:235
        if(((i > basev ? (i - basev) : (basev - i)) * 10000 / basev) < 11)
    24fe:	4329                	li	t1,10
    2500:	16fd                	addi	a3,a3,-1
sys_safe_access_enable():
C:\Users\OWNER\Desktop\CH573EVT_Write\EVT\EXAM\SRC\StdPeriphDriver\inc/CH57x_sys.h:171
    R8_SAFE_ACCESS_SIG = SAFE_ACCESS_SIG1;
    2502:	010d0023          	sb	a6,0(s10)
C:\Users\OWNER\Desktop\CH573EVT_Write\EVT\EXAM\SRC\StdPeriphDriver\inc/CH57x_sys.h:172
    R8_SAFE_ACCESS_SIG = SAFE_ACCESS_SIG2;
    2506:	00cd0023          	sb	a2,0(s10)
Calibration_LSI_FLASH():
C:/Users/OWNER/Desktop/CH573EVT_Write/EVT/EXAM/SRC/StdPeriphDriver/CH57x_clk.c:189
        R16_INT32K_TUNE = loc;
    250a:	032a1623          	sh	s2,44(s4)
sys_safe_access_disable():
C:\Users\OWNER\Desktop\CH573EVT_Write\EVT\EXAM\SRC\StdPeriphDriver\inc/CH57x_sys.h:177
    R8_SAFE_ACCESS_SIG = 0;
    250e:	000d0023          	sb	zero,0(s10)
Calibration_LSI_FLASH():
C:/Users/OWNER/Desktop/CH573EVT_Write/EVT/EXAM/SRC/StdPeriphDriver/CH57x_clk.c:193 (discriminator 1)
        while(!(R8_OSC_CAL_CTRL & RB_OSC_CNT_HALT));
    2512:	052a4783          	lbu	a5,82(s4)
    2516:	8b89                	andi	a5,a5,2
    2518:	dfed                	beqz	a5,2512 <Calibration_LSI_FLASH+0xe4>
C:/Users/OWNER/Desktop/CH573EVT_Write/EVT/EXAM/SRC/StdPeriphDriver/CH57x_clk.c:194
        i = R16_OSC_CAL_CNT; // 用于丢弃
    251a:	050a5783          	lhu	a5,80(s4)
C:/Users/OWNER/Desktop/CH573EVT_Write/EVT/EXAM/SRC/StdPeriphDriver/CH57x_clk.c:195 (discriminator 1)
        while(R8_OSC_CAL_CTRL & RB_OSC_CNT_HALT);
    251e:	052a4783          	lbu	a5,82(s4)
    2522:	8b89                	andi	a5,a5,2
    2524:	ffed                	bnez	a5,251e <Calibration_LSI_FLASH+0xf0>
C:/Users/OWNER/Desktop/CH573EVT_Write/EVT/EXAM/SRC/StdPeriphDriver/CH57x_clk.c:196 (discriminator 1)
        while(!(R8_OSC_CAL_CTRL & RB_OSC_CNT_HALT));
    2526:	052a4783          	lbu	a5,82(s4)
    252a:	8b89                	andi	a5,a5,2
    252c:	dfed                	beqz	a5,2526 <Calibration_LSI_FLASH+0xf8>
C:/Users/OWNER/Desktop/CH573EVT_Write/EVT/EXAM/SRC/StdPeriphDriver/CH57x_clk.c:197
        i = R16_OSC_CAL_CNT; // 实时校准后采样值
    252e:	050a5783          	lhu	a5,80(s4)
C:/Users/OWNER/Desktop/CH573EVT_Write/EVT/EXAM/SRC/StdPeriphDriver/CH57x_clk.c:201
        Int32K_Tune_FLASH = loc;
    2532:	6d219c23          	sh	s2,1752(gp) # 20004ed8 <_edata>
C:/Users/OWNER/Desktop/CH573EVT_Write/EVT/EXAM/SRC/StdPeriphDriver/CH57x_clk.c:197
        i = R16_OSC_CAL_CNT; // 实时校准后采样值
    2536:	07c2                	slli	a5,a5,0x10
    2538:	83c1                	srli	a5,a5,0x10
C:/Users/OWNER/Desktop/CH573EVT_Write/EVT/EXAM/SRC/StdPeriphDriver/CH57x_clk.c:199
        diff_1 = i - basev;
    253a:	41978533          	sub	a0,a5,s9
    253e:	01051993          	slli	s3,a0,0x10
    2542:	4109d993          	srai	s3,s3,0x10
C:/Users/OWNER/Desktop/CH573EVT_Write/EVT/EXAM/SRC/StdPeriphDriver/CH57x_clk.c:202
        if(diff_1 == 0)
    2546:	16098463          	beqz	s3,26ae <Calibration_LSI_FLASH+0x280>
C:/Users/OWNER/Desktop/CH573EVT_Write/EVT/EXAM/SRC/StdPeriphDriver/CH57x_clk.c:206
        else if((diff_1 * diff_2) < 0)
    254a:	02b98733          	mul	a4,s3,a1
    254e:	0c075e63          	bgez	a4,262a <Calibration_LSI_FLASH+0x1fc>
C:/Users/OWNER/Desktop/CH573EVT_Write/EVT/EXAM/SRC/StdPeriphDriver/CH57x_clk.c:208 (discriminator 1)
